{
	"compilerInput": "{\"language\":\"Solidity\",\"sources\":{\"contracts/KYC.sol\":{\"content\":\"// SPDX-License-Identifier: GPL-3.0\\r\\npragma solidity >=0.4.25 <0.9.0;\\r\\n\\r\\nimport \\\"./Customers.sol\\\";\\r\\nimport \\\"./Banks.sol\\\";\\r\\ncontract KYC is Customers, Banks {\\r\\n    address admin;\\r\\n    address[] internal userList;\\r\\n\\r\\n    mapping(address => Types.User) internal users;\\r\\n    mapping(string => Types.KycRequest) internal kycRequests;\\r\\n    mapping(address => address[]) internal bankCustomers; // All customers associated to a Bank\\r\\n    mapping(address => address[]) internal customerbanks; // All banks associated to a Customer\\r\\n\\r\\n    constructor(string memory name_, string memory email_) {\\r\\n        admin = msg.sender;\\r\\n        Types.User memory usr_ = Types.User({\\r\\n            name: name_,\\r\\n            email: email_,\\r\\n            id_: admin,\\r\\n            role: Types.Role.Admin,\\r\\n            status: Types.BankStatus.Active\\r\\n        });\\r\\n        users[admin] = usr_;\\r\\n        userList.push(admin);\\r\\n    }\\r\\n\\r\\n    modifier isAdmin() {\\r\\n        require(msg.sender == admin, \\\"Only admin is allowed\\\");\\r\\n        _;\\r\\n    }\\r\\n\\r\\n    function kycRequestExists(string memory reqId_)\\r\\n        internal\\r\\n        view\\r\\n        returns (bool)\\r\\n    {\\r\\n        require(!Helpers.compareStrings(reqId_, \\\"\\\"), \\\"Request Id empty\\\");\\r\\n        return Helpers.compareStrings(kycRequests[reqId_].id_, reqId_);\\r\\n    }\\r\\n\\r\\n    function getKYCRequests(uint256 pageNumber, bool isForBank)\\r\\n        internal\\r\\n        view\\r\\n        returns (uint256 totalPages, Types.KycRequest[] memory)\\r\\n    {\\r\\n        require(pageNumber > 0, \\\"PN should be > zero\\\");\\r\\n        (\\r\\n            uint256 pages,\\r\\n            uint256 pageLength_,\\r\\n            uint256 startIndex_,\\r\\n            uint256 endIndex_\\r\\n        ) = Helpers.getIndexes(\\r\\n                pageNumber,\\r\\n                isForBank\\r\\n                    ? bankCustomers[msg.sender]\\r\\n                    : customerbanks[msg.sender]\\r\\n            );\\r\\n        Types.KycRequest[] memory list_ = new Types.KycRequest[](pageLength_);\\r\\n        for (uint256 i = startIndex_; i < endIndex_; i++)\\r\\n            list_[i] = isForBank\\r\\n                ? kycRequests[\\r\\n                    Helpers.append(msg.sender, bankCustomers[msg.sender][i])\\r\\n                ]\\r\\n                : kycRequests[\\r\\n                    Helpers.append(customerbanks[msg.sender][i], msg.sender)\\r\\n                ];\\r\\n        return (pages, list_);\\r\\n    }\\r\\n\\r\\n    event KycRequestAdded(string reqId, string bankName, string customerName);\\r\\n    event KycReRequested(string reqId, string bankName, string customerName);\\r\\n    event KycStatusChanged(\\r\\n        string reqId,\\r\\n        address customerId,\\r\\n        address bankId,\\r\\n        Types.KycStatus status\\r\\n    );\\r\\n    event DataHashPermissionChanged(\\r\\n        string reqId,\\r\\n        address customerId,\\r\\n        address bankId,\\r\\n        Types.DataHashStatus status\\r\\n    );\\r\\n  \\r\\n    function getAllBanks(uint256 pageNumber)\\r\\n        public\\r\\n        view\\r\\n        isAdmin\\r\\n        returns (uint256 totalPages, Types.Bank[] memory)\\r\\n    {\\r\\n        return getallbanks(pageNumber);\\r\\n    }\\r\\n\\r\\n    function addBank(Types.Bank memory bank_) public isAdmin {\\r\\n        addbank(bank_);\\r\\n        // Adding to common list\\r\\n        users[bank_.id_] = Types.User({\\r\\n            name: bank_.name,\\r\\n            email: bank_.email,\\r\\n            id_: bank_.id_,\\r\\n            role: Types.Role.Bank,\\r\\n            status: Types.BankStatus.Active\\r\\n        });\\r\\n        userList.push(bank_.id_);\\r\\n    }\\r\\n\\r\\n    function updateBankDetails(\\r\\n        address id_,\\r\\n        string memory email_,\\r\\n        string memory name_\\r\\n    ) public isAdmin {\\r\\n        updatebank(id_, email_, name_);\\r\\n        // Updating in common list\\r\\n        users[id_].name = name_;\\r\\n        users[id_].email = email_;\\r\\n    }\\r\\n\\r\\n    function activateDeactivateBank(address id_, bool makeActive_)\\r\\n        public\\r\\n        isAdmin\\r\\n    {\\r\\n        // Updating in common list\\r\\n        users[id_].status = activatedeactivatebank(id_, makeActive_);\\r\\n    }\\r\\n\\r\\n    function getCustomersOfBank(uint256 pageNumber)\\r\\n        public\\r\\n        view\\r\\n        isValidBank(msg.sender)\\r\\n        returns (uint256 totalPages, Types.KycRequest[] memory)\\r\\n    {\\r\\n        return getKYCRequests(pageNumber, true);\\r\\n    }\\r\\n\\r\\n    /**\\r\\n     * @notice Records new KYC request for a customer\\r\\n     * @param customer_ Customer details for whom the request is to be raised\\r\\n     * @param currentTime_ Current Date & Time in unix epoch timestamp\\r\\n     * @param notes_ Any additional notes that need to be added\\r\\n     */\\r\\n    function addKycRequest(\\r\\n        Types.Customer memory customer_,\\r\\n        uint256 currentTime_,\\r\\n        string memory notes_\\r\\n    ) public isValidBank(msg.sender) {\\r\\n        string memory reqId_ = Helpers.append(msg.sender, customer_.id_);\\r\\n        require(!kycRequestExists(reqId_), \\\"User had kyc req.\\\");\\r\\n\\r\\n        kycRequests[reqId_] = Types.KycRequest({\\r\\n            id_: reqId_,\\r\\n            userId_: customer_.id_,\\r\\n            customerName: customer_.name,\\r\\n            bankId_: msg.sender,\\r\\n            bankName: getsinglebank(msg.sender).name,\\r\\n            dataHash: customer_.dataHash,\\r\\n            updatedOn: currentTime_,\\r\\n            status: Types.KycStatus.Pending,\\r\\n            dataRequest: Types.DataHashStatus.Pending,\\r\\n            additionalNotes: notes_\\r\\n        });\\r\\n        bankCustomers[msg.sender].push(customer_.id_);\\r\\n        customerbanks[customer_.id_].push(msg.sender);\\r\\n        emit KycRequestAdded(\\r\\n            reqId_,\\r\\n            kycRequests[reqId_].bankName,\\r\\n            customer_.name\\r\\n        );\\r\\n\\r\\n        if (!customerExists(customer_.id_)) {\\r\\n            addcustomer(customer_);\\r\\n            // Adding to common list\\r\\n            users[customer_.id_] = Types.User({\\r\\n                name: customer_.name,\\r\\n                email: customer_.email,\\r\\n                id_: customer_.id_,\\r\\n                role: Types.Role.Customer,\\r\\n                status: Types.BankStatus.Active\\r\\n            });\\r\\n            userList.push(customer_.id_);\\r\\n        }\\r\\n    }\\r\\n\\r\\n    function reRequestForKycRequest(address id_, string memory notes_)\\r\\n        public\\r\\n        isValidBank(msg.sender)\\r\\n    {\\r\\n        string memory reqId_ = Helpers.append(msg.sender, id_);\\r\\n        require(kycRequestExists(reqId_), \\\"KYC req not found\\\");\\r\\n        require(customerExists(id_), \\\"User not found\\\");\\r\\n\\r\\n        // kycRequests[reqId_].status = Types.KycStatus.Pending;\\r\\n        kycRequests[reqId_].dataRequest = Types.DataHashStatus.Pending;\\r\\n        kycRequests[reqId_].additionalNotes = notes_;\\r\\n\\r\\n        emit KycReRequested(\\r\\n            reqId_,\\r\\n            kycRequests[reqId_].bankName,\\r\\n            kycRequests[reqId_].customerName\\r\\n        );\\r\\n    }\\r\\n\\r\\n    function updateKycVerification(\\r\\n        address userId_,\\r\\n        bool verified_,\\r\\n        string memory note_\\r\\n    ) public isValidBank(msg.sender) {\\r\\n        string memory reqId_ = Helpers.append(msg.sender, userId_);\\r\\n        require(kycRequestExists(reqId_), \\\"User doesn't have KYC req\\\");\\r\\n\\r\\n        Types.KycStatus status_ = Types.KycStatus.Pending;\\r\\n        if (verified_) {\\r\\n            status_ = Types.KycStatus.KYCVerified;\\r\\n            updatekyccount(msg.sender);\\r\\n            updatekycdoneby(userId_);\\r\\n        } else {\\r\\n            status_ = Types.KycStatus.KYCFailed;\\r\\n        }\\r\\n\\r\\n        kycRequests[reqId_].status = status_;\\r\\n        kycRequests[reqId_].additionalNotes = note_;\\r\\n        emit KycStatusChanged(reqId_, userId_, msg.sender, status_);\\r\\n    }\\r\\n\\r\\n    function searchCustomers(address id_)\\r\\n        public\\r\\n        view\\r\\n        isValidCustomer(id_)\\r\\n        isValidBank(msg.sender)\\r\\n        returns (\\r\\n            bool,\\r\\n            Types.Customer memory,\\r\\n            Types.KycRequest memory\\r\\n        )\\r\\n    {\\r\\n        bool found_;\\r\\n        Types.Customer memory customer_;\\r\\n        Types.KycRequest memory request_;\\r\\n        (found_, customer_) = searchcustomers(id_, bankCustomers[msg.sender]);\\r\\n        if (found_) request_ = kycRequests[Helpers.append(msg.sender, id_)];\\r\\n        return (found_, customer_, request_);\\r\\n    }\\r\\n\\r\\n    function getBankRequests(uint256 pageNumber)\\r\\n        public\\r\\n        view\\r\\n        isValidCustomer(msg.sender)\\r\\n        returns (uint256 totalPages, Types.KycRequest[] memory)\\r\\n    {\\r\\n        return getKYCRequests(pageNumber, false);\\r\\n    }\\r\\n\\r\\n    function actionOnKycRequest(\\r\\n        address bankId_,\\r\\n        bool approve_,\\r\\n        string memory note_\\r\\n    ) public isValidCustomer(msg.sender) isValidBank(bankId_) {\\r\\n        string memory reqId_ = Helpers.append(bankId_, msg.sender);\\r\\n        require(kycRequestExists(reqId_), \\\"User doesn't have KYC req\\\");\\r\\n\\r\\n        Types.DataHashStatus status_ = Types.DataHashStatus.Pending;\\r\\n        if (approve_) {\\r\\n            status_ = Types.DataHashStatus.Approved;\\r\\n        } else {\\r\\n            status_ = Types.DataHashStatus.Rejected;\\r\\n        }\\r\\n        kycRequests[reqId_].dataRequest = status_;\\r\\n        kycRequests[reqId_].additionalNotes = note_;\\r\\n\\r\\n        emit DataHashPermissionChanged(reqId_, msg.sender, bankId_, status_);\\r\\n    }\\r\\n\\r\\n    function updateProfile(\\r\\n        string memory name_,\\r\\n        string memory email_,\\r\\n        uint256 mobile_\\r\\n    ) public isValidCustomer(msg.sender) {\\r\\n        updateprofile(name_, email_, mobile_);\\r\\n        // Updating in common list\\r\\n        users[msg.sender].name = name_;\\r\\n        users[msg.sender].email = email_;\\r\\n    }\\r\\n\\r\\n    /**\\r\\n     * @dev Updates the Datahash of the documents\\r\\n     * @param hash_ Data hash value that need to be updated\\r\\n     * @param currentTime_ Current Date Time in unix epoch timestamp\\r\\n     */\\r\\n    function updateDatahash(string memory hash_, uint256 currentTime_)\\r\\n        public\\r\\n        isValidCustomer(msg.sender)\\r\\n    {\\r\\n        updatedatahash(hash_, currentTime_);\\r\\n\\r\\n        // Reset KYC verification status for all banks\\r\\n        address[] memory banksList_ = customerbanks[msg.sender];\\r\\n        for (uint256 i = 0; i < banksList_.length; i++) {\\r\\n            string memory reqId_ = Helpers.append(banksList_[i], msg.sender);\\r\\n            if (kycRequestExists(reqId_)) {\\r\\n                kycRequests[reqId_].dataHash = hash_;\\r\\n                kycRequests[reqId_].updatedOn = currentTime_;\\r\\n                kycRequests[reqId_].status = Types.KycStatus.Pending;\\r\\n                kycRequests[reqId_].additionalNotes = \\\"Updated all my docs\\\";\\r\\n            }\\r\\n        }\\r\\n    }\\r\\n\\r\\n    function removerDatahashPermission(address bankId_, string memory notes_)\\r\\n        public\\r\\n        isValidCustomer(msg.sender)\\r\\n    {\\r\\n        string memory reqId_ = Helpers.append(bankId_, msg.sender);\\r\\n        require(kycRequestExists(reqId_), \\\"Permission not found\\\");\\r\\n        kycRequests[reqId_].dataRequest = Types.DataHashStatus.Rejected;\\r\\n        kycRequests[reqId_].additionalNotes = notes_;\\r\\n        emit DataHashPermissionChanged(\\r\\n            reqId_,\\r\\n            msg.sender,\\r\\n            bankId_,\\r\\n            Types.DataHashStatus.Rejected\\r\\n        );\\r\\n    }\\r\\n\\r\\n    function searchBanks(address bankId_)\\r\\n        public\\r\\n        view\\r\\n        isValidCustomer(msg.sender)\\r\\n        isValidBank(bankId_)\\r\\n        returns (\\r\\n            bool,\\r\\n            Types.Bank memory,\\r\\n            Types.KycRequest memory\\r\\n        )\\r\\n    {\\r\\n        bool found_;\\r\\n        Types.Bank memory bank_;\\r\\n        Types.KycRequest memory request_;\\r\\n        address[] memory banks_ = customerbanks[msg.sender];\\r\\n\\r\\n        for (uint256 i = 0; i < banks_.length; i++) {\\r\\n            if (banks_[i] == bankId_) {\\r\\n                found_ = true;\\r\\n                bank_ = getsinglebank(bankId_);\\r\\n                request_ = kycRequests[Helpers.append(bankId_, msg.sender)];\\r\\n                break;\\r\\n            }\\r\\n        }\\r\\n        return (found_, bank_, request_);\\r\\n    }\\r\\n\\r\\n    function whoAmI() public view returns (Types.User memory) {\\r\\n        require(msg.sender != address(0), \\\"Sender Id Empty\\\");\\r\\n        require(users[msg.sender].id_ != address(0), \\\"User Id Empty\\\");\\r\\n        return users[msg.sender];\\r\\n    }\\r\\n\\r\\n    function getCustomerDetails(address id_)\\r\\n        public\\r\\n        view\\r\\n        isValidCustomer(id_)\\r\\n        returns (Types.Customer memory)\\r\\n    {\\r\\n        return getcustomerdetails(id_);\\r\\n    }\\r\\n\\r\\n    function getBankDetails(address id_)\\r\\n        public\\r\\n        view\\r\\n        isValidBank(id_)\\r\\n        returns (Types.Bank memory)\\r\\n    {\\r\\n        return getsinglebank(id_);\\r\\n    }\\r\\n}\\r\\n\"},\"contracts/Banks.sol\":{\"content\":\"// SPDX-License-Identifier: GPL-3.0\\r\\npragma experimental ABIEncoderV2;\\r\\npragma solidity >=0.4.25 <0.9.0;\\r\\n\\r\\nimport \\\"./Types.sol\\\";\\r\\nimport \\\"./Helpers.sol\\\";\\r\\n\\r\\n/**\\r\\n * @title Banks\\r\\n * @author Suresh Konakanchi\\r\\n * @dev Library for managing all finanicial institutions thata were involved in the KYC process\\r\\n */\\r\\ncontract Banks {\\r\\n    address[] internal bankList;\\r\\n    mapping(address => Types.Bank) internal banks;\\r\\n\\r\\n    // Events\\r\\n\\r\\n    event BankAdded(address id_, string name, string email, string ifscCode);\\r\\n    event BankUpdated(address id_, string name, string email);\\r\\n    event BankActivated(address id_, string name);\\r\\n    event BankDeactivated(address id_, string name);\\r\\n\\r\\n    // Modifiers\\r\\n\\r\\n    /**\\r\\n     * @notice Checks whether the requestor is bank & is active\\r\\n     * @param id_ Metamask address of the bank\\r\\n     */\\r\\n    modifier isValidBank(address id_) {\\r\\n        require(banks[id_].id_ != address(0), \\\"Bank not found\\\");\\r\\n        require(banks[id_].id_ == id_, \\\"Bank not found\\\");\\r\\n        require(\\r\\n            banks[id_].status == Types.BankStatus.Active,\\r\\n            \\\"Bank is not active\\\"\\r\\n        );\\r\\n        _;\\r\\n    }\\r\\n\\r\\n    // Contract Methods\\r\\n\\r\\n    /**\\r\\n     * @dev All the banks list. Data will be sent in pages to avoid the more gas fee\\r\\n     * @param pageNumber page number for which data is needed (1..2..3....n)\\r\\n     * @return totalPages Total pages available\\r\\n     * @return Bank[] List of banks in the current page\\r\\n     */\\r\\n    function getallbanks(uint256 pageNumber)\\r\\n        internal\\r\\n        view\\r\\n        returns (uint256 totalPages, Types.Bank[] memory)\\r\\n    {\\r\\n        require(pageNumber > 0, \\\"PN should be > 0\\\");\\r\\n        (\\r\\n            uint256 pages,\\r\\n            uint256 pageLength_,\\r\\n            uint256 startIndex_,\\r\\n            uint256 endIndex_\\r\\n        ) = Helpers.getIndexes(pageNumber, bankList);\\r\\n\\r\\n        Types.Bank[] memory banksList_ = new Types.Bank[](pageLength_);\\r\\n        for (uint256 i = startIndex_; i < endIndex_; i++)\\r\\n            banksList_[i] = banks[bankList[i]];\\r\\n        return (pages, banksList_);\\r\\n    }\\r\\n\\r\\n    /**\\r\\n     * @dev To get details of the single bank\\r\\n     * @param id_ metamask address of the requested bank\\r\\n     * @return Bank Details of the bank\\r\\n     */\\r\\n    function getsinglebank(address id_)\\r\\n        internal\\r\\n        view\\r\\n        returns (Types.Bank memory)\\r\\n    {\\r\\n        require(id_ != address(0), \\\"Bank Id Empty\\\");\\r\\n        return banks[id_];\\r\\n    }\\r\\n\\r\\n    /**\\r\\n     * @dev To add new bank account\\r\\n     * @param bank_ Bank details, which need to be added to the system\\r\\n     */\\r\\n    function addbank(Types.Bank memory bank_) internal {\\r\\n        require(banks[bank_.id_].id_ == address(0), \\\"Bank exists\\\");\\r\\n\\r\\n        banks[bank_.id_] = bank_;\\r\\n        bankList.push(bank_.id_);\\r\\n        emit BankAdded(bank_.id_, bank_.name, bank_.email, bank_.ifscCode);\\r\\n    }\\r\\n\\r\\n    /**\\r\\n     * @dev To add new bank account\\r\\n     * @param id_ Bank's metamask address\\r\\n     * @param email_ Bank's email address that need to be updated\\r\\n     * @param name_ Bank's name which need to be updated\\r\\n     */\\r\\n    function updatebank(\\r\\n        address id_,\\r\\n        string memory email_,\\r\\n        string memory name_\\r\\n    ) internal {\\r\\n        require(banks[id_].id_ != address(0), \\\"Bank not found\\\");\\r\\n\\r\\n        banks[id_].name = name_;\\r\\n        banks[id_].email = email_;\\r\\n        emit BankUpdated(id_, name_, email_);\\r\\n    }\\r\\n\\r\\n    /**\\r\\n     * @dev To add new bank account\\r\\n     * @param id_ Bank's metamask address\\r\\n     * @param makeActive_ If true, bank will be marked as active, else, it will be marked as deactivateds\\r\\n     * @return BankStatus current status of the bank to update in common list\\r\\n     */\\r\\n    function activatedeactivatebank(address id_, bool makeActive_)\\r\\n        internal\\r\\n        returns (Types.BankStatus)\\r\\n    {\\r\\n        require(banks[id_].id_ != address(0), \\\"Bank not found\\\");\\r\\n\\r\\n        if (makeActive_ && banks[id_].status == Types.BankStatus.Inactive) {\\r\\n            banks[id_].status = Types.BankStatus.Active;\\r\\n            emit BankActivated(id_, banks[id_].name);\\r\\n\\r\\n            // Updating in common list\\r\\n            return Types.BankStatus.Active;\\r\\n        } else if (\\r\\n            !makeActive_ && banks[id_].status == Types.BankStatus.Active\\r\\n        ) {\\r\\n            banks[id_].status = Types.BankStatus.Inactive;\\r\\n            emit BankDeactivated(id_, banks[id_].name);\\r\\n\\r\\n            // Updating in common list\\r\\n            return Types.BankStatus.Inactive;\\r\\n        } else {\\r\\n            // Already upto date\\r\\n            return banks[id_].status;\\r\\n        }\\r\\n    }\\r\\n\\r\\n    /**\\r\\n     * @dev To update the kyc count that bank did\\r\\n     * @param id_ Bank's metamask address\\r\\n     */\\r\\n    function updatekyccount(address id_) internal {\\r\\n        require(id_ != address(0), \\\"Bank not found\\\");\\r\\n        banks[id_].kycCount++;\\r\\n    }\\r\\n}\\r\\n\"},\"contracts/Customers.sol\":{\"content\":\"// SPDX-License-Identifier: GPL-3.0\\r\\npragma experimental ABIEncoderV2;\\r\\npragma solidity >=0.4.25 <0.9.0;\\r\\n\\r\\nimport \\\"./Types.sol\\\";\\r\\nimport \\\"./Helpers.sol\\\";\\r\\n\\r\\n/**\\r\\n * @title Customers\\r\\n * @author Suresh Konakanchi\\r\\n * @dev Library for managing all customers, who are involved in the KYC process\\r\\n */\\r\\ncontract Customers {\\r\\n    address[] internal customerList;\\r\\n    mapping(address => Types.Customer) internal customers;\\r\\n\\r\\n    // Events\\r\\n\\r\\n    event CustomerAdded(address id_, string name, string email);\\r\\n    event CustomerDataUpdated(address id_, string name, string email);\\r\\n    event DataHashUpdated(address id_, string customerName, string dataHash);\\r\\n\\r\\n    // Modifiers\\r\\n\\r\\n    /**\\r\\n     * @notice Checks whether customer already exists\\r\\n     * @param id_ Metamask address of the customer\\r\\n     */\\r\\n    modifier isValidCustomer(address id_) {\\r\\n        require(id_ != address(0), \\\"Id is Empty\\\");\\r\\n        require(customers[id_].id_ != address(0), \\\"User Id Empty\\\");\\r\\n        require(\\r\\n            !Helpers.compareStrings(customers[id_].email, \\\"\\\"),\\r\\n            \\\"User Email Empty\\\"\\r\\n        );\\r\\n        _;\\r\\n    }\\r\\n\\r\\n    // Support Functions\\r\\n\\r\\n    /**\\r\\n     * @notice Checks whether customer already exists\\r\\n     * @param id_ Metamask address of the customer\\r\\n     * @return exists_ boolean value to say if customer exists or not\\r\\n     */\\r\\n    function customerExists(address id_) internal view returns (bool exists_) {\\r\\n        require(id_ != address(0), \\\"Id is empty\\\");\\r\\n        if (\\r\\n            customers[id_].id_ != address(0) &&\\r\\n            !Helpers.compareStrings(customers[id_].email, \\\"\\\")\\r\\n        ) {\\r\\n            exists_ = true;\\r\\n        }\\r\\n    }\\r\\n\\r\\n    // Contract Functions\\r\\n\\r\\n    /**\\r\\n     * @dev To get details of the customer\\r\\n     * @param id_ Customer's metamask address\\r\\n     * @return Customer object which will have complete details of the customer\\r\\n     */\\r\\n    function getcustomerdetails(address id_)\\r\\n        internal\\r\\n        view\\r\\n        returns (Types.Customer memory)\\r\\n    {\\r\\n        return customers[id_];\\r\\n    }\\r\\n\\r\\n    /**\\r\\n     * @dev Updates the user profile\\r\\n     * @param name_ Customer name\\r\\n     * @param email_ Email that need to be updated\\r\\n     * @param mobile_ Mobile number that need to be updated\\r\\n     */\\r\\n    function updateprofile(\\r\\n        string memory name_,\\r\\n        string memory email_,\\r\\n        uint256 mobile_\\r\\n    ) internal {\\r\\n        customers[msg.sender].name = name_;\\r\\n        customers[msg.sender].email = email_;\\r\\n        customers[msg.sender].mobileNumber = mobile_;\\r\\n        emit CustomerDataUpdated(msg.sender, name_, email_);\\r\\n    }\\r\\n\\r\\n    /**\\r\\n     * @dev Add new customer\\r\\n     * @param customer_ Customer object\\r\\n     */\\r\\n    function addcustomer(Types.Customer memory customer_) internal {\\r\\n        customers[customer_.id_] = customer_;\\r\\n        customerList.push(customer_.id_);\\r\\n        emit CustomerAdded(customer_.id_, customer_.name, customer_.email);\\r\\n    }\\r\\n\\r\\n    /**\\r\\n     * @dev To Update KYC verification bank\\r\\n     * @param id_ Customer's metamask ID\\r\\n     */\\r\\n    function updatekycdoneby(address id_) internal {\\r\\n        require(id_ != address(0), \\\"Customer Id Empty\\\");\\r\\n        customers[id_].kycVerifiedBy = msg.sender;\\r\\n    }\\r\\n\\r\\n    /**\\r\\n     * @dev Updates the Datahash of the documents\\r\\n     * @param hash_ Data hash value that need to be updated\\r\\n     * @param currentTime_ Current Date Time in unix epoch timestamp\\r\\n     */\\r\\n    function updatedatahash(string memory hash_, uint256 currentTime_)\\r\\n        internal\\r\\n    {\\r\\n        customers[msg.sender].dataHash = hash_;\\r\\n        customers[msg.sender].dataUpdatedOn = currentTime_;\\r\\n        emit DataHashUpdated(msg.sender, customers[msg.sender].name, hash_);\\r\\n    }\\r\\n\\r\\n    /**\\r\\n     * @dev Search for customer details in the list that the bank is directly linked to\\r\\n     * @param id_ Customer's metamask Id\\r\\n     * @param customers_ Customer metamask Id's\\r\\n     * @return boolean to say if customer exists or not\\r\\n     * @return Customer object to get the complete details of the customer\\r\\n     * Costly operation if we had more customers linked to this single bank\\r\\n     */\\r\\n    function searchcustomers(address id_, address[] memory customers_)\\r\\n        internal\\r\\n        view\\r\\n        returns (bool, Types.Customer memory)\\r\\n    {\\r\\n        bool found_;\\r\\n        Types.Customer memory customer_;\\r\\n\\r\\n        for (uint256 i = 0; i < customers_.length; i++) {\\r\\n            if (customers_[i] == id_) {\\r\\n                found_ = true;\\r\\n                customer_ = customers[id_];\\r\\n                break;\\r\\n            }\\r\\n        }\\r\\n        return (found_, customer_);\\r\\n    }\\r\\n}\\r\\n\"},\"contracts/Helpers.sol\":{\"content\":\"// SPDX-License-Identifier: GPL-3.0\\r\\npragma experimental ABIEncoderV2;\\r\\npragma solidity >=0.4.25 <0.9.0;\\r\\n\\r\\n/**\\r\\n * @title Helpers\\r\\n * @author Suresh Konakanchi\\r\\n * @dev Library for managing all the helper functions\\r\\n */\\r\\nlibrary Helpers {\\r\\n    /**\\r\\n     * @dev List of customers, who are linked to the current bank. Data will be sent in pages to avoid the more gas fee\\r\\n     * @param pageNumber page number for which data is needed (1..2..3....n)\\r\\n     * @param users_ User Id's who are linked to the requested bank\\r\\n     * @return pages Total pages available\\r\\n     * @return pageLength_ Length of the current page\\r\\n     * @return startIndex_ Starting index of the current page\\r\\n     * @return endIndex_ Ending index of the current page\\r\\n     */\\r\\n    function getIndexes(uint256 pageNumber, address[] memory users_)\\r\\n        internal\\r\\n        pure\\r\\n        returns (\\r\\n            uint256 pages,\\r\\n            uint256 pageLength_,\\r\\n            uint256 startIndex_,\\r\\n            uint256 endIndex_\\r\\n        )\\r\\n    {\\r\\n        uint256 reminder_ = users_.length % 25;\\r\\n        pages = users_.length / 25;\\r\\n        if (reminder_ > 0) pages++;\\r\\n\\r\\n        pageLength_ = 25;\\r\\n        startIndex_ = 25 * (pageNumber - 1);\\r\\n        endIndex_ = 25 * pageNumber;\\r\\n\\r\\n        if (pageNumber > pages) {\\r\\n            // Page requested is not existing\\r\\n            pageLength_ = 0;\\r\\n            endIndex_ = 0;\\r\\n        } else if (pageNumber == pages && reminder_ > 0) {\\r\\n            // Last page where we don't had 25 records\\r\\n            pageLength_ = reminder_;\\r\\n            endIndex_ = users_.length;\\r\\n        }\\r\\n    }\\r\\n\\r\\n    /**\\r\\n     * @notice Internal function which doesn't alter any stage or read any data\\r\\n     * Used to compare the string operations. Little costly in terms of gas fee\\r\\n     * @param a string-1 that is to be compared\\r\\n     * @param b string-2 that is to be compared\\r\\n     * @return boolean value to say if both strings matched or not\\r\\n     */\\r\\n    function compareStrings(string memory a, string memory b)\\r\\n        internal\\r\\n        pure\\r\\n        returns (bool)\\r\\n    {\\r\\n        return (keccak256(abi.encodePacked((a))) ==\\r\\n            keccak256(abi.encodePacked((b))));\\r\\n    }\\r\\n\\r\\n    /**\\r\\n     * @notice Internal function used to concatenate two addresses.\\r\\n     * @param a address-1\\r\\n     * @param b address-2 that needs to be appended\\r\\n     * @return string value after concatenating\\r\\n     */\\r\\n    function append(address a, address b)\\r\\n        internal\\r\\n        pure\\r\\n        returns (string memory)\\r\\n    {\\r\\n        return string(abi.encodePacked(a, b));\\r\\n    }\\r\\n}\\r\\n\"},\"contracts/Types.sol\":{\"content\":\"// SPDX-License-Identifier: GPL-3.0\\r\\npragma experimental ABIEncoderV2;\\r\\npragma solidity >=0.4.25 <0.9.0;\\r\\n\\r\\nlibrary Types {\\r\\n    enum Role {\\r\\n        Admin, // 0\\r\\n        Bank, // 1\\r\\n        Customer // 2\\r\\n    }\\r\\n\\r\\n    enum BankStatus {\\r\\n        Active, // 0\\r\\n        Inactive // 1\\r\\n    }\\r\\n\\r\\n    enum KycStatus {\\r\\n        Pending, // 0\\r\\n        KYCVerified, // 1\\r\\n        KYCFailed // 2\\r\\n    }\\r\\n\\r\\n    enum DataHashStatus {\\r\\n        Pending, // 0\\r\\n        Approved, // 1\\r\\n        Rejected // 2\\r\\n    }\\r\\n\\r\\n    struct User {\\r\\n        string name;\\r\\n        string email;\\r\\n        address id_;\\r\\n        Role role;\\r\\n        BankStatus status;\\r\\n    }\\r\\n\\r\\n    struct Customer {\\r\\n        string name;\\r\\n        string email;\\r\\n        uint256 mobileNumber;\\r\\n        address id_;\\r\\n        address kycVerifiedBy; // Address of the bank only if KYC gets verified\\r\\n        string dataHash; // Documents will be stored in decentralised storage & a hash will be created for the same\\r\\n        uint256 dataUpdatedOn;\\r\\n    }\\r\\n\\r\\n    struct Bank {\\r\\n        string name;\\r\\n        string email;\\r\\n        address id_;\\r\\n        string ifscCode;\\r\\n        uint16 kycCount; // How many KCY's did this bank completed so far\\r\\n        BankStatus status; // RBI, we call \\\"admin\\\" here can disable the bank at any instance\\r\\n    }\\r\\n\\r\\n    struct KycRequest {\\r\\n        string id_; // Combination of customer Id & bank is going to be unique\\r\\n        address userId_;\\r\\n        string customerName;\\r\\n        address bankId_;\\r\\n        string bankName;\\r\\n        string dataHash;\\r\\n        uint256 updatedOn;\\r\\n        KycStatus status;\\r\\n        DataHashStatus dataRequest; // Get approval from user to access the data\\r\\n        string additionalNotes; // Notes that can be added if KYC verification fails  OR\\r\\n        // if customer rejects the access & bank wants to re-request with some message\\r\\n    }\\r\\n}\\r\\n\"}},\"settings\":{\"optimizer\":{\"enabled\":false,\"runs\":200},\"outputSelection\":{\"*\":{\"\":[\"ast\"],\"*\":[\"abi\",\"metadata\",\"devdoc\",\"userdoc\",\"storageLayout\",\"evm.legacyAssembly\",\"evm.bytecode\",\"evm.deployedBytecode\",\"evm.methodIdentifiers\",\"evm.gasEstimates\",\"evm.assembly\"]}}}}",
	"name": "KYC",
	"bytecode": {
		"linkReferences": {},
		"object": "60806040523480156200001157600080fd5b506040516200a0c13803806200a0c183398181016040528101906200003791906200046a565b33600460006101000a81548173ffffffffffffffffffffffffffffffffffffffff021916908373ffffffffffffffffffffffffffffffffffffffff16021790555060006040518060a00160405280848152602001838152602001600460009054906101000a900473ffffffffffffffffffffffffffffffffffffffff1673ffffffffffffffffffffffffffffffffffffffff16815260200160006002811115620000e657620000e5620004ef565b5b815260200160006001811115620001025762000101620004ef565b5b81525090508060066000600460009054906101000a900473ffffffffffffffffffffffffffffffffffffffff1673ffffffffffffffffffffffffffffffffffffffff1673ffffffffffffffffffffffffffffffffffffffff168152602001908152602001600020600082015181600001908162000180919062000769565b50602082015181600101908162000198919062000769565b5060408201518160020160006101000a81548173ffffffffffffffffffffffffffffffffffffffff021916908373ffffffffffffffffffffffffffffffffffffffff16021790555060608201518160020160146101000a81548160ff021916908360028111156200020e576200020d620004ef565b5b021790555060808201518160020160156101000a81548160ff02191690836001811115620002415762000240620004ef565b5b02179055509050506005600460009054906101000a900473ffffffffffffffffffffffffffffffffffffffff169080600181540180825580915050600190039060005260206000200160009091909190916101000a81548173ffffffffffffffffffffffffffffffffffffffff021916908373ffffffffffffffffffffffffffffffffffffffff16021790555050505062000850565b6000604051905090565b600080fd5b600080fd5b600080fd5b600080fd5b6000601f19601f8301169050919050565b7f4e487b7100000000000000000000000000000000000000000000000000000000600052604160045260246000fd5b6200034082620002f5565b810181811067ffffffffffffffff8211171562000362576200036162000306565b5b80604052505050565b600062000377620002d7565b905062000385828262000335565b919050565b600067ffffffffffffffff821115620003a857620003a762000306565b5b620003b382620002f5565b9050602081019050919050565b60005b83811015620003e0578082015181840152602081019050620003c3565b60008484015250505050565b600062000403620003fd846200038a565b6200036b565b905082815260208101848484011115620004225762000421620002f0565b5b6200042f848285620003c0565b509392505050565b600082601f8301126200044f576200044e620002eb565b5b815162000461848260208601620003ec565b91505092915050565b60008060408385031215620004845762000483620002e1565b5b600083015167ffffffffffffffff811115620004a557620004a4620002e6565b5b620004b38582860162000437565b925050602083015167ffffffffffffffff811115620004d757620004d6620002e6565b5b620004e58582860162000437565b9150509250929050565b7f4e487b7100000000000000000000000000000000000000000000000000000000600052602160045260246000fd5b600081519050919050565b7f4e487b7100000000000000000000000000000000000000000000000000000000600052602260045260246000fd5b600060028204905060018216806200057157607f821691505b60208210810362000587576200058662000529565b5b50919050565b60008190508160005260206000209050919050565b60006020601f8301049050919050565b600082821b905092915050565b600060088302620005f17fffffffffffffffffffffffffffffffffffffffffffffffffffffffffffffffff82620005b2565b620005fd8683620005b2565b95508019841693508086168417925050509392505050565b6000819050919050565b6000819050919050565b60006200064a620006446200063e8462000615565b6200061f565b62000615565b9050919050565b6000819050919050565b620006668362000629565b6200067e620006758262000651565b848454620005bf565b825550505050565b600090565b6200069562000686565b620006a28184846200065b565b505050565b5b81811015620006ca57620006be6000826200068b565b600181019050620006a8565b5050565b601f8211156200071957620006e3816200058d565b620006ee84620005a2565b81016020851015620006fe578190505b620007166200070d85620005a2565b830182620006a7565b50505b505050565b600082821c905092915050565b60006200073e600019846008026200071e565b1980831691505092915050565b60006200075983836200072b565b9150826002028217905092915050565b62000774826200051e565b67ffffffffffffffff81111562000790576200078f62000306565b5b6200079c825462000558565b620007a9828285620006ce565b600060209050601f831160018114620007e15760008415620007cc578287015190505b620007d885826200074b565b86555062000848565b601f198416620007f1866200058d565b60005b828110156200081b57848901518255600182019150602085019450602081019050620007f4565b868310156200083b578489015162000837601f8916826200072b565b8355505b6001600288020188555050505b505050505050565b61986180620008606000396000f3fe608060405234801561001057600080fd5b50600436106101165760003560e01c80635f4d6ddf116100a2578063b374a7dd11610071578063b374a7dd146102f0578063baa2b9fd1461030c578063da91254c1461033d578063dbc671d01461035b578063dc57d07e1461038c57610116565b80635f4d6ddf1461026a57806377fa069c1461029c5780637c1d6197146102b85780638915fb0c146102d457610116565b80632ce23acb116100e95780632ce23acb146101b357806334b52411146101e5578063369ba32b146102015780633f2c0e961461021d5780634d82d8e81461023957610116565b80630c60f83d1461011b57806315101e021461014b5780631bdd5a0f1461017b5780632283db9c14610197575b600080fd5b6101356004803603810190610130919061767a565b6103a8565b6040516101429190617809565b60405180910390f35b6101656004803603810190610160919061767a565b610625565b6040516101729190617956565b60405180910390f35b61019560048036038101906101909190617aad565b610896565b005b6101b160048036038101906101ac9190617c58565b610c86565b005b6101cd60048036038101906101c8919061767a565b610f11565b6040516101dc93929190617e42565b60405180910390f35b6101ff60048036038101906101fa9190617eb3565b61198b565b005b61021b60048036038101906102169190617f22565b611f71565b005b61023760048036038101906102329190617aad565b6120b1565b005b610253600480360381019061024e9190617fd9565b612428565b60405161026192919061816e565b60405180910390f35b610284600480360381019061027f919061767a565b6124ce565b6040516102939392919061819e565b60405180910390f35b6102b660048036038101906102b191906182eb565b612eda565b005b6102d260048036038101906102cd9190618376565b61377d565b005b6102ee60048036038101906102e99190618401565b613a92565b005b61030a6004803603810190610305919061845d565b613f29565b005b61032660048036038101906103219190617fd9565b614030565b604051610334929190618655565b60405180910390f35b6103456142a1565b604051610352919061874a565b60405180910390f35b61037560048036038101906103709190617fd9565b614628565b604051610383929190618655565b60405180910390f35b6103a660048036038101906103a19190617eb3565b6148a5565b005b6103b0617431565b81600073ffffffffffffffffffffffffffffffffffffffff168173ffffffffffffffffffffffffffffffffffffffff1603610420576040517f08c379a0000000000000000000000000000000000000000000000000000000008152600401610417906187c9565b60405180910390fd5b600073ffffffffffffffffffffffffffffffffffffffff16600160008373ffffffffffffffffffffffffffffffffffffffff1673ffffffffffffffffffffffffffffffffffffffff16815260200190815260200160002060030160009054906101000a900473ffffffffffffffffffffffffffffffffffffffff1673ffffffffffffffffffffffffffffffffffffffff16036104f1576040517f08c379a00000000000000000000000000000000000000000000000000000000081526004016104e890618835565b60405180910390fd5b6105d4600160008373ffffffffffffffffffffffffffffffffffffffff1673ffffffffffffffffffffffffffffffffffffffff168152602001908152602001600020600101805461054190618884565b80601f016020809104026020016040519081016040528092919081815260200182805461056d90618884565b80156105ba5780601f1061058f576101008083540402835291602001916105ba565b820191906000526020600020905b81548152906001019060200180831161059d57829003601f168201915b505050505060405180602001604052806000815250614c38565b15610614576040517f08c379a000000000000000000000000000000000000000000000000000000000815260040161060b90618901565b60405180910390fd5b61061d83614c91565b915050919050565b61062d61749a565b81600073ffffffffffffffffffffffffffffffffffffffff16600360008373ffffffffffffffffffffffffffffffffffffffff1673ffffffffffffffffffffffffffffffffffffffff16815260200190815260200160002060020160009054906101000a900473ffffffffffffffffffffffffffffffffffffffff1673ffffffffffffffffffffffffffffffffffffffff16036106ff576040517f08c379a00000000000000000000000000000000000000000000000000000000081526004016106f69061896d565b60405180910390fd5b8073ffffffffffffffffffffffffffffffffffffffff16600360008373ffffffffffffffffffffffffffffffffffffffff1673ffffffffffffffffffffffffffffffffffffffff16815260200190815260200160002060020160009054906101000a900473ffffffffffffffffffffffffffffffffffffffff1673ffffffffffffffffffffffffffffffffffffffff16146107cf576040517f08c379a00000000000000000000000000000000000000000000000000000000081526004016107c69061896d565b60405180910390fd5b600060018111156107e3576107e2617848565b5b600360008373ffffffffffffffffffffffffffffffffffffffff1673ffffffffffffffffffffffffffffffffffffffff16815260200190815260200160002060040160029054906101000a900460ff16600181111561084557610844617848565b5b14610885576040517f08c379a000000000000000000000000000000000000000000000000000000000815260040161087c906189d9565b60405180910390fd5b61088e83614f60565b915050919050565b33600073ffffffffffffffffffffffffffffffffffffffff16600360008373ffffffffffffffffffffffffffffffffffffffff1673ffffffffffffffffffffffffffffffffffffffff16815260200190815260200160002060020160009054906101000a900473ffffffffffffffffffffffffffffffffffffffff1673ffffffffffffffffffffffffffffffffffffffff1603610968576040517f08c379a000000000000000000000000000000000000000000000000000000000815260040161095f9061896d565b60405180910390fd5b8073ffffffffffffffffffffffffffffffffffffffff16600360008373ffffffffffffffffffffffffffffffffffffffff1673ffffffffffffffffffffffffffffffffffffffff16815260200190815260200160002060020160009054906101000a900473ffffffffffffffffffffffffffffffffffffffff1673ffffffffffffffffffffffffffffffffffffffff1614610a38576040517f08c379a0000000000000000000000000000000000000000000000000000000008152600401610a2f9061896d565b60405180910390fd5b60006001811115610a4c57610a4b617848565b5b600360008373ffffffffffffffffffffffffffffffffffffffff1673ffffffffffffffffffffffffffffffffffffffff16815260200190815260200160002060040160029054906101000a900460ff166001811115610aae57610aad617848565b5b14610aee576040517f08c379a0000000000000000000000000000000000000000000000000000000008152600401610ae5906189d9565b60405180910390fd5b6000610afa338561528f565b9050610b05816152bb565b610b44576040517f08c379a0000000000000000000000000000000000000000000000000000000008152600401610b3b90618a45565b60405180910390fd5b610b4d846153d0565b610b8c576040517f08c379a0000000000000000000000000000000000000000000000000000000008152600401610b8390618ab1565b60405180910390fd5b6000600782604051610b9e9190618b0d565b908152602001604051809103902060070160016101000a81548160ff02191690836002811115610bd157610bd0617848565b5b021790555082600782604051610be79190618b0d565b90815260200160405180910390206008019081610c049190618cd0565b507f524a348eaa0159a5bd9d05667fe8d01e3fef50369ae5f27c2ade107c84bfeaf781600783604051610c379190618b0d565b9081526020016040518091039020600401600784604051610c589190618b0d565b9081526020016040518091039020600201604051610c7893929190618e5f565b60405180910390a150505050565b600460009054906101000a900473ffffffffffffffffffffffffffffffffffffffff1673ffffffffffffffffffffffffffffffffffffffff163373ffffffffffffffffffffffffffffffffffffffff1614610d16576040517f08c379a0000000000000000000000000000000000000000000000000000000008152600401610d0d90618ef7565b60405180910390fd5b610d1f816155ce565b6040518060a001604052808260000151815260200182602001518152602001826040015173ffffffffffffffffffffffffffffffffffffffff16815260200160016002811115610d7257610d71617848565b5b815260200160006001811115610d8b57610d8a617848565b5b81525060066000836040015173ffffffffffffffffffffffffffffffffffffffff1673ffffffffffffffffffffffffffffffffffffffff1681526020019081526020016000206000820151816000019081610de69190618cd0565b506020820151816001019081610dfc9190618cd0565b5060408201518160020160006101000a81548173ffffffffffffffffffffffffffffffffffffffff021916908373ffffffffffffffffffffffffffffffffffffffff16021790555060608201518160020160146101000a81548160ff02191690836002811115610e6f57610e6e617848565b5b021790555060808201518160020160156101000a81548160ff02191690836001811115610e9f57610e9e617848565b5b0217905550905050600581604001519080600181540180825580915050600190039060005260206000200160009091909190916101000a81548173ffffffffffffffffffffffffffffffffffffffff021916908373ffffffffffffffffffffffffffffffffffffffff16021790555050565b6000610f1b61749a565b610f236174fc565b33600073ffffffffffffffffffffffffffffffffffffffff168173ffffffffffffffffffffffffffffffffffffffff1603610f93576040517f08c379a0000000000000000000000000000000000000000000000000000000008152600401610f8a906187c9565b60405180910390fd5b600073ffffffffffffffffffffffffffffffffffffffff16600160008373ffffffffffffffffffffffffffffffffffffffff1673ffffffffffffffffffffffffffffffffffffffff16815260200190815260200160002060030160009054906101000a900473ffffffffffffffffffffffffffffffffffffffff1673ffffffffffffffffffffffffffffffffffffffff1603611064576040517f08c379a000000000000000000000000000000000000000000000000000000000815260040161105b90618835565b60405180910390fd5b611147600160008373ffffffffffffffffffffffffffffffffffffffff1673ffffffffffffffffffffffffffffffffffffffff16815260200190815260200160002060010180546110b490618884565b80601f01602080910402602001604051908101604052809291908181526020018280546110e090618884565b801561112d5780601f106111025761010080835404028352916020019161112d565b820191906000526020600020905b81548152906001019060200180831161111057829003601f168201915b505050505060405180602001604052806000815250614c38565b15611187576040517f08c379a000000000000000000000000000000000000000000000000000000000815260040161117e90618901565b60405180910390fd5b84600073ffffffffffffffffffffffffffffffffffffffff16600360008373ffffffffffffffffffffffffffffffffffffffff1673ffffffffffffffffffffffffffffffffffffffff16815260200190815260200160002060020160009054906101000a900473ffffffffffffffffffffffffffffffffffffffff1673ffffffffffffffffffffffffffffffffffffffff1603611259576040517f08c379a00000000000000000000000000000000000000000000000000000000081526004016112509061896d565b60405180910390fd5b8073ffffffffffffffffffffffffffffffffffffffff16600360008373ffffffffffffffffffffffffffffffffffffffff1673ffffffffffffffffffffffffffffffffffffffff16815260200190815260200160002060020160009054906101000a900473ffffffffffffffffffffffffffffffffffffffff1673ffffffffffffffffffffffffffffffffffffffff1614611329576040517f08c379a00000000000000000000000000000000000000000000000000000000081526004016113209061896d565b60405180910390fd5b6000600181111561133d5761133c617848565b5b600360008373ffffffffffffffffffffffffffffffffffffffff1673ffffffffffffffffffffffffffffffffffffffff16815260200190815260200160002060040160029054906101000a900460ff16600181111561139f5761139e617848565b5b146113df576040517f08c379a00000000000000000000000000000000000000000000000000000000081526004016113d6906189d9565b60405180910390fd5b60006113e961749a565b6113f16174fc565b6000600960003373ffffffffffffffffffffffffffffffffffffffff1673ffffffffffffffffffffffffffffffffffffffff1681526020019081526020016000208054806020026020016040519081016040528092919081815260200182805480156114b257602002820191906000526020600020905b8160009054906101000a900473ffffffffffffffffffffffffffffffffffffffff1673ffffffffffffffffffffffffffffffffffffffff1681526020019060010190808311611468575b5050505050905060005b8151811015611974578a73ffffffffffffffffffffffffffffffffffffffff168282815181106114ef576114ee618f17565b5b602002602001015173ffffffffffffffffffffffffffffffffffffffff1603611961576001945061151f8b614f60565b9350600761152d8c3361528f565b60405161153a9190618b0d565b90815260200160405180910390206040518061014001604052908160008201805461156490618884565b80601f016020809104026020016040519081016040528092919081815260200182805461159090618884565b80156115dd5780601f106115b2576101008083540402835291602001916115dd565b820191906000526020600020905b8154815290600101906020018083116115c057829003601f168201915b505050505081526020016001820160009054906101000a900473ffffffffffffffffffffffffffffffffffffffff1673ffffffffffffffffffffffffffffffffffffffff1673ffffffffffffffffffffffffffffffffffffffff16815260200160028201805461164c90618884565b80601f016020809104026020016040519081016040528092919081815260200182805461167890618884565b80156116c55780601f1061169a576101008083540402835291602001916116c5565b820191906000526020600020905b8154815290600101906020018083116116a857829003601f168201915b505050505081526020016003820160009054906101000a900473ffffffffffffffffffffffffffffffffffffffff1673ffffffffffffffffffffffffffffffffffffffff1673ffffffffffffffffffffffffffffffffffffffff16815260200160048201805461173490618884565b80601f016020809104026020016040519081016040528092919081815260200182805461176090618884565b80156117ad5780601f10611782576101008083540402835291602001916117ad565b820191906000526020600020905b81548152906001019060200180831161179057829003601f168201915b505050505081526020016005820180546117c690618884565b80601f01602080910402602001604051908101604052809291908181526020018280546117f290618884565b801561183f5780601f106118145761010080835404028352916020019161183f565b820191906000526020600020905b81548152906001019060200180831161182257829003601f168201915b50505050508152602001600682015481526020016007820160009054906101000a900460ff16600281111561187757611876617848565b5b600281111561188957611888617848565b5b81526020016007820160019054906101000a900460ff1660028111156118b2576118b1617848565b5b60028111156118c4576118c3617848565b5b81526020016008820180546118d890618884565b80601f016020809104026020016040519081016040528092919081815260200182805461190490618884565b80156119515780601f1061192657610100808354040283529160200191611951565b820191906000526020600020905b81548152906001019060200180831161193457829003601f168201915b5050505050815250509250611974565b808061196c90618f75565b9150506114bc565b508383839850985098505050505050509193909250565b33600073ffffffffffffffffffffffffffffffffffffffff168173ffffffffffffffffffffffffffffffffffffffff16036119fb576040517f08c379a00000000000000000000000000000000000000000000000000000000081526004016119f2906187c9565b60405180910390fd5b600073ffffffffffffffffffffffffffffffffffffffff16600160008373ffffffffffffffffffffffffffffffffffffffff1673ffffffffffffffffffffffffffffffffffffffff16815260200190815260200160002060030160009054906101000a900473ffffffffffffffffffffffffffffffffffffffff1673ffffffffffffffffffffffffffffffffffffffff1603611acc576040517f08c379a0000000000000000000000000000000000000000000000000000000008152600401611ac390618835565b60405180910390fd5b611baf600160008373ffffffffffffffffffffffffffffffffffffffff1673ffffffffffffffffffffffffffffffffffffffff1681526020019081526020016000206001018054611b1c90618884565b80601f0160208091040260200160405190810160405280929190818152602001828054611b4890618884565b8015611b955780601f10611b6a57610100808354040283529160200191611b95565b820191906000526020600020905b815481529060010190602001808311611b7857829003601f168201915b505050505060405180602001604052806000815250614c38565b15611bef576040517f08c379a0000000000000000000000000000000000000000000000000000000008152600401611be690618901565b60405180910390fd5b83600073ffffffffffffffffffffffffffffffffffffffff16600360008373ffffffffffffffffffffffffffffffffffffffff1673ffffffffffffffffffffffffffffffffffffffff16815260200190815260200160002060020160009054906101000a900473ffffffffffffffffffffffffffffffffffffffff1673ffffffffffffffffffffffffffffffffffffffff1603611cc1576040517f08c379a0000000000000000000000000000000000000000000000000000000008152600401611cb89061896d565b60405180910390fd5b8073ffffffffffffffffffffffffffffffffffffffff16600360008373ffffffffffffffffffffffffffffffffffffffff1673ffffffffffffffffffffffffffffffffffffffff16815260200190815260200160002060020160009054906101000a900473ffffffffffffffffffffffffffffffffffffffff1673ffffffffffffffffffffffffffffffffffffffff1614611d91576040517f08c379a0000000000000000000000000000000000000000000000000000000008152600401611d889061896d565b60405180910390fd5b60006001811115611da557611da4617848565b5b600360008373ffffffffffffffffffffffffffffffffffffffff1673ffffffffffffffffffffffffffffffffffffffff16815260200190815260200160002060040160029054906101000a900460ff166001811115611e0757611e06617848565b5b14611e47576040517f08c379a0000000000000000000000000000000000000000000000000000000008152600401611e3e906189d9565b60405180910390fd5b6000611e53863361528f565b9050611e5e816152bb565b611e9d576040517f08c379a0000000000000000000000000000000000000000000000000000000008152600401611e9490619009565b60405180910390fd5b60008515611eae5760019050611eb3565b600290505b80600783604051611ec49190618b0d565b908152602001604051809103902060070160016101000a81548160ff02191690836002811115611ef757611ef6617848565b5b021790555084600783604051611f0d9190618b0d565b90815260200160405180910390206008019081611f2a9190618cd0565b507f9a3f3f9de5ac964f84f08c6124f7b844ffd73de3fd4b472eb59f6b68e5729a8182338984604051611f609493929190619047565b60405180910390a150505050505050565b600460009054906101000a900473ffffffffffffffffffffffffffffffffffffffff1673ffffffffffffffffffffffffffffffffffffffff163373ffffffffffffffffffffffffffffffffffffffff1614612001576040517f08c379a0000000000000000000000000000000000000000000000000000000008152600401611ff890618ef7565b60405180910390fd5b61200c83838361587d565b80600660008573ffffffffffffffffffffffffffffffffffffffff1673ffffffffffffffffffffffffffffffffffffffff168152602001908152602001600020600001908161205b9190618cd0565b5081600660008573ffffffffffffffffffffffffffffffffffffffff1673ffffffffffffffffffffffffffffffffffffffff16815260200190815260200160002060010190816120ab9190618cd0565b50505050565b33600073ffffffffffffffffffffffffffffffffffffffff168173ffffffffffffffffffffffffffffffffffffffff1603612121576040517f08c379a0000000000000000000000000000000000000000000000000000000008152600401612118906187c9565b60405180910390fd5b600073ffffffffffffffffffffffffffffffffffffffff16600160008373ffffffffffffffffffffffffffffffffffffffff1673ffffffffffffffffffffffffffffffffffffffff16815260200190815260200160002060030160009054906101000a900473ffffffffffffffffffffffffffffffffffffffff1673ffffffffffffffffffffffffffffffffffffffff16036121f2576040517f08c379a00000000000000000000000000000000000000000000000000000000081526004016121e990618835565b60405180910390fd5b6122d5600160008373ffffffffffffffffffffffffffffffffffffffff1673ffffffffffffffffffffffffffffffffffffffff168152602001908152602001600020600101805461224290618884565b80601f016020809104026020016040519081016040528092919081815260200182805461226e90618884565b80156122bb5780601f10612290576101008083540402835291602001916122bb565b820191906000526020600020905b81548152906001019060200180831161229e57829003601f168201915b505050505060405180602001604052806000815250614c38565b15612315576040517f08c379a000000000000000000000000000000000000000000000000000000000815260040161230c90618901565b60405180910390fd5b6000612321843361528f565b905061232c816152bb565b61236b576040517f08c379a0000000000000000000000000000000000000000000000000000000008152600401612362906190df565b60405180910390fd5b600260078260405161237d9190618b0d565b908152602001604051809103902060070160016101000a81548160ff021916908360028111156123b0576123af617848565b5b0217905550826007826040516123c69190618b0d565b908152602001604051809103902060080190816123e39190618cd0565b507f9a3f3f9de5ac964f84f08c6124f7b844ffd73de3fd4b472eb59f6b68e5729a81813386600260405161241a9493929190619047565b60405180910390a150505050565b60006060600460009054906101000a900473ffffffffffffffffffffffffffffffffffffffff1673ffffffffffffffffffffffffffffffffffffffff163373ffffffffffffffffffffffffffffffffffffffff16146124bc576040517f08c379a00000000000000000000000000000000000000000000000000000000081526004016124b390618ef7565b60405180910390fd5b6124c583615a2e565b91509150915091565b60006124d8617431565b6124e06174fc565b83600073ffffffffffffffffffffffffffffffffffffffff168173ffffffffffffffffffffffffffffffffffffffff1603612550576040517f08c379a0000000000000000000000000000000000000000000000000000000008152600401612547906187c9565b60405180910390fd5b600073ffffffffffffffffffffffffffffffffffffffff16600160008373ffffffffffffffffffffffffffffffffffffffff1673ffffffffffffffffffffffffffffffffffffffff16815260200190815260200160002060030160009054906101000a900473ffffffffffffffffffffffffffffffffffffffff1673ffffffffffffffffffffffffffffffffffffffff1603612621576040517f08c379a000000000000000000000000000000000000000000000000000000000815260040161261890618835565b60405180910390fd5b612704600160008373ffffffffffffffffffffffffffffffffffffffff1673ffffffffffffffffffffffffffffffffffffffff168152602001908152602001600020600101805461267190618884565b80601f016020809104026020016040519081016040528092919081815260200182805461269d90618884565b80156126ea5780601f106126bf576101008083540402835291602001916126ea565b820191906000526020600020905b8154815290600101906020018083116126cd57829003601f168201915b505050505060405180602001604052806000815250614c38565b15612744576040517f08c379a000000000000000000000000000000000000000000000000000000000815260040161273b90618901565b60405180910390fd5b33600073ffffffffffffffffffffffffffffffffffffffff16600360008373ffffffffffffffffffffffffffffffffffffffff1673ffffffffffffffffffffffffffffffffffffffff16815260200190815260200160002060020160009054906101000a900473ffffffffffffffffffffffffffffffffffffffff1673ffffffffffffffffffffffffffffffffffffffff1603612816576040517f08c379a000000000000000000000000000000000000000000000000000000000815260040161280d9061896d565b60405180910390fd5b8073ffffffffffffffffffffffffffffffffffffffff16600360008373ffffffffffffffffffffffffffffffffffffffff1673ffffffffffffffffffffffffffffffffffffffff16815260200190815260200160002060020160009054906101000a900473ffffffffffffffffffffffffffffffffffffffff1673ffffffffffffffffffffffffffffffffffffffff16146128e6576040517f08c379a00000000000000000000000000000000000000000000000000000000081526004016128dd9061896d565b60405180910390fd5b600060018111156128fa576128f9617848565b5b600360008373ffffffffffffffffffffffffffffffffffffffff1673ffffffffffffffffffffffffffffffffffffffff16815260200190815260200160002060040160029054906101000a900460ff16600181111561295c5761295b617848565b5b1461299c576040517f08c379a0000000000000000000000000000000000000000000000000000000008152600401612993906189d9565b60405180910390fd5b60006129a6617431565b6129ae6174fc565b612a7b89600860003373ffffffffffffffffffffffffffffffffffffffff1673ffffffffffffffffffffffffffffffffffffffff168152602001908152602001600020805480602002602001604051908101604052809291908181526020018280548015612a7157602002820191906000526020600020905b8160009054906101000a900473ffffffffffffffffffffffffffffffffffffffff1673ffffffffffffffffffffffffffffffffffffffff1681526020019060010190808311612a27575b5050505050615eaa565b80935081945050508215612ec5576007612a95338b61528f565b604051612aa29190618b0d565b908152602001604051809103902060405180610140016040529081600082018054612acc90618884565b80601f0160208091040260200160405190810160405280929190818152602001828054612af890618884565b8015612b455780601f10612b1a57610100808354040283529160200191612b45565b820191906000526020600020905b815481529060010190602001808311612b2857829003601f168201915b505050505081526020016001820160009054906101000a900473ffffffffffffffffffffffffffffffffffffffff1673ffffffffffffffffffffffffffffffffffffffff1673ffffffffffffffffffffffffffffffffffffffff168152602001600282018054612bb490618884565b80601f0160208091040260200160405190810160405280929190818152602001828054612be090618884565b8015612c2d5780601f10612c0257610100808354040283529160200191612c2d565b820191906000526020600020905b815481529060010190602001808311612c1057829003601f168201915b505050505081526020016003820160009054906101000a900473ffffffffffffffffffffffffffffffffffffffff1673ffffffffffffffffffffffffffffffffffffffff1673ffffffffffffffffffffffffffffffffffffffff168152602001600482018054612c9c90618884565b80601f0160208091040260200160405190810160405280929190818152602001828054612cc890618884565b8015612d155780601f10612cea57610100808354040283529160200191612d15565b820191906000526020600020905b815481529060010190602001808311612cf857829003601f168201915b50505050508152602001600582018054612d2e90618884565b80601f0160208091040260200160405190810160405280929190818152602001828054612d5a90618884565b8015612da75780601f10612d7c57610100808354040283529160200191612da7565b820191906000526020600020905b815481529060010190602001808311612d8a57829003601f168201915b50505050508152602001600682015481526020016007820160009054906101000a900460ff166002811115612ddf57612dde617848565b5b6002811115612df157612df0617848565b5b81526020016007820160019054906101000a900460ff166002811115612e1a57612e19617848565b5b6002811115612e2c57612e2b617848565b5b8152602001600882018054612e4090618884565b80601f0160208091040260200160405190810160405280929190818152602001828054612e6c90618884565b8015612eb95780601f10612e8e57610100808354040283529160200191612eb9565b820191906000526020600020905b815481529060010190602001808311612e9c57829003601f168201915b50505050508152505090505b82828297509750975050505050509193909250565b33600073ffffffffffffffffffffffffffffffffffffffff16600360008373ffffffffffffffffffffffffffffffffffffffff1673ffffffffffffffffffffffffffffffffffffffff16815260200190815260200160002060020160009054906101000a900473ffffffffffffffffffffffffffffffffffffffff1673ffffffffffffffffffffffffffffffffffffffff1603612fac576040517f08c379a0000000000000000000000000000000000000000000000000000000008152600401612fa39061896d565b60405180910390fd5b8073ffffffffffffffffffffffffffffffffffffffff16600360008373ffffffffffffffffffffffffffffffffffffffff1673ffffffffffffffffffffffffffffffffffffffff16815260200190815260200160002060020160009054906101000a900473ffffffffffffffffffffffffffffffffffffffff1673ffffffffffffffffffffffffffffffffffffffff161461307c576040517f08c379a00000000000000000000000000000000000000000000000000000000081526004016130739061896d565b60405180910390fd5b600060018111156130905761308f617848565b5b600360008373ffffffffffffffffffffffffffffffffffffffff1673ffffffffffffffffffffffffffffffffffffffff16815260200190815260200160002060040160029054906101000a900460ff1660018111156130f2576130f1617848565b5b14613132576040517f08c379a0000000000000000000000000000000000000000000000000000000008152600401613129906189d9565b60405180910390fd5b600061314233866060015161528f565b905061314d816152bb565b1561318d576040517f08c379a00000000000000000000000000000000000000000000000000000000081526004016131849061914b565b60405180910390fd5b604051806101400160405280828152602001866060015173ffffffffffffffffffffffffffffffffffffffff168152602001866000015181526020013373ffffffffffffffffffffffffffffffffffffffff1681526020016131ee33614f60565b6000015181526020018660a0015181526020018581526020016000600281111561321b5761321a617848565b5b81526020016000600281111561323457613233617848565b5b81526020018481525060078260405161324d9190618b0d565b908152602001604051809103902060008201518160000190816132709190618cd0565b5060208201518160010160006101000a81548173ffffffffffffffffffffffffffffffffffffffff021916908373ffffffffffffffffffffffffffffffffffffffff16021790555060408201518160020190816132cd9190618cd0565b5060608201518160030160006101000a81548173ffffffffffffffffffffffffffffffffffffffff021916908373ffffffffffffffffffffffffffffffffffffffff160217905550608082015181600401908161332a9190618cd0565b5060a08201518160050190816133409190618cd0565b5060c0820151816006015560e08201518160070160006101000a81548160ff0219169083600281111561337657613375617848565b5b02179055506101008201518160070160016101000a81548160ff021916908360028111156133a7576133a6617848565b5b02179055506101208201518160080190816133c29190618cd0565b50905050600860003373ffffffffffffffffffffffffffffffffffffffff1673ffffffffffffffffffffffffffffffffffffffff16815260200190815260200160002085606001519080600181540180825580915050600190039060005260206000200160009091909190916101000a81548173ffffffffffffffffffffffffffffffffffffffff021916908373ffffffffffffffffffffffffffffffffffffffff16021790555060096000866060015173ffffffffffffffffffffffffffffffffffffffff1673ffffffffffffffffffffffffffffffffffffffff168152602001908152602001600020339080600181540180825580915050600190039060005260206000200160009091909190916101000a81548173ffffffffffffffffffffffffffffffffffffffff021916908373ffffffffffffffffffffffffffffffffffffffff1602179055507f1c9ca7942139211bfb75ec030ee95c38e96f4eb7d755b28d3eede55f8d5eb86d816007836040516135409190618b0d565b908152602001604051809103902060040187600001516040516135659392919061916b565b60405180910390a161357a85606001516153d0565b6137765761358785616205565b6040518060a001604052808660000151815260200186602001518152602001866060015173ffffffffffffffffffffffffffffffffffffffff1681526020016002808111156135d9576135d8617848565b5b8152602001600060018111156135f2576135f1617848565b5b81525060066000876060015173ffffffffffffffffffffffffffffffffffffffff1673ffffffffffffffffffffffffffffffffffffffff168152602001908152602001600020600082015181600001908161364d9190618cd0565b5060208201518160010190816136639190618cd0565b5060408201518160020160006101000a81548173ffffffffffffffffffffffffffffffffffffffff021916908373ffffffffffffffffffffffffffffffffffffffff16021790555060608201518160020160146101000a81548160ff021916908360028111156136d6576136d5617848565b5b021790555060808201518160020160156101000a81548160ff0219169083600181111561370657613705617848565b5b0217905550905050600585606001519080600181540180825580915050600190039060005260206000200160009091909190916101000a81548173ffffffffffffffffffffffffffffffffffffffff021916908373ffffffffffffffffffffffffffffffffffffffff1602179055505b5050505050565b33600073ffffffffffffffffffffffffffffffffffffffff168173ffffffffffffffffffffffffffffffffffffffff16036137ed576040517f08c379a00000000000000000000000000000000000000000000000000000000081526004016137e4906187c9565b60405180910390fd5b600073ffffffffffffffffffffffffffffffffffffffff16600160008373ffffffffffffffffffffffffffffffffffffffff1673ffffffffffffffffffffffffffffffffffffffff16815260200190815260200160002060030160009054906101000a900473ffffffffffffffffffffffffffffffffffffffff1673ffffffffffffffffffffffffffffffffffffffff16036138be576040517f08c379a00000000000000000000000000000000000000000000000000000000081526004016138b590618835565b60405180910390fd5b6139a1600160008373ffffffffffffffffffffffffffffffffffffffff1673ffffffffffffffffffffffffffffffffffffffff168152602001908152602001600020600101805461390e90618884565b80601f016020809104026020016040519081016040528092919081815260200182805461393a90618884565b80156139875780601f1061395c57610100808354040283529160200191613987565b820191906000526020600020905b81548152906001019060200180831161396a57829003601f168201915b505050505060405180602001604052806000815250614c38565b156139e1576040517f08c379a00000000000000000000000000000000000000000000000000000000081526004016139d890618901565b60405180910390fd5b6139ec8484846163e1565b83600660003373ffffffffffffffffffffffffffffffffffffffff1673ffffffffffffffffffffffffffffffffffffffff1681526020019081526020016000206000019081613a3b9190618cd0565b5082600660003373ffffffffffffffffffffffffffffffffffffffff1673ffffffffffffffffffffffffffffffffffffffff1681526020019081526020016000206001019081613a8b9190618cd0565b5050505050565b33600073ffffffffffffffffffffffffffffffffffffffff168173ffffffffffffffffffffffffffffffffffffffff1603613b02576040517f08c379a0000000000000000000000000000000000000000000000000000000008152600401613af9906187c9565b60405180910390fd5b600073ffffffffffffffffffffffffffffffffffffffff16600160008373ffffffffffffffffffffffffffffffffffffffff1673ffffffffffffffffffffffffffffffffffffffff16815260200190815260200160002060030160009054906101000a900473ffffffffffffffffffffffffffffffffffffffff1673ffffffffffffffffffffffffffffffffffffffff1603613bd3576040517f08c379a0000000000000000000000000000000000000000000000000000000008152600401613bca90618835565b60405180910390fd5b613cb6600160008373ffffffffffffffffffffffffffffffffffffffff1673ffffffffffffffffffffffffffffffffffffffff1681526020019081526020016000206001018054613c2390618884565b80601f0160208091040260200160405190810160405280929190818152602001828054613c4f90618884565b8015613c9c5780601f10613c7157610100808354040283529160200191613c9c565b820191906000526020600020905b815481529060010190602001808311613c7f57829003601f168201915b505050505060405180602001604052806000815250614c38565b15613cf6576040517f08c379a0000000000000000000000000000000000000000000000000000000008152600401613ced90618901565b60405180910390fd5b613d008383616508565b6000600960003373ffffffffffffffffffffffffffffffffffffffff1673ffffffffffffffffffffffffffffffffffffffff168152602001908152602001600020805480602002602001604051908101604052809291908181526020018280548015613dc157602002820191906000526020600020905b8160009054906101000a900473ffffffffffffffffffffffffffffffffffffffff1673ffffffffffffffffffffffffffffffffffffffff1681526020019060010190808311613d77575b5050505050905060005b8151811015613f22576000613dfa838381518110613dec57613deb618f17565b5b60200260200101513361528f565b9050613e05816152bb565b15613f0e5785600782604051613e1b9190618b0d565b90815260200160405180910390206005019081613e389190618cd0565b5084600782604051613e4a9190618b0d565b9081526020016040518091039020600601819055506000600782604051613e719190618b0d565b908152602001604051809103902060070160006101000a81548160ff02191690836002811115613ea457613ea3617848565b5b02179055506040518060400160405280601381526020017f5570646174656420616c6c206d7920646f637300000000000000000000000000815250600782604051613eef9190618b0d565b90815260200160405180910390206008019081613f0c9190618cd0565b505b508080613f1a90618f75565b915050613dcb565b5050505050565b600460009054906101000a900473ffffffffffffffffffffffffffffffffffffffff1673ffffffffffffffffffffffffffffffffffffffff163373ffffffffffffffffffffffffffffffffffffffff1614613fb9576040517f08c379a0000000000000000000000000000000000000000000000000000000008152600401613fb090618ef7565b60405180910390fd5b613fc3828261661f565b600660008473ffffffffffffffffffffffffffffffffffffffff1673ffffffffffffffffffffffffffffffffffffffff16815260200190815260200160002060020160156101000a81548160ff0219169083600181111561402757614026617848565b5b02179055505050565b6000606033600073ffffffffffffffffffffffffffffffffffffffff16600360008373ffffffffffffffffffffffffffffffffffffffff1673ffffffffffffffffffffffffffffffffffffffff16815260200190815260200160002060020160009054906101000a900473ffffffffffffffffffffffffffffffffffffffff1673ffffffffffffffffffffffffffffffffffffffff1603614106576040517f08c379a00000000000000000000000000000000000000000000000000000000081526004016140fd9061896d565b60405180910390fd5b8073ffffffffffffffffffffffffffffffffffffffff16600360008373ffffffffffffffffffffffffffffffffffffffff1673ffffffffffffffffffffffffffffffffffffffff16815260200190815260200160002060020160009054906101000a900473ffffffffffffffffffffffffffffffffffffffff1673ffffffffffffffffffffffffffffffffffffffff16146141d6576040517f08c379a00000000000000000000000000000000000000000000000000000000081526004016141cd9061896d565b60405180910390fd5b600060018111156141ea576141e9617848565b5b600360008373ffffffffffffffffffffffffffffffffffffffff1673ffffffffffffffffffffffffffffffffffffffff16815260200190815260200160002060040160029054906101000a900460ff16600181111561424c5761424b617848565b5b1461428c576040517f08c379a0000000000000000000000000000000000000000000000000000000008152600401614283906189d9565b60405180910390fd5b614297846001616a30565b9250925050915091565b6142a961759f565b600073ffffffffffffffffffffffffffffffffffffffff163373ffffffffffffffffffffffffffffffffffffffff1603614318576040517f08c379a000000000000000000000000000000000000000000000000000000000815260040161430f90619203565b60405180910390fd5b600073ffffffffffffffffffffffffffffffffffffffff16600660003373ffffffffffffffffffffffffffffffffffffffff1673ffffffffffffffffffffffffffffffffffffffff16815260200190815260200160002060020160009054906101000a900473ffffffffffffffffffffffffffffffffffffffff1673ffffffffffffffffffffffffffffffffffffffff16036143e9576040517f08c379a00000000000000000000000000000000000000000000000000000000081526004016143e090618835565b60405180910390fd5b600660003373ffffffffffffffffffffffffffffffffffffffff1673ffffffffffffffffffffffffffffffffffffffff1681526020019081526020016000206040518060a001604052908160008201805461444390618884565b80601f016020809104026020016040519081016040528092919081815260200182805461446f90618884565b80156144bc5780601f10614491576101008083540402835291602001916144bc565b820191906000526020600020905b81548152906001019060200180831161449f57829003601f168201915b505050505081526020016001820180546144d590618884565b80601f016020809104026020016040519081016040528092919081815260200182805461450190618884565b801561454e5780601f106145235761010080835404028352916020019161454e565b820191906000526020600020905b81548152906001019060200180831161453157829003601f168201915b505050505081526020016002820160009054906101000a900473ffffffffffffffffffffffffffffffffffffffff1673ffffffffffffffffffffffffffffffffffffffff1673ffffffffffffffffffffffffffffffffffffffff1681526020016002820160149054906101000a900460ff1660028111156145d2576145d1617848565b5b60028111156145e4576145e3617848565b5b81526020016002820160159054906101000a900460ff16600181111561460d5761460c617848565b5b600181111561461f5761461e617848565b5b81525050905090565b6000606033600073ffffffffffffffffffffffffffffffffffffffff168173ffffffffffffffffffffffffffffffffffffffff160361469c576040517f08c379a0000000000000000000000000000000000000000000000000000000008152600401614693906187c9565b60405180910390fd5b600073ffffffffffffffffffffffffffffffffffffffff16600160008373ffffffffffffffffffffffffffffffffffffffff1673ffffffffffffffffffffffffffffffffffffffff16815260200190815260200160002060030160009054906101000a900473ffffffffffffffffffffffffffffffffffffffff1673ffffffffffffffffffffffffffffffffffffffff160361476d576040517f08c379a000000000000000000000000000000000000000000000000000000000815260040161476490618835565b60405180910390fd5b614850600160008373ffffffffffffffffffffffffffffffffffffffff1673ffffffffffffffffffffffffffffffffffffffff16815260200190815260200160002060010180546147bd90618884565b80601f01602080910402602001604051908101604052809291908181526020018280546147e990618884565b80156148365780601f1061480b57610100808354040283529160200191614836565b820191906000526020600020905b81548152906001019060200180831161481957829003601f168201915b505050505060405180602001604052806000815250614c38565b15614890576040517f08c379a000000000000000000000000000000000000000000000000000000000815260040161488790618901565b60405180910390fd5b61489b846000616a30565b9250925050915091565b33600073ffffffffffffffffffffffffffffffffffffffff16600360008373ffffffffffffffffffffffffffffffffffffffff1673ffffffffffffffffffffffffffffffffffffffff16815260200190815260200160002060020160009054906101000a900473ffffffffffffffffffffffffffffffffffffffff1673ffffffffffffffffffffffffffffffffffffffff1603614977576040517f08c379a000000000000000000000000000000000000000000000000000000000815260040161496e9061896d565b60405180910390fd5b8073ffffffffffffffffffffffffffffffffffffffff16600360008373ffffffffffffffffffffffffffffffffffffffff1673ffffffffffffffffffffffffffffffffffffffff16815260200190815260200160002060020160009054906101000a900473ffffffffffffffffffffffffffffffffffffffff1673ffffffffffffffffffffffffffffffffffffffff1614614a47576040517f08c379a0000000000000000000000000000000000000000000000000000000008152600401614a3e9061896d565b60405180910390fd5b60006001811115614a5b57614a5a617848565b5b600360008373ffffffffffffffffffffffffffffffffffffffff1673ffffffffffffffffffffffffffffffffffffffff16815260200190815260200160002060040160029054906101000a900460ff166001811115614abd57614abc617848565b5b14614afd576040517f08c379a0000000000000000000000000000000000000000000000000000000008152600401614af4906189d9565b60405180910390fd5b6000614b09338661528f565b9050614b14816152bb565b614b53576040517f08c379a0000000000000000000000000000000000000000000000000000000008152600401614b4a90619009565b60405180910390fd5b60008415614b765760019050614b68336171a7565b614b7186617294565b614b7b565b600290505b80600783604051614b8c9190618b0d565b908152602001604051809103902060070160006101000a81548160ff02191690836002811115614bbf57614bbe617848565b5b021790555083600783604051614bd59190618b0d565b90815260200160405180910390206008019081614bf29190618cd0565b507f900b83a690e29ff7d6e76e350983afea30403d6c47fe8ce52045fb20074c79a082873384604051614c289493929190619232565b60405180910390a1505050505050565b600081604051602001614c4b9190618b0d565b6040516020818303038152906040528051906020012083604051602001614c729190618b0d565b6040516020818303038152906040528051906020012014905092915050565b614c99617431565b600160008373ffffffffffffffffffffffffffffffffffffffff1673ffffffffffffffffffffffffffffffffffffffff1681526020019081526020016000206040518060e0016040529081600082018054614cf390618884565b80601f0160208091040260200160405190810160405280929190818152602001828054614d1f90618884565b8015614d6c5780601f10614d4157610100808354040283529160200191614d6c565b820191906000526020600020905b815481529060010190602001808311614d4f57829003601f168201915b50505050508152602001600182018054614d8590618884565b80601f0160208091040260200160405190810160405280929190818152602001828054614db190618884565b8015614dfe5780601f10614dd357610100808354040283529160200191614dfe565b820191906000526020600020905b815481529060010190602001808311614de157829003601f168201915b50505050508152602001600282015481526020016003820160009054906101000a900473ffffffffffffffffffffffffffffffffffffffff1673ffffffffffffffffffffffffffffffffffffffff1673ffffffffffffffffffffffffffffffffffffffff1681526020016004820160009054906101000a900473ffffffffffffffffffffffffffffffffffffffff1673ffffffffffffffffffffffffffffffffffffffff1673ffffffffffffffffffffffffffffffffffffffff168152602001600582018054614ecd90618884565b80601f0160208091040260200160405190810160405280929190818152602001828054614ef990618884565b8015614f465780601f10614f1b57610100808354040283529160200191614f46565b820191906000526020600020905b815481529060010190602001808311614f2957829003601f168201915b505050505081526020016006820154815250509050919050565b614f6861749a565b600073ffffffffffffffffffffffffffffffffffffffff168273ffffffffffffffffffffffffffffffffffffffff1603614fd7576040517f08c379a0000000000000000000000000000000000000000000000000000000008152600401614fce906192ca565b60405180910390fd5b600360008373ffffffffffffffffffffffffffffffffffffffff1673ffffffffffffffffffffffffffffffffffffffff1681526020019081526020016000206040518060c001604052908160008201805461503190618884565b80601f016020809104026020016040519081016040528092919081815260200182805461505d90618884565b80156150aa5780601f1061507f576101008083540402835291602001916150aa565b820191906000526020600020905b81548152906001019060200180831161508d57829003601f168201915b505050505081526020016001820180546150c390618884565b80601f01602080910402602001604051908101604052809291908181526020018280546150ef90618884565b801561513c5780601f106151115761010080835404028352916020019161513c565b820191906000526020600020905b81548152906001019060200180831161511f57829003601f168201915b505050505081526020016002820160009054906101000a900473ffffffffffffffffffffffffffffffffffffffff1673ffffffffffffffffffffffffffffffffffffffff1673ffffffffffffffffffffffffffffffffffffffff1681526020016003820180546151ab90618884565b80601f01602080910402602001604051908101604052809291908181526020018280546151d790618884565b80156152245780601f106151f957610100808354040283529160200191615224565b820191906000526020600020905b81548152906001019060200180831161520757829003601f168201915b505050505081526020016004820160009054906101000a900461ffff1661ffff1661ffff1681526020016004820160029054906101000a900460ff16600181111561527257615271617848565b5b600181111561528457615283617848565b5b815250509050919050565b606082826040516020016152a4929190619332565b604051602081830303815290604052905092915050565b60006152d68260405180602001604052806000815250614c38565b15615316576040517f08c379a000000000000000000000000000000000000000000000000000000000815260040161530d906193aa565b60405180910390fd5b6153c96007836040516153299190618b0d565b9081526020016040518091039020600001805461534590618884565b80601f016020809104026020016040519081016040528092919081815260200182805461537190618884565b80156153be5780601f10615393576101008083540402835291602001916153be565b820191906000526020600020905b8154815290600101906020018083116153a157829003601f168201915b505050505083614c38565b9050919050565b60008073ffffffffffffffffffffffffffffffffffffffff168273ffffffffffffffffffffffffffffffffffffffff1603615440576040517f08c379a000000000000000000000000000000000000000000000000000000000815260040161543790619416565b60405180910390fd5b600073ffffffffffffffffffffffffffffffffffffffff16600160008473ffffffffffffffffffffffffffffffffffffffff1673ffffffffffffffffffffffffffffffffffffffff16815260200190815260200160002060030160009054906101000a900473ffffffffffffffffffffffffffffffffffffffff1673ffffffffffffffffffffffffffffffffffffffff16141580156155bf57506155bd600160008473ffffffffffffffffffffffffffffffffffffffff1673ffffffffffffffffffffffffffffffffffffffff168152602001908152602001600020600101805461552a90618884565b80601f016020809104026020016040519081016040528092919081815260200182805461555690618884565b80156155a35780601f10615578576101008083540402835291602001916155a3565b820191906000526020600020905b81548152906001019060200180831161558657829003601f168201915b505050505060405180602001604052806000815250614c38565b155b156155c957600190505b919050565b600073ffffffffffffffffffffffffffffffffffffffff1660036000836040015173ffffffffffffffffffffffffffffffffffffffff1673ffffffffffffffffffffffffffffffffffffffff16815260200190815260200160002060020160009054906101000a900473ffffffffffffffffffffffffffffffffffffffff1673ffffffffffffffffffffffffffffffffffffffff16146156a3576040517f08c379a000000000000000000000000000000000000000000000000000000000815260040161569a90619482565b60405180910390fd5b8060036000836040015173ffffffffffffffffffffffffffffffffffffffff1673ffffffffffffffffffffffffffffffffffffffff16815260200190815260200160002060008201518160000190816156fc9190618cd0565b5060208201518160010190816157129190618cd0565b5060408201518160020160006101000a81548173ffffffffffffffffffffffffffffffffffffffff021916908373ffffffffffffffffffffffffffffffffffffffff160217905550606082015181600301908161576f9190618cd0565b5060808201518160040160006101000a81548161ffff021916908361ffff16021790555060a08201518160040160026101000a81548160ff021916908360018111156157be576157bd617848565b5b0217905550905050600281604001519080600181540180825580915050600190039060005260206000200160009091909190916101000a81548173ffffffffffffffffffffffffffffffffffffffff021916908373ffffffffffffffffffffffffffffffffffffffff1602179055507f17ee33cc6a54067d735ee1c9200fc0dc8354b1d7deae9908692bcd90723044b1816040015182600001518360200151846060015160405161587294939291906194a2565b60405180910390a150565b600073ffffffffffffffffffffffffffffffffffffffff16600360008573ffffffffffffffffffffffffffffffffffffffff1673ffffffffffffffffffffffffffffffffffffffff16815260200190815260200160002060020160009054906101000a900473ffffffffffffffffffffffffffffffffffffffff1673ffffffffffffffffffffffffffffffffffffffff160361594e576040517f08c379a00000000000000000000000000000000000000000000000000000000081526004016159459061896d565b60405180910390fd5b80600360008573ffffffffffffffffffffffffffffffffffffffff1673ffffffffffffffffffffffffffffffffffffffff168152602001908152602001600020600001908161599d9190618cd0565b5081600360008573ffffffffffffffffffffffffffffffffffffffff1673ffffffffffffffffffffffffffffffffffffffff16815260200190815260200160002060010190816159ed9190618cd0565b507fc0e694475d9755514453a459373ded91f1517029faca54000da1c3007ec2c4f9838284604051615a21939291906194fc565b60405180910390a1505050565b6000606060008311615a75576040517f08c379a0000000000000000000000000000000000000000000000000000000008152600401615a6c9061958d565b60405180910390fd5b600080600080615b0b876002805480602002602001604051908101604052809291908181526020018280548015615b0157602002820191906000526020600020905b8160009054906101000a900473ffffffffffffffffffffffffffffffffffffffff1673ffffffffffffffffffffffffffffffffffffffff1681526020019060010190808311615ab7575b5050505050617387565b935093509350935060008367ffffffffffffffff811115615b2f57615b2e617982565b5b604051908082528060200260200182016040528015615b6857816020015b615b5561749a565b815260200190600190039081615b4d5790505b50905060008390505b82811015615e99576003600060028381548110615b9157615b90618f17565b5b9060005260206000200160009054906101000a900473ffffffffffffffffffffffffffffffffffffffff1673ffffffffffffffffffffffffffffffffffffffff1673ffffffffffffffffffffffffffffffffffffffff1681526020019081526020016000206040518060c0016040529081600082018054615c1190618884565b80601f0160208091040260200160405190810160405280929190818152602001828054615c3d90618884565b8015615c8a5780601f10615c5f57610100808354040283529160200191615c8a565b820191906000526020600020905b815481529060010190602001808311615c6d57829003601f168201915b50505050508152602001600182018054615ca390618884565b80601f0160208091040260200160405190810160405280929190818152602001828054615ccf90618884565b8015615d1c5780601f10615cf157610100808354040283529160200191615d1c565b820191906000526020600020905b815481529060010190602001808311615cff57829003601f168201915b505050505081526020016002820160009054906101000a900473ffffffffffffffffffffffffffffffffffffffff1673ffffffffffffffffffffffffffffffffffffffff1673ffffffffffffffffffffffffffffffffffffffff168152602001600382018054615d8b90618884565b80601f0160208091040260200160405190810160405280929190818152602001828054615db790618884565b8015615e045780601f10615dd957610100808354040283529160200191615e04565b820191906000526020600020905b815481529060010190602001808311615de757829003601f168201915b505050505081526020016004820160009054906101000a900461ffff1661ffff1661ffff1681526020016004820160029054906101000a900460ff166001811115615e5257615e51617848565b5b6001811115615e6457615e63617848565b5b81525050828281518110615e7b57615e7a618f17565b5b60200260200101819052508080615e9190618f75565b915050615b71565b508481965096505050505050915091565b6000615eb4617431565b6000615ebe617431565b60005b85518110156161f5578673ffffffffffffffffffffffffffffffffffffffff16868281518110615ef457615ef3618f17565b5b602002602001015173ffffffffffffffffffffffffffffffffffffffff16036161e25760019250600160008873ffffffffffffffffffffffffffffffffffffffff1673ffffffffffffffffffffffffffffffffffffffff1681526020019081526020016000206040518060e0016040529081600082018054615f7590618884565b80601f0160208091040260200160405190810160405280929190818152602001828054615fa190618884565b8015615fee5780601f10615fc357610100808354040283529160200191615fee565b820191906000526020600020905b815481529060010190602001808311615fd157829003601f168201915b5050505050815260200160018201805461600790618884565b80601f016020809104026020016040519081016040528092919081815260200182805461603390618884565b80156160805780601f1061605557610100808354040283529160200191616080565b820191906000526020600020905b81548152906001019060200180831161606357829003601f168201915b50505050508152602001600282015481526020016003820160009054906101000a900473ffffffffffffffffffffffffffffffffffffffff1673ffffffffffffffffffffffffffffffffffffffff1673ffffffffffffffffffffffffffffffffffffffff1681526020016004820160009054906101000a900473ffffffffffffffffffffffffffffffffffffffff1673ffffffffffffffffffffffffffffffffffffffff1673ffffffffffffffffffffffffffffffffffffffff16815260200160058201805461614f90618884565b80601f016020809104026020016040519081016040528092919081815260200182805461617b90618884565b80156161c85780601f1061619d576101008083540402835291602001916161c8565b820191906000526020600020905b8154815290600101906020018083116161ab57829003601f168201915b5050505050815260200160068201548152505091506161f5565b80806161ed90618f75565b915050615ec1565b5081819350935050509250929050565b8060016000836060015173ffffffffffffffffffffffffffffffffffffffff1673ffffffffffffffffffffffffffffffffffffffff168152602001908152602001600020600082015181600001908161625e9190618cd0565b5060208201518160010190816162749190618cd0565b506040820151816002015560608201518160030160006101000a81548173ffffffffffffffffffffffffffffffffffffffff021916908373ffffffffffffffffffffffffffffffffffffffff16021790555060808201518160040160006101000a81548173ffffffffffffffffffffffffffffffffffffffff021916908373ffffffffffffffffffffffffffffffffffffffff16021790555060a08201518160050190816163229190618cd0565b5060c08201518160060155905050600081606001519080600181540180825580915050600190039060005260206000200160009091909190916101000a81548173ffffffffffffffffffffffffffffffffffffffff021916908373ffffffffffffffffffffffffffffffffffffffff1602179055507f77eacb4962819f791ebd2750d7be9519622ddcf4c37fe09c6fd33ace5ce32ccb8160600151826000015183602001516040516163d6939291906194fc565b60405180910390a150565b82600160003373ffffffffffffffffffffffffffffffffffffffff1673ffffffffffffffffffffffffffffffffffffffff16815260200190815260200160002060000190816164309190618cd0565b5081600160003373ffffffffffffffffffffffffffffffffffffffff1673ffffffffffffffffffffffffffffffffffffffff16815260200190815260200160002060010190816164809190618cd0565b5080600160003373ffffffffffffffffffffffffffffffffffffffff1673ffffffffffffffffffffffffffffffffffffffff168152602001908152602001600020600201819055507fcfc84fa73e8500b1f994b7616fda16714aa77352defd398c17f8dda41cc921953384846040516164fb939291906194fc565b60405180910390a1505050565b81600160003373ffffffffffffffffffffffffffffffffffffffff1673ffffffffffffffffffffffffffffffffffffffff16815260200190815260200160002060050190816165579190618cd0565b5080600160003373ffffffffffffffffffffffffffffffffffffffff1673ffffffffffffffffffffffffffffffffffffffff168152602001908152602001600020600601819055507f844d9124dad5a413c4b99664397291f93f1e89513cd8c3a68674c050283c556133600160003373ffffffffffffffffffffffffffffffffffffffff1673ffffffffffffffffffffffffffffffffffffffff16815260200190815260200160002060000184604051616613939291906195ad565b60405180910390a15050565b60008073ffffffffffffffffffffffffffffffffffffffff16600360008573ffffffffffffffffffffffffffffffffffffffff1673ffffffffffffffffffffffffffffffffffffffff16815260200190815260200160002060020160009054906101000a900473ffffffffffffffffffffffffffffffffffffffff1673ffffffffffffffffffffffffffffffffffffffff16036166f1576040517f08c379a00000000000000000000000000000000000000000000000000000000081526004016166e89061896d565b60405180910390fd5b818015616770575060018081111561670c5761670b617848565b5b600360008573ffffffffffffffffffffffffffffffffffffffff1673ffffffffffffffffffffffffffffffffffffffff16815260200190815260200160002060040160029054906101000a900460ff16600181111561676e5761676d617848565b5b145b15616863576000600360008573ffffffffffffffffffffffffffffffffffffffff1673ffffffffffffffffffffffffffffffffffffffff16815260200190815260200160002060040160026101000a81548160ff021916908360018111156167db576167da617848565b5b02179055507fbbb85d77e85c02977b28ba58175443b7d9c020551c53482ea6df5fe2e1cb884383600360008673ffffffffffffffffffffffffffffffffffffffff1673ffffffffffffffffffffffffffffffffffffffff1681526020019081526020016000206000016040516168529291906195f2565b60405180910390a160009050616a2a565b811580156168e45750600060018111156168805761687f617848565b5b600360008573ffffffffffffffffffffffffffffffffffffffff1673ffffffffffffffffffffffffffffffffffffffff16815260200190815260200160002060040160029054906101000a900460ff1660018111156168e2576168e1617848565b5b145b156169d7576001600360008573ffffffffffffffffffffffffffffffffffffffff1673ffffffffffffffffffffffffffffffffffffffff16815260200190815260200160002060040160026101000a81548160ff0219169083600181111561694f5761694e617848565b5b02179055507fe2914c072e85a93716aea3154e8dc2a6d4f9a823930697852b892fe10bd598f883600360008673ffffffffffffffffffffffffffffffffffffffff1673ffffffffffffffffffffffffffffffffffffffff1681526020019081526020016000206000016040516169c69291906195f2565b60405180910390a160019050616a2a565b600360008473ffffffffffffffffffffffffffffffffffffffff1673ffffffffffffffffffffffffffffffffffffffff16815260200190815260200160002060040160029054906101000a900460ff1690505b92915050565b6000606060008411616a77576040517f08c379a0000000000000000000000000000000000000000000000000000000008152600401616a6e9061966e565b60405180910390fd5b600080600080616b948888616aca57600960003373ffffffffffffffffffffffffffffffffffffffff1673ffffffffffffffffffffffffffffffffffffffff168152602001908152602001600020616b0a565b600860003373ffffffffffffffffffffffffffffffffffffffff1673ffffffffffffffffffffffffffffffffffffffff1681526020019081526020016000205b805480602002602001604051908101604052809291908181526020018280548015616b8a57602002820191906000526020600020905b8160009054906101000a900473ffffffffffffffffffffffffffffffffffffffff1673ffffffffffffffffffffffffffffffffffffffff1681526020019060010190808311616b40575b5050505050617387565b935093509350935060008367ffffffffffffffff811115616bb857616bb7617982565b5b604051908082528060200260200182016040528015616bf157816020015b616bde6174fc565b815260200190600190039081616bd65790505b50905060008390505b828110156171945788616cae576007616c8e600960003373ffffffffffffffffffffffffffffffffffffffff1673ffffffffffffffffffffffffffffffffffffffff1681526020019081526020016000208381548110616c5d57616c5c618f17565b5b9060005260206000200160009054906101000a900473ffffffffffffffffffffffffffffffffffffffff163361528f565b604051616c9b9190618b0d565b9081526020016040518091039020616d51565b6007616d3533600860003373ffffffffffffffffffffffffffffffffffffffff1673ffffffffffffffffffffffffffffffffffffffff1681526020019081526020016000208481548110616d0557616d04618f17565b5b9060005260206000200160009054906101000a900473ffffffffffffffffffffffffffffffffffffffff1661528f565b604051616d429190618b0d565b90815260200160405180910390205b60405180610140016040529081600082018054616d6d90618884565b80601f0160208091040260200160405190810160405280929190818152602001828054616d9990618884565b8015616de65780601f10616dbb57610100808354040283529160200191616de6565b820191906000526020600020905b815481529060010190602001808311616dc957829003601f168201915b505050505081526020016001820160009054906101000a900473ffffffffffffffffffffffffffffffffffffffff1673ffffffffffffffffffffffffffffffffffffffff1673ffffffffffffffffffffffffffffffffffffffff168152602001600282018054616e5590618884565b80601f0160208091040260200160405190810160405280929190818152602001828054616e8190618884565b8015616ece5780601f10616ea357610100808354040283529160200191616ece565b820191906000526020600020905b815481529060010190602001808311616eb157829003601f168201915b505050505081526020016003820160009054906101000a900473ffffffffffffffffffffffffffffffffffffffff1673ffffffffffffffffffffffffffffffffffffffff1673ffffffffffffffffffffffffffffffffffffffff168152602001600482018054616f3d90618884565b80601f0160208091040260200160405190810160405280929190818152602001828054616f6990618884565b8015616fb65780601f10616f8b57610100808354040283529160200191616fb6565b820191906000526020600020905b815481529060010190602001808311616f9957829003601f168201915b50505050508152602001600582018054616fcf90618884565b80601f0160208091040260200160405190810160405280929190818152602001828054616ffb90618884565b80156170485780601f1061701d57610100808354040283529160200191617048565b820191906000526020600020905b81548152906001019060200180831161702b57829003601f168201915b50505050508152602001600682015481526020016007820160009054906101000a900460ff1660028111156170805761707f617848565b5b600281111561709257617091617848565b5b81526020016007820160019054906101000a900460ff1660028111156170bb576170ba617848565b5b60028111156170cd576170cc617848565b5b81526020016008820180546170e190618884565b80601f016020809104026020016040519081016040528092919081815260200182805461710d90618884565b801561715a5780601f1061712f5761010080835404028352916020019161715a565b820191906000526020600020905b81548152906001019060200180831161713d57829003601f168201915b50505050508152505082828151811061717657617175618f17565b5b6020026020010181905250808061718c90618f75565b915050616bfa565b5084819650965050505050509250929050565b600073ffffffffffffffffffffffffffffffffffffffff168173ffffffffffffffffffffffffffffffffffffffff1603617216576040517f08c379a000000000000000000000000000000000000000000000000000000000815260040161720d9061896d565b60405180910390fd5b600360008273ffffffffffffffffffffffffffffffffffffffff1673ffffffffffffffffffffffffffffffffffffffff168152602001908152602001600020600401600081819054906101000a900461ffff16809291906172769061968e565b91906101000a81548161ffff021916908361ffff1602179055505050565b600073ffffffffffffffffffffffffffffffffffffffff168173ffffffffffffffffffffffffffffffffffffffff1603617303576040517f08c379a00000000000000000000000000000000000000000000000000000000081526004016172fa90619704565b60405180910390fd5b33600160008373ffffffffffffffffffffffffffffffffffffffff1673ffffffffffffffffffffffffffffffffffffffff16815260200190815260200160002060040160006101000a81548173ffffffffffffffffffffffffffffffffffffffff021916908373ffffffffffffffffffffffffffffffffffffffff16021790555050565b60008060008060006019865161739d9190619753565b9050601986516173ad9190619784565b945060008111156173c75784806173c390618f75565b9550505b601993506001876173d891906197b5565b60196173e491906197e9565b92508660196173f391906197e9565b91508487111561740a576000935060009150617427565b84871480156174195750600081115b1561742657809350855191505b5b5092959194509250565b6040518060e00160405280606081526020016060815260200160008152602001600073ffffffffffffffffffffffffffffffffffffffff168152602001600073ffffffffffffffffffffffffffffffffffffffff16815260200160608152602001600081525090565b6040518060c001604052806060815260200160608152602001600073ffffffffffffffffffffffffffffffffffffffff16815260200160608152602001600061ffff168152602001600060018111156174f6576174f5617848565b5b81525090565b60405180610140016040528060608152602001600073ffffffffffffffffffffffffffffffffffffffff16815260200160608152602001600073ffffffffffffffffffffffffffffffffffffffff1681526020016060815260200160608152602001600081526020016000600281111561757957617578617848565b5b81526020016000600281111561759257617591617848565b5b8152602001606081525090565b6040518060a001604052806060815260200160608152602001600073ffffffffffffffffffffffffffffffffffffffff168152602001600060028111156175e9576175e8617848565b5b81526020016000600181111561760257617601617848565b5b81525090565b6000604051905090565b600080fd5b600080fd5b600073ffffffffffffffffffffffffffffffffffffffff82169050919050565b60006176478261761c565b9050919050565b6176578161763c565b811461766257600080fd5b50565b6000813590506176748161764e565b92915050565b6000602082840312156176905761768f617612565b5b600061769e84828501617665565b91505092915050565b600081519050919050565b600082825260208201905092915050565b60005b838110156176e15780820151818401526020810190506176c6565b60008484015250505050565b6000601f19601f8301169050919050565b6000617709826176a7565b61771381856176b2565b93506177238185602086016176c3565b61772c816176ed565b840191505092915050565b6000819050919050565b61774a81617737565b82525050565b6177598161763c565b82525050565b600060e083016000830151848203600086015261777c82826176fe565b9150506020830151848203602086015261779682826176fe565b91505060408301516177ab6040860182617741565b5060608301516177be6060860182617750565b5060808301516177d16080860182617750565b5060a083015184820360a08601526177e982826176fe565b91505060c08301516177fe60c0860182617741565b508091505092915050565b60006020820190508181036000830152617823818461775f565b905092915050565b600061ffff82169050919050565b6178428161782b565b82525050565b7f4e487b7100000000000000000000000000000000000000000000000000000000600052602160045260246000fd5b6002811061788857617887617848565b5b50565b600081905061789982617877565b919050565b60006178a98261788b565b9050919050565b6178b98161789e565b82525050565b600060c08301600083015184820360008601526178dc82826176fe565b915050602083015184820360208601526178f682826176fe565b915050604083015161790b6040860182617750565b506060830151848203606086015261792382826176fe565b91505060808301516179386080860182617839565b5060a083015161794b60a08601826178b0565b508091505092915050565b6000602082019050818103600083015261797081846178bf565b905092915050565b600080fd5b600080fd5b7f4e487b7100000000000000000000000000000000000000000000000000000000600052604160045260246000fd5b6179ba826176ed565b810181811067ffffffffffffffff821117156179d9576179d8617982565b5b80604052505050565b60006179ec617608565b90506179f882826179b1565b919050565b600067ffffffffffffffff821115617a1857617a17617982565b5b617a21826176ed565b9050602081019050919050565b82818337600083830152505050565b6000617a50617a4b846179fd565b6179e2565b905082815260208101848484011115617a6c57617a6b61797d565b5b617a77848285617a2e565b509392505050565b600082601f830112617a9457617a93617978565b5b8135617aa4848260208601617a3d565b91505092915050565b60008060408385031215617ac457617ac3617612565b5b6000617ad285828601617665565b925050602083013567ffffffffffffffff811115617af357617af2617617565b5b617aff85828601617a7f565b9150509250929050565b600080fd5b600080fd5b617b1c8161782b565b8114617b2757600080fd5b50565b600081359050617b3981617b13565b92915050565b60028110617b4c57600080fd5b50565b600081359050617b5e81617b3f565b92915050565b600060c08284031215617b7a57617b79617b09565b5b617b8460c06179e2565b9050600082013567ffffffffffffffff811115617ba457617ba3617b0e565b5b617bb084828501617a7f565b600083015250602082013567ffffffffffffffff811115617bd457617bd3617b0e565b5b617be084828501617a7f565b6020830152506040617bf484828501617665565b604083015250606082013567ffffffffffffffff811115617c1857617c17617b0e565b5b617c2484828501617a7f565b6060830152506080617c3884828501617b2a565b60808301525060a0617c4c84828501617b4f565b60a08301525092915050565b600060208284031215617c6e57617c6d617612565b5b600082013567ffffffffffffffff811115617c8c57617c8b617617565b5b617c9884828501617b64565b91505092915050565b60008115159050919050565b617cb681617ca1565b82525050565b60038110617ccd57617ccc617848565b5b50565b6000819050617cde82617cbc565b919050565b6000617cee82617cd0565b9050919050565b617cfe81617ce3565b82525050565b60038110617d1557617d14617848565b5b50565b6000819050617d2682617d04565b919050565b6000617d3682617d18565b9050919050565b617d4681617d2b565b82525050565b6000610140830160008301518482036000860152617d6a82826176fe565b9150506020830151617d7f6020860182617750565b5060408301518482036040860152617d9782826176fe565b9150506060830151617dac6060860182617750565b5060808301518482036080860152617dc482826176fe565b91505060a083015184820360a0860152617dde82826176fe565b91505060c0830151617df360c0860182617741565b5060e0830151617e0660e0860182617cf5565b50610100830151617e1b610100860182617d3d565b50610120830151848203610120860152617e3582826176fe565b9150508091505092915050565b6000606082019050617e576000830186617cad565b8181036020830152617e6981856178bf565b90508181036040830152617e7d8184617d4c565b9050949350505050565b617e9081617ca1565b8114617e9b57600080fd5b50565b600081359050617ead81617e87565b92915050565b600080600060608486031215617ecc57617ecb617612565b5b6000617eda86828701617665565b9350506020617eeb86828701617e9e565b925050604084013567ffffffffffffffff811115617f0c57617f0b617617565b5b617f1886828701617a7f565b9150509250925092565b600080600060608486031215617f3b57617f3a617612565b5b6000617f4986828701617665565b935050602084013567ffffffffffffffff811115617f6a57617f69617617565b5b617f7686828701617a7f565b925050604084013567ffffffffffffffff811115617f9757617f96617617565b5b617fa386828701617a7f565b9150509250925092565b617fb681617737565b8114617fc157600080fd5b50565b600081359050617fd381617fad565b92915050565b600060208284031215617fef57617fee617612565b5b6000617ffd84828501617fc4565b91505092915050565b61800f81617737565b82525050565b600081519050919050565b600082825260208201905092915050565b6000819050602082019050919050565b600060c083016000830151848203600086015261805e82826176fe565b9150506020830151848203602086015261807882826176fe565b915050604083015161808d6040860182617750565b50606083015184820360608601526180a582826176fe565b91505060808301516180ba6080860182617839565b5060a08301516180cd60a08601826178b0565b508091505092915050565b60006180e48383618041565b905092915050565b6000602082019050919050565b600061810482618015565b61810e8185618020565b93508360208202850161812085618031565b8060005b8581101561815c578484038952815161813d85826180d8565b9450618148836180ec565b925060208a01995050600181019050618124565b50829750879550505050505092915050565b60006040820190506181836000830185618006565b818103602083015261819581846180f9565b90509392505050565b60006060820190506181b36000830186617cad565b81810360208301526181c5818561775f565b905081810360408301526181d98184617d4c565b9050949350505050565b600060e082840312156181f9576181f8617b09565b5b61820360e06179e2565b9050600082013567ffffffffffffffff81111561822357618222617b0e565b5b61822f84828501617a7f565b600083015250602082013567ffffffffffffffff81111561825357618252617b0e565b5b61825f84828501617a7f565b602083015250604061827384828501617fc4565b604083015250606061828784828501617665565b606083015250608061829b84828501617665565b60808301525060a082013567ffffffffffffffff8111156182bf576182be617b0e565b5b6182cb84828501617a7f565b60a08301525060c06182df84828501617fc4565b60c08301525092915050565b60008060006060848603121561830457618303617612565b5b600084013567ffffffffffffffff81111561832257618321617617565b5b61832e868287016181e3565b935050602061833f86828701617fc4565b925050604084013567ffffffffffffffff8111156183605761835f617617565b5b61836c86828701617a7f565b9150509250925092565b60008060006060848603121561838f5761838e617612565b5b600084013567ffffffffffffffff8111156183ad576183ac617617565b5b6183b986828701617a7f565b935050602084013567ffffffffffffffff8111156183da576183d9617617565b5b6183e686828701617a7f565b92505060406183f786828701617fc4565b9150509250925092565b6000806040838503121561841857618417617612565b5b600083013567ffffffffffffffff81111561843657618435617617565b5b61844285828601617a7f565b925050602061845385828601617fc4565b9150509250929050565b6000806040838503121561847457618473617612565b5b600061848285828601617665565b925050602061849385828601617e9e565b9150509250929050565b600081519050919050565b600082825260208201905092915050565b6000819050602082019050919050565b60006101408301600083015184820360008601526184e782826176fe565b91505060208301516184fc6020860182617750565b506040830151848203604086015261851482826176fe565b91505060608301516185296060860182617750565b506080830151848203608086015261854182826176fe565b91505060a083015184820360a086015261855b82826176fe565b91505060c083015161857060c0860182617741565b5060e083015161858360e0860182617cf5565b50610100830151618598610100860182617d3d565b506101208301518482036101208601526185b282826176fe565b9150508091505092915050565b60006185cb83836184c9565b905092915050565b6000602082019050919050565b60006185eb8261849d565b6185f581856184a8565b935083602082028501618607856184b9565b8060005b85811015618643578484038952815161862485826185bf565b945061862f836185d3565b925060208a0199505060018101905061860b565b50829750879550505050505092915050565b600060408201905061866a6000830185618006565b818103602083015261867c81846185e0565b90509392505050565b6003811061869657618695617848565b5b50565b60008190506186a782618685565b919050565b60006186b782618699565b9050919050565b6186c7816186ac565b82525050565b600060a08301600083015184820360008601526186ea82826176fe565b9150506020830151848203602086015261870482826176fe565b91505060408301516187196040860182617750565b50606083015161872c60608601826186be565b50608083015161873f60808601826178b0565b508091505092915050565b6000602082019050818103600083015261876481846186cd565b905092915050565b600082825260208201905092915050565b7f496420697320456d707479000000000000000000000000000000000000000000600082015250565b60006187b3600b8361876c565b91506187be8261877d565b602082019050919050565b600060208201905081810360008301526187e2816187a6565b9050919050565b7f5573657220496420456d70747900000000000000000000000000000000000000600082015250565b600061881f600d8361876c565b915061882a826187e9565b602082019050919050565b6000602082019050818103600083015261884e81618812565b9050919050565b7f4e487b7100000000000000000000000000000000000000000000000000000000600052602260045260246000fd5b6000600282049050600182168061889c57607f821691505b6020821081036188af576188ae618855565b5b50919050565b7f5573657220456d61696c20456d70747900000000000000000000000000000000600082015250565b60006188eb60108361876c565b91506188f6826188b5565b602082019050919050565b6000602082019050818103600083015261891a816188de565b9050919050565b7f42616e6b206e6f7420666f756e64000000000000000000000000000000000000600082015250565b6000618957600e8361876c565b915061896282618921565b602082019050919050565b600060208201905081810360008301526189868161894a565b9050919050565b7f42616e6b206973206e6f74206163746976650000000000000000000000000000600082015250565b60006189c360128361876c565b91506189ce8261898d565b602082019050919050565b600060208201905081810360008301526189f2816189b6565b9050919050565b7f4b594320726571206e6f7420666f756e64000000000000000000000000000000600082015250565b6000618a2f60118361876c565b9150618a3a826189f9565b602082019050919050565b60006020820190508181036000830152618a5e81618a22565b9050919050565b7f55736572206e6f7420666f756e64000000000000000000000000000000000000600082015250565b6000618a9b600e8361876c565b9150618aa682618a65565b602082019050919050565b60006020820190508181036000830152618aca81618a8e565b9050919050565b600081905092915050565b6000618ae7826176a7565b618af18185618ad1565b9350618b018185602086016176c3565b80840191505092915050565b6000618b198284618adc565b915081905092915050565b60008190508160005260206000209050919050565b60006020601f8301049050919050565b600082821b905092915050565b600060088302618b867fffffffffffffffffffffffffffffffffffffffffffffffffffffffffffffffff82618b49565b618b908683618b49565b95508019841693508086168417925050509392505050565b6000819050919050565b6000618bcd618bc8618bc384617737565b618ba8565b617737565b9050919050565b6000819050919050565b618be783618bb2565b618bfb618bf382618bd4565b848454618b56565b825550505050565b600090565b618c10618c03565b618c1b818484618bde565b505050565b5b81811015618c3f57618c34600082618c08565b600181019050618c21565b5050565b601f821115618c8457618c5581618b24565b618c5e84618b39565b81016020851015618c6d578190505b618c81618c7985618b39565b830182618c20565b50505b505050565b600082821c905092915050565b6000618ca760001984600802618c89565b1980831691505092915050565b6000618cc08383618c96565b9150826002028217905092915050565b618cd9826176a7565b67ffffffffffffffff811115618cf257618cf1617982565b5b618cfc8254618884565b618d07828285618c43565b600060209050601f831160018114618d3a5760008415618d28578287015190505b618d328582618cb4565b865550618d9a565b601f198416618d4886618b24565b60005b82811015618d7057848901518255600182019150602085019450602081019050618d4b565b86831015618d8d5784890151618d89601f891682618c96565b8355505b6001600288020188555050505b505050505050565b6000618dad826176a7565b618db7818561876c565b9350618dc78185602086016176c3565b618dd0816176ed565b840191505092915050565b60008154618de881618884565b618df2818661876c565b94506001821660008114618e0d5760018114618e2357618e56565b60ff198316865281151560200286019350618e56565b618e2c85618b24565b60005b83811015618e4e57815481890152600182019150602081019050618e2f565b808801955050505b50505092915050565b60006060820190508181036000830152618e798186618da2565b90508181036020830152618e8d8185618ddb565b90508181036040830152618ea18184618ddb565b9050949350505050565b7f4f6e6c792061646d696e20697320616c6c6f7765640000000000000000000000600082015250565b6000618ee160158361876c565b9150618eec82618eab565b602082019050919050565b60006020820190508181036000830152618f1081618ed4565b9050919050565b7f4e487b7100000000000000000000000000000000000000000000000000000000600052603260045260246000fd5b7f4e487b7100000000000000000000000000000000000000000000000000000000600052601160045260246000fd5b6000618f8082617737565b91507fffffffffffffffffffffffffffffffffffffffffffffffffffffffffffffffff8203618fb257618fb1618f46565b5b600182019050919050565b7f5573657220646f65736e27742068617665204b59432072657100000000000000600082015250565b6000618ff360198361876c565b9150618ffe82618fbd565b602082019050919050565b6000602082019050818103600083015261902281618fe6565b9050919050565b6190328161763c565b82525050565b61904181617d2b565b82525050565b600060808201905081810360008301526190618187618da2565b90506190706020830186619029565b61907d6040830185619029565b61908a6060830184619038565b95945050505050565b7f5065726d697373696f6e206e6f7420666f756e64000000000000000000000000600082015250565b60006190c960148361876c565b91506190d482619093565b602082019050919050565b600060208201905081810360008301526190f8816190bc565b9050919050565b7f5573657220686164206b7963207265712e000000000000000000000000000000600082015250565b600061913560118361876c565b9150619140826190ff565b602082019050919050565b6000602082019050818103600083015261916481619128565b9050919050565b600060608201905081810360008301526191858186618da2565b905081810360208301526191998185618ddb565b905081810360408301526191ad8184618da2565b9050949350505050565b7f53656e64657220496420456d7074790000000000000000000000000000000000600082015250565b60006191ed600f8361876c565b91506191f8826191b7565b602082019050919050565b6000602082019050818103600083015261921c816191e0565b9050919050565b61922c81617ce3565b82525050565b6000608082019050818103600083015261924c8187618da2565b905061925b6020830186619029565b6192686040830185619029565b6192756060830184619223565b95945050505050565b7f42616e6b20496420456d70747900000000000000000000000000000000000000600082015250565b60006192b4600d8361876c565b91506192bf8261927e565b602082019050919050565b600060208201905081810360008301526192e3816192a7565b9050919050565b60008160601b9050919050565b6000619302826192ea565b9050919050565b6000619314826192f7565b9050919050565b61932c6193278261763c565b619309565b82525050565b600061933e828561931b565b60148201915061934e828461931b565b6014820191508190509392505050565b7f5265717565737420496420656d70747900000000000000000000000000000000600082015250565b600061939460108361876c565b915061939f8261935e565b602082019050919050565b600060208201905081810360008301526193c381619387565b9050919050565b7f496420697320656d707479000000000000000000000000000000000000000000600082015250565b6000619400600b8361876c565b915061940b826193ca565b602082019050919050565b6000602082019050818103600083015261942f816193f3565b9050919050565b7f42616e6b20657869737473000000000000000000000000000000000000000000600082015250565b600061946c600b8361876c565b915061947782619436565b602082019050919050565b6000602082019050818103600083015261949b8161945f565b9050919050565b60006080820190506194b76000830187619029565b81810360208301526194c98186618da2565b905081810360408301526194dd8185618da2565b905081810360608301526194f18184618da2565b905095945050505050565b60006060820190506195116000830186619029565b81810360208301526195238185618da2565b905081810360408301526195378184618da2565b9050949350505050565b7f504e2073686f756c64206265203e203000000000000000000000000000000000600082015250565b600061957760108361876c565b915061958282619541565b602082019050919050565b600060208201905081810360008301526195a68161956a565b9050919050565b60006060820190506195c26000830186619029565b81810360208301526195d48185618ddb565b905081810360408301526195e88184618da2565b9050949350505050565b60006040820190506196076000830185619029565b81810360208301526196198184618ddb565b90509392505050565b7f504e2073686f756c64206265203e207a65726f00000000000000000000000000600082015250565b600061965860138361876c565b915061966382619622565b602082019050919050565b600060208201905081810360008301526196878161964b565b9050919050565b60006196998261782b565b915061ffff82036196ad576196ac618f46565b5b600182019050919050565b7f437573746f6d657220496420456d707479000000000000000000000000000000600082015250565b60006196ee60118361876c565b91506196f9826196b8565b602082019050919050565b6000602082019050818103600083015261971d816196e1565b9050919050565b7f4e487b7100000000000000000000000000000000000000000000000000000000600052601260045260246000fd5b600061975e82617737565b915061976983617737565b92508261977957619778619724565b5b828206905092915050565b600061978f82617737565b915061979a83617737565b9250826197aa576197a9619724565b5b828204905092915050565b60006197c082617737565b91506197cb83617737565b92508282039050818111156197e3576197e2618f46565b5b92915050565b60006197f482617737565b91506197ff83617737565b925082820261980d81617737565b9150828204841483151761982457619823618f46565b5b509291505056fea2646970667358221220519f71db6c1063127d65826dddfb2159916bc758685e8c973033fe248316f8c164736f6c63430008120033",
		"opcodes": "PUSH1 0x80 PUSH1 0x40 MSTORE CALLVALUE DUP1 ISZERO PUSH3 0x11 JUMPI PUSH1 0x0 DUP1 REVERT JUMPDEST POP PUSH1 0x40 MLOAD PUSH3 0xA0C1 CODESIZE SUB DUP1 PUSH3 0xA0C1 DUP4 CODECOPY DUP2 DUP2 ADD PUSH1 0x40 MSTORE DUP2 ADD SWAP1 PUSH3 0x37 SWAP2 SWAP1 PUSH3 0x46A JUMP JUMPDEST CALLER PUSH1 0x4 PUSH1 0x0 PUSH2 0x100 EXP DUP2 SLOAD DUP2 PUSH20 0xFFFFFFFFFFFFFFFFFFFFFFFFFFFFFFFFFFFFFFFF MUL NOT AND SWAP1 DUP4 PUSH20 0xFFFFFFFFFFFFFFFFFFFFFFFFFFFFFFFFFFFFFFFF AND MUL OR SWAP1 SSTORE POP PUSH1 0x0 PUSH1 0x40 MLOAD DUP1 PUSH1 0xA0 ADD PUSH1 0x40 MSTORE DUP1 DUP5 DUP2 MSTORE PUSH1 0x20 ADD DUP4 DUP2 MSTORE PUSH1 0x20 ADD PUSH1 0x4 PUSH1 0x0 SWAP1 SLOAD SWAP1 PUSH2 0x100 EXP SWAP1 DIV PUSH20 0xFFFFFFFFFFFFFFFFFFFFFFFFFFFFFFFFFFFFFFFF AND PUSH20 0xFFFFFFFFFFFFFFFFFFFFFFFFFFFFFFFFFFFFFFFF AND DUP2 MSTORE PUSH1 0x20 ADD PUSH1 0x0 PUSH1 0x2 DUP2 GT ISZERO PUSH3 0xE6 JUMPI PUSH3 0xE5 PUSH3 0x4EF JUMP JUMPDEST JUMPDEST DUP2 MSTORE PUSH1 0x20 ADD PUSH1 0x0 PUSH1 0x1 DUP2 GT ISZERO PUSH3 0x102 JUMPI PUSH3 0x101 PUSH3 0x4EF JUMP JUMPDEST JUMPDEST DUP2 MSTORE POP SWAP1 POP DUP1 PUSH1 0x6 PUSH1 0x0 PUSH1 0x4 PUSH1 0x0 SWAP1 SLOAD SWAP1 PUSH2 0x100 EXP SWAP1 DIV PUSH20 0xFFFFFFFFFFFFFFFFFFFFFFFFFFFFFFFFFFFFFFFF AND PUSH20 0xFFFFFFFFFFFFFFFFFFFFFFFFFFFFFFFFFFFFFFFF AND PUSH20 0xFFFFFFFFFFFFFFFFFFFFFFFFFFFFFFFFFFFFFFFF AND DUP2 MSTORE PUSH1 0x20 ADD SWAP1 DUP2 MSTORE PUSH1 0x20 ADD PUSH1 0x0 KECCAK256 PUSH1 0x0 DUP3 ADD MLOAD DUP2 PUSH1 0x0 ADD SWAP1 DUP2 PUSH3 0x180 SWAP2 SWAP1 PUSH3 0x769 JUMP JUMPDEST POP PUSH1 0x20 DUP3 ADD MLOAD DUP2 PUSH1 0x1 ADD SWAP1 DUP2 PUSH3 0x198 SWAP2 SWAP1 PUSH3 0x769 JUMP JUMPDEST POP PUSH1 0x40 DUP3 ADD MLOAD DUP2 PUSH1 0x2 ADD PUSH1 0x0 PUSH2 0x100 EXP DUP2 SLOAD DUP2 PUSH20 0xFFFFFFFFFFFFFFFFFFFFFFFFFFFFFFFFFFFFFFFF MUL NOT AND SWAP1 DUP4 PUSH20 0xFFFFFFFFFFFFFFFFFFFFFFFFFFFFFFFFFFFFFFFF AND MUL OR SWAP1 SSTORE POP PUSH1 0x60 DUP3 ADD MLOAD DUP2 PUSH1 0x2 ADD PUSH1 0x14 PUSH2 0x100 EXP DUP2 SLOAD DUP2 PUSH1 0xFF MUL NOT AND SWAP1 DUP4 PUSH1 0x2 DUP2 GT ISZERO PUSH3 0x20E JUMPI PUSH3 0x20D PUSH3 0x4EF JUMP JUMPDEST JUMPDEST MUL OR SWAP1 SSTORE POP PUSH1 0x80 DUP3 ADD MLOAD DUP2 PUSH1 0x2 ADD PUSH1 0x15 PUSH2 0x100 EXP DUP2 SLOAD DUP2 PUSH1 0xFF MUL NOT AND SWAP1 DUP4 PUSH1 0x1 DUP2 GT ISZERO PUSH3 0x241 JUMPI PUSH3 0x240 PUSH3 0x4EF JUMP JUMPDEST JUMPDEST MUL OR SWAP1 SSTORE POP SWAP1 POP POP PUSH1 0x5 PUSH1 0x4 PUSH1 0x0 SWAP1 SLOAD SWAP1 PUSH2 0x100 EXP SWAP1 DIV PUSH20 0xFFFFFFFFFFFFFFFFFFFFFFFFFFFFFFFFFFFFFFFF AND SWAP1 DUP1 PUSH1 0x1 DUP2 SLOAD ADD DUP1 DUP3 SSTORE DUP1 SWAP2 POP POP PUSH1 0x1 SWAP1 SUB SWAP1 PUSH1 0x0 MSTORE PUSH1 0x20 PUSH1 0x0 KECCAK256 ADD PUSH1 0x0 SWAP1 SWAP2 SWAP1 SWAP2 SWAP1 SWAP2 PUSH2 0x100 EXP DUP2 SLOAD DUP2 PUSH20 0xFFFFFFFFFFFFFFFFFFFFFFFFFFFFFFFFFFFFFFFF MUL NOT AND SWAP1 DUP4 PUSH20 0xFFFFFFFFFFFFFFFFFFFFFFFFFFFFFFFFFFFFFFFF AND MUL OR SWAP1 SSTORE POP POP POP POP PUSH3 0x850 JUMP JUMPDEST PUSH1 0x0 PUSH1 0x40 MLOAD SWAP1 POP SWAP1 JUMP JUMPDEST PUSH1 0x0 DUP1 REVERT JUMPDEST PUSH1 0x0 DUP1 REVERT JUMPDEST PUSH1 0x0 DUP1 REVERT JUMPDEST PUSH1 0x0 DUP1 REVERT JUMPDEST PUSH1 0x0 PUSH1 0x1F NOT PUSH1 0x1F DUP4 ADD AND SWAP1 POP SWAP2 SWAP1 POP JUMP JUMPDEST PUSH32 0x4E487B7100000000000000000000000000000000000000000000000000000000 PUSH1 0x0 MSTORE PUSH1 0x41 PUSH1 0x4 MSTORE PUSH1 0x24 PUSH1 0x0 REVERT JUMPDEST PUSH3 0x340 DUP3 PUSH3 0x2F5 JUMP JUMPDEST DUP2 ADD DUP2 DUP2 LT PUSH8 0xFFFFFFFFFFFFFFFF DUP3 GT OR ISZERO PUSH3 0x362 JUMPI PUSH3 0x361 PUSH3 0x306 JUMP JUMPDEST JUMPDEST DUP1 PUSH1 0x40 MSTORE POP POP POP JUMP JUMPDEST PUSH1 0x0 PUSH3 0x377 PUSH3 0x2D7 JUMP JUMPDEST SWAP1 POP PUSH3 0x385 DUP3 DUP3 PUSH3 0x335 JUMP JUMPDEST SWAP2 SWAP1 POP JUMP JUMPDEST PUSH1 0x0 PUSH8 0xFFFFFFFFFFFFFFFF DUP3 GT ISZERO PUSH3 0x3A8 JUMPI PUSH3 0x3A7 PUSH3 0x306 JUMP JUMPDEST JUMPDEST PUSH3 0x3B3 DUP3 PUSH3 0x2F5 JUMP JUMPDEST SWAP1 POP PUSH1 0x20 DUP2 ADD SWAP1 POP SWAP2 SWAP1 POP JUMP JUMPDEST PUSH1 0x0 JUMPDEST DUP4 DUP2 LT ISZERO PUSH3 0x3E0 JUMPI DUP1 DUP3 ADD MLOAD DUP2 DUP5 ADD MSTORE PUSH1 0x20 DUP2 ADD SWAP1 POP PUSH3 0x3C3 JUMP JUMPDEST PUSH1 0x0 DUP5 DUP5 ADD MSTORE POP POP POP POP JUMP JUMPDEST PUSH1 0x0 PUSH3 0x403 PUSH3 0x3FD DUP5 PUSH3 0x38A JUMP JUMPDEST PUSH3 0x36B JUMP JUMPDEST SWAP1 POP DUP3 DUP2 MSTORE PUSH1 0x20 DUP2 ADD DUP5 DUP5 DUP5 ADD GT ISZERO PUSH3 0x422 JUMPI PUSH3 0x421 PUSH3 0x2F0 JUMP JUMPDEST JUMPDEST PUSH3 0x42F DUP5 DUP3 DUP6 PUSH3 0x3C0 JUMP JUMPDEST POP SWAP4 SWAP3 POP POP POP JUMP JUMPDEST PUSH1 0x0 DUP3 PUSH1 0x1F DUP4 ADD SLT PUSH3 0x44F JUMPI PUSH3 0x44E PUSH3 0x2EB JUMP JUMPDEST JUMPDEST DUP2 MLOAD PUSH3 0x461 DUP5 DUP3 PUSH1 0x20 DUP7 ADD PUSH3 0x3EC JUMP JUMPDEST SWAP2 POP POP SWAP3 SWAP2 POP POP JUMP JUMPDEST PUSH1 0x0 DUP1 PUSH1 0x40 DUP4 DUP6 SUB SLT ISZERO PUSH3 0x484 JUMPI PUSH3 0x483 PUSH3 0x2E1 JUMP JUMPDEST JUMPDEST PUSH1 0x0 DUP4 ADD MLOAD PUSH8 0xFFFFFFFFFFFFFFFF DUP2 GT ISZERO PUSH3 0x4A5 JUMPI PUSH3 0x4A4 PUSH3 0x2E6 JUMP JUMPDEST JUMPDEST PUSH3 0x4B3 DUP6 DUP3 DUP7 ADD PUSH3 0x437 JUMP JUMPDEST SWAP3 POP POP PUSH1 0x20 DUP4 ADD MLOAD PUSH8 0xFFFFFFFFFFFFFFFF DUP2 GT ISZERO PUSH3 0x4D7 JUMPI PUSH3 0x4D6 PUSH3 0x2E6 JUMP JUMPDEST JUMPDEST PUSH3 0x4E5 DUP6 DUP3 DUP7 ADD PUSH3 0x437 JUMP JUMPDEST SWAP2 POP POP SWAP3 POP SWAP3 SWAP1 POP JUMP JUMPDEST PUSH32 0x4E487B7100000000000000000000000000000000000000000000000000000000 PUSH1 0x0 MSTORE PUSH1 0x21 PUSH1 0x4 MSTORE PUSH1 0x24 PUSH1 0x0 REVERT JUMPDEST PUSH1 0x0 DUP2 MLOAD SWAP1 POP SWAP2 SWAP1 POP JUMP JUMPDEST PUSH32 0x4E487B7100000000000000000000000000000000000000000000000000000000 PUSH1 0x0 MSTORE PUSH1 0x22 PUSH1 0x4 MSTORE PUSH1 0x24 PUSH1 0x0 REVERT JUMPDEST PUSH1 0x0 PUSH1 0x2 DUP3 DIV SWAP1 POP PUSH1 0x1 DUP3 AND DUP1 PUSH3 0x571 JUMPI PUSH1 0x7F DUP3 AND SWAP2 POP JUMPDEST PUSH1 0x20 DUP3 LT DUP2 SUB PUSH3 0x587 JUMPI PUSH3 0x586 PUSH3 0x529 JUMP JUMPDEST JUMPDEST POP SWAP2 SWAP1 POP JUMP JUMPDEST PUSH1 0x0 DUP2 SWAP1 POP DUP2 PUSH1 0x0 MSTORE PUSH1 0x20 PUSH1 0x0 KECCAK256 SWAP1 POP SWAP2 SWAP1 POP JUMP JUMPDEST PUSH1 0x0 PUSH1 0x20 PUSH1 0x1F DUP4 ADD DIV SWAP1 POP SWAP2 SWAP1 POP JUMP JUMPDEST PUSH1 0x0 DUP3 DUP3 SHL SWAP1 POP SWAP3 SWAP2 POP POP JUMP JUMPDEST PUSH1 0x0 PUSH1 0x8 DUP4 MUL PUSH3 0x5F1 PUSH32 0xFFFFFFFFFFFFFFFFFFFFFFFFFFFFFFFFFFFFFFFFFFFFFFFFFFFFFFFFFFFFFFFF DUP3 PUSH3 0x5B2 JUMP JUMPDEST PUSH3 0x5FD DUP7 DUP4 PUSH3 0x5B2 JUMP JUMPDEST SWAP6 POP DUP1 NOT DUP5 AND SWAP4 POP DUP1 DUP7 AND DUP5 OR SWAP3 POP POP POP SWAP4 SWAP3 POP POP POP JUMP JUMPDEST PUSH1 0x0 DUP2 SWAP1 POP SWAP2 SWAP1 POP JUMP JUMPDEST PUSH1 0x0 DUP2 SWAP1 POP SWAP2 SWAP1 POP JUMP JUMPDEST PUSH1 0x0 PUSH3 0x64A PUSH3 0x644 PUSH3 0x63E DUP5 PUSH3 0x615 JUMP JUMPDEST PUSH3 0x61F JUMP JUMPDEST PUSH3 0x615 JUMP JUMPDEST SWAP1 POP SWAP2 SWAP1 POP JUMP JUMPDEST PUSH1 0x0 DUP2 SWAP1 POP SWAP2 SWAP1 POP JUMP JUMPDEST PUSH3 0x666 DUP4 PUSH3 0x629 JUMP JUMPDEST PUSH3 0x67E PUSH3 0x675 DUP3 PUSH3 0x651 JUMP JUMPDEST DUP5 DUP5 SLOAD PUSH3 0x5BF JUMP JUMPDEST DUP3 SSTORE POP POP POP POP JUMP JUMPDEST PUSH1 0x0 SWAP1 JUMP JUMPDEST PUSH3 0x695 PUSH3 0x686 JUMP JUMPDEST PUSH3 0x6A2 DUP2 DUP5 DUP5 PUSH3 0x65B JUMP JUMPDEST POP POP POP JUMP JUMPDEST JUMPDEST DUP2 DUP2 LT ISZERO PUSH3 0x6CA JUMPI PUSH3 0x6BE PUSH1 0x0 DUP3 PUSH3 0x68B JUMP JUMPDEST PUSH1 0x1 DUP2 ADD SWAP1 POP PUSH3 0x6A8 JUMP JUMPDEST POP POP JUMP JUMPDEST PUSH1 0x1F DUP3 GT ISZERO PUSH3 0x719 JUMPI PUSH3 0x6E3 DUP2 PUSH3 0x58D JUMP JUMPDEST PUSH3 0x6EE DUP5 PUSH3 0x5A2 JUMP JUMPDEST DUP2 ADD PUSH1 0x20 DUP6 LT ISZERO PUSH3 0x6FE JUMPI DUP2 SWAP1 POP JUMPDEST PUSH3 0x716 PUSH3 0x70D DUP6 PUSH3 0x5A2 JUMP JUMPDEST DUP4 ADD DUP3 PUSH3 0x6A7 JUMP JUMPDEST POP POP JUMPDEST POP POP POP JUMP JUMPDEST PUSH1 0x0 DUP3 DUP3 SHR SWAP1 POP SWAP3 SWAP2 POP POP JUMP JUMPDEST PUSH1 0x0 PUSH3 0x73E PUSH1 0x0 NOT DUP5 PUSH1 0x8 MUL PUSH3 0x71E JUMP JUMPDEST NOT DUP1 DUP4 AND SWAP2 POP POP SWAP3 SWAP2 POP POP JUMP JUMPDEST PUSH1 0x0 PUSH3 0x759 DUP4 DUP4 PUSH3 0x72B JUMP JUMPDEST SWAP2 POP DUP3 PUSH1 0x2 MUL DUP3 OR SWAP1 POP SWAP3 SWAP2 POP POP JUMP JUMPDEST PUSH3 0x774 DUP3 PUSH3 0x51E JUMP JUMPDEST PUSH8 0xFFFFFFFFFFFFFFFF DUP2 GT ISZERO PUSH3 0x790 JUMPI PUSH3 0x78F PUSH3 0x306 JUMP JUMPDEST JUMPDEST PUSH3 0x79C DUP3 SLOAD PUSH3 0x558 JUMP JUMPDEST PUSH3 0x7A9 DUP3 DUP3 DUP6 PUSH3 0x6CE JUMP JUMPDEST PUSH1 0x0 PUSH1 0x20 SWAP1 POP PUSH1 0x1F DUP4 GT PUSH1 0x1 DUP2 EQ PUSH3 0x7E1 JUMPI PUSH1 0x0 DUP5 ISZERO PUSH3 0x7CC JUMPI DUP3 DUP8 ADD MLOAD SWAP1 POP JUMPDEST PUSH3 0x7D8 DUP6 DUP3 PUSH3 0x74B JUMP JUMPDEST DUP7 SSTORE POP PUSH3 0x848 JUMP JUMPDEST PUSH1 0x1F NOT DUP5 AND PUSH3 0x7F1 DUP7 PUSH3 0x58D JUMP JUMPDEST PUSH1 0x0 JUMPDEST DUP3 DUP2 LT ISZERO PUSH3 0x81B JUMPI DUP5 DUP10 ADD MLOAD DUP3 SSTORE PUSH1 0x1 DUP3 ADD SWAP2 POP PUSH1 0x20 DUP6 ADD SWAP5 POP PUSH1 0x20 DUP2 ADD SWAP1 POP PUSH3 0x7F4 JUMP JUMPDEST DUP7 DUP4 LT ISZERO PUSH3 0x83B JUMPI DUP5 DUP10 ADD MLOAD PUSH3 0x837 PUSH1 0x1F DUP10 AND DUP3 PUSH3 0x72B JUMP JUMPDEST DUP4 SSTORE POP JUMPDEST PUSH1 0x1 PUSH1 0x2 DUP9 MUL ADD DUP9 SSTORE POP POP POP JUMPDEST POP POP POP POP POP POP JUMP JUMPDEST PUSH2 0x9861 DUP1 PUSH3 0x860 PUSH1 0x0 CODECOPY PUSH1 0x0 RETURN INVALID PUSH1 0x80 PUSH1 0x40 MSTORE CALLVALUE DUP1 ISZERO PUSH2 0x10 JUMPI PUSH1 0x0 DUP1 REVERT JUMPDEST POP PUSH1 0x4 CALLDATASIZE LT PUSH2 0x116 JUMPI PUSH1 0x0 CALLDATALOAD PUSH1 0xE0 SHR DUP1 PUSH4 0x5F4D6DDF GT PUSH2 0xA2 JUMPI DUP1 PUSH4 0xB374A7DD GT PUSH2 0x71 JUMPI DUP1 PUSH4 0xB374A7DD EQ PUSH2 0x2F0 JUMPI DUP1 PUSH4 0xBAA2B9FD EQ PUSH2 0x30C JUMPI DUP1 PUSH4 0xDA91254C EQ PUSH2 0x33D JUMPI DUP1 PUSH4 0xDBC671D0 EQ PUSH2 0x35B JUMPI DUP1 PUSH4 0xDC57D07E EQ PUSH2 0x38C JUMPI PUSH2 0x116 JUMP JUMPDEST DUP1 PUSH4 0x5F4D6DDF EQ PUSH2 0x26A JUMPI DUP1 PUSH4 0x77FA069C EQ PUSH2 0x29C JUMPI DUP1 PUSH4 0x7C1D6197 EQ PUSH2 0x2B8 JUMPI DUP1 PUSH4 0x8915FB0C EQ PUSH2 0x2D4 JUMPI PUSH2 0x116 JUMP JUMPDEST DUP1 PUSH4 0x2CE23ACB GT PUSH2 0xE9 JUMPI DUP1 PUSH4 0x2CE23ACB EQ PUSH2 0x1B3 JUMPI DUP1 PUSH4 0x34B52411 EQ PUSH2 0x1E5 JUMPI DUP1 PUSH4 0x369BA32B EQ PUSH2 0x201 JUMPI DUP1 PUSH4 0x3F2C0E96 EQ PUSH2 0x21D JUMPI DUP1 PUSH4 0x4D82D8E8 EQ PUSH2 0x239 JUMPI PUSH2 0x116 JUMP JUMPDEST DUP1 PUSH4 0xC60F83D EQ PUSH2 0x11B JUMPI DUP1 PUSH4 0x15101E02 EQ PUSH2 0x14B JUMPI DUP1 PUSH4 0x1BDD5A0F EQ PUSH2 0x17B JUMPI DUP1 PUSH4 0x2283DB9C EQ PUSH2 0x197 JUMPI JUMPDEST PUSH1 0x0 DUP1 REVERT JUMPDEST PUSH2 0x135 PUSH1 0x4 DUP1 CALLDATASIZE SUB DUP2 ADD SWAP1 PUSH2 0x130 SWAP2 SWAP1 PUSH2 0x767A JUMP JUMPDEST PUSH2 0x3A8 JUMP JUMPDEST PUSH1 0x40 MLOAD PUSH2 0x142 SWAP2 SWAP1 PUSH2 0x7809 JUMP JUMPDEST PUSH1 0x40 MLOAD DUP1 SWAP2 SUB SWAP1 RETURN JUMPDEST PUSH2 0x165 PUSH1 0x4 DUP1 CALLDATASIZE SUB DUP2 ADD SWAP1 PUSH2 0x160 SWAP2 SWAP1 PUSH2 0x767A JUMP JUMPDEST PUSH2 0x625 JUMP JUMPDEST PUSH1 0x40 MLOAD PUSH2 0x172 SWAP2 SWAP1 PUSH2 0x7956 JUMP JUMPDEST PUSH1 0x40 MLOAD DUP1 SWAP2 SUB SWAP1 RETURN JUMPDEST PUSH2 0x195 PUSH1 0x4 DUP1 CALLDATASIZE SUB DUP2 ADD SWAP1 PUSH2 0x190 SWAP2 SWAP1 PUSH2 0x7AAD JUMP JUMPDEST PUSH2 0x896 JUMP JUMPDEST STOP JUMPDEST PUSH2 0x1B1 PUSH1 0x4 DUP1 CALLDATASIZE SUB DUP2 ADD SWAP1 PUSH2 0x1AC SWAP2 SWAP1 PUSH2 0x7C58 JUMP JUMPDEST PUSH2 0xC86 JUMP JUMPDEST STOP JUMPDEST PUSH2 0x1CD PUSH1 0x4 DUP1 CALLDATASIZE SUB DUP2 ADD SWAP1 PUSH2 0x1C8 SWAP2 SWAP1 PUSH2 0x767A JUMP JUMPDEST PUSH2 0xF11 JUMP JUMPDEST PUSH1 0x40 MLOAD PUSH2 0x1DC SWAP4 SWAP3 SWAP2 SWAP1 PUSH2 0x7E42 JUMP JUMPDEST PUSH1 0x40 MLOAD DUP1 SWAP2 SUB SWAP1 RETURN JUMPDEST PUSH2 0x1FF PUSH1 0x4 DUP1 CALLDATASIZE SUB DUP2 ADD SWAP1 PUSH2 0x1FA SWAP2 SWAP1 PUSH2 0x7EB3 JUMP JUMPDEST PUSH2 0x198B JUMP JUMPDEST STOP JUMPDEST PUSH2 0x21B PUSH1 0x4 DUP1 CALLDATASIZE SUB DUP2 ADD SWAP1 PUSH2 0x216 SWAP2 SWAP1 PUSH2 0x7F22 JUMP JUMPDEST PUSH2 0x1F71 JUMP JUMPDEST STOP JUMPDEST PUSH2 0x237 PUSH1 0x4 DUP1 CALLDATASIZE SUB DUP2 ADD SWAP1 PUSH2 0x232 SWAP2 SWAP1 PUSH2 0x7AAD JUMP JUMPDEST PUSH2 0x20B1 JUMP JUMPDEST STOP JUMPDEST PUSH2 0x253 PUSH1 0x4 DUP1 CALLDATASIZE SUB DUP2 ADD SWAP1 PUSH2 0x24E SWAP2 SWAP1 PUSH2 0x7FD9 JUMP JUMPDEST PUSH2 0x2428 JUMP JUMPDEST PUSH1 0x40 MLOAD PUSH2 0x261 SWAP3 SWAP2 SWAP1 PUSH2 0x816E JUMP JUMPDEST PUSH1 0x40 MLOAD DUP1 SWAP2 SUB SWAP1 RETURN JUMPDEST PUSH2 0x284 PUSH1 0x4 DUP1 CALLDATASIZE SUB DUP2 ADD SWAP1 PUSH2 0x27F SWAP2 SWAP1 PUSH2 0x767A JUMP JUMPDEST PUSH2 0x24CE JUMP JUMPDEST PUSH1 0x40 MLOAD PUSH2 0x293 SWAP4 SWAP3 SWAP2 SWAP1 PUSH2 0x819E JUMP JUMPDEST PUSH1 0x40 MLOAD DUP1 SWAP2 SUB SWAP1 RETURN JUMPDEST PUSH2 0x2B6 PUSH1 0x4 DUP1 CALLDATASIZE SUB DUP2 ADD SWAP1 PUSH2 0x2B1 SWAP2 SWAP1 PUSH2 0x82EB JUMP JUMPDEST PUSH2 0x2EDA JUMP JUMPDEST STOP JUMPDEST PUSH2 0x2D2 PUSH1 0x4 DUP1 CALLDATASIZE SUB DUP2 ADD SWAP1 PUSH2 0x2CD SWAP2 SWAP1 PUSH2 0x8376 JUMP JUMPDEST PUSH2 0x377D JUMP JUMPDEST STOP JUMPDEST PUSH2 0x2EE PUSH1 0x4 DUP1 CALLDATASIZE SUB DUP2 ADD SWAP1 PUSH2 0x2E9 SWAP2 SWAP1 PUSH2 0x8401 JUMP JUMPDEST PUSH2 0x3A92 JUMP JUMPDEST STOP JUMPDEST PUSH2 0x30A PUSH1 0x4 DUP1 CALLDATASIZE SUB DUP2 ADD SWAP1 PUSH2 0x305 SWAP2 SWAP1 PUSH2 0x845D JUMP JUMPDEST PUSH2 0x3F29 JUMP JUMPDEST STOP JUMPDEST PUSH2 0x326 PUSH1 0x4 DUP1 CALLDATASIZE SUB DUP2 ADD SWAP1 PUSH2 0x321 SWAP2 SWAP1 PUSH2 0x7FD9 JUMP JUMPDEST PUSH2 0x4030 JUMP JUMPDEST PUSH1 0x40 MLOAD PUSH2 0x334 SWAP3 SWAP2 SWAP1 PUSH2 0x8655 JUMP JUMPDEST PUSH1 0x40 MLOAD DUP1 SWAP2 SUB SWAP1 RETURN JUMPDEST PUSH2 0x345 PUSH2 0x42A1 JUMP JUMPDEST PUSH1 0x40 MLOAD PUSH2 0x352 SWAP2 SWAP1 PUSH2 0x874A JUMP JUMPDEST PUSH1 0x40 MLOAD DUP1 SWAP2 SUB SWAP1 RETURN JUMPDEST PUSH2 0x375 PUSH1 0x4 DUP1 CALLDATASIZE SUB DUP2 ADD SWAP1 PUSH2 0x370 SWAP2 SWAP1 PUSH2 0x7FD9 JUMP JUMPDEST PUSH2 0x4628 JUMP JUMPDEST PUSH1 0x40 MLOAD PUSH2 0x383 SWAP3 SWAP2 SWAP1 PUSH2 0x8655 JUMP JUMPDEST PUSH1 0x40 MLOAD DUP1 SWAP2 SUB SWAP1 RETURN JUMPDEST PUSH2 0x3A6 PUSH1 0x4 DUP1 CALLDATASIZE SUB DUP2 ADD SWAP1 PUSH2 0x3A1 SWAP2 SWAP1 PUSH2 0x7EB3 JUMP JUMPDEST PUSH2 0x48A5 JUMP JUMPDEST STOP JUMPDEST PUSH2 0x3B0 PUSH2 0x7431 JUMP JUMPDEST DUP2 PUSH1 0x0 PUSH20 0xFFFFFFFFFFFFFFFFFFFFFFFFFFFFFFFFFFFFFFFF AND DUP2 PUSH20 0xFFFFFFFFFFFFFFFFFFFFFFFFFFFFFFFFFFFFFFFF AND SUB PUSH2 0x420 JUMPI PUSH1 0x40 MLOAD PUSH32 0x8C379A000000000000000000000000000000000000000000000000000000000 DUP2 MSTORE PUSH1 0x4 ADD PUSH2 0x417 SWAP1 PUSH2 0x87C9 JUMP JUMPDEST PUSH1 0x40 MLOAD DUP1 SWAP2 SUB SWAP1 REVERT JUMPDEST PUSH1 0x0 PUSH20 0xFFFFFFFFFFFFFFFFFFFFFFFFFFFFFFFFFFFFFFFF AND PUSH1 0x1 PUSH1 0x0 DUP4 PUSH20 0xFFFFFFFFFFFFFFFFFFFFFFFFFFFFFFFFFFFFFFFF AND PUSH20 0xFFFFFFFFFFFFFFFFFFFFFFFFFFFFFFFFFFFFFFFF AND DUP2 MSTORE PUSH1 0x20 ADD SWAP1 DUP2 MSTORE PUSH1 0x20 ADD PUSH1 0x0 KECCAK256 PUSH1 0x3 ADD PUSH1 0x0 SWAP1 SLOAD SWAP1 PUSH2 0x100 EXP SWAP1 DIV PUSH20 0xFFFFFFFFFFFFFFFFFFFFFFFFFFFFFFFFFFFFFFFF AND PUSH20 0xFFFFFFFFFFFFFFFFFFFFFFFFFFFFFFFFFFFFFFFF AND SUB PUSH2 0x4F1 JUMPI PUSH1 0x40 MLOAD PUSH32 0x8C379A000000000000000000000000000000000000000000000000000000000 DUP2 MSTORE PUSH1 0x4 ADD PUSH2 0x4E8 SWAP1 PUSH2 0x8835 JUMP JUMPDEST PUSH1 0x40 MLOAD DUP1 SWAP2 SUB SWAP1 REVERT JUMPDEST PUSH2 0x5D4 PUSH1 0x1 PUSH1 0x0 DUP4 PUSH20 0xFFFFFFFFFFFFFFFFFFFFFFFFFFFFFFFFFFFFFFFF AND PUSH20 0xFFFFFFFFFFFFFFFFFFFFFFFFFFFFFFFFFFFFFFFF AND DUP2 MSTORE PUSH1 0x20 ADD SWAP1 DUP2 MSTORE PUSH1 0x20 ADD PUSH1 0x0 KECCAK256 PUSH1 0x1 ADD DUP1 SLOAD PUSH2 0x541 SWAP1 PUSH2 0x8884 JUMP JUMPDEST DUP1 PUSH1 0x1F ADD PUSH1 0x20 DUP1 SWAP2 DIV MUL PUSH1 0x20 ADD PUSH1 0x40 MLOAD SWAP1 DUP2 ADD PUSH1 0x40 MSTORE DUP1 SWAP3 SWAP2 SWAP1 DUP2 DUP2 MSTORE PUSH1 0x20 ADD DUP3 DUP1 SLOAD PUSH2 0x56D SWAP1 PUSH2 0x8884 JUMP JUMPDEST DUP1 ISZERO PUSH2 0x5BA JUMPI DUP1 PUSH1 0x1F LT PUSH2 0x58F JUMPI PUSH2 0x100 DUP1 DUP4 SLOAD DIV MUL DUP4 MSTORE SWAP2 PUSH1 0x20 ADD SWAP2 PUSH2 0x5BA JUMP JUMPDEST DUP3 ADD SWAP2 SWAP1 PUSH1 0x0 MSTORE PUSH1 0x20 PUSH1 0x0 KECCAK256 SWAP1 JUMPDEST DUP2 SLOAD DUP2 MSTORE SWAP1 PUSH1 0x1 ADD SWAP1 PUSH1 0x20 ADD DUP1 DUP4 GT PUSH2 0x59D JUMPI DUP3 SWAP1 SUB PUSH1 0x1F AND DUP3 ADD SWAP2 JUMPDEST POP POP POP POP POP PUSH1 0x40 MLOAD DUP1 PUSH1 0x20 ADD PUSH1 0x40 MSTORE DUP1 PUSH1 0x0 DUP2 MSTORE POP PUSH2 0x4C38 JUMP JUMPDEST ISZERO PUSH2 0x614 JUMPI PUSH1 0x40 MLOAD PUSH32 0x8C379A000000000000000000000000000000000000000000000000000000000 DUP2 MSTORE PUSH1 0x4 ADD PUSH2 0x60B SWAP1 PUSH2 0x8901 JUMP JUMPDEST PUSH1 0x40 MLOAD DUP1 SWAP2 SUB SWAP1 REVERT JUMPDEST PUSH2 0x61D DUP4 PUSH2 0x4C91 JUMP JUMPDEST SWAP2 POP POP SWAP2 SWAP1 POP JUMP JUMPDEST PUSH2 0x62D PUSH2 0x749A JUMP JUMPDEST DUP2 PUSH1 0x0 PUSH20 0xFFFFFFFFFFFFFFFFFFFFFFFFFFFFFFFFFFFFFFFF AND PUSH1 0x3 PUSH1 0x0 DUP4 PUSH20 0xFFFFFFFFFFFFFFFFFFFFFFFFFFFFFFFFFFFFFFFF AND PUSH20 0xFFFFFFFFFFFFFFFFFFFFFFFFFFFFFFFFFFFFFFFF AND DUP2 MSTORE PUSH1 0x20 ADD SWAP1 DUP2 MSTORE PUSH1 0x20 ADD PUSH1 0x0 KECCAK256 PUSH1 0x2 ADD PUSH1 0x0 SWAP1 SLOAD SWAP1 PUSH2 0x100 EXP SWAP1 DIV PUSH20 0xFFFFFFFFFFFFFFFFFFFFFFFFFFFFFFFFFFFFFFFF AND PUSH20 0xFFFFFFFFFFFFFFFFFFFFFFFFFFFFFFFFFFFFFFFF AND SUB PUSH2 0x6FF JUMPI PUSH1 0x40 MLOAD PUSH32 0x8C379A000000000000000000000000000000000000000000000000000000000 DUP2 MSTORE PUSH1 0x4 ADD PUSH2 0x6F6 SWAP1 PUSH2 0x896D JUMP JUMPDEST PUSH1 0x40 MLOAD DUP1 SWAP2 SUB SWAP1 REVERT JUMPDEST DUP1 PUSH20 0xFFFFFFFFFFFFFFFFFFFFFFFFFFFFFFFFFFFFFFFF AND PUSH1 0x3 PUSH1 0x0 DUP4 PUSH20 0xFFFFFFFFFFFFFFFFFFFFFFFFFFFFFFFFFFFFFFFF AND PUSH20 0xFFFFFFFFFFFFFFFFFFFFFFFFFFFFFFFFFFFFFFFF AND DUP2 MSTORE PUSH1 0x20 ADD SWAP1 DUP2 MSTORE PUSH1 0x20 ADD PUSH1 0x0 KECCAK256 PUSH1 0x2 ADD PUSH1 0x0 SWAP1 SLOAD SWAP1 PUSH2 0x100 EXP SWAP1 DIV PUSH20 0xFFFFFFFFFFFFFFFFFFFFFFFFFFFFFFFFFFFFFFFF AND PUSH20 0xFFFFFFFFFFFFFFFFFFFFFFFFFFFFFFFFFFFFFFFF AND EQ PUSH2 0x7CF JUMPI PUSH1 0x40 MLOAD PUSH32 0x8C379A000000000000000000000000000000000000000000000000000000000 DUP2 MSTORE PUSH1 0x4 ADD PUSH2 0x7C6 SWAP1 PUSH2 0x896D JUMP JUMPDEST PUSH1 0x40 MLOAD DUP1 SWAP2 SUB SWAP1 REVERT JUMPDEST PUSH1 0x0 PUSH1 0x1 DUP2 GT ISZERO PUSH2 0x7E3 JUMPI PUSH2 0x7E2 PUSH2 0x7848 JUMP JUMPDEST JUMPDEST PUSH1 0x3 PUSH1 0x0 DUP4 PUSH20 0xFFFFFFFFFFFFFFFFFFFFFFFFFFFFFFFFFFFFFFFF AND PUSH20 0xFFFFFFFFFFFFFFFFFFFFFFFFFFFFFFFFFFFFFFFF AND DUP2 MSTORE PUSH1 0x20 ADD SWAP1 DUP2 MSTORE PUSH1 0x20 ADD PUSH1 0x0 KECCAK256 PUSH1 0x4 ADD PUSH1 0x2 SWAP1 SLOAD SWAP1 PUSH2 0x100 EXP SWAP1 DIV PUSH1 0xFF AND PUSH1 0x1 DUP2 GT ISZERO PUSH2 0x845 JUMPI PUSH2 0x844 PUSH2 0x7848 JUMP JUMPDEST JUMPDEST EQ PUSH2 0x885 JUMPI PUSH1 0x40 MLOAD PUSH32 0x8C379A000000000000000000000000000000000000000000000000000000000 DUP2 MSTORE PUSH1 0x4 ADD PUSH2 0x87C SWAP1 PUSH2 0x89D9 JUMP JUMPDEST PUSH1 0x40 MLOAD DUP1 SWAP2 SUB SWAP1 REVERT JUMPDEST PUSH2 0x88E DUP4 PUSH2 0x4F60 JUMP JUMPDEST SWAP2 POP POP SWAP2 SWAP1 POP JUMP JUMPDEST CALLER PUSH1 0x0 PUSH20 0xFFFFFFFFFFFFFFFFFFFFFFFFFFFFFFFFFFFFFFFF AND PUSH1 0x3 PUSH1 0x0 DUP4 PUSH20 0xFFFFFFFFFFFFFFFFFFFFFFFFFFFFFFFFFFFFFFFF AND PUSH20 0xFFFFFFFFFFFFFFFFFFFFFFFFFFFFFFFFFFFFFFFF AND DUP2 MSTORE PUSH1 0x20 ADD SWAP1 DUP2 MSTORE PUSH1 0x20 ADD PUSH1 0x0 KECCAK256 PUSH1 0x2 ADD PUSH1 0x0 SWAP1 SLOAD SWAP1 PUSH2 0x100 EXP SWAP1 DIV PUSH20 0xFFFFFFFFFFFFFFFFFFFFFFFFFFFFFFFFFFFFFFFF AND PUSH20 0xFFFFFFFFFFFFFFFFFFFFFFFFFFFFFFFFFFFFFFFF AND SUB PUSH2 0x968 JUMPI PUSH1 0x40 MLOAD PUSH32 0x8C379A000000000000000000000000000000000000000000000000000000000 DUP2 MSTORE PUSH1 0x4 ADD PUSH2 0x95F SWAP1 PUSH2 0x896D JUMP JUMPDEST PUSH1 0x40 MLOAD DUP1 SWAP2 SUB SWAP1 REVERT JUMPDEST DUP1 PUSH20 0xFFFFFFFFFFFFFFFFFFFFFFFFFFFFFFFFFFFFFFFF AND PUSH1 0x3 PUSH1 0x0 DUP4 PUSH20 0xFFFFFFFFFFFFFFFFFFFFFFFFFFFFFFFFFFFFFFFF AND PUSH20 0xFFFFFFFFFFFFFFFFFFFFFFFFFFFFFFFFFFFFFFFF AND DUP2 MSTORE PUSH1 0x20 ADD SWAP1 DUP2 MSTORE PUSH1 0x20 ADD PUSH1 0x0 KECCAK256 PUSH1 0x2 ADD PUSH1 0x0 SWAP1 SLOAD SWAP1 PUSH2 0x100 EXP SWAP1 DIV PUSH20 0xFFFFFFFFFFFFFFFFFFFFFFFFFFFFFFFFFFFFFFFF AND PUSH20 0xFFFFFFFFFFFFFFFFFFFFFFFFFFFFFFFFFFFFFFFF AND EQ PUSH2 0xA38 JUMPI PUSH1 0x40 MLOAD PUSH32 0x8C379A000000000000000000000000000000000000000000000000000000000 DUP2 MSTORE PUSH1 0x4 ADD PUSH2 0xA2F SWAP1 PUSH2 0x896D JUMP JUMPDEST PUSH1 0x40 MLOAD DUP1 SWAP2 SUB SWAP1 REVERT JUMPDEST PUSH1 0x0 PUSH1 0x1 DUP2 GT ISZERO PUSH2 0xA4C JUMPI PUSH2 0xA4B PUSH2 0x7848 JUMP JUMPDEST JUMPDEST PUSH1 0x3 PUSH1 0x0 DUP4 PUSH20 0xFFFFFFFFFFFFFFFFFFFFFFFFFFFFFFFFFFFFFFFF AND PUSH20 0xFFFFFFFFFFFFFFFFFFFFFFFFFFFFFFFFFFFFFFFF AND DUP2 MSTORE PUSH1 0x20 ADD SWAP1 DUP2 MSTORE PUSH1 0x20 ADD PUSH1 0x0 KECCAK256 PUSH1 0x4 ADD PUSH1 0x2 SWAP1 SLOAD SWAP1 PUSH2 0x100 EXP SWAP1 DIV PUSH1 0xFF AND PUSH1 0x1 DUP2 GT ISZERO PUSH2 0xAAE JUMPI PUSH2 0xAAD PUSH2 0x7848 JUMP JUMPDEST JUMPDEST EQ PUSH2 0xAEE JUMPI PUSH1 0x40 MLOAD PUSH32 0x8C379A000000000000000000000000000000000000000000000000000000000 DUP2 MSTORE PUSH1 0x4 ADD PUSH2 0xAE5 SWAP1 PUSH2 0x89D9 JUMP JUMPDEST PUSH1 0x40 MLOAD DUP1 SWAP2 SUB SWAP1 REVERT JUMPDEST PUSH1 0x0 PUSH2 0xAFA CALLER DUP6 PUSH2 0x528F JUMP JUMPDEST SWAP1 POP PUSH2 0xB05 DUP2 PUSH2 0x52BB JUMP JUMPDEST PUSH2 0xB44 JUMPI PUSH1 0x40 MLOAD PUSH32 0x8C379A000000000000000000000000000000000000000000000000000000000 DUP2 MSTORE PUSH1 0x4 ADD PUSH2 0xB3B SWAP1 PUSH2 0x8A45 JUMP JUMPDEST PUSH1 0x40 MLOAD DUP1 SWAP2 SUB SWAP1 REVERT JUMPDEST PUSH2 0xB4D DUP5 PUSH2 0x53D0 JUMP JUMPDEST PUSH2 0xB8C JUMPI PUSH1 0x40 MLOAD PUSH32 0x8C379A000000000000000000000000000000000000000000000000000000000 DUP2 MSTORE PUSH1 0x4 ADD PUSH2 0xB83 SWAP1 PUSH2 0x8AB1 JUMP JUMPDEST PUSH1 0x40 MLOAD DUP1 SWAP2 SUB SWAP1 REVERT JUMPDEST PUSH1 0x0 PUSH1 0x7 DUP3 PUSH1 0x40 MLOAD PUSH2 0xB9E SWAP2 SWAP1 PUSH2 0x8B0D JUMP JUMPDEST SWAP1 DUP2 MSTORE PUSH1 0x20 ADD PUSH1 0x40 MLOAD DUP1 SWAP2 SUB SWAP1 KECCAK256 PUSH1 0x7 ADD PUSH1 0x1 PUSH2 0x100 EXP DUP2 SLOAD DUP2 PUSH1 0xFF MUL NOT AND SWAP1 DUP4 PUSH1 0x2 DUP2 GT ISZERO PUSH2 0xBD1 JUMPI PUSH2 0xBD0 PUSH2 0x7848 JUMP JUMPDEST JUMPDEST MUL OR SWAP1 SSTORE POP DUP3 PUSH1 0x7 DUP3 PUSH1 0x40 MLOAD PUSH2 0xBE7 SWAP2 SWAP1 PUSH2 0x8B0D JUMP JUMPDEST SWAP1 DUP2 MSTORE PUSH1 0x20 ADD PUSH1 0x40 MLOAD DUP1 SWAP2 SUB SWAP1 KECCAK256 PUSH1 0x8 ADD SWAP1 DUP2 PUSH2 0xC04 SWAP2 SWAP1 PUSH2 0x8CD0 JUMP JUMPDEST POP PUSH32 0x524A348EAA0159A5BD9D05667FE8D01E3FEF50369AE5F27C2ADE107C84BFEAF7 DUP2 PUSH1 0x7 DUP4 PUSH1 0x40 MLOAD PUSH2 0xC37 SWAP2 SWAP1 PUSH2 0x8B0D JUMP JUMPDEST SWAP1 DUP2 MSTORE PUSH1 0x20 ADD PUSH1 0x40 MLOAD DUP1 SWAP2 SUB SWAP1 KECCAK256 PUSH1 0x4 ADD PUSH1 0x7 DUP5 PUSH1 0x40 MLOAD PUSH2 0xC58 SWAP2 SWAP1 PUSH2 0x8B0D JUMP JUMPDEST SWAP1 DUP2 MSTORE PUSH1 0x20 ADD PUSH1 0x40 MLOAD DUP1 SWAP2 SUB SWAP1 KECCAK256 PUSH1 0x2 ADD PUSH1 0x40 MLOAD PUSH2 0xC78 SWAP4 SWAP3 SWAP2 SWAP1 PUSH2 0x8E5F JUMP JUMPDEST PUSH1 0x40 MLOAD DUP1 SWAP2 SUB SWAP1 LOG1 POP POP POP POP JUMP JUMPDEST PUSH1 0x4 PUSH1 0x0 SWAP1 SLOAD SWAP1 PUSH2 0x100 EXP SWAP1 DIV PUSH20 0xFFFFFFFFFFFFFFFFFFFFFFFFFFFFFFFFFFFFFFFF AND PUSH20 0xFFFFFFFFFFFFFFFFFFFFFFFFFFFFFFFFFFFFFFFF AND CALLER PUSH20 0xFFFFFFFFFFFFFFFFFFFFFFFFFFFFFFFFFFFFFFFF AND EQ PUSH2 0xD16 JUMPI PUSH1 0x40 MLOAD PUSH32 0x8C379A000000000000000000000000000000000000000000000000000000000 DUP2 MSTORE PUSH1 0x4 ADD PUSH2 0xD0D SWAP1 PUSH2 0x8EF7 JUMP JUMPDEST PUSH1 0x40 MLOAD DUP1 SWAP2 SUB SWAP1 REVERT JUMPDEST PUSH2 0xD1F DUP2 PUSH2 0x55CE JUMP JUMPDEST PUSH1 0x40 MLOAD DUP1 PUSH1 0xA0 ADD PUSH1 0x40 MSTORE DUP1 DUP3 PUSH1 0x0 ADD MLOAD DUP2 MSTORE PUSH1 0x20 ADD DUP3 PUSH1 0x20 ADD MLOAD DUP2 MSTORE PUSH1 0x20 ADD DUP3 PUSH1 0x40 ADD MLOAD PUSH20 0xFFFFFFFFFFFFFFFFFFFFFFFFFFFFFFFFFFFFFFFF AND DUP2 MSTORE PUSH1 0x20 ADD PUSH1 0x1 PUSH1 0x2 DUP2 GT ISZERO PUSH2 0xD72 JUMPI PUSH2 0xD71 PUSH2 0x7848 JUMP JUMPDEST JUMPDEST DUP2 MSTORE PUSH1 0x20 ADD PUSH1 0x0 PUSH1 0x1 DUP2 GT ISZERO PUSH2 0xD8B JUMPI PUSH2 0xD8A PUSH2 0x7848 JUMP JUMPDEST JUMPDEST DUP2 MSTORE POP PUSH1 0x6 PUSH1 0x0 DUP4 PUSH1 0x40 ADD MLOAD PUSH20 0xFFFFFFFFFFFFFFFFFFFFFFFFFFFFFFFFFFFFFFFF AND PUSH20 0xFFFFFFFFFFFFFFFFFFFFFFFFFFFFFFFFFFFFFFFF AND DUP2 MSTORE PUSH1 0x20 ADD SWAP1 DUP2 MSTORE PUSH1 0x20 ADD PUSH1 0x0 KECCAK256 PUSH1 0x0 DUP3 ADD MLOAD DUP2 PUSH1 0x0 ADD SWAP1 DUP2 PUSH2 0xDE6 SWAP2 SWAP1 PUSH2 0x8CD0 JUMP JUMPDEST POP PUSH1 0x20 DUP3 ADD MLOAD DUP2 PUSH1 0x1 ADD SWAP1 DUP2 PUSH2 0xDFC SWAP2 SWAP1 PUSH2 0x8CD0 JUMP JUMPDEST POP PUSH1 0x40 DUP3 ADD MLOAD DUP2 PUSH1 0x2 ADD PUSH1 0x0 PUSH2 0x100 EXP DUP2 SLOAD DUP2 PUSH20 0xFFFFFFFFFFFFFFFFFFFFFFFFFFFFFFFFFFFFFFFF MUL NOT AND SWAP1 DUP4 PUSH20 0xFFFFFFFFFFFFFFFFFFFFFFFFFFFFFFFFFFFFFFFF AND MUL OR SWAP1 SSTORE POP PUSH1 0x60 DUP3 ADD MLOAD DUP2 PUSH1 0x2 ADD PUSH1 0x14 PUSH2 0x100 EXP DUP2 SLOAD DUP2 PUSH1 0xFF MUL NOT AND SWAP1 DUP4 PUSH1 0x2 DUP2 GT ISZERO PUSH2 0xE6F JUMPI PUSH2 0xE6E PUSH2 0x7848 JUMP JUMPDEST JUMPDEST MUL OR SWAP1 SSTORE POP PUSH1 0x80 DUP3 ADD MLOAD DUP2 PUSH1 0x2 ADD PUSH1 0x15 PUSH2 0x100 EXP DUP2 SLOAD DUP2 PUSH1 0xFF MUL NOT AND SWAP1 DUP4 PUSH1 0x1 DUP2 GT ISZERO PUSH2 0xE9F JUMPI PUSH2 0xE9E PUSH2 0x7848 JUMP JUMPDEST JUMPDEST MUL OR SWAP1 SSTORE POP SWAP1 POP POP PUSH1 0x5 DUP2 PUSH1 0x40 ADD MLOAD SWAP1 DUP1 PUSH1 0x1 DUP2 SLOAD ADD DUP1 DUP3 SSTORE DUP1 SWAP2 POP POP PUSH1 0x1 SWAP1 SUB SWAP1 PUSH1 0x0 MSTORE PUSH1 0x20 PUSH1 0x0 KECCAK256 ADD PUSH1 0x0 SWAP1 SWAP2 SWAP1 SWAP2 SWAP1 SWAP2 PUSH2 0x100 EXP DUP2 SLOAD DUP2 PUSH20 0xFFFFFFFFFFFFFFFFFFFFFFFFFFFFFFFFFFFFFFFF MUL NOT AND SWAP1 DUP4 PUSH20 0xFFFFFFFFFFFFFFFFFFFFFFFFFFFFFFFFFFFFFFFF AND MUL OR SWAP1 SSTORE POP POP JUMP JUMPDEST PUSH1 0x0 PUSH2 0xF1B PUSH2 0x749A JUMP JUMPDEST PUSH2 0xF23 PUSH2 0x74FC JUMP JUMPDEST CALLER PUSH1 0x0 PUSH20 0xFFFFFFFFFFFFFFFFFFFFFFFFFFFFFFFFFFFFFFFF AND DUP2 PUSH20 0xFFFFFFFFFFFFFFFFFFFFFFFFFFFFFFFFFFFFFFFF AND SUB PUSH2 0xF93 JUMPI PUSH1 0x40 MLOAD PUSH32 0x8C379A000000000000000000000000000000000000000000000000000000000 DUP2 MSTORE PUSH1 0x4 ADD PUSH2 0xF8A SWAP1 PUSH2 0x87C9 JUMP JUMPDEST PUSH1 0x40 MLOAD DUP1 SWAP2 SUB SWAP1 REVERT JUMPDEST PUSH1 0x0 PUSH20 0xFFFFFFFFFFFFFFFFFFFFFFFFFFFFFFFFFFFFFFFF AND PUSH1 0x1 PUSH1 0x0 DUP4 PUSH20 0xFFFFFFFFFFFFFFFFFFFFFFFFFFFFFFFFFFFFFFFF AND PUSH20 0xFFFFFFFFFFFFFFFFFFFFFFFFFFFFFFFFFFFFFFFF AND DUP2 MSTORE PUSH1 0x20 ADD SWAP1 DUP2 MSTORE PUSH1 0x20 ADD PUSH1 0x0 KECCAK256 PUSH1 0x3 ADD PUSH1 0x0 SWAP1 SLOAD SWAP1 PUSH2 0x100 EXP SWAP1 DIV PUSH20 0xFFFFFFFFFFFFFFFFFFFFFFFFFFFFFFFFFFFFFFFF AND PUSH20 0xFFFFFFFFFFFFFFFFFFFFFFFFFFFFFFFFFFFFFFFF AND SUB PUSH2 0x1064 JUMPI PUSH1 0x40 MLOAD PUSH32 0x8C379A000000000000000000000000000000000000000000000000000000000 DUP2 MSTORE PUSH1 0x4 ADD PUSH2 0x105B SWAP1 PUSH2 0x8835 JUMP JUMPDEST PUSH1 0x40 MLOAD DUP1 SWAP2 SUB SWAP1 REVERT JUMPDEST PUSH2 0x1147 PUSH1 0x1 PUSH1 0x0 DUP4 PUSH20 0xFFFFFFFFFFFFFFFFFFFFFFFFFFFFFFFFFFFFFFFF AND PUSH20 0xFFFFFFFFFFFFFFFFFFFFFFFFFFFFFFFFFFFFFFFF AND DUP2 MSTORE PUSH1 0x20 ADD SWAP1 DUP2 MSTORE PUSH1 0x20 ADD PUSH1 0x0 KECCAK256 PUSH1 0x1 ADD DUP1 SLOAD PUSH2 0x10B4 SWAP1 PUSH2 0x8884 JUMP JUMPDEST DUP1 PUSH1 0x1F ADD PUSH1 0x20 DUP1 SWAP2 DIV MUL PUSH1 0x20 ADD PUSH1 0x40 MLOAD SWAP1 DUP2 ADD PUSH1 0x40 MSTORE DUP1 SWAP3 SWAP2 SWAP1 DUP2 DUP2 MSTORE PUSH1 0x20 ADD DUP3 DUP1 SLOAD PUSH2 0x10E0 SWAP1 PUSH2 0x8884 JUMP JUMPDEST DUP1 ISZERO PUSH2 0x112D JUMPI DUP1 PUSH1 0x1F LT PUSH2 0x1102 JUMPI PUSH2 0x100 DUP1 DUP4 SLOAD DIV MUL DUP4 MSTORE SWAP2 PUSH1 0x20 ADD SWAP2 PUSH2 0x112D JUMP JUMPDEST DUP3 ADD SWAP2 SWAP1 PUSH1 0x0 MSTORE PUSH1 0x20 PUSH1 0x0 KECCAK256 SWAP1 JUMPDEST DUP2 SLOAD DUP2 MSTORE SWAP1 PUSH1 0x1 ADD SWAP1 PUSH1 0x20 ADD DUP1 DUP4 GT PUSH2 0x1110 JUMPI DUP3 SWAP1 SUB PUSH1 0x1F AND DUP3 ADD SWAP2 JUMPDEST POP POP POP POP POP PUSH1 0x40 MLOAD DUP1 PUSH1 0x20 ADD PUSH1 0x40 MSTORE DUP1 PUSH1 0x0 DUP2 MSTORE POP PUSH2 0x4C38 JUMP JUMPDEST ISZERO PUSH2 0x1187 JUMPI PUSH1 0x40 MLOAD PUSH32 0x8C379A000000000000000000000000000000000000000000000000000000000 DUP2 MSTORE PUSH1 0x4 ADD PUSH2 0x117E SWAP1 PUSH2 0x8901 JUMP JUMPDEST PUSH1 0x40 MLOAD DUP1 SWAP2 SUB SWAP1 REVERT JUMPDEST DUP5 PUSH1 0x0 PUSH20 0xFFFFFFFFFFFFFFFFFFFFFFFFFFFFFFFFFFFFFFFF AND PUSH1 0x3 PUSH1 0x0 DUP4 PUSH20 0xFFFFFFFFFFFFFFFFFFFFFFFFFFFFFFFFFFFFFFFF AND PUSH20 0xFFFFFFFFFFFFFFFFFFFFFFFFFFFFFFFFFFFFFFFF AND DUP2 MSTORE PUSH1 0x20 ADD SWAP1 DUP2 MSTORE PUSH1 0x20 ADD PUSH1 0x0 KECCAK256 PUSH1 0x2 ADD PUSH1 0x0 SWAP1 SLOAD SWAP1 PUSH2 0x100 EXP SWAP1 DIV PUSH20 0xFFFFFFFFFFFFFFFFFFFFFFFFFFFFFFFFFFFFFFFF AND PUSH20 0xFFFFFFFFFFFFFFFFFFFFFFFFFFFFFFFFFFFFFFFF AND SUB PUSH2 0x1259 JUMPI PUSH1 0x40 MLOAD PUSH32 0x8C379A000000000000000000000000000000000000000000000000000000000 DUP2 MSTORE PUSH1 0x4 ADD PUSH2 0x1250 SWAP1 PUSH2 0x896D JUMP JUMPDEST PUSH1 0x40 MLOAD DUP1 SWAP2 SUB SWAP1 REVERT JUMPDEST DUP1 PUSH20 0xFFFFFFFFFFFFFFFFFFFFFFFFFFFFFFFFFFFFFFFF AND PUSH1 0x3 PUSH1 0x0 DUP4 PUSH20 0xFFFFFFFFFFFFFFFFFFFFFFFFFFFFFFFFFFFFFFFF AND PUSH20 0xFFFFFFFFFFFFFFFFFFFFFFFFFFFFFFFFFFFFFFFF AND DUP2 MSTORE PUSH1 0x20 ADD SWAP1 DUP2 MSTORE PUSH1 0x20 ADD PUSH1 0x0 KECCAK256 PUSH1 0x2 ADD PUSH1 0x0 SWAP1 SLOAD SWAP1 PUSH2 0x100 EXP SWAP1 DIV PUSH20 0xFFFFFFFFFFFFFFFFFFFFFFFFFFFFFFFFFFFFFFFF AND PUSH20 0xFFFFFFFFFFFFFFFFFFFFFFFFFFFFFFFFFFFFFFFF AND EQ PUSH2 0x1329 JUMPI PUSH1 0x40 MLOAD PUSH32 0x8C379A000000000000000000000000000000000000000000000000000000000 DUP2 MSTORE PUSH1 0x4 ADD PUSH2 0x1320 SWAP1 PUSH2 0x896D JUMP JUMPDEST PUSH1 0x40 MLOAD DUP1 SWAP2 SUB SWAP1 REVERT JUMPDEST PUSH1 0x0 PUSH1 0x1 DUP2 GT ISZERO PUSH2 0x133D JUMPI PUSH2 0x133C PUSH2 0x7848 JUMP JUMPDEST JUMPDEST PUSH1 0x3 PUSH1 0x0 DUP4 PUSH20 0xFFFFFFFFFFFFFFFFFFFFFFFFFFFFFFFFFFFFFFFF AND PUSH20 0xFFFFFFFFFFFFFFFFFFFFFFFFFFFFFFFFFFFFFFFF AND DUP2 MSTORE PUSH1 0x20 ADD SWAP1 DUP2 MSTORE PUSH1 0x20 ADD PUSH1 0x0 KECCAK256 PUSH1 0x4 ADD PUSH1 0x2 SWAP1 SLOAD SWAP1 PUSH2 0x100 EXP SWAP1 DIV PUSH1 0xFF AND PUSH1 0x1 DUP2 GT ISZERO PUSH2 0x139F JUMPI PUSH2 0x139E PUSH2 0x7848 JUMP JUMPDEST JUMPDEST EQ PUSH2 0x13DF JUMPI PUSH1 0x40 MLOAD PUSH32 0x8C379A000000000000000000000000000000000000000000000000000000000 DUP2 MSTORE PUSH1 0x4 ADD PUSH2 0x13D6 SWAP1 PUSH2 0x89D9 JUMP JUMPDEST PUSH1 0x40 MLOAD DUP1 SWAP2 SUB SWAP1 REVERT JUMPDEST PUSH1 0x0 PUSH2 0x13E9 PUSH2 0x749A JUMP JUMPDEST PUSH2 0x13F1 PUSH2 0x74FC JUMP JUMPDEST PUSH1 0x0 PUSH1 0x9 PUSH1 0x0 CALLER PUSH20 0xFFFFFFFFFFFFFFFFFFFFFFFFFFFFFFFFFFFFFFFF AND PUSH20 0xFFFFFFFFFFFFFFFFFFFFFFFFFFFFFFFFFFFFFFFF AND DUP2 MSTORE PUSH1 0x20 ADD SWAP1 DUP2 MSTORE PUSH1 0x20 ADD PUSH1 0x0 KECCAK256 DUP1 SLOAD DUP1 PUSH1 0x20 MUL PUSH1 0x20 ADD PUSH1 0x40 MLOAD SWAP1 DUP2 ADD PUSH1 0x40 MSTORE DUP1 SWAP3 SWAP2 SWAP1 DUP2 DUP2 MSTORE PUSH1 0x20 ADD DUP3 DUP1 SLOAD DUP1 ISZERO PUSH2 0x14B2 JUMPI PUSH1 0x20 MUL DUP3 ADD SWAP2 SWAP1 PUSH1 0x0 MSTORE PUSH1 0x20 PUSH1 0x0 KECCAK256 SWAP1 JUMPDEST DUP2 PUSH1 0x0 SWAP1 SLOAD SWAP1 PUSH2 0x100 EXP SWAP1 DIV PUSH20 0xFFFFFFFFFFFFFFFFFFFFFFFFFFFFFFFFFFFFFFFF AND PUSH20 0xFFFFFFFFFFFFFFFFFFFFFFFFFFFFFFFFFFFFFFFF AND DUP2 MSTORE PUSH1 0x20 ADD SWAP1 PUSH1 0x1 ADD SWAP1 DUP1 DUP4 GT PUSH2 0x1468 JUMPI JUMPDEST POP POP POP POP POP SWAP1 POP PUSH1 0x0 JUMPDEST DUP2 MLOAD DUP2 LT ISZERO PUSH2 0x1974 JUMPI DUP11 PUSH20 0xFFFFFFFFFFFFFFFFFFFFFFFFFFFFFFFFFFFFFFFF AND DUP3 DUP3 DUP2 MLOAD DUP2 LT PUSH2 0x14EF JUMPI PUSH2 0x14EE PUSH2 0x8F17 JUMP JUMPDEST JUMPDEST PUSH1 0x20 MUL PUSH1 0x20 ADD ADD MLOAD PUSH20 0xFFFFFFFFFFFFFFFFFFFFFFFFFFFFFFFFFFFFFFFF AND SUB PUSH2 0x1961 JUMPI PUSH1 0x1 SWAP5 POP PUSH2 0x151F DUP12 PUSH2 0x4F60 JUMP JUMPDEST SWAP4 POP PUSH1 0x7 PUSH2 0x152D DUP13 CALLER PUSH2 0x528F JUMP JUMPDEST PUSH1 0x40 MLOAD PUSH2 0x153A SWAP2 SWAP1 PUSH2 0x8B0D JUMP JUMPDEST SWAP1 DUP2 MSTORE PUSH1 0x20 ADD PUSH1 0x40 MLOAD DUP1 SWAP2 SUB SWAP1 KECCAK256 PUSH1 0x40 MLOAD DUP1 PUSH2 0x140 ADD PUSH1 0x40 MSTORE SWAP1 DUP2 PUSH1 0x0 DUP3 ADD DUP1 SLOAD PUSH2 0x1564 SWAP1 PUSH2 0x8884 JUMP JUMPDEST DUP1 PUSH1 0x1F ADD PUSH1 0x20 DUP1 SWAP2 DIV MUL PUSH1 0x20 ADD PUSH1 0x40 MLOAD SWAP1 DUP2 ADD PUSH1 0x40 MSTORE DUP1 SWAP3 SWAP2 SWAP1 DUP2 DUP2 MSTORE PUSH1 0x20 ADD DUP3 DUP1 SLOAD PUSH2 0x1590 SWAP1 PUSH2 0x8884 JUMP JUMPDEST DUP1 ISZERO PUSH2 0x15DD JUMPI DUP1 PUSH1 0x1F LT PUSH2 0x15B2 JUMPI PUSH2 0x100 DUP1 DUP4 SLOAD DIV MUL DUP4 MSTORE SWAP2 PUSH1 0x20 ADD SWAP2 PUSH2 0x15DD JUMP JUMPDEST DUP3 ADD SWAP2 SWAP1 PUSH1 0x0 MSTORE PUSH1 0x20 PUSH1 0x0 KECCAK256 SWAP1 JUMPDEST DUP2 SLOAD DUP2 MSTORE SWAP1 PUSH1 0x1 ADD SWAP1 PUSH1 0x20 ADD DUP1 DUP4 GT PUSH2 0x15C0 JUMPI DUP3 SWAP1 SUB PUSH1 0x1F AND DUP3 ADD SWAP2 JUMPDEST POP POP POP POP POP DUP2 MSTORE PUSH1 0x20 ADD PUSH1 0x1 DUP3 ADD PUSH1 0x0 SWAP1 SLOAD SWAP1 PUSH2 0x100 EXP SWAP1 DIV PUSH20 0xFFFFFFFFFFFFFFFFFFFFFFFFFFFFFFFFFFFFFFFF AND PUSH20 0xFFFFFFFFFFFFFFFFFFFFFFFFFFFFFFFFFFFFFFFF AND PUSH20 0xFFFFFFFFFFFFFFFFFFFFFFFFFFFFFFFFFFFFFFFF AND DUP2 MSTORE PUSH1 0x20 ADD PUSH1 0x2 DUP3 ADD DUP1 SLOAD PUSH2 0x164C SWAP1 PUSH2 0x8884 JUMP JUMPDEST DUP1 PUSH1 0x1F ADD PUSH1 0x20 DUP1 SWAP2 DIV MUL PUSH1 0x20 ADD PUSH1 0x40 MLOAD SWAP1 DUP2 ADD PUSH1 0x40 MSTORE DUP1 SWAP3 SWAP2 SWAP1 DUP2 DUP2 MSTORE PUSH1 0x20 ADD DUP3 DUP1 SLOAD PUSH2 0x1678 SWAP1 PUSH2 0x8884 JUMP JUMPDEST DUP1 ISZERO PUSH2 0x16C5 JUMPI DUP1 PUSH1 0x1F LT PUSH2 0x169A JUMPI PUSH2 0x100 DUP1 DUP4 SLOAD DIV MUL DUP4 MSTORE SWAP2 PUSH1 0x20 ADD SWAP2 PUSH2 0x16C5 JUMP JUMPDEST DUP3 ADD SWAP2 SWAP1 PUSH1 0x0 MSTORE PUSH1 0x20 PUSH1 0x0 KECCAK256 SWAP1 JUMPDEST DUP2 SLOAD DUP2 MSTORE SWAP1 PUSH1 0x1 ADD SWAP1 PUSH1 0x20 ADD DUP1 DUP4 GT PUSH2 0x16A8 JUMPI DUP3 SWAP1 SUB PUSH1 0x1F AND DUP3 ADD SWAP2 JUMPDEST POP POP POP POP POP DUP2 MSTORE PUSH1 0x20 ADD PUSH1 0x3 DUP3 ADD PUSH1 0x0 SWAP1 SLOAD SWAP1 PUSH2 0x100 EXP SWAP1 DIV PUSH20 0xFFFFFFFFFFFFFFFFFFFFFFFFFFFFFFFFFFFFFFFF AND PUSH20 0xFFFFFFFFFFFFFFFFFFFFFFFFFFFFFFFFFFFFFFFF AND PUSH20 0xFFFFFFFFFFFFFFFFFFFFFFFFFFFFFFFFFFFFFFFF AND DUP2 MSTORE PUSH1 0x20 ADD PUSH1 0x4 DUP3 ADD DUP1 SLOAD PUSH2 0x1734 SWAP1 PUSH2 0x8884 JUMP JUMPDEST DUP1 PUSH1 0x1F ADD PUSH1 0x20 DUP1 SWAP2 DIV MUL PUSH1 0x20 ADD PUSH1 0x40 MLOAD SWAP1 DUP2 ADD PUSH1 0x40 MSTORE DUP1 SWAP3 SWAP2 SWAP1 DUP2 DUP2 MSTORE PUSH1 0x20 ADD DUP3 DUP1 SLOAD PUSH2 0x1760 SWAP1 PUSH2 0x8884 JUMP JUMPDEST DUP1 ISZERO PUSH2 0x17AD JUMPI DUP1 PUSH1 0x1F LT PUSH2 0x1782 JUMPI PUSH2 0x100 DUP1 DUP4 SLOAD DIV MUL DUP4 MSTORE SWAP2 PUSH1 0x20 ADD SWAP2 PUSH2 0x17AD JUMP JUMPDEST DUP3 ADD SWAP2 SWAP1 PUSH1 0x0 MSTORE PUSH1 0x20 PUSH1 0x0 KECCAK256 SWAP1 JUMPDEST DUP2 SLOAD DUP2 MSTORE SWAP1 PUSH1 0x1 ADD SWAP1 PUSH1 0x20 ADD DUP1 DUP4 GT PUSH2 0x1790 JUMPI DUP3 SWAP1 SUB PUSH1 0x1F AND DUP3 ADD SWAP2 JUMPDEST POP POP POP POP POP DUP2 MSTORE PUSH1 0x20 ADD PUSH1 0x5 DUP3 ADD DUP1 SLOAD PUSH2 0x17C6 SWAP1 PUSH2 0x8884 JUMP JUMPDEST DUP1 PUSH1 0x1F ADD PUSH1 0x20 DUP1 SWAP2 DIV MUL PUSH1 0x20 ADD PUSH1 0x40 MLOAD SWAP1 DUP2 ADD PUSH1 0x40 MSTORE DUP1 SWAP3 SWAP2 SWAP1 DUP2 DUP2 MSTORE PUSH1 0x20 ADD DUP3 DUP1 SLOAD PUSH2 0x17F2 SWAP1 PUSH2 0x8884 JUMP JUMPDEST DUP1 ISZERO PUSH2 0x183F JUMPI DUP1 PUSH1 0x1F LT PUSH2 0x1814 JUMPI PUSH2 0x100 DUP1 DUP4 SLOAD DIV MUL DUP4 MSTORE SWAP2 PUSH1 0x20 ADD SWAP2 PUSH2 0x183F JUMP JUMPDEST DUP3 ADD SWAP2 SWAP1 PUSH1 0x0 MSTORE PUSH1 0x20 PUSH1 0x0 KECCAK256 SWAP1 JUMPDEST DUP2 SLOAD DUP2 MSTORE SWAP1 PUSH1 0x1 ADD SWAP1 PUSH1 0x20 ADD DUP1 DUP4 GT PUSH2 0x1822 JUMPI DUP3 SWAP1 SUB PUSH1 0x1F AND DUP3 ADD SWAP2 JUMPDEST POP POP POP POP POP DUP2 MSTORE PUSH1 0x20 ADD PUSH1 0x6 DUP3 ADD SLOAD DUP2 MSTORE PUSH1 0x20 ADD PUSH1 0x7 DUP3 ADD PUSH1 0x0 SWAP1 SLOAD SWAP1 PUSH2 0x100 EXP SWAP1 DIV PUSH1 0xFF AND PUSH1 0x2 DUP2 GT ISZERO PUSH2 0x1877 JUMPI PUSH2 0x1876 PUSH2 0x7848 JUMP JUMPDEST JUMPDEST PUSH1 0x2 DUP2 GT ISZERO PUSH2 0x1889 JUMPI PUSH2 0x1888 PUSH2 0x7848 JUMP JUMPDEST JUMPDEST DUP2 MSTORE PUSH1 0x20 ADD PUSH1 0x7 DUP3 ADD PUSH1 0x1 SWAP1 SLOAD SWAP1 PUSH2 0x100 EXP SWAP1 DIV PUSH1 0xFF AND PUSH1 0x2 DUP2 GT ISZERO PUSH2 0x18B2 JUMPI PUSH2 0x18B1 PUSH2 0x7848 JUMP JUMPDEST JUMPDEST PUSH1 0x2 DUP2 GT ISZERO PUSH2 0x18C4 JUMPI PUSH2 0x18C3 PUSH2 0x7848 JUMP JUMPDEST JUMPDEST DUP2 MSTORE PUSH1 0x20 ADD PUSH1 0x8 DUP3 ADD DUP1 SLOAD PUSH2 0x18D8 SWAP1 PUSH2 0x8884 JUMP JUMPDEST DUP1 PUSH1 0x1F ADD PUSH1 0x20 DUP1 SWAP2 DIV MUL PUSH1 0x20 ADD PUSH1 0x40 MLOAD SWAP1 DUP2 ADD PUSH1 0x40 MSTORE DUP1 SWAP3 SWAP2 SWAP1 DUP2 DUP2 MSTORE PUSH1 0x20 ADD DUP3 DUP1 SLOAD PUSH2 0x1904 SWAP1 PUSH2 0x8884 JUMP JUMPDEST DUP1 ISZERO PUSH2 0x1951 JUMPI DUP1 PUSH1 0x1F LT PUSH2 0x1926 JUMPI PUSH2 0x100 DUP1 DUP4 SLOAD DIV MUL DUP4 MSTORE SWAP2 PUSH1 0x20 ADD SWAP2 PUSH2 0x1951 JUMP JUMPDEST DUP3 ADD SWAP2 SWAP1 PUSH1 0x0 MSTORE PUSH1 0x20 PUSH1 0x0 KECCAK256 SWAP1 JUMPDEST DUP2 SLOAD DUP2 MSTORE SWAP1 PUSH1 0x1 ADD SWAP1 PUSH1 0x20 ADD DUP1 DUP4 GT PUSH2 0x1934 JUMPI DUP3 SWAP1 SUB PUSH1 0x1F AND DUP3 ADD SWAP2 JUMPDEST POP POP POP POP POP DUP2 MSTORE POP POP SWAP3 POP PUSH2 0x1974 JUMP JUMPDEST DUP1 DUP1 PUSH2 0x196C SWAP1 PUSH2 0x8F75 JUMP JUMPDEST SWAP2 POP POP PUSH2 0x14BC JUMP JUMPDEST POP DUP4 DUP4 DUP4 SWAP9 POP SWAP9 POP SWAP9 POP POP POP POP POP POP POP SWAP2 SWAP4 SWAP1 SWAP3 POP JUMP JUMPDEST CALLER PUSH1 0x0 PUSH20 0xFFFFFFFFFFFFFFFFFFFFFFFFFFFFFFFFFFFFFFFF AND DUP2 PUSH20 0xFFFFFFFFFFFFFFFFFFFFFFFFFFFFFFFFFFFFFFFF AND SUB PUSH2 0x19FB JUMPI PUSH1 0x40 MLOAD PUSH32 0x8C379A000000000000000000000000000000000000000000000000000000000 DUP2 MSTORE PUSH1 0x4 ADD PUSH2 0x19F2 SWAP1 PUSH2 0x87C9 JUMP JUMPDEST PUSH1 0x40 MLOAD DUP1 SWAP2 SUB SWAP1 REVERT JUMPDEST PUSH1 0x0 PUSH20 0xFFFFFFFFFFFFFFFFFFFFFFFFFFFFFFFFFFFFFFFF AND PUSH1 0x1 PUSH1 0x0 DUP4 PUSH20 0xFFFFFFFFFFFFFFFFFFFFFFFFFFFFFFFFFFFFFFFF AND PUSH20 0xFFFFFFFFFFFFFFFFFFFFFFFFFFFFFFFFFFFFFFFF AND DUP2 MSTORE PUSH1 0x20 ADD SWAP1 DUP2 MSTORE PUSH1 0x20 ADD PUSH1 0x0 KECCAK256 PUSH1 0x3 ADD PUSH1 0x0 SWAP1 SLOAD SWAP1 PUSH2 0x100 EXP SWAP1 DIV PUSH20 0xFFFFFFFFFFFFFFFFFFFFFFFFFFFFFFFFFFFFFFFF AND PUSH20 0xFFFFFFFFFFFFFFFFFFFFFFFFFFFFFFFFFFFFFFFF AND SUB PUSH2 0x1ACC JUMPI PUSH1 0x40 MLOAD PUSH32 0x8C379A000000000000000000000000000000000000000000000000000000000 DUP2 MSTORE PUSH1 0x4 ADD PUSH2 0x1AC3 SWAP1 PUSH2 0x8835 JUMP JUMPDEST PUSH1 0x40 MLOAD DUP1 SWAP2 SUB SWAP1 REVERT JUMPDEST PUSH2 0x1BAF PUSH1 0x1 PUSH1 0x0 DUP4 PUSH20 0xFFFFFFFFFFFFFFFFFFFFFFFFFFFFFFFFFFFFFFFF AND PUSH20 0xFFFFFFFFFFFFFFFFFFFFFFFFFFFFFFFFFFFFFFFF AND DUP2 MSTORE PUSH1 0x20 ADD SWAP1 DUP2 MSTORE PUSH1 0x20 ADD PUSH1 0x0 KECCAK256 PUSH1 0x1 ADD DUP1 SLOAD PUSH2 0x1B1C SWAP1 PUSH2 0x8884 JUMP JUMPDEST DUP1 PUSH1 0x1F ADD PUSH1 0x20 DUP1 SWAP2 DIV MUL PUSH1 0x20 ADD PUSH1 0x40 MLOAD SWAP1 DUP2 ADD PUSH1 0x40 MSTORE DUP1 SWAP3 SWAP2 SWAP1 DUP2 DUP2 MSTORE PUSH1 0x20 ADD DUP3 DUP1 SLOAD PUSH2 0x1B48 SWAP1 PUSH2 0x8884 JUMP JUMPDEST DUP1 ISZERO PUSH2 0x1B95 JUMPI DUP1 PUSH1 0x1F LT PUSH2 0x1B6A JUMPI PUSH2 0x100 DUP1 DUP4 SLOAD DIV MUL DUP4 MSTORE SWAP2 PUSH1 0x20 ADD SWAP2 PUSH2 0x1B95 JUMP JUMPDEST DUP3 ADD SWAP2 SWAP1 PUSH1 0x0 MSTORE PUSH1 0x20 PUSH1 0x0 KECCAK256 SWAP1 JUMPDEST DUP2 SLOAD DUP2 MSTORE SWAP1 PUSH1 0x1 ADD SWAP1 PUSH1 0x20 ADD DUP1 DUP4 GT PUSH2 0x1B78 JUMPI DUP3 SWAP1 SUB PUSH1 0x1F AND DUP3 ADD SWAP2 JUMPDEST POP POP POP POP POP PUSH1 0x40 MLOAD DUP1 PUSH1 0x20 ADD PUSH1 0x40 MSTORE DUP1 PUSH1 0x0 DUP2 MSTORE POP PUSH2 0x4C38 JUMP JUMPDEST ISZERO PUSH2 0x1BEF JUMPI PUSH1 0x40 MLOAD PUSH32 0x8C379A000000000000000000000000000000000000000000000000000000000 DUP2 MSTORE PUSH1 0x4 ADD PUSH2 0x1BE6 SWAP1 PUSH2 0x8901 JUMP JUMPDEST PUSH1 0x40 MLOAD DUP1 SWAP2 SUB SWAP1 REVERT JUMPDEST DUP4 PUSH1 0x0 PUSH20 0xFFFFFFFFFFFFFFFFFFFFFFFFFFFFFFFFFFFFFFFF AND PUSH1 0x3 PUSH1 0x0 DUP4 PUSH20 0xFFFFFFFFFFFFFFFFFFFFFFFFFFFFFFFFFFFFFFFF AND PUSH20 0xFFFFFFFFFFFFFFFFFFFFFFFFFFFFFFFFFFFFFFFF AND DUP2 MSTORE PUSH1 0x20 ADD SWAP1 DUP2 MSTORE PUSH1 0x20 ADD PUSH1 0x0 KECCAK256 PUSH1 0x2 ADD PUSH1 0x0 SWAP1 SLOAD SWAP1 PUSH2 0x100 EXP SWAP1 DIV PUSH20 0xFFFFFFFFFFFFFFFFFFFFFFFFFFFFFFFFFFFFFFFF AND PUSH20 0xFFFFFFFFFFFFFFFFFFFFFFFFFFFFFFFFFFFFFFFF AND SUB PUSH2 0x1CC1 JUMPI PUSH1 0x40 MLOAD PUSH32 0x8C379A000000000000000000000000000000000000000000000000000000000 DUP2 MSTORE PUSH1 0x4 ADD PUSH2 0x1CB8 SWAP1 PUSH2 0x896D JUMP JUMPDEST PUSH1 0x40 MLOAD DUP1 SWAP2 SUB SWAP1 REVERT JUMPDEST DUP1 PUSH20 0xFFFFFFFFFFFFFFFFFFFFFFFFFFFFFFFFFFFFFFFF AND PUSH1 0x3 PUSH1 0x0 DUP4 PUSH20 0xFFFFFFFFFFFFFFFFFFFFFFFFFFFFFFFFFFFFFFFF AND PUSH20 0xFFFFFFFFFFFFFFFFFFFFFFFFFFFFFFFFFFFFFFFF AND DUP2 MSTORE PUSH1 0x20 ADD SWAP1 DUP2 MSTORE PUSH1 0x20 ADD PUSH1 0x0 KECCAK256 PUSH1 0x2 ADD PUSH1 0x0 SWAP1 SLOAD SWAP1 PUSH2 0x100 EXP SWAP1 DIV PUSH20 0xFFFFFFFFFFFFFFFFFFFFFFFFFFFFFFFFFFFFFFFF AND PUSH20 0xFFFFFFFFFFFFFFFFFFFFFFFFFFFFFFFFFFFFFFFF AND EQ PUSH2 0x1D91 JUMPI PUSH1 0x40 MLOAD PUSH32 0x8C379A000000000000000000000000000000000000000000000000000000000 DUP2 MSTORE PUSH1 0x4 ADD PUSH2 0x1D88 SWAP1 PUSH2 0x896D JUMP JUMPDEST PUSH1 0x40 MLOAD DUP1 SWAP2 SUB SWAP1 REVERT JUMPDEST PUSH1 0x0 PUSH1 0x1 DUP2 GT ISZERO PUSH2 0x1DA5 JUMPI PUSH2 0x1DA4 PUSH2 0x7848 JUMP JUMPDEST JUMPDEST PUSH1 0x3 PUSH1 0x0 DUP4 PUSH20 0xFFFFFFFFFFFFFFFFFFFFFFFFFFFFFFFFFFFFFFFF AND PUSH20 0xFFFFFFFFFFFFFFFFFFFFFFFFFFFFFFFFFFFFFFFF AND DUP2 MSTORE PUSH1 0x20 ADD SWAP1 DUP2 MSTORE PUSH1 0x20 ADD PUSH1 0x0 KECCAK256 PUSH1 0x4 ADD PUSH1 0x2 SWAP1 SLOAD SWAP1 PUSH2 0x100 EXP SWAP1 DIV PUSH1 0xFF AND PUSH1 0x1 DUP2 GT ISZERO PUSH2 0x1E07 JUMPI PUSH2 0x1E06 PUSH2 0x7848 JUMP JUMPDEST JUMPDEST EQ PUSH2 0x1E47 JUMPI PUSH1 0x40 MLOAD PUSH32 0x8C379A000000000000000000000000000000000000000000000000000000000 DUP2 MSTORE PUSH1 0x4 ADD PUSH2 0x1E3E SWAP1 PUSH2 0x89D9 JUMP JUMPDEST PUSH1 0x40 MLOAD DUP1 SWAP2 SUB SWAP1 REVERT JUMPDEST PUSH1 0x0 PUSH2 0x1E53 DUP7 CALLER PUSH2 0x528F JUMP JUMPDEST SWAP1 POP PUSH2 0x1E5E DUP2 PUSH2 0x52BB JUMP JUMPDEST PUSH2 0x1E9D JUMPI PUSH1 0x40 MLOAD PUSH32 0x8C379A000000000000000000000000000000000000000000000000000000000 DUP2 MSTORE PUSH1 0x4 ADD PUSH2 0x1E94 SWAP1 PUSH2 0x9009 JUMP JUMPDEST PUSH1 0x40 MLOAD DUP1 SWAP2 SUB SWAP1 REVERT JUMPDEST PUSH1 0x0 DUP6 ISZERO PUSH2 0x1EAE JUMPI PUSH1 0x1 SWAP1 POP PUSH2 0x1EB3 JUMP JUMPDEST PUSH1 0x2 SWAP1 POP JUMPDEST DUP1 PUSH1 0x7 DUP4 PUSH1 0x40 MLOAD PUSH2 0x1EC4 SWAP2 SWAP1 PUSH2 0x8B0D JUMP JUMPDEST SWAP1 DUP2 MSTORE PUSH1 0x20 ADD PUSH1 0x40 MLOAD DUP1 SWAP2 SUB SWAP1 KECCAK256 PUSH1 0x7 ADD PUSH1 0x1 PUSH2 0x100 EXP DUP2 SLOAD DUP2 PUSH1 0xFF MUL NOT AND SWAP1 DUP4 PUSH1 0x2 DUP2 GT ISZERO PUSH2 0x1EF7 JUMPI PUSH2 0x1EF6 PUSH2 0x7848 JUMP JUMPDEST JUMPDEST MUL OR SWAP1 SSTORE POP DUP5 PUSH1 0x7 DUP4 PUSH1 0x40 MLOAD PUSH2 0x1F0D SWAP2 SWAP1 PUSH2 0x8B0D JUMP JUMPDEST SWAP1 DUP2 MSTORE PUSH1 0x20 ADD PUSH1 0x40 MLOAD DUP1 SWAP2 SUB SWAP1 KECCAK256 PUSH1 0x8 ADD SWAP1 DUP2 PUSH2 0x1F2A SWAP2 SWAP1 PUSH2 0x8CD0 JUMP JUMPDEST POP PUSH32 0x9A3F3F9DE5AC964F84F08C6124F7B844FFD73DE3FD4B472EB59F6B68E5729A81 DUP3 CALLER DUP10 DUP5 PUSH1 0x40 MLOAD PUSH2 0x1F60 SWAP5 SWAP4 SWAP3 SWAP2 SWAP1 PUSH2 0x9047 JUMP JUMPDEST PUSH1 0x40 MLOAD DUP1 SWAP2 SUB SWAP1 LOG1 POP POP POP POP POP POP POP JUMP JUMPDEST PUSH1 0x4 PUSH1 0x0 SWAP1 SLOAD SWAP1 PUSH2 0x100 EXP SWAP1 DIV PUSH20 0xFFFFFFFFFFFFFFFFFFFFFFFFFFFFFFFFFFFFFFFF AND PUSH20 0xFFFFFFFFFFFFFFFFFFFFFFFFFFFFFFFFFFFFFFFF AND CALLER PUSH20 0xFFFFFFFFFFFFFFFFFFFFFFFFFFFFFFFFFFFFFFFF AND EQ PUSH2 0x2001 JUMPI PUSH1 0x40 MLOAD PUSH32 0x8C379A000000000000000000000000000000000000000000000000000000000 DUP2 MSTORE PUSH1 0x4 ADD PUSH2 0x1FF8 SWAP1 PUSH2 0x8EF7 JUMP JUMPDEST PUSH1 0x40 MLOAD DUP1 SWAP2 SUB SWAP1 REVERT JUMPDEST PUSH2 0x200C DUP4 DUP4 DUP4 PUSH2 0x587D JUMP JUMPDEST DUP1 PUSH1 0x6 PUSH1 0x0 DUP6 PUSH20 0xFFFFFFFFFFFFFFFFFFFFFFFFFFFFFFFFFFFFFFFF AND PUSH20 0xFFFFFFFFFFFFFFFFFFFFFFFFFFFFFFFFFFFFFFFF AND DUP2 MSTORE PUSH1 0x20 ADD SWAP1 DUP2 MSTORE PUSH1 0x20 ADD PUSH1 0x0 KECCAK256 PUSH1 0x0 ADD SWAP1 DUP2 PUSH2 0x205B SWAP2 SWAP1 PUSH2 0x8CD0 JUMP JUMPDEST POP DUP2 PUSH1 0x6 PUSH1 0x0 DUP6 PUSH20 0xFFFFFFFFFFFFFFFFFFFFFFFFFFFFFFFFFFFFFFFF AND PUSH20 0xFFFFFFFFFFFFFFFFFFFFFFFFFFFFFFFFFFFFFFFF AND DUP2 MSTORE PUSH1 0x20 ADD SWAP1 DUP2 MSTORE PUSH1 0x20 ADD PUSH1 0x0 KECCAK256 PUSH1 0x1 ADD SWAP1 DUP2 PUSH2 0x20AB SWAP2 SWAP1 PUSH2 0x8CD0 JUMP JUMPDEST POP POP POP POP JUMP JUMPDEST CALLER PUSH1 0x0 PUSH20 0xFFFFFFFFFFFFFFFFFFFFFFFFFFFFFFFFFFFFFFFF AND DUP2 PUSH20 0xFFFFFFFFFFFFFFFFFFFFFFFFFFFFFFFFFFFFFFFF AND SUB PUSH2 0x2121 JUMPI PUSH1 0x40 MLOAD PUSH32 0x8C379A000000000000000000000000000000000000000000000000000000000 DUP2 MSTORE PUSH1 0x4 ADD PUSH2 0x2118 SWAP1 PUSH2 0x87C9 JUMP JUMPDEST PUSH1 0x40 MLOAD DUP1 SWAP2 SUB SWAP1 REVERT JUMPDEST PUSH1 0x0 PUSH20 0xFFFFFFFFFFFFFFFFFFFFFFFFFFFFFFFFFFFFFFFF AND PUSH1 0x1 PUSH1 0x0 DUP4 PUSH20 0xFFFFFFFFFFFFFFFFFFFFFFFFFFFFFFFFFFFFFFFF AND PUSH20 0xFFFFFFFFFFFFFFFFFFFFFFFFFFFFFFFFFFFFFFFF AND DUP2 MSTORE PUSH1 0x20 ADD SWAP1 DUP2 MSTORE PUSH1 0x20 ADD PUSH1 0x0 KECCAK256 PUSH1 0x3 ADD PUSH1 0x0 SWAP1 SLOAD SWAP1 PUSH2 0x100 EXP SWAP1 DIV PUSH20 0xFFFFFFFFFFFFFFFFFFFFFFFFFFFFFFFFFFFFFFFF AND PUSH20 0xFFFFFFFFFFFFFFFFFFFFFFFFFFFFFFFFFFFFFFFF AND SUB PUSH2 0x21F2 JUMPI PUSH1 0x40 MLOAD PUSH32 0x8C379A000000000000000000000000000000000000000000000000000000000 DUP2 MSTORE PUSH1 0x4 ADD PUSH2 0x21E9 SWAP1 PUSH2 0x8835 JUMP JUMPDEST PUSH1 0x40 MLOAD DUP1 SWAP2 SUB SWAP1 REVERT JUMPDEST PUSH2 0x22D5 PUSH1 0x1 PUSH1 0x0 DUP4 PUSH20 0xFFFFFFFFFFFFFFFFFFFFFFFFFFFFFFFFFFFFFFFF AND PUSH20 0xFFFFFFFFFFFFFFFFFFFFFFFFFFFFFFFFFFFFFFFF AND DUP2 MSTORE PUSH1 0x20 ADD SWAP1 DUP2 MSTORE PUSH1 0x20 ADD PUSH1 0x0 KECCAK256 PUSH1 0x1 ADD DUP1 SLOAD PUSH2 0x2242 SWAP1 PUSH2 0x8884 JUMP JUMPDEST DUP1 PUSH1 0x1F ADD PUSH1 0x20 DUP1 SWAP2 DIV MUL PUSH1 0x20 ADD PUSH1 0x40 MLOAD SWAP1 DUP2 ADD PUSH1 0x40 MSTORE DUP1 SWAP3 SWAP2 SWAP1 DUP2 DUP2 MSTORE PUSH1 0x20 ADD DUP3 DUP1 SLOAD PUSH2 0x226E SWAP1 PUSH2 0x8884 JUMP JUMPDEST DUP1 ISZERO PUSH2 0x22BB JUMPI DUP1 PUSH1 0x1F LT PUSH2 0x2290 JUMPI PUSH2 0x100 DUP1 DUP4 SLOAD DIV MUL DUP4 MSTORE SWAP2 PUSH1 0x20 ADD SWAP2 PUSH2 0x22BB JUMP JUMPDEST DUP3 ADD SWAP2 SWAP1 PUSH1 0x0 MSTORE PUSH1 0x20 PUSH1 0x0 KECCAK256 SWAP1 JUMPDEST DUP2 SLOAD DUP2 MSTORE SWAP1 PUSH1 0x1 ADD SWAP1 PUSH1 0x20 ADD DUP1 DUP4 GT PUSH2 0x229E JUMPI DUP3 SWAP1 SUB PUSH1 0x1F AND DUP3 ADD SWAP2 JUMPDEST POP POP POP POP POP PUSH1 0x40 MLOAD DUP1 PUSH1 0x20 ADD PUSH1 0x40 MSTORE DUP1 PUSH1 0x0 DUP2 MSTORE POP PUSH2 0x4C38 JUMP JUMPDEST ISZERO PUSH2 0x2315 JUMPI PUSH1 0x40 MLOAD PUSH32 0x8C379A000000000000000000000000000000000000000000000000000000000 DUP2 MSTORE PUSH1 0x4 ADD PUSH2 0x230C SWAP1 PUSH2 0x8901 JUMP JUMPDEST PUSH1 0x40 MLOAD DUP1 SWAP2 SUB SWAP1 REVERT JUMPDEST PUSH1 0x0 PUSH2 0x2321 DUP5 CALLER PUSH2 0x528F JUMP JUMPDEST SWAP1 POP PUSH2 0x232C DUP2 PUSH2 0x52BB JUMP JUMPDEST PUSH2 0x236B JUMPI PUSH1 0x40 MLOAD PUSH32 0x8C379A000000000000000000000000000000000000000000000000000000000 DUP2 MSTORE PUSH1 0x4 ADD PUSH2 0x2362 SWAP1 PUSH2 0x90DF JUMP JUMPDEST PUSH1 0x40 MLOAD DUP1 SWAP2 SUB SWAP1 REVERT JUMPDEST PUSH1 0x2 PUSH1 0x7 DUP3 PUSH1 0x40 MLOAD PUSH2 0x237D SWAP2 SWAP1 PUSH2 0x8B0D JUMP JUMPDEST SWAP1 DUP2 MSTORE PUSH1 0x20 ADD PUSH1 0x40 MLOAD DUP1 SWAP2 SUB SWAP1 KECCAK256 PUSH1 0x7 ADD PUSH1 0x1 PUSH2 0x100 EXP DUP2 SLOAD DUP2 PUSH1 0xFF MUL NOT AND SWAP1 DUP4 PUSH1 0x2 DUP2 GT ISZERO PUSH2 0x23B0 JUMPI PUSH2 0x23AF PUSH2 0x7848 JUMP JUMPDEST JUMPDEST MUL OR SWAP1 SSTORE POP DUP3 PUSH1 0x7 DUP3 PUSH1 0x40 MLOAD PUSH2 0x23C6 SWAP2 SWAP1 PUSH2 0x8B0D JUMP JUMPDEST SWAP1 DUP2 MSTORE PUSH1 0x20 ADD PUSH1 0x40 MLOAD DUP1 SWAP2 SUB SWAP1 KECCAK256 PUSH1 0x8 ADD SWAP1 DUP2 PUSH2 0x23E3 SWAP2 SWAP1 PUSH2 0x8CD0 JUMP JUMPDEST POP PUSH32 0x9A3F3F9DE5AC964F84F08C6124F7B844FFD73DE3FD4B472EB59F6B68E5729A81 DUP2 CALLER DUP7 PUSH1 0x2 PUSH1 0x40 MLOAD PUSH2 0x241A SWAP5 SWAP4 SWAP3 SWAP2 SWAP1 PUSH2 0x9047 JUMP JUMPDEST PUSH1 0x40 MLOAD DUP1 SWAP2 SUB SWAP1 LOG1 POP POP POP POP JUMP JUMPDEST PUSH1 0x0 PUSH1 0x60 PUSH1 0x4 PUSH1 0x0 SWAP1 SLOAD SWAP1 PUSH2 0x100 EXP SWAP1 DIV PUSH20 0xFFFFFFFFFFFFFFFFFFFFFFFFFFFFFFFFFFFFFFFF AND PUSH20 0xFFFFFFFFFFFFFFFFFFFFFFFFFFFFFFFFFFFFFFFF AND CALLER PUSH20 0xFFFFFFFFFFFFFFFFFFFFFFFFFFFFFFFFFFFFFFFF AND EQ PUSH2 0x24BC JUMPI PUSH1 0x40 MLOAD PUSH32 0x8C379A000000000000000000000000000000000000000000000000000000000 DUP2 MSTORE PUSH1 0x4 ADD PUSH2 0x24B3 SWAP1 PUSH2 0x8EF7 JUMP JUMPDEST PUSH1 0x40 MLOAD DUP1 SWAP2 SUB SWAP1 REVERT JUMPDEST PUSH2 0x24C5 DUP4 PUSH2 0x5A2E JUMP JUMPDEST SWAP2 POP SWAP2 POP SWAP2 POP SWAP2 JUMP JUMPDEST PUSH1 0x0 PUSH2 0x24D8 PUSH2 0x7431 JUMP JUMPDEST PUSH2 0x24E0 PUSH2 0x74FC JUMP JUMPDEST DUP4 PUSH1 0x0 PUSH20 0xFFFFFFFFFFFFFFFFFFFFFFFFFFFFFFFFFFFFFFFF AND DUP2 PUSH20 0xFFFFFFFFFFFFFFFFFFFFFFFFFFFFFFFFFFFFFFFF AND SUB PUSH2 0x2550 JUMPI PUSH1 0x40 MLOAD PUSH32 0x8C379A000000000000000000000000000000000000000000000000000000000 DUP2 MSTORE PUSH1 0x4 ADD PUSH2 0x2547 SWAP1 PUSH2 0x87C9 JUMP JUMPDEST PUSH1 0x40 MLOAD DUP1 SWAP2 SUB SWAP1 REVERT JUMPDEST PUSH1 0x0 PUSH20 0xFFFFFFFFFFFFFFFFFFFFFFFFFFFFFFFFFFFFFFFF AND PUSH1 0x1 PUSH1 0x0 DUP4 PUSH20 0xFFFFFFFFFFFFFFFFFFFFFFFFFFFFFFFFFFFFFFFF AND PUSH20 0xFFFFFFFFFFFFFFFFFFFFFFFFFFFFFFFFFFFFFFFF AND DUP2 MSTORE PUSH1 0x20 ADD SWAP1 DUP2 MSTORE PUSH1 0x20 ADD PUSH1 0x0 KECCAK256 PUSH1 0x3 ADD PUSH1 0x0 SWAP1 SLOAD SWAP1 PUSH2 0x100 EXP SWAP1 DIV PUSH20 0xFFFFFFFFFFFFFFFFFFFFFFFFFFFFFFFFFFFFFFFF AND PUSH20 0xFFFFFFFFFFFFFFFFFFFFFFFFFFFFFFFFFFFFFFFF AND SUB PUSH2 0x2621 JUMPI PUSH1 0x40 MLOAD PUSH32 0x8C379A000000000000000000000000000000000000000000000000000000000 DUP2 MSTORE PUSH1 0x4 ADD PUSH2 0x2618 SWAP1 PUSH2 0x8835 JUMP JUMPDEST PUSH1 0x40 MLOAD DUP1 SWAP2 SUB SWAP1 REVERT JUMPDEST PUSH2 0x2704 PUSH1 0x1 PUSH1 0x0 DUP4 PUSH20 0xFFFFFFFFFFFFFFFFFFFFFFFFFFFFFFFFFFFFFFFF AND PUSH20 0xFFFFFFFFFFFFFFFFFFFFFFFFFFFFFFFFFFFFFFFF AND DUP2 MSTORE PUSH1 0x20 ADD SWAP1 DUP2 MSTORE PUSH1 0x20 ADD PUSH1 0x0 KECCAK256 PUSH1 0x1 ADD DUP1 SLOAD PUSH2 0x2671 SWAP1 PUSH2 0x8884 JUMP JUMPDEST DUP1 PUSH1 0x1F ADD PUSH1 0x20 DUP1 SWAP2 DIV MUL PUSH1 0x20 ADD PUSH1 0x40 MLOAD SWAP1 DUP2 ADD PUSH1 0x40 MSTORE DUP1 SWAP3 SWAP2 SWAP1 DUP2 DUP2 MSTORE PUSH1 0x20 ADD DUP3 DUP1 SLOAD PUSH2 0x269D SWAP1 PUSH2 0x8884 JUMP JUMPDEST DUP1 ISZERO PUSH2 0x26EA JUMPI DUP1 PUSH1 0x1F LT PUSH2 0x26BF JUMPI PUSH2 0x100 DUP1 DUP4 SLOAD DIV MUL DUP4 MSTORE SWAP2 PUSH1 0x20 ADD SWAP2 PUSH2 0x26EA JUMP JUMPDEST DUP3 ADD SWAP2 SWAP1 PUSH1 0x0 MSTORE PUSH1 0x20 PUSH1 0x0 KECCAK256 SWAP1 JUMPDEST DUP2 SLOAD DUP2 MSTORE SWAP1 PUSH1 0x1 ADD SWAP1 PUSH1 0x20 ADD DUP1 DUP4 GT PUSH2 0x26CD JUMPI DUP3 SWAP1 SUB PUSH1 0x1F AND DUP3 ADD SWAP2 JUMPDEST POP POP POP POP POP PUSH1 0x40 MLOAD DUP1 PUSH1 0x20 ADD PUSH1 0x40 MSTORE DUP1 PUSH1 0x0 DUP2 MSTORE POP PUSH2 0x4C38 JUMP JUMPDEST ISZERO PUSH2 0x2744 JUMPI PUSH1 0x40 MLOAD PUSH32 0x8C379A000000000000000000000000000000000000000000000000000000000 DUP2 MSTORE PUSH1 0x4 ADD PUSH2 0x273B SWAP1 PUSH2 0x8901 JUMP JUMPDEST PUSH1 0x40 MLOAD DUP1 SWAP2 SUB SWAP1 REVERT JUMPDEST CALLER PUSH1 0x0 PUSH20 0xFFFFFFFFFFFFFFFFFFFFFFFFFFFFFFFFFFFFFFFF AND PUSH1 0x3 PUSH1 0x0 DUP4 PUSH20 0xFFFFFFFFFFFFFFFFFFFFFFFFFFFFFFFFFFFFFFFF AND PUSH20 0xFFFFFFFFFFFFFFFFFFFFFFFFFFFFFFFFFFFFFFFF AND DUP2 MSTORE PUSH1 0x20 ADD SWAP1 DUP2 MSTORE PUSH1 0x20 ADD PUSH1 0x0 KECCAK256 PUSH1 0x2 ADD PUSH1 0x0 SWAP1 SLOAD SWAP1 PUSH2 0x100 EXP SWAP1 DIV PUSH20 0xFFFFFFFFFFFFFFFFFFFFFFFFFFFFFFFFFFFFFFFF AND PUSH20 0xFFFFFFFFFFFFFFFFFFFFFFFFFFFFFFFFFFFFFFFF AND SUB PUSH2 0x2816 JUMPI PUSH1 0x40 MLOAD PUSH32 0x8C379A000000000000000000000000000000000000000000000000000000000 DUP2 MSTORE PUSH1 0x4 ADD PUSH2 0x280D SWAP1 PUSH2 0x896D JUMP JUMPDEST PUSH1 0x40 MLOAD DUP1 SWAP2 SUB SWAP1 REVERT JUMPDEST DUP1 PUSH20 0xFFFFFFFFFFFFFFFFFFFFFFFFFFFFFFFFFFFFFFFF AND PUSH1 0x3 PUSH1 0x0 DUP4 PUSH20 0xFFFFFFFFFFFFFFFFFFFFFFFFFFFFFFFFFFFFFFFF AND PUSH20 0xFFFFFFFFFFFFFFFFFFFFFFFFFFFFFFFFFFFFFFFF AND DUP2 MSTORE PUSH1 0x20 ADD SWAP1 DUP2 MSTORE PUSH1 0x20 ADD PUSH1 0x0 KECCAK256 PUSH1 0x2 ADD PUSH1 0x0 SWAP1 SLOAD SWAP1 PUSH2 0x100 EXP SWAP1 DIV PUSH20 0xFFFFFFFFFFFFFFFFFFFFFFFFFFFFFFFFFFFFFFFF AND PUSH20 0xFFFFFFFFFFFFFFFFFFFFFFFFFFFFFFFFFFFFFFFF AND EQ PUSH2 0x28E6 JUMPI PUSH1 0x40 MLOAD PUSH32 0x8C379A000000000000000000000000000000000000000000000000000000000 DUP2 MSTORE PUSH1 0x4 ADD PUSH2 0x28DD SWAP1 PUSH2 0x896D JUMP JUMPDEST PUSH1 0x40 MLOAD DUP1 SWAP2 SUB SWAP1 REVERT JUMPDEST PUSH1 0x0 PUSH1 0x1 DUP2 GT ISZERO PUSH2 0x28FA JUMPI PUSH2 0x28F9 PUSH2 0x7848 JUMP JUMPDEST JUMPDEST PUSH1 0x3 PUSH1 0x0 DUP4 PUSH20 0xFFFFFFFFFFFFFFFFFFFFFFFFFFFFFFFFFFFFFFFF AND PUSH20 0xFFFFFFFFFFFFFFFFFFFFFFFFFFFFFFFFFFFFFFFF AND DUP2 MSTORE PUSH1 0x20 ADD SWAP1 DUP2 MSTORE PUSH1 0x20 ADD PUSH1 0x0 KECCAK256 PUSH1 0x4 ADD PUSH1 0x2 SWAP1 SLOAD SWAP1 PUSH2 0x100 EXP SWAP1 DIV PUSH1 0xFF AND PUSH1 0x1 DUP2 GT ISZERO PUSH2 0x295C JUMPI PUSH2 0x295B PUSH2 0x7848 JUMP JUMPDEST JUMPDEST EQ PUSH2 0x299C JUMPI PUSH1 0x40 MLOAD PUSH32 0x8C379A000000000000000000000000000000000000000000000000000000000 DUP2 MSTORE PUSH1 0x4 ADD PUSH2 0x2993 SWAP1 PUSH2 0x89D9 JUMP JUMPDEST PUSH1 0x40 MLOAD DUP1 SWAP2 SUB SWAP1 REVERT JUMPDEST PUSH1 0x0 PUSH2 0x29A6 PUSH2 0x7431 JUMP JUMPDEST PUSH2 0x29AE PUSH2 0x74FC JUMP JUMPDEST PUSH2 0x2A7B DUP10 PUSH1 0x8 PUSH1 0x0 CALLER PUSH20 0xFFFFFFFFFFFFFFFFFFFFFFFFFFFFFFFFFFFFFFFF AND PUSH20 0xFFFFFFFFFFFFFFFFFFFFFFFFFFFFFFFFFFFFFFFF AND DUP2 MSTORE PUSH1 0x20 ADD SWAP1 DUP2 MSTORE PUSH1 0x20 ADD PUSH1 0x0 KECCAK256 DUP1 SLOAD DUP1 PUSH1 0x20 MUL PUSH1 0x20 ADD PUSH1 0x40 MLOAD SWAP1 DUP2 ADD PUSH1 0x40 MSTORE DUP1 SWAP3 SWAP2 SWAP1 DUP2 DUP2 MSTORE PUSH1 0x20 ADD DUP3 DUP1 SLOAD DUP1 ISZERO PUSH2 0x2A71 JUMPI PUSH1 0x20 MUL DUP3 ADD SWAP2 SWAP1 PUSH1 0x0 MSTORE PUSH1 0x20 PUSH1 0x0 KECCAK256 SWAP1 JUMPDEST DUP2 PUSH1 0x0 SWAP1 SLOAD SWAP1 PUSH2 0x100 EXP SWAP1 DIV PUSH20 0xFFFFFFFFFFFFFFFFFFFFFFFFFFFFFFFFFFFFFFFF AND PUSH20 0xFFFFFFFFFFFFFFFFFFFFFFFFFFFFFFFFFFFFFFFF AND DUP2 MSTORE PUSH1 0x20 ADD SWAP1 PUSH1 0x1 ADD SWAP1 DUP1 DUP4 GT PUSH2 0x2A27 JUMPI JUMPDEST POP POP POP POP POP PUSH2 0x5EAA JUMP JUMPDEST DUP1 SWAP4 POP DUP2 SWAP5 POP POP POP DUP3 ISZERO PUSH2 0x2EC5 JUMPI PUSH1 0x7 PUSH2 0x2A95 CALLER DUP12 PUSH2 0x528F JUMP JUMPDEST PUSH1 0x40 MLOAD PUSH2 0x2AA2 SWAP2 SWAP1 PUSH2 0x8B0D JUMP JUMPDEST SWAP1 DUP2 MSTORE PUSH1 0x20 ADD PUSH1 0x40 MLOAD DUP1 SWAP2 SUB SWAP1 KECCAK256 PUSH1 0x40 MLOAD DUP1 PUSH2 0x140 ADD PUSH1 0x40 MSTORE SWAP1 DUP2 PUSH1 0x0 DUP3 ADD DUP1 SLOAD PUSH2 0x2ACC SWAP1 PUSH2 0x8884 JUMP JUMPDEST DUP1 PUSH1 0x1F ADD PUSH1 0x20 DUP1 SWAP2 DIV MUL PUSH1 0x20 ADD PUSH1 0x40 MLOAD SWAP1 DUP2 ADD PUSH1 0x40 MSTORE DUP1 SWAP3 SWAP2 SWAP1 DUP2 DUP2 MSTORE PUSH1 0x20 ADD DUP3 DUP1 SLOAD PUSH2 0x2AF8 SWAP1 PUSH2 0x8884 JUMP JUMPDEST DUP1 ISZERO PUSH2 0x2B45 JUMPI DUP1 PUSH1 0x1F LT PUSH2 0x2B1A JUMPI PUSH2 0x100 DUP1 DUP4 SLOAD DIV MUL DUP4 MSTORE SWAP2 PUSH1 0x20 ADD SWAP2 PUSH2 0x2B45 JUMP JUMPDEST DUP3 ADD SWAP2 SWAP1 PUSH1 0x0 MSTORE PUSH1 0x20 PUSH1 0x0 KECCAK256 SWAP1 JUMPDEST DUP2 SLOAD DUP2 MSTORE SWAP1 PUSH1 0x1 ADD SWAP1 PUSH1 0x20 ADD DUP1 DUP4 GT PUSH2 0x2B28 JUMPI DUP3 SWAP1 SUB PUSH1 0x1F AND DUP3 ADD SWAP2 JUMPDEST POP POP POP POP POP DUP2 MSTORE PUSH1 0x20 ADD PUSH1 0x1 DUP3 ADD PUSH1 0x0 SWAP1 SLOAD SWAP1 PUSH2 0x100 EXP SWAP1 DIV PUSH20 0xFFFFFFFFFFFFFFFFFFFFFFFFFFFFFFFFFFFFFFFF AND PUSH20 0xFFFFFFFFFFFFFFFFFFFFFFFFFFFFFFFFFFFFFFFF AND PUSH20 0xFFFFFFFFFFFFFFFFFFFFFFFFFFFFFFFFFFFFFFFF AND DUP2 MSTORE PUSH1 0x20 ADD PUSH1 0x2 DUP3 ADD DUP1 SLOAD PUSH2 0x2BB4 SWAP1 PUSH2 0x8884 JUMP JUMPDEST DUP1 PUSH1 0x1F ADD PUSH1 0x20 DUP1 SWAP2 DIV MUL PUSH1 0x20 ADD PUSH1 0x40 MLOAD SWAP1 DUP2 ADD PUSH1 0x40 MSTORE DUP1 SWAP3 SWAP2 SWAP1 DUP2 DUP2 MSTORE PUSH1 0x20 ADD DUP3 DUP1 SLOAD PUSH2 0x2BE0 SWAP1 PUSH2 0x8884 JUMP JUMPDEST DUP1 ISZERO PUSH2 0x2C2D JUMPI DUP1 PUSH1 0x1F LT PUSH2 0x2C02 JUMPI PUSH2 0x100 DUP1 DUP4 SLOAD DIV MUL DUP4 MSTORE SWAP2 PUSH1 0x20 ADD SWAP2 PUSH2 0x2C2D JUMP JUMPDEST DUP3 ADD SWAP2 SWAP1 PUSH1 0x0 MSTORE PUSH1 0x20 PUSH1 0x0 KECCAK256 SWAP1 JUMPDEST DUP2 SLOAD DUP2 MSTORE SWAP1 PUSH1 0x1 ADD SWAP1 PUSH1 0x20 ADD DUP1 DUP4 GT PUSH2 0x2C10 JUMPI DUP3 SWAP1 SUB PUSH1 0x1F AND DUP3 ADD SWAP2 JUMPDEST POP POP POP POP POP DUP2 MSTORE PUSH1 0x20 ADD PUSH1 0x3 DUP3 ADD PUSH1 0x0 SWAP1 SLOAD SWAP1 PUSH2 0x100 EXP SWAP1 DIV PUSH20 0xFFFFFFFFFFFFFFFFFFFFFFFFFFFFFFFFFFFFFFFF AND PUSH20 0xFFFFFFFFFFFFFFFFFFFFFFFFFFFFFFFFFFFFFFFF AND PUSH20 0xFFFFFFFFFFFFFFFFFFFFFFFFFFFFFFFFFFFFFFFF AND DUP2 MSTORE PUSH1 0x20 ADD PUSH1 0x4 DUP3 ADD DUP1 SLOAD PUSH2 0x2C9C SWAP1 PUSH2 0x8884 JUMP JUMPDEST DUP1 PUSH1 0x1F ADD PUSH1 0x20 DUP1 SWAP2 DIV MUL PUSH1 0x20 ADD PUSH1 0x40 MLOAD SWAP1 DUP2 ADD PUSH1 0x40 MSTORE DUP1 SWAP3 SWAP2 SWAP1 DUP2 DUP2 MSTORE PUSH1 0x20 ADD DUP3 DUP1 SLOAD PUSH2 0x2CC8 SWAP1 PUSH2 0x8884 JUMP JUMPDEST DUP1 ISZERO PUSH2 0x2D15 JUMPI DUP1 PUSH1 0x1F LT PUSH2 0x2CEA JUMPI PUSH2 0x100 DUP1 DUP4 SLOAD DIV MUL DUP4 MSTORE SWAP2 PUSH1 0x20 ADD SWAP2 PUSH2 0x2D15 JUMP JUMPDEST DUP3 ADD SWAP2 SWAP1 PUSH1 0x0 MSTORE PUSH1 0x20 PUSH1 0x0 KECCAK256 SWAP1 JUMPDEST DUP2 SLOAD DUP2 MSTORE SWAP1 PUSH1 0x1 ADD SWAP1 PUSH1 0x20 ADD DUP1 DUP4 GT PUSH2 0x2CF8 JUMPI DUP3 SWAP1 SUB PUSH1 0x1F AND DUP3 ADD SWAP2 JUMPDEST POP POP POP POP POP DUP2 MSTORE PUSH1 0x20 ADD PUSH1 0x5 DUP3 ADD DUP1 SLOAD PUSH2 0x2D2E SWAP1 PUSH2 0x8884 JUMP JUMPDEST DUP1 PUSH1 0x1F ADD PUSH1 0x20 DUP1 SWAP2 DIV MUL PUSH1 0x20 ADD PUSH1 0x40 MLOAD SWAP1 DUP2 ADD PUSH1 0x40 MSTORE DUP1 SWAP3 SWAP2 SWAP1 DUP2 DUP2 MSTORE PUSH1 0x20 ADD DUP3 DUP1 SLOAD PUSH2 0x2D5A SWAP1 PUSH2 0x8884 JUMP JUMPDEST DUP1 ISZERO PUSH2 0x2DA7 JUMPI DUP1 PUSH1 0x1F LT PUSH2 0x2D7C JUMPI PUSH2 0x100 DUP1 DUP4 SLOAD DIV MUL DUP4 MSTORE SWAP2 PUSH1 0x20 ADD SWAP2 PUSH2 0x2DA7 JUMP JUMPDEST DUP3 ADD SWAP2 SWAP1 PUSH1 0x0 MSTORE PUSH1 0x20 PUSH1 0x0 KECCAK256 SWAP1 JUMPDEST DUP2 SLOAD DUP2 MSTORE SWAP1 PUSH1 0x1 ADD SWAP1 PUSH1 0x20 ADD DUP1 DUP4 GT PUSH2 0x2D8A JUMPI DUP3 SWAP1 SUB PUSH1 0x1F AND DUP3 ADD SWAP2 JUMPDEST POP POP POP POP POP DUP2 MSTORE PUSH1 0x20 ADD PUSH1 0x6 DUP3 ADD SLOAD DUP2 MSTORE PUSH1 0x20 ADD PUSH1 0x7 DUP3 ADD PUSH1 0x0 SWAP1 SLOAD SWAP1 PUSH2 0x100 EXP SWAP1 DIV PUSH1 0xFF AND PUSH1 0x2 DUP2 GT ISZERO PUSH2 0x2DDF JUMPI PUSH2 0x2DDE PUSH2 0x7848 JUMP JUMPDEST JUMPDEST PUSH1 0x2 DUP2 GT ISZERO PUSH2 0x2DF1 JUMPI PUSH2 0x2DF0 PUSH2 0x7848 JUMP JUMPDEST JUMPDEST DUP2 MSTORE PUSH1 0x20 ADD PUSH1 0x7 DUP3 ADD PUSH1 0x1 SWAP1 SLOAD SWAP1 PUSH2 0x100 EXP SWAP1 DIV PUSH1 0xFF AND PUSH1 0x2 DUP2 GT ISZERO PUSH2 0x2E1A JUMPI PUSH2 0x2E19 PUSH2 0x7848 JUMP JUMPDEST JUMPDEST PUSH1 0x2 DUP2 GT ISZERO PUSH2 0x2E2C JUMPI PUSH2 0x2E2B PUSH2 0x7848 JUMP JUMPDEST JUMPDEST DUP2 MSTORE PUSH1 0x20 ADD PUSH1 0x8 DUP3 ADD DUP1 SLOAD PUSH2 0x2E40 SWAP1 PUSH2 0x8884 JUMP JUMPDEST DUP1 PUSH1 0x1F ADD PUSH1 0x20 DUP1 SWAP2 DIV MUL PUSH1 0x20 ADD PUSH1 0x40 MLOAD SWAP1 DUP2 ADD PUSH1 0x40 MSTORE DUP1 SWAP3 SWAP2 SWAP1 DUP2 DUP2 MSTORE PUSH1 0x20 ADD DUP3 DUP1 SLOAD PUSH2 0x2E6C SWAP1 PUSH2 0x8884 JUMP JUMPDEST DUP1 ISZERO PUSH2 0x2EB9 JUMPI DUP1 PUSH1 0x1F LT PUSH2 0x2E8E JUMPI PUSH2 0x100 DUP1 DUP4 SLOAD DIV MUL DUP4 MSTORE SWAP2 PUSH1 0x20 ADD SWAP2 PUSH2 0x2EB9 JUMP JUMPDEST DUP3 ADD SWAP2 SWAP1 PUSH1 0x0 MSTORE PUSH1 0x20 PUSH1 0x0 KECCAK256 SWAP1 JUMPDEST DUP2 SLOAD DUP2 MSTORE SWAP1 PUSH1 0x1 ADD SWAP1 PUSH1 0x20 ADD DUP1 DUP4 GT PUSH2 0x2E9C JUMPI DUP3 SWAP1 SUB PUSH1 0x1F AND DUP3 ADD SWAP2 JUMPDEST POP POP POP POP POP DUP2 MSTORE POP POP SWAP1 POP JUMPDEST DUP3 DUP3 DUP3 SWAP8 POP SWAP8 POP SWAP8 POP POP POP POP POP POP SWAP2 SWAP4 SWAP1 SWAP3 POP JUMP JUMPDEST CALLER PUSH1 0x0 PUSH20 0xFFFFFFFFFFFFFFFFFFFFFFFFFFFFFFFFFFFFFFFF AND PUSH1 0x3 PUSH1 0x0 DUP4 PUSH20 0xFFFFFFFFFFFFFFFFFFFFFFFFFFFFFFFFFFFFFFFF AND PUSH20 0xFFFFFFFFFFFFFFFFFFFFFFFFFFFFFFFFFFFFFFFF AND DUP2 MSTORE PUSH1 0x20 ADD SWAP1 DUP2 MSTORE PUSH1 0x20 ADD PUSH1 0x0 KECCAK256 PUSH1 0x2 ADD PUSH1 0x0 SWAP1 SLOAD SWAP1 PUSH2 0x100 EXP SWAP1 DIV PUSH20 0xFFFFFFFFFFFFFFFFFFFFFFFFFFFFFFFFFFFFFFFF AND PUSH20 0xFFFFFFFFFFFFFFFFFFFFFFFFFFFFFFFFFFFFFFFF AND SUB PUSH2 0x2FAC JUMPI PUSH1 0x40 MLOAD PUSH32 0x8C379A000000000000000000000000000000000000000000000000000000000 DUP2 MSTORE PUSH1 0x4 ADD PUSH2 0x2FA3 SWAP1 PUSH2 0x896D JUMP JUMPDEST PUSH1 0x40 MLOAD DUP1 SWAP2 SUB SWAP1 REVERT JUMPDEST DUP1 PUSH20 0xFFFFFFFFFFFFFFFFFFFFFFFFFFFFFFFFFFFFFFFF AND PUSH1 0x3 PUSH1 0x0 DUP4 PUSH20 0xFFFFFFFFFFFFFFFFFFFFFFFFFFFFFFFFFFFFFFFF AND PUSH20 0xFFFFFFFFFFFFFFFFFFFFFFFFFFFFFFFFFFFFFFFF AND DUP2 MSTORE PUSH1 0x20 ADD SWAP1 DUP2 MSTORE PUSH1 0x20 ADD PUSH1 0x0 KECCAK256 PUSH1 0x2 ADD PUSH1 0x0 SWAP1 SLOAD SWAP1 PUSH2 0x100 EXP SWAP1 DIV PUSH20 0xFFFFFFFFFFFFFFFFFFFFFFFFFFFFFFFFFFFFFFFF AND PUSH20 0xFFFFFFFFFFFFFFFFFFFFFFFFFFFFFFFFFFFFFFFF AND EQ PUSH2 0x307C JUMPI PUSH1 0x40 MLOAD PUSH32 0x8C379A000000000000000000000000000000000000000000000000000000000 DUP2 MSTORE PUSH1 0x4 ADD PUSH2 0x3073 SWAP1 PUSH2 0x896D JUMP JUMPDEST PUSH1 0x40 MLOAD DUP1 SWAP2 SUB SWAP1 REVERT JUMPDEST PUSH1 0x0 PUSH1 0x1 DUP2 GT ISZERO PUSH2 0x3090 JUMPI PUSH2 0x308F PUSH2 0x7848 JUMP JUMPDEST JUMPDEST PUSH1 0x3 PUSH1 0x0 DUP4 PUSH20 0xFFFFFFFFFFFFFFFFFFFFFFFFFFFFFFFFFFFFFFFF AND PUSH20 0xFFFFFFFFFFFFFFFFFFFFFFFFFFFFFFFFFFFFFFFF AND DUP2 MSTORE PUSH1 0x20 ADD SWAP1 DUP2 MSTORE PUSH1 0x20 ADD PUSH1 0x0 KECCAK256 PUSH1 0x4 ADD PUSH1 0x2 SWAP1 SLOAD SWAP1 PUSH2 0x100 EXP SWAP1 DIV PUSH1 0xFF AND PUSH1 0x1 DUP2 GT ISZERO PUSH2 0x30F2 JUMPI PUSH2 0x30F1 PUSH2 0x7848 JUMP JUMPDEST JUMPDEST EQ PUSH2 0x3132 JUMPI PUSH1 0x40 MLOAD PUSH32 0x8C379A000000000000000000000000000000000000000000000000000000000 DUP2 MSTORE PUSH1 0x4 ADD PUSH2 0x3129 SWAP1 PUSH2 0x89D9 JUMP JUMPDEST PUSH1 0x40 MLOAD DUP1 SWAP2 SUB SWAP1 REVERT JUMPDEST PUSH1 0x0 PUSH2 0x3142 CALLER DUP7 PUSH1 0x60 ADD MLOAD PUSH2 0x528F JUMP JUMPDEST SWAP1 POP PUSH2 0x314D DUP2 PUSH2 0x52BB JUMP JUMPDEST ISZERO PUSH2 0x318D JUMPI PUSH1 0x40 MLOAD PUSH32 0x8C379A000000000000000000000000000000000000000000000000000000000 DUP2 MSTORE PUSH1 0x4 ADD PUSH2 0x3184 SWAP1 PUSH2 0x914B JUMP JUMPDEST PUSH1 0x40 MLOAD DUP1 SWAP2 SUB SWAP1 REVERT JUMPDEST PUSH1 0x40 MLOAD DUP1 PUSH2 0x140 ADD PUSH1 0x40 MSTORE DUP1 DUP3 DUP2 MSTORE PUSH1 0x20 ADD DUP7 PUSH1 0x60 ADD MLOAD PUSH20 0xFFFFFFFFFFFFFFFFFFFFFFFFFFFFFFFFFFFFFFFF AND DUP2 MSTORE PUSH1 0x20 ADD DUP7 PUSH1 0x0 ADD MLOAD DUP2 MSTORE PUSH1 0x20 ADD CALLER PUSH20 0xFFFFFFFFFFFFFFFFFFFFFFFFFFFFFFFFFFFFFFFF AND DUP2 MSTORE PUSH1 0x20 ADD PUSH2 0x31EE CALLER PUSH2 0x4F60 JUMP JUMPDEST PUSH1 0x0 ADD MLOAD DUP2 MSTORE PUSH1 0x20 ADD DUP7 PUSH1 0xA0 ADD MLOAD DUP2 MSTORE PUSH1 0x20 ADD DUP6 DUP2 MSTORE PUSH1 0x20 ADD PUSH1 0x0 PUSH1 0x2 DUP2 GT ISZERO PUSH2 0x321B JUMPI PUSH2 0x321A PUSH2 0x7848 JUMP JUMPDEST JUMPDEST DUP2 MSTORE PUSH1 0x20 ADD PUSH1 0x0 PUSH1 0x2 DUP2 GT ISZERO PUSH2 0x3234 JUMPI PUSH2 0x3233 PUSH2 0x7848 JUMP JUMPDEST JUMPDEST DUP2 MSTORE PUSH1 0x20 ADD DUP5 DUP2 MSTORE POP PUSH1 0x7 DUP3 PUSH1 0x40 MLOAD PUSH2 0x324D SWAP2 SWAP1 PUSH2 0x8B0D JUMP JUMPDEST SWAP1 DUP2 MSTORE PUSH1 0x20 ADD PUSH1 0x40 MLOAD DUP1 SWAP2 SUB SWAP1 KECCAK256 PUSH1 0x0 DUP3 ADD MLOAD DUP2 PUSH1 0x0 ADD SWAP1 DUP2 PUSH2 0x3270 SWAP2 SWAP1 PUSH2 0x8CD0 JUMP JUMPDEST POP PUSH1 0x20 DUP3 ADD MLOAD DUP2 PUSH1 0x1 ADD PUSH1 0x0 PUSH2 0x100 EXP DUP2 SLOAD DUP2 PUSH20 0xFFFFFFFFFFFFFFFFFFFFFFFFFFFFFFFFFFFFFFFF MUL NOT AND SWAP1 DUP4 PUSH20 0xFFFFFFFFFFFFFFFFFFFFFFFFFFFFFFFFFFFFFFFF AND MUL OR SWAP1 SSTORE POP PUSH1 0x40 DUP3 ADD MLOAD DUP2 PUSH1 0x2 ADD SWAP1 DUP2 PUSH2 0x32CD SWAP2 SWAP1 PUSH2 0x8CD0 JUMP JUMPDEST POP PUSH1 0x60 DUP3 ADD MLOAD DUP2 PUSH1 0x3 ADD PUSH1 0x0 PUSH2 0x100 EXP DUP2 SLOAD DUP2 PUSH20 0xFFFFFFFFFFFFFFFFFFFFFFFFFFFFFFFFFFFFFFFF MUL NOT AND SWAP1 DUP4 PUSH20 0xFFFFFFFFFFFFFFFFFFFFFFFFFFFFFFFFFFFFFFFF AND MUL OR SWAP1 SSTORE POP PUSH1 0x80 DUP3 ADD MLOAD DUP2 PUSH1 0x4 ADD SWAP1 DUP2 PUSH2 0x332A SWAP2 SWAP1 PUSH2 0x8CD0 JUMP JUMPDEST POP PUSH1 0xA0 DUP3 ADD MLOAD DUP2 PUSH1 0x5 ADD SWAP1 DUP2 PUSH2 0x3340 SWAP2 SWAP1 PUSH2 0x8CD0 JUMP JUMPDEST POP PUSH1 0xC0 DUP3 ADD MLOAD DUP2 PUSH1 0x6 ADD SSTORE PUSH1 0xE0 DUP3 ADD MLOAD DUP2 PUSH1 0x7 ADD PUSH1 0x0 PUSH2 0x100 EXP DUP2 SLOAD DUP2 PUSH1 0xFF MUL NOT AND SWAP1 DUP4 PUSH1 0x2 DUP2 GT ISZERO PUSH2 0x3376 JUMPI PUSH2 0x3375 PUSH2 0x7848 JUMP JUMPDEST JUMPDEST MUL OR SWAP1 SSTORE POP PUSH2 0x100 DUP3 ADD MLOAD DUP2 PUSH1 0x7 ADD PUSH1 0x1 PUSH2 0x100 EXP DUP2 SLOAD DUP2 PUSH1 0xFF MUL NOT AND SWAP1 DUP4 PUSH1 0x2 DUP2 GT ISZERO PUSH2 0x33A7 JUMPI PUSH2 0x33A6 PUSH2 0x7848 JUMP JUMPDEST JUMPDEST MUL OR SWAP1 SSTORE POP PUSH2 0x120 DUP3 ADD MLOAD DUP2 PUSH1 0x8 ADD SWAP1 DUP2 PUSH2 0x33C2 SWAP2 SWAP1 PUSH2 0x8CD0 JUMP JUMPDEST POP SWAP1 POP POP PUSH1 0x8 PUSH1 0x0 CALLER PUSH20 0xFFFFFFFFFFFFFFFFFFFFFFFFFFFFFFFFFFFFFFFF AND PUSH20 0xFFFFFFFFFFFFFFFFFFFFFFFFFFFFFFFFFFFFFFFF AND DUP2 MSTORE PUSH1 0x20 ADD SWAP1 DUP2 MSTORE PUSH1 0x20 ADD PUSH1 0x0 KECCAK256 DUP6 PUSH1 0x60 ADD MLOAD SWAP1 DUP1 PUSH1 0x1 DUP2 SLOAD ADD DUP1 DUP3 SSTORE DUP1 SWAP2 POP POP PUSH1 0x1 SWAP1 SUB SWAP1 PUSH1 0x0 MSTORE PUSH1 0x20 PUSH1 0x0 KECCAK256 ADD PUSH1 0x0 SWAP1 SWAP2 SWAP1 SWAP2 SWAP1 SWAP2 PUSH2 0x100 EXP DUP2 SLOAD DUP2 PUSH20 0xFFFFFFFFFFFFFFFFFFFFFFFFFFFFFFFFFFFFFFFF MUL NOT AND SWAP1 DUP4 PUSH20 0xFFFFFFFFFFFFFFFFFFFFFFFFFFFFFFFFFFFFFFFF AND MUL OR SWAP1 SSTORE POP PUSH1 0x9 PUSH1 0x0 DUP7 PUSH1 0x60 ADD MLOAD PUSH20 0xFFFFFFFFFFFFFFFFFFFFFFFFFFFFFFFFFFFFFFFF AND PUSH20 0xFFFFFFFFFFFFFFFFFFFFFFFFFFFFFFFFFFFFFFFF AND DUP2 MSTORE PUSH1 0x20 ADD SWAP1 DUP2 MSTORE PUSH1 0x20 ADD PUSH1 0x0 KECCAK256 CALLER SWAP1 DUP1 PUSH1 0x1 DUP2 SLOAD ADD DUP1 DUP3 SSTORE DUP1 SWAP2 POP POP PUSH1 0x1 SWAP1 SUB SWAP1 PUSH1 0x0 MSTORE PUSH1 0x20 PUSH1 0x0 KECCAK256 ADD PUSH1 0x0 SWAP1 SWAP2 SWAP1 SWAP2 SWAP1 SWAP2 PUSH2 0x100 EXP DUP2 SLOAD DUP2 PUSH20 0xFFFFFFFFFFFFFFFFFFFFFFFFFFFFFFFFFFFFFFFF MUL NOT AND SWAP1 DUP4 PUSH20 0xFFFFFFFFFFFFFFFFFFFFFFFFFFFFFFFFFFFFFFFF AND MUL OR SWAP1 SSTORE POP PUSH32 0x1C9CA7942139211BFB75EC030EE95C38E96F4EB7D755B28D3EEDE55F8D5EB86D DUP2 PUSH1 0x7 DUP4 PUSH1 0x40 MLOAD PUSH2 0x3540 SWAP2 SWAP1 PUSH2 0x8B0D JUMP JUMPDEST SWAP1 DUP2 MSTORE PUSH1 0x20 ADD PUSH1 0x40 MLOAD DUP1 SWAP2 SUB SWAP1 KECCAK256 PUSH1 0x4 ADD DUP8 PUSH1 0x0 ADD MLOAD PUSH1 0x40 MLOAD PUSH2 0x3565 SWAP4 SWAP3 SWAP2 SWAP1 PUSH2 0x916B JUMP JUMPDEST PUSH1 0x40 MLOAD DUP1 SWAP2 SUB SWAP1 LOG1 PUSH2 0x357A DUP6 PUSH1 0x60 ADD MLOAD PUSH2 0x53D0 JUMP JUMPDEST PUSH2 0x3776 JUMPI PUSH2 0x3587 DUP6 PUSH2 0x6205 JUMP JUMPDEST PUSH1 0x40 MLOAD DUP1 PUSH1 0xA0 ADD PUSH1 0x40 MSTORE DUP1 DUP7 PUSH1 0x0 ADD MLOAD DUP2 MSTORE PUSH1 0x20 ADD DUP7 PUSH1 0x20 ADD MLOAD DUP2 MSTORE PUSH1 0x20 ADD DUP7 PUSH1 0x60 ADD MLOAD PUSH20 0xFFFFFFFFFFFFFFFFFFFFFFFFFFFFFFFFFFFFFFFF AND DUP2 MSTORE PUSH1 0x20 ADD PUSH1 0x2 DUP1 DUP2 GT ISZERO PUSH2 0x35D9 JUMPI PUSH2 0x35D8 PUSH2 0x7848 JUMP JUMPDEST JUMPDEST DUP2 MSTORE PUSH1 0x20 ADD PUSH1 0x0 PUSH1 0x1 DUP2 GT ISZERO PUSH2 0x35F2 JUMPI PUSH2 0x35F1 PUSH2 0x7848 JUMP JUMPDEST JUMPDEST DUP2 MSTORE POP PUSH1 0x6 PUSH1 0x0 DUP8 PUSH1 0x60 ADD MLOAD PUSH20 0xFFFFFFFFFFFFFFFFFFFFFFFFFFFFFFFFFFFFFFFF AND PUSH20 0xFFFFFFFFFFFFFFFFFFFFFFFFFFFFFFFFFFFFFFFF AND DUP2 MSTORE PUSH1 0x20 ADD SWAP1 DUP2 MSTORE PUSH1 0x20 ADD PUSH1 0x0 KECCAK256 PUSH1 0x0 DUP3 ADD MLOAD DUP2 PUSH1 0x0 ADD SWAP1 DUP2 PUSH2 0x364D SWAP2 SWAP1 PUSH2 0x8CD0 JUMP JUMPDEST POP PUSH1 0x20 DUP3 ADD MLOAD DUP2 PUSH1 0x1 ADD SWAP1 DUP2 PUSH2 0x3663 SWAP2 SWAP1 PUSH2 0x8CD0 JUMP JUMPDEST POP PUSH1 0x40 DUP3 ADD MLOAD DUP2 PUSH1 0x2 ADD PUSH1 0x0 PUSH2 0x100 EXP DUP2 SLOAD DUP2 PUSH20 0xFFFFFFFFFFFFFFFFFFFFFFFFFFFFFFFFFFFFFFFF MUL NOT AND SWAP1 DUP4 PUSH20 0xFFFFFFFFFFFFFFFFFFFFFFFFFFFFFFFFFFFFFFFF AND MUL OR SWAP1 SSTORE POP PUSH1 0x60 DUP3 ADD MLOAD DUP2 PUSH1 0x2 ADD PUSH1 0x14 PUSH2 0x100 EXP DUP2 SLOAD DUP2 PUSH1 0xFF MUL NOT AND SWAP1 DUP4 PUSH1 0x2 DUP2 GT ISZERO PUSH2 0x36D6 JUMPI PUSH2 0x36D5 PUSH2 0x7848 JUMP JUMPDEST JUMPDEST MUL OR SWAP1 SSTORE POP PUSH1 0x80 DUP3 ADD MLOAD DUP2 PUSH1 0x2 ADD PUSH1 0x15 PUSH2 0x100 EXP DUP2 SLOAD DUP2 PUSH1 0xFF MUL NOT AND SWAP1 DUP4 PUSH1 0x1 DUP2 GT ISZERO PUSH2 0x3706 JUMPI PUSH2 0x3705 PUSH2 0x7848 JUMP JUMPDEST JUMPDEST MUL OR SWAP1 SSTORE POP SWAP1 POP POP PUSH1 0x5 DUP6 PUSH1 0x60 ADD MLOAD SWAP1 DUP1 PUSH1 0x1 DUP2 SLOAD ADD DUP1 DUP3 SSTORE DUP1 SWAP2 POP POP PUSH1 0x1 SWAP1 SUB SWAP1 PUSH1 0x0 MSTORE PUSH1 0x20 PUSH1 0x0 KECCAK256 ADD PUSH1 0x0 SWAP1 SWAP2 SWAP1 SWAP2 SWAP1 SWAP2 PUSH2 0x100 EXP DUP2 SLOAD DUP2 PUSH20 0xFFFFFFFFFFFFFFFFFFFFFFFFFFFFFFFFFFFFFFFF MUL NOT AND SWAP1 DUP4 PUSH20 0xFFFFFFFFFFFFFFFFFFFFFFFFFFFFFFFFFFFFFFFF AND MUL OR SWAP1 SSTORE POP JUMPDEST POP POP POP POP POP JUMP JUMPDEST CALLER PUSH1 0x0 PUSH20 0xFFFFFFFFFFFFFFFFFFFFFFFFFFFFFFFFFFFFFFFF AND DUP2 PUSH20 0xFFFFFFFFFFFFFFFFFFFFFFFFFFFFFFFFFFFFFFFF AND SUB PUSH2 0x37ED JUMPI PUSH1 0x40 MLOAD PUSH32 0x8C379A000000000000000000000000000000000000000000000000000000000 DUP2 MSTORE PUSH1 0x4 ADD PUSH2 0x37E4 SWAP1 PUSH2 0x87C9 JUMP JUMPDEST PUSH1 0x40 MLOAD DUP1 SWAP2 SUB SWAP1 REVERT JUMPDEST PUSH1 0x0 PUSH20 0xFFFFFFFFFFFFFFFFFFFFFFFFFFFFFFFFFFFFFFFF AND PUSH1 0x1 PUSH1 0x0 DUP4 PUSH20 0xFFFFFFFFFFFFFFFFFFFFFFFFFFFFFFFFFFFFFFFF AND PUSH20 0xFFFFFFFFFFFFFFFFFFFFFFFFFFFFFFFFFFFFFFFF AND DUP2 MSTORE PUSH1 0x20 ADD SWAP1 DUP2 MSTORE PUSH1 0x20 ADD PUSH1 0x0 KECCAK256 PUSH1 0x3 ADD PUSH1 0x0 SWAP1 SLOAD SWAP1 PUSH2 0x100 EXP SWAP1 DIV PUSH20 0xFFFFFFFFFFFFFFFFFFFFFFFFFFFFFFFFFFFFFFFF AND PUSH20 0xFFFFFFFFFFFFFFFFFFFFFFFFFFFFFFFFFFFFFFFF AND SUB PUSH2 0x38BE JUMPI PUSH1 0x40 MLOAD PUSH32 0x8C379A000000000000000000000000000000000000000000000000000000000 DUP2 MSTORE PUSH1 0x4 ADD PUSH2 0x38B5 SWAP1 PUSH2 0x8835 JUMP JUMPDEST PUSH1 0x40 MLOAD DUP1 SWAP2 SUB SWAP1 REVERT JUMPDEST PUSH2 0x39A1 PUSH1 0x1 PUSH1 0x0 DUP4 PUSH20 0xFFFFFFFFFFFFFFFFFFFFFFFFFFFFFFFFFFFFFFFF AND PUSH20 0xFFFFFFFFFFFFFFFFFFFFFFFFFFFFFFFFFFFFFFFF AND DUP2 MSTORE PUSH1 0x20 ADD SWAP1 DUP2 MSTORE PUSH1 0x20 ADD PUSH1 0x0 KECCAK256 PUSH1 0x1 ADD DUP1 SLOAD PUSH2 0x390E SWAP1 PUSH2 0x8884 JUMP JUMPDEST DUP1 PUSH1 0x1F ADD PUSH1 0x20 DUP1 SWAP2 DIV MUL PUSH1 0x20 ADD PUSH1 0x40 MLOAD SWAP1 DUP2 ADD PUSH1 0x40 MSTORE DUP1 SWAP3 SWAP2 SWAP1 DUP2 DUP2 MSTORE PUSH1 0x20 ADD DUP3 DUP1 SLOAD PUSH2 0x393A SWAP1 PUSH2 0x8884 JUMP JUMPDEST DUP1 ISZERO PUSH2 0x3987 JUMPI DUP1 PUSH1 0x1F LT PUSH2 0x395C JUMPI PUSH2 0x100 DUP1 DUP4 SLOAD DIV MUL DUP4 MSTORE SWAP2 PUSH1 0x20 ADD SWAP2 PUSH2 0x3987 JUMP JUMPDEST DUP3 ADD SWAP2 SWAP1 PUSH1 0x0 MSTORE PUSH1 0x20 PUSH1 0x0 KECCAK256 SWAP1 JUMPDEST DUP2 SLOAD DUP2 MSTORE SWAP1 PUSH1 0x1 ADD SWAP1 PUSH1 0x20 ADD DUP1 DUP4 GT PUSH2 0x396A JUMPI DUP3 SWAP1 SUB PUSH1 0x1F AND DUP3 ADD SWAP2 JUMPDEST POP POP POP POP POP PUSH1 0x40 MLOAD DUP1 PUSH1 0x20 ADD PUSH1 0x40 MSTORE DUP1 PUSH1 0x0 DUP2 MSTORE POP PUSH2 0x4C38 JUMP JUMPDEST ISZERO PUSH2 0x39E1 JUMPI PUSH1 0x40 MLOAD PUSH32 0x8C379A000000000000000000000000000000000000000000000000000000000 DUP2 MSTORE PUSH1 0x4 ADD PUSH2 0x39D8 SWAP1 PUSH2 0x8901 JUMP JUMPDEST PUSH1 0x40 MLOAD DUP1 SWAP2 SUB SWAP1 REVERT JUMPDEST PUSH2 0x39EC DUP5 DUP5 DUP5 PUSH2 0x63E1 JUMP JUMPDEST DUP4 PUSH1 0x6 PUSH1 0x0 CALLER PUSH20 0xFFFFFFFFFFFFFFFFFFFFFFFFFFFFFFFFFFFFFFFF AND PUSH20 0xFFFFFFFFFFFFFFFFFFFFFFFFFFFFFFFFFFFFFFFF AND DUP2 MSTORE PUSH1 0x20 ADD SWAP1 DUP2 MSTORE PUSH1 0x20 ADD PUSH1 0x0 KECCAK256 PUSH1 0x0 ADD SWAP1 DUP2 PUSH2 0x3A3B SWAP2 SWAP1 PUSH2 0x8CD0 JUMP JUMPDEST POP DUP3 PUSH1 0x6 PUSH1 0x0 CALLER PUSH20 0xFFFFFFFFFFFFFFFFFFFFFFFFFFFFFFFFFFFFFFFF AND PUSH20 0xFFFFFFFFFFFFFFFFFFFFFFFFFFFFFFFFFFFFFFFF AND DUP2 MSTORE PUSH1 0x20 ADD SWAP1 DUP2 MSTORE PUSH1 0x20 ADD PUSH1 0x0 KECCAK256 PUSH1 0x1 ADD SWAP1 DUP2 PUSH2 0x3A8B SWAP2 SWAP1 PUSH2 0x8CD0 JUMP JUMPDEST POP POP POP POP POP JUMP JUMPDEST CALLER PUSH1 0x0 PUSH20 0xFFFFFFFFFFFFFFFFFFFFFFFFFFFFFFFFFFFFFFFF AND DUP2 PUSH20 0xFFFFFFFFFFFFFFFFFFFFFFFFFFFFFFFFFFFFFFFF AND SUB PUSH2 0x3B02 JUMPI PUSH1 0x40 MLOAD PUSH32 0x8C379A000000000000000000000000000000000000000000000000000000000 DUP2 MSTORE PUSH1 0x4 ADD PUSH2 0x3AF9 SWAP1 PUSH2 0x87C9 JUMP JUMPDEST PUSH1 0x40 MLOAD DUP1 SWAP2 SUB SWAP1 REVERT JUMPDEST PUSH1 0x0 PUSH20 0xFFFFFFFFFFFFFFFFFFFFFFFFFFFFFFFFFFFFFFFF AND PUSH1 0x1 PUSH1 0x0 DUP4 PUSH20 0xFFFFFFFFFFFFFFFFFFFFFFFFFFFFFFFFFFFFFFFF AND PUSH20 0xFFFFFFFFFFFFFFFFFFFFFFFFFFFFFFFFFFFFFFFF AND DUP2 MSTORE PUSH1 0x20 ADD SWAP1 DUP2 MSTORE PUSH1 0x20 ADD PUSH1 0x0 KECCAK256 PUSH1 0x3 ADD PUSH1 0x0 SWAP1 SLOAD SWAP1 PUSH2 0x100 EXP SWAP1 DIV PUSH20 0xFFFFFFFFFFFFFFFFFFFFFFFFFFFFFFFFFFFFFFFF AND PUSH20 0xFFFFFFFFFFFFFFFFFFFFFFFFFFFFFFFFFFFFFFFF AND SUB PUSH2 0x3BD3 JUMPI PUSH1 0x40 MLOAD PUSH32 0x8C379A000000000000000000000000000000000000000000000000000000000 DUP2 MSTORE PUSH1 0x4 ADD PUSH2 0x3BCA SWAP1 PUSH2 0x8835 JUMP JUMPDEST PUSH1 0x40 MLOAD DUP1 SWAP2 SUB SWAP1 REVERT JUMPDEST PUSH2 0x3CB6 PUSH1 0x1 PUSH1 0x0 DUP4 PUSH20 0xFFFFFFFFFFFFFFFFFFFFFFFFFFFFFFFFFFFFFFFF AND PUSH20 0xFFFFFFFFFFFFFFFFFFFFFFFFFFFFFFFFFFFFFFFF AND DUP2 MSTORE PUSH1 0x20 ADD SWAP1 DUP2 MSTORE PUSH1 0x20 ADD PUSH1 0x0 KECCAK256 PUSH1 0x1 ADD DUP1 SLOAD PUSH2 0x3C23 SWAP1 PUSH2 0x8884 JUMP JUMPDEST DUP1 PUSH1 0x1F ADD PUSH1 0x20 DUP1 SWAP2 DIV MUL PUSH1 0x20 ADD PUSH1 0x40 MLOAD SWAP1 DUP2 ADD PUSH1 0x40 MSTORE DUP1 SWAP3 SWAP2 SWAP1 DUP2 DUP2 MSTORE PUSH1 0x20 ADD DUP3 DUP1 SLOAD PUSH2 0x3C4F SWAP1 PUSH2 0x8884 JUMP JUMPDEST DUP1 ISZERO PUSH2 0x3C9C JUMPI DUP1 PUSH1 0x1F LT PUSH2 0x3C71 JUMPI PUSH2 0x100 DUP1 DUP4 SLOAD DIV MUL DUP4 MSTORE SWAP2 PUSH1 0x20 ADD SWAP2 PUSH2 0x3C9C JUMP JUMPDEST DUP3 ADD SWAP2 SWAP1 PUSH1 0x0 MSTORE PUSH1 0x20 PUSH1 0x0 KECCAK256 SWAP1 JUMPDEST DUP2 SLOAD DUP2 MSTORE SWAP1 PUSH1 0x1 ADD SWAP1 PUSH1 0x20 ADD DUP1 DUP4 GT PUSH2 0x3C7F JUMPI DUP3 SWAP1 SUB PUSH1 0x1F AND DUP3 ADD SWAP2 JUMPDEST POP POP POP POP POP PUSH1 0x40 MLOAD DUP1 PUSH1 0x20 ADD PUSH1 0x40 MSTORE DUP1 PUSH1 0x0 DUP2 MSTORE POP PUSH2 0x4C38 JUMP JUMPDEST ISZERO PUSH2 0x3CF6 JUMPI PUSH1 0x40 MLOAD PUSH32 0x8C379A000000000000000000000000000000000000000000000000000000000 DUP2 MSTORE PUSH1 0x4 ADD PUSH2 0x3CED SWAP1 PUSH2 0x8901 JUMP JUMPDEST PUSH1 0x40 MLOAD DUP1 SWAP2 SUB SWAP1 REVERT JUMPDEST PUSH2 0x3D00 DUP4 DUP4 PUSH2 0x6508 JUMP JUMPDEST PUSH1 0x0 PUSH1 0x9 PUSH1 0x0 CALLER PUSH20 0xFFFFFFFFFFFFFFFFFFFFFFFFFFFFFFFFFFFFFFFF AND PUSH20 0xFFFFFFFFFFFFFFFFFFFFFFFFFFFFFFFFFFFFFFFF AND DUP2 MSTORE PUSH1 0x20 ADD SWAP1 DUP2 MSTORE PUSH1 0x20 ADD PUSH1 0x0 KECCAK256 DUP1 SLOAD DUP1 PUSH1 0x20 MUL PUSH1 0x20 ADD PUSH1 0x40 MLOAD SWAP1 DUP2 ADD PUSH1 0x40 MSTORE DUP1 SWAP3 SWAP2 SWAP1 DUP2 DUP2 MSTORE PUSH1 0x20 ADD DUP3 DUP1 SLOAD DUP1 ISZERO PUSH2 0x3DC1 JUMPI PUSH1 0x20 MUL DUP3 ADD SWAP2 SWAP1 PUSH1 0x0 MSTORE PUSH1 0x20 PUSH1 0x0 KECCAK256 SWAP1 JUMPDEST DUP2 PUSH1 0x0 SWAP1 SLOAD SWAP1 PUSH2 0x100 EXP SWAP1 DIV PUSH20 0xFFFFFFFFFFFFFFFFFFFFFFFFFFFFFFFFFFFFFFFF AND PUSH20 0xFFFFFFFFFFFFFFFFFFFFFFFFFFFFFFFFFFFFFFFF AND DUP2 MSTORE PUSH1 0x20 ADD SWAP1 PUSH1 0x1 ADD SWAP1 DUP1 DUP4 GT PUSH2 0x3D77 JUMPI JUMPDEST POP POP POP POP POP SWAP1 POP PUSH1 0x0 JUMPDEST DUP2 MLOAD DUP2 LT ISZERO PUSH2 0x3F22 JUMPI PUSH1 0x0 PUSH2 0x3DFA DUP4 DUP4 DUP2 MLOAD DUP2 LT PUSH2 0x3DEC JUMPI PUSH2 0x3DEB PUSH2 0x8F17 JUMP JUMPDEST JUMPDEST PUSH1 0x20 MUL PUSH1 0x20 ADD ADD MLOAD CALLER PUSH2 0x528F JUMP JUMPDEST SWAP1 POP PUSH2 0x3E05 DUP2 PUSH2 0x52BB JUMP JUMPDEST ISZERO PUSH2 0x3F0E JUMPI DUP6 PUSH1 0x7 DUP3 PUSH1 0x40 MLOAD PUSH2 0x3E1B SWAP2 SWAP1 PUSH2 0x8B0D JUMP JUMPDEST SWAP1 DUP2 MSTORE PUSH1 0x20 ADD PUSH1 0x40 MLOAD DUP1 SWAP2 SUB SWAP1 KECCAK256 PUSH1 0x5 ADD SWAP1 DUP2 PUSH2 0x3E38 SWAP2 SWAP1 PUSH2 0x8CD0 JUMP JUMPDEST POP DUP5 PUSH1 0x7 DUP3 PUSH1 0x40 MLOAD PUSH2 0x3E4A SWAP2 SWAP1 PUSH2 0x8B0D JUMP JUMPDEST SWAP1 DUP2 MSTORE PUSH1 0x20 ADD PUSH1 0x40 MLOAD DUP1 SWAP2 SUB SWAP1 KECCAK256 PUSH1 0x6 ADD DUP2 SWAP1 SSTORE POP PUSH1 0x0 PUSH1 0x7 DUP3 PUSH1 0x40 MLOAD PUSH2 0x3E71 SWAP2 SWAP1 PUSH2 0x8B0D JUMP JUMPDEST SWAP1 DUP2 MSTORE PUSH1 0x20 ADD PUSH1 0x40 MLOAD DUP1 SWAP2 SUB SWAP1 KECCAK256 PUSH1 0x7 ADD PUSH1 0x0 PUSH2 0x100 EXP DUP2 SLOAD DUP2 PUSH1 0xFF MUL NOT AND SWAP1 DUP4 PUSH1 0x2 DUP2 GT ISZERO PUSH2 0x3EA4 JUMPI PUSH2 0x3EA3 PUSH2 0x7848 JUMP JUMPDEST JUMPDEST MUL OR SWAP1 SSTORE POP PUSH1 0x40 MLOAD DUP1 PUSH1 0x40 ADD PUSH1 0x40 MSTORE DUP1 PUSH1 0x13 DUP2 MSTORE PUSH1 0x20 ADD PUSH32 0x5570646174656420616C6C206D7920646F637300000000000000000000000000 DUP2 MSTORE POP PUSH1 0x7 DUP3 PUSH1 0x40 MLOAD PUSH2 0x3EEF SWAP2 SWAP1 PUSH2 0x8B0D JUMP JUMPDEST SWAP1 DUP2 MSTORE PUSH1 0x20 ADD PUSH1 0x40 MLOAD DUP1 SWAP2 SUB SWAP1 KECCAK256 PUSH1 0x8 ADD SWAP1 DUP2 PUSH2 0x3F0C SWAP2 SWAP1 PUSH2 0x8CD0 JUMP JUMPDEST POP JUMPDEST POP DUP1 DUP1 PUSH2 0x3F1A SWAP1 PUSH2 0x8F75 JUMP JUMPDEST SWAP2 POP POP PUSH2 0x3DCB JUMP JUMPDEST POP POP POP POP POP JUMP JUMPDEST PUSH1 0x4 PUSH1 0x0 SWAP1 SLOAD SWAP1 PUSH2 0x100 EXP SWAP1 DIV PUSH20 0xFFFFFFFFFFFFFFFFFFFFFFFFFFFFFFFFFFFFFFFF AND PUSH20 0xFFFFFFFFFFFFFFFFFFFFFFFFFFFFFFFFFFFFFFFF AND CALLER PUSH20 0xFFFFFFFFFFFFFFFFFFFFFFFFFFFFFFFFFFFFFFFF AND EQ PUSH2 0x3FB9 JUMPI PUSH1 0x40 MLOAD PUSH32 0x8C379A000000000000000000000000000000000000000000000000000000000 DUP2 MSTORE PUSH1 0x4 ADD PUSH2 0x3FB0 SWAP1 PUSH2 0x8EF7 JUMP JUMPDEST PUSH1 0x40 MLOAD DUP1 SWAP2 SUB SWAP1 REVERT JUMPDEST PUSH2 0x3FC3 DUP3 DUP3 PUSH2 0x661F JUMP JUMPDEST PUSH1 0x6 PUSH1 0x0 DUP5 PUSH20 0xFFFFFFFFFFFFFFFFFFFFFFFFFFFFFFFFFFFFFFFF AND PUSH20 0xFFFFFFFFFFFFFFFFFFFFFFFFFFFFFFFFFFFFFFFF AND DUP2 MSTORE PUSH1 0x20 ADD SWAP1 DUP2 MSTORE PUSH1 0x20 ADD PUSH1 0x0 KECCAK256 PUSH1 0x2 ADD PUSH1 0x15 PUSH2 0x100 EXP DUP2 SLOAD DUP2 PUSH1 0xFF MUL NOT AND SWAP1 DUP4 PUSH1 0x1 DUP2 GT ISZERO PUSH2 0x4027 JUMPI PUSH2 0x4026 PUSH2 0x7848 JUMP JUMPDEST JUMPDEST MUL OR SWAP1 SSTORE POP POP POP JUMP JUMPDEST PUSH1 0x0 PUSH1 0x60 CALLER PUSH1 0x0 PUSH20 0xFFFFFFFFFFFFFFFFFFFFFFFFFFFFFFFFFFFFFFFF AND PUSH1 0x3 PUSH1 0x0 DUP4 PUSH20 0xFFFFFFFFFFFFFFFFFFFFFFFFFFFFFFFFFFFFFFFF AND PUSH20 0xFFFFFFFFFFFFFFFFFFFFFFFFFFFFFFFFFFFFFFFF AND DUP2 MSTORE PUSH1 0x20 ADD SWAP1 DUP2 MSTORE PUSH1 0x20 ADD PUSH1 0x0 KECCAK256 PUSH1 0x2 ADD PUSH1 0x0 SWAP1 SLOAD SWAP1 PUSH2 0x100 EXP SWAP1 DIV PUSH20 0xFFFFFFFFFFFFFFFFFFFFFFFFFFFFFFFFFFFFFFFF AND PUSH20 0xFFFFFFFFFFFFFFFFFFFFFFFFFFFFFFFFFFFFFFFF AND SUB PUSH2 0x4106 JUMPI PUSH1 0x40 MLOAD PUSH32 0x8C379A000000000000000000000000000000000000000000000000000000000 DUP2 MSTORE PUSH1 0x4 ADD PUSH2 0x40FD SWAP1 PUSH2 0x896D JUMP JUMPDEST PUSH1 0x40 MLOAD DUP1 SWAP2 SUB SWAP1 REVERT JUMPDEST DUP1 PUSH20 0xFFFFFFFFFFFFFFFFFFFFFFFFFFFFFFFFFFFFFFFF AND PUSH1 0x3 PUSH1 0x0 DUP4 PUSH20 0xFFFFFFFFFFFFFFFFFFFFFFFFFFFFFFFFFFFFFFFF AND PUSH20 0xFFFFFFFFFFFFFFFFFFFFFFFFFFFFFFFFFFFFFFFF AND DUP2 MSTORE PUSH1 0x20 ADD SWAP1 DUP2 MSTORE PUSH1 0x20 ADD PUSH1 0x0 KECCAK256 PUSH1 0x2 ADD PUSH1 0x0 SWAP1 SLOAD SWAP1 PUSH2 0x100 EXP SWAP1 DIV PUSH20 0xFFFFFFFFFFFFFFFFFFFFFFFFFFFFFFFFFFFFFFFF AND PUSH20 0xFFFFFFFFFFFFFFFFFFFFFFFFFFFFFFFFFFFFFFFF AND EQ PUSH2 0x41D6 JUMPI PUSH1 0x40 MLOAD PUSH32 0x8C379A000000000000000000000000000000000000000000000000000000000 DUP2 MSTORE PUSH1 0x4 ADD PUSH2 0x41CD SWAP1 PUSH2 0x896D JUMP JUMPDEST PUSH1 0x40 MLOAD DUP1 SWAP2 SUB SWAP1 REVERT JUMPDEST PUSH1 0x0 PUSH1 0x1 DUP2 GT ISZERO PUSH2 0x41EA JUMPI PUSH2 0x41E9 PUSH2 0x7848 JUMP JUMPDEST JUMPDEST PUSH1 0x3 PUSH1 0x0 DUP4 PUSH20 0xFFFFFFFFFFFFFFFFFFFFFFFFFFFFFFFFFFFFFFFF AND PUSH20 0xFFFFFFFFFFFFFFFFFFFFFFFFFFFFFFFFFFFFFFFF AND DUP2 MSTORE PUSH1 0x20 ADD SWAP1 DUP2 MSTORE PUSH1 0x20 ADD PUSH1 0x0 KECCAK256 PUSH1 0x4 ADD PUSH1 0x2 SWAP1 SLOAD SWAP1 PUSH2 0x100 EXP SWAP1 DIV PUSH1 0xFF AND PUSH1 0x1 DUP2 GT ISZERO PUSH2 0x424C JUMPI PUSH2 0x424B PUSH2 0x7848 JUMP JUMPDEST JUMPDEST EQ PUSH2 0x428C JUMPI PUSH1 0x40 MLOAD PUSH32 0x8C379A000000000000000000000000000000000000000000000000000000000 DUP2 MSTORE PUSH1 0x4 ADD PUSH2 0x4283 SWAP1 PUSH2 0x89D9 JUMP JUMPDEST PUSH1 0x40 MLOAD DUP1 SWAP2 SUB SWAP1 REVERT JUMPDEST PUSH2 0x4297 DUP5 PUSH1 0x1 PUSH2 0x6A30 JUMP JUMPDEST SWAP3 POP SWAP3 POP POP SWAP2 POP SWAP2 JUMP JUMPDEST PUSH2 0x42A9 PUSH2 0x759F JUMP JUMPDEST PUSH1 0x0 PUSH20 0xFFFFFFFFFFFFFFFFFFFFFFFFFFFFFFFFFFFFFFFF AND CALLER PUSH20 0xFFFFFFFFFFFFFFFFFFFFFFFFFFFFFFFFFFFFFFFF AND SUB PUSH2 0x4318 JUMPI PUSH1 0x40 MLOAD PUSH32 0x8C379A000000000000000000000000000000000000000000000000000000000 DUP2 MSTORE PUSH1 0x4 ADD PUSH2 0x430F SWAP1 PUSH2 0x9203 JUMP JUMPDEST PUSH1 0x40 MLOAD DUP1 SWAP2 SUB SWAP1 REVERT JUMPDEST PUSH1 0x0 PUSH20 0xFFFFFFFFFFFFFFFFFFFFFFFFFFFFFFFFFFFFFFFF AND PUSH1 0x6 PUSH1 0x0 CALLER PUSH20 0xFFFFFFFFFFFFFFFFFFFFFFFFFFFFFFFFFFFFFFFF AND PUSH20 0xFFFFFFFFFFFFFFFFFFFFFFFFFFFFFFFFFFFFFFFF AND DUP2 MSTORE PUSH1 0x20 ADD SWAP1 DUP2 MSTORE PUSH1 0x20 ADD PUSH1 0x0 KECCAK256 PUSH1 0x2 ADD PUSH1 0x0 SWAP1 SLOAD SWAP1 PUSH2 0x100 EXP SWAP1 DIV PUSH20 0xFFFFFFFFFFFFFFFFFFFFFFFFFFFFFFFFFFFFFFFF AND PUSH20 0xFFFFFFFFFFFFFFFFFFFFFFFFFFFFFFFFFFFFFFFF AND SUB PUSH2 0x43E9 JUMPI PUSH1 0x40 MLOAD PUSH32 0x8C379A000000000000000000000000000000000000000000000000000000000 DUP2 MSTORE PUSH1 0x4 ADD PUSH2 0x43E0 SWAP1 PUSH2 0x8835 JUMP JUMPDEST PUSH1 0x40 MLOAD DUP1 SWAP2 SUB SWAP1 REVERT JUMPDEST PUSH1 0x6 PUSH1 0x0 CALLER PUSH20 0xFFFFFFFFFFFFFFFFFFFFFFFFFFFFFFFFFFFFFFFF AND PUSH20 0xFFFFFFFFFFFFFFFFFFFFFFFFFFFFFFFFFFFFFFFF AND DUP2 MSTORE PUSH1 0x20 ADD SWAP1 DUP2 MSTORE PUSH1 0x20 ADD PUSH1 0x0 KECCAK256 PUSH1 0x40 MLOAD DUP1 PUSH1 0xA0 ADD PUSH1 0x40 MSTORE SWAP1 DUP2 PUSH1 0x0 DUP3 ADD DUP1 SLOAD PUSH2 0x4443 SWAP1 PUSH2 0x8884 JUMP JUMPDEST DUP1 PUSH1 0x1F ADD PUSH1 0x20 DUP1 SWAP2 DIV MUL PUSH1 0x20 ADD PUSH1 0x40 MLOAD SWAP1 DUP2 ADD PUSH1 0x40 MSTORE DUP1 SWAP3 SWAP2 SWAP1 DUP2 DUP2 MSTORE PUSH1 0x20 ADD DUP3 DUP1 SLOAD PUSH2 0x446F SWAP1 PUSH2 0x8884 JUMP JUMPDEST DUP1 ISZERO PUSH2 0x44BC JUMPI DUP1 PUSH1 0x1F LT PUSH2 0x4491 JUMPI PUSH2 0x100 DUP1 DUP4 SLOAD DIV MUL DUP4 MSTORE SWAP2 PUSH1 0x20 ADD SWAP2 PUSH2 0x44BC JUMP JUMPDEST DUP3 ADD SWAP2 SWAP1 PUSH1 0x0 MSTORE PUSH1 0x20 PUSH1 0x0 KECCAK256 SWAP1 JUMPDEST DUP2 SLOAD DUP2 MSTORE SWAP1 PUSH1 0x1 ADD SWAP1 PUSH1 0x20 ADD DUP1 DUP4 GT PUSH2 0x449F JUMPI DUP3 SWAP1 SUB PUSH1 0x1F AND DUP3 ADD SWAP2 JUMPDEST POP POP POP POP POP DUP2 MSTORE PUSH1 0x20 ADD PUSH1 0x1 DUP3 ADD DUP1 SLOAD PUSH2 0x44D5 SWAP1 PUSH2 0x8884 JUMP JUMPDEST DUP1 PUSH1 0x1F ADD PUSH1 0x20 DUP1 SWAP2 DIV MUL PUSH1 0x20 ADD PUSH1 0x40 MLOAD SWAP1 DUP2 ADD PUSH1 0x40 MSTORE DUP1 SWAP3 SWAP2 SWAP1 DUP2 DUP2 MSTORE PUSH1 0x20 ADD DUP3 DUP1 SLOAD PUSH2 0x4501 SWAP1 PUSH2 0x8884 JUMP JUMPDEST DUP1 ISZERO PUSH2 0x454E JUMPI DUP1 PUSH1 0x1F LT PUSH2 0x4523 JUMPI PUSH2 0x100 DUP1 DUP4 SLOAD DIV MUL DUP4 MSTORE SWAP2 PUSH1 0x20 ADD SWAP2 PUSH2 0x454E JUMP JUMPDEST DUP3 ADD SWAP2 SWAP1 PUSH1 0x0 MSTORE PUSH1 0x20 PUSH1 0x0 KECCAK256 SWAP1 JUMPDEST DUP2 SLOAD DUP2 MSTORE SWAP1 PUSH1 0x1 ADD SWAP1 PUSH1 0x20 ADD DUP1 DUP4 GT PUSH2 0x4531 JUMPI DUP3 SWAP1 SUB PUSH1 0x1F AND DUP3 ADD SWAP2 JUMPDEST POP POP POP POP POP DUP2 MSTORE PUSH1 0x20 ADD PUSH1 0x2 DUP3 ADD PUSH1 0x0 SWAP1 SLOAD SWAP1 PUSH2 0x100 EXP SWAP1 DIV PUSH20 0xFFFFFFFFFFFFFFFFFFFFFFFFFFFFFFFFFFFFFFFF AND PUSH20 0xFFFFFFFFFFFFFFFFFFFFFFFFFFFFFFFFFFFFFFFF AND PUSH20 0xFFFFFFFFFFFFFFFFFFFFFFFFFFFFFFFFFFFFFFFF AND DUP2 MSTORE PUSH1 0x20 ADD PUSH1 0x2 DUP3 ADD PUSH1 0x14 SWAP1 SLOAD SWAP1 PUSH2 0x100 EXP SWAP1 DIV PUSH1 0xFF AND PUSH1 0x2 DUP2 GT ISZERO PUSH2 0x45D2 JUMPI PUSH2 0x45D1 PUSH2 0x7848 JUMP JUMPDEST JUMPDEST PUSH1 0x2 DUP2 GT ISZERO PUSH2 0x45E4 JUMPI PUSH2 0x45E3 PUSH2 0x7848 JUMP JUMPDEST JUMPDEST DUP2 MSTORE PUSH1 0x20 ADD PUSH1 0x2 DUP3 ADD PUSH1 0x15 SWAP1 SLOAD SWAP1 PUSH2 0x100 EXP SWAP1 DIV PUSH1 0xFF AND PUSH1 0x1 DUP2 GT ISZERO PUSH2 0x460D JUMPI PUSH2 0x460C PUSH2 0x7848 JUMP JUMPDEST JUMPDEST PUSH1 0x1 DUP2 GT ISZERO PUSH2 0x461F JUMPI PUSH2 0x461E PUSH2 0x7848 JUMP JUMPDEST JUMPDEST DUP2 MSTORE POP POP SWAP1 POP SWAP1 JUMP JUMPDEST PUSH1 0x0 PUSH1 0x60 CALLER PUSH1 0x0 PUSH20 0xFFFFFFFFFFFFFFFFFFFFFFFFFFFFFFFFFFFFFFFF AND DUP2 PUSH20 0xFFFFFFFFFFFFFFFFFFFFFFFFFFFFFFFFFFFFFFFF AND SUB PUSH2 0x469C JUMPI PUSH1 0x40 MLOAD PUSH32 0x8C379A000000000000000000000000000000000000000000000000000000000 DUP2 MSTORE PUSH1 0x4 ADD PUSH2 0x4693 SWAP1 PUSH2 0x87C9 JUMP JUMPDEST PUSH1 0x40 MLOAD DUP1 SWAP2 SUB SWAP1 REVERT JUMPDEST PUSH1 0x0 PUSH20 0xFFFFFFFFFFFFFFFFFFFFFFFFFFFFFFFFFFFFFFFF AND PUSH1 0x1 PUSH1 0x0 DUP4 PUSH20 0xFFFFFFFFFFFFFFFFFFFFFFFFFFFFFFFFFFFFFFFF AND PUSH20 0xFFFFFFFFFFFFFFFFFFFFFFFFFFFFFFFFFFFFFFFF AND DUP2 MSTORE PUSH1 0x20 ADD SWAP1 DUP2 MSTORE PUSH1 0x20 ADD PUSH1 0x0 KECCAK256 PUSH1 0x3 ADD PUSH1 0x0 SWAP1 SLOAD SWAP1 PUSH2 0x100 EXP SWAP1 DIV PUSH20 0xFFFFFFFFFFFFFFFFFFFFFFFFFFFFFFFFFFFFFFFF AND PUSH20 0xFFFFFFFFFFFFFFFFFFFFFFFFFFFFFFFFFFFFFFFF AND SUB PUSH2 0x476D JUMPI PUSH1 0x40 MLOAD PUSH32 0x8C379A000000000000000000000000000000000000000000000000000000000 DUP2 MSTORE PUSH1 0x4 ADD PUSH2 0x4764 SWAP1 PUSH2 0x8835 JUMP JUMPDEST PUSH1 0x40 MLOAD DUP1 SWAP2 SUB SWAP1 REVERT JUMPDEST PUSH2 0x4850 PUSH1 0x1 PUSH1 0x0 DUP4 PUSH20 0xFFFFFFFFFFFFFFFFFFFFFFFFFFFFFFFFFFFFFFFF AND PUSH20 0xFFFFFFFFFFFFFFFFFFFFFFFFFFFFFFFFFFFFFFFF AND DUP2 MSTORE PUSH1 0x20 ADD SWAP1 DUP2 MSTORE PUSH1 0x20 ADD PUSH1 0x0 KECCAK256 PUSH1 0x1 ADD DUP1 SLOAD PUSH2 0x47BD SWAP1 PUSH2 0x8884 JUMP JUMPDEST DUP1 PUSH1 0x1F ADD PUSH1 0x20 DUP1 SWAP2 DIV MUL PUSH1 0x20 ADD PUSH1 0x40 MLOAD SWAP1 DUP2 ADD PUSH1 0x40 MSTORE DUP1 SWAP3 SWAP2 SWAP1 DUP2 DUP2 MSTORE PUSH1 0x20 ADD DUP3 DUP1 SLOAD PUSH2 0x47E9 SWAP1 PUSH2 0x8884 JUMP JUMPDEST DUP1 ISZERO PUSH2 0x4836 JUMPI DUP1 PUSH1 0x1F LT PUSH2 0x480B JUMPI PUSH2 0x100 DUP1 DUP4 SLOAD DIV MUL DUP4 MSTORE SWAP2 PUSH1 0x20 ADD SWAP2 PUSH2 0x4836 JUMP JUMPDEST DUP3 ADD SWAP2 SWAP1 PUSH1 0x0 MSTORE PUSH1 0x20 PUSH1 0x0 KECCAK256 SWAP1 JUMPDEST DUP2 SLOAD DUP2 MSTORE SWAP1 PUSH1 0x1 ADD SWAP1 PUSH1 0x20 ADD DUP1 DUP4 GT PUSH2 0x4819 JUMPI DUP3 SWAP1 SUB PUSH1 0x1F AND DUP3 ADD SWAP2 JUMPDEST POP POP POP POP POP PUSH1 0x40 MLOAD DUP1 PUSH1 0x20 ADD PUSH1 0x40 MSTORE DUP1 PUSH1 0x0 DUP2 MSTORE POP PUSH2 0x4C38 JUMP JUMPDEST ISZERO PUSH2 0x4890 JUMPI PUSH1 0x40 MLOAD PUSH32 0x8C379A000000000000000000000000000000000000000000000000000000000 DUP2 MSTORE PUSH1 0x4 ADD PUSH2 0x4887 SWAP1 PUSH2 0x8901 JUMP JUMPDEST PUSH1 0x40 MLOAD DUP1 SWAP2 SUB SWAP1 REVERT JUMPDEST PUSH2 0x489B DUP5 PUSH1 0x0 PUSH2 0x6A30 JUMP JUMPDEST SWAP3 POP SWAP3 POP POP SWAP2 POP SWAP2 JUMP JUMPDEST CALLER PUSH1 0x0 PUSH20 0xFFFFFFFFFFFFFFFFFFFFFFFFFFFFFFFFFFFFFFFF AND PUSH1 0x3 PUSH1 0x0 DUP4 PUSH20 0xFFFFFFFFFFFFFFFFFFFFFFFFFFFFFFFFFFFFFFFF AND PUSH20 0xFFFFFFFFFFFFFFFFFFFFFFFFFFFFFFFFFFFFFFFF AND DUP2 MSTORE PUSH1 0x20 ADD SWAP1 DUP2 MSTORE PUSH1 0x20 ADD PUSH1 0x0 KECCAK256 PUSH1 0x2 ADD PUSH1 0x0 SWAP1 SLOAD SWAP1 PUSH2 0x100 EXP SWAP1 DIV PUSH20 0xFFFFFFFFFFFFFFFFFFFFFFFFFFFFFFFFFFFFFFFF AND PUSH20 0xFFFFFFFFFFFFFFFFFFFFFFFFFFFFFFFFFFFFFFFF AND SUB PUSH2 0x4977 JUMPI PUSH1 0x40 MLOAD PUSH32 0x8C379A000000000000000000000000000000000000000000000000000000000 DUP2 MSTORE PUSH1 0x4 ADD PUSH2 0x496E SWAP1 PUSH2 0x896D JUMP JUMPDEST PUSH1 0x40 MLOAD DUP1 SWAP2 SUB SWAP1 REVERT JUMPDEST DUP1 PUSH20 0xFFFFFFFFFFFFFFFFFFFFFFFFFFFFFFFFFFFFFFFF AND PUSH1 0x3 PUSH1 0x0 DUP4 PUSH20 0xFFFFFFFFFFFFFFFFFFFFFFFFFFFFFFFFFFFFFFFF AND PUSH20 0xFFFFFFFFFFFFFFFFFFFFFFFFFFFFFFFFFFFFFFFF AND DUP2 MSTORE PUSH1 0x20 ADD SWAP1 DUP2 MSTORE PUSH1 0x20 ADD PUSH1 0x0 KECCAK256 PUSH1 0x2 ADD PUSH1 0x0 SWAP1 SLOAD SWAP1 PUSH2 0x100 EXP SWAP1 DIV PUSH20 0xFFFFFFFFFFFFFFFFFFFFFFFFFFFFFFFFFFFFFFFF AND PUSH20 0xFFFFFFFFFFFFFFFFFFFFFFFFFFFFFFFFFFFFFFFF AND EQ PUSH2 0x4A47 JUMPI PUSH1 0x40 MLOAD PUSH32 0x8C379A000000000000000000000000000000000000000000000000000000000 DUP2 MSTORE PUSH1 0x4 ADD PUSH2 0x4A3E SWAP1 PUSH2 0x896D JUMP JUMPDEST PUSH1 0x40 MLOAD DUP1 SWAP2 SUB SWAP1 REVERT JUMPDEST PUSH1 0x0 PUSH1 0x1 DUP2 GT ISZERO PUSH2 0x4A5B JUMPI PUSH2 0x4A5A PUSH2 0x7848 JUMP JUMPDEST JUMPDEST PUSH1 0x3 PUSH1 0x0 DUP4 PUSH20 0xFFFFFFFFFFFFFFFFFFFFFFFFFFFFFFFFFFFFFFFF AND PUSH20 0xFFFFFFFFFFFFFFFFFFFFFFFFFFFFFFFFFFFFFFFF AND DUP2 MSTORE PUSH1 0x20 ADD SWAP1 DUP2 MSTORE PUSH1 0x20 ADD PUSH1 0x0 KECCAK256 PUSH1 0x4 ADD PUSH1 0x2 SWAP1 SLOAD SWAP1 PUSH2 0x100 EXP SWAP1 DIV PUSH1 0xFF AND PUSH1 0x1 DUP2 GT ISZERO PUSH2 0x4ABD JUMPI PUSH2 0x4ABC PUSH2 0x7848 JUMP JUMPDEST JUMPDEST EQ PUSH2 0x4AFD JUMPI PUSH1 0x40 MLOAD PUSH32 0x8C379A000000000000000000000000000000000000000000000000000000000 DUP2 MSTORE PUSH1 0x4 ADD PUSH2 0x4AF4 SWAP1 PUSH2 0x89D9 JUMP JUMPDEST PUSH1 0x40 MLOAD DUP1 SWAP2 SUB SWAP1 REVERT JUMPDEST PUSH1 0x0 PUSH2 0x4B09 CALLER DUP7 PUSH2 0x528F JUMP JUMPDEST SWAP1 POP PUSH2 0x4B14 DUP2 PUSH2 0x52BB JUMP JUMPDEST PUSH2 0x4B53 JUMPI PUSH1 0x40 MLOAD PUSH32 0x8C379A000000000000000000000000000000000000000000000000000000000 DUP2 MSTORE PUSH1 0x4 ADD PUSH2 0x4B4A SWAP1 PUSH2 0x9009 JUMP JUMPDEST PUSH1 0x40 MLOAD DUP1 SWAP2 SUB SWAP1 REVERT JUMPDEST PUSH1 0x0 DUP5 ISZERO PUSH2 0x4B76 JUMPI PUSH1 0x1 SWAP1 POP PUSH2 0x4B68 CALLER PUSH2 0x71A7 JUMP JUMPDEST PUSH2 0x4B71 DUP7 PUSH2 0x7294 JUMP JUMPDEST PUSH2 0x4B7B JUMP JUMPDEST PUSH1 0x2 SWAP1 POP JUMPDEST DUP1 PUSH1 0x7 DUP4 PUSH1 0x40 MLOAD PUSH2 0x4B8C SWAP2 SWAP1 PUSH2 0x8B0D JUMP JUMPDEST SWAP1 DUP2 MSTORE PUSH1 0x20 ADD PUSH1 0x40 MLOAD DUP1 SWAP2 SUB SWAP1 KECCAK256 PUSH1 0x7 ADD PUSH1 0x0 PUSH2 0x100 EXP DUP2 SLOAD DUP2 PUSH1 0xFF MUL NOT AND SWAP1 DUP4 PUSH1 0x2 DUP2 GT ISZERO PUSH2 0x4BBF JUMPI PUSH2 0x4BBE PUSH2 0x7848 JUMP JUMPDEST JUMPDEST MUL OR SWAP1 SSTORE POP DUP4 PUSH1 0x7 DUP4 PUSH1 0x40 MLOAD PUSH2 0x4BD5 SWAP2 SWAP1 PUSH2 0x8B0D JUMP JUMPDEST SWAP1 DUP2 MSTORE PUSH1 0x20 ADD PUSH1 0x40 MLOAD DUP1 SWAP2 SUB SWAP1 KECCAK256 PUSH1 0x8 ADD SWAP1 DUP2 PUSH2 0x4BF2 SWAP2 SWAP1 PUSH2 0x8CD0 JUMP JUMPDEST POP PUSH32 0x900B83A690E29FF7D6E76E350983AFEA30403D6C47FE8CE52045FB20074C79A0 DUP3 DUP8 CALLER DUP5 PUSH1 0x40 MLOAD PUSH2 0x4C28 SWAP5 SWAP4 SWAP3 SWAP2 SWAP1 PUSH2 0x9232 JUMP JUMPDEST PUSH1 0x40 MLOAD DUP1 SWAP2 SUB SWAP1 LOG1 POP POP POP POP POP POP JUMP JUMPDEST PUSH1 0x0 DUP2 PUSH1 0x40 MLOAD PUSH1 0x20 ADD PUSH2 0x4C4B SWAP2 SWAP1 PUSH2 0x8B0D JUMP JUMPDEST PUSH1 0x40 MLOAD PUSH1 0x20 DUP2 DUP4 SUB SUB DUP2 MSTORE SWAP1 PUSH1 0x40 MSTORE DUP1 MLOAD SWAP1 PUSH1 0x20 ADD KECCAK256 DUP4 PUSH1 0x40 MLOAD PUSH1 0x20 ADD PUSH2 0x4C72 SWAP2 SWAP1 PUSH2 0x8B0D JUMP JUMPDEST PUSH1 0x40 MLOAD PUSH1 0x20 DUP2 DUP4 SUB SUB DUP2 MSTORE SWAP1 PUSH1 0x40 MSTORE DUP1 MLOAD SWAP1 PUSH1 0x20 ADD KECCAK256 EQ SWAP1 POP SWAP3 SWAP2 POP POP JUMP JUMPDEST PUSH2 0x4C99 PUSH2 0x7431 JUMP JUMPDEST PUSH1 0x1 PUSH1 0x0 DUP4 PUSH20 0xFFFFFFFFFFFFFFFFFFFFFFFFFFFFFFFFFFFFFFFF AND PUSH20 0xFFFFFFFFFFFFFFFFFFFFFFFFFFFFFFFFFFFFFFFF AND DUP2 MSTORE PUSH1 0x20 ADD SWAP1 DUP2 MSTORE PUSH1 0x20 ADD PUSH1 0x0 KECCAK256 PUSH1 0x40 MLOAD DUP1 PUSH1 0xE0 ADD PUSH1 0x40 MSTORE SWAP1 DUP2 PUSH1 0x0 DUP3 ADD DUP1 SLOAD PUSH2 0x4CF3 SWAP1 PUSH2 0x8884 JUMP JUMPDEST DUP1 PUSH1 0x1F ADD PUSH1 0x20 DUP1 SWAP2 DIV MUL PUSH1 0x20 ADD PUSH1 0x40 MLOAD SWAP1 DUP2 ADD PUSH1 0x40 MSTORE DUP1 SWAP3 SWAP2 SWAP1 DUP2 DUP2 MSTORE PUSH1 0x20 ADD DUP3 DUP1 SLOAD PUSH2 0x4D1F SWAP1 PUSH2 0x8884 JUMP JUMPDEST DUP1 ISZERO PUSH2 0x4D6C JUMPI DUP1 PUSH1 0x1F LT PUSH2 0x4D41 JUMPI PUSH2 0x100 DUP1 DUP4 SLOAD DIV MUL DUP4 MSTORE SWAP2 PUSH1 0x20 ADD SWAP2 PUSH2 0x4D6C JUMP JUMPDEST DUP3 ADD SWAP2 SWAP1 PUSH1 0x0 MSTORE PUSH1 0x20 PUSH1 0x0 KECCAK256 SWAP1 JUMPDEST DUP2 SLOAD DUP2 MSTORE SWAP1 PUSH1 0x1 ADD SWAP1 PUSH1 0x20 ADD DUP1 DUP4 GT PUSH2 0x4D4F JUMPI DUP3 SWAP1 SUB PUSH1 0x1F AND DUP3 ADD SWAP2 JUMPDEST POP POP POP POP POP DUP2 MSTORE PUSH1 0x20 ADD PUSH1 0x1 DUP3 ADD DUP1 SLOAD PUSH2 0x4D85 SWAP1 PUSH2 0x8884 JUMP JUMPDEST DUP1 PUSH1 0x1F ADD PUSH1 0x20 DUP1 SWAP2 DIV MUL PUSH1 0x20 ADD PUSH1 0x40 MLOAD SWAP1 DUP2 ADD PUSH1 0x40 MSTORE DUP1 SWAP3 SWAP2 SWAP1 DUP2 DUP2 MSTORE PUSH1 0x20 ADD DUP3 DUP1 SLOAD PUSH2 0x4DB1 SWAP1 PUSH2 0x8884 JUMP JUMPDEST DUP1 ISZERO PUSH2 0x4DFE JUMPI DUP1 PUSH1 0x1F LT PUSH2 0x4DD3 JUMPI PUSH2 0x100 DUP1 DUP4 SLOAD DIV MUL DUP4 MSTORE SWAP2 PUSH1 0x20 ADD SWAP2 PUSH2 0x4DFE JUMP JUMPDEST DUP3 ADD SWAP2 SWAP1 PUSH1 0x0 MSTORE PUSH1 0x20 PUSH1 0x0 KECCAK256 SWAP1 JUMPDEST DUP2 SLOAD DUP2 MSTORE SWAP1 PUSH1 0x1 ADD SWAP1 PUSH1 0x20 ADD DUP1 DUP4 GT PUSH2 0x4DE1 JUMPI DUP3 SWAP1 SUB PUSH1 0x1F AND DUP3 ADD SWAP2 JUMPDEST POP POP POP POP POP DUP2 MSTORE PUSH1 0x20 ADD PUSH1 0x2 DUP3 ADD SLOAD DUP2 MSTORE PUSH1 0x20 ADD PUSH1 0x3 DUP3 ADD PUSH1 0x0 SWAP1 SLOAD SWAP1 PUSH2 0x100 EXP SWAP1 DIV PUSH20 0xFFFFFFFFFFFFFFFFFFFFFFFFFFFFFFFFFFFFFFFF AND PUSH20 0xFFFFFFFFFFFFFFFFFFFFFFFFFFFFFFFFFFFFFFFF AND PUSH20 0xFFFFFFFFFFFFFFFFFFFFFFFFFFFFFFFFFFFFFFFF AND DUP2 MSTORE PUSH1 0x20 ADD PUSH1 0x4 DUP3 ADD PUSH1 0x0 SWAP1 SLOAD SWAP1 PUSH2 0x100 EXP SWAP1 DIV PUSH20 0xFFFFFFFFFFFFFFFFFFFFFFFFFFFFFFFFFFFFFFFF AND PUSH20 0xFFFFFFFFFFFFFFFFFFFFFFFFFFFFFFFFFFFFFFFF AND PUSH20 0xFFFFFFFFFFFFFFFFFFFFFFFFFFFFFFFFFFFFFFFF AND DUP2 MSTORE PUSH1 0x20 ADD PUSH1 0x5 DUP3 ADD DUP1 SLOAD PUSH2 0x4ECD SWAP1 PUSH2 0x8884 JUMP JUMPDEST DUP1 PUSH1 0x1F ADD PUSH1 0x20 DUP1 SWAP2 DIV MUL PUSH1 0x20 ADD PUSH1 0x40 MLOAD SWAP1 DUP2 ADD PUSH1 0x40 MSTORE DUP1 SWAP3 SWAP2 SWAP1 DUP2 DUP2 MSTORE PUSH1 0x20 ADD DUP3 DUP1 SLOAD PUSH2 0x4EF9 SWAP1 PUSH2 0x8884 JUMP JUMPDEST DUP1 ISZERO PUSH2 0x4F46 JUMPI DUP1 PUSH1 0x1F LT PUSH2 0x4F1B JUMPI PUSH2 0x100 DUP1 DUP4 SLOAD DIV MUL DUP4 MSTORE SWAP2 PUSH1 0x20 ADD SWAP2 PUSH2 0x4F46 JUMP JUMPDEST DUP3 ADD SWAP2 SWAP1 PUSH1 0x0 MSTORE PUSH1 0x20 PUSH1 0x0 KECCAK256 SWAP1 JUMPDEST DUP2 SLOAD DUP2 MSTORE SWAP1 PUSH1 0x1 ADD SWAP1 PUSH1 0x20 ADD DUP1 DUP4 GT PUSH2 0x4F29 JUMPI DUP3 SWAP1 SUB PUSH1 0x1F AND DUP3 ADD SWAP2 JUMPDEST POP POP POP POP POP DUP2 MSTORE PUSH1 0x20 ADD PUSH1 0x6 DUP3 ADD SLOAD DUP2 MSTORE POP POP SWAP1 POP SWAP2 SWAP1 POP JUMP JUMPDEST PUSH2 0x4F68 PUSH2 0x749A JUMP JUMPDEST PUSH1 0x0 PUSH20 0xFFFFFFFFFFFFFFFFFFFFFFFFFFFFFFFFFFFFFFFF AND DUP3 PUSH20 0xFFFFFFFFFFFFFFFFFFFFFFFFFFFFFFFFFFFFFFFF AND SUB PUSH2 0x4FD7 JUMPI PUSH1 0x40 MLOAD PUSH32 0x8C379A000000000000000000000000000000000000000000000000000000000 DUP2 MSTORE PUSH1 0x4 ADD PUSH2 0x4FCE SWAP1 PUSH2 0x92CA JUMP JUMPDEST PUSH1 0x40 MLOAD DUP1 SWAP2 SUB SWAP1 REVERT JUMPDEST PUSH1 0x3 PUSH1 0x0 DUP4 PUSH20 0xFFFFFFFFFFFFFFFFFFFFFFFFFFFFFFFFFFFFFFFF AND PUSH20 0xFFFFFFFFFFFFFFFFFFFFFFFFFFFFFFFFFFFFFFFF AND DUP2 MSTORE PUSH1 0x20 ADD SWAP1 DUP2 MSTORE PUSH1 0x20 ADD PUSH1 0x0 KECCAK256 PUSH1 0x40 MLOAD DUP1 PUSH1 0xC0 ADD PUSH1 0x40 MSTORE SWAP1 DUP2 PUSH1 0x0 DUP3 ADD DUP1 SLOAD PUSH2 0x5031 SWAP1 PUSH2 0x8884 JUMP JUMPDEST DUP1 PUSH1 0x1F ADD PUSH1 0x20 DUP1 SWAP2 DIV MUL PUSH1 0x20 ADD PUSH1 0x40 MLOAD SWAP1 DUP2 ADD PUSH1 0x40 MSTORE DUP1 SWAP3 SWAP2 SWAP1 DUP2 DUP2 MSTORE PUSH1 0x20 ADD DUP3 DUP1 SLOAD PUSH2 0x505D SWAP1 PUSH2 0x8884 JUMP JUMPDEST DUP1 ISZERO PUSH2 0x50AA JUMPI DUP1 PUSH1 0x1F LT PUSH2 0x507F JUMPI PUSH2 0x100 DUP1 DUP4 SLOAD DIV MUL DUP4 MSTORE SWAP2 PUSH1 0x20 ADD SWAP2 PUSH2 0x50AA JUMP JUMPDEST DUP3 ADD SWAP2 SWAP1 PUSH1 0x0 MSTORE PUSH1 0x20 PUSH1 0x0 KECCAK256 SWAP1 JUMPDEST DUP2 SLOAD DUP2 MSTORE SWAP1 PUSH1 0x1 ADD SWAP1 PUSH1 0x20 ADD DUP1 DUP4 GT PUSH2 0x508D JUMPI DUP3 SWAP1 SUB PUSH1 0x1F AND DUP3 ADD SWAP2 JUMPDEST POP POP POP POP POP DUP2 MSTORE PUSH1 0x20 ADD PUSH1 0x1 DUP3 ADD DUP1 SLOAD PUSH2 0x50C3 SWAP1 PUSH2 0x8884 JUMP JUMPDEST DUP1 PUSH1 0x1F ADD PUSH1 0x20 DUP1 SWAP2 DIV MUL PUSH1 0x20 ADD PUSH1 0x40 MLOAD SWAP1 DUP2 ADD PUSH1 0x40 MSTORE DUP1 SWAP3 SWAP2 SWAP1 DUP2 DUP2 MSTORE PUSH1 0x20 ADD DUP3 DUP1 SLOAD PUSH2 0x50EF SWAP1 PUSH2 0x8884 JUMP JUMPDEST DUP1 ISZERO PUSH2 0x513C JUMPI DUP1 PUSH1 0x1F LT PUSH2 0x5111 JUMPI PUSH2 0x100 DUP1 DUP4 SLOAD DIV MUL DUP4 MSTORE SWAP2 PUSH1 0x20 ADD SWAP2 PUSH2 0x513C JUMP JUMPDEST DUP3 ADD SWAP2 SWAP1 PUSH1 0x0 MSTORE PUSH1 0x20 PUSH1 0x0 KECCAK256 SWAP1 JUMPDEST DUP2 SLOAD DUP2 MSTORE SWAP1 PUSH1 0x1 ADD SWAP1 PUSH1 0x20 ADD DUP1 DUP4 GT PUSH2 0x511F JUMPI DUP3 SWAP1 SUB PUSH1 0x1F AND DUP3 ADD SWAP2 JUMPDEST POP POP POP POP POP DUP2 MSTORE PUSH1 0x20 ADD PUSH1 0x2 DUP3 ADD PUSH1 0x0 SWAP1 SLOAD SWAP1 PUSH2 0x100 EXP SWAP1 DIV PUSH20 0xFFFFFFFFFFFFFFFFFFFFFFFFFFFFFFFFFFFFFFFF AND PUSH20 0xFFFFFFFFFFFFFFFFFFFFFFFFFFFFFFFFFFFFFFFF AND PUSH20 0xFFFFFFFFFFFFFFFFFFFFFFFFFFFFFFFFFFFFFFFF AND DUP2 MSTORE PUSH1 0x20 ADD PUSH1 0x3 DUP3 ADD DUP1 SLOAD PUSH2 0x51AB SWAP1 PUSH2 0x8884 JUMP JUMPDEST DUP1 PUSH1 0x1F ADD PUSH1 0x20 DUP1 SWAP2 DIV MUL PUSH1 0x20 ADD PUSH1 0x40 MLOAD SWAP1 DUP2 ADD PUSH1 0x40 MSTORE DUP1 SWAP3 SWAP2 SWAP1 DUP2 DUP2 MSTORE PUSH1 0x20 ADD DUP3 DUP1 SLOAD PUSH2 0x51D7 SWAP1 PUSH2 0x8884 JUMP JUMPDEST DUP1 ISZERO PUSH2 0x5224 JUMPI DUP1 PUSH1 0x1F LT PUSH2 0x51F9 JUMPI PUSH2 0x100 DUP1 DUP4 SLOAD DIV MUL DUP4 MSTORE SWAP2 PUSH1 0x20 ADD SWAP2 PUSH2 0x5224 JUMP JUMPDEST DUP3 ADD SWAP2 SWAP1 PUSH1 0x0 MSTORE PUSH1 0x20 PUSH1 0x0 KECCAK256 SWAP1 JUMPDEST DUP2 SLOAD DUP2 MSTORE SWAP1 PUSH1 0x1 ADD SWAP1 PUSH1 0x20 ADD DUP1 DUP4 GT PUSH2 0x5207 JUMPI DUP3 SWAP1 SUB PUSH1 0x1F AND DUP3 ADD SWAP2 JUMPDEST POP POP POP POP POP DUP2 MSTORE PUSH1 0x20 ADD PUSH1 0x4 DUP3 ADD PUSH1 0x0 SWAP1 SLOAD SWAP1 PUSH2 0x100 EXP SWAP1 DIV PUSH2 0xFFFF AND PUSH2 0xFFFF AND PUSH2 0xFFFF AND DUP2 MSTORE PUSH1 0x20 ADD PUSH1 0x4 DUP3 ADD PUSH1 0x2 SWAP1 SLOAD SWAP1 PUSH2 0x100 EXP SWAP1 DIV PUSH1 0xFF AND PUSH1 0x1 DUP2 GT ISZERO PUSH2 0x5272 JUMPI PUSH2 0x5271 PUSH2 0x7848 JUMP JUMPDEST JUMPDEST PUSH1 0x1 DUP2 GT ISZERO PUSH2 0x5284 JUMPI PUSH2 0x5283 PUSH2 0x7848 JUMP JUMPDEST JUMPDEST DUP2 MSTORE POP POP SWAP1 POP SWAP2 SWAP1 POP JUMP JUMPDEST PUSH1 0x60 DUP3 DUP3 PUSH1 0x40 MLOAD PUSH1 0x20 ADD PUSH2 0x52A4 SWAP3 SWAP2 SWAP1 PUSH2 0x9332 JUMP JUMPDEST PUSH1 0x40 MLOAD PUSH1 0x20 DUP2 DUP4 SUB SUB DUP2 MSTORE SWAP1 PUSH1 0x40 MSTORE SWAP1 POP SWAP3 SWAP2 POP POP JUMP JUMPDEST PUSH1 0x0 PUSH2 0x52D6 DUP3 PUSH1 0x40 MLOAD DUP1 PUSH1 0x20 ADD PUSH1 0x40 MSTORE DUP1 PUSH1 0x0 DUP2 MSTORE POP PUSH2 0x4C38 JUMP JUMPDEST ISZERO PUSH2 0x5316 JUMPI PUSH1 0x40 MLOAD PUSH32 0x8C379A000000000000000000000000000000000000000000000000000000000 DUP2 MSTORE PUSH1 0x4 ADD PUSH2 0x530D SWAP1 PUSH2 0x93AA JUMP JUMPDEST PUSH1 0x40 MLOAD DUP1 SWAP2 SUB SWAP1 REVERT JUMPDEST PUSH2 0x53C9 PUSH1 0x7 DUP4 PUSH1 0x40 MLOAD PUSH2 0x5329 SWAP2 SWAP1 PUSH2 0x8B0D JUMP JUMPDEST SWAP1 DUP2 MSTORE PUSH1 0x20 ADD PUSH1 0x40 MLOAD DUP1 SWAP2 SUB SWAP1 KECCAK256 PUSH1 0x0 ADD DUP1 SLOAD PUSH2 0x5345 SWAP1 PUSH2 0x8884 JUMP JUMPDEST DUP1 PUSH1 0x1F ADD PUSH1 0x20 DUP1 SWAP2 DIV MUL PUSH1 0x20 ADD PUSH1 0x40 MLOAD SWAP1 DUP2 ADD PUSH1 0x40 MSTORE DUP1 SWAP3 SWAP2 SWAP1 DUP2 DUP2 MSTORE PUSH1 0x20 ADD DUP3 DUP1 SLOAD PUSH2 0x5371 SWAP1 PUSH2 0x8884 JUMP JUMPDEST DUP1 ISZERO PUSH2 0x53BE JUMPI DUP1 PUSH1 0x1F LT PUSH2 0x5393 JUMPI PUSH2 0x100 DUP1 DUP4 SLOAD DIV MUL DUP4 MSTORE SWAP2 PUSH1 0x20 ADD SWAP2 PUSH2 0x53BE JUMP JUMPDEST DUP3 ADD SWAP2 SWAP1 PUSH1 0x0 MSTORE PUSH1 0x20 PUSH1 0x0 KECCAK256 SWAP1 JUMPDEST DUP2 SLOAD DUP2 MSTORE SWAP1 PUSH1 0x1 ADD SWAP1 PUSH1 0x20 ADD DUP1 DUP4 GT PUSH2 0x53A1 JUMPI DUP3 SWAP1 SUB PUSH1 0x1F AND DUP3 ADD SWAP2 JUMPDEST POP POP POP POP POP DUP4 PUSH2 0x4C38 JUMP JUMPDEST SWAP1 POP SWAP2 SWAP1 POP JUMP JUMPDEST PUSH1 0x0 DUP1 PUSH20 0xFFFFFFFFFFFFFFFFFFFFFFFFFFFFFFFFFFFFFFFF AND DUP3 PUSH20 0xFFFFFFFFFFFFFFFFFFFFFFFFFFFFFFFFFFFFFFFF AND SUB PUSH2 0x5440 JUMPI PUSH1 0x40 MLOAD PUSH32 0x8C379A000000000000000000000000000000000000000000000000000000000 DUP2 MSTORE PUSH1 0x4 ADD PUSH2 0x5437 SWAP1 PUSH2 0x9416 JUMP JUMPDEST PUSH1 0x40 MLOAD DUP1 SWAP2 SUB SWAP1 REVERT JUMPDEST PUSH1 0x0 PUSH20 0xFFFFFFFFFFFFFFFFFFFFFFFFFFFFFFFFFFFFFFFF AND PUSH1 0x1 PUSH1 0x0 DUP5 PUSH20 0xFFFFFFFFFFFFFFFFFFFFFFFFFFFFFFFFFFFFFFFF AND PUSH20 0xFFFFFFFFFFFFFFFFFFFFFFFFFFFFFFFFFFFFFFFF AND DUP2 MSTORE PUSH1 0x20 ADD SWAP1 DUP2 MSTORE PUSH1 0x20 ADD PUSH1 0x0 KECCAK256 PUSH1 0x3 ADD PUSH1 0x0 SWAP1 SLOAD SWAP1 PUSH2 0x100 EXP SWAP1 DIV PUSH20 0xFFFFFFFFFFFFFFFFFFFFFFFFFFFFFFFFFFFFFFFF AND PUSH20 0xFFFFFFFFFFFFFFFFFFFFFFFFFFFFFFFFFFFFFFFF AND EQ ISZERO DUP1 ISZERO PUSH2 0x55BF JUMPI POP PUSH2 0x55BD PUSH1 0x1 PUSH1 0x0 DUP5 PUSH20 0xFFFFFFFFFFFFFFFFFFFFFFFFFFFFFFFFFFFFFFFF AND PUSH20 0xFFFFFFFFFFFFFFFFFFFFFFFFFFFFFFFFFFFFFFFF AND DUP2 MSTORE PUSH1 0x20 ADD SWAP1 DUP2 MSTORE PUSH1 0x20 ADD PUSH1 0x0 KECCAK256 PUSH1 0x1 ADD DUP1 SLOAD PUSH2 0x552A SWAP1 PUSH2 0x8884 JUMP JUMPDEST DUP1 PUSH1 0x1F ADD PUSH1 0x20 DUP1 SWAP2 DIV MUL PUSH1 0x20 ADD PUSH1 0x40 MLOAD SWAP1 DUP2 ADD PUSH1 0x40 MSTORE DUP1 SWAP3 SWAP2 SWAP1 DUP2 DUP2 MSTORE PUSH1 0x20 ADD DUP3 DUP1 SLOAD PUSH2 0x5556 SWAP1 PUSH2 0x8884 JUMP JUMPDEST DUP1 ISZERO PUSH2 0x55A3 JUMPI DUP1 PUSH1 0x1F LT PUSH2 0x5578 JUMPI PUSH2 0x100 DUP1 DUP4 SLOAD DIV MUL DUP4 MSTORE SWAP2 PUSH1 0x20 ADD SWAP2 PUSH2 0x55A3 JUMP JUMPDEST DUP3 ADD SWAP2 SWAP1 PUSH1 0x0 MSTORE PUSH1 0x20 PUSH1 0x0 KECCAK256 SWAP1 JUMPDEST DUP2 SLOAD DUP2 MSTORE SWAP1 PUSH1 0x1 ADD SWAP1 PUSH1 0x20 ADD DUP1 DUP4 GT PUSH2 0x5586 JUMPI DUP3 SWAP1 SUB PUSH1 0x1F AND DUP3 ADD SWAP2 JUMPDEST POP POP POP POP POP PUSH1 0x40 MLOAD DUP1 PUSH1 0x20 ADD PUSH1 0x40 MSTORE DUP1 PUSH1 0x0 DUP2 MSTORE POP PUSH2 0x4C38 JUMP JUMPDEST ISZERO JUMPDEST ISZERO PUSH2 0x55C9 JUMPI PUSH1 0x1 SWAP1 POP JUMPDEST SWAP2 SWAP1 POP JUMP JUMPDEST PUSH1 0x0 PUSH20 0xFFFFFFFFFFFFFFFFFFFFFFFFFFFFFFFFFFFFFFFF AND PUSH1 0x3 PUSH1 0x0 DUP4 PUSH1 0x40 ADD MLOAD PUSH20 0xFFFFFFFFFFFFFFFFFFFFFFFFFFFFFFFFFFFFFFFF AND PUSH20 0xFFFFFFFFFFFFFFFFFFFFFFFFFFFFFFFFFFFFFFFF AND DUP2 MSTORE PUSH1 0x20 ADD SWAP1 DUP2 MSTORE PUSH1 0x20 ADD PUSH1 0x0 KECCAK256 PUSH1 0x2 ADD PUSH1 0x0 SWAP1 SLOAD SWAP1 PUSH2 0x100 EXP SWAP1 DIV PUSH20 0xFFFFFFFFFFFFFFFFFFFFFFFFFFFFFFFFFFFFFFFF AND PUSH20 0xFFFFFFFFFFFFFFFFFFFFFFFFFFFFFFFFFFFFFFFF AND EQ PUSH2 0x56A3 JUMPI PUSH1 0x40 MLOAD PUSH32 0x8C379A000000000000000000000000000000000000000000000000000000000 DUP2 MSTORE PUSH1 0x4 ADD PUSH2 0x569A SWAP1 PUSH2 0x9482 JUMP JUMPDEST PUSH1 0x40 MLOAD DUP1 SWAP2 SUB SWAP1 REVERT JUMPDEST DUP1 PUSH1 0x3 PUSH1 0x0 DUP4 PUSH1 0x40 ADD MLOAD PUSH20 0xFFFFFFFFFFFFFFFFFFFFFFFFFFFFFFFFFFFFFFFF AND PUSH20 0xFFFFFFFFFFFFFFFFFFFFFFFFFFFFFFFFFFFFFFFF AND DUP2 MSTORE PUSH1 0x20 ADD SWAP1 DUP2 MSTORE PUSH1 0x20 ADD PUSH1 0x0 KECCAK256 PUSH1 0x0 DUP3 ADD MLOAD DUP2 PUSH1 0x0 ADD SWAP1 DUP2 PUSH2 0x56FC SWAP2 SWAP1 PUSH2 0x8CD0 JUMP JUMPDEST POP PUSH1 0x20 DUP3 ADD MLOAD DUP2 PUSH1 0x1 ADD SWAP1 DUP2 PUSH2 0x5712 SWAP2 SWAP1 PUSH2 0x8CD0 JUMP JUMPDEST POP PUSH1 0x40 DUP3 ADD MLOAD DUP2 PUSH1 0x2 ADD PUSH1 0x0 PUSH2 0x100 EXP DUP2 SLOAD DUP2 PUSH20 0xFFFFFFFFFFFFFFFFFFFFFFFFFFFFFFFFFFFFFFFF MUL NOT AND SWAP1 DUP4 PUSH20 0xFFFFFFFFFFFFFFFFFFFFFFFFFFFFFFFFFFFFFFFF AND MUL OR SWAP1 SSTORE POP PUSH1 0x60 DUP3 ADD MLOAD DUP2 PUSH1 0x3 ADD SWAP1 DUP2 PUSH2 0x576F SWAP2 SWAP1 PUSH2 0x8CD0 JUMP JUMPDEST POP PUSH1 0x80 DUP3 ADD MLOAD DUP2 PUSH1 0x4 ADD PUSH1 0x0 PUSH2 0x100 EXP DUP2 SLOAD DUP2 PUSH2 0xFFFF MUL NOT AND SWAP1 DUP4 PUSH2 0xFFFF AND MUL OR SWAP1 SSTORE POP PUSH1 0xA0 DUP3 ADD MLOAD DUP2 PUSH1 0x4 ADD PUSH1 0x2 PUSH2 0x100 EXP DUP2 SLOAD DUP2 PUSH1 0xFF MUL NOT AND SWAP1 DUP4 PUSH1 0x1 DUP2 GT ISZERO PUSH2 0x57BE JUMPI PUSH2 0x57BD PUSH2 0x7848 JUMP JUMPDEST JUMPDEST MUL OR SWAP1 SSTORE POP SWAP1 POP POP PUSH1 0x2 DUP2 PUSH1 0x40 ADD MLOAD SWAP1 DUP1 PUSH1 0x1 DUP2 SLOAD ADD DUP1 DUP3 SSTORE DUP1 SWAP2 POP POP PUSH1 0x1 SWAP1 SUB SWAP1 PUSH1 0x0 MSTORE PUSH1 0x20 PUSH1 0x0 KECCAK256 ADD PUSH1 0x0 SWAP1 SWAP2 SWAP1 SWAP2 SWAP1 SWAP2 PUSH2 0x100 EXP DUP2 SLOAD DUP2 PUSH20 0xFFFFFFFFFFFFFFFFFFFFFFFFFFFFFFFFFFFFFFFF MUL NOT AND SWAP1 DUP4 PUSH20 0xFFFFFFFFFFFFFFFFFFFFFFFFFFFFFFFFFFFFFFFF AND MUL OR SWAP1 SSTORE POP PUSH32 0x17EE33CC6A54067D735EE1C9200FC0DC8354B1D7DEAE9908692BCD90723044B1 DUP2 PUSH1 0x40 ADD MLOAD DUP3 PUSH1 0x0 ADD MLOAD DUP4 PUSH1 0x20 ADD MLOAD DUP5 PUSH1 0x60 ADD MLOAD PUSH1 0x40 MLOAD PUSH2 0x5872 SWAP5 SWAP4 SWAP3 SWAP2 SWAP1 PUSH2 0x94A2 JUMP JUMPDEST PUSH1 0x40 MLOAD DUP1 SWAP2 SUB SWAP1 LOG1 POP JUMP JUMPDEST PUSH1 0x0 PUSH20 0xFFFFFFFFFFFFFFFFFFFFFFFFFFFFFFFFFFFFFFFF AND PUSH1 0x3 PUSH1 0x0 DUP6 PUSH20 0xFFFFFFFFFFFFFFFFFFFFFFFFFFFFFFFFFFFFFFFF AND PUSH20 0xFFFFFFFFFFFFFFFFFFFFFFFFFFFFFFFFFFFFFFFF AND DUP2 MSTORE PUSH1 0x20 ADD SWAP1 DUP2 MSTORE PUSH1 0x20 ADD PUSH1 0x0 KECCAK256 PUSH1 0x2 ADD PUSH1 0x0 SWAP1 SLOAD SWAP1 PUSH2 0x100 EXP SWAP1 DIV PUSH20 0xFFFFFFFFFFFFFFFFFFFFFFFFFFFFFFFFFFFFFFFF AND PUSH20 0xFFFFFFFFFFFFFFFFFFFFFFFFFFFFFFFFFFFFFFFF AND SUB PUSH2 0x594E JUMPI PUSH1 0x40 MLOAD PUSH32 0x8C379A000000000000000000000000000000000000000000000000000000000 DUP2 MSTORE PUSH1 0x4 ADD PUSH2 0x5945 SWAP1 PUSH2 0x896D JUMP JUMPDEST PUSH1 0x40 MLOAD DUP1 SWAP2 SUB SWAP1 REVERT JUMPDEST DUP1 PUSH1 0x3 PUSH1 0x0 DUP6 PUSH20 0xFFFFFFFFFFFFFFFFFFFFFFFFFFFFFFFFFFFFFFFF AND PUSH20 0xFFFFFFFFFFFFFFFFFFFFFFFFFFFFFFFFFFFFFFFF AND DUP2 MSTORE PUSH1 0x20 ADD SWAP1 DUP2 MSTORE PUSH1 0x20 ADD PUSH1 0x0 KECCAK256 PUSH1 0x0 ADD SWAP1 DUP2 PUSH2 0x599D SWAP2 SWAP1 PUSH2 0x8CD0 JUMP JUMPDEST POP DUP2 PUSH1 0x3 PUSH1 0x0 DUP6 PUSH20 0xFFFFFFFFFFFFFFFFFFFFFFFFFFFFFFFFFFFFFFFF AND PUSH20 0xFFFFFFFFFFFFFFFFFFFFFFFFFFFFFFFFFFFFFFFF AND DUP2 MSTORE PUSH1 0x20 ADD SWAP1 DUP2 MSTORE PUSH1 0x20 ADD PUSH1 0x0 KECCAK256 PUSH1 0x1 ADD SWAP1 DUP2 PUSH2 0x59ED SWAP2 SWAP1 PUSH2 0x8CD0 JUMP JUMPDEST POP PUSH32 0xC0E694475D9755514453A459373DED91F1517029FACA54000DA1C3007EC2C4F9 DUP4 DUP3 DUP5 PUSH1 0x40 MLOAD PUSH2 0x5A21 SWAP4 SWAP3 SWAP2 SWAP1 PUSH2 0x94FC JUMP JUMPDEST PUSH1 0x40 MLOAD DUP1 SWAP2 SUB SWAP1 LOG1 POP POP POP JUMP JUMPDEST PUSH1 0x0 PUSH1 0x60 PUSH1 0x0 DUP4 GT PUSH2 0x5A75 JUMPI PUSH1 0x40 MLOAD PUSH32 0x8C379A000000000000000000000000000000000000000000000000000000000 DUP2 MSTORE PUSH1 0x4 ADD PUSH2 0x5A6C SWAP1 PUSH2 0x958D JUMP JUMPDEST PUSH1 0x40 MLOAD DUP1 SWAP2 SUB SWAP1 REVERT JUMPDEST PUSH1 0x0 DUP1 PUSH1 0x0 DUP1 PUSH2 0x5B0B DUP8 PUSH1 0x2 DUP1 SLOAD DUP1 PUSH1 0x20 MUL PUSH1 0x20 ADD PUSH1 0x40 MLOAD SWAP1 DUP2 ADD PUSH1 0x40 MSTORE DUP1 SWAP3 SWAP2 SWAP1 DUP2 DUP2 MSTORE PUSH1 0x20 ADD DUP3 DUP1 SLOAD DUP1 ISZERO PUSH2 0x5B01 JUMPI PUSH1 0x20 MUL DUP3 ADD SWAP2 SWAP1 PUSH1 0x0 MSTORE PUSH1 0x20 PUSH1 0x0 KECCAK256 SWAP1 JUMPDEST DUP2 PUSH1 0x0 SWAP1 SLOAD SWAP1 PUSH2 0x100 EXP SWAP1 DIV PUSH20 0xFFFFFFFFFFFFFFFFFFFFFFFFFFFFFFFFFFFFFFFF AND PUSH20 0xFFFFFFFFFFFFFFFFFFFFFFFFFFFFFFFFFFFFFFFF AND DUP2 MSTORE PUSH1 0x20 ADD SWAP1 PUSH1 0x1 ADD SWAP1 DUP1 DUP4 GT PUSH2 0x5AB7 JUMPI JUMPDEST POP POP POP POP POP PUSH2 0x7387 JUMP JUMPDEST SWAP4 POP SWAP4 POP SWAP4 POP SWAP4 POP PUSH1 0x0 DUP4 PUSH8 0xFFFFFFFFFFFFFFFF DUP2 GT ISZERO PUSH2 0x5B2F JUMPI PUSH2 0x5B2E PUSH2 0x7982 JUMP JUMPDEST JUMPDEST PUSH1 0x40 MLOAD SWAP1 DUP1 DUP3 MSTORE DUP1 PUSH1 0x20 MUL PUSH1 0x20 ADD DUP3 ADD PUSH1 0x40 MSTORE DUP1 ISZERO PUSH2 0x5B68 JUMPI DUP2 PUSH1 0x20 ADD JUMPDEST PUSH2 0x5B55 PUSH2 0x749A JUMP JUMPDEST DUP2 MSTORE PUSH1 0x20 ADD SWAP1 PUSH1 0x1 SWAP1 SUB SWAP1 DUP2 PUSH2 0x5B4D JUMPI SWAP1 POP JUMPDEST POP SWAP1 POP PUSH1 0x0 DUP4 SWAP1 POP JUMPDEST DUP3 DUP2 LT ISZERO PUSH2 0x5E99 JUMPI PUSH1 0x3 PUSH1 0x0 PUSH1 0x2 DUP4 DUP2 SLOAD DUP2 LT PUSH2 0x5B91 JUMPI PUSH2 0x5B90 PUSH2 0x8F17 JUMP JUMPDEST JUMPDEST SWAP1 PUSH1 0x0 MSTORE PUSH1 0x20 PUSH1 0x0 KECCAK256 ADD PUSH1 0x0 SWAP1 SLOAD SWAP1 PUSH2 0x100 EXP SWAP1 DIV PUSH20 0xFFFFFFFFFFFFFFFFFFFFFFFFFFFFFFFFFFFFFFFF AND PUSH20 0xFFFFFFFFFFFFFFFFFFFFFFFFFFFFFFFFFFFFFFFF AND PUSH20 0xFFFFFFFFFFFFFFFFFFFFFFFFFFFFFFFFFFFFFFFF AND DUP2 MSTORE PUSH1 0x20 ADD SWAP1 DUP2 MSTORE PUSH1 0x20 ADD PUSH1 0x0 KECCAK256 PUSH1 0x40 MLOAD DUP1 PUSH1 0xC0 ADD PUSH1 0x40 MSTORE SWAP1 DUP2 PUSH1 0x0 DUP3 ADD DUP1 SLOAD PUSH2 0x5C11 SWAP1 PUSH2 0x8884 JUMP JUMPDEST DUP1 PUSH1 0x1F ADD PUSH1 0x20 DUP1 SWAP2 DIV MUL PUSH1 0x20 ADD PUSH1 0x40 MLOAD SWAP1 DUP2 ADD PUSH1 0x40 MSTORE DUP1 SWAP3 SWAP2 SWAP1 DUP2 DUP2 MSTORE PUSH1 0x20 ADD DUP3 DUP1 SLOAD PUSH2 0x5C3D SWAP1 PUSH2 0x8884 JUMP JUMPDEST DUP1 ISZERO PUSH2 0x5C8A JUMPI DUP1 PUSH1 0x1F LT PUSH2 0x5C5F JUMPI PUSH2 0x100 DUP1 DUP4 SLOAD DIV MUL DUP4 MSTORE SWAP2 PUSH1 0x20 ADD SWAP2 PUSH2 0x5C8A JUMP JUMPDEST DUP3 ADD SWAP2 SWAP1 PUSH1 0x0 MSTORE PUSH1 0x20 PUSH1 0x0 KECCAK256 SWAP1 JUMPDEST DUP2 SLOAD DUP2 MSTORE SWAP1 PUSH1 0x1 ADD SWAP1 PUSH1 0x20 ADD DUP1 DUP4 GT PUSH2 0x5C6D JUMPI DUP3 SWAP1 SUB PUSH1 0x1F AND DUP3 ADD SWAP2 JUMPDEST POP POP POP POP POP DUP2 MSTORE PUSH1 0x20 ADD PUSH1 0x1 DUP3 ADD DUP1 SLOAD PUSH2 0x5CA3 SWAP1 PUSH2 0x8884 JUMP JUMPDEST DUP1 PUSH1 0x1F ADD PUSH1 0x20 DUP1 SWAP2 DIV MUL PUSH1 0x20 ADD PUSH1 0x40 MLOAD SWAP1 DUP2 ADD PUSH1 0x40 MSTORE DUP1 SWAP3 SWAP2 SWAP1 DUP2 DUP2 MSTORE PUSH1 0x20 ADD DUP3 DUP1 SLOAD PUSH2 0x5CCF SWAP1 PUSH2 0x8884 JUMP JUMPDEST DUP1 ISZERO PUSH2 0x5D1C JUMPI DUP1 PUSH1 0x1F LT PUSH2 0x5CF1 JUMPI PUSH2 0x100 DUP1 DUP4 SLOAD DIV MUL DUP4 MSTORE SWAP2 PUSH1 0x20 ADD SWAP2 PUSH2 0x5D1C JUMP JUMPDEST DUP3 ADD SWAP2 SWAP1 PUSH1 0x0 MSTORE PUSH1 0x20 PUSH1 0x0 KECCAK256 SWAP1 JUMPDEST DUP2 SLOAD DUP2 MSTORE SWAP1 PUSH1 0x1 ADD SWAP1 PUSH1 0x20 ADD DUP1 DUP4 GT PUSH2 0x5CFF JUMPI DUP3 SWAP1 SUB PUSH1 0x1F AND DUP3 ADD SWAP2 JUMPDEST POP POP POP POP POP DUP2 MSTORE PUSH1 0x20 ADD PUSH1 0x2 DUP3 ADD PUSH1 0x0 SWAP1 SLOAD SWAP1 PUSH2 0x100 EXP SWAP1 DIV PUSH20 0xFFFFFFFFFFFFFFFFFFFFFFFFFFFFFFFFFFFFFFFF AND PUSH20 0xFFFFFFFFFFFFFFFFFFFFFFFFFFFFFFFFFFFFFFFF AND PUSH20 0xFFFFFFFFFFFFFFFFFFFFFFFFFFFFFFFFFFFFFFFF AND DUP2 MSTORE PUSH1 0x20 ADD PUSH1 0x3 DUP3 ADD DUP1 SLOAD PUSH2 0x5D8B SWAP1 PUSH2 0x8884 JUMP JUMPDEST DUP1 PUSH1 0x1F ADD PUSH1 0x20 DUP1 SWAP2 DIV MUL PUSH1 0x20 ADD PUSH1 0x40 MLOAD SWAP1 DUP2 ADD PUSH1 0x40 MSTORE DUP1 SWAP3 SWAP2 SWAP1 DUP2 DUP2 MSTORE PUSH1 0x20 ADD DUP3 DUP1 SLOAD PUSH2 0x5DB7 SWAP1 PUSH2 0x8884 JUMP JUMPDEST DUP1 ISZERO PUSH2 0x5E04 JUMPI DUP1 PUSH1 0x1F LT PUSH2 0x5DD9 JUMPI PUSH2 0x100 DUP1 DUP4 SLOAD DIV MUL DUP4 MSTORE SWAP2 PUSH1 0x20 ADD SWAP2 PUSH2 0x5E04 JUMP JUMPDEST DUP3 ADD SWAP2 SWAP1 PUSH1 0x0 MSTORE PUSH1 0x20 PUSH1 0x0 KECCAK256 SWAP1 JUMPDEST DUP2 SLOAD DUP2 MSTORE SWAP1 PUSH1 0x1 ADD SWAP1 PUSH1 0x20 ADD DUP1 DUP4 GT PUSH2 0x5DE7 JUMPI DUP3 SWAP1 SUB PUSH1 0x1F AND DUP3 ADD SWAP2 JUMPDEST POP POP POP POP POP DUP2 MSTORE PUSH1 0x20 ADD PUSH1 0x4 DUP3 ADD PUSH1 0x0 SWAP1 SLOAD SWAP1 PUSH2 0x100 EXP SWAP1 DIV PUSH2 0xFFFF AND PUSH2 0xFFFF AND PUSH2 0xFFFF AND DUP2 MSTORE PUSH1 0x20 ADD PUSH1 0x4 DUP3 ADD PUSH1 0x2 SWAP1 SLOAD SWAP1 PUSH2 0x100 EXP SWAP1 DIV PUSH1 0xFF AND PUSH1 0x1 DUP2 GT ISZERO PUSH2 0x5E52 JUMPI PUSH2 0x5E51 PUSH2 0x7848 JUMP JUMPDEST JUMPDEST PUSH1 0x1 DUP2 GT ISZERO PUSH2 0x5E64 JUMPI PUSH2 0x5E63 PUSH2 0x7848 JUMP JUMPDEST JUMPDEST DUP2 MSTORE POP POP DUP3 DUP3 DUP2 MLOAD DUP2 LT PUSH2 0x5E7B JUMPI PUSH2 0x5E7A PUSH2 0x8F17 JUMP JUMPDEST JUMPDEST PUSH1 0x20 MUL PUSH1 0x20 ADD ADD DUP2 SWAP1 MSTORE POP DUP1 DUP1 PUSH2 0x5E91 SWAP1 PUSH2 0x8F75 JUMP JUMPDEST SWAP2 POP POP PUSH2 0x5B71 JUMP JUMPDEST POP DUP5 DUP2 SWAP7 POP SWAP7 POP POP POP POP POP POP SWAP2 POP SWAP2 JUMP JUMPDEST PUSH1 0x0 PUSH2 0x5EB4 PUSH2 0x7431 JUMP JUMPDEST PUSH1 0x0 PUSH2 0x5EBE PUSH2 0x7431 JUMP JUMPDEST PUSH1 0x0 JUMPDEST DUP6 MLOAD DUP2 LT ISZERO PUSH2 0x61F5 JUMPI DUP7 PUSH20 0xFFFFFFFFFFFFFFFFFFFFFFFFFFFFFFFFFFFFFFFF AND DUP7 DUP3 DUP2 MLOAD DUP2 LT PUSH2 0x5EF4 JUMPI PUSH2 0x5EF3 PUSH2 0x8F17 JUMP JUMPDEST JUMPDEST PUSH1 0x20 MUL PUSH1 0x20 ADD ADD MLOAD PUSH20 0xFFFFFFFFFFFFFFFFFFFFFFFFFFFFFFFFFFFFFFFF AND SUB PUSH2 0x61E2 JUMPI PUSH1 0x1 SWAP3 POP PUSH1 0x1 PUSH1 0x0 DUP9 PUSH20 0xFFFFFFFFFFFFFFFFFFFFFFFFFFFFFFFFFFFFFFFF AND PUSH20 0xFFFFFFFFFFFFFFFFFFFFFFFFFFFFFFFFFFFFFFFF AND DUP2 MSTORE PUSH1 0x20 ADD SWAP1 DUP2 MSTORE PUSH1 0x20 ADD PUSH1 0x0 KECCAK256 PUSH1 0x40 MLOAD DUP1 PUSH1 0xE0 ADD PUSH1 0x40 MSTORE SWAP1 DUP2 PUSH1 0x0 DUP3 ADD DUP1 SLOAD PUSH2 0x5F75 SWAP1 PUSH2 0x8884 JUMP JUMPDEST DUP1 PUSH1 0x1F ADD PUSH1 0x20 DUP1 SWAP2 DIV MUL PUSH1 0x20 ADD PUSH1 0x40 MLOAD SWAP1 DUP2 ADD PUSH1 0x40 MSTORE DUP1 SWAP3 SWAP2 SWAP1 DUP2 DUP2 MSTORE PUSH1 0x20 ADD DUP3 DUP1 SLOAD PUSH2 0x5FA1 SWAP1 PUSH2 0x8884 JUMP JUMPDEST DUP1 ISZERO PUSH2 0x5FEE JUMPI DUP1 PUSH1 0x1F LT PUSH2 0x5FC3 JUMPI PUSH2 0x100 DUP1 DUP4 SLOAD DIV MUL DUP4 MSTORE SWAP2 PUSH1 0x20 ADD SWAP2 PUSH2 0x5FEE JUMP JUMPDEST DUP3 ADD SWAP2 SWAP1 PUSH1 0x0 MSTORE PUSH1 0x20 PUSH1 0x0 KECCAK256 SWAP1 JUMPDEST DUP2 SLOAD DUP2 MSTORE SWAP1 PUSH1 0x1 ADD SWAP1 PUSH1 0x20 ADD DUP1 DUP4 GT PUSH2 0x5FD1 JUMPI DUP3 SWAP1 SUB PUSH1 0x1F AND DUP3 ADD SWAP2 JUMPDEST POP POP POP POP POP DUP2 MSTORE PUSH1 0x20 ADD PUSH1 0x1 DUP3 ADD DUP1 SLOAD PUSH2 0x6007 SWAP1 PUSH2 0x8884 JUMP JUMPDEST DUP1 PUSH1 0x1F ADD PUSH1 0x20 DUP1 SWAP2 DIV MUL PUSH1 0x20 ADD PUSH1 0x40 MLOAD SWAP1 DUP2 ADD PUSH1 0x40 MSTORE DUP1 SWAP3 SWAP2 SWAP1 DUP2 DUP2 MSTORE PUSH1 0x20 ADD DUP3 DUP1 SLOAD PUSH2 0x6033 SWAP1 PUSH2 0x8884 JUMP JUMPDEST DUP1 ISZERO PUSH2 0x6080 JUMPI DUP1 PUSH1 0x1F LT PUSH2 0x6055 JUMPI PUSH2 0x100 DUP1 DUP4 SLOAD DIV MUL DUP4 MSTORE SWAP2 PUSH1 0x20 ADD SWAP2 PUSH2 0x6080 JUMP JUMPDEST DUP3 ADD SWAP2 SWAP1 PUSH1 0x0 MSTORE PUSH1 0x20 PUSH1 0x0 KECCAK256 SWAP1 JUMPDEST DUP2 SLOAD DUP2 MSTORE SWAP1 PUSH1 0x1 ADD SWAP1 PUSH1 0x20 ADD DUP1 DUP4 GT PUSH2 0x6063 JUMPI DUP3 SWAP1 SUB PUSH1 0x1F AND DUP3 ADD SWAP2 JUMPDEST POP POP POP POP POP DUP2 MSTORE PUSH1 0x20 ADD PUSH1 0x2 DUP3 ADD SLOAD DUP2 MSTORE PUSH1 0x20 ADD PUSH1 0x3 DUP3 ADD PUSH1 0x0 SWAP1 SLOAD SWAP1 PUSH2 0x100 EXP SWAP1 DIV PUSH20 0xFFFFFFFFFFFFFFFFFFFFFFFFFFFFFFFFFFFFFFFF AND PUSH20 0xFFFFFFFFFFFFFFFFFFFFFFFFFFFFFFFFFFFFFFFF AND PUSH20 0xFFFFFFFFFFFFFFFFFFFFFFFFFFFFFFFFFFFFFFFF AND DUP2 MSTORE PUSH1 0x20 ADD PUSH1 0x4 DUP3 ADD PUSH1 0x0 SWAP1 SLOAD SWAP1 PUSH2 0x100 EXP SWAP1 DIV PUSH20 0xFFFFFFFFFFFFFFFFFFFFFFFFFFFFFFFFFFFFFFFF AND PUSH20 0xFFFFFFFFFFFFFFFFFFFFFFFFFFFFFFFFFFFFFFFF AND PUSH20 0xFFFFFFFFFFFFFFFFFFFFFFFFFFFFFFFFFFFFFFFF AND DUP2 MSTORE PUSH1 0x20 ADD PUSH1 0x5 DUP3 ADD DUP1 SLOAD PUSH2 0x614F SWAP1 PUSH2 0x8884 JUMP JUMPDEST DUP1 PUSH1 0x1F ADD PUSH1 0x20 DUP1 SWAP2 DIV MUL PUSH1 0x20 ADD PUSH1 0x40 MLOAD SWAP1 DUP2 ADD PUSH1 0x40 MSTORE DUP1 SWAP3 SWAP2 SWAP1 DUP2 DUP2 MSTORE PUSH1 0x20 ADD DUP3 DUP1 SLOAD PUSH2 0x617B SWAP1 PUSH2 0x8884 JUMP JUMPDEST DUP1 ISZERO PUSH2 0x61C8 JUMPI DUP1 PUSH1 0x1F LT PUSH2 0x619D JUMPI PUSH2 0x100 DUP1 DUP4 SLOAD DIV MUL DUP4 MSTORE SWAP2 PUSH1 0x20 ADD SWAP2 PUSH2 0x61C8 JUMP JUMPDEST DUP3 ADD SWAP2 SWAP1 PUSH1 0x0 MSTORE PUSH1 0x20 PUSH1 0x0 KECCAK256 SWAP1 JUMPDEST DUP2 SLOAD DUP2 MSTORE SWAP1 PUSH1 0x1 ADD SWAP1 PUSH1 0x20 ADD DUP1 DUP4 GT PUSH2 0x61AB JUMPI DUP3 SWAP1 SUB PUSH1 0x1F AND DUP3 ADD SWAP2 JUMPDEST POP POP POP POP POP DUP2 MSTORE PUSH1 0x20 ADD PUSH1 0x6 DUP3 ADD SLOAD DUP2 MSTORE POP POP SWAP2 POP PUSH2 0x61F5 JUMP JUMPDEST DUP1 DUP1 PUSH2 0x61ED SWAP1 PUSH2 0x8F75 JUMP JUMPDEST SWAP2 POP POP PUSH2 0x5EC1 JUMP JUMPDEST POP DUP2 DUP2 SWAP4 POP SWAP4 POP POP POP SWAP3 POP SWAP3 SWAP1 POP JUMP JUMPDEST DUP1 PUSH1 0x1 PUSH1 0x0 DUP4 PUSH1 0x60 ADD MLOAD PUSH20 0xFFFFFFFFFFFFFFFFFFFFFFFFFFFFFFFFFFFFFFFF AND PUSH20 0xFFFFFFFFFFFFFFFFFFFFFFFFFFFFFFFFFFFFFFFF AND DUP2 MSTORE PUSH1 0x20 ADD SWAP1 DUP2 MSTORE PUSH1 0x20 ADD PUSH1 0x0 KECCAK256 PUSH1 0x0 DUP3 ADD MLOAD DUP2 PUSH1 0x0 ADD SWAP1 DUP2 PUSH2 0x625E SWAP2 SWAP1 PUSH2 0x8CD0 JUMP JUMPDEST POP PUSH1 0x20 DUP3 ADD MLOAD DUP2 PUSH1 0x1 ADD SWAP1 DUP2 PUSH2 0x6274 SWAP2 SWAP1 PUSH2 0x8CD0 JUMP JUMPDEST POP PUSH1 0x40 DUP3 ADD MLOAD DUP2 PUSH1 0x2 ADD SSTORE PUSH1 0x60 DUP3 ADD MLOAD DUP2 PUSH1 0x3 ADD PUSH1 0x0 PUSH2 0x100 EXP DUP2 SLOAD DUP2 PUSH20 0xFFFFFFFFFFFFFFFFFFFFFFFFFFFFFFFFFFFFFFFF MUL NOT AND SWAP1 DUP4 PUSH20 0xFFFFFFFFFFFFFFFFFFFFFFFFFFFFFFFFFFFFFFFF AND MUL OR SWAP1 SSTORE POP PUSH1 0x80 DUP3 ADD MLOAD DUP2 PUSH1 0x4 ADD PUSH1 0x0 PUSH2 0x100 EXP DUP2 SLOAD DUP2 PUSH20 0xFFFFFFFFFFFFFFFFFFFFFFFFFFFFFFFFFFFFFFFF MUL NOT AND SWAP1 DUP4 PUSH20 0xFFFFFFFFFFFFFFFFFFFFFFFFFFFFFFFFFFFFFFFF AND MUL OR SWAP1 SSTORE POP PUSH1 0xA0 DUP3 ADD MLOAD DUP2 PUSH1 0x5 ADD SWAP1 DUP2 PUSH2 0x6322 SWAP2 SWAP1 PUSH2 0x8CD0 JUMP JUMPDEST POP PUSH1 0xC0 DUP3 ADD MLOAD DUP2 PUSH1 0x6 ADD SSTORE SWAP1 POP POP PUSH1 0x0 DUP2 PUSH1 0x60 ADD MLOAD SWAP1 DUP1 PUSH1 0x1 DUP2 SLOAD ADD DUP1 DUP3 SSTORE DUP1 SWAP2 POP POP PUSH1 0x1 SWAP1 SUB SWAP1 PUSH1 0x0 MSTORE PUSH1 0x20 PUSH1 0x0 KECCAK256 ADD PUSH1 0x0 SWAP1 SWAP2 SWAP1 SWAP2 SWAP1 SWAP2 PUSH2 0x100 EXP DUP2 SLOAD DUP2 PUSH20 0xFFFFFFFFFFFFFFFFFFFFFFFFFFFFFFFFFFFFFFFF MUL NOT AND SWAP1 DUP4 PUSH20 0xFFFFFFFFFFFFFFFFFFFFFFFFFFFFFFFFFFFFFFFF AND MUL OR SWAP1 SSTORE POP PUSH32 0x77EACB4962819F791EBD2750D7BE9519622DDCF4C37FE09C6FD33ACE5CE32CCB DUP2 PUSH1 0x60 ADD MLOAD DUP3 PUSH1 0x0 ADD MLOAD DUP4 PUSH1 0x20 ADD MLOAD PUSH1 0x40 MLOAD PUSH2 0x63D6 SWAP4 SWAP3 SWAP2 SWAP1 PUSH2 0x94FC JUMP JUMPDEST PUSH1 0x40 MLOAD DUP1 SWAP2 SUB SWAP1 LOG1 POP JUMP JUMPDEST DUP3 PUSH1 0x1 PUSH1 0x0 CALLER PUSH20 0xFFFFFFFFFFFFFFFFFFFFFFFFFFFFFFFFFFFFFFFF AND PUSH20 0xFFFFFFFFFFFFFFFFFFFFFFFFFFFFFFFFFFFFFFFF AND DUP2 MSTORE PUSH1 0x20 ADD SWAP1 DUP2 MSTORE PUSH1 0x20 ADD PUSH1 0x0 KECCAK256 PUSH1 0x0 ADD SWAP1 DUP2 PUSH2 0x6430 SWAP2 SWAP1 PUSH2 0x8CD0 JUMP JUMPDEST POP DUP2 PUSH1 0x1 PUSH1 0x0 CALLER PUSH20 0xFFFFFFFFFFFFFFFFFFFFFFFFFFFFFFFFFFFFFFFF AND PUSH20 0xFFFFFFFFFFFFFFFFFFFFFFFFFFFFFFFFFFFFFFFF AND DUP2 MSTORE PUSH1 0x20 ADD SWAP1 DUP2 MSTORE PUSH1 0x20 ADD PUSH1 0x0 KECCAK256 PUSH1 0x1 ADD SWAP1 DUP2 PUSH2 0x6480 SWAP2 SWAP1 PUSH2 0x8CD0 JUMP JUMPDEST POP DUP1 PUSH1 0x1 PUSH1 0x0 CALLER PUSH20 0xFFFFFFFFFFFFFFFFFFFFFFFFFFFFFFFFFFFFFFFF AND PUSH20 0xFFFFFFFFFFFFFFFFFFFFFFFFFFFFFFFFFFFFFFFF AND DUP2 MSTORE PUSH1 0x20 ADD SWAP1 DUP2 MSTORE PUSH1 0x20 ADD PUSH1 0x0 KECCAK256 PUSH1 0x2 ADD DUP2 SWAP1 SSTORE POP PUSH32 0xCFC84FA73E8500B1F994B7616FDA16714AA77352DEFD398C17F8DDA41CC92195 CALLER DUP5 DUP5 PUSH1 0x40 MLOAD PUSH2 0x64FB SWAP4 SWAP3 SWAP2 SWAP1 PUSH2 0x94FC JUMP JUMPDEST PUSH1 0x40 MLOAD DUP1 SWAP2 SUB SWAP1 LOG1 POP POP POP JUMP JUMPDEST DUP2 PUSH1 0x1 PUSH1 0x0 CALLER PUSH20 0xFFFFFFFFFFFFFFFFFFFFFFFFFFFFFFFFFFFFFFFF AND PUSH20 0xFFFFFFFFFFFFFFFFFFFFFFFFFFFFFFFFFFFFFFFF AND DUP2 MSTORE PUSH1 0x20 ADD SWAP1 DUP2 MSTORE PUSH1 0x20 ADD PUSH1 0x0 KECCAK256 PUSH1 0x5 ADD SWAP1 DUP2 PUSH2 0x6557 SWAP2 SWAP1 PUSH2 0x8CD0 JUMP JUMPDEST POP DUP1 PUSH1 0x1 PUSH1 0x0 CALLER PUSH20 0xFFFFFFFFFFFFFFFFFFFFFFFFFFFFFFFFFFFFFFFF AND PUSH20 0xFFFFFFFFFFFFFFFFFFFFFFFFFFFFFFFFFFFFFFFF AND DUP2 MSTORE PUSH1 0x20 ADD SWAP1 DUP2 MSTORE PUSH1 0x20 ADD PUSH1 0x0 KECCAK256 PUSH1 0x6 ADD DUP2 SWAP1 SSTORE POP PUSH32 0x844D9124DAD5A413C4B99664397291F93F1E89513CD8C3A68674C050283C5561 CALLER PUSH1 0x1 PUSH1 0x0 CALLER PUSH20 0xFFFFFFFFFFFFFFFFFFFFFFFFFFFFFFFFFFFFFFFF AND PUSH20 0xFFFFFFFFFFFFFFFFFFFFFFFFFFFFFFFFFFFFFFFF AND DUP2 MSTORE PUSH1 0x20 ADD SWAP1 DUP2 MSTORE PUSH1 0x20 ADD PUSH1 0x0 KECCAK256 PUSH1 0x0 ADD DUP5 PUSH1 0x40 MLOAD PUSH2 0x6613 SWAP4 SWAP3 SWAP2 SWAP1 PUSH2 0x95AD JUMP JUMPDEST PUSH1 0x40 MLOAD DUP1 SWAP2 SUB SWAP1 LOG1 POP POP JUMP JUMPDEST PUSH1 0x0 DUP1 PUSH20 0xFFFFFFFFFFFFFFFFFFFFFFFFFFFFFFFFFFFFFFFF AND PUSH1 0x3 PUSH1 0x0 DUP6 PUSH20 0xFFFFFFFFFFFFFFFFFFFFFFFFFFFFFFFFFFFFFFFF AND PUSH20 0xFFFFFFFFFFFFFFFFFFFFFFFFFFFFFFFFFFFFFFFF AND DUP2 MSTORE PUSH1 0x20 ADD SWAP1 DUP2 MSTORE PUSH1 0x20 ADD PUSH1 0x0 KECCAK256 PUSH1 0x2 ADD PUSH1 0x0 SWAP1 SLOAD SWAP1 PUSH2 0x100 EXP SWAP1 DIV PUSH20 0xFFFFFFFFFFFFFFFFFFFFFFFFFFFFFFFFFFFFFFFF AND PUSH20 0xFFFFFFFFFFFFFFFFFFFFFFFFFFFFFFFFFFFFFFFF AND SUB PUSH2 0x66F1 JUMPI PUSH1 0x40 MLOAD PUSH32 0x8C379A000000000000000000000000000000000000000000000000000000000 DUP2 MSTORE PUSH1 0x4 ADD PUSH2 0x66E8 SWAP1 PUSH2 0x896D JUMP JUMPDEST PUSH1 0x40 MLOAD DUP1 SWAP2 SUB SWAP1 REVERT JUMPDEST DUP2 DUP1 ISZERO PUSH2 0x6770 JUMPI POP PUSH1 0x1 DUP1 DUP2 GT ISZERO PUSH2 0x670C JUMPI PUSH2 0x670B PUSH2 0x7848 JUMP JUMPDEST JUMPDEST PUSH1 0x3 PUSH1 0x0 DUP6 PUSH20 0xFFFFFFFFFFFFFFFFFFFFFFFFFFFFFFFFFFFFFFFF AND PUSH20 0xFFFFFFFFFFFFFFFFFFFFFFFFFFFFFFFFFFFFFFFF AND DUP2 MSTORE PUSH1 0x20 ADD SWAP1 DUP2 MSTORE PUSH1 0x20 ADD PUSH1 0x0 KECCAK256 PUSH1 0x4 ADD PUSH1 0x2 SWAP1 SLOAD SWAP1 PUSH2 0x100 EXP SWAP1 DIV PUSH1 0xFF AND PUSH1 0x1 DUP2 GT ISZERO PUSH2 0x676E JUMPI PUSH2 0x676D PUSH2 0x7848 JUMP JUMPDEST JUMPDEST EQ JUMPDEST ISZERO PUSH2 0x6863 JUMPI PUSH1 0x0 PUSH1 0x3 PUSH1 0x0 DUP6 PUSH20 0xFFFFFFFFFFFFFFFFFFFFFFFFFFFFFFFFFFFFFFFF AND PUSH20 0xFFFFFFFFFFFFFFFFFFFFFFFFFFFFFFFFFFFFFFFF AND DUP2 MSTORE PUSH1 0x20 ADD SWAP1 DUP2 MSTORE PUSH1 0x20 ADD PUSH1 0x0 KECCAK256 PUSH1 0x4 ADD PUSH1 0x2 PUSH2 0x100 EXP DUP2 SLOAD DUP2 PUSH1 0xFF MUL NOT AND SWAP1 DUP4 PUSH1 0x1 DUP2 GT ISZERO PUSH2 0x67DB JUMPI PUSH2 0x67DA PUSH2 0x7848 JUMP JUMPDEST JUMPDEST MUL OR SWAP1 SSTORE POP PUSH32 0xBBB85D77E85C02977B28BA58175443B7D9C020551C53482EA6DF5FE2E1CB8843 DUP4 PUSH1 0x3 PUSH1 0x0 DUP7 PUSH20 0xFFFFFFFFFFFFFFFFFFFFFFFFFFFFFFFFFFFFFFFF AND PUSH20 0xFFFFFFFFFFFFFFFFFFFFFFFFFFFFFFFFFFFFFFFF AND DUP2 MSTORE PUSH1 0x20 ADD SWAP1 DUP2 MSTORE PUSH1 0x20 ADD PUSH1 0x0 KECCAK256 PUSH1 0x0 ADD PUSH1 0x40 MLOAD PUSH2 0x6852 SWAP3 SWAP2 SWAP1 PUSH2 0x95F2 JUMP JUMPDEST PUSH1 0x40 MLOAD DUP1 SWAP2 SUB SWAP1 LOG1 PUSH1 0x0 SWAP1 POP PUSH2 0x6A2A JUMP JUMPDEST DUP2 ISZERO DUP1 ISZERO PUSH2 0x68E4 JUMPI POP PUSH1 0x0 PUSH1 0x1 DUP2 GT ISZERO PUSH2 0x6880 JUMPI PUSH2 0x687F PUSH2 0x7848 JUMP JUMPDEST JUMPDEST PUSH1 0x3 PUSH1 0x0 DUP6 PUSH20 0xFFFFFFFFFFFFFFFFFFFFFFFFFFFFFFFFFFFFFFFF AND PUSH20 0xFFFFFFFFFFFFFFFFFFFFFFFFFFFFFFFFFFFFFFFF AND DUP2 MSTORE PUSH1 0x20 ADD SWAP1 DUP2 MSTORE PUSH1 0x20 ADD PUSH1 0x0 KECCAK256 PUSH1 0x4 ADD PUSH1 0x2 SWAP1 SLOAD SWAP1 PUSH2 0x100 EXP SWAP1 DIV PUSH1 0xFF AND PUSH1 0x1 DUP2 GT ISZERO PUSH2 0x68E2 JUMPI PUSH2 0x68E1 PUSH2 0x7848 JUMP JUMPDEST JUMPDEST EQ JUMPDEST ISZERO PUSH2 0x69D7 JUMPI PUSH1 0x1 PUSH1 0x3 PUSH1 0x0 DUP6 PUSH20 0xFFFFFFFFFFFFFFFFFFFFFFFFFFFFFFFFFFFFFFFF AND PUSH20 0xFFFFFFFFFFFFFFFFFFFFFFFFFFFFFFFFFFFFFFFF AND DUP2 MSTORE PUSH1 0x20 ADD SWAP1 DUP2 MSTORE PUSH1 0x20 ADD PUSH1 0x0 KECCAK256 PUSH1 0x4 ADD PUSH1 0x2 PUSH2 0x100 EXP DUP2 SLOAD DUP2 PUSH1 0xFF MUL NOT AND SWAP1 DUP4 PUSH1 0x1 DUP2 GT ISZERO PUSH2 0x694F JUMPI PUSH2 0x694E PUSH2 0x7848 JUMP JUMPDEST JUMPDEST MUL OR SWAP1 SSTORE POP PUSH32 0xE2914C072E85A93716AEA3154E8DC2A6D4F9A823930697852B892FE10BD598F8 DUP4 PUSH1 0x3 PUSH1 0x0 DUP7 PUSH20 0xFFFFFFFFFFFFFFFFFFFFFFFFFFFFFFFFFFFFFFFF AND PUSH20 0xFFFFFFFFFFFFFFFFFFFFFFFFFFFFFFFFFFFFFFFF AND DUP2 MSTORE PUSH1 0x20 ADD SWAP1 DUP2 MSTORE PUSH1 0x20 ADD PUSH1 0x0 KECCAK256 PUSH1 0x0 ADD PUSH1 0x40 MLOAD PUSH2 0x69C6 SWAP3 SWAP2 SWAP1 PUSH2 0x95F2 JUMP JUMPDEST PUSH1 0x40 MLOAD DUP1 SWAP2 SUB SWAP1 LOG1 PUSH1 0x1 SWAP1 POP PUSH2 0x6A2A JUMP JUMPDEST PUSH1 0x3 PUSH1 0x0 DUP5 PUSH20 0xFFFFFFFFFFFFFFFFFFFFFFFFFFFFFFFFFFFFFFFF AND PUSH20 0xFFFFFFFFFFFFFFFFFFFFFFFFFFFFFFFFFFFFFFFF AND DUP2 MSTORE PUSH1 0x20 ADD SWAP1 DUP2 MSTORE PUSH1 0x20 ADD PUSH1 0x0 KECCAK256 PUSH1 0x4 ADD PUSH1 0x2 SWAP1 SLOAD SWAP1 PUSH2 0x100 EXP SWAP1 DIV PUSH1 0xFF AND SWAP1 POP JUMPDEST SWAP3 SWAP2 POP POP JUMP JUMPDEST PUSH1 0x0 PUSH1 0x60 PUSH1 0x0 DUP5 GT PUSH2 0x6A77 JUMPI PUSH1 0x40 MLOAD PUSH32 0x8C379A000000000000000000000000000000000000000000000000000000000 DUP2 MSTORE PUSH1 0x4 ADD PUSH2 0x6A6E SWAP1 PUSH2 0x966E JUMP JUMPDEST PUSH1 0x40 MLOAD DUP1 SWAP2 SUB SWAP1 REVERT JUMPDEST PUSH1 0x0 DUP1 PUSH1 0x0 DUP1 PUSH2 0x6B94 DUP9 DUP9 PUSH2 0x6ACA JUMPI PUSH1 0x9 PUSH1 0x0 CALLER PUSH20 0xFFFFFFFFFFFFFFFFFFFFFFFFFFFFFFFFFFFFFFFF AND PUSH20 0xFFFFFFFFFFFFFFFFFFFFFFFFFFFFFFFFFFFFFFFF AND DUP2 MSTORE PUSH1 0x20 ADD SWAP1 DUP2 MSTORE PUSH1 0x20 ADD PUSH1 0x0 KECCAK256 PUSH2 0x6B0A JUMP JUMPDEST PUSH1 0x8 PUSH1 0x0 CALLER PUSH20 0xFFFFFFFFFFFFFFFFFFFFFFFFFFFFFFFFFFFFFFFF AND PUSH20 0xFFFFFFFFFFFFFFFFFFFFFFFFFFFFFFFFFFFFFFFF AND DUP2 MSTORE PUSH1 0x20 ADD SWAP1 DUP2 MSTORE PUSH1 0x20 ADD PUSH1 0x0 KECCAK256 JUMPDEST DUP1 SLOAD DUP1 PUSH1 0x20 MUL PUSH1 0x20 ADD PUSH1 0x40 MLOAD SWAP1 DUP2 ADD PUSH1 0x40 MSTORE DUP1 SWAP3 SWAP2 SWAP1 DUP2 DUP2 MSTORE PUSH1 0x20 ADD DUP3 DUP1 SLOAD DUP1 ISZERO PUSH2 0x6B8A JUMPI PUSH1 0x20 MUL DUP3 ADD SWAP2 SWAP1 PUSH1 0x0 MSTORE PUSH1 0x20 PUSH1 0x0 KECCAK256 SWAP1 JUMPDEST DUP2 PUSH1 0x0 SWAP1 SLOAD SWAP1 PUSH2 0x100 EXP SWAP1 DIV PUSH20 0xFFFFFFFFFFFFFFFFFFFFFFFFFFFFFFFFFFFFFFFF AND PUSH20 0xFFFFFFFFFFFFFFFFFFFFFFFFFFFFFFFFFFFFFFFF AND DUP2 MSTORE PUSH1 0x20 ADD SWAP1 PUSH1 0x1 ADD SWAP1 DUP1 DUP4 GT PUSH2 0x6B40 JUMPI JUMPDEST POP POP POP POP POP PUSH2 0x7387 JUMP JUMPDEST SWAP4 POP SWAP4 POP SWAP4 POP SWAP4 POP PUSH1 0x0 DUP4 PUSH8 0xFFFFFFFFFFFFFFFF DUP2 GT ISZERO PUSH2 0x6BB8 JUMPI PUSH2 0x6BB7 PUSH2 0x7982 JUMP JUMPDEST JUMPDEST PUSH1 0x40 MLOAD SWAP1 DUP1 DUP3 MSTORE DUP1 PUSH1 0x20 MUL PUSH1 0x20 ADD DUP3 ADD PUSH1 0x40 MSTORE DUP1 ISZERO PUSH2 0x6BF1 JUMPI DUP2 PUSH1 0x20 ADD JUMPDEST PUSH2 0x6BDE PUSH2 0x74FC JUMP JUMPDEST DUP2 MSTORE PUSH1 0x20 ADD SWAP1 PUSH1 0x1 SWAP1 SUB SWAP1 DUP2 PUSH2 0x6BD6 JUMPI SWAP1 POP JUMPDEST POP SWAP1 POP PUSH1 0x0 DUP4 SWAP1 POP JUMPDEST DUP3 DUP2 LT ISZERO PUSH2 0x7194 JUMPI DUP9 PUSH2 0x6CAE JUMPI PUSH1 0x7 PUSH2 0x6C8E PUSH1 0x9 PUSH1 0x0 CALLER PUSH20 0xFFFFFFFFFFFFFFFFFFFFFFFFFFFFFFFFFFFFFFFF AND PUSH20 0xFFFFFFFFFFFFFFFFFFFFFFFFFFFFFFFFFFFFFFFF AND DUP2 MSTORE PUSH1 0x20 ADD SWAP1 DUP2 MSTORE PUSH1 0x20 ADD PUSH1 0x0 KECCAK256 DUP4 DUP2 SLOAD DUP2 LT PUSH2 0x6C5D JUMPI PUSH2 0x6C5C PUSH2 0x8F17 JUMP JUMPDEST JUMPDEST SWAP1 PUSH1 0x0 MSTORE PUSH1 0x20 PUSH1 0x0 KECCAK256 ADD PUSH1 0x0 SWAP1 SLOAD SWAP1 PUSH2 0x100 EXP SWAP1 DIV PUSH20 0xFFFFFFFFFFFFFFFFFFFFFFFFFFFFFFFFFFFFFFFF AND CALLER PUSH2 0x528F JUMP JUMPDEST PUSH1 0x40 MLOAD PUSH2 0x6C9B SWAP2 SWAP1 PUSH2 0x8B0D JUMP JUMPDEST SWAP1 DUP2 MSTORE PUSH1 0x20 ADD PUSH1 0x40 MLOAD DUP1 SWAP2 SUB SWAP1 KECCAK256 PUSH2 0x6D51 JUMP JUMPDEST PUSH1 0x7 PUSH2 0x6D35 CALLER PUSH1 0x8 PUSH1 0x0 CALLER PUSH20 0xFFFFFFFFFFFFFFFFFFFFFFFFFFFFFFFFFFFFFFFF AND PUSH20 0xFFFFFFFFFFFFFFFFFFFFFFFFFFFFFFFFFFFFFFFF AND DUP2 MSTORE PUSH1 0x20 ADD SWAP1 DUP2 MSTORE PUSH1 0x20 ADD PUSH1 0x0 KECCAK256 DUP5 DUP2 SLOAD DUP2 LT PUSH2 0x6D05 JUMPI PUSH2 0x6D04 PUSH2 0x8F17 JUMP JUMPDEST JUMPDEST SWAP1 PUSH1 0x0 MSTORE PUSH1 0x20 PUSH1 0x0 KECCAK256 ADD PUSH1 0x0 SWAP1 SLOAD SWAP1 PUSH2 0x100 EXP SWAP1 DIV PUSH20 0xFFFFFFFFFFFFFFFFFFFFFFFFFFFFFFFFFFFFFFFF AND PUSH2 0x528F JUMP JUMPDEST PUSH1 0x40 MLOAD PUSH2 0x6D42 SWAP2 SWAP1 PUSH2 0x8B0D JUMP JUMPDEST SWAP1 DUP2 MSTORE PUSH1 0x20 ADD PUSH1 0x40 MLOAD DUP1 SWAP2 SUB SWAP1 KECCAK256 JUMPDEST PUSH1 0x40 MLOAD DUP1 PUSH2 0x140 ADD PUSH1 0x40 MSTORE SWAP1 DUP2 PUSH1 0x0 DUP3 ADD DUP1 SLOAD PUSH2 0x6D6D SWAP1 PUSH2 0x8884 JUMP JUMPDEST DUP1 PUSH1 0x1F ADD PUSH1 0x20 DUP1 SWAP2 DIV MUL PUSH1 0x20 ADD PUSH1 0x40 MLOAD SWAP1 DUP2 ADD PUSH1 0x40 MSTORE DUP1 SWAP3 SWAP2 SWAP1 DUP2 DUP2 MSTORE PUSH1 0x20 ADD DUP3 DUP1 SLOAD PUSH2 0x6D99 SWAP1 PUSH2 0x8884 JUMP JUMPDEST DUP1 ISZERO PUSH2 0x6DE6 JUMPI DUP1 PUSH1 0x1F LT PUSH2 0x6DBB JUMPI PUSH2 0x100 DUP1 DUP4 SLOAD DIV MUL DUP4 MSTORE SWAP2 PUSH1 0x20 ADD SWAP2 PUSH2 0x6DE6 JUMP JUMPDEST DUP3 ADD SWAP2 SWAP1 PUSH1 0x0 MSTORE PUSH1 0x20 PUSH1 0x0 KECCAK256 SWAP1 JUMPDEST DUP2 SLOAD DUP2 MSTORE SWAP1 PUSH1 0x1 ADD SWAP1 PUSH1 0x20 ADD DUP1 DUP4 GT PUSH2 0x6DC9 JUMPI DUP3 SWAP1 SUB PUSH1 0x1F AND DUP3 ADD SWAP2 JUMPDEST POP POP POP POP POP DUP2 MSTORE PUSH1 0x20 ADD PUSH1 0x1 DUP3 ADD PUSH1 0x0 SWAP1 SLOAD SWAP1 PUSH2 0x100 EXP SWAP1 DIV PUSH20 0xFFFFFFFFFFFFFFFFFFFFFFFFFFFFFFFFFFFFFFFF AND PUSH20 0xFFFFFFFFFFFFFFFFFFFFFFFFFFFFFFFFFFFFFFFF AND PUSH20 0xFFFFFFFFFFFFFFFFFFFFFFFFFFFFFFFFFFFFFFFF AND DUP2 MSTORE PUSH1 0x20 ADD PUSH1 0x2 DUP3 ADD DUP1 SLOAD PUSH2 0x6E55 SWAP1 PUSH2 0x8884 JUMP JUMPDEST DUP1 PUSH1 0x1F ADD PUSH1 0x20 DUP1 SWAP2 DIV MUL PUSH1 0x20 ADD PUSH1 0x40 MLOAD SWAP1 DUP2 ADD PUSH1 0x40 MSTORE DUP1 SWAP3 SWAP2 SWAP1 DUP2 DUP2 MSTORE PUSH1 0x20 ADD DUP3 DUP1 SLOAD PUSH2 0x6E81 SWAP1 PUSH2 0x8884 JUMP JUMPDEST DUP1 ISZERO PUSH2 0x6ECE JUMPI DUP1 PUSH1 0x1F LT PUSH2 0x6EA3 JUMPI PUSH2 0x100 DUP1 DUP4 SLOAD DIV MUL DUP4 MSTORE SWAP2 PUSH1 0x20 ADD SWAP2 PUSH2 0x6ECE JUMP JUMPDEST DUP3 ADD SWAP2 SWAP1 PUSH1 0x0 MSTORE PUSH1 0x20 PUSH1 0x0 KECCAK256 SWAP1 JUMPDEST DUP2 SLOAD DUP2 MSTORE SWAP1 PUSH1 0x1 ADD SWAP1 PUSH1 0x20 ADD DUP1 DUP4 GT PUSH2 0x6EB1 JUMPI DUP3 SWAP1 SUB PUSH1 0x1F AND DUP3 ADD SWAP2 JUMPDEST POP POP POP POP POP DUP2 MSTORE PUSH1 0x20 ADD PUSH1 0x3 DUP3 ADD PUSH1 0x0 SWAP1 SLOAD SWAP1 PUSH2 0x100 EXP SWAP1 DIV PUSH20 0xFFFFFFFFFFFFFFFFFFFFFFFFFFFFFFFFFFFFFFFF AND PUSH20 0xFFFFFFFFFFFFFFFFFFFFFFFFFFFFFFFFFFFFFFFF AND PUSH20 0xFFFFFFFFFFFFFFFFFFFFFFFFFFFFFFFFFFFFFFFF AND DUP2 MSTORE PUSH1 0x20 ADD PUSH1 0x4 DUP3 ADD DUP1 SLOAD PUSH2 0x6F3D SWAP1 PUSH2 0x8884 JUMP JUMPDEST DUP1 PUSH1 0x1F ADD PUSH1 0x20 DUP1 SWAP2 DIV MUL PUSH1 0x20 ADD PUSH1 0x40 MLOAD SWAP1 DUP2 ADD PUSH1 0x40 MSTORE DUP1 SWAP3 SWAP2 SWAP1 DUP2 DUP2 MSTORE PUSH1 0x20 ADD DUP3 DUP1 SLOAD PUSH2 0x6F69 SWAP1 PUSH2 0x8884 JUMP JUMPDEST DUP1 ISZERO PUSH2 0x6FB6 JUMPI DUP1 PUSH1 0x1F LT PUSH2 0x6F8B JUMPI PUSH2 0x100 DUP1 DUP4 SLOAD DIV MUL DUP4 MSTORE SWAP2 PUSH1 0x20 ADD SWAP2 PUSH2 0x6FB6 JUMP JUMPDEST DUP3 ADD SWAP2 SWAP1 PUSH1 0x0 MSTORE PUSH1 0x20 PUSH1 0x0 KECCAK256 SWAP1 JUMPDEST DUP2 SLOAD DUP2 MSTORE SWAP1 PUSH1 0x1 ADD SWAP1 PUSH1 0x20 ADD DUP1 DUP4 GT PUSH2 0x6F99 JUMPI DUP3 SWAP1 SUB PUSH1 0x1F AND DUP3 ADD SWAP2 JUMPDEST POP POP POP POP POP DUP2 MSTORE PUSH1 0x20 ADD PUSH1 0x5 DUP3 ADD DUP1 SLOAD PUSH2 0x6FCF SWAP1 PUSH2 0x8884 JUMP JUMPDEST DUP1 PUSH1 0x1F ADD PUSH1 0x20 DUP1 SWAP2 DIV MUL PUSH1 0x20 ADD PUSH1 0x40 MLOAD SWAP1 DUP2 ADD PUSH1 0x40 MSTORE DUP1 SWAP3 SWAP2 SWAP1 DUP2 DUP2 MSTORE PUSH1 0x20 ADD DUP3 DUP1 SLOAD PUSH2 0x6FFB SWAP1 PUSH2 0x8884 JUMP JUMPDEST DUP1 ISZERO PUSH2 0x7048 JUMPI DUP1 PUSH1 0x1F LT PUSH2 0x701D JUMPI PUSH2 0x100 DUP1 DUP4 SLOAD DIV MUL DUP4 MSTORE SWAP2 PUSH1 0x20 ADD SWAP2 PUSH2 0x7048 JUMP JUMPDEST DUP3 ADD SWAP2 SWAP1 PUSH1 0x0 MSTORE PUSH1 0x20 PUSH1 0x0 KECCAK256 SWAP1 JUMPDEST DUP2 SLOAD DUP2 MSTORE SWAP1 PUSH1 0x1 ADD SWAP1 PUSH1 0x20 ADD DUP1 DUP4 GT PUSH2 0x702B JUMPI DUP3 SWAP1 SUB PUSH1 0x1F AND DUP3 ADD SWAP2 JUMPDEST POP POP POP POP POP DUP2 MSTORE PUSH1 0x20 ADD PUSH1 0x6 DUP3 ADD SLOAD DUP2 MSTORE PUSH1 0x20 ADD PUSH1 0x7 DUP3 ADD PUSH1 0x0 SWAP1 SLOAD SWAP1 PUSH2 0x100 EXP SWAP1 DIV PUSH1 0xFF AND PUSH1 0x2 DUP2 GT ISZERO PUSH2 0x7080 JUMPI PUSH2 0x707F PUSH2 0x7848 JUMP JUMPDEST JUMPDEST PUSH1 0x2 DUP2 GT ISZERO PUSH2 0x7092 JUMPI PUSH2 0x7091 PUSH2 0x7848 JUMP JUMPDEST JUMPDEST DUP2 MSTORE PUSH1 0x20 ADD PUSH1 0x7 DUP3 ADD PUSH1 0x1 SWAP1 SLOAD SWAP1 PUSH2 0x100 EXP SWAP1 DIV PUSH1 0xFF AND PUSH1 0x2 DUP2 GT ISZERO PUSH2 0x70BB JUMPI PUSH2 0x70BA PUSH2 0x7848 JUMP JUMPDEST JUMPDEST PUSH1 0x2 DUP2 GT ISZERO PUSH2 0x70CD JUMPI PUSH2 0x70CC PUSH2 0x7848 JUMP JUMPDEST JUMPDEST DUP2 MSTORE PUSH1 0x20 ADD PUSH1 0x8 DUP3 ADD DUP1 SLOAD PUSH2 0x70E1 SWAP1 PUSH2 0x8884 JUMP JUMPDEST DUP1 PUSH1 0x1F ADD PUSH1 0x20 DUP1 SWAP2 DIV MUL PUSH1 0x20 ADD PUSH1 0x40 MLOAD SWAP1 DUP2 ADD PUSH1 0x40 MSTORE DUP1 SWAP3 SWAP2 SWAP1 DUP2 DUP2 MSTORE PUSH1 0x20 ADD DUP3 DUP1 SLOAD PUSH2 0x710D SWAP1 PUSH2 0x8884 JUMP JUMPDEST DUP1 ISZERO PUSH2 0x715A JUMPI DUP1 PUSH1 0x1F LT PUSH2 0x712F JUMPI PUSH2 0x100 DUP1 DUP4 SLOAD DIV MUL DUP4 MSTORE SWAP2 PUSH1 0x20 ADD SWAP2 PUSH2 0x715A JUMP JUMPDEST DUP3 ADD SWAP2 SWAP1 PUSH1 0x0 MSTORE PUSH1 0x20 PUSH1 0x0 KECCAK256 SWAP1 JUMPDEST DUP2 SLOAD DUP2 MSTORE SWAP1 PUSH1 0x1 ADD SWAP1 PUSH1 0x20 ADD DUP1 DUP4 GT PUSH2 0x713D JUMPI DUP3 SWAP1 SUB PUSH1 0x1F AND DUP3 ADD SWAP2 JUMPDEST POP POP POP POP POP DUP2 MSTORE POP POP DUP3 DUP3 DUP2 MLOAD DUP2 LT PUSH2 0x7176 JUMPI PUSH2 0x7175 PUSH2 0x8F17 JUMP JUMPDEST JUMPDEST PUSH1 0x20 MUL PUSH1 0x20 ADD ADD DUP2 SWAP1 MSTORE POP DUP1 DUP1 PUSH2 0x718C SWAP1 PUSH2 0x8F75 JUMP JUMPDEST SWAP2 POP POP PUSH2 0x6BFA JUMP JUMPDEST POP DUP5 DUP2 SWAP7 POP SWAP7 POP POP POP POP POP POP SWAP3 POP SWAP3 SWAP1 POP JUMP JUMPDEST PUSH1 0x0 PUSH20 0xFFFFFFFFFFFFFFFFFFFFFFFFFFFFFFFFFFFFFFFF AND DUP2 PUSH20 0xFFFFFFFFFFFFFFFFFFFFFFFFFFFFFFFFFFFFFFFF AND SUB PUSH2 0x7216 JUMPI PUSH1 0x40 MLOAD PUSH32 0x8C379A000000000000000000000000000000000000000000000000000000000 DUP2 MSTORE PUSH1 0x4 ADD PUSH2 0x720D SWAP1 PUSH2 0x896D JUMP JUMPDEST PUSH1 0x40 MLOAD DUP1 SWAP2 SUB SWAP1 REVERT JUMPDEST PUSH1 0x3 PUSH1 0x0 DUP3 PUSH20 0xFFFFFFFFFFFFFFFFFFFFFFFFFFFFFFFFFFFFFFFF AND PUSH20 0xFFFFFFFFFFFFFFFFFFFFFFFFFFFFFFFFFFFFFFFF AND DUP2 MSTORE PUSH1 0x20 ADD SWAP1 DUP2 MSTORE PUSH1 0x20 ADD PUSH1 0x0 KECCAK256 PUSH1 0x4 ADD PUSH1 0x0 DUP2 DUP2 SWAP1 SLOAD SWAP1 PUSH2 0x100 EXP SWAP1 DIV PUSH2 0xFFFF AND DUP1 SWAP3 SWAP2 SWAP1 PUSH2 0x7276 SWAP1 PUSH2 0x968E JUMP JUMPDEST SWAP2 SWAP1 PUSH2 0x100 EXP DUP2 SLOAD DUP2 PUSH2 0xFFFF MUL NOT AND SWAP1 DUP4 PUSH2 0xFFFF AND MUL OR SWAP1 SSTORE POP POP POP JUMP JUMPDEST PUSH1 0x0 PUSH20 0xFFFFFFFFFFFFFFFFFFFFFFFFFFFFFFFFFFFFFFFF AND DUP2 PUSH20 0xFFFFFFFFFFFFFFFFFFFFFFFFFFFFFFFFFFFFFFFF AND SUB PUSH2 0x7303 JUMPI PUSH1 0x40 MLOAD PUSH32 0x8C379A000000000000000000000000000000000000000000000000000000000 DUP2 MSTORE PUSH1 0x4 ADD PUSH2 0x72FA SWAP1 PUSH2 0x9704 JUMP JUMPDEST PUSH1 0x40 MLOAD DUP1 SWAP2 SUB SWAP1 REVERT JUMPDEST CALLER PUSH1 0x1 PUSH1 0x0 DUP4 PUSH20 0xFFFFFFFFFFFFFFFFFFFFFFFFFFFFFFFFFFFFFFFF AND PUSH20 0xFFFFFFFFFFFFFFFFFFFFFFFFFFFFFFFFFFFFFFFF AND DUP2 MSTORE PUSH1 0x20 ADD SWAP1 DUP2 MSTORE PUSH1 0x20 ADD PUSH1 0x0 KECCAK256 PUSH1 0x4 ADD PUSH1 0x0 PUSH2 0x100 EXP DUP2 SLOAD DUP2 PUSH20 0xFFFFFFFFFFFFFFFFFFFFFFFFFFFFFFFFFFFFFFFF MUL NOT AND SWAP1 DUP4 PUSH20 0xFFFFFFFFFFFFFFFFFFFFFFFFFFFFFFFFFFFFFFFF AND MUL OR SWAP1 SSTORE POP POP JUMP JUMPDEST PUSH1 0x0 DUP1 PUSH1 0x0 DUP1 PUSH1 0x0 PUSH1 0x19 DUP7 MLOAD PUSH2 0x739D SWAP2 SWAP1 PUSH2 0x9753 JUMP JUMPDEST SWAP1 POP PUSH1 0x19 DUP7 MLOAD PUSH2 0x73AD SWAP2 SWAP1 PUSH2 0x9784 JUMP JUMPDEST SWAP5 POP PUSH1 0x0 DUP2 GT ISZERO PUSH2 0x73C7 JUMPI DUP5 DUP1 PUSH2 0x73C3 SWAP1 PUSH2 0x8F75 JUMP JUMPDEST SWAP6 POP POP JUMPDEST PUSH1 0x19 SWAP4 POP PUSH1 0x1 DUP8 PUSH2 0x73D8 SWAP2 SWAP1 PUSH2 0x97B5 JUMP JUMPDEST PUSH1 0x19 PUSH2 0x73E4 SWAP2 SWAP1 PUSH2 0x97E9 JUMP JUMPDEST SWAP3 POP DUP7 PUSH1 0x19 PUSH2 0x73F3 SWAP2 SWAP1 PUSH2 0x97E9 JUMP JUMPDEST SWAP2 POP DUP5 DUP8 GT ISZERO PUSH2 0x740A JUMPI PUSH1 0x0 SWAP4 POP PUSH1 0x0 SWAP2 POP PUSH2 0x7427 JUMP JUMPDEST DUP5 DUP8 EQ DUP1 ISZERO PUSH2 0x7419 JUMPI POP PUSH1 0x0 DUP2 GT JUMPDEST ISZERO PUSH2 0x7426 JUMPI DUP1 SWAP4 POP DUP6 MLOAD SWAP2 POP JUMPDEST JUMPDEST POP SWAP3 SWAP6 SWAP2 SWAP5 POP SWAP3 POP JUMP JUMPDEST PUSH1 0x40 MLOAD DUP1 PUSH1 0xE0 ADD PUSH1 0x40 MSTORE DUP1 PUSH1 0x60 DUP2 MSTORE PUSH1 0x20 ADD PUSH1 0x60 DUP2 MSTORE PUSH1 0x20 ADD PUSH1 0x0 DUP2 MSTORE PUSH1 0x20 ADD PUSH1 0x0 PUSH20 0xFFFFFFFFFFFFFFFFFFFFFFFFFFFFFFFFFFFFFFFF AND DUP2 MSTORE PUSH1 0x20 ADD PUSH1 0x0 PUSH20 0xFFFFFFFFFFFFFFFFFFFFFFFFFFFFFFFFFFFFFFFF AND DUP2 MSTORE PUSH1 0x20 ADD PUSH1 0x60 DUP2 MSTORE PUSH1 0x20 ADD PUSH1 0x0 DUP2 MSTORE POP SWAP1 JUMP JUMPDEST PUSH1 0x40 MLOAD DUP1 PUSH1 0xC0 ADD PUSH1 0x40 MSTORE DUP1 PUSH1 0x60 DUP2 MSTORE PUSH1 0x20 ADD PUSH1 0x60 DUP2 MSTORE PUSH1 0x20 ADD PUSH1 0x0 PUSH20 0xFFFFFFFFFFFFFFFFFFFFFFFFFFFFFFFFFFFFFFFF AND DUP2 MSTORE PUSH1 0x20 ADD PUSH1 0x60 DUP2 MSTORE PUSH1 0x20 ADD PUSH1 0x0 PUSH2 0xFFFF AND DUP2 MSTORE PUSH1 0x20 ADD PUSH1 0x0 PUSH1 0x1 DUP2 GT ISZERO PUSH2 0x74F6 JUMPI PUSH2 0x74F5 PUSH2 0x7848 JUMP JUMPDEST JUMPDEST DUP2 MSTORE POP SWAP1 JUMP JUMPDEST PUSH1 0x40 MLOAD DUP1 PUSH2 0x140 ADD PUSH1 0x40 MSTORE DUP1 PUSH1 0x60 DUP2 MSTORE PUSH1 0x20 ADD PUSH1 0x0 PUSH20 0xFFFFFFFFFFFFFFFFFFFFFFFFFFFFFFFFFFFFFFFF AND DUP2 MSTORE PUSH1 0x20 ADD PUSH1 0x60 DUP2 MSTORE PUSH1 0x20 ADD PUSH1 0x0 PUSH20 0xFFFFFFFFFFFFFFFFFFFFFFFFFFFFFFFFFFFFFFFF AND DUP2 MSTORE PUSH1 0x20 ADD PUSH1 0x60 DUP2 MSTORE PUSH1 0x20 ADD PUSH1 0x60 DUP2 MSTORE PUSH1 0x20 ADD PUSH1 0x0 DUP2 MSTORE PUSH1 0x20 ADD PUSH1 0x0 PUSH1 0x2 DUP2 GT ISZERO PUSH2 0x7579 JUMPI PUSH2 0x7578 PUSH2 0x7848 JUMP JUMPDEST JUMPDEST DUP2 MSTORE PUSH1 0x20 ADD PUSH1 0x0 PUSH1 0x2 DUP2 GT ISZERO PUSH2 0x7592 JUMPI PUSH2 0x7591 PUSH2 0x7848 JUMP JUMPDEST JUMPDEST DUP2 MSTORE PUSH1 0x20 ADD PUSH1 0x60 DUP2 MSTORE POP SWAP1 JUMP JUMPDEST PUSH1 0x40 MLOAD DUP1 PUSH1 0xA0 ADD PUSH1 0x40 MSTORE DUP1 PUSH1 0x60 DUP2 MSTORE PUSH1 0x20 ADD PUSH1 0x60 DUP2 MSTORE PUSH1 0x20 ADD PUSH1 0x0 PUSH20 0xFFFFFFFFFFFFFFFFFFFFFFFFFFFFFFFFFFFFFFFF AND DUP2 MSTORE PUSH1 0x20 ADD PUSH1 0x0 PUSH1 0x2 DUP2 GT ISZERO PUSH2 0x75E9 JUMPI PUSH2 0x75E8 PUSH2 0x7848 JUMP JUMPDEST JUMPDEST DUP2 MSTORE PUSH1 0x20 ADD PUSH1 0x0 PUSH1 0x1 DUP2 GT ISZERO PUSH2 0x7602 JUMPI PUSH2 0x7601 PUSH2 0x7848 JUMP JUMPDEST JUMPDEST DUP2 MSTORE POP SWAP1 JUMP JUMPDEST PUSH1 0x0 PUSH1 0x40 MLOAD SWAP1 POP SWAP1 JUMP JUMPDEST PUSH1 0x0 DUP1 REVERT JUMPDEST PUSH1 0x0 DUP1 REVERT JUMPDEST PUSH1 0x0 PUSH20 0xFFFFFFFFFFFFFFFFFFFFFFFFFFFFFFFFFFFFFFFF DUP3 AND SWAP1 POP SWAP2 SWAP1 POP JUMP JUMPDEST PUSH1 0x0 PUSH2 0x7647 DUP3 PUSH2 0x761C JUMP JUMPDEST SWAP1 POP SWAP2 SWAP1 POP JUMP JUMPDEST PUSH2 0x7657 DUP2 PUSH2 0x763C JUMP JUMPDEST DUP2 EQ PUSH2 0x7662 JUMPI PUSH1 0x0 DUP1 REVERT JUMPDEST POP JUMP JUMPDEST PUSH1 0x0 DUP2 CALLDATALOAD SWAP1 POP PUSH2 0x7674 DUP2 PUSH2 0x764E JUMP JUMPDEST SWAP3 SWAP2 POP POP JUMP JUMPDEST PUSH1 0x0 PUSH1 0x20 DUP3 DUP5 SUB SLT ISZERO PUSH2 0x7690 JUMPI PUSH2 0x768F PUSH2 0x7612 JUMP JUMPDEST JUMPDEST PUSH1 0x0 PUSH2 0x769E DUP5 DUP3 DUP6 ADD PUSH2 0x7665 JUMP JUMPDEST SWAP2 POP POP SWAP3 SWAP2 POP POP JUMP JUMPDEST PUSH1 0x0 DUP2 MLOAD SWAP1 POP SWAP2 SWAP1 POP JUMP JUMPDEST PUSH1 0x0 DUP3 DUP3 MSTORE PUSH1 0x20 DUP3 ADD SWAP1 POP SWAP3 SWAP2 POP POP JUMP JUMPDEST PUSH1 0x0 JUMPDEST DUP4 DUP2 LT ISZERO PUSH2 0x76E1 JUMPI DUP1 DUP3 ADD MLOAD DUP2 DUP5 ADD MSTORE PUSH1 0x20 DUP2 ADD SWAP1 POP PUSH2 0x76C6 JUMP JUMPDEST PUSH1 0x0 DUP5 DUP5 ADD MSTORE POP POP POP POP JUMP JUMPDEST PUSH1 0x0 PUSH1 0x1F NOT PUSH1 0x1F DUP4 ADD AND SWAP1 POP SWAP2 SWAP1 POP JUMP JUMPDEST PUSH1 0x0 PUSH2 0x7709 DUP3 PUSH2 0x76A7 JUMP JUMPDEST PUSH2 0x7713 DUP2 DUP6 PUSH2 0x76B2 JUMP JUMPDEST SWAP4 POP PUSH2 0x7723 DUP2 DUP6 PUSH1 0x20 DUP7 ADD PUSH2 0x76C3 JUMP JUMPDEST PUSH2 0x772C DUP2 PUSH2 0x76ED JUMP JUMPDEST DUP5 ADD SWAP2 POP POP SWAP3 SWAP2 POP POP JUMP JUMPDEST PUSH1 0x0 DUP2 SWAP1 POP SWAP2 SWAP1 POP JUMP JUMPDEST PUSH2 0x774A DUP2 PUSH2 0x7737 JUMP JUMPDEST DUP3 MSTORE POP POP JUMP JUMPDEST PUSH2 0x7759 DUP2 PUSH2 0x763C JUMP JUMPDEST DUP3 MSTORE POP POP JUMP JUMPDEST PUSH1 0x0 PUSH1 0xE0 DUP4 ADD PUSH1 0x0 DUP4 ADD MLOAD DUP5 DUP3 SUB PUSH1 0x0 DUP7 ADD MSTORE PUSH2 0x777C DUP3 DUP3 PUSH2 0x76FE JUMP JUMPDEST SWAP2 POP POP PUSH1 0x20 DUP4 ADD MLOAD DUP5 DUP3 SUB PUSH1 0x20 DUP7 ADD MSTORE PUSH2 0x7796 DUP3 DUP3 PUSH2 0x76FE JUMP JUMPDEST SWAP2 POP POP PUSH1 0x40 DUP4 ADD MLOAD PUSH2 0x77AB PUSH1 0x40 DUP7 ADD DUP3 PUSH2 0x7741 JUMP JUMPDEST POP PUSH1 0x60 DUP4 ADD MLOAD PUSH2 0x77BE PUSH1 0x60 DUP7 ADD DUP3 PUSH2 0x7750 JUMP JUMPDEST POP PUSH1 0x80 DUP4 ADD MLOAD PUSH2 0x77D1 PUSH1 0x80 DUP7 ADD DUP3 PUSH2 0x7750 JUMP JUMPDEST POP PUSH1 0xA0 DUP4 ADD MLOAD DUP5 DUP3 SUB PUSH1 0xA0 DUP7 ADD MSTORE PUSH2 0x77E9 DUP3 DUP3 PUSH2 0x76FE JUMP JUMPDEST SWAP2 POP POP PUSH1 0xC0 DUP4 ADD MLOAD PUSH2 0x77FE PUSH1 0xC0 DUP7 ADD DUP3 PUSH2 0x7741 JUMP JUMPDEST POP DUP1 SWAP2 POP POP SWAP3 SWAP2 POP POP JUMP JUMPDEST PUSH1 0x0 PUSH1 0x20 DUP3 ADD SWAP1 POP DUP2 DUP2 SUB PUSH1 0x0 DUP4 ADD MSTORE PUSH2 0x7823 DUP2 DUP5 PUSH2 0x775F JUMP JUMPDEST SWAP1 POP SWAP3 SWAP2 POP POP JUMP JUMPDEST PUSH1 0x0 PUSH2 0xFFFF DUP3 AND SWAP1 POP SWAP2 SWAP1 POP JUMP JUMPDEST PUSH2 0x7842 DUP2 PUSH2 0x782B JUMP JUMPDEST DUP3 MSTORE POP POP JUMP JUMPDEST PUSH32 0x4E487B7100000000000000000000000000000000000000000000000000000000 PUSH1 0x0 MSTORE PUSH1 0x21 PUSH1 0x4 MSTORE PUSH1 0x24 PUSH1 0x0 REVERT JUMPDEST PUSH1 0x2 DUP2 LT PUSH2 0x7888 JUMPI PUSH2 0x7887 PUSH2 0x7848 JUMP JUMPDEST JUMPDEST POP JUMP JUMPDEST PUSH1 0x0 DUP2 SWAP1 POP PUSH2 0x7899 DUP3 PUSH2 0x7877 JUMP JUMPDEST SWAP2 SWAP1 POP JUMP JUMPDEST PUSH1 0x0 PUSH2 0x78A9 DUP3 PUSH2 0x788B JUMP JUMPDEST SWAP1 POP SWAP2 SWAP1 POP JUMP JUMPDEST PUSH2 0x78B9 DUP2 PUSH2 0x789E JUMP JUMPDEST DUP3 MSTORE POP POP JUMP JUMPDEST PUSH1 0x0 PUSH1 0xC0 DUP4 ADD PUSH1 0x0 DUP4 ADD MLOAD DUP5 DUP3 SUB PUSH1 0x0 DUP7 ADD MSTORE PUSH2 0x78DC DUP3 DUP3 PUSH2 0x76FE JUMP JUMPDEST SWAP2 POP POP PUSH1 0x20 DUP4 ADD MLOAD DUP5 DUP3 SUB PUSH1 0x20 DUP7 ADD MSTORE PUSH2 0x78F6 DUP3 DUP3 PUSH2 0x76FE JUMP JUMPDEST SWAP2 POP POP PUSH1 0x40 DUP4 ADD MLOAD PUSH2 0x790B PUSH1 0x40 DUP7 ADD DUP3 PUSH2 0x7750 JUMP JUMPDEST POP PUSH1 0x60 DUP4 ADD MLOAD DUP5 DUP3 SUB PUSH1 0x60 DUP7 ADD MSTORE PUSH2 0x7923 DUP3 DUP3 PUSH2 0x76FE JUMP JUMPDEST SWAP2 POP POP PUSH1 0x80 DUP4 ADD MLOAD PUSH2 0x7938 PUSH1 0x80 DUP7 ADD DUP3 PUSH2 0x7839 JUMP JUMPDEST POP PUSH1 0xA0 DUP4 ADD MLOAD PUSH2 0x794B PUSH1 0xA0 DUP7 ADD DUP3 PUSH2 0x78B0 JUMP JUMPDEST POP DUP1 SWAP2 POP POP SWAP3 SWAP2 POP POP JUMP JUMPDEST PUSH1 0x0 PUSH1 0x20 DUP3 ADD SWAP1 POP DUP2 DUP2 SUB PUSH1 0x0 DUP4 ADD MSTORE PUSH2 0x7970 DUP2 DUP5 PUSH2 0x78BF JUMP JUMPDEST SWAP1 POP SWAP3 SWAP2 POP POP JUMP JUMPDEST PUSH1 0x0 DUP1 REVERT JUMPDEST PUSH1 0x0 DUP1 REVERT JUMPDEST PUSH32 0x4E487B7100000000000000000000000000000000000000000000000000000000 PUSH1 0x0 MSTORE PUSH1 0x41 PUSH1 0x4 MSTORE PUSH1 0x24 PUSH1 0x0 REVERT JUMPDEST PUSH2 0x79BA DUP3 PUSH2 0x76ED JUMP JUMPDEST DUP2 ADD DUP2 DUP2 LT PUSH8 0xFFFFFFFFFFFFFFFF DUP3 GT OR ISZERO PUSH2 0x79D9 JUMPI PUSH2 0x79D8 PUSH2 0x7982 JUMP JUMPDEST JUMPDEST DUP1 PUSH1 0x40 MSTORE POP POP POP JUMP JUMPDEST PUSH1 0x0 PUSH2 0x79EC PUSH2 0x7608 JUMP JUMPDEST SWAP1 POP PUSH2 0x79F8 DUP3 DUP3 PUSH2 0x79B1 JUMP JUMPDEST SWAP2 SWAP1 POP JUMP JUMPDEST PUSH1 0x0 PUSH8 0xFFFFFFFFFFFFFFFF DUP3 GT ISZERO PUSH2 0x7A18 JUMPI PUSH2 0x7A17 PUSH2 0x7982 JUMP JUMPDEST JUMPDEST PUSH2 0x7A21 DUP3 PUSH2 0x76ED JUMP JUMPDEST SWAP1 POP PUSH1 0x20 DUP2 ADD SWAP1 POP SWAP2 SWAP1 POP JUMP JUMPDEST DUP3 DUP2 DUP4 CALLDATACOPY PUSH1 0x0 DUP4 DUP4 ADD MSTORE POP POP POP JUMP JUMPDEST PUSH1 0x0 PUSH2 0x7A50 PUSH2 0x7A4B DUP5 PUSH2 0x79FD JUMP JUMPDEST PUSH2 0x79E2 JUMP JUMPDEST SWAP1 POP DUP3 DUP2 MSTORE PUSH1 0x20 DUP2 ADD DUP5 DUP5 DUP5 ADD GT ISZERO PUSH2 0x7A6C JUMPI PUSH2 0x7A6B PUSH2 0x797D JUMP JUMPDEST JUMPDEST PUSH2 0x7A77 DUP5 DUP3 DUP6 PUSH2 0x7A2E JUMP JUMPDEST POP SWAP4 SWAP3 POP POP POP JUMP JUMPDEST PUSH1 0x0 DUP3 PUSH1 0x1F DUP4 ADD SLT PUSH2 0x7A94 JUMPI PUSH2 0x7A93 PUSH2 0x7978 JUMP JUMPDEST JUMPDEST DUP2 CALLDATALOAD PUSH2 0x7AA4 DUP5 DUP3 PUSH1 0x20 DUP7 ADD PUSH2 0x7A3D JUMP JUMPDEST SWAP2 POP POP SWAP3 SWAP2 POP POP JUMP JUMPDEST PUSH1 0x0 DUP1 PUSH1 0x40 DUP4 DUP6 SUB SLT ISZERO PUSH2 0x7AC4 JUMPI PUSH2 0x7AC3 PUSH2 0x7612 JUMP JUMPDEST JUMPDEST PUSH1 0x0 PUSH2 0x7AD2 DUP6 DUP3 DUP7 ADD PUSH2 0x7665 JUMP JUMPDEST SWAP3 POP POP PUSH1 0x20 DUP4 ADD CALLDATALOAD PUSH8 0xFFFFFFFFFFFFFFFF DUP2 GT ISZERO PUSH2 0x7AF3 JUMPI PUSH2 0x7AF2 PUSH2 0x7617 JUMP JUMPDEST JUMPDEST PUSH2 0x7AFF DUP6 DUP3 DUP7 ADD PUSH2 0x7A7F JUMP JUMPDEST SWAP2 POP POP SWAP3 POP SWAP3 SWAP1 POP JUMP JUMPDEST PUSH1 0x0 DUP1 REVERT JUMPDEST PUSH1 0x0 DUP1 REVERT JUMPDEST PUSH2 0x7B1C DUP2 PUSH2 0x782B JUMP JUMPDEST DUP2 EQ PUSH2 0x7B27 JUMPI PUSH1 0x0 DUP1 REVERT JUMPDEST POP JUMP JUMPDEST PUSH1 0x0 DUP2 CALLDATALOAD SWAP1 POP PUSH2 0x7B39 DUP2 PUSH2 0x7B13 JUMP JUMPDEST SWAP3 SWAP2 POP POP JUMP JUMPDEST PUSH1 0x2 DUP2 LT PUSH2 0x7B4C JUMPI PUSH1 0x0 DUP1 REVERT JUMPDEST POP JUMP JUMPDEST PUSH1 0x0 DUP2 CALLDATALOAD SWAP1 POP PUSH2 0x7B5E DUP2 PUSH2 0x7B3F JUMP JUMPDEST SWAP3 SWAP2 POP POP JUMP JUMPDEST PUSH1 0x0 PUSH1 0xC0 DUP3 DUP5 SUB SLT ISZERO PUSH2 0x7B7A JUMPI PUSH2 0x7B79 PUSH2 0x7B09 JUMP JUMPDEST JUMPDEST PUSH2 0x7B84 PUSH1 0xC0 PUSH2 0x79E2 JUMP JUMPDEST SWAP1 POP PUSH1 0x0 DUP3 ADD CALLDATALOAD PUSH8 0xFFFFFFFFFFFFFFFF DUP2 GT ISZERO PUSH2 0x7BA4 JUMPI PUSH2 0x7BA3 PUSH2 0x7B0E JUMP JUMPDEST JUMPDEST PUSH2 0x7BB0 DUP5 DUP3 DUP6 ADD PUSH2 0x7A7F JUMP JUMPDEST PUSH1 0x0 DUP4 ADD MSTORE POP PUSH1 0x20 DUP3 ADD CALLDATALOAD PUSH8 0xFFFFFFFFFFFFFFFF DUP2 GT ISZERO PUSH2 0x7BD4 JUMPI PUSH2 0x7BD3 PUSH2 0x7B0E JUMP JUMPDEST JUMPDEST PUSH2 0x7BE0 DUP5 DUP3 DUP6 ADD PUSH2 0x7A7F JUMP JUMPDEST PUSH1 0x20 DUP4 ADD MSTORE POP PUSH1 0x40 PUSH2 0x7BF4 DUP5 DUP3 DUP6 ADD PUSH2 0x7665 JUMP JUMPDEST PUSH1 0x40 DUP4 ADD MSTORE POP PUSH1 0x60 DUP3 ADD CALLDATALOAD PUSH8 0xFFFFFFFFFFFFFFFF DUP2 GT ISZERO PUSH2 0x7C18 JUMPI PUSH2 0x7C17 PUSH2 0x7B0E JUMP JUMPDEST JUMPDEST PUSH2 0x7C24 DUP5 DUP3 DUP6 ADD PUSH2 0x7A7F JUMP JUMPDEST PUSH1 0x60 DUP4 ADD MSTORE POP PUSH1 0x80 PUSH2 0x7C38 DUP5 DUP3 DUP6 ADD PUSH2 0x7B2A JUMP JUMPDEST PUSH1 0x80 DUP4 ADD MSTORE POP PUSH1 0xA0 PUSH2 0x7C4C DUP5 DUP3 DUP6 ADD PUSH2 0x7B4F JUMP JUMPDEST PUSH1 0xA0 DUP4 ADD MSTORE POP SWAP3 SWAP2 POP POP JUMP JUMPDEST PUSH1 0x0 PUSH1 0x20 DUP3 DUP5 SUB SLT ISZERO PUSH2 0x7C6E JUMPI PUSH2 0x7C6D PUSH2 0x7612 JUMP JUMPDEST JUMPDEST PUSH1 0x0 DUP3 ADD CALLDATALOAD PUSH8 0xFFFFFFFFFFFFFFFF DUP2 GT ISZERO PUSH2 0x7C8C JUMPI PUSH2 0x7C8B PUSH2 0x7617 JUMP JUMPDEST JUMPDEST PUSH2 0x7C98 DUP5 DUP3 DUP6 ADD PUSH2 0x7B64 JUMP JUMPDEST SWAP2 POP POP SWAP3 SWAP2 POP POP JUMP JUMPDEST PUSH1 0x0 DUP2 ISZERO ISZERO SWAP1 POP SWAP2 SWAP1 POP JUMP JUMPDEST PUSH2 0x7CB6 DUP2 PUSH2 0x7CA1 JUMP JUMPDEST DUP3 MSTORE POP POP JUMP JUMPDEST PUSH1 0x3 DUP2 LT PUSH2 0x7CCD JUMPI PUSH2 0x7CCC PUSH2 0x7848 JUMP JUMPDEST JUMPDEST POP JUMP JUMPDEST PUSH1 0x0 DUP2 SWAP1 POP PUSH2 0x7CDE DUP3 PUSH2 0x7CBC JUMP JUMPDEST SWAP2 SWAP1 POP JUMP JUMPDEST PUSH1 0x0 PUSH2 0x7CEE DUP3 PUSH2 0x7CD0 JUMP JUMPDEST SWAP1 POP SWAP2 SWAP1 POP JUMP JUMPDEST PUSH2 0x7CFE DUP2 PUSH2 0x7CE3 JUMP JUMPDEST DUP3 MSTORE POP POP JUMP JUMPDEST PUSH1 0x3 DUP2 LT PUSH2 0x7D15 JUMPI PUSH2 0x7D14 PUSH2 0x7848 JUMP JUMPDEST JUMPDEST POP JUMP JUMPDEST PUSH1 0x0 DUP2 SWAP1 POP PUSH2 0x7D26 DUP3 PUSH2 0x7D04 JUMP JUMPDEST SWAP2 SWAP1 POP JUMP JUMPDEST PUSH1 0x0 PUSH2 0x7D36 DUP3 PUSH2 0x7D18 JUMP JUMPDEST SWAP1 POP SWAP2 SWAP1 POP JUMP JUMPDEST PUSH2 0x7D46 DUP2 PUSH2 0x7D2B JUMP JUMPDEST DUP3 MSTORE POP POP JUMP JUMPDEST PUSH1 0x0 PUSH2 0x140 DUP4 ADD PUSH1 0x0 DUP4 ADD MLOAD DUP5 DUP3 SUB PUSH1 0x0 DUP7 ADD MSTORE PUSH2 0x7D6A DUP3 DUP3 PUSH2 0x76FE JUMP JUMPDEST SWAP2 POP POP PUSH1 0x20 DUP4 ADD MLOAD PUSH2 0x7D7F PUSH1 0x20 DUP7 ADD DUP3 PUSH2 0x7750 JUMP JUMPDEST POP PUSH1 0x40 DUP4 ADD MLOAD DUP5 DUP3 SUB PUSH1 0x40 DUP7 ADD MSTORE PUSH2 0x7D97 DUP3 DUP3 PUSH2 0x76FE JUMP JUMPDEST SWAP2 POP POP PUSH1 0x60 DUP4 ADD MLOAD PUSH2 0x7DAC PUSH1 0x60 DUP7 ADD DUP3 PUSH2 0x7750 JUMP JUMPDEST POP PUSH1 0x80 DUP4 ADD MLOAD DUP5 DUP3 SUB PUSH1 0x80 DUP7 ADD MSTORE PUSH2 0x7DC4 DUP3 DUP3 PUSH2 0x76FE JUMP JUMPDEST SWAP2 POP POP PUSH1 0xA0 DUP4 ADD MLOAD DUP5 DUP3 SUB PUSH1 0xA0 DUP7 ADD MSTORE PUSH2 0x7DDE DUP3 DUP3 PUSH2 0x76FE JUMP JUMPDEST SWAP2 POP POP PUSH1 0xC0 DUP4 ADD MLOAD PUSH2 0x7DF3 PUSH1 0xC0 DUP7 ADD DUP3 PUSH2 0x7741 JUMP JUMPDEST POP PUSH1 0xE0 DUP4 ADD MLOAD PUSH2 0x7E06 PUSH1 0xE0 DUP7 ADD DUP3 PUSH2 0x7CF5 JUMP JUMPDEST POP PUSH2 0x100 DUP4 ADD MLOAD PUSH2 0x7E1B PUSH2 0x100 DUP7 ADD DUP3 PUSH2 0x7D3D JUMP JUMPDEST POP PUSH2 0x120 DUP4 ADD MLOAD DUP5 DUP3 SUB PUSH2 0x120 DUP7 ADD MSTORE PUSH2 0x7E35 DUP3 DUP3 PUSH2 0x76FE JUMP JUMPDEST SWAP2 POP POP DUP1 SWAP2 POP POP SWAP3 SWAP2 POP POP JUMP JUMPDEST PUSH1 0x0 PUSH1 0x60 DUP3 ADD SWAP1 POP PUSH2 0x7E57 PUSH1 0x0 DUP4 ADD DUP7 PUSH2 0x7CAD JUMP JUMPDEST DUP2 DUP2 SUB PUSH1 0x20 DUP4 ADD MSTORE PUSH2 0x7E69 DUP2 DUP6 PUSH2 0x78BF JUMP JUMPDEST SWAP1 POP DUP2 DUP2 SUB PUSH1 0x40 DUP4 ADD MSTORE PUSH2 0x7E7D DUP2 DUP5 PUSH2 0x7D4C JUMP JUMPDEST SWAP1 POP SWAP5 SWAP4 POP POP POP POP JUMP JUMPDEST PUSH2 0x7E90 DUP2 PUSH2 0x7CA1 JUMP JUMPDEST DUP2 EQ PUSH2 0x7E9B JUMPI PUSH1 0x0 DUP1 REVERT JUMPDEST POP JUMP JUMPDEST PUSH1 0x0 DUP2 CALLDATALOAD SWAP1 POP PUSH2 0x7EAD DUP2 PUSH2 0x7E87 JUMP JUMPDEST SWAP3 SWAP2 POP POP JUMP JUMPDEST PUSH1 0x0 DUP1 PUSH1 0x0 PUSH1 0x60 DUP5 DUP7 SUB SLT ISZERO PUSH2 0x7ECC JUMPI PUSH2 0x7ECB PUSH2 0x7612 JUMP JUMPDEST JUMPDEST PUSH1 0x0 PUSH2 0x7EDA DUP7 DUP3 DUP8 ADD PUSH2 0x7665 JUMP JUMPDEST SWAP4 POP POP PUSH1 0x20 PUSH2 0x7EEB DUP7 DUP3 DUP8 ADD PUSH2 0x7E9E JUMP JUMPDEST SWAP3 POP POP PUSH1 0x40 DUP5 ADD CALLDATALOAD PUSH8 0xFFFFFFFFFFFFFFFF DUP2 GT ISZERO PUSH2 0x7F0C JUMPI PUSH2 0x7F0B PUSH2 0x7617 JUMP JUMPDEST JUMPDEST PUSH2 0x7F18 DUP7 DUP3 DUP8 ADD PUSH2 0x7A7F JUMP JUMPDEST SWAP2 POP POP SWAP3 POP SWAP3 POP SWAP3 JUMP JUMPDEST PUSH1 0x0 DUP1 PUSH1 0x0 PUSH1 0x60 DUP5 DUP7 SUB SLT ISZERO PUSH2 0x7F3B JUMPI PUSH2 0x7F3A PUSH2 0x7612 JUMP JUMPDEST JUMPDEST PUSH1 0x0 PUSH2 0x7F49 DUP7 DUP3 DUP8 ADD PUSH2 0x7665 JUMP JUMPDEST SWAP4 POP POP PUSH1 0x20 DUP5 ADD CALLDATALOAD PUSH8 0xFFFFFFFFFFFFFFFF DUP2 GT ISZERO PUSH2 0x7F6A JUMPI PUSH2 0x7F69 PUSH2 0x7617 JUMP JUMPDEST JUMPDEST PUSH2 0x7F76 DUP7 DUP3 DUP8 ADD PUSH2 0x7A7F JUMP JUMPDEST SWAP3 POP POP PUSH1 0x40 DUP5 ADD CALLDATALOAD PUSH8 0xFFFFFFFFFFFFFFFF DUP2 GT ISZERO PUSH2 0x7F97 JUMPI PUSH2 0x7F96 PUSH2 0x7617 JUMP JUMPDEST JUMPDEST PUSH2 0x7FA3 DUP7 DUP3 DUP8 ADD PUSH2 0x7A7F JUMP JUMPDEST SWAP2 POP POP SWAP3 POP SWAP3 POP SWAP3 JUMP JUMPDEST PUSH2 0x7FB6 DUP2 PUSH2 0x7737 JUMP JUMPDEST DUP2 EQ PUSH2 0x7FC1 JUMPI PUSH1 0x0 DUP1 REVERT JUMPDEST POP JUMP JUMPDEST PUSH1 0x0 DUP2 CALLDATALOAD SWAP1 POP PUSH2 0x7FD3 DUP2 PUSH2 0x7FAD JUMP JUMPDEST SWAP3 SWAP2 POP POP JUMP JUMPDEST PUSH1 0x0 PUSH1 0x20 DUP3 DUP5 SUB SLT ISZERO PUSH2 0x7FEF JUMPI PUSH2 0x7FEE PUSH2 0x7612 JUMP JUMPDEST JUMPDEST PUSH1 0x0 PUSH2 0x7FFD DUP5 DUP3 DUP6 ADD PUSH2 0x7FC4 JUMP JUMPDEST SWAP2 POP POP SWAP3 SWAP2 POP POP JUMP JUMPDEST PUSH2 0x800F DUP2 PUSH2 0x7737 JUMP JUMPDEST DUP3 MSTORE POP POP JUMP JUMPDEST PUSH1 0x0 DUP2 MLOAD SWAP1 POP SWAP2 SWAP1 POP JUMP JUMPDEST PUSH1 0x0 DUP3 DUP3 MSTORE PUSH1 0x20 DUP3 ADD SWAP1 POP SWAP3 SWAP2 POP POP JUMP JUMPDEST PUSH1 0x0 DUP2 SWAP1 POP PUSH1 0x20 DUP3 ADD SWAP1 POP SWAP2 SWAP1 POP JUMP JUMPDEST PUSH1 0x0 PUSH1 0xC0 DUP4 ADD PUSH1 0x0 DUP4 ADD MLOAD DUP5 DUP3 SUB PUSH1 0x0 DUP7 ADD MSTORE PUSH2 0x805E DUP3 DUP3 PUSH2 0x76FE JUMP JUMPDEST SWAP2 POP POP PUSH1 0x20 DUP4 ADD MLOAD DUP5 DUP3 SUB PUSH1 0x20 DUP7 ADD MSTORE PUSH2 0x8078 DUP3 DUP3 PUSH2 0x76FE JUMP JUMPDEST SWAP2 POP POP PUSH1 0x40 DUP4 ADD MLOAD PUSH2 0x808D PUSH1 0x40 DUP7 ADD DUP3 PUSH2 0x7750 JUMP JUMPDEST POP PUSH1 0x60 DUP4 ADD MLOAD DUP5 DUP3 SUB PUSH1 0x60 DUP7 ADD MSTORE PUSH2 0x80A5 DUP3 DUP3 PUSH2 0x76FE JUMP JUMPDEST SWAP2 POP POP PUSH1 0x80 DUP4 ADD MLOAD PUSH2 0x80BA PUSH1 0x80 DUP7 ADD DUP3 PUSH2 0x7839 JUMP JUMPDEST POP PUSH1 0xA0 DUP4 ADD MLOAD PUSH2 0x80CD PUSH1 0xA0 DUP7 ADD DUP3 PUSH2 0x78B0 JUMP JUMPDEST POP DUP1 SWAP2 POP POP SWAP3 SWAP2 POP POP JUMP JUMPDEST PUSH1 0x0 PUSH2 0x80E4 DUP4 DUP4 PUSH2 0x8041 JUMP JUMPDEST SWAP1 POP SWAP3 SWAP2 POP POP JUMP JUMPDEST PUSH1 0x0 PUSH1 0x20 DUP3 ADD SWAP1 POP SWAP2 SWAP1 POP JUMP JUMPDEST PUSH1 0x0 PUSH2 0x8104 DUP3 PUSH2 0x8015 JUMP JUMPDEST PUSH2 0x810E DUP2 DUP6 PUSH2 0x8020 JUMP JUMPDEST SWAP4 POP DUP4 PUSH1 0x20 DUP3 MUL DUP6 ADD PUSH2 0x8120 DUP6 PUSH2 0x8031 JUMP JUMPDEST DUP1 PUSH1 0x0 JUMPDEST DUP6 DUP2 LT ISZERO PUSH2 0x815C JUMPI DUP5 DUP5 SUB DUP10 MSTORE DUP2 MLOAD PUSH2 0x813D DUP6 DUP3 PUSH2 0x80D8 JUMP JUMPDEST SWAP5 POP PUSH2 0x8148 DUP4 PUSH2 0x80EC JUMP JUMPDEST SWAP3 POP PUSH1 0x20 DUP11 ADD SWAP10 POP POP PUSH1 0x1 DUP2 ADD SWAP1 POP PUSH2 0x8124 JUMP JUMPDEST POP DUP3 SWAP8 POP DUP8 SWAP6 POP POP POP POP POP POP SWAP3 SWAP2 POP POP JUMP JUMPDEST PUSH1 0x0 PUSH1 0x40 DUP3 ADD SWAP1 POP PUSH2 0x8183 PUSH1 0x0 DUP4 ADD DUP6 PUSH2 0x8006 JUMP JUMPDEST DUP2 DUP2 SUB PUSH1 0x20 DUP4 ADD MSTORE PUSH2 0x8195 DUP2 DUP5 PUSH2 0x80F9 JUMP JUMPDEST SWAP1 POP SWAP4 SWAP3 POP POP POP JUMP JUMPDEST PUSH1 0x0 PUSH1 0x60 DUP3 ADD SWAP1 POP PUSH2 0x81B3 PUSH1 0x0 DUP4 ADD DUP7 PUSH2 0x7CAD JUMP JUMPDEST DUP2 DUP2 SUB PUSH1 0x20 DUP4 ADD MSTORE PUSH2 0x81C5 DUP2 DUP6 PUSH2 0x775F JUMP JUMPDEST SWAP1 POP DUP2 DUP2 SUB PUSH1 0x40 DUP4 ADD MSTORE PUSH2 0x81D9 DUP2 DUP5 PUSH2 0x7D4C JUMP JUMPDEST SWAP1 POP SWAP5 SWAP4 POP POP POP POP JUMP JUMPDEST PUSH1 0x0 PUSH1 0xE0 DUP3 DUP5 SUB SLT ISZERO PUSH2 0x81F9 JUMPI PUSH2 0x81F8 PUSH2 0x7B09 JUMP JUMPDEST JUMPDEST PUSH2 0x8203 PUSH1 0xE0 PUSH2 0x79E2 JUMP JUMPDEST SWAP1 POP PUSH1 0x0 DUP3 ADD CALLDATALOAD PUSH8 0xFFFFFFFFFFFFFFFF DUP2 GT ISZERO PUSH2 0x8223 JUMPI PUSH2 0x8222 PUSH2 0x7B0E JUMP JUMPDEST JUMPDEST PUSH2 0x822F DUP5 DUP3 DUP6 ADD PUSH2 0x7A7F JUMP JUMPDEST PUSH1 0x0 DUP4 ADD MSTORE POP PUSH1 0x20 DUP3 ADD CALLDATALOAD PUSH8 0xFFFFFFFFFFFFFFFF DUP2 GT ISZERO PUSH2 0x8253 JUMPI PUSH2 0x8252 PUSH2 0x7B0E JUMP JUMPDEST JUMPDEST PUSH2 0x825F DUP5 DUP3 DUP6 ADD PUSH2 0x7A7F JUMP JUMPDEST PUSH1 0x20 DUP4 ADD MSTORE POP PUSH1 0x40 PUSH2 0x8273 DUP5 DUP3 DUP6 ADD PUSH2 0x7FC4 JUMP JUMPDEST PUSH1 0x40 DUP4 ADD MSTORE POP PUSH1 0x60 PUSH2 0x8287 DUP5 DUP3 DUP6 ADD PUSH2 0x7665 JUMP JUMPDEST PUSH1 0x60 DUP4 ADD MSTORE POP PUSH1 0x80 PUSH2 0x829B DUP5 DUP3 DUP6 ADD PUSH2 0x7665 JUMP JUMPDEST PUSH1 0x80 DUP4 ADD MSTORE POP PUSH1 0xA0 DUP3 ADD CALLDATALOAD PUSH8 0xFFFFFFFFFFFFFFFF DUP2 GT ISZERO PUSH2 0x82BF JUMPI PUSH2 0x82BE PUSH2 0x7B0E JUMP JUMPDEST JUMPDEST PUSH2 0x82CB DUP5 DUP3 DUP6 ADD PUSH2 0x7A7F JUMP JUMPDEST PUSH1 0xA0 DUP4 ADD MSTORE POP PUSH1 0xC0 PUSH2 0x82DF DUP5 DUP3 DUP6 ADD PUSH2 0x7FC4 JUMP JUMPDEST PUSH1 0xC0 DUP4 ADD MSTORE POP SWAP3 SWAP2 POP POP JUMP JUMPDEST PUSH1 0x0 DUP1 PUSH1 0x0 PUSH1 0x60 DUP5 DUP7 SUB SLT ISZERO PUSH2 0x8304 JUMPI PUSH2 0x8303 PUSH2 0x7612 JUMP JUMPDEST JUMPDEST PUSH1 0x0 DUP5 ADD CALLDATALOAD PUSH8 0xFFFFFFFFFFFFFFFF DUP2 GT ISZERO PUSH2 0x8322 JUMPI PUSH2 0x8321 PUSH2 0x7617 JUMP JUMPDEST JUMPDEST PUSH2 0x832E DUP7 DUP3 DUP8 ADD PUSH2 0x81E3 JUMP JUMPDEST SWAP4 POP POP PUSH1 0x20 PUSH2 0x833F DUP7 DUP3 DUP8 ADD PUSH2 0x7FC4 JUMP JUMPDEST SWAP3 POP POP PUSH1 0x40 DUP5 ADD CALLDATALOAD PUSH8 0xFFFFFFFFFFFFFFFF DUP2 GT ISZERO PUSH2 0x8360 JUMPI PUSH2 0x835F PUSH2 0x7617 JUMP JUMPDEST JUMPDEST PUSH2 0x836C DUP7 DUP3 DUP8 ADD PUSH2 0x7A7F JUMP JUMPDEST SWAP2 POP POP SWAP3 POP SWAP3 POP SWAP3 JUMP JUMPDEST PUSH1 0x0 DUP1 PUSH1 0x0 PUSH1 0x60 DUP5 DUP7 SUB SLT ISZERO PUSH2 0x838F JUMPI PUSH2 0x838E PUSH2 0x7612 JUMP JUMPDEST JUMPDEST PUSH1 0x0 DUP5 ADD CALLDATALOAD PUSH8 0xFFFFFFFFFFFFFFFF DUP2 GT ISZERO PUSH2 0x83AD JUMPI PUSH2 0x83AC PUSH2 0x7617 JUMP JUMPDEST JUMPDEST PUSH2 0x83B9 DUP7 DUP3 DUP8 ADD PUSH2 0x7A7F JUMP JUMPDEST SWAP4 POP POP PUSH1 0x20 DUP5 ADD CALLDATALOAD PUSH8 0xFFFFFFFFFFFFFFFF DUP2 GT ISZERO PUSH2 0x83DA JUMPI PUSH2 0x83D9 PUSH2 0x7617 JUMP JUMPDEST JUMPDEST PUSH2 0x83E6 DUP7 DUP3 DUP8 ADD PUSH2 0x7A7F JUMP JUMPDEST SWAP3 POP POP PUSH1 0x40 PUSH2 0x83F7 DUP7 DUP3 DUP8 ADD PUSH2 0x7FC4 JUMP JUMPDEST SWAP2 POP POP SWAP3 POP SWAP3 POP SWAP3 JUMP JUMPDEST PUSH1 0x0 DUP1 PUSH1 0x40 DUP4 DUP6 SUB SLT ISZERO PUSH2 0x8418 JUMPI PUSH2 0x8417 PUSH2 0x7612 JUMP JUMPDEST JUMPDEST PUSH1 0x0 DUP4 ADD CALLDATALOAD PUSH8 0xFFFFFFFFFFFFFFFF DUP2 GT ISZERO PUSH2 0x8436 JUMPI PUSH2 0x8435 PUSH2 0x7617 JUMP JUMPDEST JUMPDEST PUSH2 0x8442 DUP6 DUP3 DUP7 ADD PUSH2 0x7A7F JUMP JUMPDEST SWAP3 POP POP PUSH1 0x20 PUSH2 0x8453 DUP6 DUP3 DUP7 ADD PUSH2 0x7FC4 JUMP JUMPDEST SWAP2 POP POP SWAP3 POP SWAP3 SWAP1 POP JUMP JUMPDEST PUSH1 0x0 DUP1 PUSH1 0x40 DUP4 DUP6 SUB SLT ISZERO PUSH2 0x8474 JUMPI PUSH2 0x8473 PUSH2 0x7612 JUMP JUMPDEST JUMPDEST PUSH1 0x0 PUSH2 0x8482 DUP6 DUP3 DUP7 ADD PUSH2 0x7665 JUMP JUMPDEST SWAP3 POP POP PUSH1 0x20 PUSH2 0x8493 DUP6 DUP3 DUP7 ADD PUSH2 0x7E9E JUMP JUMPDEST SWAP2 POP POP SWAP3 POP SWAP3 SWAP1 POP JUMP JUMPDEST PUSH1 0x0 DUP2 MLOAD SWAP1 POP SWAP2 SWAP1 POP JUMP JUMPDEST PUSH1 0x0 DUP3 DUP3 MSTORE PUSH1 0x20 DUP3 ADD SWAP1 POP SWAP3 SWAP2 POP POP JUMP JUMPDEST PUSH1 0x0 DUP2 SWAP1 POP PUSH1 0x20 DUP3 ADD SWAP1 POP SWAP2 SWAP1 POP JUMP JUMPDEST PUSH1 0x0 PUSH2 0x140 DUP4 ADD PUSH1 0x0 DUP4 ADD MLOAD DUP5 DUP3 SUB PUSH1 0x0 DUP7 ADD MSTORE PUSH2 0x84E7 DUP3 DUP3 PUSH2 0x76FE JUMP JUMPDEST SWAP2 POP POP PUSH1 0x20 DUP4 ADD MLOAD PUSH2 0x84FC PUSH1 0x20 DUP7 ADD DUP3 PUSH2 0x7750 JUMP JUMPDEST POP PUSH1 0x40 DUP4 ADD MLOAD DUP5 DUP3 SUB PUSH1 0x40 DUP7 ADD MSTORE PUSH2 0x8514 DUP3 DUP3 PUSH2 0x76FE JUMP JUMPDEST SWAP2 POP POP PUSH1 0x60 DUP4 ADD MLOAD PUSH2 0x8529 PUSH1 0x60 DUP7 ADD DUP3 PUSH2 0x7750 JUMP JUMPDEST POP PUSH1 0x80 DUP4 ADD MLOAD DUP5 DUP3 SUB PUSH1 0x80 DUP7 ADD MSTORE PUSH2 0x8541 DUP3 DUP3 PUSH2 0x76FE JUMP JUMPDEST SWAP2 POP POP PUSH1 0xA0 DUP4 ADD MLOAD DUP5 DUP3 SUB PUSH1 0xA0 DUP7 ADD MSTORE PUSH2 0x855B DUP3 DUP3 PUSH2 0x76FE JUMP JUMPDEST SWAP2 POP POP PUSH1 0xC0 DUP4 ADD MLOAD PUSH2 0x8570 PUSH1 0xC0 DUP7 ADD DUP3 PUSH2 0x7741 JUMP JUMPDEST POP PUSH1 0xE0 DUP4 ADD MLOAD PUSH2 0x8583 PUSH1 0xE0 DUP7 ADD DUP3 PUSH2 0x7CF5 JUMP JUMPDEST POP PUSH2 0x100 DUP4 ADD MLOAD PUSH2 0x8598 PUSH2 0x100 DUP7 ADD DUP3 PUSH2 0x7D3D JUMP JUMPDEST POP PUSH2 0x120 DUP4 ADD MLOAD DUP5 DUP3 SUB PUSH2 0x120 DUP7 ADD MSTORE PUSH2 0x85B2 DUP3 DUP3 PUSH2 0x76FE JUMP JUMPDEST SWAP2 POP POP DUP1 SWAP2 POP POP SWAP3 SWAP2 POP POP JUMP JUMPDEST PUSH1 0x0 PUSH2 0x85CB DUP4 DUP4 PUSH2 0x84C9 JUMP JUMPDEST SWAP1 POP SWAP3 SWAP2 POP POP JUMP JUMPDEST PUSH1 0x0 PUSH1 0x20 DUP3 ADD SWAP1 POP SWAP2 SWAP1 POP JUMP JUMPDEST PUSH1 0x0 PUSH2 0x85EB DUP3 PUSH2 0x849D JUMP JUMPDEST PUSH2 0x85F5 DUP2 DUP6 PUSH2 0x84A8 JUMP JUMPDEST SWAP4 POP DUP4 PUSH1 0x20 DUP3 MUL DUP6 ADD PUSH2 0x8607 DUP6 PUSH2 0x84B9 JUMP JUMPDEST DUP1 PUSH1 0x0 JUMPDEST DUP6 DUP2 LT ISZERO PUSH2 0x8643 JUMPI DUP5 DUP5 SUB DUP10 MSTORE DUP2 MLOAD PUSH2 0x8624 DUP6 DUP3 PUSH2 0x85BF JUMP JUMPDEST SWAP5 POP PUSH2 0x862F DUP4 PUSH2 0x85D3 JUMP JUMPDEST SWAP3 POP PUSH1 0x20 DUP11 ADD SWAP10 POP POP PUSH1 0x1 DUP2 ADD SWAP1 POP PUSH2 0x860B JUMP JUMPDEST POP DUP3 SWAP8 POP DUP8 SWAP6 POP POP POP POP POP POP SWAP3 SWAP2 POP POP JUMP JUMPDEST PUSH1 0x0 PUSH1 0x40 DUP3 ADD SWAP1 POP PUSH2 0x866A PUSH1 0x0 DUP4 ADD DUP6 PUSH2 0x8006 JUMP JUMPDEST DUP2 DUP2 SUB PUSH1 0x20 DUP4 ADD MSTORE PUSH2 0x867C DUP2 DUP5 PUSH2 0x85E0 JUMP JUMPDEST SWAP1 POP SWAP4 SWAP3 POP POP POP JUMP JUMPDEST PUSH1 0x3 DUP2 LT PUSH2 0x8696 JUMPI PUSH2 0x8695 PUSH2 0x7848 JUMP JUMPDEST JUMPDEST POP JUMP JUMPDEST PUSH1 0x0 DUP2 SWAP1 POP PUSH2 0x86A7 DUP3 PUSH2 0x8685 JUMP JUMPDEST SWAP2 SWAP1 POP JUMP JUMPDEST PUSH1 0x0 PUSH2 0x86B7 DUP3 PUSH2 0x8699 JUMP JUMPDEST SWAP1 POP SWAP2 SWAP1 POP JUMP JUMPDEST PUSH2 0x86C7 DUP2 PUSH2 0x86AC JUMP JUMPDEST DUP3 MSTORE POP POP JUMP JUMPDEST PUSH1 0x0 PUSH1 0xA0 DUP4 ADD PUSH1 0x0 DUP4 ADD MLOAD DUP5 DUP3 SUB PUSH1 0x0 DUP7 ADD MSTORE PUSH2 0x86EA DUP3 DUP3 PUSH2 0x76FE JUMP JUMPDEST SWAP2 POP POP PUSH1 0x20 DUP4 ADD MLOAD DUP5 DUP3 SUB PUSH1 0x20 DUP7 ADD MSTORE PUSH2 0x8704 DUP3 DUP3 PUSH2 0x76FE JUMP JUMPDEST SWAP2 POP POP PUSH1 0x40 DUP4 ADD MLOAD PUSH2 0x8719 PUSH1 0x40 DUP7 ADD DUP3 PUSH2 0x7750 JUMP JUMPDEST POP PUSH1 0x60 DUP4 ADD MLOAD PUSH2 0x872C PUSH1 0x60 DUP7 ADD DUP3 PUSH2 0x86BE JUMP JUMPDEST POP PUSH1 0x80 DUP4 ADD MLOAD PUSH2 0x873F PUSH1 0x80 DUP7 ADD DUP3 PUSH2 0x78B0 JUMP JUMPDEST POP DUP1 SWAP2 POP POP SWAP3 SWAP2 POP POP JUMP JUMPDEST PUSH1 0x0 PUSH1 0x20 DUP3 ADD SWAP1 POP DUP2 DUP2 SUB PUSH1 0x0 DUP4 ADD MSTORE PUSH2 0x8764 DUP2 DUP5 PUSH2 0x86CD JUMP JUMPDEST SWAP1 POP SWAP3 SWAP2 POP POP JUMP JUMPDEST PUSH1 0x0 DUP3 DUP3 MSTORE PUSH1 0x20 DUP3 ADD SWAP1 POP SWAP3 SWAP2 POP POP JUMP JUMPDEST PUSH32 0x496420697320456D707479000000000000000000000000000000000000000000 PUSH1 0x0 DUP3 ADD MSTORE POP JUMP JUMPDEST PUSH1 0x0 PUSH2 0x87B3 PUSH1 0xB DUP4 PUSH2 0x876C JUMP JUMPDEST SWAP2 POP PUSH2 0x87BE DUP3 PUSH2 0x877D JUMP JUMPDEST PUSH1 0x20 DUP3 ADD SWAP1 POP SWAP2 SWAP1 POP JUMP JUMPDEST PUSH1 0x0 PUSH1 0x20 DUP3 ADD SWAP1 POP DUP2 DUP2 SUB PUSH1 0x0 DUP4 ADD MSTORE PUSH2 0x87E2 DUP2 PUSH2 0x87A6 JUMP JUMPDEST SWAP1 POP SWAP2 SWAP1 POP JUMP JUMPDEST PUSH32 0x5573657220496420456D70747900000000000000000000000000000000000000 PUSH1 0x0 DUP3 ADD MSTORE POP JUMP JUMPDEST PUSH1 0x0 PUSH2 0x881F PUSH1 0xD DUP4 PUSH2 0x876C JUMP JUMPDEST SWAP2 POP PUSH2 0x882A DUP3 PUSH2 0x87E9 JUMP JUMPDEST PUSH1 0x20 DUP3 ADD SWAP1 POP SWAP2 SWAP1 POP JUMP JUMPDEST PUSH1 0x0 PUSH1 0x20 DUP3 ADD SWAP1 POP DUP2 DUP2 SUB PUSH1 0x0 DUP4 ADD MSTORE PUSH2 0x884E DUP2 PUSH2 0x8812 JUMP JUMPDEST SWAP1 POP SWAP2 SWAP1 POP JUMP JUMPDEST PUSH32 0x4E487B7100000000000000000000000000000000000000000000000000000000 PUSH1 0x0 MSTORE PUSH1 0x22 PUSH1 0x4 MSTORE PUSH1 0x24 PUSH1 0x0 REVERT JUMPDEST PUSH1 0x0 PUSH1 0x2 DUP3 DIV SWAP1 POP PUSH1 0x1 DUP3 AND DUP1 PUSH2 0x889C JUMPI PUSH1 0x7F DUP3 AND SWAP2 POP JUMPDEST PUSH1 0x20 DUP3 LT DUP2 SUB PUSH2 0x88AF JUMPI PUSH2 0x88AE PUSH2 0x8855 JUMP JUMPDEST JUMPDEST POP SWAP2 SWAP1 POP JUMP JUMPDEST PUSH32 0x5573657220456D61696C20456D70747900000000000000000000000000000000 PUSH1 0x0 DUP3 ADD MSTORE POP JUMP JUMPDEST PUSH1 0x0 PUSH2 0x88EB PUSH1 0x10 DUP4 PUSH2 0x876C JUMP JUMPDEST SWAP2 POP PUSH2 0x88F6 DUP3 PUSH2 0x88B5 JUMP JUMPDEST PUSH1 0x20 DUP3 ADD SWAP1 POP SWAP2 SWAP1 POP JUMP JUMPDEST PUSH1 0x0 PUSH1 0x20 DUP3 ADD SWAP1 POP DUP2 DUP2 SUB PUSH1 0x0 DUP4 ADD MSTORE PUSH2 0x891A DUP2 PUSH2 0x88DE JUMP JUMPDEST SWAP1 POP SWAP2 SWAP1 POP JUMP JUMPDEST PUSH32 0x42616E6B206E6F7420666F756E64000000000000000000000000000000000000 PUSH1 0x0 DUP3 ADD MSTORE POP JUMP JUMPDEST PUSH1 0x0 PUSH2 0x8957 PUSH1 0xE DUP4 PUSH2 0x876C JUMP JUMPDEST SWAP2 POP PUSH2 0x8962 DUP3 PUSH2 0x8921 JUMP JUMPDEST PUSH1 0x20 DUP3 ADD SWAP1 POP SWAP2 SWAP1 POP JUMP JUMPDEST PUSH1 0x0 PUSH1 0x20 DUP3 ADD SWAP1 POP DUP2 DUP2 SUB PUSH1 0x0 DUP4 ADD MSTORE PUSH2 0x8986 DUP2 PUSH2 0x894A JUMP JUMPDEST SWAP1 POP SWAP2 SWAP1 POP JUMP JUMPDEST PUSH32 0x42616E6B206973206E6F74206163746976650000000000000000000000000000 PUSH1 0x0 DUP3 ADD MSTORE POP JUMP JUMPDEST PUSH1 0x0 PUSH2 0x89C3 PUSH1 0x12 DUP4 PUSH2 0x876C JUMP JUMPDEST SWAP2 POP PUSH2 0x89CE DUP3 PUSH2 0x898D JUMP JUMPDEST PUSH1 0x20 DUP3 ADD SWAP1 POP SWAP2 SWAP1 POP JUMP JUMPDEST PUSH1 0x0 PUSH1 0x20 DUP3 ADD SWAP1 POP DUP2 DUP2 SUB PUSH1 0x0 DUP4 ADD MSTORE PUSH2 0x89F2 DUP2 PUSH2 0x89B6 JUMP JUMPDEST SWAP1 POP SWAP2 SWAP1 POP JUMP JUMPDEST PUSH32 0x4B594320726571206E6F7420666F756E64000000000000000000000000000000 PUSH1 0x0 DUP3 ADD MSTORE POP JUMP JUMPDEST PUSH1 0x0 PUSH2 0x8A2F PUSH1 0x11 DUP4 PUSH2 0x876C JUMP JUMPDEST SWAP2 POP PUSH2 0x8A3A DUP3 PUSH2 0x89F9 JUMP JUMPDEST PUSH1 0x20 DUP3 ADD SWAP1 POP SWAP2 SWAP1 POP JUMP JUMPDEST PUSH1 0x0 PUSH1 0x20 DUP3 ADD SWAP1 POP DUP2 DUP2 SUB PUSH1 0x0 DUP4 ADD MSTORE PUSH2 0x8A5E DUP2 PUSH2 0x8A22 JUMP JUMPDEST SWAP1 POP SWAP2 SWAP1 POP JUMP JUMPDEST PUSH32 0x55736572206E6F7420666F756E64000000000000000000000000000000000000 PUSH1 0x0 DUP3 ADD MSTORE POP JUMP JUMPDEST PUSH1 0x0 PUSH2 0x8A9B PUSH1 0xE DUP4 PUSH2 0x876C JUMP JUMPDEST SWAP2 POP PUSH2 0x8AA6 DUP3 PUSH2 0x8A65 JUMP JUMPDEST PUSH1 0x20 DUP3 ADD SWAP1 POP SWAP2 SWAP1 POP JUMP JUMPDEST PUSH1 0x0 PUSH1 0x20 DUP3 ADD SWAP1 POP DUP2 DUP2 SUB PUSH1 0x0 DUP4 ADD MSTORE PUSH2 0x8ACA DUP2 PUSH2 0x8A8E JUMP JUMPDEST SWAP1 POP SWAP2 SWAP1 POP JUMP JUMPDEST PUSH1 0x0 DUP2 SWAP1 POP SWAP3 SWAP2 POP POP JUMP JUMPDEST PUSH1 0x0 PUSH2 0x8AE7 DUP3 PUSH2 0x76A7 JUMP JUMPDEST PUSH2 0x8AF1 DUP2 DUP6 PUSH2 0x8AD1 JUMP JUMPDEST SWAP4 POP PUSH2 0x8B01 DUP2 DUP6 PUSH1 0x20 DUP7 ADD PUSH2 0x76C3 JUMP JUMPDEST DUP1 DUP5 ADD SWAP2 POP POP SWAP3 SWAP2 POP POP JUMP JUMPDEST PUSH1 0x0 PUSH2 0x8B19 DUP3 DUP5 PUSH2 0x8ADC JUMP JUMPDEST SWAP2 POP DUP2 SWAP1 POP SWAP3 SWAP2 POP POP JUMP JUMPDEST PUSH1 0x0 DUP2 SWAP1 POP DUP2 PUSH1 0x0 MSTORE PUSH1 0x20 PUSH1 0x0 KECCAK256 SWAP1 POP SWAP2 SWAP1 POP JUMP JUMPDEST PUSH1 0x0 PUSH1 0x20 PUSH1 0x1F DUP4 ADD DIV SWAP1 POP SWAP2 SWAP1 POP JUMP JUMPDEST PUSH1 0x0 DUP3 DUP3 SHL SWAP1 POP SWAP3 SWAP2 POP POP JUMP JUMPDEST PUSH1 0x0 PUSH1 0x8 DUP4 MUL PUSH2 0x8B86 PUSH32 0xFFFFFFFFFFFFFFFFFFFFFFFFFFFFFFFFFFFFFFFFFFFFFFFFFFFFFFFFFFFFFFFF DUP3 PUSH2 0x8B49 JUMP JUMPDEST PUSH2 0x8B90 DUP7 DUP4 PUSH2 0x8B49 JUMP JUMPDEST SWAP6 POP DUP1 NOT DUP5 AND SWAP4 POP DUP1 DUP7 AND DUP5 OR SWAP3 POP POP POP SWAP4 SWAP3 POP POP POP JUMP JUMPDEST PUSH1 0x0 DUP2 SWAP1 POP SWAP2 SWAP1 POP JUMP JUMPDEST PUSH1 0x0 PUSH2 0x8BCD PUSH2 0x8BC8 PUSH2 0x8BC3 DUP5 PUSH2 0x7737 JUMP JUMPDEST PUSH2 0x8BA8 JUMP JUMPDEST PUSH2 0x7737 JUMP JUMPDEST SWAP1 POP SWAP2 SWAP1 POP JUMP JUMPDEST PUSH1 0x0 DUP2 SWAP1 POP SWAP2 SWAP1 POP JUMP JUMPDEST PUSH2 0x8BE7 DUP4 PUSH2 0x8BB2 JUMP JUMPDEST PUSH2 0x8BFB PUSH2 0x8BF3 DUP3 PUSH2 0x8BD4 JUMP JUMPDEST DUP5 DUP5 SLOAD PUSH2 0x8B56 JUMP JUMPDEST DUP3 SSTORE POP POP POP POP JUMP JUMPDEST PUSH1 0x0 SWAP1 JUMP JUMPDEST PUSH2 0x8C10 PUSH2 0x8C03 JUMP JUMPDEST PUSH2 0x8C1B DUP2 DUP5 DUP5 PUSH2 0x8BDE JUMP JUMPDEST POP POP POP JUMP JUMPDEST JUMPDEST DUP2 DUP2 LT ISZERO PUSH2 0x8C3F JUMPI PUSH2 0x8C34 PUSH1 0x0 DUP3 PUSH2 0x8C08 JUMP JUMPDEST PUSH1 0x1 DUP2 ADD SWAP1 POP PUSH2 0x8C21 JUMP JUMPDEST POP POP JUMP JUMPDEST PUSH1 0x1F DUP3 GT ISZERO PUSH2 0x8C84 JUMPI PUSH2 0x8C55 DUP2 PUSH2 0x8B24 JUMP JUMPDEST PUSH2 0x8C5E DUP5 PUSH2 0x8B39 JUMP JUMPDEST DUP2 ADD PUSH1 0x20 DUP6 LT ISZERO PUSH2 0x8C6D JUMPI DUP2 SWAP1 POP JUMPDEST PUSH2 0x8C81 PUSH2 0x8C79 DUP6 PUSH2 0x8B39 JUMP JUMPDEST DUP4 ADD DUP3 PUSH2 0x8C20 JUMP JUMPDEST POP POP JUMPDEST POP POP POP JUMP JUMPDEST PUSH1 0x0 DUP3 DUP3 SHR SWAP1 POP SWAP3 SWAP2 POP POP JUMP JUMPDEST PUSH1 0x0 PUSH2 0x8CA7 PUSH1 0x0 NOT DUP5 PUSH1 0x8 MUL PUSH2 0x8C89 JUMP JUMPDEST NOT DUP1 DUP4 AND SWAP2 POP POP SWAP3 SWAP2 POP POP JUMP JUMPDEST PUSH1 0x0 PUSH2 0x8CC0 DUP4 DUP4 PUSH2 0x8C96 JUMP JUMPDEST SWAP2 POP DUP3 PUSH1 0x2 MUL DUP3 OR SWAP1 POP SWAP3 SWAP2 POP POP JUMP JUMPDEST PUSH2 0x8CD9 DUP3 PUSH2 0x76A7 JUMP JUMPDEST PUSH8 0xFFFFFFFFFFFFFFFF DUP2 GT ISZERO PUSH2 0x8CF2 JUMPI PUSH2 0x8CF1 PUSH2 0x7982 JUMP JUMPDEST JUMPDEST PUSH2 0x8CFC DUP3 SLOAD PUSH2 0x8884 JUMP JUMPDEST PUSH2 0x8D07 DUP3 DUP3 DUP6 PUSH2 0x8C43 JUMP JUMPDEST PUSH1 0x0 PUSH1 0x20 SWAP1 POP PUSH1 0x1F DUP4 GT PUSH1 0x1 DUP2 EQ PUSH2 0x8D3A JUMPI PUSH1 0x0 DUP5 ISZERO PUSH2 0x8D28 JUMPI DUP3 DUP8 ADD MLOAD SWAP1 POP JUMPDEST PUSH2 0x8D32 DUP6 DUP3 PUSH2 0x8CB4 JUMP JUMPDEST DUP7 SSTORE POP PUSH2 0x8D9A JUMP JUMPDEST PUSH1 0x1F NOT DUP5 AND PUSH2 0x8D48 DUP7 PUSH2 0x8B24 JUMP JUMPDEST PUSH1 0x0 JUMPDEST DUP3 DUP2 LT ISZERO PUSH2 0x8D70 JUMPI DUP5 DUP10 ADD MLOAD DUP3 SSTORE PUSH1 0x1 DUP3 ADD SWAP2 POP PUSH1 0x20 DUP6 ADD SWAP5 POP PUSH1 0x20 DUP2 ADD SWAP1 POP PUSH2 0x8D4B JUMP JUMPDEST DUP7 DUP4 LT ISZERO PUSH2 0x8D8D JUMPI DUP5 DUP10 ADD MLOAD PUSH2 0x8D89 PUSH1 0x1F DUP10 AND DUP3 PUSH2 0x8C96 JUMP JUMPDEST DUP4 SSTORE POP JUMPDEST PUSH1 0x1 PUSH1 0x2 DUP9 MUL ADD DUP9 SSTORE POP POP POP JUMPDEST POP POP POP POP POP POP JUMP JUMPDEST PUSH1 0x0 PUSH2 0x8DAD DUP3 PUSH2 0x76A7 JUMP JUMPDEST PUSH2 0x8DB7 DUP2 DUP6 PUSH2 0x876C JUMP JUMPDEST SWAP4 POP PUSH2 0x8DC7 DUP2 DUP6 PUSH1 0x20 DUP7 ADD PUSH2 0x76C3 JUMP JUMPDEST PUSH2 0x8DD0 DUP2 PUSH2 0x76ED JUMP JUMPDEST DUP5 ADD SWAP2 POP POP SWAP3 SWAP2 POP POP JUMP JUMPDEST PUSH1 0x0 DUP2 SLOAD PUSH2 0x8DE8 DUP2 PUSH2 0x8884 JUMP JUMPDEST PUSH2 0x8DF2 DUP2 DUP7 PUSH2 0x876C JUMP JUMPDEST SWAP5 POP PUSH1 0x1 DUP3 AND PUSH1 0x0 DUP2 EQ PUSH2 0x8E0D JUMPI PUSH1 0x1 DUP2 EQ PUSH2 0x8E23 JUMPI PUSH2 0x8E56 JUMP JUMPDEST PUSH1 0xFF NOT DUP4 AND DUP7 MSTORE DUP2 ISZERO ISZERO PUSH1 0x20 MUL DUP7 ADD SWAP4 POP PUSH2 0x8E56 JUMP JUMPDEST PUSH2 0x8E2C DUP6 PUSH2 0x8B24 JUMP JUMPDEST PUSH1 0x0 JUMPDEST DUP4 DUP2 LT ISZERO PUSH2 0x8E4E JUMPI DUP2 SLOAD DUP2 DUP10 ADD MSTORE PUSH1 0x1 DUP3 ADD SWAP2 POP PUSH1 0x20 DUP2 ADD SWAP1 POP PUSH2 0x8E2F JUMP JUMPDEST DUP1 DUP9 ADD SWAP6 POP POP POP JUMPDEST POP POP POP SWAP3 SWAP2 POP POP JUMP JUMPDEST PUSH1 0x0 PUSH1 0x60 DUP3 ADD SWAP1 POP DUP2 DUP2 SUB PUSH1 0x0 DUP4 ADD MSTORE PUSH2 0x8E79 DUP2 DUP7 PUSH2 0x8DA2 JUMP JUMPDEST SWAP1 POP DUP2 DUP2 SUB PUSH1 0x20 DUP4 ADD MSTORE PUSH2 0x8E8D DUP2 DUP6 PUSH2 0x8DDB JUMP JUMPDEST SWAP1 POP DUP2 DUP2 SUB PUSH1 0x40 DUP4 ADD MSTORE PUSH2 0x8EA1 DUP2 DUP5 PUSH2 0x8DDB JUMP JUMPDEST SWAP1 POP SWAP5 SWAP4 POP POP POP POP JUMP JUMPDEST PUSH32 0x4F6E6C792061646D696E20697320616C6C6F7765640000000000000000000000 PUSH1 0x0 DUP3 ADD MSTORE POP JUMP JUMPDEST PUSH1 0x0 PUSH2 0x8EE1 PUSH1 0x15 DUP4 PUSH2 0x876C JUMP JUMPDEST SWAP2 POP PUSH2 0x8EEC DUP3 PUSH2 0x8EAB JUMP JUMPDEST PUSH1 0x20 DUP3 ADD SWAP1 POP SWAP2 SWAP1 POP JUMP JUMPDEST PUSH1 0x0 PUSH1 0x20 DUP3 ADD SWAP1 POP DUP2 DUP2 SUB PUSH1 0x0 DUP4 ADD MSTORE PUSH2 0x8F10 DUP2 PUSH2 0x8ED4 JUMP JUMPDEST SWAP1 POP SWAP2 SWAP1 POP JUMP JUMPDEST PUSH32 0x4E487B7100000000000000000000000000000000000000000000000000000000 PUSH1 0x0 MSTORE PUSH1 0x32 PUSH1 0x4 MSTORE PUSH1 0x24 PUSH1 0x0 REVERT JUMPDEST PUSH32 0x4E487B7100000000000000000000000000000000000000000000000000000000 PUSH1 0x0 MSTORE PUSH1 0x11 PUSH1 0x4 MSTORE PUSH1 0x24 PUSH1 0x0 REVERT JUMPDEST PUSH1 0x0 PUSH2 0x8F80 DUP3 PUSH2 0x7737 JUMP JUMPDEST SWAP2 POP PUSH32 0xFFFFFFFFFFFFFFFFFFFFFFFFFFFFFFFFFFFFFFFFFFFFFFFFFFFFFFFFFFFFFFFF DUP3 SUB PUSH2 0x8FB2 JUMPI PUSH2 0x8FB1 PUSH2 0x8F46 JUMP JUMPDEST JUMPDEST PUSH1 0x1 DUP3 ADD SWAP1 POP SWAP2 SWAP1 POP JUMP JUMPDEST PUSH32 0x5573657220646F65736E27742068617665204B59432072657100000000000000 PUSH1 0x0 DUP3 ADD MSTORE POP JUMP JUMPDEST PUSH1 0x0 PUSH2 0x8FF3 PUSH1 0x19 DUP4 PUSH2 0x876C JUMP JUMPDEST SWAP2 POP PUSH2 0x8FFE DUP3 PUSH2 0x8FBD JUMP JUMPDEST PUSH1 0x20 DUP3 ADD SWAP1 POP SWAP2 SWAP1 POP JUMP JUMPDEST PUSH1 0x0 PUSH1 0x20 DUP3 ADD SWAP1 POP DUP2 DUP2 SUB PUSH1 0x0 DUP4 ADD MSTORE PUSH2 0x9022 DUP2 PUSH2 0x8FE6 JUMP JUMPDEST SWAP1 POP SWAP2 SWAP1 POP JUMP JUMPDEST PUSH2 0x9032 DUP2 PUSH2 0x763C JUMP JUMPDEST DUP3 MSTORE POP POP JUMP JUMPDEST PUSH2 0x9041 DUP2 PUSH2 0x7D2B JUMP JUMPDEST DUP3 MSTORE POP POP JUMP JUMPDEST PUSH1 0x0 PUSH1 0x80 DUP3 ADD SWAP1 POP DUP2 DUP2 SUB PUSH1 0x0 DUP4 ADD MSTORE PUSH2 0x9061 DUP2 DUP8 PUSH2 0x8DA2 JUMP JUMPDEST SWAP1 POP PUSH2 0x9070 PUSH1 0x20 DUP4 ADD DUP7 PUSH2 0x9029 JUMP JUMPDEST PUSH2 0x907D PUSH1 0x40 DUP4 ADD DUP6 PUSH2 0x9029 JUMP JUMPDEST PUSH2 0x908A PUSH1 0x60 DUP4 ADD DUP5 PUSH2 0x9038 JUMP JUMPDEST SWAP6 SWAP5 POP POP POP POP POP JUMP JUMPDEST PUSH32 0x5065726D697373696F6E206E6F7420666F756E64000000000000000000000000 PUSH1 0x0 DUP3 ADD MSTORE POP JUMP JUMPDEST PUSH1 0x0 PUSH2 0x90C9 PUSH1 0x14 DUP4 PUSH2 0x876C JUMP JUMPDEST SWAP2 POP PUSH2 0x90D4 DUP3 PUSH2 0x9093 JUMP JUMPDEST PUSH1 0x20 DUP3 ADD SWAP1 POP SWAP2 SWAP1 POP JUMP JUMPDEST PUSH1 0x0 PUSH1 0x20 DUP3 ADD SWAP1 POP DUP2 DUP2 SUB PUSH1 0x0 DUP4 ADD MSTORE PUSH2 0x90F8 DUP2 PUSH2 0x90BC JUMP JUMPDEST SWAP1 POP SWAP2 SWAP1 POP JUMP JUMPDEST PUSH32 0x5573657220686164206B7963207265712E000000000000000000000000000000 PUSH1 0x0 DUP3 ADD MSTORE POP JUMP JUMPDEST PUSH1 0x0 PUSH2 0x9135 PUSH1 0x11 DUP4 PUSH2 0x876C JUMP JUMPDEST SWAP2 POP PUSH2 0x9140 DUP3 PUSH2 0x90FF JUMP JUMPDEST PUSH1 0x20 DUP3 ADD SWAP1 POP SWAP2 SWAP1 POP JUMP JUMPDEST PUSH1 0x0 PUSH1 0x20 DUP3 ADD SWAP1 POP DUP2 DUP2 SUB PUSH1 0x0 DUP4 ADD MSTORE PUSH2 0x9164 DUP2 PUSH2 0x9128 JUMP JUMPDEST SWAP1 POP SWAP2 SWAP1 POP JUMP JUMPDEST PUSH1 0x0 PUSH1 0x60 DUP3 ADD SWAP1 POP DUP2 DUP2 SUB PUSH1 0x0 DUP4 ADD MSTORE PUSH2 0x9185 DUP2 DUP7 PUSH2 0x8DA2 JUMP JUMPDEST SWAP1 POP DUP2 DUP2 SUB PUSH1 0x20 DUP4 ADD MSTORE PUSH2 0x9199 DUP2 DUP6 PUSH2 0x8DDB JUMP JUMPDEST SWAP1 POP DUP2 DUP2 SUB PUSH1 0x40 DUP4 ADD MSTORE PUSH2 0x91AD DUP2 DUP5 PUSH2 0x8DA2 JUMP JUMPDEST SWAP1 POP SWAP5 SWAP4 POP POP POP POP JUMP JUMPDEST PUSH32 0x53656E64657220496420456D7074790000000000000000000000000000000000 PUSH1 0x0 DUP3 ADD MSTORE POP JUMP JUMPDEST PUSH1 0x0 PUSH2 0x91ED PUSH1 0xF DUP4 PUSH2 0x876C JUMP JUMPDEST SWAP2 POP PUSH2 0x91F8 DUP3 PUSH2 0x91B7 JUMP JUMPDEST PUSH1 0x20 DUP3 ADD SWAP1 POP SWAP2 SWAP1 POP JUMP JUMPDEST PUSH1 0x0 PUSH1 0x20 DUP3 ADD SWAP1 POP DUP2 DUP2 SUB PUSH1 0x0 DUP4 ADD MSTORE PUSH2 0x921C DUP2 PUSH2 0x91E0 JUMP JUMPDEST SWAP1 POP SWAP2 SWAP1 POP JUMP JUMPDEST PUSH2 0x922C DUP2 PUSH2 0x7CE3 JUMP JUMPDEST DUP3 MSTORE POP POP JUMP JUMPDEST PUSH1 0x0 PUSH1 0x80 DUP3 ADD SWAP1 POP DUP2 DUP2 SUB PUSH1 0x0 DUP4 ADD MSTORE PUSH2 0x924C DUP2 DUP8 PUSH2 0x8DA2 JUMP JUMPDEST SWAP1 POP PUSH2 0x925B PUSH1 0x20 DUP4 ADD DUP7 PUSH2 0x9029 JUMP JUMPDEST PUSH2 0x9268 PUSH1 0x40 DUP4 ADD DUP6 PUSH2 0x9029 JUMP JUMPDEST PUSH2 0x9275 PUSH1 0x60 DUP4 ADD DUP5 PUSH2 0x9223 JUMP JUMPDEST SWAP6 SWAP5 POP POP POP POP POP JUMP JUMPDEST PUSH32 0x42616E6B20496420456D70747900000000000000000000000000000000000000 PUSH1 0x0 DUP3 ADD MSTORE POP JUMP JUMPDEST PUSH1 0x0 PUSH2 0x92B4 PUSH1 0xD DUP4 PUSH2 0x876C JUMP JUMPDEST SWAP2 POP PUSH2 0x92BF DUP3 PUSH2 0x927E JUMP JUMPDEST PUSH1 0x20 DUP3 ADD SWAP1 POP SWAP2 SWAP1 POP JUMP JUMPDEST PUSH1 0x0 PUSH1 0x20 DUP3 ADD SWAP1 POP DUP2 DUP2 SUB PUSH1 0x0 DUP4 ADD MSTORE PUSH2 0x92E3 DUP2 PUSH2 0x92A7 JUMP JUMPDEST SWAP1 POP SWAP2 SWAP1 POP JUMP JUMPDEST PUSH1 0x0 DUP2 PUSH1 0x60 SHL SWAP1 POP SWAP2 SWAP1 POP JUMP JUMPDEST PUSH1 0x0 PUSH2 0x9302 DUP3 PUSH2 0x92EA JUMP JUMPDEST SWAP1 POP SWAP2 SWAP1 POP JUMP JUMPDEST PUSH1 0x0 PUSH2 0x9314 DUP3 PUSH2 0x92F7 JUMP JUMPDEST SWAP1 POP SWAP2 SWAP1 POP JUMP JUMPDEST PUSH2 0x932C PUSH2 0x9327 DUP3 PUSH2 0x763C JUMP JUMPDEST PUSH2 0x9309 JUMP JUMPDEST DUP3 MSTORE POP POP JUMP JUMPDEST PUSH1 0x0 PUSH2 0x933E DUP3 DUP6 PUSH2 0x931B JUMP JUMPDEST PUSH1 0x14 DUP3 ADD SWAP2 POP PUSH2 0x934E DUP3 DUP5 PUSH2 0x931B JUMP JUMPDEST PUSH1 0x14 DUP3 ADD SWAP2 POP DUP2 SWAP1 POP SWAP4 SWAP3 POP POP POP JUMP JUMPDEST PUSH32 0x5265717565737420496420656D70747900000000000000000000000000000000 PUSH1 0x0 DUP3 ADD MSTORE POP JUMP JUMPDEST PUSH1 0x0 PUSH2 0x9394 PUSH1 0x10 DUP4 PUSH2 0x876C JUMP JUMPDEST SWAP2 POP PUSH2 0x939F DUP3 PUSH2 0x935E JUMP JUMPDEST PUSH1 0x20 DUP3 ADD SWAP1 POP SWAP2 SWAP1 POP JUMP JUMPDEST PUSH1 0x0 PUSH1 0x20 DUP3 ADD SWAP1 POP DUP2 DUP2 SUB PUSH1 0x0 DUP4 ADD MSTORE PUSH2 0x93C3 DUP2 PUSH2 0x9387 JUMP JUMPDEST SWAP1 POP SWAP2 SWAP1 POP JUMP JUMPDEST PUSH32 0x496420697320656D707479000000000000000000000000000000000000000000 PUSH1 0x0 DUP3 ADD MSTORE POP JUMP JUMPDEST PUSH1 0x0 PUSH2 0x9400 PUSH1 0xB DUP4 PUSH2 0x876C JUMP JUMPDEST SWAP2 POP PUSH2 0x940B DUP3 PUSH2 0x93CA JUMP JUMPDEST PUSH1 0x20 DUP3 ADD SWAP1 POP SWAP2 SWAP1 POP JUMP JUMPDEST PUSH1 0x0 PUSH1 0x20 DUP3 ADD SWAP1 POP DUP2 DUP2 SUB PUSH1 0x0 DUP4 ADD MSTORE PUSH2 0x942F DUP2 PUSH2 0x93F3 JUMP JUMPDEST SWAP1 POP SWAP2 SWAP1 POP JUMP JUMPDEST PUSH32 0x42616E6B20657869737473000000000000000000000000000000000000000000 PUSH1 0x0 DUP3 ADD MSTORE POP JUMP JUMPDEST PUSH1 0x0 PUSH2 0x946C PUSH1 0xB DUP4 PUSH2 0x876C JUMP JUMPDEST SWAP2 POP PUSH2 0x9477 DUP3 PUSH2 0x9436 JUMP JUMPDEST PUSH1 0x20 DUP3 ADD SWAP1 POP SWAP2 SWAP1 POP JUMP JUMPDEST PUSH1 0x0 PUSH1 0x20 DUP3 ADD SWAP1 POP DUP2 DUP2 SUB PUSH1 0x0 DUP4 ADD MSTORE PUSH2 0x949B DUP2 PUSH2 0x945F JUMP JUMPDEST SWAP1 POP SWAP2 SWAP1 POP JUMP JUMPDEST PUSH1 0x0 PUSH1 0x80 DUP3 ADD SWAP1 POP PUSH2 0x94B7 PUSH1 0x0 DUP4 ADD DUP8 PUSH2 0x9029 JUMP JUMPDEST DUP2 DUP2 SUB PUSH1 0x20 DUP4 ADD MSTORE PUSH2 0x94C9 DUP2 DUP7 PUSH2 0x8DA2 JUMP JUMPDEST SWAP1 POP DUP2 DUP2 SUB PUSH1 0x40 DUP4 ADD MSTORE PUSH2 0x94DD DUP2 DUP6 PUSH2 0x8DA2 JUMP JUMPDEST SWAP1 POP DUP2 DUP2 SUB PUSH1 0x60 DUP4 ADD MSTORE PUSH2 0x94F1 DUP2 DUP5 PUSH2 0x8DA2 JUMP JUMPDEST SWAP1 POP SWAP6 SWAP5 POP POP POP POP POP JUMP JUMPDEST PUSH1 0x0 PUSH1 0x60 DUP3 ADD SWAP1 POP PUSH2 0x9511 PUSH1 0x0 DUP4 ADD DUP7 PUSH2 0x9029 JUMP JUMPDEST DUP2 DUP2 SUB PUSH1 0x20 DUP4 ADD MSTORE PUSH2 0x9523 DUP2 DUP6 PUSH2 0x8DA2 JUMP JUMPDEST SWAP1 POP DUP2 DUP2 SUB PUSH1 0x40 DUP4 ADD MSTORE PUSH2 0x9537 DUP2 DUP5 PUSH2 0x8DA2 JUMP JUMPDEST SWAP1 POP SWAP5 SWAP4 POP POP POP POP JUMP JUMPDEST PUSH32 0x504E2073686F756C64206265203E203000000000000000000000000000000000 PUSH1 0x0 DUP3 ADD MSTORE POP JUMP JUMPDEST PUSH1 0x0 PUSH2 0x9577 PUSH1 0x10 DUP4 PUSH2 0x876C JUMP JUMPDEST SWAP2 POP PUSH2 0x9582 DUP3 PUSH2 0x9541 JUMP JUMPDEST PUSH1 0x20 DUP3 ADD SWAP1 POP SWAP2 SWAP1 POP JUMP JUMPDEST PUSH1 0x0 PUSH1 0x20 DUP3 ADD SWAP1 POP DUP2 DUP2 SUB PUSH1 0x0 DUP4 ADD MSTORE PUSH2 0x95A6 DUP2 PUSH2 0x956A JUMP JUMPDEST SWAP1 POP SWAP2 SWAP1 POP JUMP JUMPDEST PUSH1 0x0 PUSH1 0x60 DUP3 ADD SWAP1 POP PUSH2 0x95C2 PUSH1 0x0 DUP4 ADD DUP7 PUSH2 0x9029 JUMP JUMPDEST DUP2 DUP2 SUB PUSH1 0x20 DUP4 ADD MSTORE PUSH2 0x95D4 DUP2 DUP6 PUSH2 0x8DDB JUMP JUMPDEST SWAP1 POP DUP2 DUP2 SUB PUSH1 0x40 DUP4 ADD MSTORE PUSH2 0x95E8 DUP2 DUP5 PUSH2 0x8DA2 JUMP JUMPDEST SWAP1 POP SWAP5 SWAP4 POP POP POP POP JUMP JUMPDEST PUSH1 0x0 PUSH1 0x40 DUP3 ADD SWAP1 POP PUSH2 0x9607 PUSH1 0x0 DUP4 ADD DUP6 PUSH2 0x9029 JUMP JUMPDEST DUP2 DUP2 SUB PUSH1 0x20 DUP4 ADD MSTORE PUSH2 0x9619 DUP2 DUP5 PUSH2 0x8DDB JUMP JUMPDEST SWAP1 POP SWAP4 SWAP3 POP POP POP JUMP JUMPDEST PUSH32 0x504E2073686F756C64206265203E207A65726F00000000000000000000000000 PUSH1 0x0 DUP3 ADD MSTORE POP JUMP JUMPDEST PUSH1 0x0 PUSH2 0x9658 PUSH1 0x13 DUP4 PUSH2 0x876C JUMP JUMPDEST SWAP2 POP PUSH2 0x9663 DUP3 PUSH2 0x9622 JUMP JUMPDEST PUSH1 0x20 DUP3 ADD SWAP1 POP SWAP2 SWAP1 POP JUMP JUMPDEST PUSH1 0x0 PUSH1 0x20 DUP3 ADD SWAP1 POP DUP2 DUP2 SUB PUSH1 0x0 DUP4 ADD MSTORE PUSH2 0x9687 DUP2 PUSH2 0x964B JUMP JUMPDEST SWAP1 POP SWAP2 SWAP1 POP JUMP JUMPDEST PUSH1 0x0 PUSH2 0x9699 DUP3 PUSH2 0x782B JUMP JUMPDEST SWAP2 POP PUSH2 0xFFFF DUP3 SUB PUSH2 0x96AD JUMPI PUSH2 0x96AC PUSH2 0x8F46 JUMP JUMPDEST JUMPDEST PUSH1 0x1 DUP3 ADD SWAP1 POP SWAP2 SWAP1 POP JUMP JUMPDEST PUSH32 0x437573746F6D657220496420456D707479000000000000000000000000000000 PUSH1 0x0 DUP3 ADD MSTORE POP JUMP JUMPDEST PUSH1 0x0 PUSH2 0x96EE PUSH1 0x11 DUP4 PUSH2 0x876C JUMP JUMPDEST SWAP2 POP PUSH2 0x96F9 DUP3 PUSH2 0x96B8 JUMP JUMPDEST PUSH1 0x20 DUP3 ADD SWAP1 POP SWAP2 SWAP1 POP JUMP JUMPDEST PUSH1 0x0 PUSH1 0x20 DUP3 ADD SWAP1 POP DUP2 DUP2 SUB PUSH1 0x0 DUP4 ADD MSTORE PUSH2 0x971D DUP2 PUSH2 0x96E1 JUMP JUMPDEST SWAP1 POP SWAP2 SWAP1 POP JUMP JUMPDEST PUSH32 0x4E487B7100000000000000000000000000000000000000000000000000000000 PUSH1 0x0 MSTORE PUSH1 0x12 PUSH1 0x4 MSTORE PUSH1 0x24 PUSH1 0x0 REVERT JUMPDEST PUSH1 0x0 PUSH2 0x975E DUP3 PUSH2 0x7737 JUMP JUMPDEST SWAP2 POP PUSH2 0x9769 DUP4 PUSH2 0x7737 JUMP JUMPDEST SWAP3 POP DUP3 PUSH2 0x9779 JUMPI PUSH2 0x9778 PUSH2 0x9724 JUMP JUMPDEST JUMPDEST DUP3 DUP3 MOD SWAP1 POP SWAP3 SWAP2 POP POP JUMP JUMPDEST PUSH1 0x0 PUSH2 0x978F DUP3 PUSH2 0x7737 JUMP JUMPDEST SWAP2 POP PUSH2 0x979A DUP4 PUSH2 0x7737 JUMP JUMPDEST SWAP3 POP DUP3 PUSH2 0x97AA JUMPI PUSH2 0x97A9 PUSH2 0x9724 JUMP JUMPDEST JUMPDEST DUP3 DUP3 DIV SWAP1 POP SWAP3 SWAP2 POP POP JUMP JUMPDEST PUSH1 0x0 PUSH2 0x97C0 DUP3 PUSH2 0x7737 JUMP JUMPDEST SWAP2 POP PUSH2 0x97CB DUP4 PUSH2 0x7737 JUMP JUMPDEST SWAP3 POP DUP3 DUP3 SUB SWAP1 POP DUP2 DUP2 GT ISZERO PUSH2 0x97E3 JUMPI PUSH2 0x97E2 PUSH2 0x8F46 JUMP JUMPDEST JUMPDEST SWAP3 SWAP2 POP POP JUMP JUMPDEST PUSH1 0x0 PUSH2 0x97F4 DUP3 PUSH2 0x7737 JUMP JUMPDEST SWAP2 POP PUSH2 0x97FF DUP4 PUSH2 0x7737 JUMP JUMPDEST SWAP3 POP DUP3 DUP3 MUL PUSH2 0x980D DUP2 PUSH2 0x7737 JUMP JUMPDEST SWAP2 POP DUP3 DUP3 DIV DUP5 EQ DUP4 ISZERO OR PUSH2 0x9824 JUMPI PUSH2 0x9823 PUSH2 0x8F46 JUMP JUMPDEST JUMPDEST POP SWAP3 SWAP2 POP POP JUMP INVALID LOG2 PUSH5 0x6970667358 0x22 SLT KECCAK256 MLOAD SWAP16 PUSH18 0xDB6C1063127D65826DDDFB2159916BC75868 0x5E DUP13 SWAP8 ADDRESS CALLER INVALID 0x24 DUP4 AND 0xF8 0xC1 PUSH5 0x736F6C6343 STOP ADDMOD SLT STOP CALLER "
	},
	"abi": [
		{
			"inputs": [
				{
					"internalType": "string",
					"name": "name_",
					"type": "string"
				},
				{
					"internalType": "string",
					"name": "email_",
					"type": "string"
				}
			],
			"stateMutability": "nonpayable",
			"type": "constructor"
		},
		{
			"anonymous": false,
			"inputs": [
				{
					"indexed": false,
					"internalType": "address",
					"name": "id_",
					"type": "address"
				},
				{
					"indexed": false,
					"internalType": "string",
					"name": "name",
					"type": "string"
				}
			],
			"name": "BankActivated",
			"type": "event"
		},
		{
			"anonymous": false,
			"inputs": [
				{
					"indexed": false,
					"internalType": "address",
					"name": "id_",
					"type": "address"
				},
				{
					"indexed": false,
					"internalType": "string",
					"name": "name",
					"type": "string"
				},
				{
					"indexed": false,
					"internalType": "string",
					"name": "email",
					"type": "string"
				},
				{
					"indexed": false,
					"internalType": "string",
					"name": "ifscCode",
					"type": "string"
				}
			],
			"name": "BankAdded",
			"type": "event"
		},
		{
			"anonymous": false,
			"inputs": [
				{
					"indexed": false,
					"internalType": "address",
					"name": "id_",
					"type": "address"
				},
				{
					"indexed": false,
					"internalType": "string",
					"name": "name",
					"type": "string"
				}
			],
			"name": "BankDeactivated",
			"type": "event"
		},
		{
			"anonymous": false,
			"inputs": [
				{
					"indexed": false,
					"internalType": "address",
					"name": "id_",
					"type": "address"
				},
				{
					"indexed": false,
					"internalType": "string",
					"name": "name",
					"type": "string"
				},
				{
					"indexed": false,
					"internalType": "string",
					"name": "email",
					"type": "string"
				}
			],
			"name": "BankUpdated",
			"type": "event"
		},
		{
			"anonymous": false,
			"inputs": [
				{
					"indexed": false,
					"internalType": "address",
					"name": "id_",
					"type": "address"
				},
				{
					"indexed": false,
					"internalType": "string",
					"name": "name",
					"type": "string"
				},
				{
					"indexed": false,
					"internalType": "string",
					"name": "email",
					"type": "string"
				}
			],
			"name": "CustomerAdded",
			"type": "event"
		},
		{
			"anonymous": false,
			"inputs": [
				{
					"indexed": false,
					"internalType": "address",
					"name": "id_",
					"type": "address"
				},
				{
					"indexed": false,
					"internalType": "string",
					"name": "name",
					"type": "string"
				},
				{
					"indexed": false,
					"internalType": "string",
					"name": "email",
					"type": "string"
				}
			],
			"name": "CustomerDataUpdated",
			"type": "event"
		},
		{
			"anonymous": false,
			"inputs": [
				{
					"indexed": false,
					"internalType": "string",
					"name": "reqId",
					"type": "string"
				},
				{
					"indexed": false,
					"internalType": "address",
					"name": "customerId",
					"type": "address"
				},
				{
					"indexed": false,
					"internalType": "address",
					"name": "bankId",
					"type": "address"
				},
				{
					"indexed": false,
					"internalType": "enum Types.DataHashStatus",
					"name": "status",
					"type": "uint8"
				}
			],
			"name": "DataHashPermissionChanged",
			"type": "event"
		},
		{
			"anonymous": false,
			"inputs": [
				{
					"indexed": false,
					"internalType": "address",
					"name": "id_",
					"type": "address"
				},
				{
					"indexed": false,
					"internalType": "string",
					"name": "customerName",
					"type": "string"
				},
				{
					"indexed": false,
					"internalType": "string",
					"name": "dataHash",
					"type": "string"
				}
			],
			"name": "DataHashUpdated",
			"type": "event"
		},
		{
			"anonymous": false,
			"inputs": [
				{
					"indexed": false,
					"internalType": "string",
					"name": "reqId",
					"type": "string"
				},
				{
					"indexed": false,
					"internalType": "string",
					"name": "bankName",
					"type": "string"
				},
				{
					"indexed": false,
					"internalType": "string",
					"name": "customerName",
					"type": "string"
				}
			],
			"name": "KycReRequested",
			"type": "event"
		},
		{
			"anonymous": false,
			"inputs": [
				{
					"indexed": false,
					"internalType": "string",
					"name": "reqId",
					"type": "string"
				},
				{
					"indexed": false,
					"internalType": "string",
					"name": "bankName",
					"type": "string"
				},
				{
					"indexed": false,
					"internalType": "string",
					"name": "customerName",
					"type": "string"
				}
			],
			"name": "KycRequestAdded",
			"type": "event"
		},
		{
			"anonymous": false,
			"inputs": [
				{
					"indexed": false,
					"internalType": "string",
					"name": "reqId",
					"type": "string"
				},
				{
					"indexed": false,
					"internalType": "address",
					"name": "customerId",
					"type": "address"
				},
				{
					"indexed": false,
					"internalType": "address",
					"name": "bankId",
					"type": "address"
				},
				{
					"indexed": false,
					"internalType": "enum Types.KycStatus",
					"name": "status",
					"type": "uint8"
				}
			],
			"name": "KycStatusChanged",
			"type": "event"
		},
		{
			"inputs": [
				{
					"internalType": "address",
					"name": "bankId_",
					"type": "address"
				},
				{
					"internalType": "bool",
					"name": "approve_",
					"type": "bool"
				},
				{
					"internalType": "string",
					"name": "note_",
					"type": "string"
				}
			],
			"name": "actionOnKycRequest",
			"outputs": [],
			"stateMutability": "nonpayable",
			"type": "function"
		},
		{
			"inputs": [
				{
					"internalType": "address",
					"name": "id_",
					"type": "address"
				},
				{
					"internalType": "bool",
					"name": "makeActive_",
					"type": "bool"
				}
			],
			"name": "activateDeactivateBank",
			"outputs": [],
			"stateMutability": "nonpayable",
			"type": "function"
		},
		{
			"inputs": [
				{
					"components": [
						{
							"internalType": "string",
							"name": "name",
							"type": "string"
						},
						{
							"internalType": "string",
							"name": "email",
							"type": "string"
						},
						{
							"internalType": "address",
							"name": "id_",
							"type": "address"
						},
						{
							"internalType": "string",
							"name": "ifscCode",
							"type": "string"
						},
						{
							"internalType": "uint16",
							"name": "kycCount",
							"type": "uint16"
						},
						{
							"internalType": "enum Types.BankStatus",
							"name": "status",
							"type": "uint8"
						}
					],
					"internalType": "struct Types.Bank",
					"name": "bank_",
					"type": "tuple"
				}
			],
			"name": "addBank",
			"outputs": [],
			"stateMutability": "nonpayable",
			"type": "function"
		},
		{
			"inputs": [
				{
					"components": [
						{
							"internalType": "string",
							"name": "name",
							"type": "string"
						},
						{
							"internalType": "string",
							"name": "email",
							"type": "string"
						},
						{
							"internalType": "uint256",
							"name": "mobileNumber",
							"type": "uint256"
						},
						{
							"internalType": "address",
							"name": "id_",
							"type": "address"
						},
						{
							"internalType": "address",
							"name": "kycVerifiedBy",
							"type": "address"
						},
						{
							"internalType": "string",
							"name": "dataHash",
							"type": "string"
						},
						{
							"internalType": "uint256",
							"name": "dataUpdatedOn",
							"type": "uint256"
						}
					],
					"internalType": "struct Types.Customer",
					"name": "customer_",
					"type": "tuple"
				},
				{
					"internalType": "uint256",
					"name": "currentTime_",
					"type": "uint256"
				},
				{
					"internalType": "string",
					"name": "notes_",
					"type": "string"
				}
			],
			"name": "addKycRequest",
			"outputs": [],
			"stateMutability": "nonpayable",
			"type": "function"
		},
		{
			"inputs": [
				{
					"internalType": "uint256",
					"name": "pageNumber",
					"type": "uint256"
				}
			],
			"name": "getAllBanks",
			"outputs": [
				{
					"internalType": "uint256",
					"name": "totalPages",
					"type": "uint256"
				},
				{
					"components": [
						{
							"internalType": "string",
							"name": "name",
							"type": "string"
						},
						{
							"internalType": "string",
							"name": "email",
							"type": "string"
						},
						{
							"internalType": "address",
							"name": "id_",
							"type": "address"
						},
						{
							"internalType": "string",
							"name": "ifscCode",
							"type": "string"
						},
						{
							"internalType": "uint16",
							"name": "kycCount",
							"type": "uint16"
						},
						{
							"internalType": "enum Types.BankStatus",
							"name": "status",
							"type": "uint8"
						}
					],
					"internalType": "struct Types.Bank[]",
					"name": "",
					"type": "tuple[]"
				}
			],
			"stateMutability": "view",
			"type": "function"
		},
		{
			"inputs": [
				{
					"internalType": "address",
					"name": "id_",
					"type": "address"
				}
			],
			"name": "getBankDetails",
			"outputs": [
				{
					"components": [
						{
							"internalType": "string",
							"name": "name",
							"type": "string"
						},
						{
							"internalType": "string",
							"name": "email",
							"type": "string"
						},
						{
							"internalType": "address",
							"name": "id_",
							"type": "address"
						},
						{
							"internalType": "string",
							"name": "ifscCode",
							"type": "string"
						},
						{
							"internalType": "uint16",
							"name": "kycCount",
							"type": "uint16"
						},
						{
							"internalType": "enum Types.BankStatus",
							"name": "status",
							"type": "uint8"
						}
					],
					"internalType": "struct Types.Bank",
					"name": "",
					"type": "tuple"
				}
			],
			"stateMutability": "view",
			"type": "function"
		},
		{
			"inputs": [
				{
					"internalType": "uint256",
					"name": "pageNumber",
					"type": "uint256"
				}
			],
			"name": "getBankRequests",
			"outputs": [
				{
					"internalType": "uint256",
					"name": "totalPages",
					"type": "uint256"
				},
				{
					"components": [
						{
							"internalType": "string",
							"name": "id_",
							"type": "string"
						},
						{
							"internalType": "address",
							"name": "userId_",
							"type": "address"
						},
						{
							"internalType": "string",
							"name": "customerName",
							"type": "string"
						},
						{
							"internalType": "address",
							"name": "bankId_",
							"type": "address"
						},
						{
							"internalType": "string",
							"name": "bankName",
							"type": "string"
						},
						{
							"internalType": "string",
							"name": "dataHash",
							"type": "string"
						},
						{
							"internalType": "uint256",
							"name": "updatedOn",
							"type": "uint256"
						},
						{
							"internalType": "enum Types.KycStatus",
							"name": "status",
							"type": "uint8"
						},
						{
							"internalType": "enum Types.DataHashStatus",
							"name": "dataRequest",
							"type": "uint8"
						},
						{
							"internalType": "string",
							"name": "additionalNotes",
							"type": "string"
						}
					],
					"internalType": "struct Types.KycRequest[]",
					"name": "",
					"type": "tuple[]"
				}
			],
			"stateMutability": "view",
			"type": "function"
		},
		{
			"inputs": [
				{
					"internalType": "address",
					"name": "id_",
					"type": "address"
				}
			],
			"name": "getCustomerDetails",
			"outputs": [
				{
					"components": [
						{
							"internalType": "string",
							"name": "name",
							"type": "string"
						},
						{
							"internalType": "string",
							"name": "email",
							"type": "string"
						},
						{
							"internalType": "uint256",
							"name": "mobileNumber",
							"type": "uint256"
						},
						{
							"internalType": "address",
							"name": "id_",
							"type": "address"
						},
						{
							"internalType": "address",
							"name": "kycVerifiedBy",
							"type": "address"
						},
						{
							"internalType": "string",
							"name": "dataHash",
							"type": "string"
						},
						{
							"internalType": "uint256",
							"name": "dataUpdatedOn",
							"type": "uint256"
						}
					],
					"internalType": "struct Types.Customer",
					"name": "",
					"type": "tuple"
				}
			],
			"stateMutability": "view",
			"type": "function"
		},
		{
			"inputs": [
				{
					"internalType": "uint256",
					"name": "pageNumber",
					"type": "uint256"
				}
			],
			"name": "getCustomersOfBank",
			"outputs": [
				{
					"internalType": "uint256",
					"name": "totalPages",
					"type": "uint256"
				},
				{
					"components": [
						{
							"internalType": "string",
							"name": "id_",
							"type": "string"
						},
						{
							"internalType": "address",
							"name": "userId_",
							"type": "address"
						},
						{
							"internalType": "string",
							"name": "customerName",
							"type": "string"
						},
						{
							"internalType": "address",
							"name": "bankId_",
							"type": "address"
						},
						{
							"internalType": "string",
							"name": "bankName",
							"type": "string"
						},
						{
							"internalType": "string",
							"name": "dataHash",
							"type": "string"
						},
						{
							"internalType": "uint256",
							"name": "updatedOn",
							"type": "uint256"
						},
						{
							"internalType": "enum Types.KycStatus",
							"name": "status",
							"type": "uint8"
						},
						{
							"internalType": "enum Types.DataHashStatus",
							"name": "dataRequest",
							"type": "uint8"
						},
						{
							"internalType": "string",
							"name": "additionalNotes",
							"type": "string"
						}
					],
					"internalType": "struct Types.KycRequest[]",
					"name": "",
					"type": "tuple[]"
				}
			],
			"stateMutability": "view",
			"type": "function"
		},
		{
			"inputs": [
				{
					"internalType": "address",
					"name": "id_",
					"type": "address"
				},
				{
					"internalType": "string",
					"name": "notes_",
					"type": "string"
				}
			],
			"name": "reRequestForKycRequest",
			"outputs": [],
			"stateMutability": "nonpayable",
			"type": "function"
		},
		{
			"inputs": [
				{
					"internalType": "address",
					"name": "bankId_",
					"type": "address"
				},
				{
					"internalType": "string",
					"name": "notes_",
					"type": "string"
				}
			],
			"name": "removerDatahashPermission",
			"outputs": [],
			"stateMutability": "nonpayable",
			"type": "function"
		},
		{
			"inputs": [
				{
					"internalType": "address",
					"name": "bankId_",
					"type": "address"
				}
			],
			"name": "searchBanks",
			"outputs": [
				{
					"internalType": "bool",
					"name": "",
					"type": "bool"
				},
				{
					"components": [
						{
							"internalType": "string",
							"name": "name",
							"type": "string"
						},
						{
							"internalType": "string",
							"name": "email",
							"type": "string"
						},
						{
							"internalType": "address",
							"name": "id_",
							"type": "address"
						},
						{
							"internalType": "string",
							"name": "ifscCode",
							"type": "string"
						},
						{
							"internalType": "uint16",
							"name": "kycCount",
							"type": "uint16"
						},
						{
							"internalType": "enum Types.BankStatus",
							"name": "status",
							"type": "uint8"
						}
					],
					"internalType": "struct Types.Bank",
					"name": "",
					"type": "tuple"
				},
				{
					"components": [
						{
							"internalType": "string",
							"name": "id_",
							"type": "string"
						},
						{
							"internalType": "address",
							"name": "userId_",
							"type": "address"
						},
						{
							"internalType": "string",
							"name": "customerName",
							"type": "string"
						},
						{
							"internalType": "address",
							"name": "bankId_",
							"type": "address"
						},
						{
							"internalType": "string",
							"name": "bankName",
							"type": "string"
						},
						{
							"internalType": "string",
							"name": "dataHash",
							"type": "string"
						},
						{
							"internalType": "uint256",
							"name": "updatedOn",
							"type": "uint256"
						},
						{
							"internalType": "enum Types.KycStatus",
							"name": "status",
							"type": "uint8"
						},
						{
							"internalType": "enum Types.DataHashStatus",
							"name": "dataRequest",
							"type": "uint8"
						},
						{
							"internalType": "string",
							"name": "additionalNotes",
							"type": "string"
						}
					],
					"internalType": "struct Types.KycRequest",
					"name": "",
					"type": "tuple"
				}
			],
			"stateMutability": "view",
			"type": "function"
		},
		{
			"inputs": [
				{
					"internalType": "address",
					"name": "id_",
					"type": "address"
				}
			],
			"name": "searchCustomers",
			"outputs": [
				{
					"internalType": "bool",
					"name": "",
					"type": "bool"
				},
				{
					"components": [
						{
							"internalType": "string",
							"name": "name",
							"type": "string"
						},
						{
							"internalType": "string",
							"name": "email",
							"type": "string"
						},
						{
							"internalType": "uint256",
							"name": "mobileNumber",
							"type": "uint256"
						},
						{
							"internalType": "address",
							"name": "id_",
							"type": "address"
						},
						{
							"internalType": "address",
							"name": "kycVerifiedBy",
							"type": "address"
						},
						{
							"internalType": "string",
							"name": "dataHash",
							"type": "string"
						},
						{
							"internalType": "uint256",
							"name": "dataUpdatedOn",
							"type": "uint256"
						}
					],
					"internalType": "struct Types.Customer",
					"name": "",
					"type": "tuple"
				},
				{
					"components": [
						{
							"internalType": "string",
							"name": "id_",
							"type": "string"
						},
						{
							"internalType": "address",
							"name": "userId_",
							"type": "address"
						},
						{
							"internalType": "string",
							"name": "customerName",
							"type": "string"
						},
						{
							"internalType": "address",
							"name": "bankId_",
							"type": "address"
						},
						{
							"internalType": "string",
							"name": "bankName",
							"type": "string"
						},
						{
							"internalType": "string",
							"name": "dataHash",
							"type": "string"
						},
						{
							"internalType": "uint256",
							"name": "updatedOn",
							"type": "uint256"
						},
						{
							"internalType": "enum Types.KycStatus",
							"name": "status",
							"type": "uint8"
						},
						{
							"internalType": "enum Types.DataHashStatus",
							"name": "dataRequest",
							"type": "uint8"
						},
						{
							"internalType": "string",
							"name": "additionalNotes",
							"type": "string"
						}
					],
					"internalType": "struct Types.KycRequest",
					"name": "",
					"type": "tuple"
				}
			],
			"stateMutability": "view",
			"type": "function"
		},
		{
			"inputs": [
				{
					"internalType": "address",
					"name": "id_",
					"type": "address"
				},
				{
					"internalType": "string",
					"name": "email_",
					"type": "string"
				},
				{
					"internalType": "string",
					"name": "name_",
					"type": "string"
				}
			],
			"name": "updateBankDetails",
			"outputs": [],
			"stateMutability": "nonpayable",
			"type": "function"
		},
		{
			"inputs": [
				{
					"internalType": "string",
					"name": "hash_",
					"type": "string"
				},
				{
					"internalType": "uint256",
					"name": "currentTime_",
					"type": "uint256"
				}
			],
			"name": "updateDatahash",
			"outputs": [],
			"stateMutability": "nonpayable",
			"type": "function"
		},
		{
			"inputs": [
				{
					"internalType": "address",
					"name": "userId_",
					"type": "address"
				},
				{
					"internalType": "bool",
					"name": "verified_",
					"type": "bool"
				},
				{
					"internalType": "string",
					"name": "note_",
					"type": "string"
				}
			],
			"name": "updateKycVerification",
			"outputs": [],
			"stateMutability": "nonpayable",
			"type": "function"
		},
		{
			"inputs": [
				{
					"internalType": "string",
					"name": "name_",
					"type": "string"
				},
				{
					"internalType": "string",
					"name": "email_",
					"type": "string"
				},
				{
					"internalType": "uint256",
					"name": "mobile_",
					"type": "uint256"
				}
			],
			"name": "updateProfile",
			"outputs": [],
			"stateMutability": "nonpayable",
			"type": "function"
		},
		{
			"inputs": [],
			"name": "whoAmI",
			"outputs": [
				{
					"components": [
						{
							"internalType": "string",
							"name": "name",
							"type": "string"
						},
						{
							"internalType": "string",
							"name": "email",
							"type": "string"
						},
						{
							"internalType": "address",
							"name": "id_",
							"type": "address"
						},
						{
							"internalType": "enum Types.Role",
							"name": "role",
							"type": "uint8"
						},
						{
							"internalType": "enum Types.BankStatus",
							"name": "status",
							"type": "uint8"
						}
					],
					"internalType": "struct Types.User",
					"name": "",
					"type": "tuple"
				}
			],
			"stateMutability": "view",
			"type": "function"
		}
	],
	"storageLayout": {
		"storage": [
			{
				"astId": 403,
				"contract": "contracts/KYC.sol:KYC",
				"label": "customerList",
				"offset": 0,
				"slot": "0",
				"type": "t_array(t_address)dyn_storage"
			},
			{
				"astId": 408,
				"contract": "contracts/KYC.sol:KYC",
				"label": "customers",
				"offset": 0,
				"slot": "1",
				"type": "t_mapping(t_address,t_struct(Customer)2092_storage)"
			},
			{
				"astId": 8,
				"contract": "contracts/KYC.sol:KYC",
				"label": "bankList",
				"offset": 0,
				"slot": "2",
				"type": "t_array(t_address)dyn_storage"
			},
			{
				"astId": 13,
				"contract": "contracts/KYC.sol:KYC",
				"label": "banks",
				"offset": 0,
				"slot": "3",
				"type": "t_mapping(t_address,t_struct(Bank)2106_storage)"
			},
			{
				"astId": 879,
				"contract": "contracts/KYC.sol:KYC",
				"label": "admin",
				"offset": 0,
				"slot": "4",
				"type": "t_address"
			},
			{
				"astId": 882,
				"contract": "contracts/KYC.sol:KYC",
				"label": "userList",
				"offset": 0,
				"slot": "5",
				"type": "t_array(t_address)dyn_storage"
			},
			{
				"astId": 887,
				"contract": "contracts/KYC.sol:KYC",
				"label": "users",
				"offset": 0,
				"slot": "6",
				"type": "t_mapping(t_address,t_struct(User)2077_storage)"
			},
			{
				"astId": 892,
				"contract": "contracts/KYC.sol:KYC",
				"label": "kycRequests",
				"offset": 0,
				"slot": "7",
				"type": "t_mapping(t_string_memory_ptr,t_struct(KycRequest)2129_storage)"
			},
			{
				"astId": 897,
				"contract": "contracts/KYC.sol:KYC",
				"label": "bankCustomers",
				"offset": 0,
				"slot": "8",
				"type": "t_mapping(t_address,t_array(t_address)dyn_storage)"
			},
			{
				"astId": 902,
				"contract": "contracts/KYC.sol:KYC",
				"label": "customerbanks",
				"offset": 0,
				"slot": "9",
				"type": "t_mapping(t_address,t_array(t_address)dyn_storage)"
			}
		],
		"types": {
			"t_address": {
				"encoding": "inplace",
				"label": "address",
				"numberOfBytes": "20"
			},
			"t_array(t_address)dyn_storage": {
				"base": "t_address",
				"encoding": "dynamic_array",
				"label": "address[]",
				"numberOfBytes": "32"
			},
			"t_enum(BankStatus)2056": {
				"encoding": "inplace",
				"label": "enum Types.BankStatus",
				"numberOfBytes": "1"
			},
			"t_enum(DataHashStatus)2064": {
				"encoding": "inplace",
				"label": "enum Types.DataHashStatus",
				"numberOfBytes": "1"
			},
			"t_enum(KycStatus)2060": {
				"encoding": "inplace",
				"label": "enum Types.KycStatus",
				"numberOfBytes": "1"
			},
			"t_enum(Role)2053": {
				"encoding": "inplace",
				"label": "enum Types.Role",
				"numberOfBytes": "1"
			},
			"t_mapping(t_address,t_array(t_address)dyn_storage)": {
				"encoding": "mapping",
				"key": "t_address",
				"label": "mapping(address => address[])",
				"numberOfBytes": "32",
				"value": "t_array(t_address)dyn_storage"
			},
			"t_mapping(t_address,t_struct(Bank)2106_storage)": {
				"encoding": "mapping",
				"key": "t_address",
				"label": "mapping(address => struct Types.Bank)",
				"numberOfBytes": "32",
				"value": "t_struct(Bank)2106_storage"
			},
			"t_mapping(t_address,t_struct(Customer)2092_storage)": {
				"encoding": "mapping",
				"key": "t_address",
				"label": "mapping(address => struct Types.Customer)",
				"numberOfBytes": "32",
				"value": "t_struct(Customer)2092_storage"
			},
			"t_mapping(t_address,t_struct(User)2077_storage)": {
				"encoding": "mapping",
				"key": "t_address",
				"label": "mapping(address => struct Types.User)",
				"numberOfBytes": "32",
				"value": "t_struct(User)2077_storage"
			},
			"t_mapping(t_string_memory_ptr,t_struct(KycRequest)2129_storage)": {
				"encoding": "mapping",
				"key": "t_string_memory_ptr",
				"label": "mapping(string => struct Types.KycRequest)",
				"numberOfBytes": "32",
				"value": "t_struct(KycRequest)2129_storage"
			},
			"t_string_memory_ptr": {
				"encoding": "bytes",
				"label": "string",
				"numberOfBytes": "32"
			},
			"t_string_storage": {
				"encoding": "bytes",
				"label": "string",
				"numberOfBytes": "32"
			},
			"t_struct(Bank)2106_storage": {
				"encoding": "inplace",
				"label": "struct Types.Bank",
				"members": [
					{
						"astId": 2094,
						"contract": "contracts/KYC.sol:KYC",
						"label": "name",
						"offset": 0,
						"slot": "0",
						"type": "t_string_storage"
					},
					{
						"astId": 2096,
						"contract": "contracts/KYC.sol:KYC",
						"label": "email",
						"offset": 0,
						"slot": "1",
						"type": "t_string_storage"
					},
					{
						"astId": 2098,
						"contract": "contracts/KYC.sol:KYC",
						"label": "id_",
						"offset": 0,
						"slot": "2",
						"type": "t_address"
					},
					{
						"astId": 2100,
						"contract": "contracts/KYC.sol:KYC",
						"label": "ifscCode",
						"offset": 0,
						"slot": "3",
						"type": "t_string_storage"
					},
					{
						"astId": 2102,
						"contract": "contracts/KYC.sol:KYC",
						"label": "kycCount",
						"offset": 0,
						"slot": "4",
						"type": "t_uint16"
					},
					{
						"astId": 2105,
						"contract": "contracts/KYC.sol:KYC",
						"label": "status",
						"offset": 2,
						"slot": "4",
						"type": "t_enum(BankStatus)2056"
					}
				],
				"numberOfBytes": "160"
			},
			"t_struct(Customer)2092_storage": {
				"encoding": "inplace",
				"label": "struct Types.Customer",
				"members": [
					{
						"astId": 2079,
						"contract": "contracts/KYC.sol:KYC",
						"label": "name",
						"offset": 0,
						"slot": "0",
						"type": "t_string_storage"
					},
					{
						"astId": 2081,
						"contract": "contracts/KYC.sol:KYC",
						"label": "email",
						"offset": 0,
						"slot": "1",
						"type": "t_string_storage"
					},
					{
						"astId": 2083,
						"contract": "contracts/KYC.sol:KYC",
						"label": "mobileNumber",
						"offset": 0,
						"slot": "2",
						"type": "t_uint256"
					},
					{
						"astId": 2085,
						"contract": "contracts/KYC.sol:KYC",
						"label": "id_",
						"offset": 0,
						"slot": "3",
						"type": "t_address"
					},
					{
						"astId": 2087,
						"contract": "contracts/KYC.sol:KYC",
						"label": "kycVerifiedBy",
						"offset": 0,
						"slot": "4",
						"type": "t_address"
					},
					{
						"astId": 2089,
						"contract": "contracts/KYC.sol:KYC",
						"label": "dataHash",
						"offset": 0,
						"slot": "5",
						"type": "t_string_storage"
					},
					{
						"astId": 2091,
						"contract": "contracts/KYC.sol:KYC",
						"label": "dataUpdatedOn",
						"offset": 0,
						"slot": "6",
						"type": "t_uint256"
					}
				],
				"numberOfBytes": "224"
			},
			"t_struct(KycRequest)2129_storage": {
				"encoding": "inplace",
				"label": "struct Types.KycRequest",
				"members": [
					{
						"astId": 2108,
						"contract": "contracts/KYC.sol:KYC",
						"label": "id_",
						"offset": 0,
						"slot": "0",
						"type": "t_string_storage"
					},
					{
						"astId": 2110,
						"contract": "contracts/KYC.sol:KYC",
						"label": "userId_",
						"offset": 0,
						"slot": "1",
						"type": "t_address"
					},
					{
						"astId": 2112,
						"contract": "contracts/KYC.sol:KYC",
						"label": "customerName",
						"offset": 0,
						"slot": "2",
						"type": "t_string_storage"
					},
					{
						"astId": 2114,
						"contract": "contracts/KYC.sol:KYC",
						"label": "bankId_",
						"offset": 0,
						"slot": "3",
						"type": "t_address"
					},
					{
						"astId": 2116,
						"contract": "contracts/KYC.sol:KYC",
						"label": "bankName",
						"offset": 0,
						"slot": "4",
						"type": "t_string_storage"
					},
					{
						"astId": 2118,
						"contract": "contracts/KYC.sol:KYC",
						"label": "dataHash",
						"offset": 0,
						"slot": "5",
						"type": "t_string_storage"
					},
					{
						"astId": 2120,
						"contract": "contracts/KYC.sol:KYC",
						"label": "updatedOn",
						"offset": 0,
						"slot": "6",
						"type": "t_uint256"
					},
					{
						"astId": 2123,
						"contract": "contracts/KYC.sol:KYC",
						"label": "status",
						"offset": 0,
						"slot": "7",
						"type": "t_enum(KycStatus)2060"
					},
					{
						"astId": 2126,
						"contract": "contracts/KYC.sol:KYC",
						"label": "dataRequest",
						"offset": 1,
						"slot": "7",
						"type": "t_enum(DataHashStatus)2064"
					},
					{
						"astId": 2128,
						"contract": "contracts/KYC.sol:KYC",
						"label": "additionalNotes",
						"offset": 0,
						"slot": "8",
						"type": "t_string_storage"
					}
				],
				"numberOfBytes": "288"
			},
			"t_struct(User)2077_storage": {
				"encoding": "inplace",
				"label": "struct Types.User",
				"members": [
					{
						"astId": 2066,
						"contract": "contracts/KYC.sol:KYC",
						"label": "name",
						"offset": 0,
						"slot": "0",
						"type": "t_string_storage"
					},
					{
						"astId": 2068,
						"contract": "contracts/KYC.sol:KYC",
						"label": "email",
						"offset": 0,
						"slot": "1",
						"type": "t_string_storage"
					},
					{
						"astId": 2070,
						"contract": "contracts/KYC.sol:KYC",
						"label": "id_",
						"offset": 0,
						"slot": "2",
						"type": "t_address"
					},
					{
						"astId": 2073,
						"contract": "contracts/KYC.sol:KYC",
						"label": "role",
						"offset": 20,
						"slot": "2",
						"type": "t_enum(Role)2053"
					},
					{
						"astId": 2076,
						"contract": "contracts/KYC.sol:KYC",
						"label": "status",
						"offset": 21,
						"slot": "2",
						"type": "t_enum(BankStatus)2056"
					}
				],
				"numberOfBytes": "96"
			},
			"t_uint16": {
				"encoding": "inplace",
				"label": "uint16",
				"numberOfBytes": "2"
			},
			"t_uint256": {
				"encoding": "inplace",
				"label": "uint256",
				"numberOfBytes": "32"
			}
		}
	},
	"web3Deploy": "var name_ = /* var of type string here */ ;\nvar email_ = /* var of type string here */ ;\nvar kycContract = new web3.eth.Contract([{\"inputs\":[{\"internalType\":\"string\",\"name\":\"name_\",\"type\":\"string\"},{\"internalType\":\"string\",\"name\":\"email_\",\"type\":\"string\"}],\"stateMutability\":\"nonpayable\",\"type\":\"constructor\"},{\"anonymous\":false,\"inputs\":[{\"indexed\":false,\"internalType\":\"address\",\"name\":\"id_\",\"type\":\"address\"},{\"indexed\":false,\"internalType\":\"string\",\"name\":\"name\",\"type\":\"string\"}],\"name\":\"BankActivated\",\"type\":\"event\"},{\"anonymous\":false,\"inputs\":[{\"indexed\":false,\"internalType\":\"address\",\"name\":\"id_\",\"type\":\"address\"},{\"indexed\":false,\"internalType\":\"string\",\"name\":\"name\",\"type\":\"string\"},{\"indexed\":false,\"internalType\":\"string\",\"name\":\"email\",\"type\":\"string\"},{\"indexed\":false,\"internalType\":\"string\",\"name\":\"ifscCode\",\"type\":\"string\"}],\"name\":\"BankAdded\",\"type\":\"event\"},{\"anonymous\":false,\"inputs\":[{\"indexed\":false,\"internalType\":\"address\",\"name\":\"id_\",\"type\":\"address\"},{\"indexed\":false,\"internalType\":\"string\",\"name\":\"name\",\"type\":\"string\"}],\"name\":\"BankDeactivated\",\"type\":\"event\"},{\"anonymous\":false,\"inputs\":[{\"indexed\":false,\"internalType\":\"address\",\"name\":\"id_\",\"type\":\"address\"},{\"indexed\":false,\"internalType\":\"string\",\"name\":\"name\",\"type\":\"string\"},{\"indexed\":false,\"internalType\":\"string\",\"name\":\"email\",\"type\":\"string\"}],\"name\":\"BankUpdated\",\"type\":\"event\"},{\"anonymous\":false,\"inputs\":[{\"indexed\":false,\"internalType\":\"address\",\"name\":\"id_\",\"type\":\"address\"},{\"indexed\":false,\"internalType\":\"string\",\"name\":\"name\",\"type\":\"string\"},{\"indexed\":false,\"internalType\":\"string\",\"name\":\"email\",\"type\":\"string\"}],\"name\":\"CustomerAdded\",\"type\":\"event\"},{\"anonymous\":false,\"inputs\":[{\"indexed\":false,\"internalType\":\"address\",\"name\":\"id_\",\"type\":\"address\"},{\"indexed\":false,\"internalType\":\"string\",\"name\":\"name\",\"type\":\"string\"},{\"indexed\":false,\"internalType\":\"string\",\"name\":\"email\",\"type\":\"string\"}],\"name\":\"CustomerDataUpdated\",\"type\":\"event\"},{\"anonymous\":false,\"inputs\":[{\"indexed\":false,\"internalType\":\"string\",\"name\":\"reqId\",\"type\":\"string\"},{\"indexed\":false,\"internalType\":\"address\",\"name\":\"customerId\",\"type\":\"address\"},{\"indexed\":false,\"internalType\":\"address\",\"name\":\"bankId\",\"type\":\"address\"},{\"indexed\":false,\"internalType\":\"enum Types.DataHashStatus\",\"name\":\"status\",\"type\":\"uint8\"}],\"name\":\"DataHashPermissionChanged\",\"type\":\"event\"},{\"anonymous\":false,\"inputs\":[{\"indexed\":false,\"internalType\":\"address\",\"name\":\"id_\",\"type\":\"address\"},{\"indexed\":false,\"internalType\":\"string\",\"name\":\"customerName\",\"type\":\"string\"},{\"indexed\":false,\"internalType\":\"string\",\"name\":\"dataHash\",\"type\":\"string\"}],\"name\":\"DataHashUpdated\",\"type\":\"event\"},{\"anonymous\":false,\"inputs\":[{\"indexed\":false,\"internalType\":\"string\",\"name\":\"reqId\",\"type\":\"string\"},{\"indexed\":false,\"internalType\":\"string\",\"name\":\"bankName\",\"type\":\"string\"},{\"indexed\":false,\"internalType\":\"string\",\"name\":\"customerName\",\"type\":\"string\"}],\"name\":\"KycReRequested\",\"type\":\"event\"},{\"anonymous\":false,\"inputs\":[{\"indexed\":false,\"internalType\":\"string\",\"name\":\"reqId\",\"type\":\"string\"},{\"indexed\":false,\"internalType\":\"string\",\"name\":\"bankName\",\"type\":\"string\"},{\"indexed\":false,\"internalType\":\"string\",\"name\":\"customerName\",\"type\":\"string\"}],\"name\":\"KycRequestAdded\",\"type\":\"event\"},{\"anonymous\":false,\"inputs\":[{\"indexed\":false,\"internalType\":\"string\",\"name\":\"reqId\",\"type\":\"string\"},{\"indexed\":false,\"internalType\":\"address\",\"name\":\"customerId\",\"type\":\"address\"},{\"indexed\":false,\"internalType\":\"address\",\"name\":\"bankId\",\"type\":\"address\"},{\"indexed\":false,\"internalType\":\"enum Types.KycStatus\",\"name\":\"status\",\"type\":\"uint8\"}],\"name\":\"KycStatusChanged\",\"type\":\"event\"},{\"inputs\":[{\"internalType\":\"address\",\"name\":\"bankId_\",\"type\":\"address\"},{\"internalType\":\"bool\",\"name\":\"approve_\",\"type\":\"bool\"},{\"internalType\":\"string\",\"name\":\"note_\",\"type\":\"string\"}],\"name\":\"actionOnKycRequest\",\"outputs\":[],\"stateMutability\":\"nonpayable\",\"type\":\"function\"},{\"inputs\":[{\"internalType\":\"address\",\"name\":\"id_\",\"type\":\"address\"},{\"internalType\":\"bool\",\"name\":\"makeActive_\",\"type\":\"bool\"}],\"name\":\"activateDeactivateBank\",\"outputs\":[],\"stateMutability\":\"nonpayable\",\"type\":\"function\"},{\"inputs\":[{\"components\":[{\"internalType\":\"string\",\"name\":\"name\",\"type\":\"string\"},{\"internalType\":\"string\",\"name\":\"email\",\"type\":\"string\"},{\"internalType\":\"address\",\"name\":\"id_\",\"type\":\"address\"},{\"internalType\":\"string\",\"name\":\"ifscCode\",\"type\":\"string\"},{\"internalType\":\"uint16\",\"name\":\"kycCount\",\"type\":\"uint16\"},{\"internalType\":\"enum Types.BankStatus\",\"name\":\"status\",\"type\":\"uint8\"}],\"internalType\":\"struct Types.Bank\",\"name\":\"bank_\",\"type\":\"tuple\"}],\"name\":\"addBank\",\"outputs\":[],\"stateMutability\":\"nonpayable\",\"type\":\"function\"},{\"inputs\":[{\"components\":[{\"internalType\":\"string\",\"name\":\"name\",\"type\":\"string\"},{\"internalType\":\"string\",\"name\":\"email\",\"type\":\"string\"},{\"internalType\":\"uint256\",\"name\":\"mobileNumber\",\"type\":\"uint256\"},{\"internalType\":\"address\",\"name\":\"id_\",\"type\":\"address\"},{\"internalType\":\"address\",\"name\":\"kycVerifiedBy\",\"type\":\"address\"},{\"internalType\":\"string\",\"name\":\"dataHash\",\"type\":\"string\"},{\"internalType\":\"uint256\",\"name\":\"dataUpdatedOn\",\"type\":\"uint256\"}],\"internalType\":\"struct Types.Customer\",\"name\":\"customer_\",\"type\":\"tuple\"},{\"internalType\":\"uint256\",\"name\":\"currentTime_\",\"type\":\"uint256\"},{\"internalType\":\"string\",\"name\":\"notes_\",\"type\":\"string\"}],\"name\":\"addKycRequest\",\"outputs\":[],\"stateMutability\":\"nonpayable\",\"type\":\"function\"},{\"inputs\":[{\"internalType\":\"uint256\",\"name\":\"pageNumber\",\"type\":\"uint256\"}],\"name\":\"getAllBanks\",\"outputs\":[{\"internalType\":\"uint256\",\"name\":\"totalPages\",\"type\":\"uint256\"},{\"components\":[{\"internalType\":\"string\",\"name\":\"name\",\"type\":\"string\"},{\"internalType\":\"string\",\"name\":\"email\",\"type\":\"string\"},{\"internalType\":\"address\",\"name\":\"id_\",\"type\":\"address\"},{\"internalType\":\"string\",\"name\":\"ifscCode\",\"type\":\"string\"},{\"internalType\":\"uint16\",\"name\":\"kycCount\",\"type\":\"uint16\"},{\"internalType\":\"enum Types.BankStatus\",\"name\":\"status\",\"type\":\"uint8\"}],\"internalType\":\"struct Types.Bank[]\",\"name\":\"\",\"type\":\"tuple[]\"}],\"stateMutability\":\"view\",\"type\":\"function\"},{\"inputs\":[{\"internalType\":\"address\",\"name\":\"id_\",\"type\":\"address\"}],\"name\":\"getBankDetails\",\"outputs\":[{\"components\":[{\"internalType\":\"string\",\"name\":\"name\",\"type\":\"string\"},{\"internalType\":\"string\",\"name\":\"email\",\"type\":\"string\"},{\"internalType\":\"address\",\"name\":\"id_\",\"type\":\"address\"},{\"internalType\":\"string\",\"name\":\"ifscCode\",\"type\":\"string\"},{\"internalType\":\"uint16\",\"name\":\"kycCount\",\"type\":\"uint16\"},{\"internalType\":\"enum Types.BankStatus\",\"name\":\"status\",\"type\":\"uint8\"}],\"internalType\":\"struct Types.Bank\",\"name\":\"\",\"type\":\"tuple\"}],\"stateMutability\":\"view\",\"type\":\"function\"},{\"inputs\":[{\"internalType\":\"uint256\",\"name\":\"pageNumber\",\"type\":\"uint256\"}],\"name\":\"getBankRequests\",\"outputs\":[{\"internalType\":\"uint256\",\"name\":\"totalPages\",\"type\":\"uint256\"},{\"components\":[{\"internalType\":\"string\",\"name\":\"id_\",\"type\":\"string\"},{\"internalType\":\"address\",\"name\":\"userId_\",\"type\":\"address\"},{\"internalType\":\"string\",\"name\":\"customerName\",\"type\":\"string\"},{\"internalType\":\"address\",\"name\":\"bankId_\",\"type\":\"address\"},{\"internalType\":\"string\",\"name\":\"bankName\",\"type\":\"string\"},{\"internalType\":\"string\",\"name\":\"dataHash\",\"type\":\"string\"},{\"internalType\":\"uint256\",\"name\":\"updatedOn\",\"type\":\"uint256\"},{\"internalType\":\"enum Types.KycStatus\",\"name\":\"status\",\"type\":\"uint8\"},{\"internalType\":\"enum Types.DataHashStatus\",\"name\":\"dataRequest\",\"type\":\"uint8\"},{\"internalType\":\"string\",\"name\":\"additionalNotes\",\"type\":\"string\"}],\"internalType\":\"struct Types.KycRequest[]\",\"name\":\"\",\"type\":\"tuple[]\"}],\"stateMutability\":\"view\",\"type\":\"function\"},{\"inputs\":[{\"internalType\":\"address\",\"name\":\"id_\",\"type\":\"address\"}],\"name\":\"getCustomerDetails\",\"outputs\":[{\"components\":[{\"internalType\":\"string\",\"name\":\"name\",\"type\":\"string\"},{\"internalType\":\"string\",\"name\":\"email\",\"type\":\"string\"},{\"internalType\":\"uint256\",\"name\":\"mobileNumber\",\"type\":\"uint256\"},{\"internalType\":\"address\",\"name\":\"id_\",\"type\":\"address\"},{\"internalType\":\"address\",\"name\":\"kycVerifiedBy\",\"type\":\"address\"},{\"internalType\":\"string\",\"name\":\"dataHash\",\"type\":\"string\"},{\"internalType\":\"uint256\",\"name\":\"dataUpdatedOn\",\"type\":\"uint256\"}],\"internalType\":\"struct Types.Customer\",\"name\":\"\",\"type\":\"tuple\"}],\"stateMutability\":\"view\",\"type\":\"function\"},{\"inputs\":[{\"internalType\":\"uint256\",\"name\":\"pageNumber\",\"type\":\"uint256\"}],\"name\":\"getCustomersOfBank\",\"outputs\":[{\"internalType\":\"uint256\",\"name\":\"totalPages\",\"type\":\"uint256\"},{\"components\":[{\"internalType\":\"string\",\"name\":\"id_\",\"type\":\"string\"},{\"internalType\":\"address\",\"name\":\"userId_\",\"type\":\"address\"},{\"internalType\":\"string\",\"name\":\"customerName\",\"type\":\"string\"},{\"internalType\":\"address\",\"name\":\"bankId_\",\"type\":\"address\"},{\"internalType\":\"string\",\"name\":\"bankName\",\"type\":\"string\"},{\"internalType\":\"string\",\"name\":\"dataHash\",\"type\":\"string\"},{\"internalType\":\"uint256\",\"name\":\"updatedOn\",\"type\":\"uint256\"},{\"internalType\":\"enum Types.KycStatus\",\"name\":\"status\",\"type\":\"uint8\"},{\"internalType\":\"enum Types.DataHashStatus\",\"name\":\"dataRequest\",\"type\":\"uint8\"},{\"internalType\":\"string\",\"name\":\"additionalNotes\",\"type\":\"string\"}],\"internalType\":\"struct Types.KycRequest[]\",\"name\":\"\",\"type\":\"tuple[]\"}],\"stateMutability\":\"view\",\"type\":\"function\"},{\"inputs\":[{\"internalType\":\"address\",\"name\":\"id_\",\"type\":\"address\"},{\"internalType\":\"string\",\"name\":\"notes_\",\"type\":\"string\"}],\"name\":\"reRequestForKycRequest\",\"outputs\":[],\"stateMutability\":\"nonpayable\",\"type\":\"function\"},{\"inputs\":[{\"internalType\":\"address\",\"name\":\"bankId_\",\"type\":\"address\"},{\"internalType\":\"string\",\"name\":\"notes_\",\"type\":\"string\"}],\"name\":\"removerDatahashPermission\",\"outputs\":[],\"stateMutability\":\"nonpayable\",\"type\":\"function\"},{\"inputs\":[{\"internalType\":\"address\",\"name\":\"bankId_\",\"type\":\"address\"}],\"name\":\"searchBanks\",\"outputs\":[{\"internalType\":\"bool\",\"name\":\"\",\"type\":\"bool\"},{\"components\":[{\"internalType\":\"string\",\"name\":\"name\",\"type\":\"string\"},{\"internalType\":\"string\",\"name\":\"email\",\"type\":\"string\"},{\"internalType\":\"address\",\"name\":\"id_\",\"type\":\"address\"},{\"internalType\":\"string\",\"name\":\"ifscCode\",\"type\":\"string\"},{\"internalType\":\"uint16\",\"name\":\"kycCount\",\"type\":\"uint16\"},{\"internalType\":\"enum Types.BankStatus\",\"name\":\"status\",\"type\":\"uint8\"}],\"internalType\":\"struct Types.Bank\",\"name\":\"\",\"type\":\"tuple\"},{\"components\":[{\"internalType\":\"string\",\"name\":\"id_\",\"type\":\"string\"},{\"internalType\":\"address\",\"name\":\"userId_\",\"type\":\"address\"},{\"internalType\":\"string\",\"name\":\"customerName\",\"type\":\"string\"},{\"internalType\":\"address\",\"name\":\"bankId_\",\"type\":\"address\"},{\"internalType\":\"string\",\"name\":\"bankName\",\"type\":\"string\"},{\"internalType\":\"string\",\"name\":\"dataHash\",\"type\":\"string\"},{\"internalType\":\"uint256\",\"name\":\"updatedOn\",\"type\":\"uint256\"},{\"internalType\":\"enum Types.KycStatus\",\"name\":\"status\",\"type\":\"uint8\"},{\"internalType\":\"enum Types.DataHashStatus\",\"name\":\"dataRequest\",\"type\":\"uint8\"},{\"internalType\":\"string\",\"name\":\"additionalNotes\",\"type\":\"string\"}],\"internalType\":\"struct Types.KycRequest\",\"name\":\"\",\"type\":\"tuple\"}],\"stateMutability\":\"view\",\"type\":\"function\"},{\"inputs\":[{\"internalType\":\"address\",\"name\":\"id_\",\"type\":\"address\"}],\"name\":\"searchCustomers\",\"outputs\":[{\"internalType\":\"bool\",\"name\":\"\",\"type\":\"bool\"},{\"components\":[{\"internalType\":\"string\",\"name\":\"name\",\"type\":\"string\"},{\"internalType\":\"string\",\"name\":\"email\",\"type\":\"string\"},{\"internalType\":\"uint256\",\"name\":\"mobileNumber\",\"type\":\"uint256\"},{\"internalType\":\"address\",\"name\":\"id_\",\"type\":\"address\"},{\"internalType\":\"address\",\"name\":\"kycVerifiedBy\",\"type\":\"address\"},{\"internalType\":\"string\",\"name\":\"dataHash\",\"type\":\"string\"},{\"internalType\":\"uint256\",\"name\":\"dataUpdatedOn\",\"type\":\"uint256\"}],\"internalType\":\"struct Types.Customer\",\"name\":\"\",\"type\":\"tuple\"},{\"components\":[{\"internalType\":\"string\",\"name\":\"id_\",\"type\":\"string\"},{\"internalType\":\"address\",\"name\":\"userId_\",\"type\":\"address\"},{\"internalType\":\"string\",\"name\":\"customerName\",\"type\":\"string\"},{\"internalType\":\"address\",\"name\":\"bankId_\",\"type\":\"address\"},{\"internalType\":\"string\",\"name\":\"bankName\",\"type\":\"string\"},{\"internalType\":\"string\",\"name\":\"dataHash\",\"type\":\"string\"},{\"internalType\":\"uint256\",\"name\":\"updatedOn\",\"type\":\"uint256\"},{\"internalType\":\"enum Types.KycStatus\",\"name\":\"status\",\"type\":\"uint8\"},{\"internalType\":\"enum Types.DataHashStatus\",\"name\":\"dataRequest\",\"type\":\"uint8\"},{\"internalType\":\"string\",\"name\":\"additionalNotes\",\"type\":\"string\"}],\"internalType\":\"struct Types.KycRequest\",\"name\":\"\",\"type\":\"tuple\"}],\"stateMutability\":\"view\",\"type\":\"function\"},{\"inputs\":[{\"internalType\":\"address\",\"name\":\"id_\",\"type\":\"address\"},{\"internalType\":\"string\",\"name\":\"email_\",\"type\":\"string\"},{\"internalType\":\"string\",\"name\":\"name_\",\"type\":\"string\"}],\"name\":\"updateBankDetails\",\"outputs\":[],\"stateMutability\":\"nonpayable\",\"type\":\"function\"},{\"inputs\":[{\"internalType\":\"string\",\"name\":\"hash_\",\"type\":\"string\"},{\"internalType\":\"uint256\",\"name\":\"currentTime_\",\"type\":\"uint256\"}],\"name\":\"updateDatahash\",\"outputs\":[],\"stateMutability\":\"nonpayable\",\"type\":\"function\"},{\"inputs\":[{\"internalType\":\"address\",\"name\":\"userId_\",\"type\":\"address\"},{\"internalType\":\"bool\",\"name\":\"verified_\",\"type\":\"bool\"},{\"internalType\":\"string\",\"name\":\"note_\",\"type\":\"string\"}],\"name\":\"updateKycVerification\",\"outputs\":[],\"stateMutability\":\"nonpayable\",\"type\":\"function\"},{\"inputs\":[{\"internalType\":\"string\",\"name\":\"name_\",\"type\":\"string\"},{\"internalType\":\"string\",\"name\":\"email_\",\"type\":\"string\"},{\"internalType\":\"uint256\",\"name\":\"mobile_\",\"type\":\"uint256\"}],\"name\":\"updateProfile\",\"outputs\":[],\"stateMutability\":\"nonpayable\",\"type\":\"function\"},{\"inputs\":[],\"name\":\"whoAmI\",\"outputs\":[{\"components\":[{\"internalType\":\"string\",\"name\":\"name\",\"type\":\"string\"},{\"internalType\":\"string\",\"name\":\"email\",\"type\":\"string\"},{\"internalType\":\"address\",\"name\":\"id_\",\"type\":\"address\"},{\"internalType\":\"enum Types.Role\",\"name\":\"role\",\"type\":\"uint8\"},{\"internalType\":\"enum Types.BankStatus\",\"name\":\"status\",\"type\":\"uint8\"}],\"internalType\":\"struct Types.User\",\"name\":\"\",\"type\":\"tuple\"}],\"stateMutability\":\"view\",\"type\":\"function\"}]);\nvar kyc = kycContract.deploy({\n     data: '0x60806040523480156200001157600080fd5b506040516200a0c13803806200a0c183398181016040528101906200003791906200046a565b33600460006101000a81548173ffffffffffffffffffffffffffffffffffffffff021916908373ffffffffffffffffffffffffffffffffffffffff16021790555060006040518060a00160405280848152602001838152602001600460009054906101000a900473ffffffffffffffffffffffffffffffffffffffff1673ffffffffffffffffffffffffffffffffffffffff16815260200160006002811115620000e657620000e5620004ef565b5b815260200160006001811115620001025762000101620004ef565b5b81525090508060066000600460009054906101000a900473ffffffffffffffffffffffffffffffffffffffff1673ffffffffffffffffffffffffffffffffffffffff1673ffffffffffffffffffffffffffffffffffffffff168152602001908152602001600020600082015181600001908162000180919062000769565b50602082015181600101908162000198919062000769565b5060408201518160020160006101000a81548173ffffffffffffffffffffffffffffffffffffffff021916908373ffffffffffffffffffffffffffffffffffffffff16021790555060608201518160020160146101000a81548160ff021916908360028111156200020e576200020d620004ef565b5b021790555060808201518160020160156101000a81548160ff02191690836001811115620002415762000240620004ef565b5b02179055509050506005600460009054906101000a900473ffffffffffffffffffffffffffffffffffffffff169080600181540180825580915050600190039060005260206000200160009091909190916101000a81548173ffffffffffffffffffffffffffffffffffffffff021916908373ffffffffffffffffffffffffffffffffffffffff16021790555050505062000850565b6000604051905090565b600080fd5b600080fd5b600080fd5b600080fd5b6000601f19601f8301169050919050565b7f4e487b7100000000000000000000000000000000000000000000000000000000600052604160045260246000fd5b6200034082620002f5565b810181811067ffffffffffffffff8211171562000362576200036162000306565b5b80604052505050565b600062000377620002d7565b905062000385828262000335565b919050565b600067ffffffffffffffff821115620003a857620003a762000306565b5b620003b382620002f5565b9050602081019050919050565b60005b83811015620003e0578082015181840152602081019050620003c3565b60008484015250505050565b600062000403620003fd846200038a565b6200036b565b905082815260208101848484011115620004225762000421620002f0565b5b6200042f848285620003c0565b509392505050565b600082601f8301126200044f576200044e620002eb565b5b815162000461848260208601620003ec565b91505092915050565b60008060408385031215620004845762000483620002e1565b5b600083015167ffffffffffffffff811115620004a557620004a4620002e6565b5b620004b38582860162000437565b925050602083015167ffffffffffffffff811115620004d757620004d6620002e6565b5b620004e58582860162000437565b9150509250929050565b7f4e487b7100000000000000000000000000000000000000000000000000000000600052602160045260246000fd5b600081519050919050565b7f4e487b7100000000000000000000000000000000000000000000000000000000600052602260045260246000fd5b600060028204905060018216806200057157607f821691505b60208210810362000587576200058662000529565b5b50919050565b60008190508160005260206000209050919050565b60006020601f8301049050919050565b600082821b905092915050565b600060088302620005f17fffffffffffffffffffffffffffffffffffffffffffffffffffffffffffffffff82620005b2565b620005fd8683620005b2565b95508019841693508086168417925050509392505050565b6000819050919050565b6000819050919050565b60006200064a620006446200063e8462000615565b6200061f565b62000615565b9050919050565b6000819050919050565b620006668362000629565b6200067e620006758262000651565b848454620005bf565b825550505050565b600090565b6200069562000686565b620006a28184846200065b565b505050565b5b81811015620006ca57620006be6000826200068b565b600181019050620006a8565b5050565b601f8211156200071957620006e3816200058d565b620006ee84620005a2565b81016020851015620006fe578190505b620007166200070d85620005a2565b830182620006a7565b50505b505050565b600082821c905092915050565b60006200073e600019846008026200071e565b1980831691505092915050565b60006200075983836200072b565b9150826002028217905092915050565b62000774826200051e565b67ffffffffffffffff81111562000790576200078f62000306565b5b6200079c825462000558565b620007a9828285620006ce565b600060209050601f831160018114620007e15760008415620007cc578287015190505b620007d885826200074b565b86555062000848565b601f198416620007f1866200058d565b60005b828110156200081b57848901518255600182019150602085019450602081019050620007f4565b868310156200083b578489015162000837601f8916826200072b565b8355505b6001600288020188555050505b505050505050565b61986180620008606000396000f3fe608060405234801561001057600080fd5b50600436106101165760003560e01c80635f4d6ddf116100a2578063b374a7dd11610071578063b374a7dd146102f0578063baa2b9fd1461030c578063da91254c1461033d578063dbc671d01461035b578063dc57d07e1461038c57610116565b80635f4d6ddf1461026a57806377fa069c1461029c5780637c1d6197146102b85780638915fb0c146102d457610116565b80632ce23acb116100e95780632ce23acb146101b357806334b52411146101e5578063369ba32b146102015780633f2c0e961461021d5780634d82d8e81461023957610116565b80630c60f83d1461011b57806315101e021461014b5780631bdd5a0f1461017b5780632283db9c14610197575b600080fd5b6101356004803603810190610130919061767a565b6103a8565b6040516101429190617809565b60405180910390f35b6101656004803603810190610160919061767a565b610625565b6040516101729190617956565b60405180910390f35b61019560048036038101906101909190617aad565b610896565b005b6101b160048036038101906101ac9190617c58565b610c86565b005b6101cd60048036038101906101c8919061767a565b610f11565b6040516101dc93929190617e42565b60405180910390f35b6101ff60048036038101906101fa9190617eb3565b61198b565b005b61021b60048036038101906102169190617f22565b611f71565b005b61023760048036038101906102329190617aad565b6120b1565b005b610253600480360381019061024e9190617fd9565b612428565b60405161026192919061816e565b60405180910390f35b610284600480360381019061027f919061767a565b6124ce565b6040516102939392919061819e565b60405180910390f35b6102b660048036038101906102b191906182eb565b612eda565b005b6102d260048036038101906102cd9190618376565b61377d565b005b6102ee60048036038101906102e99190618401565b613a92565b005b61030a6004803603810190610305919061845d565b613f29565b005b61032660048036038101906103219190617fd9565b614030565b604051610334929190618655565b60405180910390f35b6103456142a1565b604051610352919061874a565b60405180910390f35b61037560048036038101906103709190617fd9565b614628565b604051610383929190618655565b60405180910390f35b6103a660048036038101906103a19190617eb3565b6148a5565b005b6103b0617431565b81600073ffffffffffffffffffffffffffffffffffffffff168173ffffffffffffffffffffffffffffffffffffffff1603610420576040517f08c379a0000000000000000000000000000000000000000000000000000000008152600401610417906187c9565b60405180910390fd5b600073ffffffffffffffffffffffffffffffffffffffff16600160008373ffffffffffffffffffffffffffffffffffffffff1673ffffffffffffffffffffffffffffffffffffffff16815260200190815260200160002060030160009054906101000a900473ffffffffffffffffffffffffffffffffffffffff1673ffffffffffffffffffffffffffffffffffffffff16036104f1576040517f08c379a00000000000000000000000000000000000000000000000000000000081526004016104e890618835565b60405180910390fd5b6105d4600160008373ffffffffffffffffffffffffffffffffffffffff1673ffffffffffffffffffffffffffffffffffffffff168152602001908152602001600020600101805461054190618884565b80601f016020809104026020016040519081016040528092919081815260200182805461056d90618884565b80156105ba5780601f1061058f576101008083540402835291602001916105ba565b820191906000526020600020905b81548152906001019060200180831161059d57829003601f168201915b505050505060405180602001604052806000815250614c38565b15610614576040517f08c379a000000000000000000000000000000000000000000000000000000000815260040161060b90618901565b60405180910390fd5b61061d83614c91565b915050919050565b61062d61749a565b81600073ffffffffffffffffffffffffffffffffffffffff16600360008373ffffffffffffffffffffffffffffffffffffffff1673ffffffffffffffffffffffffffffffffffffffff16815260200190815260200160002060020160009054906101000a900473ffffffffffffffffffffffffffffffffffffffff1673ffffffffffffffffffffffffffffffffffffffff16036106ff576040517f08c379a00000000000000000000000000000000000000000000000000000000081526004016106f69061896d565b60405180910390fd5b8073ffffffffffffffffffffffffffffffffffffffff16600360008373ffffffffffffffffffffffffffffffffffffffff1673ffffffffffffffffffffffffffffffffffffffff16815260200190815260200160002060020160009054906101000a900473ffffffffffffffffffffffffffffffffffffffff1673ffffffffffffffffffffffffffffffffffffffff16146107cf576040517f08c379a00000000000000000000000000000000000000000000000000000000081526004016107c69061896d565b60405180910390fd5b600060018111156107e3576107e2617848565b5b600360008373ffffffffffffffffffffffffffffffffffffffff1673ffffffffffffffffffffffffffffffffffffffff16815260200190815260200160002060040160029054906101000a900460ff16600181111561084557610844617848565b5b14610885576040517f08c379a000000000000000000000000000000000000000000000000000000000815260040161087c906189d9565b60405180910390fd5b61088e83614f60565b915050919050565b33600073ffffffffffffffffffffffffffffffffffffffff16600360008373ffffffffffffffffffffffffffffffffffffffff1673ffffffffffffffffffffffffffffffffffffffff16815260200190815260200160002060020160009054906101000a900473ffffffffffffffffffffffffffffffffffffffff1673ffffffffffffffffffffffffffffffffffffffff1603610968576040517f08c379a000000000000000000000000000000000000000000000000000000000815260040161095f9061896d565b60405180910390fd5b8073ffffffffffffffffffffffffffffffffffffffff16600360008373ffffffffffffffffffffffffffffffffffffffff1673ffffffffffffffffffffffffffffffffffffffff16815260200190815260200160002060020160009054906101000a900473ffffffffffffffffffffffffffffffffffffffff1673ffffffffffffffffffffffffffffffffffffffff1614610a38576040517f08c379a0000000000000000000000000000000000000000000000000000000008152600401610a2f9061896d565b60405180910390fd5b60006001811115610a4c57610a4b617848565b5b600360008373ffffffffffffffffffffffffffffffffffffffff1673ffffffffffffffffffffffffffffffffffffffff16815260200190815260200160002060040160029054906101000a900460ff166001811115610aae57610aad617848565b5b14610aee576040517f08c379a0000000000000000000000000000000000000000000000000000000008152600401610ae5906189d9565b60405180910390fd5b6000610afa338561528f565b9050610b05816152bb565b610b44576040517f08c379a0000000000000000000000000000000000000000000000000000000008152600401610b3b90618a45565b60405180910390fd5b610b4d846153d0565b610b8c576040517f08c379a0000000000000000000000000000000000000000000000000000000008152600401610b8390618ab1565b60405180910390fd5b6000600782604051610b9e9190618b0d565b908152602001604051809103902060070160016101000a81548160ff02191690836002811115610bd157610bd0617848565b5b021790555082600782604051610be79190618b0d565b90815260200160405180910390206008019081610c049190618cd0565b507f524a348eaa0159a5bd9d05667fe8d01e3fef50369ae5f27c2ade107c84bfeaf781600783604051610c379190618b0d565b9081526020016040518091039020600401600784604051610c589190618b0d565b9081526020016040518091039020600201604051610c7893929190618e5f565b60405180910390a150505050565b600460009054906101000a900473ffffffffffffffffffffffffffffffffffffffff1673ffffffffffffffffffffffffffffffffffffffff163373ffffffffffffffffffffffffffffffffffffffff1614610d16576040517f08c379a0000000000000000000000000000000000000000000000000000000008152600401610d0d90618ef7565b60405180910390fd5b610d1f816155ce565b6040518060a001604052808260000151815260200182602001518152602001826040015173ffffffffffffffffffffffffffffffffffffffff16815260200160016002811115610d7257610d71617848565b5b815260200160006001811115610d8b57610d8a617848565b5b81525060066000836040015173ffffffffffffffffffffffffffffffffffffffff1673ffffffffffffffffffffffffffffffffffffffff1681526020019081526020016000206000820151816000019081610de69190618cd0565b506020820151816001019081610dfc9190618cd0565b5060408201518160020160006101000a81548173ffffffffffffffffffffffffffffffffffffffff021916908373ffffffffffffffffffffffffffffffffffffffff16021790555060608201518160020160146101000a81548160ff02191690836002811115610e6f57610e6e617848565b5b021790555060808201518160020160156101000a81548160ff02191690836001811115610e9f57610e9e617848565b5b0217905550905050600581604001519080600181540180825580915050600190039060005260206000200160009091909190916101000a81548173ffffffffffffffffffffffffffffffffffffffff021916908373ffffffffffffffffffffffffffffffffffffffff16021790555050565b6000610f1b61749a565b610f236174fc565b33600073ffffffffffffffffffffffffffffffffffffffff168173ffffffffffffffffffffffffffffffffffffffff1603610f93576040517f08c379a0000000000000000000000000000000000000000000000000000000008152600401610f8a906187c9565b60405180910390fd5b600073ffffffffffffffffffffffffffffffffffffffff16600160008373ffffffffffffffffffffffffffffffffffffffff1673ffffffffffffffffffffffffffffffffffffffff16815260200190815260200160002060030160009054906101000a900473ffffffffffffffffffffffffffffffffffffffff1673ffffffffffffffffffffffffffffffffffffffff1603611064576040517f08c379a000000000000000000000000000000000000000000000000000000000815260040161105b90618835565b60405180910390fd5b611147600160008373ffffffffffffffffffffffffffffffffffffffff1673ffffffffffffffffffffffffffffffffffffffff16815260200190815260200160002060010180546110b490618884565b80601f01602080910402602001604051908101604052809291908181526020018280546110e090618884565b801561112d5780601f106111025761010080835404028352916020019161112d565b820191906000526020600020905b81548152906001019060200180831161111057829003601f168201915b505050505060405180602001604052806000815250614c38565b15611187576040517f08c379a000000000000000000000000000000000000000000000000000000000815260040161117e90618901565b60405180910390fd5b84600073ffffffffffffffffffffffffffffffffffffffff16600360008373ffffffffffffffffffffffffffffffffffffffff1673ffffffffffffffffffffffffffffffffffffffff16815260200190815260200160002060020160009054906101000a900473ffffffffffffffffffffffffffffffffffffffff1673ffffffffffffffffffffffffffffffffffffffff1603611259576040517f08c379a00000000000000000000000000000000000000000000000000000000081526004016112509061896d565b60405180910390fd5b8073ffffffffffffffffffffffffffffffffffffffff16600360008373ffffffffffffffffffffffffffffffffffffffff1673ffffffffffffffffffffffffffffffffffffffff16815260200190815260200160002060020160009054906101000a900473ffffffffffffffffffffffffffffffffffffffff1673ffffffffffffffffffffffffffffffffffffffff1614611329576040517f08c379a00000000000000000000000000000000000000000000000000000000081526004016113209061896d565b60405180910390fd5b6000600181111561133d5761133c617848565b5b600360008373ffffffffffffffffffffffffffffffffffffffff1673ffffffffffffffffffffffffffffffffffffffff16815260200190815260200160002060040160029054906101000a900460ff16600181111561139f5761139e617848565b5b146113df576040517f08c379a00000000000000000000000000000000000000000000000000000000081526004016113d6906189d9565b60405180910390fd5b60006113e961749a565b6113f16174fc565b6000600960003373ffffffffffffffffffffffffffffffffffffffff1673ffffffffffffffffffffffffffffffffffffffff1681526020019081526020016000208054806020026020016040519081016040528092919081815260200182805480156114b257602002820191906000526020600020905b8160009054906101000a900473ffffffffffffffffffffffffffffffffffffffff1673ffffffffffffffffffffffffffffffffffffffff1681526020019060010190808311611468575b5050505050905060005b8151811015611974578a73ffffffffffffffffffffffffffffffffffffffff168282815181106114ef576114ee618f17565b5b602002602001015173ffffffffffffffffffffffffffffffffffffffff1603611961576001945061151f8b614f60565b9350600761152d8c3361528f565b60405161153a9190618b0d565b90815260200160405180910390206040518061014001604052908160008201805461156490618884565b80601f016020809104026020016040519081016040528092919081815260200182805461159090618884565b80156115dd5780601f106115b2576101008083540402835291602001916115dd565b820191906000526020600020905b8154815290600101906020018083116115c057829003601f168201915b505050505081526020016001820160009054906101000a900473ffffffffffffffffffffffffffffffffffffffff1673ffffffffffffffffffffffffffffffffffffffff1673ffffffffffffffffffffffffffffffffffffffff16815260200160028201805461164c90618884565b80601f016020809104026020016040519081016040528092919081815260200182805461167890618884565b80156116c55780601f1061169a576101008083540402835291602001916116c5565b820191906000526020600020905b8154815290600101906020018083116116a857829003601f168201915b505050505081526020016003820160009054906101000a900473ffffffffffffffffffffffffffffffffffffffff1673ffffffffffffffffffffffffffffffffffffffff1673ffffffffffffffffffffffffffffffffffffffff16815260200160048201805461173490618884565b80601f016020809104026020016040519081016040528092919081815260200182805461176090618884565b80156117ad5780601f10611782576101008083540402835291602001916117ad565b820191906000526020600020905b81548152906001019060200180831161179057829003601f168201915b505050505081526020016005820180546117c690618884565b80601f01602080910402602001604051908101604052809291908181526020018280546117f290618884565b801561183f5780601f106118145761010080835404028352916020019161183f565b820191906000526020600020905b81548152906001019060200180831161182257829003601f168201915b50505050508152602001600682015481526020016007820160009054906101000a900460ff16600281111561187757611876617848565b5b600281111561188957611888617848565b5b81526020016007820160019054906101000a900460ff1660028111156118b2576118b1617848565b5b60028111156118c4576118c3617848565b5b81526020016008820180546118d890618884565b80601f016020809104026020016040519081016040528092919081815260200182805461190490618884565b80156119515780601f1061192657610100808354040283529160200191611951565b820191906000526020600020905b81548152906001019060200180831161193457829003601f168201915b5050505050815250509250611974565b808061196c90618f75565b9150506114bc565b508383839850985098505050505050509193909250565b33600073ffffffffffffffffffffffffffffffffffffffff168173ffffffffffffffffffffffffffffffffffffffff16036119fb576040517f08c379a00000000000000000000000000000000000000000000000000000000081526004016119f2906187c9565b60405180910390fd5b600073ffffffffffffffffffffffffffffffffffffffff16600160008373ffffffffffffffffffffffffffffffffffffffff1673ffffffffffffffffffffffffffffffffffffffff16815260200190815260200160002060030160009054906101000a900473ffffffffffffffffffffffffffffffffffffffff1673ffffffffffffffffffffffffffffffffffffffff1603611acc576040517f08c379a0000000000000000000000000000000000000000000000000000000008152600401611ac390618835565b60405180910390fd5b611baf600160008373ffffffffffffffffffffffffffffffffffffffff1673ffffffffffffffffffffffffffffffffffffffff1681526020019081526020016000206001018054611b1c90618884565b80601f0160208091040260200160405190810160405280929190818152602001828054611b4890618884565b8015611b955780601f10611b6a57610100808354040283529160200191611b95565b820191906000526020600020905b815481529060010190602001808311611b7857829003601f168201915b505050505060405180602001604052806000815250614c38565b15611bef576040517f08c379a0000000000000000000000000000000000000000000000000000000008152600401611be690618901565b60405180910390fd5b83600073ffffffffffffffffffffffffffffffffffffffff16600360008373ffffffffffffffffffffffffffffffffffffffff1673ffffffffffffffffffffffffffffffffffffffff16815260200190815260200160002060020160009054906101000a900473ffffffffffffffffffffffffffffffffffffffff1673ffffffffffffffffffffffffffffffffffffffff1603611cc1576040517f08c379a0000000000000000000000000000000000000000000000000000000008152600401611cb89061896d565b60405180910390fd5b8073ffffffffffffffffffffffffffffffffffffffff16600360008373ffffffffffffffffffffffffffffffffffffffff1673ffffffffffffffffffffffffffffffffffffffff16815260200190815260200160002060020160009054906101000a900473ffffffffffffffffffffffffffffffffffffffff1673ffffffffffffffffffffffffffffffffffffffff1614611d91576040517f08c379a0000000000000000000000000000000000000000000000000000000008152600401611d889061896d565b60405180910390fd5b60006001811115611da557611da4617848565b5b600360008373ffffffffffffffffffffffffffffffffffffffff1673ffffffffffffffffffffffffffffffffffffffff16815260200190815260200160002060040160029054906101000a900460ff166001811115611e0757611e06617848565b5b14611e47576040517f08c379a0000000000000000000000000000000000000000000000000000000008152600401611e3e906189d9565b60405180910390fd5b6000611e53863361528f565b9050611e5e816152bb565b611e9d576040517f08c379a0000000000000000000000000000000000000000000000000000000008152600401611e9490619009565b60405180910390fd5b60008515611eae5760019050611eb3565b600290505b80600783604051611ec49190618b0d565b908152602001604051809103902060070160016101000a81548160ff02191690836002811115611ef757611ef6617848565b5b021790555084600783604051611f0d9190618b0d565b90815260200160405180910390206008019081611f2a9190618cd0565b507f9a3f3f9de5ac964f84f08c6124f7b844ffd73de3fd4b472eb59f6b68e5729a8182338984604051611f609493929190619047565b60405180910390a150505050505050565b600460009054906101000a900473ffffffffffffffffffffffffffffffffffffffff1673ffffffffffffffffffffffffffffffffffffffff163373ffffffffffffffffffffffffffffffffffffffff1614612001576040517f08c379a0000000000000000000000000000000000000000000000000000000008152600401611ff890618ef7565b60405180910390fd5b61200c83838361587d565b80600660008573ffffffffffffffffffffffffffffffffffffffff1673ffffffffffffffffffffffffffffffffffffffff168152602001908152602001600020600001908161205b9190618cd0565b5081600660008573ffffffffffffffffffffffffffffffffffffffff1673ffffffffffffffffffffffffffffffffffffffff16815260200190815260200160002060010190816120ab9190618cd0565b50505050565b33600073ffffffffffffffffffffffffffffffffffffffff168173ffffffffffffffffffffffffffffffffffffffff1603612121576040517f08c379a0000000000000000000000000000000000000000000000000000000008152600401612118906187c9565b60405180910390fd5b600073ffffffffffffffffffffffffffffffffffffffff16600160008373ffffffffffffffffffffffffffffffffffffffff1673ffffffffffffffffffffffffffffffffffffffff16815260200190815260200160002060030160009054906101000a900473ffffffffffffffffffffffffffffffffffffffff1673ffffffffffffffffffffffffffffffffffffffff16036121f2576040517f08c379a00000000000000000000000000000000000000000000000000000000081526004016121e990618835565b60405180910390fd5b6122d5600160008373ffffffffffffffffffffffffffffffffffffffff1673ffffffffffffffffffffffffffffffffffffffff168152602001908152602001600020600101805461224290618884565b80601f016020809104026020016040519081016040528092919081815260200182805461226e90618884565b80156122bb5780601f10612290576101008083540402835291602001916122bb565b820191906000526020600020905b81548152906001019060200180831161229e57829003601f168201915b505050505060405180602001604052806000815250614c38565b15612315576040517f08c379a000000000000000000000000000000000000000000000000000000000815260040161230c90618901565b60405180910390fd5b6000612321843361528f565b905061232c816152bb565b61236b576040517f08c379a0000000000000000000000000000000000000000000000000000000008152600401612362906190df565b60405180910390fd5b600260078260405161237d9190618b0d565b908152602001604051809103902060070160016101000a81548160ff021916908360028111156123b0576123af617848565b5b0217905550826007826040516123c69190618b0d565b908152602001604051809103902060080190816123e39190618cd0565b507f9a3f3f9de5ac964f84f08c6124f7b844ffd73de3fd4b472eb59f6b68e5729a81813386600260405161241a9493929190619047565b60405180910390a150505050565b60006060600460009054906101000a900473ffffffffffffffffffffffffffffffffffffffff1673ffffffffffffffffffffffffffffffffffffffff163373ffffffffffffffffffffffffffffffffffffffff16146124bc576040517f08c379a00000000000000000000000000000000000000000000000000000000081526004016124b390618ef7565b60405180910390fd5b6124c583615a2e565b91509150915091565b60006124d8617431565b6124e06174fc565b83600073ffffffffffffffffffffffffffffffffffffffff168173ffffffffffffffffffffffffffffffffffffffff1603612550576040517f08c379a0000000000000000000000000000000000000000000000000000000008152600401612547906187c9565b60405180910390fd5b600073ffffffffffffffffffffffffffffffffffffffff16600160008373ffffffffffffffffffffffffffffffffffffffff1673ffffffffffffffffffffffffffffffffffffffff16815260200190815260200160002060030160009054906101000a900473ffffffffffffffffffffffffffffffffffffffff1673ffffffffffffffffffffffffffffffffffffffff1603612621576040517f08c379a000000000000000000000000000000000000000000000000000000000815260040161261890618835565b60405180910390fd5b612704600160008373ffffffffffffffffffffffffffffffffffffffff1673ffffffffffffffffffffffffffffffffffffffff168152602001908152602001600020600101805461267190618884565b80601f016020809104026020016040519081016040528092919081815260200182805461269d90618884565b80156126ea5780601f106126bf576101008083540402835291602001916126ea565b820191906000526020600020905b8154815290600101906020018083116126cd57829003601f168201915b505050505060405180602001604052806000815250614c38565b15612744576040517f08c379a000000000000000000000000000000000000000000000000000000000815260040161273b90618901565b60405180910390fd5b33600073ffffffffffffffffffffffffffffffffffffffff16600360008373ffffffffffffffffffffffffffffffffffffffff1673ffffffffffffffffffffffffffffffffffffffff16815260200190815260200160002060020160009054906101000a900473ffffffffffffffffffffffffffffffffffffffff1673ffffffffffffffffffffffffffffffffffffffff1603612816576040517f08c379a000000000000000000000000000000000000000000000000000000000815260040161280d9061896d565b60405180910390fd5b8073ffffffffffffffffffffffffffffffffffffffff16600360008373ffffffffffffffffffffffffffffffffffffffff1673ffffffffffffffffffffffffffffffffffffffff16815260200190815260200160002060020160009054906101000a900473ffffffffffffffffffffffffffffffffffffffff1673ffffffffffffffffffffffffffffffffffffffff16146128e6576040517f08c379a00000000000000000000000000000000000000000000000000000000081526004016128dd9061896d565b60405180910390fd5b600060018111156128fa576128f9617848565b5b600360008373ffffffffffffffffffffffffffffffffffffffff1673ffffffffffffffffffffffffffffffffffffffff16815260200190815260200160002060040160029054906101000a900460ff16600181111561295c5761295b617848565b5b1461299c576040517f08c379a0000000000000000000000000000000000000000000000000000000008152600401612993906189d9565b60405180910390fd5b60006129a6617431565b6129ae6174fc565b612a7b89600860003373ffffffffffffffffffffffffffffffffffffffff1673ffffffffffffffffffffffffffffffffffffffff168152602001908152602001600020805480602002602001604051908101604052809291908181526020018280548015612a7157602002820191906000526020600020905b8160009054906101000a900473ffffffffffffffffffffffffffffffffffffffff1673ffffffffffffffffffffffffffffffffffffffff1681526020019060010190808311612a27575b5050505050615eaa565b80935081945050508215612ec5576007612a95338b61528f565b604051612aa29190618b0d565b908152602001604051809103902060405180610140016040529081600082018054612acc90618884565b80601f0160208091040260200160405190810160405280929190818152602001828054612af890618884565b8015612b455780601f10612b1a57610100808354040283529160200191612b45565b820191906000526020600020905b815481529060010190602001808311612b2857829003601f168201915b505050505081526020016001820160009054906101000a900473ffffffffffffffffffffffffffffffffffffffff1673ffffffffffffffffffffffffffffffffffffffff1673ffffffffffffffffffffffffffffffffffffffff168152602001600282018054612bb490618884565b80601f0160208091040260200160405190810160405280929190818152602001828054612be090618884565b8015612c2d5780601f10612c0257610100808354040283529160200191612c2d565b820191906000526020600020905b815481529060010190602001808311612c1057829003601f168201915b505050505081526020016003820160009054906101000a900473ffffffffffffffffffffffffffffffffffffffff1673ffffffffffffffffffffffffffffffffffffffff1673ffffffffffffffffffffffffffffffffffffffff168152602001600482018054612c9c90618884565b80601f0160208091040260200160405190810160405280929190818152602001828054612cc890618884565b8015612d155780601f10612cea57610100808354040283529160200191612d15565b820191906000526020600020905b815481529060010190602001808311612cf857829003601f168201915b50505050508152602001600582018054612d2e90618884565b80601f0160208091040260200160405190810160405280929190818152602001828054612d5a90618884565b8015612da75780601f10612d7c57610100808354040283529160200191612da7565b820191906000526020600020905b815481529060010190602001808311612d8a57829003601f168201915b50505050508152602001600682015481526020016007820160009054906101000a900460ff166002811115612ddf57612dde617848565b5b6002811115612df157612df0617848565b5b81526020016007820160019054906101000a900460ff166002811115612e1a57612e19617848565b5b6002811115612e2c57612e2b617848565b5b8152602001600882018054612e4090618884565b80601f0160208091040260200160405190810160405280929190818152602001828054612e6c90618884565b8015612eb95780601f10612e8e57610100808354040283529160200191612eb9565b820191906000526020600020905b815481529060010190602001808311612e9c57829003601f168201915b50505050508152505090505b82828297509750975050505050509193909250565b33600073ffffffffffffffffffffffffffffffffffffffff16600360008373ffffffffffffffffffffffffffffffffffffffff1673ffffffffffffffffffffffffffffffffffffffff16815260200190815260200160002060020160009054906101000a900473ffffffffffffffffffffffffffffffffffffffff1673ffffffffffffffffffffffffffffffffffffffff1603612fac576040517f08c379a0000000000000000000000000000000000000000000000000000000008152600401612fa39061896d565b60405180910390fd5b8073ffffffffffffffffffffffffffffffffffffffff16600360008373ffffffffffffffffffffffffffffffffffffffff1673ffffffffffffffffffffffffffffffffffffffff16815260200190815260200160002060020160009054906101000a900473ffffffffffffffffffffffffffffffffffffffff1673ffffffffffffffffffffffffffffffffffffffff161461307c576040517f08c379a00000000000000000000000000000000000000000000000000000000081526004016130739061896d565b60405180910390fd5b600060018111156130905761308f617848565b5b600360008373ffffffffffffffffffffffffffffffffffffffff1673ffffffffffffffffffffffffffffffffffffffff16815260200190815260200160002060040160029054906101000a900460ff1660018111156130f2576130f1617848565b5b14613132576040517f08c379a0000000000000000000000000000000000000000000000000000000008152600401613129906189d9565b60405180910390fd5b600061314233866060015161528f565b905061314d816152bb565b1561318d576040517f08c379a00000000000000000000000000000000000000000000000000000000081526004016131849061914b565b60405180910390fd5b604051806101400160405280828152602001866060015173ffffffffffffffffffffffffffffffffffffffff168152602001866000015181526020013373ffffffffffffffffffffffffffffffffffffffff1681526020016131ee33614f60565b6000015181526020018660a0015181526020018581526020016000600281111561321b5761321a617848565b5b81526020016000600281111561323457613233617848565b5b81526020018481525060078260405161324d9190618b0d565b908152602001604051809103902060008201518160000190816132709190618cd0565b5060208201518160010160006101000a81548173ffffffffffffffffffffffffffffffffffffffff021916908373ffffffffffffffffffffffffffffffffffffffff16021790555060408201518160020190816132cd9190618cd0565b5060608201518160030160006101000a81548173ffffffffffffffffffffffffffffffffffffffff021916908373ffffffffffffffffffffffffffffffffffffffff160217905550608082015181600401908161332a9190618cd0565b5060a08201518160050190816133409190618cd0565b5060c0820151816006015560e08201518160070160006101000a81548160ff0219169083600281111561337657613375617848565b5b02179055506101008201518160070160016101000a81548160ff021916908360028111156133a7576133a6617848565b5b02179055506101208201518160080190816133c29190618cd0565b50905050600860003373ffffffffffffffffffffffffffffffffffffffff1673ffffffffffffffffffffffffffffffffffffffff16815260200190815260200160002085606001519080600181540180825580915050600190039060005260206000200160009091909190916101000a81548173ffffffffffffffffffffffffffffffffffffffff021916908373ffffffffffffffffffffffffffffffffffffffff16021790555060096000866060015173ffffffffffffffffffffffffffffffffffffffff1673ffffffffffffffffffffffffffffffffffffffff168152602001908152602001600020339080600181540180825580915050600190039060005260206000200160009091909190916101000a81548173ffffffffffffffffffffffffffffffffffffffff021916908373ffffffffffffffffffffffffffffffffffffffff1602179055507f1c9ca7942139211bfb75ec030ee95c38e96f4eb7d755b28d3eede55f8d5eb86d816007836040516135409190618b0d565b908152602001604051809103902060040187600001516040516135659392919061916b565b60405180910390a161357a85606001516153d0565b6137765761358785616205565b6040518060a001604052808660000151815260200186602001518152602001866060015173ffffffffffffffffffffffffffffffffffffffff1681526020016002808111156135d9576135d8617848565b5b8152602001600060018111156135f2576135f1617848565b5b81525060066000876060015173ffffffffffffffffffffffffffffffffffffffff1673ffffffffffffffffffffffffffffffffffffffff168152602001908152602001600020600082015181600001908161364d9190618cd0565b5060208201518160010190816136639190618cd0565b5060408201518160020160006101000a81548173ffffffffffffffffffffffffffffffffffffffff021916908373ffffffffffffffffffffffffffffffffffffffff16021790555060608201518160020160146101000a81548160ff021916908360028111156136d6576136d5617848565b5b021790555060808201518160020160156101000a81548160ff0219169083600181111561370657613705617848565b5b0217905550905050600585606001519080600181540180825580915050600190039060005260206000200160009091909190916101000a81548173ffffffffffffffffffffffffffffffffffffffff021916908373ffffffffffffffffffffffffffffffffffffffff1602179055505b5050505050565b33600073ffffffffffffffffffffffffffffffffffffffff168173ffffffffffffffffffffffffffffffffffffffff16036137ed576040517f08c379a00000000000000000000000000000000000000000000000000000000081526004016137e4906187c9565b60405180910390fd5b600073ffffffffffffffffffffffffffffffffffffffff16600160008373ffffffffffffffffffffffffffffffffffffffff1673ffffffffffffffffffffffffffffffffffffffff16815260200190815260200160002060030160009054906101000a900473ffffffffffffffffffffffffffffffffffffffff1673ffffffffffffffffffffffffffffffffffffffff16036138be576040517f08c379a00000000000000000000000000000000000000000000000000000000081526004016138b590618835565b60405180910390fd5b6139a1600160008373ffffffffffffffffffffffffffffffffffffffff1673ffffffffffffffffffffffffffffffffffffffff168152602001908152602001600020600101805461390e90618884565b80601f016020809104026020016040519081016040528092919081815260200182805461393a90618884565b80156139875780601f1061395c57610100808354040283529160200191613987565b820191906000526020600020905b81548152906001019060200180831161396a57829003601f168201915b505050505060405180602001604052806000815250614c38565b156139e1576040517f08c379a00000000000000000000000000000000000000000000000000000000081526004016139d890618901565b60405180910390fd5b6139ec8484846163e1565b83600660003373ffffffffffffffffffffffffffffffffffffffff1673ffffffffffffffffffffffffffffffffffffffff1681526020019081526020016000206000019081613a3b9190618cd0565b5082600660003373ffffffffffffffffffffffffffffffffffffffff1673ffffffffffffffffffffffffffffffffffffffff1681526020019081526020016000206001019081613a8b9190618cd0565b5050505050565b33600073ffffffffffffffffffffffffffffffffffffffff168173ffffffffffffffffffffffffffffffffffffffff1603613b02576040517f08c379a0000000000000000000000000000000000000000000000000000000008152600401613af9906187c9565b60405180910390fd5b600073ffffffffffffffffffffffffffffffffffffffff16600160008373ffffffffffffffffffffffffffffffffffffffff1673ffffffffffffffffffffffffffffffffffffffff16815260200190815260200160002060030160009054906101000a900473ffffffffffffffffffffffffffffffffffffffff1673ffffffffffffffffffffffffffffffffffffffff1603613bd3576040517f08c379a0000000000000000000000000000000000000000000000000000000008152600401613bca90618835565b60405180910390fd5b613cb6600160008373ffffffffffffffffffffffffffffffffffffffff1673ffffffffffffffffffffffffffffffffffffffff1681526020019081526020016000206001018054613c2390618884565b80601f0160208091040260200160405190810160405280929190818152602001828054613c4f90618884565b8015613c9c5780601f10613c7157610100808354040283529160200191613c9c565b820191906000526020600020905b815481529060010190602001808311613c7f57829003601f168201915b505050505060405180602001604052806000815250614c38565b15613cf6576040517f08c379a0000000000000000000000000000000000000000000000000000000008152600401613ced90618901565b60405180910390fd5b613d008383616508565b6000600960003373ffffffffffffffffffffffffffffffffffffffff1673ffffffffffffffffffffffffffffffffffffffff168152602001908152602001600020805480602002602001604051908101604052809291908181526020018280548015613dc157602002820191906000526020600020905b8160009054906101000a900473ffffffffffffffffffffffffffffffffffffffff1673ffffffffffffffffffffffffffffffffffffffff1681526020019060010190808311613d77575b5050505050905060005b8151811015613f22576000613dfa838381518110613dec57613deb618f17565b5b60200260200101513361528f565b9050613e05816152bb565b15613f0e5785600782604051613e1b9190618b0d565b90815260200160405180910390206005019081613e389190618cd0565b5084600782604051613e4a9190618b0d565b9081526020016040518091039020600601819055506000600782604051613e719190618b0d565b908152602001604051809103902060070160006101000a81548160ff02191690836002811115613ea457613ea3617848565b5b02179055506040518060400160405280601381526020017f5570646174656420616c6c206d7920646f637300000000000000000000000000815250600782604051613eef9190618b0d565b90815260200160405180910390206008019081613f0c9190618cd0565b505b508080613f1a90618f75565b915050613dcb565b5050505050565b600460009054906101000a900473ffffffffffffffffffffffffffffffffffffffff1673ffffffffffffffffffffffffffffffffffffffff163373ffffffffffffffffffffffffffffffffffffffff1614613fb9576040517f08c379a0000000000000000000000000000000000000000000000000000000008152600401613fb090618ef7565b60405180910390fd5b613fc3828261661f565b600660008473ffffffffffffffffffffffffffffffffffffffff1673ffffffffffffffffffffffffffffffffffffffff16815260200190815260200160002060020160156101000a81548160ff0219169083600181111561402757614026617848565b5b02179055505050565b6000606033600073ffffffffffffffffffffffffffffffffffffffff16600360008373ffffffffffffffffffffffffffffffffffffffff1673ffffffffffffffffffffffffffffffffffffffff16815260200190815260200160002060020160009054906101000a900473ffffffffffffffffffffffffffffffffffffffff1673ffffffffffffffffffffffffffffffffffffffff1603614106576040517f08c379a00000000000000000000000000000000000000000000000000000000081526004016140fd9061896d565b60405180910390fd5b8073ffffffffffffffffffffffffffffffffffffffff16600360008373ffffffffffffffffffffffffffffffffffffffff1673ffffffffffffffffffffffffffffffffffffffff16815260200190815260200160002060020160009054906101000a900473ffffffffffffffffffffffffffffffffffffffff1673ffffffffffffffffffffffffffffffffffffffff16146141d6576040517f08c379a00000000000000000000000000000000000000000000000000000000081526004016141cd9061896d565b60405180910390fd5b600060018111156141ea576141e9617848565b5b600360008373ffffffffffffffffffffffffffffffffffffffff1673ffffffffffffffffffffffffffffffffffffffff16815260200190815260200160002060040160029054906101000a900460ff16600181111561424c5761424b617848565b5b1461428c576040517f08c379a0000000000000000000000000000000000000000000000000000000008152600401614283906189d9565b60405180910390fd5b614297846001616a30565b9250925050915091565b6142a961759f565b600073ffffffffffffffffffffffffffffffffffffffff163373ffffffffffffffffffffffffffffffffffffffff1603614318576040517f08c379a000000000000000000000000000000000000000000000000000000000815260040161430f90619203565b60405180910390fd5b600073ffffffffffffffffffffffffffffffffffffffff16600660003373ffffffffffffffffffffffffffffffffffffffff1673ffffffffffffffffffffffffffffffffffffffff16815260200190815260200160002060020160009054906101000a900473ffffffffffffffffffffffffffffffffffffffff1673ffffffffffffffffffffffffffffffffffffffff16036143e9576040517f08c379a00000000000000000000000000000000000000000000000000000000081526004016143e090618835565b60405180910390fd5b600660003373ffffffffffffffffffffffffffffffffffffffff1673ffffffffffffffffffffffffffffffffffffffff1681526020019081526020016000206040518060a001604052908160008201805461444390618884565b80601f016020809104026020016040519081016040528092919081815260200182805461446f90618884565b80156144bc5780601f10614491576101008083540402835291602001916144bc565b820191906000526020600020905b81548152906001019060200180831161449f57829003601f168201915b505050505081526020016001820180546144d590618884565b80601f016020809104026020016040519081016040528092919081815260200182805461450190618884565b801561454e5780601f106145235761010080835404028352916020019161454e565b820191906000526020600020905b81548152906001019060200180831161453157829003601f168201915b505050505081526020016002820160009054906101000a900473ffffffffffffffffffffffffffffffffffffffff1673ffffffffffffffffffffffffffffffffffffffff1673ffffffffffffffffffffffffffffffffffffffff1681526020016002820160149054906101000a900460ff1660028111156145d2576145d1617848565b5b60028111156145e4576145e3617848565b5b81526020016002820160159054906101000a900460ff16600181111561460d5761460c617848565b5b600181111561461f5761461e617848565b5b81525050905090565b6000606033600073ffffffffffffffffffffffffffffffffffffffff168173ffffffffffffffffffffffffffffffffffffffff160361469c576040517f08c379a0000000000000000000000000000000000000000000000000000000008152600401614693906187c9565b60405180910390fd5b600073ffffffffffffffffffffffffffffffffffffffff16600160008373ffffffffffffffffffffffffffffffffffffffff1673ffffffffffffffffffffffffffffffffffffffff16815260200190815260200160002060030160009054906101000a900473ffffffffffffffffffffffffffffffffffffffff1673ffffffffffffffffffffffffffffffffffffffff160361476d576040517f08c379a000000000000000000000000000000000000000000000000000000000815260040161476490618835565b60405180910390fd5b614850600160008373ffffffffffffffffffffffffffffffffffffffff1673ffffffffffffffffffffffffffffffffffffffff16815260200190815260200160002060010180546147bd90618884565b80601f01602080910402602001604051908101604052809291908181526020018280546147e990618884565b80156148365780601f1061480b57610100808354040283529160200191614836565b820191906000526020600020905b81548152906001019060200180831161481957829003601f168201915b505050505060405180602001604052806000815250614c38565b15614890576040517f08c379a000000000000000000000000000000000000000000000000000000000815260040161488790618901565b60405180910390fd5b61489b846000616a30565b9250925050915091565b33600073ffffffffffffffffffffffffffffffffffffffff16600360008373ffffffffffffffffffffffffffffffffffffffff1673ffffffffffffffffffffffffffffffffffffffff16815260200190815260200160002060020160009054906101000a900473ffffffffffffffffffffffffffffffffffffffff1673ffffffffffffffffffffffffffffffffffffffff1603614977576040517f08c379a000000000000000000000000000000000000000000000000000000000815260040161496e9061896d565b60405180910390fd5b8073ffffffffffffffffffffffffffffffffffffffff16600360008373ffffffffffffffffffffffffffffffffffffffff1673ffffffffffffffffffffffffffffffffffffffff16815260200190815260200160002060020160009054906101000a900473ffffffffffffffffffffffffffffffffffffffff1673ffffffffffffffffffffffffffffffffffffffff1614614a47576040517f08c379a0000000000000000000000000000000000000000000000000000000008152600401614a3e9061896d565b60405180910390fd5b60006001811115614a5b57614a5a617848565b5b600360008373ffffffffffffffffffffffffffffffffffffffff1673ffffffffffffffffffffffffffffffffffffffff16815260200190815260200160002060040160029054906101000a900460ff166001811115614abd57614abc617848565b5b14614afd576040517f08c379a0000000000000000000000000000000000000000000000000000000008152600401614af4906189d9565b60405180910390fd5b6000614b09338661528f565b9050614b14816152bb565b614b53576040517f08c379a0000000000000000000000000000000000000000000000000000000008152600401614b4a90619009565b60405180910390fd5b60008415614b765760019050614b68336171a7565b614b7186617294565b614b7b565b600290505b80600783604051614b8c9190618b0d565b908152602001604051809103902060070160006101000a81548160ff02191690836002811115614bbf57614bbe617848565b5b021790555083600783604051614bd59190618b0d565b90815260200160405180910390206008019081614bf29190618cd0565b507f900b83a690e29ff7d6e76e350983afea30403d6c47fe8ce52045fb20074c79a082873384604051614c289493929190619232565b60405180910390a1505050505050565b600081604051602001614c4b9190618b0d565b6040516020818303038152906040528051906020012083604051602001614c729190618b0d565b6040516020818303038152906040528051906020012014905092915050565b614c99617431565b600160008373ffffffffffffffffffffffffffffffffffffffff1673ffffffffffffffffffffffffffffffffffffffff1681526020019081526020016000206040518060e0016040529081600082018054614cf390618884565b80601f0160208091040260200160405190810160405280929190818152602001828054614d1f90618884565b8015614d6c5780601f10614d4157610100808354040283529160200191614d6c565b820191906000526020600020905b815481529060010190602001808311614d4f57829003601f168201915b50505050508152602001600182018054614d8590618884565b80601f0160208091040260200160405190810160405280929190818152602001828054614db190618884565b8015614dfe5780601f10614dd357610100808354040283529160200191614dfe565b820191906000526020600020905b815481529060010190602001808311614de157829003601f168201915b50505050508152602001600282015481526020016003820160009054906101000a900473ffffffffffffffffffffffffffffffffffffffff1673ffffffffffffffffffffffffffffffffffffffff1673ffffffffffffffffffffffffffffffffffffffff1681526020016004820160009054906101000a900473ffffffffffffffffffffffffffffffffffffffff1673ffffffffffffffffffffffffffffffffffffffff1673ffffffffffffffffffffffffffffffffffffffff168152602001600582018054614ecd90618884565b80601f0160208091040260200160405190810160405280929190818152602001828054614ef990618884565b8015614f465780601f10614f1b57610100808354040283529160200191614f46565b820191906000526020600020905b815481529060010190602001808311614f2957829003601f168201915b505050505081526020016006820154815250509050919050565b614f6861749a565b600073ffffffffffffffffffffffffffffffffffffffff168273ffffffffffffffffffffffffffffffffffffffff1603614fd7576040517f08c379a0000000000000000000000000000000000000000000000000000000008152600401614fce906192ca565b60405180910390fd5b600360008373ffffffffffffffffffffffffffffffffffffffff1673ffffffffffffffffffffffffffffffffffffffff1681526020019081526020016000206040518060c001604052908160008201805461503190618884565b80601f016020809104026020016040519081016040528092919081815260200182805461505d90618884565b80156150aa5780601f1061507f576101008083540402835291602001916150aa565b820191906000526020600020905b81548152906001019060200180831161508d57829003601f168201915b505050505081526020016001820180546150c390618884565b80601f01602080910402602001604051908101604052809291908181526020018280546150ef90618884565b801561513c5780601f106151115761010080835404028352916020019161513c565b820191906000526020600020905b81548152906001019060200180831161511f57829003601f168201915b505050505081526020016002820160009054906101000a900473ffffffffffffffffffffffffffffffffffffffff1673ffffffffffffffffffffffffffffffffffffffff1673ffffffffffffffffffffffffffffffffffffffff1681526020016003820180546151ab90618884565b80601f01602080910402602001604051908101604052809291908181526020018280546151d790618884565b80156152245780601f106151f957610100808354040283529160200191615224565b820191906000526020600020905b81548152906001019060200180831161520757829003601f168201915b505050505081526020016004820160009054906101000a900461ffff1661ffff1661ffff1681526020016004820160029054906101000a900460ff16600181111561527257615271617848565b5b600181111561528457615283617848565b5b815250509050919050565b606082826040516020016152a4929190619332565b604051602081830303815290604052905092915050565b60006152d68260405180602001604052806000815250614c38565b15615316576040517f08c379a000000000000000000000000000000000000000000000000000000000815260040161530d906193aa565b60405180910390fd5b6153c96007836040516153299190618b0d565b9081526020016040518091039020600001805461534590618884565b80601f016020809104026020016040519081016040528092919081815260200182805461537190618884565b80156153be5780601f10615393576101008083540402835291602001916153be565b820191906000526020600020905b8154815290600101906020018083116153a157829003601f168201915b505050505083614c38565b9050919050565b60008073ffffffffffffffffffffffffffffffffffffffff168273ffffffffffffffffffffffffffffffffffffffff1603615440576040517f08c379a000000000000000000000000000000000000000000000000000000000815260040161543790619416565b60405180910390fd5b600073ffffffffffffffffffffffffffffffffffffffff16600160008473ffffffffffffffffffffffffffffffffffffffff1673ffffffffffffffffffffffffffffffffffffffff16815260200190815260200160002060030160009054906101000a900473ffffffffffffffffffffffffffffffffffffffff1673ffffffffffffffffffffffffffffffffffffffff16141580156155bf57506155bd600160008473ffffffffffffffffffffffffffffffffffffffff1673ffffffffffffffffffffffffffffffffffffffff168152602001908152602001600020600101805461552a90618884565b80601f016020809104026020016040519081016040528092919081815260200182805461555690618884565b80156155a35780601f10615578576101008083540402835291602001916155a3565b820191906000526020600020905b81548152906001019060200180831161558657829003601f168201915b505050505060405180602001604052806000815250614c38565b155b156155c957600190505b919050565b600073ffffffffffffffffffffffffffffffffffffffff1660036000836040015173ffffffffffffffffffffffffffffffffffffffff1673ffffffffffffffffffffffffffffffffffffffff16815260200190815260200160002060020160009054906101000a900473ffffffffffffffffffffffffffffffffffffffff1673ffffffffffffffffffffffffffffffffffffffff16146156a3576040517f08c379a000000000000000000000000000000000000000000000000000000000815260040161569a90619482565b60405180910390fd5b8060036000836040015173ffffffffffffffffffffffffffffffffffffffff1673ffffffffffffffffffffffffffffffffffffffff16815260200190815260200160002060008201518160000190816156fc9190618cd0565b5060208201518160010190816157129190618cd0565b5060408201518160020160006101000a81548173ffffffffffffffffffffffffffffffffffffffff021916908373ffffffffffffffffffffffffffffffffffffffff160217905550606082015181600301908161576f9190618cd0565b5060808201518160040160006101000a81548161ffff021916908361ffff16021790555060a08201518160040160026101000a81548160ff021916908360018111156157be576157bd617848565b5b0217905550905050600281604001519080600181540180825580915050600190039060005260206000200160009091909190916101000a81548173ffffffffffffffffffffffffffffffffffffffff021916908373ffffffffffffffffffffffffffffffffffffffff1602179055507f17ee33cc6a54067d735ee1c9200fc0dc8354b1d7deae9908692bcd90723044b1816040015182600001518360200151846060015160405161587294939291906194a2565b60405180910390a150565b600073ffffffffffffffffffffffffffffffffffffffff16600360008573ffffffffffffffffffffffffffffffffffffffff1673ffffffffffffffffffffffffffffffffffffffff16815260200190815260200160002060020160009054906101000a900473ffffffffffffffffffffffffffffffffffffffff1673ffffffffffffffffffffffffffffffffffffffff160361594e576040517f08c379a00000000000000000000000000000000000000000000000000000000081526004016159459061896d565b60405180910390fd5b80600360008573ffffffffffffffffffffffffffffffffffffffff1673ffffffffffffffffffffffffffffffffffffffff168152602001908152602001600020600001908161599d9190618cd0565b5081600360008573ffffffffffffffffffffffffffffffffffffffff1673ffffffffffffffffffffffffffffffffffffffff16815260200190815260200160002060010190816159ed9190618cd0565b507fc0e694475d9755514453a459373ded91f1517029faca54000da1c3007ec2c4f9838284604051615a21939291906194fc565b60405180910390a1505050565b6000606060008311615a75576040517f08c379a0000000000000000000000000000000000000000000000000000000008152600401615a6c9061958d565b60405180910390fd5b600080600080615b0b876002805480602002602001604051908101604052809291908181526020018280548015615b0157602002820191906000526020600020905b8160009054906101000a900473ffffffffffffffffffffffffffffffffffffffff1673ffffffffffffffffffffffffffffffffffffffff1681526020019060010190808311615ab7575b5050505050617387565b935093509350935060008367ffffffffffffffff811115615b2f57615b2e617982565b5b604051908082528060200260200182016040528015615b6857816020015b615b5561749a565b815260200190600190039081615b4d5790505b50905060008390505b82811015615e99576003600060028381548110615b9157615b90618f17565b5b9060005260206000200160009054906101000a900473ffffffffffffffffffffffffffffffffffffffff1673ffffffffffffffffffffffffffffffffffffffff1673ffffffffffffffffffffffffffffffffffffffff1681526020019081526020016000206040518060c0016040529081600082018054615c1190618884565b80601f0160208091040260200160405190810160405280929190818152602001828054615c3d90618884565b8015615c8a5780601f10615c5f57610100808354040283529160200191615c8a565b820191906000526020600020905b815481529060010190602001808311615c6d57829003601f168201915b50505050508152602001600182018054615ca390618884565b80601f0160208091040260200160405190810160405280929190818152602001828054615ccf90618884565b8015615d1c5780601f10615cf157610100808354040283529160200191615d1c565b820191906000526020600020905b815481529060010190602001808311615cff57829003601f168201915b505050505081526020016002820160009054906101000a900473ffffffffffffffffffffffffffffffffffffffff1673ffffffffffffffffffffffffffffffffffffffff1673ffffffffffffffffffffffffffffffffffffffff168152602001600382018054615d8b90618884565b80601f0160208091040260200160405190810160405280929190818152602001828054615db790618884565b8015615e045780601f10615dd957610100808354040283529160200191615e04565b820191906000526020600020905b815481529060010190602001808311615de757829003601f168201915b505050505081526020016004820160009054906101000a900461ffff1661ffff1661ffff1681526020016004820160029054906101000a900460ff166001811115615e5257615e51617848565b5b6001811115615e6457615e63617848565b5b81525050828281518110615e7b57615e7a618f17565b5b60200260200101819052508080615e9190618f75565b915050615b71565b508481965096505050505050915091565b6000615eb4617431565b6000615ebe617431565b60005b85518110156161f5578673ffffffffffffffffffffffffffffffffffffffff16868281518110615ef457615ef3618f17565b5b602002602001015173ffffffffffffffffffffffffffffffffffffffff16036161e25760019250600160008873ffffffffffffffffffffffffffffffffffffffff1673ffffffffffffffffffffffffffffffffffffffff1681526020019081526020016000206040518060e0016040529081600082018054615f7590618884565b80601f0160208091040260200160405190810160405280929190818152602001828054615fa190618884565b8015615fee5780601f10615fc357610100808354040283529160200191615fee565b820191906000526020600020905b815481529060010190602001808311615fd157829003601f168201915b5050505050815260200160018201805461600790618884565b80601f016020809104026020016040519081016040528092919081815260200182805461603390618884565b80156160805780601f1061605557610100808354040283529160200191616080565b820191906000526020600020905b81548152906001019060200180831161606357829003601f168201915b50505050508152602001600282015481526020016003820160009054906101000a900473ffffffffffffffffffffffffffffffffffffffff1673ffffffffffffffffffffffffffffffffffffffff1673ffffffffffffffffffffffffffffffffffffffff1681526020016004820160009054906101000a900473ffffffffffffffffffffffffffffffffffffffff1673ffffffffffffffffffffffffffffffffffffffff1673ffffffffffffffffffffffffffffffffffffffff16815260200160058201805461614f90618884565b80601f016020809104026020016040519081016040528092919081815260200182805461617b90618884565b80156161c85780601f1061619d576101008083540402835291602001916161c8565b820191906000526020600020905b8154815290600101906020018083116161ab57829003601f168201915b5050505050815260200160068201548152505091506161f5565b80806161ed90618f75565b915050615ec1565b5081819350935050509250929050565b8060016000836060015173ffffffffffffffffffffffffffffffffffffffff1673ffffffffffffffffffffffffffffffffffffffff168152602001908152602001600020600082015181600001908161625e9190618cd0565b5060208201518160010190816162749190618cd0565b506040820151816002015560608201518160030160006101000a81548173ffffffffffffffffffffffffffffffffffffffff021916908373ffffffffffffffffffffffffffffffffffffffff16021790555060808201518160040160006101000a81548173ffffffffffffffffffffffffffffffffffffffff021916908373ffffffffffffffffffffffffffffffffffffffff16021790555060a08201518160050190816163229190618cd0565b5060c08201518160060155905050600081606001519080600181540180825580915050600190039060005260206000200160009091909190916101000a81548173ffffffffffffffffffffffffffffffffffffffff021916908373ffffffffffffffffffffffffffffffffffffffff1602179055507f77eacb4962819f791ebd2750d7be9519622ddcf4c37fe09c6fd33ace5ce32ccb8160600151826000015183602001516040516163d6939291906194fc565b60405180910390a150565b82600160003373ffffffffffffffffffffffffffffffffffffffff1673ffffffffffffffffffffffffffffffffffffffff16815260200190815260200160002060000190816164309190618cd0565b5081600160003373ffffffffffffffffffffffffffffffffffffffff1673ffffffffffffffffffffffffffffffffffffffff16815260200190815260200160002060010190816164809190618cd0565b5080600160003373ffffffffffffffffffffffffffffffffffffffff1673ffffffffffffffffffffffffffffffffffffffff168152602001908152602001600020600201819055507fcfc84fa73e8500b1f994b7616fda16714aa77352defd398c17f8dda41cc921953384846040516164fb939291906194fc565b60405180910390a1505050565b81600160003373ffffffffffffffffffffffffffffffffffffffff1673ffffffffffffffffffffffffffffffffffffffff16815260200190815260200160002060050190816165579190618cd0565b5080600160003373ffffffffffffffffffffffffffffffffffffffff1673ffffffffffffffffffffffffffffffffffffffff168152602001908152602001600020600601819055507f844d9124dad5a413c4b99664397291f93f1e89513cd8c3a68674c050283c556133600160003373ffffffffffffffffffffffffffffffffffffffff1673ffffffffffffffffffffffffffffffffffffffff16815260200190815260200160002060000184604051616613939291906195ad565b60405180910390a15050565b60008073ffffffffffffffffffffffffffffffffffffffff16600360008573ffffffffffffffffffffffffffffffffffffffff1673ffffffffffffffffffffffffffffffffffffffff16815260200190815260200160002060020160009054906101000a900473ffffffffffffffffffffffffffffffffffffffff1673ffffffffffffffffffffffffffffffffffffffff16036166f1576040517f08c379a00000000000000000000000000000000000000000000000000000000081526004016166e89061896d565b60405180910390fd5b818015616770575060018081111561670c5761670b617848565b5b600360008573ffffffffffffffffffffffffffffffffffffffff1673ffffffffffffffffffffffffffffffffffffffff16815260200190815260200160002060040160029054906101000a900460ff16600181111561676e5761676d617848565b5b145b15616863576000600360008573ffffffffffffffffffffffffffffffffffffffff1673ffffffffffffffffffffffffffffffffffffffff16815260200190815260200160002060040160026101000a81548160ff021916908360018111156167db576167da617848565b5b02179055507fbbb85d77e85c02977b28ba58175443b7d9c020551c53482ea6df5fe2e1cb884383600360008673ffffffffffffffffffffffffffffffffffffffff1673ffffffffffffffffffffffffffffffffffffffff1681526020019081526020016000206000016040516168529291906195f2565b60405180910390a160009050616a2a565b811580156168e45750600060018111156168805761687f617848565b5b600360008573ffffffffffffffffffffffffffffffffffffffff1673ffffffffffffffffffffffffffffffffffffffff16815260200190815260200160002060040160029054906101000a900460ff1660018111156168e2576168e1617848565b5b145b156169d7576001600360008573ffffffffffffffffffffffffffffffffffffffff1673ffffffffffffffffffffffffffffffffffffffff16815260200190815260200160002060040160026101000a81548160ff0219169083600181111561694f5761694e617848565b5b02179055507fe2914c072e85a93716aea3154e8dc2a6d4f9a823930697852b892fe10bd598f883600360008673ffffffffffffffffffffffffffffffffffffffff1673ffffffffffffffffffffffffffffffffffffffff1681526020019081526020016000206000016040516169c69291906195f2565b60405180910390a160019050616a2a565b600360008473ffffffffffffffffffffffffffffffffffffffff1673ffffffffffffffffffffffffffffffffffffffff16815260200190815260200160002060040160029054906101000a900460ff1690505b92915050565b6000606060008411616a77576040517f08c379a0000000000000000000000000000000000000000000000000000000008152600401616a6e9061966e565b60405180910390fd5b600080600080616b948888616aca57600960003373ffffffffffffffffffffffffffffffffffffffff1673ffffffffffffffffffffffffffffffffffffffff168152602001908152602001600020616b0a565b600860003373ffffffffffffffffffffffffffffffffffffffff1673ffffffffffffffffffffffffffffffffffffffff1681526020019081526020016000205b805480602002602001604051908101604052809291908181526020018280548015616b8a57602002820191906000526020600020905b8160009054906101000a900473ffffffffffffffffffffffffffffffffffffffff1673ffffffffffffffffffffffffffffffffffffffff1681526020019060010190808311616b40575b5050505050617387565b935093509350935060008367ffffffffffffffff811115616bb857616bb7617982565b5b604051908082528060200260200182016040528015616bf157816020015b616bde6174fc565b815260200190600190039081616bd65790505b50905060008390505b828110156171945788616cae576007616c8e600960003373ffffffffffffffffffffffffffffffffffffffff1673ffffffffffffffffffffffffffffffffffffffff1681526020019081526020016000208381548110616c5d57616c5c618f17565b5b9060005260206000200160009054906101000a900473ffffffffffffffffffffffffffffffffffffffff163361528f565b604051616c9b9190618b0d565b9081526020016040518091039020616d51565b6007616d3533600860003373ffffffffffffffffffffffffffffffffffffffff1673ffffffffffffffffffffffffffffffffffffffff1681526020019081526020016000208481548110616d0557616d04618f17565b5b9060005260206000200160009054906101000a900473ffffffffffffffffffffffffffffffffffffffff1661528f565b604051616d429190618b0d565b90815260200160405180910390205b60405180610140016040529081600082018054616d6d90618884565b80601f0160208091040260200160405190810160405280929190818152602001828054616d9990618884565b8015616de65780601f10616dbb57610100808354040283529160200191616de6565b820191906000526020600020905b815481529060010190602001808311616dc957829003601f168201915b505050505081526020016001820160009054906101000a900473ffffffffffffffffffffffffffffffffffffffff1673ffffffffffffffffffffffffffffffffffffffff1673ffffffffffffffffffffffffffffffffffffffff168152602001600282018054616e5590618884565b80601f0160208091040260200160405190810160405280929190818152602001828054616e8190618884565b8015616ece5780601f10616ea357610100808354040283529160200191616ece565b820191906000526020600020905b815481529060010190602001808311616eb157829003601f168201915b505050505081526020016003820160009054906101000a900473ffffffffffffffffffffffffffffffffffffffff1673ffffffffffffffffffffffffffffffffffffffff1673ffffffffffffffffffffffffffffffffffffffff168152602001600482018054616f3d90618884565b80601f0160208091040260200160405190810160405280929190818152602001828054616f6990618884565b8015616fb65780601f10616f8b57610100808354040283529160200191616fb6565b820191906000526020600020905b815481529060010190602001808311616f9957829003601f168201915b50505050508152602001600582018054616fcf90618884565b80601f0160208091040260200160405190810160405280929190818152602001828054616ffb90618884565b80156170485780601f1061701d57610100808354040283529160200191617048565b820191906000526020600020905b81548152906001019060200180831161702b57829003601f168201915b50505050508152602001600682015481526020016007820160009054906101000a900460ff1660028111156170805761707f617848565b5b600281111561709257617091617848565b5b81526020016007820160019054906101000a900460ff1660028111156170bb576170ba617848565b5b60028111156170cd576170cc617848565b5b81526020016008820180546170e190618884565b80601f016020809104026020016040519081016040528092919081815260200182805461710d90618884565b801561715a5780601f1061712f5761010080835404028352916020019161715a565b820191906000526020600020905b81548152906001019060200180831161713d57829003601f168201915b50505050508152505082828151811061717657617175618f17565b5b6020026020010181905250808061718c90618f75565b915050616bfa565b5084819650965050505050509250929050565b600073ffffffffffffffffffffffffffffffffffffffff168173ffffffffffffffffffffffffffffffffffffffff1603617216576040517f08c379a000000000000000000000000000000000000000000000000000000000815260040161720d9061896d565b60405180910390fd5b600360008273ffffffffffffffffffffffffffffffffffffffff1673ffffffffffffffffffffffffffffffffffffffff168152602001908152602001600020600401600081819054906101000a900461ffff16809291906172769061968e565b91906101000a81548161ffff021916908361ffff1602179055505050565b600073ffffffffffffffffffffffffffffffffffffffff168173ffffffffffffffffffffffffffffffffffffffff1603617303576040517f08c379a00000000000000000000000000000000000000000000000000000000081526004016172fa90619704565b60405180910390fd5b33600160008373ffffffffffffffffffffffffffffffffffffffff1673ffffffffffffffffffffffffffffffffffffffff16815260200190815260200160002060040160006101000a81548173ffffffffffffffffffffffffffffffffffffffff021916908373ffffffffffffffffffffffffffffffffffffffff16021790555050565b60008060008060006019865161739d9190619753565b9050601986516173ad9190619784565b945060008111156173c75784806173c390618f75565b9550505b601993506001876173d891906197b5565b60196173e491906197e9565b92508660196173f391906197e9565b91508487111561740a576000935060009150617427565b84871480156174195750600081115b1561742657809350855191505b5b5092959194509250565b6040518060e00160405280606081526020016060815260200160008152602001600073ffffffffffffffffffffffffffffffffffffffff168152602001600073ffffffffffffffffffffffffffffffffffffffff16815260200160608152602001600081525090565b6040518060c001604052806060815260200160608152602001600073ffffffffffffffffffffffffffffffffffffffff16815260200160608152602001600061ffff168152602001600060018111156174f6576174f5617848565b5b81525090565b60405180610140016040528060608152602001600073ffffffffffffffffffffffffffffffffffffffff16815260200160608152602001600073ffffffffffffffffffffffffffffffffffffffff1681526020016060815260200160608152602001600081526020016000600281111561757957617578617848565b5b81526020016000600281111561759257617591617848565b5b8152602001606081525090565b6040518060a001604052806060815260200160608152602001600073ffffffffffffffffffffffffffffffffffffffff168152602001600060028111156175e9576175e8617848565b5b81526020016000600181111561760257617601617848565b5b81525090565b6000604051905090565b600080fd5b600080fd5b600073ffffffffffffffffffffffffffffffffffffffff82169050919050565b60006176478261761c565b9050919050565b6176578161763c565b811461766257600080fd5b50565b6000813590506176748161764e565b92915050565b6000602082840312156176905761768f617612565b5b600061769e84828501617665565b91505092915050565b600081519050919050565b600082825260208201905092915050565b60005b838110156176e15780820151818401526020810190506176c6565b60008484015250505050565b6000601f19601f8301169050919050565b6000617709826176a7565b61771381856176b2565b93506177238185602086016176c3565b61772c816176ed565b840191505092915050565b6000819050919050565b61774a81617737565b82525050565b6177598161763c565b82525050565b600060e083016000830151848203600086015261777c82826176fe565b9150506020830151848203602086015261779682826176fe565b91505060408301516177ab6040860182617741565b5060608301516177be6060860182617750565b5060808301516177d16080860182617750565b5060a083015184820360a08601526177e982826176fe565b91505060c08301516177fe60c0860182617741565b508091505092915050565b60006020820190508181036000830152617823818461775f565b905092915050565b600061ffff82169050919050565b6178428161782b565b82525050565b7f4e487b7100000000000000000000000000000000000000000000000000000000600052602160045260246000fd5b6002811061788857617887617848565b5b50565b600081905061789982617877565b919050565b60006178a98261788b565b9050919050565b6178b98161789e565b82525050565b600060c08301600083015184820360008601526178dc82826176fe565b915050602083015184820360208601526178f682826176fe565b915050604083015161790b6040860182617750565b506060830151848203606086015261792382826176fe565b91505060808301516179386080860182617839565b5060a083015161794b60a08601826178b0565b508091505092915050565b6000602082019050818103600083015261797081846178bf565b905092915050565b600080fd5b600080fd5b7f4e487b7100000000000000000000000000000000000000000000000000000000600052604160045260246000fd5b6179ba826176ed565b810181811067ffffffffffffffff821117156179d9576179d8617982565b5b80604052505050565b60006179ec617608565b90506179f882826179b1565b919050565b600067ffffffffffffffff821115617a1857617a17617982565b5b617a21826176ed565b9050602081019050919050565b82818337600083830152505050565b6000617a50617a4b846179fd565b6179e2565b905082815260208101848484011115617a6c57617a6b61797d565b5b617a77848285617a2e565b509392505050565b600082601f830112617a9457617a93617978565b5b8135617aa4848260208601617a3d565b91505092915050565b60008060408385031215617ac457617ac3617612565b5b6000617ad285828601617665565b925050602083013567ffffffffffffffff811115617af357617af2617617565b5b617aff85828601617a7f565b9150509250929050565b600080fd5b600080fd5b617b1c8161782b565b8114617b2757600080fd5b50565b600081359050617b3981617b13565b92915050565b60028110617b4c57600080fd5b50565b600081359050617b5e81617b3f565b92915050565b600060c08284031215617b7a57617b79617b09565b5b617b8460c06179e2565b9050600082013567ffffffffffffffff811115617ba457617ba3617b0e565b5b617bb084828501617a7f565b600083015250602082013567ffffffffffffffff811115617bd457617bd3617b0e565b5b617be084828501617a7f565b6020830152506040617bf484828501617665565b604083015250606082013567ffffffffffffffff811115617c1857617c17617b0e565b5b617c2484828501617a7f565b6060830152506080617c3884828501617b2a565b60808301525060a0617c4c84828501617b4f565b60a08301525092915050565b600060208284031215617c6e57617c6d617612565b5b600082013567ffffffffffffffff811115617c8c57617c8b617617565b5b617c9884828501617b64565b91505092915050565b60008115159050919050565b617cb681617ca1565b82525050565b60038110617ccd57617ccc617848565b5b50565b6000819050617cde82617cbc565b919050565b6000617cee82617cd0565b9050919050565b617cfe81617ce3565b82525050565b60038110617d1557617d14617848565b5b50565b6000819050617d2682617d04565b919050565b6000617d3682617d18565b9050919050565b617d4681617d2b565b82525050565b6000610140830160008301518482036000860152617d6a82826176fe565b9150506020830151617d7f6020860182617750565b5060408301518482036040860152617d9782826176fe565b9150506060830151617dac6060860182617750565b5060808301518482036080860152617dc482826176fe565b91505060a083015184820360a0860152617dde82826176fe565b91505060c0830151617df360c0860182617741565b5060e0830151617e0660e0860182617cf5565b50610100830151617e1b610100860182617d3d565b50610120830151848203610120860152617e3582826176fe565b9150508091505092915050565b6000606082019050617e576000830186617cad565b8181036020830152617e6981856178bf565b90508181036040830152617e7d8184617d4c565b9050949350505050565b617e9081617ca1565b8114617e9b57600080fd5b50565b600081359050617ead81617e87565b92915050565b600080600060608486031215617ecc57617ecb617612565b5b6000617eda86828701617665565b9350506020617eeb86828701617e9e565b925050604084013567ffffffffffffffff811115617f0c57617f0b617617565b5b617f1886828701617a7f565b9150509250925092565b600080600060608486031215617f3b57617f3a617612565b5b6000617f4986828701617665565b935050602084013567ffffffffffffffff811115617f6a57617f69617617565b5b617f7686828701617a7f565b925050604084013567ffffffffffffffff811115617f9757617f96617617565b5b617fa386828701617a7f565b9150509250925092565b617fb681617737565b8114617fc157600080fd5b50565b600081359050617fd381617fad565b92915050565b600060208284031215617fef57617fee617612565b5b6000617ffd84828501617fc4565b91505092915050565b61800f81617737565b82525050565b600081519050919050565b600082825260208201905092915050565b6000819050602082019050919050565b600060c083016000830151848203600086015261805e82826176fe565b9150506020830151848203602086015261807882826176fe565b915050604083015161808d6040860182617750565b50606083015184820360608601526180a582826176fe565b91505060808301516180ba6080860182617839565b5060a08301516180cd60a08601826178b0565b508091505092915050565b60006180e48383618041565b905092915050565b6000602082019050919050565b600061810482618015565b61810e8185618020565b93508360208202850161812085618031565b8060005b8581101561815c578484038952815161813d85826180d8565b9450618148836180ec565b925060208a01995050600181019050618124565b50829750879550505050505092915050565b60006040820190506181836000830185618006565b818103602083015261819581846180f9565b90509392505050565b60006060820190506181b36000830186617cad565b81810360208301526181c5818561775f565b905081810360408301526181d98184617d4c565b9050949350505050565b600060e082840312156181f9576181f8617b09565b5b61820360e06179e2565b9050600082013567ffffffffffffffff81111561822357618222617b0e565b5b61822f84828501617a7f565b600083015250602082013567ffffffffffffffff81111561825357618252617b0e565b5b61825f84828501617a7f565b602083015250604061827384828501617fc4565b604083015250606061828784828501617665565b606083015250608061829b84828501617665565b60808301525060a082013567ffffffffffffffff8111156182bf576182be617b0e565b5b6182cb84828501617a7f565b60a08301525060c06182df84828501617fc4565b60c08301525092915050565b60008060006060848603121561830457618303617612565b5b600084013567ffffffffffffffff81111561832257618321617617565b5b61832e868287016181e3565b935050602061833f86828701617fc4565b925050604084013567ffffffffffffffff8111156183605761835f617617565b5b61836c86828701617a7f565b9150509250925092565b60008060006060848603121561838f5761838e617612565b5b600084013567ffffffffffffffff8111156183ad576183ac617617565b5b6183b986828701617a7f565b935050602084013567ffffffffffffffff8111156183da576183d9617617565b5b6183e686828701617a7f565b92505060406183f786828701617fc4565b9150509250925092565b6000806040838503121561841857618417617612565b5b600083013567ffffffffffffffff81111561843657618435617617565b5b61844285828601617a7f565b925050602061845385828601617fc4565b9150509250929050565b6000806040838503121561847457618473617612565b5b600061848285828601617665565b925050602061849385828601617e9e565b9150509250929050565b600081519050919050565b600082825260208201905092915050565b6000819050602082019050919050565b60006101408301600083015184820360008601526184e782826176fe565b91505060208301516184fc6020860182617750565b506040830151848203604086015261851482826176fe565b91505060608301516185296060860182617750565b506080830151848203608086015261854182826176fe565b91505060a083015184820360a086015261855b82826176fe565b91505060c083015161857060c0860182617741565b5060e083015161858360e0860182617cf5565b50610100830151618598610100860182617d3d565b506101208301518482036101208601526185b282826176fe565b9150508091505092915050565b60006185cb83836184c9565b905092915050565b6000602082019050919050565b60006185eb8261849d565b6185f581856184a8565b935083602082028501618607856184b9565b8060005b85811015618643578484038952815161862485826185bf565b945061862f836185d3565b925060208a0199505060018101905061860b565b50829750879550505050505092915050565b600060408201905061866a6000830185618006565b818103602083015261867c81846185e0565b90509392505050565b6003811061869657618695617848565b5b50565b60008190506186a782618685565b919050565b60006186b782618699565b9050919050565b6186c7816186ac565b82525050565b600060a08301600083015184820360008601526186ea82826176fe565b9150506020830151848203602086015261870482826176fe565b91505060408301516187196040860182617750565b50606083015161872c60608601826186be565b50608083015161873f60808601826178b0565b508091505092915050565b6000602082019050818103600083015261876481846186cd565b905092915050565b600082825260208201905092915050565b7f496420697320456d707479000000000000000000000000000000000000000000600082015250565b60006187b3600b8361876c565b91506187be8261877d565b602082019050919050565b600060208201905081810360008301526187e2816187a6565b9050919050565b7f5573657220496420456d70747900000000000000000000000000000000000000600082015250565b600061881f600d8361876c565b915061882a826187e9565b602082019050919050565b6000602082019050818103600083015261884e81618812565b9050919050565b7f4e487b7100000000000000000000000000000000000000000000000000000000600052602260045260246000fd5b6000600282049050600182168061889c57607f821691505b6020821081036188af576188ae618855565b5b50919050565b7f5573657220456d61696c20456d70747900000000000000000000000000000000600082015250565b60006188eb60108361876c565b91506188f6826188b5565b602082019050919050565b6000602082019050818103600083015261891a816188de565b9050919050565b7f42616e6b206e6f7420666f756e64000000000000000000000000000000000000600082015250565b6000618957600e8361876c565b915061896282618921565b602082019050919050565b600060208201905081810360008301526189868161894a565b9050919050565b7f42616e6b206973206e6f74206163746976650000000000000000000000000000600082015250565b60006189c360128361876c565b91506189ce8261898d565b602082019050919050565b600060208201905081810360008301526189f2816189b6565b9050919050565b7f4b594320726571206e6f7420666f756e64000000000000000000000000000000600082015250565b6000618a2f60118361876c565b9150618a3a826189f9565b602082019050919050565b60006020820190508181036000830152618a5e81618a22565b9050919050565b7f55736572206e6f7420666f756e64000000000000000000000000000000000000600082015250565b6000618a9b600e8361876c565b9150618aa682618a65565b602082019050919050565b60006020820190508181036000830152618aca81618a8e565b9050919050565b600081905092915050565b6000618ae7826176a7565b618af18185618ad1565b9350618b018185602086016176c3565b80840191505092915050565b6000618b198284618adc565b915081905092915050565b60008190508160005260206000209050919050565b60006020601f8301049050919050565b600082821b905092915050565b600060088302618b867fffffffffffffffffffffffffffffffffffffffffffffffffffffffffffffffff82618b49565b618b908683618b49565b95508019841693508086168417925050509392505050565b6000819050919050565b6000618bcd618bc8618bc384617737565b618ba8565b617737565b9050919050565b6000819050919050565b618be783618bb2565b618bfb618bf382618bd4565b848454618b56565b825550505050565b600090565b618c10618c03565b618c1b818484618bde565b505050565b5b81811015618c3f57618c34600082618c08565b600181019050618c21565b5050565b601f821115618c8457618c5581618b24565b618c5e84618b39565b81016020851015618c6d578190505b618c81618c7985618b39565b830182618c20565b50505b505050565b600082821c905092915050565b6000618ca760001984600802618c89565b1980831691505092915050565b6000618cc08383618c96565b9150826002028217905092915050565b618cd9826176a7565b67ffffffffffffffff811115618cf257618cf1617982565b5b618cfc8254618884565b618d07828285618c43565b600060209050601f831160018114618d3a5760008415618d28578287015190505b618d328582618cb4565b865550618d9a565b601f198416618d4886618b24565b60005b82811015618d7057848901518255600182019150602085019450602081019050618d4b565b86831015618d8d5784890151618d89601f891682618c96565b8355505b6001600288020188555050505b505050505050565b6000618dad826176a7565b618db7818561876c565b9350618dc78185602086016176c3565b618dd0816176ed565b840191505092915050565b60008154618de881618884565b618df2818661876c565b94506001821660008114618e0d5760018114618e2357618e56565b60ff198316865281151560200286019350618e56565b618e2c85618b24565b60005b83811015618e4e57815481890152600182019150602081019050618e2f565b808801955050505b50505092915050565b60006060820190508181036000830152618e798186618da2565b90508181036020830152618e8d8185618ddb565b90508181036040830152618ea18184618ddb565b9050949350505050565b7f4f6e6c792061646d696e20697320616c6c6f7765640000000000000000000000600082015250565b6000618ee160158361876c565b9150618eec82618eab565b602082019050919050565b60006020820190508181036000830152618f1081618ed4565b9050919050565b7f4e487b7100000000000000000000000000000000000000000000000000000000600052603260045260246000fd5b7f4e487b7100000000000000000000000000000000000000000000000000000000600052601160045260246000fd5b6000618f8082617737565b91507fffffffffffffffffffffffffffffffffffffffffffffffffffffffffffffffff8203618fb257618fb1618f46565b5b600182019050919050565b7f5573657220646f65736e27742068617665204b59432072657100000000000000600082015250565b6000618ff360198361876c565b9150618ffe82618fbd565b602082019050919050565b6000602082019050818103600083015261902281618fe6565b9050919050565b6190328161763c565b82525050565b61904181617d2b565b82525050565b600060808201905081810360008301526190618187618da2565b90506190706020830186619029565b61907d6040830185619029565b61908a6060830184619038565b95945050505050565b7f5065726d697373696f6e206e6f7420666f756e64000000000000000000000000600082015250565b60006190c960148361876c565b91506190d482619093565b602082019050919050565b600060208201905081810360008301526190f8816190bc565b9050919050565b7f5573657220686164206b7963207265712e000000000000000000000000000000600082015250565b600061913560118361876c565b9150619140826190ff565b602082019050919050565b6000602082019050818103600083015261916481619128565b9050919050565b600060608201905081810360008301526191858186618da2565b905081810360208301526191998185618ddb565b905081810360408301526191ad8184618da2565b9050949350505050565b7f53656e64657220496420456d7074790000000000000000000000000000000000600082015250565b60006191ed600f8361876c565b91506191f8826191b7565b602082019050919050565b6000602082019050818103600083015261921c816191e0565b9050919050565b61922c81617ce3565b82525050565b6000608082019050818103600083015261924c8187618da2565b905061925b6020830186619029565b6192686040830185619029565b6192756060830184619223565b95945050505050565b7f42616e6b20496420456d70747900000000000000000000000000000000000000600082015250565b60006192b4600d8361876c565b91506192bf8261927e565b602082019050919050565b600060208201905081810360008301526192e3816192a7565b9050919050565b60008160601b9050919050565b6000619302826192ea565b9050919050565b6000619314826192f7565b9050919050565b61932c6193278261763c565b619309565b82525050565b600061933e828561931b565b60148201915061934e828461931b565b6014820191508190509392505050565b7f5265717565737420496420656d70747900000000000000000000000000000000600082015250565b600061939460108361876c565b915061939f8261935e565b602082019050919050565b600060208201905081810360008301526193c381619387565b9050919050565b7f496420697320656d707479000000000000000000000000000000000000000000600082015250565b6000619400600b8361876c565b915061940b826193ca565b602082019050919050565b6000602082019050818103600083015261942f816193f3565b9050919050565b7f42616e6b20657869737473000000000000000000000000000000000000000000600082015250565b600061946c600b8361876c565b915061947782619436565b602082019050919050565b6000602082019050818103600083015261949b8161945f565b9050919050565b60006080820190506194b76000830187619029565b81810360208301526194c98186618da2565b905081810360408301526194dd8185618da2565b905081810360608301526194f18184618da2565b905095945050505050565b60006060820190506195116000830186619029565b81810360208301526195238185618da2565b905081810360408301526195378184618da2565b9050949350505050565b7f504e2073686f756c64206265203e203000000000000000000000000000000000600082015250565b600061957760108361876c565b915061958282619541565b602082019050919050565b600060208201905081810360008301526195a68161956a565b9050919050565b60006060820190506195c26000830186619029565b81810360208301526195d48185618ddb565b905081810360408301526195e88184618da2565b9050949350505050565b60006040820190506196076000830185619029565b81810360208301526196198184618ddb565b90509392505050565b7f504e2073686f756c64206265203e207a65726f00000000000000000000000000600082015250565b600061965860138361876c565b915061966382619622565b602082019050919050565b600060208201905081810360008301526196878161964b565b9050919050565b60006196998261782b565b915061ffff82036196ad576196ac618f46565b5b600182019050919050565b7f437573746f6d657220496420456d707479000000000000000000000000000000600082015250565b60006196ee60118361876c565b91506196f9826196b8565b602082019050919050565b6000602082019050818103600083015261971d816196e1565b9050919050565b7f4e487b7100000000000000000000000000000000000000000000000000000000600052601260045260246000fd5b600061975e82617737565b915061976983617737565b92508261977957619778619724565b5b828206905092915050565b600061978f82617737565b915061979a83617737565b9250826197aa576197a9619724565b5b828204905092915050565b60006197c082617737565b91506197cb83617737565b92508282039050818111156197e3576197e2618f46565b5b92915050565b60006197f482617737565b91506197ff83617737565b925082820261980d81617737565b9150828204841483151761982457619823618f46565b5b509291505056fea2646970667358221220519f71db6c1063127d65826dddfb2159916bc758685e8c973033fe248316f8c164736f6c63430008120033', \n     arguments: [\n          name_,\n          email_,\n     ]\n}).send({\n     from: web3.eth.accounts[0], \n     gas: '4700000'\n   }, function (e, contract){\n    console.log(e, contract);\n    if (typeof contract.address !== 'undefined') {\n         console.log('Contract mined! address: ' + contract.address + ' transactionHash: ' + contract.transactionHash);\n    }\n })",
	"functionHashes": {
		"34b52411": "actionOnKycRequest(address,bool,string)",
		"b374a7dd": "activateDeactivateBank(address,bool)",
		"2283db9c": "addBank((string,string,address,string,uint16,uint8))",
		"77fa069c": "addKycRequest((string,string,uint256,address,address,string,uint256),uint256,string)",
		"4d82d8e8": "getAllBanks(uint256)",
		"15101e02": "getBankDetails(address)",
		"dbc671d0": "getBankRequests(uint256)",
		"0c60f83d": "getCustomerDetails(address)",
		"baa2b9fd": "getCustomersOfBank(uint256)",
		"1bdd5a0f": "reRequestForKycRequest(address,string)",
		"3f2c0e96": "removerDatahashPermission(address,string)",
		"2ce23acb": "searchBanks(address)",
		"5f4d6ddf": "searchCustomers(address)",
		"369ba32b": "updateBankDetails(address,string,string)",
		"8915fb0c": "updateDatahash(string,uint256)",
		"dc57d07e": "updateKycVerification(address,bool,string)",
		"7c1d6197": "updateProfile(string,string,uint256)",
		"da91254c": "whoAmI()"
	},
	"gasEstimates": {
		"Creation": {
			"codeDepositCost": "7801800",
			"executionCost": "infinite",
			"totalCost": "infinite"
		},
		"External": {
			"actionOnKycRequest(address,bool,string)": "infinite",
			"activateDeactivateBank(address,bool)": "infinite",
			"addBank((string,string,address,string,uint16,uint8))": "infinite",
			"addKycRequest((string,string,uint256,address,address,string,uint256),uint256,string)": "infinite",
			"getAllBanks(uint256)": "infinite",
			"getBankDetails(address)": "infinite",
			"getBankRequests(uint256)": "infinite",
			"getCustomerDetails(address)": "infinite",
			"getCustomersOfBank(uint256)": "infinite",
			"reRequestForKycRequest(address,string)": "infinite",
			"removerDatahashPermission(address,string)": "infinite",
			"searchBanks(address)": "infinite",
			"searchCustomers(address)": "infinite",
			"updateBankDetails(address,string,string)": "infinite",
			"updateDatahash(string,uint256)": "infinite",
			"updateKycVerification(address,bool,string)": "infinite",
			"updateProfile(string,string,uint256)": "infinite",
			"whoAmI()": "infinite"
		},
		"Internal": {
			"getKYCRequests(uint256,bool)": "infinite",
			"kycRequestExists(string memory)": "infinite"
		}
	},
	"devdoc": {
		"kind": "dev",
		"methods": {
			"addKycRequest((string,string,uint256,address,address,string,uint256),uint256,string)": {
				"params": {
					"currentTime_": "Current Date & Time in unix epoch timestamp",
					"customer_": "Customer details for whom the request is to be raised",
					"notes_": "Any additional notes that need to be added"
				}
			},
			"updateDatahash(string,uint256)": {
				"details": "Updates the Datahash of the documents",
				"params": {
					"currentTime_": "Current Date Time in unix epoch timestamp",
					"hash_": "Data hash value that need to be updated"
				}
			}
		},
		"version": 1
	},
	"userdoc": {
		"kind": "user",
		"methods": {
			"addKycRequest((string,string,uint256,address,address,string,uint256),uint256,string)": {
				"notice": "Records new KYC request for a customer"
			}
		},
		"version": 1
	},
	"Runtime Bytecode": {
		"immutableReferences": {},
		"linkReferences": {},
		"object": "608060405234801561001057600080fd5b50600436106101165760003560e01c80635f4d6ddf116100a2578063b374a7dd11610071578063b374a7dd146102f0578063baa2b9fd1461030c578063da91254c1461033d578063dbc671d01461035b578063dc57d07e1461038c57610116565b80635f4d6ddf1461026a57806377fa069c1461029c5780637c1d6197146102b85780638915fb0c146102d457610116565b80632ce23acb116100e95780632ce23acb146101b357806334b52411146101e5578063369ba32b146102015780633f2c0e961461021d5780634d82d8e81461023957610116565b80630c60f83d1461011b57806315101e021461014b5780631bdd5a0f1461017b5780632283db9c14610197575b600080fd5b6101356004803603810190610130919061767a565b6103a8565b6040516101429190617809565b60405180910390f35b6101656004803603810190610160919061767a565b610625565b6040516101729190617956565b60405180910390f35b61019560048036038101906101909190617aad565b610896565b005b6101b160048036038101906101ac9190617c58565b610c86565b005b6101cd60048036038101906101c8919061767a565b610f11565b6040516101dc93929190617e42565b60405180910390f35b6101ff60048036038101906101fa9190617eb3565b61198b565b005b61021b60048036038101906102169190617f22565b611f71565b005b61023760048036038101906102329190617aad565b6120b1565b005b610253600480360381019061024e9190617fd9565b612428565b60405161026192919061816e565b60405180910390f35b610284600480360381019061027f919061767a565b6124ce565b6040516102939392919061819e565b60405180910390f35b6102b660048036038101906102b191906182eb565b612eda565b005b6102d260048036038101906102cd9190618376565b61377d565b005b6102ee60048036038101906102e99190618401565b613a92565b005b61030a6004803603810190610305919061845d565b613f29565b005b61032660048036038101906103219190617fd9565b614030565b604051610334929190618655565b60405180910390f35b6103456142a1565b604051610352919061874a565b60405180910390f35b61037560048036038101906103709190617fd9565b614628565b604051610383929190618655565b60405180910390f35b6103a660048036038101906103a19190617eb3565b6148a5565b005b6103b0617431565b81600073ffffffffffffffffffffffffffffffffffffffff168173ffffffffffffffffffffffffffffffffffffffff1603610420576040517f08c379a0000000000000000000000000000000000000000000000000000000008152600401610417906187c9565b60405180910390fd5b600073ffffffffffffffffffffffffffffffffffffffff16600160008373ffffffffffffffffffffffffffffffffffffffff1673ffffffffffffffffffffffffffffffffffffffff16815260200190815260200160002060030160009054906101000a900473ffffffffffffffffffffffffffffffffffffffff1673ffffffffffffffffffffffffffffffffffffffff16036104f1576040517f08c379a00000000000000000000000000000000000000000000000000000000081526004016104e890618835565b60405180910390fd5b6105d4600160008373ffffffffffffffffffffffffffffffffffffffff1673ffffffffffffffffffffffffffffffffffffffff168152602001908152602001600020600101805461054190618884565b80601f016020809104026020016040519081016040528092919081815260200182805461056d90618884565b80156105ba5780601f1061058f576101008083540402835291602001916105ba565b820191906000526020600020905b81548152906001019060200180831161059d57829003601f168201915b505050505060405180602001604052806000815250614c38565b15610614576040517f08c379a000000000000000000000000000000000000000000000000000000000815260040161060b90618901565b60405180910390fd5b61061d83614c91565b915050919050565b61062d61749a565b81600073ffffffffffffffffffffffffffffffffffffffff16600360008373ffffffffffffffffffffffffffffffffffffffff1673ffffffffffffffffffffffffffffffffffffffff16815260200190815260200160002060020160009054906101000a900473ffffffffffffffffffffffffffffffffffffffff1673ffffffffffffffffffffffffffffffffffffffff16036106ff576040517f08c379a00000000000000000000000000000000000000000000000000000000081526004016106f69061896d565b60405180910390fd5b8073ffffffffffffffffffffffffffffffffffffffff16600360008373ffffffffffffffffffffffffffffffffffffffff1673ffffffffffffffffffffffffffffffffffffffff16815260200190815260200160002060020160009054906101000a900473ffffffffffffffffffffffffffffffffffffffff1673ffffffffffffffffffffffffffffffffffffffff16146107cf576040517f08c379a00000000000000000000000000000000000000000000000000000000081526004016107c69061896d565b60405180910390fd5b600060018111156107e3576107e2617848565b5b600360008373ffffffffffffffffffffffffffffffffffffffff1673ffffffffffffffffffffffffffffffffffffffff16815260200190815260200160002060040160029054906101000a900460ff16600181111561084557610844617848565b5b14610885576040517f08c379a000000000000000000000000000000000000000000000000000000000815260040161087c906189d9565b60405180910390fd5b61088e83614f60565b915050919050565b33600073ffffffffffffffffffffffffffffffffffffffff16600360008373ffffffffffffffffffffffffffffffffffffffff1673ffffffffffffffffffffffffffffffffffffffff16815260200190815260200160002060020160009054906101000a900473ffffffffffffffffffffffffffffffffffffffff1673ffffffffffffffffffffffffffffffffffffffff1603610968576040517f08c379a000000000000000000000000000000000000000000000000000000000815260040161095f9061896d565b60405180910390fd5b8073ffffffffffffffffffffffffffffffffffffffff16600360008373ffffffffffffffffffffffffffffffffffffffff1673ffffffffffffffffffffffffffffffffffffffff16815260200190815260200160002060020160009054906101000a900473ffffffffffffffffffffffffffffffffffffffff1673ffffffffffffffffffffffffffffffffffffffff1614610a38576040517f08c379a0000000000000000000000000000000000000000000000000000000008152600401610a2f9061896d565b60405180910390fd5b60006001811115610a4c57610a4b617848565b5b600360008373ffffffffffffffffffffffffffffffffffffffff1673ffffffffffffffffffffffffffffffffffffffff16815260200190815260200160002060040160029054906101000a900460ff166001811115610aae57610aad617848565b5b14610aee576040517f08c379a0000000000000000000000000000000000000000000000000000000008152600401610ae5906189d9565b60405180910390fd5b6000610afa338561528f565b9050610b05816152bb565b610b44576040517f08c379a0000000000000000000000000000000000000000000000000000000008152600401610b3b90618a45565b60405180910390fd5b610b4d846153d0565b610b8c576040517f08c379a0000000000000000000000000000000000000000000000000000000008152600401610b8390618ab1565b60405180910390fd5b6000600782604051610b9e9190618b0d565b908152602001604051809103902060070160016101000a81548160ff02191690836002811115610bd157610bd0617848565b5b021790555082600782604051610be79190618b0d565b90815260200160405180910390206008019081610c049190618cd0565b507f524a348eaa0159a5bd9d05667fe8d01e3fef50369ae5f27c2ade107c84bfeaf781600783604051610c379190618b0d565b9081526020016040518091039020600401600784604051610c589190618b0d565b9081526020016040518091039020600201604051610c7893929190618e5f565b60405180910390a150505050565b600460009054906101000a900473ffffffffffffffffffffffffffffffffffffffff1673ffffffffffffffffffffffffffffffffffffffff163373ffffffffffffffffffffffffffffffffffffffff1614610d16576040517f08c379a0000000000000000000000000000000000000000000000000000000008152600401610d0d90618ef7565b60405180910390fd5b610d1f816155ce565b6040518060a001604052808260000151815260200182602001518152602001826040015173ffffffffffffffffffffffffffffffffffffffff16815260200160016002811115610d7257610d71617848565b5b815260200160006001811115610d8b57610d8a617848565b5b81525060066000836040015173ffffffffffffffffffffffffffffffffffffffff1673ffffffffffffffffffffffffffffffffffffffff1681526020019081526020016000206000820151816000019081610de69190618cd0565b506020820151816001019081610dfc9190618cd0565b5060408201518160020160006101000a81548173ffffffffffffffffffffffffffffffffffffffff021916908373ffffffffffffffffffffffffffffffffffffffff16021790555060608201518160020160146101000a81548160ff02191690836002811115610e6f57610e6e617848565b5b021790555060808201518160020160156101000a81548160ff02191690836001811115610e9f57610e9e617848565b5b0217905550905050600581604001519080600181540180825580915050600190039060005260206000200160009091909190916101000a81548173ffffffffffffffffffffffffffffffffffffffff021916908373ffffffffffffffffffffffffffffffffffffffff16021790555050565b6000610f1b61749a565b610f236174fc565b33600073ffffffffffffffffffffffffffffffffffffffff168173ffffffffffffffffffffffffffffffffffffffff1603610f93576040517f08c379a0000000000000000000000000000000000000000000000000000000008152600401610f8a906187c9565b60405180910390fd5b600073ffffffffffffffffffffffffffffffffffffffff16600160008373ffffffffffffffffffffffffffffffffffffffff1673ffffffffffffffffffffffffffffffffffffffff16815260200190815260200160002060030160009054906101000a900473ffffffffffffffffffffffffffffffffffffffff1673ffffffffffffffffffffffffffffffffffffffff1603611064576040517f08c379a000000000000000000000000000000000000000000000000000000000815260040161105b90618835565b60405180910390fd5b611147600160008373ffffffffffffffffffffffffffffffffffffffff1673ffffffffffffffffffffffffffffffffffffffff16815260200190815260200160002060010180546110b490618884565b80601f01602080910402602001604051908101604052809291908181526020018280546110e090618884565b801561112d5780601f106111025761010080835404028352916020019161112d565b820191906000526020600020905b81548152906001019060200180831161111057829003601f168201915b505050505060405180602001604052806000815250614c38565b15611187576040517f08c379a000000000000000000000000000000000000000000000000000000000815260040161117e90618901565b60405180910390fd5b84600073ffffffffffffffffffffffffffffffffffffffff16600360008373ffffffffffffffffffffffffffffffffffffffff1673ffffffffffffffffffffffffffffffffffffffff16815260200190815260200160002060020160009054906101000a900473ffffffffffffffffffffffffffffffffffffffff1673ffffffffffffffffffffffffffffffffffffffff1603611259576040517f08c379a00000000000000000000000000000000000000000000000000000000081526004016112509061896d565b60405180910390fd5b8073ffffffffffffffffffffffffffffffffffffffff16600360008373ffffffffffffffffffffffffffffffffffffffff1673ffffffffffffffffffffffffffffffffffffffff16815260200190815260200160002060020160009054906101000a900473ffffffffffffffffffffffffffffffffffffffff1673ffffffffffffffffffffffffffffffffffffffff1614611329576040517f08c379a00000000000000000000000000000000000000000000000000000000081526004016113209061896d565b60405180910390fd5b6000600181111561133d5761133c617848565b5b600360008373ffffffffffffffffffffffffffffffffffffffff1673ffffffffffffffffffffffffffffffffffffffff16815260200190815260200160002060040160029054906101000a900460ff16600181111561139f5761139e617848565b5b146113df576040517f08c379a00000000000000000000000000000000000000000000000000000000081526004016113d6906189d9565b60405180910390fd5b60006113e961749a565b6113f16174fc565b6000600960003373ffffffffffffffffffffffffffffffffffffffff1673ffffffffffffffffffffffffffffffffffffffff1681526020019081526020016000208054806020026020016040519081016040528092919081815260200182805480156114b257602002820191906000526020600020905b8160009054906101000a900473ffffffffffffffffffffffffffffffffffffffff1673ffffffffffffffffffffffffffffffffffffffff1681526020019060010190808311611468575b5050505050905060005b8151811015611974578a73ffffffffffffffffffffffffffffffffffffffff168282815181106114ef576114ee618f17565b5b602002602001015173ffffffffffffffffffffffffffffffffffffffff1603611961576001945061151f8b614f60565b9350600761152d8c3361528f565b60405161153a9190618b0d565b90815260200160405180910390206040518061014001604052908160008201805461156490618884565b80601f016020809104026020016040519081016040528092919081815260200182805461159090618884565b80156115dd5780601f106115b2576101008083540402835291602001916115dd565b820191906000526020600020905b8154815290600101906020018083116115c057829003601f168201915b505050505081526020016001820160009054906101000a900473ffffffffffffffffffffffffffffffffffffffff1673ffffffffffffffffffffffffffffffffffffffff1673ffffffffffffffffffffffffffffffffffffffff16815260200160028201805461164c90618884565b80601f016020809104026020016040519081016040528092919081815260200182805461167890618884565b80156116c55780601f1061169a576101008083540402835291602001916116c5565b820191906000526020600020905b8154815290600101906020018083116116a857829003601f168201915b505050505081526020016003820160009054906101000a900473ffffffffffffffffffffffffffffffffffffffff1673ffffffffffffffffffffffffffffffffffffffff1673ffffffffffffffffffffffffffffffffffffffff16815260200160048201805461173490618884565b80601f016020809104026020016040519081016040528092919081815260200182805461176090618884565b80156117ad5780601f10611782576101008083540402835291602001916117ad565b820191906000526020600020905b81548152906001019060200180831161179057829003601f168201915b505050505081526020016005820180546117c690618884565b80601f01602080910402602001604051908101604052809291908181526020018280546117f290618884565b801561183f5780601f106118145761010080835404028352916020019161183f565b820191906000526020600020905b81548152906001019060200180831161182257829003601f168201915b50505050508152602001600682015481526020016007820160009054906101000a900460ff16600281111561187757611876617848565b5b600281111561188957611888617848565b5b81526020016007820160019054906101000a900460ff1660028111156118b2576118b1617848565b5b60028111156118c4576118c3617848565b5b81526020016008820180546118d890618884565b80601f016020809104026020016040519081016040528092919081815260200182805461190490618884565b80156119515780601f1061192657610100808354040283529160200191611951565b820191906000526020600020905b81548152906001019060200180831161193457829003601f168201915b5050505050815250509250611974565b808061196c90618f75565b9150506114bc565b508383839850985098505050505050509193909250565b33600073ffffffffffffffffffffffffffffffffffffffff168173ffffffffffffffffffffffffffffffffffffffff16036119fb576040517f08c379a00000000000000000000000000000000000000000000000000000000081526004016119f2906187c9565b60405180910390fd5b600073ffffffffffffffffffffffffffffffffffffffff16600160008373ffffffffffffffffffffffffffffffffffffffff1673ffffffffffffffffffffffffffffffffffffffff16815260200190815260200160002060030160009054906101000a900473ffffffffffffffffffffffffffffffffffffffff1673ffffffffffffffffffffffffffffffffffffffff1603611acc576040517f08c379a0000000000000000000000000000000000000000000000000000000008152600401611ac390618835565b60405180910390fd5b611baf600160008373ffffffffffffffffffffffffffffffffffffffff1673ffffffffffffffffffffffffffffffffffffffff1681526020019081526020016000206001018054611b1c90618884565b80601f0160208091040260200160405190810160405280929190818152602001828054611b4890618884565b8015611b955780601f10611b6a57610100808354040283529160200191611b95565b820191906000526020600020905b815481529060010190602001808311611b7857829003601f168201915b505050505060405180602001604052806000815250614c38565b15611bef576040517f08c379a0000000000000000000000000000000000000000000000000000000008152600401611be690618901565b60405180910390fd5b83600073ffffffffffffffffffffffffffffffffffffffff16600360008373ffffffffffffffffffffffffffffffffffffffff1673ffffffffffffffffffffffffffffffffffffffff16815260200190815260200160002060020160009054906101000a900473ffffffffffffffffffffffffffffffffffffffff1673ffffffffffffffffffffffffffffffffffffffff1603611cc1576040517f08c379a0000000000000000000000000000000000000000000000000000000008152600401611cb89061896d565b60405180910390fd5b8073ffffffffffffffffffffffffffffffffffffffff16600360008373ffffffffffffffffffffffffffffffffffffffff1673ffffffffffffffffffffffffffffffffffffffff16815260200190815260200160002060020160009054906101000a900473ffffffffffffffffffffffffffffffffffffffff1673ffffffffffffffffffffffffffffffffffffffff1614611d91576040517f08c379a0000000000000000000000000000000000000000000000000000000008152600401611d889061896d565b60405180910390fd5b60006001811115611da557611da4617848565b5b600360008373ffffffffffffffffffffffffffffffffffffffff1673ffffffffffffffffffffffffffffffffffffffff16815260200190815260200160002060040160029054906101000a900460ff166001811115611e0757611e06617848565b5b14611e47576040517f08c379a0000000000000000000000000000000000000000000000000000000008152600401611e3e906189d9565b60405180910390fd5b6000611e53863361528f565b9050611e5e816152bb565b611e9d576040517f08c379a0000000000000000000000000000000000000000000000000000000008152600401611e9490619009565b60405180910390fd5b60008515611eae5760019050611eb3565b600290505b80600783604051611ec49190618b0d565b908152602001604051809103902060070160016101000a81548160ff02191690836002811115611ef757611ef6617848565b5b021790555084600783604051611f0d9190618b0d565b90815260200160405180910390206008019081611f2a9190618cd0565b507f9a3f3f9de5ac964f84f08c6124f7b844ffd73de3fd4b472eb59f6b68e5729a8182338984604051611f609493929190619047565b60405180910390a150505050505050565b600460009054906101000a900473ffffffffffffffffffffffffffffffffffffffff1673ffffffffffffffffffffffffffffffffffffffff163373ffffffffffffffffffffffffffffffffffffffff1614612001576040517f08c379a0000000000000000000000000000000000000000000000000000000008152600401611ff890618ef7565b60405180910390fd5b61200c83838361587d565b80600660008573ffffffffffffffffffffffffffffffffffffffff1673ffffffffffffffffffffffffffffffffffffffff168152602001908152602001600020600001908161205b9190618cd0565b5081600660008573ffffffffffffffffffffffffffffffffffffffff1673ffffffffffffffffffffffffffffffffffffffff16815260200190815260200160002060010190816120ab9190618cd0565b50505050565b33600073ffffffffffffffffffffffffffffffffffffffff168173ffffffffffffffffffffffffffffffffffffffff1603612121576040517f08c379a0000000000000000000000000000000000000000000000000000000008152600401612118906187c9565b60405180910390fd5b600073ffffffffffffffffffffffffffffffffffffffff16600160008373ffffffffffffffffffffffffffffffffffffffff1673ffffffffffffffffffffffffffffffffffffffff16815260200190815260200160002060030160009054906101000a900473ffffffffffffffffffffffffffffffffffffffff1673ffffffffffffffffffffffffffffffffffffffff16036121f2576040517f08c379a00000000000000000000000000000000000000000000000000000000081526004016121e990618835565b60405180910390fd5b6122d5600160008373ffffffffffffffffffffffffffffffffffffffff1673ffffffffffffffffffffffffffffffffffffffff168152602001908152602001600020600101805461224290618884565b80601f016020809104026020016040519081016040528092919081815260200182805461226e90618884565b80156122bb5780601f10612290576101008083540402835291602001916122bb565b820191906000526020600020905b81548152906001019060200180831161229e57829003601f168201915b505050505060405180602001604052806000815250614c38565b15612315576040517f08c379a000000000000000000000000000000000000000000000000000000000815260040161230c90618901565b60405180910390fd5b6000612321843361528f565b905061232c816152bb565b61236b576040517f08c379a0000000000000000000000000000000000000000000000000000000008152600401612362906190df565b60405180910390fd5b600260078260405161237d9190618b0d565b908152602001604051809103902060070160016101000a81548160ff021916908360028111156123b0576123af617848565b5b0217905550826007826040516123c69190618b0d565b908152602001604051809103902060080190816123e39190618cd0565b507f9a3f3f9de5ac964f84f08c6124f7b844ffd73de3fd4b472eb59f6b68e5729a81813386600260405161241a9493929190619047565b60405180910390a150505050565b60006060600460009054906101000a900473ffffffffffffffffffffffffffffffffffffffff1673ffffffffffffffffffffffffffffffffffffffff163373ffffffffffffffffffffffffffffffffffffffff16146124bc576040517f08c379a00000000000000000000000000000000000000000000000000000000081526004016124b390618ef7565b60405180910390fd5b6124c583615a2e565b91509150915091565b60006124d8617431565b6124e06174fc565b83600073ffffffffffffffffffffffffffffffffffffffff168173ffffffffffffffffffffffffffffffffffffffff1603612550576040517f08c379a0000000000000000000000000000000000000000000000000000000008152600401612547906187c9565b60405180910390fd5b600073ffffffffffffffffffffffffffffffffffffffff16600160008373ffffffffffffffffffffffffffffffffffffffff1673ffffffffffffffffffffffffffffffffffffffff16815260200190815260200160002060030160009054906101000a900473ffffffffffffffffffffffffffffffffffffffff1673ffffffffffffffffffffffffffffffffffffffff1603612621576040517f08c379a000000000000000000000000000000000000000000000000000000000815260040161261890618835565b60405180910390fd5b612704600160008373ffffffffffffffffffffffffffffffffffffffff1673ffffffffffffffffffffffffffffffffffffffff168152602001908152602001600020600101805461267190618884565b80601f016020809104026020016040519081016040528092919081815260200182805461269d90618884565b80156126ea5780601f106126bf576101008083540402835291602001916126ea565b820191906000526020600020905b8154815290600101906020018083116126cd57829003601f168201915b505050505060405180602001604052806000815250614c38565b15612744576040517f08c379a000000000000000000000000000000000000000000000000000000000815260040161273b90618901565b60405180910390fd5b33600073ffffffffffffffffffffffffffffffffffffffff16600360008373ffffffffffffffffffffffffffffffffffffffff1673ffffffffffffffffffffffffffffffffffffffff16815260200190815260200160002060020160009054906101000a900473ffffffffffffffffffffffffffffffffffffffff1673ffffffffffffffffffffffffffffffffffffffff1603612816576040517f08c379a000000000000000000000000000000000000000000000000000000000815260040161280d9061896d565b60405180910390fd5b8073ffffffffffffffffffffffffffffffffffffffff16600360008373ffffffffffffffffffffffffffffffffffffffff1673ffffffffffffffffffffffffffffffffffffffff16815260200190815260200160002060020160009054906101000a900473ffffffffffffffffffffffffffffffffffffffff1673ffffffffffffffffffffffffffffffffffffffff16146128e6576040517f08c379a00000000000000000000000000000000000000000000000000000000081526004016128dd9061896d565b60405180910390fd5b600060018111156128fa576128f9617848565b5b600360008373ffffffffffffffffffffffffffffffffffffffff1673ffffffffffffffffffffffffffffffffffffffff16815260200190815260200160002060040160029054906101000a900460ff16600181111561295c5761295b617848565b5b1461299c576040517f08c379a0000000000000000000000000000000000000000000000000000000008152600401612993906189d9565b60405180910390fd5b60006129a6617431565b6129ae6174fc565b612a7b89600860003373ffffffffffffffffffffffffffffffffffffffff1673ffffffffffffffffffffffffffffffffffffffff168152602001908152602001600020805480602002602001604051908101604052809291908181526020018280548015612a7157602002820191906000526020600020905b8160009054906101000a900473ffffffffffffffffffffffffffffffffffffffff1673ffffffffffffffffffffffffffffffffffffffff1681526020019060010190808311612a27575b5050505050615eaa565b80935081945050508215612ec5576007612a95338b61528f565b604051612aa29190618b0d565b908152602001604051809103902060405180610140016040529081600082018054612acc90618884565b80601f0160208091040260200160405190810160405280929190818152602001828054612af890618884565b8015612b455780601f10612b1a57610100808354040283529160200191612b45565b820191906000526020600020905b815481529060010190602001808311612b2857829003601f168201915b505050505081526020016001820160009054906101000a900473ffffffffffffffffffffffffffffffffffffffff1673ffffffffffffffffffffffffffffffffffffffff1673ffffffffffffffffffffffffffffffffffffffff168152602001600282018054612bb490618884565b80601f0160208091040260200160405190810160405280929190818152602001828054612be090618884565b8015612c2d5780601f10612c0257610100808354040283529160200191612c2d565b820191906000526020600020905b815481529060010190602001808311612c1057829003601f168201915b505050505081526020016003820160009054906101000a900473ffffffffffffffffffffffffffffffffffffffff1673ffffffffffffffffffffffffffffffffffffffff1673ffffffffffffffffffffffffffffffffffffffff168152602001600482018054612c9c90618884565b80601f0160208091040260200160405190810160405280929190818152602001828054612cc890618884565b8015612d155780601f10612cea57610100808354040283529160200191612d15565b820191906000526020600020905b815481529060010190602001808311612cf857829003601f168201915b50505050508152602001600582018054612d2e90618884565b80601f0160208091040260200160405190810160405280929190818152602001828054612d5a90618884565b8015612da75780601f10612d7c57610100808354040283529160200191612da7565b820191906000526020600020905b815481529060010190602001808311612d8a57829003601f168201915b50505050508152602001600682015481526020016007820160009054906101000a900460ff166002811115612ddf57612dde617848565b5b6002811115612df157612df0617848565b5b81526020016007820160019054906101000a900460ff166002811115612e1a57612e19617848565b5b6002811115612e2c57612e2b617848565b5b8152602001600882018054612e4090618884565b80601f0160208091040260200160405190810160405280929190818152602001828054612e6c90618884565b8015612eb95780601f10612e8e57610100808354040283529160200191612eb9565b820191906000526020600020905b815481529060010190602001808311612e9c57829003601f168201915b50505050508152505090505b82828297509750975050505050509193909250565b33600073ffffffffffffffffffffffffffffffffffffffff16600360008373ffffffffffffffffffffffffffffffffffffffff1673ffffffffffffffffffffffffffffffffffffffff16815260200190815260200160002060020160009054906101000a900473ffffffffffffffffffffffffffffffffffffffff1673ffffffffffffffffffffffffffffffffffffffff1603612fac576040517f08c379a0000000000000000000000000000000000000000000000000000000008152600401612fa39061896d565b60405180910390fd5b8073ffffffffffffffffffffffffffffffffffffffff16600360008373ffffffffffffffffffffffffffffffffffffffff1673ffffffffffffffffffffffffffffffffffffffff16815260200190815260200160002060020160009054906101000a900473ffffffffffffffffffffffffffffffffffffffff1673ffffffffffffffffffffffffffffffffffffffff161461307c576040517f08c379a00000000000000000000000000000000000000000000000000000000081526004016130739061896d565b60405180910390fd5b600060018111156130905761308f617848565b5b600360008373ffffffffffffffffffffffffffffffffffffffff1673ffffffffffffffffffffffffffffffffffffffff16815260200190815260200160002060040160029054906101000a900460ff1660018111156130f2576130f1617848565b5b14613132576040517f08c379a0000000000000000000000000000000000000000000000000000000008152600401613129906189d9565b60405180910390fd5b600061314233866060015161528f565b905061314d816152bb565b1561318d576040517f08c379a00000000000000000000000000000000000000000000000000000000081526004016131849061914b565b60405180910390fd5b604051806101400160405280828152602001866060015173ffffffffffffffffffffffffffffffffffffffff168152602001866000015181526020013373ffffffffffffffffffffffffffffffffffffffff1681526020016131ee33614f60565b6000015181526020018660a0015181526020018581526020016000600281111561321b5761321a617848565b5b81526020016000600281111561323457613233617848565b5b81526020018481525060078260405161324d9190618b0d565b908152602001604051809103902060008201518160000190816132709190618cd0565b5060208201518160010160006101000a81548173ffffffffffffffffffffffffffffffffffffffff021916908373ffffffffffffffffffffffffffffffffffffffff16021790555060408201518160020190816132cd9190618cd0565b5060608201518160030160006101000a81548173ffffffffffffffffffffffffffffffffffffffff021916908373ffffffffffffffffffffffffffffffffffffffff160217905550608082015181600401908161332a9190618cd0565b5060a08201518160050190816133409190618cd0565b5060c0820151816006015560e08201518160070160006101000a81548160ff0219169083600281111561337657613375617848565b5b02179055506101008201518160070160016101000a81548160ff021916908360028111156133a7576133a6617848565b5b02179055506101208201518160080190816133c29190618cd0565b50905050600860003373ffffffffffffffffffffffffffffffffffffffff1673ffffffffffffffffffffffffffffffffffffffff16815260200190815260200160002085606001519080600181540180825580915050600190039060005260206000200160009091909190916101000a81548173ffffffffffffffffffffffffffffffffffffffff021916908373ffffffffffffffffffffffffffffffffffffffff16021790555060096000866060015173ffffffffffffffffffffffffffffffffffffffff1673ffffffffffffffffffffffffffffffffffffffff168152602001908152602001600020339080600181540180825580915050600190039060005260206000200160009091909190916101000a81548173ffffffffffffffffffffffffffffffffffffffff021916908373ffffffffffffffffffffffffffffffffffffffff1602179055507f1c9ca7942139211bfb75ec030ee95c38e96f4eb7d755b28d3eede55f8d5eb86d816007836040516135409190618b0d565b908152602001604051809103902060040187600001516040516135659392919061916b565b60405180910390a161357a85606001516153d0565b6137765761358785616205565b6040518060a001604052808660000151815260200186602001518152602001866060015173ffffffffffffffffffffffffffffffffffffffff1681526020016002808111156135d9576135d8617848565b5b8152602001600060018111156135f2576135f1617848565b5b81525060066000876060015173ffffffffffffffffffffffffffffffffffffffff1673ffffffffffffffffffffffffffffffffffffffff168152602001908152602001600020600082015181600001908161364d9190618cd0565b5060208201518160010190816136639190618cd0565b5060408201518160020160006101000a81548173ffffffffffffffffffffffffffffffffffffffff021916908373ffffffffffffffffffffffffffffffffffffffff16021790555060608201518160020160146101000a81548160ff021916908360028111156136d6576136d5617848565b5b021790555060808201518160020160156101000a81548160ff0219169083600181111561370657613705617848565b5b0217905550905050600585606001519080600181540180825580915050600190039060005260206000200160009091909190916101000a81548173ffffffffffffffffffffffffffffffffffffffff021916908373ffffffffffffffffffffffffffffffffffffffff1602179055505b5050505050565b33600073ffffffffffffffffffffffffffffffffffffffff168173ffffffffffffffffffffffffffffffffffffffff16036137ed576040517f08c379a00000000000000000000000000000000000000000000000000000000081526004016137e4906187c9565b60405180910390fd5b600073ffffffffffffffffffffffffffffffffffffffff16600160008373ffffffffffffffffffffffffffffffffffffffff1673ffffffffffffffffffffffffffffffffffffffff16815260200190815260200160002060030160009054906101000a900473ffffffffffffffffffffffffffffffffffffffff1673ffffffffffffffffffffffffffffffffffffffff16036138be576040517f08c379a00000000000000000000000000000000000000000000000000000000081526004016138b590618835565b60405180910390fd5b6139a1600160008373ffffffffffffffffffffffffffffffffffffffff1673ffffffffffffffffffffffffffffffffffffffff168152602001908152602001600020600101805461390e90618884565b80601f016020809104026020016040519081016040528092919081815260200182805461393a90618884565b80156139875780601f1061395c57610100808354040283529160200191613987565b820191906000526020600020905b81548152906001019060200180831161396a57829003601f168201915b505050505060405180602001604052806000815250614c38565b156139e1576040517f08c379a00000000000000000000000000000000000000000000000000000000081526004016139d890618901565b60405180910390fd5b6139ec8484846163e1565b83600660003373ffffffffffffffffffffffffffffffffffffffff1673ffffffffffffffffffffffffffffffffffffffff1681526020019081526020016000206000019081613a3b9190618cd0565b5082600660003373ffffffffffffffffffffffffffffffffffffffff1673ffffffffffffffffffffffffffffffffffffffff1681526020019081526020016000206001019081613a8b9190618cd0565b5050505050565b33600073ffffffffffffffffffffffffffffffffffffffff168173ffffffffffffffffffffffffffffffffffffffff1603613b02576040517f08c379a0000000000000000000000000000000000000000000000000000000008152600401613af9906187c9565b60405180910390fd5b600073ffffffffffffffffffffffffffffffffffffffff16600160008373ffffffffffffffffffffffffffffffffffffffff1673ffffffffffffffffffffffffffffffffffffffff16815260200190815260200160002060030160009054906101000a900473ffffffffffffffffffffffffffffffffffffffff1673ffffffffffffffffffffffffffffffffffffffff1603613bd3576040517f08c379a0000000000000000000000000000000000000000000000000000000008152600401613bca90618835565b60405180910390fd5b613cb6600160008373ffffffffffffffffffffffffffffffffffffffff1673ffffffffffffffffffffffffffffffffffffffff1681526020019081526020016000206001018054613c2390618884565b80601f0160208091040260200160405190810160405280929190818152602001828054613c4f90618884565b8015613c9c5780601f10613c7157610100808354040283529160200191613c9c565b820191906000526020600020905b815481529060010190602001808311613c7f57829003601f168201915b505050505060405180602001604052806000815250614c38565b15613cf6576040517f08c379a0000000000000000000000000000000000000000000000000000000008152600401613ced90618901565b60405180910390fd5b613d008383616508565b6000600960003373ffffffffffffffffffffffffffffffffffffffff1673ffffffffffffffffffffffffffffffffffffffff168152602001908152602001600020805480602002602001604051908101604052809291908181526020018280548015613dc157602002820191906000526020600020905b8160009054906101000a900473ffffffffffffffffffffffffffffffffffffffff1673ffffffffffffffffffffffffffffffffffffffff1681526020019060010190808311613d77575b5050505050905060005b8151811015613f22576000613dfa838381518110613dec57613deb618f17565b5b60200260200101513361528f565b9050613e05816152bb565b15613f0e5785600782604051613e1b9190618b0d565b90815260200160405180910390206005019081613e389190618cd0565b5084600782604051613e4a9190618b0d565b9081526020016040518091039020600601819055506000600782604051613e719190618b0d565b908152602001604051809103902060070160006101000a81548160ff02191690836002811115613ea457613ea3617848565b5b02179055506040518060400160405280601381526020017f5570646174656420616c6c206d7920646f637300000000000000000000000000815250600782604051613eef9190618b0d565b90815260200160405180910390206008019081613f0c9190618cd0565b505b508080613f1a90618f75565b915050613dcb565b5050505050565b600460009054906101000a900473ffffffffffffffffffffffffffffffffffffffff1673ffffffffffffffffffffffffffffffffffffffff163373ffffffffffffffffffffffffffffffffffffffff1614613fb9576040517f08c379a0000000000000000000000000000000000000000000000000000000008152600401613fb090618ef7565b60405180910390fd5b613fc3828261661f565b600660008473ffffffffffffffffffffffffffffffffffffffff1673ffffffffffffffffffffffffffffffffffffffff16815260200190815260200160002060020160156101000a81548160ff0219169083600181111561402757614026617848565b5b02179055505050565b6000606033600073ffffffffffffffffffffffffffffffffffffffff16600360008373ffffffffffffffffffffffffffffffffffffffff1673ffffffffffffffffffffffffffffffffffffffff16815260200190815260200160002060020160009054906101000a900473ffffffffffffffffffffffffffffffffffffffff1673ffffffffffffffffffffffffffffffffffffffff1603614106576040517f08c379a00000000000000000000000000000000000000000000000000000000081526004016140fd9061896d565b60405180910390fd5b8073ffffffffffffffffffffffffffffffffffffffff16600360008373ffffffffffffffffffffffffffffffffffffffff1673ffffffffffffffffffffffffffffffffffffffff16815260200190815260200160002060020160009054906101000a900473ffffffffffffffffffffffffffffffffffffffff1673ffffffffffffffffffffffffffffffffffffffff16146141d6576040517f08c379a00000000000000000000000000000000000000000000000000000000081526004016141cd9061896d565b60405180910390fd5b600060018111156141ea576141e9617848565b5b600360008373ffffffffffffffffffffffffffffffffffffffff1673ffffffffffffffffffffffffffffffffffffffff16815260200190815260200160002060040160029054906101000a900460ff16600181111561424c5761424b617848565b5b1461428c576040517f08c379a0000000000000000000000000000000000000000000000000000000008152600401614283906189d9565b60405180910390fd5b614297846001616a30565b9250925050915091565b6142a961759f565b600073ffffffffffffffffffffffffffffffffffffffff163373ffffffffffffffffffffffffffffffffffffffff1603614318576040517f08c379a000000000000000000000000000000000000000000000000000000000815260040161430f90619203565b60405180910390fd5b600073ffffffffffffffffffffffffffffffffffffffff16600660003373ffffffffffffffffffffffffffffffffffffffff1673ffffffffffffffffffffffffffffffffffffffff16815260200190815260200160002060020160009054906101000a900473ffffffffffffffffffffffffffffffffffffffff1673ffffffffffffffffffffffffffffffffffffffff16036143e9576040517f08c379a00000000000000000000000000000000000000000000000000000000081526004016143e090618835565b60405180910390fd5b600660003373ffffffffffffffffffffffffffffffffffffffff1673ffffffffffffffffffffffffffffffffffffffff1681526020019081526020016000206040518060a001604052908160008201805461444390618884565b80601f016020809104026020016040519081016040528092919081815260200182805461446f90618884565b80156144bc5780601f10614491576101008083540402835291602001916144bc565b820191906000526020600020905b81548152906001019060200180831161449f57829003601f168201915b505050505081526020016001820180546144d590618884565b80601f016020809104026020016040519081016040528092919081815260200182805461450190618884565b801561454e5780601f106145235761010080835404028352916020019161454e565b820191906000526020600020905b81548152906001019060200180831161453157829003601f168201915b505050505081526020016002820160009054906101000a900473ffffffffffffffffffffffffffffffffffffffff1673ffffffffffffffffffffffffffffffffffffffff1673ffffffffffffffffffffffffffffffffffffffff1681526020016002820160149054906101000a900460ff1660028111156145d2576145d1617848565b5b60028111156145e4576145e3617848565b5b81526020016002820160159054906101000a900460ff16600181111561460d5761460c617848565b5b600181111561461f5761461e617848565b5b81525050905090565b6000606033600073ffffffffffffffffffffffffffffffffffffffff168173ffffffffffffffffffffffffffffffffffffffff160361469c576040517f08c379a0000000000000000000000000000000000000000000000000000000008152600401614693906187c9565b60405180910390fd5b600073ffffffffffffffffffffffffffffffffffffffff16600160008373ffffffffffffffffffffffffffffffffffffffff1673ffffffffffffffffffffffffffffffffffffffff16815260200190815260200160002060030160009054906101000a900473ffffffffffffffffffffffffffffffffffffffff1673ffffffffffffffffffffffffffffffffffffffff160361476d576040517f08c379a000000000000000000000000000000000000000000000000000000000815260040161476490618835565b60405180910390fd5b614850600160008373ffffffffffffffffffffffffffffffffffffffff1673ffffffffffffffffffffffffffffffffffffffff16815260200190815260200160002060010180546147bd90618884565b80601f01602080910402602001604051908101604052809291908181526020018280546147e990618884565b80156148365780601f1061480b57610100808354040283529160200191614836565b820191906000526020600020905b81548152906001019060200180831161481957829003601f168201915b505050505060405180602001604052806000815250614c38565b15614890576040517f08c379a000000000000000000000000000000000000000000000000000000000815260040161488790618901565b60405180910390fd5b61489b846000616a30565b9250925050915091565b33600073ffffffffffffffffffffffffffffffffffffffff16600360008373ffffffffffffffffffffffffffffffffffffffff1673ffffffffffffffffffffffffffffffffffffffff16815260200190815260200160002060020160009054906101000a900473ffffffffffffffffffffffffffffffffffffffff1673ffffffffffffffffffffffffffffffffffffffff1603614977576040517f08c379a000000000000000000000000000000000000000000000000000000000815260040161496e9061896d565b60405180910390fd5b8073ffffffffffffffffffffffffffffffffffffffff16600360008373ffffffffffffffffffffffffffffffffffffffff1673ffffffffffffffffffffffffffffffffffffffff16815260200190815260200160002060020160009054906101000a900473ffffffffffffffffffffffffffffffffffffffff1673ffffffffffffffffffffffffffffffffffffffff1614614a47576040517f08c379a0000000000000000000000000000000000000000000000000000000008152600401614a3e9061896d565b60405180910390fd5b60006001811115614a5b57614a5a617848565b5b600360008373ffffffffffffffffffffffffffffffffffffffff1673ffffffffffffffffffffffffffffffffffffffff16815260200190815260200160002060040160029054906101000a900460ff166001811115614abd57614abc617848565b5b14614afd576040517f08c379a0000000000000000000000000000000000000000000000000000000008152600401614af4906189d9565b60405180910390fd5b6000614b09338661528f565b9050614b14816152bb565b614b53576040517f08c379a0000000000000000000000000000000000000000000000000000000008152600401614b4a90619009565b60405180910390fd5b60008415614b765760019050614b68336171a7565b614b7186617294565b614b7b565b600290505b80600783604051614b8c9190618b0d565b908152602001604051809103902060070160006101000a81548160ff02191690836002811115614bbf57614bbe617848565b5b021790555083600783604051614bd59190618b0d565b90815260200160405180910390206008019081614bf29190618cd0565b507f900b83a690e29ff7d6e76e350983afea30403d6c47fe8ce52045fb20074c79a082873384604051614c289493929190619232565b60405180910390a1505050505050565b600081604051602001614c4b9190618b0d565b6040516020818303038152906040528051906020012083604051602001614c729190618b0d565b6040516020818303038152906040528051906020012014905092915050565b614c99617431565b600160008373ffffffffffffffffffffffffffffffffffffffff1673ffffffffffffffffffffffffffffffffffffffff1681526020019081526020016000206040518060e0016040529081600082018054614cf390618884565b80601f0160208091040260200160405190810160405280929190818152602001828054614d1f90618884565b8015614d6c5780601f10614d4157610100808354040283529160200191614d6c565b820191906000526020600020905b815481529060010190602001808311614d4f57829003601f168201915b50505050508152602001600182018054614d8590618884565b80601f0160208091040260200160405190810160405280929190818152602001828054614db190618884565b8015614dfe5780601f10614dd357610100808354040283529160200191614dfe565b820191906000526020600020905b815481529060010190602001808311614de157829003601f168201915b50505050508152602001600282015481526020016003820160009054906101000a900473ffffffffffffffffffffffffffffffffffffffff1673ffffffffffffffffffffffffffffffffffffffff1673ffffffffffffffffffffffffffffffffffffffff1681526020016004820160009054906101000a900473ffffffffffffffffffffffffffffffffffffffff1673ffffffffffffffffffffffffffffffffffffffff1673ffffffffffffffffffffffffffffffffffffffff168152602001600582018054614ecd90618884565b80601f0160208091040260200160405190810160405280929190818152602001828054614ef990618884565b8015614f465780601f10614f1b57610100808354040283529160200191614f46565b820191906000526020600020905b815481529060010190602001808311614f2957829003601f168201915b505050505081526020016006820154815250509050919050565b614f6861749a565b600073ffffffffffffffffffffffffffffffffffffffff168273ffffffffffffffffffffffffffffffffffffffff1603614fd7576040517f08c379a0000000000000000000000000000000000000000000000000000000008152600401614fce906192ca565b60405180910390fd5b600360008373ffffffffffffffffffffffffffffffffffffffff1673ffffffffffffffffffffffffffffffffffffffff1681526020019081526020016000206040518060c001604052908160008201805461503190618884565b80601f016020809104026020016040519081016040528092919081815260200182805461505d90618884565b80156150aa5780601f1061507f576101008083540402835291602001916150aa565b820191906000526020600020905b81548152906001019060200180831161508d57829003601f168201915b505050505081526020016001820180546150c390618884565b80601f01602080910402602001604051908101604052809291908181526020018280546150ef90618884565b801561513c5780601f106151115761010080835404028352916020019161513c565b820191906000526020600020905b81548152906001019060200180831161511f57829003601f168201915b505050505081526020016002820160009054906101000a900473ffffffffffffffffffffffffffffffffffffffff1673ffffffffffffffffffffffffffffffffffffffff1673ffffffffffffffffffffffffffffffffffffffff1681526020016003820180546151ab90618884565b80601f01602080910402602001604051908101604052809291908181526020018280546151d790618884565b80156152245780601f106151f957610100808354040283529160200191615224565b820191906000526020600020905b81548152906001019060200180831161520757829003601f168201915b505050505081526020016004820160009054906101000a900461ffff1661ffff1661ffff1681526020016004820160029054906101000a900460ff16600181111561527257615271617848565b5b600181111561528457615283617848565b5b815250509050919050565b606082826040516020016152a4929190619332565b604051602081830303815290604052905092915050565b60006152d68260405180602001604052806000815250614c38565b15615316576040517f08c379a000000000000000000000000000000000000000000000000000000000815260040161530d906193aa565b60405180910390fd5b6153c96007836040516153299190618b0d565b9081526020016040518091039020600001805461534590618884565b80601f016020809104026020016040519081016040528092919081815260200182805461537190618884565b80156153be5780601f10615393576101008083540402835291602001916153be565b820191906000526020600020905b8154815290600101906020018083116153a157829003601f168201915b505050505083614c38565b9050919050565b60008073ffffffffffffffffffffffffffffffffffffffff168273ffffffffffffffffffffffffffffffffffffffff1603615440576040517f08c379a000000000000000000000000000000000000000000000000000000000815260040161543790619416565b60405180910390fd5b600073ffffffffffffffffffffffffffffffffffffffff16600160008473ffffffffffffffffffffffffffffffffffffffff1673ffffffffffffffffffffffffffffffffffffffff16815260200190815260200160002060030160009054906101000a900473ffffffffffffffffffffffffffffffffffffffff1673ffffffffffffffffffffffffffffffffffffffff16141580156155bf57506155bd600160008473ffffffffffffffffffffffffffffffffffffffff1673ffffffffffffffffffffffffffffffffffffffff168152602001908152602001600020600101805461552a90618884565b80601f016020809104026020016040519081016040528092919081815260200182805461555690618884565b80156155a35780601f10615578576101008083540402835291602001916155a3565b820191906000526020600020905b81548152906001019060200180831161558657829003601f168201915b505050505060405180602001604052806000815250614c38565b155b156155c957600190505b919050565b600073ffffffffffffffffffffffffffffffffffffffff1660036000836040015173ffffffffffffffffffffffffffffffffffffffff1673ffffffffffffffffffffffffffffffffffffffff16815260200190815260200160002060020160009054906101000a900473ffffffffffffffffffffffffffffffffffffffff1673ffffffffffffffffffffffffffffffffffffffff16146156a3576040517f08c379a000000000000000000000000000000000000000000000000000000000815260040161569a90619482565b60405180910390fd5b8060036000836040015173ffffffffffffffffffffffffffffffffffffffff1673ffffffffffffffffffffffffffffffffffffffff16815260200190815260200160002060008201518160000190816156fc9190618cd0565b5060208201518160010190816157129190618cd0565b5060408201518160020160006101000a81548173ffffffffffffffffffffffffffffffffffffffff021916908373ffffffffffffffffffffffffffffffffffffffff160217905550606082015181600301908161576f9190618cd0565b5060808201518160040160006101000a81548161ffff021916908361ffff16021790555060a08201518160040160026101000a81548160ff021916908360018111156157be576157bd617848565b5b0217905550905050600281604001519080600181540180825580915050600190039060005260206000200160009091909190916101000a81548173ffffffffffffffffffffffffffffffffffffffff021916908373ffffffffffffffffffffffffffffffffffffffff1602179055507f17ee33cc6a54067d735ee1c9200fc0dc8354b1d7deae9908692bcd90723044b1816040015182600001518360200151846060015160405161587294939291906194a2565b60405180910390a150565b600073ffffffffffffffffffffffffffffffffffffffff16600360008573ffffffffffffffffffffffffffffffffffffffff1673ffffffffffffffffffffffffffffffffffffffff16815260200190815260200160002060020160009054906101000a900473ffffffffffffffffffffffffffffffffffffffff1673ffffffffffffffffffffffffffffffffffffffff160361594e576040517f08c379a00000000000000000000000000000000000000000000000000000000081526004016159459061896d565b60405180910390fd5b80600360008573ffffffffffffffffffffffffffffffffffffffff1673ffffffffffffffffffffffffffffffffffffffff168152602001908152602001600020600001908161599d9190618cd0565b5081600360008573ffffffffffffffffffffffffffffffffffffffff1673ffffffffffffffffffffffffffffffffffffffff16815260200190815260200160002060010190816159ed9190618cd0565b507fc0e694475d9755514453a459373ded91f1517029faca54000da1c3007ec2c4f9838284604051615a21939291906194fc565b60405180910390a1505050565b6000606060008311615a75576040517f08c379a0000000000000000000000000000000000000000000000000000000008152600401615a6c9061958d565b60405180910390fd5b600080600080615b0b876002805480602002602001604051908101604052809291908181526020018280548015615b0157602002820191906000526020600020905b8160009054906101000a900473ffffffffffffffffffffffffffffffffffffffff1673ffffffffffffffffffffffffffffffffffffffff1681526020019060010190808311615ab7575b5050505050617387565b935093509350935060008367ffffffffffffffff811115615b2f57615b2e617982565b5b604051908082528060200260200182016040528015615b6857816020015b615b5561749a565b815260200190600190039081615b4d5790505b50905060008390505b82811015615e99576003600060028381548110615b9157615b90618f17565b5b9060005260206000200160009054906101000a900473ffffffffffffffffffffffffffffffffffffffff1673ffffffffffffffffffffffffffffffffffffffff1673ffffffffffffffffffffffffffffffffffffffff1681526020019081526020016000206040518060c0016040529081600082018054615c1190618884565b80601f0160208091040260200160405190810160405280929190818152602001828054615c3d90618884565b8015615c8a5780601f10615c5f57610100808354040283529160200191615c8a565b820191906000526020600020905b815481529060010190602001808311615c6d57829003601f168201915b50505050508152602001600182018054615ca390618884565b80601f0160208091040260200160405190810160405280929190818152602001828054615ccf90618884565b8015615d1c5780601f10615cf157610100808354040283529160200191615d1c565b820191906000526020600020905b815481529060010190602001808311615cff57829003601f168201915b505050505081526020016002820160009054906101000a900473ffffffffffffffffffffffffffffffffffffffff1673ffffffffffffffffffffffffffffffffffffffff1673ffffffffffffffffffffffffffffffffffffffff168152602001600382018054615d8b90618884565b80601f0160208091040260200160405190810160405280929190818152602001828054615db790618884565b8015615e045780601f10615dd957610100808354040283529160200191615e04565b820191906000526020600020905b815481529060010190602001808311615de757829003601f168201915b505050505081526020016004820160009054906101000a900461ffff1661ffff1661ffff1681526020016004820160029054906101000a900460ff166001811115615e5257615e51617848565b5b6001811115615e6457615e63617848565b5b81525050828281518110615e7b57615e7a618f17565b5b60200260200101819052508080615e9190618f75565b915050615b71565b508481965096505050505050915091565b6000615eb4617431565b6000615ebe617431565b60005b85518110156161f5578673ffffffffffffffffffffffffffffffffffffffff16868281518110615ef457615ef3618f17565b5b602002602001015173ffffffffffffffffffffffffffffffffffffffff16036161e25760019250600160008873ffffffffffffffffffffffffffffffffffffffff1673ffffffffffffffffffffffffffffffffffffffff1681526020019081526020016000206040518060e0016040529081600082018054615f7590618884565b80601f0160208091040260200160405190810160405280929190818152602001828054615fa190618884565b8015615fee5780601f10615fc357610100808354040283529160200191615fee565b820191906000526020600020905b815481529060010190602001808311615fd157829003601f168201915b5050505050815260200160018201805461600790618884565b80601f016020809104026020016040519081016040528092919081815260200182805461603390618884565b80156160805780601f1061605557610100808354040283529160200191616080565b820191906000526020600020905b81548152906001019060200180831161606357829003601f168201915b50505050508152602001600282015481526020016003820160009054906101000a900473ffffffffffffffffffffffffffffffffffffffff1673ffffffffffffffffffffffffffffffffffffffff1673ffffffffffffffffffffffffffffffffffffffff1681526020016004820160009054906101000a900473ffffffffffffffffffffffffffffffffffffffff1673ffffffffffffffffffffffffffffffffffffffff1673ffffffffffffffffffffffffffffffffffffffff16815260200160058201805461614f90618884565b80601f016020809104026020016040519081016040528092919081815260200182805461617b90618884565b80156161c85780601f1061619d576101008083540402835291602001916161c8565b820191906000526020600020905b8154815290600101906020018083116161ab57829003601f168201915b5050505050815260200160068201548152505091506161f5565b80806161ed90618f75565b915050615ec1565b5081819350935050509250929050565b8060016000836060015173ffffffffffffffffffffffffffffffffffffffff1673ffffffffffffffffffffffffffffffffffffffff168152602001908152602001600020600082015181600001908161625e9190618cd0565b5060208201518160010190816162749190618cd0565b506040820151816002015560608201518160030160006101000a81548173ffffffffffffffffffffffffffffffffffffffff021916908373ffffffffffffffffffffffffffffffffffffffff16021790555060808201518160040160006101000a81548173ffffffffffffffffffffffffffffffffffffffff021916908373ffffffffffffffffffffffffffffffffffffffff16021790555060a08201518160050190816163229190618cd0565b5060c08201518160060155905050600081606001519080600181540180825580915050600190039060005260206000200160009091909190916101000a81548173ffffffffffffffffffffffffffffffffffffffff021916908373ffffffffffffffffffffffffffffffffffffffff1602179055507f77eacb4962819f791ebd2750d7be9519622ddcf4c37fe09c6fd33ace5ce32ccb8160600151826000015183602001516040516163d6939291906194fc565b60405180910390a150565b82600160003373ffffffffffffffffffffffffffffffffffffffff1673ffffffffffffffffffffffffffffffffffffffff16815260200190815260200160002060000190816164309190618cd0565b5081600160003373ffffffffffffffffffffffffffffffffffffffff1673ffffffffffffffffffffffffffffffffffffffff16815260200190815260200160002060010190816164809190618cd0565b5080600160003373ffffffffffffffffffffffffffffffffffffffff1673ffffffffffffffffffffffffffffffffffffffff168152602001908152602001600020600201819055507fcfc84fa73e8500b1f994b7616fda16714aa77352defd398c17f8dda41cc921953384846040516164fb939291906194fc565b60405180910390a1505050565b81600160003373ffffffffffffffffffffffffffffffffffffffff1673ffffffffffffffffffffffffffffffffffffffff16815260200190815260200160002060050190816165579190618cd0565b5080600160003373ffffffffffffffffffffffffffffffffffffffff1673ffffffffffffffffffffffffffffffffffffffff168152602001908152602001600020600601819055507f844d9124dad5a413c4b99664397291f93f1e89513cd8c3a68674c050283c556133600160003373ffffffffffffffffffffffffffffffffffffffff1673ffffffffffffffffffffffffffffffffffffffff16815260200190815260200160002060000184604051616613939291906195ad565b60405180910390a15050565b60008073ffffffffffffffffffffffffffffffffffffffff16600360008573ffffffffffffffffffffffffffffffffffffffff1673ffffffffffffffffffffffffffffffffffffffff16815260200190815260200160002060020160009054906101000a900473ffffffffffffffffffffffffffffffffffffffff1673ffffffffffffffffffffffffffffffffffffffff16036166f1576040517f08c379a00000000000000000000000000000000000000000000000000000000081526004016166e89061896d565b60405180910390fd5b818015616770575060018081111561670c5761670b617848565b5b600360008573ffffffffffffffffffffffffffffffffffffffff1673ffffffffffffffffffffffffffffffffffffffff16815260200190815260200160002060040160029054906101000a900460ff16600181111561676e5761676d617848565b5b145b15616863576000600360008573ffffffffffffffffffffffffffffffffffffffff1673ffffffffffffffffffffffffffffffffffffffff16815260200190815260200160002060040160026101000a81548160ff021916908360018111156167db576167da617848565b5b02179055507fbbb85d77e85c02977b28ba58175443b7d9c020551c53482ea6df5fe2e1cb884383600360008673ffffffffffffffffffffffffffffffffffffffff1673ffffffffffffffffffffffffffffffffffffffff1681526020019081526020016000206000016040516168529291906195f2565b60405180910390a160009050616a2a565b811580156168e45750600060018111156168805761687f617848565b5b600360008573ffffffffffffffffffffffffffffffffffffffff1673ffffffffffffffffffffffffffffffffffffffff16815260200190815260200160002060040160029054906101000a900460ff1660018111156168e2576168e1617848565b5b145b156169d7576001600360008573ffffffffffffffffffffffffffffffffffffffff1673ffffffffffffffffffffffffffffffffffffffff16815260200190815260200160002060040160026101000a81548160ff0219169083600181111561694f5761694e617848565b5b02179055507fe2914c072e85a93716aea3154e8dc2a6d4f9a823930697852b892fe10bd598f883600360008673ffffffffffffffffffffffffffffffffffffffff1673ffffffffffffffffffffffffffffffffffffffff1681526020019081526020016000206000016040516169c69291906195f2565b60405180910390a160019050616a2a565b600360008473ffffffffffffffffffffffffffffffffffffffff1673ffffffffffffffffffffffffffffffffffffffff16815260200190815260200160002060040160029054906101000a900460ff1690505b92915050565b6000606060008411616a77576040517f08c379a0000000000000000000000000000000000000000000000000000000008152600401616a6e9061966e565b60405180910390fd5b600080600080616b948888616aca57600960003373ffffffffffffffffffffffffffffffffffffffff1673ffffffffffffffffffffffffffffffffffffffff168152602001908152602001600020616b0a565b600860003373ffffffffffffffffffffffffffffffffffffffff1673ffffffffffffffffffffffffffffffffffffffff1681526020019081526020016000205b805480602002602001604051908101604052809291908181526020018280548015616b8a57602002820191906000526020600020905b8160009054906101000a900473ffffffffffffffffffffffffffffffffffffffff1673ffffffffffffffffffffffffffffffffffffffff1681526020019060010190808311616b40575b5050505050617387565b935093509350935060008367ffffffffffffffff811115616bb857616bb7617982565b5b604051908082528060200260200182016040528015616bf157816020015b616bde6174fc565b815260200190600190039081616bd65790505b50905060008390505b828110156171945788616cae576007616c8e600960003373ffffffffffffffffffffffffffffffffffffffff1673ffffffffffffffffffffffffffffffffffffffff1681526020019081526020016000208381548110616c5d57616c5c618f17565b5b9060005260206000200160009054906101000a900473ffffffffffffffffffffffffffffffffffffffff163361528f565b604051616c9b9190618b0d565b9081526020016040518091039020616d51565b6007616d3533600860003373ffffffffffffffffffffffffffffffffffffffff1673ffffffffffffffffffffffffffffffffffffffff1681526020019081526020016000208481548110616d0557616d04618f17565b5b9060005260206000200160009054906101000a900473ffffffffffffffffffffffffffffffffffffffff1661528f565b604051616d429190618b0d565b90815260200160405180910390205b60405180610140016040529081600082018054616d6d90618884565b80601f0160208091040260200160405190810160405280929190818152602001828054616d9990618884565b8015616de65780601f10616dbb57610100808354040283529160200191616de6565b820191906000526020600020905b815481529060010190602001808311616dc957829003601f168201915b505050505081526020016001820160009054906101000a900473ffffffffffffffffffffffffffffffffffffffff1673ffffffffffffffffffffffffffffffffffffffff1673ffffffffffffffffffffffffffffffffffffffff168152602001600282018054616e5590618884565b80601f0160208091040260200160405190810160405280929190818152602001828054616e8190618884565b8015616ece5780601f10616ea357610100808354040283529160200191616ece565b820191906000526020600020905b815481529060010190602001808311616eb157829003601f168201915b505050505081526020016003820160009054906101000a900473ffffffffffffffffffffffffffffffffffffffff1673ffffffffffffffffffffffffffffffffffffffff1673ffffffffffffffffffffffffffffffffffffffff168152602001600482018054616f3d90618884565b80601f0160208091040260200160405190810160405280929190818152602001828054616f6990618884565b8015616fb65780601f10616f8b57610100808354040283529160200191616fb6565b820191906000526020600020905b815481529060010190602001808311616f9957829003601f168201915b50505050508152602001600582018054616fcf90618884565b80601f0160208091040260200160405190810160405280929190818152602001828054616ffb90618884565b80156170485780601f1061701d57610100808354040283529160200191617048565b820191906000526020600020905b81548152906001019060200180831161702b57829003601f168201915b50505050508152602001600682015481526020016007820160009054906101000a900460ff1660028111156170805761707f617848565b5b600281111561709257617091617848565b5b81526020016007820160019054906101000a900460ff1660028111156170bb576170ba617848565b5b60028111156170cd576170cc617848565b5b81526020016008820180546170e190618884565b80601f016020809104026020016040519081016040528092919081815260200182805461710d90618884565b801561715a5780601f1061712f5761010080835404028352916020019161715a565b820191906000526020600020905b81548152906001019060200180831161713d57829003601f168201915b50505050508152505082828151811061717657617175618f17565b5b6020026020010181905250808061718c90618f75565b915050616bfa565b5084819650965050505050509250929050565b600073ffffffffffffffffffffffffffffffffffffffff168173ffffffffffffffffffffffffffffffffffffffff1603617216576040517f08c379a000000000000000000000000000000000000000000000000000000000815260040161720d9061896d565b60405180910390fd5b600360008273ffffffffffffffffffffffffffffffffffffffff1673ffffffffffffffffffffffffffffffffffffffff168152602001908152602001600020600401600081819054906101000a900461ffff16809291906172769061968e565b91906101000a81548161ffff021916908361ffff1602179055505050565b600073ffffffffffffffffffffffffffffffffffffffff168173ffffffffffffffffffffffffffffffffffffffff1603617303576040517f08c379a00000000000000000000000000000000000000000000000000000000081526004016172fa90619704565b60405180910390fd5b33600160008373ffffffffffffffffffffffffffffffffffffffff1673ffffffffffffffffffffffffffffffffffffffff16815260200190815260200160002060040160006101000a81548173ffffffffffffffffffffffffffffffffffffffff021916908373ffffffffffffffffffffffffffffffffffffffff16021790555050565b60008060008060006019865161739d9190619753565b9050601986516173ad9190619784565b945060008111156173c75784806173c390618f75565b9550505b601993506001876173d891906197b5565b60196173e491906197e9565b92508660196173f391906197e9565b91508487111561740a576000935060009150617427565b84871480156174195750600081115b1561742657809350855191505b5b5092959194509250565b6040518060e00160405280606081526020016060815260200160008152602001600073ffffffffffffffffffffffffffffffffffffffff168152602001600073ffffffffffffffffffffffffffffffffffffffff16815260200160608152602001600081525090565b6040518060c001604052806060815260200160608152602001600073ffffffffffffffffffffffffffffffffffffffff16815260200160608152602001600061ffff168152602001600060018111156174f6576174f5617848565b5b81525090565b60405180610140016040528060608152602001600073ffffffffffffffffffffffffffffffffffffffff16815260200160608152602001600073ffffffffffffffffffffffffffffffffffffffff1681526020016060815260200160608152602001600081526020016000600281111561757957617578617848565b5b81526020016000600281111561759257617591617848565b5b8152602001606081525090565b6040518060a001604052806060815260200160608152602001600073ffffffffffffffffffffffffffffffffffffffff168152602001600060028111156175e9576175e8617848565b5b81526020016000600181111561760257617601617848565b5b81525090565b6000604051905090565b600080fd5b600080fd5b600073ffffffffffffffffffffffffffffffffffffffff82169050919050565b60006176478261761c565b9050919050565b6176578161763c565b811461766257600080fd5b50565b6000813590506176748161764e565b92915050565b6000602082840312156176905761768f617612565b5b600061769e84828501617665565b91505092915050565b600081519050919050565b600082825260208201905092915050565b60005b838110156176e15780820151818401526020810190506176c6565b60008484015250505050565b6000601f19601f8301169050919050565b6000617709826176a7565b61771381856176b2565b93506177238185602086016176c3565b61772c816176ed565b840191505092915050565b6000819050919050565b61774a81617737565b82525050565b6177598161763c565b82525050565b600060e083016000830151848203600086015261777c82826176fe565b9150506020830151848203602086015261779682826176fe565b91505060408301516177ab6040860182617741565b5060608301516177be6060860182617750565b5060808301516177d16080860182617750565b5060a083015184820360a08601526177e982826176fe565b91505060c08301516177fe60c0860182617741565b508091505092915050565b60006020820190508181036000830152617823818461775f565b905092915050565b600061ffff82169050919050565b6178428161782b565b82525050565b7f4e487b7100000000000000000000000000000000000000000000000000000000600052602160045260246000fd5b6002811061788857617887617848565b5b50565b600081905061789982617877565b919050565b60006178a98261788b565b9050919050565b6178b98161789e565b82525050565b600060c08301600083015184820360008601526178dc82826176fe565b915050602083015184820360208601526178f682826176fe565b915050604083015161790b6040860182617750565b506060830151848203606086015261792382826176fe565b91505060808301516179386080860182617839565b5060a083015161794b60a08601826178b0565b508091505092915050565b6000602082019050818103600083015261797081846178bf565b905092915050565b600080fd5b600080fd5b7f4e487b7100000000000000000000000000000000000000000000000000000000600052604160045260246000fd5b6179ba826176ed565b810181811067ffffffffffffffff821117156179d9576179d8617982565b5b80604052505050565b60006179ec617608565b90506179f882826179b1565b919050565b600067ffffffffffffffff821115617a1857617a17617982565b5b617a21826176ed565b9050602081019050919050565b82818337600083830152505050565b6000617a50617a4b846179fd565b6179e2565b905082815260208101848484011115617a6c57617a6b61797d565b5b617a77848285617a2e565b509392505050565b600082601f830112617a9457617a93617978565b5b8135617aa4848260208601617a3d565b91505092915050565b60008060408385031215617ac457617ac3617612565b5b6000617ad285828601617665565b925050602083013567ffffffffffffffff811115617af357617af2617617565b5b617aff85828601617a7f565b9150509250929050565b600080fd5b600080fd5b617b1c8161782b565b8114617b2757600080fd5b50565b600081359050617b3981617b13565b92915050565b60028110617b4c57600080fd5b50565b600081359050617b5e81617b3f565b92915050565b600060c08284031215617b7a57617b79617b09565b5b617b8460c06179e2565b9050600082013567ffffffffffffffff811115617ba457617ba3617b0e565b5b617bb084828501617a7f565b600083015250602082013567ffffffffffffffff811115617bd457617bd3617b0e565b5b617be084828501617a7f565b6020830152506040617bf484828501617665565b604083015250606082013567ffffffffffffffff811115617c1857617c17617b0e565b5b617c2484828501617a7f565b6060830152506080617c3884828501617b2a565b60808301525060a0617c4c84828501617b4f565b60a08301525092915050565b600060208284031215617c6e57617c6d617612565b5b600082013567ffffffffffffffff811115617c8c57617c8b617617565b5b617c9884828501617b64565b91505092915050565b60008115159050919050565b617cb681617ca1565b82525050565b60038110617ccd57617ccc617848565b5b50565b6000819050617cde82617cbc565b919050565b6000617cee82617cd0565b9050919050565b617cfe81617ce3565b82525050565b60038110617d1557617d14617848565b5b50565b6000819050617d2682617d04565b919050565b6000617d3682617d18565b9050919050565b617d4681617d2b565b82525050565b6000610140830160008301518482036000860152617d6a82826176fe565b9150506020830151617d7f6020860182617750565b5060408301518482036040860152617d9782826176fe565b9150506060830151617dac6060860182617750565b5060808301518482036080860152617dc482826176fe565b91505060a083015184820360a0860152617dde82826176fe565b91505060c0830151617df360c0860182617741565b5060e0830151617e0660e0860182617cf5565b50610100830151617e1b610100860182617d3d565b50610120830151848203610120860152617e3582826176fe565b9150508091505092915050565b6000606082019050617e576000830186617cad565b8181036020830152617e6981856178bf565b90508181036040830152617e7d8184617d4c565b9050949350505050565b617e9081617ca1565b8114617e9b57600080fd5b50565b600081359050617ead81617e87565b92915050565b600080600060608486031215617ecc57617ecb617612565b5b6000617eda86828701617665565b9350506020617eeb86828701617e9e565b925050604084013567ffffffffffffffff811115617f0c57617f0b617617565b5b617f1886828701617a7f565b9150509250925092565b600080600060608486031215617f3b57617f3a617612565b5b6000617f4986828701617665565b935050602084013567ffffffffffffffff811115617f6a57617f69617617565b5b617f7686828701617a7f565b925050604084013567ffffffffffffffff811115617f9757617f96617617565b5b617fa386828701617a7f565b9150509250925092565b617fb681617737565b8114617fc157600080fd5b50565b600081359050617fd381617fad565b92915050565b600060208284031215617fef57617fee617612565b5b6000617ffd84828501617fc4565b91505092915050565b61800f81617737565b82525050565b600081519050919050565b600082825260208201905092915050565b6000819050602082019050919050565b600060c083016000830151848203600086015261805e82826176fe565b9150506020830151848203602086015261807882826176fe565b915050604083015161808d6040860182617750565b50606083015184820360608601526180a582826176fe565b91505060808301516180ba6080860182617839565b5060a08301516180cd60a08601826178b0565b508091505092915050565b60006180e48383618041565b905092915050565b6000602082019050919050565b600061810482618015565b61810e8185618020565b93508360208202850161812085618031565b8060005b8581101561815c578484038952815161813d85826180d8565b9450618148836180ec565b925060208a01995050600181019050618124565b50829750879550505050505092915050565b60006040820190506181836000830185618006565b818103602083015261819581846180f9565b90509392505050565b60006060820190506181b36000830186617cad565b81810360208301526181c5818561775f565b905081810360408301526181d98184617d4c565b9050949350505050565b600060e082840312156181f9576181f8617b09565b5b61820360e06179e2565b9050600082013567ffffffffffffffff81111561822357618222617b0e565b5b61822f84828501617a7f565b600083015250602082013567ffffffffffffffff81111561825357618252617b0e565b5b61825f84828501617a7f565b602083015250604061827384828501617fc4565b604083015250606061828784828501617665565b606083015250608061829b84828501617665565b60808301525060a082013567ffffffffffffffff8111156182bf576182be617b0e565b5b6182cb84828501617a7f565b60a08301525060c06182df84828501617fc4565b60c08301525092915050565b60008060006060848603121561830457618303617612565b5b600084013567ffffffffffffffff81111561832257618321617617565b5b61832e868287016181e3565b935050602061833f86828701617fc4565b925050604084013567ffffffffffffffff8111156183605761835f617617565b5b61836c86828701617a7f565b9150509250925092565b60008060006060848603121561838f5761838e617612565b5b600084013567ffffffffffffffff8111156183ad576183ac617617565b5b6183b986828701617a7f565b935050602084013567ffffffffffffffff8111156183da576183d9617617565b5b6183e686828701617a7f565b92505060406183f786828701617fc4565b9150509250925092565b6000806040838503121561841857618417617612565b5b600083013567ffffffffffffffff81111561843657618435617617565b5b61844285828601617a7f565b925050602061845385828601617fc4565b9150509250929050565b6000806040838503121561847457618473617612565b5b600061848285828601617665565b925050602061849385828601617e9e565b9150509250929050565b600081519050919050565b600082825260208201905092915050565b6000819050602082019050919050565b60006101408301600083015184820360008601526184e782826176fe565b91505060208301516184fc6020860182617750565b506040830151848203604086015261851482826176fe565b91505060608301516185296060860182617750565b506080830151848203608086015261854182826176fe565b91505060a083015184820360a086015261855b82826176fe565b91505060c083015161857060c0860182617741565b5060e083015161858360e0860182617cf5565b50610100830151618598610100860182617d3d565b506101208301518482036101208601526185b282826176fe565b9150508091505092915050565b60006185cb83836184c9565b905092915050565b6000602082019050919050565b60006185eb8261849d565b6185f581856184a8565b935083602082028501618607856184b9565b8060005b85811015618643578484038952815161862485826185bf565b945061862f836185d3565b925060208a0199505060018101905061860b565b50829750879550505050505092915050565b600060408201905061866a6000830185618006565b818103602083015261867c81846185e0565b90509392505050565b6003811061869657618695617848565b5b50565b60008190506186a782618685565b919050565b60006186b782618699565b9050919050565b6186c7816186ac565b82525050565b600060a08301600083015184820360008601526186ea82826176fe565b9150506020830151848203602086015261870482826176fe565b91505060408301516187196040860182617750565b50606083015161872c60608601826186be565b50608083015161873f60808601826178b0565b508091505092915050565b6000602082019050818103600083015261876481846186cd565b905092915050565b600082825260208201905092915050565b7f496420697320456d707479000000000000000000000000000000000000000000600082015250565b60006187b3600b8361876c565b91506187be8261877d565b602082019050919050565b600060208201905081810360008301526187e2816187a6565b9050919050565b7f5573657220496420456d70747900000000000000000000000000000000000000600082015250565b600061881f600d8361876c565b915061882a826187e9565b602082019050919050565b6000602082019050818103600083015261884e81618812565b9050919050565b7f4e487b7100000000000000000000000000000000000000000000000000000000600052602260045260246000fd5b6000600282049050600182168061889c57607f821691505b6020821081036188af576188ae618855565b5b50919050565b7f5573657220456d61696c20456d70747900000000000000000000000000000000600082015250565b60006188eb60108361876c565b91506188f6826188b5565b602082019050919050565b6000602082019050818103600083015261891a816188de565b9050919050565b7f42616e6b206e6f7420666f756e64000000000000000000000000000000000000600082015250565b6000618957600e8361876c565b915061896282618921565b602082019050919050565b600060208201905081810360008301526189868161894a565b9050919050565b7f42616e6b206973206e6f74206163746976650000000000000000000000000000600082015250565b60006189c360128361876c565b91506189ce8261898d565b602082019050919050565b600060208201905081810360008301526189f2816189b6565b9050919050565b7f4b594320726571206e6f7420666f756e64000000000000000000000000000000600082015250565b6000618a2f60118361876c565b9150618a3a826189f9565b602082019050919050565b60006020820190508181036000830152618a5e81618a22565b9050919050565b7f55736572206e6f7420666f756e64000000000000000000000000000000000000600082015250565b6000618a9b600e8361876c565b9150618aa682618a65565b602082019050919050565b60006020820190508181036000830152618aca81618a8e565b9050919050565b600081905092915050565b6000618ae7826176a7565b618af18185618ad1565b9350618b018185602086016176c3565b80840191505092915050565b6000618b198284618adc565b915081905092915050565b60008190508160005260206000209050919050565b60006020601f8301049050919050565b600082821b905092915050565b600060088302618b867fffffffffffffffffffffffffffffffffffffffffffffffffffffffffffffffff82618b49565b618b908683618b49565b95508019841693508086168417925050509392505050565b6000819050919050565b6000618bcd618bc8618bc384617737565b618ba8565b617737565b9050919050565b6000819050919050565b618be783618bb2565b618bfb618bf382618bd4565b848454618b56565b825550505050565b600090565b618c10618c03565b618c1b818484618bde565b505050565b5b81811015618c3f57618c34600082618c08565b600181019050618c21565b5050565b601f821115618c8457618c5581618b24565b618c5e84618b39565b81016020851015618c6d578190505b618c81618c7985618b39565b830182618c20565b50505b505050565b600082821c905092915050565b6000618ca760001984600802618c89565b1980831691505092915050565b6000618cc08383618c96565b9150826002028217905092915050565b618cd9826176a7565b67ffffffffffffffff811115618cf257618cf1617982565b5b618cfc8254618884565b618d07828285618c43565b600060209050601f831160018114618d3a5760008415618d28578287015190505b618d328582618cb4565b865550618d9a565b601f198416618d4886618b24565b60005b82811015618d7057848901518255600182019150602085019450602081019050618d4b565b86831015618d8d5784890151618d89601f891682618c96565b8355505b6001600288020188555050505b505050505050565b6000618dad826176a7565b618db7818561876c565b9350618dc78185602086016176c3565b618dd0816176ed565b840191505092915050565b60008154618de881618884565b618df2818661876c565b94506001821660008114618e0d5760018114618e2357618e56565b60ff198316865281151560200286019350618e56565b618e2c85618b24565b60005b83811015618e4e57815481890152600182019150602081019050618e2f565b808801955050505b50505092915050565b60006060820190508181036000830152618e798186618da2565b90508181036020830152618e8d8185618ddb565b90508181036040830152618ea18184618ddb565b9050949350505050565b7f4f6e6c792061646d696e20697320616c6c6f7765640000000000000000000000600082015250565b6000618ee160158361876c565b9150618eec82618eab565b602082019050919050565b60006020820190508181036000830152618f1081618ed4565b9050919050565b7f4e487b7100000000000000000000000000000000000000000000000000000000600052603260045260246000fd5b7f4e487b7100000000000000000000000000000000000000000000000000000000600052601160045260246000fd5b6000618f8082617737565b91507fffffffffffffffffffffffffffffffffffffffffffffffffffffffffffffffff8203618fb257618fb1618f46565b5b600182019050919050565b7f5573657220646f65736e27742068617665204b59432072657100000000000000600082015250565b6000618ff360198361876c565b9150618ffe82618fbd565b602082019050919050565b6000602082019050818103600083015261902281618fe6565b9050919050565b6190328161763c565b82525050565b61904181617d2b565b82525050565b600060808201905081810360008301526190618187618da2565b90506190706020830186619029565b61907d6040830185619029565b61908a6060830184619038565b95945050505050565b7f5065726d697373696f6e206e6f7420666f756e64000000000000000000000000600082015250565b60006190c960148361876c565b91506190d482619093565b602082019050919050565b600060208201905081810360008301526190f8816190bc565b9050919050565b7f5573657220686164206b7963207265712e000000000000000000000000000000600082015250565b600061913560118361876c565b9150619140826190ff565b602082019050919050565b6000602082019050818103600083015261916481619128565b9050919050565b600060608201905081810360008301526191858186618da2565b905081810360208301526191998185618ddb565b905081810360408301526191ad8184618da2565b9050949350505050565b7f53656e64657220496420456d7074790000000000000000000000000000000000600082015250565b60006191ed600f8361876c565b91506191f8826191b7565b602082019050919050565b6000602082019050818103600083015261921c816191e0565b9050919050565b61922c81617ce3565b82525050565b6000608082019050818103600083015261924c8187618da2565b905061925b6020830186619029565b6192686040830185619029565b6192756060830184619223565b95945050505050565b7f42616e6b20496420456d70747900000000000000000000000000000000000000600082015250565b60006192b4600d8361876c565b91506192bf8261927e565b602082019050919050565b600060208201905081810360008301526192e3816192a7565b9050919050565b60008160601b9050919050565b6000619302826192ea565b9050919050565b6000619314826192f7565b9050919050565b61932c6193278261763c565b619309565b82525050565b600061933e828561931b565b60148201915061934e828461931b565b6014820191508190509392505050565b7f5265717565737420496420656d70747900000000000000000000000000000000600082015250565b600061939460108361876c565b915061939f8261935e565b602082019050919050565b600060208201905081810360008301526193c381619387565b9050919050565b7f496420697320656d707479000000000000000000000000000000000000000000600082015250565b6000619400600b8361876c565b915061940b826193ca565b602082019050919050565b6000602082019050818103600083015261942f816193f3565b9050919050565b7f42616e6b20657869737473000000000000000000000000000000000000000000600082015250565b600061946c600b8361876c565b915061947782619436565b602082019050919050565b6000602082019050818103600083015261949b8161945f565b9050919050565b60006080820190506194b76000830187619029565b81810360208301526194c98186618da2565b905081810360408301526194dd8185618da2565b905081810360608301526194f18184618da2565b905095945050505050565b60006060820190506195116000830186619029565b81810360208301526195238185618da2565b905081810360408301526195378184618da2565b9050949350505050565b7f504e2073686f756c64206265203e203000000000000000000000000000000000600082015250565b600061957760108361876c565b915061958282619541565b602082019050919050565b600060208201905081810360008301526195a68161956a565b9050919050565b60006060820190506195c26000830186619029565b81810360208301526195d48185618ddb565b905081810360408301526195e88184618da2565b9050949350505050565b60006040820190506196076000830185619029565b81810360208301526196198184618ddb565b90509392505050565b7f504e2073686f756c64206265203e207a65726f00000000000000000000000000600082015250565b600061965860138361876c565b915061966382619622565b602082019050919050565b600060208201905081810360008301526196878161964b565b9050919050565b60006196998261782b565b915061ffff82036196ad576196ac618f46565b5b600182019050919050565b7f437573746f6d657220496420456d707479000000000000000000000000000000600082015250565b60006196ee60118361876c565b91506196f9826196b8565b602082019050919050565b6000602082019050818103600083015261971d816196e1565b9050919050565b7f4e487b7100000000000000000000000000000000000000000000000000000000600052601260045260246000fd5b600061975e82617737565b915061976983617737565b92508261977957619778619724565b5b828206905092915050565b600061978f82617737565b915061979a83617737565b9250826197aa576197a9619724565b5b828204905092915050565b60006197c082617737565b91506197cb83617737565b92508282039050818111156197e3576197e2618f46565b5b92915050565b60006197f482617737565b91506197ff83617737565b925082820261980d81617737565b9150828204841483151761982457619823618f46565b5b509291505056fea2646970667358221220519f71db6c1063127d65826dddfb2159916bc758685e8c973033fe248316f8c164736f6c63430008120033",
		"opcodes": "PUSH1 0x80 PUSH1 0x40 MSTORE CALLVALUE DUP1 ISZERO PUSH2 0x10 JUMPI PUSH1 0x0 DUP1 REVERT JUMPDEST POP PUSH1 0x4 CALLDATASIZE LT PUSH2 0x116 JUMPI PUSH1 0x0 CALLDATALOAD PUSH1 0xE0 SHR DUP1 PUSH4 0x5F4D6DDF GT PUSH2 0xA2 JUMPI DUP1 PUSH4 0xB374A7DD GT PUSH2 0x71 JUMPI DUP1 PUSH4 0xB374A7DD EQ PUSH2 0x2F0 JUMPI DUP1 PUSH4 0xBAA2B9FD EQ PUSH2 0x30C JUMPI DUP1 PUSH4 0xDA91254C EQ PUSH2 0x33D JUMPI DUP1 PUSH4 0xDBC671D0 EQ PUSH2 0x35B JUMPI DUP1 PUSH4 0xDC57D07E EQ PUSH2 0x38C JUMPI PUSH2 0x116 JUMP JUMPDEST DUP1 PUSH4 0x5F4D6DDF EQ PUSH2 0x26A JUMPI DUP1 PUSH4 0x77FA069C EQ PUSH2 0x29C JUMPI DUP1 PUSH4 0x7C1D6197 EQ PUSH2 0x2B8 JUMPI DUP1 PUSH4 0x8915FB0C EQ PUSH2 0x2D4 JUMPI PUSH2 0x116 JUMP JUMPDEST DUP1 PUSH4 0x2CE23ACB GT PUSH2 0xE9 JUMPI DUP1 PUSH4 0x2CE23ACB EQ PUSH2 0x1B3 JUMPI DUP1 PUSH4 0x34B52411 EQ PUSH2 0x1E5 JUMPI DUP1 PUSH4 0x369BA32B EQ PUSH2 0x201 JUMPI DUP1 PUSH4 0x3F2C0E96 EQ PUSH2 0x21D JUMPI DUP1 PUSH4 0x4D82D8E8 EQ PUSH2 0x239 JUMPI PUSH2 0x116 JUMP JUMPDEST DUP1 PUSH4 0xC60F83D EQ PUSH2 0x11B JUMPI DUP1 PUSH4 0x15101E02 EQ PUSH2 0x14B JUMPI DUP1 PUSH4 0x1BDD5A0F EQ PUSH2 0x17B JUMPI DUP1 PUSH4 0x2283DB9C EQ PUSH2 0x197 JUMPI JUMPDEST PUSH1 0x0 DUP1 REVERT JUMPDEST PUSH2 0x135 PUSH1 0x4 DUP1 CALLDATASIZE SUB DUP2 ADD SWAP1 PUSH2 0x130 SWAP2 SWAP1 PUSH2 0x767A JUMP JUMPDEST PUSH2 0x3A8 JUMP JUMPDEST PUSH1 0x40 MLOAD PUSH2 0x142 SWAP2 SWAP1 PUSH2 0x7809 JUMP JUMPDEST PUSH1 0x40 MLOAD DUP1 SWAP2 SUB SWAP1 RETURN JUMPDEST PUSH2 0x165 PUSH1 0x4 DUP1 CALLDATASIZE SUB DUP2 ADD SWAP1 PUSH2 0x160 SWAP2 SWAP1 PUSH2 0x767A JUMP JUMPDEST PUSH2 0x625 JUMP JUMPDEST PUSH1 0x40 MLOAD PUSH2 0x172 SWAP2 SWAP1 PUSH2 0x7956 JUMP JUMPDEST PUSH1 0x40 MLOAD DUP1 SWAP2 SUB SWAP1 RETURN JUMPDEST PUSH2 0x195 PUSH1 0x4 DUP1 CALLDATASIZE SUB DUP2 ADD SWAP1 PUSH2 0x190 SWAP2 SWAP1 PUSH2 0x7AAD JUMP JUMPDEST PUSH2 0x896 JUMP JUMPDEST STOP JUMPDEST PUSH2 0x1B1 PUSH1 0x4 DUP1 CALLDATASIZE SUB DUP2 ADD SWAP1 PUSH2 0x1AC SWAP2 SWAP1 PUSH2 0x7C58 JUMP JUMPDEST PUSH2 0xC86 JUMP JUMPDEST STOP JUMPDEST PUSH2 0x1CD PUSH1 0x4 DUP1 CALLDATASIZE SUB DUP2 ADD SWAP1 PUSH2 0x1C8 SWAP2 SWAP1 PUSH2 0x767A JUMP JUMPDEST PUSH2 0xF11 JUMP JUMPDEST PUSH1 0x40 MLOAD PUSH2 0x1DC SWAP4 SWAP3 SWAP2 SWAP1 PUSH2 0x7E42 JUMP JUMPDEST PUSH1 0x40 MLOAD DUP1 SWAP2 SUB SWAP1 RETURN JUMPDEST PUSH2 0x1FF PUSH1 0x4 DUP1 CALLDATASIZE SUB DUP2 ADD SWAP1 PUSH2 0x1FA SWAP2 SWAP1 PUSH2 0x7EB3 JUMP JUMPDEST PUSH2 0x198B JUMP JUMPDEST STOP JUMPDEST PUSH2 0x21B PUSH1 0x4 DUP1 CALLDATASIZE SUB DUP2 ADD SWAP1 PUSH2 0x216 SWAP2 SWAP1 PUSH2 0x7F22 JUMP JUMPDEST PUSH2 0x1F71 JUMP JUMPDEST STOP JUMPDEST PUSH2 0x237 PUSH1 0x4 DUP1 CALLDATASIZE SUB DUP2 ADD SWAP1 PUSH2 0x232 SWAP2 SWAP1 PUSH2 0x7AAD JUMP JUMPDEST PUSH2 0x20B1 JUMP JUMPDEST STOP JUMPDEST PUSH2 0x253 PUSH1 0x4 DUP1 CALLDATASIZE SUB DUP2 ADD SWAP1 PUSH2 0x24E SWAP2 SWAP1 PUSH2 0x7FD9 JUMP JUMPDEST PUSH2 0x2428 JUMP JUMPDEST PUSH1 0x40 MLOAD PUSH2 0x261 SWAP3 SWAP2 SWAP1 PUSH2 0x816E JUMP JUMPDEST PUSH1 0x40 MLOAD DUP1 SWAP2 SUB SWAP1 RETURN JUMPDEST PUSH2 0x284 PUSH1 0x4 DUP1 CALLDATASIZE SUB DUP2 ADD SWAP1 PUSH2 0x27F SWAP2 SWAP1 PUSH2 0x767A JUMP JUMPDEST PUSH2 0x24CE JUMP JUMPDEST PUSH1 0x40 MLOAD PUSH2 0x293 SWAP4 SWAP3 SWAP2 SWAP1 PUSH2 0x819E JUMP JUMPDEST PUSH1 0x40 MLOAD DUP1 SWAP2 SUB SWAP1 RETURN JUMPDEST PUSH2 0x2B6 PUSH1 0x4 DUP1 CALLDATASIZE SUB DUP2 ADD SWAP1 PUSH2 0x2B1 SWAP2 SWAP1 PUSH2 0x82EB JUMP JUMPDEST PUSH2 0x2EDA JUMP JUMPDEST STOP JUMPDEST PUSH2 0x2D2 PUSH1 0x4 DUP1 CALLDATASIZE SUB DUP2 ADD SWAP1 PUSH2 0x2CD SWAP2 SWAP1 PUSH2 0x8376 JUMP JUMPDEST PUSH2 0x377D JUMP JUMPDEST STOP JUMPDEST PUSH2 0x2EE PUSH1 0x4 DUP1 CALLDATASIZE SUB DUP2 ADD SWAP1 PUSH2 0x2E9 SWAP2 SWAP1 PUSH2 0x8401 JUMP JUMPDEST PUSH2 0x3A92 JUMP JUMPDEST STOP JUMPDEST PUSH2 0x30A PUSH1 0x4 DUP1 CALLDATASIZE SUB DUP2 ADD SWAP1 PUSH2 0x305 SWAP2 SWAP1 PUSH2 0x845D JUMP JUMPDEST PUSH2 0x3F29 JUMP JUMPDEST STOP JUMPDEST PUSH2 0x326 PUSH1 0x4 DUP1 CALLDATASIZE SUB DUP2 ADD SWAP1 PUSH2 0x321 SWAP2 SWAP1 PUSH2 0x7FD9 JUMP JUMPDEST PUSH2 0x4030 JUMP JUMPDEST PUSH1 0x40 MLOAD PUSH2 0x334 SWAP3 SWAP2 SWAP1 PUSH2 0x8655 JUMP JUMPDEST PUSH1 0x40 MLOAD DUP1 SWAP2 SUB SWAP1 RETURN JUMPDEST PUSH2 0x345 PUSH2 0x42A1 JUMP JUMPDEST PUSH1 0x40 MLOAD PUSH2 0x352 SWAP2 SWAP1 PUSH2 0x874A JUMP JUMPDEST PUSH1 0x40 MLOAD DUP1 SWAP2 SUB SWAP1 RETURN JUMPDEST PUSH2 0x375 PUSH1 0x4 DUP1 CALLDATASIZE SUB DUP2 ADD SWAP1 PUSH2 0x370 SWAP2 SWAP1 PUSH2 0x7FD9 JUMP JUMPDEST PUSH2 0x4628 JUMP JUMPDEST PUSH1 0x40 MLOAD PUSH2 0x383 SWAP3 SWAP2 SWAP1 PUSH2 0x8655 JUMP JUMPDEST PUSH1 0x40 MLOAD DUP1 SWAP2 SUB SWAP1 RETURN JUMPDEST PUSH2 0x3A6 PUSH1 0x4 DUP1 CALLDATASIZE SUB DUP2 ADD SWAP1 PUSH2 0x3A1 SWAP2 SWAP1 PUSH2 0x7EB3 JUMP JUMPDEST PUSH2 0x48A5 JUMP JUMPDEST STOP JUMPDEST PUSH2 0x3B0 PUSH2 0x7431 JUMP JUMPDEST DUP2 PUSH1 0x0 PUSH20 0xFFFFFFFFFFFFFFFFFFFFFFFFFFFFFFFFFFFFFFFF AND DUP2 PUSH20 0xFFFFFFFFFFFFFFFFFFFFFFFFFFFFFFFFFFFFFFFF AND SUB PUSH2 0x420 JUMPI PUSH1 0x40 MLOAD PUSH32 0x8C379A000000000000000000000000000000000000000000000000000000000 DUP2 MSTORE PUSH1 0x4 ADD PUSH2 0x417 SWAP1 PUSH2 0x87C9 JUMP JUMPDEST PUSH1 0x40 MLOAD DUP1 SWAP2 SUB SWAP1 REVERT JUMPDEST PUSH1 0x0 PUSH20 0xFFFFFFFFFFFFFFFFFFFFFFFFFFFFFFFFFFFFFFFF AND PUSH1 0x1 PUSH1 0x0 DUP4 PUSH20 0xFFFFFFFFFFFFFFFFFFFFFFFFFFFFFFFFFFFFFFFF AND PUSH20 0xFFFFFFFFFFFFFFFFFFFFFFFFFFFFFFFFFFFFFFFF AND DUP2 MSTORE PUSH1 0x20 ADD SWAP1 DUP2 MSTORE PUSH1 0x20 ADD PUSH1 0x0 KECCAK256 PUSH1 0x3 ADD PUSH1 0x0 SWAP1 SLOAD SWAP1 PUSH2 0x100 EXP SWAP1 DIV PUSH20 0xFFFFFFFFFFFFFFFFFFFFFFFFFFFFFFFFFFFFFFFF AND PUSH20 0xFFFFFFFFFFFFFFFFFFFFFFFFFFFFFFFFFFFFFFFF AND SUB PUSH2 0x4F1 JUMPI PUSH1 0x40 MLOAD PUSH32 0x8C379A000000000000000000000000000000000000000000000000000000000 DUP2 MSTORE PUSH1 0x4 ADD PUSH2 0x4E8 SWAP1 PUSH2 0x8835 JUMP JUMPDEST PUSH1 0x40 MLOAD DUP1 SWAP2 SUB SWAP1 REVERT JUMPDEST PUSH2 0x5D4 PUSH1 0x1 PUSH1 0x0 DUP4 PUSH20 0xFFFFFFFFFFFFFFFFFFFFFFFFFFFFFFFFFFFFFFFF AND PUSH20 0xFFFFFFFFFFFFFFFFFFFFFFFFFFFFFFFFFFFFFFFF AND DUP2 MSTORE PUSH1 0x20 ADD SWAP1 DUP2 MSTORE PUSH1 0x20 ADD PUSH1 0x0 KECCAK256 PUSH1 0x1 ADD DUP1 SLOAD PUSH2 0x541 SWAP1 PUSH2 0x8884 JUMP JUMPDEST DUP1 PUSH1 0x1F ADD PUSH1 0x20 DUP1 SWAP2 DIV MUL PUSH1 0x20 ADD PUSH1 0x40 MLOAD SWAP1 DUP2 ADD PUSH1 0x40 MSTORE DUP1 SWAP3 SWAP2 SWAP1 DUP2 DUP2 MSTORE PUSH1 0x20 ADD DUP3 DUP1 SLOAD PUSH2 0x56D SWAP1 PUSH2 0x8884 JUMP JUMPDEST DUP1 ISZERO PUSH2 0x5BA JUMPI DUP1 PUSH1 0x1F LT PUSH2 0x58F JUMPI PUSH2 0x100 DUP1 DUP4 SLOAD DIV MUL DUP4 MSTORE SWAP2 PUSH1 0x20 ADD SWAP2 PUSH2 0x5BA JUMP JUMPDEST DUP3 ADD SWAP2 SWAP1 PUSH1 0x0 MSTORE PUSH1 0x20 PUSH1 0x0 KECCAK256 SWAP1 JUMPDEST DUP2 SLOAD DUP2 MSTORE SWAP1 PUSH1 0x1 ADD SWAP1 PUSH1 0x20 ADD DUP1 DUP4 GT PUSH2 0x59D JUMPI DUP3 SWAP1 SUB PUSH1 0x1F AND DUP3 ADD SWAP2 JUMPDEST POP POP POP POP POP PUSH1 0x40 MLOAD DUP1 PUSH1 0x20 ADD PUSH1 0x40 MSTORE DUP1 PUSH1 0x0 DUP2 MSTORE POP PUSH2 0x4C38 JUMP JUMPDEST ISZERO PUSH2 0x614 JUMPI PUSH1 0x40 MLOAD PUSH32 0x8C379A000000000000000000000000000000000000000000000000000000000 DUP2 MSTORE PUSH1 0x4 ADD PUSH2 0x60B SWAP1 PUSH2 0x8901 JUMP JUMPDEST PUSH1 0x40 MLOAD DUP1 SWAP2 SUB SWAP1 REVERT JUMPDEST PUSH2 0x61D DUP4 PUSH2 0x4C91 JUMP JUMPDEST SWAP2 POP POP SWAP2 SWAP1 POP JUMP JUMPDEST PUSH2 0x62D PUSH2 0x749A JUMP JUMPDEST DUP2 PUSH1 0x0 PUSH20 0xFFFFFFFFFFFFFFFFFFFFFFFFFFFFFFFFFFFFFFFF AND PUSH1 0x3 PUSH1 0x0 DUP4 PUSH20 0xFFFFFFFFFFFFFFFFFFFFFFFFFFFFFFFFFFFFFFFF AND PUSH20 0xFFFFFFFFFFFFFFFFFFFFFFFFFFFFFFFFFFFFFFFF AND DUP2 MSTORE PUSH1 0x20 ADD SWAP1 DUP2 MSTORE PUSH1 0x20 ADD PUSH1 0x0 KECCAK256 PUSH1 0x2 ADD PUSH1 0x0 SWAP1 SLOAD SWAP1 PUSH2 0x100 EXP SWAP1 DIV PUSH20 0xFFFFFFFFFFFFFFFFFFFFFFFFFFFFFFFFFFFFFFFF AND PUSH20 0xFFFFFFFFFFFFFFFFFFFFFFFFFFFFFFFFFFFFFFFF AND SUB PUSH2 0x6FF JUMPI PUSH1 0x40 MLOAD PUSH32 0x8C379A000000000000000000000000000000000000000000000000000000000 DUP2 MSTORE PUSH1 0x4 ADD PUSH2 0x6F6 SWAP1 PUSH2 0x896D JUMP JUMPDEST PUSH1 0x40 MLOAD DUP1 SWAP2 SUB SWAP1 REVERT JUMPDEST DUP1 PUSH20 0xFFFFFFFFFFFFFFFFFFFFFFFFFFFFFFFFFFFFFFFF AND PUSH1 0x3 PUSH1 0x0 DUP4 PUSH20 0xFFFFFFFFFFFFFFFFFFFFFFFFFFFFFFFFFFFFFFFF AND PUSH20 0xFFFFFFFFFFFFFFFFFFFFFFFFFFFFFFFFFFFFFFFF AND DUP2 MSTORE PUSH1 0x20 ADD SWAP1 DUP2 MSTORE PUSH1 0x20 ADD PUSH1 0x0 KECCAK256 PUSH1 0x2 ADD PUSH1 0x0 SWAP1 SLOAD SWAP1 PUSH2 0x100 EXP SWAP1 DIV PUSH20 0xFFFFFFFFFFFFFFFFFFFFFFFFFFFFFFFFFFFFFFFF AND PUSH20 0xFFFFFFFFFFFFFFFFFFFFFFFFFFFFFFFFFFFFFFFF AND EQ PUSH2 0x7CF JUMPI PUSH1 0x40 MLOAD PUSH32 0x8C379A000000000000000000000000000000000000000000000000000000000 DUP2 MSTORE PUSH1 0x4 ADD PUSH2 0x7C6 SWAP1 PUSH2 0x896D JUMP JUMPDEST PUSH1 0x40 MLOAD DUP1 SWAP2 SUB SWAP1 REVERT JUMPDEST PUSH1 0x0 PUSH1 0x1 DUP2 GT ISZERO PUSH2 0x7E3 JUMPI PUSH2 0x7E2 PUSH2 0x7848 JUMP JUMPDEST JUMPDEST PUSH1 0x3 PUSH1 0x0 DUP4 PUSH20 0xFFFFFFFFFFFFFFFFFFFFFFFFFFFFFFFFFFFFFFFF AND PUSH20 0xFFFFFFFFFFFFFFFFFFFFFFFFFFFFFFFFFFFFFFFF AND DUP2 MSTORE PUSH1 0x20 ADD SWAP1 DUP2 MSTORE PUSH1 0x20 ADD PUSH1 0x0 KECCAK256 PUSH1 0x4 ADD PUSH1 0x2 SWAP1 SLOAD SWAP1 PUSH2 0x100 EXP SWAP1 DIV PUSH1 0xFF AND PUSH1 0x1 DUP2 GT ISZERO PUSH2 0x845 JUMPI PUSH2 0x844 PUSH2 0x7848 JUMP JUMPDEST JUMPDEST EQ PUSH2 0x885 JUMPI PUSH1 0x40 MLOAD PUSH32 0x8C379A000000000000000000000000000000000000000000000000000000000 DUP2 MSTORE PUSH1 0x4 ADD PUSH2 0x87C SWAP1 PUSH2 0x89D9 JUMP JUMPDEST PUSH1 0x40 MLOAD DUP1 SWAP2 SUB SWAP1 REVERT JUMPDEST PUSH2 0x88E DUP4 PUSH2 0x4F60 JUMP JUMPDEST SWAP2 POP POP SWAP2 SWAP1 POP JUMP JUMPDEST CALLER PUSH1 0x0 PUSH20 0xFFFFFFFFFFFFFFFFFFFFFFFFFFFFFFFFFFFFFFFF AND PUSH1 0x3 PUSH1 0x0 DUP4 PUSH20 0xFFFFFFFFFFFFFFFFFFFFFFFFFFFFFFFFFFFFFFFF AND PUSH20 0xFFFFFFFFFFFFFFFFFFFFFFFFFFFFFFFFFFFFFFFF AND DUP2 MSTORE PUSH1 0x20 ADD SWAP1 DUP2 MSTORE PUSH1 0x20 ADD PUSH1 0x0 KECCAK256 PUSH1 0x2 ADD PUSH1 0x0 SWAP1 SLOAD SWAP1 PUSH2 0x100 EXP SWAP1 DIV PUSH20 0xFFFFFFFFFFFFFFFFFFFFFFFFFFFFFFFFFFFFFFFF AND PUSH20 0xFFFFFFFFFFFFFFFFFFFFFFFFFFFFFFFFFFFFFFFF AND SUB PUSH2 0x968 JUMPI PUSH1 0x40 MLOAD PUSH32 0x8C379A000000000000000000000000000000000000000000000000000000000 DUP2 MSTORE PUSH1 0x4 ADD PUSH2 0x95F SWAP1 PUSH2 0x896D JUMP JUMPDEST PUSH1 0x40 MLOAD DUP1 SWAP2 SUB SWAP1 REVERT JUMPDEST DUP1 PUSH20 0xFFFFFFFFFFFFFFFFFFFFFFFFFFFFFFFFFFFFFFFF AND PUSH1 0x3 PUSH1 0x0 DUP4 PUSH20 0xFFFFFFFFFFFFFFFFFFFFFFFFFFFFFFFFFFFFFFFF AND PUSH20 0xFFFFFFFFFFFFFFFFFFFFFFFFFFFFFFFFFFFFFFFF AND DUP2 MSTORE PUSH1 0x20 ADD SWAP1 DUP2 MSTORE PUSH1 0x20 ADD PUSH1 0x0 KECCAK256 PUSH1 0x2 ADD PUSH1 0x0 SWAP1 SLOAD SWAP1 PUSH2 0x100 EXP SWAP1 DIV PUSH20 0xFFFFFFFFFFFFFFFFFFFFFFFFFFFFFFFFFFFFFFFF AND PUSH20 0xFFFFFFFFFFFFFFFFFFFFFFFFFFFFFFFFFFFFFFFF AND EQ PUSH2 0xA38 JUMPI PUSH1 0x40 MLOAD PUSH32 0x8C379A000000000000000000000000000000000000000000000000000000000 DUP2 MSTORE PUSH1 0x4 ADD PUSH2 0xA2F SWAP1 PUSH2 0x896D JUMP JUMPDEST PUSH1 0x40 MLOAD DUP1 SWAP2 SUB SWAP1 REVERT JUMPDEST PUSH1 0x0 PUSH1 0x1 DUP2 GT ISZERO PUSH2 0xA4C JUMPI PUSH2 0xA4B PUSH2 0x7848 JUMP JUMPDEST JUMPDEST PUSH1 0x3 PUSH1 0x0 DUP4 PUSH20 0xFFFFFFFFFFFFFFFFFFFFFFFFFFFFFFFFFFFFFFFF AND PUSH20 0xFFFFFFFFFFFFFFFFFFFFFFFFFFFFFFFFFFFFFFFF AND DUP2 MSTORE PUSH1 0x20 ADD SWAP1 DUP2 MSTORE PUSH1 0x20 ADD PUSH1 0x0 KECCAK256 PUSH1 0x4 ADD PUSH1 0x2 SWAP1 SLOAD SWAP1 PUSH2 0x100 EXP SWAP1 DIV PUSH1 0xFF AND PUSH1 0x1 DUP2 GT ISZERO PUSH2 0xAAE JUMPI PUSH2 0xAAD PUSH2 0x7848 JUMP JUMPDEST JUMPDEST EQ PUSH2 0xAEE JUMPI PUSH1 0x40 MLOAD PUSH32 0x8C379A000000000000000000000000000000000000000000000000000000000 DUP2 MSTORE PUSH1 0x4 ADD PUSH2 0xAE5 SWAP1 PUSH2 0x89D9 JUMP JUMPDEST PUSH1 0x40 MLOAD DUP1 SWAP2 SUB SWAP1 REVERT JUMPDEST PUSH1 0x0 PUSH2 0xAFA CALLER DUP6 PUSH2 0x528F JUMP JUMPDEST SWAP1 POP PUSH2 0xB05 DUP2 PUSH2 0x52BB JUMP JUMPDEST PUSH2 0xB44 JUMPI PUSH1 0x40 MLOAD PUSH32 0x8C379A000000000000000000000000000000000000000000000000000000000 DUP2 MSTORE PUSH1 0x4 ADD PUSH2 0xB3B SWAP1 PUSH2 0x8A45 JUMP JUMPDEST PUSH1 0x40 MLOAD DUP1 SWAP2 SUB SWAP1 REVERT JUMPDEST PUSH2 0xB4D DUP5 PUSH2 0x53D0 JUMP JUMPDEST PUSH2 0xB8C JUMPI PUSH1 0x40 MLOAD PUSH32 0x8C379A000000000000000000000000000000000000000000000000000000000 DUP2 MSTORE PUSH1 0x4 ADD PUSH2 0xB83 SWAP1 PUSH2 0x8AB1 JUMP JUMPDEST PUSH1 0x40 MLOAD DUP1 SWAP2 SUB SWAP1 REVERT JUMPDEST PUSH1 0x0 PUSH1 0x7 DUP3 PUSH1 0x40 MLOAD PUSH2 0xB9E SWAP2 SWAP1 PUSH2 0x8B0D JUMP JUMPDEST SWAP1 DUP2 MSTORE PUSH1 0x20 ADD PUSH1 0x40 MLOAD DUP1 SWAP2 SUB SWAP1 KECCAK256 PUSH1 0x7 ADD PUSH1 0x1 PUSH2 0x100 EXP DUP2 SLOAD DUP2 PUSH1 0xFF MUL NOT AND SWAP1 DUP4 PUSH1 0x2 DUP2 GT ISZERO PUSH2 0xBD1 JUMPI PUSH2 0xBD0 PUSH2 0x7848 JUMP JUMPDEST JUMPDEST MUL OR SWAP1 SSTORE POP DUP3 PUSH1 0x7 DUP3 PUSH1 0x40 MLOAD PUSH2 0xBE7 SWAP2 SWAP1 PUSH2 0x8B0D JUMP JUMPDEST SWAP1 DUP2 MSTORE PUSH1 0x20 ADD PUSH1 0x40 MLOAD DUP1 SWAP2 SUB SWAP1 KECCAK256 PUSH1 0x8 ADD SWAP1 DUP2 PUSH2 0xC04 SWAP2 SWAP1 PUSH2 0x8CD0 JUMP JUMPDEST POP PUSH32 0x524A348EAA0159A5BD9D05667FE8D01E3FEF50369AE5F27C2ADE107C84BFEAF7 DUP2 PUSH1 0x7 DUP4 PUSH1 0x40 MLOAD PUSH2 0xC37 SWAP2 SWAP1 PUSH2 0x8B0D JUMP JUMPDEST SWAP1 DUP2 MSTORE PUSH1 0x20 ADD PUSH1 0x40 MLOAD DUP1 SWAP2 SUB SWAP1 KECCAK256 PUSH1 0x4 ADD PUSH1 0x7 DUP5 PUSH1 0x40 MLOAD PUSH2 0xC58 SWAP2 SWAP1 PUSH2 0x8B0D JUMP JUMPDEST SWAP1 DUP2 MSTORE PUSH1 0x20 ADD PUSH1 0x40 MLOAD DUP1 SWAP2 SUB SWAP1 KECCAK256 PUSH1 0x2 ADD PUSH1 0x40 MLOAD PUSH2 0xC78 SWAP4 SWAP3 SWAP2 SWAP1 PUSH2 0x8E5F JUMP JUMPDEST PUSH1 0x40 MLOAD DUP1 SWAP2 SUB SWAP1 LOG1 POP POP POP POP JUMP JUMPDEST PUSH1 0x4 PUSH1 0x0 SWAP1 SLOAD SWAP1 PUSH2 0x100 EXP SWAP1 DIV PUSH20 0xFFFFFFFFFFFFFFFFFFFFFFFFFFFFFFFFFFFFFFFF AND PUSH20 0xFFFFFFFFFFFFFFFFFFFFFFFFFFFFFFFFFFFFFFFF AND CALLER PUSH20 0xFFFFFFFFFFFFFFFFFFFFFFFFFFFFFFFFFFFFFFFF AND EQ PUSH2 0xD16 JUMPI PUSH1 0x40 MLOAD PUSH32 0x8C379A000000000000000000000000000000000000000000000000000000000 DUP2 MSTORE PUSH1 0x4 ADD PUSH2 0xD0D SWAP1 PUSH2 0x8EF7 JUMP JUMPDEST PUSH1 0x40 MLOAD DUP1 SWAP2 SUB SWAP1 REVERT JUMPDEST PUSH2 0xD1F DUP2 PUSH2 0x55CE JUMP JUMPDEST PUSH1 0x40 MLOAD DUP1 PUSH1 0xA0 ADD PUSH1 0x40 MSTORE DUP1 DUP3 PUSH1 0x0 ADD MLOAD DUP2 MSTORE PUSH1 0x20 ADD DUP3 PUSH1 0x20 ADD MLOAD DUP2 MSTORE PUSH1 0x20 ADD DUP3 PUSH1 0x40 ADD MLOAD PUSH20 0xFFFFFFFFFFFFFFFFFFFFFFFFFFFFFFFFFFFFFFFF AND DUP2 MSTORE PUSH1 0x20 ADD PUSH1 0x1 PUSH1 0x2 DUP2 GT ISZERO PUSH2 0xD72 JUMPI PUSH2 0xD71 PUSH2 0x7848 JUMP JUMPDEST JUMPDEST DUP2 MSTORE PUSH1 0x20 ADD PUSH1 0x0 PUSH1 0x1 DUP2 GT ISZERO PUSH2 0xD8B JUMPI PUSH2 0xD8A PUSH2 0x7848 JUMP JUMPDEST JUMPDEST DUP2 MSTORE POP PUSH1 0x6 PUSH1 0x0 DUP4 PUSH1 0x40 ADD MLOAD PUSH20 0xFFFFFFFFFFFFFFFFFFFFFFFFFFFFFFFFFFFFFFFF AND PUSH20 0xFFFFFFFFFFFFFFFFFFFFFFFFFFFFFFFFFFFFFFFF AND DUP2 MSTORE PUSH1 0x20 ADD SWAP1 DUP2 MSTORE PUSH1 0x20 ADD PUSH1 0x0 KECCAK256 PUSH1 0x0 DUP3 ADD MLOAD DUP2 PUSH1 0x0 ADD SWAP1 DUP2 PUSH2 0xDE6 SWAP2 SWAP1 PUSH2 0x8CD0 JUMP JUMPDEST POP PUSH1 0x20 DUP3 ADD MLOAD DUP2 PUSH1 0x1 ADD SWAP1 DUP2 PUSH2 0xDFC SWAP2 SWAP1 PUSH2 0x8CD0 JUMP JUMPDEST POP PUSH1 0x40 DUP3 ADD MLOAD DUP2 PUSH1 0x2 ADD PUSH1 0x0 PUSH2 0x100 EXP DUP2 SLOAD DUP2 PUSH20 0xFFFFFFFFFFFFFFFFFFFFFFFFFFFFFFFFFFFFFFFF MUL NOT AND SWAP1 DUP4 PUSH20 0xFFFFFFFFFFFFFFFFFFFFFFFFFFFFFFFFFFFFFFFF AND MUL OR SWAP1 SSTORE POP PUSH1 0x60 DUP3 ADD MLOAD DUP2 PUSH1 0x2 ADD PUSH1 0x14 PUSH2 0x100 EXP DUP2 SLOAD DUP2 PUSH1 0xFF MUL NOT AND SWAP1 DUP4 PUSH1 0x2 DUP2 GT ISZERO PUSH2 0xE6F JUMPI PUSH2 0xE6E PUSH2 0x7848 JUMP JUMPDEST JUMPDEST MUL OR SWAP1 SSTORE POP PUSH1 0x80 DUP3 ADD MLOAD DUP2 PUSH1 0x2 ADD PUSH1 0x15 PUSH2 0x100 EXP DUP2 SLOAD DUP2 PUSH1 0xFF MUL NOT AND SWAP1 DUP4 PUSH1 0x1 DUP2 GT ISZERO PUSH2 0xE9F JUMPI PUSH2 0xE9E PUSH2 0x7848 JUMP JUMPDEST JUMPDEST MUL OR SWAP1 SSTORE POP SWAP1 POP POP PUSH1 0x5 DUP2 PUSH1 0x40 ADD MLOAD SWAP1 DUP1 PUSH1 0x1 DUP2 SLOAD ADD DUP1 DUP3 SSTORE DUP1 SWAP2 POP POP PUSH1 0x1 SWAP1 SUB SWAP1 PUSH1 0x0 MSTORE PUSH1 0x20 PUSH1 0x0 KECCAK256 ADD PUSH1 0x0 SWAP1 SWAP2 SWAP1 SWAP2 SWAP1 SWAP2 PUSH2 0x100 EXP DUP2 SLOAD DUP2 PUSH20 0xFFFFFFFFFFFFFFFFFFFFFFFFFFFFFFFFFFFFFFFF MUL NOT AND SWAP1 DUP4 PUSH20 0xFFFFFFFFFFFFFFFFFFFFFFFFFFFFFFFFFFFFFFFF AND MUL OR SWAP1 SSTORE POP POP JUMP JUMPDEST PUSH1 0x0 PUSH2 0xF1B PUSH2 0x749A JUMP JUMPDEST PUSH2 0xF23 PUSH2 0x74FC JUMP JUMPDEST CALLER PUSH1 0x0 PUSH20 0xFFFFFFFFFFFFFFFFFFFFFFFFFFFFFFFFFFFFFFFF AND DUP2 PUSH20 0xFFFFFFFFFFFFFFFFFFFFFFFFFFFFFFFFFFFFFFFF AND SUB PUSH2 0xF93 JUMPI PUSH1 0x40 MLOAD PUSH32 0x8C379A000000000000000000000000000000000000000000000000000000000 DUP2 MSTORE PUSH1 0x4 ADD PUSH2 0xF8A SWAP1 PUSH2 0x87C9 JUMP JUMPDEST PUSH1 0x40 MLOAD DUP1 SWAP2 SUB SWAP1 REVERT JUMPDEST PUSH1 0x0 PUSH20 0xFFFFFFFFFFFFFFFFFFFFFFFFFFFFFFFFFFFFFFFF AND PUSH1 0x1 PUSH1 0x0 DUP4 PUSH20 0xFFFFFFFFFFFFFFFFFFFFFFFFFFFFFFFFFFFFFFFF AND PUSH20 0xFFFFFFFFFFFFFFFFFFFFFFFFFFFFFFFFFFFFFFFF AND DUP2 MSTORE PUSH1 0x20 ADD SWAP1 DUP2 MSTORE PUSH1 0x20 ADD PUSH1 0x0 KECCAK256 PUSH1 0x3 ADD PUSH1 0x0 SWAP1 SLOAD SWAP1 PUSH2 0x100 EXP SWAP1 DIV PUSH20 0xFFFFFFFFFFFFFFFFFFFFFFFFFFFFFFFFFFFFFFFF AND PUSH20 0xFFFFFFFFFFFFFFFFFFFFFFFFFFFFFFFFFFFFFFFF AND SUB PUSH2 0x1064 JUMPI PUSH1 0x40 MLOAD PUSH32 0x8C379A000000000000000000000000000000000000000000000000000000000 DUP2 MSTORE PUSH1 0x4 ADD PUSH2 0x105B SWAP1 PUSH2 0x8835 JUMP JUMPDEST PUSH1 0x40 MLOAD DUP1 SWAP2 SUB SWAP1 REVERT JUMPDEST PUSH2 0x1147 PUSH1 0x1 PUSH1 0x0 DUP4 PUSH20 0xFFFFFFFFFFFFFFFFFFFFFFFFFFFFFFFFFFFFFFFF AND PUSH20 0xFFFFFFFFFFFFFFFFFFFFFFFFFFFFFFFFFFFFFFFF AND DUP2 MSTORE PUSH1 0x20 ADD SWAP1 DUP2 MSTORE PUSH1 0x20 ADD PUSH1 0x0 KECCAK256 PUSH1 0x1 ADD DUP1 SLOAD PUSH2 0x10B4 SWAP1 PUSH2 0x8884 JUMP JUMPDEST DUP1 PUSH1 0x1F ADD PUSH1 0x20 DUP1 SWAP2 DIV MUL PUSH1 0x20 ADD PUSH1 0x40 MLOAD SWAP1 DUP2 ADD PUSH1 0x40 MSTORE DUP1 SWAP3 SWAP2 SWAP1 DUP2 DUP2 MSTORE PUSH1 0x20 ADD DUP3 DUP1 SLOAD PUSH2 0x10E0 SWAP1 PUSH2 0x8884 JUMP JUMPDEST DUP1 ISZERO PUSH2 0x112D JUMPI DUP1 PUSH1 0x1F LT PUSH2 0x1102 JUMPI PUSH2 0x100 DUP1 DUP4 SLOAD DIV MUL DUP4 MSTORE SWAP2 PUSH1 0x20 ADD SWAP2 PUSH2 0x112D JUMP JUMPDEST DUP3 ADD SWAP2 SWAP1 PUSH1 0x0 MSTORE PUSH1 0x20 PUSH1 0x0 KECCAK256 SWAP1 JUMPDEST DUP2 SLOAD DUP2 MSTORE SWAP1 PUSH1 0x1 ADD SWAP1 PUSH1 0x20 ADD DUP1 DUP4 GT PUSH2 0x1110 JUMPI DUP3 SWAP1 SUB PUSH1 0x1F AND DUP3 ADD SWAP2 JUMPDEST POP POP POP POP POP PUSH1 0x40 MLOAD DUP1 PUSH1 0x20 ADD PUSH1 0x40 MSTORE DUP1 PUSH1 0x0 DUP2 MSTORE POP PUSH2 0x4C38 JUMP JUMPDEST ISZERO PUSH2 0x1187 JUMPI PUSH1 0x40 MLOAD PUSH32 0x8C379A000000000000000000000000000000000000000000000000000000000 DUP2 MSTORE PUSH1 0x4 ADD PUSH2 0x117E SWAP1 PUSH2 0x8901 JUMP JUMPDEST PUSH1 0x40 MLOAD DUP1 SWAP2 SUB SWAP1 REVERT JUMPDEST DUP5 PUSH1 0x0 PUSH20 0xFFFFFFFFFFFFFFFFFFFFFFFFFFFFFFFFFFFFFFFF AND PUSH1 0x3 PUSH1 0x0 DUP4 PUSH20 0xFFFFFFFFFFFFFFFFFFFFFFFFFFFFFFFFFFFFFFFF AND PUSH20 0xFFFFFFFFFFFFFFFFFFFFFFFFFFFFFFFFFFFFFFFF AND DUP2 MSTORE PUSH1 0x20 ADD SWAP1 DUP2 MSTORE PUSH1 0x20 ADD PUSH1 0x0 KECCAK256 PUSH1 0x2 ADD PUSH1 0x0 SWAP1 SLOAD SWAP1 PUSH2 0x100 EXP SWAP1 DIV PUSH20 0xFFFFFFFFFFFFFFFFFFFFFFFFFFFFFFFFFFFFFFFF AND PUSH20 0xFFFFFFFFFFFFFFFFFFFFFFFFFFFFFFFFFFFFFFFF AND SUB PUSH2 0x1259 JUMPI PUSH1 0x40 MLOAD PUSH32 0x8C379A000000000000000000000000000000000000000000000000000000000 DUP2 MSTORE PUSH1 0x4 ADD PUSH2 0x1250 SWAP1 PUSH2 0x896D JUMP JUMPDEST PUSH1 0x40 MLOAD DUP1 SWAP2 SUB SWAP1 REVERT JUMPDEST DUP1 PUSH20 0xFFFFFFFFFFFFFFFFFFFFFFFFFFFFFFFFFFFFFFFF AND PUSH1 0x3 PUSH1 0x0 DUP4 PUSH20 0xFFFFFFFFFFFFFFFFFFFFFFFFFFFFFFFFFFFFFFFF AND PUSH20 0xFFFFFFFFFFFFFFFFFFFFFFFFFFFFFFFFFFFFFFFF AND DUP2 MSTORE PUSH1 0x20 ADD SWAP1 DUP2 MSTORE PUSH1 0x20 ADD PUSH1 0x0 KECCAK256 PUSH1 0x2 ADD PUSH1 0x0 SWAP1 SLOAD SWAP1 PUSH2 0x100 EXP SWAP1 DIV PUSH20 0xFFFFFFFFFFFFFFFFFFFFFFFFFFFFFFFFFFFFFFFF AND PUSH20 0xFFFFFFFFFFFFFFFFFFFFFFFFFFFFFFFFFFFFFFFF AND EQ PUSH2 0x1329 JUMPI PUSH1 0x40 MLOAD PUSH32 0x8C379A000000000000000000000000000000000000000000000000000000000 DUP2 MSTORE PUSH1 0x4 ADD PUSH2 0x1320 SWAP1 PUSH2 0x896D JUMP JUMPDEST PUSH1 0x40 MLOAD DUP1 SWAP2 SUB SWAP1 REVERT JUMPDEST PUSH1 0x0 PUSH1 0x1 DUP2 GT ISZERO PUSH2 0x133D JUMPI PUSH2 0x133C PUSH2 0x7848 JUMP JUMPDEST JUMPDEST PUSH1 0x3 PUSH1 0x0 DUP4 PUSH20 0xFFFFFFFFFFFFFFFFFFFFFFFFFFFFFFFFFFFFFFFF AND PUSH20 0xFFFFFFFFFFFFFFFFFFFFFFFFFFFFFFFFFFFFFFFF AND DUP2 MSTORE PUSH1 0x20 ADD SWAP1 DUP2 MSTORE PUSH1 0x20 ADD PUSH1 0x0 KECCAK256 PUSH1 0x4 ADD PUSH1 0x2 SWAP1 SLOAD SWAP1 PUSH2 0x100 EXP SWAP1 DIV PUSH1 0xFF AND PUSH1 0x1 DUP2 GT ISZERO PUSH2 0x139F JUMPI PUSH2 0x139E PUSH2 0x7848 JUMP JUMPDEST JUMPDEST EQ PUSH2 0x13DF JUMPI PUSH1 0x40 MLOAD PUSH32 0x8C379A000000000000000000000000000000000000000000000000000000000 DUP2 MSTORE PUSH1 0x4 ADD PUSH2 0x13D6 SWAP1 PUSH2 0x89D9 JUMP JUMPDEST PUSH1 0x40 MLOAD DUP1 SWAP2 SUB SWAP1 REVERT JUMPDEST PUSH1 0x0 PUSH2 0x13E9 PUSH2 0x749A JUMP JUMPDEST PUSH2 0x13F1 PUSH2 0x74FC JUMP JUMPDEST PUSH1 0x0 PUSH1 0x9 PUSH1 0x0 CALLER PUSH20 0xFFFFFFFFFFFFFFFFFFFFFFFFFFFFFFFFFFFFFFFF AND PUSH20 0xFFFFFFFFFFFFFFFFFFFFFFFFFFFFFFFFFFFFFFFF AND DUP2 MSTORE PUSH1 0x20 ADD SWAP1 DUP2 MSTORE PUSH1 0x20 ADD PUSH1 0x0 KECCAK256 DUP1 SLOAD DUP1 PUSH1 0x20 MUL PUSH1 0x20 ADD PUSH1 0x40 MLOAD SWAP1 DUP2 ADD PUSH1 0x40 MSTORE DUP1 SWAP3 SWAP2 SWAP1 DUP2 DUP2 MSTORE PUSH1 0x20 ADD DUP3 DUP1 SLOAD DUP1 ISZERO PUSH2 0x14B2 JUMPI PUSH1 0x20 MUL DUP3 ADD SWAP2 SWAP1 PUSH1 0x0 MSTORE PUSH1 0x20 PUSH1 0x0 KECCAK256 SWAP1 JUMPDEST DUP2 PUSH1 0x0 SWAP1 SLOAD SWAP1 PUSH2 0x100 EXP SWAP1 DIV PUSH20 0xFFFFFFFFFFFFFFFFFFFFFFFFFFFFFFFFFFFFFFFF AND PUSH20 0xFFFFFFFFFFFFFFFFFFFFFFFFFFFFFFFFFFFFFFFF AND DUP2 MSTORE PUSH1 0x20 ADD SWAP1 PUSH1 0x1 ADD SWAP1 DUP1 DUP4 GT PUSH2 0x1468 JUMPI JUMPDEST POP POP POP POP POP SWAP1 POP PUSH1 0x0 JUMPDEST DUP2 MLOAD DUP2 LT ISZERO PUSH2 0x1974 JUMPI DUP11 PUSH20 0xFFFFFFFFFFFFFFFFFFFFFFFFFFFFFFFFFFFFFFFF AND DUP3 DUP3 DUP2 MLOAD DUP2 LT PUSH2 0x14EF JUMPI PUSH2 0x14EE PUSH2 0x8F17 JUMP JUMPDEST JUMPDEST PUSH1 0x20 MUL PUSH1 0x20 ADD ADD MLOAD PUSH20 0xFFFFFFFFFFFFFFFFFFFFFFFFFFFFFFFFFFFFFFFF AND SUB PUSH2 0x1961 JUMPI PUSH1 0x1 SWAP5 POP PUSH2 0x151F DUP12 PUSH2 0x4F60 JUMP JUMPDEST SWAP4 POP PUSH1 0x7 PUSH2 0x152D DUP13 CALLER PUSH2 0x528F JUMP JUMPDEST PUSH1 0x40 MLOAD PUSH2 0x153A SWAP2 SWAP1 PUSH2 0x8B0D JUMP JUMPDEST SWAP1 DUP2 MSTORE PUSH1 0x20 ADD PUSH1 0x40 MLOAD DUP1 SWAP2 SUB SWAP1 KECCAK256 PUSH1 0x40 MLOAD DUP1 PUSH2 0x140 ADD PUSH1 0x40 MSTORE SWAP1 DUP2 PUSH1 0x0 DUP3 ADD DUP1 SLOAD PUSH2 0x1564 SWAP1 PUSH2 0x8884 JUMP JUMPDEST DUP1 PUSH1 0x1F ADD PUSH1 0x20 DUP1 SWAP2 DIV MUL PUSH1 0x20 ADD PUSH1 0x40 MLOAD SWAP1 DUP2 ADD PUSH1 0x40 MSTORE DUP1 SWAP3 SWAP2 SWAP1 DUP2 DUP2 MSTORE PUSH1 0x20 ADD DUP3 DUP1 SLOAD PUSH2 0x1590 SWAP1 PUSH2 0x8884 JUMP JUMPDEST DUP1 ISZERO PUSH2 0x15DD JUMPI DUP1 PUSH1 0x1F LT PUSH2 0x15B2 JUMPI PUSH2 0x100 DUP1 DUP4 SLOAD DIV MUL DUP4 MSTORE SWAP2 PUSH1 0x20 ADD SWAP2 PUSH2 0x15DD JUMP JUMPDEST DUP3 ADD SWAP2 SWAP1 PUSH1 0x0 MSTORE PUSH1 0x20 PUSH1 0x0 KECCAK256 SWAP1 JUMPDEST DUP2 SLOAD DUP2 MSTORE SWAP1 PUSH1 0x1 ADD SWAP1 PUSH1 0x20 ADD DUP1 DUP4 GT PUSH2 0x15C0 JUMPI DUP3 SWAP1 SUB PUSH1 0x1F AND DUP3 ADD SWAP2 JUMPDEST POP POP POP POP POP DUP2 MSTORE PUSH1 0x20 ADD PUSH1 0x1 DUP3 ADD PUSH1 0x0 SWAP1 SLOAD SWAP1 PUSH2 0x100 EXP SWAP1 DIV PUSH20 0xFFFFFFFFFFFFFFFFFFFFFFFFFFFFFFFFFFFFFFFF AND PUSH20 0xFFFFFFFFFFFFFFFFFFFFFFFFFFFFFFFFFFFFFFFF AND PUSH20 0xFFFFFFFFFFFFFFFFFFFFFFFFFFFFFFFFFFFFFFFF AND DUP2 MSTORE PUSH1 0x20 ADD PUSH1 0x2 DUP3 ADD DUP1 SLOAD PUSH2 0x164C SWAP1 PUSH2 0x8884 JUMP JUMPDEST DUP1 PUSH1 0x1F ADD PUSH1 0x20 DUP1 SWAP2 DIV MUL PUSH1 0x20 ADD PUSH1 0x40 MLOAD SWAP1 DUP2 ADD PUSH1 0x40 MSTORE DUP1 SWAP3 SWAP2 SWAP1 DUP2 DUP2 MSTORE PUSH1 0x20 ADD DUP3 DUP1 SLOAD PUSH2 0x1678 SWAP1 PUSH2 0x8884 JUMP JUMPDEST DUP1 ISZERO PUSH2 0x16C5 JUMPI DUP1 PUSH1 0x1F LT PUSH2 0x169A JUMPI PUSH2 0x100 DUP1 DUP4 SLOAD DIV MUL DUP4 MSTORE SWAP2 PUSH1 0x20 ADD SWAP2 PUSH2 0x16C5 JUMP JUMPDEST DUP3 ADD SWAP2 SWAP1 PUSH1 0x0 MSTORE PUSH1 0x20 PUSH1 0x0 KECCAK256 SWAP1 JUMPDEST DUP2 SLOAD DUP2 MSTORE SWAP1 PUSH1 0x1 ADD SWAP1 PUSH1 0x20 ADD DUP1 DUP4 GT PUSH2 0x16A8 JUMPI DUP3 SWAP1 SUB PUSH1 0x1F AND DUP3 ADD SWAP2 JUMPDEST POP POP POP POP POP DUP2 MSTORE PUSH1 0x20 ADD PUSH1 0x3 DUP3 ADD PUSH1 0x0 SWAP1 SLOAD SWAP1 PUSH2 0x100 EXP SWAP1 DIV PUSH20 0xFFFFFFFFFFFFFFFFFFFFFFFFFFFFFFFFFFFFFFFF AND PUSH20 0xFFFFFFFFFFFFFFFFFFFFFFFFFFFFFFFFFFFFFFFF AND PUSH20 0xFFFFFFFFFFFFFFFFFFFFFFFFFFFFFFFFFFFFFFFF AND DUP2 MSTORE PUSH1 0x20 ADD PUSH1 0x4 DUP3 ADD DUP1 SLOAD PUSH2 0x1734 SWAP1 PUSH2 0x8884 JUMP JUMPDEST DUP1 PUSH1 0x1F ADD PUSH1 0x20 DUP1 SWAP2 DIV MUL PUSH1 0x20 ADD PUSH1 0x40 MLOAD SWAP1 DUP2 ADD PUSH1 0x40 MSTORE DUP1 SWAP3 SWAP2 SWAP1 DUP2 DUP2 MSTORE PUSH1 0x20 ADD DUP3 DUP1 SLOAD PUSH2 0x1760 SWAP1 PUSH2 0x8884 JUMP JUMPDEST DUP1 ISZERO PUSH2 0x17AD JUMPI DUP1 PUSH1 0x1F LT PUSH2 0x1782 JUMPI PUSH2 0x100 DUP1 DUP4 SLOAD DIV MUL DUP4 MSTORE SWAP2 PUSH1 0x20 ADD SWAP2 PUSH2 0x17AD JUMP JUMPDEST DUP3 ADD SWAP2 SWAP1 PUSH1 0x0 MSTORE PUSH1 0x20 PUSH1 0x0 KECCAK256 SWAP1 JUMPDEST DUP2 SLOAD DUP2 MSTORE SWAP1 PUSH1 0x1 ADD SWAP1 PUSH1 0x20 ADD DUP1 DUP4 GT PUSH2 0x1790 JUMPI DUP3 SWAP1 SUB PUSH1 0x1F AND DUP3 ADD SWAP2 JUMPDEST POP POP POP POP POP DUP2 MSTORE PUSH1 0x20 ADD PUSH1 0x5 DUP3 ADD DUP1 SLOAD PUSH2 0x17C6 SWAP1 PUSH2 0x8884 JUMP JUMPDEST DUP1 PUSH1 0x1F ADD PUSH1 0x20 DUP1 SWAP2 DIV MUL PUSH1 0x20 ADD PUSH1 0x40 MLOAD SWAP1 DUP2 ADD PUSH1 0x40 MSTORE DUP1 SWAP3 SWAP2 SWAP1 DUP2 DUP2 MSTORE PUSH1 0x20 ADD DUP3 DUP1 SLOAD PUSH2 0x17F2 SWAP1 PUSH2 0x8884 JUMP JUMPDEST DUP1 ISZERO PUSH2 0x183F JUMPI DUP1 PUSH1 0x1F LT PUSH2 0x1814 JUMPI PUSH2 0x100 DUP1 DUP4 SLOAD DIV MUL DUP4 MSTORE SWAP2 PUSH1 0x20 ADD SWAP2 PUSH2 0x183F JUMP JUMPDEST DUP3 ADD SWAP2 SWAP1 PUSH1 0x0 MSTORE PUSH1 0x20 PUSH1 0x0 KECCAK256 SWAP1 JUMPDEST DUP2 SLOAD DUP2 MSTORE SWAP1 PUSH1 0x1 ADD SWAP1 PUSH1 0x20 ADD DUP1 DUP4 GT PUSH2 0x1822 JUMPI DUP3 SWAP1 SUB PUSH1 0x1F AND DUP3 ADD SWAP2 JUMPDEST POP POP POP POP POP DUP2 MSTORE PUSH1 0x20 ADD PUSH1 0x6 DUP3 ADD SLOAD DUP2 MSTORE PUSH1 0x20 ADD PUSH1 0x7 DUP3 ADD PUSH1 0x0 SWAP1 SLOAD SWAP1 PUSH2 0x100 EXP SWAP1 DIV PUSH1 0xFF AND PUSH1 0x2 DUP2 GT ISZERO PUSH2 0x1877 JUMPI PUSH2 0x1876 PUSH2 0x7848 JUMP JUMPDEST JUMPDEST PUSH1 0x2 DUP2 GT ISZERO PUSH2 0x1889 JUMPI PUSH2 0x1888 PUSH2 0x7848 JUMP JUMPDEST JUMPDEST DUP2 MSTORE PUSH1 0x20 ADD PUSH1 0x7 DUP3 ADD PUSH1 0x1 SWAP1 SLOAD SWAP1 PUSH2 0x100 EXP SWAP1 DIV PUSH1 0xFF AND PUSH1 0x2 DUP2 GT ISZERO PUSH2 0x18B2 JUMPI PUSH2 0x18B1 PUSH2 0x7848 JUMP JUMPDEST JUMPDEST PUSH1 0x2 DUP2 GT ISZERO PUSH2 0x18C4 JUMPI PUSH2 0x18C3 PUSH2 0x7848 JUMP JUMPDEST JUMPDEST DUP2 MSTORE PUSH1 0x20 ADD PUSH1 0x8 DUP3 ADD DUP1 SLOAD PUSH2 0x18D8 SWAP1 PUSH2 0x8884 JUMP JUMPDEST DUP1 PUSH1 0x1F ADD PUSH1 0x20 DUP1 SWAP2 DIV MUL PUSH1 0x20 ADD PUSH1 0x40 MLOAD SWAP1 DUP2 ADD PUSH1 0x40 MSTORE DUP1 SWAP3 SWAP2 SWAP1 DUP2 DUP2 MSTORE PUSH1 0x20 ADD DUP3 DUP1 SLOAD PUSH2 0x1904 SWAP1 PUSH2 0x8884 JUMP JUMPDEST DUP1 ISZERO PUSH2 0x1951 JUMPI DUP1 PUSH1 0x1F LT PUSH2 0x1926 JUMPI PUSH2 0x100 DUP1 DUP4 SLOAD DIV MUL DUP4 MSTORE SWAP2 PUSH1 0x20 ADD SWAP2 PUSH2 0x1951 JUMP JUMPDEST DUP3 ADD SWAP2 SWAP1 PUSH1 0x0 MSTORE PUSH1 0x20 PUSH1 0x0 KECCAK256 SWAP1 JUMPDEST DUP2 SLOAD DUP2 MSTORE SWAP1 PUSH1 0x1 ADD SWAP1 PUSH1 0x20 ADD DUP1 DUP4 GT PUSH2 0x1934 JUMPI DUP3 SWAP1 SUB PUSH1 0x1F AND DUP3 ADD SWAP2 JUMPDEST POP POP POP POP POP DUP2 MSTORE POP POP SWAP3 POP PUSH2 0x1974 JUMP JUMPDEST DUP1 DUP1 PUSH2 0x196C SWAP1 PUSH2 0x8F75 JUMP JUMPDEST SWAP2 POP POP PUSH2 0x14BC JUMP JUMPDEST POP DUP4 DUP4 DUP4 SWAP9 POP SWAP9 POP SWAP9 POP POP POP POP POP POP POP SWAP2 SWAP4 SWAP1 SWAP3 POP JUMP JUMPDEST CALLER PUSH1 0x0 PUSH20 0xFFFFFFFFFFFFFFFFFFFFFFFFFFFFFFFFFFFFFFFF AND DUP2 PUSH20 0xFFFFFFFFFFFFFFFFFFFFFFFFFFFFFFFFFFFFFFFF AND SUB PUSH2 0x19FB JUMPI PUSH1 0x40 MLOAD PUSH32 0x8C379A000000000000000000000000000000000000000000000000000000000 DUP2 MSTORE PUSH1 0x4 ADD PUSH2 0x19F2 SWAP1 PUSH2 0x87C9 JUMP JUMPDEST PUSH1 0x40 MLOAD DUP1 SWAP2 SUB SWAP1 REVERT JUMPDEST PUSH1 0x0 PUSH20 0xFFFFFFFFFFFFFFFFFFFFFFFFFFFFFFFFFFFFFFFF AND PUSH1 0x1 PUSH1 0x0 DUP4 PUSH20 0xFFFFFFFFFFFFFFFFFFFFFFFFFFFFFFFFFFFFFFFF AND PUSH20 0xFFFFFFFFFFFFFFFFFFFFFFFFFFFFFFFFFFFFFFFF AND DUP2 MSTORE PUSH1 0x20 ADD SWAP1 DUP2 MSTORE PUSH1 0x20 ADD PUSH1 0x0 KECCAK256 PUSH1 0x3 ADD PUSH1 0x0 SWAP1 SLOAD SWAP1 PUSH2 0x100 EXP SWAP1 DIV PUSH20 0xFFFFFFFFFFFFFFFFFFFFFFFFFFFFFFFFFFFFFFFF AND PUSH20 0xFFFFFFFFFFFFFFFFFFFFFFFFFFFFFFFFFFFFFFFF AND SUB PUSH2 0x1ACC JUMPI PUSH1 0x40 MLOAD PUSH32 0x8C379A000000000000000000000000000000000000000000000000000000000 DUP2 MSTORE PUSH1 0x4 ADD PUSH2 0x1AC3 SWAP1 PUSH2 0x8835 JUMP JUMPDEST PUSH1 0x40 MLOAD DUP1 SWAP2 SUB SWAP1 REVERT JUMPDEST PUSH2 0x1BAF PUSH1 0x1 PUSH1 0x0 DUP4 PUSH20 0xFFFFFFFFFFFFFFFFFFFFFFFFFFFFFFFFFFFFFFFF AND PUSH20 0xFFFFFFFFFFFFFFFFFFFFFFFFFFFFFFFFFFFFFFFF AND DUP2 MSTORE PUSH1 0x20 ADD SWAP1 DUP2 MSTORE PUSH1 0x20 ADD PUSH1 0x0 KECCAK256 PUSH1 0x1 ADD DUP1 SLOAD PUSH2 0x1B1C SWAP1 PUSH2 0x8884 JUMP JUMPDEST DUP1 PUSH1 0x1F ADD PUSH1 0x20 DUP1 SWAP2 DIV MUL PUSH1 0x20 ADD PUSH1 0x40 MLOAD SWAP1 DUP2 ADD PUSH1 0x40 MSTORE DUP1 SWAP3 SWAP2 SWAP1 DUP2 DUP2 MSTORE PUSH1 0x20 ADD DUP3 DUP1 SLOAD PUSH2 0x1B48 SWAP1 PUSH2 0x8884 JUMP JUMPDEST DUP1 ISZERO PUSH2 0x1B95 JUMPI DUP1 PUSH1 0x1F LT PUSH2 0x1B6A JUMPI PUSH2 0x100 DUP1 DUP4 SLOAD DIV MUL DUP4 MSTORE SWAP2 PUSH1 0x20 ADD SWAP2 PUSH2 0x1B95 JUMP JUMPDEST DUP3 ADD SWAP2 SWAP1 PUSH1 0x0 MSTORE PUSH1 0x20 PUSH1 0x0 KECCAK256 SWAP1 JUMPDEST DUP2 SLOAD DUP2 MSTORE SWAP1 PUSH1 0x1 ADD SWAP1 PUSH1 0x20 ADD DUP1 DUP4 GT PUSH2 0x1B78 JUMPI DUP3 SWAP1 SUB PUSH1 0x1F AND DUP3 ADD SWAP2 JUMPDEST POP POP POP POP POP PUSH1 0x40 MLOAD DUP1 PUSH1 0x20 ADD PUSH1 0x40 MSTORE DUP1 PUSH1 0x0 DUP2 MSTORE POP PUSH2 0x4C38 JUMP JUMPDEST ISZERO PUSH2 0x1BEF JUMPI PUSH1 0x40 MLOAD PUSH32 0x8C379A000000000000000000000000000000000000000000000000000000000 DUP2 MSTORE PUSH1 0x4 ADD PUSH2 0x1BE6 SWAP1 PUSH2 0x8901 JUMP JUMPDEST PUSH1 0x40 MLOAD DUP1 SWAP2 SUB SWAP1 REVERT JUMPDEST DUP4 PUSH1 0x0 PUSH20 0xFFFFFFFFFFFFFFFFFFFFFFFFFFFFFFFFFFFFFFFF AND PUSH1 0x3 PUSH1 0x0 DUP4 PUSH20 0xFFFFFFFFFFFFFFFFFFFFFFFFFFFFFFFFFFFFFFFF AND PUSH20 0xFFFFFFFFFFFFFFFFFFFFFFFFFFFFFFFFFFFFFFFF AND DUP2 MSTORE PUSH1 0x20 ADD SWAP1 DUP2 MSTORE PUSH1 0x20 ADD PUSH1 0x0 KECCAK256 PUSH1 0x2 ADD PUSH1 0x0 SWAP1 SLOAD SWAP1 PUSH2 0x100 EXP SWAP1 DIV PUSH20 0xFFFFFFFFFFFFFFFFFFFFFFFFFFFFFFFFFFFFFFFF AND PUSH20 0xFFFFFFFFFFFFFFFFFFFFFFFFFFFFFFFFFFFFFFFF AND SUB PUSH2 0x1CC1 JUMPI PUSH1 0x40 MLOAD PUSH32 0x8C379A000000000000000000000000000000000000000000000000000000000 DUP2 MSTORE PUSH1 0x4 ADD PUSH2 0x1CB8 SWAP1 PUSH2 0x896D JUMP JUMPDEST PUSH1 0x40 MLOAD DUP1 SWAP2 SUB SWAP1 REVERT JUMPDEST DUP1 PUSH20 0xFFFFFFFFFFFFFFFFFFFFFFFFFFFFFFFFFFFFFFFF AND PUSH1 0x3 PUSH1 0x0 DUP4 PUSH20 0xFFFFFFFFFFFFFFFFFFFFFFFFFFFFFFFFFFFFFFFF AND PUSH20 0xFFFFFFFFFFFFFFFFFFFFFFFFFFFFFFFFFFFFFFFF AND DUP2 MSTORE PUSH1 0x20 ADD SWAP1 DUP2 MSTORE PUSH1 0x20 ADD PUSH1 0x0 KECCAK256 PUSH1 0x2 ADD PUSH1 0x0 SWAP1 SLOAD SWAP1 PUSH2 0x100 EXP SWAP1 DIV PUSH20 0xFFFFFFFFFFFFFFFFFFFFFFFFFFFFFFFFFFFFFFFF AND PUSH20 0xFFFFFFFFFFFFFFFFFFFFFFFFFFFFFFFFFFFFFFFF AND EQ PUSH2 0x1D91 JUMPI PUSH1 0x40 MLOAD PUSH32 0x8C379A000000000000000000000000000000000000000000000000000000000 DUP2 MSTORE PUSH1 0x4 ADD PUSH2 0x1D88 SWAP1 PUSH2 0x896D JUMP JUMPDEST PUSH1 0x40 MLOAD DUP1 SWAP2 SUB SWAP1 REVERT JUMPDEST PUSH1 0x0 PUSH1 0x1 DUP2 GT ISZERO PUSH2 0x1DA5 JUMPI PUSH2 0x1DA4 PUSH2 0x7848 JUMP JUMPDEST JUMPDEST PUSH1 0x3 PUSH1 0x0 DUP4 PUSH20 0xFFFFFFFFFFFFFFFFFFFFFFFFFFFFFFFFFFFFFFFF AND PUSH20 0xFFFFFFFFFFFFFFFFFFFFFFFFFFFFFFFFFFFFFFFF AND DUP2 MSTORE PUSH1 0x20 ADD SWAP1 DUP2 MSTORE PUSH1 0x20 ADD PUSH1 0x0 KECCAK256 PUSH1 0x4 ADD PUSH1 0x2 SWAP1 SLOAD SWAP1 PUSH2 0x100 EXP SWAP1 DIV PUSH1 0xFF AND PUSH1 0x1 DUP2 GT ISZERO PUSH2 0x1E07 JUMPI PUSH2 0x1E06 PUSH2 0x7848 JUMP JUMPDEST JUMPDEST EQ PUSH2 0x1E47 JUMPI PUSH1 0x40 MLOAD PUSH32 0x8C379A000000000000000000000000000000000000000000000000000000000 DUP2 MSTORE PUSH1 0x4 ADD PUSH2 0x1E3E SWAP1 PUSH2 0x89D9 JUMP JUMPDEST PUSH1 0x40 MLOAD DUP1 SWAP2 SUB SWAP1 REVERT JUMPDEST PUSH1 0x0 PUSH2 0x1E53 DUP7 CALLER PUSH2 0x528F JUMP JUMPDEST SWAP1 POP PUSH2 0x1E5E DUP2 PUSH2 0x52BB JUMP JUMPDEST PUSH2 0x1E9D JUMPI PUSH1 0x40 MLOAD PUSH32 0x8C379A000000000000000000000000000000000000000000000000000000000 DUP2 MSTORE PUSH1 0x4 ADD PUSH2 0x1E94 SWAP1 PUSH2 0x9009 JUMP JUMPDEST PUSH1 0x40 MLOAD DUP1 SWAP2 SUB SWAP1 REVERT JUMPDEST PUSH1 0x0 DUP6 ISZERO PUSH2 0x1EAE JUMPI PUSH1 0x1 SWAP1 POP PUSH2 0x1EB3 JUMP JUMPDEST PUSH1 0x2 SWAP1 POP JUMPDEST DUP1 PUSH1 0x7 DUP4 PUSH1 0x40 MLOAD PUSH2 0x1EC4 SWAP2 SWAP1 PUSH2 0x8B0D JUMP JUMPDEST SWAP1 DUP2 MSTORE PUSH1 0x20 ADD PUSH1 0x40 MLOAD DUP1 SWAP2 SUB SWAP1 KECCAK256 PUSH1 0x7 ADD PUSH1 0x1 PUSH2 0x100 EXP DUP2 SLOAD DUP2 PUSH1 0xFF MUL NOT AND SWAP1 DUP4 PUSH1 0x2 DUP2 GT ISZERO PUSH2 0x1EF7 JUMPI PUSH2 0x1EF6 PUSH2 0x7848 JUMP JUMPDEST JUMPDEST MUL OR SWAP1 SSTORE POP DUP5 PUSH1 0x7 DUP4 PUSH1 0x40 MLOAD PUSH2 0x1F0D SWAP2 SWAP1 PUSH2 0x8B0D JUMP JUMPDEST SWAP1 DUP2 MSTORE PUSH1 0x20 ADD PUSH1 0x40 MLOAD DUP1 SWAP2 SUB SWAP1 KECCAK256 PUSH1 0x8 ADD SWAP1 DUP2 PUSH2 0x1F2A SWAP2 SWAP1 PUSH2 0x8CD0 JUMP JUMPDEST POP PUSH32 0x9A3F3F9DE5AC964F84F08C6124F7B844FFD73DE3FD4B472EB59F6B68E5729A81 DUP3 CALLER DUP10 DUP5 PUSH1 0x40 MLOAD PUSH2 0x1F60 SWAP5 SWAP4 SWAP3 SWAP2 SWAP1 PUSH2 0x9047 JUMP JUMPDEST PUSH1 0x40 MLOAD DUP1 SWAP2 SUB SWAP1 LOG1 POP POP POP POP POP POP POP JUMP JUMPDEST PUSH1 0x4 PUSH1 0x0 SWAP1 SLOAD SWAP1 PUSH2 0x100 EXP SWAP1 DIV PUSH20 0xFFFFFFFFFFFFFFFFFFFFFFFFFFFFFFFFFFFFFFFF AND PUSH20 0xFFFFFFFFFFFFFFFFFFFFFFFFFFFFFFFFFFFFFFFF AND CALLER PUSH20 0xFFFFFFFFFFFFFFFFFFFFFFFFFFFFFFFFFFFFFFFF AND EQ PUSH2 0x2001 JUMPI PUSH1 0x40 MLOAD PUSH32 0x8C379A000000000000000000000000000000000000000000000000000000000 DUP2 MSTORE PUSH1 0x4 ADD PUSH2 0x1FF8 SWAP1 PUSH2 0x8EF7 JUMP JUMPDEST PUSH1 0x40 MLOAD DUP1 SWAP2 SUB SWAP1 REVERT JUMPDEST PUSH2 0x200C DUP4 DUP4 DUP4 PUSH2 0x587D JUMP JUMPDEST DUP1 PUSH1 0x6 PUSH1 0x0 DUP6 PUSH20 0xFFFFFFFFFFFFFFFFFFFFFFFFFFFFFFFFFFFFFFFF AND PUSH20 0xFFFFFFFFFFFFFFFFFFFFFFFFFFFFFFFFFFFFFFFF AND DUP2 MSTORE PUSH1 0x20 ADD SWAP1 DUP2 MSTORE PUSH1 0x20 ADD PUSH1 0x0 KECCAK256 PUSH1 0x0 ADD SWAP1 DUP2 PUSH2 0x205B SWAP2 SWAP1 PUSH2 0x8CD0 JUMP JUMPDEST POP DUP2 PUSH1 0x6 PUSH1 0x0 DUP6 PUSH20 0xFFFFFFFFFFFFFFFFFFFFFFFFFFFFFFFFFFFFFFFF AND PUSH20 0xFFFFFFFFFFFFFFFFFFFFFFFFFFFFFFFFFFFFFFFF AND DUP2 MSTORE PUSH1 0x20 ADD SWAP1 DUP2 MSTORE PUSH1 0x20 ADD PUSH1 0x0 KECCAK256 PUSH1 0x1 ADD SWAP1 DUP2 PUSH2 0x20AB SWAP2 SWAP1 PUSH2 0x8CD0 JUMP JUMPDEST POP POP POP POP JUMP JUMPDEST CALLER PUSH1 0x0 PUSH20 0xFFFFFFFFFFFFFFFFFFFFFFFFFFFFFFFFFFFFFFFF AND DUP2 PUSH20 0xFFFFFFFFFFFFFFFFFFFFFFFFFFFFFFFFFFFFFFFF AND SUB PUSH2 0x2121 JUMPI PUSH1 0x40 MLOAD PUSH32 0x8C379A000000000000000000000000000000000000000000000000000000000 DUP2 MSTORE PUSH1 0x4 ADD PUSH2 0x2118 SWAP1 PUSH2 0x87C9 JUMP JUMPDEST PUSH1 0x40 MLOAD DUP1 SWAP2 SUB SWAP1 REVERT JUMPDEST PUSH1 0x0 PUSH20 0xFFFFFFFFFFFFFFFFFFFFFFFFFFFFFFFFFFFFFFFF AND PUSH1 0x1 PUSH1 0x0 DUP4 PUSH20 0xFFFFFFFFFFFFFFFFFFFFFFFFFFFFFFFFFFFFFFFF AND PUSH20 0xFFFFFFFFFFFFFFFFFFFFFFFFFFFFFFFFFFFFFFFF AND DUP2 MSTORE PUSH1 0x20 ADD SWAP1 DUP2 MSTORE PUSH1 0x20 ADD PUSH1 0x0 KECCAK256 PUSH1 0x3 ADD PUSH1 0x0 SWAP1 SLOAD SWAP1 PUSH2 0x100 EXP SWAP1 DIV PUSH20 0xFFFFFFFFFFFFFFFFFFFFFFFFFFFFFFFFFFFFFFFF AND PUSH20 0xFFFFFFFFFFFFFFFFFFFFFFFFFFFFFFFFFFFFFFFF AND SUB PUSH2 0x21F2 JUMPI PUSH1 0x40 MLOAD PUSH32 0x8C379A000000000000000000000000000000000000000000000000000000000 DUP2 MSTORE PUSH1 0x4 ADD PUSH2 0x21E9 SWAP1 PUSH2 0x8835 JUMP JUMPDEST PUSH1 0x40 MLOAD DUP1 SWAP2 SUB SWAP1 REVERT JUMPDEST PUSH2 0x22D5 PUSH1 0x1 PUSH1 0x0 DUP4 PUSH20 0xFFFFFFFFFFFFFFFFFFFFFFFFFFFFFFFFFFFFFFFF AND PUSH20 0xFFFFFFFFFFFFFFFFFFFFFFFFFFFFFFFFFFFFFFFF AND DUP2 MSTORE PUSH1 0x20 ADD SWAP1 DUP2 MSTORE PUSH1 0x20 ADD PUSH1 0x0 KECCAK256 PUSH1 0x1 ADD DUP1 SLOAD PUSH2 0x2242 SWAP1 PUSH2 0x8884 JUMP JUMPDEST DUP1 PUSH1 0x1F ADD PUSH1 0x20 DUP1 SWAP2 DIV MUL PUSH1 0x20 ADD PUSH1 0x40 MLOAD SWAP1 DUP2 ADD PUSH1 0x40 MSTORE DUP1 SWAP3 SWAP2 SWAP1 DUP2 DUP2 MSTORE PUSH1 0x20 ADD DUP3 DUP1 SLOAD PUSH2 0x226E SWAP1 PUSH2 0x8884 JUMP JUMPDEST DUP1 ISZERO PUSH2 0x22BB JUMPI DUP1 PUSH1 0x1F LT PUSH2 0x2290 JUMPI PUSH2 0x100 DUP1 DUP4 SLOAD DIV MUL DUP4 MSTORE SWAP2 PUSH1 0x20 ADD SWAP2 PUSH2 0x22BB JUMP JUMPDEST DUP3 ADD SWAP2 SWAP1 PUSH1 0x0 MSTORE PUSH1 0x20 PUSH1 0x0 KECCAK256 SWAP1 JUMPDEST DUP2 SLOAD DUP2 MSTORE SWAP1 PUSH1 0x1 ADD SWAP1 PUSH1 0x20 ADD DUP1 DUP4 GT PUSH2 0x229E JUMPI DUP3 SWAP1 SUB PUSH1 0x1F AND DUP3 ADD SWAP2 JUMPDEST POP POP POP POP POP PUSH1 0x40 MLOAD DUP1 PUSH1 0x20 ADD PUSH1 0x40 MSTORE DUP1 PUSH1 0x0 DUP2 MSTORE POP PUSH2 0x4C38 JUMP JUMPDEST ISZERO PUSH2 0x2315 JUMPI PUSH1 0x40 MLOAD PUSH32 0x8C379A000000000000000000000000000000000000000000000000000000000 DUP2 MSTORE PUSH1 0x4 ADD PUSH2 0x230C SWAP1 PUSH2 0x8901 JUMP JUMPDEST PUSH1 0x40 MLOAD DUP1 SWAP2 SUB SWAP1 REVERT JUMPDEST PUSH1 0x0 PUSH2 0x2321 DUP5 CALLER PUSH2 0x528F JUMP JUMPDEST SWAP1 POP PUSH2 0x232C DUP2 PUSH2 0x52BB JUMP JUMPDEST PUSH2 0x236B JUMPI PUSH1 0x40 MLOAD PUSH32 0x8C379A000000000000000000000000000000000000000000000000000000000 DUP2 MSTORE PUSH1 0x4 ADD PUSH2 0x2362 SWAP1 PUSH2 0x90DF JUMP JUMPDEST PUSH1 0x40 MLOAD DUP1 SWAP2 SUB SWAP1 REVERT JUMPDEST PUSH1 0x2 PUSH1 0x7 DUP3 PUSH1 0x40 MLOAD PUSH2 0x237D SWAP2 SWAP1 PUSH2 0x8B0D JUMP JUMPDEST SWAP1 DUP2 MSTORE PUSH1 0x20 ADD PUSH1 0x40 MLOAD DUP1 SWAP2 SUB SWAP1 KECCAK256 PUSH1 0x7 ADD PUSH1 0x1 PUSH2 0x100 EXP DUP2 SLOAD DUP2 PUSH1 0xFF MUL NOT AND SWAP1 DUP4 PUSH1 0x2 DUP2 GT ISZERO PUSH2 0x23B0 JUMPI PUSH2 0x23AF PUSH2 0x7848 JUMP JUMPDEST JUMPDEST MUL OR SWAP1 SSTORE POP DUP3 PUSH1 0x7 DUP3 PUSH1 0x40 MLOAD PUSH2 0x23C6 SWAP2 SWAP1 PUSH2 0x8B0D JUMP JUMPDEST SWAP1 DUP2 MSTORE PUSH1 0x20 ADD PUSH1 0x40 MLOAD DUP1 SWAP2 SUB SWAP1 KECCAK256 PUSH1 0x8 ADD SWAP1 DUP2 PUSH2 0x23E3 SWAP2 SWAP1 PUSH2 0x8CD0 JUMP JUMPDEST POP PUSH32 0x9A3F3F9DE5AC964F84F08C6124F7B844FFD73DE3FD4B472EB59F6B68E5729A81 DUP2 CALLER DUP7 PUSH1 0x2 PUSH1 0x40 MLOAD PUSH2 0x241A SWAP5 SWAP4 SWAP3 SWAP2 SWAP1 PUSH2 0x9047 JUMP JUMPDEST PUSH1 0x40 MLOAD DUP1 SWAP2 SUB SWAP1 LOG1 POP POP POP POP JUMP JUMPDEST PUSH1 0x0 PUSH1 0x60 PUSH1 0x4 PUSH1 0x0 SWAP1 SLOAD SWAP1 PUSH2 0x100 EXP SWAP1 DIV PUSH20 0xFFFFFFFFFFFFFFFFFFFFFFFFFFFFFFFFFFFFFFFF AND PUSH20 0xFFFFFFFFFFFFFFFFFFFFFFFFFFFFFFFFFFFFFFFF AND CALLER PUSH20 0xFFFFFFFFFFFFFFFFFFFFFFFFFFFFFFFFFFFFFFFF AND EQ PUSH2 0x24BC JUMPI PUSH1 0x40 MLOAD PUSH32 0x8C379A000000000000000000000000000000000000000000000000000000000 DUP2 MSTORE PUSH1 0x4 ADD PUSH2 0x24B3 SWAP1 PUSH2 0x8EF7 JUMP JUMPDEST PUSH1 0x40 MLOAD DUP1 SWAP2 SUB SWAP1 REVERT JUMPDEST PUSH2 0x24C5 DUP4 PUSH2 0x5A2E JUMP JUMPDEST SWAP2 POP SWAP2 POP SWAP2 POP SWAP2 JUMP JUMPDEST PUSH1 0x0 PUSH2 0x24D8 PUSH2 0x7431 JUMP JUMPDEST PUSH2 0x24E0 PUSH2 0x74FC JUMP JUMPDEST DUP4 PUSH1 0x0 PUSH20 0xFFFFFFFFFFFFFFFFFFFFFFFFFFFFFFFFFFFFFFFF AND DUP2 PUSH20 0xFFFFFFFFFFFFFFFFFFFFFFFFFFFFFFFFFFFFFFFF AND SUB PUSH2 0x2550 JUMPI PUSH1 0x40 MLOAD PUSH32 0x8C379A000000000000000000000000000000000000000000000000000000000 DUP2 MSTORE PUSH1 0x4 ADD PUSH2 0x2547 SWAP1 PUSH2 0x87C9 JUMP JUMPDEST PUSH1 0x40 MLOAD DUP1 SWAP2 SUB SWAP1 REVERT JUMPDEST PUSH1 0x0 PUSH20 0xFFFFFFFFFFFFFFFFFFFFFFFFFFFFFFFFFFFFFFFF AND PUSH1 0x1 PUSH1 0x0 DUP4 PUSH20 0xFFFFFFFFFFFFFFFFFFFFFFFFFFFFFFFFFFFFFFFF AND PUSH20 0xFFFFFFFFFFFFFFFFFFFFFFFFFFFFFFFFFFFFFFFF AND DUP2 MSTORE PUSH1 0x20 ADD SWAP1 DUP2 MSTORE PUSH1 0x20 ADD PUSH1 0x0 KECCAK256 PUSH1 0x3 ADD PUSH1 0x0 SWAP1 SLOAD SWAP1 PUSH2 0x100 EXP SWAP1 DIV PUSH20 0xFFFFFFFFFFFFFFFFFFFFFFFFFFFFFFFFFFFFFFFF AND PUSH20 0xFFFFFFFFFFFFFFFFFFFFFFFFFFFFFFFFFFFFFFFF AND SUB PUSH2 0x2621 JUMPI PUSH1 0x40 MLOAD PUSH32 0x8C379A000000000000000000000000000000000000000000000000000000000 DUP2 MSTORE PUSH1 0x4 ADD PUSH2 0x2618 SWAP1 PUSH2 0x8835 JUMP JUMPDEST PUSH1 0x40 MLOAD DUP1 SWAP2 SUB SWAP1 REVERT JUMPDEST PUSH2 0x2704 PUSH1 0x1 PUSH1 0x0 DUP4 PUSH20 0xFFFFFFFFFFFFFFFFFFFFFFFFFFFFFFFFFFFFFFFF AND PUSH20 0xFFFFFFFFFFFFFFFFFFFFFFFFFFFFFFFFFFFFFFFF AND DUP2 MSTORE PUSH1 0x20 ADD SWAP1 DUP2 MSTORE PUSH1 0x20 ADD PUSH1 0x0 KECCAK256 PUSH1 0x1 ADD DUP1 SLOAD PUSH2 0x2671 SWAP1 PUSH2 0x8884 JUMP JUMPDEST DUP1 PUSH1 0x1F ADD PUSH1 0x20 DUP1 SWAP2 DIV MUL PUSH1 0x20 ADD PUSH1 0x40 MLOAD SWAP1 DUP2 ADD PUSH1 0x40 MSTORE DUP1 SWAP3 SWAP2 SWAP1 DUP2 DUP2 MSTORE PUSH1 0x20 ADD DUP3 DUP1 SLOAD PUSH2 0x269D SWAP1 PUSH2 0x8884 JUMP JUMPDEST DUP1 ISZERO PUSH2 0x26EA JUMPI DUP1 PUSH1 0x1F LT PUSH2 0x26BF JUMPI PUSH2 0x100 DUP1 DUP4 SLOAD DIV MUL DUP4 MSTORE SWAP2 PUSH1 0x20 ADD SWAP2 PUSH2 0x26EA JUMP JUMPDEST DUP3 ADD SWAP2 SWAP1 PUSH1 0x0 MSTORE PUSH1 0x20 PUSH1 0x0 KECCAK256 SWAP1 JUMPDEST DUP2 SLOAD DUP2 MSTORE SWAP1 PUSH1 0x1 ADD SWAP1 PUSH1 0x20 ADD DUP1 DUP4 GT PUSH2 0x26CD JUMPI DUP3 SWAP1 SUB PUSH1 0x1F AND DUP3 ADD SWAP2 JUMPDEST POP POP POP POP POP PUSH1 0x40 MLOAD DUP1 PUSH1 0x20 ADD PUSH1 0x40 MSTORE DUP1 PUSH1 0x0 DUP2 MSTORE POP PUSH2 0x4C38 JUMP JUMPDEST ISZERO PUSH2 0x2744 JUMPI PUSH1 0x40 MLOAD PUSH32 0x8C379A000000000000000000000000000000000000000000000000000000000 DUP2 MSTORE PUSH1 0x4 ADD PUSH2 0x273B SWAP1 PUSH2 0x8901 JUMP JUMPDEST PUSH1 0x40 MLOAD DUP1 SWAP2 SUB SWAP1 REVERT JUMPDEST CALLER PUSH1 0x0 PUSH20 0xFFFFFFFFFFFFFFFFFFFFFFFFFFFFFFFFFFFFFFFF AND PUSH1 0x3 PUSH1 0x0 DUP4 PUSH20 0xFFFFFFFFFFFFFFFFFFFFFFFFFFFFFFFFFFFFFFFF AND PUSH20 0xFFFFFFFFFFFFFFFFFFFFFFFFFFFFFFFFFFFFFFFF AND DUP2 MSTORE PUSH1 0x20 ADD SWAP1 DUP2 MSTORE PUSH1 0x20 ADD PUSH1 0x0 KECCAK256 PUSH1 0x2 ADD PUSH1 0x0 SWAP1 SLOAD SWAP1 PUSH2 0x100 EXP SWAP1 DIV PUSH20 0xFFFFFFFFFFFFFFFFFFFFFFFFFFFFFFFFFFFFFFFF AND PUSH20 0xFFFFFFFFFFFFFFFFFFFFFFFFFFFFFFFFFFFFFFFF AND SUB PUSH2 0x2816 JUMPI PUSH1 0x40 MLOAD PUSH32 0x8C379A000000000000000000000000000000000000000000000000000000000 DUP2 MSTORE PUSH1 0x4 ADD PUSH2 0x280D SWAP1 PUSH2 0x896D JUMP JUMPDEST PUSH1 0x40 MLOAD DUP1 SWAP2 SUB SWAP1 REVERT JUMPDEST DUP1 PUSH20 0xFFFFFFFFFFFFFFFFFFFFFFFFFFFFFFFFFFFFFFFF AND PUSH1 0x3 PUSH1 0x0 DUP4 PUSH20 0xFFFFFFFFFFFFFFFFFFFFFFFFFFFFFFFFFFFFFFFF AND PUSH20 0xFFFFFFFFFFFFFFFFFFFFFFFFFFFFFFFFFFFFFFFF AND DUP2 MSTORE PUSH1 0x20 ADD SWAP1 DUP2 MSTORE PUSH1 0x20 ADD PUSH1 0x0 KECCAK256 PUSH1 0x2 ADD PUSH1 0x0 SWAP1 SLOAD SWAP1 PUSH2 0x100 EXP SWAP1 DIV PUSH20 0xFFFFFFFFFFFFFFFFFFFFFFFFFFFFFFFFFFFFFFFF AND PUSH20 0xFFFFFFFFFFFFFFFFFFFFFFFFFFFFFFFFFFFFFFFF AND EQ PUSH2 0x28E6 JUMPI PUSH1 0x40 MLOAD PUSH32 0x8C379A000000000000000000000000000000000000000000000000000000000 DUP2 MSTORE PUSH1 0x4 ADD PUSH2 0x28DD SWAP1 PUSH2 0x896D JUMP JUMPDEST PUSH1 0x40 MLOAD DUP1 SWAP2 SUB SWAP1 REVERT JUMPDEST PUSH1 0x0 PUSH1 0x1 DUP2 GT ISZERO PUSH2 0x28FA JUMPI PUSH2 0x28F9 PUSH2 0x7848 JUMP JUMPDEST JUMPDEST PUSH1 0x3 PUSH1 0x0 DUP4 PUSH20 0xFFFFFFFFFFFFFFFFFFFFFFFFFFFFFFFFFFFFFFFF AND PUSH20 0xFFFFFFFFFFFFFFFFFFFFFFFFFFFFFFFFFFFFFFFF AND DUP2 MSTORE PUSH1 0x20 ADD SWAP1 DUP2 MSTORE PUSH1 0x20 ADD PUSH1 0x0 KECCAK256 PUSH1 0x4 ADD PUSH1 0x2 SWAP1 SLOAD SWAP1 PUSH2 0x100 EXP SWAP1 DIV PUSH1 0xFF AND PUSH1 0x1 DUP2 GT ISZERO PUSH2 0x295C JUMPI PUSH2 0x295B PUSH2 0x7848 JUMP JUMPDEST JUMPDEST EQ PUSH2 0x299C JUMPI PUSH1 0x40 MLOAD PUSH32 0x8C379A000000000000000000000000000000000000000000000000000000000 DUP2 MSTORE PUSH1 0x4 ADD PUSH2 0x2993 SWAP1 PUSH2 0x89D9 JUMP JUMPDEST PUSH1 0x40 MLOAD DUP1 SWAP2 SUB SWAP1 REVERT JUMPDEST PUSH1 0x0 PUSH2 0x29A6 PUSH2 0x7431 JUMP JUMPDEST PUSH2 0x29AE PUSH2 0x74FC JUMP JUMPDEST PUSH2 0x2A7B DUP10 PUSH1 0x8 PUSH1 0x0 CALLER PUSH20 0xFFFFFFFFFFFFFFFFFFFFFFFFFFFFFFFFFFFFFFFF AND PUSH20 0xFFFFFFFFFFFFFFFFFFFFFFFFFFFFFFFFFFFFFFFF AND DUP2 MSTORE PUSH1 0x20 ADD SWAP1 DUP2 MSTORE PUSH1 0x20 ADD PUSH1 0x0 KECCAK256 DUP1 SLOAD DUP1 PUSH1 0x20 MUL PUSH1 0x20 ADD PUSH1 0x40 MLOAD SWAP1 DUP2 ADD PUSH1 0x40 MSTORE DUP1 SWAP3 SWAP2 SWAP1 DUP2 DUP2 MSTORE PUSH1 0x20 ADD DUP3 DUP1 SLOAD DUP1 ISZERO PUSH2 0x2A71 JUMPI PUSH1 0x20 MUL DUP3 ADD SWAP2 SWAP1 PUSH1 0x0 MSTORE PUSH1 0x20 PUSH1 0x0 KECCAK256 SWAP1 JUMPDEST DUP2 PUSH1 0x0 SWAP1 SLOAD SWAP1 PUSH2 0x100 EXP SWAP1 DIV PUSH20 0xFFFFFFFFFFFFFFFFFFFFFFFFFFFFFFFFFFFFFFFF AND PUSH20 0xFFFFFFFFFFFFFFFFFFFFFFFFFFFFFFFFFFFFFFFF AND DUP2 MSTORE PUSH1 0x20 ADD SWAP1 PUSH1 0x1 ADD SWAP1 DUP1 DUP4 GT PUSH2 0x2A27 JUMPI JUMPDEST POP POP POP POP POP PUSH2 0x5EAA JUMP JUMPDEST DUP1 SWAP4 POP DUP2 SWAP5 POP POP POP DUP3 ISZERO PUSH2 0x2EC5 JUMPI PUSH1 0x7 PUSH2 0x2A95 CALLER DUP12 PUSH2 0x528F JUMP JUMPDEST PUSH1 0x40 MLOAD PUSH2 0x2AA2 SWAP2 SWAP1 PUSH2 0x8B0D JUMP JUMPDEST SWAP1 DUP2 MSTORE PUSH1 0x20 ADD PUSH1 0x40 MLOAD DUP1 SWAP2 SUB SWAP1 KECCAK256 PUSH1 0x40 MLOAD DUP1 PUSH2 0x140 ADD PUSH1 0x40 MSTORE SWAP1 DUP2 PUSH1 0x0 DUP3 ADD DUP1 SLOAD PUSH2 0x2ACC SWAP1 PUSH2 0x8884 JUMP JUMPDEST DUP1 PUSH1 0x1F ADD PUSH1 0x20 DUP1 SWAP2 DIV MUL PUSH1 0x20 ADD PUSH1 0x40 MLOAD SWAP1 DUP2 ADD PUSH1 0x40 MSTORE DUP1 SWAP3 SWAP2 SWAP1 DUP2 DUP2 MSTORE PUSH1 0x20 ADD DUP3 DUP1 SLOAD PUSH2 0x2AF8 SWAP1 PUSH2 0x8884 JUMP JUMPDEST DUP1 ISZERO PUSH2 0x2B45 JUMPI DUP1 PUSH1 0x1F LT PUSH2 0x2B1A JUMPI PUSH2 0x100 DUP1 DUP4 SLOAD DIV MUL DUP4 MSTORE SWAP2 PUSH1 0x20 ADD SWAP2 PUSH2 0x2B45 JUMP JUMPDEST DUP3 ADD SWAP2 SWAP1 PUSH1 0x0 MSTORE PUSH1 0x20 PUSH1 0x0 KECCAK256 SWAP1 JUMPDEST DUP2 SLOAD DUP2 MSTORE SWAP1 PUSH1 0x1 ADD SWAP1 PUSH1 0x20 ADD DUP1 DUP4 GT PUSH2 0x2B28 JUMPI DUP3 SWAP1 SUB PUSH1 0x1F AND DUP3 ADD SWAP2 JUMPDEST POP POP POP POP POP DUP2 MSTORE PUSH1 0x20 ADD PUSH1 0x1 DUP3 ADD PUSH1 0x0 SWAP1 SLOAD SWAP1 PUSH2 0x100 EXP SWAP1 DIV PUSH20 0xFFFFFFFFFFFFFFFFFFFFFFFFFFFFFFFFFFFFFFFF AND PUSH20 0xFFFFFFFFFFFFFFFFFFFFFFFFFFFFFFFFFFFFFFFF AND PUSH20 0xFFFFFFFFFFFFFFFFFFFFFFFFFFFFFFFFFFFFFFFF AND DUP2 MSTORE PUSH1 0x20 ADD PUSH1 0x2 DUP3 ADD DUP1 SLOAD PUSH2 0x2BB4 SWAP1 PUSH2 0x8884 JUMP JUMPDEST DUP1 PUSH1 0x1F ADD PUSH1 0x20 DUP1 SWAP2 DIV MUL PUSH1 0x20 ADD PUSH1 0x40 MLOAD SWAP1 DUP2 ADD PUSH1 0x40 MSTORE DUP1 SWAP3 SWAP2 SWAP1 DUP2 DUP2 MSTORE PUSH1 0x20 ADD DUP3 DUP1 SLOAD PUSH2 0x2BE0 SWAP1 PUSH2 0x8884 JUMP JUMPDEST DUP1 ISZERO PUSH2 0x2C2D JUMPI DUP1 PUSH1 0x1F LT PUSH2 0x2C02 JUMPI PUSH2 0x100 DUP1 DUP4 SLOAD DIV MUL DUP4 MSTORE SWAP2 PUSH1 0x20 ADD SWAP2 PUSH2 0x2C2D JUMP JUMPDEST DUP3 ADD SWAP2 SWAP1 PUSH1 0x0 MSTORE PUSH1 0x20 PUSH1 0x0 KECCAK256 SWAP1 JUMPDEST DUP2 SLOAD DUP2 MSTORE SWAP1 PUSH1 0x1 ADD SWAP1 PUSH1 0x20 ADD DUP1 DUP4 GT PUSH2 0x2C10 JUMPI DUP3 SWAP1 SUB PUSH1 0x1F AND DUP3 ADD SWAP2 JUMPDEST POP POP POP POP POP DUP2 MSTORE PUSH1 0x20 ADD PUSH1 0x3 DUP3 ADD PUSH1 0x0 SWAP1 SLOAD SWAP1 PUSH2 0x100 EXP SWAP1 DIV PUSH20 0xFFFFFFFFFFFFFFFFFFFFFFFFFFFFFFFFFFFFFFFF AND PUSH20 0xFFFFFFFFFFFFFFFFFFFFFFFFFFFFFFFFFFFFFFFF AND PUSH20 0xFFFFFFFFFFFFFFFFFFFFFFFFFFFFFFFFFFFFFFFF AND DUP2 MSTORE PUSH1 0x20 ADD PUSH1 0x4 DUP3 ADD DUP1 SLOAD PUSH2 0x2C9C SWAP1 PUSH2 0x8884 JUMP JUMPDEST DUP1 PUSH1 0x1F ADD PUSH1 0x20 DUP1 SWAP2 DIV MUL PUSH1 0x20 ADD PUSH1 0x40 MLOAD SWAP1 DUP2 ADD PUSH1 0x40 MSTORE DUP1 SWAP3 SWAP2 SWAP1 DUP2 DUP2 MSTORE PUSH1 0x20 ADD DUP3 DUP1 SLOAD PUSH2 0x2CC8 SWAP1 PUSH2 0x8884 JUMP JUMPDEST DUP1 ISZERO PUSH2 0x2D15 JUMPI DUP1 PUSH1 0x1F LT PUSH2 0x2CEA JUMPI PUSH2 0x100 DUP1 DUP4 SLOAD DIV MUL DUP4 MSTORE SWAP2 PUSH1 0x20 ADD SWAP2 PUSH2 0x2D15 JUMP JUMPDEST DUP3 ADD SWAP2 SWAP1 PUSH1 0x0 MSTORE PUSH1 0x20 PUSH1 0x0 KECCAK256 SWAP1 JUMPDEST DUP2 SLOAD DUP2 MSTORE SWAP1 PUSH1 0x1 ADD SWAP1 PUSH1 0x20 ADD DUP1 DUP4 GT PUSH2 0x2CF8 JUMPI DUP3 SWAP1 SUB PUSH1 0x1F AND DUP3 ADD SWAP2 JUMPDEST POP POP POP POP POP DUP2 MSTORE PUSH1 0x20 ADD PUSH1 0x5 DUP3 ADD DUP1 SLOAD PUSH2 0x2D2E SWAP1 PUSH2 0x8884 JUMP JUMPDEST DUP1 PUSH1 0x1F ADD PUSH1 0x20 DUP1 SWAP2 DIV MUL PUSH1 0x20 ADD PUSH1 0x40 MLOAD SWAP1 DUP2 ADD PUSH1 0x40 MSTORE DUP1 SWAP3 SWAP2 SWAP1 DUP2 DUP2 MSTORE PUSH1 0x20 ADD DUP3 DUP1 SLOAD PUSH2 0x2D5A SWAP1 PUSH2 0x8884 JUMP JUMPDEST DUP1 ISZERO PUSH2 0x2DA7 JUMPI DUP1 PUSH1 0x1F LT PUSH2 0x2D7C JUMPI PUSH2 0x100 DUP1 DUP4 SLOAD DIV MUL DUP4 MSTORE SWAP2 PUSH1 0x20 ADD SWAP2 PUSH2 0x2DA7 JUMP JUMPDEST DUP3 ADD SWAP2 SWAP1 PUSH1 0x0 MSTORE PUSH1 0x20 PUSH1 0x0 KECCAK256 SWAP1 JUMPDEST DUP2 SLOAD DUP2 MSTORE SWAP1 PUSH1 0x1 ADD SWAP1 PUSH1 0x20 ADD DUP1 DUP4 GT PUSH2 0x2D8A JUMPI DUP3 SWAP1 SUB PUSH1 0x1F AND DUP3 ADD SWAP2 JUMPDEST POP POP POP POP POP DUP2 MSTORE PUSH1 0x20 ADD PUSH1 0x6 DUP3 ADD SLOAD DUP2 MSTORE PUSH1 0x20 ADD PUSH1 0x7 DUP3 ADD PUSH1 0x0 SWAP1 SLOAD SWAP1 PUSH2 0x100 EXP SWAP1 DIV PUSH1 0xFF AND PUSH1 0x2 DUP2 GT ISZERO PUSH2 0x2DDF JUMPI PUSH2 0x2DDE PUSH2 0x7848 JUMP JUMPDEST JUMPDEST PUSH1 0x2 DUP2 GT ISZERO PUSH2 0x2DF1 JUMPI PUSH2 0x2DF0 PUSH2 0x7848 JUMP JUMPDEST JUMPDEST DUP2 MSTORE PUSH1 0x20 ADD PUSH1 0x7 DUP3 ADD PUSH1 0x1 SWAP1 SLOAD SWAP1 PUSH2 0x100 EXP SWAP1 DIV PUSH1 0xFF AND PUSH1 0x2 DUP2 GT ISZERO PUSH2 0x2E1A JUMPI PUSH2 0x2E19 PUSH2 0x7848 JUMP JUMPDEST JUMPDEST PUSH1 0x2 DUP2 GT ISZERO PUSH2 0x2E2C JUMPI PUSH2 0x2E2B PUSH2 0x7848 JUMP JUMPDEST JUMPDEST DUP2 MSTORE PUSH1 0x20 ADD PUSH1 0x8 DUP3 ADD DUP1 SLOAD PUSH2 0x2E40 SWAP1 PUSH2 0x8884 JUMP JUMPDEST DUP1 PUSH1 0x1F ADD PUSH1 0x20 DUP1 SWAP2 DIV MUL PUSH1 0x20 ADD PUSH1 0x40 MLOAD SWAP1 DUP2 ADD PUSH1 0x40 MSTORE DUP1 SWAP3 SWAP2 SWAP1 DUP2 DUP2 MSTORE PUSH1 0x20 ADD DUP3 DUP1 SLOAD PUSH2 0x2E6C SWAP1 PUSH2 0x8884 JUMP JUMPDEST DUP1 ISZERO PUSH2 0x2EB9 JUMPI DUP1 PUSH1 0x1F LT PUSH2 0x2E8E JUMPI PUSH2 0x100 DUP1 DUP4 SLOAD DIV MUL DUP4 MSTORE SWAP2 PUSH1 0x20 ADD SWAP2 PUSH2 0x2EB9 JUMP JUMPDEST DUP3 ADD SWAP2 SWAP1 PUSH1 0x0 MSTORE PUSH1 0x20 PUSH1 0x0 KECCAK256 SWAP1 JUMPDEST DUP2 SLOAD DUP2 MSTORE SWAP1 PUSH1 0x1 ADD SWAP1 PUSH1 0x20 ADD DUP1 DUP4 GT PUSH2 0x2E9C JUMPI DUP3 SWAP1 SUB PUSH1 0x1F AND DUP3 ADD SWAP2 JUMPDEST POP POP POP POP POP DUP2 MSTORE POP POP SWAP1 POP JUMPDEST DUP3 DUP3 DUP3 SWAP8 POP SWAP8 POP SWAP8 POP POP POP POP POP POP SWAP2 SWAP4 SWAP1 SWAP3 POP JUMP JUMPDEST CALLER PUSH1 0x0 PUSH20 0xFFFFFFFFFFFFFFFFFFFFFFFFFFFFFFFFFFFFFFFF AND PUSH1 0x3 PUSH1 0x0 DUP4 PUSH20 0xFFFFFFFFFFFFFFFFFFFFFFFFFFFFFFFFFFFFFFFF AND PUSH20 0xFFFFFFFFFFFFFFFFFFFFFFFFFFFFFFFFFFFFFFFF AND DUP2 MSTORE PUSH1 0x20 ADD SWAP1 DUP2 MSTORE PUSH1 0x20 ADD PUSH1 0x0 KECCAK256 PUSH1 0x2 ADD PUSH1 0x0 SWAP1 SLOAD SWAP1 PUSH2 0x100 EXP SWAP1 DIV PUSH20 0xFFFFFFFFFFFFFFFFFFFFFFFFFFFFFFFFFFFFFFFF AND PUSH20 0xFFFFFFFFFFFFFFFFFFFFFFFFFFFFFFFFFFFFFFFF AND SUB PUSH2 0x2FAC JUMPI PUSH1 0x40 MLOAD PUSH32 0x8C379A000000000000000000000000000000000000000000000000000000000 DUP2 MSTORE PUSH1 0x4 ADD PUSH2 0x2FA3 SWAP1 PUSH2 0x896D JUMP JUMPDEST PUSH1 0x40 MLOAD DUP1 SWAP2 SUB SWAP1 REVERT JUMPDEST DUP1 PUSH20 0xFFFFFFFFFFFFFFFFFFFFFFFFFFFFFFFFFFFFFFFF AND PUSH1 0x3 PUSH1 0x0 DUP4 PUSH20 0xFFFFFFFFFFFFFFFFFFFFFFFFFFFFFFFFFFFFFFFF AND PUSH20 0xFFFFFFFFFFFFFFFFFFFFFFFFFFFFFFFFFFFFFFFF AND DUP2 MSTORE PUSH1 0x20 ADD SWAP1 DUP2 MSTORE PUSH1 0x20 ADD PUSH1 0x0 KECCAK256 PUSH1 0x2 ADD PUSH1 0x0 SWAP1 SLOAD SWAP1 PUSH2 0x100 EXP SWAP1 DIV PUSH20 0xFFFFFFFFFFFFFFFFFFFFFFFFFFFFFFFFFFFFFFFF AND PUSH20 0xFFFFFFFFFFFFFFFFFFFFFFFFFFFFFFFFFFFFFFFF AND EQ PUSH2 0x307C JUMPI PUSH1 0x40 MLOAD PUSH32 0x8C379A000000000000000000000000000000000000000000000000000000000 DUP2 MSTORE PUSH1 0x4 ADD PUSH2 0x3073 SWAP1 PUSH2 0x896D JUMP JUMPDEST PUSH1 0x40 MLOAD DUP1 SWAP2 SUB SWAP1 REVERT JUMPDEST PUSH1 0x0 PUSH1 0x1 DUP2 GT ISZERO PUSH2 0x3090 JUMPI PUSH2 0x308F PUSH2 0x7848 JUMP JUMPDEST JUMPDEST PUSH1 0x3 PUSH1 0x0 DUP4 PUSH20 0xFFFFFFFFFFFFFFFFFFFFFFFFFFFFFFFFFFFFFFFF AND PUSH20 0xFFFFFFFFFFFFFFFFFFFFFFFFFFFFFFFFFFFFFFFF AND DUP2 MSTORE PUSH1 0x20 ADD SWAP1 DUP2 MSTORE PUSH1 0x20 ADD PUSH1 0x0 KECCAK256 PUSH1 0x4 ADD PUSH1 0x2 SWAP1 SLOAD SWAP1 PUSH2 0x100 EXP SWAP1 DIV PUSH1 0xFF AND PUSH1 0x1 DUP2 GT ISZERO PUSH2 0x30F2 JUMPI PUSH2 0x30F1 PUSH2 0x7848 JUMP JUMPDEST JUMPDEST EQ PUSH2 0x3132 JUMPI PUSH1 0x40 MLOAD PUSH32 0x8C379A000000000000000000000000000000000000000000000000000000000 DUP2 MSTORE PUSH1 0x4 ADD PUSH2 0x3129 SWAP1 PUSH2 0x89D9 JUMP JUMPDEST PUSH1 0x40 MLOAD DUP1 SWAP2 SUB SWAP1 REVERT JUMPDEST PUSH1 0x0 PUSH2 0x3142 CALLER DUP7 PUSH1 0x60 ADD MLOAD PUSH2 0x528F JUMP JUMPDEST SWAP1 POP PUSH2 0x314D DUP2 PUSH2 0x52BB JUMP JUMPDEST ISZERO PUSH2 0x318D JUMPI PUSH1 0x40 MLOAD PUSH32 0x8C379A000000000000000000000000000000000000000000000000000000000 DUP2 MSTORE PUSH1 0x4 ADD PUSH2 0x3184 SWAP1 PUSH2 0x914B JUMP JUMPDEST PUSH1 0x40 MLOAD DUP1 SWAP2 SUB SWAP1 REVERT JUMPDEST PUSH1 0x40 MLOAD DUP1 PUSH2 0x140 ADD PUSH1 0x40 MSTORE DUP1 DUP3 DUP2 MSTORE PUSH1 0x20 ADD DUP7 PUSH1 0x60 ADD MLOAD PUSH20 0xFFFFFFFFFFFFFFFFFFFFFFFFFFFFFFFFFFFFFFFF AND DUP2 MSTORE PUSH1 0x20 ADD DUP7 PUSH1 0x0 ADD MLOAD DUP2 MSTORE PUSH1 0x20 ADD CALLER PUSH20 0xFFFFFFFFFFFFFFFFFFFFFFFFFFFFFFFFFFFFFFFF AND DUP2 MSTORE PUSH1 0x20 ADD PUSH2 0x31EE CALLER PUSH2 0x4F60 JUMP JUMPDEST PUSH1 0x0 ADD MLOAD DUP2 MSTORE PUSH1 0x20 ADD DUP7 PUSH1 0xA0 ADD MLOAD DUP2 MSTORE PUSH1 0x20 ADD DUP6 DUP2 MSTORE PUSH1 0x20 ADD PUSH1 0x0 PUSH1 0x2 DUP2 GT ISZERO PUSH2 0x321B JUMPI PUSH2 0x321A PUSH2 0x7848 JUMP JUMPDEST JUMPDEST DUP2 MSTORE PUSH1 0x20 ADD PUSH1 0x0 PUSH1 0x2 DUP2 GT ISZERO PUSH2 0x3234 JUMPI PUSH2 0x3233 PUSH2 0x7848 JUMP JUMPDEST JUMPDEST DUP2 MSTORE PUSH1 0x20 ADD DUP5 DUP2 MSTORE POP PUSH1 0x7 DUP3 PUSH1 0x40 MLOAD PUSH2 0x324D SWAP2 SWAP1 PUSH2 0x8B0D JUMP JUMPDEST SWAP1 DUP2 MSTORE PUSH1 0x20 ADD PUSH1 0x40 MLOAD DUP1 SWAP2 SUB SWAP1 KECCAK256 PUSH1 0x0 DUP3 ADD MLOAD DUP2 PUSH1 0x0 ADD SWAP1 DUP2 PUSH2 0x3270 SWAP2 SWAP1 PUSH2 0x8CD0 JUMP JUMPDEST POP PUSH1 0x20 DUP3 ADD MLOAD DUP2 PUSH1 0x1 ADD PUSH1 0x0 PUSH2 0x100 EXP DUP2 SLOAD DUP2 PUSH20 0xFFFFFFFFFFFFFFFFFFFFFFFFFFFFFFFFFFFFFFFF MUL NOT AND SWAP1 DUP4 PUSH20 0xFFFFFFFFFFFFFFFFFFFFFFFFFFFFFFFFFFFFFFFF AND MUL OR SWAP1 SSTORE POP PUSH1 0x40 DUP3 ADD MLOAD DUP2 PUSH1 0x2 ADD SWAP1 DUP2 PUSH2 0x32CD SWAP2 SWAP1 PUSH2 0x8CD0 JUMP JUMPDEST POP PUSH1 0x60 DUP3 ADD MLOAD DUP2 PUSH1 0x3 ADD PUSH1 0x0 PUSH2 0x100 EXP DUP2 SLOAD DUP2 PUSH20 0xFFFFFFFFFFFFFFFFFFFFFFFFFFFFFFFFFFFFFFFF MUL NOT AND SWAP1 DUP4 PUSH20 0xFFFFFFFFFFFFFFFFFFFFFFFFFFFFFFFFFFFFFFFF AND MUL OR SWAP1 SSTORE POP PUSH1 0x80 DUP3 ADD MLOAD DUP2 PUSH1 0x4 ADD SWAP1 DUP2 PUSH2 0x332A SWAP2 SWAP1 PUSH2 0x8CD0 JUMP JUMPDEST POP PUSH1 0xA0 DUP3 ADD MLOAD DUP2 PUSH1 0x5 ADD SWAP1 DUP2 PUSH2 0x3340 SWAP2 SWAP1 PUSH2 0x8CD0 JUMP JUMPDEST POP PUSH1 0xC0 DUP3 ADD MLOAD DUP2 PUSH1 0x6 ADD SSTORE PUSH1 0xE0 DUP3 ADD MLOAD DUP2 PUSH1 0x7 ADD PUSH1 0x0 PUSH2 0x100 EXP DUP2 SLOAD DUP2 PUSH1 0xFF MUL NOT AND SWAP1 DUP4 PUSH1 0x2 DUP2 GT ISZERO PUSH2 0x3376 JUMPI PUSH2 0x3375 PUSH2 0x7848 JUMP JUMPDEST JUMPDEST MUL OR SWAP1 SSTORE POP PUSH2 0x100 DUP3 ADD MLOAD DUP2 PUSH1 0x7 ADD PUSH1 0x1 PUSH2 0x100 EXP DUP2 SLOAD DUP2 PUSH1 0xFF MUL NOT AND SWAP1 DUP4 PUSH1 0x2 DUP2 GT ISZERO PUSH2 0x33A7 JUMPI PUSH2 0x33A6 PUSH2 0x7848 JUMP JUMPDEST JUMPDEST MUL OR SWAP1 SSTORE POP PUSH2 0x120 DUP3 ADD MLOAD DUP2 PUSH1 0x8 ADD SWAP1 DUP2 PUSH2 0x33C2 SWAP2 SWAP1 PUSH2 0x8CD0 JUMP JUMPDEST POP SWAP1 POP POP PUSH1 0x8 PUSH1 0x0 CALLER PUSH20 0xFFFFFFFFFFFFFFFFFFFFFFFFFFFFFFFFFFFFFFFF AND PUSH20 0xFFFFFFFFFFFFFFFFFFFFFFFFFFFFFFFFFFFFFFFF AND DUP2 MSTORE PUSH1 0x20 ADD SWAP1 DUP2 MSTORE PUSH1 0x20 ADD PUSH1 0x0 KECCAK256 DUP6 PUSH1 0x60 ADD MLOAD SWAP1 DUP1 PUSH1 0x1 DUP2 SLOAD ADD DUP1 DUP3 SSTORE DUP1 SWAP2 POP POP PUSH1 0x1 SWAP1 SUB SWAP1 PUSH1 0x0 MSTORE PUSH1 0x20 PUSH1 0x0 KECCAK256 ADD PUSH1 0x0 SWAP1 SWAP2 SWAP1 SWAP2 SWAP1 SWAP2 PUSH2 0x100 EXP DUP2 SLOAD DUP2 PUSH20 0xFFFFFFFFFFFFFFFFFFFFFFFFFFFFFFFFFFFFFFFF MUL NOT AND SWAP1 DUP4 PUSH20 0xFFFFFFFFFFFFFFFFFFFFFFFFFFFFFFFFFFFFFFFF AND MUL OR SWAP1 SSTORE POP PUSH1 0x9 PUSH1 0x0 DUP7 PUSH1 0x60 ADD MLOAD PUSH20 0xFFFFFFFFFFFFFFFFFFFFFFFFFFFFFFFFFFFFFFFF AND PUSH20 0xFFFFFFFFFFFFFFFFFFFFFFFFFFFFFFFFFFFFFFFF AND DUP2 MSTORE PUSH1 0x20 ADD SWAP1 DUP2 MSTORE PUSH1 0x20 ADD PUSH1 0x0 KECCAK256 CALLER SWAP1 DUP1 PUSH1 0x1 DUP2 SLOAD ADD DUP1 DUP3 SSTORE DUP1 SWAP2 POP POP PUSH1 0x1 SWAP1 SUB SWAP1 PUSH1 0x0 MSTORE PUSH1 0x20 PUSH1 0x0 KECCAK256 ADD PUSH1 0x0 SWAP1 SWAP2 SWAP1 SWAP2 SWAP1 SWAP2 PUSH2 0x100 EXP DUP2 SLOAD DUP2 PUSH20 0xFFFFFFFFFFFFFFFFFFFFFFFFFFFFFFFFFFFFFFFF MUL NOT AND SWAP1 DUP4 PUSH20 0xFFFFFFFFFFFFFFFFFFFFFFFFFFFFFFFFFFFFFFFF AND MUL OR SWAP1 SSTORE POP PUSH32 0x1C9CA7942139211BFB75EC030EE95C38E96F4EB7D755B28D3EEDE55F8D5EB86D DUP2 PUSH1 0x7 DUP4 PUSH1 0x40 MLOAD PUSH2 0x3540 SWAP2 SWAP1 PUSH2 0x8B0D JUMP JUMPDEST SWAP1 DUP2 MSTORE PUSH1 0x20 ADD PUSH1 0x40 MLOAD DUP1 SWAP2 SUB SWAP1 KECCAK256 PUSH1 0x4 ADD DUP8 PUSH1 0x0 ADD MLOAD PUSH1 0x40 MLOAD PUSH2 0x3565 SWAP4 SWAP3 SWAP2 SWAP1 PUSH2 0x916B JUMP JUMPDEST PUSH1 0x40 MLOAD DUP1 SWAP2 SUB SWAP1 LOG1 PUSH2 0x357A DUP6 PUSH1 0x60 ADD MLOAD PUSH2 0x53D0 JUMP JUMPDEST PUSH2 0x3776 JUMPI PUSH2 0x3587 DUP6 PUSH2 0x6205 JUMP JUMPDEST PUSH1 0x40 MLOAD DUP1 PUSH1 0xA0 ADD PUSH1 0x40 MSTORE DUP1 DUP7 PUSH1 0x0 ADD MLOAD DUP2 MSTORE PUSH1 0x20 ADD DUP7 PUSH1 0x20 ADD MLOAD DUP2 MSTORE PUSH1 0x20 ADD DUP7 PUSH1 0x60 ADD MLOAD PUSH20 0xFFFFFFFFFFFFFFFFFFFFFFFFFFFFFFFFFFFFFFFF AND DUP2 MSTORE PUSH1 0x20 ADD PUSH1 0x2 DUP1 DUP2 GT ISZERO PUSH2 0x35D9 JUMPI PUSH2 0x35D8 PUSH2 0x7848 JUMP JUMPDEST JUMPDEST DUP2 MSTORE PUSH1 0x20 ADD PUSH1 0x0 PUSH1 0x1 DUP2 GT ISZERO PUSH2 0x35F2 JUMPI PUSH2 0x35F1 PUSH2 0x7848 JUMP JUMPDEST JUMPDEST DUP2 MSTORE POP PUSH1 0x6 PUSH1 0x0 DUP8 PUSH1 0x60 ADD MLOAD PUSH20 0xFFFFFFFFFFFFFFFFFFFFFFFFFFFFFFFFFFFFFFFF AND PUSH20 0xFFFFFFFFFFFFFFFFFFFFFFFFFFFFFFFFFFFFFFFF AND DUP2 MSTORE PUSH1 0x20 ADD SWAP1 DUP2 MSTORE PUSH1 0x20 ADD PUSH1 0x0 KECCAK256 PUSH1 0x0 DUP3 ADD MLOAD DUP2 PUSH1 0x0 ADD SWAP1 DUP2 PUSH2 0x364D SWAP2 SWAP1 PUSH2 0x8CD0 JUMP JUMPDEST POP PUSH1 0x20 DUP3 ADD MLOAD DUP2 PUSH1 0x1 ADD SWAP1 DUP2 PUSH2 0x3663 SWAP2 SWAP1 PUSH2 0x8CD0 JUMP JUMPDEST POP PUSH1 0x40 DUP3 ADD MLOAD DUP2 PUSH1 0x2 ADD PUSH1 0x0 PUSH2 0x100 EXP DUP2 SLOAD DUP2 PUSH20 0xFFFFFFFFFFFFFFFFFFFFFFFFFFFFFFFFFFFFFFFF MUL NOT AND SWAP1 DUP4 PUSH20 0xFFFFFFFFFFFFFFFFFFFFFFFFFFFFFFFFFFFFFFFF AND MUL OR SWAP1 SSTORE POP PUSH1 0x60 DUP3 ADD MLOAD DUP2 PUSH1 0x2 ADD PUSH1 0x14 PUSH2 0x100 EXP DUP2 SLOAD DUP2 PUSH1 0xFF MUL NOT AND SWAP1 DUP4 PUSH1 0x2 DUP2 GT ISZERO PUSH2 0x36D6 JUMPI PUSH2 0x36D5 PUSH2 0x7848 JUMP JUMPDEST JUMPDEST MUL OR SWAP1 SSTORE POP PUSH1 0x80 DUP3 ADD MLOAD DUP2 PUSH1 0x2 ADD PUSH1 0x15 PUSH2 0x100 EXP DUP2 SLOAD DUP2 PUSH1 0xFF MUL NOT AND SWAP1 DUP4 PUSH1 0x1 DUP2 GT ISZERO PUSH2 0x3706 JUMPI PUSH2 0x3705 PUSH2 0x7848 JUMP JUMPDEST JUMPDEST MUL OR SWAP1 SSTORE POP SWAP1 POP POP PUSH1 0x5 DUP6 PUSH1 0x60 ADD MLOAD SWAP1 DUP1 PUSH1 0x1 DUP2 SLOAD ADD DUP1 DUP3 SSTORE DUP1 SWAP2 POP POP PUSH1 0x1 SWAP1 SUB SWAP1 PUSH1 0x0 MSTORE PUSH1 0x20 PUSH1 0x0 KECCAK256 ADD PUSH1 0x0 SWAP1 SWAP2 SWAP1 SWAP2 SWAP1 SWAP2 PUSH2 0x100 EXP DUP2 SLOAD DUP2 PUSH20 0xFFFFFFFFFFFFFFFFFFFFFFFFFFFFFFFFFFFFFFFF MUL NOT AND SWAP1 DUP4 PUSH20 0xFFFFFFFFFFFFFFFFFFFFFFFFFFFFFFFFFFFFFFFF AND MUL OR SWAP1 SSTORE POP JUMPDEST POP POP POP POP POP JUMP JUMPDEST CALLER PUSH1 0x0 PUSH20 0xFFFFFFFFFFFFFFFFFFFFFFFFFFFFFFFFFFFFFFFF AND DUP2 PUSH20 0xFFFFFFFFFFFFFFFFFFFFFFFFFFFFFFFFFFFFFFFF AND SUB PUSH2 0x37ED JUMPI PUSH1 0x40 MLOAD PUSH32 0x8C379A000000000000000000000000000000000000000000000000000000000 DUP2 MSTORE PUSH1 0x4 ADD PUSH2 0x37E4 SWAP1 PUSH2 0x87C9 JUMP JUMPDEST PUSH1 0x40 MLOAD DUP1 SWAP2 SUB SWAP1 REVERT JUMPDEST PUSH1 0x0 PUSH20 0xFFFFFFFFFFFFFFFFFFFFFFFFFFFFFFFFFFFFFFFF AND PUSH1 0x1 PUSH1 0x0 DUP4 PUSH20 0xFFFFFFFFFFFFFFFFFFFFFFFFFFFFFFFFFFFFFFFF AND PUSH20 0xFFFFFFFFFFFFFFFFFFFFFFFFFFFFFFFFFFFFFFFF AND DUP2 MSTORE PUSH1 0x20 ADD SWAP1 DUP2 MSTORE PUSH1 0x20 ADD PUSH1 0x0 KECCAK256 PUSH1 0x3 ADD PUSH1 0x0 SWAP1 SLOAD SWAP1 PUSH2 0x100 EXP SWAP1 DIV PUSH20 0xFFFFFFFFFFFFFFFFFFFFFFFFFFFFFFFFFFFFFFFF AND PUSH20 0xFFFFFFFFFFFFFFFFFFFFFFFFFFFFFFFFFFFFFFFF AND SUB PUSH2 0x38BE JUMPI PUSH1 0x40 MLOAD PUSH32 0x8C379A000000000000000000000000000000000000000000000000000000000 DUP2 MSTORE PUSH1 0x4 ADD PUSH2 0x38B5 SWAP1 PUSH2 0x8835 JUMP JUMPDEST PUSH1 0x40 MLOAD DUP1 SWAP2 SUB SWAP1 REVERT JUMPDEST PUSH2 0x39A1 PUSH1 0x1 PUSH1 0x0 DUP4 PUSH20 0xFFFFFFFFFFFFFFFFFFFFFFFFFFFFFFFFFFFFFFFF AND PUSH20 0xFFFFFFFFFFFFFFFFFFFFFFFFFFFFFFFFFFFFFFFF AND DUP2 MSTORE PUSH1 0x20 ADD SWAP1 DUP2 MSTORE PUSH1 0x20 ADD PUSH1 0x0 KECCAK256 PUSH1 0x1 ADD DUP1 SLOAD PUSH2 0x390E SWAP1 PUSH2 0x8884 JUMP JUMPDEST DUP1 PUSH1 0x1F ADD PUSH1 0x20 DUP1 SWAP2 DIV MUL PUSH1 0x20 ADD PUSH1 0x40 MLOAD SWAP1 DUP2 ADD PUSH1 0x40 MSTORE DUP1 SWAP3 SWAP2 SWAP1 DUP2 DUP2 MSTORE PUSH1 0x20 ADD DUP3 DUP1 SLOAD PUSH2 0x393A SWAP1 PUSH2 0x8884 JUMP JUMPDEST DUP1 ISZERO PUSH2 0x3987 JUMPI DUP1 PUSH1 0x1F LT PUSH2 0x395C JUMPI PUSH2 0x100 DUP1 DUP4 SLOAD DIV MUL DUP4 MSTORE SWAP2 PUSH1 0x20 ADD SWAP2 PUSH2 0x3987 JUMP JUMPDEST DUP3 ADD SWAP2 SWAP1 PUSH1 0x0 MSTORE PUSH1 0x20 PUSH1 0x0 KECCAK256 SWAP1 JUMPDEST DUP2 SLOAD DUP2 MSTORE SWAP1 PUSH1 0x1 ADD SWAP1 PUSH1 0x20 ADD DUP1 DUP4 GT PUSH2 0x396A JUMPI DUP3 SWAP1 SUB PUSH1 0x1F AND DUP3 ADD SWAP2 JUMPDEST POP POP POP POP POP PUSH1 0x40 MLOAD DUP1 PUSH1 0x20 ADD PUSH1 0x40 MSTORE DUP1 PUSH1 0x0 DUP2 MSTORE POP PUSH2 0x4C38 JUMP JUMPDEST ISZERO PUSH2 0x39E1 JUMPI PUSH1 0x40 MLOAD PUSH32 0x8C379A000000000000000000000000000000000000000000000000000000000 DUP2 MSTORE PUSH1 0x4 ADD PUSH2 0x39D8 SWAP1 PUSH2 0x8901 JUMP JUMPDEST PUSH1 0x40 MLOAD DUP1 SWAP2 SUB SWAP1 REVERT JUMPDEST PUSH2 0x39EC DUP5 DUP5 DUP5 PUSH2 0x63E1 JUMP JUMPDEST DUP4 PUSH1 0x6 PUSH1 0x0 CALLER PUSH20 0xFFFFFFFFFFFFFFFFFFFFFFFFFFFFFFFFFFFFFFFF AND PUSH20 0xFFFFFFFFFFFFFFFFFFFFFFFFFFFFFFFFFFFFFFFF AND DUP2 MSTORE PUSH1 0x20 ADD SWAP1 DUP2 MSTORE PUSH1 0x20 ADD PUSH1 0x0 KECCAK256 PUSH1 0x0 ADD SWAP1 DUP2 PUSH2 0x3A3B SWAP2 SWAP1 PUSH2 0x8CD0 JUMP JUMPDEST POP DUP3 PUSH1 0x6 PUSH1 0x0 CALLER PUSH20 0xFFFFFFFFFFFFFFFFFFFFFFFFFFFFFFFFFFFFFFFF AND PUSH20 0xFFFFFFFFFFFFFFFFFFFFFFFFFFFFFFFFFFFFFFFF AND DUP2 MSTORE PUSH1 0x20 ADD SWAP1 DUP2 MSTORE PUSH1 0x20 ADD PUSH1 0x0 KECCAK256 PUSH1 0x1 ADD SWAP1 DUP2 PUSH2 0x3A8B SWAP2 SWAP1 PUSH2 0x8CD0 JUMP JUMPDEST POP POP POP POP POP JUMP JUMPDEST CALLER PUSH1 0x0 PUSH20 0xFFFFFFFFFFFFFFFFFFFFFFFFFFFFFFFFFFFFFFFF AND DUP2 PUSH20 0xFFFFFFFFFFFFFFFFFFFFFFFFFFFFFFFFFFFFFFFF AND SUB PUSH2 0x3B02 JUMPI PUSH1 0x40 MLOAD PUSH32 0x8C379A000000000000000000000000000000000000000000000000000000000 DUP2 MSTORE PUSH1 0x4 ADD PUSH2 0x3AF9 SWAP1 PUSH2 0x87C9 JUMP JUMPDEST PUSH1 0x40 MLOAD DUP1 SWAP2 SUB SWAP1 REVERT JUMPDEST PUSH1 0x0 PUSH20 0xFFFFFFFFFFFFFFFFFFFFFFFFFFFFFFFFFFFFFFFF AND PUSH1 0x1 PUSH1 0x0 DUP4 PUSH20 0xFFFFFFFFFFFFFFFFFFFFFFFFFFFFFFFFFFFFFFFF AND PUSH20 0xFFFFFFFFFFFFFFFFFFFFFFFFFFFFFFFFFFFFFFFF AND DUP2 MSTORE PUSH1 0x20 ADD SWAP1 DUP2 MSTORE PUSH1 0x20 ADD PUSH1 0x0 KECCAK256 PUSH1 0x3 ADD PUSH1 0x0 SWAP1 SLOAD SWAP1 PUSH2 0x100 EXP SWAP1 DIV PUSH20 0xFFFFFFFFFFFFFFFFFFFFFFFFFFFFFFFFFFFFFFFF AND PUSH20 0xFFFFFFFFFFFFFFFFFFFFFFFFFFFFFFFFFFFFFFFF AND SUB PUSH2 0x3BD3 JUMPI PUSH1 0x40 MLOAD PUSH32 0x8C379A000000000000000000000000000000000000000000000000000000000 DUP2 MSTORE PUSH1 0x4 ADD PUSH2 0x3BCA SWAP1 PUSH2 0x8835 JUMP JUMPDEST PUSH1 0x40 MLOAD DUP1 SWAP2 SUB SWAP1 REVERT JUMPDEST PUSH2 0x3CB6 PUSH1 0x1 PUSH1 0x0 DUP4 PUSH20 0xFFFFFFFFFFFFFFFFFFFFFFFFFFFFFFFFFFFFFFFF AND PUSH20 0xFFFFFFFFFFFFFFFFFFFFFFFFFFFFFFFFFFFFFFFF AND DUP2 MSTORE PUSH1 0x20 ADD SWAP1 DUP2 MSTORE PUSH1 0x20 ADD PUSH1 0x0 KECCAK256 PUSH1 0x1 ADD DUP1 SLOAD PUSH2 0x3C23 SWAP1 PUSH2 0x8884 JUMP JUMPDEST DUP1 PUSH1 0x1F ADD PUSH1 0x20 DUP1 SWAP2 DIV MUL PUSH1 0x20 ADD PUSH1 0x40 MLOAD SWAP1 DUP2 ADD PUSH1 0x40 MSTORE DUP1 SWAP3 SWAP2 SWAP1 DUP2 DUP2 MSTORE PUSH1 0x20 ADD DUP3 DUP1 SLOAD PUSH2 0x3C4F SWAP1 PUSH2 0x8884 JUMP JUMPDEST DUP1 ISZERO PUSH2 0x3C9C JUMPI DUP1 PUSH1 0x1F LT PUSH2 0x3C71 JUMPI PUSH2 0x100 DUP1 DUP4 SLOAD DIV MUL DUP4 MSTORE SWAP2 PUSH1 0x20 ADD SWAP2 PUSH2 0x3C9C JUMP JUMPDEST DUP3 ADD SWAP2 SWAP1 PUSH1 0x0 MSTORE PUSH1 0x20 PUSH1 0x0 KECCAK256 SWAP1 JUMPDEST DUP2 SLOAD DUP2 MSTORE SWAP1 PUSH1 0x1 ADD SWAP1 PUSH1 0x20 ADD DUP1 DUP4 GT PUSH2 0x3C7F JUMPI DUP3 SWAP1 SUB PUSH1 0x1F AND DUP3 ADD SWAP2 JUMPDEST POP POP POP POP POP PUSH1 0x40 MLOAD DUP1 PUSH1 0x20 ADD PUSH1 0x40 MSTORE DUP1 PUSH1 0x0 DUP2 MSTORE POP PUSH2 0x4C38 JUMP JUMPDEST ISZERO PUSH2 0x3CF6 JUMPI PUSH1 0x40 MLOAD PUSH32 0x8C379A000000000000000000000000000000000000000000000000000000000 DUP2 MSTORE PUSH1 0x4 ADD PUSH2 0x3CED SWAP1 PUSH2 0x8901 JUMP JUMPDEST PUSH1 0x40 MLOAD DUP1 SWAP2 SUB SWAP1 REVERT JUMPDEST PUSH2 0x3D00 DUP4 DUP4 PUSH2 0x6508 JUMP JUMPDEST PUSH1 0x0 PUSH1 0x9 PUSH1 0x0 CALLER PUSH20 0xFFFFFFFFFFFFFFFFFFFFFFFFFFFFFFFFFFFFFFFF AND PUSH20 0xFFFFFFFFFFFFFFFFFFFFFFFFFFFFFFFFFFFFFFFF AND DUP2 MSTORE PUSH1 0x20 ADD SWAP1 DUP2 MSTORE PUSH1 0x20 ADD PUSH1 0x0 KECCAK256 DUP1 SLOAD DUP1 PUSH1 0x20 MUL PUSH1 0x20 ADD PUSH1 0x40 MLOAD SWAP1 DUP2 ADD PUSH1 0x40 MSTORE DUP1 SWAP3 SWAP2 SWAP1 DUP2 DUP2 MSTORE PUSH1 0x20 ADD DUP3 DUP1 SLOAD DUP1 ISZERO PUSH2 0x3DC1 JUMPI PUSH1 0x20 MUL DUP3 ADD SWAP2 SWAP1 PUSH1 0x0 MSTORE PUSH1 0x20 PUSH1 0x0 KECCAK256 SWAP1 JUMPDEST DUP2 PUSH1 0x0 SWAP1 SLOAD SWAP1 PUSH2 0x100 EXP SWAP1 DIV PUSH20 0xFFFFFFFFFFFFFFFFFFFFFFFFFFFFFFFFFFFFFFFF AND PUSH20 0xFFFFFFFFFFFFFFFFFFFFFFFFFFFFFFFFFFFFFFFF AND DUP2 MSTORE PUSH1 0x20 ADD SWAP1 PUSH1 0x1 ADD SWAP1 DUP1 DUP4 GT PUSH2 0x3D77 JUMPI JUMPDEST POP POP POP POP POP SWAP1 POP PUSH1 0x0 JUMPDEST DUP2 MLOAD DUP2 LT ISZERO PUSH2 0x3F22 JUMPI PUSH1 0x0 PUSH2 0x3DFA DUP4 DUP4 DUP2 MLOAD DUP2 LT PUSH2 0x3DEC JUMPI PUSH2 0x3DEB PUSH2 0x8F17 JUMP JUMPDEST JUMPDEST PUSH1 0x20 MUL PUSH1 0x20 ADD ADD MLOAD CALLER PUSH2 0x528F JUMP JUMPDEST SWAP1 POP PUSH2 0x3E05 DUP2 PUSH2 0x52BB JUMP JUMPDEST ISZERO PUSH2 0x3F0E JUMPI DUP6 PUSH1 0x7 DUP3 PUSH1 0x40 MLOAD PUSH2 0x3E1B SWAP2 SWAP1 PUSH2 0x8B0D JUMP JUMPDEST SWAP1 DUP2 MSTORE PUSH1 0x20 ADD PUSH1 0x40 MLOAD DUP1 SWAP2 SUB SWAP1 KECCAK256 PUSH1 0x5 ADD SWAP1 DUP2 PUSH2 0x3E38 SWAP2 SWAP1 PUSH2 0x8CD0 JUMP JUMPDEST POP DUP5 PUSH1 0x7 DUP3 PUSH1 0x40 MLOAD PUSH2 0x3E4A SWAP2 SWAP1 PUSH2 0x8B0D JUMP JUMPDEST SWAP1 DUP2 MSTORE PUSH1 0x20 ADD PUSH1 0x40 MLOAD DUP1 SWAP2 SUB SWAP1 KECCAK256 PUSH1 0x6 ADD DUP2 SWAP1 SSTORE POP PUSH1 0x0 PUSH1 0x7 DUP3 PUSH1 0x40 MLOAD PUSH2 0x3E71 SWAP2 SWAP1 PUSH2 0x8B0D JUMP JUMPDEST SWAP1 DUP2 MSTORE PUSH1 0x20 ADD PUSH1 0x40 MLOAD DUP1 SWAP2 SUB SWAP1 KECCAK256 PUSH1 0x7 ADD PUSH1 0x0 PUSH2 0x100 EXP DUP2 SLOAD DUP2 PUSH1 0xFF MUL NOT AND SWAP1 DUP4 PUSH1 0x2 DUP2 GT ISZERO PUSH2 0x3EA4 JUMPI PUSH2 0x3EA3 PUSH2 0x7848 JUMP JUMPDEST JUMPDEST MUL OR SWAP1 SSTORE POP PUSH1 0x40 MLOAD DUP1 PUSH1 0x40 ADD PUSH1 0x40 MSTORE DUP1 PUSH1 0x13 DUP2 MSTORE PUSH1 0x20 ADD PUSH32 0x5570646174656420616C6C206D7920646F637300000000000000000000000000 DUP2 MSTORE POP PUSH1 0x7 DUP3 PUSH1 0x40 MLOAD PUSH2 0x3EEF SWAP2 SWAP1 PUSH2 0x8B0D JUMP JUMPDEST SWAP1 DUP2 MSTORE PUSH1 0x20 ADD PUSH1 0x40 MLOAD DUP1 SWAP2 SUB SWAP1 KECCAK256 PUSH1 0x8 ADD SWAP1 DUP2 PUSH2 0x3F0C SWAP2 SWAP1 PUSH2 0x8CD0 JUMP JUMPDEST POP JUMPDEST POP DUP1 DUP1 PUSH2 0x3F1A SWAP1 PUSH2 0x8F75 JUMP JUMPDEST SWAP2 POP POP PUSH2 0x3DCB JUMP JUMPDEST POP POP POP POP POP JUMP JUMPDEST PUSH1 0x4 PUSH1 0x0 SWAP1 SLOAD SWAP1 PUSH2 0x100 EXP SWAP1 DIV PUSH20 0xFFFFFFFFFFFFFFFFFFFFFFFFFFFFFFFFFFFFFFFF AND PUSH20 0xFFFFFFFFFFFFFFFFFFFFFFFFFFFFFFFFFFFFFFFF AND CALLER PUSH20 0xFFFFFFFFFFFFFFFFFFFFFFFFFFFFFFFFFFFFFFFF AND EQ PUSH2 0x3FB9 JUMPI PUSH1 0x40 MLOAD PUSH32 0x8C379A000000000000000000000000000000000000000000000000000000000 DUP2 MSTORE PUSH1 0x4 ADD PUSH2 0x3FB0 SWAP1 PUSH2 0x8EF7 JUMP JUMPDEST PUSH1 0x40 MLOAD DUP1 SWAP2 SUB SWAP1 REVERT JUMPDEST PUSH2 0x3FC3 DUP3 DUP3 PUSH2 0x661F JUMP JUMPDEST PUSH1 0x6 PUSH1 0x0 DUP5 PUSH20 0xFFFFFFFFFFFFFFFFFFFFFFFFFFFFFFFFFFFFFFFF AND PUSH20 0xFFFFFFFFFFFFFFFFFFFFFFFFFFFFFFFFFFFFFFFF AND DUP2 MSTORE PUSH1 0x20 ADD SWAP1 DUP2 MSTORE PUSH1 0x20 ADD PUSH1 0x0 KECCAK256 PUSH1 0x2 ADD PUSH1 0x15 PUSH2 0x100 EXP DUP2 SLOAD DUP2 PUSH1 0xFF MUL NOT AND SWAP1 DUP4 PUSH1 0x1 DUP2 GT ISZERO PUSH2 0x4027 JUMPI PUSH2 0x4026 PUSH2 0x7848 JUMP JUMPDEST JUMPDEST MUL OR SWAP1 SSTORE POP POP POP JUMP JUMPDEST PUSH1 0x0 PUSH1 0x60 CALLER PUSH1 0x0 PUSH20 0xFFFFFFFFFFFFFFFFFFFFFFFFFFFFFFFFFFFFFFFF AND PUSH1 0x3 PUSH1 0x0 DUP4 PUSH20 0xFFFFFFFFFFFFFFFFFFFFFFFFFFFFFFFFFFFFFFFF AND PUSH20 0xFFFFFFFFFFFFFFFFFFFFFFFFFFFFFFFFFFFFFFFF AND DUP2 MSTORE PUSH1 0x20 ADD SWAP1 DUP2 MSTORE PUSH1 0x20 ADD PUSH1 0x0 KECCAK256 PUSH1 0x2 ADD PUSH1 0x0 SWAP1 SLOAD SWAP1 PUSH2 0x100 EXP SWAP1 DIV PUSH20 0xFFFFFFFFFFFFFFFFFFFFFFFFFFFFFFFFFFFFFFFF AND PUSH20 0xFFFFFFFFFFFFFFFFFFFFFFFFFFFFFFFFFFFFFFFF AND SUB PUSH2 0x4106 JUMPI PUSH1 0x40 MLOAD PUSH32 0x8C379A000000000000000000000000000000000000000000000000000000000 DUP2 MSTORE PUSH1 0x4 ADD PUSH2 0x40FD SWAP1 PUSH2 0x896D JUMP JUMPDEST PUSH1 0x40 MLOAD DUP1 SWAP2 SUB SWAP1 REVERT JUMPDEST DUP1 PUSH20 0xFFFFFFFFFFFFFFFFFFFFFFFFFFFFFFFFFFFFFFFF AND PUSH1 0x3 PUSH1 0x0 DUP4 PUSH20 0xFFFFFFFFFFFFFFFFFFFFFFFFFFFFFFFFFFFFFFFF AND PUSH20 0xFFFFFFFFFFFFFFFFFFFFFFFFFFFFFFFFFFFFFFFF AND DUP2 MSTORE PUSH1 0x20 ADD SWAP1 DUP2 MSTORE PUSH1 0x20 ADD PUSH1 0x0 KECCAK256 PUSH1 0x2 ADD PUSH1 0x0 SWAP1 SLOAD SWAP1 PUSH2 0x100 EXP SWAP1 DIV PUSH20 0xFFFFFFFFFFFFFFFFFFFFFFFFFFFFFFFFFFFFFFFF AND PUSH20 0xFFFFFFFFFFFFFFFFFFFFFFFFFFFFFFFFFFFFFFFF AND EQ PUSH2 0x41D6 JUMPI PUSH1 0x40 MLOAD PUSH32 0x8C379A000000000000000000000000000000000000000000000000000000000 DUP2 MSTORE PUSH1 0x4 ADD PUSH2 0x41CD SWAP1 PUSH2 0x896D JUMP JUMPDEST PUSH1 0x40 MLOAD DUP1 SWAP2 SUB SWAP1 REVERT JUMPDEST PUSH1 0x0 PUSH1 0x1 DUP2 GT ISZERO PUSH2 0x41EA JUMPI PUSH2 0x41E9 PUSH2 0x7848 JUMP JUMPDEST JUMPDEST PUSH1 0x3 PUSH1 0x0 DUP4 PUSH20 0xFFFFFFFFFFFFFFFFFFFFFFFFFFFFFFFFFFFFFFFF AND PUSH20 0xFFFFFFFFFFFFFFFFFFFFFFFFFFFFFFFFFFFFFFFF AND DUP2 MSTORE PUSH1 0x20 ADD SWAP1 DUP2 MSTORE PUSH1 0x20 ADD PUSH1 0x0 KECCAK256 PUSH1 0x4 ADD PUSH1 0x2 SWAP1 SLOAD SWAP1 PUSH2 0x100 EXP SWAP1 DIV PUSH1 0xFF AND PUSH1 0x1 DUP2 GT ISZERO PUSH2 0x424C JUMPI PUSH2 0x424B PUSH2 0x7848 JUMP JUMPDEST JUMPDEST EQ PUSH2 0x428C JUMPI PUSH1 0x40 MLOAD PUSH32 0x8C379A000000000000000000000000000000000000000000000000000000000 DUP2 MSTORE PUSH1 0x4 ADD PUSH2 0x4283 SWAP1 PUSH2 0x89D9 JUMP JUMPDEST PUSH1 0x40 MLOAD DUP1 SWAP2 SUB SWAP1 REVERT JUMPDEST PUSH2 0x4297 DUP5 PUSH1 0x1 PUSH2 0x6A30 JUMP JUMPDEST SWAP3 POP SWAP3 POP POP SWAP2 POP SWAP2 JUMP JUMPDEST PUSH2 0x42A9 PUSH2 0x759F JUMP JUMPDEST PUSH1 0x0 PUSH20 0xFFFFFFFFFFFFFFFFFFFFFFFFFFFFFFFFFFFFFFFF AND CALLER PUSH20 0xFFFFFFFFFFFFFFFFFFFFFFFFFFFFFFFFFFFFFFFF AND SUB PUSH2 0x4318 JUMPI PUSH1 0x40 MLOAD PUSH32 0x8C379A000000000000000000000000000000000000000000000000000000000 DUP2 MSTORE PUSH1 0x4 ADD PUSH2 0x430F SWAP1 PUSH2 0x9203 JUMP JUMPDEST PUSH1 0x40 MLOAD DUP1 SWAP2 SUB SWAP1 REVERT JUMPDEST PUSH1 0x0 PUSH20 0xFFFFFFFFFFFFFFFFFFFFFFFFFFFFFFFFFFFFFFFF AND PUSH1 0x6 PUSH1 0x0 CALLER PUSH20 0xFFFFFFFFFFFFFFFFFFFFFFFFFFFFFFFFFFFFFFFF AND PUSH20 0xFFFFFFFFFFFFFFFFFFFFFFFFFFFFFFFFFFFFFFFF AND DUP2 MSTORE PUSH1 0x20 ADD SWAP1 DUP2 MSTORE PUSH1 0x20 ADD PUSH1 0x0 KECCAK256 PUSH1 0x2 ADD PUSH1 0x0 SWAP1 SLOAD SWAP1 PUSH2 0x100 EXP SWAP1 DIV PUSH20 0xFFFFFFFFFFFFFFFFFFFFFFFFFFFFFFFFFFFFFFFF AND PUSH20 0xFFFFFFFFFFFFFFFFFFFFFFFFFFFFFFFFFFFFFFFF AND SUB PUSH2 0x43E9 JUMPI PUSH1 0x40 MLOAD PUSH32 0x8C379A000000000000000000000000000000000000000000000000000000000 DUP2 MSTORE PUSH1 0x4 ADD PUSH2 0x43E0 SWAP1 PUSH2 0x8835 JUMP JUMPDEST PUSH1 0x40 MLOAD DUP1 SWAP2 SUB SWAP1 REVERT JUMPDEST PUSH1 0x6 PUSH1 0x0 CALLER PUSH20 0xFFFFFFFFFFFFFFFFFFFFFFFFFFFFFFFFFFFFFFFF AND PUSH20 0xFFFFFFFFFFFFFFFFFFFFFFFFFFFFFFFFFFFFFFFF AND DUP2 MSTORE PUSH1 0x20 ADD SWAP1 DUP2 MSTORE PUSH1 0x20 ADD PUSH1 0x0 KECCAK256 PUSH1 0x40 MLOAD DUP1 PUSH1 0xA0 ADD PUSH1 0x40 MSTORE SWAP1 DUP2 PUSH1 0x0 DUP3 ADD DUP1 SLOAD PUSH2 0x4443 SWAP1 PUSH2 0x8884 JUMP JUMPDEST DUP1 PUSH1 0x1F ADD PUSH1 0x20 DUP1 SWAP2 DIV MUL PUSH1 0x20 ADD PUSH1 0x40 MLOAD SWAP1 DUP2 ADD PUSH1 0x40 MSTORE DUP1 SWAP3 SWAP2 SWAP1 DUP2 DUP2 MSTORE PUSH1 0x20 ADD DUP3 DUP1 SLOAD PUSH2 0x446F SWAP1 PUSH2 0x8884 JUMP JUMPDEST DUP1 ISZERO PUSH2 0x44BC JUMPI DUP1 PUSH1 0x1F LT PUSH2 0x4491 JUMPI PUSH2 0x100 DUP1 DUP4 SLOAD DIV MUL DUP4 MSTORE SWAP2 PUSH1 0x20 ADD SWAP2 PUSH2 0x44BC JUMP JUMPDEST DUP3 ADD SWAP2 SWAP1 PUSH1 0x0 MSTORE PUSH1 0x20 PUSH1 0x0 KECCAK256 SWAP1 JUMPDEST DUP2 SLOAD DUP2 MSTORE SWAP1 PUSH1 0x1 ADD SWAP1 PUSH1 0x20 ADD DUP1 DUP4 GT PUSH2 0x449F JUMPI DUP3 SWAP1 SUB PUSH1 0x1F AND DUP3 ADD SWAP2 JUMPDEST POP POP POP POP POP DUP2 MSTORE PUSH1 0x20 ADD PUSH1 0x1 DUP3 ADD DUP1 SLOAD PUSH2 0x44D5 SWAP1 PUSH2 0x8884 JUMP JUMPDEST DUP1 PUSH1 0x1F ADD PUSH1 0x20 DUP1 SWAP2 DIV MUL PUSH1 0x20 ADD PUSH1 0x40 MLOAD SWAP1 DUP2 ADD PUSH1 0x40 MSTORE DUP1 SWAP3 SWAP2 SWAP1 DUP2 DUP2 MSTORE PUSH1 0x20 ADD DUP3 DUP1 SLOAD PUSH2 0x4501 SWAP1 PUSH2 0x8884 JUMP JUMPDEST DUP1 ISZERO PUSH2 0x454E JUMPI DUP1 PUSH1 0x1F LT PUSH2 0x4523 JUMPI PUSH2 0x100 DUP1 DUP4 SLOAD DIV MUL DUP4 MSTORE SWAP2 PUSH1 0x20 ADD SWAP2 PUSH2 0x454E JUMP JUMPDEST DUP3 ADD SWAP2 SWAP1 PUSH1 0x0 MSTORE PUSH1 0x20 PUSH1 0x0 KECCAK256 SWAP1 JUMPDEST DUP2 SLOAD DUP2 MSTORE SWAP1 PUSH1 0x1 ADD SWAP1 PUSH1 0x20 ADD DUP1 DUP4 GT PUSH2 0x4531 JUMPI DUP3 SWAP1 SUB PUSH1 0x1F AND DUP3 ADD SWAP2 JUMPDEST POP POP POP POP POP DUP2 MSTORE PUSH1 0x20 ADD PUSH1 0x2 DUP3 ADD PUSH1 0x0 SWAP1 SLOAD SWAP1 PUSH2 0x100 EXP SWAP1 DIV PUSH20 0xFFFFFFFFFFFFFFFFFFFFFFFFFFFFFFFFFFFFFFFF AND PUSH20 0xFFFFFFFFFFFFFFFFFFFFFFFFFFFFFFFFFFFFFFFF AND PUSH20 0xFFFFFFFFFFFFFFFFFFFFFFFFFFFFFFFFFFFFFFFF AND DUP2 MSTORE PUSH1 0x20 ADD PUSH1 0x2 DUP3 ADD PUSH1 0x14 SWAP1 SLOAD SWAP1 PUSH2 0x100 EXP SWAP1 DIV PUSH1 0xFF AND PUSH1 0x2 DUP2 GT ISZERO PUSH2 0x45D2 JUMPI PUSH2 0x45D1 PUSH2 0x7848 JUMP JUMPDEST JUMPDEST PUSH1 0x2 DUP2 GT ISZERO PUSH2 0x45E4 JUMPI PUSH2 0x45E3 PUSH2 0x7848 JUMP JUMPDEST JUMPDEST DUP2 MSTORE PUSH1 0x20 ADD PUSH1 0x2 DUP3 ADD PUSH1 0x15 SWAP1 SLOAD SWAP1 PUSH2 0x100 EXP SWAP1 DIV PUSH1 0xFF AND PUSH1 0x1 DUP2 GT ISZERO PUSH2 0x460D JUMPI PUSH2 0x460C PUSH2 0x7848 JUMP JUMPDEST JUMPDEST PUSH1 0x1 DUP2 GT ISZERO PUSH2 0x461F JUMPI PUSH2 0x461E PUSH2 0x7848 JUMP JUMPDEST JUMPDEST DUP2 MSTORE POP POP SWAP1 POP SWAP1 JUMP JUMPDEST PUSH1 0x0 PUSH1 0x60 CALLER PUSH1 0x0 PUSH20 0xFFFFFFFFFFFFFFFFFFFFFFFFFFFFFFFFFFFFFFFF AND DUP2 PUSH20 0xFFFFFFFFFFFFFFFFFFFFFFFFFFFFFFFFFFFFFFFF AND SUB PUSH2 0x469C JUMPI PUSH1 0x40 MLOAD PUSH32 0x8C379A000000000000000000000000000000000000000000000000000000000 DUP2 MSTORE PUSH1 0x4 ADD PUSH2 0x4693 SWAP1 PUSH2 0x87C9 JUMP JUMPDEST PUSH1 0x40 MLOAD DUP1 SWAP2 SUB SWAP1 REVERT JUMPDEST PUSH1 0x0 PUSH20 0xFFFFFFFFFFFFFFFFFFFFFFFFFFFFFFFFFFFFFFFF AND PUSH1 0x1 PUSH1 0x0 DUP4 PUSH20 0xFFFFFFFFFFFFFFFFFFFFFFFFFFFFFFFFFFFFFFFF AND PUSH20 0xFFFFFFFFFFFFFFFFFFFFFFFFFFFFFFFFFFFFFFFF AND DUP2 MSTORE PUSH1 0x20 ADD SWAP1 DUP2 MSTORE PUSH1 0x20 ADD PUSH1 0x0 KECCAK256 PUSH1 0x3 ADD PUSH1 0x0 SWAP1 SLOAD SWAP1 PUSH2 0x100 EXP SWAP1 DIV PUSH20 0xFFFFFFFFFFFFFFFFFFFFFFFFFFFFFFFFFFFFFFFF AND PUSH20 0xFFFFFFFFFFFFFFFFFFFFFFFFFFFFFFFFFFFFFFFF AND SUB PUSH2 0x476D JUMPI PUSH1 0x40 MLOAD PUSH32 0x8C379A000000000000000000000000000000000000000000000000000000000 DUP2 MSTORE PUSH1 0x4 ADD PUSH2 0x4764 SWAP1 PUSH2 0x8835 JUMP JUMPDEST PUSH1 0x40 MLOAD DUP1 SWAP2 SUB SWAP1 REVERT JUMPDEST PUSH2 0x4850 PUSH1 0x1 PUSH1 0x0 DUP4 PUSH20 0xFFFFFFFFFFFFFFFFFFFFFFFFFFFFFFFFFFFFFFFF AND PUSH20 0xFFFFFFFFFFFFFFFFFFFFFFFFFFFFFFFFFFFFFFFF AND DUP2 MSTORE PUSH1 0x20 ADD SWAP1 DUP2 MSTORE PUSH1 0x20 ADD PUSH1 0x0 KECCAK256 PUSH1 0x1 ADD DUP1 SLOAD PUSH2 0x47BD SWAP1 PUSH2 0x8884 JUMP JUMPDEST DUP1 PUSH1 0x1F ADD PUSH1 0x20 DUP1 SWAP2 DIV MUL PUSH1 0x20 ADD PUSH1 0x40 MLOAD SWAP1 DUP2 ADD PUSH1 0x40 MSTORE DUP1 SWAP3 SWAP2 SWAP1 DUP2 DUP2 MSTORE PUSH1 0x20 ADD DUP3 DUP1 SLOAD PUSH2 0x47E9 SWAP1 PUSH2 0x8884 JUMP JUMPDEST DUP1 ISZERO PUSH2 0x4836 JUMPI DUP1 PUSH1 0x1F LT PUSH2 0x480B JUMPI PUSH2 0x100 DUP1 DUP4 SLOAD DIV MUL DUP4 MSTORE SWAP2 PUSH1 0x20 ADD SWAP2 PUSH2 0x4836 JUMP JUMPDEST DUP3 ADD SWAP2 SWAP1 PUSH1 0x0 MSTORE PUSH1 0x20 PUSH1 0x0 KECCAK256 SWAP1 JUMPDEST DUP2 SLOAD DUP2 MSTORE SWAP1 PUSH1 0x1 ADD SWAP1 PUSH1 0x20 ADD DUP1 DUP4 GT PUSH2 0x4819 JUMPI DUP3 SWAP1 SUB PUSH1 0x1F AND DUP3 ADD SWAP2 JUMPDEST POP POP POP POP POP PUSH1 0x40 MLOAD DUP1 PUSH1 0x20 ADD PUSH1 0x40 MSTORE DUP1 PUSH1 0x0 DUP2 MSTORE POP PUSH2 0x4C38 JUMP JUMPDEST ISZERO PUSH2 0x4890 JUMPI PUSH1 0x40 MLOAD PUSH32 0x8C379A000000000000000000000000000000000000000000000000000000000 DUP2 MSTORE PUSH1 0x4 ADD PUSH2 0x4887 SWAP1 PUSH2 0x8901 JUMP JUMPDEST PUSH1 0x40 MLOAD DUP1 SWAP2 SUB SWAP1 REVERT JUMPDEST PUSH2 0x489B DUP5 PUSH1 0x0 PUSH2 0x6A30 JUMP JUMPDEST SWAP3 POP SWAP3 POP POP SWAP2 POP SWAP2 JUMP JUMPDEST CALLER PUSH1 0x0 PUSH20 0xFFFFFFFFFFFFFFFFFFFFFFFFFFFFFFFFFFFFFFFF AND PUSH1 0x3 PUSH1 0x0 DUP4 PUSH20 0xFFFFFFFFFFFFFFFFFFFFFFFFFFFFFFFFFFFFFFFF AND PUSH20 0xFFFFFFFFFFFFFFFFFFFFFFFFFFFFFFFFFFFFFFFF AND DUP2 MSTORE PUSH1 0x20 ADD SWAP1 DUP2 MSTORE PUSH1 0x20 ADD PUSH1 0x0 KECCAK256 PUSH1 0x2 ADD PUSH1 0x0 SWAP1 SLOAD SWAP1 PUSH2 0x100 EXP SWAP1 DIV PUSH20 0xFFFFFFFFFFFFFFFFFFFFFFFFFFFFFFFFFFFFFFFF AND PUSH20 0xFFFFFFFFFFFFFFFFFFFFFFFFFFFFFFFFFFFFFFFF AND SUB PUSH2 0x4977 JUMPI PUSH1 0x40 MLOAD PUSH32 0x8C379A000000000000000000000000000000000000000000000000000000000 DUP2 MSTORE PUSH1 0x4 ADD PUSH2 0x496E SWAP1 PUSH2 0x896D JUMP JUMPDEST PUSH1 0x40 MLOAD DUP1 SWAP2 SUB SWAP1 REVERT JUMPDEST DUP1 PUSH20 0xFFFFFFFFFFFFFFFFFFFFFFFFFFFFFFFFFFFFFFFF AND PUSH1 0x3 PUSH1 0x0 DUP4 PUSH20 0xFFFFFFFFFFFFFFFFFFFFFFFFFFFFFFFFFFFFFFFF AND PUSH20 0xFFFFFFFFFFFFFFFFFFFFFFFFFFFFFFFFFFFFFFFF AND DUP2 MSTORE PUSH1 0x20 ADD SWAP1 DUP2 MSTORE PUSH1 0x20 ADD PUSH1 0x0 KECCAK256 PUSH1 0x2 ADD PUSH1 0x0 SWAP1 SLOAD SWAP1 PUSH2 0x100 EXP SWAP1 DIV PUSH20 0xFFFFFFFFFFFFFFFFFFFFFFFFFFFFFFFFFFFFFFFF AND PUSH20 0xFFFFFFFFFFFFFFFFFFFFFFFFFFFFFFFFFFFFFFFF AND EQ PUSH2 0x4A47 JUMPI PUSH1 0x40 MLOAD PUSH32 0x8C379A000000000000000000000000000000000000000000000000000000000 DUP2 MSTORE PUSH1 0x4 ADD PUSH2 0x4A3E SWAP1 PUSH2 0x896D JUMP JUMPDEST PUSH1 0x40 MLOAD DUP1 SWAP2 SUB SWAP1 REVERT JUMPDEST PUSH1 0x0 PUSH1 0x1 DUP2 GT ISZERO PUSH2 0x4A5B JUMPI PUSH2 0x4A5A PUSH2 0x7848 JUMP JUMPDEST JUMPDEST PUSH1 0x3 PUSH1 0x0 DUP4 PUSH20 0xFFFFFFFFFFFFFFFFFFFFFFFFFFFFFFFFFFFFFFFF AND PUSH20 0xFFFFFFFFFFFFFFFFFFFFFFFFFFFFFFFFFFFFFFFF AND DUP2 MSTORE PUSH1 0x20 ADD SWAP1 DUP2 MSTORE PUSH1 0x20 ADD PUSH1 0x0 KECCAK256 PUSH1 0x4 ADD PUSH1 0x2 SWAP1 SLOAD SWAP1 PUSH2 0x100 EXP SWAP1 DIV PUSH1 0xFF AND PUSH1 0x1 DUP2 GT ISZERO PUSH2 0x4ABD JUMPI PUSH2 0x4ABC PUSH2 0x7848 JUMP JUMPDEST JUMPDEST EQ PUSH2 0x4AFD JUMPI PUSH1 0x40 MLOAD PUSH32 0x8C379A000000000000000000000000000000000000000000000000000000000 DUP2 MSTORE PUSH1 0x4 ADD PUSH2 0x4AF4 SWAP1 PUSH2 0x89D9 JUMP JUMPDEST PUSH1 0x40 MLOAD DUP1 SWAP2 SUB SWAP1 REVERT JUMPDEST PUSH1 0x0 PUSH2 0x4B09 CALLER DUP7 PUSH2 0x528F JUMP JUMPDEST SWAP1 POP PUSH2 0x4B14 DUP2 PUSH2 0x52BB JUMP JUMPDEST PUSH2 0x4B53 JUMPI PUSH1 0x40 MLOAD PUSH32 0x8C379A000000000000000000000000000000000000000000000000000000000 DUP2 MSTORE PUSH1 0x4 ADD PUSH2 0x4B4A SWAP1 PUSH2 0x9009 JUMP JUMPDEST PUSH1 0x40 MLOAD DUP1 SWAP2 SUB SWAP1 REVERT JUMPDEST PUSH1 0x0 DUP5 ISZERO PUSH2 0x4B76 JUMPI PUSH1 0x1 SWAP1 POP PUSH2 0x4B68 CALLER PUSH2 0x71A7 JUMP JUMPDEST PUSH2 0x4B71 DUP7 PUSH2 0x7294 JUMP JUMPDEST PUSH2 0x4B7B JUMP JUMPDEST PUSH1 0x2 SWAP1 POP JUMPDEST DUP1 PUSH1 0x7 DUP4 PUSH1 0x40 MLOAD PUSH2 0x4B8C SWAP2 SWAP1 PUSH2 0x8B0D JUMP JUMPDEST SWAP1 DUP2 MSTORE PUSH1 0x20 ADD PUSH1 0x40 MLOAD DUP1 SWAP2 SUB SWAP1 KECCAK256 PUSH1 0x7 ADD PUSH1 0x0 PUSH2 0x100 EXP DUP2 SLOAD DUP2 PUSH1 0xFF MUL NOT AND SWAP1 DUP4 PUSH1 0x2 DUP2 GT ISZERO PUSH2 0x4BBF JUMPI PUSH2 0x4BBE PUSH2 0x7848 JUMP JUMPDEST JUMPDEST MUL OR SWAP1 SSTORE POP DUP4 PUSH1 0x7 DUP4 PUSH1 0x40 MLOAD PUSH2 0x4BD5 SWAP2 SWAP1 PUSH2 0x8B0D JUMP JUMPDEST SWAP1 DUP2 MSTORE PUSH1 0x20 ADD PUSH1 0x40 MLOAD DUP1 SWAP2 SUB SWAP1 KECCAK256 PUSH1 0x8 ADD SWAP1 DUP2 PUSH2 0x4BF2 SWAP2 SWAP1 PUSH2 0x8CD0 JUMP JUMPDEST POP PUSH32 0x900B83A690E29FF7D6E76E350983AFEA30403D6C47FE8CE52045FB20074C79A0 DUP3 DUP8 CALLER DUP5 PUSH1 0x40 MLOAD PUSH2 0x4C28 SWAP5 SWAP4 SWAP3 SWAP2 SWAP1 PUSH2 0x9232 JUMP JUMPDEST PUSH1 0x40 MLOAD DUP1 SWAP2 SUB SWAP1 LOG1 POP POP POP POP POP POP JUMP JUMPDEST PUSH1 0x0 DUP2 PUSH1 0x40 MLOAD PUSH1 0x20 ADD PUSH2 0x4C4B SWAP2 SWAP1 PUSH2 0x8B0D JUMP JUMPDEST PUSH1 0x40 MLOAD PUSH1 0x20 DUP2 DUP4 SUB SUB DUP2 MSTORE SWAP1 PUSH1 0x40 MSTORE DUP1 MLOAD SWAP1 PUSH1 0x20 ADD KECCAK256 DUP4 PUSH1 0x40 MLOAD PUSH1 0x20 ADD PUSH2 0x4C72 SWAP2 SWAP1 PUSH2 0x8B0D JUMP JUMPDEST PUSH1 0x40 MLOAD PUSH1 0x20 DUP2 DUP4 SUB SUB DUP2 MSTORE SWAP1 PUSH1 0x40 MSTORE DUP1 MLOAD SWAP1 PUSH1 0x20 ADD KECCAK256 EQ SWAP1 POP SWAP3 SWAP2 POP POP JUMP JUMPDEST PUSH2 0x4C99 PUSH2 0x7431 JUMP JUMPDEST PUSH1 0x1 PUSH1 0x0 DUP4 PUSH20 0xFFFFFFFFFFFFFFFFFFFFFFFFFFFFFFFFFFFFFFFF AND PUSH20 0xFFFFFFFFFFFFFFFFFFFFFFFFFFFFFFFFFFFFFFFF AND DUP2 MSTORE PUSH1 0x20 ADD SWAP1 DUP2 MSTORE PUSH1 0x20 ADD PUSH1 0x0 KECCAK256 PUSH1 0x40 MLOAD DUP1 PUSH1 0xE0 ADD PUSH1 0x40 MSTORE SWAP1 DUP2 PUSH1 0x0 DUP3 ADD DUP1 SLOAD PUSH2 0x4CF3 SWAP1 PUSH2 0x8884 JUMP JUMPDEST DUP1 PUSH1 0x1F ADD PUSH1 0x20 DUP1 SWAP2 DIV MUL PUSH1 0x20 ADD PUSH1 0x40 MLOAD SWAP1 DUP2 ADD PUSH1 0x40 MSTORE DUP1 SWAP3 SWAP2 SWAP1 DUP2 DUP2 MSTORE PUSH1 0x20 ADD DUP3 DUP1 SLOAD PUSH2 0x4D1F SWAP1 PUSH2 0x8884 JUMP JUMPDEST DUP1 ISZERO PUSH2 0x4D6C JUMPI DUP1 PUSH1 0x1F LT PUSH2 0x4D41 JUMPI PUSH2 0x100 DUP1 DUP4 SLOAD DIV MUL DUP4 MSTORE SWAP2 PUSH1 0x20 ADD SWAP2 PUSH2 0x4D6C JUMP JUMPDEST DUP3 ADD SWAP2 SWAP1 PUSH1 0x0 MSTORE PUSH1 0x20 PUSH1 0x0 KECCAK256 SWAP1 JUMPDEST DUP2 SLOAD DUP2 MSTORE SWAP1 PUSH1 0x1 ADD SWAP1 PUSH1 0x20 ADD DUP1 DUP4 GT PUSH2 0x4D4F JUMPI DUP3 SWAP1 SUB PUSH1 0x1F AND DUP3 ADD SWAP2 JUMPDEST POP POP POP POP POP DUP2 MSTORE PUSH1 0x20 ADD PUSH1 0x1 DUP3 ADD DUP1 SLOAD PUSH2 0x4D85 SWAP1 PUSH2 0x8884 JUMP JUMPDEST DUP1 PUSH1 0x1F ADD PUSH1 0x20 DUP1 SWAP2 DIV MUL PUSH1 0x20 ADD PUSH1 0x40 MLOAD SWAP1 DUP2 ADD PUSH1 0x40 MSTORE DUP1 SWAP3 SWAP2 SWAP1 DUP2 DUP2 MSTORE PUSH1 0x20 ADD DUP3 DUP1 SLOAD PUSH2 0x4DB1 SWAP1 PUSH2 0x8884 JUMP JUMPDEST DUP1 ISZERO PUSH2 0x4DFE JUMPI DUP1 PUSH1 0x1F LT PUSH2 0x4DD3 JUMPI PUSH2 0x100 DUP1 DUP4 SLOAD DIV MUL DUP4 MSTORE SWAP2 PUSH1 0x20 ADD SWAP2 PUSH2 0x4DFE JUMP JUMPDEST DUP3 ADD SWAP2 SWAP1 PUSH1 0x0 MSTORE PUSH1 0x20 PUSH1 0x0 KECCAK256 SWAP1 JUMPDEST DUP2 SLOAD DUP2 MSTORE SWAP1 PUSH1 0x1 ADD SWAP1 PUSH1 0x20 ADD DUP1 DUP4 GT PUSH2 0x4DE1 JUMPI DUP3 SWAP1 SUB PUSH1 0x1F AND DUP3 ADD SWAP2 JUMPDEST POP POP POP POP POP DUP2 MSTORE PUSH1 0x20 ADD PUSH1 0x2 DUP3 ADD SLOAD DUP2 MSTORE PUSH1 0x20 ADD PUSH1 0x3 DUP3 ADD PUSH1 0x0 SWAP1 SLOAD SWAP1 PUSH2 0x100 EXP SWAP1 DIV PUSH20 0xFFFFFFFFFFFFFFFFFFFFFFFFFFFFFFFFFFFFFFFF AND PUSH20 0xFFFFFFFFFFFFFFFFFFFFFFFFFFFFFFFFFFFFFFFF AND PUSH20 0xFFFFFFFFFFFFFFFFFFFFFFFFFFFFFFFFFFFFFFFF AND DUP2 MSTORE PUSH1 0x20 ADD PUSH1 0x4 DUP3 ADD PUSH1 0x0 SWAP1 SLOAD SWAP1 PUSH2 0x100 EXP SWAP1 DIV PUSH20 0xFFFFFFFFFFFFFFFFFFFFFFFFFFFFFFFFFFFFFFFF AND PUSH20 0xFFFFFFFFFFFFFFFFFFFFFFFFFFFFFFFFFFFFFFFF AND PUSH20 0xFFFFFFFFFFFFFFFFFFFFFFFFFFFFFFFFFFFFFFFF AND DUP2 MSTORE PUSH1 0x20 ADD PUSH1 0x5 DUP3 ADD DUP1 SLOAD PUSH2 0x4ECD SWAP1 PUSH2 0x8884 JUMP JUMPDEST DUP1 PUSH1 0x1F ADD PUSH1 0x20 DUP1 SWAP2 DIV MUL PUSH1 0x20 ADD PUSH1 0x40 MLOAD SWAP1 DUP2 ADD PUSH1 0x40 MSTORE DUP1 SWAP3 SWAP2 SWAP1 DUP2 DUP2 MSTORE PUSH1 0x20 ADD DUP3 DUP1 SLOAD PUSH2 0x4EF9 SWAP1 PUSH2 0x8884 JUMP JUMPDEST DUP1 ISZERO PUSH2 0x4F46 JUMPI DUP1 PUSH1 0x1F LT PUSH2 0x4F1B JUMPI PUSH2 0x100 DUP1 DUP4 SLOAD DIV MUL DUP4 MSTORE SWAP2 PUSH1 0x20 ADD SWAP2 PUSH2 0x4F46 JUMP JUMPDEST DUP3 ADD SWAP2 SWAP1 PUSH1 0x0 MSTORE PUSH1 0x20 PUSH1 0x0 KECCAK256 SWAP1 JUMPDEST DUP2 SLOAD DUP2 MSTORE SWAP1 PUSH1 0x1 ADD SWAP1 PUSH1 0x20 ADD DUP1 DUP4 GT PUSH2 0x4F29 JUMPI DUP3 SWAP1 SUB PUSH1 0x1F AND DUP3 ADD SWAP2 JUMPDEST POP POP POP POP POP DUP2 MSTORE PUSH1 0x20 ADD PUSH1 0x6 DUP3 ADD SLOAD DUP2 MSTORE POP POP SWAP1 POP SWAP2 SWAP1 POP JUMP JUMPDEST PUSH2 0x4F68 PUSH2 0x749A JUMP JUMPDEST PUSH1 0x0 PUSH20 0xFFFFFFFFFFFFFFFFFFFFFFFFFFFFFFFFFFFFFFFF AND DUP3 PUSH20 0xFFFFFFFFFFFFFFFFFFFFFFFFFFFFFFFFFFFFFFFF AND SUB PUSH2 0x4FD7 JUMPI PUSH1 0x40 MLOAD PUSH32 0x8C379A000000000000000000000000000000000000000000000000000000000 DUP2 MSTORE PUSH1 0x4 ADD PUSH2 0x4FCE SWAP1 PUSH2 0x92CA JUMP JUMPDEST PUSH1 0x40 MLOAD DUP1 SWAP2 SUB SWAP1 REVERT JUMPDEST PUSH1 0x3 PUSH1 0x0 DUP4 PUSH20 0xFFFFFFFFFFFFFFFFFFFFFFFFFFFFFFFFFFFFFFFF AND PUSH20 0xFFFFFFFFFFFFFFFFFFFFFFFFFFFFFFFFFFFFFFFF AND DUP2 MSTORE PUSH1 0x20 ADD SWAP1 DUP2 MSTORE PUSH1 0x20 ADD PUSH1 0x0 KECCAK256 PUSH1 0x40 MLOAD DUP1 PUSH1 0xC0 ADD PUSH1 0x40 MSTORE SWAP1 DUP2 PUSH1 0x0 DUP3 ADD DUP1 SLOAD PUSH2 0x5031 SWAP1 PUSH2 0x8884 JUMP JUMPDEST DUP1 PUSH1 0x1F ADD PUSH1 0x20 DUP1 SWAP2 DIV MUL PUSH1 0x20 ADD PUSH1 0x40 MLOAD SWAP1 DUP2 ADD PUSH1 0x40 MSTORE DUP1 SWAP3 SWAP2 SWAP1 DUP2 DUP2 MSTORE PUSH1 0x20 ADD DUP3 DUP1 SLOAD PUSH2 0x505D SWAP1 PUSH2 0x8884 JUMP JUMPDEST DUP1 ISZERO PUSH2 0x50AA JUMPI DUP1 PUSH1 0x1F LT PUSH2 0x507F JUMPI PUSH2 0x100 DUP1 DUP4 SLOAD DIV MUL DUP4 MSTORE SWAP2 PUSH1 0x20 ADD SWAP2 PUSH2 0x50AA JUMP JUMPDEST DUP3 ADD SWAP2 SWAP1 PUSH1 0x0 MSTORE PUSH1 0x20 PUSH1 0x0 KECCAK256 SWAP1 JUMPDEST DUP2 SLOAD DUP2 MSTORE SWAP1 PUSH1 0x1 ADD SWAP1 PUSH1 0x20 ADD DUP1 DUP4 GT PUSH2 0x508D JUMPI DUP3 SWAP1 SUB PUSH1 0x1F AND DUP3 ADD SWAP2 JUMPDEST POP POP POP POP POP DUP2 MSTORE PUSH1 0x20 ADD PUSH1 0x1 DUP3 ADD DUP1 SLOAD PUSH2 0x50C3 SWAP1 PUSH2 0x8884 JUMP JUMPDEST DUP1 PUSH1 0x1F ADD PUSH1 0x20 DUP1 SWAP2 DIV MUL PUSH1 0x20 ADD PUSH1 0x40 MLOAD SWAP1 DUP2 ADD PUSH1 0x40 MSTORE DUP1 SWAP3 SWAP2 SWAP1 DUP2 DUP2 MSTORE PUSH1 0x20 ADD DUP3 DUP1 SLOAD PUSH2 0x50EF SWAP1 PUSH2 0x8884 JUMP JUMPDEST DUP1 ISZERO PUSH2 0x513C JUMPI DUP1 PUSH1 0x1F LT PUSH2 0x5111 JUMPI PUSH2 0x100 DUP1 DUP4 SLOAD DIV MUL DUP4 MSTORE SWAP2 PUSH1 0x20 ADD SWAP2 PUSH2 0x513C JUMP JUMPDEST DUP3 ADD SWAP2 SWAP1 PUSH1 0x0 MSTORE PUSH1 0x20 PUSH1 0x0 KECCAK256 SWAP1 JUMPDEST DUP2 SLOAD DUP2 MSTORE SWAP1 PUSH1 0x1 ADD SWAP1 PUSH1 0x20 ADD DUP1 DUP4 GT PUSH2 0x511F JUMPI DUP3 SWAP1 SUB PUSH1 0x1F AND DUP3 ADD SWAP2 JUMPDEST POP POP POP POP POP DUP2 MSTORE PUSH1 0x20 ADD PUSH1 0x2 DUP3 ADD PUSH1 0x0 SWAP1 SLOAD SWAP1 PUSH2 0x100 EXP SWAP1 DIV PUSH20 0xFFFFFFFFFFFFFFFFFFFFFFFFFFFFFFFFFFFFFFFF AND PUSH20 0xFFFFFFFFFFFFFFFFFFFFFFFFFFFFFFFFFFFFFFFF AND PUSH20 0xFFFFFFFFFFFFFFFFFFFFFFFFFFFFFFFFFFFFFFFF AND DUP2 MSTORE PUSH1 0x20 ADD PUSH1 0x3 DUP3 ADD DUP1 SLOAD PUSH2 0x51AB SWAP1 PUSH2 0x8884 JUMP JUMPDEST DUP1 PUSH1 0x1F ADD PUSH1 0x20 DUP1 SWAP2 DIV MUL PUSH1 0x20 ADD PUSH1 0x40 MLOAD SWAP1 DUP2 ADD PUSH1 0x40 MSTORE DUP1 SWAP3 SWAP2 SWAP1 DUP2 DUP2 MSTORE PUSH1 0x20 ADD DUP3 DUP1 SLOAD PUSH2 0x51D7 SWAP1 PUSH2 0x8884 JUMP JUMPDEST DUP1 ISZERO PUSH2 0x5224 JUMPI DUP1 PUSH1 0x1F LT PUSH2 0x51F9 JUMPI PUSH2 0x100 DUP1 DUP4 SLOAD DIV MUL DUP4 MSTORE SWAP2 PUSH1 0x20 ADD SWAP2 PUSH2 0x5224 JUMP JUMPDEST DUP3 ADD SWAP2 SWAP1 PUSH1 0x0 MSTORE PUSH1 0x20 PUSH1 0x0 KECCAK256 SWAP1 JUMPDEST DUP2 SLOAD DUP2 MSTORE SWAP1 PUSH1 0x1 ADD SWAP1 PUSH1 0x20 ADD DUP1 DUP4 GT PUSH2 0x5207 JUMPI DUP3 SWAP1 SUB PUSH1 0x1F AND DUP3 ADD SWAP2 JUMPDEST POP POP POP POP POP DUP2 MSTORE PUSH1 0x20 ADD PUSH1 0x4 DUP3 ADD PUSH1 0x0 SWAP1 SLOAD SWAP1 PUSH2 0x100 EXP SWAP1 DIV PUSH2 0xFFFF AND PUSH2 0xFFFF AND PUSH2 0xFFFF AND DUP2 MSTORE PUSH1 0x20 ADD PUSH1 0x4 DUP3 ADD PUSH1 0x2 SWAP1 SLOAD SWAP1 PUSH2 0x100 EXP SWAP1 DIV PUSH1 0xFF AND PUSH1 0x1 DUP2 GT ISZERO PUSH2 0x5272 JUMPI PUSH2 0x5271 PUSH2 0x7848 JUMP JUMPDEST JUMPDEST PUSH1 0x1 DUP2 GT ISZERO PUSH2 0x5284 JUMPI PUSH2 0x5283 PUSH2 0x7848 JUMP JUMPDEST JUMPDEST DUP2 MSTORE POP POP SWAP1 POP SWAP2 SWAP1 POP JUMP JUMPDEST PUSH1 0x60 DUP3 DUP3 PUSH1 0x40 MLOAD PUSH1 0x20 ADD PUSH2 0x52A4 SWAP3 SWAP2 SWAP1 PUSH2 0x9332 JUMP JUMPDEST PUSH1 0x40 MLOAD PUSH1 0x20 DUP2 DUP4 SUB SUB DUP2 MSTORE SWAP1 PUSH1 0x40 MSTORE SWAP1 POP SWAP3 SWAP2 POP POP JUMP JUMPDEST PUSH1 0x0 PUSH2 0x52D6 DUP3 PUSH1 0x40 MLOAD DUP1 PUSH1 0x20 ADD PUSH1 0x40 MSTORE DUP1 PUSH1 0x0 DUP2 MSTORE POP PUSH2 0x4C38 JUMP JUMPDEST ISZERO PUSH2 0x5316 JUMPI PUSH1 0x40 MLOAD PUSH32 0x8C379A000000000000000000000000000000000000000000000000000000000 DUP2 MSTORE PUSH1 0x4 ADD PUSH2 0x530D SWAP1 PUSH2 0x93AA JUMP JUMPDEST PUSH1 0x40 MLOAD DUP1 SWAP2 SUB SWAP1 REVERT JUMPDEST PUSH2 0x53C9 PUSH1 0x7 DUP4 PUSH1 0x40 MLOAD PUSH2 0x5329 SWAP2 SWAP1 PUSH2 0x8B0D JUMP JUMPDEST SWAP1 DUP2 MSTORE PUSH1 0x20 ADD PUSH1 0x40 MLOAD DUP1 SWAP2 SUB SWAP1 KECCAK256 PUSH1 0x0 ADD DUP1 SLOAD PUSH2 0x5345 SWAP1 PUSH2 0x8884 JUMP JUMPDEST DUP1 PUSH1 0x1F ADD PUSH1 0x20 DUP1 SWAP2 DIV MUL PUSH1 0x20 ADD PUSH1 0x40 MLOAD SWAP1 DUP2 ADD PUSH1 0x40 MSTORE DUP1 SWAP3 SWAP2 SWAP1 DUP2 DUP2 MSTORE PUSH1 0x20 ADD DUP3 DUP1 SLOAD PUSH2 0x5371 SWAP1 PUSH2 0x8884 JUMP JUMPDEST DUP1 ISZERO PUSH2 0x53BE JUMPI DUP1 PUSH1 0x1F LT PUSH2 0x5393 JUMPI PUSH2 0x100 DUP1 DUP4 SLOAD DIV MUL DUP4 MSTORE SWAP2 PUSH1 0x20 ADD SWAP2 PUSH2 0x53BE JUMP JUMPDEST DUP3 ADD SWAP2 SWAP1 PUSH1 0x0 MSTORE PUSH1 0x20 PUSH1 0x0 KECCAK256 SWAP1 JUMPDEST DUP2 SLOAD DUP2 MSTORE SWAP1 PUSH1 0x1 ADD SWAP1 PUSH1 0x20 ADD DUP1 DUP4 GT PUSH2 0x53A1 JUMPI DUP3 SWAP1 SUB PUSH1 0x1F AND DUP3 ADD SWAP2 JUMPDEST POP POP POP POP POP DUP4 PUSH2 0x4C38 JUMP JUMPDEST SWAP1 POP SWAP2 SWAP1 POP JUMP JUMPDEST PUSH1 0x0 DUP1 PUSH20 0xFFFFFFFFFFFFFFFFFFFFFFFFFFFFFFFFFFFFFFFF AND DUP3 PUSH20 0xFFFFFFFFFFFFFFFFFFFFFFFFFFFFFFFFFFFFFFFF AND SUB PUSH2 0x5440 JUMPI PUSH1 0x40 MLOAD PUSH32 0x8C379A000000000000000000000000000000000000000000000000000000000 DUP2 MSTORE PUSH1 0x4 ADD PUSH2 0x5437 SWAP1 PUSH2 0x9416 JUMP JUMPDEST PUSH1 0x40 MLOAD DUP1 SWAP2 SUB SWAP1 REVERT JUMPDEST PUSH1 0x0 PUSH20 0xFFFFFFFFFFFFFFFFFFFFFFFFFFFFFFFFFFFFFFFF AND PUSH1 0x1 PUSH1 0x0 DUP5 PUSH20 0xFFFFFFFFFFFFFFFFFFFFFFFFFFFFFFFFFFFFFFFF AND PUSH20 0xFFFFFFFFFFFFFFFFFFFFFFFFFFFFFFFFFFFFFFFF AND DUP2 MSTORE PUSH1 0x20 ADD SWAP1 DUP2 MSTORE PUSH1 0x20 ADD PUSH1 0x0 KECCAK256 PUSH1 0x3 ADD PUSH1 0x0 SWAP1 SLOAD SWAP1 PUSH2 0x100 EXP SWAP1 DIV PUSH20 0xFFFFFFFFFFFFFFFFFFFFFFFFFFFFFFFFFFFFFFFF AND PUSH20 0xFFFFFFFFFFFFFFFFFFFFFFFFFFFFFFFFFFFFFFFF AND EQ ISZERO DUP1 ISZERO PUSH2 0x55BF JUMPI POP PUSH2 0x55BD PUSH1 0x1 PUSH1 0x0 DUP5 PUSH20 0xFFFFFFFFFFFFFFFFFFFFFFFFFFFFFFFFFFFFFFFF AND PUSH20 0xFFFFFFFFFFFFFFFFFFFFFFFFFFFFFFFFFFFFFFFF AND DUP2 MSTORE PUSH1 0x20 ADD SWAP1 DUP2 MSTORE PUSH1 0x20 ADD PUSH1 0x0 KECCAK256 PUSH1 0x1 ADD DUP1 SLOAD PUSH2 0x552A SWAP1 PUSH2 0x8884 JUMP JUMPDEST DUP1 PUSH1 0x1F ADD PUSH1 0x20 DUP1 SWAP2 DIV MUL PUSH1 0x20 ADD PUSH1 0x40 MLOAD SWAP1 DUP2 ADD PUSH1 0x40 MSTORE DUP1 SWAP3 SWAP2 SWAP1 DUP2 DUP2 MSTORE PUSH1 0x20 ADD DUP3 DUP1 SLOAD PUSH2 0x5556 SWAP1 PUSH2 0x8884 JUMP JUMPDEST DUP1 ISZERO PUSH2 0x55A3 JUMPI DUP1 PUSH1 0x1F LT PUSH2 0x5578 JUMPI PUSH2 0x100 DUP1 DUP4 SLOAD DIV MUL DUP4 MSTORE SWAP2 PUSH1 0x20 ADD SWAP2 PUSH2 0x55A3 JUMP JUMPDEST DUP3 ADD SWAP2 SWAP1 PUSH1 0x0 MSTORE PUSH1 0x20 PUSH1 0x0 KECCAK256 SWAP1 JUMPDEST DUP2 SLOAD DUP2 MSTORE SWAP1 PUSH1 0x1 ADD SWAP1 PUSH1 0x20 ADD DUP1 DUP4 GT PUSH2 0x5586 JUMPI DUP3 SWAP1 SUB PUSH1 0x1F AND DUP3 ADD SWAP2 JUMPDEST POP POP POP POP POP PUSH1 0x40 MLOAD DUP1 PUSH1 0x20 ADD PUSH1 0x40 MSTORE DUP1 PUSH1 0x0 DUP2 MSTORE POP PUSH2 0x4C38 JUMP JUMPDEST ISZERO JUMPDEST ISZERO PUSH2 0x55C9 JUMPI PUSH1 0x1 SWAP1 POP JUMPDEST SWAP2 SWAP1 POP JUMP JUMPDEST PUSH1 0x0 PUSH20 0xFFFFFFFFFFFFFFFFFFFFFFFFFFFFFFFFFFFFFFFF AND PUSH1 0x3 PUSH1 0x0 DUP4 PUSH1 0x40 ADD MLOAD PUSH20 0xFFFFFFFFFFFFFFFFFFFFFFFFFFFFFFFFFFFFFFFF AND PUSH20 0xFFFFFFFFFFFFFFFFFFFFFFFFFFFFFFFFFFFFFFFF AND DUP2 MSTORE PUSH1 0x20 ADD SWAP1 DUP2 MSTORE PUSH1 0x20 ADD PUSH1 0x0 KECCAK256 PUSH1 0x2 ADD PUSH1 0x0 SWAP1 SLOAD SWAP1 PUSH2 0x100 EXP SWAP1 DIV PUSH20 0xFFFFFFFFFFFFFFFFFFFFFFFFFFFFFFFFFFFFFFFF AND PUSH20 0xFFFFFFFFFFFFFFFFFFFFFFFFFFFFFFFFFFFFFFFF AND EQ PUSH2 0x56A3 JUMPI PUSH1 0x40 MLOAD PUSH32 0x8C379A000000000000000000000000000000000000000000000000000000000 DUP2 MSTORE PUSH1 0x4 ADD PUSH2 0x569A SWAP1 PUSH2 0x9482 JUMP JUMPDEST PUSH1 0x40 MLOAD DUP1 SWAP2 SUB SWAP1 REVERT JUMPDEST DUP1 PUSH1 0x3 PUSH1 0x0 DUP4 PUSH1 0x40 ADD MLOAD PUSH20 0xFFFFFFFFFFFFFFFFFFFFFFFFFFFFFFFFFFFFFFFF AND PUSH20 0xFFFFFFFFFFFFFFFFFFFFFFFFFFFFFFFFFFFFFFFF AND DUP2 MSTORE PUSH1 0x20 ADD SWAP1 DUP2 MSTORE PUSH1 0x20 ADD PUSH1 0x0 KECCAK256 PUSH1 0x0 DUP3 ADD MLOAD DUP2 PUSH1 0x0 ADD SWAP1 DUP2 PUSH2 0x56FC SWAP2 SWAP1 PUSH2 0x8CD0 JUMP JUMPDEST POP PUSH1 0x20 DUP3 ADD MLOAD DUP2 PUSH1 0x1 ADD SWAP1 DUP2 PUSH2 0x5712 SWAP2 SWAP1 PUSH2 0x8CD0 JUMP JUMPDEST POP PUSH1 0x40 DUP3 ADD MLOAD DUP2 PUSH1 0x2 ADD PUSH1 0x0 PUSH2 0x100 EXP DUP2 SLOAD DUP2 PUSH20 0xFFFFFFFFFFFFFFFFFFFFFFFFFFFFFFFFFFFFFFFF MUL NOT AND SWAP1 DUP4 PUSH20 0xFFFFFFFFFFFFFFFFFFFFFFFFFFFFFFFFFFFFFFFF AND MUL OR SWAP1 SSTORE POP PUSH1 0x60 DUP3 ADD MLOAD DUP2 PUSH1 0x3 ADD SWAP1 DUP2 PUSH2 0x576F SWAP2 SWAP1 PUSH2 0x8CD0 JUMP JUMPDEST POP PUSH1 0x80 DUP3 ADD MLOAD DUP2 PUSH1 0x4 ADD PUSH1 0x0 PUSH2 0x100 EXP DUP2 SLOAD DUP2 PUSH2 0xFFFF MUL NOT AND SWAP1 DUP4 PUSH2 0xFFFF AND MUL OR SWAP1 SSTORE POP PUSH1 0xA0 DUP3 ADD MLOAD DUP2 PUSH1 0x4 ADD PUSH1 0x2 PUSH2 0x100 EXP DUP2 SLOAD DUP2 PUSH1 0xFF MUL NOT AND SWAP1 DUP4 PUSH1 0x1 DUP2 GT ISZERO PUSH2 0x57BE JUMPI PUSH2 0x57BD PUSH2 0x7848 JUMP JUMPDEST JUMPDEST MUL OR SWAP1 SSTORE POP SWAP1 POP POP PUSH1 0x2 DUP2 PUSH1 0x40 ADD MLOAD SWAP1 DUP1 PUSH1 0x1 DUP2 SLOAD ADD DUP1 DUP3 SSTORE DUP1 SWAP2 POP POP PUSH1 0x1 SWAP1 SUB SWAP1 PUSH1 0x0 MSTORE PUSH1 0x20 PUSH1 0x0 KECCAK256 ADD PUSH1 0x0 SWAP1 SWAP2 SWAP1 SWAP2 SWAP1 SWAP2 PUSH2 0x100 EXP DUP2 SLOAD DUP2 PUSH20 0xFFFFFFFFFFFFFFFFFFFFFFFFFFFFFFFFFFFFFFFF MUL NOT AND SWAP1 DUP4 PUSH20 0xFFFFFFFFFFFFFFFFFFFFFFFFFFFFFFFFFFFFFFFF AND MUL OR SWAP1 SSTORE POP PUSH32 0x17EE33CC6A54067D735EE1C9200FC0DC8354B1D7DEAE9908692BCD90723044B1 DUP2 PUSH1 0x40 ADD MLOAD DUP3 PUSH1 0x0 ADD MLOAD DUP4 PUSH1 0x20 ADD MLOAD DUP5 PUSH1 0x60 ADD MLOAD PUSH1 0x40 MLOAD PUSH2 0x5872 SWAP5 SWAP4 SWAP3 SWAP2 SWAP1 PUSH2 0x94A2 JUMP JUMPDEST PUSH1 0x40 MLOAD DUP1 SWAP2 SUB SWAP1 LOG1 POP JUMP JUMPDEST PUSH1 0x0 PUSH20 0xFFFFFFFFFFFFFFFFFFFFFFFFFFFFFFFFFFFFFFFF AND PUSH1 0x3 PUSH1 0x0 DUP6 PUSH20 0xFFFFFFFFFFFFFFFFFFFFFFFFFFFFFFFFFFFFFFFF AND PUSH20 0xFFFFFFFFFFFFFFFFFFFFFFFFFFFFFFFFFFFFFFFF AND DUP2 MSTORE PUSH1 0x20 ADD SWAP1 DUP2 MSTORE PUSH1 0x20 ADD PUSH1 0x0 KECCAK256 PUSH1 0x2 ADD PUSH1 0x0 SWAP1 SLOAD SWAP1 PUSH2 0x100 EXP SWAP1 DIV PUSH20 0xFFFFFFFFFFFFFFFFFFFFFFFFFFFFFFFFFFFFFFFF AND PUSH20 0xFFFFFFFFFFFFFFFFFFFFFFFFFFFFFFFFFFFFFFFF AND SUB PUSH2 0x594E JUMPI PUSH1 0x40 MLOAD PUSH32 0x8C379A000000000000000000000000000000000000000000000000000000000 DUP2 MSTORE PUSH1 0x4 ADD PUSH2 0x5945 SWAP1 PUSH2 0x896D JUMP JUMPDEST PUSH1 0x40 MLOAD DUP1 SWAP2 SUB SWAP1 REVERT JUMPDEST DUP1 PUSH1 0x3 PUSH1 0x0 DUP6 PUSH20 0xFFFFFFFFFFFFFFFFFFFFFFFFFFFFFFFFFFFFFFFF AND PUSH20 0xFFFFFFFFFFFFFFFFFFFFFFFFFFFFFFFFFFFFFFFF AND DUP2 MSTORE PUSH1 0x20 ADD SWAP1 DUP2 MSTORE PUSH1 0x20 ADD PUSH1 0x0 KECCAK256 PUSH1 0x0 ADD SWAP1 DUP2 PUSH2 0x599D SWAP2 SWAP1 PUSH2 0x8CD0 JUMP JUMPDEST POP DUP2 PUSH1 0x3 PUSH1 0x0 DUP6 PUSH20 0xFFFFFFFFFFFFFFFFFFFFFFFFFFFFFFFFFFFFFFFF AND PUSH20 0xFFFFFFFFFFFFFFFFFFFFFFFFFFFFFFFFFFFFFFFF AND DUP2 MSTORE PUSH1 0x20 ADD SWAP1 DUP2 MSTORE PUSH1 0x20 ADD PUSH1 0x0 KECCAK256 PUSH1 0x1 ADD SWAP1 DUP2 PUSH2 0x59ED SWAP2 SWAP1 PUSH2 0x8CD0 JUMP JUMPDEST POP PUSH32 0xC0E694475D9755514453A459373DED91F1517029FACA54000DA1C3007EC2C4F9 DUP4 DUP3 DUP5 PUSH1 0x40 MLOAD PUSH2 0x5A21 SWAP4 SWAP3 SWAP2 SWAP1 PUSH2 0x94FC JUMP JUMPDEST PUSH1 0x40 MLOAD DUP1 SWAP2 SUB SWAP1 LOG1 POP POP POP JUMP JUMPDEST PUSH1 0x0 PUSH1 0x60 PUSH1 0x0 DUP4 GT PUSH2 0x5A75 JUMPI PUSH1 0x40 MLOAD PUSH32 0x8C379A000000000000000000000000000000000000000000000000000000000 DUP2 MSTORE PUSH1 0x4 ADD PUSH2 0x5A6C SWAP1 PUSH2 0x958D JUMP JUMPDEST PUSH1 0x40 MLOAD DUP1 SWAP2 SUB SWAP1 REVERT JUMPDEST PUSH1 0x0 DUP1 PUSH1 0x0 DUP1 PUSH2 0x5B0B DUP8 PUSH1 0x2 DUP1 SLOAD DUP1 PUSH1 0x20 MUL PUSH1 0x20 ADD PUSH1 0x40 MLOAD SWAP1 DUP2 ADD PUSH1 0x40 MSTORE DUP1 SWAP3 SWAP2 SWAP1 DUP2 DUP2 MSTORE PUSH1 0x20 ADD DUP3 DUP1 SLOAD DUP1 ISZERO PUSH2 0x5B01 JUMPI PUSH1 0x20 MUL DUP3 ADD SWAP2 SWAP1 PUSH1 0x0 MSTORE PUSH1 0x20 PUSH1 0x0 KECCAK256 SWAP1 JUMPDEST DUP2 PUSH1 0x0 SWAP1 SLOAD SWAP1 PUSH2 0x100 EXP SWAP1 DIV PUSH20 0xFFFFFFFFFFFFFFFFFFFFFFFFFFFFFFFFFFFFFFFF AND PUSH20 0xFFFFFFFFFFFFFFFFFFFFFFFFFFFFFFFFFFFFFFFF AND DUP2 MSTORE PUSH1 0x20 ADD SWAP1 PUSH1 0x1 ADD SWAP1 DUP1 DUP4 GT PUSH2 0x5AB7 JUMPI JUMPDEST POP POP POP POP POP PUSH2 0x7387 JUMP JUMPDEST SWAP4 POP SWAP4 POP SWAP4 POP SWAP4 POP PUSH1 0x0 DUP4 PUSH8 0xFFFFFFFFFFFFFFFF DUP2 GT ISZERO PUSH2 0x5B2F JUMPI PUSH2 0x5B2E PUSH2 0x7982 JUMP JUMPDEST JUMPDEST PUSH1 0x40 MLOAD SWAP1 DUP1 DUP3 MSTORE DUP1 PUSH1 0x20 MUL PUSH1 0x20 ADD DUP3 ADD PUSH1 0x40 MSTORE DUP1 ISZERO PUSH2 0x5B68 JUMPI DUP2 PUSH1 0x20 ADD JUMPDEST PUSH2 0x5B55 PUSH2 0x749A JUMP JUMPDEST DUP2 MSTORE PUSH1 0x20 ADD SWAP1 PUSH1 0x1 SWAP1 SUB SWAP1 DUP2 PUSH2 0x5B4D JUMPI SWAP1 POP JUMPDEST POP SWAP1 POP PUSH1 0x0 DUP4 SWAP1 POP JUMPDEST DUP3 DUP2 LT ISZERO PUSH2 0x5E99 JUMPI PUSH1 0x3 PUSH1 0x0 PUSH1 0x2 DUP4 DUP2 SLOAD DUP2 LT PUSH2 0x5B91 JUMPI PUSH2 0x5B90 PUSH2 0x8F17 JUMP JUMPDEST JUMPDEST SWAP1 PUSH1 0x0 MSTORE PUSH1 0x20 PUSH1 0x0 KECCAK256 ADD PUSH1 0x0 SWAP1 SLOAD SWAP1 PUSH2 0x100 EXP SWAP1 DIV PUSH20 0xFFFFFFFFFFFFFFFFFFFFFFFFFFFFFFFFFFFFFFFF AND PUSH20 0xFFFFFFFFFFFFFFFFFFFFFFFFFFFFFFFFFFFFFFFF AND PUSH20 0xFFFFFFFFFFFFFFFFFFFFFFFFFFFFFFFFFFFFFFFF AND DUP2 MSTORE PUSH1 0x20 ADD SWAP1 DUP2 MSTORE PUSH1 0x20 ADD PUSH1 0x0 KECCAK256 PUSH1 0x40 MLOAD DUP1 PUSH1 0xC0 ADD PUSH1 0x40 MSTORE SWAP1 DUP2 PUSH1 0x0 DUP3 ADD DUP1 SLOAD PUSH2 0x5C11 SWAP1 PUSH2 0x8884 JUMP JUMPDEST DUP1 PUSH1 0x1F ADD PUSH1 0x20 DUP1 SWAP2 DIV MUL PUSH1 0x20 ADD PUSH1 0x40 MLOAD SWAP1 DUP2 ADD PUSH1 0x40 MSTORE DUP1 SWAP3 SWAP2 SWAP1 DUP2 DUP2 MSTORE PUSH1 0x20 ADD DUP3 DUP1 SLOAD PUSH2 0x5C3D SWAP1 PUSH2 0x8884 JUMP JUMPDEST DUP1 ISZERO PUSH2 0x5C8A JUMPI DUP1 PUSH1 0x1F LT PUSH2 0x5C5F JUMPI PUSH2 0x100 DUP1 DUP4 SLOAD DIV MUL DUP4 MSTORE SWAP2 PUSH1 0x20 ADD SWAP2 PUSH2 0x5C8A JUMP JUMPDEST DUP3 ADD SWAP2 SWAP1 PUSH1 0x0 MSTORE PUSH1 0x20 PUSH1 0x0 KECCAK256 SWAP1 JUMPDEST DUP2 SLOAD DUP2 MSTORE SWAP1 PUSH1 0x1 ADD SWAP1 PUSH1 0x20 ADD DUP1 DUP4 GT PUSH2 0x5C6D JUMPI DUP3 SWAP1 SUB PUSH1 0x1F AND DUP3 ADD SWAP2 JUMPDEST POP POP POP POP POP DUP2 MSTORE PUSH1 0x20 ADD PUSH1 0x1 DUP3 ADD DUP1 SLOAD PUSH2 0x5CA3 SWAP1 PUSH2 0x8884 JUMP JUMPDEST DUP1 PUSH1 0x1F ADD PUSH1 0x20 DUP1 SWAP2 DIV MUL PUSH1 0x20 ADD PUSH1 0x40 MLOAD SWAP1 DUP2 ADD PUSH1 0x40 MSTORE DUP1 SWAP3 SWAP2 SWAP1 DUP2 DUP2 MSTORE PUSH1 0x20 ADD DUP3 DUP1 SLOAD PUSH2 0x5CCF SWAP1 PUSH2 0x8884 JUMP JUMPDEST DUP1 ISZERO PUSH2 0x5D1C JUMPI DUP1 PUSH1 0x1F LT PUSH2 0x5CF1 JUMPI PUSH2 0x100 DUP1 DUP4 SLOAD DIV MUL DUP4 MSTORE SWAP2 PUSH1 0x20 ADD SWAP2 PUSH2 0x5D1C JUMP JUMPDEST DUP3 ADD SWAP2 SWAP1 PUSH1 0x0 MSTORE PUSH1 0x20 PUSH1 0x0 KECCAK256 SWAP1 JUMPDEST DUP2 SLOAD DUP2 MSTORE SWAP1 PUSH1 0x1 ADD SWAP1 PUSH1 0x20 ADD DUP1 DUP4 GT PUSH2 0x5CFF JUMPI DUP3 SWAP1 SUB PUSH1 0x1F AND DUP3 ADD SWAP2 JUMPDEST POP POP POP POP POP DUP2 MSTORE PUSH1 0x20 ADD PUSH1 0x2 DUP3 ADD PUSH1 0x0 SWAP1 SLOAD SWAP1 PUSH2 0x100 EXP SWAP1 DIV PUSH20 0xFFFFFFFFFFFFFFFFFFFFFFFFFFFFFFFFFFFFFFFF AND PUSH20 0xFFFFFFFFFFFFFFFFFFFFFFFFFFFFFFFFFFFFFFFF AND PUSH20 0xFFFFFFFFFFFFFFFFFFFFFFFFFFFFFFFFFFFFFFFF AND DUP2 MSTORE PUSH1 0x20 ADD PUSH1 0x3 DUP3 ADD DUP1 SLOAD PUSH2 0x5D8B SWAP1 PUSH2 0x8884 JUMP JUMPDEST DUP1 PUSH1 0x1F ADD PUSH1 0x20 DUP1 SWAP2 DIV MUL PUSH1 0x20 ADD PUSH1 0x40 MLOAD SWAP1 DUP2 ADD PUSH1 0x40 MSTORE DUP1 SWAP3 SWAP2 SWAP1 DUP2 DUP2 MSTORE PUSH1 0x20 ADD DUP3 DUP1 SLOAD PUSH2 0x5DB7 SWAP1 PUSH2 0x8884 JUMP JUMPDEST DUP1 ISZERO PUSH2 0x5E04 JUMPI DUP1 PUSH1 0x1F LT PUSH2 0x5DD9 JUMPI PUSH2 0x100 DUP1 DUP4 SLOAD DIV MUL DUP4 MSTORE SWAP2 PUSH1 0x20 ADD SWAP2 PUSH2 0x5E04 JUMP JUMPDEST DUP3 ADD SWAP2 SWAP1 PUSH1 0x0 MSTORE PUSH1 0x20 PUSH1 0x0 KECCAK256 SWAP1 JUMPDEST DUP2 SLOAD DUP2 MSTORE SWAP1 PUSH1 0x1 ADD SWAP1 PUSH1 0x20 ADD DUP1 DUP4 GT PUSH2 0x5DE7 JUMPI DUP3 SWAP1 SUB PUSH1 0x1F AND DUP3 ADD SWAP2 JUMPDEST POP POP POP POP POP DUP2 MSTORE PUSH1 0x20 ADD PUSH1 0x4 DUP3 ADD PUSH1 0x0 SWAP1 SLOAD SWAP1 PUSH2 0x100 EXP SWAP1 DIV PUSH2 0xFFFF AND PUSH2 0xFFFF AND PUSH2 0xFFFF AND DUP2 MSTORE PUSH1 0x20 ADD PUSH1 0x4 DUP3 ADD PUSH1 0x2 SWAP1 SLOAD SWAP1 PUSH2 0x100 EXP SWAP1 DIV PUSH1 0xFF AND PUSH1 0x1 DUP2 GT ISZERO PUSH2 0x5E52 JUMPI PUSH2 0x5E51 PUSH2 0x7848 JUMP JUMPDEST JUMPDEST PUSH1 0x1 DUP2 GT ISZERO PUSH2 0x5E64 JUMPI PUSH2 0x5E63 PUSH2 0x7848 JUMP JUMPDEST JUMPDEST DUP2 MSTORE POP POP DUP3 DUP3 DUP2 MLOAD DUP2 LT PUSH2 0x5E7B JUMPI PUSH2 0x5E7A PUSH2 0x8F17 JUMP JUMPDEST JUMPDEST PUSH1 0x20 MUL PUSH1 0x20 ADD ADD DUP2 SWAP1 MSTORE POP DUP1 DUP1 PUSH2 0x5E91 SWAP1 PUSH2 0x8F75 JUMP JUMPDEST SWAP2 POP POP PUSH2 0x5B71 JUMP JUMPDEST POP DUP5 DUP2 SWAP7 POP SWAP7 POP POP POP POP POP POP SWAP2 POP SWAP2 JUMP JUMPDEST PUSH1 0x0 PUSH2 0x5EB4 PUSH2 0x7431 JUMP JUMPDEST PUSH1 0x0 PUSH2 0x5EBE PUSH2 0x7431 JUMP JUMPDEST PUSH1 0x0 JUMPDEST DUP6 MLOAD DUP2 LT ISZERO PUSH2 0x61F5 JUMPI DUP7 PUSH20 0xFFFFFFFFFFFFFFFFFFFFFFFFFFFFFFFFFFFFFFFF AND DUP7 DUP3 DUP2 MLOAD DUP2 LT PUSH2 0x5EF4 JUMPI PUSH2 0x5EF3 PUSH2 0x8F17 JUMP JUMPDEST JUMPDEST PUSH1 0x20 MUL PUSH1 0x20 ADD ADD MLOAD PUSH20 0xFFFFFFFFFFFFFFFFFFFFFFFFFFFFFFFFFFFFFFFF AND SUB PUSH2 0x61E2 JUMPI PUSH1 0x1 SWAP3 POP PUSH1 0x1 PUSH1 0x0 DUP9 PUSH20 0xFFFFFFFFFFFFFFFFFFFFFFFFFFFFFFFFFFFFFFFF AND PUSH20 0xFFFFFFFFFFFFFFFFFFFFFFFFFFFFFFFFFFFFFFFF AND DUP2 MSTORE PUSH1 0x20 ADD SWAP1 DUP2 MSTORE PUSH1 0x20 ADD PUSH1 0x0 KECCAK256 PUSH1 0x40 MLOAD DUP1 PUSH1 0xE0 ADD PUSH1 0x40 MSTORE SWAP1 DUP2 PUSH1 0x0 DUP3 ADD DUP1 SLOAD PUSH2 0x5F75 SWAP1 PUSH2 0x8884 JUMP JUMPDEST DUP1 PUSH1 0x1F ADD PUSH1 0x20 DUP1 SWAP2 DIV MUL PUSH1 0x20 ADD PUSH1 0x40 MLOAD SWAP1 DUP2 ADD PUSH1 0x40 MSTORE DUP1 SWAP3 SWAP2 SWAP1 DUP2 DUP2 MSTORE PUSH1 0x20 ADD DUP3 DUP1 SLOAD PUSH2 0x5FA1 SWAP1 PUSH2 0x8884 JUMP JUMPDEST DUP1 ISZERO PUSH2 0x5FEE JUMPI DUP1 PUSH1 0x1F LT PUSH2 0x5FC3 JUMPI PUSH2 0x100 DUP1 DUP4 SLOAD DIV MUL DUP4 MSTORE SWAP2 PUSH1 0x20 ADD SWAP2 PUSH2 0x5FEE JUMP JUMPDEST DUP3 ADD SWAP2 SWAP1 PUSH1 0x0 MSTORE PUSH1 0x20 PUSH1 0x0 KECCAK256 SWAP1 JUMPDEST DUP2 SLOAD DUP2 MSTORE SWAP1 PUSH1 0x1 ADD SWAP1 PUSH1 0x20 ADD DUP1 DUP4 GT PUSH2 0x5FD1 JUMPI DUP3 SWAP1 SUB PUSH1 0x1F AND DUP3 ADD SWAP2 JUMPDEST POP POP POP POP POP DUP2 MSTORE PUSH1 0x20 ADD PUSH1 0x1 DUP3 ADD DUP1 SLOAD PUSH2 0x6007 SWAP1 PUSH2 0x8884 JUMP JUMPDEST DUP1 PUSH1 0x1F ADD PUSH1 0x20 DUP1 SWAP2 DIV MUL PUSH1 0x20 ADD PUSH1 0x40 MLOAD SWAP1 DUP2 ADD PUSH1 0x40 MSTORE DUP1 SWAP3 SWAP2 SWAP1 DUP2 DUP2 MSTORE PUSH1 0x20 ADD DUP3 DUP1 SLOAD PUSH2 0x6033 SWAP1 PUSH2 0x8884 JUMP JUMPDEST DUP1 ISZERO PUSH2 0x6080 JUMPI DUP1 PUSH1 0x1F LT PUSH2 0x6055 JUMPI PUSH2 0x100 DUP1 DUP4 SLOAD DIV MUL DUP4 MSTORE SWAP2 PUSH1 0x20 ADD SWAP2 PUSH2 0x6080 JUMP JUMPDEST DUP3 ADD SWAP2 SWAP1 PUSH1 0x0 MSTORE PUSH1 0x20 PUSH1 0x0 KECCAK256 SWAP1 JUMPDEST DUP2 SLOAD DUP2 MSTORE SWAP1 PUSH1 0x1 ADD SWAP1 PUSH1 0x20 ADD DUP1 DUP4 GT PUSH2 0x6063 JUMPI DUP3 SWAP1 SUB PUSH1 0x1F AND DUP3 ADD SWAP2 JUMPDEST POP POP POP POP POP DUP2 MSTORE PUSH1 0x20 ADD PUSH1 0x2 DUP3 ADD SLOAD DUP2 MSTORE PUSH1 0x20 ADD PUSH1 0x3 DUP3 ADD PUSH1 0x0 SWAP1 SLOAD SWAP1 PUSH2 0x100 EXP SWAP1 DIV PUSH20 0xFFFFFFFFFFFFFFFFFFFFFFFFFFFFFFFFFFFFFFFF AND PUSH20 0xFFFFFFFFFFFFFFFFFFFFFFFFFFFFFFFFFFFFFFFF AND PUSH20 0xFFFFFFFFFFFFFFFFFFFFFFFFFFFFFFFFFFFFFFFF AND DUP2 MSTORE PUSH1 0x20 ADD PUSH1 0x4 DUP3 ADD PUSH1 0x0 SWAP1 SLOAD SWAP1 PUSH2 0x100 EXP SWAP1 DIV PUSH20 0xFFFFFFFFFFFFFFFFFFFFFFFFFFFFFFFFFFFFFFFF AND PUSH20 0xFFFFFFFFFFFFFFFFFFFFFFFFFFFFFFFFFFFFFFFF AND PUSH20 0xFFFFFFFFFFFFFFFFFFFFFFFFFFFFFFFFFFFFFFFF AND DUP2 MSTORE PUSH1 0x20 ADD PUSH1 0x5 DUP3 ADD DUP1 SLOAD PUSH2 0x614F SWAP1 PUSH2 0x8884 JUMP JUMPDEST DUP1 PUSH1 0x1F ADD PUSH1 0x20 DUP1 SWAP2 DIV MUL PUSH1 0x20 ADD PUSH1 0x40 MLOAD SWAP1 DUP2 ADD PUSH1 0x40 MSTORE DUP1 SWAP3 SWAP2 SWAP1 DUP2 DUP2 MSTORE PUSH1 0x20 ADD DUP3 DUP1 SLOAD PUSH2 0x617B SWAP1 PUSH2 0x8884 JUMP JUMPDEST DUP1 ISZERO PUSH2 0x61C8 JUMPI DUP1 PUSH1 0x1F LT PUSH2 0x619D JUMPI PUSH2 0x100 DUP1 DUP4 SLOAD DIV MUL DUP4 MSTORE SWAP2 PUSH1 0x20 ADD SWAP2 PUSH2 0x61C8 JUMP JUMPDEST DUP3 ADD SWAP2 SWAP1 PUSH1 0x0 MSTORE PUSH1 0x20 PUSH1 0x0 KECCAK256 SWAP1 JUMPDEST DUP2 SLOAD DUP2 MSTORE SWAP1 PUSH1 0x1 ADD SWAP1 PUSH1 0x20 ADD DUP1 DUP4 GT PUSH2 0x61AB JUMPI DUP3 SWAP1 SUB PUSH1 0x1F AND DUP3 ADD SWAP2 JUMPDEST POP POP POP POP POP DUP2 MSTORE PUSH1 0x20 ADD PUSH1 0x6 DUP3 ADD SLOAD DUP2 MSTORE POP POP SWAP2 POP PUSH2 0x61F5 JUMP JUMPDEST DUP1 DUP1 PUSH2 0x61ED SWAP1 PUSH2 0x8F75 JUMP JUMPDEST SWAP2 POP POP PUSH2 0x5EC1 JUMP JUMPDEST POP DUP2 DUP2 SWAP4 POP SWAP4 POP POP POP SWAP3 POP SWAP3 SWAP1 POP JUMP JUMPDEST DUP1 PUSH1 0x1 PUSH1 0x0 DUP4 PUSH1 0x60 ADD MLOAD PUSH20 0xFFFFFFFFFFFFFFFFFFFFFFFFFFFFFFFFFFFFFFFF AND PUSH20 0xFFFFFFFFFFFFFFFFFFFFFFFFFFFFFFFFFFFFFFFF AND DUP2 MSTORE PUSH1 0x20 ADD SWAP1 DUP2 MSTORE PUSH1 0x20 ADD PUSH1 0x0 KECCAK256 PUSH1 0x0 DUP3 ADD MLOAD DUP2 PUSH1 0x0 ADD SWAP1 DUP2 PUSH2 0x625E SWAP2 SWAP1 PUSH2 0x8CD0 JUMP JUMPDEST POP PUSH1 0x20 DUP3 ADD MLOAD DUP2 PUSH1 0x1 ADD SWAP1 DUP2 PUSH2 0x6274 SWAP2 SWAP1 PUSH2 0x8CD0 JUMP JUMPDEST POP PUSH1 0x40 DUP3 ADD MLOAD DUP2 PUSH1 0x2 ADD SSTORE PUSH1 0x60 DUP3 ADD MLOAD DUP2 PUSH1 0x3 ADD PUSH1 0x0 PUSH2 0x100 EXP DUP2 SLOAD DUP2 PUSH20 0xFFFFFFFFFFFFFFFFFFFFFFFFFFFFFFFFFFFFFFFF MUL NOT AND SWAP1 DUP4 PUSH20 0xFFFFFFFFFFFFFFFFFFFFFFFFFFFFFFFFFFFFFFFF AND MUL OR SWAP1 SSTORE POP PUSH1 0x80 DUP3 ADD MLOAD DUP2 PUSH1 0x4 ADD PUSH1 0x0 PUSH2 0x100 EXP DUP2 SLOAD DUP2 PUSH20 0xFFFFFFFFFFFFFFFFFFFFFFFFFFFFFFFFFFFFFFFF MUL NOT AND SWAP1 DUP4 PUSH20 0xFFFFFFFFFFFFFFFFFFFFFFFFFFFFFFFFFFFFFFFF AND MUL OR SWAP1 SSTORE POP PUSH1 0xA0 DUP3 ADD MLOAD DUP2 PUSH1 0x5 ADD SWAP1 DUP2 PUSH2 0x6322 SWAP2 SWAP1 PUSH2 0x8CD0 JUMP JUMPDEST POP PUSH1 0xC0 DUP3 ADD MLOAD DUP2 PUSH1 0x6 ADD SSTORE SWAP1 POP POP PUSH1 0x0 DUP2 PUSH1 0x60 ADD MLOAD SWAP1 DUP1 PUSH1 0x1 DUP2 SLOAD ADD DUP1 DUP3 SSTORE DUP1 SWAP2 POP POP PUSH1 0x1 SWAP1 SUB SWAP1 PUSH1 0x0 MSTORE PUSH1 0x20 PUSH1 0x0 KECCAK256 ADD PUSH1 0x0 SWAP1 SWAP2 SWAP1 SWAP2 SWAP1 SWAP2 PUSH2 0x100 EXP DUP2 SLOAD DUP2 PUSH20 0xFFFFFFFFFFFFFFFFFFFFFFFFFFFFFFFFFFFFFFFF MUL NOT AND SWAP1 DUP4 PUSH20 0xFFFFFFFFFFFFFFFFFFFFFFFFFFFFFFFFFFFFFFFF AND MUL OR SWAP1 SSTORE POP PUSH32 0x77EACB4962819F791EBD2750D7BE9519622DDCF4C37FE09C6FD33ACE5CE32CCB DUP2 PUSH1 0x60 ADD MLOAD DUP3 PUSH1 0x0 ADD MLOAD DUP4 PUSH1 0x20 ADD MLOAD PUSH1 0x40 MLOAD PUSH2 0x63D6 SWAP4 SWAP3 SWAP2 SWAP1 PUSH2 0x94FC JUMP JUMPDEST PUSH1 0x40 MLOAD DUP1 SWAP2 SUB SWAP1 LOG1 POP JUMP JUMPDEST DUP3 PUSH1 0x1 PUSH1 0x0 CALLER PUSH20 0xFFFFFFFFFFFFFFFFFFFFFFFFFFFFFFFFFFFFFFFF AND PUSH20 0xFFFFFFFFFFFFFFFFFFFFFFFFFFFFFFFFFFFFFFFF AND DUP2 MSTORE PUSH1 0x20 ADD SWAP1 DUP2 MSTORE PUSH1 0x20 ADD PUSH1 0x0 KECCAK256 PUSH1 0x0 ADD SWAP1 DUP2 PUSH2 0x6430 SWAP2 SWAP1 PUSH2 0x8CD0 JUMP JUMPDEST POP DUP2 PUSH1 0x1 PUSH1 0x0 CALLER PUSH20 0xFFFFFFFFFFFFFFFFFFFFFFFFFFFFFFFFFFFFFFFF AND PUSH20 0xFFFFFFFFFFFFFFFFFFFFFFFFFFFFFFFFFFFFFFFF AND DUP2 MSTORE PUSH1 0x20 ADD SWAP1 DUP2 MSTORE PUSH1 0x20 ADD PUSH1 0x0 KECCAK256 PUSH1 0x1 ADD SWAP1 DUP2 PUSH2 0x6480 SWAP2 SWAP1 PUSH2 0x8CD0 JUMP JUMPDEST POP DUP1 PUSH1 0x1 PUSH1 0x0 CALLER PUSH20 0xFFFFFFFFFFFFFFFFFFFFFFFFFFFFFFFFFFFFFFFF AND PUSH20 0xFFFFFFFFFFFFFFFFFFFFFFFFFFFFFFFFFFFFFFFF AND DUP2 MSTORE PUSH1 0x20 ADD SWAP1 DUP2 MSTORE PUSH1 0x20 ADD PUSH1 0x0 KECCAK256 PUSH1 0x2 ADD DUP2 SWAP1 SSTORE POP PUSH32 0xCFC84FA73E8500B1F994B7616FDA16714AA77352DEFD398C17F8DDA41CC92195 CALLER DUP5 DUP5 PUSH1 0x40 MLOAD PUSH2 0x64FB SWAP4 SWAP3 SWAP2 SWAP1 PUSH2 0x94FC JUMP JUMPDEST PUSH1 0x40 MLOAD DUP1 SWAP2 SUB SWAP1 LOG1 POP POP POP JUMP JUMPDEST DUP2 PUSH1 0x1 PUSH1 0x0 CALLER PUSH20 0xFFFFFFFFFFFFFFFFFFFFFFFFFFFFFFFFFFFFFFFF AND PUSH20 0xFFFFFFFFFFFFFFFFFFFFFFFFFFFFFFFFFFFFFFFF AND DUP2 MSTORE PUSH1 0x20 ADD SWAP1 DUP2 MSTORE PUSH1 0x20 ADD PUSH1 0x0 KECCAK256 PUSH1 0x5 ADD SWAP1 DUP2 PUSH2 0x6557 SWAP2 SWAP1 PUSH2 0x8CD0 JUMP JUMPDEST POP DUP1 PUSH1 0x1 PUSH1 0x0 CALLER PUSH20 0xFFFFFFFFFFFFFFFFFFFFFFFFFFFFFFFFFFFFFFFF AND PUSH20 0xFFFFFFFFFFFFFFFFFFFFFFFFFFFFFFFFFFFFFFFF AND DUP2 MSTORE PUSH1 0x20 ADD SWAP1 DUP2 MSTORE PUSH1 0x20 ADD PUSH1 0x0 KECCAK256 PUSH1 0x6 ADD DUP2 SWAP1 SSTORE POP PUSH32 0x844D9124DAD5A413C4B99664397291F93F1E89513CD8C3A68674C050283C5561 CALLER PUSH1 0x1 PUSH1 0x0 CALLER PUSH20 0xFFFFFFFFFFFFFFFFFFFFFFFFFFFFFFFFFFFFFFFF AND PUSH20 0xFFFFFFFFFFFFFFFFFFFFFFFFFFFFFFFFFFFFFFFF AND DUP2 MSTORE PUSH1 0x20 ADD SWAP1 DUP2 MSTORE PUSH1 0x20 ADD PUSH1 0x0 KECCAK256 PUSH1 0x0 ADD DUP5 PUSH1 0x40 MLOAD PUSH2 0x6613 SWAP4 SWAP3 SWAP2 SWAP1 PUSH2 0x95AD JUMP JUMPDEST PUSH1 0x40 MLOAD DUP1 SWAP2 SUB SWAP1 LOG1 POP POP JUMP JUMPDEST PUSH1 0x0 DUP1 PUSH20 0xFFFFFFFFFFFFFFFFFFFFFFFFFFFFFFFFFFFFFFFF AND PUSH1 0x3 PUSH1 0x0 DUP6 PUSH20 0xFFFFFFFFFFFFFFFFFFFFFFFFFFFFFFFFFFFFFFFF AND PUSH20 0xFFFFFFFFFFFFFFFFFFFFFFFFFFFFFFFFFFFFFFFF AND DUP2 MSTORE PUSH1 0x20 ADD SWAP1 DUP2 MSTORE PUSH1 0x20 ADD PUSH1 0x0 KECCAK256 PUSH1 0x2 ADD PUSH1 0x0 SWAP1 SLOAD SWAP1 PUSH2 0x100 EXP SWAP1 DIV PUSH20 0xFFFFFFFFFFFFFFFFFFFFFFFFFFFFFFFFFFFFFFFF AND PUSH20 0xFFFFFFFFFFFFFFFFFFFFFFFFFFFFFFFFFFFFFFFF AND SUB PUSH2 0x66F1 JUMPI PUSH1 0x40 MLOAD PUSH32 0x8C379A000000000000000000000000000000000000000000000000000000000 DUP2 MSTORE PUSH1 0x4 ADD PUSH2 0x66E8 SWAP1 PUSH2 0x896D JUMP JUMPDEST PUSH1 0x40 MLOAD DUP1 SWAP2 SUB SWAP1 REVERT JUMPDEST DUP2 DUP1 ISZERO PUSH2 0x6770 JUMPI POP PUSH1 0x1 DUP1 DUP2 GT ISZERO PUSH2 0x670C JUMPI PUSH2 0x670B PUSH2 0x7848 JUMP JUMPDEST JUMPDEST PUSH1 0x3 PUSH1 0x0 DUP6 PUSH20 0xFFFFFFFFFFFFFFFFFFFFFFFFFFFFFFFFFFFFFFFF AND PUSH20 0xFFFFFFFFFFFFFFFFFFFFFFFFFFFFFFFFFFFFFFFF AND DUP2 MSTORE PUSH1 0x20 ADD SWAP1 DUP2 MSTORE PUSH1 0x20 ADD PUSH1 0x0 KECCAK256 PUSH1 0x4 ADD PUSH1 0x2 SWAP1 SLOAD SWAP1 PUSH2 0x100 EXP SWAP1 DIV PUSH1 0xFF AND PUSH1 0x1 DUP2 GT ISZERO PUSH2 0x676E JUMPI PUSH2 0x676D PUSH2 0x7848 JUMP JUMPDEST JUMPDEST EQ JUMPDEST ISZERO PUSH2 0x6863 JUMPI PUSH1 0x0 PUSH1 0x3 PUSH1 0x0 DUP6 PUSH20 0xFFFFFFFFFFFFFFFFFFFFFFFFFFFFFFFFFFFFFFFF AND PUSH20 0xFFFFFFFFFFFFFFFFFFFFFFFFFFFFFFFFFFFFFFFF AND DUP2 MSTORE PUSH1 0x20 ADD SWAP1 DUP2 MSTORE PUSH1 0x20 ADD PUSH1 0x0 KECCAK256 PUSH1 0x4 ADD PUSH1 0x2 PUSH2 0x100 EXP DUP2 SLOAD DUP2 PUSH1 0xFF MUL NOT AND SWAP1 DUP4 PUSH1 0x1 DUP2 GT ISZERO PUSH2 0x67DB JUMPI PUSH2 0x67DA PUSH2 0x7848 JUMP JUMPDEST JUMPDEST MUL OR SWAP1 SSTORE POP PUSH32 0xBBB85D77E85C02977B28BA58175443B7D9C020551C53482EA6DF5FE2E1CB8843 DUP4 PUSH1 0x3 PUSH1 0x0 DUP7 PUSH20 0xFFFFFFFFFFFFFFFFFFFFFFFFFFFFFFFFFFFFFFFF AND PUSH20 0xFFFFFFFFFFFFFFFFFFFFFFFFFFFFFFFFFFFFFFFF AND DUP2 MSTORE PUSH1 0x20 ADD SWAP1 DUP2 MSTORE PUSH1 0x20 ADD PUSH1 0x0 KECCAK256 PUSH1 0x0 ADD PUSH1 0x40 MLOAD PUSH2 0x6852 SWAP3 SWAP2 SWAP1 PUSH2 0x95F2 JUMP JUMPDEST PUSH1 0x40 MLOAD DUP1 SWAP2 SUB SWAP1 LOG1 PUSH1 0x0 SWAP1 POP PUSH2 0x6A2A JUMP JUMPDEST DUP2 ISZERO DUP1 ISZERO PUSH2 0x68E4 JUMPI POP PUSH1 0x0 PUSH1 0x1 DUP2 GT ISZERO PUSH2 0x6880 JUMPI PUSH2 0x687F PUSH2 0x7848 JUMP JUMPDEST JUMPDEST PUSH1 0x3 PUSH1 0x0 DUP6 PUSH20 0xFFFFFFFFFFFFFFFFFFFFFFFFFFFFFFFFFFFFFFFF AND PUSH20 0xFFFFFFFFFFFFFFFFFFFFFFFFFFFFFFFFFFFFFFFF AND DUP2 MSTORE PUSH1 0x20 ADD SWAP1 DUP2 MSTORE PUSH1 0x20 ADD PUSH1 0x0 KECCAK256 PUSH1 0x4 ADD PUSH1 0x2 SWAP1 SLOAD SWAP1 PUSH2 0x100 EXP SWAP1 DIV PUSH1 0xFF AND PUSH1 0x1 DUP2 GT ISZERO PUSH2 0x68E2 JUMPI PUSH2 0x68E1 PUSH2 0x7848 JUMP JUMPDEST JUMPDEST EQ JUMPDEST ISZERO PUSH2 0x69D7 JUMPI PUSH1 0x1 PUSH1 0x3 PUSH1 0x0 DUP6 PUSH20 0xFFFFFFFFFFFFFFFFFFFFFFFFFFFFFFFFFFFFFFFF AND PUSH20 0xFFFFFFFFFFFFFFFFFFFFFFFFFFFFFFFFFFFFFFFF AND DUP2 MSTORE PUSH1 0x20 ADD SWAP1 DUP2 MSTORE PUSH1 0x20 ADD PUSH1 0x0 KECCAK256 PUSH1 0x4 ADD PUSH1 0x2 PUSH2 0x100 EXP DUP2 SLOAD DUP2 PUSH1 0xFF MUL NOT AND SWAP1 DUP4 PUSH1 0x1 DUP2 GT ISZERO PUSH2 0x694F JUMPI PUSH2 0x694E PUSH2 0x7848 JUMP JUMPDEST JUMPDEST MUL OR SWAP1 SSTORE POP PUSH32 0xE2914C072E85A93716AEA3154E8DC2A6D4F9A823930697852B892FE10BD598F8 DUP4 PUSH1 0x3 PUSH1 0x0 DUP7 PUSH20 0xFFFFFFFFFFFFFFFFFFFFFFFFFFFFFFFFFFFFFFFF AND PUSH20 0xFFFFFFFFFFFFFFFFFFFFFFFFFFFFFFFFFFFFFFFF AND DUP2 MSTORE PUSH1 0x20 ADD SWAP1 DUP2 MSTORE PUSH1 0x20 ADD PUSH1 0x0 KECCAK256 PUSH1 0x0 ADD PUSH1 0x40 MLOAD PUSH2 0x69C6 SWAP3 SWAP2 SWAP1 PUSH2 0x95F2 JUMP JUMPDEST PUSH1 0x40 MLOAD DUP1 SWAP2 SUB SWAP1 LOG1 PUSH1 0x1 SWAP1 POP PUSH2 0x6A2A JUMP JUMPDEST PUSH1 0x3 PUSH1 0x0 DUP5 PUSH20 0xFFFFFFFFFFFFFFFFFFFFFFFFFFFFFFFFFFFFFFFF AND PUSH20 0xFFFFFFFFFFFFFFFFFFFFFFFFFFFFFFFFFFFFFFFF AND DUP2 MSTORE PUSH1 0x20 ADD SWAP1 DUP2 MSTORE PUSH1 0x20 ADD PUSH1 0x0 KECCAK256 PUSH1 0x4 ADD PUSH1 0x2 SWAP1 SLOAD SWAP1 PUSH2 0x100 EXP SWAP1 DIV PUSH1 0xFF AND SWAP1 POP JUMPDEST SWAP3 SWAP2 POP POP JUMP JUMPDEST PUSH1 0x0 PUSH1 0x60 PUSH1 0x0 DUP5 GT PUSH2 0x6A77 JUMPI PUSH1 0x40 MLOAD PUSH32 0x8C379A000000000000000000000000000000000000000000000000000000000 DUP2 MSTORE PUSH1 0x4 ADD PUSH2 0x6A6E SWAP1 PUSH2 0x966E JUMP JUMPDEST PUSH1 0x40 MLOAD DUP1 SWAP2 SUB SWAP1 REVERT JUMPDEST PUSH1 0x0 DUP1 PUSH1 0x0 DUP1 PUSH2 0x6B94 DUP9 DUP9 PUSH2 0x6ACA JUMPI PUSH1 0x9 PUSH1 0x0 CALLER PUSH20 0xFFFFFFFFFFFFFFFFFFFFFFFFFFFFFFFFFFFFFFFF AND PUSH20 0xFFFFFFFFFFFFFFFFFFFFFFFFFFFFFFFFFFFFFFFF AND DUP2 MSTORE PUSH1 0x20 ADD SWAP1 DUP2 MSTORE PUSH1 0x20 ADD PUSH1 0x0 KECCAK256 PUSH2 0x6B0A JUMP JUMPDEST PUSH1 0x8 PUSH1 0x0 CALLER PUSH20 0xFFFFFFFFFFFFFFFFFFFFFFFFFFFFFFFFFFFFFFFF AND PUSH20 0xFFFFFFFFFFFFFFFFFFFFFFFFFFFFFFFFFFFFFFFF AND DUP2 MSTORE PUSH1 0x20 ADD SWAP1 DUP2 MSTORE PUSH1 0x20 ADD PUSH1 0x0 KECCAK256 JUMPDEST DUP1 SLOAD DUP1 PUSH1 0x20 MUL PUSH1 0x20 ADD PUSH1 0x40 MLOAD SWAP1 DUP2 ADD PUSH1 0x40 MSTORE DUP1 SWAP3 SWAP2 SWAP1 DUP2 DUP2 MSTORE PUSH1 0x20 ADD DUP3 DUP1 SLOAD DUP1 ISZERO PUSH2 0x6B8A JUMPI PUSH1 0x20 MUL DUP3 ADD SWAP2 SWAP1 PUSH1 0x0 MSTORE PUSH1 0x20 PUSH1 0x0 KECCAK256 SWAP1 JUMPDEST DUP2 PUSH1 0x0 SWAP1 SLOAD SWAP1 PUSH2 0x100 EXP SWAP1 DIV PUSH20 0xFFFFFFFFFFFFFFFFFFFFFFFFFFFFFFFFFFFFFFFF AND PUSH20 0xFFFFFFFFFFFFFFFFFFFFFFFFFFFFFFFFFFFFFFFF AND DUP2 MSTORE PUSH1 0x20 ADD SWAP1 PUSH1 0x1 ADD SWAP1 DUP1 DUP4 GT PUSH2 0x6B40 JUMPI JUMPDEST POP POP POP POP POP PUSH2 0x7387 JUMP JUMPDEST SWAP4 POP SWAP4 POP SWAP4 POP SWAP4 POP PUSH1 0x0 DUP4 PUSH8 0xFFFFFFFFFFFFFFFF DUP2 GT ISZERO PUSH2 0x6BB8 JUMPI PUSH2 0x6BB7 PUSH2 0x7982 JUMP JUMPDEST JUMPDEST PUSH1 0x40 MLOAD SWAP1 DUP1 DUP3 MSTORE DUP1 PUSH1 0x20 MUL PUSH1 0x20 ADD DUP3 ADD PUSH1 0x40 MSTORE DUP1 ISZERO PUSH2 0x6BF1 JUMPI DUP2 PUSH1 0x20 ADD JUMPDEST PUSH2 0x6BDE PUSH2 0x74FC JUMP JUMPDEST DUP2 MSTORE PUSH1 0x20 ADD SWAP1 PUSH1 0x1 SWAP1 SUB SWAP1 DUP2 PUSH2 0x6BD6 JUMPI SWAP1 POP JUMPDEST POP SWAP1 POP PUSH1 0x0 DUP4 SWAP1 POP JUMPDEST DUP3 DUP2 LT ISZERO PUSH2 0x7194 JUMPI DUP9 PUSH2 0x6CAE JUMPI PUSH1 0x7 PUSH2 0x6C8E PUSH1 0x9 PUSH1 0x0 CALLER PUSH20 0xFFFFFFFFFFFFFFFFFFFFFFFFFFFFFFFFFFFFFFFF AND PUSH20 0xFFFFFFFFFFFFFFFFFFFFFFFFFFFFFFFFFFFFFFFF AND DUP2 MSTORE PUSH1 0x20 ADD SWAP1 DUP2 MSTORE PUSH1 0x20 ADD PUSH1 0x0 KECCAK256 DUP4 DUP2 SLOAD DUP2 LT PUSH2 0x6C5D JUMPI PUSH2 0x6C5C PUSH2 0x8F17 JUMP JUMPDEST JUMPDEST SWAP1 PUSH1 0x0 MSTORE PUSH1 0x20 PUSH1 0x0 KECCAK256 ADD PUSH1 0x0 SWAP1 SLOAD SWAP1 PUSH2 0x100 EXP SWAP1 DIV PUSH20 0xFFFFFFFFFFFFFFFFFFFFFFFFFFFFFFFFFFFFFFFF AND CALLER PUSH2 0x528F JUMP JUMPDEST PUSH1 0x40 MLOAD PUSH2 0x6C9B SWAP2 SWAP1 PUSH2 0x8B0D JUMP JUMPDEST SWAP1 DUP2 MSTORE PUSH1 0x20 ADD PUSH1 0x40 MLOAD DUP1 SWAP2 SUB SWAP1 KECCAK256 PUSH2 0x6D51 JUMP JUMPDEST PUSH1 0x7 PUSH2 0x6D35 CALLER PUSH1 0x8 PUSH1 0x0 CALLER PUSH20 0xFFFFFFFFFFFFFFFFFFFFFFFFFFFFFFFFFFFFFFFF AND PUSH20 0xFFFFFFFFFFFFFFFFFFFFFFFFFFFFFFFFFFFFFFFF AND DUP2 MSTORE PUSH1 0x20 ADD SWAP1 DUP2 MSTORE PUSH1 0x20 ADD PUSH1 0x0 KECCAK256 DUP5 DUP2 SLOAD DUP2 LT PUSH2 0x6D05 JUMPI PUSH2 0x6D04 PUSH2 0x8F17 JUMP JUMPDEST JUMPDEST SWAP1 PUSH1 0x0 MSTORE PUSH1 0x20 PUSH1 0x0 KECCAK256 ADD PUSH1 0x0 SWAP1 SLOAD SWAP1 PUSH2 0x100 EXP SWAP1 DIV PUSH20 0xFFFFFFFFFFFFFFFFFFFFFFFFFFFFFFFFFFFFFFFF AND PUSH2 0x528F JUMP JUMPDEST PUSH1 0x40 MLOAD PUSH2 0x6D42 SWAP2 SWAP1 PUSH2 0x8B0D JUMP JUMPDEST SWAP1 DUP2 MSTORE PUSH1 0x20 ADD PUSH1 0x40 MLOAD DUP1 SWAP2 SUB SWAP1 KECCAK256 JUMPDEST PUSH1 0x40 MLOAD DUP1 PUSH2 0x140 ADD PUSH1 0x40 MSTORE SWAP1 DUP2 PUSH1 0x0 DUP3 ADD DUP1 SLOAD PUSH2 0x6D6D SWAP1 PUSH2 0x8884 JUMP JUMPDEST DUP1 PUSH1 0x1F ADD PUSH1 0x20 DUP1 SWAP2 DIV MUL PUSH1 0x20 ADD PUSH1 0x40 MLOAD SWAP1 DUP2 ADD PUSH1 0x40 MSTORE DUP1 SWAP3 SWAP2 SWAP1 DUP2 DUP2 MSTORE PUSH1 0x20 ADD DUP3 DUP1 SLOAD PUSH2 0x6D99 SWAP1 PUSH2 0x8884 JUMP JUMPDEST DUP1 ISZERO PUSH2 0x6DE6 JUMPI DUP1 PUSH1 0x1F LT PUSH2 0x6DBB JUMPI PUSH2 0x100 DUP1 DUP4 SLOAD DIV MUL DUP4 MSTORE SWAP2 PUSH1 0x20 ADD SWAP2 PUSH2 0x6DE6 JUMP JUMPDEST DUP3 ADD SWAP2 SWAP1 PUSH1 0x0 MSTORE PUSH1 0x20 PUSH1 0x0 KECCAK256 SWAP1 JUMPDEST DUP2 SLOAD DUP2 MSTORE SWAP1 PUSH1 0x1 ADD SWAP1 PUSH1 0x20 ADD DUP1 DUP4 GT PUSH2 0x6DC9 JUMPI DUP3 SWAP1 SUB PUSH1 0x1F AND DUP3 ADD SWAP2 JUMPDEST POP POP POP POP POP DUP2 MSTORE PUSH1 0x20 ADD PUSH1 0x1 DUP3 ADD PUSH1 0x0 SWAP1 SLOAD SWAP1 PUSH2 0x100 EXP SWAP1 DIV PUSH20 0xFFFFFFFFFFFFFFFFFFFFFFFFFFFFFFFFFFFFFFFF AND PUSH20 0xFFFFFFFFFFFFFFFFFFFFFFFFFFFFFFFFFFFFFFFF AND PUSH20 0xFFFFFFFFFFFFFFFFFFFFFFFFFFFFFFFFFFFFFFFF AND DUP2 MSTORE PUSH1 0x20 ADD PUSH1 0x2 DUP3 ADD DUP1 SLOAD PUSH2 0x6E55 SWAP1 PUSH2 0x8884 JUMP JUMPDEST DUP1 PUSH1 0x1F ADD PUSH1 0x20 DUP1 SWAP2 DIV MUL PUSH1 0x20 ADD PUSH1 0x40 MLOAD SWAP1 DUP2 ADD PUSH1 0x40 MSTORE DUP1 SWAP3 SWAP2 SWAP1 DUP2 DUP2 MSTORE PUSH1 0x20 ADD DUP3 DUP1 SLOAD PUSH2 0x6E81 SWAP1 PUSH2 0x8884 JUMP JUMPDEST DUP1 ISZERO PUSH2 0x6ECE JUMPI DUP1 PUSH1 0x1F LT PUSH2 0x6EA3 JUMPI PUSH2 0x100 DUP1 DUP4 SLOAD DIV MUL DUP4 MSTORE SWAP2 PUSH1 0x20 ADD SWAP2 PUSH2 0x6ECE JUMP JUMPDEST DUP3 ADD SWAP2 SWAP1 PUSH1 0x0 MSTORE PUSH1 0x20 PUSH1 0x0 KECCAK256 SWAP1 JUMPDEST DUP2 SLOAD DUP2 MSTORE SWAP1 PUSH1 0x1 ADD SWAP1 PUSH1 0x20 ADD DUP1 DUP4 GT PUSH2 0x6EB1 JUMPI DUP3 SWAP1 SUB PUSH1 0x1F AND DUP3 ADD SWAP2 JUMPDEST POP POP POP POP POP DUP2 MSTORE PUSH1 0x20 ADD PUSH1 0x3 DUP3 ADD PUSH1 0x0 SWAP1 SLOAD SWAP1 PUSH2 0x100 EXP SWAP1 DIV PUSH20 0xFFFFFFFFFFFFFFFFFFFFFFFFFFFFFFFFFFFFFFFF AND PUSH20 0xFFFFFFFFFFFFFFFFFFFFFFFFFFFFFFFFFFFFFFFF AND PUSH20 0xFFFFFFFFFFFFFFFFFFFFFFFFFFFFFFFFFFFFFFFF AND DUP2 MSTORE PUSH1 0x20 ADD PUSH1 0x4 DUP3 ADD DUP1 SLOAD PUSH2 0x6F3D SWAP1 PUSH2 0x8884 JUMP JUMPDEST DUP1 PUSH1 0x1F ADD PUSH1 0x20 DUP1 SWAP2 DIV MUL PUSH1 0x20 ADD PUSH1 0x40 MLOAD SWAP1 DUP2 ADD PUSH1 0x40 MSTORE DUP1 SWAP3 SWAP2 SWAP1 DUP2 DUP2 MSTORE PUSH1 0x20 ADD DUP3 DUP1 SLOAD PUSH2 0x6F69 SWAP1 PUSH2 0x8884 JUMP JUMPDEST DUP1 ISZERO PUSH2 0x6FB6 JUMPI DUP1 PUSH1 0x1F LT PUSH2 0x6F8B JUMPI PUSH2 0x100 DUP1 DUP4 SLOAD DIV MUL DUP4 MSTORE SWAP2 PUSH1 0x20 ADD SWAP2 PUSH2 0x6FB6 JUMP JUMPDEST DUP3 ADD SWAP2 SWAP1 PUSH1 0x0 MSTORE PUSH1 0x20 PUSH1 0x0 KECCAK256 SWAP1 JUMPDEST DUP2 SLOAD DUP2 MSTORE SWAP1 PUSH1 0x1 ADD SWAP1 PUSH1 0x20 ADD DUP1 DUP4 GT PUSH2 0x6F99 JUMPI DUP3 SWAP1 SUB PUSH1 0x1F AND DUP3 ADD SWAP2 JUMPDEST POP POP POP POP POP DUP2 MSTORE PUSH1 0x20 ADD PUSH1 0x5 DUP3 ADD DUP1 SLOAD PUSH2 0x6FCF SWAP1 PUSH2 0x8884 JUMP JUMPDEST DUP1 PUSH1 0x1F ADD PUSH1 0x20 DUP1 SWAP2 DIV MUL PUSH1 0x20 ADD PUSH1 0x40 MLOAD SWAP1 DUP2 ADD PUSH1 0x40 MSTORE DUP1 SWAP3 SWAP2 SWAP1 DUP2 DUP2 MSTORE PUSH1 0x20 ADD DUP3 DUP1 SLOAD PUSH2 0x6FFB SWAP1 PUSH2 0x8884 JUMP JUMPDEST DUP1 ISZERO PUSH2 0x7048 JUMPI DUP1 PUSH1 0x1F LT PUSH2 0x701D JUMPI PUSH2 0x100 DUP1 DUP4 SLOAD DIV MUL DUP4 MSTORE SWAP2 PUSH1 0x20 ADD SWAP2 PUSH2 0x7048 JUMP JUMPDEST DUP3 ADD SWAP2 SWAP1 PUSH1 0x0 MSTORE PUSH1 0x20 PUSH1 0x0 KECCAK256 SWAP1 JUMPDEST DUP2 SLOAD DUP2 MSTORE SWAP1 PUSH1 0x1 ADD SWAP1 PUSH1 0x20 ADD DUP1 DUP4 GT PUSH2 0x702B JUMPI DUP3 SWAP1 SUB PUSH1 0x1F AND DUP3 ADD SWAP2 JUMPDEST POP POP POP POP POP DUP2 MSTORE PUSH1 0x20 ADD PUSH1 0x6 DUP3 ADD SLOAD DUP2 MSTORE PUSH1 0x20 ADD PUSH1 0x7 DUP3 ADD PUSH1 0x0 SWAP1 SLOAD SWAP1 PUSH2 0x100 EXP SWAP1 DIV PUSH1 0xFF AND PUSH1 0x2 DUP2 GT ISZERO PUSH2 0x7080 JUMPI PUSH2 0x707F PUSH2 0x7848 JUMP JUMPDEST JUMPDEST PUSH1 0x2 DUP2 GT ISZERO PUSH2 0x7092 JUMPI PUSH2 0x7091 PUSH2 0x7848 JUMP JUMPDEST JUMPDEST DUP2 MSTORE PUSH1 0x20 ADD PUSH1 0x7 DUP3 ADD PUSH1 0x1 SWAP1 SLOAD SWAP1 PUSH2 0x100 EXP SWAP1 DIV PUSH1 0xFF AND PUSH1 0x2 DUP2 GT ISZERO PUSH2 0x70BB JUMPI PUSH2 0x70BA PUSH2 0x7848 JUMP JUMPDEST JUMPDEST PUSH1 0x2 DUP2 GT ISZERO PUSH2 0x70CD JUMPI PUSH2 0x70CC PUSH2 0x7848 JUMP JUMPDEST JUMPDEST DUP2 MSTORE PUSH1 0x20 ADD PUSH1 0x8 DUP3 ADD DUP1 SLOAD PUSH2 0x70E1 SWAP1 PUSH2 0x8884 JUMP JUMPDEST DUP1 PUSH1 0x1F ADD PUSH1 0x20 DUP1 SWAP2 DIV MUL PUSH1 0x20 ADD PUSH1 0x40 MLOAD SWAP1 DUP2 ADD PUSH1 0x40 MSTORE DUP1 SWAP3 SWAP2 SWAP1 DUP2 DUP2 MSTORE PUSH1 0x20 ADD DUP3 DUP1 SLOAD PUSH2 0x710D SWAP1 PUSH2 0x8884 JUMP JUMPDEST DUP1 ISZERO PUSH2 0x715A JUMPI DUP1 PUSH1 0x1F LT PUSH2 0x712F JUMPI PUSH2 0x100 DUP1 DUP4 SLOAD DIV MUL DUP4 MSTORE SWAP2 PUSH1 0x20 ADD SWAP2 PUSH2 0x715A JUMP JUMPDEST DUP3 ADD SWAP2 SWAP1 PUSH1 0x0 MSTORE PUSH1 0x20 PUSH1 0x0 KECCAK256 SWAP1 JUMPDEST DUP2 SLOAD DUP2 MSTORE SWAP1 PUSH1 0x1 ADD SWAP1 PUSH1 0x20 ADD DUP1 DUP4 GT PUSH2 0x713D JUMPI DUP3 SWAP1 SUB PUSH1 0x1F AND DUP3 ADD SWAP2 JUMPDEST POP POP POP POP POP DUP2 MSTORE POP POP DUP3 DUP3 DUP2 MLOAD DUP2 LT PUSH2 0x7176 JUMPI PUSH2 0x7175 PUSH2 0x8F17 JUMP JUMPDEST JUMPDEST PUSH1 0x20 MUL PUSH1 0x20 ADD ADD DUP2 SWAP1 MSTORE POP DUP1 DUP1 PUSH2 0x718C SWAP1 PUSH2 0x8F75 JUMP JUMPDEST SWAP2 POP POP PUSH2 0x6BFA JUMP JUMPDEST POP DUP5 DUP2 SWAP7 POP SWAP7 POP POP POP POP POP POP SWAP3 POP SWAP3 SWAP1 POP JUMP JUMPDEST PUSH1 0x0 PUSH20 0xFFFFFFFFFFFFFFFFFFFFFFFFFFFFFFFFFFFFFFFF AND DUP2 PUSH20 0xFFFFFFFFFFFFFFFFFFFFFFFFFFFFFFFFFFFFFFFF AND SUB PUSH2 0x7216 JUMPI PUSH1 0x40 MLOAD PUSH32 0x8C379A000000000000000000000000000000000000000000000000000000000 DUP2 MSTORE PUSH1 0x4 ADD PUSH2 0x720D SWAP1 PUSH2 0x896D JUMP JUMPDEST PUSH1 0x40 MLOAD DUP1 SWAP2 SUB SWAP1 REVERT JUMPDEST PUSH1 0x3 PUSH1 0x0 DUP3 PUSH20 0xFFFFFFFFFFFFFFFFFFFFFFFFFFFFFFFFFFFFFFFF AND PUSH20 0xFFFFFFFFFFFFFFFFFFFFFFFFFFFFFFFFFFFFFFFF AND DUP2 MSTORE PUSH1 0x20 ADD SWAP1 DUP2 MSTORE PUSH1 0x20 ADD PUSH1 0x0 KECCAK256 PUSH1 0x4 ADD PUSH1 0x0 DUP2 DUP2 SWAP1 SLOAD SWAP1 PUSH2 0x100 EXP SWAP1 DIV PUSH2 0xFFFF AND DUP1 SWAP3 SWAP2 SWAP1 PUSH2 0x7276 SWAP1 PUSH2 0x968E JUMP JUMPDEST SWAP2 SWAP1 PUSH2 0x100 EXP DUP2 SLOAD DUP2 PUSH2 0xFFFF MUL NOT AND SWAP1 DUP4 PUSH2 0xFFFF AND MUL OR SWAP1 SSTORE POP POP POP JUMP JUMPDEST PUSH1 0x0 PUSH20 0xFFFFFFFFFFFFFFFFFFFFFFFFFFFFFFFFFFFFFFFF AND DUP2 PUSH20 0xFFFFFFFFFFFFFFFFFFFFFFFFFFFFFFFFFFFFFFFF AND SUB PUSH2 0x7303 JUMPI PUSH1 0x40 MLOAD PUSH32 0x8C379A000000000000000000000000000000000000000000000000000000000 DUP2 MSTORE PUSH1 0x4 ADD PUSH2 0x72FA SWAP1 PUSH2 0x9704 JUMP JUMPDEST PUSH1 0x40 MLOAD DUP1 SWAP2 SUB SWAP1 REVERT JUMPDEST CALLER PUSH1 0x1 PUSH1 0x0 DUP4 PUSH20 0xFFFFFFFFFFFFFFFFFFFFFFFFFFFFFFFFFFFFFFFF AND PUSH20 0xFFFFFFFFFFFFFFFFFFFFFFFFFFFFFFFFFFFFFFFF AND DUP2 MSTORE PUSH1 0x20 ADD SWAP1 DUP2 MSTORE PUSH1 0x20 ADD PUSH1 0x0 KECCAK256 PUSH1 0x4 ADD PUSH1 0x0 PUSH2 0x100 EXP DUP2 SLOAD DUP2 PUSH20 0xFFFFFFFFFFFFFFFFFFFFFFFFFFFFFFFFFFFFFFFF MUL NOT AND SWAP1 DUP4 PUSH20 0xFFFFFFFFFFFFFFFFFFFFFFFFFFFFFFFFFFFFFFFF AND MUL OR SWAP1 SSTORE POP POP JUMP JUMPDEST PUSH1 0x0 DUP1 PUSH1 0x0 DUP1 PUSH1 0x0 PUSH1 0x19 DUP7 MLOAD PUSH2 0x739D SWAP2 SWAP1 PUSH2 0x9753 JUMP JUMPDEST SWAP1 POP PUSH1 0x19 DUP7 MLOAD PUSH2 0x73AD SWAP2 SWAP1 PUSH2 0x9784 JUMP JUMPDEST SWAP5 POP PUSH1 0x0 DUP2 GT ISZERO PUSH2 0x73C7 JUMPI DUP5 DUP1 PUSH2 0x73C3 SWAP1 PUSH2 0x8F75 JUMP JUMPDEST SWAP6 POP POP JUMPDEST PUSH1 0x19 SWAP4 POP PUSH1 0x1 DUP8 PUSH2 0x73D8 SWAP2 SWAP1 PUSH2 0x97B5 JUMP JUMPDEST PUSH1 0x19 PUSH2 0x73E4 SWAP2 SWAP1 PUSH2 0x97E9 JUMP JUMPDEST SWAP3 POP DUP7 PUSH1 0x19 PUSH2 0x73F3 SWAP2 SWAP1 PUSH2 0x97E9 JUMP JUMPDEST SWAP2 POP DUP5 DUP8 GT ISZERO PUSH2 0x740A JUMPI PUSH1 0x0 SWAP4 POP PUSH1 0x0 SWAP2 POP PUSH2 0x7427 JUMP JUMPDEST DUP5 DUP8 EQ DUP1 ISZERO PUSH2 0x7419 JUMPI POP PUSH1 0x0 DUP2 GT JUMPDEST ISZERO PUSH2 0x7426 JUMPI DUP1 SWAP4 POP DUP6 MLOAD SWAP2 POP JUMPDEST JUMPDEST POP SWAP3 SWAP6 SWAP2 SWAP5 POP SWAP3 POP JUMP JUMPDEST PUSH1 0x40 MLOAD DUP1 PUSH1 0xE0 ADD PUSH1 0x40 MSTORE DUP1 PUSH1 0x60 DUP2 MSTORE PUSH1 0x20 ADD PUSH1 0x60 DUP2 MSTORE PUSH1 0x20 ADD PUSH1 0x0 DUP2 MSTORE PUSH1 0x20 ADD PUSH1 0x0 PUSH20 0xFFFFFFFFFFFFFFFFFFFFFFFFFFFFFFFFFFFFFFFF AND DUP2 MSTORE PUSH1 0x20 ADD PUSH1 0x0 PUSH20 0xFFFFFFFFFFFFFFFFFFFFFFFFFFFFFFFFFFFFFFFF AND DUP2 MSTORE PUSH1 0x20 ADD PUSH1 0x60 DUP2 MSTORE PUSH1 0x20 ADD PUSH1 0x0 DUP2 MSTORE POP SWAP1 JUMP JUMPDEST PUSH1 0x40 MLOAD DUP1 PUSH1 0xC0 ADD PUSH1 0x40 MSTORE DUP1 PUSH1 0x60 DUP2 MSTORE PUSH1 0x20 ADD PUSH1 0x60 DUP2 MSTORE PUSH1 0x20 ADD PUSH1 0x0 PUSH20 0xFFFFFFFFFFFFFFFFFFFFFFFFFFFFFFFFFFFFFFFF AND DUP2 MSTORE PUSH1 0x20 ADD PUSH1 0x60 DUP2 MSTORE PUSH1 0x20 ADD PUSH1 0x0 PUSH2 0xFFFF AND DUP2 MSTORE PUSH1 0x20 ADD PUSH1 0x0 PUSH1 0x1 DUP2 GT ISZERO PUSH2 0x74F6 JUMPI PUSH2 0x74F5 PUSH2 0x7848 JUMP JUMPDEST JUMPDEST DUP2 MSTORE POP SWAP1 JUMP JUMPDEST PUSH1 0x40 MLOAD DUP1 PUSH2 0x140 ADD PUSH1 0x40 MSTORE DUP1 PUSH1 0x60 DUP2 MSTORE PUSH1 0x20 ADD PUSH1 0x0 PUSH20 0xFFFFFFFFFFFFFFFFFFFFFFFFFFFFFFFFFFFFFFFF AND DUP2 MSTORE PUSH1 0x20 ADD PUSH1 0x60 DUP2 MSTORE PUSH1 0x20 ADD PUSH1 0x0 PUSH20 0xFFFFFFFFFFFFFFFFFFFFFFFFFFFFFFFFFFFFFFFF AND DUP2 MSTORE PUSH1 0x20 ADD PUSH1 0x60 DUP2 MSTORE PUSH1 0x20 ADD PUSH1 0x60 DUP2 MSTORE PUSH1 0x20 ADD PUSH1 0x0 DUP2 MSTORE PUSH1 0x20 ADD PUSH1 0x0 PUSH1 0x2 DUP2 GT ISZERO PUSH2 0x7579 JUMPI PUSH2 0x7578 PUSH2 0x7848 JUMP JUMPDEST JUMPDEST DUP2 MSTORE PUSH1 0x20 ADD PUSH1 0x0 PUSH1 0x2 DUP2 GT ISZERO PUSH2 0x7592 JUMPI PUSH2 0x7591 PUSH2 0x7848 JUMP JUMPDEST JUMPDEST DUP2 MSTORE PUSH1 0x20 ADD PUSH1 0x60 DUP2 MSTORE POP SWAP1 JUMP JUMPDEST PUSH1 0x40 MLOAD DUP1 PUSH1 0xA0 ADD PUSH1 0x40 MSTORE DUP1 PUSH1 0x60 DUP2 MSTORE PUSH1 0x20 ADD PUSH1 0x60 DUP2 MSTORE PUSH1 0x20 ADD PUSH1 0x0 PUSH20 0xFFFFFFFFFFFFFFFFFFFFFFFFFFFFFFFFFFFFFFFF AND DUP2 MSTORE PUSH1 0x20 ADD PUSH1 0x0 PUSH1 0x2 DUP2 GT ISZERO PUSH2 0x75E9 JUMPI PUSH2 0x75E8 PUSH2 0x7848 JUMP JUMPDEST JUMPDEST DUP2 MSTORE PUSH1 0x20 ADD PUSH1 0x0 PUSH1 0x1 DUP2 GT ISZERO PUSH2 0x7602 JUMPI PUSH2 0x7601 PUSH2 0x7848 JUMP JUMPDEST JUMPDEST DUP2 MSTORE POP SWAP1 JUMP JUMPDEST PUSH1 0x0 PUSH1 0x40 MLOAD SWAP1 POP SWAP1 JUMP JUMPDEST PUSH1 0x0 DUP1 REVERT JUMPDEST PUSH1 0x0 DUP1 REVERT JUMPDEST PUSH1 0x0 PUSH20 0xFFFFFFFFFFFFFFFFFFFFFFFFFFFFFFFFFFFFFFFF DUP3 AND SWAP1 POP SWAP2 SWAP1 POP JUMP JUMPDEST PUSH1 0x0 PUSH2 0x7647 DUP3 PUSH2 0x761C JUMP JUMPDEST SWAP1 POP SWAP2 SWAP1 POP JUMP JUMPDEST PUSH2 0x7657 DUP2 PUSH2 0x763C JUMP JUMPDEST DUP2 EQ PUSH2 0x7662 JUMPI PUSH1 0x0 DUP1 REVERT JUMPDEST POP JUMP JUMPDEST PUSH1 0x0 DUP2 CALLDATALOAD SWAP1 POP PUSH2 0x7674 DUP2 PUSH2 0x764E JUMP JUMPDEST SWAP3 SWAP2 POP POP JUMP JUMPDEST PUSH1 0x0 PUSH1 0x20 DUP3 DUP5 SUB SLT ISZERO PUSH2 0x7690 JUMPI PUSH2 0x768F PUSH2 0x7612 JUMP JUMPDEST JUMPDEST PUSH1 0x0 PUSH2 0x769E DUP5 DUP3 DUP6 ADD PUSH2 0x7665 JUMP JUMPDEST SWAP2 POP POP SWAP3 SWAP2 POP POP JUMP JUMPDEST PUSH1 0x0 DUP2 MLOAD SWAP1 POP SWAP2 SWAP1 POP JUMP JUMPDEST PUSH1 0x0 DUP3 DUP3 MSTORE PUSH1 0x20 DUP3 ADD SWAP1 POP SWAP3 SWAP2 POP POP JUMP JUMPDEST PUSH1 0x0 JUMPDEST DUP4 DUP2 LT ISZERO PUSH2 0x76E1 JUMPI DUP1 DUP3 ADD MLOAD DUP2 DUP5 ADD MSTORE PUSH1 0x20 DUP2 ADD SWAP1 POP PUSH2 0x76C6 JUMP JUMPDEST PUSH1 0x0 DUP5 DUP5 ADD MSTORE POP POP POP POP JUMP JUMPDEST PUSH1 0x0 PUSH1 0x1F NOT PUSH1 0x1F DUP4 ADD AND SWAP1 POP SWAP2 SWAP1 POP JUMP JUMPDEST PUSH1 0x0 PUSH2 0x7709 DUP3 PUSH2 0x76A7 JUMP JUMPDEST PUSH2 0x7713 DUP2 DUP6 PUSH2 0x76B2 JUMP JUMPDEST SWAP4 POP PUSH2 0x7723 DUP2 DUP6 PUSH1 0x20 DUP7 ADD PUSH2 0x76C3 JUMP JUMPDEST PUSH2 0x772C DUP2 PUSH2 0x76ED JUMP JUMPDEST DUP5 ADD SWAP2 POP POP SWAP3 SWAP2 POP POP JUMP JUMPDEST PUSH1 0x0 DUP2 SWAP1 POP SWAP2 SWAP1 POP JUMP JUMPDEST PUSH2 0x774A DUP2 PUSH2 0x7737 JUMP JUMPDEST DUP3 MSTORE POP POP JUMP JUMPDEST PUSH2 0x7759 DUP2 PUSH2 0x763C JUMP JUMPDEST DUP3 MSTORE POP POP JUMP JUMPDEST PUSH1 0x0 PUSH1 0xE0 DUP4 ADD PUSH1 0x0 DUP4 ADD MLOAD DUP5 DUP3 SUB PUSH1 0x0 DUP7 ADD MSTORE PUSH2 0x777C DUP3 DUP3 PUSH2 0x76FE JUMP JUMPDEST SWAP2 POP POP PUSH1 0x20 DUP4 ADD MLOAD DUP5 DUP3 SUB PUSH1 0x20 DUP7 ADD MSTORE PUSH2 0x7796 DUP3 DUP3 PUSH2 0x76FE JUMP JUMPDEST SWAP2 POP POP PUSH1 0x40 DUP4 ADD MLOAD PUSH2 0x77AB PUSH1 0x40 DUP7 ADD DUP3 PUSH2 0x7741 JUMP JUMPDEST POP PUSH1 0x60 DUP4 ADD MLOAD PUSH2 0x77BE PUSH1 0x60 DUP7 ADD DUP3 PUSH2 0x7750 JUMP JUMPDEST POP PUSH1 0x80 DUP4 ADD MLOAD PUSH2 0x77D1 PUSH1 0x80 DUP7 ADD DUP3 PUSH2 0x7750 JUMP JUMPDEST POP PUSH1 0xA0 DUP4 ADD MLOAD DUP5 DUP3 SUB PUSH1 0xA0 DUP7 ADD MSTORE PUSH2 0x77E9 DUP3 DUP3 PUSH2 0x76FE JUMP JUMPDEST SWAP2 POP POP PUSH1 0xC0 DUP4 ADD MLOAD PUSH2 0x77FE PUSH1 0xC0 DUP7 ADD DUP3 PUSH2 0x7741 JUMP JUMPDEST POP DUP1 SWAP2 POP POP SWAP3 SWAP2 POP POP JUMP JUMPDEST PUSH1 0x0 PUSH1 0x20 DUP3 ADD SWAP1 POP DUP2 DUP2 SUB PUSH1 0x0 DUP4 ADD MSTORE PUSH2 0x7823 DUP2 DUP5 PUSH2 0x775F JUMP JUMPDEST SWAP1 POP SWAP3 SWAP2 POP POP JUMP JUMPDEST PUSH1 0x0 PUSH2 0xFFFF DUP3 AND SWAP1 POP SWAP2 SWAP1 POP JUMP JUMPDEST PUSH2 0x7842 DUP2 PUSH2 0x782B JUMP JUMPDEST DUP3 MSTORE POP POP JUMP JUMPDEST PUSH32 0x4E487B7100000000000000000000000000000000000000000000000000000000 PUSH1 0x0 MSTORE PUSH1 0x21 PUSH1 0x4 MSTORE PUSH1 0x24 PUSH1 0x0 REVERT JUMPDEST PUSH1 0x2 DUP2 LT PUSH2 0x7888 JUMPI PUSH2 0x7887 PUSH2 0x7848 JUMP JUMPDEST JUMPDEST POP JUMP JUMPDEST PUSH1 0x0 DUP2 SWAP1 POP PUSH2 0x7899 DUP3 PUSH2 0x7877 JUMP JUMPDEST SWAP2 SWAP1 POP JUMP JUMPDEST PUSH1 0x0 PUSH2 0x78A9 DUP3 PUSH2 0x788B JUMP JUMPDEST SWAP1 POP SWAP2 SWAP1 POP JUMP JUMPDEST PUSH2 0x78B9 DUP2 PUSH2 0x789E JUMP JUMPDEST DUP3 MSTORE POP POP JUMP JUMPDEST PUSH1 0x0 PUSH1 0xC0 DUP4 ADD PUSH1 0x0 DUP4 ADD MLOAD DUP5 DUP3 SUB PUSH1 0x0 DUP7 ADD MSTORE PUSH2 0x78DC DUP3 DUP3 PUSH2 0x76FE JUMP JUMPDEST SWAP2 POP POP PUSH1 0x20 DUP4 ADD MLOAD DUP5 DUP3 SUB PUSH1 0x20 DUP7 ADD MSTORE PUSH2 0x78F6 DUP3 DUP3 PUSH2 0x76FE JUMP JUMPDEST SWAP2 POP POP PUSH1 0x40 DUP4 ADD MLOAD PUSH2 0x790B PUSH1 0x40 DUP7 ADD DUP3 PUSH2 0x7750 JUMP JUMPDEST POP PUSH1 0x60 DUP4 ADD MLOAD DUP5 DUP3 SUB PUSH1 0x60 DUP7 ADD MSTORE PUSH2 0x7923 DUP3 DUP3 PUSH2 0x76FE JUMP JUMPDEST SWAP2 POP POP PUSH1 0x80 DUP4 ADD MLOAD PUSH2 0x7938 PUSH1 0x80 DUP7 ADD DUP3 PUSH2 0x7839 JUMP JUMPDEST POP PUSH1 0xA0 DUP4 ADD MLOAD PUSH2 0x794B PUSH1 0xA0 DUP7 ADD DUP3 PUSH2 0x78B0 JUMP JUMPDEST POP DUP1 SWAP2 POP POP SWAP3 SWAP2 POP POP JUMP JUMPDEST PUSH1 0x0 PUSH1 0x20 DUP3 ADD SWAP1 POP DUP2 DUP2 SUB PUSH1 0x0 DUP4 ADD MSTORE PUSH2 0x7970 DUP2 DUP5 PUSH2 0x78BF JUMP JUMPDEST SWAP1 POP SWAP3 SWAP2 POP POP JUMP JUMPDEST PUSH1 0x0 DUP1 REVERT JUMPDEST PUSH1 0x0 DUP1 REVERT JUMPDEST PUSH32 0x4E487B7100000000000000000000000000000000000000000000000000000000 PUSH1 0x0 MSTORE PUSH1 0x41 PUSH1 0x4 MSTORE PUSH1 0x24 PUSH1 0x0 REVERT JUMPDEST PUSH2 0x79BA DUP3 PUSH2 0x76ED JUMP JUMPDEST DUP2 ADD DUP2 DUP2 LT PUSH8 0xFFFFFFFFFFFFFFFF DUP3 GT OR ISZERO PUSH2 0x79D9 JUMPI PUSH2 0x79D8 PUSH2 0x7982 JUMP JUMPDEST JUMPDEST DUP1 PUSH1 0x40 MSTORE POP POP POP JUMP JUMPDEST PUSH1 0x0 PUSH2 0x79EC PUSH2 0x7608 JUMP JUMPDEST SWAP1 POP PUSH2 0x79F8 DUP3 DUP3 PUSH2 0x79B1 JUMP JUMPDEST SWAP2 SWAP1 POP JUMP JUMPDEST PUSH1 0x0 PUSH8 0xFFFFFFFFFFFFFFFF DUP3 GT ISZERO PUSH2 0x7A18 JUMPI PUSH2 0x7A17 PUSH2 0x7982 JUMP JUMPDEST JUMPDEST PUSH2 0x7A21 DUP3 PUSH2 0x76ED JUMP JUMPDEST SWAP1 POP PUSH1 0x20 DUP2 ADD SWAP1 POP SWAP2 SWAP1 POP JUMP JUMPDEST DUP3 DUP2 DUP4 CALLDATACOPY PUSH1 0x0 DUP4 DUP4 ADD MSTORE POP POP POP JUMP JUMPDEST PUSH1 0x0 PUSH2 0x7A50 PUSH2 0x7A4B DUP5 PUSH2 0x79FD JUMP JUMPDEST PUSH2 0x79E2 JUMP JUMPDEST SWAP1 POP DUP3 DUP2 MSTORE PUSH1 0x20 DUP2 ADD DUP5 DUP5 DUP5 ADD GT ISZERO PUSH2 0x7A6C JUMPI PUSH2 0x7A6B PUSH2 0x797D JUMP JUMPDEST JUMPDEST PUSH2 0x7A77 DUP5 DUP3 DUP6 PUSH2 0x7A2E JUMP JUMPDEST POP SWAP4 SWAP3 POP POP POP JUMP JUMPDEST PUSH1 0x0 DUP3 PUSH1 0x1F DUP4 ADD SLT PUSH2 0x7A94 JUMPI PUSH2 0x7A93 PUSH2 0x7978 JUMP JUMPDEST JUMPDEST DUP2 CALLDATALOAD PUSH2 0x7AA4 DUP5 DUP3 PUSH1 0x20 DUP7 ADD PUSH2 0x7A3D JUMP JUMPDEST SWAP2 POP POP SWAP3 SWAP2 POP POP JUMP JUMPDEST PUSH1 0x0 DUP1 PUSH1 0x40 DUP4 DUP6 SUB SLT ISZERO PUSH2 0x7AC4 JUMPI PUSH2 0x7AC3 PUSH2 0x7612 JUMP JUMPDEST JUMPDEST PUSH1 0x0 PUSH2 0x7AD2 DUP6 DUP3 DUP7 ADD PUSH2 0x7665 JUMP JUMPDEST SWAP3 POP POP PUSH1 0x20 DUP4 ADD CALLDATALOAD PUSH8 0xFFFFFFFFFFFFFFFF DUP2 GT ISZERO PUSH2 0x7AF3 JUMPI PUSH2 0x7AF2 PUSH2 0x7617 JUMP JUMPDEST JUMPDEST PUSH2 0x7AFF DUP6 DUP3 DUP7 ADD PUSH2 0x7A7F JUMP JUMPDEST SWAP2 POP POP SWAP3 POP SWAP3 SWAP1 POP JUMP JUMPDEST PUSH1 0x0 DUP1 REVERT JUMPDEST PUSH1 0x0 DUP1 REVERT JUMPDEST PUSH2 0x7B1C DUP2 PUSH2 0x782B JUMP JUMPDEST DUP2 EQ PUSH2 0x7B27 JUMPI PUSH1 0x0 DUP1 REVERT JUMPDEST POP JUMP JUMPDEST PUSH1 0x0 DUP2 CALLDATALOAD SWAP1 POP PUSH2 0x7B39 DUP2 PUSH2 0x7B13 JUMP JUMPDEST SWAP3 SWAP2 POP POP JUMP JUMPDEST PUSH1 0x2 DUP2 LT PUSH2 0x7B4C JUMPI PUSH1 0x0 DUP1 REVERT JUMPDEST POP JUMP JUMPDEST PUSH1 0x0 DUP2 CALLDATALOAD SWAP1 POP PUSH2 0x7B5E DUP2 PUSH2 0x7B3F JUMP JUMPDEST SWAP3 SWAP2 POP POP JUMP JUMPDEST PUSH1 0x0 PUSH1 0xC0 DUP3 DUP5 SUB SLT ISZERO PUSH2 0x7B7A JUMPI PUSH2 0x7B79 PUSH2 0x7B09 JUMP JUMPDEST JUMPDEST PUSH2 0x7B84 PUSH1 0xC0 PUSH2 0x79E2 JUMP JUMPDEST SWAP1 POP PUSH1 0x0 DUP3 ADD CALLDATALOAD PUSH8 0xFFFFFFFFFFFFFFFF DUP2 GT ISZERO PUSH2 0x7BA4 JUMPI PUSH2 0x7BA3 PUSH2 0x7B0E JUMP JUMPDEST JUMPDEST PUSH2 0x7BB0 DUP5 DUP3 DUP6 ADD PUSH2 0x7A7F JUMP JUMPDEST PUSH1 0x0 DUP4 ADD MSTORE POP PUSH1 0x20 DUP3 ADD CALLDATALOAD PUSH8 0xFFFFFFFFFFFFFFFF DUP2 GT ISZERO PUSH2 0x7BD4 JUMPI PUSH2 0x7BD3 PUSH2 0x7B0E JUMP JUMPDEST JUMPDEST PUSH2 0x7BE0 DUP5 DUP3 DUP6 ADD PUSH2 0x7A7F JUMP JUMPDEST PUSH1 0x20 DUP4 ADD MSTORE POP PUSH1 0x40 PUSH2 0x7BF4 DUP5 DUP3 DUP6 ADD PUSH2 0x7665 JUMP JUMPDEST PUSH1 0x40 DUP4 ADD MSTORE POP PUSH1 0x60 DUP3 ADD CALLDATALOAD PUSH8 0xFFFFFFFFFFFFFFFF DUP2 GT ISZERO PUSH2 0x7C18 JUMPI PUSH2 0x7C17 PUSH2 0x7B0E JUMP JUMPDEST JUMPDEST PUSH2 0x7C24 DUP5 DUP3 DUP6 ADD PUSH2 0x7A7F JUMP JUMPDEST PUSH1 0x60 DUP4 ADD MSTORE POP PUSH1 0x80 PUSH2 0x7C38 DUP5 DUP3 DUP6 ADD PUSH2 0x7B2A JUMP JUMPDEST PUSH1 0x80 DUP4 ADD MSTORE POP PUSH1 0xA0 PUSH2 0x7C4C DUP5 DUP3 DUP6 ADD PUSH2 0x7B4F JUMP JUMPDEST PUSH1 0xA0 DUP4 ADD MSTORE POP SWAP3 SWAP2 POP POP JUMP JUMPDEST PUSH1 0x0 PUSH1 0x20 DUP3 DUP5 SUB SLT ISZERO PUSH2 0x7C6E JUMPI PUSH2 0x7C6D PUSH2 0x7612 JUMP JUMPDEST JUMPDEST PUSH1 0x0 DUP3 ADD CALLDATALOAD PUSH8 0xFFFFFFFFFFFFFFFF DUP2 GT ISZERO PUSH2 0x7C8C JUMPI PUSH2 0x7C8B PUSH2 0x7617 JUMP JUMPDEST JUMPDEST PUSH2 0x7C98 DUP5 DUP3 DUP6 ADD PUSH2 0x7B64 JUMP JUMPDEST SWAP2 POP POP SWAP3 SWAP2 POP POP JUMP JUMPDEST PUSH1 0x0 DUP2 ISZERO ISZERO SWAP1 POP SWAP2 SWAP1 POP JUMP JUMPDEST PUSH2 0x7CB6 DUP2 PUSH2 0x7CA1 JUMP JUMPDEST DUP3 MSTORE POP POP JUMP JUMPDEST PUSH1 0x3 DUP2 LT PUSH2 0x7CCD JUMPI PUSH2 0x7CCC PUSH2 0x7848 JUMP JUMPDEST JUMPDEST POP JUMP JUMPDEST PUSH1 0x0 DUP2 SWAP1 POP PUSH2 0x7CDE DUP3 PUSH2 0x7CBC JUMP JUMPDEST SWAP2 SWAP1 POP JUMP JUMPDEST PUSH1 0x0 PUSH2 0x7CEE DUP3 PUSH2 0x7CD0 JUMP JUMPDEST SWAP1 POP SWAP2 SWAP1 POP JUMP JUMPDEST PUSH2 0x7CFE DUP2 PUSH2 0x7CE3 JUMP JUMPDEST DUP3 MSTORE POP POP JUMP JUMPDEST PUSH1 0x3 DUP2 LT PUSH2 0x7D15 JUMPI PUSH2 0x7D14 PUSH2 0x7848 JUMP JUMPDEST JUMPDEST POP JUMP JUMPDEST PUSH1 0x0 DUP2 SWAP1 POP PUSH2 0x7D26 DUP3 PUSH2 0x7D04 JUMP JUMPDEST SWAP2 SWAP1 POP JUMP JUMPDEST PUSH1 0x0 PUSH2 0x7D36 DUP3 PUSH2 0x7D18 JUMP JUMPDEST SWAP1 POP SWAP2 SWAP1 POP JUMP JUMPDEST PUSH2 0x7D46 DUP2 PUSH2 0x7D2B JUMP JUMPDEST DUP3 MSTORE POP POP JUMP JUMPDEST PUSH1 0x0 PUSH2 0x140 DUP4 ADD PUSH1 0x0 DUP4 ADD MLOAD DUP5 DUP3 SUB PUSH1 0x0 DUP7 ADD MSTORE PUSH2 0x7D6A DUP3 DUP3 PUSH2 0x76FE JUMP JUMPDEST SWAP2 POP POP PUSH1 0x20 DUP4 ADD MLOAD PUSH2 0x7D7F PUSH1 0x20 DUP7 ADD DUP3 PUSH2 0x7750 JUMP JUMPDEST POP PUSH1 0x40 DUP4 ADD MLOAD DUP5 DUP3 SUB PUSH1 0x40 DUP7 ADD MSTORE PUSH2 0x7D97 DUP3 DUP3 PUSH2 0x76FE JUMP JUMPDEST SWAP2 POP POP PUSH1 0x60 DUP4 ADD MLOAD PUSH2 0x7DAC PUSH1 0x60 DUP7 ADD DUP3 PUSH2 0x7750 JUMP JUMPDEST POP PUSH1 0x80 DUP4 ADD MLOAD DUP5 DUP3 SUB PUSH1 0x80 DUP7 ADD MSTORE PUSH2 0x7DC4 DUP3 DUP3 PUSH2 0x76FE JUMP JUMPDEST SWAP2 POP POP PUSH1 0xA0 DUP4 ADD MLOAD DUP5 DUP3 SUB PUSH1 0xA0 DUP7 ADD MSTORE PUSH2 0x7DDE DUP3 DUP3 PUSH2 0x76FE JUMP JUMPDEST SWAP2 POP POP PUSH1 0xC0 DUP4 ADD MLOAD PUSH2 0x7DF3 PUSH1 0xC0 DUP7 ADD DUP3 PUSH2 0x7741 JUMP JUMPDEST POP PUSH1 0xE0 DUP4 ADD MLOAD PUSH2 0x7E06 PUSH1 0xE0 DUP7 ADD DUP3 PUSH2 0x7CF5 JUMP JUMPDEST POP PUSH2 0x100 DUP4 ADD MLOAD PUSH2 0x7E1B PUSH2 0x100 DUP7 ADD DUP3 PUSH2 0x7D3D JUMP JUMPDEST POP PUSH2 0x120 DUP4 ADD MLOAD DUP5 DUP3 SUB PUSH2 0x120 DUP7 ADD MSTORE PUSH2 0x7E35 DUP3 DUP3 PUSH2 0x76FE JUMP JUMPDEST SWAP2 POP POP DUP1 SWAP2 POP POP SWAP3 SWAP2 POP POP JUMP JUMPDEST PUSH1 0x0 PUSH1 0x60 DUP3 ADD SWAP1 POP PUSH2 0x7E57 PUSH1 0x0 DUP4 ADD DUP7 PUSH2 0x7CAD JUMP JUMPDEST DUP2 DUP2 SUB PUSH1 0x20 DUP4 ADD MSTORE PUSH2 0x7E69 DUP2 DUP6 PUSH2 0x78BF JUMP JUMPDEST SWAP1 POP DUP2 DUP2 SUB PUSH1 0x40 DUP4 ADD MSTORE PUSH2 0x7E7D DUP2 DUP5 PUSH2 0x7D4C JUMP JUMPDEST SWAP1 POP SWAP5 SWAP4 POP POP POP POP JUMP JUMPDEST PUSH2 0x7E90 DUP2 PUSH2 0x7CA1 JUMP JUMPDEST DUP2 EQ PUSH2 0x7E9B JUMPI PUSH1 0x0 DUP1 REVERT JUMPDEST POP JUMP JUMPDEST PUSH1 0x0 DUP2 CALLDATALOAD SWAP1 POP PUSH2 0x7EAD DUP2 PUSH2 0x7E87 JUMP JUMPDEST SWAP3 SWAP2 POP POP JUMP JUMPDEST PUSH1 0x0 DUP1 PUSH1 0x0 PUSH1 0x60 DUP5 DUP7 SUB SLT ISZERO PUSH2 0x7ECC JUMPI PUSH2 0x7ECB PUSH2 0x7612 JUMP JUMPDEST JUMPDEST PUSH1 0x0 PUSH2 0x7EDA DUP7 DUP3 DUP8 ADD PUSH2 0x7665 JUMP JUMPDEST SWAP4 POP POP PUSH1 0x20 PUSH2 0x7EEB DUP7 DUP3 DUP8 ADD PUSH2 0x7E9E JUMP JUMPDEST SWAP3 POP POP PUSH1 0x40 DUP5 ADD CALLDATALOAD PUSH8 0xFFFFFFFFFFFFFFFF DUP2 GT ISZERO PUSH2 0x7F0C JUMPI PUSH2 0x7F0B PUSH2 0x7617 JUMP JUMPDEST JUMPDEST PUSH2 0x7F18 DUP7 DUP3 DUP8 ADD PUSH2 0x7A7F JUMP JUMPDEST SWAP2 POP POP SWAP3 POP SWAP3 POP SWAP3 JUMP JUMPDEST PUSH1 0x0 DUP1 PUSH1 0x0 PUSH1 0x60 DUP5 DUP7 SUB SLT ISZERO PUSH2 0x7F3B JUMPI PUSH2 0x7F3A PUSH2 0x7612 JUMP JUMPDEST JUMPDEST PUSH1 0x0 PUSH2 0x7F49 DUP7 DUP3 DUP8 ADD PUSH2 0x7665 JUMP JUMPDEST SWAP4 POP POP PUSH1 0x20 DUP5 ADD CALLDATALOAD PUSH8 0xFFFFFFFFFFFFFFFF DUP2 GT ISZERO PUSH2 0x7F6A JUMPI PUSH2 0x7F69 PUSH2 0x7617 JUMP JUMPDEST JUMPDEST PUSH2 0x7F76 DUP7 DUP3 DUP8 ADD PUSH2 0x7A7F JUMP JUMPDEST SWAP3 POP POP PUSH1 0x40 DUP5 ADD CALLDATALOAD PUSH8 0xFFFFFFFFFFFFFFFF DUP2 GT ISZERO PUSH2 0x7F97 JUMPI PUSH2 0x7F96 PUSH2 0x7617 JUMP JUMPDEST JUMPDEST PUSH2 0x7FA3 DUP7 DUP3 DUP8 ADD PUSH2 0x7A7F JUMP JUMPDEST SWAP2 POP POP SWAP3 POP SWAP3 POP SWAP3 JUMP JUMPDEST PUSH2 0x7FB6 DUP2 PUSH2 0x7737 JUMP JUMPDEST DUP2 EQ PUSH2 0x7FC1 JUMPI PUSH1 0x0 DUP1 REVERT JUMPDEST POP JUMP JUMPDEST PUSH1 0x0 DUP2 CALLDATALOAD SWAP1 POP PUSH2 0x7FD3 DUP2 PUSH2 0x7FAD JUMP JUMPDEST SWAP3 SWAP2 POP POP JUMP JUMPDEST PUSH1 0x0 PUSH1 0x20 DUP3 DUP5 SUB SLT ISZERO PUSH2 0x7FEF JUMPI PUSH2 0x7FEE PUSH2 0x7612 JUMP JUMPDEST JUMPDEST PUSH1 0x0 PUSH2 0x7FFD DUP5 DUP3 DUP6 ADD PUSH2 0x7FC4 JUMP JUMPDEST SWAP2 POP POP SWAP3 SWAP2 POP POP JUMP JUMPDEST PUSH2 0x800F DUP2 PUSH2 0x7737 JUMP JUMPDEST DUP3 MSTORE POP POP JUMP JUMPDEST PUSH1 0x0 DUP2 MLOAD SWAP1 POP SWAP2 SWAP1 POP JUMP JUMPDEST PUSH1 0x0 DUP3 DUP3 MSTORE PUSH1 0x20 DUP3 ADD SWAP1 POP SWAP3 SWAP2 POP POP JUMP JUMPDEST PUSH1 0x0 DUP2 SWAP1 POP PUSH1 0x20 DUP3 ADD SWAP1 POP SWAP2 SWAP1 POP JUMP JUMPDEST PUSH1 0x0 PUSH1 0xC0 DUP4 ADD PUSH1 0x0 DUP4 ADD MLOAD DUP5 DUP3 SUB PUSH1 0x0 DUP7 ADD MSTORE PUSH2 0x805E DUP3 DUP3 PUSH2 0x76FE JUMP JUMPDEST SWAP2 POP POP PUSH1 0x20 DUP4 ADD MLOAD DUP5 DUP3 SUB PUSH1 0x20 DUP7 ADD MSTORE PUSH2 0x8078 DUP3 DUP3 PUSH2 0x76FE JUMP JUMPDEST SWAP2 POP POP PUSH1 0x40 DUP4 ADD MLOAD PUSH2 0x808D PUSH1 0x40 DUP7 ADD DUP3 PUSH2 0x7750 JUMP JUMPDEST POP PUSH1 0x60 DUP4 ADD MLOAD DUP5 DUP3 SUB PUSH1 0x60 DUP7 ADD MSTORE PUSH2 0x80A5 DUP3 DUP3 PUSH2 0x76FE JUMP JUMPDEST SWAP2 POP POP PUSH1 0x80 DUP4 ADD MLOAD PUSH2 0x80BA PUSH1 0x80 DUP7 ADD DUP3 PUSH2 0x7839 JUMP JUMPDEST POP PUSH1 0xA0 DUP4 ADD MLOAD PUSH2 0x80CD PUSH1 0xA0 DUP7 ADD DUP3 PUSH2 0x78B0 JUMP JUMPDEST POP DUP1 SWAP2 POP POP SWAP3 SWAP2 POP POP JUMP JUMPDEST PUSH1 0x0 PUSH2 0x80E4 DUP4 DUP4 PUSH2 0x8041 JUMP JUMPDEST SWAP1 POP SWAP3 SWAP2 POP POP JUMP JUMPDEST PUSH1 0x0 PUSH1 0x20 DUP3 ADD SWAP1 POP SWAP2 SWAP1 POP JUMP JUMPDEST PUSH1 0x0 PUSH2 0x8104 DUP3 PUSH2 0x8015 JUMP JUMPDEST PUSH2 0x810E DUP2 DUP6 PUSH2 0x8020 JUMP JUMPDEST SWAP4 POP DUP4 PUSH1 0x20 DUP3 MUL DUP6 ADD PUSH2 0x8120 DUP6 PUSH2 0x8031 JUMP JUMPDEST DUP1 PUSH1 0x0 JUMPDEST DUP6 DUP2 LT ISZERO PUSH2 0x815C JUMPI DUP5 DUP5 SUB DUP10 MSTORE DUP2 MLOAD PUSH2 0x813D DUP6 DUP3 PUSH2 0x80D8 JUMP JUMPDEST SWAP5 POP PUSH2 0x8148 DUP4 PUSH2 0x80EC JUMP JUMPDEST SWAP3 POP PUSH1 0x20 DUP11 ADD SWAP10 POP POP PUSH1 0x1 DUP2 ADD SWAP1 POP PUSH2 0x8124 JUMP JUMPDEST POP DUP3 SWAP8 POP DUP8 SWAP6 POP POP POP POP POP POP SWAP3 SWAP2 POP POP JUMP JUMPDEST PUSH1 0x0 PUSH1 0x40 DUP3 ADD SWAP1 POP PUSH2 0x8183 PUSH1 0x0 DUP4 ADD DUP6 PUSH2 0x8006 JUMP JUMPDEST DUP2 DUP2 SUB PUSH1 0x20 DUP4 ADD MSTORE PUSH2 0x8195 DUP2 DUP5 PUSH2 0x80F9 JUMP JUMPDEST SWAP1 POP SWAP4 SWAP3 POP POP POP JUMP JUMPDEST PUSH1 0x0 PUSH1 0x60 DUP3 ADD SWAP1 POP PUSH2 0x81B3 PUSH1 0x0 DUP4 ADD DUP7 PUSH2 0x7CAD JUMP JUMPDEST DUP2 DUP2 SUB PUSH1 0x20 DUP4 ADD MSTORE PUSH2 0x81C5 DUP2 DUP6 PUSH2 0x775F JUMP JUMPDEST SWAP1 POP DUP2 DUP2 SUB PUSH1 0x40 DUP4 ADD MSTORE PUSH2 0x81D9 DUP2 DUP5 PUSH2 0x7D4C JUMP JUMPDEST SWAP1 POP SWAP5 SWAP4 POP POP POP POP JUMP JUMPDEST PUSH1 0x0 PUSH1 0xE0 DUP3 DUP5 SUB SLT ISZERO PUSH2 0x81F9 JUMPI PUSH2 0x81F8 PUSH2 0x7B09 JUMP JUMPDEST JUMPDEST PUSH2 0x8203 PUSH1 0xE0 PUSH2 0x79E2 JUMP JUMPDEST SWAP1 POP PUSH1 0x0 DUP3 ADD CALLDATALOAD PUSH8 0xFFFFFFFFFFFFFFFF DUP2 GT ISZERO PUSH2 0x8223 JUMPI PUSH2 0x8222 PUSH2 0x7B0E JUMP JUMPDEST JUMPDEST PUSH2 0x822F DUP5 DUP3 DUP6 ADD PUSH2 0x7A7F JUMP JUMPDEST PUSH1 0x0 DUP4 ADD MSTORE POP PUSH1 0x20 DUP3 ADD CALLDATALOAD PUSH8 0xFFFFFFFFFFFFFFFF DUP2 GT ISZERO PUSH2 0x8253 JUMPI PUSH2 0x8252 PUSH2 0x7B0E JUMP JUMPDEST JUMPDEST PUSH2 0x825F DUP5 DUP3 DUP6 ADD PUSH2 0x7A7F JUMP JUMPDEST PUSH1 0x20 DUP4 ADD MSTORE POP PUSH1 0x40 PUSH2 0x8273 DUP5 DUP3 DUP6 ADD PUSH2 0x7FC4 JUMP JUMPDEST PUSH1 0x40 DUP4 ADD MSTORE POP PUSH1 0x60 PUSH2 0x8287 DUP5 DUP3 DUP6 ADD PUSH2 0x7665 JUMP JUMPDEST PUSH1 0x60 DUP4 ADD MSTORE POP PUSH1 0x80 PUSH2 0x829B DUP5 DUP3 DUP6 ADD PUSH2 0x7665 JUMP JUMPDEST PUSH1 0x80 DUP4 ADD MSTORE POP PUSH1 0xA0 DUP3 ADD CALLDATALOAD PUSH8 0xFFFFFFFFFFFFFFFF DUP2 GT ISZERO PUSH2 0x82BF JUMPI PUSH2 0x82BE PUSH2 0x7B0E JUMP JUMPDEST JUMPDEST PUSH2 0x82CB DUP5 DUP3 DUP6 ADD PUSH2 0x7A7F JUMP JUMPDEST PUSH1 0xA0 DUP4 ADD MSTORE POP PUSH1 0xC0 PUSH2 0x82DF DUP5 DUP3 DUP6 ADD PUSH2 0x7FC4 JUMP JUMPDEST PUSH1 0xC0 DUP4 ADD MSTORE POP SWAP3 SWAP2 POP POP JUMP JUMPDEST PUSH1 0x0 DUP1 PUSH1 0x0 PUSH1 0x60 DUP5 DUP7 SUB SLT ISZERO PUSH2 0x8304 JUMPI PUSH2 0x8303 PUSH2 0x7612 JUMP JUMPDEST JUMPDEST PUSH1 0x0 DUP5 ADD CALLDATALOAD PUSH8 0xFFFFFFFFFFFFFFFF DUP2 GT ISZERO PUSH2 0x8322 JUMPI PUSH2 0x8321 PUSH2 0x7617 JUMP JUMPDEST JUMPDEST PUSH2 0x832E DUP7 DUP3 DUP8 ADD PUSH2 0x81E3 JUMP JUMPDEST SWAP4 POP POP PUSH1 0x20 PUSH2 0x833F DUP7 DUP3 DUP8 ADD PUSH2 0x7FC4 JUMP JUMPDEST SWAP3 POP POP PUSH1 0x40 DUP5 ADD CALLDATALOAD PUSH8 0xFFFFFFFFFFFFFFFF DUP2 GT ISZERO PUSH2 0x8360 JUMPI PUSH2 0x835F PUSH2 0x7617 JUMP JUMPDEST JUMPDEST PUSH2 0x836C DUP7 DUP3 DUP8 ADD PUSH2 0x7A7F JUMP JUMPDEST SWAP2 POP POP SWAP3 POP SWAP3 POP SWAP3 JUMP JUMPDEST PUSH1 0x0 DUP1 PUSH1 0x0 PUSH1 0x60 DUP5 DUP7 SUB SLT ISZERO PUSH2 0x838F JUMPI PUSH2 0x838E PUSH2 0x7612 JUMP JUMPDEST JUMPDEST PUSH1 0x0 DUP5 ADD CALLDATALOAD PUSH8 0xFFFFFFFFFFFFFFFF DUP2 GT ISZERO PUSH2 0x83AD JUMPI PUSH2 0x83AC PUSH2 0x7617 JUMP JUMPDEST JUMPDEST PUSH2 0x83B9 DUP7 DUP3 DUP8 ADD PUSH2 0x7A7F JUMP JUMPDEST SWAP4 POP POP PUSH1 0x20 DUP5 ADD CALLDATALOAD PUSH8 0xFFFFFFFFFFFFFFFF DUP2 GT ISZERO PUSH2 0x83DA JUMPI PUSH2 0x83D9 PUSH2 0x7617 JUMP JUMPDEST JUMPDEST PUSH2 0x83E6 DUP7 DUP3 DUP8 ADD PUSH2 0x7A7F JUMP JUMPDEST SWAP3 POP POP PUSH1 0x40 PUSH2 0x83F7 DUP7 DUP3 DUP8 ADD PUSH2 0x7FC4 JUMP JUMPDEST SWAP2 POP POP SWAP3 POP SWAP3 POP SWAP3 JUMP JUMPDEST PUSH1 0x0 DUP1 PUSH1 0x40 DUP4 DUP6 SUB SLT ISZERO PUSH2 0x8418 JUMPI PUSH2 0x8417 PUSH2 0x7612 JUMP JUMPDEST JUMPDEST PUSH1 0x0 DUP4 ADD CALLDATALOAD PUSH8 0xFFFFFFFFFFFFFFFF DUP2 GT ISZERO PUSH2 0x8436 JUMPI PUSH2 0x8435 PUSH2 0x7617 JUMP JUMPDEST JUMPDEST PUSH2 0x8442 DUP6 DUP3 DUP7 ADD PUSH2 0x7A7F JUMP JUMPDEST SWAP3 POP POP PUSH1 0x20 PUSH2 0x8453 DUP6 DUP3 DUP7 ADD PUSH2 0x7FC4 JUMP JUMPDEST SWAP2 POP POP SWAP3 POP SWAP3 SWAP1 POP JUMP JUMPDEST PUSH1 0x0 DUP1 PUSH1 0x40 DUP4 DUP6 SUB SLT ISZERO PUSH2 0x8474 JUMPI PUSH2 0x8473 PUSH2 0x7612 JUMP JUMPDEST JUMPDEST PUSH1 0x0 PUSH2 0x8482 DUP6 DUP3 DUP7 ADD PUSH2 0x7665 JUMP JUMPDEST SWAP3 POP POP PUSH1 0x20 PUSH2 0x8493 DUP6 DUP3 DUP7 ADD PUSH2 0x7E9E JUMP JUMPDEST SWAP2 POP POP SWAP3 POP SWAP3 SWAP1 POP JUMP JUMPDEST PUSH1 0x0 DUP2 MLOAD SWAP1 POP SWAP2 SWAP1 POP JUMP JUMPDEST PUSH1 0x0 DUP3 DUP3 MSTORE PUSH1 0x20 DUP3 ADD SWAP1 POP SWAP3 SWAP2 POP POP JUMP JUMPDEST PUSH1 0x0 DUP2 SWAP1 POP PUSH1 0x20 DUP3 ADD SWAP1 POP SWAP2 SWAP1 POP JUMP JUMPDEST PUSH1 0x0 PUSH2 0x140 DUP4 ADD PUSH1 0x0 DUP4 ADD MLOAD DUP5 DUP3 SUB PUSH1 0x0 DUP7 ADD MSTORE PUSH2 0x84E7 DUP3 DUP3 PUSH2 0x76FE JUMP JUMPDEST SWAP2 POP POP PUSH1 0x20 DUP4 ADD MLOAD PUSH2 0x84FC PUSH1 0x20 DUP7 ADD DUP3 PUSH2 0x7750 JUMP JUMPDEST POP PUSH1 0x40 DUP4 ADD MLOAD DUP5 DUP3 SUB PUSH1 0x40 DUP7 ADD MSTORE PUSH2 0x8514 DUP3 DUP3 PUSH2 0x76FE JUMP JUMPDEST SWAP2 POP POP PUSH1 0x60 DUP4 ADD MLOAD PUSH2 0x8529 PUSH1 0x60 DUP7 ADD DUP3 PUSH2 0x7750 JUMP JUMPDEST POP PUSH1 0x80 DUP4 ADD MLOAD DUP5 DUP3 SUB PUSH1 0x80 DUP7 ADD MSTORE PUSH2 0x8541 DUP3 DUP3 PUSH2 0x76FE JUMP JUMPDEST SWAP2 POP POP PUSH1 0xA0 DUP4 ADD MLOAD DUP5 DUP3 SUB PUSH1 0xA0 DUP7 ADD MSTORE PUSH2 0x855B DUP3 DUP3 PUSH2 0x76FE JUMP JUMPDEST SWAP2 POP POP PUSH1 0xC0 DUP4 ADD MLOAD PUSH2 0x8570 PUSH1 0xC0 DUP7 ADD DUP3 PUSH2 0x7741 JUMP JUMPDEST POP PUSH1 0xE0 DUP4 ADD MLOAD PUSH2 0x8583 PUSH1 0xE0 DUP7 ADD DUP3 PUSH2 0x7CF5 JUMP JUMPDEST POP PUSH2 0x100 DUP4 ADD MLOAD PUSH2 0x8598 PUSH2 0x100 DUP7 ADD DUP3 PUSH2 0x7D3D JUMP JUMPDEST POP PUSH2 0x120 DUP4 ADD MLOAD DUP5 DUP3 SUB PUSH2 0x120 DUP7 ADD MSTORE PUSH2 0x85B2 DUP3 DUP3 PUSH2 0x76FE JUMP JUMPDEST SWAP2 POP POP DUP1 SWAP2 POP POP SWAP3 SWAP2 POP POP JUMP JUMPDEST PUSH1 0x0 PUSH2 0x85CB DUP4 DUP4 PUSH2 0x84C9 JUMP JUMPDEST SWAP1 POP SWAP3 SWAP2 POP POP JUMP JUMPDEST PUSH1 0x0 PUSH1 0x20 DUP3 ADD SWAP1 POP SWAP2 SWAP1 POP JUMP JUMPDEST PUSH1 0x0 PUSH2 0x85EB DUP3 PUSH2 0x849D JUMP JUMPDEST PUSH2 0x85F5 DUP2 DUP6 PUSH2 0x84A8 JUMP JUMPDEST SWAP4 POP DUP4 PUSH1 0x20 DUP3 MUL DUP6 ADD PUSH2 0x8607 DUP6 PUSH2 0x84B9 JUMP JUMPDEST DUP1 PUSH1 0x0 JUMPDEST DUP6 DUP2 LT ISZERO PUSH2 0x8643 JUMPI DUP5 DUP5 SUB DUP10 MSTORE DUP2 MLOAD PUSH2 0x8624 DUP6 DUP3 PUSH2 0x85BF JUMP JUMPDEST SWAP5 POP PUSH2 0x862F DUP4 PUSH2 0x85D3 JUMP JUMPDEST SWAP3 POP PUSH1 0x20 DUP11 ADD SWAP10 POP POP PUSH1 0x1 DUP2 ADD SWAP1 POP PUSH2 0x860B JUMP JUMPDEST POP DUP3 SWAP8 POP DUP8 SWAP6 POP POP POP POP POP POP SWAP3 SWAP2 POP POP JUMP JUMPDEST PUSH1 0x0 PUSH1 0x40 DUP3 ADD SWAP1 POP PUSH2 0x866A PUSH1 0x0 DUP4 ADD DUP6 PUSH2 0x8006 JUMP JUMPDEST DUP2 DUP2 SUB PUSH1 0x20 DUP4 ADD MSTORE PUSH2 0x867C DUP2 DUP5 PUSH2 0x85E0 JUMP JUMPDEST SWAP1 POP SWAP4 SWAP3 POP POP POP JUMP JUMPDEST PUSH1 0x3 DUP2 LT PUSH2 0x8696 JUMPI PUSH2 0x8695 PUSH2 0x7848 JUMP JUMPDEST JUMPDEST POP JUMP JUMPDEST PUSH1 0x0 DUP2 SWAP1 POP PUSH2 0x86A7 DUP3 PUSH2 0x8685 JUMP JUMPDEST SWAP2 SWAP1 POP JUMP JUMPDEST PUSH1 0x0 PUSH2 0x86B7 DUP3 PUSH2 0x8699 JUMP JUMPDEST SWAP1 POP SWAP2 SWAP1 POP JUMP JUMPDEST PUSH2 0x86C7 DUP2 PUSH2 0x86AC JUMP JUMPDEST DUP3 MSTORE POP POP JUMP JUMPDEST PUSH1 0x0 PUSH1 0xA0 DUP4 ADD PUSH1 0x0 DUP4 ADD MLOAD DUP5 DUP3 SUB PUSH1 0x0 DUP7 ADD MSTORE PUSH2 0x86EA DUP3 DUP3 PUSH2 0x76FE JUMP JUMPDEST SWAP2 POP POP PUSH1 0x20 DUP4 ADD MLOAD DUP5 DUP3 SUB PUSH1 0x20 DUP7 ADD MSTORE PUSH2 0x8704 DUP3 DUP3 PUSH2 0x76FE JUMP JUMPDEST SWAP2 POP POP PUSH1 0x40 DUP4 ADD MLOAD PUSH2 0x8719 PUSH1 0x40 DUP7 ADD DUP3 PUSH2 0x7750 JUMP JUMPDEST POP PUSH1 0x60 DUP4 ADD MLOAD PUSH2 0x872C PUSH1 0x60 DUP7 ADD DUP3 PUSH2 0x86BE JUMP JUMPDEST POP PUSH1 0x80 DUP4 ADD MLOAD PUSH2 0x873F PUSH1 0x80 DUP7 ADD DUP3 PUSH2 0x78B0 JUMP JUMPDEST POP DUP1 SWAP2 POP POP SWAP3 SWAP2 POP POP JUMP JUMPDEST PUSH1 0x0 PUSH1 0x20 DUP3 ADD SWAP1 POP DUP2 DUP2 SUB PUSH1 0x0 DUP4 ADD MSTORE PUSH2 0x8764 DUP2 DUP5 PUSH2 0x86CD JUMP JUMPDEST SWAP1 POP SWAP3 SWAP2 POP POP JUMP JUMPDEST PUSH1 0x0 DUP3 DUP3 MSTORE PUSH1 0x20 DUP3 ADD SWAP1 POP SWAP3 SWAP2 POP POP JUMP JUMPDEST PUSH32 0x496420697320456D707479000000000000000000000000000000000000000000 PUSH1 0x0 DUP3 ADD MSTORE POP JUMP JUMPDEST PUSH1 0x0 PUSH2 0x87B3 PUSH1 0xB DUP4 PUSH2 0x876C JUMP JUMPDEST SWAP2 POP PUSH2 0x87BE DUP3 PUSH2 0x877D JUMP JUMPDEST PUSH1 0x20 DUP3 ADD SWAP1 POP SWAP2 SWAP1 POP JUMP JUMPDEST PUSH1 0x0 PUSH1 0x20 DUP3 ADD SWAP1 POP DUP2 DUP2 SUB PUSH1 0x0 DUP4 ADD MSTORE PUSH2 0x87E2 DUP2 PUSH2 0x87A6 JUMP JUMPDEST SWAP1 POP SWAP2 SWAP1 POP JUMP JUMPDEST PUSH32 0x5573657220496420456D70747900000000000000000000000000000000000000 PUSH1 0x0 DUP3 ADD MSTORE POP JUMP JUMPDEST PUSH1 0x0 PUSH2 0x881F PUSH1 0xD DUP4 PUSH2 0x876C JUMP JUMPDEST SWAP2 POP PUSH2 0x882A DUP3 PUSH2 0x87E9 JUMP JUMPDEST PUSH1 0x20 DUP3 ADD SWAP1 POP SWAP2 SWAP1 POP JUMP JUMPDEST PUSH1 0x0 PUSH1 0x20 DUP3 ADD SWAP1 POP DUP2 DUP2 SUB PUSH1 0x0 DUP4 ADD MSTORE PUSH2 0x884E DUP2 PUSH2 0x8812 JUMP JUMPDEST SWAP1 POP SWAP2 SWAP1 POP JUMP JUMPDEST PUSH32 0x4E487B7100000000000000000000000000000000000000000000000000000000 PUSH1 0x0 MSTORE PUSH1 0x22 PUSH1 0x4 MSTORE PUSH1 0x24 PUSH1 0x0 REVERT JUMPDEST PUSH1 0x0 PUSH1 0x2 DUP3 DIV SWAP1 POP PUSH1 0x1 DUP3 AND DUP1 PUSH2 0x889C JUMPI PUSH1 0x7F DUP3 AND SWAP2 POP JUMPDEST PUSH1 0x20 DUP3 LT DUP2 SUB PUSH2 0x88AF JUMPI PUSH2 0x88AE PUSH2 0x8855 JUMP JUMPDEST JUMPDEST POP SWAP2 SWAP1 POP JUMP JUMPDEST PUSH32 0x5573657220456D61696C20456D70747900000000000000000000000000000000 PUSH1 0x0 DUP3 ADD MSTORE POP JUMP JUMPDEST PUSH1 0x0 PUSH2 0x88EB PUSH1 0x10 DUP4 PUSH2 0x876C JUMP JUMPDEST SWAP2 POP PUSH2 0x88F6 DUP3 PUSH2 0x88B5 JUMP JUMPDEST PUSH1 0x20 DUP3 ADD SWAP1 POP SWAP2 SWAP1 POP JUMP JUMPDEST PUSH1 0x0 PUSH1 0x20 DUP3 ADD SWAP1 POP DUP2 DUP2 SUB PUSH1 0x0 DUP4 ADD MSTORE PUSH2 0x891A DUP2 PUSH2 0x88DE JUMP JUMPDEST SWAP1 POP SWAP2 SWAP1 POP JUMP JUMPDEST PUSH32 0x42616E6B206E6F7420666F756E64000000000000000000000000000000000000 PUSH1 0x0 DUP3 ADD MSTORE POP JUMP JUMPDEST PUSH1 0x0 PUSH2 0x8957 PUSH1 0xE DUP4 PUSH2 0x876C JUMP JUMPDEST SWAP2 POP PUSH2 0x8962 DUP3 PUSH2 0x8921 JUMP JUMPDEST PUSH1 0x20 DUP3 ADD SWAP1 POP SWAP2 SWAP1 POP JUMP JUMPDEST PUSH1 0x0 PUSH1 0x20 DUP3 ADD SWAP1 POP DUP2 DUP2 SUB PUSH1 0x0 DUP4 ADD MSTORE PUSH2 0x8986 DUP2 PUSH2 0x894A JUMP JUMPDEST SWAP1 POP SWAP2 SWAP1 POP JUMP JUMPDEST PUSH32 0x42616E6B206973206E6F74206163746976650000000000000000000000000000 PUSH1 0x0 DUP3 ADD MSTORE POP JUMP JUMPDEST PUSH1 0x0 PUSH2 0x89C3 PUSH1 0x12 DUP4 PUSH2 0x876C JUMP JUMPDEST SWAP2 POP PUSH2 0x89CE DUP3 PUSH2 0x898D JUMP JUMPDEST PUSH1 0x20 DUP3 ADD SWAP1 POP SWAP2 SWAP1 POP JUMP JUMPDEST PUSH1 0x0 PUSH1 0x20 DUP3 ADD SWAP1 POP DUP2 DUP2 SUB PUSH1 0x0 DUP4 ADD MSTORE PUSH2 0x89F2 DUP2 PUSH2 0x89B6 JUMP JUMPDEST SWAP1 POP SWAP2 SWAP1 POP JUMP JUMPDEST PUSH32 0x4B594320726571206E6F7420666F756E64000000000000000000000000000000 PUSH1 0x0 DUP3 ADD MSTORE POP JUMP JUMPDEST PUSH1 0x0 PUSH2 0x8A2F PUSH1 0x11 DUP4 PUSH2 0x876C JUMP JUMPDEST SWAP2 POP PUSH2 0x8A3A DUP3 PUSH2 0x89F9 JUMP JUMPDEST PUSH1 0x20 DUP3 ADD SWAP1 POP SWAP2 SWAP1 POP JUMP JUMPDEST PUSH1 0x0 PUSH1 0x20 DUP3 ADD SWAP1 POP DUP2 DUP2 SUB PUSH1 0x0 DUP4 ADD MSTORE PUSH2 0x8A5E DUP2 PUSH2 0x8A22 JUMP JUMPDEST SWAP1 POP SWAP2 SWAP1 POP JUMP JUMPDEST PUSH32 0x55736572206E6F7420666F756E64000000000000000000000000000000000000 PUSH1 0x0 DUP3 ADD MSTORE POP JUMP JUMPDEST PUSH1 0x0 PUSH2 0x8A9B PUSH1 0xE DUP4 PUSH2 0x876C JUMP JUMPDEST SWAP2 POP PUSH2 0x8AA6 DUP3 PUSH2 0x8A65 JUMP JUMPDEST PUSH1 0x20 DUP3 ADD SWAP1 POP SWAP2 SWAP1 POP JUMP JUMPDEST PUSH1 0x0 PUSH1 0x20 DUP3 ADD SWAP1 POP DUP2 DUP2 SUB PUSH1 0x0 DUP4 ADD MSTORE PUSH2 0x8ACA DUP2 PUSH2 0x8A8E JUMP JUMPDEST SWAP1 POP SWAP2 SWAP1 POP JUMP JUMPDEST PUSH1 0x0 DUP2 SWAP1 POP SWAP3 SWAP2 POP POP JUMP JUMPDEST PUSH1 0x0 PUSH2 0x8AE7 DUP3 PUSH2 0x76A7 JUMP JUMPDEST PUSH2 0x8AF1 DUP2 DUP6 PUSH2 0x8AD1 JUMP JUMPDEST SWAP4 POP PUSH2 0x8B01 DUP2 DUP6 PUSH1 0x20 DUP7 ADD PUSH2 0x76C3 JUMP JUMPDEST DUP1 DUP5 ADD SWAP2 POP POP SWAP3 SWAP2 POP POP JUMP JUMPDEST PUSH1 0x0 PUSH2 0x8B19 DUP3 DUP5 PUSH2 0x8ADC JUMP JUMPDEST SWAP2 POP DUP2 SWAP1 POP SWAP3 SWAP2 POP POP JUMP JUMPDEST PUSH1 0x0 DUP2 SWAP1 POP DUP2 PUSH1 0x0 MSTORE PUSH1 0x20 PUSH1 0x0 KECCAK256 SWAP1 POP SWAP2 SWAP1 POP JUMP JUMPDEST PUSH1 0x0 PUSH1 0x20 PUSH1 0x1F DUP4 ADD DIV SWAP1 POP SWAP2 SWAP1 POP JUMP JUMPDEST PUSH1 0x0 DUP3 DUP3 SHL SWAP1 POP SWAP3 SWAP2 POP POP JUMP JUMPDEST PUSH1 0x0 PUSH1 0x8 DUP4 MUL PUSH2 0x8B86 PUSH32 0xFFFFFFFFFFFFFFFFFFFFFFFFFFFFFFFFFFFFFFFFFFFFFFFFFFFFFFFFFFFFFFFF DUP3 PUSH2 0x8B49 JUMP JUMPDEST PUSH2 0x8B90 DUP7 DUP4 PUSH2 0x8B49 JUMP JUMPDEST SWAP6 POP DUP1 NOT DUP5 AND SWAP4 POP DUP1 DUP7 AND DUP5 OR SWAP3 POP POP POP SWAP4 SWAP3 POP POP POP JUMP JUMPDEST PUSH1 0x0 DUP2 SWAP1 POP SWAP2 SWAP1 POP JUMP JUMPDEST PUSH1 0x0 PUSH2 0x8BCD PUSH2 0x8BC8 PUSH2 0x8BC3 DUP5 PUSH2 0x7737 JUMP JUMPDEST PUSH2 0x8BA8 JUMP JUMPDEST PUSH2 0x7737 JUMP JUMPDEST SWAP1 POP SWAP2 SWAP1 POP JUMP JUMPDEST PUSH1 0x0 DUP2 SWAP1 POP SWAP2 SWAP1 POP JUMP JUMPDEST PUSH2 0x8BE7 DUP4 PUSH2 0x8BB2 JUMP JUMPDEST PUSH2 0x8BFB PUSH2 0x8BF3 DUP3 PUSH2 0x8BD4 JUMP JUMPDEST DUP5 DUP5 SLOAD PUSH2 0x8B56 JUMP JUMPDEST DUP3 SSTORE POP POP POP POP JUMP JUMPDEST PUSH1 0x0 SWAP1 JUMP JUMPDEST PUSH2 0x8C10 PUSH2 0x8C03 JUMP JUMPDEST PUSH2 0x8C1B DUP2 DUP5 DUP5 PUSH2 0x8BDE JUMP JUMPDEST POP POP POP JUMP JUMPDEST JUMPDEST DUP2 DUP2 LT ISZERO PUSH2 0x8C3F JUMPI PUSH2 0x8C34 PUSH1 0x0 DUP3 PUSH2 0x8C08 JUMP JUMPDEST PUSH1 0x1 DUP2 ADD SWAP1 POP PUSH2 0x8C21 JUMP JUMPDEST POP POP JUMP JUMPDEST PUSH1 0x1F DUP3 GT ISZERO PUSH2 0x8C84 JUMPI PUSH2 0x8C55 DUP2 PUSH2 0x8B24 JUMP JUMPDEST PUSH2 0x8C5E DUP5 PUSH2 0x8B39 JUMP JUMPDEST DUP2 ADD PUSH1 0x20 DUP6 LT ISZERO PUSH2 0x8C6D JUMPI DUP2 SWAP1 POP JUMPDEST PUSH2 0x8C81 PUSH2 0x8C79 DUP6 PUSH2 0x8B39 JUMP JUMPDEST DUP4 ADD DUP3 PUSH2 0x8C20 JUMP JUMPDEST POP POP JUMPDEST POP POP POP JUMP JUMPDEST PUSH1 0x0 DUP3 DUP3 SHR SWAP1 POP SWAP3 SWAP2 POP POP JUMP JUMPDEST PUSH1 0x0 PUSH2 0x8CA7 PUSH1 0x0 NOT DUP5 PUSH1 0x8 MUL PUSH2 0x8C89 JUMP JUMPDEST NOT DUP1 DUP4 AND SWAP2 POP POP SWAP3 SWAP2 POP POP JUMP JUMPDEST PUSH1 0x0 PUSH2 0x8CC0 DUP4 DUP4 PUSH2 0x8C96 JUMP JUMPDEST SWAP2 POP DUP3 PUSH1 0x2 MUL DUP3 OR SWAP1 POP SWAP3 SWAP2 POP POP JUMP JUMPDEST PUSH2 0x8CD9 DUP3 PUSH2 0x76A7 JUMP JUMPDEST PUSH8 0xFFFFFFFFFFFFFFFF DUP2 GT ISZERO PUSH2 0x8CF2 JUMPI PUSH2 0x8CF1 PUSH2 0x7982 JUMP JUMPDEST JUMPDEST PUSH2 0x8CFC DUP3 SLOAD PUSH2 0x8884 JUMP JUMPDEST PUSH2 0x8D07 DUP3 DUP3 DUP6 PUSH2 0x8C43 JUMP JUMPDEST PUSH1 0x0 PUSH1 0x20 SWAP1 POP PUSH1 0x1F DUP4 GT PUSH1 0x1 DUP2 EQ PUSH2 0x8D3A JUMPI PUSH1 0x0 DUP5 ISZERO PUSH2 0x8D28 JUMPI DUP3 DUP8 ADD MLOAD SWAP1 POP JUMPDEST PUSH2 0x8D32 DUP6 DUP3 PUSH2 0x8CB4 JUMP JUMPDEST DUP7 SSTORE POP PUSH2 0x8D9A JUMP JUMPDEST PUSH1 0x1F NOT DUP5 AND PUSH2 0x8D48 DUP7 PUSH2 0x8B24 JUMP JUMPDEST PUSH1 0x0 JUMPDEST DUP3 DUP2 LT ISZERO PUSH2 0x8D70 JUMPI DUP5 DUP10 ADD MLOAD DUP3 SSTORE PUSH1 0x1 DUP3 ADD SWAP2 POP PUSH1 0x20 DUP6 ADD SWAP5 POP PUSH1 0x20 DUP2 ADD SWAP1 POP PUSH2 0x8D4B JUMP JUMPDEST DUP7 DUP4 LT ISZERO PUSH2 0x8D8D JUMPI DUP5 DUP10 ADD MLOAD PUSH2 0x8D89 PUSH1 0x1F DUP10 AND DUP3 PUSH2 0x8C96 JUMP JUMPDEST DUP4 SSTORE POP JUMPDEST PUSH1 0x1 PUSH1 0x2 DUP9 MUL ADD DUP9 SSTORE POP POP POP JUMPDEST POP POP POP POP POP POP JUMP JUMPDEST PUSH1 0x0 PUSH2 0x8DAD DUP3 PUSH2 0x76A7 JUMP JUMPDEST PUSH2 0x8DB7 DUP2 DUP6 PUSH2 0x876C JUMP JUMPDEST SWAP4 POP PUSH2 0x8DC7 DUP2 DUP6 PUSH1 0x20 DUP7 ADD PUSH2 0x76C3 JUMP JUMPDEST PUSH2 0x8DD0 DUP2 PUSH2 0x76ED JUMP JUMPDEST DUP5 ADD SWAP2 POP POP SWAP3 SWAP2 POP POP JUMP JUMPDEST PUSH1 0x0 DUP2 SLOAD PUSH2 0x8DE8 DUP2 PUSH2 0x8884 JUMP JUMPDEST PUSH2 0x8DF2 DUP2 DUP7 PUSH2 0x876C JUMP JUMPDEST SWAP5 POP PUSH1 0x1 DUP3 AND PUSH1 0x0 DUP2 EQ PUSH2 0x8E0D JUMPI PUSH1 0x1 DUP2 EQ PUSH2 0x8E23 JUMPI PUSH2 0x8E56 JUMP JUMPDEST PUSH1 0xFF NOT DUP4 AND DUP7 MSTORE DUP2 ISZERO ISZERO PUSH1 0x20 MUL DUP7 ADD SWAP4 POP PUSH2 0x8E56 JUMP JUMPDEST PUSH2 0x8E2C DUP6 PUSH2 0x8B24 JUMP JUMPDEST PUSH1 0x0 JUMPDEST DUP4 DUP2 LT ISZERO PUSH2 0x8E4E JUMPI DUP2 SLOAD DUP2 DUP10 ADD MSTORE PUSH1 0x1 DUP3 ADD SWAP2 POP PUSH1 0x20 DUP2 ADD SWAP1 POP PUSH2 0x8E2F JUMP JUMPDEST DUP1 DUP9 ADD SWAP6 POP POP POP JUMPDEST POP POP POP SWAP3 SWAP2 POP POP JUMP JUMPDEST PUSH1 0x0 PUSH1 0x60 DUP3 ADD SWAP1 POP DUP2 DUP2 SUB PUSH1 0x0 DUP4 ADD MSTORE PUSH2 0x8E79 DUP2 DUP7 PUSH2 0x8DA2 JUMP JUMPDEST SWAP1 POP DUP2 DUP2 SUB PUSH1 0x20 DUP4 ADD MSTORE PUSH2 0x8E8D DUP2 DUP6 PUSH2 0x8DDB JUMP JUMPDEST SWAP1 POP DUP2 DUP2 SUB PUSH1 0x40 DUP4 ADD MSTORE PUSH2 0x8EA1 DUP2 DUP5 PUSH2 0x8DDB JUMP JUMPDEST SWAP1 POP SWAP5 SWAP4 POP POP POP POP JUMP JUMPDEST PUSH32 0x4F6E6C792061646D696E20697320616C6C6F7765640000000000000000000000 PUSH1 0x0 DUP3 ADD MSTORE POP JUMP JUMPDEST PUSH1 0x0 PUSH2 0x8EE1 PUSH1 0x15 DUP4 PUSH2 0x876C JUMP JUMPDEST SWAP2 POP PUSH2 0x8EEC DUP3 PUSH2 0x8EAB JUMP JUMPDEST PUSH1 0x20 DUP3 ADD SWAP1 POP SWAP2 SWAP1 POP JUMP JUMPDEST PUSH1 0x0 PUSH1 0x20 DUP3 ADD SWAP1 POP DUP2 DUP2 SUB PUSH1 0x0 DUP4 ADD MSTORE PUSH2 0x8F10 DUP2 PUSH2 0x8ED4 JUMP JUMPDEST SWAP1 POP SWAP2 SWAP1 POP JUMP JUMPDEST PUSH32 0x4E487B7100000000000000000000000000000000000000000000000000000000 PUSH1 0x0 MSTORE PUSH1 0x32 PUSH1 0x4 MSTORE PUSH1 0x24 PUSH1 0x0 REVERT JUMPDEST PUSH32 0x4E487B7100000000000000000000000000000000000000000000000000000000 PUSH1 0x0 MSTORE PUSH1 0x11 PUSH1 0x4 MSTORE PUSH1 0x24 PUSH1 0x0 REVERT JUMPDEST PUSH1 0x0 PUSH2 0x8F80 DUP3 PUSH2 0x7737 JUMP JUMPDEST SWAP2 POP PUSH32 0xFFFFFFFFFFFFFFFFFFFFFFFFFFFFFFFFFFFFFFFFFFFFFFFFFFFFFFFFFFFFFFFF DUP3 SUB PUSH2 0x8FB2 JUMPI PUSH2 0x8FB1 PUSH2 0x8F46 JUMP JUMPDEST JUMPDEST PUSH1 0x1 DUP3 ADD SWAP1 POP SWAP2 SWAP1 POP JUMP JUMPDEST PUSH32 0x5573657220646F65736E27742068617665204B59432072657100000000000000 PUSH1 0x0 DUP3 ADD MSTORE POP JUMP JUMPDEST PUSH1 0x0 PUSH2 0x8FF3 PUSH1 0x19 DUP4 PUSH2 0x876C JUMP JUMPDEST SWAP2 POP PUSH2 0x8FFE DUP3 PUSH2 0x8FBD JUMP JUMPDEST PUSH1 0x20 DUP3 ADD SWAP1 POP SWAP2 SWAP1 POP JUMP JUMPDEST PUSH1 0x0 PUSH1 0x20 DUP3 ADD SWAP1 POP DUP2 DUP2 SUB PUSH1 0x0 DUP4 ADD MSTORE PUSH2 0x9022 DUP2 PUSH2 0x8FE6 JUMP JUMPDEST SWAP1 POP SWAP2 SWAP1 POP JUMP JUMPDEST PUSH2 0x9032 DUP2 PUSH2 0x763C JUMP JUMPDEST DUP3 MSTORE POP POP JUMP JUMPDEST PUSH2 0x9041 DUP2 PUSH2 0x7D2B JUMP JUMPDEST DUP3 MSTORE POP POP JUMP JUMPDEST PUSH1 0x0 PUSH1 0x80 DUP3 ADD SWAP1 POP DUP2 DUP2 SUB PUSH1 0x0 DUP4 ADD MSTORE PUSH2 0x9061 DUP2 DUP8 PUSH2 0x8DA2 JUMP JUMPDEST SWAP1 POP PUSH2 0x9070 PUSH1 0x20 DUP4 ADD DUP7 PUSH2 0x9029 JUMP JUMPDEST PUSH2 0x907D PUSH1 0x40 DUP4 ADD DUP6 PUSH2 0x9029 JUMP JUMPDEST PUSH2 0x908A PUSH1 0x60 DUP4 ADD DUP5 PUSH2 0x9038 JUMP JUMPDEST SWAP6 SWAP5 POP POP POP POP POP JUMP JUMPDEST PUSH32 0x5065726D697373696F6E206E6F7420666F756E64000000000000000000000000 PUSH1 0x0 DUP3 ADD MSTORE POP JUMP JUMPDEST PUSH1 0x0 PUSH2 0x90C9 PUSH1 0x14 DUP4 PUSH2 0x876C JUMP JUMPDEST SWAP2 POP PUSH2 0x90D4 DUP3 PUSH2 0x9093 JUMP JUMPDEST PUSH1 0x20 DUP3 ADD SWAP1 POP SWAP2 SWAP1 POP JUMP JUMPDEST PUSH1 0x0 PUSH1 0x20 DUP3 ADD SWAP1 POP DUP2 DUP2 SUB PUSH1 0x0 DUP4 ADD MSTORE PUSH2 0x90F8 DUP2 PUSH2 0x90BC JUMP JUMPDEST SWAP1 POP SWAP2 SWAP1 POP JUMP JUMPDEST PUSH32 0x5573657220686164206B7963207265712E000000000000000000000000000000 PUSH1 0x0 DUP3 ADD MSTORE POP JUMP JUMPDEST PUSH1 0x0 PUSH2 0x9135 PUSH1 0x11 DUP4 PUSH2 0x876C JUMP JUMPDEST SWAP2 POP PUSH2 0x9140 DUP3 PUSH2 0x90FF JUMP JUMPDEST PUSH1 0x20 DUP3 ADD SWAP1 POP SWAP2 SWAP1 POP JUMP JUMPDEST PUSH1 0x0 PUSH1 0x20 DUP3 ADD SWAP1 POP DUP2 DUP2 SUB PUSH1 0x0 DUP4 ADD MSTORE PUSH2 0x9164 DUP2 PUSH2 0x9128 JUMP JUMPDEST SWAP1 POP SWAP2 SWAP1 POP JUMP JUMPDEST PUSH1 0x0 PUSH1 0x60 DUP3 ADD SWAP1 POP DUP2 DUP2 SUB PUSH1 0x0 DUP4 ADD MSTORE PUSH2 0x9185 DUP2 DUP7 PUSH2 0x8DA2 JUMP JUMPDEST SWAP1 POP DUP2 DUP2 SUB PUSH1 0x20 DUP4 ADD MSTORE PUSH2 0x9199 DUP2 DUP6 PUSH2 0x8DDB JUMP JUMPDEST SWAP1 POP DUP2 DUP2 SUB PUSH1 0x40 DUP4 ADD MSTORE PUSH2 0x91AD DUP2 DUP5 PUSH2 0x8DA2 JUMP JUMPDEST SWAP1 POP SWAP5 SWAP4 POP POP POP POP JUMP JUMPDEST PUSH32 0x53656E64657220496420456D7074790000000000000000000000000000000000 PUSH1 0x0 DUP3 ADD MSTORE POP JUMP JUMPDEST PUSH1 0x0 PUSH2 0x91ED PUSH1 0xF DUP4 PUSH2 0x876C JUMP JUMPDEST SWAP2 POP PUSH2 0x91F8 DUP3 PUSH2 0x91B7 JUMP JUMPDEST PUSH1 0x20 DUP3 ADD SWAP1 POP SWAP2 SWAP1 POP JUMP JUMPDEST PUSH1 0x0 PUSH1 0x20 DUP3 ADD SWAP1 POP DUP2 DUP2 SUB PUSH1 0x0 DUP4 ADD MSTORE PUSH2 0x921C DUP2 PUSH2 0x91E0 JUMP JUMPDEST SWAP1 POP SWAP2 SWAP1 POP JUMP JUMPDEST PUSH2 0x922C DUP2 PUSH2 0x7CE3 JUMP JUMPDEST DUP3 MSTORE POP POP JUMP JUMPDEST PUSH1 0x0 PUSH1 0x80 DUP3 ADD SWAP1 POP DUP2 DUP2 SUB PUSH1 0x0 DUP4 ADD MSTORE PUSH2 0x924C DUP2 DUP8 PUSH2 0x8DA2 JUMP JUMPDEST SWAP1 POP PUSH2 0x925B PUSH1 0x20 DUP4 ADD DUP7 PUSH2 0x9029 JUMP JUMPDEST PUSH2 0x9268 PUSH1 0x40 DUP4 ADD DUP6 PUSH2 0x9029 JUMP JUMPDEST PUSH2 0x9275 PUSH1 0x60 DUP4 ADD DUP5 PUSH2 0x9223 JUMP JUMPDEST SWAP6 SWAP5 POP POP POP POP POP JUMP JUMPDEST PUSH32 0x42616E6B20496420456D70747900000000000000000000000000000000000000 PUSH1 0x0 DUP3 ADD MSTORE POP JUMP JUMPDEST PUSH1 0x0 PUSH2 0x92B4 PUSH1 0xD DUP4 PUSH2 0x876C JUMP JUMPDEST SWAP2 POP PUSH2 0x92BF DUP3 PUSH2 0x927E JUMP JUMPDEST PUSH1 0x20 DUP3 ADD SWAP1 POP SWAP2 SWAP1 POP JUMP JUMPDEST PUSH1 0x0 PUSH1 0x20 DUP3 ADD SWAP1 POP DUP2 DUP2 SUB PUSH1 0x0 DUP4 ADD MSTORE PUSH2 0x92E3 DUP2 PUSH2 0x92A7 JUMP JUMPDEST SWAP1 POP SWAP2 SWAP1 POP JUMP JUMPDEST PUSH1 0x0 DUP2 PUSH1 0x60 SHL SWAP1 POP SWAP2 SWAP1 POP JUMP JUMPDEST PUSH1 0x0 PUSH2 0x9302 DUP3 PUSH2 0x92EA JUMP JUMPDEST SWAP1 POP SWAP2 SWAP1 POP JUMP JUMPDEST PUSH1 0x0 PUSH2 0x9314 DUP3 PUSH2 0x92F7 JUMP JUMPDEST SWAP1 POP SWAP2 SWAP1 POP JUMP JUMPDEST PUSH2 0x932C PUSH2 0x9327 DUP3 PUSH2 0x763C JUMP JUMPDEST PUSH2 0x9309 JUMP JUMPDEST DUP3 MSTORE POP POP JUMP JUMPDEST PUSH1 0x0 PUSH2 0x933E DUP3 DUP6 PUSH2 0x931B JUMP JUMPDEST PUSH1 0x14 DUP3 ADD SWAP2 POP PUSH2 0x934E DUP3 DUP5 PUSH2 0x931B JUMP JUMPDEST PUSH1 0x14 DUP3 ADD SWAP2 POP DUP2 SWAP1 POP SWAP4 SWAP3 POP POP POP JUMP JUMPDEST PUSH32 0x5265717565737420496420656D70747900000000000000000000000000000000 PUSH1 0x0 DUP3 ADD MSTORE POP JUMP JUMPDEST PUSH1 0x0 PUSH2 0x9394 PUSH1 0x10 DUP4 PUSH2 0x876C JUMP JUMPDEST SWAP2 POP PUSH2 0x939F DUP3 PUSH2 0x935E JUMP JUMPDEST PUSH1 0x20 DUP3 ADD SWAP1 POP SWAP2 SWAP1 POP JUMP JUMPDEST PUSH1 0x0 PUSH1 0x20 DUP3 ADD SWAP1 POP DUP2 DUP2 SUB PUSH1 0x0 DUP4 ADD MSTORE PUSH2 0x93C3 DUP2 PUSH2 0x9387 JUMP JUMPDEST SWAP1 POP SWAP2 SWAP1 POP JUMP JUMPDEST PUSH32 0x496420697320656D707479000000000000000000000000000000000000000000 PUSH1 0x0 DUP3 ADD MSTORE POP JUMP JUMPDEST PUSH1 0x0 PUSH2 0x9400 PUSH1 0xB DUP4 PUSH2 0x876C JUMP JUMPDEST SWAP2 POP PUSH2 0x940B DUP3 PUSH2 0x93CA JUMP JUMPDEST PUSH1 0x20 DUP3 ADD SWAP1 POP SWAP2 SWAP1 POP JUMP JUMPDEST PUSH1 0x0 PUSH1 0x20 DUP3 ADD SWAP1 POP DUP2 DUP2 SUB PUSH1 0x0 DUP4 ADD MSTORE PUSH2 0x942F DUP2 PUSH2 0x93F3 JUMP JUMPDEST SWAP1 POP SWAP2 SWAP1 POP JUMP JUMPDEST PUSH32 0x42616E6B20657869737473000000000000000000000000000000000000000000 PUSH1 0x0 DUP3 ADD MSTORE POP JUMP JUMPDEST PUSH1 0x0 PUSH2 0x946C PUSH1 0xB DUP4 PUSH2 0x876C JUMP JUMPDEST SWAP2 POP PUSH2 0x9477 DUP3 PUSH2 0x9436 JUMP JUMPDEST PUSH1 0x20 DUP3 ADD SWAP1 POP SWAP2 SWAP1 POP JUMP JUMPDEST PUSH1 0x0 PUSH1 0x20 DUP3 ADD SWAP1 POP DUP2 DUP2 SUB PUSH1 0x0 DUP4 ADD MSTORE PUSH2 0x949B DUP2 PUSH2 0x945F JUMP JUMPDEST SWAP1 POP SWAP2 SWAP1 POP JUMP JUMPDEST PUSH1 0x0 PUSH1 0x80 DUP3 ADD SWAP1 POP PUSH2 0x94B7 PUSH1 0x0 DUP4 ADD DUP8 PUSH2 0x9029 JUMP JUMPDEST DUP2 DUP2 SUB PUSH1 0x20 DUP4 ADD MSTORE PUSH2 0x94C9 DUP2 DUP7 PUSH2 0x8DA2 JUMP JUMPDEST SWAP1 POP DUP2 DUP2 SUB PUSH1 0x40 DUP4 ADD MSTORE PUSH2 0x94DD DUP2 DUP6 PUSH2 0x8DA2 JUMP JUMPDEST SWAP1 POP DUP2 DUP2 SUB PUSH1 0x60 DUP4 ADD MSTORE PUSH2 0x94F1 DUP2 DUP5 PUSH2 0x8DA2 JUMP JUMPDEST SWAP1 POP SWAP6 SWAP5 POP POP POP POP POP JUMP JUMPDEST PUSH1 0x0 PUSH1 0x60 DUP3 ADD SWAP1 POP PUSH2 0x9511 PUSH1 0x0 DUP4 ADD DUP7 PUSH2 0x9029 JUMP JUMPDEST DUP2 DUP2 SUB PUSH1 0x20 DUP4 ADD MSTORE PUSH2 0x9523 DUP2 DUP6 PUSH2 0x8DA2 JUMP JUMPDEST SWAP1 POP DUP2 DUP2 SUB PUSH1 0x40 DUP4 ADD MSTORE PUSH2 0x9537 DUP2 DUP5 PUSH2 0x8DA2 JUMP JUMPDEST SWAP1 POP SWAP5 SWAP4 POP POP POP POP JUMP JUMPDEST PUSH32 0x504E2073686F756C64206265203E203000000000000000000000000000000000 PUSH1 0x0 DUP3 ADD MSTORE POP JUMP JUMPDEST PUSH1 0x0 PUSH2 0x9577 PUSH1 0x10 DUP4 PUSH2 0x876C JUMP JUMPDEST SWAP2 POP PUSH2 0x9582 DUP3 PUSH2 0x9541 JUMP JUMPDEST PUSH1 0x20 DUP3 ADD SWAP1 POP SWAP2 SWAP1 POP JUMP JUMPDEST PUSH1 0x0 PUSH1 0x20 DUP3 ADD SWAP1 POP DUP2 DUP2 SUB PUSH1 0x0 DUP4 ADD MSTORE PUSH2 0x95A6 DUP2 PUSH2 0x956A JUMP JUMPDEST SWAP1 POP SWAP2 SWAP1 POP JUMP JUMPDEST PUSH1 0x0 PUSH1 0x60 DUP3 ADD SWAP1 POP PUSH2 0x95C2 PUSH1 0x0 DUP4 ADD DUP7 PUSH2 0x9029 JUMP JUMPDEST DUP2 DUP2 SUB PUSH1 0x20 DUP4 ADD MSTORE PUSH2 0x95D4 DUP2 DUP6 PUSH2 0x8DDB JUMP JUMPDEST SWAP1 POP DUP2 DUP2 SUB PUSH1 0x40 DUP4 ADD MSTORE PUSH2 0x95E8 DUP2 DUP5 PUSH2 0x8DA2 JUMP JUMPDEST SWAP1 POP SWAP5 SWAP4 POP POP POP POP JUMP JUMPDEST PUSH1 0x0 PUSH1 0x40 DUP3 ADD SWAP1 POP PUSH2 0x9607 PUSH1 0x0 DUP4 ADD DUP6 PUSH2 0x9029 JUMP JUMPDEST DUP2 DUP2 SUB PUSH1 0x20 DUP4 ADD MSTORE PUSH2 0x9619 DUP2 DUP5 PUSH2 0x8DDB JUMP JUMPDEST SWAP1 POP SWAP4 SWAP3 POP POP POP JUMP JUMPDEST PUSH32 0x504E2073686F756C64206265203E207A65726F00000000000000000000000000 PUSH1 0x0 DUP3 ADD MSTORE POP JUMP JUMPDEST PUSH1 0x0 PUSH2 0x9658 PUSH1 0x13 DUP4 PUSH2 0x876C JUMP JUMPDEST SWAP2 POP PUSH2 0x9663 DUP3 PUSH2 0x9622 JUMP JUMPDEST PUSH1 0x20 DUP3 ADD SWAP1 POP SWAP2 SWAP1 POP JUMP JUMPDEST PUSH1 0x0 PUSH1 0x20 DUP3 ADD SWAP1 POP DUP2 DUP2 SUB PUSH1 0x0 DUP4 ADD MSTORE PUSH2 0x9687 DUP2 PUSH2 0x964B JUMP JUMPDEST SWAP1 POP SWAP2 SWAP1 POP JUMP JUMPDEST PUSH1 0x0 PUSH2 0x9699 DUP3 PUSH2 0x782B JUMP JUMPDEST SWAP2 POP PUSH2 0xFFFF DUP3 SUB PUSH2 0x96AD JUMPI PUSH2 0x96AC PUSH2 0x8F46 JUMP JUMPDEST JUMPDEST PUSH1 0x1 DUP3 ADD SWAP1 POP SWAP2 SWAP1 POP JUMP JUMPDEST PUSH32 0x437573746F6D657220496420456D707479000000000000000000000000000000 PUSH1 0x0 DUP3 ADD MSTORE POP JUMP JUMPDEST PUSH1 0x0 PUSH2 0x96EE PUSH1 0x11 DUP4 PUSH2 0x876C JUMP JUMPDEST SWAP2 POP PUSH2 0x96F9 DUP3 PUSH2 0x96B8 JUMP JUMPDEST PUSH1 0x20 DUP3 ADD SWAP1 POP SWAP2 SWAP1 POP JUMP JUMPDEST PUSH1 0x0 PUSH1 0x20 DUP3 ADD SWAP1 POP DUP2 DUP2 SUB PUSH1 0x0 DUP4 ADD MSTORE PUSH2 0x971D DUP2 PUSH2 0x96E1 JUMP JUMPDEST SWAP1 POP SWAP2 SWAP1 POP JUMP JUMPDEST PUSH32 0x4E487B7100000000000000000000000000000000000000000000000000000000 PUSH1 0x0 MSTORE PUSH1 0x12 PUSH1 0x4 MSTORE PUSH1 0x24 PUSH1 0x0 REVERT JUMPDEST PUSH1 0x0 PUSH2 0x975E DUP3 PUSH2 0x7737 JUMP JUMPDEST SWAP2 POP PUSH2 0x9769 DUP4 PUSH2 0x7737 JUMP JUMPDEST SWAP3 POP DUP3 PUSH2 0x9779 JUMPI PUSH2 0x9778 PUSH2 0x9724 JUMP JUMPDEST JUMPDEST DUP3 DUP3 MOD SWAP1 POP SWAP3 SWAP2 POP POP JUMP JUMPDEST PUSH1 0x0 PUSH2 0x978F DUP3 PUSH2 0x7737 JUMP JUMPDEST SWAP2 POP PUSH2 0x979A DUP4 PUSH2 0x7737 JUMP JUMPDEST SWAP3 POP DUP3 PUSH2 0x97AA JUMPI PUSH2 0x97A9 PUSH2 0x9724 JUMP JUMPDEST JUMPDEST DUP3 DUP3 DIV SWAP1 POP SWAP3 SWAP2 POP POP JUMP JUMPDEST PUSH1 0x0 PUSH2 0x97C0 DUP3 PUSH2 0x7737 JUMP JUMPDEST SWAP2 POP PUSH2 0x97CB DUP4 PUSH2 0x7737 JUMP JUMPDEST SWAP3 POP DUP3 DUP3 SUB SWAP1 POP DUP2 DUP2 GT ISZERO PUSH2 0x97E3 JUMPI PUSH2 0x97E2 PUSH2 0x8F46 JUMP JUMPDEST JUMPDEST SWAP3 SWAP2 POP POP JUMP JUMPDEST PUSH1 0x0 PUSH2 0x97F4 DUP3 PUSH2 0x7737 JUMP JUMPDEST SWAP2 POP PUSH2 0x97FF DUP4 PUSH2 0x7737 JUMP JUMPDEST SWAP3 POP DUP3 DUP3 MUL PUSH2 0x980D DUP2 PUSH2 0x7737 JUMP JUMPDEST SWAP2 POP DUP3 DUP3 DIV DUP5 EQ DUP4 ISZERO OR PUSH2 0x9824 JUMPI PUSH2 0x9823 PUSH2 0x8F46 JUMP JUMPDEST JUMPDEST POP SWAP3 SWAP2 POP POP JUMP INVALID LOG2 PUSH5 0x6970667358 0x22 SLT KECCAK256 MLOAD SWAP16 PUSH18 0xDB6C1063127D65826DDDFB2159916BC75868 0x5E DUP13 SWAP8 ADDRESS CALLER INVALID 0x24 DUP4 AND 0xF8 0xC1 PUSH5 0x736F6C6343 STOP ADDMOD SLT STOP CALLER "
	},
	"Assembly": ".code\n  PUSH 80\t\t\tcontract KYC is Customers, Ban...\n  PUSH 40\t\t\tcontract KYC is Customers, Ban...\n  MSTORE \t\t\tcontract KYC is Customers, Ban...\n  CALLVALUE \t\t\tconstructor(string memory name...\n  DUP1 \t\t\tconstructor(string memory name...\n  ISZERO \t\t\tconstructor(string memory name...\n  PUSH [tag] 1\t\t\tconstructor(string memory name...\n  JUMPI \t\t\tconstructor(string memory name...\n  PUSH 0\t\t\tconstructor(string memory name...\n  DUP1 \t\t\tconstructor(string memory name...\n  REVERT \t\t\tconstructor(string memory name...\ntag 1\t\t\tconstructor(string memory name...\n  JUMPDEST \t\t\tconstructor(string memory name...\n  POP \t\t\tconstructor(string memory name...\n  PUSH 40\t\t\tconstructor(string memory name...\n  MLOAD \t\t\tconstructor(string memory name...\n  PUSHSIZE \t\t\tconstructor(string memory name...\n  CODESIZE \t\t\tconstructor(string memory name...\n  SUB \t\t\tconstructor(string memory name...\n  DUP1 \t\t\tconstructor(string memory name...\n  PUSHSIZE \t\t\tconstructor(string memory name...\n  DUP4 \t\t\tconstructor(string memory name...\n  CODECOPY \t\t\tconstructor(string memory name...\n  DUP2 \t\t\tconstructor(string memory name...\n  DUP2 \t\t\tconstructor(string memory name...\n  ADD \t\t\tconstructor(string memory name...\n  PUSH 40\t\t\tconstructor(string memory name...\n  MSTORE \t\t\tconstructor(string memory name...\n  DUP2 \t\t\tconstructor(string memory name...\n  ADD \t\t\tconstructor(string memory name...\n  SWAP1 \t\t\tconstructor(string memory name...\n  PUSH [tag] 2\t\t\tconstructor(string memory name...\n  SWAP2 \t\t\tconstructor(string memory name...\n  SWAP1 \t\t\tconstructor(string memory name...\n  PUSH [tag] 3\t\t\tconstructor(string memory name...\n  JUMP \t\t\tconstructor(string memory name...\ntag 2\t\t\tconstructor(string memory name...\n  JUMPDEST \t\t\tconstructor(string memory name...\n  CALLER \t\t\tmsg.sender\n  PUSH 4\t\t\tadmin\n  PUSH 0\t\t\tadmin\n  PUSH 100\t\t\tadmin = msg.sender\n  EXP \t\t\tadmin = msg.sender\n  DUP2 \t\t\tadmin = msg.sender\n  SLOAD \t\t\tadmin = msg.sender\n  DUP2 \t\t\tadmin = msg.sender\n  PUSH FFFFFFFFFFFFFFFFFFFFFFFFFFFFFFFFFFFFFFFF\t\t\tadmin = msg.sender\n  MUL \t\t\tadmin = msg.sender\n  NOT \t\t\tadmin = msg.sender\n  AND \t\t\tadmin = msg.sender\n  SWAP1 \t\t\tadmin = msg.sender\n  DUP4 \t\t\tadmin = msg.sender\n  PUSH FFFFFFFFFFFFFFFFFFFFFFFFFFFFFFFFFFFFFFFF\t\t\tadmin = msg.sender\n  AND \t\t\tadmin = msg.sender\n  MUL \t\t\tadmin = msg.sender\n  OR \t\t\tadmin = msg.sender\n  SWAP1 \t\t\tadmin = msg.sender\n  SSTORE \t\t\tadmin = msg.sender\n  POP \t\t\tadmin = msg.sender\n  PUSH 0\t\t\tTypes.User memory usr_\n  PUSH 40\t\t\tTypes.User({\\r\\n            na...\n  MLOAD \t\t\tTypes.User({\\r\\n            na...\n  DUP1 \t\t\tTypes.User({\\r\\n            na...\n  PUSH A0\t\t\tTypes.User({\\r\\n            na...\n  ADD \t\t\tTypes.User({\\r\\n            na...\n  PUSH 40\t\t\tTypes.User({\\r\\n            na...\n  MSTORE \t\t\tTypes.User({\\r\\n            na...\n  DUP1 \t\t\tTypes.User({\\r\\n            na...\n  DUP5 \t\t\tname_\n  DUP2 \t\t\tTypes.User({\\r\\n            na...\n  MSTORE \t\t\tTypes.User({\\r\\n            na...\n  PUSH 20\t\t\tTypes.User({\\r\\n            na...\n  ADD \t\t\tTypes.User({\\r\\n            na...\n  DUP4 \t\t\temail_\n  DUP2 \t\t\tTypes.User({\\r\\n            na...\n  MSTORE \t\t\tTypes.User({\\r\\n            na...\n  PUSH 20\t\t\tTypes.User({\\r\\n            na...\n  ADD \t\t\tTypes.User({\\r\\n            na...\n  PUSH 4\t\t\tadmin\n  PUSH 0\t\t\tadmin\n  SWAP1 \t\t\tadmin\n  SLOAD \t\t\tadmin\n  SWAP1 \t\t\tadmin\n  PUSH 100\t\t\tadmin\n  EXP \t\t\tadmin\n  SWAP1 \t\t\tadmin\n  DIV \t\t\tadmin\n  PUSH FFFFFFFFFFFFFFFFFFFFFFFFFFFFFFFFFFFFFFFF\t\t\tadmin\n  AND \t\t\tadmin\n  PUSH FFFFFFFFFFFFFFFFFFFFFFFFFFFFFFFFFFFFFFFF\t\t\tTypes.User({\\r\\n            na...\n  AND \t\t\tTypes.User({\\r\\n            na...\n  DUP2 \t\t\tTypes.User({\\r\\n            na...\n  MSTORE \t\t\tTypes.User({\\r\\n            na...\n  PUSH 20\t\t\tTypes.User({\\r\\n            na...\n  ADD \t\t\tTypes.User({\\r\\n            na...\n  PUSH 0\t\t\tTypes.Role.Admin\n  PUSH 2\t\t\tTypes.User({\\r\\n            na...\n  DUP2 \t\t\tTypes.User({\\r\\n            na...\n  GT \t\t\tTypes.User({\\r\\n            na...\n  ISZERO \t\t\tTypes.User({\\r\\n            na...\n  PUSH [tag] 6\t\t\tTypes.User({\\r\\n            na...\n  JUMPI \t\t\tTypes.User({\\r\\n            na...\n  PUSH [tag] 7\t\t\tTypes.User({\\r\\n            na...\n  PUSH [tag] 8\t\t\tTypes.User({\\r\\n            na...\n  JUMP \t\t\tTypes.User({\\r\\n            na...\ntag 7\t\t\tTypes.User({\\r\\n            na...\n  JUMPDEST \t\t\tTypes.User({\\r\\n            na...\ntag 6\t\t\tTypes.User({\\r\\n            na...\n  JUMPDEST \t\t\tTypes.User({\\r\\n            na...\n  DUP2 \t\t\tTypes.User({\\r\\n            na...\n  MSTORE \t\t\tTypes.User({\\r\\n            na...\n  PUSH 20\t\t\tTypes.User({\\r\\n            na...\n  ADD \t\t\tTypes.User({\\r\\n            na...\n  PUSH 0\t\t\tTypes.BankStatus.Active\n  PUSH 1\t\t\tTypes.User({\\r\\n            na...\n  DUP2 \t\t\tTypes.User({\\r\\n            na...\n  GT \t\t\tTypes.User({\\r\\n            na...\n  ISZERO \t\t\tTypes.User({\\r\\n            na...\n  PUSH [tag] 9\t\t\tTypes.User({\\r\\n            na...\n  JUMPI \t\t\tTypes.User({\\r\\n            na...\n  PUSH [tag] 10\t\t\tTypes.User({\\r\\n            na...\n  PUSH [tag] 8\t\t\tTypes.User({\\r\\n            na...\n  JUMP \t\t\tTypes.User({\\r\\n            na...\ntag 10\t\t\tTypes.User({\\r\\n            na...\n  JUMPDEST \t\t\tTypes.User({\\r\\n            na...\ntag 9\t\t\tTypes.User({\\r\\n            na...\n  JUMPDEST \t\t\tTypes.User({\\r\\n            na...\n  DUP2 \t\t\tTypes.User({\\r\\n            na...\n  MSTORE \t\t\tTypes.User({\\r\\n            na...\n  POP \t\t\tTypes.User({\\r\\n            na...\n  SWAP1 \t\t\tTypes.User memory usr_ = Types...\n  POP \t\t\tTypes.User memory usr_ = Types...\n  DUP1 \t\t\tusr_\n  PUSH 6\t\t\tusers\n  PUSH 0\t\t\tusers[admin]\n  PUSH 4\t\t\tadmin\n  PUSH 0\t\t\tadmin\n  SWAP1 \t\t\tadmin\n  SLOAD \t\t\tadmin\n  SWAP1 \t\t\tadmin\n  PUSH 100\t\t\tadmin\n  EXP \t\t\tadmin\n  SWAP1 \t\t\tadmin\n  DIV \t\t\tadmin\n  PUSH FFFFFFFFFFFFFFFFFFFFFFFFFFFFFFFFFFFFFFFF\t\t\tadmin\n  AND \t\t\tadmin\n  PUSH FFFFFFFFFFFFFFFFFFFFFFFFFFFFFFFFFFFFFFFF\t\t\tusers[admin]\n  AND \t\t\tusers[admin]\n  PUSH FFFFFFFFFFFFFFFFFFFFFFFFFFFFFFFFFFFFFFFF\t\t\tusers[admin]\n  AND \t\t\tusers[admin]\n  DUP2 \t\t\tusers[admin]\n  MSTORE \t\t\tusers[admin]\n  PUSH 20\t\t\tusers[admin]\n  ADD \t\t\tusers[admin]\n  SWAP1 \t\t\tusers[admin]\n  DUP2 \t\t\tusers[admin]\n  MSTORE \t\t\tusers[admin]\n  PUSH 20\t\t\tusers[admin]\n  ADD \t\t\tusers[admin]\n  PUSH 0\t\t\tusers[admin]\n  KECCAK256 \t\t\tusers[admin]\n  PUSH 0\t\t\tusers[admin] = usr_\n  DUP3 \t\t\tusers[admin] = usr_\n  ADD \t\t\tusers[admin] = usr_\n  MLOAD \t\t\tusers[admin] = usr_\n  DUP2 \t\t\tusers[admin] = usr_\n  PUSH 0\t\t\tusers[admin] = usr_\n  ADD \t\t\tusers[admin] = usr_\n  SWAP1 \t\t\tusers[admin] = usr_\n  DUP2 \t\t\tusers[admin] = usr_\n  PUSH [tag] 11\t\t\tusers[admin] = usr_\n  SWAP2 \t\t\tusers[admin] = usr_\n  SWAP1 \t\t\tusers[admin] = usr_\n  PUSH [tag] 12\t\t\tusers[admin] = usr_\n  JUMP \t\t\tusers[admin] = usr_\ntag 11\t\t\tusers[admin] = usr_\n  JUMPDEST \t\t\tusers[admin] = usr_\n  POP \t\t\tusers[admin] = usr_\n  PUSH 20\t\t\tusers[admin] = usr_\n  DUP3 \t\t\tusers[admin] = usr_\n  ADD \t\t\tusers[admin] = usr_\n  MLOAD \t\t\tusers[admin] = usr_\n  DUP2 \t\t\tusers[admin] = usr_\n  PUSH 1\t\t\tusers[admin] = usr_\n  ADD \t\t\tusers[admin] = usr_\n  SWAP1 \t\t\tusers[admin] = usr_\n  DUP2 \t\t\tusers[admin] = usr_\n  PUSH [tag] 13\t\t\tusers[admin] = usr_\n  SWAP2 \t\t\tusers[admin] = usr_\n  SWAP1 \t\t\tusers[admin] = usr_\n  PUSH [tag] 12\t\t\tusers[admin] = usr_\n  JUMP \t\t\tusers[admin] = usr_\ntag 13\t\t\tusers[admin] = usr_\n  JUMPDEST \t\t\tusers[admin] = usr_\n  POP \t\t\tusers[admin] = usr_\n  PUSH 40\t\t\tusers[admin] = usr_\n  DUP3 \t\t\tusers[admin] = usr_\n  ADD \t\t\tusers[admin] = usr_\n  MLOAD \t\t\tusers[admin] = usr_\n  DUP2 \t\t\tusers[admin] = usr_\n  PUSH 2\t\t\tusers[admin] = usr_\n  ADD \t\t\tusers[admin] = usr_\n  PUSH 0\t\t\tusers[admin] = usr_\n  PUSH 100\t\t\tusers[admin] = usr_\n  EXP \t\t\tusers[admin] = usr_\n  DUP2 \t\t\tusers[admin] = usr_\n  SLOAD \t\t\tusers[admin] = usr_\n  DUP2 \t\t\tusers[admin] = usr_\n  PUSH FFFFFFFFFFFFFFFFFFFFFFFFFFFFFFFFFFFFFFFF\t\t\tusers[admin] = usr_\n  MUL \t\t\tusers[admin] = usr_\n  NOT \t\t\tusers[admin] = usr_\n  AND \t\t\tusers[admin] = usr_\n  SWAP1 \t\t\tusers[admin] = usr_\n  DUP4 \t\t\tusers[admin] = usr_\n  PUSH FFFFFFFFFFFFFFFFFFFFFFFFFFFFFFFFFFFFFFFF\t\t\tusers[admin] = usr_\n  AND \t\t\tusers[admin] = usr_\n  MUL \t\t\tusers[admin] = usr_\n  OR \t\t\tusers[admin] = usr_\n  SWAP1 \t\t\tusers[admin] = usr_\n  SSTORE \t\t\tusers[admin] = usr_\n  POP \t\t\tusers[admin] = usr_\n  PUSH 60\t\t\tusers[admin] = usr_\n  DUP3 \t\t\tusers[admin] = usr_\n  ADD \t\t\tusers[admin] = usr_\n  MLOAD \t\t\tusers[admin] = usr_\n  DUP2 \t\t\tusers[admin] = usr_\n  PUSH 2\t\t\tusers[admin] = usr_\n  ADD \t\t\tusers[admin] = usr_\n  PUSH 14\t\t\tusers[admin] = usr_\n  PUSH 100\t\t\tusers[admin] = usr_\n  EXP \t\t\tusers[admin] = usr_\n  DUP2 \t\t\tusers[admin] = usr_\n  SLOAD \t\t\tusers[admin] = usr_\n  DUP2 \t\t\tusers[admin] = usr_\n  PUSH FF\t\t\tusers[admin] = usr_\n  MUL \t\t\tusers[admin] = usr_\n  NOT \t\t\tusers[admin] = usr_\n  AND \t\t\tusers[admin] = usr_\n  SWAP1 \t\t\tusers[admin] = usr_\n  DUP4 \t\t\tusers[admin] = usr_\n  PUSH 2\t\t\tusers[admin] = usr_\n  DUP2 \t\t\tusers[admin] = usr_\n  GT \t\t\tusers[admin] = usr_\n  ISZERO \t\t\tusers[admin] = usr_\n  PUSH [tag] 14\t\t\tusers[admin] = usr_\n  JUMPI \t\t\tusers[admin] = usr_\n  PUSH [tag] 15\t\t\tusers[admin] = usr_\n  PUSH [tag] 8\t\t\tusers[admin] = usr_\n  JUMP \t\t\tusers[admin] = usr_\ntag 15\t\t\tusers[admin] = usr_\n  JUMPDEST \t\t\tusers[admin] = usr_\ntag 14\t\t\tusers[admin] = usr_\n  JUMPDEST \t\t\tusers[admin] = usr_\n  MUL \t\t\tusers[admin] = usr_\n  OR \t\t\tusers[admin] = usr_\n  SWAP1 \t\t\tusers[admin] = usr_\n  SSTORE \t\t\tusers[admin] = usr_\n  POP \t\t\tusers[admin] = usr_\n  PUSH 80\t\t\tusers[admin] = usr_\n  DUP3 \t\t\tusers[admin] = usr_\n  ADD \t\t\tusers[admin] = usr_\n  MLOAD \t\t\tusers[admin] = usr_\n  DUP2 \t\t\tusers[admin] = usr_\n  PUSH 2\t\t\tusers[admin] = usr_\n  ADD \t\t\tusers[admin] = usr_\n  PUSH 15\t\t\tusers[admin] = usr_\n  PUSH 100\t\t\tusers[admin] = usr_\n  EXP \t\t\tusers[admin] = usr_\n  DUP2 \t\t\tusers[admin] = usr_\n  SLOAD \t\t\tusers[admin] = usr_\n  DUP2 \t\t\tusers[admin] = usr_\n  PUSH FF\t\t\tusers[admin] = usr_\n  MUL \t\t\tusers[admin] = usr_\n  NOT \t\t\tusers[admin] = usr_\n  AND \t\t\tusers[admin] = usr_\n  SWAP1 \t\t\tusers[admin] = usr_\n  DUP4 \t\t\tusers[admin] = usr_\n  PUSH 1\t\t\tusers[admin] = usr_\n  DUP2 \t\t\tusers[admin] = usr_\n  GT \t\t\tusers[admin] = usr_\n  ISZERO \t\t\tusers[admin] = usr_\n  PUSH [tag] 16\t\t\tusers[admin] = usr_\n  JUMPI \t\t\tusers[admin] = usr_\n  PUSH [tag] 17\t\t\tusers[admin] = usr_\n  PUSH [tag] 8\t\t\tusers[admin] = usr_\n  JUMP \t\t\tusers[admin] = usr_\ntag 17\t\t\tusers[admin] = usr_\n  JUMPDEST \t\t\tusers[admin] = usr_\ntag 16\t\t\tusers[admin] = usr_\n  JUMPDEST \t\t\tusers[admin] = usr_\n  MUL \t\t\tusers[admin] = usr_\n  OR \t\t\tusers[admin] = usr_\n  SWAP1 \t\t\tusers[admin] = usr_\n  SSTORE \t\t\tusers[admin] = usr_\n  POP \t\t\tusers[admin] = usr_\n  SWAP1 \t\t\tusers[admin] = usr_\n  POP \t\t\tusers[admin] = usr_\n  POP \t\t\tusers[admin] = usr_\n  PUSH 5\t\t\tuserList\n  PUSH 4\t\t\tadmin\n  PUSH 0\t\t\tadmin\n  SWAP1 \t\t\tadmin\n  SLOAD \t\t\tadmin\n  SWAP1 \t\t\tadmin\n  PUSH 100\t\t\tadmin\n  EXP \t\t\tadmin\n  SWAP1 \t\t\tadmin\n  DIV \t\t\tadmin\n  PUSH FFFFFFFFFFFFFFFFFFFFFFFFFFFFFFFFFFFFFFFF\t\t\tadmin\n  AND \t\t\tadmin\n  SWAP1 \t\t\tuserList.push(admin)\n  DUP1 \t\t\tuserList.push(admin)\n  PUSH 1\t\t\tuserList.push(admin)\n  DUP2 \t\t\tuserList.push(admin)\n  SLOAD \t\t\tuserList.push(admin)\n  ADD \t\t\tuserList.push(admin)\n  DUP1 \t\t\tuserList.push(admin)\n  DUP3 \t\t\tuserList.push(admin)\n  SSTORE \t\t\tuserList.push(admin)\n  DUP1 \t\t\tuserList.push(admin)\n  SWAP2 \t\t\tuserList.push(admin)\n  POP \t\t\tuserList.push(admin)\n  POP \t\t\tuserList.push(admin)\n  PUSH 1\t\t\tuserList.push(admin)\n  SWAP1 \t\t\tuserList.push(admin)\n  SUB \t\t\tuserList.push(admin)\n  SWAP1 \t\t\tuserList.push(admin)\n  PUSH 0\t\t\tuserList.push(admin)\n  MSTORE \t\t\tuserList.push(admin)\n  PUSH 20\t\t\tuserList.push(admin)\n  PUSH 0\t\t\tuserList.push(admin)\n  KECCAK256 \t\t\tuserList.push(admin)\n  ADD \t\t\tuserList.push(admin)\n  PUSH 0\t\t\tuserList.push(admin)\n  SWAP1 \t\t\tuserList.push(admin)\n  SWAP2 \t\t\tuserList.push(admin)\n  SWAP1 \t\t\tuserList.push(admin)\n  SWAP2 \t\t\tuserList.push(admin)\n  SWAP1 \t\t\tuserList.push(admin)\n  SWAP2 \t\t\tuserList.push(admin)\n  PUSH 100\t\t\tuserList.push(admin)\n  EXP \t\t\tuserList.push(admin)\n  DUP2 \t\t\tuserList.push(admin)\n  SLOAD \t\t\tuserList.push(admin)\n  DUP2 \t\t\tuserList.push(admin)\n  PUSH FFFFFFFFFFFFFFFFFFFFFFFFFFFFFFFFFFFFFFFF\t\t\tuserList.push(admin)\n  MUL \t\t\tuserList.push(admin)\n  NOT \t\t\tuserList.push(admin)\n  AND \t\t\tuserList.push(admin)\n  SWAP1 \t\t\tuserList.push(admin)\n  DUP4 \t\t\tuserList.push(admin)\n  PUSH FFFFFFFFFFFFFFFFFFFFFFFFFFFFFFFFFFFFFFFF\t\t\tuserList.push(admin)\n  AND \t\t\tuserList.push(admin)\n  MUL \t\t\tuserList.push(admin)\n  OR \t\t\tuserList.push(admin)\n  SWAP1 \t\t\tuserList.push(admin)\n  SSTORE \t\t\tuserList.push(admin)\n  POP \t\t\tuserList.push(admin)\n  POP \t\t\t{\\r\\n        admin = msg.sende...\n  POP \t\t\tconstructor(string memory name...\n  POP \t\t\tconstructor(string memory name...\n  PUSH [tag] 19\t\t\tcontract KYC is Customers, Ban...\n  JUMP \t\t\tcontract KYC is Customers, Ban...\ntag 20\t\t\t-License-Identifier: GPL-3.0\\r...\n  JUMPDEST \t\t\t-License-Identifier: GPL-3.0\\r...\n  PUSH 0\t\t\tgma so\n  PUSH 40\t\t\tim\n  MLOAD \t\t\t0;\\r\\n\\r\\nimp\n  SWAP1 \t\t\t4.25 <0.9.0;\\r\\n\\r\\nimp\n  POP \t\t\t4.25 <0.9.0;\\r\\n\\r\\nimp\n  SWAP1 \t\t\t-License-Identifier: GPL-3.0\\r...\n  JUMP \t\t\t-License-Identifier: GPL-3.0\\r...\ntag 21\t\t\tmers.sol\";\\r\\nimport \"./Banks....\n  JUMPDEST \t\t\tmers.sol\";\\r\\nimport \"./Banks....\n  PUSH 0\t\t\tr\n  DUP1 \t\t\tn\n  REVERT \t\t\tess[] intern\ntag 22\t\t\t\\r\\n\\r\\n    mapping(address =>...\n  JUMPDEST \t\t\t\\r\\n\\r\\n    mapping(address =>...\n  PUSH 0\t\t\te\n  DUP1 \t\t\ty\n  REVERT \t\t\ternal kycReq\ntag 23\t\t\tmapping(address => address[]) ...\n  JUMPDEST \t\t\tmapping(address => address[]) ...\n  PUSH 0\t\t\te\n  DUP1 \t\t\td\n  REVERT \t\t\tpping(addres\ntag 24\t\t\t[]) internal customerbanks; //...\n  JUMPDEST \t\t\t[]) internal customerbanks; //...\n  PUSH 0\t\t\ti\n  DUP1 \t\t\ts\n  REVERT \t\t\tname_, strin\ntag 25\t\t\til_) {\\r\\n        admin = msg....\n  JUMPDEST \t\t\til_) {\\r\\n        admin = msg....\n  PUSH 0\t\t\t    Ty\n  PUSH 1F\t\t\t  \n  NOT \t\t\t       \n  PUSH 1F\t\t\t\\n \n  DUP4 \t\t\tUser(\n  ADD \t\t\tpes.User({\\r\\n  \n  AND \t\t\t= Types.User({\\r\\n            \n  SWAP1 \t\t\tmory usr_ = Types.User({\\r\\n  ...\n  POP \t\t\tmory usr_ = Types.User({\\r\\n  ...\n  SWAP2 \t\t\til_) {\\r\\n        admin = msg....\n  SWAP1 \t\t\til_) {\\r\\n        admin = msg....\n  POP \t\t\til_) {\\r\\n        admin = msg....\n  JUMP \t\t\til_) {\\r\\n        admin = msg....\ntag 26\t\t\t\\r\\n            email: email_,...\n  JUMPDEST \t\t\t\\r\\n            email: email_,...\n  PUSH 4E487B7100000000000000000000000000000000000000000000000000000000\t\t\tdmin,\\r\\n            role: Typ...\n  PUSH 0\t\t\t:\n  MSTORE \t\t\t    id_: admin,\\r\\n           ...\n  PUSH 41\t\t\t});\\r\n  PUSH 4\t\t\t \n  MSTORE \t\t\t\\r\\n        });\\r\\n\n  PUSH 24\t\t\t] = \n  PUSH 0\t\t\tm\n  REVERT \t\t\tsers[admin] = u\ntag 27\t\t\t  userList.push(admin);\\r\\n   ...\n  JUMPDEST \t\t\t  userList.push(admin);\\r\\n   ...\n  PUSH [tag] 61\t\t\tder == admin, \"Only admin i\n  DUP3 \t\t\tmin \n  PUSH [tag] 25\t\t\tder == admin, \"Only admin i\n  JUMP \t\t\tder == admin, \"Only admin i\ntag 61\t\t\tder == admin, \"Only admin i\n  JUMPDEST \t\t\tder == admin, \"Only admin i\n  DUP2 \t\t\t(msg.s\n  ADD \t\t\tuire(msg.sender == admin, \"Onl...\n  DUP2 \t\t\tl\\r\\n   \n  DUP2 \t\t\t     inter\n  LT \t\t\t        internal\\r\\n    \n  PUSH FFFFFFFFFFFFFFFF\t\t\tring memory reqId_\n  DUP3 \t\t\testExists(\n  GT \t\t\tequestExists(string memory req...\n  OR \t\t\tycRequestExists(string memory ...\n  ISZERO \t\t\tn kycRequestExists(string memo...\n  PUSH [tag] 62\t\t\tn kycRequestExists(string memo...\n  JUMPI \t\t\tn kycRequestExists(string memo...\n  PUSH [tag] 63\t\t\tview\\r\\n        retu\n  PUSH [tag] 26\t\t\tview\\r\\n        retu\n  JUMP \t\t\tview\\r\\n        retu\ntag 63\t\t\tview\\r\\n        retu\n  JUMPDEST \t\t\tview\\r\\n        retu\ntag 62\t\t\tn kycRequestExists(string memo...\n  JUMPDEST \t\t\tn kycRequestExists(string memo...\n  DUP1 \t\t\t     requi\n  PUSH 40\t\t\t\\n \n  MSTORE \t\t\t\\n    {\\r\\n        requir\n  POP \t\t\tier isAdmin() {\\r\\n        req...\n  POP \t\t\t  userList.push(admin);\\r\\n   ...\n  POP \t\t\t  userList.push(admin);\\r\\n   ...\n  JUMP \t\t\t  userList.push(admin);\\r\\n   ...\ntag 28\t\t\tompareStrings(reqId_, \"\"), \"Re...\n  JUMPDEST \t\t\tompareStrings(reqId_, \"\"), \"Re...\n  PUSH 0\t\t\tt Id e\n  PUSH [tag] 65\t\t\trn Helpers.compareSt\n  PUSH [tag] 20\t\t\trn Helpers.compareSt\n  JUMP \t\t\trn Helpers.compareSt\ntag 65\t\t\trn Helpers.compareSt\n  JUMPDEST \t\t\trn Helpers.compareSt\n  SWAP1 \t\t\t      return Helpers.compareSt\n  POP \t\t\t      return Helpers.compareSt\n  PUSH [tag] 66\t\t\tRequests[reqId_].id_, reqId_);...\n  DUP3 \t\t\t);\\r\\n\n  DUP3 \t\t\t, reqI\n  PUSH [tag] 27\t\t\tRequests[reqId_].id_, reqId_);...\n  JUMP \t\t\tRequests[reqId_].id_, reqId_);...\ntag 66\t\t\tRequests[reqId_].id_, reqId_);...\n  JUMPDEST \t\t\tRequests[reqId_].id_, reqId_);...\n  SWAP2 \t\t\tompareStrings(reqId_, \"\"), \"Re...\n  SWAP1 \t\t\tompareStrings(reqId_, \"\"), \"Re...\n  POP \t\t\tompareStrings(reqId_, \"\"), \"Re...\n  JUMP \t\t\tompareStrings(reqId_, \"\"), \"Re...\ntag 29\t\t\tfunction getKYCRequests(uint25...\n  JUMPDEST \t\t\tfunction getKYCRequests(uint25...\n  PUSH 0\t\t\t    \n  PUSH FFFFFFFFFFFFFFFF\t\t\tory)\\r\\n    {\\r\\n     \n  DUP3 \t\t\tst[] m\n  GT \t\t\tquest[] memory)\\r\\n    {\\r\\n  ...\n  ISZERO \t\t\tcRequest[] memory)\\r\\n    {\\r\\...\n  PUSH [tag] 68\t\t\tcRequest[] memory)\\r\\n    {\\r\\...\n  JUMPI \t\t\tcRequest[] memory)\\r\\n    {\\r\\...\n  PUSH [tag] 69\t\t\tequire(pageNumber \n  PUSH [tag] 26\t\t\tequire(pageNumber \n  JUMP \t\t\tequire(pageNumber \ntag 69\t\t\tequire(pageNumber \n  JUMPDEST \t\t\tequire(pageNumber \ntag 68\t\t\tcRequest[] memory)\\r\\n    {\\r\\...\n  JUMPDEST \t\t\tcRequest[] memory)\\r\\n    {\\r\\...\n  PUSH [tag] 70\t\t\t zero\");\\r\\n        (\\r\\n     ...\n  DUP3 \t\t\t      \n  PUSH [tag] 25\t\t\t zero\");\\r\\n        (\\r\\n     ...\n  JUMP \t\t\t zero\");\\r\\n        (\\r\\n     ...\ntag 70\t\t\t zero\");\\r\\n        (\\r\\n     ...\n  JUMPDEST \t\t\t zero\");\\r\\n        (\\r\\n     ...\n  SWAP1 \t\t\tuld be > zero\");\\r\\n        (\\...\n  POP \t\t\tuld be > zero\");\\r\\n        (\\...\n  PUSH 20\t\t\t    \n  DUP2 \t\t\th_,\\r\n  ADD \t\t\tength_,\\r\\n      \n  SWAP1 \t\t\t56 pageLength_,\\r\\n      \n  POP \t\t\t56 pageLength_,\\r\\n      \n  SWAP2 \t\t\tfunction getKYCRequests(uint25...\n  SWAP1 \t\t\tfunction getKYCRequests(uint25...\n  POP \t\t\tfunction getKYCRequests(uint25...\n  JUMP \t\t\tfunction getKYCRequests(uint25...\ntag 30\t\t\t startIndex_,\\r\\n            u...\n  JUMPDEST \t\t\t startIndex_,\\r\\n            u...\n  PUSH 0\t\t\t \ntag 72\t\t\t    pageNumber,\\r\\n           ...\n  JUMPDEST \t\t\t    pageNumber,\\r\\n           ...\n  DUP4 \t\t\t,\\r\\n   \n  DUP2 \t\t\tb\n  LT \t\t\tNumber,\\r\\n    \n  ISZERO \t\t\t    pageNumber,\\r\\n           ...\n  PUSH [tag] 74\t\t\t    pageNumber,\\r\\n           ...\n  JUMPI \t\t\t    pageNumber,\\r\\n           ...\n  DUP1 \t\t\t \n  DUP3 \t\t\t   \n  ADD \t\t\t]\\r\\n        \n  MLOAD \t\t\tsender]\\r\\n         \n  DUP2 \t\t\tm\n  DUP5 \t\t\tmer\n  ADD \t\t\tustomers[ms\n  MSTORE \t\t\t? bankCustomers[msg.sender]\\r\\...\n  PUSH 20\t\t\tor\n  DUP2 \t\t\ti\n  ADD \t\t\t    isForB\n  SWAP1 \t\t\t         isForB\n  POP \t\t\t         isForB\n  PUSH [tag] 72\t\t\t    pageNumber,\\r\\n           ...\n  JUMP \t\t\t    pageNumber,\\r\\n           ...\ntag 74\t\t\t    pageNumber,\\r\\n           ...\n  JUMPDEST \t\t\t    pageNumber,\\r\\n           ...\n  PUSH 0\t\t\t \n  DUP5 \t\t\tr]\\r\\n  \n  DUP5 \t\t\tsen\n  ADD \t\t\tmsg.sender]\\r\\n   \n  MSTORE \t\t\trbanks[msg.sender]\\r\\n       \n  POP \t\t\ters.getIndexes(\\r\\n           ...\n  POP \t\t\t startIndex_,\\r\\n            u...\n  POP \t\t\t startIndex_,\\r\\n            u...\n  POP \t\t\t startIndex_,\\r\\n            u...\n  JUMP \t\t\t startIndex_,\\r\\n            u...\ntag 31\t\t\t     Types.KycRequest[] memory...\n  JUMPDEST \t\t\t     Types.KycRequest[] memory...\n  PUSH 0\t\t\t(uint\n  PUSH [tag] 76\t\t\t i < endIndex_; i++)\\r\\n      ...\n  PUSH [tag] 77\t\t\ti++)\\r\\n            list_[i] =...\n  DUP5 \t\t\t      \n  PUSH [tag] 29\t\t\ti++)\\r\\n            list_[i] =...\n  JUMP \t\t\ti++)\\r\\n            list_[i] =...\ntag 77\t\t\ti++)\\r\\n            list_[i] =...\n  JUMPDEST \t\t\ti++)\\r\\n            list_[i] =...\n  PUSH [tag] 28\t\t\t i < endIndex_; i++)\\r\\n      ...\n  JUMP \t\t\t i < endIndex_; i++)\\r\\n      ...\ntag 76\t\t\t i < endIndex_; i++)\\r\\n      ...\n  JUMPDEST \t\t\t i < endIndex_; i++)\\r\\n      ...\n  SWAP1 \t\t\trtIndex_; i < endIndex_; i++)\\...\n  POP \t\t\trtIndex_; i < endIndex_; i++)\\...\n  DUP3 \t\t\t      \n  DUP2 \t\t\tsts[\\r\n  MSTORE \t\t\tycRequests[\\r\\n        \n  PUSH 20\t\t\tsend\n  DUP2 \t\t\tnd(ms\n  ADD \t\t\tappend(msg.sende\n  DUP5 \t\t\t\\n  \n  DUP5 \t\t\tder][i\n  DUP5 \t\t\tg.s\n  ADD \t\t\ts[msg.sender][i]\n  GT \t\t\tmers[msg.sender][i])\\r\\n   \n  ISZERO \t\t\tstomers[msg.sender][i])\\r\\n   ...\n  PUSH [tag] 78\t\t\tstomers[msg.sender][i])\\r\\n   ...\n  JUMPI \t\t\tstomers[msg.sender][i])\\r\\n   ...\n  PUSH [tag] 79\t\t\t          ]\\r\\n               ...\n  PUSH [tag] 24\t\t\t          ]\\r\\n               ...\n  JUMP \t\t\t          ]\\r\\n               ...\ntag 79\t\t\t          ]\\r\\n               ...\n  JUMPDEST \t\t\t          ]\\r\\n               ...\ntag 78\t\t\tstomers[msg.sender][i])\\r\\n   ...\n  JUMPDEST \t\t\tstomers[msg.sender][i])\\r\\n   ...\n  PUSH [tag] 80\t\t\tnks[msg.sender][i], msg.sender...\n  DUP5 \t\t\t    ];\n  DUP3 \t\t\t   \n  DUP6 \t\t\t   \n  PUSH [tag] 30\t\t\tnks[msg.sender][i], msg.sender...\n  JUMP \t\t\tnks[msg.sender][i], msg.sender...\ntag 80\t\t\tnks[msg.sender][i], msg.sender...\n  JUMPDEST \t\t\tnks[msg.sender][i], msg.sender...\n  POP \t\t\t56 i = startIndex_; i < endInd...\n  SWAP4 \t\t\t     Types.KycRequest[] memory...\n  SWAP3 \t\t\t     Types.KycRequest[] memory...\n  POP \t\t\t     Types.KycRequest[] memory...\n  POP \t\t\t     Types.KycRequest[] memory...\n  POP \t\t\t     Types.KycRequest[] memory...\n  JUMP \t\t\t     Types.KycRequest[] memory...\ntag 32\t\t\tst_);\\r\\n    }\\r\\n\\r\\n    even...\n  JUMPDEST \t\t\tst_);\\r\\n    }\\r\\n\\r\\n    even...\n  PUSH 0\t\t\tName,\n  DUP3 \t\t\tste\n  PUSH 1F\t\t\tReRe\n  DUP4 \t\t\tvent K\n  ADD \t\t\t   event KycReReq\n  SLT \t\t\t;\\r\\n    event KycReRequested\n  PUSH [tag] 82\t\t\ttomerName);\\r\\n    event KycRe...\n  JUMPI \t\t\ttomerName);\\r\\n    event KycRe...\n  PUSH [tag] 83\t\t\ting reqId, string bankName, st...\n  PUSH [tag] 23\t\t\ting reqId, string bankName, st...\n  JUMP \t\t\ting reqId, string bankName, st...\ntag 83\t\t\ting reqId, string bankName, st...\n  JUMPDEST \t\t\ting reqId, string bankName, st...\ntag 82\t\t\ttomerName);\\r\\n    event KycRe...\n  JUMPDEST \t\t\ttomerName);\\r\\n    event KycRe...\n  DUP2 \t\t\t addre\n  MLOAD \t\t\t       addres\n  PUSH [tag] 84\t\t\t     address bankId,\\r\\n      ...\n  DUP5 \t\t\tsio\n  DUP3 \t\t\tshPerm\n  PUSH 20\t\t\t Dat\n  DUP7 \t\t\t   eve\n  ADD \t\t\t;\\r\\n    event Data\n  PUSH [tag] 31\t\t\t     address bankId,\\r\\n      ...\n  JUMP \t\t\t     address bankId,\\r\\n      ...\ntag 84\t\t\t     address bankId,\\r\\n      ...\n  JUMPDEST \t\t\t     address bankId,\\r\\n      ...\n  SWAP2 \t\t\trId,\\r\\n        address bankId...\n  POP \t\t\trId,\\r\\n        address bankId...\n  POP \t\t\tstring customerName);\\r\\n    e...\n  SWAP3 \t\t\tst_);\\r\\n    }\\r\\n\\r\\n    even...\n  SWAP2 \t\t\tst_);\\r\\n    }\\r\\n\\r\\n    even...\n  POP \t\t\tst_);\\r\\n    }\\r\\n\\r\\n    even...\n  POP \t\t\tst_);\\r\\n    }\\r\\n\\r\\n    even...\n  JUMP \t\t\tst_);\\r\\n    }\\r\\n\\r\\n    even...\ntag 3\t\t\t      string reqId,\\r\\n       ...\n  JUMPDEST \t\t\t      string reqId,\\r\\n       ...\n  PUSH 0\t\t\tatus s\n  DUP1 \t\t\ttus\\r\\n \n  PUSH 40\t\t\t p\n  DUP4 \t\t\tanks(uint\n  DUP6 \t\t\tn getAl\n  SUB \t\t\tction getAllBanks(uint2\n  SLT \t\t\t function getAllBanks(uint256 ...\n  ISZERO \t\t\t    function getAllBanks(uint2...\n  PUSH [tag] 86\t\t\t    function getAllBanks(uint2...\n  JUMPI \t\t\t    function getAllBanks(uint2...\n  PUSH [tag] 87\t\t\tumber)\\r\\n        public\\r\\n  ...\n  PUSH [tag] 21\t\t\tumber)\\r\\n        public\\r\\n  ...\n  JUMP \t\t\tumber)\\r\\n        public\\r\\n  ...\ntag 87\t\t\tumber)\\r\\n        public\\r\\n  ...\n  JUMPDEST \t\t\tumber)\\r\\n        public\\r\\n  ...\ntag 86\t\t\t    function getAllBanks(uint2...\n  JUMPDEST \t\t\t    function getAllBanks(uint2...\n  PUSH 0\t\t\tl\n  DUP4 \t\t\teturn get\n  ADD \t\t\t   return getallb\n  MLOAD \t\t\t\\n        return getallba\n  PUSH FFFFFFFFFFFFFFFF\t\t\t    function addBa\n  DUP2 \t\t\t   }\\r\\n\n  GT \t\t\t\\r\\n    }\\r\\n\\r\\n    function ...\n  ISZERO \t\t\tr);\\r\\n    }\\r\\n\\r\\n    functi...\n  PUSH [tag] 88\t\t\tr);\\r\\n    }\\r\\n\\r\\n    functi...\n  JUMPI \t\t\tr);\\r\\n    }\\r\\n\\r\\n    functi...\n  PUSH [tag] 89\t\t\types.Bank memory bank_) public...\n  PUSH [tag] 22\t\t\types.Bank memory bank_) public...\n  JUMP \t\t\types.Bank memory bank_) public...\ntag 89\t\t\types.Bank memory bank_) public...\n  JUMPDEST \t\t\types.Bank memory bank_) public...\ntag 88\t\t\tr);\\r\\n    }\\r\\n\\r\\n    functi...\n  JUMPDEST \t\t\tr);\\r\\n    }\\r\\n\\r\\n    functi...\n  PUSH [tag] 90\t\t\t    users[bank_.id_] = Types.U...\n  DUP6 \t\t\t\\r\\n     \n  DUP3 \t\t\tnk_.na\n  DUP7 \t\t\t   name: \n  ADD \t\t\t       name: bank_.nam\n  PUSH [tag] 32\t\t\t    users[bank_.id_] = Types.U...\n  JUMP \t\t\t    users[bank_.id_] = Types.U...\ntag 90\t\t\t    users[bank_.id_] = Types.U...\n  JUMPDEST \t\t\t    users[bank_.id_] = Types.U...\n  SWAP3 \t\t\tlist\\r\\n        users[bank_.id...\n  POP \t\t\tlist\\r\\n        users[bank_.id...\n  POP \t\t\t Types.Bank[] memory)\\r\\n    {...\n  PUSH 20\t\t\tle\n  DUP4 \t\t\t         \n  ADD \t\t\t\\n            role:\n  MLOAD \t\t\t.id_,\\r\\n            role: \n  PUSH FFFFFFFFFFFFFFFF\t\t\t   status: Types.B\n  DUP2 \t\t\t      \n  GT \t\t\t\\r\\n            status: Types....\n  ISZERO \t\t\tnk,\\r\\n            status: Typ...\n  PUSH [tag] 91\t\t\tnk,\\r\\n            status: Typ...\n  JUMPI \t\t\tnk,\\r\\n            status: Typ...\n  PUSH [tag] 92\t\t\ttatus.Active\\r\\n        });\\r\\...\n  PUSH [tag] 22\t\t\ttatus.Active\\r\\n        });\\r\\...\n  JUMP \t\t\ttatus.Active\\r\\n        });\\r\\...\ntag 92\t\t\ttatus.Active\\r\\n        });\\r\\...\n  JUMPDEST \t\t\ttatus.Active\\r\\n        });\\r\\...\ntag 91\t\t\tnk,\\r\\n            status: Typ...\n  JUMPDEST \t\t\tnk,\\r\\n            status: Typ...\n  PUSH [tag] 93\t\t\t       address id_,\\r\\n       ...\n  DUP6 \t\t\t memory\n  DUP3 \t\t\t   str\n  DUP7 \t\t\til_,\\r\\n   \n  ADD \t\t\t email_,\\r\\n        stri\n  PUSH [tag] 32\t\t\t       address id_,\\r\\n       ...\n  JUMP \t\t\t       address id_,\\r\\n       ...\ntag 93\t\t\t       address id_,\\r\\n       ...\n  JUMPDEST \t\t\t       address id_,\\r\\n       ...\n  SWAP2 \t\t\tetails(\\r\\n        address id_...\n  POP \t\t\tetails(\\r\\n        address id_...\n  POP \t\t\tmail,\\r\\n            id_: bank...\n  SWAP3 \t\t\t      string reqId,\\r\\n       ...\n  POP \t\t\t      string reqId,\\r\\n       ...\n  SWAP3 \t\t\t      string reqId,\\r\\n       ...\n  SWAP1 \t\t\t      string reqId,\\r\\n       ...\n  POP \t\t\t      string reqId,\\r\\n       ...\n  JUMP \t\t\t      string reqId,\\r\\n       ...\ntag 8\t\t\tdmin {\\r\\n        updatebank(i...\n  JUMPDEST \t\t\tdmin {\\r\\n        updatebank(i...\n  PUSH 4E487B7100000000000000000000000000000000000000000000000000000000\t\t\t\\n        // Updating in commo...\n  PUSH 0\t\t\t)\n  MSTORE \t\t\t, name_);\\r\\n        // Updati...\n  PUSH 21\t\t\t ema\n  PUSH 4\t\t\tl\n  MSTORE \t\t\t_].email = emai\n  PUSH 24\t\t\tunct\n  PUSH 0\t\t\t \n  REVERT \t\t\t}\\r\\n\\r\\n    functi\ntag 33\t\t\teactivateBank(address id_, boo...\n  JUMPDEST \t\t\teactivateBank(address id_, boo...\n  PUSH 0\t\t\t  publ\n  DUP2 \t\t\t     \n  MLOAD \t\t\t   {\\r\\n      \n  SWAP1 \t\t\tisAdmin\\r\\n    {\\r\\n      \n  POP \t\t\tisAdmin\\r\\n    {\\r\\n      \n  SWAP2 \t\t\teactivateBank(address id_, boo...\n  SWAP1 \t\t\teactivateBank(address id_, boo...\n  POP \t\t\teactivateBank(address id_, boo...\n  JUMP \t\t\teactivateBank(address id_, boo...\ntag 34\t\t\t in common list\\r\\n        use...\n  JUMPDEST \t\t\t in common list\\r\\n        use...\n  PUSH 4E487B7100000000000000000000000000000000000000000000000000000000\t\t\tivatedeactivatebank(id_, makeA...\n  PUSH 0\t\t\ta\n  MSTORE \t\t\tatus = activatedeactivatebank(...\n  PUSH 22\t\t\ter)\\r\n  PUSH 4\t\t\tu\n  MSTORE \t\t\t6 pageNumber)\\r\\n\n  PUSH 24\t\t\t    \n  PUSH 0\t\t\t \n  REVERT \t\t\tublic\\r\\n        \ntag 35\t\t\t  isValidBank(msg.sender)\\r\\n ...\n  JUMPDEST \t\t\t  isValidBank(msg.sender)\\r\\n ...\n  PUSH 0\t\t\tuint25\n  PUSH 2\t\t\t]\n  DUP3 \t\t\tques\n  DIV \t\t\tycRequest[] \n  SWAP1 \t\t\ts, Types.KycRequest[] \n  POP \t\t\ts, Types.KycRequest[] \n  PUSH 1\t\t\t(\n  DUP3 \t\t\tques\n  AND \t\t\tYCRequests(p\n  DUP1 \t\t\t    }\\r\\n\\r\\n    /**\\r\\n\n  PUSH [tag] 98\t\t\t, true);\\r\\n    }\\r\\n\\r\\n    /...\n  JUMPI \t\t\t, true);\\r\\n    }\\r\\n\\r\\n    /...\n  PUSH 7F\t\t\t for\n  DUP3 \t\t\t reque\n  AND \t\t\t KYC request for \n  SWAP2 \t\t\tecords new KYC request for \n  POP \t\t\tecords new KYC request for \ntag 98\t\t\t, true);\\r\\n    }\\r\\n\\r\\n    /...\n  JUMPDEST \t\t\t, true);\\r\\n    }\\r\\n\\r\\n    /...\n  PUSH 20\t\t\twh\n  DUP3 \t\t\tils fo\n  LT \t\t\tetails for who\n  DUP2 \t\t\tcustomer_ Customer\n  SUB \t\t\tam customer_ Customer details ...\n  PUSH [tag] 99\t\t\tparam customer_ Customer detai...\n  JUMPI \t\t\tparam customer_ Customer detai...\n  PUSH [tag] 100\t\t\t to be raised\\r\\n   \n  PUSH [tag] 34\t\t\t to be raised\\r\\n   \n  JUMP \t\t\t to be raised\\r\\n   \ntag 100\t\t\t to be raised\\r\\n   \n  JUMPDEST \t\t\t to be raised\\r\\n   \ntag 99\t\t\tparam customer_ Customer detai...\n  JUMPDEST \t\t\tparam customer_ Customer detai...\n  POP \t\t\t totalPages, Types.KycRequest[...\n  SWAP2 \t\t\t  isValidBank(msg.sender)\\r\\n ...\n  SWAP1 \t\t\t  isValidBank(msg.sender)\\r\\n ...\n  POP \t\t\t  isValidBank(msg.sender)\\r\\n ...\n  JUMP \t\t\t  isValidBank(msg.sender)\\r\\n ...\ntag 36\t\t\t_ Current Date & Time in unix ...\n  JUMPDEST \t\t\t_ Current Date & Time in unix ...\n  PUSH 0\t\t\t   *\n  DUP2 \t\t\tadd\n  SWAP1 \t\t\tes_ Any add\n  POP \t\t\tes_ Any add\n  DUP2 \t\t\teed\n  PUSH 0\t\t\tt\n  MSTORE \t\t\ttes that need \n  PUSH 20\t\t\ttion\n  PUSH 0\t\t\tu\n  KECCAK256 \t\t\t */\\r\\n    function \n  SWAP1 \t\t\ted\\r\\n     */\\r\\n    function \n  POP \t\t\ted\\r\\n     */\\r\\n    function \n  SWAP2 \t\t\t_ Current Date & Time in unix ...\n  SWAP1 \t\t\t_ Current Date & Time in unix ...\n  POP \t\t\t_ Current Date & Time in unix ...\n  JUMP \t\t\t_ Current Date & Time in unix ...\ntag 37\t\t\t(\\r\\n        Types.Customer me...\n  JUMPDEST \t\t\t(\\r\\n        Types.Customer me...\n  PUSH 0\t\t\tomer_,\n  PUSH 20\t\t\tst\n  PUSH 1F\t\t\t  \n  DUP4 \t\t\t_,\\r\\n \n  ADD \t\t\tTime_,\\r\\n      \n  DIV \t\t\trentTime_,\\r\\n        str\n  SWAP1 \t\t\tint256 currentTime_,\\r\\n      ...\n  POP \t\t\tint256 currentTime_,\\r\\n      ...\n  SWAP2 \t\t\t(\\r\\n        Types.Customer me...\n  SWAP1 \t\t\t(\\r\\n        Types.Customer me...\n  POP \t\t\t(\\r\\n        Types.Customer me...\n  JUMP \t\t\t(\\r\\n        Types.Customer me...\ntag 38\t\t\totes_\\r\\n    ) public isValidB...\n  JUMPDEST \t\t\totes_\\r\\n    ) public isValidB...\n  PUSH 0\t\t\t{\\r\\n     \n  DUP3 \t\t\tsg.se\n  DUP3 \t\t\tpend\n  SHL \t\t\ts.append(msg.sen\n  SWAP1 \t\t\temory reqId_ = Helpers.append(...\n  POP \t\t\temory reqId_ = Helpers.append(...\n  SWAP3 \t\t\totes_\\r\\n    ) public isValidB...\n  SWAP2 \t\t\totes_\\r\\n    ) public isValidB...\n  POP \t\t\totes_\\r\\n    ) public isValidB...\n  POP \t\t\totes_\\r\\n    ) public isValidB...\n  JUMP \t\t\totes_\\r\\n    ) public isValidB...\ntag 39\t\t\t_.id_);\\r\\n        require(!ky...\n  JUMPDEST \t\t\t_.id_);\\r\\n        require(!ky...\n  PUSH 0\t\t\t.\");\\r\\n\n  PUSH 8\t\t\tu\n  DUP4 \t\t\tTypes.KycR\n  MUL \t\t\t] = Types.KycReque\n  PUSH [tag] 105\t\t\t: reqId_,\\r\\n            userI...\n  PUSH FFFFFFFFFFFFFFFFFFFFFFFFFFFFFFFFFFFFFFFFFFFFFFFFFFFFFFFFFFFFFFFF\t\t\t: customer_.id_,\\r\\n          ...\n  DUP3 \t\t\t    userI\n  PUSH [tag] 38\t\t\t: reqId_,\\r\\n            userI...\n  JUMP \t\t\t: reqId_,\\r\\n            userI...\ntag 105\t\t\t: reqId_,\\r\\n            userI...\n  JUMPDEST \t\t\t: reqId_,\\r\\n            userI...\n  PUSH [tag] 106\t\t\tnder,\\r\\n            bankName:...\n  DUP7 \t\t\tetsingle\n  DUP4 \t\t\tbankName:\n  PUSH [tag] 38\t\t\tnder,\\r\\n            bankName:...\n  JUMP \t\t\tnder,\\r\\n            bankName:...\ntag 106\t\t\tnder,\\r\\n            bankName:...\n  JUMPDEST \t\t\tnder,\\r\\n            bankName:...\n  SWAP6 \t\t\tkId_: msg.sender,\\r\\n         ...\n  POP \t\t\tkId_: msg.sender,\\r\\n         ...\n  DUP1 \t\t\t  da\n  NOT \t\t\t      dat\n  DUP5 \t\t\t\\n    \n  AND \t\t\tme,\\r\\n            data\n  SWAP4 \t\t\tender).name,\\r\\n            da...\n  POP \t\t\tender).name,\\r\\n            da...\n  DUP1 \t\t\ttedO\n  DUP7 \t\t\t      up\n  AND \t\t\t          updatedOn\n  DUP5 \t\t\tsh,\\r\\n\n  OR \t\t\taHash,\\r\\n            updatedO...\n  SWAP3 \t\t\ttomer_.dataHash,\\r\\n          ...\n  POP \t\t\ttomer_.dataHash,\\r\\n          ...\n  POP \t\t\t\\n        kycRequests[reqId_] ...\n  POP \t\t\t\\n        kycRequests[reqId_] ...\n  SWAP4 \t\t\t_.id_);\\r\\n        require(!ky...\n  SWAP3 \t\t\t_.id_);\\r\\n        require(!ky...\n  POP \t\t\t_.id_);\\r\\n        require(!ky...\n  POP \t\t\t_.id_);\\r\\n        require(!ky...\n  POP \t\t\t_.id_);\\r\\n        require(!ky...\n  JUMP \t\t\t_.id_);\\r\\n        require(!ky...\ntag 40\t\t\t_,\\r\\n            status: Type...\n  JUMPDEST \t\t\t_,\\r\\n            status: Type...\n  PUSH 0\t\t\tus.Pend\n  DUP2 \t\t\tReque\n  SWAP1 \t\t\t       dataReque\n  POP \t\t\t       dataReque\n  SWAP2 \t\t\t_,\\r\\n            status: Type...\n  SWAP1 \t\t\t_,\\r\\n            status: Type...\n  POP \t\t\t_,\\r\\n            status: Type...\n  JUMP \t\t\t_,\\r\\n            status: Type...\ntag 41\t\t\ttaHashStatus.Pending,\\r\\n     ...\n  JUMPDEST \t\t\ttaHashStatus.Pending,\\r\\n     ...\n  PUSH 0\t\t\t   \n  DUP2 \t\t\ts: no\n  SWAP1 \t\t\tnalNotes: no\n  POP \t\t\tnalNotes: no\n  SWAP2 \t\t\ttaHashStatus.Pending,\\r\\n     ...\n  SWAP1 \t\t\ttaHashStatus.Pending,\\r\\n     ...\n  POP \t\t\ttaHashStatus.Pending,\\r\\n     ...\n  JUMP \t\t\ttaHashStatus.Pending,\\r\\n     ...\ntag 42\t\t\t  });\\r\\n        bankCustomers...\n  JUMPDEST \t\t\t  });\\r\\n        bankCustomers...\n  PUSH 0\t\t\tomer_.id_\n  PUSH [tag] 110\t\t\ts[customer_.id_].push(msg.send...\n  PUSH [tag] 111\t\t\tush(msg.sender);\\r\\n        em...\n  PUSH [tag] 112\t\t\tender);\\r\\n        emit Ky\n  DUP5 \t\t\tmit K\n  PUSH [tag] 40\t\t\tender);\\r\\n        emit Ky\n  JUMP \t\t\tender);\\r\\n        emit Ky\ntag 112\t\t\tender);\\r\\n        emit Ky\n  JUMPDEST \t\t\tender);\\r\\n        emit Ky\n  PUSH [tag] 41\t\t\tush(msg.sender);\\r\\n        em...\n  JUMP \t\t\tush(msg.sender);\\r\\n        em...\ntag 111\t\t\tush(msg.sender);\\r\\n        em...\n  JUMPDEST \t\t\tush(msg.sender);\\r\\n        em...\n  PUSH [tag] 40\t\t\ts[customer_.id_].push(msg.send...\n  JUMP \t\t\ts[customer_.id_].push(msg.send...\ntag 110\t\t\ts[customer_.id_].push(msg.send...\n  JUMPDEST \t\t\ts[customer_.id_].push(msg.send...\n  SWAP1 \t\t\t customerbanks[customer_.id_]....\n  POP \t\t\t customerbanks[customer_.id_]....\n  SWAP2 \t\t\t  });\\r\\n        bankCustomers...\n  SWAP1 \t\t\t  });\\r\\n        bankCustomers...\n  POP \t\t\t  });\\r\\n        bankCustomers...\n  JUMP \t\t\t  });\\r\\n        bankCustomers...\ntag 43\t\t\t\\r\\n            reqId_,\\r\\n   ...\n  JUMPDEST \t\t\t\\r\\n            reqId_,\\r\\n   ...\n  PUSH 0\t\t\tsts\n  DUP2 \t\t\t\\r\\n   \n  SWAP1 \t\t\tnkName,\\r\\n   \n  POP \t\t\tnkName,\\r\\n   \n  SWAP2 \t\t\t\\r\\n            reqId_,\\r\\n   ...\n  SWAP1 \t\t\t\\r\\n            reqId_,\\r\\n   ...\n  POP \t\t\t\\r\\n            reqId_,\\r\\n   ...\n  JUMP \t\t\t\\r\\n            reqId_,\\r\\n   ...\ntag 44\t\t\ttomer_.name\\r\\n        );\\r\\n\\...\n  JUMPDEST \t\t\ttomer_.name\\r\\n        );\\r\\n\\...\n  PUSH [tag] 115\t\t\t\\n            // Adding to com...\n  DUP4 \t\t\tn list\\r\n  PUSH [tag] 42\t\t\t\\n            // Adding to com...\n  JUMP \t\t\t\\n            // Adding to com...\ntag 115\t\t\t\\n            // Adding to com...\n  JUMPDEST \t\t\t\\n            // Adding to com...\n  PUSH [tag] 116\t\t\tomer_.id_] = Types.User({\\r\\n ...\n  PUSH [tag] 117\t\t\tcustomer_.name,\\r\\n           ...\n  DUP3 \t\t\t         email: \n  PUSH [tag] 43\t\t\tcustomer_.name,\\r\\n           ...\n  JUMP \t\t\tcustomer_.name,\\r\\n           ...\ntag 117\t\t\tcustomer_.name,\\r\\n           ...\n  JUMPDEST \t\t\tcustomer_.name,\\r\\n           ...\n  DUP5 \t\t\t  name\n  DUP5 \t\t\t    \n  SLOAD \t\t\t           \n  PUSH [tag] 39\t\t\tomer_.id_] = Types.User({\\r\\n ...\n  JUMP \t\t\tomer_.id_] = Types.User({\\r\\n ...\ntag 116\t\t\tomer_.id_] = Types.User({\\r\\n ...\n  JUMPDEST \t\t\tomer_.id_] = Types.User({\\r\\n ...\n  DUP3 \t\t\ts[cu\n  SSTORE \t\t\t   users[customer_.id_] = Type...\n  POP \t\t\t          addcustomer(customer...\n  POP \t\t\ttomer_.name\\r\\n        );\\r\\n\\...\n  POP \t\t\ttomer_.name\\r\\n        );\\r\\n\\...\n  POP \t\t\ttomer_.name\\r\\n        );\\r\\n\\...\n  JUMP \t\t\ttomer_.name\\r\\n        );\\r\\n\\...\ntag 45\t\t\t,\\r\\n                id_: cust...\n  JUMPDEST \t\t\t,\\r\\n                id_: cust...\n  PUSH 0\t\t\t   \n  SWAP1 \t\t\t,\\r\\n                id_: cust...\n  JUMP \t\t\t,\\r\\n                id_: cust...\ntag 46\t\t\ter,\\r\\n                status:...\n  JUMPDEST \t\t\ter,\\r\\n                status:...\n  PUSH [tag] 120\t\t\t      userList.push(customer_....\n  PUSH [tag] 45\t\t\t      userList.push(customer_....\n  JUMP \t\t\t      userList.push(customer_....\ntag 120\t\t\t      userList.push(customer_....\n  JUMPDEST \t\t\t      userList.push(customer_....\n  PUSH [tag] 121\t\t\t    }\\r\\n    }\\r\\n\\r\\n    func...\n  DUP2 \t\t\ts id_,\n  DUP5 \t\t\tt(addr\n  DUP5 \t\t\tRequ\n  PUSH [tag] 44\t\t\t    }\\r\\n    }\\r\\n\\r\\n    func...\n  JUMP \t\t\t    }\\r\\n    }\\r\\n\\r\\n    func...\ntag 121\t\t\t    }\\r\\n    }\\r\\n\\r\\n    func...\n  JUMPDEST \t\t\t    }\\r\\n    }\\r\\n\\r\\n    func...\n  POP \t\t\t\\n            });\\r\\n         ...\n  POP \t\t\ter,\\r\\n                status:...\n  POP \t\t\ter,\\r\\n                status:...\n  JUMP \t\t\ter,\\r\\n                status:...\ntag 47\t\t\ty notes_)\\r\\n        public\\r\\...\n  JUMPDEST \t\t\ty notes_)\\r\\n        public\\r\\...\ntag 123\t\t\t    {\\r\\n        string memory...\n  JUMPDEST \t\t\t    {\\r\\n        string memory...\n  DUP2 \t\t\trin\n  DUP2 \t\t\t     \n  LT \t\t\t        string\n  ISZERO \t\t\t    {\\r\\n        string memory...\n  PUSH [tag] 125\t\t\t    {\\r\\n        string memory...\n  JUMPI \t\t\t    {\\r\\n        string memory...\n  PUSH [tag] 126\t\t\t\\n        require(kycRequestEx...\n  PUSH 0\t\t\tI\n  DUP3 \t\t\tsts(r\n  PUSH [tag] 46\t\t\t\\n        require(kycRequestEx...\n  JUMP \t\t\t\\n        require(kycRequestEx...\ntag 126\t\t\t\\n        require(kycRequestEx...\n  JUMPDEST \t\t\t\\n        require(kycRequestEx...\n  PUSH 1\t\t\ts\n  DUP2 \t\t\t Help\n  ADD \t\t\td_ = Helpers.\n  SWAP1 \t\t\tmory reqId_ = Helpers.\n  POP \t\t\tmory reqId_ = Helpers.\n  PUSH [tag] 123\t\t\t    {\\r\\n        string memory...\n  JUMP \t\t\t    {\\r\\n        string memory...\ntag 125\t\t\t    {\\r\\n        string memory...\n  JUMPDEST \t\t\t    {\\r\\n        string memory...\n  POP \t\t\ty notes_)\\r\\n        public\\r\\...\n  POP \t\t\ty notes_)\\r\\n        public\\r\\...\n  JUMP \t\t\ty notes_)\\r\\n        public\\r\\...\ntag 48\t\t\t\");\\r\\n        require(custome...\n  JUMPDEST \t\t\t\");\\r\\n        require(custome...\n  PUSH 1F\t\t\t =\n  DUP3 \t\t\ttat\n  GT \t\t\t].status = \n  ISZERO \t\t\tId_].status = Types.KycStatus....\n  PUSH [tag] 128\t\t\tId_].status = Types.KycStatus....\n  JUMPI \t\t\tId_].status = Types.KycStatus....\n  PUSH [tag] 129\t\t\t   kycRequests[reqId_].dataReq...\n  DUP2 \t\t\tst = \n  PUSH [tag] 36\t\t\t   kycRequests[reqId_].dataReq...\n  JUMP \t\t\t   kycRequests[reqId_].dataReq...\ntag 129\t\t\t   kycRequests[reqId_].dataReq...\n  JUMPDEST \t\t\t   kycRequests[reqId_].dataReq...\n  PUSH [tag] 130\t\t\tsts[reqId_].additionalNotes =\n  DUP5 \t\t\tonalNotes \n  PUSH [tag] 37\t\t\tsts[reqId_].additionalNotes =\n  JUMP \t\t\tsts[reqId_].additionalNotes =\ntag 130\t\t\tsts[reqId_].additionalNotes =\n  JUMPDEST \t\t\tsts[reqId_].additionalNotes =\n  DUP2 \t\t\t  kycReq\n  ADD \t\t\t      kycRequests[reqId_].addi...\n  PUSH 20\t\t\t  \n  DUP6 \t\t\tomerName\\r\\n\n  LT \t\t\tustomerName\\r\\n     \n  ISZERO \t\t\t].customerName\\r\\n        );\\r...\n  PUSH [tag] 131\t\t\t].customerName\\r\\n        );\\r...\n  JUMPI \t\t\t].customerName\\r\\n        );\\r...\n  DUP2 \t\t\t  functi\n  SWAP1 \t\t\t);\\r\\n    }\\r\\n\\r\\n    functi\n  POP \t\t\t);\\r\\n    }\\r\\n\\r\\n    functi\ntag 131\t\t\t].customerName\\r\\n        );\\r...\n  JUMPDEST \t\t\t].customerName\\r\\n        );\\r...\n  PUSH [tag] 132\t\t\tification(\\r\\n        address ...\n  PUSH [tag] 133\t\t\tied_,\\r\\n        string \n  DUP6 \t\t\ting\n  PUSH [tag] 37\t\t\tied_,\\r\\n        string \n  JUMP \t\t\tied_,\\r\\n        string \ntag 133\t\t\tied_,\\r\\n        string \n  JUMPDEST \t\t\tied_,\\r\\n        string \n  DUP4 \t\t\tbool ver\n  ADD \t\t\t    bool verified_,\\r\\n       ...\n  DUP3 \t\t\tserId_,\\r\\n  \n  PUSH [tag] 47\t\t\tification(\\r\\n        address ...\n  JUMP \t\t\tification(\\r\\n        address ...\ntag 132\t\t\tification(\\r\\n        address ...\n  JUMPDEST \t\t\tification(\\r\\n        address ...\n  POP \t\t\types.KycStatus.Pending;\\r\\n   ...\n  POP \t\t\types.KycStatus.Pending;\\r\\n   ...\ntag 128\t\t\tId_].status = Types.KycStatus....\n  JUMPDEST \t\t\tId_].status = Types.KycStatus....\n  POP \t\t\t\");\\r\\n        require(custome...\n  POP \t\t\t\");\\r\\n        require(custome...\n  POP \t\t\t\");\\r\\n        require(custome...\n  JUMP \t\t\t\");\\r\\n        require(custome...\ntag 49\t\t\tc isValidBank(msg.sender) {\\r\\...\n  JUMPDEST \t\t\tc isValidBank(msg.sender) {\\r\\...\n  PUSH 0\t\t\tId_ = He\n  DUP3 \t\t\t  req\n  DUP3 \t\t\t    \n  SHR \t\t\t);\\r\\n        requ\n  SWAP1 \t\t\td(msg.sender, userId_);\\r\\n   ...\n  POP \t\t\td(msg.sender, userId_);\\r\\n   ...\n  SWAP3 \t\t\tc isValidBank(msg.sender) {\\r\\...\n  SWAP2 \t\t\tc isValidBank(msg.sender) {\\r\\...\n  POP \t\t\tc isValidBank(msg.sender) {\\r\\...\n  POP \t\t\tc isValidBank(msg.sender) {\\r\\...\n  JUMP \t\t\tc isValidBank(msg.sender) {\\r\\...\ntag 50\t\t\ttExists(reqId_), \"User doesn't...\n  JUMPDEST \t\t\ttExists(reqId_), \"User doesn't...\n  PUSH 0\t\t\t);\\r\\n\\r\\n\n  PUSH [tag] 136\t\t\ttus_ = Types.KycStatus.Pending...\n  PUSH 0\t\t\ti\n  NOT \t\t\t(verif\n  DUP5 \t\t\t     \n  PUSH 8\t\t\t \n  MUL \t\t\tg;\\r\\n        i\n  PUSH [tag] 49\t\t\ttus_ = Types.KycStatus.Pending...\n  JUMP \t\t\ttus_ = Types.KycStatus.Pending...\ntag 136\t\t\ttus_ = Types.KycStatus.Pending...\n  JUMPDEST \t\t\ttus_ = Types.KycStatus.Pending...\n  NOT \t\t\t status_ = Types.KycStatus.Pen...\n  DUP1 \t\t\tType\n  DUP4 \t\t\tus_ \n  AND \t\t\tstatus_ = Types\n  SWAP2 \t\t\t          status_ = Types\n  POP \t\t\t          status_ = Types\n  POP \t\t\t       Types.KycStatus status_...\n  SWAP3 \t\t\ttExists(reqId_), \"User doesn't...\n  SWAP2 \t\t\ttExists(reqId_), \"User doesn't...\n  POP \t\t\ttExists(reqId_), \"User doesn't...\n  POP \t\t\ttExists(reqId_), \"User doesn't...\n  JUMP \t\t\ttExists(reqId_), \"User doesn't...\ntag 51\t\t\tKYCVerified;\\r\\n            up...\n  JUMPDEST \t\t\tKYCVerified;\\r\\n            up...\n  PUSH 0\t\t\tdone\n  PUSH [tag] 138\t\t\t        kycRequests[reqId_].a\n  DUP4 \t\t\t_].\n  DUP4 \t\t\t[req\n  PUSH [tag] 50\t\t\t        kycRequests[reqId_].a\n  JUMP \t\t\t        kycRequests[reqId_].a\ntag 138\t\t\t        kycRequests[reqId_].a\n  JUMPDEST \t\t\t        kycRequests[reqId_].a\n  SWAP2 \t\t\tatus_;\\r\\n        kycRequests[...\n  POP \t\t\tatus_;\\r\\n        kycRequests[...\n  DUP3 \t\t\temi\n  PUSH 2\t\t\t \n  MUL \t\t\t       emit\n  DUP3 \t\t\te_;\\r\n  OR \t\t\tnote_;\\r\\n        emit \n  SWAP1 \t\t\tNotes = note_;\\r\\n        emit...\n  POP \t\t\tNotes = note_;\\r\\n        emit...\n  SWAP3 \t\t\tKYCVerified;\\r\\n            up...\n  SWAP2 \t\t\tKYCVerified;\\r\\n            up...\n  POP \t\t\tKYCVerified;\\r\\n            up...\n  POP \t\t\tKYCVerified;\\r\\n            up...\n  JUMP \t\t\tKYCVerified;\\r\\n            up...\ntag 12\t\t\tanged(reqId_, userId_, msg.sen...\n  JUMPDEST \t\t\tanged(reqId_, userId_, msg.sen...\n  PUSH [tag] 140\t\t\t     view\\r\\n        isValidCu...\n  DUP3 \t\t\tr(i\n  PUSH [tag] 33\t\t\t     view\\r\\n        isValidCu...\n  JUMP \t\t\t     view\\r\\n        isValidCu...\ntag 140\t\t\t     view\\r\\n        isValidCu...\n  JUMPDEST \t\t\t     view\\r\\n        isValidCu...\n  PUSH FFFFFFFFFFFFFFFF\t\t\t   bool,\\r\\n        \n  DUP2 \t\t\t      \n  GT \t\t\t\\r\\n            bool,\\r\\n     ...\n  ISZERO \t\t\ts (\\r\\n            bool,\\r\\n  ...\n  PUSH [tag] 141\t\t\ts (\\r\\n            bool,\\r\\n  ...\n  JUMPI \t\t\ts (\\r\\n            bool,\\r\\n  ...\n  PUSH [tag] 142\t\t\tTypes.Customer mem\n  PUSH [tag] 26\t\t\tTypes.Customer mem\n  JUMP \t\t\tTypes.Customer mem\ntag 142\t\t\tTypes.Customer mem\n  JUMPDEST \t\t\tTypes.Customer mem\ntag 141\t\t\ts (\\r\\n            bool,\\r\\n  ...\n  JUMPDEST \t\t\ts (\\r\\n            bool,\\r\\n  ...\n  PUSH [tag] 143\t\t\tcRequest memory\\r\\n        )\\r...\n  DUP3 \t\t\t{\\r\\n \n  SLOAD \t\t\t\\r\\n    {\\r\\n  \n  PUSH [tag] 35\t\t\tcRequest memory\\r\\n        )\\r...\n  JUMP \t\t\tcRequest memory\\r\\n        )\\r...\ntag 143\t\t\tcRequest memory\\r\\n        )\\r...\n  JUMPDEST \t\t\tcRequest memory\\r\\n        )\\r...\n  PUSH [tag] 144\t\t\ty customer_;\\r\\n        Types....\n  DUP3 \t\t\t     (\n  DUP3 \t\t\tt_;\\r\\n \n  DUP6 \t\t\trequ\n  PUSH [tag] 48\t\t\ty customer_;\\r\\n        Types....\n  JUMP \t\t\ty customer_;\\r\\n        Types....\ntag 144\t\t\ty customer_;\\r\\n        Types....\n  JUMPDEST \t\t\ty customer_;\\r\\n        Types....\n  PUSH 0\t\t\tu\n  PUSH 20\t\t\ters[\n  SWAP1 \t\t\t_, bankCustomers[\n  POP \t\t\t_, bankCustomers[\n  PUSH 1F\t\t\tou\n  DUP4 \t\t\t   if \n  GT \t\t\t      if (foun\n  PUSH 1\t\t\t \n  DUP2 \t\t\tst_ = kycRequests[Helpers.appe...\n  EQ \t\t\tst_ = kycRequests[Helpers.appe...\n  PUSH [tag] 146\t\t\tst_ = kycRequests[Helpers.appe...\n  JUMPI \t\t\tst_ = kycRequests[Helpers.appe...\n  PUSH 0\t\t\ta\n  DUP5 \t\t\t\\n     \n  ISZERO \t\t\t\\r\\n\\r\\n        Types.DataHash...\n  PUSH [tag] 147\t\t\t\\r\\n\\r\\n        Types.DataHash...\n  JUMPI \t\t\t\\r\\n\\r\\n        Types.DataHash...\n  DUP3 \t\t\taHashStat\n  DUP8 \t\t\ts.D\n  ADD \t\t\tTypes.DataHashStatu\n  MLOAD \t\t\tus_ = Types.DataHashStatus\n  SWAP1 \t\t\tatus status_ = Types.DataHashS...\n  POP \t\t\tatus status_ = Types.DataHashS...\ntag 147\t\t\t\\r\\n\\r\\n        Types.DataHash...\n  JUMPDEST \t\t\t\\r\\n\\r\\n        Types.DataHash...\n  PUSH [tag] 148\t\t\t        status_ = Types.DataHa...\n  DUP6 \t\t\telse {\n  DUP3 \t\t\t     \n  PUSH [tag] 51\t\t\t        status_ = Types.DataHa...\n  JUMP \t\t\t        status_ = Types.DataHa...\ntag 148\t\t\t        status_ = Types.DataHa...\n  JUMPDEST \t\t\t        status_ = Types.DataHa...\n  DUP7 \t\t\t\\r\\n  \n  SSTORE \t\t\tove_) {\\r\\n            status_...\n  POP \t\t\tts(reqId_), \"User doesn't have...\n  PUSH [tag] 145\t\t\t]);\\r\\n        if (found_) req...\n  JUMP \t\t\t]);\\r\\n        if (found_) req...\ntag 146\t\t\tst_ = kycRequests[Helpers.appe...\n  JUMPDEST \t\t\tst_ = kycRequests[Helpers.appe...\n  PUSH 1F\t\t\t\\n   \n  NOT \t\t\t)];\\r\\n    \n  DUP5 \t\t\tder, i\n  AND \t\t\t.sender, id_)];\\r\\n     \n  PUSH [tag] 149\t\t\t, request_);\\r\\n    }\\r\\n\\r\\n ...\n  DUP7 \t\t\tion \n  PUSH [tag] 36\t\t\t, request_);\\r\\n    }\\r\\n\\r\\n ...\n  JUMP \t\t\t, request_);\\r\\n    }\\r\\n\\r\\n ...\ntag 149\t\t\t, request_);\\r\\n    }\\r\\n\\r\\n ...\n  JUMPDEST \t\t\t, request_);\\r\\n    }\\r\\n\\r\\n ...\n  PUSH 0\t\t\t \ntag 150\t\t\t        public\\r\\n        view...\n  JUMPDEST \t\t\t        public\\r\\n        view...\n  DUP3 \t\t\t\\r\\n     \n  DUP2 \t\t\tl\n  LT \t\t\tpublic\\r\\n      \n  ISZERO \t\t\t        public\\r\\n        view...\n  PUSH [tag] 152\t\t\t        public\\r\\n        view...\n  JUMPI \t\t\t        public\\r\\n        view...\n  DUP5 \t\t\totalPages\n  DUP10 \t\t\t256\n  ADD \t\t\tuint256 totalPages,\n  MLOAD \t\t\turns (uint256 totalPages, \n  DUP3 \t\t\t     r\n  SSTORE \t\t\tr)\\r\\n        returns (uint256...\n  PUSH 1\t\t\t \n  DUP3 \t\t\t{\\r\\n   \n  ADD \t\t\t    {\\r\\n       \n  SWAP2 \t\t\t memory)\\r\\n    {\\r\\n       \n  POP \t\t\t memory)\\r\\n    {\\r\\n       \n  PUSH 20\t\t\t  \n  DUP6 \t\t\t false);\\r\n  ADD \t\t\tber, false);\\r\\n    \n  SWAP5 \t\t\tuests(pageNumber, false);\\r\\n ...\n  POP \t\t\tuests(pageNumber, false);\\r\\n ...\n  PUSH 20\t\t\t isV\n  DUP2 \t\t\t \n  ADD \t\t\t        isVa\n  SWAP1 \t\t\tiew\\r\\n        isVa\n  POP \t\t\tiew\\r\\n        isVa\n  PUSH [tag] 150\t\t\t        public\\r\\n        view...\n  JUMP \t\t\t        public\\r\\n        view...\ntag 152\t\t\t        public\\r\\n        view...\n  JUMPDEST \t\t\t        public\\r\\n        view...\n  DUP7 \t\t\t     a\n  DUP4 \t\t\test(\\r\\n \n  LT \t\t\tequest(\\r\\n        ad\n  ISZERO \t\t\tycRequest(\\r\\n        address ...\n  PUSH [tag] 153\t\t\tycRequest(\\r\\n        address ...\n  JUMPI \t\t\tycRequest(\\r\\n        address ...\n  DUP5 \t\t\ting memor\n  DUP10 \t\t\t  s\n  ADD \t\t\t      string memory\n  MLOAD \t\t\t_,\\r\\n        string memory \n  PUSH [tag] 154\t\t\tmer(msg.sender) isValidBank(ba...\n  PUSH 1F\t\t\t    \n  DUP10 \t\t\t_) {\\r\\n\n  AND \t\t\tnkId_) {\\r\\n       \n  DUP3 \t\t\talidBank(\n  PUSH [tag] 50\t\t\tmer(msg.sender) isValidBank(ba...\n  JUMP \t\t\tmer(msg.sender) isValidBank(ba...\ntag 154\t\t\tmer(msg.sender) isValidBank(ba...\n  JUMPDEST \t\t\tmer(msg.sender) isValidBank(ba...\n  DUP4 \t\t\tlidCus\n  SSTORE \t\t\tic isValidCustomer(msg.sender)...\n  POP \t\t\tress bankId_,\\r\\n        bool ...\ntag 153\t\t\tycRequest(\\r\\n        address ...\n  JUMPDEST \t\t\tycRequest(\\r\\n        address ...\n  PUSH 1\t\t\t \n  PUSH 2\t\t\t)\n  DUP9 \t\t\tg.send\n  MUL \t\t\t, msg.sender);\n  ADD \t\t\tkId_, msg.sender);\\r\\n  \n  DUP9 \t\t\tnd(b\n  SSTORE \t\t\trs.append(bankId_, msg.sender)...\n  POP \t\t\tycRequests[Helpers.append(msg....\n  POP \t\t\tycRequests[Helpers.append(msg....\n  POP \t\t\tycRequests[Helpers.append(msg....\ntag 145\t\t\t]);\\r\\n        if (found_) req...\n  JUMPDEST \t\t\t]);\\r\\n        if (found_) req...\n  POP \t\t\t]);\\r\\n        if (found_) req...\n  POP \t\t\tid_)\\r\\n        public\\r\\n    ...\n  POP \t\t\tid_)\\r\\n        public\\r\\n    ...\n  POP \t\t\tid_)\\r\\n        public\\r\\n    ...\n  POP \t\t\tanged(reqId_, userId_, msg.sen...\n  POP \t\t\tanged(reqId_, userId_, msg.sen...\n  JUMP \t\t\tanged(reqId_, userId_, msg.sen...\ntag 19\t\t\tcontract KYC is Customers, Ban...\n  JUMPDEST \t\t\tcontract KYC is Customers, Ban...\n  PUSH #[$] 0000000000000000000000000000000000000000000000000000000000000000\t\t\tcontract KYC is Customers, Ban...\n  DUP1 \t\t\tcontract KYC is Customers, Ban...\n  PUSH [$] 0000000000000000000000000000000000000000000000000000000000000000\t\t\tcontract KYC is Customers, Ban...\n  PUSH 0\t\t\tcontract KYC is Customers, Ban...\n  CODECOPY \t\t\tcontract KYC is Customers, Ban...\n  PUSH 0\t\t\tcontract KYC is Customers, Ban...\n  RETURN \t\t\tcontract KYC is Customers, Ban...\n.data\n  0:\n    .code\n      PUSH 80\t\t\tcontract KYC is Customers, Ban...\n      PUSH 40\t\t\tcontract KYC is Customers, Ban...\n      MSTORE \t\t\tcontract KYC is Customers, Ban...\n      CALLVALUE \t\t\tcontract KYC is Customers, Ban...\n      DUP1 \t\t\tcontract KYC is Customers, Ban...\n      ISZERO \t\t\tcontract KYC is Customers, Ban...\n      PUSH [tag] 1\t\t\tcontract KYC is Customers, Ban...\n      JUMPI \t\t\tcontract KYC is Customers, Ban...\n      PUSH 0\t\t\tcontract KYC is Customers, Ban...\n      DUP1 \t\t\tcontract KYC is Customers, Ban...\n      REVERT \t\t\tcontract KYC is Customers, Ban...\n    tag 1\t\t\tcontract KYC is Customers, Ban...\n      JUMPDEST \t\t\tcontract KYC is Customers, Ban...\n      POP \t\t\tcontract KYC is Customers, Ban...\n      PUSH 4\t\t\tcontract KYC is Customers, Ban...\n      CALLDATASIZE \t\t\tcontract KYC is Customers, Ban...\n      LT \t\t\tcontract KYC is Customers, Ban...\n      PUSH [tag] 2\t\t\tcontract KYC is Customers, Ban...\n      JUMPI \t\t\tcontract KYC is Customers, Ban...\n      PUSH 0\t\t\tcontract KYC is Customers, Ban...\n      CALLDATALOAD \t\t\tcontract KYC is Customers, Ban...\n      PUSH E0\t\t\tcontract KYC is Customers, Ban...\n      SHR \t\t\tcontract KYC is Customers, Ban...\n      DUP1 \t\t\tcontract KYC is Customers, Ban...\n      PUSH 5F4D6DDF\t\t\tcontract KYC is Customers, Ban...\n      GT \t\t\tcontract KYC is Customers, Ban...\n      PUSH [tag] 21\t\t\tcontract KYC is Customers, Ban...\n      JUMPI \t\t\tcontract KYC is Customers, Ban...\n      DUP1 \t\t\tcontract KYC is Customers, Ban...\n      PUSH B374A7DD\t\t\tcontract KYC is Customers, Ban...\n      GT \t\t\tcontract KYC is Customers, Ban...\n      PUSH [tag] 22\t\t\tcontract KYC is Customers, Ban...\n      JUMPI \t\t\tcontract KYC is Customers, Ban...\n      DUP1 \t\t\tcontract KYC is Customers, Ban...\n      PUSH B374A7DD\t\t\tcontract KYC is Customers, Ban...\n      EQ \t\t\tcontract KYC is Customers, Ban...\n      PUSH [tag] 16\t\t\tcontract KYC is Customers, Ban...\n      JUMPI \t\t\tcontract KYC is Customers, Ban...\n      DUP1 \t\t\tcontract KYC is Customers, Ban...\n      PUSH BAA2B9FD\t\t\tcontract KYC is Customers, Ban...\n      EQ \t\t\tcontract KYC is Customers, Ban...\n      PUSH [tag] 17\t\t\tcontract KYC is Customers, Ban...\n      JUMPI \t\t\tcontract KYC is Customers, Ban...\n      DUP1 \t\t\tcontract KYC is Customers, Ban...\n      PUSH DA91254C\t\t\tcontract KYC is Customers, Ban...\n      EQ \t\t\tcontract KYC is Customers, Ban...\n      PUSH [tag] 18\t\t\tcontract KYC is Customers, Ban...\n      JUMPI \t\t\tcontract KYC is Customers, Ban...\n      DUP1 \t\t\tcontract KYC is Customers, Ban...\n      PUSH DBC671D0\t\t\tcontract KYC is Customers, Ban...\n      EQ \t\t\tcontract KYC is Customers, Ban...\n      PUSH [tag] 19\t\t\tcontract KYC is Customers, Ban...\n      JUMPI \t\t\tcontract KYC is Customers, Ban...\n      DUP1 \t\t\tcontract KYC is Customers, Ban...\n      PUSH DC57D07E\t\t\tcontract KYC is Customers, Ban...\n      EQ \t\t\tcontract KYC is Customers, Ban...\n      PUSH [tag] 20\t\t\tcontract KYC is Customers, Ban...\n      JUMPI \t\t\tcontract KYC is Customers, Ban...\n      PUSH [tag] 2\t\t\tcontract KYC is Customers, Ban...\n      JUMP \t\t\tcontract KYC is Customers, Ban...\n    tag 22\t\t\tcontract KYC is Customers, Ban...\n      JUMPDEST \t\t\tcontract KYC is Customers, Ban...\n      DUP1 \t\t\tcontract KYC is Customers, Ban...\n      PUSH 5F4D6DDF\t\t\tcontract KYC is Customers, Ban...\n      EQ \t\t\tcontract KYC is Customers, Ban...\n      PUSH [tag] 12\t\t\tcontract KYC is Customers, Ban...\n      JUMPI \t\t\tcontract KYC is Customers, Ban...\n      DUP1 \t\t\tcontract KYC is Customers, Ban...\n      PUSH 77FA069C\t\t\tcontract KYC is Customers, Ban...\n      EQ \t\t\tcontract KYC is Customers, Ban...\n      PUSH [tag] 13\t\t\tcontract KYC is Customers, Ban...\n      JUMPI \t\t\tcontract KYC is Customers, Ban...\n      DUP1 \t\t\tcontract KYC is Customers, Ban...\n      PUSH 7C1D6197\t\t\tcontract KYC is Customers, Ban...\n      EQ \t\t\tcontract KYC is Customers, Ban...\n      PUSH [tag] 14\t\t\tcontract KYC is Customers, Ban...\n      JUMPI \t\t\tcontract KYC is Customers, Ban...\n      DUP1 \t\t\tcontract KYC is Customers, Ban...\n      PUSH 8915FB0C\t\t\tcontract KYC is Customers, Ban...\n      EQ \t\t\tcontract KYC is Customers, Ban...\n      PUSH [tag] 15\t\t\tcontract KYC is Customers, Ban...\n      JUMPI \t\t\tcontract KYC is Customers, Ban...\n      PUSH [tag] 2\t\t\tcontract KYC is Customers, Ban...\n      JUMP \t\t\tcontract KYC is Customers, Ban...\n    tag 21\t\t\tcontract KYC is Customers, Ban...\n      JUMPDEST \t\t\tcontract KYC is Customers, Ban...\n      DUP1 \t\t\tcontract KYC is Customers, Ban...\n      PUSH 2CE23ACB\t\t\tcontract KYC is Customers, Ban...\n      GT \t\t\tcontract KYC is Customers, Ban...\n      PUSH [tag] 23\t\t\tcontract KYC is Customers, Ban...\n      JUMPI \t\t\tcontract KYC is Customers, Ban...\n      DUP1 \t\t\tcontract KYC is Customers, Ban...\n      PUSH 2CE23ACB\t\t\tcontract KYC is Customers, Ban...\n      EQ \t\t\tcontract KYC is Customers, Ban...\n      PUSH [tag] 7\t\t\tcontract KYC is Customers, Ban...\n      JUMPI \t\t\tcontract KYC is Customers, Ban...\n      DUP1 \t\t\tcontract KYC is Customers, Ban...\n      PUSH 34B52411\t\t\tcontract KYC is Customers, Ban...\n      EQ \t\t\tcontract KYC is Customers, Ban...\n      PUSH [tag] 8\t\t\tcontract KYC is Customers, Ban...\n      JUMPI \t\t\tcontract KYC is Customers, Ban...\n      DUP1 \t\t\tcontract KYC is Customers, Ban...\n      PUSH 369BA32B\t\t\tcontract KYC is Customers, Ban...\n      EQ \t\t\tcontract KYC is Customers, Ban...\n      PUSH [tag] 9\t\t\tcontract KYC is Customers, Ban...\n      JUMPI \t\t\tcontract KYC is Customers, Ban...\n      DUP1 \t\t\tcontract KYC is Customers, Ban...\n      PUSH 3F2C0E96\t\t\tcontract KYC is Customers, Ban...\n      EQ \t\t\tcontract KYC is Customers, Ban...\n      PUSH [tag] 10\t\t\tcontract KYC is Customers, Ban...\n      JUMPI \t\t\tcontract KYC is Customers, Ban...\n      DUP1 \t\t\tcontract KYC is Customers, Ban...\n      PUSH 4D82D8E8\t\t\tcontract KYC is Customers, Ban...\n      EQ \t\t\tcontract KYC is Customers, Ban...\n      PUSH [tag] 11\t\t\tcontract KYC is Customers, Ban...\n      JUMPI \t\t\tcontract KYC is Customers, Ban...\n      PUSH [tag] 2\t\t\tcontract KYC is Customers, Ban...\n      JUMP \t\t\tcontract KYC is Customers, Ban...\n    tag 23\t\t\tcontract KYC is Customers, Ban...\n      JUMPDEST \t\t\tcontract KYC is Customers, Ban...\n      DUP1 \t\t\tcontract KYC is Customers, Ban...\n      PUSH C60F83D\t\t\tcontract KYC is Customers, Ban...\n      EQ \t\t\tcontract KYC is Customers, Ban...\n      PUSH [tag] 3\t\t\tcontract KYC is Customers, Ban...\n      JUMPI \t\t\tcontract KYC is Customers, Ban...\n      DUP1 \t\t\tcontract KYC is Customers, Ban...\n      PUSH 15101E02\t\t\tcontract KYC is Customers, Ban...\n      EQ \t\t\tcontract KYC is Customers, Ban...\n      PUSH [tag] 4\t\t\tcontract KYC is Customers, Ban...\n      JUMPI \t\t\tcontract KYC is Customers, Ban...\n      DUP1 \t\t\tcontract KYC is Customers, Ban...\n      PUSH 1BDD5A0F\t\t\tcontract KYC is Customers, Ban...\n      EQ \t\t\tcontract KYC is Customers, Ban...\n      PUSH [tag] 5\t\t\tcontract KYC is Customers, Ban...\n      JUMPI \t\t\tcontract KYC is Customers, Ban...\n      DUP1 \t\t\tcontract KYC is Customers, Ban...\n      PUSH 2283DB9C\t\t\tcontract KYC is Customers, Ban...\n      EQ \t\t\tcontract KYC is Customers, Ban...\n      PUSH [tag] 6\t\t\tcontract KYC is Customers, Ban...\n      JUMPI \t\t\tcontract KYC is Customers, Ban...\n    tag 2\t\t\tcontract KYC is Customers, Ban...\n      JUMPDEST \t\t\tcontract KYC is Customers, Ban...\n      PUSH 0\t\t\tcontract KYC is Customers, Ban...\n      DUP1 \t\t\tcontract KYC is Customers, Ban...\n      REVERT \t\t\tcontract KYC is Customers, Ban...\n    tag 3\t\t\tfunction getCustomerDetails(ad...\n      JUMPDEST \t\t\tfunction getCustomerDetails(ad...\n      PUSH [tag] 24\t\t\tfunction getCustomerDetails(ad...\n      PUSH 4\t\t\tfunction getCustomerDetails(ad...\n      DUP1 \t\t\tfunction getCustomerDetails(ad...\n      CALLDATASIZE \t\t\tfunction getCustomerDetails(ad...\n      SUB \t\t\tfunction getCustomerDetails(ad...\n      DUP2 \t\t\tfunction getCustomerDetails(ad...\n      ADD \t\t\tfunction getCustomerDetails(ad...\n      SWAP1 \t\t\tfunction getCustomerDetails(ad...\n      PUSH [tag] 25\t\t\tfunction getCustomerDetails(ad...\n      SWAP2 \t\t\tfunction getCustomerDetails(ad...\n      SWAP1 \t\t\tfunction getCustomerDetails(ad...\n      PUSH [tag] 26\t\t\tfunction getCustomerDetails(ad...\n      JUMP \t\t\tfunction getCustomerDetails(ad...\n    tag 25\t\t\tfunction getCustomerDetails(ad...\n      JUMPDEST \t\t\tfunction getCustomerDetails(ad...\n      PUSH [tag] 27\t\t\tfunction getCustomerDetails(ad...\n      JUMP \t\t\tfunction getCustomerDetails(ad...\n    tag 24\t\t\tfunction getCustomerDetails(ad...\n      JUMPDEST \t\t\tfunction getCustomerDetails(ad...\n      PUSH 40\t\t\tfunction getCustomerDetails(ad...\n      MLOAD \t\t\tfunction getCustomerDetails(ad...\n      PUSH [tag] 28\t\t\tfunction getCustomerDetails(ad...\n      SWAP2 \t\t\tfunction getCustomerDetails(ad...\n      SWAP1 \t\t\tfunction getCustomerDetails(ad...\n      PUSH [tag] 29\t\t\tfunction getCustomerDetails(ad...\n      JUMP \t\t\tfunction getCustomerDetails(ad...\n    tag 28\t\t\tfunction getCustomerDetails(ad...\n      JUMPDEST \t\t\tfunction getCustomerDetails(ad...\n      PUSH 40\t\t\tfunction getCustomerDetails(ad...\n      MLOAD \t\t\tfunction getCustomerDetails(ad...\n      DUP1 \t\t\tfunction getCustomerDetails(ad...\n      SWAP2 \t\t\tfunction getCustomerDetails(ad...\n      SUB \t\t\tfunction getCustomerDetails(ad...\n      SWAP1 \t\t\tfunction getCustomerDetails(ad...\n      RETURN \t\t\tfunction getCustomerDetails(ad...\n    tag 4\t\t\tfunction getBankDetails(addres...\n      JUMPDEST \t\t\tfunction getBankDetails(addres...\n      PUSH [tag] 30\t\t\tfunction getBankDetails(addres...\n      PUSH 4\t\t\tfunction getBankDetails(addres...\n      DUP1 \t\t\tfunction getBankDetails(addres...\n      CALLDATASIZE \t\t\tfunction getBankDetails(addres...\n      SUB \t\t\tfunction getBankDetails(addres...\n      DUP2 \t\t\tfunction getBankDetails(addres...\n      ADD \t\t\tfunction getBankDetails(addres...\n      SWAP1 \t\t\tfunction getBankDetails(addres...\n      PUSH [tag] 31\t\t\tfunction getBankDetails(addres...\n      SWAP2 \t\t\tfunction getBankDetails(addres...\n      SWAP1 \t\t\tfunction getBankDetails(addres...\n      PUSH [tag] 26\t\t\tfunction getBankDetails(addres...\n      JUMP \t\t\tfunction getBankDetails(addres...\n    tag 31\t\t\tfunction getBankDetails(addres...\n      JUMPDEST \t\t\tfunction getBankDetails(addres...\n      PUSH [tag] 32\t\t\tfunction getBankDetails(addres...\n      JUMP \t\t\tfunction getBankDetails(addres...\n    tag 30\t\t\tfunction getBankDetails(addres...\n      JUMPDEST \t\t\tfunction getBankDetails(addres...\n      PUSH 40\t\t\tfunction getBankDetails(addres...\n      MLOAD \t\t\tfunction getBankDetails(addres...\n      PUSH [tag] 33\t\t\tfunction getBankDetails(addres...\n      SWAP2 \t\t\tfunction getBankDetails(addres...\n      SWAP1 \t\t\tfunction getBankDetails(addres...\n      PUSH [tag] 34\t\t\tfunction getBankDetails(addres...\n      JUMP \t\t\tfunction getBankDetails(addres...\n    tag 33\t\t\tfunction getBankDetails(addres...\n      JUMPDEST \t\t\tfunction getBankDetails(addres...\n      PUSH 40\t\t\tfunction getBankDetails(addres...\n      MLOAD \t\t\tfunction getBankDetails(addres...\n      DUP1 \t\t\tfunction getBankDetails(addres...\n      SWAP2 \t\t\tfunction getBankDetails(addres...\n      SUB \t\t\tfunction getBankDetails(addres...\n      SWAP1 \t\t\tfunction getBankDetails(addres...\n      RETURN \t\t\tfunction getBankDetails(addres...\n    tag 5\t\t\tfunction reRequestForKycReques...\n      JUMPDEST \t\t\tfunction reRequestForKycReques...\n      PUSH [tag] 35\t\t\tfunction reRequestForKycReques...\n      PUSH 4\t\t\tfunction reRequestForKycReques...\n      DUP1 \t\t\tfunction reRequestForKycReques...\n      CALLDATASIZE \t\t\tfunction reRequestForKycReques...\n      SUB \t\t\tfunction reRequestForKycReques...\n      DUP2 \t\t\tfunction reRequestForKycReques...\n      ADD \t\t\tfunction reRequestForKycReques...\n      SWAP1 \t\t\tfunction reRequestForKycReques...\n      PUSH [tag] 36\t\t\tfunction reRequestForKycReques...\n      SWAP2 \t\t\tfunction reRequestForKycReques...\n      SWAP1 \t\t\tfunction reRequestForKycReques...\n      PUSH [tag] 37\t\t\tfunction reRequestForKycReques...\n      JUMP \t\t\tfunction reRequestForKycReques...\n    tag 36\t\t\tfunction reRequestForKycReques...\n      JUMPDEST \t\t\tfunction reRequestForKycReques...\n      PUSH [tag] 38\t\t\tfunction reRequestForKycReques...\n      JUMP \t\t\tfunction reRequestForKycReques...\n    tag 35\t\t\tfunction reRequestForKycReques...\n      JUMPDEST \t\t\tfunction reRequestForKycReques...\n      STOP \t\t\tfunction reRequestForKycReques...\n    tag 6\t\t\tfunction addBank(Types.Bank me...\n      JUMPDEST \t\t\tfunction addBank(Types.Bank me...\n      PUSH [tag] 39\t\t\tfunction addBank(Types.Bank me...\n      PUSH 4\t\t\tfunction addBank(Types.Bank me...\n      DUP1 \t\t\tfunction addBank(Types.Bank me...\n      CALLDATASIZE \t\t\tfunction addBank(Types.Bank me...\n      SUB \t\t\tfunction addBank(Types.Bank me...\n      DUP2 \t\t\tfunction addBank(Types.Bank me...\n      ADD \t\t\tfunction addBank(Types.Bank me...\n      SWAP1 \t\t\tfunction addBank(Types.Bank me...\n      PUSH [tag] 40\t\t\tfunction addBank(Types.Bank me...\n      SWAP2 \t\t\tfunction addBank(Types.Bank me...\n      SWAP1 \t\t\tfunction addBank(Types.Bank me...\n      PUSH [tag] 41\t\t\tfunction addBank(Types.Bank me...\n      JUMP \t\t\tfunction addBank(Types.Bank me...\n    tag 40\t\t\tfunction addBank(Types.Bank me...\n      JUMPDEST \t\t\tfunction addBank(Types.Bank me...\n      PUSH [tag] 42\t\t\tfunction addBank(Types.Bank me...\n      JUMP \t\t\tfunction addBank(Types.Bank me...\n    tag 39\t\t\tfunction addBank(Types.Bank me...\n      JUMPDEST \t\t\tfunction addBank(Types.Bank me...\n      STOP \t\t\tfunction addBank(Types.Bank me...\n    tag 7\t\t\tfunction searchBanks(address b...\n      JUMPDEST \t\t\tfunction searchBanks(address b...\n      PUSH [tag] 43\t\t\tfunction searchBanks(address b...\n      PUSH 4\t\t\tfunction searchBanks(address b...\n      DUP1 \t\t\tfunction searchBanks(address b...\n      CALLDATASIZE \t\t\tfunction searchBanks(address b...\n      SUB \t\t\tfunction searchBanks(address b...\n      DUP2 \t\t\tfunction searchBanks(address b...\n      ADD \t\t\tfunction searchBanks(address b...\n      SWAP1 \t\t\tfunction searchBanks(address b...\n      PUSH [tag] 44\t\t\tfunction searchBanks(address b...\n      SWAP2 \t\t\tfunction searchBanks(address b...\n      SWAP1 \t\t\tfunction searchBanks(address b...\n      PUSH [tag] 26\t\t\tfunction searchBanks(address b...\n      JUMP \t\t\tfunction searchBanks(address b...\n    tag 44\t\t\tfunction searchBanks(address b...\n      JUMPDEST \t\t\tfunction searchBanks(address b...\n      PUSH [tag] 45\t\t\tfunction searchBanks(address b...\n      JUMP \t\t\tfunction searchBanks(address b...\n    tag 43\t\t\tfunction searchBanks(address b...\n      JUMPDEST \t\t\tfunction searchBanks(address b...\n      PUSH 40\t\t\tfunction searchBanks(address b...\n      MLOAD \t\t\tfunction searchBanks(address b...\n      PUSH [tag] 46\t\t\tfunction searchBanks(address b...\n      SWAP4 \t\t\tfunction searchBanks(address b...\n      SWAP3 \t\t\tfunction searchBanks(address b...\n      SWAP2 \t\t\tfunction searchBanks(address b...\n      SWAP1 \t\t\tfunction searchBanks(address b...\n      PUSH [tag] 47\t\t\tfunction searchBanks(address b...\n      JUMP \t\t\tfunction searchBanks(address b...\n    tag 46\t\t\tfunction searchBanks(address b...\n      JUMPDEST \t\t\tfunction searchBanks(address b...\n      PUSH 40\t\t\tfunction searchBanks(address b...\n      MLOAD \t\t\tfunction searchBanks(address b...\n      DUP1 \t\t\tfunction searchBanks(address b...\n      SWAP2 \t\t\tfunction searchBanks(address b...\n      SUB \t\t\tfunction searchBanks(address b...\n      SWAP1 \t\t\tfunction searchBanks(address b...\n      RETURN \t\t\tfunction searchBanks(address b...\n    tag 8\t\t\tfunction actionOnKycRequest(\\r...\n      JUMPDEST \t\t\tfunction actionOnKycRequest(\\r...\n      PUSH [tag] 48\t\t\tfunction actionOnKycRequest(\\r...\n      PUSH 4\t\t\tfunction actionOnKycRequest(\\r...\n      DUP1 \t\t\tfunction actionOnKycRequest(\\r...\n      CALLDATASIZE \t\t\tfunction actionOnKycRequest(\\r...\n      SUB \t\t\tfunction actionOnKycRequest(\\r...\n      DUP2 \t\t\tfunction actionOnKycRequest(\\r...\n      ADD \t\t\tfunction actionOnKycRequest(\\r...\n      SWAP1 \t\t\tfunction actionOnKycRequest(\\r...\n      PUSH [tag] 49\t\t\tfunction actionOnKycRequest(\\r...\n      SWAP2 \t\t\tfunction actionOnKycRequest(\\r...\n      SWAP1 \t\t\tfunction actionOnKycRequest(\\r...\n      PUSH [tag] 50\t\t\tfunction actionOnKycRequest(\\r...\n      JUMP \t\t\tfunction actionOnKycRequest(\\r...\n    tag 49\t\t\tfunction actionOnKycRequest(\\r...\n      JUMPDEST \t\t\tfunction actionOnKycRequest(\\r...\n      PUSH [tag] 51\t\t\tfunction actionOnKycRequest(\\r...\n      JUMP \t\t\tfunction actionOnKycRequest(\\r...\n    tag 48\t\t\tfunction actionOnKycRequest(\\r...\n      JUMPDEST \t\t\tfunction actionOnKycRequest(\\r...\n      STOP \t\t\tfunction actionOnKycRequest(\\r...\n    tag 9\t\t\tfunction updateBankDetails(\\r\\...\n      JUMPDEST \t\t\tfunction updateBankDetails(\\r\\...\n      PUSH [tag] 52\t\t\tfunction updateBankDetails(\\r\\...\n      PUSH 4\t\t\tfunction updateBankDetails(\\r\\...\n      DUP1 \t\t\tfunction updateBankDetails(\\r\\...\n      CALLDATASIZE \t\t\tfunction updateBankDetails(\\r\\...\n      SUB \t\t\tfunction updateBankDetails(\\r\\...\n      DUP2 \t\t\tfunction updateBankDetails(\\r\\...\n      ADD \t\t\tfunction updateBankDetails(\\r\\...\n      SWAP1 \t\t\tfunction updateBankDetails(\\r\\...\n      PUSH [tag] 53\t\t\tfunction updateBankDetails(\\r\\...\n      SWAP2 \t\t\tfunction updateBankDetails(\\r\\...\n      SWAP1 \t\t\tfunction updateBankDetails(\\r\\...\n      PUSH [tag] 54\t\t\tfunction updateBankDetails(\\r\\...\n      JUMP \t\t\tfunction updateBankDetails(\\r\\...\n    tag 53\t\t\tfunction updateBankDetails(\\r\\...\n      JUMPDEST \t\t\tfunction updateBankDetails(\\r\\...\n      PUSH [tag] 55\t\t\tfunction updateBankDetails(\\r\\...\n      JUMP \t\t\tfunction updateBankDetails(\\r\\...\n    tag 52\t\t\tfunction updateBankDetails(\\r\\...\n      JUMPDEST \t\t\tfunction updateBankDetails(\\r\\...\n      STOP \t\t\tfunction updateBankDetails(\\r\\...\n    tag 10\t\t\tfunction removerDatahashPermis...\n      JUMPDEST \t\t\tfunction removerDatahashPermis...\n      PUSH [tag] 56\t\t\tfunction removerDatahashPermis...\n      PUSH 4\t\t\tfunction removerDatahashPermis...\n      DUP1 \t\t\tfunction removerDatahashPermis...\n      CALLDATASIZE \t\t\tfunction removerDatahashPermis...\n      SUB \t\t\tfunction removerDatahashPermis...\n      DUP2 \t\t\tfunction removerDatahashPermis...\n      ADD \t\t\tfunction removerDatahashPermis...\n      SWAP1 \t\t\tfunction removerDatahashPermis...\n      PUSH [tag] 57\t\t\tfunction removerDatahashPermis...\n      SWAP2 \t\t\tfunction removerDatahashPermis...\n      SWAP1 \t\t\tfunction removerDatahashPermis...\n      PUSH [tag] 37\t\t\tfunction removerDatahashPermis...\n      JUMP \t\t\tfunction removerDatahashPermis...\n    tag 57\t\t\tfunction removerDatahashPermis...\n      JUMPDEST \t\t\tfunction removerDatahashPermis...\n      PUSH [tag] 58\t\t\tfunction removerDatahashPermis...\n      JUMP \t\t\tfunction removerDatahashPermis...\n    tag 56\t\t\tfunction removerDatahashPermis...\n      JUMPDEST \t\t\tfunction removerDatahashPermis...\n      STOP \t\t\tfunction removerDatahashPermis...\n    tag 11\t\t\tfunction getAllBanks(uint256 p...\n      JUMPDEST \t\t\tfunction getAllBanks(uint256 p...\n      PUSH [tag] 59\t\t\tfunction getAllBanks(uint256 p...\n      PUSH 4\t\t\tfunction getAllBanks(uint256 p...\n      DUP1 \t\t\tfunction getAllBanks(uint256 p...\n      CALLDATASIZE \t\t\tfunction getAllBanks(uint256 p...\n      SUB \t\t\tfunction getAllBanks(uint256 p...\n      DUP2 \t\t\tfunction getAllBanks(uint256 p...\n      ADD \t\t\tfunction getAllBanks(uint256 p...\n      SWAP1 \t\t\tfunction getAllBanks(uint256 p...\n      PUSH [tag] 60\t\t\tfunction getAllBanks(uint256 p...\n      SWAP2 \t\t\tfunction getAllBanks(uint256 p...\n      SWAP1 \t\t\tfunction getAllBanks(uint256 p...\n      PUSH [tag] 61\t\t\tfunction getAllBanks(uint256 p...\n      JUMP \t\t\tfunction getAllBanks(uint256 p...\n    tag 60\t\t\tfunction getAllBanks(uint256 p...\n      JUMPDEST \t\t\tfunction getAllBanks(uint256 p...\n      PUSH [tag] 62\t\t\tfunction getAllBanks(uint256 p...\n      JUMP \t\t\tfunction getAllBanks(uint256 p...\n    tag 59\t\t\tfunction getAllBanks(uint256 p...\n      JUMPDEST \t\t\tfunction getAllBanks(uint256 p...\n      PUSH 40\t\t\tfunction getAllBanks(uint256 p...\n      MLOAD \t\t\tfunction getAllBanks(uint256 p...\n      PUSH [tag] 63\t\t\tfunction getAllBanks(uint256 p...\n      SWAP3 \t\t\tfunction getAllBanks(uint256 p...\n      SWAP2 \t\t\tfunction getAllBanks(uint256 p...\n      SWAP1 \t\t\tfunction getAllBanks(uint256 p...\n      PUSH [tag] 64\t\t\tfunction getAllBanks(uint256 p...\n      JUMP \t\t\tfunction getAllBanks(uint256 p...\n    tag 63\t\t\tfunction getAllBanks(uint256 p...\n      JUMPDEST \t\t\tfunction getAllBanks(uint256 p...\n      PUSH 40\t\t\tfunction getAllBanks(uint256 p...\n      MLOAD \t\t\tfunction getAllBanks(uint256 p...\n      DUP1 \t\t\tfunction getAllBanks(uint256 p...\n      SWAP2 \t\t\tfunction getAllBanks(uint256 p...\n      SUB \t\t\tfunction getAllBanks(uint256 p...\n      SWAP1 \t\t\tfunction getAllBanks(uint256 p...\n      RETURN \t\t\tfunction getAllBanks(uint256 p...\n    tag 12\t\t\tfunction searchCustomers(addre...\n      JUMPDEST \t\t\tfunction searchCustomers(addre...\n      PUSH [tag] 65\t\t\tfunction searchCustomers(addre...\n      PUSH 4\t\t\tfunction searchCustomers(addre...\n      DUP1 \t\t\tfunction searchCustomers(addre...\n      CALLDATASIZE \t\t\tfunction searchCustomers(addre...\n      SUB \t\t\tfunction searchCustomers(addre...\n      DUP2 \t\t\tfunction searchCustomers(addre...\n      ADD \t\t\tfunction searchCustomers(addre...\n      SWAP1 \t\t\tfunction searchCustomers(addre...\n      PUSH [tag] 66\t\t\tfunction searchCustomers(addre...\n      SWAP2 \t\t\tfunction searchCustomers(addre...\n      SWAP1 \t\t\tfunction searchCustomers(addre...\n      PUSH [tag] 26\t\t\tfunction searchCustomers(addre...\n      JUMP \t\t\tfunction searchCustomers(addre...\n    tag 66\t\t\tfunction searchCustomers(addre...\n      JUMPDEST \t\t\tfunction searchCustomers(addre...\n      PUSH [tag] 67\t\t\tfunction searchCustomers(addre...\n      JUMP \t\t\tfunction searchCustomers(addre...\n    tag 65\t\t\tfunction searchCustomers(addre...\n      JUMPDEST \t\t\tfunction searchCustomers(addre...\n      PUSH 40\t\t\tfunction searchCustomers(addre...\n      MLOAD \t\t\tfunction searchCustomers(addre...\n      PUSH [tag] 68\t\t\tfunction searchCustomers(addre...\n      SWAP4 \t\t\tfunction searchCustomers(addre...\n      SWAP3 \t\t\tfunction searchCustomers(addre...\n      SWAP2 \t\t\tfunction searchCustomers(addre...\n      SWAP1 \t\t\tfunction searchCustomers(addre...\n      PUSH [tag] 69\t\t\tfunction searchCustomers(addre...\n      JUMP \t\t\tfunction searchCustomers(addre...\n    tag 68\t\t\tfunction searchCustomers(addre...\n      JUMPDEST \t\t\tfunction searchCustomers(addre...\n      PUSH 40\t\t\tfunction searchCustomers(addre...\n      MLOAD \t\t\tfunction searchCustomers(addre...\n      DUP1 \t\t\tfunction searchCustomers(addre...\n      SWAP2 \t\t\tfunction searchCustomers(addre...\n      SUB \t\t\tfunction searchCustomers(addre...\n      SWAP1 \t\t\tfunction searchCustomers(addre...\n      RETURN \t\t\tfunction searchCustomers(addre...\n    tag 13\t\t\tfunction addKycRequest(\\r\\n   ...\n      JUMPDEST \t\t\tfunction addKycRequest(\\r\\n   ...\n      PUSH [tag] 70\t\t\tfunction addKycRequest(\\r\\n   ...\n      PUSH 4\t\t\tfunction addKycRequest(\\r\\n   ...\n      DUP1 \t\t\tfunction addKycRequest(\\r\\n   ...\n      CALLDATASIZE \t\t\tfunction addKycRequest(\\r\\n   ...\n      SUB \t\t\tfunction addKycRequest(\\r\\n   ...\n      DUP2 \t\t\tfunction addKycRequest(\\r\\n   ...\n      ADD \t\t\tfunction addKycRequest(\\r\\n   ...\n      SWAP1 \t\t\tfunction addKycRequest(\\r\\n   ...\n      PUSH [tag] 71\t\t\tfunction addKycRequest(\\r\\n   ...\n      SWAP2 \t\t\tfunction addKycRequest(\\r\\n   ...\n      SWAP1 \t\t\tfunction addKycRequest(\\r\\n   ...\n      PUSH [tag] 72\t\t\tfunction addKycRequest(\\r\\n   ...\n      JUMP \t\t\tfunction addKycRequest(\\r\\n   ...\n    tag 71\t\t\tfunction addKycRequest(\\r\\n   ...\n      JUMPDEST \t\t\tfunction addKycRequest(\\r\\n   ...\n      PUSH [tag] 73\t\t\tfunction addKycRequest(\\r\\n   ...\n      JUMP \t\t\tfunction addKycRequest(\\r\\n   ...\n    tag 70\t\t\tfunction addKycRequest(\\r\\n   ...\n      JUMPDEST \t\t\tfunction addKycRequest(\\r\\n   ...\n      STOP \t\t\tfunction addKycRequest(\\r\\n   ...\n    tag 14\t\t\tfunction updateProfile(\\r\\n   ...\n      JUMPDEST \t\t\tfunction updateProfile(\\r\\n   ...\n      PUSH [tag] 74\t\t\tfunction updateProfile(\\r\\n   ...\n      PUSH 4\t\t\tfunction updateProfile(\\r\\n   ...\n      DUP1 \t\t\tfunction updateProfile(\\r\\n   ...\n      CALLDATASIZE \t\t\tfunction updateProfile(\\r\\n   ...\n      SUB \t\t\tfunction updateProfile(\\r\\n   ...\n      DUP2 \t\t\tfunction updateProfile(\\r\\n   ...\n      ADD \t\t\tfunction updateProfile(\\r\\n   ...\n      SWAP1 \t\t\tfunction updateProfile(\\r\\n   ...\n      PUSH [tag] 75\t\t\tfunction updateProfile(\\r\\n   ...\n      SWAP2 \t\t\tfunction updateProfile(\\r\\n   ...\n      SWAP1 \t\t\tfunction updateProfile(\\r\\n   ...\n      PUSH [tag] 76\t\t\tfunction updateProfile(\\r\\n   ...\n      JUMP \t\t\tfunction updateProfile(\\r\\n   ...\n    tag 75\t\t\tfunction updateProfile(\\r\\n   ...\n      JUMPDEST \t\t\tfunction updateProfile(\\r\\n   ...\n      PUSH [tag] 77\t\t\tfunction updateProfile(\\r\\n   ...\n      JUMP \t\t\tfunction updateProfile(\\r\\n   ...\n    tag 74\t\t\tfunction updateProfile(\\r\\n   ...\n      JUMPDEST \t\t\tfunction updateProfile(\\r\\n   ...\n      STOP \t\t\tfunction updateProfile(\\r\\n   ...\n    tag 15\t\t\tfunction updateDatahash(string...\n      JUMPDEST \t\t\tfunction updateDatahash(string...\n      PUSH [tag] 78\t\t\tfunction updateDatahash(string...\n      PUSH 4\t\t\tfunction updateDatahash(string...\n      DUP1 \t\t\tfunction updateDatahash(string...\n      CALLDATASIZE \t\t\tfunction updateDatahash(string...\n      SUB \t\t\tfunction updateDatahash(string...\n      DUP2 \t\t\tfunction updateDatahash(string...\n      ADD \t\t\tfunction updateDatahash(string...\n      SWAP1 \t\t\tfunction updateDatahash(string...\n      PUSH [tag] 79\t\t\tfunction updateDatahash(string...\n      SWAP2 \t\t\tfunction updateDatahash(string...\n      SWAP1 \t\t\tfunction updateDatahash(string...\n      PUSH [tag] 80\t\t\tfunction updateDatahash(string...\n      JUMP \t\t\tfunction updateDatahash(string...\n    tag 79\t\t\tfunction updateDatahash(string...\n      JUMPDEST \t\t\tfunction updateDatahash(string...\n      PUSH [tag] 81\t\t\tfunction updateDatahash(string...\n      JUMP \t\t\tfunction updateDatahash(string...\n    tag 78\t\t\tfunction updateDatahash(string...\n      JUMPDEST \t\t\tfunction updateDatahash(string...\n      STOP \t\t\tfunction updateDatahash(string...\n    tag 16\t\t\tfunction activateDeactivateBan...\n      JUMPDEST \t\t\tfunction activateDeactivateBan...\n      PUSH [tag] 82\t\t\tfunction activateDeactivateBan...\n      PUSH 4\t\t\tfunction activateDeactivateBan...\n      DUP1 \t\t\tfunction activateDeactivateBan...\n      CALLDATASIZE \t\t\tfunction activateDeactivateBan...\n      SUB \t\t\tfunction activateDeactivateBan...\n      DUP2 \t\t\tfunction activateDeactivateBan...\n      ADD \t\t\tfunction activateDeactivateBan...\n      SWAP1 \t\t\tfunction activateDeactivateBan...\n      PUSH [tag] 83\t\t\tfunction activateDeactivateBan...\n      SWAP2 \t\t\tfunction activateDeactivateBan...\n      SWAP1 \t\t\tfunction activateDeactivateBan...\n      PUSH [tag] 84\t\t\tfunction activateDeactivateBan...\n      JUMP \t\t\tfunction activateDeactivateBan...\n    tag 83\t\t\tfunction activateDeactivateBan...\n      JUMPDEST \t\t\tfunction activateDeactivateBan...\n      PUSH [tag] 85\t\t\tfunction activateDeactivateBan...\n      JUMP \t\t\tfunction activateDeactivateBan...\n    tag 82\t\t\tfunction activateDeactivateBan...\n      JUMPDEST \t\t\tfunction activateDeactivateBan...\n      STOP \t\t\tfunction activateDeactivateBan...\n    tag 17\t\t\tfunction getCustomersOfBank(ui...\n      JUMPDEST \t\t\tfunction getCustomersOfBank(ui...\n      PUSH [tag] 86\t\t\tfunction getCustomersOfBank(ui...\n      PUSH 4\t\t\tfunction getCustomersOfBank(ui...\n      DUP1 \t\t\tfunction getCustomersOfBank(ui...\n      CALLDATASIZE \t\t\tfunction getCustomersOfBank(ui...\n      SUB \t\t\tfunction getCustomersOfBank(ui...\n      DUP2 \t\t\tfunction getCustomersOfBank(ui...\n      ADD \t\t\tfunction getCustomersOfBank(ui...\n      SWAP1 \t\t\tfunction getCustomersOfBank(ui...\n      PUSH [tag] 87\t\t\tfunction getCustomersOfBank(ui...\n      SWAP2 \t\t\tfunction getCustomersOfBank(ui...\n      SWAP1 \t\t\tfunction getCustomersOfBank(ui...\n      PUSH [tag] 61\t\t\tfunction getCustomersOfBank(ui...\n      JUMP \t\t\tfunction getCustomersOfBank(ui...\n    tag 87\t\t\tfunction getCustomersOfBank(ui...\n      JUMPDEST \t\t\tfunction getCustomersOfBank(ui...\n      PUSH [tag] 88\t\t\tfunction getCustomersOfBank(ui...\n      JUMP \t\t\tfunction getCustomersOfBank(ui...\n    tag 86\t\t\tfunction getCustomersOfBank(ui...\n      JUMPDEST \t\t\tfunction getCustomersOfBank(ui...\n      PUSH 40\t\t\tfunction getCustomersOfBank(ui...\n      MLOAD \t\t\tfunction getCustomersOfBank(ui...\n      PUSH [tag] 89\t\t\tfunction getCustomersOfBank(ui...\n      SWAP3 \t\t\tfunction getCustomersOfBank(ui...\n      SWAP2 \t\t\tfunction getCustomersOfBank(ui...\n      SWAP1 \t\t\tfunction getCustomersOfBank(ui...\n      PUSH [tag] 90\t\t\tfunction getCustomersOfBank(ui...\n      JUMP \t\t\tfunction getCustomersOfBank(ui...\n    tag 89\t\t\tfunction getCustomersOfBank(ui...\n      JUMPDEST \t\t\tfunction getCustomersOfBank(ui...\n      PUSH 40\t\t\tfunction getCustomersOfBank(ui...\n      MLOAD \t\t\tfunction getCustomersOfBank(ui...\n      DUP1 \t\t\tfunction getCustomersOfBank(ui...\n      SWAP2 \t\t\tfunction getCustomersOfBank(ui...\n      SUB \t\t\tfunction getCustomersOfBank(ui...\n      SWAP1 \t\t\tfunction getCustomersOfBank(ui...\n      RETURN \t\t\tfunction getCustomersOfBank(ui...\n    tag 18\t\t\tfunction whoAmI() public view ...\n      JUMPDEST \t\t\tfunction whoAmI() public view ...\n      PUSH [tag] 91\t\t\tfunction whoAmI() public view ...\n      PUSH [tag] 92\t\t\tfunction whoAmI() public view ...\n      JUMP \t\t\tfunction whoAmI() public view ...\n    tag 91\t\t\tfunction whoAmI() public view ...\n      JUMPDEST \t\t\tfunction whoAmI() public view ...\n      PUSH 40\t\t\tfunction whoAmI() public view ...\n      MLOAD \t\t\tfunction whoAmI() public view ...\n      PUSH [tag] 93\t\t\tfunction whoAmI() public view ...\n      SWAP2 \t\t\tfunction whoAmI() public view ...\n      SWAP1 \t\t\tfunction whoAmI() public view ...\n      PUSH [tag] 94\t\t\tfunction whoAmI() public view ...\n      JUMP \t\t\tfunction whoAmI() public view ...\n    tag 93\t\t\tfunction whoAmI() public view ...\n      JUMPDEST \t\t\tfunction whoAmI() public view ...\n      PUSH 40\t\t\tfunction whoAmI() public view ...\n      MLOAD \t\t\tfunction whoAmI() public view ...\n      DUP1 \t\t\tfunction whoAmI() public view ...\n      SWAP2 \t\t\tfunction whoAmI() public view ...\n      SUB \t\t\tfunction whoAmI() public view ...\n      SWAP1 \t\t\tfunction whoAmI() public view ...\n      RETURN \t\t\tfunction whoAmI() public view ...\n    tag 19\t\t\tfunction getBankRequests(uint2...\n      JUMPDEST \t\t\tfunction getBankRequests(uint2...\n      PUSH [tag] 95\t\t\tfunction getBankRequests(uint2...\n      PUSH 4\t\t\tfunction getBankRequests(uint2...\n      DUP1 \t\t\tfunction getBankRequests(uint2...\n      CALLDATASIZE \t\t\tfunction getBankRequests(uint2...\n      SUB \t\t\tfunction getBankRequests(uint2...\n      DUP2 \t\t\tfunction getBankRequests(uint2...\n      ADD \t\t\tfunction getBankRequests(uint2...\n      SWAP1 \t\t\tfunction getBankRequests(uint2...\n      PUSH [tag] 96\t\t\tfunction getBankRequests(uint2...\n      SWAP2 \t\t\tfunction getBankRequests(uint2...\n      SWAP1 \t\t\tfunction getBankRequests(uint2...\n      PUSH [tag] 61\t\t\tfunction getBankRequests(uint2...\n      JUMP \t\t\tfunction getBankRequests(uint2...\n    tag 96\t\t\tfunction getBankRequests(uint2...\n      JUMPDEST \t\t\tfunction getBankRequests(uint2...\n      PUSH [tag] 97\t\t\tfunction getBankRequests(uint2...\n      JUMP \t\t\tfunction getBankRequests(uint2...\n    tag 95\t\t\tfunction getBankRequests(uint2...\n      JUMPDEST \t\t\tfunction getBankRequests(uint2...\n      PUSH 40\t\t\tfunction getBankRequests(uint2...\n      MLOAD \t\t\tfunction getBankRequests(uint2...\n      PUSH [tag] 98\t\t\tfunction getBankRequests(uint2...\n      SWAP3 \t\t\tfunction getBankRequests(uint2...\n      SWAP2 \t\t\tfunction getBankRequests(uint2...\n      SWAP1 \t\t\tfunction getBankRequests(uint2...\n      PUSH [tag] 90\t\t\tfunction getBankRequests(uint2...\n      JUMP \t\t\tfunction getBankRequests(uint2...\n    tag 98\t\t\tfunction getBankRequests(uint2...\n      JUMPDEST \t\t\tfunction getBankRequests(uint2...\n      PUSH 40\t\t\tfunction getBankRequests(uint2...\n      MLOAD \t\t\tfunction getBankRequests(uint2...\n      DUP1 \t\t\tfunction getBankRequests(uint2...\n      SWAP2 \t\t\tfunction getBankRequests(uint2...\n      SUB \t\t\tfunction getBankRequests(uint2...\n      SWAP1 \t\t\tfunction getBankRequests(uint2...\n      RETURN \t\t\tfunction getBankRequests(uint2...\n    tag 20\t\t\tfunction updateKycVerification...\n      JUMPDEST \t\t\tfunction updateKycVerification...\n      PUSH [tag] 99\t\t\tfunction updateKycVerification...\n      PUSH 4\t\t\tfunction updateKycVerification...\n      DUP1 \t\t\tfunction updateKycVerification...\n      CALLDATASIZE \t\t\tfunction updateKycVerification...\n      SUB \t\t\tfunction updateKycVerification...\n      DUP2 \t\t\tfunction updateKycVerification...\n      ADD \t\t\tfunction updateKycVerification...\n      SWAP1 \t\t\tfunction updateKycVerification...\n      PUSH [tag] 100\t\t\tfunction updateKycVerification...\n      SWAP2 \t\t\tfunction updateKycVerification...\n      SWAP1 \t\t\tfunction updateKycVerification...\n      PUSH [tag] 50\t\t\tfunction updateKycVerification...\n      JUMP \t\t\tfunction updateKycVerification...\n    tag 100\t\t\tfunction updateKycVerification...\n      JUMPDEST \t\t\tfunction updateKycVerification...\n      PUSH [tag] 101\t\t\tfunction updateKycVerification...\n      JUMP \t\t\tfunction updateKycVerification...\n    tag 99\t\t\tfunction updateKycVerification...\n      JUMPDEST \t\t\tfunction updateKycVerification...\n      STOP \t\t\tfunction updateKycVerification...\n    tag 27\t\t\tfunction getCustomerDetails(ad...\n      JUMPDEST \t\t\tfunction getCustomerDetails(ad...\n      PUSH [tag] 102\t\t\tTypes.Customer memory\n      PUSH [tag] 103\t\t\tTypes.Customer memory\n      JUMP \t\t\tTypes.Customer memory\n    tag 102\t\t\tTypes.Customer memory\n      JUMPDEST \t\t\tTypes.Customer memory\n      DUP2 \t\t\tid_\n      PUSH 0\t\t\tr\n      PUSH FFFFFFFFFFFFFFFFFFFFFFFFFFFFFFFFFFFFFFFF\t\t\t_;\\r\\n        userL\n      AND \t\t\t_;\\r\\n        userL\n      DUP2 \t\t\t_;\\r\n      PUSH FFFFFFFFFFFFFFFFFFFFFFFFFFFFFFFFFFFFFFFF\t\t\t_;\\r\\n        userL\n      AND \t\t\t_;\\r\\n        userL\n      SUB \t\t\t_;\\r\\n        userL\n      PUSH [tag] 105\t\t\tn] = usr_;\\r\\n        userList...\n      JUMPI \t\t\tn] = usr_;\\r\\n        userList...\n      PUSH 40\t\t\tn] = usr_;\\r\\n        userList...\n      MLOAD \t\t\tn] = usr_;\\r\\n        userList...\n      PUSH 8C379A000000000000000000000000000000000000000000000000000000000\t\t\tn] = usr_;\\r\\n        userList...\n      DUP2 \t\t\tn] = usr_;\\r\\n        userList...\n      MSTORE \t\t\tn] = usr_;\\r\\n        userList...\n      PUSH 4\t\t\tn] = usr_;\\r\\n        userList...\n      ADD \t\t\tn] = usr_;\\r\\n        userList...\n      PUSH [tag] 106\t\t\tn] = usr_;\\r\\n        userList...\n      SWAP1 \t\t\tn] = usr_;\\r\\n        userList...\n      PUSH [tag] 107\t\t\tn] = usr_;\\r\\n        userList...\n      JUMP \t\t\tn] = usr_;\\r\\n        userList...\n    tag 106\t\t\tn] = usr_;\\r\\n        userList...\n      JUMPDEST \t\t\tn] = usr_;\\r\\n        userList...\n      PUSH 40\t\t\tn] = usr_;\\r\\n        userList...\n      MLOAD \t\t\tn] = usr_;\\r\\n        userList...\n      DUP1 \t\t\tn] = usr_;\\r\\n        userList...\n      SWAP2 \t\t\tn] = usr_;\\r\\n        userList...\n      SUB \t\t\tn] = usr_;\\r\\n        userList...\n      SWAP1 \t\t\tn] = usr_;\\r\\n        userList...\n      REVERT \t\t\tn] = usr_;\\r\\n        userList...\n    tag 105\t\t\tn] = usr_;\\r\\n        userList...\n      JUMPDEST \t\t\tn] = usr_;\\r\\n        userList...\n      PUSH 0\t\t\ti\n      PUSH FFFFFFFFFFFFFFFFFFFFFFFFFFFFFFFFFFFFFFFF\t\t\tfier isAdmin() {\\r\\n        re...\n      AND \t\t\tfier isAdmin() {\\r\\n        re...\n      PUSH 1\t\t\tfier isAd\n      PUSH 0\t\t\tfier isAdmin()\n      DUP4 \t\t\tin(\n      PUSH FFFFFFFFFFFFFFFFFFFFFFFFFFFFFFFFFFFFFFFF\t\t\tfier isAdmin()\n      AND \t\t\tfier isAdmin()\n      PUSH FFFFFFFFFFFFFFFFFFFFFFFFFFFFFFFFFFFFFFFF\t\t\tfier isAdmin()\n      AND \t\t\tfier isAdmin()\n      DUP2 \t\t\tfier isAdmin()\n      MSTORE \t\t\tfier isAdmin()\n      PUSH 20\t\t\tfier isAdmin()\n      ADD \t\t\tfier isAdmin()\n      SWAP1 \t\t\tfier isAdmin()\n      DUP2 \t\t\tfier isAdmin()\n      MSTORE \t\t\tfier isAdmin()\n      PUSH 20\t\t\tfier isAdmin()\n      ADD \t\t\tfier isAdmin()\n      PUSH 0\t\t\tfier isAdmin()\n      KECCAK256 \t\t\tfier isAdmin()\n      PUSH 3\t\t\tfier isAdmin() {\\r\\n\n      ADD \t\t\tfier isAdmin() {\\r\\n\n      PUSH 0\t\t\tfier isAdmin() {\\r\\n\n      SWAP1 \t\t\tfier isAdmin() {\\r\\n\n      SLOAD \t\t\tfier isAdmin() {\\r\\n\n      SWAP1 \t\t\tfier isAdmin() {\\r\\n\n      PUSH 100\t\t\tfier isAdmin() {\\r\\n\n      EXP \t\t\tfier isAdmin() {\\r\\n\n      SWAP1 \t\t\tfier isAdmin() {\\r\\n\n      DIV \t\t\tfier isAdmin() {\\r\\n\n      PUSH FFFFFFFFFFFFFFFFFFFFFFFFFFFFFFFFFFFFFFFF\t\t\tfier isAdmin() {\\r\\n\n      AND \t\t\tfier isAdmin() {\\r\\n\n      PUSH FFFFFFFFFFFFFFFFFFFFFFFFFFFFFFFFFFFFFFFF\t\t\tfier isAdmin() {\\r\\n        re...\n      AND \t\t\tfier isAdmin() {\\r\\n        re...\n      SUB \t\t\tfier isAdmin() {\\r\\n        re...\n      PUSH [tag] 108\t\t\t    modifier isAdmin() {\\r\\n  ...\n      JUMPI \t\t\t    modifier isAdmin() {\\r\\n  ...\n      PUSH 40\t\t\t    modifier isAdmin() {\\r\\n  ...\n      MLOAD \t\t\t    modifier isAdmin() {\\r\\n  ...\n      PUSH 8C379A000000000000000000000000000000000000000000000000000000000\t\t\t    modifier isAdmin() {\\r\\n  ...\n      DUP2 \t\t\t    modifier isAdmin() {\\r\\n  ...\n      MSTORE \t\t\t    modifier isAdmin() {\\r\\n  ...\n      PUSH 4\t\t\t    modifier isAdmin() {\\r\\n  ...\n      ADD \t\t\t    modifier isAdmin() {\\r\\n  ...\n      PUSH [tag] 109\t\t\t    modifier isAdmin() {\\r\\n  ...\n      SWAP1 \t\t\t    modifier isAdmin() {\\r\\n  ...\n      PUSH [tag] 110\t\t\t    modifier isAdmin() {\\r\\n  ...\n      JUMP \t\t\t    modifier isAdmin() {\\r\\n  ...\n    tag 109\t\t\t    modifier isAdmin() {\\r\\n  ...\n      JUMPDEST \t\t\t    modifier isAdmin() {\\r\\n  ...\n      PUSH 40\t\t\t    modifier isAdmin() {\\r\\n  ...\n      MLOAD \t\t\t    modifier isAdmin() {\\r\\n  ...\n      DUP1 \t\t\t    modifier isAdmin() {\\r\\n  ...\n      SWAP2 \t\t\t    modifier isAdmin() {\\r\\n  ...\n      SUB \t\t\t    modifier isAdmin() {\\r\\n  ...\n      SWAP1 \t\t\t    modifier isAdmin() {\\r\\n  ...\n      REVERT \t\t\t    modifier isAdmin() {\\r\\n  ...\n    tag 108\t\t\t    modifier isAdmin() {\\r\\n  ...\n      JUMPDEST \t\t\t    modifier isAdmin() {\\r\\n  ...\n      PUSH [tag] 111\t\t\t      _;\\r\\n    }\\r\\n\\r\\n    f...\n      PUSH 1\t\t\tfunction \n      PUSH 0\t\t\tfunction kycRe\n      DUP4 \t\t\tycR\n      PUSH FFFFFFFFFFFFFFFFFFFFFFFFFFFFFFFFFFFFFFFF\t\t\tfunction kycRe\n      AND \t\t\tfunction kycRe\n      PUSH FFFFFFFFFFFFFFFFFFFFFFFFFFFFFFFFFFFFFFFF\t\t\tfunction kycRe\n      AND \t\t\tfunction kycRe\n      DUP2 \t\t\tfunction kycRe\n      MSTORE \t\t\tfunction kycRe\n      PUSH 20\t\t\tfunction kycRe\n      ADD \t\t\tfunction kycRe\n      SWAP1 \t\t\tfunction kycRe\n      DUP2 \t\t\tfunction kycRe\n      MSTORE \t\t\tfunction kycRe\n      PUSH 20\t\t\tfunction kycRe\n      ADD \t\t\tfunction kycRe\n      PUSH 0\t\t\tfunction kycRe\n      KECCAK256 \t\t\tfunction kycRe\n      PUSH 1\t\t\tfunction kycRequestE\n      ADD \t\t\tfunction kycRequestE\n      DUP1 \t\t\t      _;\\r\\n    }\\r\\n\\r\\n    f...\n      SLOAD \t\t\t      _;\\r\\n    }\\r\\n\\r\\n    f...\n      PUSH [tag] 112\t\t\t      _;\\r\\n    }\\r\\n\\r\\n    f...\n      SWAP1 \t\t\t      _;\\r\\n    }\\r\\n\\r\\n    f...\n      PUSH [tag] 113\t\t\t      _;\\r\\n    }\\r\\n\\r\\n    f...\n      JUMP \t\t\t      _;\\r\\n    }\\r\\n\\r\\n    f...\n    tag 112\t\t\t      _;\\r\\n    }\\r\\n\\r\\n    f...\n      JUMPDEST \t\t\t      _;\\r\\n    }\\r\\n\\r\\n    f...\n      DUP1 \t\t\t      _;\\r\\n    }\\r\\n\\r\\n    f...\n      PUSH 1F\t\t\t      _;\\r\\n    }\\r\\n\\r\\n    f...\n      ADD \t\t\t      _;\\r\\n    }\\r\\n\\r\\n    f...\n      PUSH 20\t\t\t      _;\\r\\n    }\\r\\n\\r\\n    f...\n      DUP1 \t\t\t      _;\\r\\n    }\\r\\n\\r\\n    f...\n      SWAP2 \t\t\t      _;\\r\\n    }\\r\\n\\r\\n    f...\n      DIV \t\t\t      _;\\r\\n    }\\r\\n\\r\\n    f...\n      MUL \t\t\t      _;\\r\\n    }\\r\\n\\r\\n    f...\n      PUSH 20\t\t\t      _;\\r\\n    }\\r\\n\\r\\n    f...\n      ADD \t\t\t      _;\\r\\n    }\\r\\n\\r\\n    f...\n      PUSH 40\t\t\t      _;\\r\\n    }\\r\\n\\r\\n    f...\n      MLOAD \t\t\t      _;\\r\\n    }\\r\\n\\r\\n    f...\n      SWAP1 \t\t\t      _;\\r\\n    }\\r\\n\\r\\n    f...\n      DUP2 \t\t\t      _;\\r\\n    }\\r\\n\\r\\n    f...\n      ADD \t\t\t      _;\\r\\n    }\\r\\n\\r\\n    f...\n      PUSH 40\t\t\t      _;\\r\\n    }\\r\\n\\r\\n    f...\n      MSTORE \t\t\t      _;\\r\\n    }\\r\\n\\r\\n    f...\n      DUP1 \t\t\t      _;\\r\\n    }\\r\\n\\r\\n    f...\n      SWAP3 \t\t\t      _;\\r\\n    }\\r\\n\\r\\n    f...\n      SWAP2 \t\t\t      _;\\r\\n    }\\r\\n\\r\\n    f...\n      SWAP1 \t\t\t      _;\\r\\n    }\\r\\n\\r\\n    f...\n      DUP2 \t\t\t      _;\\r\\n    }\\r\\n\\r\\n    f...\n      DUP2 \t\t\t      _;\\r\\n    }\\r\\n\\r\\n    f...\n      MSTORE \t\t\t      _;\\r\\n    }\\r\\n\\r\\n    f...\n      PUSH 20\t\t\t      _;\\r\\n    }\\r\\n\\r\\n    f...\n      ADD \t\t\t      _;\\r\\n    }\\r\\n\\r\\n    f...\n      DUP3 \t\t\t      _;\\r\\n    }\\r\\n\\r\\n    f...\n      DUP1 \t\t\t      _;\\r\\n    }\\r\\n\\r\\n    f...\n      SLOAD \t\t\t      _;\\r\\n    }\\r\\n\\r\\n    f...\n      PUSH [tag] 114\t\t\t      _;\\r\\n    }\\r\\n\\r\\n    f...\n      SWAP1 \t\t\t      _;\\r\\n    }\\r\\n\\r\\n    f...\n      PUSH [tag] 113\t\t\t      _;\\r\\n    }\\r\\n\\r\\n    f...\n      JUMP \t\t\t      _;\\r\\n    }\\r\\n\\r\\n    f...\n    tag 114\t\t\t      _;\\r\\n    }\\r\\n\\r\\n    f...\n      JUMPDEST \t\t\t      _;\\r\\n    }\\r\\n\\r\\n    f...\n      DUP1 \t\t\t      _;\\r\\n    }\\r\\n\\r\\n    f...\n      ISZERO \t\t\t      _;\\r\\n    }\\r\\n\\r\\n    f...\n      PUSH [tag] 115\t\t\t      _;\\r\\n    }\\r\\n\\r\\n    f...\n      JUMPI \t\t\t      _;\\r\\n    }\\r\\n\\r\\n    f...\n      DUP1 \t\t\t      _;\\r\\n    }\\r\\n\\r\\n    f...\n      PUSH 1F\t\t\t      _;\\r\\n    }\\r\\n\\r\\n    f...\n      LT \t\t\t      _;\\r\\n    }\\r\\n\\r\\n    f...\n      PUSH [tag] 116\t\t\t      _;\\r\\n    }\\r\\n\\r\\n    f...\n      JUMPI \t\t\t      _;\\r\\n    }\\r\\n\\r\\n    f...\n      PUSH 100\t\t\t      _;\\r\\n    }\\r\\n\\r\\n    f...\n      DUP1 \t\t\t      _;\\r\\n    }\\r\\n\\r\\n    f...\n      DUP4 \t\t\t      _;\\r\\n    }\\r\\n\\r\\n    f...\n      SLOAD \t\t\t      _;\\r\\n    }\\r\\n\\r\\n    f...\n      DIV \t\t\t      _;\\r\\n    }\\r\\n\\r\\n    f...\n      MUL \t\t\t      _;\\r\\n    }\\r\\n\\r\\n    f...\n      DUP4 \t\t\t      _;\\r\\n    }\\r\\n\\r\\n    f...\n      MSTORE \t\t\t      _;\\r\\n    }\\r\\n\\r\\n    f...\n      SWAP2 \t\t\t      _;\\r\\n    }\\r\\n\\r\\n    f...\n      PUSH 20\t\t\t      _;\\r\\n    }\\r\\n\\r\\n    f...\n      ADD \t\t\t      _;\\r\\n    }\\r\\n\\r\\n    f...\n      SWAP2 \t\t\t      _;\\r\\n    }\\r\\n\\r\\n    f...\n      PUSH [tag] 115\t\t\t      _;\\r\\n    }\\r\\n\\r\\n    f...\n      JUMP \t\t\t      _;\\r\\n    }\\r\\n\\r\\n    f...\n    tag 116\t\t\t      _;\\r\\n    }\\r\\n\\r\\n    f...\n      JUMPDEST \t\t\t      _;\\r\\n    }\\r\\n\\r\\n    f...\n      DUP3 \t\t\t      _;\\r\\n    }\\r\\n\\r\\n    f...\n      ADD \t\t\t      _;\\r\\n    }\\r\\n\\r\\n    f...\n      SWAP2 \t\t\t      _;\\r\\n    }\\r\\n\\r\\n    f...\n      SWAP1 \t\t\t      _;\\r\\n    }\\r\\n\\r\\n    f...\n      PUSH 0\t\t\t      _;\\r\\n    }\\r\\n\\r\\n    f...\n      MSTORE \t\t\t      _;\\r\\n    }\\r\\n\\r\\n    f...\n      PUSH 20\t\t\t      _;\\r\\n    }\\r\\n\\r\\n    f...\n      PUSH 0\t\t\t      _;\\r\\n    }\\r\\n\\r\\n    f...\n      KECCAK256 \t\t\t      _;\\r\\n    }\\r\\n\\r\\n    f...\n      SWAP1 \t\t\t      _;\\r\\n    }\\r\\n\\r\\n    f...\n    tag 117\t\t\t      _;\\r\\n    }\\r\\n\\r\\n    f...\n      JUMPDEST \t\t\t      _;\\r\\n    }\\r\\n\\r\\n    f...\n      DUP2 \t\t\t      _;\\r\\n    }\\r\\n\\r\\n    f...\n      SLOAD \t\t\t      _;\\r\\n    }\\r\\n\\r\\n    f...\n      DUP2 \t\t\t      _;\\r\\n    }\\r\\n\\r\\n    f...\n      MSTORE \t\t\t      _;\\r\\n    }\\r\\n\\r\\n    f...\n      SWAP1 \t\t\t      _;\\r\\n    }\\r\\n\\r\\n    f...\n      PUSH 1\t\t\t      _;\\r\\n    }\\r\\n\\r\\n    f...\n      ADD \t\t\t      _;\\r\\n    }\\r\\n\\r\\n    f...\n      SWAP1 \t\t\t      _;\\r\\n    }\\r\\n\\r\\n    f...\n      PUSH 20\t\t\t      _;\\r\\n    }\\r\\n\\r\\n    f...\n      ADD \t\t\t      _;\\r\\n    }\\r\\n\\r\\n    f...\n      DUP1 \t\t\t      _;\\r\\n    }\\r\\n\\r\\n    f...\n      DUP4 \t\t\t      _;\\r\\n    }\\r\\n\\r\\n    f...\n      GT \t\t\t      _;\\r\\n    }\\r\\n\\r\\n    f...\n      PUSH [tag] 117\t\t\t      _;\\r\\n    }\\r\\n\\r\\n    f...\n      JUMPI \t\t\t      _;\\r\\n    }\\r\\n\\r\\n    f...\n      DUP3 \t\t\t      _;\\r\\n    }\\r\\n\\r\\n    f...\n      SWAP1 \t\t\t      _;\\r\\n    }\\r\\n\\r\\n    f...\n      SUB \t\t\t      _;\\r\\n    }\\r\\n\\r\\n    f...\n      PUSH 1F\t\t\t      _;\\r\\n    }\\r\\n\\r\\n    f...\n      AND \t\t\t      _;\\r\\n    }\\r\\n\\r\\n    f...\n      DUP3 \t\t\t      _;\\r\\n    }\\r\\n\\r\\n    f...\n      ADD \t\t\t      _;\\r\\n    }\\r\\n\\r\\n    f...\n      SWAP2 \t\t\t      _;\\r\\n    }\\r\\n\\r\\n    f...\n    tag 115\t\t\t      _;\\r\\n    }\\r\\n\\r\\n    f...\n      JUMPDEST \t\t\t      _;\\r\\n    }\\r\\n\\r\\n    f...\n      POP \t\t\t      _;\\r\\n    }\\r\\n\\r\\n    f...\n      POP \t\t\t      _;\\r\\n    }\\r\\n\\r\\n    f...\n      POP \t\t\t      _;\\r\\n    }\\r\\n\\r\\n    f...\n      POP \t\t\t      _;\\r\\n    }\\r\\n\\r\\n    f...\n      POP \t\t\t      _;\\r\\n    }\\r\\n\\r\\n    f...\n      PUSH 40\t\t\t      _;\\r\\n    }\\r\\n\\r\\n    f...\n      MLOAD \t\t\t      _;\\r\\n    }\\r\\n\\r\\n    f...\n      DUP1 \t\t\t      _;\\r\\n    }\\r\\n\\r\\n    f...\n      PUSH 20\t\t\t      _;\\r\\n    }\\r\\n\\r\\n    f...\n      ADD \t\t\t      _;\\r\\n    }\\r\\n\\r\\n    f...\n      PUSH 40\t\t\t      _;\\r\\n    }\\r\\n\\r\\n    f...\n      MSTORE \t\t\t      _;\\r\\n    }\\r\\n\\r\\n    f...\n      DUP1 \t\t\t      _;\\r\\n    }\\r\\n\\r\\n    f...\n      PUSH 0\t\t\t      _;\\r\\n    }\\r\\n\\r\\n    f...\n      DUP2 \t\t\t      _;\\r\\n    }\\r\\n\\r\\n    f...\n      MSTORE \t\t\t      _;\\r\\n    }\\r\\n\\r\\n    f...\n      POP \t\t\t      _;\\r\\n    }\\r\\n\\r\\n    f...\n      PUSH [tag] 118\t\t\t      _;\\r\\n    }\\r\\n\\r\\n   \n      JUMP \t\t\t      _;\\r\\n    }\\r\\n\\r\\n    f...\n    tag 111\t\t\t      _;\\r\\n    }\\r\\n\\r\\n    f...\n      JUMPDEST \t\t\t      _;\\r\\n    }\\r\\n\\r\\n    f...\n      ISZERO \t\t\t       _;\\r\\n    }\\r\\n\\r\\n    ...\n      PUSH [tag] 119\t\t\tadmin is allowed\");\\r\\n       ...\n      JUMPI \t\t\tadmin is allowed\");\\r\\n       ...\n      PUSH 40\t\t\tadmin is allowed\");\\r\\n       ...\n      MLOAD \t\t\tadmin is allowed\");\\r\\n       ...\n      PUSH 8C379A000000000000000000000000000000000000000000000000000000000\t\t\tadmin is allowed\");\\r\\n       ...\n      DUP2 \t\t\tadmin is allowed\");\\r\\n       ...\n      MSTORE \t\t\tadmin is allowed\");\\r\\n       ...\n      PUSH 4\t\t\tadmin is allowed\");\\r\\n       ...\n      ADD \t\t\tadmin is allowed\");\\r\\n       ...\n      PUSH [tag] 120\t\t\tadmin is allowed\");\\r\\n       ...\n      SWAP1 \t\t\tadmin is allowed\");\\r\\n       ...\n      PUSH [tag] 121\t\t\tadmin is allowed\");\\r\\n       ...\n      JUMP \t\t\tadmin is allowed\");\\r\\n       ...\n    tag 120\t\t\tadmin is allowed\");\\r\\n       ...\n      JUMPDEST \t\t\tadmin is allowed\");\\r\\n       ...\n      PUSH 40\t\t\tadmin is allowed\");\\r\\n       ...\n      MLOAD \t\t\tadmin is allowed\");\\r\\n       ...\n      DUP1 \t\t\tadmin is allowed\");\\r\\n       ...\n      SWAP2 \t\t\tadmin is allowed\");\\r\\n       ...\n      SUB \t\t\tadmin is allowed\");\\r\\n       ...\n      SWAP1 \t\t\tadmin is allowed\");\\r\\n       ...\n      REVERT \t\t\tadmin is allowed\");\\r\\n       ...\n    tag 119\t\t\tadmin is allowed\");\\r\\n       ...\n      JUMPDEST \t\t\tadmin is allowed\");\\r\\n       ...\n      PUSH [tag] 123\t\t\tgetcustomerdetails(id_)\n      DUP4 \t\t\tid_\n      PUSH [tag] 124\t\t\tgetcustomerdetails\n      JUMP \t\t\tgetcustomerdetails(id_)\n    tag 123\t\t\tgetcustomerdetails(id_)\n      JUMPDEST \t\t\tgetcustomerdetails(id_)\n      SWAP2 \t\t\treturn getcustomerdetails(id_)\n      POP \t\t\treturn getcustomerdetails(id_)\n      POP \t\t\tfunction getCustomerDetails(ad...\n      SWAP2 \t\t\tfunction getCustomerDetails(ad...\n      SWAP1 \t\t\tfunction getCustomerDetails(ad...\n      POP \t\t\tfunction getCustomerDetails(ad...\n      JUMP \t\t\tfunction getCustomerDetails(ad...\n    tag 32\t\t\tfunction getBankDetails(addres...\n      JUMPDEST \t\t\tfunction getBankDetails(addres...\n      PUSH [tag] 125\t\t\tTypes.Bank memory\n      PUSH [tag] 126\t\t\tTypes.Bank memory\n      JUMP \t\t\tTypes.Bank memory\n    tag 125\t\t\tTypes.Bank memory\n      JUMPDEST \t\t\tTypes.Bank memory\n      DUP2 \t\t\tid_\n      PUSH 0\t\t\t \n      PUSH FFFFFFFFFFFFFFFFFFFFFFFFFFFFFFFFFFFFFFFF\t\t\tn);\\r\\n    }\\r\\n\\r\\n    modifi...\n      AND \t\t\tn);\\r\\n    }\\r\\n\\r\\n    modifi...\n      PUSH 3\t\t\tn);\\r\\n\n      PUSH 0\t\t\tn);\\r\\n    }\n      DUP4 \t\t\t   \n      PUSH FFFFFFFFFFFFFFFFFFFFFFFFFFFFFFFFFFFFFFFF\t\t\tn);\\r\\n    }\n      AND \t\t\tn);\\r\\n    }\n      PUSH FFFFFFFFFFFFFFFFFFFFFFFFFFFFFFFFFFFFFFFF\t\t\tn);\\r\\n    }\n      AND \t\t\tn);\\r\\n    }\n      DUP2 \t\t\tn);\\r\\n    }\n      MSTORE \t\t\tn);\\r\\n    }\n      PUSH 20\t\t\tn);\\r\\n    }\n      ADD \t\t\tn);\\r\\n    }\n      SWAP1 \t\t\tn);\\r\\n    }\n      DUP2 \t\t\tn);\\r\\n    }\n      MSTORE \t\t\tn);\\r\\n    }\n      PUSH 20\t\t\tn);\\r\\n    }\n      ADD \t\t\tn);\\r\\n    }\n      PUSH 0\t\t\tn);\\r\\n    }\n      KECCAK256 \t\t\tn);\\r\\n    }\n      PUSH 2\t\t\tn);\\r\\n    }\\r\\n\\r\\n\n      ADD \t\t\tn);\\r\\n    }\\r\\n\\r\\n\n      PUSH 0\t\t\tn);\\r\\n    }\\r\\n\\r\\n\n      SWAP1 \t\t\tn);\\r\\n    }\\r\\n\\r\\n\n      SLOAD \t\t\tn);\\r\\n    }\\r\\n\\r\\n\n      SWAP1 \t\t\tn);\\r\\n    }\\r\\n\\r\\n\n      PUSH 100\t\t\tn);\\r\\n    }\\r\\n\\r\\n\n      EXP \t\t\tn);\\r\\n    }\\r\\n\\r\\n\n      SWAP1 \t\t\tn);\\r\\n    }\\r\\n\\r\\n\n      DIV \t\t\tn);\\r\\n    }\\r\\n\\r\\n\n      PUSH FFFFFFFFFFFFFFFFFFFFFFFFFFFFFFFFFFFFFFFF\t\t\tn);\\r\\n    }\\r\\n\\r\\n\n      AND \t\t\tn);\\r\\n    }\\r\\n\\r\\n\n      PUSH FFFFFFFFFFFFFFFFFFFFFFFFFFFFFFFFFFFFFFFF\t\t\tn);\\r\\n    }\\r\\n\\r\\n    modifi...\n      AND \t\t\tn);\\r\\n    }\\r\\n\\r\\n    modifi...\n      SUB \t\t\tn);\\r\\n    }\\r\\n\\r\\n    modifi...\n      PUSH [tag] 128\t\t\tush(admin);\\r\\n    }\\r\\n\\r\\n  ...\n      JUMPI \t\t\tush(admin);\\r\\n    }\\r\\n\\r\\n  ...\n      PUSH 40\t\t\tush(admin);\\r\\n    }\\r\\n\\r\\n  ...\n      MLOAD \t\t\tush(admin);\\r\\n    }\\r\\n\\r\\n  ...\n      PUSH 8C379A000000000000000000000000000000000000000000000000000000000\t\t\tush(admin);\\r\\n    }\\r\\n\\r\\n  ...\n      DUP2 \t\t\tush(admin);\\r\\n    }\\r\\n\\r\\n  ...\n      MSTORE \t\t\tush(admin);\\r\\n    }\\r\\n\\r\\n  ...\n      PUSH 4\t\t\tush(admin);\\r\\n    }\\r\\n\\r\\n  ...\n      ADD \t\t\tush(admin);\\r\\n    }\\r\\n\\r\\n  ...\n      PUSH [tag] 129\t\t\tush(admin);\\r\\n    }\\r\\n\\r\\n  ...\n      SWAP1 \t\t\tush(admin);\\r\\n    }\\r\\n\\r\\n  ...\n      PUSH [tag] 130\t\t\tush(admin);\\r\\n    }\\r\\n\\r\\n  ...\n      JUMP \t\t\tush(admin);\\r\\n    }\\r\\n\\r\\n  ...\n    tag 129\t\t\tush(admin);\\r\\n    }\\r\\n\\r\\n  ...\n      JUMPDEST \t\t\tush(admin);\\r\\n    }\\r\\n\\r\\n  ...\n      PUSH 40\t\t\tush(admin);\\r\\n    }\\r\\n\\r\\n  ...\n      MLOAD \t\t\tush(admin);\\r\\n    }\\r\\n\\r\\n  ...\n      DUP1 \t\t\tush(admin);\\r\\n    }\\r\\n\\r\\n  ...\n      SWAP2 \t\t\tush(admin);\\r\\n    }\\r\\n\\r\\n  ...\n      SUB \t\t\tush(admin);\\r\\n    }\\r\\n\\r\\n  ...\n      SWAP1 \t\t\tush(admin);\\r\\n    }\\r\\n\\r\\n  ...\n      REVERT \t\t\tush(admin);\\r\\n    }\\r\\n\\r\\n  ...\n    tag 128\t\t\tush(admin);\\r\\n    }\\r\\n\\r\\n  ...\n      JUMPDEST \t\t\tush(admin);\\r\\n    }\\r\\n\\r\\n  ...\n      DUP1 \t\t\tdmi\n      PUSH FFFFFFFFFFFFFFFFFFFFFFFFFFFFFFFFFFFFFFFF\t\t\t == admin, \"Only admi\n      AND \t\t\t == admin, \"Only admi\n      PUSH 3\t\t\t == a\n      PUSH 0\t\t\t == admin,\n      DUP4 \t\t\tmin\n      PUSH FFFFFFFFFFFFFFFFFFFFFFFFFFFFFFFFFFFFFFFF\t\t\t == admin,\n      AND \t\t\t == admin,\n      PUSH FFFFFFFFFFFFFFFFFFFFFFFFFFFFFFFFFFFFFFFF\t\t\t == admin,\n      AND \t\t\t == admin,\n      DUP2 \t\t\t == admin,\n      MSTORE \t\t\t == admin,\n      PUSH 20\t\t\t == admin,\n      ADD \t\t\t == admin,\n      SWAP1 \t\t\t == admin,\n      DUP2 \t\t\t == admin,\n      MSTORE \t\t\t == admin,\n      PUSH 20\t\t\t == admin,\n      ADD \t\t\t == admin,\n      PUSH 0\t\t\t == admin,\n      KECCAK256 \t\t\t == admin,\n      PUSH 2\t\t\t == admin, \"On\n      ADD \t\t\t == admin, \"On\n      PUSH 0\t\t\t == admin, \"On\n      SWAP1 \t\t\t == admin, \"On\n      SLOAD \t\t\t == admin, \"On\n      SWAP1 \t\t\t == admin, \"On\n      PUSH 100\t\t\t == admin, \"On\n      EXP \t\t\t == admin, \"On\n      SWAP1 \t\t\t == admin, \"On\n      DIV \t\t\t == admin, \"On\n      PUSH FFFFFFFFFFFFFFFFFFFFFFFFFFFFFFFFFFFFFFFF\t\t\t == admin, \"On\n      AND \t\t\t == admin, \"On\n      PUSH FFFFFFFFFFFFFFFFFFFFFFFFFFFFFFFFFFFFFFFF\t\t\t == admin, \"Only admi\n      AND \t\t\t == admin, \"Only admi\n      EQ \t\t\t == admin, \"Only admi\n      PUSH [tag] 131\t\t\tg.sender == admin, \"Only admin...\n      JUMPI \t\t\tg.sender == admin, \"Only admin...\n      PUSH 40\t\t\tg.sender == admin, \"Only admin...\n      MLOAD \t\t\tg.sender == admin, \"Only admin...\n      PUSH 8C379A000000000000000000000000000000000000000000000000000000000\t\t\tg.sender == admin, \"Only admin...\n      DUP2 \t\t\tg.sender == admin, \"Only admin...\n      MSTORE \t\t\tg.sender == admin, \"Only admin...\n      PUSH 4\t\t\tg.sender == admin, \"Only admin...\n      ADD \t\t\tg.sender == admin, \"Only admin...\n      PUSH [tag] 132\t\t\tg.sender == admin, \"Only admin...\n      SWAP1 \t\t\tg.sender == admin, \"Only admin...\n      PUSH [tag] 130\t\t\tg.sender == admin, \"Only admin...\n      JUMP \t\t\tg.sender == admin, \"Only admin...\n    tag 132\t\t\tg.sender == admin, \"Only admin...\n      JUMPDEST \t\t\tg.sender == admin, \"Only admin...\n      PUSH 40\t\t\tg.sender == admin, \"Only admin...\n      MLOAD \t\t\tg.sender == admin, \"Only admin...\n      DUP1 \t\t\tg.sender == admin, \"Only admin...\n      SWAP2 \t\t\tg.sender == admin, \"Only admin...\n      SUB \t\t\tg.sender == admin, \"Only admin...\n      SWAP1 \t\t\tg.sender == admin, \"Only admin...\n      REVERT \t\t\tg.sender == admin, \"Only admin...\n    tag 131\t\t\tg.sender == admin, \"Only admin...\n      JUMPDEST \t\t\tg.sender == admin, \"Only admin...\n      PUSH 0\t\t\tg memory reqId_)\\r\\n     \n      PUSH 1\t\t\tycRequestExists(string memory ...\n      DUP2 \t\t\tycRequestExists(string memory ...\n      GT \t\t\tycRequestExists(string memory ...\n      ISZERO \t\t\tycRequestExists(string memory ...\n      PUSH [tag] 133\t\t\tycRequestExists(string memory ...\n      JUMPI \t\t\tycRequestExists(string memory ...\n      PUSH [tag] 134\t\t\tycRequestExists(string memory ...\n      PUSH [tag] 135\t\t\tycRequestExists(string memory ...\n      JUMP \t\t\tycRequestExists(string memory ...\n    tag 134\t\t\tycRequestExists(string memory ...\n      JUMPDEST \t\t\tycRequestExists(string memory ...\n    tag 133\t\t\tycRequestExists(string memory ...\n      JUMPDEST \t\t\tycRequestExists(string memory ...\n      PUSH 3\t\t\tycReq\n      PUSH 0\t\t\tycRequestE\n      DUP4 \t\t\test\n      PUSH FFFFFFFFFFFFFFFFFFFFFFFFFFFFFFFFFFFFFFFF\t\t\tycRequestE\n      AND \t\t\tycRequestE\n      PUSH FFFFFFFFFFFFFFFFFFFFFFFFFFFFFFFFFFFFFFFF\t\t\tycRequestE\n      AND \t\t\tycRequestE\n      DUP2 \t\t\tycRequestE\n      MSTORE \t\t\tycRequestE\n      PUSH 20\t\t\tycRequestE\n      ADD \t\t\tycRequestE\n      SWAP1 \t\t\tycRequestE\n      DUP2 \t\t\tycRequestE\n      MSTORE \t\t\tycRequestE\n      PUSH 20\t\t\tycRequestE\n      ADD \t\t\tycRequestE\n      PUSH 0\t\t\tycRequestE\n      KECCAK256 \t\t\tycRequestE\n      PUSH 4\t\t\tycRequestExists(s\n      ADD \t\t\tycRequestExists(s\n      PUSH 2\t\t\tycRequestExists(s\n      SWAP1 \t\t\tycRequestExists(s\n      SLOAD \t\t\tycRequestExists(s\n      SWAP1 \t\t\tycRequestExists(s\n      PUSH 100\t\t\tycRequestExists(s\n      EXP \t\t\tycRequestExists(s\n      SWAP1 \t\t\tycRequestExists(s\n      DIV \t\t\tycRequestExists(s\n      PUSH FF\t\t\tycRequestExists(s\n      AND \t\t\tycRequestExists(s\n      PUSH 1\t\t\tycRequestExists(string memory ...\n      DUP2 \t\t\tycRequestExists(string memory ...\n      GT \t\t\tycRequestExists(string memory ...\n      ISZERO \t\t\tycRequestExists(string memory ...\n      PUSH [tag] 136\t\t\tycRequestExists(string memory ...\n      JUMPI \t\t\tycRequestExists(string memory ...\n      PUSH [tag] 137\t\t\tycRequestExists(string memory ...\n      PUSH [tag] 135\t\t\tycRequestExists(string memory ...\n      JUMP \t\t\tycRequestExists(string memory ...\n    tag 137\t\t\tycRequestExists(string memory ...\n      JUMPDEST \t\t\tycRequestExists(string memory ...\n    tag 136\t\t\tycRequestExists(string memory ...\n      JUMPDEST \t\t\tycRequestExists(string memory ...\n      EQ \t\t\tycRequestExists(string memory ...\n      PUSH [tag] 138\t\t\t   }\\r\\n\\r\\n    function kycRe...\n      JUMPI \t\t\t   }\\r\\n\\r\\n    function kycRe...\n      PUSH 40\t\t\t   }\\r\\n\\r\\n    function kycRe...\n      MLOAD \t\t\t   }\\r\\n\\r\\n    function kycRe...\n      PUSH 8C379A000000000000000000000000000000000000000000000000000000000\t\t\t   }\\r\\n\\r\\n    function kycRe...\n      DUP2 \t\t\t   }\\r\\n\\r\\n    function kycRe...\n      MSTORE \t\t\t   }\\r\\n\\r\\n    function kycRe...\n      PUSH 4\t\t\t   }\\r\\n\\r\\n    function kycRe...\n      ADD \t\t\t   }\\r\\n\\r\\n    function kycRe...\n      PUSH [tag] 139\t\t\t   }\\r\\n\\r\\n    function kycRe...\n      SWAP1 \t\t\t   }\\r\\n\\r\\n    function kycRe...\n      PUSH [tag] 140\t\t\t   }\\r\\n\\r\\n    function kycRe...\n      JUMP \t\t\t   }\\r\\n\\r\\n    function kycRe...\n    tag 139\t\t\t   }\\r\\n\\r\\n    function kycRe...\n      JUMPDEST \t\t\t   }\\r\\n\\r\\n    function kycRe...\n      PUSH 40\t\t\t   }\\r\\n\\r\\n    function kycRe...\n      MLOAD \t\t\t   }\\r\\n\\r\\n    function kycRe...\n      DUP1 \t\t\t   }\\r\\n\\r\\n    function kycRe...\n      SWAP2 \t\t\t   }\\r\\n\\r\\n    function kycRe...\n      SUB \t\t\t   }\\r\\n\\r\\n    function kycRe...\n      SWAP1 \t\t\t   }\\r\\n\\r\\n    function kycRe...\n      REVERT \t\t\t   }\\r\\n\\r\\n    function kycRe...\n    tag 138\t\t\t   }\\r\\n\\r\\n    function kycRe...\n      JUMPDEST \t\t\t   }\\r\\n\\r\\n    function kycRe...\n      PUSH [tag] 142\t\t\tgetsinglebank(id_)\n      DUP4 \t\t\tid_\n      PUSH [tag] 143\t\t\tgetsinglebank\n      JUMP \t\t\tgetsinglebank(id_)\n    tag 142\t\t\tgetsinglebank(id_)\n      JUMPDEST \t\t\tgetsinglebank(id_)\n      SWAP2 \t\t\treturn getsinglebank(id_)\n      POP \t\t\treturn getsinglebank(id_)\n      POP \t\t\tfunction getBankDetails(addres...\n      SWAP2 \t\t\tfunction getBankDetails(addres...\n      SWAP1 \t\t\tfunction getBankDetails(addres...\n      POP \t\t\tfunction getBankDetails(addres...\n      JUMP \t\t\tfunction getBankDetails(addres...\n    tag 38\t\t\tfunction reRequestForKycReques...\n      JUMPDEST \t\t\tfunction reRequestForKycReques...\n      CALLER \t\t\tmsg.sender\n      PUSH 0\t\t\t \n      PUSH FFFFFFFFFFFFFFFFFFFFFFFFFFFFFFFFFFFFFFFF\t\t\tn);\\r\\n    }\\r\\n\\r\\n    modifi...\n      AND \t\t\tn);\\r\\n    }\\r\\n\\r\\n    modifi...\n      PUSH 3\t\t\tn);\\r\\n\n      PUSH 0\t\t\tn);\\r\\n    }\n      DUP4 \t\t\t   \n      PUSH FFFFFFFFFFFFFFFFFFFFFFFFFFFFFFFFFFFFFFFF\t\t\tn);\\r\\n    }\n      AND \t\t\tn);\\r\\n    }\n      PUSH FFFFFFFFFFFFFFFFFFFFFFFFFFFFFFFFFFFFFFFF\t\t\tn);\\r\\n    }\n      AND \t\t\tn);\\r\\n    }\n      DUP2 \t\t\tn);\\r\\n    }\n      MSTORE \t\t\tn);\\r\\n    }\n      PUSH 20\t\t\tn);\\r\\n    }\n      ADD \t\t\tn);\\r\\n    }\n      SWAP1 \t\t\tn);\\r\\n    }\n      DUP2 \t\t\tn);\\r\\n    }\n      MSTORE \t\t\tn);\\r\\n    }\n      PUSH 20\t\t\tn);\\r\\n    }\n      ADD \t\t\tn);\\r\\n    }\n      PUSH 0\t\t\tn);\\r\\n    }\n      KECCAK256 \t\t\tn);\\r\\n    }\n      PUSH 2\t\t\tn);\\r\\n    }\\r\\n\\r\\n\n      ADD \t\t\tn);\\r\\n    }\\r\\n\\r\\n\n      PUSH 0\t\t\tn);\\r\\n    }\\r\\n\\r\\n\n      SWAP1 \t\t\tn);\\r\\n    }\\r\\n\\r\\n\n      SLOAD \t\t\tn);\\r\\n    }\\r\\n\\r\\n\n      SWAP1 \t\t\tn);\\r\\n    }\\r\\n\\r\\n\n      PUSH 100\t\t\tn);\\r\\n    }\\r\\n\\r\\n\n      EXP \t\t\tn);\\r\\n    }\\r\\n\\r\\n\n      SWAP1 \t\t\tn);\\r\\n    }\\r\\n\\r\\n\n      DIV \t\t\tn);\\r\\n    }\\r\\n\\r\\n\n      PUSH FFFFFFFFFFFFFFFFFFFFFFFFFFFFFFFFFFFFFFFF\t\t\tn);\\r\\n    }\\r\\n\\r\\n\n      AND \t\t\tn);\\r\\n    }\\r\\n\\r\\n\n      PUSH FFFFFFFFFFFFFFFFFFFFFFFFFFFFFFFFFFFFFFFF\t\t\tn);\\r\\n    }\\r\\n\\r\\n    modifi...\n      AND \t\t\tn);\\r\\n    }\\r\\n\\r\\n    modifi...\n      SUB \t\t\tn);\\r\\n    }\\r\\n\\r\\n    modifi...\n      PUSH [tag] 145\t\t\tush(admin);\\r\\n    }\\r\\n\\r\\n  ...\n      JUMPI \t\t\tush(admin);\\r\\n    }\\r\\n\\r\\n  ...\n      PUSH 40\t\t\tush(admin);\\r\\n    }\\r\\n\\r\\n  ...\n      MLOAD \t\t\tush(admin);\\r\\n    }\\r\\n\\r\\n  ...\n      PUSH 8C379A000000000000000000000000000000000000000000000000000000000\t\t\tush(admin);\\r\\n    }\\r\\n\\r\\n  ...\n      DUP2 \t\t\tush(admin);\\r\\n    }\\r\\n\\r\\n  ...\n      MSTORE \t\t\tush(admin);\\r\\n    }\\r\\n\\r\\n  ...\n      PUSH 4\t\t\tush(admin);\\r\\n    }\\r\\n\\r\\n  ...\n      ADD \t\t\tush(admin);\\r\\n    }\\r\\n\\r\\n  ...\n      PUSH [tag] 146\t\t\tush(admin);\\r\\n    }\\r\\n\\r\\n  ...\n      SWAP1 \t\t\tush(admin);\\r\\n    }\\r\\n\\r\\n  ...\n      PUSH [tag] 130\t\t\tush(admin);\\r\\n    }\\r\\n\\r\\n  ...\n      JUMP \t\t\tush(admin);\\r\\n    }\\r\\n\\r\\n  ...\n    tag 146\t\t\tush(admin);\\r\\n    }\\r\\n\\r\\n  ...\n      JUMPDEST \t\t\tush(admin);\\r\\n    }\\r\\n\\r\\n  ...\n      PUSH 40\t\t\tush(admin);\\r\\n    }\\r\\n\\r\\n  ...\n      MLOAD \t\t\tush(admin);\\r\\n    }\\r\\n\\r\\n  ...\n      DUP1 \t\t\tush(admin);\\r\\n    }\\r\\n\\r\\n  ...\n      SWAP2 \t\t\tush(admin);\\r\\n    }\\r\\n\\r\\n  ...\n      SUB \t\t\tush(admin);\\r\\n    }\\r\\n\\r\\n  ...\n      SWAP1 \t\t\tush(admin);\\r\\n    }\\r\\n\\r\\n  ...\n      REVERT \t\t\tush(admin);\\r\\n    }\\r\\n\\r\\n  ...\n    tag 145\t\t\tush(admin);\\r\\n    }\\r\\n\\r\\n  ...\n      JUMPDEST \t\t\tush(admin);\\r\\n    }\\r\\n\\r\\n  ...\n      DUP1 \t\t\tdmi\n      PUSH FFFFFFFFFFFFFFFFFFFFFFFFFFFFFFFFFFFFFFFF\t\t\t == admin, \"Only admi\n      AND \t\t\t == admin, \"Only admi\n      PUSH 3\t\t\t == a\n      PUSH 0\t\t\t == admin,\n      DUP4 \t\t\tmin\n      PUSH FFFFFFFFFFFFFFFFFFFFFFFFFFFFFFFFFFFFFFFF\t\t\t == admin,\n      AND \t\t\t == admin,\n      PUSH FFFFFFFFFFFFFFFFFFFFFFFFFFFFFFFFFFFFFFFF\t\t\t == admin,\n      AND \t\t\t == admin,\n      DUP2 \t\t\t == admin,\n      MSTORE \t\t\t == admin,\n      PUSH 20\t\t\t == admin,\n      ADD \t\t\t == admin,\n      SWAP1 \t\t\t == admin,\n      DUP2 \t\t\t == admin,\n      MSTORE \t\t\t == admin,\n      PUSH 20\t\t\t == admin,\n      ADD \t\t\t == admin,\n      PUSH 0\t\t\t == admin,\n      KECCAK256 \t\t\t == admin,\n      PUSH 2\t\t\t == admin, \"On\n      ADD \t\t\t == admin, \"On\n      PUSH 0\t\t\t == admin, \"On\n      SWAP1 \t\t\t == admin, \"On\n      SLOAD \t\t\t == admin, \"On\n      SWAP1 \t\t\t == admin, \"On\n      PUSH 100\t\t\t == admin, \"On\n      EXP \t\t\t == admin, \"On\n      SWAP1 \t\t\t == admin, \"On\n      DIV \t\t\t == admin, \"On\n      PUSH FFFFFFFFFFFFFFFFFFFFFFFFFFFFFFFFFFFFFFFF\t\t\t == admin, \"On\n      AND \t\t\t == admin, \"On\n      PUSH FFFFFFFFFFFFFFFFFFFFFFFFFFFFFFFFFFFFFFFF\t\t\t == admin, \"Only admi\n      AND \t\t\t == admin, \"Only admi\n      EQ \t\t\t == admin, \"Only admi\n      PUSH [tag] 147\t\t\tg.sender == admin, \"Only admin...\n      JUMPI \t\t\tg.sender == admin, \"Only admin...\n      PUSH 40\t\t\tg.sender == admin, \"Only admin...\n      MLOAD \t\t\tg.sender == admin, \"Only admin...\n      PUSH 8C379A000000000000000000000000000000000000000000000000000000000\t\t\tg.sender == admin, \"Only admin...\n      DUP2 \t\t\tg.sender == admin, \"Only admin...\n      MSTORE \t\t\tg.sender == admin, \"Only admin...\n      PUSH 4\t\t\tg.sender == admin, \"Only admin...\n      ADD \t\t\tg.sender == admin, \"Only admin...\n      PUSH [tag] 148\t\t\tg.sender == admin, \"Only admin...\n      SWAP1 \t\t\tg.sender == admin, \"Only admin...\n      PUSH [tag] 130\t\t\tg.sender == admin, \"Only admin...\n      JUMP \t\t\tg.sender == admin, \"Only admin...\n    tag 148\t\t\tg.sender == admin, \"Only admin...\n      JUMPDEST \t\t\tg.sender == admin, \"Only admin...\n      PUSH 40\t\t\tg.sender == admin, \"Only admin...\n      MLOAD \t\t\tg.sender == admin, \"Only admin...\n      DUP1 \t\t\tg.sender == admin, \"Only admin...\n      SWAP2 \t\t\tg.sender == admin, \"Only admin...\n      SUB \t\t\tg.sender == admin, \"Only admin...\n      SWAP1 \t\t\tg.sender == admin, \"Only admin...\n      REVERT \t\t\tg.sender == admin, \"Only admin...\n    tag 147\t\t\tg.sender == admin, \"Only admin...\n      JUMPDEST \t\t\tg.sender == admin, \"Only admin...\n      PUSH 0\t\t\tg memory reqId_)\\r\\n     \n      PUSH 1\t\t\tycRequestExists(string memory ...\n      DUP2 \t\t\tycRequestExists(string memory ...\n      GT \t\t\tycRequestExists(string memory ...\n      ISZERO \t\t\tycRequestExists(string memory ...\n      PUSH [tag] 149\t\t\tycRequestExists(string memory ...\n      JUMPI \t\t\tycRequestExists(string memory ...\n      PUSH [tag] 150\t\t\tycRequestExists(string memory ...\n      PUSH [tag] 135\t\t\tycRequestExists(string memory ...\n      JUMP \t\t\tycRequestExists(string memory ...\n    tag 150\t\t\tycRequestExists(string memory ...\n      JUMPDEST \t\t\tycRequestExists(string memory ...\n    tag 149\t\t\tycRequestExists(string memory ...\n      JUMPDEST \t\t\tycRequestExists(string memory ...\n      PUSH 3\t\t\tycReq\n      PUSH 0\t\t\tycRequestE\n      DUP4 \t\t\test\n      PUSH FFFFFFFFFFFFFFFFFFFFFFFFFFFFFFFFFFFFFFFF\t\t\tycRequestE\n      AND \t\t\tycRequestE\n      PUSH FFFFFFFFFFFFFFFFFFFFFFFFFFFFFFFFFFFFFFFF\t\t\tycRequestE\n      AND \t\t\tycRequestE\n      DUP2 \t\t\tycRequestE\n      MSTORE \t\t\tycRequestE\n      PUSH 20\t\t\tycRequestE\n      ADD \t\t\tycRequestE\n      SWAP1 \t\t\tycRequestE\n      DUP2 \t\t\tycRequestE\n      MSTORE \t\t\tycRequestE\n      PUSH 20\t\t\tycRequestE\n      ADD \t\t\tycRequestE\n      PUSH 0\t\t\tycRequestE\n      KECCAK256 \t\t\tycRequestE\n      PUSH 4\t\t\tycRequestExists(s\n      ADD \t\t\tycRequestExists(s\n      PUSH 2\t\t\tycRequestExists(s\n      SWAP1 \t\t\tycRequestExists(s\n      SLOAD \t\t\tycRequestExists(s\n      SWAP1 \t\t\tycRequestExists(s\n      PUSH 100\t\t\tycRequestExists(s\n      EXP \t\t\tycRequestExists(s\n      SWAP1 \t\t\tycRequestExists(s\n      DIV \t\t\tycRequestExists(s\n      PUSH FF\t\t\tycRequestExists(s\n      AND \t\t\tycRequestExists(s\n      PUSH 1\t\t\tycRequestExists(string memory ...\n      DUP2 \t\t\tycRequestExists(string memory ...\n      GT \t\t\tycRequestExists(string memory ...\n      ISZERO \t\t\tycRequestExists(string memory ...\n      PUSH [tag] 151\t\t\tycRequestExists(string memory ...\n      JUMPI \t\t\tycRequestExists(string memory ...\n      PUSH [tag] 152\t\t\tycRequestExists(string memory ...\n      PUSH [tag] 135\t\t\tycRequestExists(string memory ...\n      JUMP \t\t\tycRequestExists(string memory ...\n    tag 152\t\t\tycRequestExists(string memory ...\n      JUMPDEST \t\t\tycRequestExists(string memory ...\n    tag 151\t\t\tycRequestExists(string memory ...\n      JUMPDEST \t\t\tycRequestExists(string memory ...\n      EQ \t\t\tycRequestExists(string memory ...\n      PUSH [tag] 153\t\t\t   }\\r\\n\\r\\n    function kycRe...\n      JUMPI \t\t\t   }\\r\\n\\r\\n    function kycRe...\n      PUSH 40\t\t\t   }\\r\\n\\r\\n    function kycRe...\n      MLOAD \t\t\t   }\\r\\n\\r\\n    function kycRe...\n      PUSH 8C379A000000000000000000000000000000000000000000000000000000000\t\t\t   }\\r\\n\\r\\n    function kycRe...\n      DUP2 \t\t\t   }\\r\\n\\r\\n    function kycRe...\n      MSTORE \t\t\t   }\\r\\n\\r\\n    function kycRe...\n      PUSH 4\t\t\t   }\\r\\n\\r\\n    function kycRe...\n      ADD \t\t\t   }\\r\\n\\r\\n    function kycRe...\n      PUSH [tag] 154\t\t\t   }\\r\\n\\r\\n    function kycRe...\n      SWAP1 \t\t\t   }\\r\\n\\r\\n    function kycRe...\n      PUSH [tag] 140\t\t\t   }\\r\\n\\r\\n    function kycRe...\n      JUMP \t\t\t   }\\r\\n\\r\\n    function kycRe...\n    tag 154\t\t\t   }\\r\\n\\r\\n    function kycRe...\n      JUMPDEST \t\t\t   }\\r\\n\\r\\n    function kycRe...\n      PUSH 40\t\t\t   }\\r\\n\\r\\n    function kycRe...\n      MLOAD \t\t\t   }\\r\\n\\r\\n    function kycRe...\n      DUP1 \t\t\t   }\\r\\n\\r\\n    function kycRe...\n      SWAP2 \t\t\t   }\\r\\n\\r\\n    function kycRe...\n      SUB \t\t\t   }\\r\\n\\r\\n    function kycRe...\n      SWAP1 \t\t\t   }\\r\\n\\r\\n    function kycRe...\n      REVERT \t\t\t   }\\r\\n\\r\\n    function kycRe...\n    tag 153\t\t\t   }\\r\\n\\r\\n    function kycRe...\n      JUMPDEST \t\t\t   }\\r\\n\\r\\n    function kycRe...\n      PUSH 0\t\t\tstring memory reqId_\n      PUSH [tag] 156\t\t\tHelpers.append(msg.sender, id_...\n      CALLER \t\t\tmsg.sender\n      DUP6 \t\t\tid_\n      PUSH [tag] 157\t\t\tHelpers.append\n      JUMP \t\t\tHelpers.append(msg.sender, id_...\n    tag 156\t\t\tHelpers.append(msg.sender, id_...\n      JUMPDEST \t\t\tHelpers.append(msg.sender, id_...\n      SWAP1 \t\t\tstring memory reqId_ = Helpers...\n      POP \t\t\tstring memory reqId_ = Helpers...\n      PUSH [tag] 158\t\t\tkycRequestExists(reqId_)\n      DUP2 \t\t\treqId_\n      PUSH [tag] 159\t\t\tkycRequestExists\n      JUMP \t\t\tkycRequestExists(reqId_)\n    tag 158\t\t\tkycRequestExists(reqId_)\n      JUMPDEST \t\t\tkycRequestExists(reqId_)\n      PUSH [tag] 160\t\t\trequire(kycRequestExists(reqId...\n      JUMPI \t\t\trequire(kycRequestExists(reqId...\n      PUSH 40\t\t\trequire(kycRequestExists(reqId...\n      MLOAD \t\t\trequire(kycRequestExists(reqId...\n      PUSH 8C379A000000000000000000000000000000000000000000000000000000000\t\t\trequire(kycRequestExists(reqId...\n      DUP2 \t\t\trequire(kycRequestExists(reqId...\n      MSTORE \t\t\trequire(kycRequestExists(reqId...\n      PUSH 4\t\t\trequire(kycRequestExists(reqId...\n      ADD \t\t\trequire(kycRequestExists(reqId...\n      PUSH [tag] 161\t\t\trequire(kycRequestExists(reqId...\n      SWAP1 \t\t\trequire(kycRequestExists(reqId...\n      PUSH [tag] 162\t\t\trequire(kycRequestExists(reqId...\n      JUMP \t\t\trequire(kycRequestExists(reqId...\n    tag 161\t\t\trequire(kycRequestExists(reqId...\n      JUMPDEST \t\t\trequire(kycRequestExists(reqId...\n      PUSH 40\t\t\trequire(kycRequestExists(reqId...\n      MLOAD \t\t\trequire(kycRequestExists(reqId...\n      DUP1 \t\t\trequire(kycRequestExists(reqId...\n      SWAP2 \t\t\trequire(kycRequestExists(reqId...\n      SUB \t\t\trequire(kycRequestExists(reqId...\n      SWAP1 \t\t\trequire(kycRequestExists(reqId...\n      REVERT \t\t\trequire(kycRequestExists(reqId...\n    tag 160\t\t\trequire(kycRequestExists(reqId...\n      JUMPDEST \t\t\trequire(kycRequestExists(reqId...\n      PUSH [tag] 163\t\t\tcustomerExists(id_)\n      DUP5 \t\t\tid_\n      PUSH [tag] 164\t\t\tcustomerExists\n      JUMP \t\t\tcustomerExists(id_)\n    tag 163\t\t\tcustomerExists(id_)\n      JUMPDEST \t\t\tcustomerExists(id_)\n      PUSH [tag] 165\t\t\trequire(customerExists(id_), \"...\n      JUMPI \t\t\trequire(customerExists(id_), \"...\n      PUSH 40\t\t\trequire(customerExists(id_), \"...\n      MLOAD \t\t\trequire(customerExists(id_), \"...\n      PUSH 8C379A000000000000000000000000000000000000000000000000000000000\t\t\trequire(customerExists(id_), \"...\n      DUP2 \t\t\trequire(customerExists(id_), \"...\n      MSTORE \t\t\trequire(customerExists(id_), \"...\n      PUSH 4\t\t\trequire(customerExists(id_), \"...\n      ADD \t\t\trequire(customerExists(id_), \"...\n      PUSH [tag] 166\t\t\trequire(customerExists(id_), \"...\n      SWAP1 \t\t\trequire(customerExists(id_), \"...\n      PUSH [tag] 167\t\t\trequire(customerExists(id_), \"...\n      JUMP \t\t\trequire(customerExists(id_), \"...\n    tag 166\t\t\trequire(customerExists(id_), \"...\n      JUMPDEST \t\t\trequire(customerExists(id_), \"...\n      PUSH 40\t\t\trequire(customerExists(id_), \"...\n      MLOAD \t\t\trequire(customerExists(id_), \"...\n      DUP1 \t\t\trequire(customerExists(id_), \"...\n      SWAP2 \t\t\trequire(customerExists(id_), \"...\n      SUB \t\t\trequire(customerExists(id_), \"...\n      SWAP1 \t\t\trequire(customerExists(id_), \"...\n      REVERT \t\t\trequire(customerExists(id_), \"...\n    tag 165\t\t\trequire(customerExists(id_), \"...\n      JUMPDEST \t\t\trequire(customerExists(id_), \"...\n      PUSH 0\t\t\tTypes.DataHashStatus.Pending\n      PUSH 7\t\t\tkycRequests\n      DUP3 \t\t\treqId_\n      PUSH 40\t\t\tkycRequests[reqId_]\n      MLOAD \t\t\tkycRequests[reqId_]\n      PUSH [tag] 168\t\t\tkycRequests[reqId_]\n      SWAP2 \t\t\tkycRequests[reqId_]\n      SWAP1 \t\t\tkycRequests[reqId_]\n      PUSH [tag] 169\t\t\tkycRequests[reqId_]\n      JUMP \t\t\tkycRequests[reqId_]\n    tag 168\t\t\tkycRequests[reqId_]\n      JUMPDEST \t\t\tkycRequests[reqId_]\n      SWAP1 \t\t\tkycRequests[reqId_]\n      DUP2 \t\t\tkycRequests[reqId_]\n      MSTORE \t\t\tkycRequests[reqId_]\n      PUSH 20\t\t\tkycRequests[reqId_]\n      ADD \t\t\tkycRequests[reqId_]\n      PUSH 40\t\t\tkycRequests[reqId_]\n      MLOAD \t\t\tkycRequests[reqId_]\n      DUP1 \t\t\tkycRequests[reqId_]\n      SWAP2 \t\t\tkycRequests[reqId_]\n      SUB \t\t\tkycRequests[reqId_]\n      SWAP1 \t\t\tkycRequests[reqId_]\n      KECCAK256 \t\t\tkycRequests[reqId_]\n      PUSH 7\t\t\tkycRequests[reqId_].dataReques...\n      ADD \t\t\tkycRequests[reqId_].dataReques...\n      PUSH 1\t\t\tkycRequests[reqId_].dataReques...\n      PUSH 100\t\t\tkycRequests[reqId_].dataReques...\n      EXP \t\t\tkycRequests[reqId_].dataReques...\n      DUP2 \t\t\tkycRequests[reqId_].dataReques...\n      SLOAD \t\t\tkycRequests[reqId_].dataReques...\n      DUP2 \t\t\tkycRequests[reqId_].dataReques...\n      PUSH FF\t\t\tkycRequests[reqId_].dataReques...\n      MUL \t\t\tkycRequests[reqId_].dataReques...\n      NOT \t\t\tkycRequests[reqId_].dataReques...\n      AND \t\t\tkycRequests[reqId_].dataReques...\n      SWAP1 \t\t\tkycRequests[reqId_].dataReques...\n      DUP4 \t\t\tkycRequests[reqId_].dataReques...\n      PUSH 2\t\t\tkycRequests[reqId_].dataReques...\n      DUP2 \t\t\tkycRequests[reqId_].dataReques...\n      GT \t\t\tkycRequests[reqId_].dataReques...\n      ISZERO \t\t\tkycRequests[reqId_].dataReques...\n      PUSH [tag] 170\t\t\tkycRequests[reqId_].dataReques...\n      JUMPI \t\t\tkycRequests[reqId_].dataReques...\n      PUSH [tag] 171\t\t\tkycRequests[reqId_].dataReques...\n      PUSH [tag] 135\t\t\tkycRequests[reqId_].dataReques...\n      JUMP \t\t\tkycRequests[reqId_].dataReques...\n    tag 171\t\t\tkycRequests[reqId_].dataReques...\n      JUMPDEST \t\t\tkycRequests[reqId_].dataReques...\n    tag 170\t\t\tkycRequests[reqId_].dataReques...\n      JUMPDEST \t\t\tkycRequests[reqId_].dataReques...\n      MUL \t\t\tkycRequests[reqId_].dataReques...\n      OR \t\t\tkycRequests[reqId_].dataReques...\n      SWAP1 \t\t\tkycRequests[reqId_].dataReques...\n      SSTORE \t\t\tkycRequests[reqId_].dataReques...\n      POP \t\t\tkycRequests[reqId_].dataReques...\n      DUP3 \t\t\tnotes_\n      PUSH 7\t\t\tkycRequests\n      DUP3 \t\t\treqId_\n      PUSH 40\t\t\tkycRequests[reqId_]\n      MLOAD \t\t\tkycRequests[reqId_]\n      PUSH [tag] 172\t\t\tkycRequests[reqId_]\n      SWAP2 \t\t\tkycRequests[reqId_]\n      SWAP1 \t\t\tkycRequests[reqId_]\n      PUSH [tag] 169\t\t\tkycRequests[reqId_]\n      JUMP \t\t\tkycRequests[reqId_]\n    tag 172\t\t\tkycRequests[reqId_]\n      JUMPDEST \t\t\tkycRequests[reqId_]\n      SWAP1 \t\t\tkycRequests[reqId_]\n      DUP2 \t\t\tkycRequests[reqId_]\n      MSTORE \t\t\tkycRequests[reqId_]\n      PUSH 20\t\t\tkycRequests[reqId_]\n      ADD \t\t\tkycRequests[reqId_]\n      PUSH 40\t\t\tkycRequests[reqId_]\n      MLOAD \t\t\tkycRequests[reqId_]\n      DUP1 \t\t\tkycRequests[reqId_]\n      SWAP2 \t\t\tkycRequests[reqId_]\n      SUB \t\t\tkycRequests[reqId_]\n      SWAP1 \t\t\tkycRequests[reqId_]\n      KECCAK256 \t\t\tkycRequests[reqId_]\n      PUSH 8\t\t\tkycRequests[reqId_].additional...\n      ADD \t\t\tkycRequests[reqId_].additional...\n      SWAP1 \t\t\tkycRequests[reqId_].additional...\n      DUP2 \t\t\tkycRequests[reqId_].additional...\n      PUSH [tag] 173\t\t\tkycRequests[reqId_].additional...\n      SWAP2 \t\t\tkycRequests[reqId_].additional...\n      SWAP1 \t\t\tkycRequests[reqId_].additional...\n      PUSH [tag] 174\t\t\tkycRequests[reqId_].additional...\n      JUMP \t\t\tkycRequests[reqId_].additional...\n    tag 173\t\t\tkycRequests[reqId_].additional...\n      JUMPDEST \t\t\tkycRequests[reqId_].additional...\n      POP \t\t\tkycRequests[reqId_].additional...\n      PUSH 524A348EAA0159A5BD9D05667FE8D01E3FEF50369AE5F27C2ADE107C84BFEAF7\t\t\tKycReRequested(\\r\\n           ...\n      DUP2 \t\t\treqId_\n      PUSH 7\t\t\tkycRequests\n      DUP4 \t\t\treqId_\n      PUSH 40\t\t\tkycRequests[reqId_]\n      MLOAD \t\t\tkycRequests[reqId_]\n      PUSH [tag] 175\t\t\tkycRequests[reqId_]\n      SWAP2 \t\t\tkycRequests[reqId_]\n      SWAP1 \t\t\tkycRequests[reqId_]\n      PUSH [tag] 169\t\t\tkycRequests[reqId_]\n      JUMP \t\t\tkycRequests[reqId_]\n    tag 175\t\t\tkycRequests[reqId_]\n      JUMPDEST \t\t\tkycRequests[reqId_]\n      SWAP1 \t\t\tkycRequests[reqId_]\n      DUP2 \t\t\tkycRequests[reqId_]\n      MSTORE \t\t\tkycRequests[reqId_]\n      PUSH 20\t\t\tkycRequests[reqId_]\n      ADD \t\t\tkycRequests[reqId_]\n      PUSH 40\t\t\tkycRequests[reqId_]\n      MLOAD \t\t\tkycRequests[reqId_]\n      DUP1 \t\t\tkycRequests[reqId_]\n      SWAP2 \t\t\tkycRequests[reqId_]\n      SUB \t\t\tkycRequests[reqId_]\n      SWAP1 \t\t\tkycRequests[reqId_]\n      KECCAK256 \t\t\tkycRequests[reqId_]\n      PUSH 4\t\t\tkycRequests[reqId_].bankName\n      ADD \t\t\tkycRequests[reqId_].bankName\n      PUSH 7\t\t\tkycRequests\n      DUP5 \t\t\treqId_\n      PUSH 40\t\t\tkycRequests[reqId_]\n      MLOAD \t\t\tkycRequests[reqId_]\n      PUSH [tag] 176\t\t\tkycRequests[reqId_]\n      SWAP2 \t\t\tkycRequests[reqId_]\n      SWAP1 \t\t\tkycRequests[reqId_]\n      PUSH [tag] 169\t\t\tkycRequests[reqId_]\n      JUMP \t\t\tkycRequests[reqId_]\n    tag 176\t\t\tkycRequests[reqId_]\n      JUMPDEST \t\t\tkycRequests[reqId_]\n      SWAP1 \t\t\tkycRequests[reqId_]\n      DUP2 \t\t\tkycRequests[reqId_]\n      MSTORE \t\t\tkycRequests[reqId_]\n      PUSH 20\t\t\tkycRequests[reqId_]\n      ADD \t\t\tkycRequests[reqId_]\n      PUSH 40\t\t\tkycRequests[reqId_]\n      MLOAD \t\t\tkycRequests[reqId_]\n      DUP1 \t\t\tkycRequests[reqId_]\n      SWAP2 \t\t\tkycRequests[reqId_]\n      SUB \t\t\tkycRequests[reqId_]\n      SWAP1 \t\t\tkycRequests[reqId_]\n      KECCAK256 \t\t\tkycRequests[reqId_]\n      PUSH 2\t\t\tkycRequests[reqId_].customerNa...\n      ADD \t\t\tkycRequests[reqId_].customerNa...\n      PUSH 40\t\t\tKycReRequested(\\r\\n           ...\n      MLOAD \t\t\tKycReRequested(\\r\\n           ...\n      PUSH [tag] 177\t\t\tKycReRequested(\\r\\n           ...\n      SWAP4 \t\t\tKycReRequested(\\r\\n           ...\n      SWAP3 \t\t\tKycReRequested(\\r\\n           ...\n      SWAP2 \t\t\tKycReRequested(\\r\\n           ...\n      SWAP1 \t\t\tKycReRequested(\\r\\n           ...\n      PUSH [tag] 178\t\t\tKycReRequested(\\r\\n           ...\n      JUMP \t\t\tKycReRequested(\\r\\n           ...\n    tag 177\t\t\tKycReRequested(\\r\\n           ...\n      JUMPDEST \t\t\tKycReRequested(\\r\\n           ...\n      PUSH 40\t\t\tKycReRequested(\\r\\n           ...\n      MLOAD \t\t\tKycReRequested(\\r\\n           ...\n      DUP1 \t\t\tKycReRequested(\\r\\n           ...\n      SWAP2 \t\t\tKycReRequested(\\r\\n           ...\n      SUB \t\t\tKycReRequested(\\r\\n           ...\n      SWAP1 \t\t\tKycReRequested(\\r\\n           ...\n      LOG1 \t\t\tKycReRequested(\\r\\n           ...\n      POP \t\t\t{\\r\\n        string memory req...\n      POP \t\t\tfunction reRequestForKycReques...\n      POP \t\t\tfunction reRequestForKycReques...\n      POP \t\t\tfunction reRequestForKycReques...\n      JUMP \t\t\tfunction reRequestForKycReques...\n    tag 42\t\t\tfunction addBank(Types.Bank me...\n      JUMPDEST \t\t\tfunction addBank(Types.Bank me...\n      PUSH 4\t\t\tadmin\n      PUSH 0\t\t\tadmin\n      SWAP1 \t\t\tadmin\n      SLOAD \t\t\tadmin\n      SWAP1 \t\t\tadmin\n      PUSH 100\t\t\tadmin\n      EXP \t\t\tadmin\n      SWAP1 \t\t\tadmin\n      DIV \t\t\tadmin\n      PUSH FFFFFFFFFFFFFFFFFFFFFFFFFFFFFFFFFFFFFFFF\t\t\tadmin\n      AND \t\t\tadmin\n      PUSH FFFFFFFFFFFFFFFFFFFFFFFFFFFFFFFFFFFFFFFF\t\t\tmsg.sender == admin\n      AND \t\t\tmsg.sender == admin\n      CALLER \t\t\tmsg.sender\n      PUSH FFFFFFFFFFFFFFFFFFFFFFFFFFFFFFFFFFFFFFFF\t\t\tmsg.sender == admin\n      AND \t\t\tmsg.sender == admin\n      EQ \t\t\tmsg.sender == admin\n      PUSH [tag] 180\t\t\trequire(msg.sender == admin, \"...\n      JUMPI \t\t\trequire(msg.sender == admin, \"...\n      PUSH 40\t\t\trequire(msg.sender == admin, \"...\n      MLOAD \t\t\trequire(msg.sender == admin, \"...\n      PUSH 8C379A000000000000000000000000000000000000000000000000000000000\t\t\trequire(msg.sender == admin, \"...\n      DUP2 \t\t\trequire(msg.sender == admin, \"...\n      MSTORE \t\t\trequire(msg.sender == admin, \"...\n      PUSH 4\t\t\trequire(msg.sender == admin, \"...\n      ADD \t\t\trequire(msg.sender == admin, \"...\n      PUSH [tag] 181\t\t\trequire(msg.sender == admin, \"...\n      SWAP1 \t\t\trequire(msg.sender == admin, \"...\n      PUSH [tag] 182\t\t\trequire(msg.sender == admin, \"...\n      JUMP \t\t\trequire(msg.sender == admin, \"...\n    tag 181\t\t\trequire(msg.sender == admin, \"...\n      JUMPDEST \t\t\trequire(msg.sender == admin, \"...\n      PUSH 40\t\t\trequire(msg.sender == admin, \"...\n      MLOAD \t\t\trequire(msg.sender == admin, \"...\n      DUP1 \t\t\trequire(msg.sender == admin, \"...\n      SWAP2 \t\t\trequire(msg.sender == admin, \"...\n      SUB \t\t\trequire(msg.sender == admin, \"...\n      SWAP1 \t\t\trequire(msg.sender == admin, \"...\n      REVERT \t\t\trequire(msg.sender == admin, \"...\n    tag 180\t\t\trequire(msg.sender == admin, \"...\n      JUMPDEST \t\t\trequire(msg.sender == admin, \"...\n      PUSH [tag] 184\t\t\taddbank(bank_)\n      DUP2 \t\t\tbank_\n      PUSH [tag] 185\t\t\taddbank\n      JUMP \t\t\taddbank(bank_)\n    tag 184\t\t\taddbank(bank_)\n      JUMPDEST \t\t\taddbank(bank_)\n      PUSH 40\t\t\tTypes.User({\\r\\n            na...\n      MLOAD \t\t\tTypes.User({\\r\\n            na...\n      DUP1 \t\t\tTypes.User({\\r\\n            na...\n      PUSH A0\t\t\tTypes.User({\\r\\n            na...\n      ADD \t\t\tTypes.User({\\r\\n            na...\n      PUSH 40\t\t\tTypes.User({\\r\\n            na...\n      MSTORE \t\t\tTypes.User({\\r\\n            na...\n      DUP1 \t\t\tTypes.User({\\r\\n            na...\n      DUP3 \t\t\tbank_\n      PUSH 0\t\t\tbank_.name\n      ADD \t\t\tbank_.name\n      MLOAD \t\t\tbank_.name\n      DUP2 \t\t\tTypes.User({\\r\\n            na...\n      MSTORE \t\t\tTypes.User({\\r\\n            na...\n      PUSH 20\t\t\tTypes.User({\\r\\n            na...\n      ADD \t\t\tTypes.User({\\r\\n            na...\n      DUP3 \t\t\tbank_\n      PUSH 20\t\t\tbank_.email\n      ADD \t\t\tbank_.email\n      MLOAD \t\t\tbank_.email\n      DUP2 \t\t\tTypes.User({\\r\\n            na...\n      MSTORE \t\t\tTypes.User({\\r\\n            na...\n      PUSH 20\t\t\tTypes.User({\\r\\n            na...\n      ADD \t\t\tTypes.User({\\r\\n            na...\n      DUP3 \t\t\tbank_\n      PUSH 40\t\t\tbank_.id_\n      ADD \t\t\tbank_.id_\n      MLOAD \t\t\tbank_.id_\n      PUSH FFFFFFFFFFFFFFFFFFFFFFFFFFFFFFFFFFFFFFFF\t\t\tTypes.User({\\r\\n            na...\n      AND \t\t\tTypes.User({\\r\\n            na...\n      DUP2 \t\t\tTypes.User({\\r\\n            na...\n      MSTORE \t\t\tTypes.User({\\r\\n            na...\n      PUSH 20\t\t\tTypes.User({\\r\\n            na...\n      ADD \t\t\tTypes.User({\\r\\n            na...\n      PUSH 1\t\t\tTypes.Role.Bank\n      PUSH 2\t\t\tTypes.User({\\r\\n            na...\n      DUP2 \t\t\tTypes.User({\\r\\n            na...\n      GT \t\t\tTypes.User({\\r\\n            na...\n      ISZERO \t\t\tTypes.User({\\r\\n            na...\n      PUSH [tag] 186\t\t\tTypes.User({\\r\\n            na...\n      JUMPI \t\t\tTypes.User({\\r\\n            na...\n      PUSH [tag] 187\t\t\tTypes.User({\\r\\n            na...\n      PUSH [tag] 135\t\t\tTypes.User({\\r\\n            na...\n      JUMP \t\t\tTypes.User({\\r\\n            na...\n    tag 187\t\t\tTypes.User({\\r\\n            na...\n      JUMPDEST \t\t\tTypes.User({\\r\\n            na...\n    tag 186\t\t\tTypes.User({\\r\\n            na...\n      JUMPDEST \t\t\tTypes.User({\\r\\n            na...\n      DUP2 \t\t\tTypes.User({\\r\\n            na...\n      MSTORE \t\t\tTypes.User({\\r\\n            na...\n      PUSH 20\t\t\tTypes.User({\\r\\n            na...\n      ADD \t\t\tTypes.User({\\r\\n            na...\n      PUSH 0\t\t\tTypes.BankStatus.Active\n      PUSH 1\t\t\tTypes.User({\\r\\n            na...\n      DUP2 \t\t\tTypes.User({\\r\\n            na...\n      GT \t\t\tTypes.User({\\r\\n            na...\n      ISZERO \t\t\tTypes.User({\\r\\n            na...\n      PUSH [tag] 188\t\t\tTypes.User({\\r\\n            na...\n      JUMPI \t\t\tTypes.User({\\r\\n            na...\n      PUSH [tag] 189\t\t\tTypes.User({\\r\\n            na...\n      PUSH [tag] 135\t\t\tTypes.User({\\r\\n            na...\n      JUMP \t\t\tTypes.User({\\r\\n            na...\n    tag 189\t\t\tTypes.User({\\r\\n            na...\n      JUMPDEST \t\t\tTypes.User({\\r\\n            na...\n    tag 188\t\t\tTypes.User({\\r\\n            na...\n      JUMPDEST \t\t\tTypes.User({\\r\\n            na...\n      DUP2 \t\t\tTypes.User({\\r\\n            na...\n      MSTORE \t\t\tTypes.User({\\r\\n            na...\n      POP \t\t\tTypes.User({\\r\\n            na...\n      PUSH 6\t\t\tusers\n      PUSH 0\t\t\tusers[bank_.id_]\n      DUP4 \t\t\tbank_\n      PUSH 40\t\t\tbank_.id_\n      ADD \t\t\tbank_.id_\n      MLOAD \t\t\tbank_.id_\n      PUSH FFFFFFFFFFFFFFFFFFFFFFFFFFFFFFFFFFFFFFFF\t\t\tusers[bank_.id_]\n      AND \t\t\tusers[bank_.id_]\n      PUSH FFFFFFFFFFFFFFFFFFFFFFFFFFFFFFFFFFFFFFFF\t\t\tusers[bank_.id_]\n      AND \t\t\tusers[bank_.id_]\n      DUP2 \t\t\tusers[bank_.id_]\n      MSTORE \t\t\tusers[bank_.id_]\n      PUSH 20\t\t\tusers[bank_.id_]\n      ADD \t\t\tusers[bank_.id_]\n      SWAP1 \t\t\tusers[bank_.id_]\n      DUP2 \t\t\tusers[bank_.id_]\n      MSTORE \t\t\tusers[bank_.id_]\n      PUSH 20\t\t\tusers[bank_.id_]\n      ADD \t\t\tusers[bank_.id_]\n      PUSH 0\t\t\tusers[bank_.id_]\n      KECCAK256 \t\t\tusers[bank_.id_]\n      PUSH 0\t\t\tusers[bank_.id_] = Types.User(...\n      DUP3 \t\t\tusers[bank_.id_] = Types.User(...\n      ADD \t\t\tusers[bank_.id_] = Types.User(...\n      MLOAD \t\t\tusers[bank_.id_] = Types.User(...\n      DUP2 \t\t\tusers[bank_.id_] = Types.User(...\n      PUSH 0\t\t\tusers[bank_.id_] = Types.User(...\n      ADD \t\t\tusers[bank_.id_] = Types.User(...\n      SWAP1 \t\t\tusers[bank_.id_] = Types.User(...\n      DUP2 \t\t\tusers[bank_.id_] = Types.User(...\n      PUSH [tag] 190\t\t\tusers[bank_.id_] = Types.User(...\n      SWAP2 \t\t\tusers[bank_.id_] = Types.User(...\n      SWAP1 \t\t\tusers[bank_.id_] = Types.User(...\n      PUSH [tag] 174\t\t\tusers[bank_.id_] = Types.User(...\n      JUMP \t\t\tusers[bank_.id_] = Types.User(...\n    tag 190\t\t\tusers[bank_.id_] = Types.User(...\n      JUMPDEST \t\t\tusers[bank_.id_] = Types.User(...\n      POP \t\t\tusers[bank_.id_] = Types.User(...\n      PUSH 20\t\t\tusers[bank_.id_] = Types.User(...\n      DUP3 \t\t\tusers[bank_.id_] = Types.User(...\n      ADD \t\t\tusers[bank_.id_] = Types.User(...\n      MLOAD \t\t\tusers[bank_.id_] = Types.User(...\n      DUP2 \t\t\tusers[bank_.id_] = Types.User(...\n      PUSH 1\t\t\tusers[bank_.id_] = Types.User(...\n      ADD \t\t\tusers[bank_.id_] = Types.User(...\n      SWAP1 \t\t\tusers[bank_.id_] = Types.User(...\n      DUP2 \t\t\tusers[bank_.id_] = Types.User(...\n      PUSH [tag] 191\t\t\tusers[bank_.id_] = Types.User(...\n      SWAP2 \t\t\tusers[bank_.id_] = Types.User(...\n      SWAP1 \t\t\tusers[bank_.id_] = Types.User(...\n      PUSH [tag] 174\t\t\tusers[bank_.id_] = Types.User(...\n      JUMP \t\t\tusers[bank_.id_] = Types.User(...\n    tag 191\t\t\tusers[bank_.id_] = Types.User(...\n      JUMPDEST \t\t\tusers[bank_.id_] = Types.User(...\n      POP \t\t\tusers[bank_.id_] = Types.User(...\n      PUSH 40\t\t\tusers[bank_.id_] = Types.User(...\n      DUP3 \t\t\tusers[bank_.id_] = Types.User(...\n      ADD \t\t\tusers[bank_.id_] = Types.User(...\n      MLOAD \t\t\tusers[bank_.id_] = Types.User(...\n      DUP2 \t\t\tusers[bank_.id_] = Types.User(...\n      PUSH 2\t\t\tusers[bank_.id_] = Types.User(...\n      ADD \t\t\tusers[bank_.id_] = Types.User(...\n      PUSH 0\t\t\tusers[bank_.id_] = Types.User(...\n      PUSH 100\t\t\tusers[bank_.id_] = Types.User(...\n      EXP \t\t\tusers[bank_.id_] = Types.User(...\n      DUP2 \t\t\tusers[bank_.id_] = Types.User(...\n      SLOAD \t\t\tusers[bank_.id_] = Types.User(...\n      DUP2 \t\t\tusers[bank_.id_] = Types.User(...\n      PUSH FFFFFFFFFFFFFFFFFFFFFFFFFFFFFFFFFFFFFFFF\t\t\tusers[bank_.id_] = Types.User(...\n      MUL \t\t\tusers[bank_.id_] = Types.User(...\n      NOT \t\t\tusers[bank_.id_] = Types.User(...\n      AND \t\t\tusers[bank_.id_] = Types.User(...\n      SWAP1 \t\t\tusers[bank_.id_] = Types.User(...\n      DUP4 \t\t\tusers[bank_.id_] = Types.User(...\n      PUSH FFFFFFFFFFFFFFFFFFFFFFFFFFFFFFFFFFFFFFFF\t\t\tusers[bank_.id_] = Types.User(...\n      AND \t\t\tusers[bank_.id_] = Types.User(...\n      MUL \t\t\tusers[bank_.id_] = Types.User(...\n      OR \t\t\tusers[bank_.id_] = Types.User(...\n      SWAP1 \t\t\tusers[bank_.id_] = Types.User(...\n      SSTORE \t\t\tusers[bank_.id_] = Types.User(...\n      POP \t\t\tusers[bank_.id_] = Types.User(...\n      PUSH 60\t\t\tusers[bank_.id_] = Types.User(...\n      DUP3 \t\t\tusers[bank_.id_] = Types.User(...\n      ADD \t\t\tusers[bank_.id_] = Types.User(...\n      MLOAD \t\t\tusers[bank_.id_] = Types.User(...\n      DUP2 \t\t\tusers[bank_.id_] = Types.User(...\n      PUSH 2\t\t\tusers[bank_.id_] = Types.User(...\n      ADD \t\t\tusers[bank_.id_] = Types.User(...\n      PUSH 14\t\t\tusers[bank_.id_] = Types.User(...\n      PUSH 100\t\t\tusers[bank_.id_] = Types.User(...\n      EXP \t\t\tusers[bank_.id_] = Types.User(...\n      DUP2 \t\t\tusers[bank_.id_] = Types.User(...\n      SLOAD \t\t\tusers[bank_.id_] = Types.User(...\n      DUP2 \t\t\tusers[bank_.id_] = Types.User(...\n      PUSH FF\t\t\tusers[bank_.id_] = Types.User(...\n      MUL \t\t\tusers[bank_.id_] = Types.User(...\n      NOT \t\t\tusers[bank_.id_] = Types.User(...\n      AND \t\t\tusers[bank_.id_] = Types.User(...\n      SWAP1 \t\t\tusers[bank_.id_] = Types.User(...\n      DUP4 \t\t\tusers[bank_.id_] = Types.User(...\n      PUSH 2\t\t\tusers[bank_.id_] = Types.User(...\n      DUP2 \t\t\tusers[bank_.id_] = Types.User(...\n      GT \t\t\tusers[bank_.id_] = Types.User(...\n      ISZERO \t\t\tusers[bank_.id_] = Types.User(...\n      PUSH [tag] 192\t\t\tusers[bank_.id_] = Types.User(...\n      JUMPI \t\t\tusers[bank_.id_] = Types.User(...\n      PUSH [tag] 193\t\t\tusers[bank_.id_] = Types.User(...\n      PUSH [tag] 135\t\t\tusers[bank_.id_] = Types.User(...\n      JUMP \t\t\tusers[bank_.id_] = Types.User(...\n    tag 193\t\t\tusers[bank_.id_] = Types.User(...\n      JUMPDEST \t\t\tusers[bank_.id_] = Types.User(...\n    tag 192\t\t\tusers[bank_.id_] = Types.User(...\n      JUMPDEST \t\t\tusers[bank_.id_] = Types.User(...\n      MUL \t\t\tusers[bank_.id_] = Types.User(...\n      OR \t\t\tusers[bank_.id_] = Types.User(...\n      SWAP1 \t\t\tusers[bank_.id_] = Types.User(...\n      SSTORE \t\t\tusers[bank_.id_] = Types.User(...\n      POP \t\t\tusers[bank_.id_] = Types.User(...\n      PUSH 80\t\t\tusers[bank_.id_] = Types.User(...\n      DUP3 \t\t\tusers[bank_.id_] = Types.User(...\n      ADD \t\t\tusers[bank_.id_] = Types.User(...\n      MLOAD \t\t\tusers[bank_.id_] = Types.User(...\n      DUP2 \t\t\tusers[bank_.id_] = Types.User(...\n      PUSH 2\t\t\tusers[bank_.id_] = Types.User(...\n      ADD \t\t\tusers[bank_.id_] = Types.User(...\n      PUSH 15\t\t\tusers[bank_.id_] = Types.User(...\n      PUSH 100\t\t\tusers[bank_.id_] = Types.User(...\n      EXP \t\t\tusers[bank_.id_] = Types.User(...\n      DUP2 \t\t\tusers[bank_.id_] = Types.User(...\n      SLOAD \t\t\tusers[bank_.id_] = Types.User(...\n      DUP2 \t\t\tusers[bank_.id_] = Types.User(...\n      PUSH FF\t\t\tusers[bank_.id_] = Types.User(...\n      MUL \t\t\tusers[bank_.id_] = Types.User(...\n      NOT \t\t\tusers[bank_.id_] = Types.User(...\n      AND \t\t\tusers[bank_.id_] = Types.User(...\n      SWAP1 \t\t\tusers[bank_.id_] = Types.User(...\n      DUP4 \t\t\tusers[bank_.id_] = Types.User(...\n      PUSH 1\t\t\tusers[bank_.id_] = Types.User(...\n      DUP2 \t\t\tusers[bank_.id_] = Types.User(...\n      GT \t\t\tusers[bank_.id_] = Types.User(...\n      ISZERO \t\t\tusers[bank_.id_] = Types.User(...\n      PUSH [tag] 194\t\t\tusers[bank_.id_] = Types.User(...\n      JUMPI \t\t\tusers[bank_.id_] = Types.User(...\n      PUSH [tag] 195\t\t\tusers[bank_.id_] = Types.User(...\n      PUSH [tag] 135\t\t\tusers[bank_.id_] = Types.User(...\n      JUMP \t\t\tusers[bank_.id_] = Types.User(...\n    tag 195\t\t\tusers[bank_.id_] = Types.User(...\n      JUMPDEST \t\t\tusers[bank_.id_] = Types.User(...\n    tag 194\t\t\tusers[bank_.id_] = Types.User(...\n      JUMPDEST \t\t\tusers[bank_.id_] = Types.User(...\n      MUL \t\t\tusers[bank_.id_] = Types.User(...\n      OR \t\t\tusers[bank_.id_] = Types.User(...\n      SWAP1 \t\t\tusers[bank_.id_] = Types.User(...\n      SSTORE \t\t\tusers[bank_.id_] = Types.User(...\n      POP \t\t\tusers[bank_.id_] = Types.User(...\n      SWAP1 \t\t\tusers[bank_.id_] = Types.User(...\n      POP \t\t\tusers[bank_.id_] = Types.User(...\n      POP \t\t\tusers[bank_.id_] = Types.User(...\n      PUSH 5\t\t\tuserList\n      DUP2 \t\t\tbank_\n      PUSH 40\t\t\tbank_.id_\n      ADD \t\t\tbank_.id_\n      MLOAD \t\t\tbank_.id_\n      SWAP1 \t\t\tuserList.push(bank_.id_)\n      DUP1 \t\t\tuserList.push(bank_.id_)\n      PUSH 1\t\t\tuserList.push(bank_.id_)\n      DUP2 \t\t\tuserList.push(bank_.id_)\n      SLOAD \t\t\tuserList.push(bank_.id_)\n      ADD \t\t\tuserList.push(bank_.id_)\n      DUP1 \t\t\tuserList.push(bank_.id_)\n      DUP3 \t\t\tuserList.push(bank_.id_)\n      SSTORE \t\t\tuserList.push(bank_.id_)\n      DUP1 \t\t\tuserList.push(bank_.id_)\n      SWAP2 \t\t\tuserList.push(bank_.id_)\n      POP \t\t\tuserList.push(bank_.id_)\n      POP \t\t\tuserList.push(bank_.id_)\n      PUSH 1\t\t\tuserList.push(bank_.id_)\n      SWAP1 \t\t\tuserList.push(bank_.id_)\n      SUB \t\t\tuserList.push(bank_.id_)\n      SWAP1 \t\t\tuserList.push(bank_.id_)\n      PUSH 0\t\t\tuserList.push(bank_.id_)\n      MSTORE \t\t\tuserList.push(bank_.id_)\n      PUSH 20\t\t\tuserList.push(bank_.id_)\n      PUSH 0\t\t\tuserList.push(bank_.id_)\n      KECCAK256 \t\t\tuserList.push(bank_.id_)\n      ADD \t\t\tuserList.push(bank_.id_)\n      PUSH 0\t\t\tuserList.push(bank_.id_)\n      SWAP1 \t\t\tuserList.push(bank_.id_)\n      SWAP2 \t\t\tuserList.push(bank_.id_)\n      SWAP1 \t\t\tuserList.push(bank_.id_)\n      SWAP2 \t\t\tuserList.push(bank_.id_)\n      SWAP1 \t\t\tuserList.push(bank_.id_)\n      SWAP2 \t\t\tuserList.push(bank_.id_)\n      PUSH 100\t\t\tuserList.push(bank_.id_)\n      EXP \t\t\tuserList.push(bank_.id_)\n      DUP2 \t\t\tuserList.push(bank_.id_)\n      SLOAD \t\t\tuserList.push(bank_.id_)\n      DUP2 \t\t\tuserList.push(bank_.id_)\n      PUSH FFFFFFFFFFFFFFFFFFFFFFFFFFFFFFFFFFFFFFFF\t\t\tuserList.push(bank_.id_)\n      MUL \t\t\tuserList.push(bank_.id_)\n      NOT \t\t\tuserList.push(bank_.id_)\n      AND \t\t\tuserList.push(bank_.id_)\n      SWAP1 \t\t\tuserList.push(bank_.id_)\n      DUP4 \t\t\tuserList.push(bank_.id_)\n      PUSH FFFFFFFFFFFFFFFFFFFFFFFFFFFFFFFFFFFFFFFF\t\t\tuserList.push(bank_.id_)\n      AND \t\t\tuserList.push(bank_.id_)\n      MUL \t\t\tuserList.push(bank_.id_)\n      OR \t\t\tuserList.push(bank_.id_)\n      SWAP1 \t\t\tuserList.push(bank_.id_)\n      SSTORE \t\t\tuserList.push(bank_.id_)\n      POP \t\t\tuserList.push(bank_.id_)\n      POP \t\t\tfunction addBank(Types.Bank me...\n      JUMP \t\t\tfunction addBank(Types.Bank me...\n    tag 45\t\t\tfunction searchBanks(address b...\n      JUMPDEST \t\t\tfunction searchBanks(address b...\n      PUSH 0\t\t\tbool\n      PUSH [tag] 197\t\t\tTypes.Bank memory\n      PUSH [tag] 126\t\t\tTypes.Bank memory\n      JUMP \t\t\tTypes.Bank memory\n    tag 197\t\t\tTypes.Bank memory\n      JUMPDEST \t\t\tTypes.Bank memory\n      PUSH [tag] 198\t\t\tTypes.KycRequest memory\n      PUSH [tag] 199\t\t\tTypes.KycRequest memory\n      JUMP \t\t\tTypes.KycRequest memory\n    tag 198\t\t\tTypes.KycRequest memory\n      JUMPDEST \t\t\tTypes.KycRequest memory\n      CALLER \t\t\tmsg.sender\n      PUSH 0\t\t\tr\n      PUSH FFFFFFFFFFFFFFFFFFFFFFFFFFFFFFFFFFFFFFFF\t\t\t_;\\r\\n        userL\n      AND \t\t\t_;\\r\\n        userL\n      DUP2 \t\t\t_;\\r\n      PUSH FFFFFFFFFFFFFFFFFFFFFFFFFFFFFFFFFFFFFFFF\t\t\t_;\\r\\n        userL\n      AND \t\t\t_;\\r\\n        userL\n      SUB \t\t\t_;\\r\\n        userL\n      PUSH [tag] 201\t\t\tn] = usr_;\\r\\n        userList...\n      JUMPI \t\t\tn] = usr_;\\r\\n        userList...\n      PUSH 40\t\t\tn] = usr_;\\r\\n        userList...\n      MLOAD \t\t\tn] = usr_;\\r\\n        userList...\n      PUSH 8C379A000000000000000000000000000000000000000000000000000000000\t\t\tn] = usr_;\\r\\n        userList...\n      DUP2 \t\t\tn] = usr_;\\r\\n        userList...\n      MSTORE \t\t\tn] = usr_;\\r\\n        userList...\n      PUSH 4\t\t\tn] = usr_;\\r\\n        userList...\n      ADD \t\t\tn] = usr_;\\r\\n        userList...\n      PUSH [tag] 202\t\t\tn] = usr_;\\r\\n        userList...\n      SWAP1 \t\t\tn] = usr_;\\r\\n        userList...\n      PUSH [tag] 107\t\t\tn] = usr_;\\r\\n        userList...\n      JUMP \t\t\tn] = usr_;\\r\\n        userList...\n    tag 202\t\t\tn] = usr_;\\r\\n        userList...\n      JUMPDEST \t\t\tn] = usr_;\\r\\n        userList...\n      PUSH 40\t\t\tn] = usr_;\\r\\n        userList...\n      MLOAD \t\t\tn] = usr_;\\r\\n        userList...\n      DUP1 \t\t\tn] = usr_;\\r\\n        userList...\n      SWAP2 \t\t\tn] = usr_;\\r\\n        userList...\n      SUB \t\t\tn] = usr_;\\r\\n        userList...\n      SWAP1 \t\t\tn] = usr_;\\r\\n        userList...\n      REVERT \t\t\tn] = usr_;\\r\\n        userList...\n    tag 201\t\t\tn] = usr_;\\r\\n        userList...\n      JUMPDEST \t\t\tn] = usr_;\\r\\n        userList...\n      PUSH 0\t\t\ti\n      PUSH FFFFFFFFFFFFFFFFFFFFFFFFFFFFFFFFFFFFFFFF\t\t\tfier isAdmin() {\\r\\n        re...\n      AND \t\t\tfier isAdmin() {\\r\\n        re...\n      PUSH 1\t\t\tfier isAd\n      PUSH 0\t\t\tfier isAdmin()\n      DUP4 \t\t\tin(\n      PUSH FFFFFFFFFFFFFFFFFFFFFFFFFFFFFFFFFFFFFFFF\t\t\tfier isAdmin()\n      AND \t\t\tfier isAdmin()\n      PUSH FFFFFFFFFFFFFFFFFFFFFFFFFFFFFFFFFFFFFFFF\t\t\tfier isAdmin()\n      AND \t\t\tfier isAdmin()\n      DUP2 \t\t\tfier isAdmin()\n      MSTORE \t\t\tfier isAdmin()\n      PUSH 20\t\t\tfier isAdmin()\n      ADD \t\t\tfier isAdmin()\n      SWAP1 \t\t\tfier isAdmin()\n      DUP2 \t\t\tfier isAdmin()\n      MSTORE \t\t\tfier isAdmin()\n      PUSH 20\t\t\tfier isAdmin()\n      ADD \t\t\tfier isAdmin()\n      PUSH 0\t\t\tfier isAdmin()\n      KECCAK256 \t\t\tfier isAdmin()\n      PUSH 3\t\t\tfier isAdmin() {\\r\\n\n      ADD \t\t\tfier isAdmin() {\\r\\n\n      PUSH 0\t\t\tfier isAdmin() {\\r\\n\n      SWAP1 \t\t\tfier isAdmin() {\\r\\n\n      SLOAD \t\t\tfier isAdmin() {\\r\\n\n      SWAP1 \t\t\tfier isAdmin() {\\r\\n\n      PUSH 100\t\t\tfier isAdmin() {\\r\\n\n      EXP \t\t\tfier isAdmin() {\\r\\n\n      SWAP1 \t\t\tfier isAdmin() {\\r\\n\n      DIV \t\t\tfier isAdmin() {\\r\\n\n      PUSH FFFFFFFFFFFFFFFFFFFFFFFFFFFFFFFFFFFFFFFF\t\t\tfier isAdmin() {\\r\\n\n      AND \t\t\tfier isAdmin() {\\r\\n\n      PUSH FFFFFFFFFFFFFFFFFFFFFFFFFFFFFFFFFFFFFFFF\t\t\tfier isAdmin() {\\r\\n        re...\n      AND \t\t\tfier isAdmin() {\\r\\n        re...\n      SUB \t\t\tfier isAdmin() {\\r\\n        re...\n      PUSH [tag] 203\t\t\t    modifier isAdmin() {\\r\\n  ...\n      JUMPI \t\t\t    modifier isAdmin() {\\r\\n  ...\n      PUSH 40\t\t\t    modifier isAdmin() {\\r\\n  ...\n      MLOAD \t\t\t    modifier isAdmin() {\\r\\n  ...\n      PUSH 8C379A000000000000000000000000000000000000000000000000000000000\t\t\t    modifier isAdmin() {\\r\\n  ...\n      DUP2 \t\t\t    modifier isAdmin() {\\r\\n  ...\n      MSTORE \t\t\t    modifier isAdmin() {\\r\\n  ...\n      PUSH 4\t\t\t    modifier isAdmin() {\\r\\n  ...\n      ADD \t\t\t    modifier isAdmin() {\\r\\n  ...\n      PUSH [tag] 204\t\t\t    modifier isAdmin() {\\r\\n  ...\n      SWAP1 \t\t\t    modifier isAdmin() {\\r\\n  ...\n      PUSH [tag] 110\t\t\t    modifier isAdmin() {\\r\\n  ...\n      JUMP \t\t\t    modifier isAdmin() {\\r\\n  ...\n    tag 204\t\t\t    modifier isAdmin() {\\r\\n  ...\n      JUMPDEST \t\t\t    modifier isAdmin() {\\r\\n  ...\n      PUSH 40\t\t\t    modifier isAdmin() {\\r\\n  ...\n      MLOAD \t\t\t    modifier isAdmin() {\\r\\n  ...\n      DUP1 \t\t\t    modifier isAdmin() {\\r\\n  ...\n      SWAP2 \t\t\t    modifier isAdmin() {\\r\\n  ...\n      SUB \t\t\t    modifier isAdmin() {\\r\\n  ...\n      SWAP1 \t\t\t    modifier isAdmin() {\\r\\n  ...\n      REVERT \t\t\t    modifier isAdmin() {\\r\\n  ...\n    tag 203\t\t\t    modifier isAdmin() {\\r\\n  ...\n      JUMPDEST \t\t\t    modifier isAdmin() {\\r\\n  ...\n      PUSH [tag] 205\t\t\t      _;\\r\\n    }\\r\\n\\r\\n    f...\n      PUSH 1\t\t\tfunction \n      PUSH 0\t\t\tfunction kycRe\n      DUP4 \t\t\tycR\n      PUSH FFFFFFFFFFFFFFFFFFFFFFFFFFFFFFFFFFFFFFFF\t\t\tfunction kycRe\n      AND \t\t\tfunction kycRe\n      PUSH FFFFFFFFFFFFFFFFFFFFFFFFFFFFFFFFFFFFFFFF\t\t\tfunction kycRe\n      AND \t\t\tfunction kycRe\n      DUP2 \t\t\tfunction kycRe\n      MSTORE \t\t\tfunction kycRe\n      PUSH 20\t\t\tfunction kycRe\n      ADD \t\t\tfunction kycRe\n      SWAP1 \t\t\tfunction kycRe\n      DUP2 \t\t\tfunction kycRe\n      MSTORE \t\t\tfunction kycRe\n      PUSH 20\t\t\tfunction kycRe\n      ADD \t\t\tfunction kycRe\n      PUSH 0\t\t\tfunction kycRe\n      KECCAK256 \t\t\tfunction kycRe\n      PUSH 1\t\t\tfunction kycRequestE\n      ADD \t\t\tfunction kycRequestE\n      DUP1 \t\t\t      _;\\r\\n    }\\r\\n\\r\\n    f...\n      SLOAD \t\t\t      _;\\r\\n    }\\r\\n\\r\\n    f...\n      PUSH [tag] 206\t\t\t      _;\\r\\n    }\\r\\n\\r\\n    f...\n      SWAP1 \t\t\t      _;\\r\\n    }\\r\\n\\r\\n    f...\n      PUSH [tag] 113\t\t\t      _;\\r\\n    }\\r\\n\\r\\n    f...\n      JUMP \t\t\t      _;\\r\\n    }\\r\\n\\r\\n    f...\n    tag 206\t\t\t      _;\\r\\n    }\\r\\n\\r\\n    f...\n      JUMPDEST \t\t\t      _;\\r\\n    }\\r\\n\\r\\n    f...\n      DUP1 \t\t\t      _;\\r\\n    }\\r\\n\\r\\n    f...\n      PUSH 1F\t\t\t      _;\\r\\n    }\\r\\n\\r\\n    f...\n      ADD \t\t\t      _;\\r\\n    }\\r\\n\\r\\n    f...\n      PUSH 20\t\t\t      _;\\r\\n    }\\r\\n\\r\\n    f...\n      DUP1 \t\t\t      _;\\r\\n    }\\r\\n\\r\\n    f...\n      SWAP2 \t\t\t      _;\\r\\n    }\\r\\n\\r\\n    f...\n      DIV \t\t\t      _;\\r\\n    }\\r\\n\\r\\n    f...\n      MUL \t\t\t      _;\\r\\n    }\\r\\n\\r\\n    f...\n      PUSH 20\t\t\t      _;\\r\\n    }\\r\\n\\r\\n    f...\n      ADD \t\t\t      _;\\r\\n    }\\r\\n\\r\\n    f...\n      PUSH 40\t\t\t      _;\\r\\n    }\\r\\n\\r\\n    f...\n      MLOAD \t\t\t      _;\\r\\n    }\\r\\n\\r\\n    f...\n      SWAP1 \t\t\t      _;\\r\\n    }\\r\\n\\r\\n    f...\n      DUP2 \t\t\t      _;\\r\\n    }\\r\\n\\r\\n    f...\n      ADD \t\t\t      _;\\r\\n    }\\r\\n\\r\\n    f...\n      PUSH 40\t\t\t      _;\\r\\n    }\\r\\n\\r\\n    f...\n      MSTORE \t\t\t      _;\\r\\n    }\\r\\n\\r\\n    f...\n      DUP1 \t\t\t      _;\\r\\n    }\\r\\n\\r\\n    f...\n      SWAP3 \t\t\t      _;\\r\\n    }\\r\\n\\r\\n    f...\n      SWAP2 \t\t\t      _;\\r\\n    }\\r\\n\\r\\n    f...\n      SWAP1 \t\t\t      _;\\r\\n    }\\r\\n\\r\\n    f...\n      DUP2 \t\t\t      _;\\r\\n    }\\r\\n\\r\\n    f...\n      DUP2 \t\t\t      _;\\r\\n    }\\r\\n\\r\\n    f...\n      MSTORE \t\t\t      _;\\r\\n    }\\r\\n\\r\\n    f...\n      PUSH 20\t\t\t      _;\\r\\n    }\\r\\n\\r\\n    f...\n      ADD \t\t\t      _;\\r\\n    }\\r\\n\\r\\n    f...\n      DUP3 \t\t\t      _;\\r\\n    }\\r\\n\\r\\n    f...\n      DUP1 \t\t\t      _;\\r\\n    }\\r\\n\\r\\n    f...\n      SLOAD \t\t\t      _;\\r\\n    }\\r\\n\\r\\n    f...\n      PUSH [tag] 207\t\t\t      _;\\r\\n    }\\r\\n\\r\\n    f...\n      SWAP1 \t\t\t      _;\\r\\n    }\\r\\n\\r\\n    f...\n      PUSH [tag] 113\t\t\t      _;\\r\\n    }\\r\\n\\r\\n    f...\n      JUMP \t\t\t      _;\\r\\n    }\\r\\n\\r\\n    f...\n    tag 207\t\t\t      _;\\r\\n    }\\r\\n\\r\\n    f...\n      JUMPDEST \t\t\t      _;\\r\\n    }\\r\\n\\r\\n    f...\n      DUP1 \t\t\t      _;\\r\\n    }\\r\\n\\r\\n    f...\n      ISZERO \t\t\t      _;\\r\\n    }\\r\\n\\r\\n    f...\n      PUSH [tag] 208\t\t\t      _;\\r\\n    }\\r\\n\\r\\n    f...\n      JUMPI \t\t\t      _;\\r\\n    }\\r\\n\\r\\n    f...\n      DUP1 \t\t\t      _;\\r\\n    }\\r\\n\\r\\n    f...\n      PUSH 1F\t\t\t      _;\\r\\n    }\\r\\n\\r\\n    f...\n      LT \t\t\t      _;\\r\\n    }\\r\\n\\r\\n    f...\n      PUSH [tag] 209\t\t\t      _;\\r\\n    }\\r\\n\\r\\n    f...\n      JUMPI \t\t\t      _;\\r\\n    }\\r\\n\\r\\n    f...\n      PUSH 100\t\t\t      _;\\r\\n    }\\r\\n\\r\\n    f...\n      DUP1 \t\t\t      _;\\r\\n    }\\r\\n\\r\\n    f...\n      DUP4 \t\t\t      _;\\r\\n    }\\r\\n\\r\\n    f...\n      SLOAD \t\t\t      _;\\r\\n    }\\r\\n\\r\\n    f...\n      DIV \t\t\t      _;\\r\\n    }\\r\\n\\r\\n    f...\n      MUL \t\t\t      _;\\r\\n    }\\r\\n\\r\\n    f...\n      DUP4 \t\t\t      _;\\r\\n    }\\r\\n\\r\\n    f...\n      MSTORE \t\t\t      _;\\r\\n    }\\r\\n\\r\\n    f...\n      SWAP2 \t\t\t      _;\\r\\n    }\\r\\n\\r\\n    f...\n      PUSH 20\t\t\t      _;\\r\\n    }\\r\\n\\r\\n    f...\n      ADD \t\t\t      _;\\r\\n    }\\r\\n\\r\\n    f...\n      SWAP2 \t\t\t      _;\\r\\n    }\\r\\n\\r\\n    f...\n      PUSH [tag] 208\t\t\t      _;\\r\\n    }\\r\\n\\r\\n    f...\n      JUMP \t\t\t      _;\\r\\n    }\\r\\n\\r\\n    f...\n    tag 209\t\t\t      _;\\r\\n    }\\r\\n\\r\\n    f...\n      JUMPDEST \t\t\t      _;\\r\\n    }\\r\\n\\r\\n    f...\n      DUP3 \t\t\t      _;\\r\\n    }\\r\\n\\r\\n    f...\n      ADD \t\t\t      _;\\r\\n    }\\r\\n\\r\\n    f...\n      SWAP2 \t\t\t      _;\\r\\n    }\\r\\n\\r\\n    f...\n      SWAP1 \t\t\t      _;\\r\\n    }\\r\\n\\r\\n    f...\n      PUSH 0\t\t\t      _;\\r\\n    }\\r\\n\\r\\n    f...\n      MSTORE \t\t\t      _;\\r\\n    }\\r\\n\\r\\n    f...\n      PUSH 20\t\t\t      _;\\r\\n    }\\r\\n\\r\\n    f...\n      PUSH 0\t\t\t      _;\\r\\n    }\\r\\n\\r\\n    f...\n      KECCAK256 \t\t\t      _;\\r\\n    }\\r\\n\\r\\n    f...\n      SWAP1 \t\t\t      _;\\r\\n    }\\r\\n\\r\\n    f...\n    tag 210\t\t\t      _;\\r\\n    }\\r\\n\\r\\n    f...\n      JUMPDEST \t\t\t      _;\\r\\n    }\\r\\n\\r\\n    f...\n      DUP2 \t\t\t      _;\\r\\n    }\\r\\n\\r\\n    f...\n      SLOAD \t\t\t      _;\\r\\n    }\\r\\n\\r\\n    f...\n      DUP2 \t\t\t      _;\\r\\n    }\\r\\n\\r\\n    f...\n      MSTORE \t\t\t      _;\\r\\n    }\\r\\n\\r\\n    f...\n      SWAP1 \t\t\t      _;\\r\\n    }\\r\\n\\r\\n    f...\n      PUSH 1\t\t\t      _;\\r\\n    }\\r\\n\\r\\n    f...\n      ADD \t\t\t      _;\\r\\n    }\\r\\n\\r\\n    f...\n      SWAP1 \t\t\t      _;\\r\\n    }\\r\\n\\r\\n    f...\n      PUSH 20\t\t\t      _;\\r\\n    }\\r\\n\\r\\n    f...\n      ADD \t\t\t      _;\\r\\n    }\\r\\n\\r\\n    f...\n      DUP1 \t\t\t      _;\\r\\n    }\\r\\n\\r\\n    f...\n      DUP4 \t\t\t      _;\\r\\n    }\\r\\n\\r\\n    f...\n      GT \t\t\t      _;\\r\\n    }\\r\\n\\r\\n    f...\n      PUSH [tag] 210\t\t\t      _;\\r\\n    }\\r\\n\\r\\n    f...\n      JUMPI \t\t\t      _;\\r\\n    }\\r\\n\\r\\n    f...\n      DUP3 \t\t\t      _;\\r\\n    }\\r\\n\\r\\n    f...\n      SWAP1 \t\t\t      _;\\r\\n    }\\r\\n\\r\\n    f...\n      SUB \t\t\t      _;\\r\\n    }\\r\\n\\r\\n    f...\n      PUSH 1F\t\t\t      _;\\r\\n    }\\r\\n\\r\\n    f...\n      AND \t\t\t      _;\\r\\n    }\\r\\n\\r\\n    f...\n      DUP3 \t\t\t      _;\\r\\n    }\\r\\n\\r\\n    f...\n      ADD \t\t\t      _;\\r\\n    }\\r\\n\\r\\n    f...\n      SWAP2 \t\t\t      _;\\r\\n    }\\r\\n\\r\\n    f...\n    tag 208\t\t\t      _;\\r\\n    }\\r\\n\\r\\n    f...\n      JUMPDEST \t\t\t      _;\\r\\n    }\\r\\n\\r\\n    f...\n      POP \t\t\t      _;\\r\\n    }\\r\\n\\r\\n    f...\n      POP \t\t\t      _;\\r\\n    }\\r\\n\\r\\n    f...\n      POP \t\t\t      _;\\r\\n    }\\r\\n\\r\\n    f...\n      POP \t\t\t      _;\\r\\n    }\\r\\n\\r\\n    f...\n      POP \t\t\t      _;\\r\\n    }\\r\\n\\r\\n    f...\n      PUSH 40\t\t\t      _;\\r\\n    }\\r\\n\\r\\n    f...\n      MLOAD \t\t\t      _;\\r\\n    }\\r\\n\\r\\n    f...\n      DUP1 \t\t\t      _;\\r\\n    }\\r\\n\\r\\n    f...\n      PUSH 20\t\t\t      _;\\r\\n    }\\r\\n\\r\\n    f...\n      ADD \t\t\t      _;\\r\\n    }\\r\\n\\r\\n    f...\n      PUSH 40\t\t\t      _;\\r\\n    }\\r\\n\\r\\n    f...\n      MSTORE \t\t\t      _;\\r\\n    }\\r\\n\\r\\n    f...\n      DUP1 \t\t\t      _;\\r\\n    }\\r\\n\\r\\n    f...\n      PUSH 0\t\t\t      _;\\r\\n    }\\r\\n\\r\\n    f...\n      DUP2 \t\t\t      _;\\r\\n    }\\r\\n\\r\\n    f...\n      MSTORE \t\t\t      _;\\r\\n    }\\r\\n\\r\\n    f...\n      POP \t\t\t      _;\\r\\n    }\\r\\n\\r\\n    f...\n      PUSH [tag] 118\t\t\t      _;\\r\\n    }\\r\\n\\r\\n   \n      JUMP \t\t\t      _;\\r\\n    }\\r\\n\\r\\n    f...\n    tag 205\t\t\t      _;\\r\\n    }\\r\\n\\r\\n    f...\n      JUMPDEST \t\t\t      _;\\r\\n    }\\r\\n\\r\\n    f...\n      ISZERO \t\t\t       _;\\r\\n    }\\r\\n\\r\\n    ...\n      PUSH [tag] 211\t\t\tadmin is allowed\");\\r\\n       ...\n      JUMPI \t\t\tadmin is allowed\");\\r\\n       ...\n      PUSH 40\t\t\tadmin is allowed\");\\r\\n       ...\n      MLOAD \t\t\tadmin is allowed\");\\r\\n       ...\n      PUSH 8C379A000000000000000000000000000000000000000000000000000000000\t\t\tadmin is allowed\");\\r\\n       ...\n      DUP2 \t\t\tadmin is allowed\");\\r\\n       ...\n      MSTORE \t\t\tadmin is allowed\");\\r\\n       ...\n      PUSH 4\t\t\tadmin is allowed\");\\r\\n       ...\n      ADD \t\t\tadmin is allowed\");\\r\\n       ...\n      PUSH [tag] 212\t\t\tadmin is allowed\");\\r\\n       ...\n      SWAP1 \t\t\tadmin is allowed\");\\r\\n       ...\n      PUSH [tag] 121\t\t\tadmin is allowed\");\\r\\n       ...\n      JUMP \t\t\tadmin is allowed\");\\r\\n       ...\n    tag 212\t\t\tadmin is allowed\");\\r\\n       ...\n      JUMPDEST \t\t\tadmin is allowed\");\\r\\n       ...\n      PUSH 40\t\t\tadmin is allowed\");\\r\\n       ...\n      MLOAD \t\t\tadmin is allowed\");\\r\\n       ...\n      DUP1 \t\t\tadmin is allowed\");\\r\\n       ...\n      SWAP2 \t\t\tadmin is allowed\");\\r\\n       ...\n      SUB \t\t\tadmin is allowed\");\\r\\n       ...\n      SWAP1 \t\t\tadmin is allowed\");\\r\\n       ...\n      REVERT \t\t\tadmin is allowed\");\\r\\n       ...\n    tag 211\t\t\tadmin is allowed\");\\r\\n       ...\n      JUMPDEST \t\t\tadmin is allowed\");\\r\\n       ...\n      DUP5 \t\t\tbankId_\n      PUSH 0\t\t\t \n      PUSH FFFFFFFFFFFFFFFFFFFFFFFFFFFFFFFFFFFFFFFF\t\t\tn);\\r\\n    }\\r\\n\\r\\n    modifi...\n      AND \t\t\tn);\\r\\n    }\\r\\n\\r\\n    modifi...\n      PUSH 3\t\t\tn);\\r\\n\n      PUSH 0\t\t\tn);\\r\\n    }\n      DUP4 \t\t\t   \n      PUSH FFFFFFFFFFFFFFFFFFFFFFFFFFFFFFFFFFFFFFFF\t\t\tn);\\r\\n    }\n      AND \t\t\tn);\\r\\n    }\n      PUSH FFFFFFFFFFFFFFFFFFFFFFFFFFFFFFFFFFFFFFFF\t\t\tn);\\r\\n    }\n      AND \t\t\tn);\\r\\n    }\n      DUP2 \t\t\tn);\\r\\n    }\n      MSTORE \t\t\tn);\\r\\n    }\n      PUSH 20\t\t\tn);\\r\\n    }\n      ADD \t\t\tn);\\r\\n    }\n      SWAP1 \t\t\tn);\\r\\n    }\n      DUP2 \t\t\tn);\\r\\n    }\n      MSTORE \t\t\tn);\\r\\n    }\n      PUSH 20\t\t\tn);\\r\\n    }\n      ADD \t\t\tn);\\r\\n    }\n      PUSH 0\t\t\tn);\\r\\n    }\n      KECCAK256 \t\t\tn);\\r\\n    }\n      PUSH 2\t\t\tn);\\r\\n    }\\r\\n\\r\\n\n      ADD \t\t\tn);\\r\\n    }\\r\\n\\r\\n\n      PUSH 0\t\t\tn);\\r\\n    }\\r\\n\\r\\n\n      SWAP1 \t\t\tn);\\r\\n    }\\r\\n\\r\\n\n      SLOAD \t\t\tn);\\r\\n    }\\r\\n\\r\\n\n      SWAP1 \t\t\tn);\\r\\n    }\\r\\n\\r\\n\n      PUSH 100\t\t\tn);\\r\\n    }\\r\\n\\r\\n\n      EXP \t\t\tn);\\r\\n    }\\r\\n\\r\\n\n      SWAP1 \t\t\tn);\\r\\n    }\\r\\n\\r\\n\n      DIV \t\t\tn);\\r\\n    }\\r\\n\\r\\n\n      PUSH FFFFFFFFFFFFFFFFFFFFFFFFFFFFFFFFFFFFFFFF\t\t\tn);\\r\\n    }\\r\\n\\r\\n\n      AND \t\t\tn);\\r\\n    }\\r\\n\\r\\n\n      PUSH FFFFFFFFFFFFFFFFFFFFFFFFFFFFFFFFFFFFFFFF\t\t\tn);\\r\\n    }\\r\\n\\r\\n    modifi...\n      AND \t\t\tn);\\r\\n    }\\r\\n\\r\\n    modifi...\n      SUB \t\t\tn);\\r\\n    }\\r\\n\\r\\n    modifi...\n      PUSH [tag] 214\t\t\tush(admin);\\r\\n    }\\r\\n\\r\\n  ...\n      JUMPI \t\t\tush(admin);\\r\\n    }\\r\\n\\r\\n  ...\n      PUSH 40\t\t\tush(admin);\\r\\n    }\\r\\n\\r\\n  ...\n      MLOAD \t\t\tush(admin);\\r\\n    }\\r\\n\\r\\n  ...\n      PUSH 8C379A000000000000000000000000000000000000000000000000000000000\t\t\tush(admin);\\r\\n    }\\r\\n\\r\\n  ...\n      DUP2 \t\t\tush(admin);\\r\\n    }\\r\\n\\r\\n  ...\n      MSTORE \t\t\tush(admin);\\r\\n    }\\r\\n\\r\\n  ...\n      PUSH 4\t\t\tush(admin);\\r\\n    }\\r\\n\\r\\n  ...\n      ADD \t\t\tush(admin);\\r\\n    }\\r\\n\\r\\n  ...\n      PUSH [tag] 215\t\t\tush(admin);\\r\\n    }\\r\\n\\r\\n  ...\n      SWAP1 \t\t\tush(admin);\\r\\n    }\\r\\n\\r\\n  ...\n      PUSH [tag] 130\t\t\tush(admin);\\r\\n    }\\r\\n\\r\\n  ...\n      JUMP \t\t\tush(admin);\\r\\n    }\\r\\n\\r\\n  ...\n    tag 215\t\t\tush(admin);\\r\\n    }\\r\\n\\r\\n  ...\n      JUMPDEST \t\t\tush(admin);\\r\\n    }\\r\\n\\r\\n  ...\n      PUSH 40\t\t\tush(admin);\\r\\n    }\\r\\n\\r\\n  ...\n      MLOAD \t\t\tush(admin);\\r\\n    }\\r\\n\\r\\n  ...\n      DUP1 \t\t\tush(admin);\\r\\n    }\\r\\n\\r\\n  ...\n      SWAP2 \t\t\tush(admin);\\r\\n    }\\r\\n\\r\\n  ...\n      SUB \t\t\tush(admin);\\r\\n    }\\r\\n\\r\\n  ...\n      SWAP1 \t\t\tush(admin);\\r\\n    }\\r\\n\\r\\n  ...\n      REVERT \t\t\tush(admin);\\r\\n    }\\r\\n\\r\\n  ...\n    tag 214\t\t\tush(admin);\\r\\n    }\\r\\n\\r\\n  ...\n      JUMPDEST \t\t\tush(admin);\\r\\n    }\\r\\n\\r\\n  ...\n      DUP1 \t\t\tdmi\n      PUSH FFFFFFFFFFFFFFFFFFFFFFFFFFFFFFFFFFFFFFFF\t\t\t == admin, \"Only admi\n      AND \t\t\t == admin, \"Only admi\n      PUSH 3\t\t\t == a\n      PUSH 0\t\t\t == admin,\n      DUP4 \t\t\tmin\n      PUSH FFFFFFFFFFFFFFFFFFFFFFFFFFFFFFFFFFFFFFFF\t\t\t == admin,\n      AND \t\t\t == admin,\n      PUSH FFFFFFFFFFFFFFFFFFFFFFFFFFFFFFFFFFFFFFFF\t\t\t == admin,\n      AND \t\t\t == admin,\n      DUP2 \t\t\t == admin,\n      MSTORE \t\t\t == admin,\n      PUSH 20\t\t\t == admin,\n      ADD \t\t\t == admin,\n      SWAP1 \t\t\t == admin,\n      DUP2 \t\t\t == admin,\n      MSTORE \t\t\t == admin,\n      PUSH 20\t\t\t == admin,\n      ADD \t\t\t == admin,\n      PUSH 0\t\t\t == admin,\n      KECCAK256 \t\t\t == admin,\n      PUSH 2\t\t\t == admin, \"On\n      ADD \t\t\t == admin, \"On\n      PUSH 0\t\t\t == admin, \"On\n      SWAP1 \t\t\t == admin, \"On\n      SLOAD \t\t\t == admin, \"On\n      SWAP1 \t\t\t == admin, \"On\n      PUSH 100\t\t\t == admin, \"On\n      EXP \t\t\t == admin, \"On\n      SWAP1 \t\t\t == admin, \"On\n      DIV \t\t\t == admin, \"On\n      PUSH FFFFFFFFFFFFFFFFFFFFFFFFFFFFFFFFFFFFFFFF\t\t\t == admin, \"On\n      AND \t\t\t == admin, \"On\n      PUSH FFFFFFFFFFFFFFFFFFFFFFFFFFFFFFFFFFFFFFFF\t\t\t == admin, \"Only admi\n      AND \t\t\t == admin, \"Only admi\n      EQ \t\t\t == admin, \"Only admi\n      PUSH [tag] 216\t\t\tg.sender == admin, \"Only admin...\n      JUMPI \t\t\tg.sender == admin, \"Only admin...\n      PUSH 40\t\t\tg.sender == admin, \"Only admin...\n      MLOAD \t\t\tg.sender == admin, \"Only admin...\n      PUSH 8C379A000000000000000000000000000000000000000000000000000000000\t\t\tg.sender == admin, \"Only admin...\n      DUP2 \t\t\tg.sender == admin, \"Only admin...\n      MSTORE \t\t\tg.sender == admin, \"Only admin...\n      PUSH 4\t\t\tg.sender == admin, \"Only admin...\n      ADD \t\t\tg.sender == admin, \"Only admin...\n      PUSH [tag] 217\t\t\tg.sender == admin, \"Only admin...\n      SWAP1 \t\t\tg.sender == admin, \"Only admin...\n      PUSH [tag] 130\t\t\tg.sender == admin, \"Only admin...\n      JUMP \t\t\tg.sender == admin, \"Only admin...\n    tag 217\t\t\tg.sender == admin, \"Only admin...\n      JUMPDEST \t\t\tg.sender == admin, \"Only admin...\n      PUSH 40\t\t\tg.sender == admin, \"Only admin...\n      MLOAD \t\t\tg.sender == admin, \"Only admin...\n      DUP1 \t\t\tg.sender == admin, \"Only admin...\n      SWAP2 \t\t\tg.sender == admin, \"Only admin...\n      SUB \t\t\tg.sender == admin, \"Only admin...\n      SWAP1 \t\t\tg.sender == admin, \"Only admin...\n      REVERT \t\t\tg.sender == admin, \"Only admin...\n    tag 216\t\t\tg.sender == admin, \"Only admin...\n      JUMPDEST \t\t\tg.sender == admin, \"Only admin...\n      PUSH 0\t\t\tg memory reqId_)\\r\\n     \n      PUSH 1\t\t\tycRequestExists(string memory ...\n      DUP2 \t\t\tycRequestExists(string memory ...\n      GT \t\t\tycRequestExists(string memory ...\n      ISZERO \t\t\tycRequestExists(string memory ...\n      PUSH [tag] 218\t\t\tycRequestExists(string memory ...\n      JUMPI \t\t\tycRequestExists(string memory ...\n      PUSH [tag] 219\t\t\tycRequestExists(string memory ...\n      PUSH [tag] 135\t\t\tycRequestExists(string memory ...\n      JUMP \t\t\tycRequestExists(string memory ...\n    tag 219\t\t\tycRequestExists(string memory ...\n      JUMPDEST \t\t\tycRequestExists(string memory ...\n    tag 218\t\t\tycRequestExists(string memory ...\n      JUMPDEST \t\t\tycRequestExists(string memory ...\n      PUSH 3\t\t\tycReq\n      PUSH 0\t\t\tycRequestE\n      DUP4 \t\t\test\n      PUSH FFFFFFFFFFFFFFFFFFFFFFFFFFFFFFFFFFFFFFFF\t\t\tycRequestE\n      AND \t\t\tycRequestE\n      PUSH FFFFFFFFFFFFFFFFFFFFFFFFFFFFFFFFFFFFFFFF\t\t\tycRequestE\n      AND \t\t\tycRequestE\n      DUP2 \t\t\tycRequestE\n      MSTORE \t\t\tycRequestE\n      PUSH 20\t\t\tycRequestE\n      ADD \t\t\tycRequestE\n      SWAP1 \t\t\tycRequestE\n      DUP2 \t\t\tycRequestE\n      MSTORE \t\t\tycRequestE\n      PUSH 20\t\t\tycRequestE\n      ADD \t\t\tycRequestE\n      PUSH 0\t\t\tycRequestE\n      KECCAK256 \t\t\tycRequestE\n      PUSH 4\t\t\tycRequestExists(s\n      ADD \t\t\tycRequestExists(s\n      PUSH 2\t\t\tycRequestExists(s\n      SWAP1 \t\t\tycRequestExists(s\n      SLOAD \t\t\tycRequestExists(s\n      SWAP1 \t\t\tycRequestExists(s\n      PUSH 100\t\t\tycRequestExists(s\n      EXP \t\t\tycRequestExists(s\n      SWAP1 \t\t\tycRequestExists(s\n      DIV \t\t\tycRequestExists(s\n      PUSH FF\t\t\tycRequestExists(s\n      AND \t\t\tycRequestExists(s\n      PUSH 1\t\t\tycRequestExists(string memory ...\n      DUP2 \t\t\tycRequestExists(string memory ...\n      GT \t\t\tycRequestExists(string memory ...\n      ISZERO \t\t\tycRequestExists(string memory ...\n      PUSH [tag] 220\t\t\tycRequestExists(string memory ...\n      JUMPI \t\t\tycRequestExists(string memory ...\n      PUSH [tag] 221\t\t\tycRequestExists(string memory ...\n      PUSH [tag] 135\t\t\tycRequestExists(string memory ...\n      JUMP \t\t\tycRequestExists(string memory ...\n    tag 221\t\t\tycRequestExists(string memory ...\n      JUMPDEST \t\t\tycRequestExists(string memory ...\n    tag 220\t\t\tycRequestExists(string memory ...\n      JUMPDEST \t\t\tycRequestExists(string memory ...\n      EQ \t\t\tycRequestExists(string memory ...\n      PUSH [tag] 222\t\t\t   }\\r\\n\\r\\n    function kycRe...\n      JUMPI \t\t\t   }\\r\\n\\r\\n    function kycRe...\n      PUSH 40\t\t\t   }\\r\\n\\r\\n    function kycRe...\n      MLOAD \t\t\t   }\\r\\n\\r\\n    function kycRe...\n      PUSH 8C379A000000000000000000000000000000000000000000000000000000000\t\t\t   }\\r\\n\\r\\n    function kycRe...\n      DUP2 \t\t\t   }\\r\\n\\r\\n    function kycRe...\n      MSTORE \t\t\t   }\\r\\n\\r\\n    function kycRe...\n      PUSH 4\t\t\t   }\\r\\n\\r\\n    function kycRe...\n      ADD \t\t\t   }\\r\\n\\r\\n    function kycRe...\n      PUSH [tag] 223\t\t\t   }\\r\\n\\r\\n    function kycRe...\n      SWAP1 \t\t\t   }\\r\\n\\r\\n    function kycRe...\n      PUSH [tag] 140\t\t\t   }\\r\\n\\r\\n    function kycRe...\n      JUMP \t\t\t   }\\r\\n\\r\\n    function kycRe...\n    tag 223\t\t\t   }\\r\\n\\r\\n    function kycRe...\n      JUMPDEST \t\t\t   }\\r\\n\\r\\n    function kycRe...\n      PUSH 40\t\t\t   }\\r\\n\\r\\n    function kycRe...\n      MLOAD \t\t\t   }\\r\\n\\r\\n    function kycRe...\n      DUP1 \t\t\t   }\\r\\n\\r\\n    function kycRe...\n      SWAP2 \t\t\t   }\\r\\n\\r\\n    function kycRe...\n      SUB \t\t\t   }\\r\\n\\r\\n    function kycRe...\n      SWAP1 \t\t\t   }\\r\\n\\r\\n    function kycRe...\n      REVERT \t\t\t   }\\r\\n\\r\\n    function kycRe...\n    tag 222\t\t\t   }\\r\\n\\r\\n    function kycRe...\n      JUMPDEST \t\t\t   }\\r\\n\\r\\n    function kycRe...\n      PUSH 0\t\t\tbool found_\n      PUSH [tag] 225\t\t\tTypes.Bank memory bank_\n      PUSH [tag] 126\t\t\tTypes.Bank memory bank_\n      JUMP \t\t\tTypes.Bank memory bank_\n    tag 225\t\t\tTypes.Bank memory bank_\n      JUMPDEST \t\t\tTypes.Bank memory bank_\n      PUSH [tag] 226\t\t\tTypes.KycRequest memory reques...\n      PUSH [tag] 199\t\t\tTypes.KycRequest memory reques...\n      JUMP \t\t\tTypes.KycRequest memory reques...\n    tag 226\t\t\tTypes.KycRequest memory reques...\n      JUMPDEST \t\t\tTypes.KycRequest memory reques...\n      PUSH 0\t\t\taddress[] memory banks_\n      PUSH 9\t\t\tcustomerbanks\n      PUSH 0\t\t\tcustomerbanks[msg.sender]\n      CALLER \t\t\tmsg.sender\n      PUSH FFFFFFFFFFFFFFFFFFFFFFFFFFFFFFFFFFFFFFFF\t\t\tcustomerbanks[msg.sender]\n      AND \t\t\tcustomerbanks[msg.sender]\n      PUSH FFFFFFFFFFFFFFFFFFFFFFFFFFFFFFFFFFFFFFFF\t\t\tcustomerbanks[msg.sender]\n      AND \t\t\tcustomerbanks[msg.sender]\n      DUP2 \t\t\tcustomerbanks[msg.sender]\n      MSTORE \t\t\tcustomerbanks[msg.sender]\n      PUSH 20\t\t\tcustomerbanks[msg.sender]\n      ADD \t\t\tcustomerbanks[msg.sender]\n      SWAP1 \t\t\tcustomerbanks[msg.sender]\n      DUP2 \t\t\tcustomerbanks[msg.sender]\n      MSTORE \t\t\tcustomerbanks[msg.sender]\n      PUSH 20\t\t\tcustomerbanks[msg.sender]\n      ADD \t\t\tcustomerbanks[msg.sender]\n      PUSH 0\t\t\tcustomerbanks[msg.sender]\n      KECCAK256 \t\t\tcustomerbanks[msg.sender]\n      DUP1 \t\t\taddress[] memory banks_ = cust...\n      SLOAD \t\t\taddress[] memory banks_ = cust...\n      DUP1 \t\t\taddress[] memory banks_ = cust...\n      PUSH 20\t\t\taddress[] memory banks_ = cust...\n      MUL \t\t\taddress[] memory banks_ = cust...\n      PUSH 20\t\t\taddress[] memory banks_ = cust...\n      ADD \t\t\taddress[] memory banks_ = cust...\n      PUSH 40\t\t\taddress[] memory banks_ = cust...\n      MLOAD \t\t\taddress[] memory banks_ = cust...\n      SWAP1 \t\t\taddress[] memory banks_ = cust...\n      DUP2 \t\t\taddress[] memory banks_ = cust...\n      ADD \t\t\taddress[] memory banks_ = cust...\n      PUSH 40\t\t\taddress[] memory banks_ = cust...\n      MSTORE \t\t\taddress[] memory banks_ = cust...\n      DUP1 \t\t\taddress[] memory banks_ = cust...\n      SWAP3 \t\t\taddress[] memory banks_ = cust...\n      SWAP2 \t\t\taddress[] memory banks_ = cust...\n      SWAP1 \t\t\taddress[] memory banks_ = cust...\n      DUP2 \t\t\taddress[] memory banks_ = cust...\n      DUP2 \t\t\taddress[] memory banks_ = cust...\n      MSTORE \t\t\taddress[] memory banks_ = cust...\n      PUSH 20\t\t\taddress[] memory banks_ = cust...\n      ADD \t\t\taddress[] memory banks_ = cust...\n      DUP3 \t\t\taddress[] memory banks_ = cust...\n      DUP1 \t\t\taddress[] memory banks_ = cust...\n      SLOAD \t\t\taddress[] memory banks_ = cust...\n      DUP1 \t\t\taddress[] memory banks_ = cust...\n      ISZERO \t\t\taddress[] memory banks_ = cust...\n      PUSH [tag] 227\t\t\taddress[] memory banks_ = cust...\n      JUMPI \t\t\taddress[] memory banks_ = cust...\n      PUSH 20\t\t\taddress[] memory banks_ = cust...\n      MUL \t\t\taddress[] memory banks_ = cust...\n      DUP3 \t\t\taddress[] memory banks_ = cust...\n      ADD \t\t\taddress[] memory banks_ = cust...\n      SWAP2 \t\t\taddress[] memory banks_ = cust...\n      SWAP1 \t\t\taddress[] memory banks_ = cust...\n      PUSH 0\t\t\taddress[] memory banks_ = cust...\n      MSTORE \t\t\taddress[] memory banks_ = cust...\n      PUSH 20\t\t\taddress[] memory banks_ = cust...\n      PUSH 0\t\t\taddress[] memory banks_ = cust...\n      KECCAK256 \t\t\taddress[] memory banks_ = cust...\n      SWAP1 \t\t\taddress[] memory banks_ = cust...\n    tag 228\t\t\taddress[] memory banks_ = cust...\n      JUMPDEST \t\t\taddress[] memory banks_ = cust...\n      DUP2 \t\t\taddress[] memory banks_ = cust...\n      PUSH 0\t\t\taddress[] memory banks_ = cust...\n      SWAP1 \t\t\taddress[] memory banks_ = cust...\n      SLOAD \t\t\taddress[] memory banks_ = cust...\n      SWAP1 \t\t\taddress[] memory banks_ = cust...\n      PUSH 100\t\t\taddress[] memory banks_ = cust...\n      EXP \t\t\taddress[] memory banks_ = cust...\n      SWAP1 \t\t\taddress[] memory banks_ = cust...\n      DIV \t\t\taddress[] memory banks_ = cust...\n      PUSH FFFFFFFFFFFFFFFFFFFFFFFFFFFFFFFFFFFFFFFF\t\t\taddress[] memory banks_ = cust...\n      AND \t\t\taddress[] memory banks_ = cust...\n      PUSH FFFFFFFFFFFFFFFFFFFFFFFFFFFFFFFFFFFFFFFF\t\t\taddress[] memory banks_ = cust...\n      AND \t\t\taddress[] memory banks_ = cust...\n      DUP2 \t\t\taddress[] memory banks_ = cust...\n      MSTORE \t\t\taddress[] memory banks_ = cust...\n      PUSH 20\t\t\taddress[] memory banks_ = cust...\n      ADD \t\t\taddress[] memory banks_ = cust...\n      SWAP1 \t\t\taddress[] memory banks_ = cust...\n      PUSH 1\t\t\taddress[] memory banks_ = cust...\n      ADD \t\t\taddress[] memory banks_ = cust...\n      SWAP1 \t\t\taddress[] memory banks_ = cust...\n      DUP1 \t\t\taddress[] memory banks_ = cust...\n      DUP4 \t\t\taddress[] memory banks_ = cust...\n      GT \t\t\taddress[] memory banks_ = cust...\n      PUSH [tag] 228\t\t\taddress[] memory banks_ = cust...\n      JUMPI \t\t\taddress[] memory banks_ = cust...\n    tag 227\t\t\taddress[] memory banks_ = cust...\n      JUMPDEST \t\t\taddress[] memory banks_ = cust...\n      POP \t\t\taddress[] memory banks_ = cust...\n      POP \t\t\taddress[] memory banks_ = cust...\n      POP \t\t\taddress[] memory banks_ = cust...\n      POP \t\t\taddress[] memory banks_ = cust...\n      POP \t\t\taddress[] memory banks_ = cust...\n      SWAP1 \t\t\taddress[] memory banks_ = cust...\n      POP \t\t\taddress[] memory banks_ = cust...\n      PUSH 0\t\t\tuint256 i\n    tag 229\t\t\tfor (uint256 i = 0; i < banks_...\n      JUMPDEST \t\t\tfor (uint256 i = 0; i < banks_...\n      DUP2 \t\t\tbanks_\n      MLOAD \t\t\tbanks_.length\n      DUP2 \t\t\ti\n      LT \t\t\ti < banks_.length\n      ISZERO \t\t\tfor (uint256 i = 0; i < banks_...\n      PUSH [tag] 230\t\t\tfor (uint256 i = 0; i < banks_...\n      JUMPI \t\t\tfor (uint256 i = 0; i < banks_...\n      DUP11 \t\t\tbankId_\n      PUSH FFFFFFFFFFFFFFFFFFFFFFFFFFFFFFFFFFFFFFFF\t\t\tbanks_[i] == bankId_\n      AND \t\t\tbanks_[i] == bankId_\n      DUP3 \t\t\tbanks_\n      DUP3 \t\t\ti\n      DUP2 \t\t\tbanks_[i]\n      MLOAD \t\t\tbanks_[i]\n      DUP2 \t\t\tbanks_[i]\n      LT \t\t\tbanks_[i]\n      PUSH [tag] 232\t\t\tbanks_[i]\n      JUMPI \t\t\tbanks_[i]\n      PUSH [tag] 233\t\t\tbanks_[i]\n      PUSH [tag] 234\t\t\tbanks_[i]\n      JUMP \t\t\tbanks_[i]\n    tag 233\t\t\tbanks_[i]\n      JUMPDEST \t\t\tbanks_[i]\n    tag 232\t\t\tbanks_[i]\n      JUMPDEST \t\t\tbanks_[i]\n      PUSH 20\t\t\tbanks_[i]\n      MUL \t\t\tbanks_[i]\n      PUSH 20\t\t\tbanks_[i]\n      ADD \t\t\tbanks_[i]\n      ADD \t\t\tbanks_[i]\n      MLOAD \t\t\tbanks_[i]\n      PUSH FFFFFFFFFFFFFFFFFFFFFFFFFFFFFFFFFFFFFFFF\t\t\tbanks_[i] == bankId_\n      AND \t\t\tbanks_[i] == bankId_\n      SUB \t\t\tbanks_[i] == bankId_\n      PUSH [tag] 235\t\t\tif (banks_[i] == bankId_) {\\r\\...\n      JUMPI \t\t\tif (banks_[i] == bankId_) {\\r\\...\n      PUSH 1\t\t\ttrue\n      SWAP5 \t\t\tfound_ = true\n      POP \t\t\tfound_ = true\n      PUSH [tag] 236\t\t\tgetsinglebank(bankId_)\n      DUP12 \t\t\tbankId_\n      PUSH [tag] 143\t\t\tgetsinglebank\n      JUMP \t\t\tgetsinglebank(bankId_)\n    tag 236\t\t\tgetsinglebank(bankId_)\n      JUMPDEST \t\t\tgetsinglebank(bankId_)\n      SWAP4 \t\t\tbank_ = getsinglebank(bankId_)\n      POP \t\t\tbank_ = getsinglebank(bankId_)\n      PUSH 7\t\t\tkycRequests\n      PUSH [tag] 237\t\t\tHelpers.append(bankId_, msg.se...\n      DUP13 \t\t\tbankId_\n      CALLER \t\t\tmsg.sender\n      PUSH [tag] 157\t\t\tHelpers.append\n      JUMP \t\t\tHelpers.append(bankId_, msg.se...\n    tag 237\t\t\tHelpers.append(bankId_, msg.se...\n      JUMPDEST \t\t\tHelpers.append(bankId_, msg.se...\n      PUSH 40\t\t\tkycRequests[Helpers.append(ban...\n      MLOAD \t\t\tkycRequests[Helpers.append(ban...\n      PUSH [tag] 238\t\t\tkycRequests[Helpers.append(ban...\n      SWAP2 \t\t\tkycRequests[Helpers.append(ban...\n      SWAP1 \t\t\tkycRequests[Helpers.append(ban...\n      PUSH [tag] 169\t\t\tkycRequests[Helpers.append(ban...\n      JUMP \t\t\tkycRequests[Helpers.append(ban...\n    tag 238\t\t\tkycRequests[Helpers.append(ban...\n      JUMPDEST \t\t\tkycRequests[Helpers.append(ban...\n      SWAP1 \t\t\tkycRequests[Helpers.append(ban...\n      DUP2 \t\t\tkycRequests[Helpers.append(ban...\n      MSTORE \t\t\tkycRequests[Helpers.append(ban...\n      PUSH 20\t\t\tkycRequests[Helpers.append(ban...\n      ADD \t\t\tkycRequests[Helpers.append(ban...\n      PUSH 40\t\t\tkycRequests[Helpers.append(ban...\n      MLOAD \t\t\tkycRequests[Helpers.append(ban...\n      DUP1 \t\t\tkycRequests[Helpers.append(ban...\n      SWAP2 \t\t\tkycRequests[Helpers.append(ban...\n      SUB \t\t\tkycRequests[Helpers.append(ban...\n      SWAP1 \t\t\tkycRequests[Helpers.append(ban...\n      KECCAK256 \t\t\tkycRequests[Helpers.append(ban...\n      PUSH 40\t\t\trequest_ = kycRequests[Helpers...\n      MLOAD \t\t\trequest_ = kycRequests[Helpers...\n      DUP1 \t\t\trequest_ = kycRequests[Helpers...\n      PUSH 140\t\t\trequest_ = kycRequests[Helpers...\n      ADD \t\t\trequest_ = kycRequests[Helpers...\n      PUSH 40\t\t\trequest_ = kycRequests[Helpers...\n      MSTORE \t\t\trequest_ = kycRequests[Helpers...\n      SWAP1 \t\t\trequest_ = kycRequests[Helpers...\n      DUP2 \t\t\trequest_ = kycRequests[Helpers...\n      PUSH 0\t\t\trequest_ = kycRequests[Helpers...\n      DUP3 \t\t\trequest_ = kycRequests[Helpers...\n      ADD \t\t\trequest_ = kycRequests[Helpers...\n      DUP1 \t\t\trequest_ = kycRequests[Helpers...\n      SLOAD \t\t\trequest_ = kycRequests[Helpers...\n      PUSH [tag] 239\t\t\trequest_ = kycRequests[Helpers...\n      SWAP1 \t\t\trequest_ = kycRequests[Helpers...\n      PUSH [tag] 113\t\t\trequest_ = kycRequests[Helpers...\n      JUMP \t\t\trequest_ = kycRequests[Helpers...\n    tag 239\t\t\trequest_ = kycRequests[Helpers...\n      JUMPDEST \t\t\trequest_ = kycRequests[Helpers...\n      DUP1 \t\t\trequest_ = kycRequests[Helpers...\n      PUSH 1F\t\t\trequest_ = kycRequests[Helpers...\n      ADD \t\t\trequest_ = kycRequests[Helpers...\n      PUSH 20\t\t\trequest_ = kycRequests[Helpers...\n      DUP1 \t\t\trequest_ = kycRequests[Helpers...\n      SWAP2 \t\t\trequest_ = kycRequests[Helpers...\n      DIV \t\t\trequest_ = kycRequests[Helpers...\n      MUL \t\t\trequest_ = kycRequests[Helpers...\n      PUSH 20\t\t\trequest_ = kycRequests[Helpers...\n      ADD \t\t\trequest_ = kycRequests[Helpers...\n      PUSH 40\t\t\trequest_ = kycRequests[Helpers...\n      MLOAD \t\t\trequest_ = kycRequests[Helpers...\n      SWAP1 \t\t\trequest_ = kycRequests[Helpers...\n      DUP2 \t\t\trequest_ = kycRequests[Helpers...\n      ADD \t\t\trequest_ = kycRequests[Helpers...\n      PUSH 40\t\t\trequest_ = kycRequests[Helpers...\n      MSTORE \t\t\trequest_ = kycRequests[Helpers...\n      DUP1 \t\t\trequest_ = kycRequests[Helpers...\n      SWAP3 \t\t\trequest_ = kycRequests[Helpers...\n      SWAP2 \t\t\trequest_ = kycRequests[Helpers...\n      SWAP1 \t\t\trequest_ = kycRequests[Helpers...\n      DUP2 \t\t\trequest_ = kycRequests[Helpers...\n      DUP2 \t\t\trequest_ = kycRequests[Helpers...\n      MSTORE \t\t\trequest_ = kycRequests[Helpers...\n      PUSH 20\t\t\trequest_ = kycRequests[Helpers...\n      ADD \t\t\trequest_ = kycRequests[Helpers...\n      DUP3 \t\t\trequest_ = kycRequests[Helpers...\n      DUP1 \t\t\trequest_ = kycRequests[Helpers...\n      SLOAD \t\t\trequest_ = kycRequests[Helpers...\n      PUSH [tag] 240\t\t\trequest_ = kycRequests[Helpers...\n      SWAP1 \t\t\trequest_ = kycRequests[Helpers...\n      PUSH [tag] 113\t\t\trequest_ = kycRequests[Helpers...\n      JUMP \t\t\trequest_ = kycRequests[Helpers...\n    tag 240\t\t\trequest_ = kycRequests[Helpers...\n      JUMPDEST \t\t\trequest_ = kycRequests[Helpers...\n      DUP1 \t\t\trequest_ = kycRequests[Helpers...\n      ISZERO \t\t\trequest_ = kycRequests[Helpers...\n      PUSH [tag] 241\t\t\trequest_ = kycRequests[Helpers...\n      JUMPI \t\t\trequest_ = kycRequests[Helpers...\n      DUP1 \t\t\trequest_ = kycRequests[Helpers...\n      PUSH 1F\t\t\trequest_ = kycRequests[Helpers...\n      LT \t\t\trequest_ = kycRequests[Helpers...\n      PUSH [tag] 242\t\t\trequest_ = kycRequests[Helpers...\n      JUMPI \t\t\trequest_ = kycRequests[Helpers...\n      PUSH 100\t\t\trequest_ = kycRequests[Helpers...\n      DUP1 \t\t\trequest_ = kycRequests[Helpers...\n      DUP4 \t\t\trequest_ = kycRequests[Helpers...\n      SLOAD \t\t\trequest_ = kycRequests[Helpers...\n      DIV \t\t\trequest_ = kycRequests[Helpers...\n      MUL \t\t\trequest_ = kycRequests[Helpers...\n      DUP4 \t\t\trequest_ = kycRequests[Helpers...\n      MSTORE \t\t\trequest_ = kycRequests[Helpers...\n      SWAP2 \t\t\trequest_ = kycRequests[Helpers...\n      PUSH 20\t\t\trequest_ = kycRequests[Helpers...\n      ADD \t\t\trequest_ = kycRequests[Helpers...\n      SWAP2 \t\t\trequest_ = kycRequests[Helpers...\n      PUSH [tag] 241\t\t\trequest_ = kycRequests[Helpers...\n      JUMP \t\t\trequest_ = kycRequests[Helpers...\n    tag 242\t\t\trequest_ = kycRequests[Helpers...\n      JUMPDEST \t\t\trequest_ = kycRequests[Helpers...\n      DUP3 \t\t\trequest_ = kycRequests[Helpers...\n      ADD \t\t\trequest_ = kycRequests[Helpers...\n      SWAP2 \t\t\trequest_ = kycRequests[Helpers...\n      SWAP1 \t\t\trequest_ = kycRequests[Helpers...\n      PUSH 0\t\t\trequest_ = kycRequests[Helpers...\n      MSTORE \t\t\trequest_ = kycRequests[Helpers...\n      PUSH 20\t\t\trequest_ = kycRequests[Helpers...\n      PUSH 0\t\t\trequest_ = kycRequests[Helpers...\n      KECCAK256 \t\t\trequest_ = kycRequests[Helpers...\n      SWAP1 \t\t\trequest_ = kycRequests[Helpers...\n    tag 243\t\t\trequest_ = kycRequests[Helpers...\n      JUMPDEST \t\t\trequest_ = kycRequests[Helpers...\n      DUP2 \t\t\trequest_ = kycRequests[Helpers...\n      SLOAD \t\t\trequest_ = kycRequests[Helpers...\n      DUP2 \t\t\trequest_ = kycRequests[Helpers...\n      MSTORE \t\t\trequest_ = kycRequests[Helpers...\n      SWAP1 \t\t\trequest_ = kycRequests[Helpers...\n      PUSH 1\t\t\trequest_ = kycRequests[Helpers...\n      ADD \t\t\trequest_ = kycRequests[Helpers...\n      SWAP1 \t\t\trequest_ = kycRequests[Helpers...\n      PUSH 20\t\t\trequest_ = kycRequests[Helpers...\n      ADD \t\t\trequest_ = kycRequests[Helpers...\n      DUP1 \t\t\trequest_ = kycRequests[Helpers...\n      DUP4 \t\t\trequest_ = kycRequests[Helpers...\n      GT \t\t\trequest_ = kycRequests[Helpers...\n      PUSH [tag] 243\t\t\trequest_ = kycRequests[Helpers...\n      JUMPI \t\t\trequest_ = kycRequests[Helpers...\n      DUP3 \t\t\trequest_ = kycRequests[Helpers...\n      SWAP1 \t\t\trequest_ = kycRequests[Helpers...\n      SUB \t\t\trequest_ = kycRequests[Helpers...\n      PUSH 1F\t\t\trequest_ = kycRequests[Helpers...\n      AND \t\t\trequest_ = kycRequests[Helpers...\n      DUP3 \t\t\trequest_ = kycRequests[Helpers...\n      ADD \t\t\trequest_ = kycRequests[Helpers...\n      SWAP2 \t\t\trequest_ = kycRequests[Helpers...\n    tag 241\t\t\trequest_ = kycRequests[Helpers...\n      JUMPDEST \t\t\trequest_ = kycRequests[Helpers...\n      POP \t\t\trequest_ = kycRequests[Helpers...\n      POP \t\t\trequest_ = kycRequests[Helpers...\n      POP \t\t\trequest_ = kycRequests[Helpers...\n      POP \t\t\trequest_ = kycRequests[Helpers...\n      POP \t\t\trequest_ = kycRequests[Helpers...\n      DUP2 \t\t\trequest_ = kycRequests[Helpers...\n      MSTORE \t\t\trequest_ = kycRequests[Helpers...\n      PUSH 20\t\t\trequest_ = kycRequests[Helpers...\n      ADD \t\t\trequest_ = kycRequests[Helpers...\n      PUSH 1\t\t\trequest_ = kycRequests[Helpers...\n      DUP3 \t\t\trequest_ = kycRequests[Helpers...\n      ADD \t\t\trequest_ = kycRequests[Helpers...\n      PUSH 0\t\t\trequest_ = kycRequests[Helpers...\n      SWAP1 \t\t\trequest_ = kycRequests[Helpers...\n      SLOAD \t\t\trequest_ = kycRequests[Helpers...\n      SWAP1 \t\t\trequest_ = kycRequests[Helpers...\n      PUSH 100\t\t\trequest_ = kycRequests[Helpers...\n      EXP \t\t\trequest_ = kycRequests[Helpers...\n      SWAP1 \t\t\trequest_ = kycRequests[Helpers...\n      DIV \t\t\trequest_ = kycRequests[Helpers...\n      PUSH FFFFFFFFFFFFFFFFFFFFFFFFFFFFFFFFFFFFFFFF\t\t\trequest_ = kycRequests[Helpers...\n      AND \t\t\trequest_ = kycRequests[Helpers...\n      PUSH FFFFFFFFFFFFFFFFFFFFFFFFFFFFFFFFFFFFFFFF\t\t\trequest_ = kycRequests[Helpers...\n      AND \t\t\trequest_ = kycRequests[Helpers...\n      PUSH FFFFFFFFFFFFFFFFFFFFFFFFFFFFFFFFFFFFFFFF\t\t\trequest_ = kycRequests[Helpers...\n      AND \t\t\trequest_ = kycRequests[Helpers...\n      DUP2 \t\t\trequest_ = kycRequests[Helpers...\n      MSTORE \t\t\trequest_ = kycRequests[Helpers...\n      PUSH 20\t\t\trequest_ = kycRequests[Helpers...\n      ADD \t\t\trequest_ = kycRequests[Helpers...\n      PUSH 2\t\t\trequest_ = kycRequests[Helpers...\n      DUP3 \t\t\trequest_ = kycRequests[Helpers...\n      ADD \t\t\trequest_ = kycRequests[Helpers...\n      DUP1 \t\t\trequest_ = kycRequests[Helpers...\n      SLOAD \t\t\trequest_ = kycRequests[Helpers...\n      PUSH [tag] 244\t\t\trequest_ = kycRequests[Helpers...\n      SWAP1 \t\t\trequest_ = kycRequests[Helpers...\n      PUSH [tag] 113\t\t\trequest_ = kycRequests[Helpers...\n      JUMP \t\t\trequest_ = kycRequests[Helpers...\n    tag 244\t\t\trequest_ = kycRequests[Helpers...\n      JUMPDEST \t\t\trequest_ = kycRequests[Helpers...\n      DUP1 \t\t\trequest_ = kycRequests[Helpers...\n      PUSH 1F\t\t\trequest_ = kycRequests[Helpers...\n      ADD \t\t\trequest_ = kycRequests[Helpers...\n      PUSH 20\t\t\trequest_ = kycRequests[Helpers...\n      DUP1 \t\t\trequest_ = kycRequests[Helpers...\n      SWAP2 \t\t\trequest_ = kycRequests[Helpers...\n      DIV \t\t\trequest_ = kycRequests[Helpers...\n      MUL \t\t\trequest_ = kycRequests[Helpers...\n      PUSH 20\t\t\trequest_ = kycRequests[Helpers...\n      ADD \t\t\trequest_ = kycRequests[Helpers...\n      PUSH 40\t\t\trequest_ = kycRequests[Helpers...\n      MLOAD \t\t\trequest_ = kycRequests[Helpers...\n      SWAP1 \t\t\trequest_ = kycRequests[Helpers...\n      DUP2 \t\t\trequest_ = kycRequests[Helpers...\n      ADD \t\t\trequest_ = kycRequests[Helpers...\n      PUSH 40\t\t\trequest_ = kycRequests[Helpers...\n      MSTORE \t\t\trequest_ = kycRequests[Helpers...\n      DUP1 \t\t\trequest_ = kycRequests[Helpers...\n      SWAP3 \t\t\trequest_ = kycRequests[Helpers...\n      SWAP2 \t\t\trequest_ = kycRequests[Helpers...\n      SWAP1 \t\t\trequest_ = kycRequests[Helpers...\n      DUP2 \t\t\trequest_ = kycRequests[Helpers...\n      DUP2 \t\t\trequest_ = kycRequests[Helpers...\n      MSTORE \t\t\trequest_ = kycRequests[Helpers...\n      PUSH 20\t\t\trequest_ = kycRequests[Helpers...\n      ADD \t\t\trequest_ = kycRequests[Helpers...\n      DUP3 \t\t\trequest_ = kycRequests[Helpers...\n      DUP1 \t\t\trequest_ = kycRequests[Helpers...\n      SLOAD \t\t\trequest_ = kycRequests[Helpers...\n      PUSH [tag] 245\t\t\trequest_ = kycRequests[Helpers...\n      SWAP1 \t\t\trequest_ = kycRequests[Helpers...\n      PUSH [tag] 113\t\t\trequest_ = kycRequests[Helpers...\n      JUMP \t\t\trequest_ = kycRequests[Helpers...\n    tag 245\t\t\trequest_ = kycRequests[Helpers...\n      JUMPDEST \t\t\trequest_ = kycRequests[Helpers...\n      DUP1 \t\t\trequest_ = kycRequests[Helpers...\n      ISZERO \t\t\trequest_ = kycRequests[Helpers...\n      PUSH [tag] 246\t\t\trequest_ = kycRequests[Helpers...\n      JUMPI \t\t\trequest_ = kycRequests[Helpers...\n      DUP1 \t\t\trequest_ = kycRequests[Helpers...\n      PUSH 1F\t\t\trequest_ = kycRequests[Helpers...\n      LT \t\t\trequest_ = kycRequests[Helpers...\n      PUSH [tag] 247\t\t\trequest_ = kycRequests[Helpers...\n      JUMPI \t\t\trequest_ = kycRequests[Helpers...\n      PUSH 100\t\t\trequest_ = kycRequests[Helpers...\n      DUP1 \t\t\trequest_ = kycRequests[Helpers...\n      DUP4 \t\t\trequest_ = kycRequests[Helpers...\n      SLOAD \t\t\trequest_ = kycRequests[Helpers...\n      DIV \t\t\trequest_ = kycRequests[Helpers...\n      MUL \t\t\trequest_ = kycRequests[Helpers...\n      DUP4 \t\t\trequest_ = kycRequests[Helpers...\n      MSTORE \t\t\trequest_ = kycRequests[Helpers...\n      SWAP2 \t\t\trequest_ = kycRequests[Helpers...\n      PUSH 20\t\t\trequest_ = kycRequests[Helpers...\n      ADD \t\t\trequest_ = kycRequests[Helpers...\n      SWAP2 \t\t\trequest_ = kycRequests[Helpers...\n      PUSH [tag] 246\t\t\trequest_ = kycRequests[Helpers...\n      JUMP \t\t\trequest_ = kycRequests[Helpers...\n    tag 247\t\t\trequest_ = kycRequests[Helpers...\n      JUMPDEST \t\t\trequest_ = kycRequests[Helpers...\n      DUP3 \t\t\trequest_ = kycRequests[Helpers...\n      ADD \t\t\trequest_ = kycRequests[Helpers...\n      SWAP2 \t\t\trequest_ = kycRequests[Helpers...\n      SWAP1 \t\t\trequest_ = kycRequests[Helpers...\n      PUSH 0\t\t\trequest_ = kycRequests[Helpers...\n      MSTORE \t\t\trequest_ = kycRequests[Helpers...\n      PUSH 20\t\t\trequest_ = kycRequests[Helpers...\n      PUSH 0\t\t\trequest_ = kycRequests[Helpers...\n      KECCAK256 \t\t\trequest_ = kycRequests[Helpers...\n      SWAP1 \t\t\trequest_ = kycRequests[Helpers...\n    tag 248\t\t\trequest_ = kycRequests[Helpers...\n      JUMPDEST \t\t\trequest_ = kycRequests[Helpers...\n      DUP2 \t\t\trequest_ = kycRequests[Helpers...\n      SLOAD \t\t\trequest_ = kycRequests[Helpers...\n      DUP2 \t\t\trequest_ = kycRequests[Helpers...\n      MSTORE \t\t\trequest_ = kycRequests[Helpers...\n      SWAP1 \t\t\trequest_ = kycRequests[Helpers...\n      PUSH 1\t\t\trequest_ = kycRequests[Helpers...\n      ADD \t\t\trequest_ = kycRequests[Helpers...\n      SWAP1 \t\t\trequest_ = kycRequests[Helpers...\n      PUSH 20\t\t\trequest_ = kycRequests[Helpers...\n      ADD \t\t\trequest_ = kycRequests[Helpers...\n      DUP1 \t\t\trequest_ = kycRequests[Helpers...\n      DUP4 \t\t\trequest_ = kycRequests[Helpers...\n      GT \t\t\trequest_ = kycRequests[Helpers...\n      PUSH [tag] 248\t\t\trequest_ = kycRequests[Helpers...\n      JUMPI \t\t\trequest_ = kycRequests[Helpers...\n      DUP3 \t\t\trequest_ = kycRequests[Helpers...\n      SWAP1 \t\t\trequest_ = kycRequests[Helpers...\n      SUB \t\t\trequest_ = kycRequests[Helpers...\n      PUSH 1F\t\t\trequest_ = kycRequests[Helpers...\n      AND \t\t\trequest_ = kycRequests[Helpers...\n      DUP3 \t\t\trequest_ = kycRequests[Helpers...\n      ADD \t\t\trequest_ = kycRequests[Helpers...\n      SWAP2 \t\t\trequest_ = kycRequests[Helpers...\n    tag 246\t\t\trequest_ = kycRequests[Helpers...\n      JUMPDEST \t\t\trequest_ = kycRequests[Helpers...\n      POP \t\t\trequest_ = kycRequests[Helpers...\n      POP \t\t\trequest_ = kycRequests[Helpers...\n      POP \t\t\trequest_ = kycRequests[Helpers...\n      POP \t\t\trequest_ = kycRequests[Helpers...\n      POP \t\t\trequest_ = kycRequests[Helpers...\n      DUP2 \t\t\trequest_ = kycRequests[Helpers...\n      MSTORE \t\t\trequest_ = kycRequests[Helpers...\n      PUSH 20\t\t\trequest_ = kycRequests[Helpers...\n      ADD \t\t\trequest_ = kycRequests[Helpers...\n      PUSH 3\t\t\trequest_ = kycRequests[Helpers...\n      DUP3 \t\t\trequest_ = kycRequests[Helpers...\n      ADD \t\t\trequest_ = kycRequests[Helpers...\n      PUSH 0\t\t\trequest_ = kycRequests[Helpers...\n      SWAP1 \t\t\trequest_ = kycRequests[Helpers...\n      SLOAD \t\t\trequest_ = kycRequests[Helpers...\n      SWAP1 \t\t\trequest_ = kycRequests[Helpers...\n      PUSH 100\t\t\trequest_ = kycRequests[Helpers...\n      EXP \t\t\trequest_ = kycRequests[Helpers...\n      SWAP1 \t\t\trequest_ = kycRequests[Helpers...\n      DIV \t\t\trequest_ = kycRequests[Helpers...\n      PUSH FFFFFFFFFFFFFFFFFFFFFFFFFFFFFFFFFFFFFFFF\t\t\trequest_ = kycRequests[Helpers...\n      AND \t\t\trequest_ = kycRequests[Helpers...\n      PUSH FFFFFFFFFFFFFFFFFFFFFFFFFFFFFFFFFFFFFFFF\t\t\trequest_ = kycRequests[Helpers...\n      AND \t\t\trequest_ = kycRequests[Helpers...\n      PUSH FFFFFFFFFFFFFFFFFFFFFFFFFFFFFFFFFFFFFFFF\t\t\trequest_ = kycRequests[Helpers...\n      AND \t\t\trequest_ = kycRequests[Helpers...\n      DUP2 \t\t\trequest_ = kycRequests[Helpers...\n      MSTORE \t\t\trequest_ = kycRequests[Helpers...\n      PUSH 20\t\t\trequest_ = kycRequests[Helpers...\n      ADD \t\t\trequest_ = kycRequests[Helpers...\n      PUSH 4\t\t\trequest_ = kycRequests[Helpers...\n      DUP3 \t\t\trequest_ = kycRequests[Helpers...\n      ADD \t\t\trequest_ = kycRequests[Helpers...\n      DUP1 \t\t\trequest_ = kycRequests[Helpers...\n      SLOAD \t\t\trequest_ = kycRequests[Helpers...\n      PUSH [tag] 249\t\t\trequest_ = kycRequests[Helpers...\n      SWAP1 \t\t\trequest_ = kycRequests[Helpers...\n      PUSH [tag] 113\t\t\trequest_ = kycRequests[Helpers...\n      JUMP \t\t\trequest_ = kycRequests[Helpers...\n    tag 249\t\t\trequest_ = kycRequests[Helpers...\n      JUMPDEST \t\t\trequest_ = kycRequests[Helpers...\n      DUP1 \t\t\trequest_ = kycRequests[Helpers...\n      PUSH 1F\t\t\trequest_ = kycRequests[Helpers...\n      ADD \t\t\trequest_ = kycRequests[Helpers...\n      PUSH 20\t\t\trequest_ = kycRequests[Helpers...\n      DUP1 \t\t\trequest_ = kycRequests[Helpers...\n      SWAP2 \t\t\trequest_ = kycRequests[Helpers...\n      DIV \t\t\trequest_ = kycRequests[Helpers...\n      MUL \t\t\trequest_ = kycRequests[Helpers...\n      PUSH 20\t\t\trequest_ = kycRequests[Helpers...\n      ADD \t\t\trequest_ = kycRequests[Helpers...\n      PUSH 40\t\t\trequest_ = kycRequests[Helpers...\n      MLOAD \t\t\trequest_ = kycRequests[Helpers...\n      SWAP1 \t\t\trequest_ = kycRequests[Helpers...\n      DUP2 \t\t\trequest_ = kycRequests[Helpers...\n      ADD \t\t\trequest_ = kycRequests[Helpers...\n      PUSH 40\t\t\trequest_ = kycRequests[Helpers...\n      MSTORE \t\t\trequest_ = kycRequests[Helpers...\n      DUP1 \t\t\trequest_ = kycRequests[Helpers...\n      SWAP3 \t\t\trequest_ = kycRequests[Helpers...\n      SWAP2 \t\t\trequest_ = kycRequests[Helpers...\n      SWAP1 \t\t\trequest_ = kycRequests[Helpers...\n      DUP2 \t\t\trequest_ = kycRequests[Helpers...\n      DUP2 \t\t\trequest_ = kycRequests[Helpers...\n      MSTORE \t\t\trequest_ = kycRequests[Helpers...\n      PUSH 20\t\t\trequest_ = kycRequests[Helpers...\n      ADD \t\t\trequest_ = kycRequests[Helpers...\n      DUP3 \t\t\trequest_ = kycRequests[Helpers...\n      DUP1 \t\t\trequest_ = kycRequests[Helpers...\n      SLOAD \t\t\trequest_ = kycRequests[Helpers...\n      PUSH [tag] 250\t\t\trequest_ = kycRequests[Helpers...\n      SWAP1 \t\t\trequest_ = kycRequests[Helpers...\n      PUSH [tag] 113\t\t\trequest_ = kycRequests[Helpers...\n      JUMP \t\t\trequest_ = kycRequests[Helpers...\n    tag 250\t\t\trequest_ = kycRequests[Helpers...\n      JUMPDEST \t\t\trequest_ = kycRequests[Helpers...\n      DUP1 \t\t\trequest_ = kycRequests[Helpers...\n      ISZERO \t\t\trequest_ = kycRequests[Helpers...\n      PUSH [tag] 251\t\t\trequest_ = kycRequests[Helpers...\n      JUMPI \t\t\trequest_ = kycRequests[Helpers...\n      DUP1 \t\t\trequest_ = kycRequests[Helpers...\n      PUSH 1F\t\t\trequest_ = kycRequests[Helpers...\n      LT \t\t\trequest_ = kycRequests[Helpers...\n      PUSH [tag] 252\t\t\trequest_ = kycRequests[Helpers...\n      JUMPI \t\t\trequest_ = kycRequests[Helpers...\n      PUSH 100\t\t\trequest_ = kycRequests[Helpers...\n      DUP1 \t\t\trequest_ = kycRequests[Helpers...\n      DUP4 \t\t\trequest_ = kycRequests[Helpers...\n      SLOAD \t\t\trequest_ = kycRequests[Helpers...\n      DIV \t\t\trequest_ = kycRequests[Helpers...\n      MUL \t\t\trequest_ = kycRequests[Helpers...\n      DUP4 \t\t\trequest_ = kycRequests[Helpers...\n      MSTORE \t\t\trequest_ = kycRequests[Helpers...\n      SWAP2 \t\t\trequest_ = kycRequests[Helpers...\n      PUSH 20\t\t\trequest_ = kycRequests[Helpers...\n      ADD \t\t\trequest_ = kycRequests[Helpers...\n      SWAP2 \t\t\trequest_ = kycRequests[Helpers...\n      PUSH [tag] 251\t\t\trequest_ = kycRequests[Helpers...\n      JUMP \t\t\trequest_ = kycRequests[Helpers...\n    tag 252\t\t\trequest_ = kycRequests[Helpers...\n      JUMPDEST \t\t\trequest_ = kycRequests[Helpers...\n      DUP3 \t\t\trequest_ = kycRequests[Helpers...\n      ADD \t\t\trequest_ = kycRequests[Helpers...\n      SWAP2 \t\t\trequest_ = kycRequests[Helpers...\n      SWAP1 \t\t\trequest_ = kycRequests[Helpers...\n      PUSH 0\t\t\trequest_ = kycRequests[Helpers...\n      MSTORE \t\t\trequest_ = kycRequests[Helpers...\n      PUSH 20\t\t\trequest_ = kycRequests[Helpers...\n      PUSH 0\t\t\trequest_ = kycRequests[Helpers...\n      KECCAK256 \t\t\trequest_ = kycRequests[Helpers...\n      SWAP1 \t\t\trequest_ = kycRequests[Helpers...\n    tag 253\t\t\trequest_ = kycRequests[Helpers...\n      JUMPDEST \t\t\trequest_ = kycRequests[Helpers...\n      DUP2 \t\t\trequest_ = kycRequests[Helpers...\n      SLOAD \t\t\trequest_ = kycRequests[Helpers...\n      DUP2 \t\t\trequest_ = kycRequests[Helpers...\n      MSTORE \t\t\trequest_ = kycRequests[Helpers...\n      SWAP1 \t\t\trequest_ = kycRequests[Helpers...\n      PUSH 1\t\t\trequest_ = kycRequests[Helpers...\n      ADD \t\t\trequest_ = kycRequests[Helpers...\n      SWAP1 \t\t\trequest_ = kycRequests[Helpers...\n      PUSH 20\t\t\trequest_ = kycRequests[Helpers...\n      ADD \t\t\trequest_ = kycRequests[Helpers...\n      DUP1 \t\t\trequest_ = kycRequests[Helpers...\n      DUP4 \t\t\trequest_ = kycRequests[Helpers...\n      GT \t\t\trequest_ = kycRequests[Helpers...\n      PUSH [tag] 253\t\t\trequest_ = kycRequests[Helpers...\n      JUMPI \t\t\trequest_ = kycRequests[Helpers...\n      DUP3 \t\t\trequest_ = kycRequests[Helpers...\n      SWAP1 \t\t\trequest_ = kycRequests[Helpers...\n      SUB \t\t\trequest_ = kycRequests[Helpers...\n      PUSH 1F\t\t\trequest_ = kycRequests[Helpers...\n      AND \t\t\trequest_ = kycRequests[Helpers...\n      DUP3 \t\t\trequest_ = kycRequests[Helpers...\n      ADD \t\t\trequest_ = kycRequests[Helpers...\n      SWAP2 \t\t\trequest_ = kycRequests[Helpers...\n    tag 251\t\t\trequest_ = kycRequests[Helpers...\n      JUMPDEST \t\t\trequest_ = kycRequests[Helpers...\n      POP \t\t\trequest_ = kycRequests[Helpers...\n      POP \t\t\trequest_ = kycRequests[Helpers...\n      POP \t\t\trequest_ = kycRequests[Helpers...\n      POP \t\t\trequest_ = kycRequests[Helpers...\n      POP \t\t\trequest_ = kycRequests[Helpers...\n      DUP2 \t\t\trequest_ = kycRequests[Helpers...\n      MSTORE \t\t\trequest_ = kycRequests[Helpers...\n      PUSH 20\t\t\trequest_ = kycRequests[Helpers...\n      ADD \t\t\trequest_ = kycRequests[Helpers...\n      PUSH 5\t\t\trequest_ = kycRequests[Helpers...\n      DUP3 \t\t\trequest_ = kycRequests[Helpers...\n      ADD \t\t\trequest_ = kycRequests[Helpers...\n      DUP1 \t\t\trequest_ = kycRequests[Helpers...\n      SLOAD \t\t\trequest_ = kycRequests[Helpers...\n      PUSH [tag] 254\t\t\trequest_ = kycRequests[Helpers...\n      SWAP1 \t\t\trequest_ = kycRequests[Helpers...\n      PUSH [tag] 113\t\t\trequest_ = kycRequests[Helpers...\n      JUMP \t\t\trequest_ = kycRequests[Helpers...\n    tag 254\t\t\trequest_ = kycRequests[Helpers...\n      JUMPDEST \t\t\trequest_ = kycRequests[Helpers...\n      DUP1 \t\t\trequest_ = kycRequests[Helpers...\n      PUSH 1F\t\t\trequest_ = kycRequests[Helpers...\n      ADD \t\t\trequest_ = kycRequests[Helpers...\n      PUSH 20\t\t\trequest_ = kycRequests[Helpers...\n      DUP1 \t\t\trequest_ = kycRequests[Helpers...\n      SWAP2 \t\t\trequest_ = kycRequests[Helpers...\n      DIV \t\t\trequest_ = kycRequests[Helpers...\n      MUL \t\t\trequest_ = kycRequests[Helpers...\n      PUSH 20\t\t\trequest_ = kycRequests[Helpers...\n      ADD \t\t\trequest_ = kycRequests[Helpers...\n      PUSH 40\t\t\trequest_ = kycRequests[Helpers...\n      MLOAD \t\t\trequest_ = kycRequests[Helpers...\n      SWAP1 \t\t\trequest_ = kycRequests[Helpers...\n      DUP2 \t\t\trequest_ = kycRequests[Helpers...\n      ADD \t\t\trequest_ = kycRequests[Helpers...\n      PUSH 40\t\t\trequest_ = kycRequests[Helpers...\n      MSTORE \t\t\trequest_ = kycRequests[Helpers...\n      DUP1 \t\t\trequest_ = kycRequests[Helpers...\n      SWAP3 \t\t\trequest_ = kycRequests[Helpers...\n      SWAP2 \t\t\trequest_ = kycRequests[Helpers...\n      SWAP1 \t\t\trequest_ = kycRequests[Helpers...\n      DUP2 \t\t\trequest_ = kycRequests[Helpers...\n      DUP2 \t\t\trequest_ = kycRequests[Helpers...\n      MSTORE \t\t\trequest_ = kycRequests[Helpers...\n      PUSH 20\t\t\trequest_ = kycRequests[Helpers...\n      ADD \t\t\trequest_ = kycRequests[Helpers...\n      DUP3 \t\t\trequest_ = kycRequests[Helpers...\n      DUP1 \t\t\trequest_ = kycRequests[Helpers...\n      SLOAD \t\t\trequest_ = kycRequests[Helpers...\n      PUSH [tag] 255\t\t\trequest_ = kycRequests[Helpers...\n      SWAP1 \t\t\trequest_ = kycRequests[Helpers...\n      PUSH [tag] 113\t\t\trequest_ = kycRequests[Helpers...\n      JUMP \t\t\trequest_ = kycRequests[Helpers...\n    tag 255\t\t\trequest_ = kycRequests[Helpers...\n      JUMPDEST \t\t\trequest_ = kycRequests[Helpers...\n      DUP1 \t\t\trequest_ = kycRequests[Helpers...\n      ISZERO \t\t\trequest_ = kycRequests[Helpers...\n      PUSH [tag] 256\t\t\trequest_ = kycRequests[Helpers...\n      JUMPI \t\t\trequest_ = kycRequests[Helpers...\n      DUP1 \t\t\trequest_ = kycRequests[Helpers...\n      PUSH 1F\t\t\trequest_ = kycRequests[Helpers...\n      LT \t\t\trequest_ = kycRequests[Helpers...\n      PUSH [tag] 257\t\t\trequest_ = kycRequests[Helpers...\n      JUMPI \t\t\trequest_ = kycRequests[Helpers...\n      PUSH 100\t\t\trequest_ = kycRequests[Helpers...\n      DUP1 \t\t\trequest_ = kycRequests[Helpers...\n      DUP4 \t\t\trequest_ = kycRequests[Helpers...\n      SLOAD \t\t\trequest_ = kycRequests[Helpers...\n      DIV \t\t\trequest_ = kycRequests[Helpers...\n      MUL \t\t\trequest_ = kycRequests[Helpers...\n      DUP4 \t\t\trequest_ = kycRequests[Helpers...\n      MSTORE \t\t\trequest_ = kycRequests[Helpers...\n      SWAP2 \t\t\trequest_ = kycRequests[Helpers...\n      PUSH 20\t\t\trequest_ = kycRequests[Helpers...\n      ADD \t\t\trequest_ = kycRequests[Helpers...\n      SWAP2 \t\t\trequest_ = kycRequests[Helpers...\n      PUSH [tag] 256\t\t\trequest_ = kycRequests[Helpers...\n      JUMP \t\t\trequest_ = kycRequests[Helpers...\n    tag 257\t\t\trequest_ = kycRequests[Helpers...\n      JUMPDEST \t\t\trequest_ = kycRequests[Helpers...\n      DUP3 \t\t\trequest_ = kycRequests[Helpers...\n      ADD \t\t\trequest_ = kycRequests[Helpers...\n      SWAP2 \t\t\trequest_ = kycRequests[Helpers...\n      SWAP1 \t\t\trequest_ = kycRequests[Helpers...\n      PUSH 0\t\t\trequest_ = kycRequests[Helpers...\n      MSTORE \t\t\trequest_ = kycRequests[Helpers...\n      PUSH 20\t\t\trequest_ = kycRequests[Helpers...\n      PUSH 0\t\t\trequest_ = kycRequests[Helpers...\n      KECCAK256 \t\t\trequest_ = kycRequests[Helpers...\n      SWAP1 \t\t\trequest_ = kycRequests[Helpers...\n    tag 258\t\t\trequest_ = kycRequests[Helpers...\n      JUMPDEST \t\t\trequest_ = kycRequests[Helpers...\n      DUP2 \t\t\trequest_ = kycRequests[Helpers...\n      SLOAD \t\t\trequest_ = kycRequests[Helpers...\n      DUP2 \t\t\trequest_ = kycRequests[Helpers...\n      MSTORE \t\t\trequest_ = kycRequests[Helpers...\n      SWAP1 \t\t\trequest_ = kycRequests[Helpers...\n      PUSH 1\t\t\trequest_ = kycRequests[Helpers...\n      ADD \t\t\trequest_ = kycRequests[Helpers...\n      SWAP1 \t\t\trequest_ = kycRequests[Helpers...\n      PUSH 20\t\t\trequest_ = kycRequests[Helpers...\n      ADD \t\t\trequest_ = kycRequests[Helpers...\n      DUP1 \t\t\trequest_ = kycRequests[Helpers...\n      DUP4 \t\t\trequest_ = kycRequests[Helpers...\n      GT \t\t\trequest_ = kycRequests[Helpers...\n      PUSH [tag] 258\t\t\trequest_ = kycRequests[Helpers...\n      JUMPI \t\t\trequest_ = kycRequests[Helpers...\n      DUP3 \t\t\trequest_ = kycRequests[Helpers...\n      SWAP1 \t\t\trequest_ = kycRequests[Helpers...\n      SUB \t\t\trequest_ = kycRequests[Helpers...\n      PUSH 1F\t\t\trequest_ = kycRequests[Helpers...\n      AND \t\t\trequest_ = kycRequests[Helpers...\n      DUP3 \t\t\trequest_ = kycRequests[Helpers...\n      ADD \t\t\trequest_ = kycRequests[Helpers...\n      SWAP2 \t\t\trequest_ = kycRequests[Helpers...\n    tag 256\t\t\trequest_ = kycRequests[Helpers...\n      JUMPDEST \t\t\trequest_ = kycRequests[Helpers...\n      POP \t\t\trequest_ = kycRequests[Helpers...\n      POP \t\t\trequest_ = kycRequests[Helpers...\n      POP \t\t\trequest_ = kycRequests[Helpers...\n      POP \t\t\trequest_ = kycRequests[Helpers...\n      POP \t\t\trequest_ = kycRequests[Helpers...\n      DUP2 \t\t\trequest_ = kycRequests[Helpers...\n      MSTORE \t\t\trequest_ = kycRequests[Helpers...\n      PUSH 20\t\t\trequest_ = kycRequests[Helpers...\n      ADD \t\t\trequest_ = kycRequests[Helpers...\n      PUSH 6\t\t\trequest_ = kycRequests[Helpers...\n      DUP3 \t\t\trequest_ = kycRequests[Helpers...\n      ADD \t\t\trequest_ = kycRequests[Helpers...\n      SLOAD \t\t\trequest_ = kycRequests[Helpers...\n      DUP2 \t\t\trequest_ = kycRequests[Helpers...\n      MSTORE \t\t\trequest_ = kycRequests[Helpers...\n      PUSH 20\t\t\trequest_ = kycRequests[Helpers...\n      ADD \t\t\trequest_ = kycRequests[Helpers...\n      PUSH 7\t\t\trequest_ = kycRequests[Helpers...\n      DUP3 \t\t\trequest_ = kycRequests[Helpers...\n      ADD \t\t\trequest_ = kycRequests[Helpers...\n      PUSH 0\t\t\trequest_ = kycRequests[Helpers...\n      SWAP1 \t\t\trequest_ = kycRequests[Helpers...\n      SLOAD \t\t\trequest_ = kycRequests[Helpers...\n      SWAP1 \t\t\trequest_ = kycRequests[Helpers...\n      PUSH 100\t\t\trequest_ = kycRequests[Helpers...\n      EXP \t\t\trequest_ = kycRequests[Helpers...\n      SWAP1 \t\t\trequest_ = kycRequests[Helpers...\n      DIV \t\t\trequest_ = kycRequests[Helpers...\n      PUSH FF\t\t\trequest_ = kycRequests[Helpers...\n      AND \t\t\trequest_ = kycRequests[Helpers...\n      PUSH 2\t\t\trequest_ = kycRequests[Helpers...\n      DUP2 \t\t\trequest_ = kycRequests[Helpers...\n      GT \t\t\trequest_ = kycRequests[Helpers...\n      ISZERO \t\t\trequest_ = kycRequests[Helpers...\n      PUSH [tag] 259\t\t\trequest_ = kycRequests[Helpers...\n      JUMPI \t\t\trequest_ = kycRequests[Helpers...\n      PUSH [tag] 260\t\t\trequest_ = kycRequests[Helpers...\n      PUSH [tag] 135\t\t\trequest_ = kycRequests[Helpers...\n      JUMP \t\t\trequest_ = kycRequests[Helpers...\n    tag 260\t\t\trequest_ = kycRequests[Helpers...\n      JUMPDEST \t\t\trequest_ = kycRequests[Helpers...\n    tag 259\t\t\trequest_ = kycRequests[Helpers...\n      JUMPDEST \t\t\trequest_ = kycRequests[Helpers...\n      PUSH 2\t\t\trequest_ = kycRequests[Helpers...\n      DUP2 \t\t\trequest_ = kycRequests[Helpers...\n      GT \t\t\trequest_ = kycRequests[Helpers...\n      ISZERO \t\t\trequest_ = kycRequests[Helpers...\n      PUSH [tag] 261\t\t\trequest_ = kycRequests[Helpers...\n      JUMPI \t\t\trequest_ = kycRequests[Helpers...\n      PUSH [tag] 262\t\t\trequest_ = kycRequests[Helpers...\n      PUSH [tag] 135\t\t\trequest_ = kycRequests[Helpers...\n      JUMP \t\t\trequest_ = kycRequests[Helpers...\n    tag 262\t\t\trequest_ = kycRequests[Helpers...\n      JUMPDEST \t\t\trequest_ = kycRequests[Helpers...\n    tag 261\t\t\trequest_ = kycRequests[Helpers...\n      JUMPDEST \t\t\trequest_ = kycRequests[Helpers...\n      DUP2 \t\t\trequest_ = kycRequests[Helpers...\n      MSTORE \t\t\trequest_ = kycRequests[Helpers...\n      PUSH 20\t\t\trequest_ = kycRequests[Helpers...\n      ADD \t\t\trequest_ = kycRequests[Helpers...\n      PUSH 7\t\t\trequest_ = kycRequests[Helpers...\n      DUP3 \t\t\trequest_ = kycRequests[Helpers...\n      ADD \t\t\trequest_ = kycRequests[Helpers...\n      PUSH 1\t\t\trequest_ = kycRequests[Helpers...\n      SWAP1 \t\t\trequest_ = kycRequests[Helpers...\n      SLOAD \t\t\trequest_ = kycRequests[Helpers...\n      SWAP1 \t\t\trequest_ = kycRequests[Helpers...\n      PUSH 100\t\t\trequest_ = kycRequests[Helpers...\n      EXP \t\t\trequest_ = kycRequests[Helpers...\n      SWAP1 \t\t\trequest_ = kycRequests[Helpers...\n      DIV \t\t\trequest_ = kycRequests[Helpers...\n      PUSH FF\t\t\trequest_ = kycRequests[Helpers...\n      AND \t\t\trequest_ = kycRequests[Helpers...\n      PUSH 2\t\t\trequest_ = kycRequests[Helpers...\n      DUP2 \t\t\trequest_ = kycRequests[Helpers...\n      GT \t\t\trequest_ = kycRequests[Helpers...\n      ISZERO \t\t\trequest_ = kycRequests[Helpers...\n      PUSH [tag] 263\t\t\trequest_ = kycRequests[Helpers...\n      JUMPI \t\t\trequest_ = kycRequests[Helpers...\n      PUSH [tag] 264\t\t\trequest_ = kycRequests[Helpers...\n      PUSH [tag] 135\t\t\trequest_ = kycRequests[Helpers...\n      JUMP \t\t\trequest_ = kycRequests[Helpers...\n    tag 264\t\t\trequest_ = kycRequests[Helpers...\n      JUMPDEST \t\t\trequest_ = kycRequests[Helpers...\n    tag 263\t\t\trequest_ = kycRequests[Helpers...\n      JUMPDEST \t\t\trequest_ = kycRequests[Helpers...\n      PUSH 2\t\t\trequest_ = kycRequests[Helpers...\n      DUP2 \t\t\trequest_ = kycRequests[Helpers...\n      GT \t\t\trequest_ = kycRequests[Helpers...\n      ISZERO \t\t\trequest_ = kycRequests[Helpers...\n      PUSH [tag] 265\t\t\trequest_ = kycRequests[Helpers...\n      JUMPI \t\t\trequest_ = kycRequests[Helpers...\n      PUSH [tag] 266\t\t\trequest_ = kycRequests[Helpers...\n      PUSH [tag] 135\t\t\trequest_ = kycRequests[Helpers...\n      JUMP \t\t\trequest_ = kycRequests[Helpers...\n    tag 266\t\t\trequest_ = kycRequests[Helpers...\n      JUMPDEST \t\t\trequest_ = kycRequests[Helpers...\n    tag 265\t\t\trequest_ = kycRequests[Helpers...\n      JUMPDEST \t\t\trequest_ = kycRequests[Helpers...\n      DUP2 \t\t\trequest_ = kycRequests[Helpers...\n      MSTORE \t\t\trequest_ = kycRequests[Helpers...\n      PUSH 20\t\t\trequest_ = kycRequests[Helpers...\n      ADD \t\t\trequest_ = kycRequests[Helpers...\n      PUSH 8\t\t\trequest_ = kycRequests[Helpers...\n      DUP3 \t\t\trequest_ = kycRequests[Helpers...\n      ADD \t\t\trequest_ = kycRequests[Helpers...\n      DUP1 \t\t\trequest_ = kycRequests[Helpers...\n      SLOAD \t\t\trequest_ = kycRequests[Helpers...\n      PUSH [tag] 267\t\t\trequest_ = kycRequests[Helpers...\n      SWAP1 \t\t\trequest_ = kycRequests[Helpers...\n      PUSH [tag] 113\t\t\trequest_ = kycRequests[Helpers...\n      JUMP \t\t\trequest_ = kycRequests[Helpers...\n    tag 267\t\t\trequest_ = kycRequests[Helpers...\n      JUMPDEST \t\t\trequest_ = kycRequests[Helpers...\n      DUP1 \t\t\trequest_ = kycRequests[Helpers...\n      PUSH 1F\t\t\trequest_ = kycRequests[Helpers...\n      ADD \t\t\trequest_ = kycRequests[Helpers...\n      PUSH 20\t\t\trequest_ = kycRequests[Helpers...\n      DUP1 \t\t\trequest_ = kycRequests[Helpers...\n      SWAP2 \t\t\trequest_ = kycRequests[Helpers...\n      DIV \t\t\trequest_ = kycRequests[Helpers...\n      MUL \t\t\trequest_ = kycRequests[Helpers...\n      PUSH 20\t\t\trequest_ = kycRequests[Helpers...\n      ADD \t\t\trequest_ = kycRequests[Helpers...\n      PUSH 40\t\t\trequest_ = kycRequests[Helpers...\n      MLOAD \t\t\trequest_ = kycRequests[Helpers...\n      SWAP1 \t\t\trequest_ = kycRequests[Helpers...\n      DUP2 \t\t\trequest_ = kycRequests[Helpers...\n      ADD \t\t\trequest_ = kycRequests[Helpers...\n      PUSH 40\t\t\trequest_ = kycRequests[Helpers...\n      MSTORE \t\t\trequest_ = kycRequests[Helpers...\n      DUP1 \t\t\trequest_ = kycRequests[Helpers...\n      SWAP3 \t\t\trequest_ = kycRequests[Helpers...\n      SWAP2 \t\t\trequest_ = kycRequests[Helpers...\n      SWAP1 \t\t\trequest_ = kycRequests[Helpers...\n      DUP2 \t\t\trequest_ = kycRequests[Helpers...\n      DUP2 \t\t\trequest_ = kycRequests[Helpers...\n      MSTORE \t\t\trequest_ = kycRequests[Helpers...\n      PUSH 20\t\t\trequest_ = kycRequests[Helpers...\n      ADD \t\t\trequest_ = kycRequests[Helpers...\n      DUP3 \t\t\trequest_ = kycRequests[Helpers...\n      DUP1 \t\t\trequest_ = kycRequests[Helpers...\n      SLOAD \t\t\trequest_ = kycRequests[Helpers...\n      PUSH [tag] 268\t\t\trequest_ = kycRequests[Helpers...\n      SWAP1 \t\t\trequest_ = kycRequests[Helpers...\n      PUSH [tag] 113\t\t\trequest_ = kycRequests[Helpers...\n      JUMP \t\t\trequest_ = kycRequests[Helpers...\n    tag 268\t\t\trequest_ = kycRequests[Helpers...\n      JUMPDEST \t\t\trequest_ = kycRequests[Helpers...\n      DUP1 \t\t\trequest_ = kycRequests[Helpers...\n      ISZERO \t\t\trequest_ = kycRequests[Helpers...\n      PUSH [tag] 269\t\t\trequest_ = kycRequests[Helpers...\n      JUMPI \t\t\trequest_ = kycRequests[Helpers...\n      DUP1 \t\t\trequest_ = kycRequests[Helpers...\n      PUSH 1F\t\t\trequest_ = kycRequests[Helpers...\n      LT \t\t\trequest_ = kycRequests[Helpers...\n      PUSH [tag] 270\t\t\trequest_ = kycRequests[Helpers...\n      JUMPI \t\t\trequest_ = kycRequests[Helpers...\n      PUSH 100\t\t\trequest_ = kycRequests[Helpers...\n      DUP1 \t\t\trequest_ = kycRequests[Helpers...\n      DUP4 \t\t\trequest_ = kycRequests[Helpers...\n      SLOAD \t\t\trequest_ = kycRequests[Helpers...\n      DIV \t\t\trequest_ = kycRequests[Helpers...\n      MUL \t\t\trequest_ = kycRequests[Helpers...\n      DUP4 \t\t\trequest_ = kycRequests[Helpers...\n      MSTORE \t\t\trequest_ = kycRequests[Helpers...\n      SWAP2 \t\t\trequest_ = kycRequests[Helpers...\n      PUSH 20\t\t\trequest_ = kycRequests[Helpers...\n      ADD \t\t\trequest_ = kycRequests[Helpers...\n      SWAP2 \t\t\trequest_ = kycRequests[Helpers...\n      PUSH [tag] 269\t\t\trequest_ = kycRequests[Helpers...\n      JUMP \t\t\trequest_ = kycRequests[Helpers...\n    tag 270\t\t\trequest_ = kycRequests[Helpers...\n      JUMPDEST \t\t\trequest_ = kycRequests[Helpers...\n      DUP3 \t\t\trequest_ = kycRequests[Helpers...\n      ADD \t\t\trequest_ = kycRequests[Helpers...\n      SWAP2 \t\t\trequest_ = kycRequests[Helpers...\n      SWAP1 \t\t\trequest_ = kycRequests[Helpers...\n      PUSH 0\t\t\trequest_ = kycRequests[Helpers...\n      MSTORE \t\t\trequest_ = kycRequests[Helpers...\n      PUSH 20\t\t\trequest_ = kycRequests[Helpers...\n      PUSH 0\t\t\trequest_ = kycRequests[Helpers...\n      KECCAK256 \t\t\trequest_ = kycRequests[Helpers...\n      SWAP1 \t\t\trequest_ = kycRequests[Helpers...\n    tag 271\t\t\trequest_ = kycRequests[Helpers...\n      JUMPDEST \t\t\trequest_ = kycRequests[Helpers...\n      DUP2 \t\t\trequest_ = kycRequests[Helpers...\n      SLOAD \t\t\trequest_ = kycRequests[Helpers...\n      DUP2 \t\t\trequest_ = kycRequests[Helpers...\n      MSTORE \t\t\trequest_ = kycRequests[Helpers...\n      SWAP1 \t\t\trequest_ = kycRequests[Helpers...\n      PUSH 1\t\t\trequest_ = kycRequests[Helpers...\n      ADD \t\t\trequest_ = kycRequests[Helpers...\n      SWAP1 \t\t\trequest_ = kycRequests[Helpers...\n      PUSH 20\t\t\trequest_ = kycRequests[Helpers...\n      ADD \t\t\trequest_ = kycRequests[Helpers...\n      DUP1 \t\t\trequest_ = kycRequests[Helpers...\n      DUP4 \t\t\trequest_ = kycRequests[Helpers...\n      GT \t\t\trequest_ = kycRequests[Helpers...\n      PUSH [tag] 271\t\t\trequest_ = kycRequests[Helpers...\n      JUMPI \t\t\trequest_ = kycRequests[Helpers...\n      DUP3 \t\t\trequest_ = kycRequests[Helpers...\n      SWAP1 \t\t\trequest_ = kycRequests[Helpers...\n      SUB \t\t\trequest_ = kycRequests[Helpers...\n      PUSH 1F\t\t\trequest_ = kycRequests[Helpers...\n      AND \t\t\trequest_ = kycRequests[Helpers...\n      DUP3 \t\t\trequest_ = kycRequests[Helpers...\n      ADD \t\t\trequest_ = kycRequests[Helpers...\n      SWAP2 \t\t\trequest_ = kycRequests[Helpers...\n    tag 269\t\t\trequest_ = kycRequests[Helpers...\n      JUMPDEST \t\t\trequest_ = kycRequests[Helpers...\n      POP \t\t\trequest_ = kycRequests[Helpers...\n      POP \t\t\trequest_ = kycRequests[Helpers...\n      POP \t\t\trequest_ = kycRequests[Helpers...\n      POP \t\t\trequest_ = kycRequests[Helpers...\n      POP \t\t\trequest_ = kycRequests[Helpers...\n      DUP2 \t\t\trequest_ = kycRequests[Helpers...\n      MSTORE \t\t\trequest_ = kycRequests[Helpers...\n      POP \t\t\trequest_ = kycRequests[Helpers...\n      POP \t\t\trequest_ = kycRequests[Helpers...\n      SWAP3 \t\t\trequest_ = kycRequests[Helpers...\n      POP \t\t\trequest_ = kycRequests[Helpers...\n      PUSH [tag] 230\t\t\tbreak\n      JUMP \t\t\tbreak\n    tag 235\t\t\tif (banks_[i] == bankId_) {\\r\\...\n      JUMPDEST \t\t\tif (banks_[i] == bankId_) {\\r\\...\n      DUP1 \t\t\ti++\n      DUP1 \t\t\ti++\n      PUSH [tag] 272\t\t\ti++\n      SWAP1 \t\t\ti++\n      PUSH [tag] 273\t\t\ti++\n      JUMP \t\t\ti++\n    tag 272\t\t\ti++\n      JUMPDEST \t\t\ti++\n      SWAP2 \t\t\ti++\n      POP \t\t\ti++\n      POP \t\t\ti++\n      PUSH [tag] 229\t\t\tfor (uint256 i = 0; i < banks_...\n      JUMP \t\t\tfor (uint256 i = 0; i < banks_...\n    tag 230\t\t\tfor (uint256 i = 0; i < banks_...\n      JUMPDEST \t\t\tfor (uint256 i = 0; i < banks_...\n      POP \t\t\tfor (uint256 i = 0; i < banks_...\n      DUP4 \t\t\tfound_\n      DUP4 \t\t\tbank_\n      DUP4 \t\t\trequest_\n      SWAP9 \t\t\treturn (found_, bank_, request...\n      POP \t\t\treturn (found_, bank_, request...\n      SWAP9 \t\t\treturn (found_, bank_, request...\n      POP \t\t\treturn (found_, bank_, request...\n      SWAP9 \t\t\treturn (found_, bank_, request...\n      POP \t\t\treturn (found_, bank_, request...\n      POP \t\t\treturn (found_, bank_, request...\n      POP \t\t\treturn (found_, bank_, request...\n      POP \t\t\treturn (found_, bank_, request...\n      POP \t\t\treturn (found_, bank_, request...\n      POP \t\t\t\\n\n      POP \t\t\tfunction searchBanks(address b...\n      SWAP2 \t\t\tfunction searchBanks(address b...\n      SWAP4 \t\t\tfunction searchBanks(address b...\n      SWAP1 \t\t\tfunction searchBanks(address b...\n      SWAP3 \t\t\tfunction searchBanks(address b...\n      POP \t\t\tfunction searchBanks(address b...\n      JUMP \t\t\tfunction searchBanks(address b...\n    tag 51\t\t\tfunction actionOnKycRequest(\\r...\n      JUMPDEST \t\t\tfunction actionOnKycRequest(\\r...\n      CALLER \t\t\tmsg.sender\n      PUSH 0\t\t\tr\n      PUSH FFFFFFFFFFFFFFFFFFFFFFFFFFFFFFFFFFFFFFFF\t\t\t_;\\r\\n        userL\n      AND \t\t\t_;\\r\\n        userL\n      DUP2 \t\t\t_;\\r\n      PUSH FFFFFFFFFFFFFFFFFFFFFFFFFFFFFFFFFFFFFFFF\t\t\t_;\\r\\n        userL\n      AND \t\t\t_;\\r\\n        userL\n      SUB \t\t\t_;\\r\\n        userL\n      PUSH [tag] 275\t\t\tn] = usr_;\\r\\n        userList...\n      JUMPI \t\t\tn] = usr_;\\r\\n        userList...\n      PUSH 40\t\t\tn] = usr_;\\r\\n        userList...\n      MLOAD \t\t\tn] = usr_;\\r\\n        userList...\n      PUSH 8C379A000000000000000000000000000000000000000000000000000000000\t\t\tn] = usr_;\\r\\n        userList...\n      DUP2 \t\t\tn] = usr_;\\r\\n        userList...\n      MSTORE \t\t\tn] = usr_;\\r\\n        userList...\n      PUSH 4\t\t\tn] = usr_;\\r\\n        userList...\n      ADD \t\t\tn] = usr_;\\r\\n        userList...\n      PUSH [tag] 276\t\t\tn] = usr_;\\r\\n        userList...\n      SWAP1 \t\t\tn] = usr_;\\r\\n        userList...\n      PUSH [tag] 107\t\t\tn] = usr_;\\r\\n        userList...\n      JUMP \t\t\tn] = usr_;\\r\\n        userList...\n    tag 276\t\t\tn] = usr_;\\r\\n        userList...\n      JUMPDEST \t\t\tn] = usr_;\\r\\n        userList...\n      PUSH 40\t\t\tn] = usr_;\\r\\n        userList...\n      MLOAD \t\t\tn] = usr_;\\r\\n        userList...\n      DUP1 \t\t\tn] = usr_;\\r\\n        userList...\n      SWAP2 \t\t\tn] = usr_;\\r\\n        userList...\n      SUB \t\t\tn] = usr_;\\r\\n        userList...\n      SWAP1 \t\t\tn] = usr_;\\r\\n        userList...\n      REVERT \t\t\tn] = usr_;\\r\\n        userList...\n    tag 275\t\t\tn] = usr_;\\r\\n        userList...\n      JUMPDEST \t\t\tn] = usr_;\\r\\n        userList...\n      PUSH 0\t\t\ti\n      PUSH FFFFFFFFFFFFFFFFFFFFFFFFFFFFFFFFFFFFFFFF\t\t\tfier isAdmin() {\\r\\n        re...\n      AND \t\t\tfier isAdmin() {\\r\\n        re...\n      PUSH 1\t\t\tfier isAd\n      PUSH 0\t\t\tfier isAdmin()\n      DUP4 \t\t\tin(\n      PUSH FFFFFFFFFFFFFFFFFFFFFFFFFFFFFFFFFFFFFFFF\t\t\tfier isAdmin()\n      AND \t\t\tfier isAdmin()\n      PUSH FFFFFFFFFFFFFFFFFFFFFFFFFFFFFFFFFFFFFFFF\t\t\tfier isAdmin()\n      AND \t\t\tfier isAdmin()\n      DUP2 \t\t\tfier isAdmin()\n      MSTORE \t\t\tfier isAdmin()\n      PUSH 20\t\t\tfier isAdmin()\n      ADD \t\t\tfier isAdmin()\n      SWAP1 \t\t\tfier isAdmin()\n      DUP2 \t\t\tfier isAdmin()\n      MSTORE \t\t\tfier isAdmin()\n      PUSH 20\t\t\tfier isAdmin()\n      ADD \t\t\tfier isAdmin()\n      PUSH 0\t\t\tfier isAdmin()\n      KECCAK256 \t\t\tfier isAdmin()\n      PUSH 3\t\t\tfier isAdmin() {\\r\\n\n      ADD \t\t\tfier isAdmin() {\\r\\n\n      PUSH 0\t\t\tfier isAdmin() {\\r\\n\n      SWAP1 \t\t\tfier isAdmin() {\\r\\n\n      SLOAD \t\t\tfier isAdmin() {\\r\\n\n      SWAP1 \t\t\tfier isAdmin() {\\r\\n\n      PUSH 100\t\t\tfier isAdmin() {\\r\\n\n      EXP \t\t\tfier isAdmin() {\\r\\n\n      SWAP1 \t\t\tfier isAdmin() {\\r\\n\n      DIV \t\t\tfier isAdmin() {\\r\\n\n      PUSH FFFFFFFFFFFFFFFFFFFFFFFFFFFFFFFFFFFFFFFF\t\t\tfier isAdmin() {\\r\\n\n      AND \t\t\tfier isAdmin() {\\r\\n\n      PUSH FFFFFFFFFFFFFFFFFFFFFFFFFFFFFFFFFFFFFFFF\t\t\tfier isAdmin() {\\r\\n        re...\n      AND \t\t\tfier isAdmin() {\\r\\n        re...\n      SUB \t\t\tfier isAdmin() {\\r\\n        re...\n      PUSH [tag] 277\t\t\t    modifier isAdmin() {\\r\\n  ...\n      JUMPI \t\t\t    modifier isAdmin() {\\r\\n  ...\n      PUSH 40\t\t\t    modifier isAdmin() {\\r\\n  ...\n      MLOAD \t\t\t    modifier isAdmin() {\\r\\n  ...\n      PUSH 8C379A000000000000000000000000000000000000000000000000000000000\t\t\t    modifier isAdmin() {\\r\\n  ...\n      DUP2 \t\t\t    modifier isAdmin() {\\r\\n  ...\n      MSTORE \t\t\t    modifier isAdmin() {\\r\\n  ...\n      PUSH 4\t\t\t    modifier isAdmin() {\\r\\n  ...\n      ADD \t\t\t    modifier isAdmin() {\\r\\n  ...\n      PUSH [tag] 278\t\t\t    modifier isAdmin() {\\r\\n  ...\n      SWAP1 \t\t\t    modifier isAdmin() {\\r\\n  ...\n      PUSH [tag] 110\t\t\t    modifier isAdmin() {\\r\\n  ...\n      JUMP \t\t\t    modifier isAdmin() {\\r\\n  ...\n    tag 278\t\t\t    modifier isAdmin() {\\r\\n  ...\n      JUMPDEST \t\t\t    modifier isAdmin() {\\r\\n  ...\n      PUSH 40\t\t\t    modifier isAdmin() {\\r\\n  ...\n      MLOAD \t\t\t    modifier isAdmin() {\\r\\n  ...\n      DUP1 \t\t\t    modifier isAdmin() {\\r\\n  ...\n      SWAP2 \t\t\t    modifier isAdmin() {\\r\\n  ...\n      SUB \t\t\t    modifier isAdmin() {\\r\\n  ...\n      SWAP1 \t\t\t    modifier isAdmin() {\\r\\n  ...\n      REVERT \t\t\t    modifier isAdmin() {\\r\\n  ...\n    tag 277\t\t\t    modifier isAdmin() {\\r\\n  ...\n      JUMPDEST \t\t\t    modifier isAdmin() {\\r\\n  ...\n      PUSH [tag] 279\t\t\t      _;\\r\\n    }\\r\\n\\r\\n    f...\n      PUSH 1\t\t\tfunction \n      PUSH 0\t\t\tfunction kycRe\n      DUP4 \t\t\tycR\n      PUSH FFFFFFFFFFFFFFFFFFFFFFFFFFFFFFFFFFFFFFFF\t\t\tfunction kycRe\n      AND \t\t\tfunction kycRe\n      PUSH FFFFFFFFFFFFFFFFFFFFFFFFFFFFFFFFFFFFFFFF\t\t\tfunction kycRe\n      AND \t\t\tfunction kycRe\n      DUP2 \t\t\tfunction kycRe\n      MSTORE \t\t\tfunction kycRe\n      PUSH 20\t\t\tfunction kycRe\n      ADD \t\t\tfunction kycRe\n      SWAP1 \t\t\tfunction kycRe\n      DUP2 \t\t\tfunction kycRe\n      MSTORE \t\t\tfunction kycRe\n      PUSH 20\t\t\tfunction kycRe\n      ADD \t\t\tfunction kycRe\n      PUSH 0\t\t\tfunction kycRe\n      KECCAK256 \t\t\tfunction kycRe\n      PUSH 1\t\t\tfunction kycRequestE\n      ADD \t\t\tfunction kycRequestE\n      DUP1 \t\t\t      _;\\r\\n    }\\r\\n\\r\\n    f...\n      SLOAD \t\t\t      _;\\r\\n    }\\r\\n\\r\\n    f...\n      PUSH [tag] 280\t\t\t      _;\\r\\n    }\\r\\n\\r\\n    f...\n      SWAP1 \t\t\t      _;\\r\\n    }\\r\\n\\r\\n    f...\n      PUSH [tag] 113\t\t\t      _;\\r\\n    }\\r\\n\\r\\n    f...\n      JUMP \t\t\t      _;\\r\\n    }\\r\\n\\r\\n    f...\n    tag 280\t\t\t      _;\\r\\n    }\\r\\n\\r\\n    f...\n      JUMPDEST \t\t\t      _;\\r\\n    }\\r\\n\\r\\n    f...\n      DUP1 \t\t\t      _;\\r\\n    }\\r\\n\\r\\n    f...\n      PUSH 1F\t\t\t      _;\\r\\n    }\\r\\n\\r\\n    f...\n      ADD \t\t\t      _;\\r\\n    }\\r\\n\\r\\n    f...\n      PUSH 20\t\t\t      _;\\r\\n    }\\r\\n\\r\\n    f...\n      DUP1 \t\t\t      _;\\r\\n    }\\r\\n\\r\\n    f...\n      SWAP2 \t\t\t      _;\\r\\n    }\\r\\n\\r\\n    f...\n      DIV \t\t\t      _;\\r\\n    }\\r\\n\\r\\n    f...\n      MUL \t\t\t      _;\\r\\n    }\\r\\n\\r\\n    f...\n      PUSH 20\t\t\t      _;\\r\\n    }\\r\\n\\r\\n    f...\n      ADD \t\t\t      _;\\r\\n    }\\r\\n\\r\\n    f...\n      PUSH 40\t\t\t      _;\\r\\n    }\\r\\n\\r\\n    f...\n      MLOAD \t\t\t      _;\\r\\n    }\\r\\n\\r\\n    f...\n      SWAP1 \t\t\t      _;\\r\\n    }\\r\\n\\r\\n    f...\n      DUP2 \t\t\t      _;\\r\\n    }\\r\\n\\r\\n    f...\n      ADD \t\t\t      _;\\r\\n    }\\r\\n\\r\\n    f...\n      PUSH 40\t\t\t      _;\\r\\n    }\\r\\n\\r\\n    f...\n      MSTORE \t\t\t      _;\\r\\n    }\\r\\n\\r\\n    f...\n      DUP1 \t\t\t      _;\\r\\n    }\\r\\n\\r\\n    f...\n      SWAP3 \t\t\t      _;\\r\\n    }\\r\\n\\r\\n    f...\n      SWAP2 \t\t\t      _;\\r\\n    }\\r\\n\\r\\n    f...\n      SWAP1 \t\t\t      _;\\r\\n    }\\r\\n\\r\\n    f...\n      DUP2 \t\t\t      _;\\r\\n    }\\r\\n\\r\\n    f...\n      DUP2 \t\t\t      _;\\r\\n    }\\r\\n\\r\\n    f...\n      MSTORE \t\t\t      _;\\r\\n    }\\r\\n\\r\\n    f...\n      PUSH 20\t\t\t      _;\\r\\n    }\\r\\n\\r\\n    f...\n      ADD \t\t\t      _;\\r\\n    }\\r\\n\\r\\n    f...\n      DUP3 \t\t\t      _;\\r\\n    }\\r\\n\\r\\n    f...\n      DUP1 \t\t\t      _;\\r\\n    }\\r\\n\\r\\n    f...\n      SLOAD \t\t\t      _;\\r\\n    }\\r\\n\\r\\n    f...\n      PUSH [tag] 281\t\t\t      _;\\r\\n    }\\r\\n\\r\\n    f...\n      SWAP1 \t\t\t      _;\\r\\n    }\\r\\n\\r\\n    f...\n      PUSH [tag] 113\t\t\t      _;\\r\\n    }\\r\\n\\r\\n    f...\n      JUMP \t\t\t      _;\\r\\n    }\\r\\n\\r\\n    f...\n    tag 281\t\t\t      _;\\r\\n    }\\r\\n\\r\\n    f...\n      JUMPDEST \t\t\t      _;\\r\\n    }\\r\\n\\r\\n    f...\n      DUP1 \t\t\t      _;\\r\\n    }\\r\\n\\r\\n    f...\n      ISZERO \t\t\t      _;\\r\\n    }\\r\\n\\r\\n    f...\n      PUSH [tag] 282\t\t\t      _;\\r\\n    }\\r\\n\\r\\n    f...\n      JUMPI \t\t\t      _;\\r\\n    }\\r\\n\\r\\n    f...\n      DUP1 \t\t\t      _;\\r\\n    }\\r\\n\\r\\n    f...\n      PUSH 1F\t\t\t      _;\\r\\n    }\\r\\n\\r\\n    f...\n      LT \t\t\t      _;\\r\\n    }\\r\\n\\r\\n    f...\n      PUSH [tag] 283\t\t\t      _;\\r\\n    }\\r\\n\\r\\n    f...\n      JUMPI \t\t\t      _;\\r\\n    }\\r\\n\\r\\n    f...\n      PUSH 100\t\t\t      _;\\r\\n    }\\r\\n\\r\\n    f...\n      DUP1 \t\t\t      _;\\r\\n    }\\r\\n\\r\\n    f...\n      DUP4 \t\t\t      _;\\r\\n    }\\r\\n\\r\\n    f...\n      SLOAD \t\t\t      _;\\r\\n    }\\r\\n\\r\\n    f...\n      DIV \t\t\t      _;\\r\\n    }\\r\\n\\r\\n    f...\n      MUL \t\t\t      _;\\r\\n    }\\r\\n\\r\\n    f...\n      DUP4 \t\t\t      _;\\r\\n    }\\r\\n\\r\\n    f...\n      MSTORE \t\t\t      _;\\r\\n    }\\r\\n\\r\\n    f...\n      SWAP2 \t\t\t      _;\\r\\n    }\\r\\n\\r\\n    f...\n      PUSH 20\t\t\t      _;\\r\\n    }\\r\\n\\r\\n    f...\n      ADD \t\t\t      _;\\r\\n    }\\r\\n\\r\\n    f...\n      SWAP2 \t\t\t      _;\\r\\n    }\\r\\n\\r\\n    f...\n      PUSH [tag] 282\t\t\t      _;\\r\\n    }\\r\\n\\r\\n    f...\n      JUMP \t\t\t      _;\\r\\n    }\\r\\n\\r\\n    f...\n    tag 283\t\t\t      _;\\r\\n    }\\r\\n\\r\\n    f...\n      JUMPDEST \t\t\t      _;\\r\\n    }\\r\\n\\r\\n    f...\n      DUP3 \t\t\t      _;\\r\\n    }\\r\\n\\r\\n    f...\n      ADD \t\t\t      _;\\r\\n    }\\r\\n\\r\\n    f...\n      SWAP2 \t\t\t      _;\\r\\n    }\\r\\n\\r\\n    f...\n      SWAP1 \t\t\t      _;\\r\\n    }\\r\\n\\r\\n    f...\n      PUSH 0\t\t\t      _;\\r\\n    }\\r\\n\\r\\n    f...\n      MSTORE \t\t\t      _;\\r\\n    }\\r\\n\\r\\n    f...\n      PUSH 20\t\t\t      _;\\r\\n    }\\r\\n\\r\\n    f...\n      PUSH 0\t\t\t      _;\\r\\n    }\\r\\n\\r\\n    f...\n      KECCAK256 \t\t\t      _;\\r\\n    }\\r\\n\\r\\n    f...\n      SWAP1 \t\t\t      _;\\r\\n    }\\r\\n\\r\\n    f...\n    tag 284\t\t\t      _;\\r\\n    }\\r\\n\\r\\n    f...\n      JUMPDEST \t\t\t      _;\\r\\n    }\\r\\n\\r\\n    f...\n      DUP2 \t\t\t      _;\\r\\n    }\\r\\n\\r\\n    f...\n      SLOAD \t\t\t      _;\\r\\n    }\\r\\n\\r\\n    f...\n      DUP2 \t\t\t      _;\\r\\n    }\\r\\n\\r\\n    f...\n      MSTORE \t\t\t      _;\\r\\n    }\\r\\n\\r\\n    f...\n      SWAP1 \t\t\t      _;\\r\\n    }\\r\\n\\r\\n    f...\n      PUSH 1\t\t\t      _;\\r\\n    }\\r\\n\\r\\n    f...\n      ADD \t\t\t      _;\\r\\n    }\\r\\n\\r\\n    f...\n      SWAP1 \t\t\t      _;\\r\\n    }\\r\\n\\r\\n    f...\n      PUSH 20\t\t\t      _;\\r\\n    }\\r\\n\\r\\n    f...\n      ADD \t\t\t      _;\\r\\n    }\\r\\n\\r\\n    f...\n      DUP1 \t\t\t      _;\\r\\n    }\\r\\n\\r\\n    f...\n      DUP4 \t\t\t      _;\\r\\n    }\\r\\n\\r\\n    f...\n      GT \t\t\t      _;\\r\\n    }\\r\\n\\r\\n    f...\n      PUSH [tag] 284\t\t\t      _;\\r\\n    }\\r\\n\\r\\n    f...\n      JUMPI \t\t\t      _;\\r\\n    }\\r\\n\\r\\n    f...\n      DUP3 \t\t\t      _;\\r\\n    }\\r\\n\\r\\n    f...\n      SWAP1 \t\t\t      _;\\r\\n    }\\r\\n\\r\\n    f...\n      SUB \t\t\t      _;\\r\\n    }\\r\\n\\r\\n    f...\n      PUSH 1F\t\t\t      _;\\r\\n    }\\r\\n\\r\\n    f...\n      AND \t\t\t      _;\\r\\n    }\\r\\n\\r\\n    f...\n      DUP3 \t\t\t      _;\\r\\n    }\\r\\n\\r\\n    f...\n      ADD \t\t\t      _;\\r\\n    }\\r\\n\\r\\n    f...\n      SWAP2 \t\t\t      _;\\r\\n    }\\r\\n\\r\\n    f...\n    tag 282\t\t\t      _;\\r\\n    }\\r\\n\\r\\n    f...\n      JUMPDEST \t\t\t      _;\\r\\n    }\\r\\n\\r\\n    f...\n      POP \t\t\t      _;\\r\\n    }\\r\\n\\r\\n    f...\n      POP \t\t\t      _;\\r\\n    }\\r\\n\\r\\n    f...\n      POP \t\t\t      _;\\r\\n    }\\r\\n\\r\\n    f...\n      POP \t\t\t      _;\\r\\n    }\\r\\n\\r\\n    f...\n      POP \t\t\t      _;\\r\\n    }\\r\\n\\r\\n    f...\n      PUSH 40\t\t\t      _;\\r\\n    }\\r\\n\\r\\n    f...\n      MLOAD \t\t\t      _;\\r\\n    }\\r\\n\\r\\n    f...\n      DUP1 \t\t\t      _;\\r\\n    }\\r\\n\\r\\n    f...\n      PUSH 20\t\t\t      _;\\r\\n    }\\r\\n\\r\\n    f...\n      ADD \t\t\t      _;\\r\\n    }\\r\\n\\r\\n    f...\n      PUSH 40\t\t\t      _;\\r\\n    }\\r\\n\\r\\n    f...\n      MSTORE \t\t\t      _;\\r\\n    }\\r\\n\\r\\n    f...\n      DUP1 \t\t\t      _;\\r\\n    }\\r\\n\\r\\n    f...\n      PUSH 0\t\t\t      _;\\r\\n    }\\r\\n\\r\\n    f...\n      DUP2 \t\t\t      _;\\r\\n    }\\r\\n\\r\\n    f...\n      MSTORE \t\t\t      _;\\r\\n    }\\r\\n\\r\\n    f...\n      POP \t\t\t      _;\\r\\n    }\\r\\n\\r\\n    f...\n      PUSH [tag] 118\t\t\t      _;\\r\\n    }\\r\\n\\r\\n   \n      JUMP \t\t\t      _;\\r\\n    }\\r\\n\\r\\n    f...\n    tag 279\t\t\t      _;\\r\\n    }\\r\\n\\r\\n    f...\n      JUMPDEST \t\t\t      _;\\r\\n    }\\r\\n\\r\\n    f...\n      ISZERO \t\t\t       _;\\r\\n    }\\r\\n\\r\\n    ...\n      PUSH [tag] 285\t\t\tadmin is allowed\");\\r\\n       ...\n      JUMPI \t\t\tadmin is allowed\");\\r\\n       ...\n      PUSH 40\t\t\tadmin is allowed\");\\r\\n       ...\n      MLOAD \t\t\tadmin is allowed\");\\r\\n       ...\n      PUSH 8C379A000000000000000000000000000000000000000000000000000000000\t\t\tadmin is allowed\");\\r\\n       ...\n      DUP2 \t\t\tadmin is allowed\");\\r\\n       ...\n      MSTORE \t\t\tadmin is allowed\");\\r\\n       ...\n      PUSH 4\t\t\tadmin is allowed\");\\r\\n       ...\n      ADD \t\t\tadmin is allowed\");\\r\\n       ...\n      PUSH [tag] 286\t\t\tadmin is allowed\");\\r\\n       ...\n      SWAP1 \t\t\tadmin is allowed\");\\r\\n       ...\n      PUSH [tag] 121\t\t\tadmin is allowed\");\\r\\n       ...\n      JUMP \t\t\tadmin is allowed\");\\r\\n       ...\n    tag 286\t\t\tadmin is allowed\");\\r\\n       ...\n      JUMPDEST \t\t\tadmin is allowed\");\\r\\n       ...\n      PUSH 40\t\t\tadmin is allowed\");\\r\\n       ...\n      MLOAD \t\t\tadmin is allowed\");\\r\\n       ...\n      DUP1 \t\t\tadmin is allowed\");\\r\\n       ...\n      SWAP2 \t\t\tadmin is allowed\");\\r\\n       ...\n      SUB \t\t\tadmin is allowed\");\\r\\n       ...\n      SWAP1 \t\t\tadmin is allowed\");\\r\\n       ...\n      REVERT \t\t\tadmin is allowed\");\\r\\n       ...\n    tag 285\t\t\tadmin is allowed\");\\r\\n       ...\n      JUMPDEST \t\t\tadmin is allowed\");\\r\\n       ...\n      DUP4 \t\t\tbankId_\n      PUSH 0\t\t\t \n      PUSH FFFFFFFFFFFFFFFFFFFFFFFFFFFFFFFFFFFFFFFF\t\t\tn);\\r\\n    }\\r\\n\\r\\n    modifi...\n      AND \t\t\tn);\\r\\n    }\\r\\n\\r\\n    modifi...\n      PUSH 3\t\t\tn);\\r\\n\n      PUSH 0\t\t\tn);\\r\\n    }\n      DUP4 \t\t\t   \n      PUSH FFFFFFFFFFFFFFFFFFFFFFFFFFFFFFFFFFFFFFFF\t\t\tn);\\r\\n    }\n      AND \t\t\tn);\\r\\n    }\n      PUSH FFFFFFFFFFFFFFFFFFFFFFFFFFFFFFFFFFFFFFFF\t\t\tn);\\r\\n    }\n      AND \t\t\tn);\\r\\n    }\n      DUP2 \t\t\tn);\\r\\n    }\n      MSTORE \t\t\tn);\\r\\n    }\n      PUSH 20\t\t\tn);\\r\\n    }\n      ADD \t\t\tn);\\r\\n    }\n      SWAP1 \t\t\tn);\\r\\n    }\n      DUP2 \t\t\tn);\\r\\n    }\n      MSTORE \t\t\tn);\\r\\n    }\n      PUSH 20\t\t\tn);\\r\\n    }\n      ADD \t\t\tn);\\r\\n    }\n      PUSH 0\t\t\tn);\\r\\n    }\n      KECCAK256 \t\t\tn);\\r\\n    }\n      PUSH 2\t\t\tn);\\r\\n    }\\r\\n\\r\\n\n      ADD \t\t\tn);\\r\\n    }\\r\\n\\r\\n\n      PUSH 0\t\t\tn);\\r\\n    }\\r\\n\\r\\n\n      SWAP1 \t\t\tn);\\r\\n    }\\r\\n\\r\\n\n      SLOAD \t\t\tn);\\r\\n    }\\r\\n\\r\\n\n      SWAP1 \t\t\tn);\\r\\n    }\\r\\n\\r\\n\n      PUSH 100\t\t\tn);\\r\\n    }\\r\\n\\r\\n\n      EXP \t\t\tn);\\r\\n    }\\r\\n\\r\\n\n      SWAP1 \t\t\tn);\\r\\n    }\\r\\n\\r\\n\n      DIV \t\t\tn);\\r\\n    }\\r\\n\\r\\n\n      PUSH FFFFFFFFFFFFFFFFFFFFFFFFFFFFFFFFFFFFFFFF\t\t\tn);\\r\\n    }\\r\\n\\r\\n\n      AND \t\t\tn);\\r\\n    }\\r\\n\\r\\n\n      PUSH FFFFFFFFFFFFFFFFFFFFFFFFFFFFFFFFFFFFFFFF\t\t\tn);\\r\\n    }\\r\\n\\r\\n    modifi...\n      AND \t\t\tn);\\r\\n    }\\r\\n\\r\\n    modifi...\n      SUB \t\t\tn);\\r\\n    }\\r\\n\\r\\n    modifi...\n      PUSH [tag] 288\t\t\tush(admin);\\r\\n    }\\r\\n\\r\\n  ...\n      JUMPI \t\t\tush(admin);\\r\\n    }\\r\\n\\r\\n  ...\n      PUSH 40\t\t\tush(admin);\\r\\n    }\\r\\n\\r\\n  ...\n      MLOAD \t\t\tush(admin);\\r\\n    }\\r\\n\\r\\n  ...\n      PUSH 8C379A000000000000000000000000000000000000000000000000000000000\t\t\tush(admin);\\r\\n    }\\r\\n\\r\\n  ...\n      DUP2 \t\t\tush(admin);\\r\\n    }\\r\\n\\r\\n  ...\n      MSTORE \t\t\tush(admin);\\r\\n    }\\r\\n\\r\\n  ...\n      PUSH 4\t\t\tush(admin);\\r\\n    }\\r\\n\\r\\n  ...\n      ADD \t\t\tush(admin);\\r\\n    }\\r\\n\\r\\n  ...\n      PUSH [tag] 289\t\t\tush(admin);\\r\\n    }\\r\\n\\r\\n  ...\n      SWAP1 \t\t\tush(admin);\\r\\n    }\\r\\n\\r\\n  ...\n      PUSH [tag] 130\t\t\tush(admin);\\r\\n    }\\r\\n\\r\\n  ...\n      JUMP \t\t\tush(admin);\\r\\n    }\\r\\n\\r\\n  ...\n    tag 289\t\t\tush(admin);\\r\\n    }\\r\\n\\r\\n  ...\n      JUMPDEST \t\t\tush(admin);\\r\\n    }\\r\\n\\r\\n  ...\n      PUSH 40\t\t\tush(admin);\\r\\n    }\\r\\n\\r\\n  ...\n      MLOAD \t\t\tush(admin);\\r\\n    }\\r\\n\\r\\n  ...\n      DUP1 \t\t\tush(admin);\\r\\n    }\\r\\n\\r\\n  ...\n      SWAP2 \t\t\tush(admin);\\r\\n    }\\r\\n\\r\\n  ...\n      SUB \t\t\tush(admin);\\r\\n    }\\r\\n\\r\\n  ...\n      SWAP1 \t\t\tush(admin);\\r\\n    }\\r\\n\\r\\n  ...\n      REVERT \t\t\tush(admin);\\r\\n    }\\r\\n\\r\\n  ...\n    tag 288\t\t\tush(admin);\\r\\n    }\\r\\n\\r\\n  ...\n      JUMPDEST \t\t\tush(admin);\\r\\n    }\\r\\n\\r\\n  ...\n      DUP1 \t\t\tdmi\n      PUSH FFFFFFFFFFFFFFFFFFFFFFFFFFFFFFFFFFFFFFFF\t\t\t == admin, \"Only admi\n      AND \t\t\t == admin, \"Only admi\n      PUSH 3\t\t\t == a\n      PUSH 0\t\t\t == admin,\n      DUP4 \t\t\tmin\n      PUSH FFFFFFFFFFFFFFFFFFFFFFFFFFFFFFFFFFFFFFFF\t\t\t == admin,\n      AND \t\t\t == admin,\n      PUSH FFFFFFFFFFFFFFFFFFFFFFFFFFFFFFFFFFFFFFFF\t\t\t == admin,\n      AND \t\t\t == admin,\n      DUP2 \t\t\t == admin,\n      MSTORE \t\t\t == admin,\n      PUSH 20\t\t\t == admin,\n      ADD \t\t\t == admin,\n      SWAP1 \t\t\t == admin,\n      DUP2 \t\t\t == admin,\n      MSTORE \t\t\t == admin,\n      PUSH 20\t\t\t == admin,\n      ADD \t\t\t == admin,\n      PUSH 0\t\t\t == admin,\n      KECCAK256 \t\t\t == admin,\n      PUSH 2\t\t\t == admin, \"On\n      ADD \t\t\t == admin, \"On\n      PUSH 0\t\t\t == admin, \"On\n      SWAP1 \t\t\t == admin, \"On\n      SLOAD \t\t\t == admin, \"On\n      SWAP1 \t\t\t == admin, \"On\n      PUSH 100\t\t\t == admin, \"On\n      EXP \t\t\t == admin, \"On\n      SWAP1 \t\t\t == admin, \"On\n      DIV \t\t\t == admin, \"On\n      PUSH FFFFFFFFFFFFFFFFFFFFFFFFFFFFFFFFFFFFFFFF\t\t\t == admin, \"On\n      AND \t\t\t == admin, \"On\n      PUSH FFFFFFFFFFFFFFFFFFFFFFFFFFFFFFFFFFFFFFFF\t\t\t == admin, \"Only admi\n      AND \t\t\t == admin, \"Only admi\n      EQ \t\t\t == admin, \"Only admi\n      PUSH [tag] 290\t\t\tg.sender == admin, \"Only admin...\n      JUMPI \t\t\tg.sender == admin, \"Only admin...\n      PUSH 40\t\t\tg.sender == admin, \"Only admin...\n      MLOAD \t\t\tg.sender == admin, \"Only admin...\n      PUSH 8C379A000000000000000000000000000000000000000000000000000000000\t\t\tg.sender == admin, \"Only admin...\n      DUP2 \t\t\tg.sender == admin, \"Only admin...\n      MSTORE \t\t\tg.sender == admin, \"Only admin...\n      PUSH 4\t\t\tg.sender == admin, \"Only admin...\n      ADD \t\t\tg.sender == admin, \"Only admin...\n      PUSH [tag] 291\t\t\tg.sender == admin, \"Only admin...\n      SWAP1 \t\t\tg.sender == admin, \"Only admin...\n      PUSH [tag] 130\t\t\tg.sender == admin, \"Only admin...\n      JUMP \t\t\tg.sender == admin, \"Only admin...\n    tag 291\t\t\tg.sender == admin, \"Only admin...\n      JUMPDEST \t\t\tg.sender == admin, \"Only admin...\n      PUSH 40\t\t\tg.sender == admin, \"Only admin...\n      MLOAD \t\t\tg.sender == admin, \"Only admin...\n      DUP1 \t\t\tg.sender == admin, \"Only admin...\n      SWAP2 \t\t\tg.sender == admin, \"Only admin...\n      SUB \t\t\tg.sender == admin, \"Only admin...\n      SWAP1 \t\t\tg.sender == admin, \"Only admin...\n      REVERT \t\t\tg.sender == admin, \"Only admin...\n    tag 290\t\t\tg.sender == admin, \"Only admin...\n      JUMPDEST \t\t\tg.sender == admin, \"Only admin...\n      PUSH 0\t\t\tg memory reqId_)\\r\\n     \n      PUSH 1\t\t\tycRequestExists(string memory ...\n      DUP2 \t\t\tycRequestExists(string memory ...\n      GT \t\t\tycRequestExists(string memory ...\n      ISZERO \t\t\tycRequestExists(string memory ...\n      PUSH [tag] 292\t\t\tycRequestExists(string memory ...\n      JUMPI \t\t\tycRequestExists(string memory ...\n      PUSH [tag] 293\t\t\tycRequestExists(string memory ...\n      PUSH [tag] 135\t\t\tycRequestExists(string memory ...\n      JUMP \t\t\tycRequestExists(string memory ...\n    tag 293\t\t\tycRequestExists(string memory ...\n      JUMPDEST \t\t\tycRequestExists(string memory ...\n    tag 292\t\t\tycRequestExists(string memory ...\n      JUMPDEST \t\t\tycRequestExists(string memory ...\n      PUSH 3\t\t\tycReq\n      PUSH 0\t\t\tycRequestE\n      DUP4 \t\t\test\n      PUSH FFFFFFFFFFFFFFFFFFFFFFFFFFFFFFFFFFFFFFFF\t\t\tycRequestE\n      AND \t\t\tycRequestE\n      PUSH FFFFFFFFFFFFFFFFFFFFFFFFFFFFFFFFFFFFFFFF\t\t\tycRequestE\n      AND \t\t\tycRequestE\n      DUP2 \t\t\tycRequestE\n      MSTORE \t\t\tycRequestE\n      PUSH 20\t\t\tycRequestE\n      ADD \t\t\tycRequestE\n      SWAP1 \t\t\tycRequestE\n      DUP2 \t\t\tycRequestE\n      MSTORE \t\t\tycRequestE\n      PUSH 20\t\t\tycRequestE\n      ADD \t\t\tycRequestE\n      PUSH 0\t\t\tycRequestE\n      KECCAK256 \t\t\tycRequestE\n      PUSH 4\t\t\tycRequestExists(s\n      ADD \t\t\tycRequestExists(s\n      PUSH 2\t\t\tycRequestExists(s\n      SWAP1 \t\t\tycRequestExists(s\n      SLOAD \t\t\tycRequestExists(s\n      SWAP1 \t\t\tycRequestExists(s\n      PUSH 100\t\t\tycRequestExists(s\n      EXP \t\t\tycRequestExists(s\n      SWAP1 \t\t\tycRequestExists(s\n      DIV \t\t\tycRequestExists(s\n      PUSH FF\t\t\tycRequestExists(s\n      AND \t\t\tycRequestExists(s\n      PUSH 1\t\t\tycRequestExists(string memory ...\n      DUP2 \t\t\tycRequestExists(string memory ...\n      GT \t\t\tycRequestExists(string memory ...\n      ISZERO \t\t\tycRequestExists(string memory ...\n      PUSH [tag] 294\t\t\tycRequestExists(string memory ...\n      JUMPI \t\t\tycRequestExists(string memory ...\n      PUSH [tag] 295\t\t\tycRequestExists(string memory ...\n      PUSH [tag] 135\t\t\tycRequestExists(string memory ...\n      JUMP \t\t\tycRequestExists(string memory ...\n    tag 295\t\t\tycRequestExists(string memory ...\n      JUMPDEST \t\t\tycRequestExists(string memory ...\n    tag 294\t\t\tycRequestExists(string memory ...\n      JUMPDEST \t\t\tycRequestExists(string memory ...\n      EQ \t\t\tycRequestExists(string memory ...\n      PUSH [tag] 296\t\t\t   }\\r\\n\\r\\n    function kycRe...\n      JUMPI \t\t\t   }\\r\\n\\r\\n    function kycRe...\n      PUSH 40\t\t\t   }\\r\\n\\r\\n    function kycRe...\n      MLOAD \t\t\t   }\\r\\n\\r\\n    function kycRe...\n      PUSH 8C379A000000000000000000000000000000000000000000000000000000000\t\t\t   }\\r\\n\\r\\n    function kycRe...\n      DUP2 \t\t\t   }\\r\\n\\r\\n    function kycRe...\n      MSTORE \t\t\t   }\\r\\n\\r\\n    function kycRe...\n      PUSH 4\t\t\t   }\\r\\n\\r\\n    function kycRe...\n      ADD \t\t\t   }\\r\\n\\r\\n    function kycRe...\n      PUSH [tag] 297\t\t\t   }\\r\\n\\r\\n    function kycRe...\n      SWAP1 \t\t\t   }\\r\\n\\r\\n    function kycRe...\n      PUSH [tag] 140\t\t\t   }\\r\\n\\r\\n    function kycRe...\n      JUMP \t\t\t   }\\r\\n\\r\\n    function kycRe...\n    tag 297\t\t\t   }\\r\\n\\r\\n    function kycRe...\n      JUMPDEST \t\t\t   }\\r\\n\\r\\n    function kycRe...\n      PUSH 40\t\t\t   }\\r\\n\\r\\n    function kycRe...\n      MLOAD \t\t\t   }\\r\\n\\r\\n    function kycRe...\n      DUP1 \t\t\t   }\\r\\n\\r\\n    function kycRe...\n      SWAP2 \t\t\t   }\\r\\n\\r\\n    function kycRe...\n      SUB \t\t\t   }\\r\\n\\r\\n    function kycRe...\n      SWAP1 \t\t\t   }\\r\\n\\r\\n    function kycRe...\n      REVERT \t\t\t   }\\r\\n\\r\\n    function kycRe...\n    tag 296\t\t\t   }\\r\\n\\r\\n    function kycRe...\n      JUMPDEST \t\t\t   }\\r\\n\\r\\n    function kycRe...\n      PUSH 0\t\t\tstring memory reqId_\n      PUSH [tag] 299\t\t\tHelpers.append(bankId_, msg.se...\n      DUP7 \t\t\tbankId_\n      CALLER \t\t\tmsg.sender\n      PUSH [tag] 157\t\t\tHelpers.append\n      JUMP \t\t\tHelpers.append(bankId_, msg.se...\n    tag 299\t\t\tHelpers.append(bankId_, msg.se...\n      JUMPDEST \t\t\tHelpers.append(bankId_, msg.se...\n      SWAP1 \t\t\tstring memory reqId_ = Helpers...\n      POP \t\t\tstring memory reqId_ = Helpers...\n      PUSH [tag] 300\t\t\tkycRequestExists(reqId_)\n      DUP2 \t\t\treqId_\n      PUSH [tag] 159\t\t\tkycRequestExists\n      JUMP \t\t\tkycRequestExists(reqId_)\n    tag 300\t\t\tkycRequestExists(reqId_)\n      JUMPDEST \t\t\tkycRequestExists(reqId_)\n      PUSH [tag] 301\t\t\trequire(kycRequestExists(reqId...\n      JUMPI \t\t\trequire(kycRequestExists(reqId...\n      PUSH 40\t\t\trequire(kycRequestExists(reqId...\n      MLOAD \t\t\trequire(kycRequestExists(reqId...\n      PUSH 8C379A000000000000000000000000000000000000000000000000000000000\t\t\trequire(kycRequestExists(reqId...\n      DUP2 \t\t\trequire(kycRequestExists(reqId...\n      MSTORE \t\t\trequire(kycRequestExists(reqId...\n      PUSH 4\t\t\trequire(kycRequestExists(reqId...\n      ADD \t\t\trequire(kycRequestExists(reqId...\n      PUSH [tag] 302\t\t\trequire(kycRequestExists(reqId...\n      SWAP1 \t\t\trequire(kycRequestExists(reqId...\n      PUSH [tag] 303\t\t\trequire(kycRequestExists(reqId...\n      JUMP \t\t\trequire(kycRequestExists(reqId...\n    tag 302\t\t\trequire(kycRequestExists(reqId...\n      JUMPDEST \t\t\trequire(kycRequestExists(reqId...\n      PUSH 40\t\t\trequire(kycRequestExists(reqId...\n      MLOAD \t\t\trequire(kycRequestExists(reqId...\n      DUP1 \t\t\trequire(kycRequestExists(reqId...\n      SWAP2 \t\t\trequire(kycRequestExists(reqId...\n      SUB \t\t\trequire(kycRequestExists(reqId...\n      SWAP1 \t\t\trequire(kycRequestExists(reqId...\n      REVERT \t\t\trequire(kycRequestExists(reqId...\n    tag 301\t\t\trequire(kycRequestExists(reqId...\n      JUMPDEST \t\t\trequire(kycRequestExists(reqId...\n      PUSH 0\t\t\tTypes.DataHashStatus status_\n      DUP6 \t\t\tapprove_\n      ISZERO \t\t\tif (approve_) {\\r\\n           ...\n      PUSH [tag] 304\t\t\tif (approve_) {\\r\\n           ...\n      JUMPI \t\t\tif (approve_) {\\r\\n           ...\n      PUSH 1\t\t\tTypes.DataHashStatus.Approved\n      SWAP1 \t\t\tstatus_ = Types.DataHashStatus...\n      POP \t\t\tstatus_ = Types.DataHashStatus...\n      PUSH [tag] 305\t\t\tif (approve_) {\\r\\n           ...\n      JUMP \t\t\tif (approve_) {\\r\\n           ...\n    tag 304\t\t\tif (approve_) {\\r\\n           ...\n      JUMPDEST \t\t\tif (approve_) {\\r\\n           ...\n      PUSH 2\t\t\tTypes.DataHashStatus.Rejected\n      SWAP1 \t\t\tstatus_ = Types.DataHashStatus...\n      POP \t\t\tstatus_ = Types.DataHashStatus...\n    tag 305\t\t\tif (approve_) {\\r\\n           ...\n      JUMPDEST \t\t\tif (approve_) {\\r\\n           ...\n      DUP1 \t\t\tstatus_\n      PUSH 7\t\t\tkycRequests\n      DUP4 \t\t\treqId_\n      PUSH 40\t\t\tkycRequests[reqId_]\n      MLOAD \t\t\tkycRequests[reqId_]\n      PUSH [tag] 306\t\t\tkycRequests[reqId_]\n      SWAP2 \t\t\tkycRequests[reqId_]\n      SWAP1 \t\t\tkycRequests[reqId_]\n      PUSH [tag] 169\t\t\tkycRequests[reqId_]\n      JUMP \t\t\tkycRequests[reqId_]\n    tag 306\t\t\tkycRequests[reqId_]\n      JUMPDEST \t\t\tkycRequests[reqId_]\n      SWAP1 \t\t\tkycRequests[reqId_]\n      DUP2 \t\t\tkycRequests[reqId_]\n      MSTORE \t\t\tkycRequests[reqId_]\n      PUSH 20\t\t\tkycRequests[reqId_]\n      ADD \t\t\tkycRequests[reqId_]\n      PUSH 40\t\t\tkycRequests[reqId_]\n      MLOAD \t\t\tkycRequests[reqId_]\n      DUP1 \t\t\tkycRequests[reqId_]\n      SWAP2 \t\t\tkycRequests[reqId_]\n      SUB \t\t\tkycRequests[reqId_]\n      SWAP1 \t\t\tkycRequests[reqId_]\n      KECCAK256 \t\t\tkycRequests[reqId_]\n      PUSH 7\t\t\tkycRequests[reqId_].dataReques...\n      ADD \t\t\tkycRequests[reqId_].dataReques...\n      PUSH 1\t\t\tkycRequests[reqId_].dataReques...\n      PUSH 100\t\t\tkycRequests[reqId_].dataReques...\n      EXP \t\t\tkycRequests[reqId_].dataReques...\n      DUP2 \t\t\tkycRequests[reqId_].dataReques...\n      SLOAD \t\t\tkycRequests[reqId_].dataReques...\n      DUP2 \t\t\tkycRequests[reqId_].dataReques...\n      PUSH FF\t\t\tkycRequests[reqId_].dataReques...\n      MUL \t\t\tkycRequests[reqId_].dataReques...\n      NOT \t\t\tkycRequests[reqId_].dataReques...\n      AND \t\t\tkycRequests[reqId_].dataReques...\n      SWAP1 \t\t\tkycRequests[reqId_].dataReques...\n      DUP4 \t\t\tkycRequests[reqId_].dataReques...\n      PUSH 2\t\t\tkycRequests[reqId_].dataReques...\n      DUP2 \t\t\tkycRequests[reqId_].dataReques...\n      GT \t\t\tkycRequests[reqId_].dataReques...\n      ISZERO \t\t\tkycRequests[reqId_].dataReques...\n      PUSH [tag] 307\t\t\tkycRequests[reqId_].dataReques...\n      JUMPI \t\t\tkycRequests[reqId_].dataReques...\n      PUSH [tag] 308\t\t\tkycRequests[reqId_].dataReques...\n      PUSH [tag] 135\t\t\tkycRequests[reqId_].dataReques...\n      JUMP \t\t\tkycRequests[reqId_].dataReques...\n    tag 308\t\t\tkycRequests[reqId_].dataReques...\n      JUMPDEST \t\t\tkycRequests[reqId_].dataReques...\n    tag 307\t\t\tkycRequests[reqId_].dataReques...\n      JUMPDEST \t\t\tkycRequests[reqId_].dataReques...\n      MUL \t\t\tkycRequests[reqId_].dataReques...\n      OR \t\t\tkycRequests[reqId_].dataReques...\n      SWAP1 \t\t\tkycRequests[reqId_].dataReques...\n      SSTORE \t\t\tkycRequests[reqId_].dataReques...\n      POP \t\t\tkycRequests[reqId_].dataReques...\n      DUP5 \t\t\tnote_\n      PUSH 7\t\t\tkycRequests\n      DUP4 \t\t\treqId_\n      PUSH 40\t\t\tkycRequests[reqId_]\n      MLOAD \t\t\tkycRequests[reqId_]\n      PUSH [tag] 309\t\t\tkycRequests[reqId_]\n      SWAP2 \t\t\tkycRequests[reqId_]\n      SWAP1 \t\t\tkycRequests[reqId_]\n      PUSH [tag] 169\t\t\tkycRequests[reqId_]\n      JUMP \t\t\tkycRequests[reqId_]\n    tag 309\t\t\tkycRequests[reqId_]\n      JUMPDEST \t\t\tkycRequests[reqId_]\n      SWAP1 \t\t\tkycRequests[reqId_]\n      DUP2 \t\t\tkycRequests[reqId_]\n      MSTORE \t\t\tkycRequests[reqId_]\n      PUSH 20\t\t\tkycRequests[reqId_]\n      ADD \t\t\tkycRequests[reqId_]\n      PUSH 40\t\t\tkycRequests[reqId_]\n      MLOAD \t\t\tkycRequests[reqId_]\n      DUP1 \t\t\tkycRequests[reqId_]\n      SWAP2 \t\t\tkycRequests[reqId_]\n      SUB \t\t\tkycRequests[reqId_]\n      SWAP1 \t\t\tkycRequests[reqId_]\n      KECCAK256 \t\t\tkycRequests[reqId_]\n      PUSH 8\t\t\tkycRequests[reqId_].additional...\n      ADD \t\t\tkycRequests[reqId_].additional...\n      SWAP1 \t\t\tkycRequests[reqId_].additional...\n      DUP2 \t\t\tkycRequests[reqId_].additional...\n      PUSH [tag] 310\t\t\tkycRequests[reqId_].additional...\n      SWAP2 \t\t\tkycRequests[reqId_].additional...\n      SWAP1 \t\t\tkycRequests[reqId_].additional...\n      PUSH [tag] 174\t\t\tkycRequests[reqId_].additional...\n      JUMP \t\t\tkycRequests[reqId_].additional...\n    tag 310\t\t\tkycRequests[reqId_].additional...\n      JUMPDEST \t\t\tkycRequests[reqId_].additional...\n      POP \t\t\tkycRequests[reqId_].additional...\n      PUSH 9A3F3F9DE5AC964F84F08C6124F7B844FFD73DE3FD4B472EB59F6B68E5729A81\t\t\tDataHashPermissionChanged(reqI...\n      DUP3 \t\t\treqId_\n      CALLER \t\t\tmsg.sender\n      DUP10 \t\t\tbankId_\n      DUP5 \t\t\tstatus_\n      PUSH 40\t\t\tDataHashPermissionChanged(reqI...\n      MLOAD \t\t\tDataHashPermissionChanged(reqI...\n      PUSH [tag] 311\t\t\tDataHashPermissionChanged(reqI...\n      SWAP5 \t\t\tDataHashPermissionChanged(reqI...\n      SWAP4 \t\t\tDataHashPermissionChanged(reqI...\n      SWAP3 \t\t\tDataHashPermissionChanged(reqI...\n      SWAP2 \t\t\tDataHashPermissionChanged(reqI...\n      SWAP1 \t\t\tDataHashPermissionChanged(reqI...\n      PUSH [tag] 312\t\t\tDataHashPermissionChanged(reqI...\n      JUMP \t\t\tDataHashPermissionChanged(reqI...\n    tag 311\t\t\tDataHashPermissionChanged(reqI...\n      JUMPDEST \t\t\tDataHashPermissionChanged(reqI...\n      PUSH 40\t\t\tDataHashPermissionChanged(reqI...\n      MLOAD \t\t\tDataHashPermissionChanged(reqI...\n      DUP1 \t\t\tDataHashPermissionChanged(reqI...\n      SWAP2 \t\t\tDataHashPermissionChanged(reqI...\n      SUB \t\t\tDataHashPermissionChanged(reqI...\n      SWAP1 \t\t\tDataHashPermissionChanged(reqI...\n      LOG1 \t\t\tDataHashPermissionChanged(reqI...\n      POP \t\t\t{\\r\\n        string memory req...\n      POP \t\t\t{\\r\\n        string memory req...\n      POP \t\t\t\\n\n      POP \t\t\tfunction actionOnKycRequest(\\r...\n      POP \t\t\tfunction actionOnKycRequest(\\r...\n      POP \t\t\tfunction actionOnKycRequest(\\r...\n      POP \t\t\tfunction actionOnKycRequest(\\r...\n      JUMP \t\t\tfunction actionOnKycRequest(\\r...\n    tag 55\t\t\tfunction updateBankDetails(\\r\\...\n      JUMPDEST \t\t\tfunction updateBankDetails(\\r\\...\n      PUSH 4\t\t\tadmin\n      PUSH 0\t\t\tadmin\n      SWAP1 \t\t\tadmin\n      SLOAD \t\t\tadmin\n      SWAP1 \t\t\tadmin\n      PUSH 100\t\t\tadmin\n      EXP \t\t\tadmin\n      SWAP1 \t\t\tadmin\n      DIV \t\t\tadmin\n      PUSH FFFFFFFFFFFFFFFFFFFFFFFFFFFFFFFFFFFFFFFF\t\t\tadmin\n      AND \t\t\tadmin\n      PUSH FFFFFFFFFFFFFFFFFFFFFFFFFFFFFFFFFFFFFFFF\t\t\tmsg.sender == admin\n      AND \t\t\tmsg.sender == admin\n      CALLER \t\t\tmsg.sender\n      PUSH FFFFFFFFFFFFFFFFFFFFFFFFFFFFFFFFFFFFFFFF\t\t\tmsg.sender == admin\n      AND \t\t\tmsg.sender == admin\n      EQ \t\t\tmsg.sender == admin\n      PUSH [tag] 314\t\t\trequire(msg.sender == admin, \"...\n      JUMPI \t\t\trequire(msg.sender == admin, \"...\n      PUSH 40\t\t\trequire(msg.sender == admin, \"...\n      MLOAD \t\t\trequire(msg.sender == admin, \"...\n      PUSH 8C379A000000000000000000000000000000000000000000000000000000000\t\t\trequire(msg.sender == admin, \"...\n      DUP2 \t\t\trequire(msg.sender == admin, \"...\n      MSTORE \t\t\trequire(msg.sender == admin, \"...\n      PUSH 4\t\t\trequire(msg.sender == admin, \"...\n      ADD \t\t\trequire(msg.sender == admin, \"...\n      PUSH [tag] 315\t\t\trequire(msg.sender == admin, \"...\n      SWAP1 \t\t\trequire(msg.sender == admin, \"...\n      PUSH [tag] 182\t\t\trequire(msg.sender == admin, \"...\n      JUMP \t\t\trequire(msg.sender == admin, \"...\n    tag 315\t\t\trequire(msg.sender == admin, \"...\n      JUMPDEST \t\t\trequire(msg.sender == admin, \"...\n      PUSH 40\t\t\trequire(msg.sender == admin, \"...\n      MLOAD \t\t\trequire(msg.sender == admin, \"...\n      DUP1 \t\t\trequire(msg.sender == admin, \"...\n      SWAP2 \t\t\trequire(msg.sender == admin, \"...\n      SUB \t\t\trequire(msg.sender == admin, \"...\n      SWAP1 \t\t\trequire(msg.sender == admin, \"...\n      REVERT \t\t\trequire(msg.sender == admin, \"...\n    tag 314\t\t\trequire(msg.sender == admin, \"...\n      JUMPDEST \t\t\trequire(msg.sender == admin, \"...\n      PUSH [tag] 317\t\t\tupdatebank(id_, email_, name_)\n      DUP4 \t\t\tid_\n      DUP4 \t\t\temail_\n      DUP4 \t\t\tname_\n      PUSH [tag] 318\t\t\tupdatebank\n      JUMP \t\t\tupdatebank(id_, email_, name_)\n    tag 317\t\t\tupdatebank(id_, email_, name_)\n      JUMPDEST \t\t\tupdatebank(id_, email_, name_)\n      DUP1 \t\t\tname_\n      PUSH 6\t\t\tusers\n      PUSH 0\t\t\tusers[id_]\n      DUP6 \t\t\tid_\n      PUSH FFFFFFFFFFFFFFFFFFFFFFFFFFFFFFFFFFFFFFFF\t\t\tusers[id_]\n      AND \t\t\tusers[id_]\n      PUSH FFFFFFFFFFFFFFFFFFFFFFFFFFFFFFFFFFFFFFFF\t\t\tusers[id_]\n      AND \t\t\tusers[id_]\n      DUP2 \t\t\tusers[id_]\n      MSTORE \t\t\tusers[id_]\n      PUSH 20\t\t\tusers[id_]\n      ADD \t\t\tusers[id_]\n      SWAP1 \t\t\tusers[id_]\n      DUP2 \t\t\tusers[id_]\n      MSTORE \t\t\tusers[id_]\n      PUSH 20\t\t\tusers[id_]\n      ADD \t\t\tusers[id_]\n      PUSH 0\t\t\tusers[id_]\n      KECCAK256 \t\t\tusers[id_]\n      PUSH 0\t\t\tusers[id_].name\n      ADD \t\t\tusers[id_].name\n      SWAP1 \t\t\tusers[id_].name = name_\n      DUP2 \t\t\tusers[id_].name = name_\n      PUSH [tag] 319\t\t\tusers[id_].name = name_\n      SWAP2 \t\t\tusers[id_].name = name_\n      SWAP1 \t\t\tusers[id_].name = name_\n      PUSH [tag] 174\t\t\tusers[id_].name = name_\n      JUMP \t\t\tusers[id_].name = name_\n    tag 319\t\t\tusers[id_].name = name_\n      JUMPDEST \t\t\tusers[id_].name = name_\n      POP \t\t\tusers[id_].name = name_\n      DUP2 \t\t\temail_\n      PUSH 6\t\t\tusers\n      PUSH 0\t\t\tusers[id_]\n      DUP6 \t\t\tid_\n      PUSH FFFFFFFFFFFFFFFFFFFFFFFFFFFFFFFFFFFFFFFF\t\t\tusers[id_]\n      AND \t\t\tusers[id_]\n      PUSH FFFFFFFFFFFFFFFFFFFFFFFFFFFFFFFFFFFFFFFF\t\t\tusers[id_]\n      AND \t\t\tusers[id_]\n      DUP2 \t\t\tusers[id_]\n      MSTORE \t\t\tusers[id_]\n      PUSH 20\t\t\tusers[id_]\n      ADD \t\t\tusers[id_]\n      SWAP1 \t\t\tusers[id_]\n      DUP2 \t\t\tusers[id_]\n      MSTORE \t\t\tusers[id_]\n      PUSH 20\t\t\tusers[id_]\n      ADD \t\t\tusers[id_]\n      PUSH 0\t\t\tusers[id_]\n      KECCAK256 \t\t\tusers[id_]\n      PUSH 1\t\t\tusers[id_].email\n      ADD \t\t\tusers[id_].email\n      SWAP1 \t\t\tusers[id_].email = email_\n      DUP2 \t\t\tusers[id_].email = email_\n      PUSH [tag] 320\t\t\tusers[id_].email = email_\n      SWAP2 \t\t\tusers[id_].email = email_\n      SWAP1 \t\t\tusers[id_].email = email_\n      PUSH [tag] 174\t\t\tusers[id_].email = email_\n      JUMP \t\t\tusers[id_].email = email_\n    tag 320\t\t\tusers[id_].email = email_\n      JUMPDEST \t\t\tusers[id_].email = email_\n      POP \t\t\tusers[id_].email = email_\n      POP \t\t\tfunction updateBankDetails(\\r\\...\n      POP \t\t\tfunction updateBankDetails(\\r\\...\n      POP \t\t\tfunction updateBankDetails(\\r\\...\n      JUMP \t\t\tfunction updateBankDetails(\\r\\...\n    tag 58\t\t\tfunction removerDatahashPermis...\n      JUMPDEST \t\t\tfunction removerDatahashPermis...\n      CALLER \t\t\tmsg.sender\n      PUSH 0\t\t\tr\n      PUSH FFFFFFFFFFFFFFFFFFFFFFFFFFFFFFFFFFFFFFFF\t\t\t_;\\r\\n        userL\n      AND \t\t\t_;\\r\\n        userL\n      DUP2 \t\t\t_;\\r\n      PUSH FFFFFFFFFFFFFFFFFFFFFFFFFFFFFFFFFFFFFFFF\t\t\t_;\\r\\n        userL\n      AND \t\t\t_;\\r\\n        userL\n      SUB \t\t\t_;\\r\\n        userL\n      PUSH [tag] 322\t\t\tn] = usr_;\\r\\n        userList...\n      JUMPI \t\t\tn] = usr_;\\r\\n        userList...\n      PUSH 40\t\t\tn] = usr_;\\r\\n        userList...\n      MLOAD \t\t\tn] = usr_;\\r\\n        userList...\n      PUSH 8C379A000000000000000000000000000000000000000000000000000000000\t\t\tn] = usr_;\\r\\n        userList...\n      DUP2 \t\t\tn] = usr_;\\r\\n        userList...\n      MSTORE \t\t\tn] = usr_;\\r\\n        userList...\n      PUSH 4\t\t\tn] = usr_;\\r\\n        userList...\n      ADD \t\t\tn] = usr_;\\r\\n        userList...\n      PUSH [tag] 323\t\t\tn] = usr_;\\r\\n        userList...\n      SWAP1 \t\t\tn] = usr_;\\r\\n        userList...\n      PUSH [tag] 107\t\t\tn] = usr_;\\r\\n        userList...\n      JUMP \t\t\tn] = usr_;\\r\\n        userList...\n    tag 323\t\t\tn] = usr_;\\r\\n        userList...\n      JUMPDEST \t\t\tn] = usr_;\\r\\n        userList...\n      PUSH 40\t\t\tn] = usr_;\\r\\n        userList...\n      MLOAD \t\t\tn] = usr_;\\r\\n        userList...\n      DUP1 \t\t\tn] = usr_;\\r\\n        userList...\n      SWAP2 \t\t\tn] = usr_;\\r\\n        userList...\n      SUB \t\t\tn] = usr_;\\r\\n        userList...\n      SWAP1 \t\t\tn] = usr_;\\r\\n        userList...\n      REVERT \t\t\tn] = usr_;\\r\\n        userList...\n    tag 322\t\t\tn] = usr_;\\r\\n        userList...\n      JUMPDEST \t\t\tn] = usr_;\\r\\n        userList...\n      PUSH 0\t\t\ti\n      PUSH FFFFFFFFFFFFFFFFFFFFFFFFFFFFFFFFFFFFFFFF\t\t\tfier isAdmin() {\\r\\n        re...\n      AND \t\t\tfier isAdmin() {\\r\\n        re...\n      PUSH 1\t\t\tfier isAd\n      PUSH 0\t\t\tfier isAdmin()\n      DUP4 \t\t\tin(\n      PUSH FFFFFFFFFFFFFFFFFFFFFFFFFFFFFFFFFFFFFFFF\t\t\tfier isAdmin()\n      AND \t\t\tfier isAdmin()\n      PUSH FFFFFFFFFFFFFFFFFFFFFFFFFFFFFFFFFFFFFFFF\t\t\tfier isAdmin()\n      AND \t\t\tfier isAdmin()\n      DUP2 \t\t\tfier isAdmin()\n      MSTORE \t\t\tfier isAdmin()\n      PUSH 20\t\t\tfier isAdmin()\n      ADD \t\t\tfier isAdmin()\n      SWAP1 \t\t\tfier isAdmin()\n      DUP2 \t\t\tfier isAdmin()\n      MSTORE \t\t\tfier isAdmin()\n      PUSH 20\t\t\tfier isAdmin()\n      ADD \t\t\tfier isAdmin()\n      PUSH 0\t\t\tfier isAdmin()\n      KECCAK256 \t\t\tfier isAdmin()\n      PUSH 3\t\t\tfier isAdmin() {\\r\\n\n      ADD \t\t\tfier isAdmin() {\\r\\n\n      PUSH 0\t\t\tfier isAdmin() {\\r\\n\n      SWAP1 \t\t\tfier isAdmin() {\\r\\n\n      SLOAD \t\t\tfier isAdmin() {\\r\\n\n      SWAP1 \t\t\tfier isAdmin() {\\r\\n\n      PUSH 100\t\t\tfier isAdmin() {\\r\\n\n      EXP \t\t\tfier isAdmin() {\\r\\n\n      SWAP1 \t\t\tfier isAdmin() {\\r\\n\n      DIV \t\t\tfier isAdmin() {\\r\\n\n      PUSH FFFFFFFFFFFFFFFFFFFFFFFFFFFFFFFFFFFFFFFF\t\t\tfier isAdmin() {\\r\\n\n      AND \t\t\tfier isAdmin() {\\r\\n\n      PUSH FFFFFFFFFFFFFFFFFFFFFFFFFFFFFFFFFFFFFFFF\t\t\tfier isAdmin() {\\r\\n        re...\n      AND \t\t\tfier isAdmin() {\\r\\n        re...\n      SUB \t\t\tfier isAdmin() {\\r\\n        re...\n      PUSH [tag] 324\t\t\t    modifier isAdmin() {\\r\\n  ...\n      JUMPI \t\t\t    modifier isAdmin() {\\r\\n  ...\n      PUSH 40\t\t\t    modifier isAdmin() {\\r\\n  ...\n      MLOAD \t\t\t    modifier isAdmin() {\\r\\n  ...\n      PUSH 8C379A000000000000000000000000000000000000000000000000000000000\t\t\t    modifier isAdmin() {\\r\\n  ...\n      DUP2 \t\t\t    modifier isAdmin() {\\r\\n  ...\n      MSTORE \t\t\t    modifier isAdmin() {\\r\\n  ...\n      PUSH 4\t\t\t    modifier isAdmin() {\\r\\n  ...\n      ADD \t\t\t    modifier isAdmin() {\\r\\n  ...\n      PUSH [tag] 325\t\t\t    modifier isAdmin() {\\r\\n  ...\n      SWAP1 \t\t\t    modifier isAdmin() {\\r\\n  ...\n      PUSH [tag] 110\t\t\t    modifier isAdmin() {\\r\\n  ...\n      JUMP \t\t\t    modifier isAdmin() {\\r\\n  ...\n    tag 325\t\t\t    modifier isAdmin() {\\r\\n  ...\n      JUMPDEST \t\t\t    modifier isAdmin() {\\r\\n  ...\n      PUSH 40\t\t\t    modifier isAdmin() {\\r\\n  ...\n      MLOAD \t\t\t    modifier isAdmin() {\\r\\n  ...\n      DUP1 \t\t\t    modifier isAdmin() {\\r\\n  ...\n      SWAP2 \t\t\t    modifier isAdmin() {\\r\\n  ...\n      SUB \t\t\t    modifier isAdmin() {\\r\\n  ...\n      SWAP1 \t\t\t    modifier isAdmin() {\\r\\n  ...\n      REVERT \t\t\t    modifier isAdmin() {\\r\\n  ...\n    tag 324\t\t\t    modifier isAdmin() {\\r\\n  ...\n      JUMPDEST \t\t\t    modifier isAdmin() {\\r\\n  ...\n      PUSH [tag] 326\t\t\t      _;\\r\\n    }\\r\\n\\r\\n    f...\n      PUSH 1\t\t\tfunction \n      PUSH 0\t\t\tfunction kycRe\n      DUP4 \t\t\tycR\n      PUSH FFFFFFFFFFFFFFFFFFFFFFFFFFFFFFFFFFFFFFFF\t\t\tfunction kycRe\n      AND \t\t\tfunction kycRe\n      PUSH FFFFFFFFFFFFFFFFFFFFFFFFFFFFFFFFFFFFFFFF\t\t\tfunction kycRe\n      AND \t\t\tfunction kycRe\n      DUP2 \t\t\tfunction kycRe\n      MSTORE \t\t\tfunction kycRe\n      PUSH 20\t\t\tfunction kycRe\n      ADD \t\t\tfunction kycRe\n      SWAP1 \t\t\tfunction kycRe\n      DUP2 \t\t\tfunction kycRe\n      MSTORE \t\t\tfunction kycRe\n      PUSH 20\t\t\tfunction kycRe\n      ADD \t\t\tfunction kycRe\n      PUSH 0\t\t\tfunction kycRe\n      KECCAK256 \t\t\tfunction kycRe\n      PUSH 1\t\t\tfunction kycRequestE\n      ADD \t\t\tfunction kycRequestE\n      DUP1 \t\t\t      _;\\r\\n    }\\r\\n\\r\\n    f...\n      SLOAD \t\t\t      _;\\r\\n    }\\r\\n\\r\\n    f...\n      PUSH [tag] 327\t\t\t      _;\\r\\n    }\\r\\n\\r\\n    f...\n      SWAP1 \t\t\t      _;\\r\\n    }\\r\\n\\r\\n    f...\n      PUSH [tag] 113\t\t\t      _;\\r\\n    }\\r\\n\\r\\n    f...\n      JUMP \t\t\t      _;\\r\\n    }\\r\\n\\r\\n    f...\n    tag 327\t\t\t      _;\\r\\n    }\\r\\n\\r\\n    f...\n      JUMPDEST \t\t\t      _;\\r\\n    }\\r\\n\\r\\n    f...\n      DUP1 \t\t\t      _;\\r\\n    }\\r\\n\\r\\n    f...\n      PUSH 1F\t\t\t      _;\\r\\n    }\\r\\n\\r\\n    f...\n      ADD \t\t\t      _;\\r\\n    }\\r\\n\\r\\n    f...\n      PUSH 20\t\t\t      _;\\r\\n    }\\r\\n\\r\\n    f...\n      DUP1 \t\t\t      _;\\r\\n    }\\r\\n\\r\\n    f...\n      SWAP2 \t\t\t      _;\\r\\n    }\\r\\n\\r\\n    f...\n      DIV \t\t\t      _;\\r\\n    }\\r\\n\\r\\n    f...\n      MUL \t\t\t      _;\\r\\n    }\\r\\n\\r\\n    f...\n      PUSH 20\t\t\t      _;\\r\\n    }\\r\\n\\r\\n    f...\n      ADD \t\t\t      _;\\r\\n    }\\r\\n\\r\\n    f...\n      PUSH 40\t\t\t      _;\\r\\n    }\\r\\n\\r\\n    f...\n      MLOAD \t\t\t      _;\\r\\n    }\\r\\n\\r\\n    f...\n      SWAP1 \t\t\t      _;\\r\\n    }\\r\\n\\r\\n    f...\n      DUP2 \t\t\t      _;\\r\\n    }\\r\\n\\r\\n    f...\n      ADD \t\t\t      _;\\r\\n    }\\r\\n\\r\\n    f...\n      PUSH 40\t\t\t      _;\\r\\n    }\\r\\n\\r\\n    f...\n      MSTORE \t\t\t      _;\\r\\n    }\\r\\n\\r\\n    f...\n      DUP1 \t\t\t      _;\\r\\n    }\\r\\n\\r\\n    f...\n      SWAP3 \t\t\t      _;\\r\\n    }\\r\\n\\r\\n    f...\n      SWAP2 \t\t\t      _;\\r\\n    }\\r\\n\\r\\n    f...\n      SWAP1 \t\t\t      _;\\r\\n    }\\r\\n\\r\\n    f...\n      DUP2 \t\t\t      _;\\r\\n    }\\r\\n\\r\\n    f...\n      DUP2 \t\t\t      _;\\r\\n    }\\r\\n\\r\\n    f...\n      MSTORE \t\t\t      _;\\r\\n    }\\r\\n\\r\\n    f...\n      PUSH 20\t\t\t      _;\\r\\n    }\\r\\n\\r\\n    f...\n      ADD \t\t\t      _;\\r\\n    }\\r\\n\\r\\n    f...\n      DUP3 \t\t\t      _;\\r\\n    }\\r\\n\\r\\n    f...\n      DUP1 \t\t\t      _;\\r\\n    }\\r\\n\\r\\n    f...\n      SLOAD \t\t\t      _;\\r\\n    }\\r\\n\\r\\n    f...\n      PUSH [tag] 328\t\t\t      _;\\r\\n    }\\r\\n\\r\\n    f...\n      SWAP1 \t\t\t      _;\\r\\n    }\\r\\n\\r\\n    f...\n      PUSH [tag] 113\t\t\t      _;\\r\\n    }\\r\\n\\r\\n    f...\n      JUMP \t\t\t      _;\\r\\n    }\\r\\n\\r\\n    f...\n    tag 328\t\t\t      _;\\r\\n    }\\r\\n\\r\\n    f...\n      JUMPDEST \t\t\t      _;\\r\\n    }\\r\\n\\r\\n    f...\n      DUP1 \t\t\t      _;\\r\\n    }\\r\\n\\r\\n    f...\n      ISZERO \t\t\t      _;\\r\\n    }\\r\\n\\r\\n    f...\n      PUSH [tag] 329\t\t\t      _;\\r\\n    }\\r\\n\\r\\n    f...\n      JUMPI \t\t\t      _;\\r\\n    }\\r\\n\\r\\n    f...\n      DUP1 \t\t\t      _;\\r\\n    }\\r\\n\\r\\n    f...\n      PUSH 1F\t\t\t      _;\\r\\n    }\\r\\n\\r\\n    f...\n      LT \t\t\t      _;\\r\\n    }\\r\\n\\r\\n    f...\n      PUSH [tag] 330\t\t\t      _;\\r\\n    }\\r\\n\\r\\n    f...\n      JUMPI \t\t\t      _;\\r\\n    }\\r\\n\\r\\n    f...\n      PUSH 100\t\t\t      _;\\r\\n    }\\r\\n\\r\\n    f...\n      DUP1 \t\t\t      _;\\r\\n    }\\r\\n\\r\\n    f...\n      DUP4 \t\t\t      _;\\r\\n    }\\r\\n\\r\\n    f...\n      SLOAD \t\t\t      _;\\r\\n    }\\r\\n\\r\\n    f...\n      DIV \t\t\t      _;\\r\\n    }\\r\\n\\r\\n    f...\n      MUL \t\t\t      _;\\r\\n    }\\r\\n\\r\\n    f...\n      DUP4 \t\t\t      _;\\r\\n    }\\r\\n\\r\\n    f...\n      MSTORE \t\t\t      _;\\r\\n    }\\r\\n\\r\\n    f...\n      SWAP2 \t\t\t      _;\\r\\n    }\\r\\n\\r\\n    f...\n      PUSH 20\t\t\t      _;\\r\\n    }\\r\\n\\r\\n    f...\n      ADD \t\t\t      _;\\r\\n    }\\r\\n\\r\\n    f...\n      SWAP2 \t\t\t      _;\\r\\n    }\\r\\n\\r\\n    f...\n      PUSH [tag] 329\t\t\t      _;\\r\\n    }\\r\\n\\r\\n    f...\n      JUMP \t\t\t      _;\\r\\n    }\\r\\n\\r\\n    f...\n    tag 330\t\t\t      _;\\r\\n    }\\r\\n\\r\\n    f...\n      JUMPDEST \t\t\t      _;\\r\\n    }\\r\\n\\r\\n    f...\n      DUP3 \t\t\t      _;\\r\\n    }\\r\\n\\r\\n    f...\n      ADD \t\t\t      _;\\r\\n    }\\r\\n\\r\\n    f...\n      SWAP2 \t\t\t      _;\\r\\n    }\\r\\n\\r\\n    f...\n      SWAP1 \t\t\t      _;\\r\\n    }\\r\\n\\r\\n    f...\n      PUSH 0\t\t\t      _;\\r\\n    }\\r\\n\\r\\n    f...\n      MSTORE \t\t\t      _;\\r\\n    }\\r\\n\\r\\n    f...\n      PUSH 20\t\t\t      _;\\r\\n    }\\r\\n\\r\\n    f...\n      PUSH 0\t\t\t      _;\\r\\n    }\\r\\n\\r\\n    f...\n      KECCAK256 \t\t\t      _;\\r\\n    }\\r\\n\\r\\n    f...\n      SWAP1 \t\t\t      _;\\r\\n    }\\r\\n\\r\\n    f...\n    tag 331\t\t\t      _;\\r\\n    }\\r\\n\\r\\n    f...\n      JUMPDEST \t\t\t      _;\\r\\n    }\\r\\n\\r\\n    f...\n      DUP2 \t\t\t      _;\\r\\n    }\\r\\n\\r\\n    f...\n      SLOAD \t\t\t      _;\\r\\n    }\\r\\n\\r\\n    f...\n      DUP2 \t\t\t      _;\\r\\n    }\\r\\n\\r\\n    f...\n      MSTORE \t\t\t      _;\\r\\n    }\\r\\n\\r\\n    f...\n      SWAP1 \t\t\t      _;\\r\\n    }\\r\\n\\r\\n    f...\n      PUSH 1\t\t\t      _;\\r\\n    }\\r\\n\\r\\n    f...\n      ADD \t\t\t      _;\\r\\n    }\\r\\n\\r\\n    f...\n      SWAP1 \t\t\t      _;\\r\\n    }\\r\\n\\r\\n    f...\n      PUSH 20\t\t\t      _;\\r\\n    }\\r\\n\\r\\n    f...\n      ADD \t\t\t      _;\\r\\n    }\\r\\n\\r\\n    f...\n      DUP1 \t\t\t      _;\\r\\n    }\\r\\n\\r\\n    f...\n      DUP4 \t\t\t      _;\\r\\n    }\\r\\n\\r\\n    f...\n      GT \t\t\t      _;\\r\\n    }\\r\\n\\r\\n    f...\n      PUSH [tag] 331\t\t\t      _;\\r\\n    }\\r\\n\\r\\n    f...\n      JUMPI \t\t\t      _;\\r\\n    }\\r\\n\\r\\n    f...\n      DUP3 \t\t\t      _;\\r\\n    }\\r\\n\\r\\n    f...\n      SWAP1 \t\t\t      _;\\r\\n    }\\r\\n\\r\\n    f...\n      SUB \t\t\t      _;\\r\\n    }\\r\\n\\r\\n    f...\n      PUSH 1F\t\t\t      _;\\r\\n    }\\r\\n\\r\\n    f...\n      AND \t\t\t      _;\\r\\n    }\\r\\n\\r\\n    f...\n      DUP3 \t\t\t      _;\\r\\n    }\\r\\n\\r\\n    f...\n      ADD \t\t\t      _;\\r\\n    }\\r\\n\\r\\n    f...\n      SWAP2 \t\t\t      _;\\r\\n    }\\r\\n\\r\\n    f...\n    tag 329\t\t\t      _;\\r\\n    }\\r\\n\\r\\n    f...\n      JUMPDEST \t\t\t      _;\\r\\n    }\\r\\n\\r\\n    f...\n      POP \t\t\t      _;\\r\\n    }\\r\\n\\r\\n    f...\n      POP \t\t\t      _;\\r\\n    }\\r\\n\\r\\n    f...\n      POP \t\t\t      _;\\r\\n    }\\r\\n\\r\\n    f...\n      POP \t\t\t      _;\\r\\n    }\\r\\n\\r\\n    f...\n      POP \t\t\t      _;\\r\\n    }\\r\\n\\r\\n    f...\n      PUSH 40\t\t\t      _;\\r\\n    }\\r\\n\\r\\n    f...\n      MLOAD \t\t\t      _;\\r\\n    }\\r\\n\\r\\n    f...\n      DUP1 \t\t\t      _;\\r\\n    }\\r\\n\\r\\n    f...\n      PUSH 20\t\t\t      _;\\r\\n    }\\r\\n\\r\\n    f...\n      ADD \t\t\t      _;\\r\\n    }\\r\\n\\r\\n    f...\n      PUSH 40\t\t\t      _;\\r\\n    }\\r\\n\\r\\n    f...\n      MSTORE \t\t\t      _;\\r\\n    }\\r\\n\\r\\n    f...\n      DUP1 \t\t\t      _;\\r\\n    }\\r\\n\\r\\n    f...\n      PUSH 0\t\t\t      _;\\r\\n    }\\r\\n\\r\\n    f...\n      DUP2 \t\t\t      _;\\r\\n    }\\r\\n\\r\\n    f...\n      MSTORE \t\t\t      _;\\r\\n    }\\r\\n\\r\\n    f...\n      POP \t\t\t      _;\\r\\n    }\\r\\n\\r\\n    f...\n      PUSH [tag] 118\t\t\t      _;\\r\\n    }\\r\\n\\r\\n   \n      JUMP \t\t\t      _;\\r\\n    }\\r\\n\\r\\n    f...\n    tag 326\t\t\t      _;\\r\\n    }\\r\\n\\r\\n    f...\n      JUMPDEST \t\t\t      _;\\r\\n    }\\r\\n\\r\\n    f...\n      ISZERO \t\t\t       _;\\r\\n    }\\r\\n\\r\\n    ...\n      PUSH [tag] 332\t\t\tadmin is allowed\");\\r\\n       ...\n      JUMPI \t\t\tadmin is allowed\");\\r\\n       ...\n      PUSH 40\t\t\tadmin is allowed\");\\r\\n       ...\n      MLOAD \t\t\tadmin is allowed\");\\r\\n       ...\n      PUSH 8C379A000000000000000000000000000000000000000000000000000000000\t\t\tadmin is allowed\");\\r\\n       ...\n      DUP2 \t\t\tadmin is allowed\");\\r\\n       ...\n      MSTORE \t\t\tadmin is allowed\");\\r\\n       ...\n      PUSH 4\t\t\tadmin is allowed\");\\r\\n       ...\n      ADD \t\t\tadmin is allowed\");\\r\\n       ...\n      PUSH [tag] 333\t\t\tadmin is allowed\");\\r\\n       ...\n      SWAP1 \t\t\tadmin is allowed\");\\r\\n       ...\n      PUSH [tag] 121\t\t\tadmin is allowed\");\\r\\n       ...\n      JUMP \t\t\tadmin is allowed\");\\r\\n       ...\n    tag 333\t\t\tadmin is allowed\");\\r\\n       ...\n      JUMPDEST \t\t\tadmin is allowed\");\\r\\n       ...\n      PUSH 40\t\t\tadmin is allowed\");\\r\\n       ...\n      MLOAD \t\t\tadmin is allowed\");\\r\\n       ...\n      DUP1 \t\t\tadmin is allowed\");\\r\\n       ...\n      SWAP2 \t\t\tadmin is allowed\");\\r\\n       ...\n      SUB \t\t\tadmin is allowed\");\\r\\n       ...\n      SWAP1 \t\t\tadmin is allowed\");\\r\\n       ...\n      REVERT \t\t\tadmin is allowed\");\\r\\n       ...\n    tag 332\t\t\tadmin is allowed\");\\r\\n       ...\n      JUMPDEST \t\t\tadmin is allowed\");\\r\\n       ...\n      PUSH 0\t\t\tstring memory reqId_\n      PUSH [tag] 335\t\t\tHelpers.append(bankId_, msg.se...\n      DUP5 \t\t\tbankId_\n      CALLER \t\t\tmsg.sender\n      PUSH [tag] 157\t\t\tHelpers.append\n      JUMP \t\t\tHelpers.append(bankId_, msg.se...\n    tag 335\t\t\tHelpers.append(bankId_, msg.se...\n      JUMPDEST \t\t\tHelpers.append(bankId_, msg.se...\n      SWAP1 \t\t\tstring memory reqId_ = Helpers...\n      POP \t\t\tstring memory reqId_ = Helpers...\n      PUSH [tag] 336\t\t\tkycRequestExists(reqId_)\n      DUP2 \t\t\treqId_\n      PUSH [tag] 159\t\t\tkycRequestExists\n      JUMP \t\t\tkycRequestExists(reqId_)\n    tag 336\t\t\tkycRequestExists(reqId_)\n      JUMPDEST \t\t\tkycRequestExists(reqId_)\n      PUSH [tag] 337\t\t\trequire(kycRequestExists(reqId...\n      JUMPI \t\t\trequire(kycRequestExists(reqId...\n      PUSH 40\t\t\trequire(kycRequestExists(reqId...\n      MLOAD \t\t\trequire(kycRequestExists(reqId...\n      PUSH 8C379A000000000000000000000000000000000000000000000000000000000\t\t\trequire(kycRequestExists(reqId...\n      DUP2 \t\t\trequire(kycRequestExists(reqId...\n      MSTORE \t\t\trequire(kycRequestExists(reqId...\n      PUSH 4\t\t\trequire(kycRequestExists(reqId...\n      ADD \t\t\trequire(kycRequestExists(reqId...\n      PUSH [tag] 338\t\t\trequire(kycRequestExists(reqId...\n      SWAP1 \t\t\trequire(kycRequestExists(reqId...\n      PUSH [tag] 339\t\t\trequire(kycRequestExists(reqId...\n      JUMP \t\t\trequire(kycRequestExists(reqId...\n    tag 338\t\t\trequire(kycRequestExists(reqId...\n      JUMPDEST \t\t\trequire(kycRequestExists(reqId...\n      PUSH 40\t\t\trequire(kycRequestExists(reqId...\n      MLOAD \t\t\trequire(kycRequestExists(reqId...\n      DUP1 \t\t\trequire(kycRequestExists(reqId...\n      SWAP2 \t\t\trequire(kycRequestExists(reqId...\n      SUB \t\t\trequire(kycRequestExists(reqId...\n      SWAP1 \t\t\trequire(kycRequestExists(reqId...\n      REVERT \t\t\trequire(kycRequestExists(reqId...\n    tag 337\t\t\trequire(kycRequestExists(reqId...\n      JUMPDEST \t\t\trequire(kycRequestExists(reqId...\n      PUSH 2\t\t\tTypes.DataHashStatus.Rejected\n      PUSH 7\t\t\tkycRequests\n      DUP3 \t\t\treqId_\n      PUSH 40\t\t\tkycRequests[reqId_]\n      MLOAD \t\t\tkycRequests[reqId_]\n      PUSH [tag] 340\t\t\tkycRequests[reqId_]\n      SWAP2 \t\t\tkycRequests[reqId_]\n      SWAP1 \t\t\tkycRequests[reqId_]\n      PUSH [tag] 169\t\t\tkycRequests[reqId_]\n      JUMP \t\t\tkycRequests[reqId_]\n    tag 340\t\t\tkycRequests[reqId_]\n      JUMPDEST \t\t\tkycRequests[reqId_]\n      SWAP1 \t\t\tkycRequests[reqId_]\n      DUP2 \t\t\tkycRequests[reqId_]\n      MSTORE \t\t\tkycRequests[reqId_]\n      PUSH 20\t\t\tkycRequests[reqId_]\n      ADD \t\t\tkycRequests[reqId_]\n      PUSH 40\t\t\tkycRequests[reqId_]\n      MLOAD \t\t\tkycRequests[reqId_]\n      DUP1 \t\t\tkycRequests[reqId_]\n      SWAP2 \t\t\tkycRequests[reqId_]\n      SUB \t\t\tkycRequests[reqId_]\n      SWAP1 \t\t\tkycRequests[reqId_]\n      KECCAK256 \t\t\tkycRequests[reqId_]\n      PUSH 7\t\t\tkycRequests[reqId_].dataReques...\n      ADD \t\t\tkycRequests[reqId_].dataReques...\n      PUSH 1\t\t\tkycRequests[reqId_].dataReques...\n      PUSH 100\t\t\tkycRequests[reqId_].dataReques...\n      EXP \t\t\tkycRequests[reqId_].dataReques...\n      DUP2 \t\t\tkycRequests[reqId_].dataReques...\n      SLOAD \t\t\tkycRequests[reqId_].dataReques...\n      DUP2 \t\t\tkycRequests[reqId_].dataReques...\n      PUSH FF\t\t\tkycRequests[reqId_].dataReques...\n      MUL \t\t\tkycRequests[reqId_].dataReques...\n      NOT \t\t\tkycRequests[reqId_].dataReques...\n      AND \t\t\tkycRequests[reqId_].dataReques...\n      SWAP1 \t\t\tkycRequests[reqId_].dataReques...\n      DUP4 \t\t\tkycRequests[reqId_].dataReques...\n      PUSH 2\t\t\tkycRequests[reqId_].dataReques...\n      DUP2 \t\t\tkycRequests[reqId_].dataReques...\n      GT \t\t\tkycRequests[reqId_].dataReques...\n      ISZERO \t\t\tkycRequests[reqId_].dataReques...\n      PUSH [tag] 341\t\t\tkycRequests[reqId_].dataReques...\n      JUMPI \t\t\tkycRequests[reqId_].dataReques...\n      PUSH [tag] 342\t\t\tkycRequests[reqId_].dataReques...\n      PUSH [tag] 135\t\t\tkycRequests[reqId_].dataReques...\n      JUMP \t\t\tkycRequests[reqId_].dataReques...\n    tag 342\t\t\tkycRequests[reqId_].dataReques...\n      JUMPDEST \t\t\tkycRequests[reqId_].dataReques...\n    tag 341\t\t\tkycRequests[reqId_].dataReques...\n      JUMPDEST \t\t\tkycRequests[reqId_].dataReques...\n      MUL \t\t\tkycRequests[reqId_].dataReques...\n      OR \t\t\tkycRequests[reqId_].dataReques...\n      SWAP1 \t\t\tkycRequests[reqId_].dataReques...\n      SSTORE \t\t\tkycRequests[reqId_].dataReques...\n      POP \t\t\tkycRequests[reqId_].dataReques...\n      DUP3 \t\t\tnotes_\n      PUSH 7\t\t\tkycRequests\n      DUP3 \t\t\treqId_\n      PUSH 40\t\t\tkycRequests[reqId_]\n      MLOAD \t\t\tkycRequests[reqId_]\n      PUSH [tag] 343\t\t\tkycRequests[reqId_]\n      SWAP2 \t\t\tkycRequests[reqId_]\n      SWAP1 \t\t\tkycRequests[reqId_]\n      PUSH [tag] 169\t\t\tkycRequests[reqId_]\n      JUMP \t\t\tkycRequests[reqId_]\n    tag 343\t\t\tkycRequests[reqId_]\n      JUMPDEST \t\t\tkycRequests[reqId_]\n      SWAP1 \t\t\tkycRequests[reqId_]\n      DUP2 \t\t\tkycRequests[reqId_]\n      MSTORE \t\t\tkycRequests[reqId_]\n      PUSH 20\t\t\tkycRequests[reqId_]\n      ADD \t\t\tkycRequests[reqId_]\n      PUSH 40\t\t\tkycRequests[reqId_]\n      MLOAD \t\t\tkycRequests[reqId_]\n      DUP1 \t\t\tkycRequests[reqId_]\n      SWAP2 \t\t\tkycRequests[reqId_]\n      SUB \t\t\tkycRequests[reqId_]\n      SWAP1 \t\t\tkycRequests[reqId_]\n      KECCAK256 \t\t\tkycRequests[reqId_]\n      PUSH 8\t\t\tkycRequests[reqId_].additional...\n      ADD \t\t\tkycRequests[reqId_].additional...\n      SWAP1 \t\t\tkycRequests[reqId_].additional...\n      DUP2 \t\t\tkycRequests[reqId_].additional...\n      PUSH [tag] 344\t\t\tkycRequests[reqId_].additional...\n      SWAP2 \t\t\tkycRequests[reqId_].additional...\n      SWAP1 \t\t\tkycRequests[reqId_].additional...\n      PUSH [tag] 174\t\t\tkycRequests[reqId_].additional...\n      JUMP \t\t\tkycRequests[reqId_].additional...\n    tag 344\t\t\tkycRequests[reqId_].additional...\n      JUMPDEST \t\t\tkycRequests[reqId_].additional...\n      POP \t\t\tkycRequests[reqId_].additional...\n      PUSH 9A3F3F9DE5AC964F84F08C6124F7B844FFD73DE3FD4B472EB59F6B68E5729A81\t\t\tDataHashPermissionChanged(\\r\\n...\n      DUP2 \t\t\treqId_\n      CALLER \t\t\tmsg.sender\n      DUP7 \t\t\tbankId_\n      PUSH 2\t\t\tTypes.DataHashStatus.Rejected\n      PUSH 40\t\t\tDataHashPermissionChanged(\\r\\n...\n      MLOAD \t\t\tDataHashPermissionChanged(\\r\\n...\n      PUSH [tag] 345\t\t\tDataHashPermissionChanged(\\r\\n...\n      SWAP5 \t\t\tDataHashPermissionChanged(\\r\\n...\n      SWAP4 \t\t\tDataHashPermissionChanged(\\r\\n...\n      SWAP3 \t\t\tDataHashPermissionChanged(\\r\\n...\n      SWAP2 \t\t\tDataHashPermissionChanged(\\r\\n...\n      SWAP1 \t\t\tDataHashPermissionChanged(\\r\\n...\n      PUSH [tag] 312\t\t\tDataHashPermissionChanged(\\r\\n...\n      JUMP \t\t\tDataHashPermissionChanged(\\r\\n...\n    tag 345\t\t\tDataHashPermissionChanged(\\r\\n...\n      JUMPDEST \t\t\tDataHashPermissionChanged(\\r\\n...\n      PUSH 40\t\t\tDataHashPermissionChanged(\\r\\n...\n      MLOAD \t\t\tDataHashPermissionChanged(\\r\\n...\n      DUP1 \t\t\tDataHashPermissionChanged(\\r\\n...\n      SWAP2 \t\t\tDataHashPermissionChanged(\\r\\n...\n      SUB \t\t\tDataHashPermissionChanged(\\r\\n...\n      SWAP1 \t\t\tDataHashPermissionChanged(\\r\\n...\n      LOG1 \t\t\tDataHashPermissionChanged(\\r\\n...\n      POP \t\t\t{\\r\\n        string memory req...\n      POP \t\t\tfunction removerDatahashPermis...\n      POP \t\t\tfunction removerDatahashPermis...\n      POP \t\t\tfunction removerDatahashPermis...\n      JUMP \t\t\tfunction removerDatahashPermis...\n    tag 62\t\t\tfunction getAllBanks(uint256 p...\n      JUMPDEST \t\t\tfunction getAllBanks(uint256 p...\n      PUSH 0\t\t\tuint256 totalPages\n      PUSH 60\t\t\tTypes.Bank[] memory\n      PUSH 4\t\t\tadmin\n      PUSH 0\t\t\tadmin\n      SWAP1 \t\t\tadmin\n      SLOAD \t\t\tadmin\n      SWAP1 \t\t\tadmin\n      PUSH 100\t\t\tadmin\n      EXP \t\t\tadmin\n      SWAP1 \t\t\tadmin\n      DIV \t\t\tadmin\n      PUSH FFFFFFFFFFFFFFFFFFFFFFFFFFFFFFFFFFFFFFFF\t\t\tadmin\n      AND \t\t\tadmin\n      PUSH FFFFFFFFFFFFFFFFFFFFFFFFFFFFFFFFFFFFFFFF\t\t\tmsg.sender == admin\n      AND \t\t\tmsg.sender == admin\n      CALLER \t\t\tmsg.sender\n      PUSH FFFFFFFFFFFFFFFFFFFFFFFFFFFFFFFFFFFFFFFF\t\t\tmsg.sender == admin\n      AND \t\t\tmsg.sender == admin\n      EQ \t\t\tmsg.sender == admin\n      PUSH [tag] 347\t\t\trequire(msg.sender == admin, \"...\n      JUMPI \t\t\trequire(msg.sender == admin, \"...\n      PUSH 40\t\t\trequire(msg.sender == admin, \"...\n      MLOAD \t\t\trequire(msg.sender == admin, \"...\n      PUSH 8C379A000000000000000000000000000000000000000000000000000000000\t\t\trequire(msg.sender == admin, \"...\n      DUP2 \t\t\trequire(msg.sender == admin, \"...\n      MSTORE \t\t\trequire(msg.sender == admin, \"...\n      PUSH 4\t\t\trequire(msg.sender == admin, \"...\n      ADD \t\t\trequire(msg.sender == admin, \"...\n      PUSH [tag] 348\t\t\trequire(msg.sender == admin, \"...\n      SWAP1 \t\t\trequire(msg.sender == admin, \"...\n      PUSH [tag] 182\t\t\trequire(msg.sender == admin, \"...\n      JUMP \t\t\trequire(msg.sender == admin, \"...\n    tag 348\t\t\trequire(msg.sender == admin, \"...\n      JUMPDEST \t\t\trequire(msg.sender == admin, \"...\n      PUSH 40\t\t\trequire(msg.sender == admin, \"...\n      MLOAD \t\t\trequire(msg.sender == admin, \"...\n      DUP1 \t\t\trequire(msg.sender == admin, \"...\n      SWAP2 \t\t\trequire(msg.sender == admin, \"...\n      SUB \t\t\trequire(msg.sender == admin, \"...\n      SWAP1 \t\t\trequire(msg.sender == admin, \"...\n      REVERT \t\t\trequire(msg.sender == admin, \"...\n    tag 347\t\t\trequire(msg.sender == admin, \"...\n      JUMPDEST \t\t\trequire(msg.sender == admin, \"...\n      PUSH [tag] 350\t\t\tgetallbanks(pageNumber)\n      DUP4 \t\t\tpageNumber\n      PUSH [tag] 351\t\t\tgetallbanks\n      JUMP \t\t\tgetallbanks(pageNumber)\n    tag 350\t\t\tgetallbanks(pageNumber)\n      JUMPDEST \t\t\tgetallbanks(pageNumber)\n      SWAP2 \t\t\treturn getallbanks(pageNumber)\n      POP \t\t\treturn getallbanks(pageNumber)\n      SWAP2 \t\t\treturn getallbanks(pageNumber)\n      POP \t\t\treturn getallbanks(pageNumber)\n      SWAP2 \t\t\tfunction getAllBanks(uint256 p...\n      POP \t\t\tfunction getAllBanks(uint256 p...\n      SWAP2 \t\t\tfunction getAllBanks(uint256 p...\n      JUMP \t\t\tfunction getAllBanks(uint256 p...\n    tag 67\t\t\tfunction searchCustomers(addre...\n      JUMPDEST \t\t\tfunction searchCustomers(addre...\n      PUSH 0\t\t\tbool\n      PUSH [tag] 352\t\t\tTypes.Customer memory\n      PUSH [tag] 103\t\t\tTypes.Customer memory\n      JUMP \t\t\tTypes.Customer memory\n    tag 352\t\t\tTypes.Customer memory\n      JUMPDEST \t\t\tTypes.Customer memory\n      PUSH [tag] 353\t\t\tTypes.KycRequest memory\n      PUSH [tag] 199\t\t\tTypes.KycRequest memory\n      JUMP \t\t\tTypes.KycRequest memory\n    tag 353\t\t\tTypes.KycRequest memory\n      JUMPDEST \t\t\tTypes.KycRequest memory\n      DUP4 \t\t\tid_\n      PUSH 0\t\t\tr\n      PUSH FFFFFFFFFFFFFFFFFFFFFFFFFFFFFFFFFFFFFFFF\t\t\t_;\\r\\n        userL\n      AND \t\t\t_;\\r\\n        userL\n      DUP2 \t\t\t_;\\r\n      PUSH FFFFFFFFFFFFFFFFFFFFFFFFFFFFFFFFFFFFFFFF\t\t\t_;\\r\\n        userL\n      AND \t\t\t_;\\r\\n        userL\n      SUB \t\t\t_;\\r\\n        userL\n      PUSH [tag] 355\t\t\tn] = usr_;\\r\\n        userList...\n      JUMPI \t\t\tn] = usr_;\\r\\n        userList...\n      PUSH 40\t\t\tn] = usr_;\\r\\n        userList...\n      MLOAD \t\t\tn] = usr_;\\r\\n        userList...\n      PUSH 8C379A000000000000000000000000000000000000000000000000000000000\t\t\tn] = usr_;\\r\\n        userList...\n      DUP2 \t\t\tn] = usr_;\\r\\n        userList...\n      MSTORE \t\t\tn] = usr_;\\r\\n        userList...\n      PUSH 4\t\t\tn] = usr_;\\r\\n        userList...\n      ADD \t\t\tn] = usr_;\\r\\n        userList...\n      PUSH [tag] 356\t\t\tn] = usr_;\\r\\n        userList...\n      SWAP1 \t\t\tn] = usr_;\\r\\n        userList...\n      PUSH [tag] 107\t\t\tn] = usr_;\\r\\n        userList...\n      JUMP \t\t\tn] = usr_;\\r\\n        userList...\n    tag 356\t\t\tn] = usr_;\\r\\n        userList...\n      JUMPDEST \t\t\tn] = usr_;\\r\\n        userList...\n      PUSH 40\t\t\tn] = usr_;\\r\\n        userList...\n      MLOAD \t\t\tn] = usr_;\\r\\n        userList...\n      DUP1 \t\t\tn] = usr_;\\r\\n        userList...\n      SWAP2 \t\t\tn] = usr_;\\r\\n        userList...\n      SUB \t\t\tn] = usr_;\\r\\n        userList...\n      SWAP1 \t\t\tn] = usr_;\\r\\n        userList...\n      REVERT \t\t\tn] = usr_;\\r\\n        userList...\n    tag 355\t\t\tn] = usr_;\\r\\n        userList...\n      JUMPDEST \t\t\tn] = usr_;\\r\\n        userList...\n      PUSH 0\t\t\ti\n      PUSH FFFFFFFFFFFFFFFFFFFFFFFFFFFFFFFFFFFFFFFF\t\t\tfier isAdmin() {\\r\\n        re...\n      AND \t\t\tfier isAdmin() {\\r\\n        re...\n      PUSH 1\t\t\tfier isAd\n      PUSH 0\t\t\tfier isAdmin()\n      DUP4 \t\t\tin(\n      PUSH FFFFFFFFFFFFFFFFFFFFFFFFFFFFFFFFFFFFFFFF\t\t\tfier isAdmin()\n      AND \t\t\tfier isAdmin()\n      PUSH FFFFFFFFFFFFFFFFFFFFFFFFFFFFFFFFFFFFFFFF\t\t\tfier isAdmin()\n      AND \t\t\tfier isAdmin()\n      DUP2 \t\t\tfier isAdmin()\n      MSTORE \t\t\tfier isAdmin()\n      PUSH 20\t\t\tfier isAdmin()\n      ADD \t\t\tfier isAdmin()\n      SWAP1 \t\t\tfier isAdmin()\n      DUP2 \t\t\tfier isAdmin()\n      MSTORE \t\t\tfier isAdmin()\n      PUSH 20\t\t\tfier isAdmin()\n      ADD \t\t\tfier isAdmin()\n      PUSH 0\t\t\tfier isAdmin()\n      KECCAK256 \t\t\tfier isAdmin()\n      PUSH 3\t\t\tfier isAdmin() {\\r\\n\n      ADD \t\t\tfier isAdmin() {\\r\\n\n      PUSH 0\t\t\tfier isAdmin() {\\r\\n\n      SWAP1 \t\t\tfier isAdmin() {\\r\\n\n      SLOAD \t\t\tfier isAdmin() {\\r\\n\n      SWAP1 \t\t\tfier isAdmin() {\\r\\n\n      PUSH 100\t\t\tfier isAdmin() {\\r\\n\n      EXP \t\t\tfier isAdmin() {\\r\\n\n      SWAP1 \t\t\tfier isAdmin() {\\r\\n\n      DIV \t\t\tfier isAdmin() {\\r\\n\n      PUSH FFFFFFFFFFFFFFFFFFFFFFFFFFFFFFFFFFFFFFFF\t\t\tfier isAdmin() {\\r\\n\n      AND \t\t\tfier isAdmin() {\\r\\n\n      PUSH FFFFFFFFFFFFFFFFFFFFFFFFFFFFFFFFFFFFFFFF\t\t\tfier isAdmin() {\\r\\n        re...\n      AND \t\t\tfier isAdmin() {\\r\\n        re...\n      SUB \t\t\tfier isAdmin() {\\r\\n        re...\n      PUSH [tag] 357\t\t\t    modifier isAdmin() {\\r\\n  ...\n      JUMPI \t\t\t    modifier isAdmin() {\\r\\n  ...\n      PUSH 40\t\t\t    modifier isAdmin() {\\r\\n  ...\n      MLOAD \t\t\t    modifier isAdmin() {\\r\\n  ...\n      PUSH 8C379A000000000000000000000000000000000000000000000000000000000\t\t\t    modifier isAdmin() {\\r\\n  ...\n      DUP2 \t\t\t    modifier isAdmin() {\\r\\n  ...\n      MSTORE \t\t\t    modifier isAdmin() {\\r\\n  ...\n      PUSH 4\t\t\t    modifier isAdmin() {\\r\\n  ...\n      ADD \t\t\t    modifier isAdmin() {\\r\\n  ...\n      PUSH [tag] 358\t\t\t    modifier isAdmin() {\\r\\n  ...\n      SWAP1 \t\t\t    modifier isAdmin() {\\r\\n  ...\n      PUSH [tag] 110\t\t\t    modifier isAdmin() {\\r\\n  ...\n      JUMP \t\t\t    modifier isAdmin() {\\r\\n  ...\n    tag 358\t\t\t    modifier isAdmin() {\\r\\n  ...\n      JUMPDEST \t\t\t    modifier isAdmin() {\\r\\n  ...\n      PUSH 40\t\t\t    modifier isAdmin() {\\r\\n  ...\n      MLOAD \t\t\t    modifier isAdmin() {\\r\\n  ...\n      DUP1 \t\t\t    modifier isAdmin() {\\r\\n  ...\n      SWAP2 \t\t\t    modifier isAdmin() {\\r\\n  ...\n      SUB \t\t\t    modifier isAdmin() {\\r\\n  ...\n      SWAP1 \t\t\t    modifier isAdmin() {\\r\\n  ...\n      REVERT \t\t\t    modifier isAdmin() {\\r\\n  ...\n    tag 357\t\t\t    modifier isAdmin() {\\r\\n  ...\n      JUMPDEST \t\t\t    modifier isAdmin() {\\r\\n  ...\n      PUSH [tag] 359\t\t\t      _;\\r\\n    }\\r\\n\\r\\n    f...\n      PUSH 1\t\t\tfunction \n      PUSH 0\t\t\tfunction kycRe\n      DUP4 \t\t\tycR\n      PUSH FFFFFFFFFFFFFFFFFFFFFFFFFFFFFFFFFFFFFFFF\t\t\tfunction kycRe\n      AND \t\t\tfunction kycRe\n      PUSH FFFFFFFFFFFFFFFFFFFFFFFFFFFFFFFFFFFFFFFF\t\t\tfunction kycRe\n      AND \t\t\tfunction kycRe\n      DUP2 \t\t\tfunction kycRe\n      MSTORE \t\t\tfunction kycRe\n      PUSH 20\t\t\tfunction kycRe\n      ADD \t\t\tfunction kycRe\n      SWAP1 \t\t\tfunction kycRe\n      DUP2 \t\t\tfunction kycRe\n      MSTORE \t\t\tfunction kycRe\n      PUSH 20\t\t\tfunction kycRe\n      ADD \t\t\tfunction kycRe\n      PUSH 0\t\t\tfunction kycRe\n      KECCAK256 \t\t\tfunction kycRe\n      PUSH 1\t\t\tfunction kycRequestE\n      ADD \t\t\tfunction kycRequestE\n      DUP1 \t\t\t      _;\\r\\n    }\\r\\n\\r\\n    f...\n      SLOAD \t\t\t      _;\\r\\n    }\\r\\n\\r\\n    f...\n      PUSH [tag] 360\t\t\t      _;\\r\\n    }\\r\\n\\r\\n    f...\n      SWAP1 \t\t\t      _;\\r\\n    }\\r\\n\\r\\n    f...\n      PUSH [tag] 113\t\t\t      _;\\r\\n    }\\r\\n\\r\\n    f...\n      JUMP \t\t\t      _;\\r\\n    }\\r\\n\\r\\n    f...\n    tag 360\t\t\t      _;\\r\\n    }\\r\\n\\r\\n    f...\n      JUMPDEST \t\t\t      _;\\r\\n    }\\r\\n\\r\\n    f...\n      DUP1 \t\t\t      _;\\r\\n    }\\r\\n\\r\\n    f...\n      PUSH 1F\t\t\t      _;\\r\\n    }\\r\\n\\r\\n    f...\n      ADD \t\t\t      _;\\r\\n    }\\r\\n\\r\\n    f...\n      PUSH 20\t\t\t      _;\\r\\n    }\\r\\n\\r\\n    f...\n      DUP1 \t\t\t      _;\\r\\n    }\\r\\n\\r\\n    f...\n      SWAP2 \t\t\t      _;\\r\\n    }\\r\\n\\r\\n    f...\n      DIV \t\t\t      _;\\r\\n    }\\r\\n\\r\\n    f...\n      MUL \t\t\t      _;\\r\\n    }\\r\\n\\r\\n    f...\n      PUSH 20\t\t\t      _;\\r\\n    }\\r\\n\\r\\n    f...\n      ADD \t\t\t      _;\\r\\n    }\\r\\n\\r\\n    f...\n      PUSH 40\t\t\t      _;\\r\\n    }\\r\\n\\r\\n    f...\n      MLOAD \t\t\t      _;\\r\\n    }\\r\\n\\r\\n    f...\n      SWAP1 \t\t\t      _;\\r\\n    }\\r\\n\\r\\n    f...\n      DUP2 \t\t\t      _;\\r\\n    }\\r\\n\\r\\n    f...\n      ADD \t\t\t      _;\\r\\n    }\\r\\n\\r\\n    f...\n      PUSH 40\t\t\t      _;\\r\\n    }\\r\\n\\r\\n    f...\n      MSTORE \t\t\t      _;\\r\\n    }\\r\\n\\r\\n    f...\n      DUP1 \t\t\t      _;\\r\\n    }\\r\\n\\r\\n    f...\n      SWAP3 \t\t\t      _;\\r\\n    }\\r\\n\\r\\n    f...\n      SWAP2 \t\t\t      _;\\r\\n    }\\r\\n\\r\\n    f...\n      SWAP1 \t\t\t      _;\\r\\n    }\\r\\n\\r\\n    f...\n      DUP2 \t\t\t      _;\\r\\n    }\\r\\n\\r\\n    f...\n      DUP2 \t\t\t      _;\\r\\n    }\\r\\n\\r\\n    f...\n      MSTORE \t\t\t      _;\\r\\n    }\\r\\n\\r\\n    f...\n      PUSH 20\t\t\t      _;\\r\\n    }\\r\\n\\r\\n    f...\n      ADD \t\t\t      _;\\r\\n    }\\r\\n\\r\\n    f...\n      DUP3 \t\t\t      _;\\r\\n    }\\r\\n\\r\\n    f...\n      DUP1 \t\t\t      _;\\r\\n    }\\r\\n\\r\\n    f...\n      SLOAD \t\t\t      _;\\r\\n    }\\r\\n\\r\\n    f...\n      PUSH [tag] 361\t\t\t      _;\\r\\n    }\\r\\n\\r\\n    f...\n      SWAP1 \t\t\t      _;\\r\\n    }\\r\\n\\r\\n    f...\n      PUSH [tag] 113\t\t\t      _;\\r\\n    }\\r\\n\\r\\n    f...\n      JUMP \t\t\t      _;\\r\\n    }\\r\\n\\r\\n    f...\n    tag 361\t\t\t      _;\\r\\n    }\\r\\n\\r\\n    f...\n      JUMPDEST \t\t\t      _;\\r\\n    }\\r\\n\\r\\n    f...\n      DUP1 \t\t\t      _;\\r\\n    }\\r\\n\\r\\n    f...\n      ISZERO \t\t\t      _;\\r\\n    }\\r\\n\\r\\n    f...\n      PUSH [tag] 362\t\t\t      _;\\r\\n    }\\r\\n\\r\\n    f...\n      JUMPI \t\t\t      _;\\r\\n    }\\r\\n\\r\\n    f...\n      DUP1 \t\t\t      _;\\r\\n    }\\r\\n\\r\\n    f...\n      PUSH 1F\t\t\t      _;\\r\\n    }\\r\\n\\r\\n    f...\n      LT \t\t\t      _;\\r\\n    }\\r\\n\\r\\n    f...\n      PUSH [tag] 363\t\t\t      _;\\r\\n    }\\r\\n\\r\\n    f...\n      JUMPI \t\t\t      _;\\r\\n    }\\r\\n\\r\\n    f...\n      PUSH 100\t\t\t      _;\\r\\n    }\\r\\n\\r\\n    f...\n      DUP1 \t\t\t      _;\\r\\n    }\\r\\n\\r\\n    f...\n      DUP4 \t\t\t      _;\\r\\n    }\\r\\n\\r\\n    f...\n      SLOAD \t\t\t      _;\\r\\n    }\\r\\n\\r\\n    f...\n      DIV \t\t\t      _;\\r\\n    }\\r\\n\\r\\n    f...\n      MUL \t\t\t      _;\\r\\n    }\\r\\n\\r\\n    f...\n      DUP4 \t\t\t      _;\\r\\n    }\\r\\n\\r\\n    f...\n      MSTORE \t\t\t      _;\\r\\n    }\\r\\n\\r\\n    f...\n      SWAP2 \t\t\t      _;\\r\\n    }\\r\\n\\r\\n    f...\n      PUSH 20\t\t\t      _;\\r\\n    }\\r\\n\\r\\n    f...\n      ADD \t\t\t      _;\\r\\n    }\\r\\n\\r\\n    f...\n      SWAP2 \t\t\t      _;\\r\\n    }\\r\\n\\r\\n    f...\n      PUSH [tag] 362\t\t\t      _;\\r\\n    }\\r\\n\\r\\n    f...\n      JUMP \t\t\t      _;\\r\\n    }\\r\\n\\r\\n    f...\n    tag 363\t\t\t      _;\\r\\n    }\\r\\n\\r\\n    f...\n      JUMPDEST \t\t\t      _;\\r\\n    }\\r\\n\\r\\n    f...\n      DUP3 \t\t\t      _;\\r\\n    }\\r\\n\\r\\n    f...\n      ADD \t\t\t      _;\\r\\n    }\\r\\n\\r\\n    f...\n      SWAP2 \t\t\t      _;\\r\\n    }\\r\\n\\r\\n    f...\n      SWAP1 \t\t\t      _;\\r\\n    }\\r\\n\\r\\n    f...\n      PUSH 0\t\t\t      _;\\r\\n    }\\r\\n\\r\\n    f...\n      MSTORE \t\t\t      _;\\r\\n    }\\r\\n\\r\\n    f...\n      PUSH 20\t\t\t      _;\\r\\n    }\\r\\n\\r\\n    f...\n      PUSH 0\t\t\t      _;\\r\\n    }\\r\\n\\r\\n    f...\n      KECCAK256 \t\t\t      _;\\r\\n    }\\r\\n\\r\\n    f...\n      SWAP1 \t\t\t      _;\\r\\n    }\\r\\n\\r\\n    f...\n    tag 364\t\t\t      _;\\r\\n    }\\r\\n\\r\\n    f...\n      JUMPDEST \t\t\t      _;\\r\\n    }\\r\\n\\r\\n    f...\n      DUP2 \t\t\t      _;\\r\\n    }\\r\\n\\r\\n    f...\n      SLOAD \t\t\t      _;\\r\\n    }\\r\\n\\r\\n    f...\n      DUP2 \t\t\t      _;\\r\\n    }\\r\\n\\r\\n    f...\n      MSTORE \t\t\t      _;\\r\\n    }\\r\\n\\r\\n    f...\n      SWAP1 \t\t\t      _;\\r\\n    }\\r\\n\\r\\n    f...\n      PUSH 1\t\t\t      _;\\r\\n    }\\r\\n\\r\\n    f...\n      ADD \t\t\t      _;\\r\\n    }\\r\\n\\r\\n    f...\n      SWAP1 \t\t\t      _;\\r\\n    }\\r\\n\\r\\n    f...\n      PUSH 20\t\t\t      _;\\r\\n    }\\r\\n\\r\\n    f...\n      ADD \t\t\t      _;\\r\\n    }\\r\\n\\r\\n    f...\n      DUP1 \t\t\t      _;\\r\\n    }\\r\\n\\r\\n    f...\n      DUP4 \t\t\t      _;\\r\\n    }\\r\\n\\r\\n    f...\n      GT \t\t\t      _;\\r\\n    }\\r\\n\\r\\n    f...\n      PUSH [tag] 364\t\t\t      _;\\r\\n    }\\r\\n\\r\\n    f...\n      JUMPI \t\t\t      _;\\r\\n    }\\r\\n\\r\\n    f...\n      DUP3 \t\t\t      _;\\r\\n    }\\r\\n\\r\\n    f...\n      SWAP1 \t\t\t      _;\\r\\n    }\\r\\n\\r\\n    f...\n      SUB \t\t\t      _;\\r\\n    }\\r\\n\\r\\n    f...\n      PUSH 1F\t\t\t      _;\\r\\n    }\\r\\n\\r\\n    f...\n      AND \t\t\t      _;\\r\\n    }\\r\\n\\r\\n    f...\n      DUP3 \t\t\t      _;\\r\\n    }\\r\\n\\r\\n    f...\n      ADD \t\t\t      _;\\r\\n    }\\r\\n\\r\\n    f...\n      SWAP2 \t\t\t      _;\\r\\n    }\\r\\n\\r\\n    f...\n    tag 362\t\t\t      _;\\r\\n    }\\r\\n\\r\\n    f...\n      JUMPDEST \t\t\t      _;\\r\\n    }\\r\\n\\r\\n    f...\n      POP \t\t\t      _;\\r\\n    }\\r\\n\\r\\n    f...\n      POP \t\t\t      _;\\r\\n    }\\r\\n\\r\\n    f...\n      POP \t\t\t      _;\\r\\n    }\\r\\n\\r\\n    f...\n      POP \t\t\t      _;\\r\\n    }\\r\\n\\r\\n    f...\n      POP \t\t\t      _;\\r\\n    }\\r\\n\\r\\n    f...\n      PUSH 40\t\t\t      _;\\r\\n    }\\r\\n\\r\\n    f...\n      MLOAD \t\t\t      _;\\r\\n    }\\r\\n\\r\\n    f...\n      DUP1 \t\t\t      _;\\r\\n    }\\r\\n\\r\\n    f...\n      PUSH 20\t\t\t      _;\\r\\n    }\\r\\n\\r\\n    f...\n      ADD \t\t\t      _;\\r\\n    }\\r\\n\\r\\n    f...\n      PUSH 40\t\t\t      _;\\r\\n    }\\r\\n\\r\\n    f...\n      MSTORE \t\t\t      _;\\r\\n    }\\r\\n\\r\\n    f...\n      DUP1 \t\t\t      _;\\r\\n    }\\r\\n\\r\\n    f...\n      PUSH 0\t\t\t      _;\\r\\n    }\\r\\n\\r\\n    f...\n      DUP2 \t\t\t      _;\\r\\n    }\\r\\n\\r\\n    f...\n      MSTORE \t\t\t      _;\\r\\n    }\\r\\n\\r\\n    f...\n      POP \t\t\t      _;\\r\\n    }\\r\\n\\r\\n    f...\n      PUSH [tag] 118\t\t\t      _;\\r\\n    }\\r\\n\\r\\n   \n      JUMP \t\t\t      _;\\r\\n    }\\r\\n\\r\\n    f...\n    tag 359\t\t\t      _;\\r\\n    }\\r\\n\\r\\n    f...\n      JUMPDEST \t\t\t      _;\\r\\n    }\\r\\n\\r\\n    f...\n      ISZERO \t\t\t       _;\\r\\n    }\\r\\n\\r\\n    ...\n      PUSH [tag] 365\t\t\tadmin is allowed\");\\r\\n       ...\n      JUMPI \t\t\tadmin is allowed\");\\r\\n       ...\n      PUSH 40\t\t\tadmin is allowed\");\\r\\n       ...\n      MLOAD \t\t\tadmin is allowed\");\\r\\n       ...\n      PUSH 8C379A000000000000000000000000000000000000000000000000000000000\t\t\tadmin is allowed\");\\r\\n       ...\n      DUP2 \t\t\tadmin is allowed\");\\r\\n       ...\n      MSTORE \t\t\tadmin is allowed\");\\r\\n       ...\n      PUSH 4\t\t\tadmin is allowed\");\\r\\n       ...\n      ADD \t\t\tadmin is allowed\");\\r\\n       ...\n      PUSH [tag] 366\t\t\tadmin is allowed\");\\r\\n       ...\n      SWAP1 \t\t\tadmin is allowed\");\\r\\n       ...\n      PUSH [tag] 121\t\t\tadmin is allowed\");\\r\\n       ...\n      JUMP \t\t\tadmin is allowed\");\\r\\n       ...\n    tag 366\t\t\tadmin is allowed\");\\r\\n       ...\n      JUMPDEST \t\t\tadmin is allowed\");\\r\\n       ...\n      PUSH 40\t\t\tadmin is allowed\");\\r\\n       ...\n      MLOAD \t\t\tadmin is allowed\");\\r\\n       ...\n      DUP1 \t\t\tadmin is allowed\");\\r\\n       ...\n      SWAP2 \t\t\tadmin is allowed\");\\r\\n       ...\n      SUB \t\t\tadmin is allowed\");\\r\\n       ...\n      SWAP1 \t\t\tadmin is allowed\");\\r\\n       ...\n      REVERT \t\t\tadmin is allowed\");\\r\\n       ...\n    tag 365\t\t\tadmin is allowed\");\\r\\n       ...\n      JUMPDEST \t\t\tadmin is allowed\");\\r\\n       ...\n      CALLER \t\t\tmsg.sender\n      PUSH 0\t\t\t \n      PUSH FFFFFFFFFFFFFFFFFFFFFFFFFFFFFFFFFFFFFFFF\t\t\tn);\\r\\n    }\\r\\n\\r\\n    modifi...\n      AND \t\t\tn);\\r\\n    }\\r\\n\\r\\n    modifi...\n      PUSH 3\t\t\tn);\\r\\n\n      PUSH 0\t\t\tn);\\r\\n    }\n      DUP4 \t\t\t   \n      PUSH FFFFFFFFFFFFFFFFFFFFFFFFFFFFFFFFFFFFFFFF\t\t\tn);\\r\\n    }\n      AND \t\t\tn);\\r\\n    }\n      PUSH FFFFFFFFFFFFFFFFFFFFFFFFFFFFFFFFFFFFFFFF\t\t\tn);\\r\\n    }\n      AND \t\t\tn);\\r\\n    }\n      DUP2 \t\t\tn);\\r\\n    }\n      MSTORE \t\t\tn);\\r\\n    }\n      PUSH 20\t\t\tn);\\r\\n    }\n      ADD \t\t\tn);\\r\\n    }\n      SWAP1 \t\t\tn);\\r\\n    }\n      DUP2 \t\t\tn);\\r\\n    }\n      MSTORE \t\t\tn);\\r\\n    }\n      PUSH 20\t\t\tn);\\r\\n    }\n      ADD \t\t\tn);\\r\\n    }\n      PUSH 0\t\t\tn);\\r\\n    }\n      KECCAK256 \t\t\tn);\\r\\n    }\n      PUSH 2\t\t\tn);\\r\\n    }\\r\\n\\r\\n\n      ADD \t\t\tn);\\r\\n    }\\r\\n\\r\\n\n      PUSH 0\t\t\tn);\\r\\n    }\\r\\n\\r\\n\n      SWAP1 \t\t\tn);\\r\\n    }\\r\\n\\r\\n\n      SLOAD \t\t\tn);\\r\\n    }\\r\\n\\r\\n\n      SWAP1 \t\t\tn);\\r\\n    }\\r\\n\\r\\n\n      PUSH 100\t\t\tn);\\r\\n    }\\r\\n\\r\\n\n      EXP \t\t\tn);\\r\\n    }\\r\\n\\r\\n\n      SWAP1 \t\t\tn);\\r\\n    }\\r\\n\\r\\n\n      DIV \t\t\tn);\\r\\n    }\\r\\n\\r\\n\n      PUSH FFFFFFFFFFFFFFFFFFFFFFFFFFFFFFFFFFFFFFFF\t\t\tn);\\r\\n    }\\r\\n\\r\\n\n      AND \t\t\tn);\\r\\n    }\\r\\n\\r\\n\n      PUSH FFFFFFFFFFFFFFFFFFFFFFFFFFFFFFFFFFFFFFFF\t\t\tn);\\r\\n    }\\r\\n\\r\\n    modifi...\n      AND \t\t\tn);\\r\\n    }\\r\\n\\r\\n    modifi...\n      SUB \t\t\tn);\\r\\n    }\\r\\n\\r\\n    modifi...\n      PUSH [tag] 368\t\t\tush(admin);\\r\\n    }\\r\\n\\r\\n  ...\n      JUMPI \t\t\tush(admin);\\r\\n    }\\r\\n\\r\\n  ...\n      PUSH 40\t\t\tush(admin);\\r\\n    }\\r\\n\\r\\n  ...\n      MLOAD \t\t\tush(admin);\\r\\n    }\\r\\n\\r\\n  ...\n      PUSH 8C379A000000000000000000000000000000000000000000000000000000000\t\t\tush(admin);\\r\\n    }\\r\\n\\r\\n  ...\n      DUP2 \t\t\tush(admin);\\r\\n    }\\r\\n\\r\\n  ...\n      MSTORE \t\t\tush(admin);\\r\\n    }\\r\\n\\r\\n  ...\n      PUSH 4\t\t\tush(admin);\\r\\n    }\\r\\n\\r\\n  ...\n      ADD \t\t\tush(admin);\\r\\n    }\\r\\n\\r\\n  ...\n      PUSH [tag] 369\t\t\tush(admin);\\r\\n    }\\r\\n\\r\\n  ...\n      SWAP1 \t\t\tush(admin);\\r\\n    }\\r\\n\\r\\n  ...\n      PUSH [tag] 130\t\t\tush(admin);\\r\\n    }\\r\\n\\r\\n  ...\n      JUMP \t\t\tush(admin);\\r\\n    }\\r\\n\\r\\n  ...\n    tag 369\t\t\tush(admin);\\r\\n    }\\r\\n\\r\\n  ...\n      JUMPDEST \t\t\tush(admin);\\r\\n    }\\r\\n\\r\\n  ...\n      PUSH 40\t\t\tush(admin);\\r\\n    }\\r\\n\\r\\n  ...\n      MLOAD \t\t\tush(admin);\\r\\n    }\\r\\n\\r\\n  ...\n      DUP1 \t\t\tush(admin);\\r\\n    }\\r\\n\\r\\n  ...\n      SWAP2 \t\t\tush(admin);\\r\\n    }\\r\\n\\r\\n  ...\n      SUB \t\t\tush(admin);\\r\\n    }\\r\\n\\r\\n  ...\n      SWAP1 \t\t\tush(admin);\\r\\n    }\\r\\n\\r\\n  ...\n      REVERT \t\t\tush(admin);\\r\\n    }\\r\\n\\r\\n  ...\n    tag 368\t\t\tush(admin);\\r\\n    }\\r\\n\\r\\n  ...\n      JUMPDEST \t\t\tush(admin);\\r\\n    }\\r\\n\\r\\n  ...\n      DUP1 \t\t\tdmi\n      PUSH FFFFFFFFFFFFFFFFFFFFFFFFFFFFFFFFFFFFFFFF\t\t\t == admin, \"Only admi\n      AND \t\t\t == admin, \"Only admi\n      PUSH 3\t\t\t == a\n      PUSH 0\t\t\t == admin,\n      DUP4 \t\t\tmin\n      PUSH FFFFFFFFFFFFFFFFFFFFFFFFFFFFFFFFFFFFFFFF\t\t\t == admin,\n      AND \t\t\t == admin,\n      PUSH FFFFFFFFFFFFFFFFFFFFFFFFFFFFFFFFFFFFFFFF\t\t\t == admin,\n      AND \t\t\t == admin,\n      DUP2 \t\t\t == admin,\n      MSTORE \t\t\t == admin,\n      PUSH 20\t\t\t == admin,\n      ADD \t\t\t == admin,\n      SWAP1 \t\t\t == admin,\n      DUP2 \t\t\t == admin,\n      MSTORE \t\t\t == admin,\n      PUSH 20\t\t\t == admin,\n      ADD \t\t\t == admin,\n      PUSH 0\t\t\t == admin,\n      KECCAK256 \t\t\t == admin,\n      PUSH 2\t\t\t == admin, \"On\n      ADD \t\t\t == admin, \"On\n      PUSH 0\t\t\t == admin, \"On\n      SWAP1 \t\t\t == admin, \"On\n      SLOAD \t\t\t == admin, \"On\n      SWAP1 \t\t\t == admin, \"On\n      PUSH 100\t\t\t == admin, \"On\n      EXP \t\t\t == admin, \"On\n      SWAP1 \t\t\t == admin, \"On\n      DIV \t\t\t == admin, \"On\n      PUSH FFFFFFFFFFFFFFFFFFFFFFFFFFFFFFFFFFFFFFFF\t\t\t == admin, \"On\n      AND \t\t\t == admin, \"On\n      PUSH FFFFFFFFFFFFFFFFFFFFFFFFFFFFFFFFFFFFFFFF\t\t\t == admin, \"Only admi\n      AND \t\t\t == admin, \"Only admi\n      EQ \t\t\t == admin, \"Only admi\n      PUSH [tag] 370\t\t\tg.sender == admin, \"Only admin...\n      JUMPI \t\t\tg.sender == admin, \"Only admin...\n      PUSH 40\t\t\tg.sender == admin, \"Only admin...\n      MLOAD \t\t\tg.sender == admin, \"Only admin...\n      PUSH 8C379A000000000000000000000000000000000000000000000000000000000\t\t\tg.sender == admin, \"Only admin...\n      DUP2 \t\t\tg.sender == admin, \"Only admin...\n      MSTORE \t\t\tg.sender == admin, \"Only admin...\n      PUSH 4\t\t\tg.sender == admin, \"Only admin...\n      ADD \t\t\tg.sender == admin, \"Only admin...\n      PUSH [tag] 371\t\t\tg.sender == admin, \"Only admin...\n      SWAP1 \t\t\tg.sender == admin, \"Only admin...\n      PUSH [tag] 130\t\t\tg.sender == admin, \"Only admin...\n      JUMP \t\t\tg.sender == admin, \"Only admin...\n    tag 371\t\t\tg.sender == admin, \"Only admin...\n      JUMPDEST \t\t\tg.sender == admin, \"Only admin...\n      PUSH 40\t\t\tg.sender == admin, \"Only admin...\n      MLOAD \t\t\tg.sender == admin, \"Only admin...\n      DUP1 \t\t\tg.sender == admin, \"Only admin...\n      SWAP2 \t\t\tg.sender == admin, \"Only admin...\n      SUB \t\t\tg.sender == admin, \"Only admin...\n      SWAP1 \t\t\tg.sender == admin, \"Only admin...\n      REVERT \t\t\tg.sender == admin, \"Only admin...\n    tag 370\t\t\tg.sender == admin, \"Only admin...\n      JUMPDEST \t\t\tg.sender == admin, \"Only admin...\n      PUSH 0\t\t\tg memory reqId_)\\r\\n     \n      PUSH 1\t\t\tycRequestExists(string memory ...\n      DUP2 \t\t\tycRequestExists(string memory ...\n      GT \t\t\tycRequestExists(string memory ...\n      ISZERO \t\t\tycRequestExists(string memory ...\n      PUSH [tag] 372\t\t\tycRequestExists(string memory ...\n      JUMPI \t\t\tycRequestExists(string memory ...\n      PUSH [tag] 373\t\t\tycRequestExists(string memory ...\n      PUSH [tag] 135\t\t\tycRequestExists(string memory ...\n      JUMP \t\t\tycRequestExists(string memory ...\n    tag 373\t\t\tycRequestExists(string memory ...\n      JUMPDEST \t\t\tycRequestExists(string memory ...\n    tag 372\t\t\tycRequestExists(string memory ...\n      JUMPDEST \t\t\tycRequestExists(string memory ...\n      PUSH 3\t\t\tycReq\n      PUSH 0\t\t\tycRequestE\n      DUP4 \t\t\test\n      PUSH FFFFFFFFFFFFFFFFFFFFFFFFFFFFFFFFFFFFFFFF\t\t\tycRequestE\n      AND \t\t\tycRequestE\n      PUSH FFFFFFFFFFFFFFFFFFFFFFFFFFFFFFFFFFFFFFFF\t\t\tycRequestE\n      AND \t\t\tycRequestE\n      DUP2 \t\t\tycRequestE\n      MSTORE \t\t\tycRequestE\n      PUSH 20\t\t\tycRequestE\n      ADD \t\t\tycRequestE\n      SWAP1 \t\t\tycRequestE\n      DUP2 \t\t\tycRequestE\n      MSTORE \t\t\tycRequestE\n      PUSH 20\t\t\tycRequestE\n      ADD \t\t\tycRequestE\n      PUSH 0\t\t\tycRequestE\n      KECCAK256 \t\t\tycRequestE\n      PUSH 4\t\t\tycRequestExists(s\n      ADD \t\t\tycRequestExists(s\n      PUSH 2\t\t\tycRequestExists(s\n      SWAP1 \t\t\tycRequestExists(s\n      SLOAD \t\t\tycRequestExists(s\n      SWAP1 \t\t\tycRequestExists(s\n      PUSH 100\t\t\tycRequestExists(s\n      EXP \t\t\tycRequestExists(s\n      SWAP1 \t\t\tycRequestExists(s\n      DIV \t\t\tycRequestExists(s\n      PUSH FF\t\t\tycRequestExists(s\n      AND \t\t\tycRequestExists(s\n      PUSH 1\t\t\tycRequestExists(string memory ...\n      DUP2 \t\t\tycRequestExists(string memory ...\n      GT \t\t\tycRequestExists(string memory ...\n      ISZERO \t\t\tycRequestExists(string memory ...\n      PUSH [tag] 374\t\t\tycRequestExists(string memory ...\n      JUMPI \t\t\tycRequestExists(string memory ...\n      PUSH [tag] 375\t\t\tycRequestExists(string memory ...\n      PUSH [tag] 135\t\t\tycRequestExists(string memory ...\n      JUMP \t\t\tycRequestExists(string memory ...\n    tag 375\t\t\tycRequestExists(string memory ...\n      JUMPDEST \t\t\tycRequestExists(string memory ...\n    tag 374\t\t\tycRequestExists(string memory ...\n      JUMPDEST \t\t\tycRequestExists(string memory ...\n      EQ \t\t\tycRequestExists(string memory ...\n      PUSH [tag] 376\t\t\t   }\\r\\n\\r\\n    function kycRe...\n      JUMPI \t\t\t   }\\r\\n\\r\\n    function kycRe...\n      PUSH 40\t\t\t   }\\r\\n\\r\\n    function kycRe...\n      MLOAD \t\t\t   }\\r\\n\\r\\n    function kycRe...\n      PUSH 8C379A000000000000000000000000000000000000000000000000000000000\t\t\t   }\\r\\n\\r\\n    function kycRe...\n      DUP2 \t\t\t   }\\r\\n\\r\\n    function kycRe...\n      MSTORE \t\t\t   }\\r\\n\\r\\n    function kycRe...\n      PUSH 4\t\t\t   }\\r\\n\\r\\n    function kycRe...\n      ADD \t\t\t   }\\r\\n\\r\\n    function kycRe...\n      PUSH [tag] 377\t\t\t   }\\r\\n\\r\\n    function kycRe...\n      SWAP1 \t\t\t   }\\r\\n\\r\\n    function kycRe...\n      PUSH [tag] 140\t\t\t   }\\r\\n\\r\\n    function kycRe...\n      JUMP \t\t\t   }\\r\\n\\r\\n    function kycRe...\n    tag 377\t\t\t   }\\r\\n\\r\\n    function kycRe...\n      JUMPDEST \t\t\t   }\\r\\n\\r\\n    function kycRe...\n      PUSH 40\t\t\t   }\\r\\n\\r\\n    function kycRe...\n      MLOAD \t\t\t   }\\r\\n\\r\\n    function kycRe...\n      DUP1 \t\t\t   }\\r\\n\\r\\n    function kycRe...\n      SWAP2 \t\t\t   }\\r\\n\\r\\n    function kycRe...\n      SUB \t\t\t   }\\r\\n\\r\\n    function kycRe...\n      SWAP1 \t\t\t   }\\r\\n\\r\\n    function kycRe...\n      REVERT \t\t\t   }\\r\\n\\r\\n    function kycRe...\n    tag 376\t\t\t   }\\r\\n\\r\\n    function kycRe...\n      JUMPDEST \t\t\t   }\\r\\n\\r\\n    function kycRe...\n      PUSH 0\t\t\tbool found_\n      PUSH [tag] 379\t\t\tTypes.Customer memory customer...\n      PUSH [tag] 103\t\t\tTypes.Customer memory customer...\n      JUMP \t\t\tTypes.Customer memory customer...\n    tag 379\t\t\tTypes.Customer memory customer...\n      JUMPDEST \t\t\tTypes.Customer memory customer...\n      PUSH [tag] 380\t\t\tTypes.KycRequest memory reques...\n      PUSH [tag] 199\t\t\tTypes.KycRequest memory reques...\n      JUMP \t\t\tTypes.KycRequest memory reques...\n    tag 380\t\t\tTypes.KycRequest memory reques...\n      JUMPDEST \t\t\tTypes.KycRequest memory reques...\n      PUSH [tag] 381\t\t\tsearchcustomers(id_, bankCusto...\n      DUP10 \t\t\tid_\n      PUSH 8\t\t\tbankCustomers\n      PUSH 0\t\t\tbankCustomers[msg.sender]\n      CALLER \t\t\tmsg.sender\n      PUSH FFFFFFFFFFFFFFFFFFFFFFFFFFFFFFFFFFFFFFFF\t\t\tbankCustomers[msg.sender]\n      AND \t\t\tbankCustomers[msg.sender]\n      PUSH FFFFFFFFFFFFFFFFFFFFFFFFFFFFFFFFFFFFFFFF\t\t\tbankCustomers[msg.sender]\n      AND \t\t\tbankCustomers[msg.sender]\n      DUP2 \t\t\tbankCustomers[msg.sender]\n      MSTORE \t\t\tbankCustomers[msg.sender]\n      PUSH 20\t\t\tbankCustomers[msg.sender]\n      ADD \t\t\tbankCustomers[msg.sender]\n      SWAP1 \t\t\tbankCustomers[msg.sender]\n      DUP2 \t\t\tbankCustomers[msg.sender]\n      MSTORE \t\t\tbankCustomers[msg.sender]\n      PUSH 20\t\t\tbankCustomers[msg.sender]\n      ADD \t\t\tbankCustomers[msg.sender]\n      PUSH 0\t\t\tbankCustomers[msg.sender]\n      KECCAK256 \t\t\tbankCustomers[msg.sender]\n      DUP1 \t\t\tsearchcustomers(id_, bankCusto...\n      SLOAD \t\t\tsearchcustomers(id_, bankCusto...\n      DUP1 \t\t\tsearchcustomers(id_, bankCusto...\n      PUSH 20\t\t\tsearchcustomers(id_, bankCusto...\n      MUL \t\t\tsearchcustomers(id_, bankCusto...\n      PUSH 20\t\t\tsearchcustomers(id_, bankCusto...\n      ADD \t\t\tsearchcustomers(id_, bankCusto...\n      PUSH 40\t\t\tsearchcustomers(id_, bankCusto...\n      MLOAD \t\t\tsearchcustomers(id_, bankCusto...\n      SWAP1 \t\t\tsearchcustomers(id_, bankCusto...\n      DUP2 \t\t\tsearchcustomers(id_, bankCusto...\n      ADD \t\t\tsearchcustomers(id_, bankCusto...\n      PUSH 40\t\t\tsearchcustomers(id_, bankCusto...\n      MSTORE \t\t\tsearchcustomers(id_, bankCusto...\n      DUP1 \t\t\tsearchcustomers(id_, bankCusto...\n      SWAP3 \t\t\tsearchcustomers(id_, bankCusto...\n      SWAP2 \t\t\tsearchcustomers(id_, bankCusto...\n      SWAP1 \t\t\tsearchcustomers(id_, bankCusto...\n      DUP2 \t\t\tsearchcustomers(id_, bankCusto...\n      DUP2 \t\t\tsearchcustomers(id_, bankCusto...\n      MSTORE \t\t\tsearchcustomers(id_, bankCusto...\n      PUSH 20\t\t\tsearchcustomers(id_, bankCusto...\n      ADD \t\t\tsearchcustomers(id_, bankCusto...\n      DUP3 \t\t\tsearchcustomers(id_, bankCusto...\n      DUP1 \t\t\tsearchcustomers(id_, bankCusto...\n      SLOAD \t\t\tsearchcustomers(id_, bankCusto...\n      DUP1 \t\t\tsearchcustomers(id_, bankCusto...\n      ISZERO \t\t\tsearchcustomers(id_, bankCusto...\n      PUSH [tag] 382\t\t\tsearchcustomers(id_, bankCusto...\n      JUMPI \t\t\tsearchcustomers(id_, bankCusto...\n      PUSH 20\t\t\tsearchcustomers(id_, bankCusto...\n      MUL \t\t\tsearchcustomers(id_, bankCusto...\n      DUP3 \t\t\tsearchcustomers(id_, bankCusto...\n      ADD \t\t\tsearchcustomers(id_, bankCusto...\n      SWAP2 \t\t\tsearchcustomers(id_, bankCusto...\n      SWAP1 \t\t\tsearchcustomers(id_, bankCusto...\n      PUSH 0\t\t\tsearchcustomers(id_, bankCusto...\n      MSTORE \t\t\tsearchcustomers(id_, bankCusto...\n      PUSH 20\t\t\tsearchcustomers(id_, bankCusto...\n      PUSH 0\t\t\tsearchcustomers(id_, bankCusto...\n      KECCAK256 \t\t\tsearchcustomers(id_, bankCusto...\n      SWAP1 \t\t\tsearchcustomers(id_, bankCusto...\n    tag 383\t\t\tsearchcustomers(id_, bankCusto...\n      JUMPDEST \t\t\tsearchcustomers(id_, bankCusto...\n      DUP2 \t\t\tsearchcustomers(id_, bankCusto...\n      PUSH 0\t\t\tsearchcustomers(id_, bankCusto...\n      SWAP1 \t\t\tsearchcustomers(id_, bankCusto...\n      SLOAD \t\t\tsearchcustomers(id_, bankCusto...\n      SWAP1 \t\t\tsearchcustomers(id_, bankCusto...\n      PUSH 100\t\t\tsearchcustomers(id_, bankCusto...\n      EXP \t\t\tsearchcustomers(id_, bankCusto...\n      SWAP1 \t\t\tsearchcustomers(id_, bankCusto...\n      DIV \t\t\tsearchcustomers(id_, bankCusto...\n      PUSH FFFFFFFFFFFFFFFFFFFFFFFFFFFFFFFFFFFFFFFF\t\t\tsearchcustomers(id_, bankCusto...\n      AND \t\t\tsearchcustomers(id_, bankCusto...\n      PUSH FFFFFFFFFFFFFFFFFFFFFFFFFFFFFFFFFFFFFFFF\t\t\tsearchcustomers(id_, bankCusto...\n      AND \t\t\tsearchcustomers(id_, bankCusto...\n      DUP2 \t\t\tsearchcustomers(id_, bankCusto...\n      MSTORE \t\t\tsearchcustomers(id_, bankCusto...\n      PUSH 20\t\t\tsearchcustomers(id_, bankCusto...\n      ADD \t\t\tsearchcustomers(id_, bankCusto...\n      SWAP1 \t\t\tsearchcustomers(id_, bankCusto...\n      PUSH 1\t\t\tsearchcustomers(id_, bankCusto...\n      ADD \t\t\tsearchcustomers(id_, bankCusto...\n      SWAP1 \t\t\tsearchcustomers(id_, bankCusto...\n      DUP1 \t\t\tsearchcustomers(id_, bankCusto...\n      DUP4 \t\t\tsearchcustomers(id_, bankCusto...\n      GT \t\t\tsearchcustomers(id_, bankCusto...\n      PUSH [tag] 383\t\t\tsearchcustomers(id_, bankCusto...\n      JUMPI \t\t\tsearchcustomers(id_, bankCusto...\n    tag 382\t\t\tsearchcustomers(id_, bankCusto...\n      JUMPDEST \t\t\tsearchcustomers(id_, bankCusto...\n      POP \t\t\tsearchcustomers(id_, bankCusto...\n      POP \t\t\tsearchcustomers(id_, bankCusto...\n      POP \t\t\tsearchcustomers(id_, bankCusto...\n      POP \t\t\tsearchcustomers(id_, bankCusto...\n      POP \t\t\tsearchcustomers(id_, bankCusto...\n      PUSH [tag] 384\t\t\tsearchcustomers\n      JUMP \t\t\tsearchcustomers(id_, bankCusto...\n    tag 381\t\t\tsearchcustomers(id_, bankCusto...\n      JUMPDEST \t\t\tsearchcustomers(id_, bankCusto...\n      DUP1 \t\t\t(found_, customer_) = searchcu...\n      SWAP4 \t\t\t(found_, customer_) = searchcu...\n      POP \t\t\t(found_, customer_) = searchcu...\n      DUP2 \t\t\t(found_, customer_) = searchcu...\n      SWAP5 \t\t\t(found_, customer_) = searchcu...\n      POP \t\t\t(found_, customer_) = searchcu...\n      POP \t\t\t(found_, customer_) = searchcu...\n      POP \t\t\t(found_, customer_) = searchcu...\n      DUP3 \t\t\tfound_\n      ISZERO \t\t\tif (found_) request_ = kycRequ...\n      PUSH [tag] 385\t\t\tif (found_) request_ = kycRequ...\n      JUMPI \t\t\tif (found_) request_ = kycRequ...\n      PUSH 7\t\t\tkycRequests\n      PUSH [tag] 386\t\t\tHelpers.append(msg.sender, id_...\n      CALLER \t\t\tmsg.sender\n      DUP12 \t\t\tid_\n      PUSH [tag] 157\t\t\tHelpers.append\n      JUMP \t\t\tHelpers.append(msg.sender, id_...\n    tag 386\t\t\tHelpers.append(msg.sender, id_...\n      JUMPDEST \t\t\tHelpers.append(msg.sender, id_...\n      PUSH 40\t\t\tkycRequests[Helpers.append(msg...\n      MLOAD \t\t\tkycRequests[Helpers.append(msg...\n      PUSH [tag] 387\t\t\tkycRequests[Helpers.append(msg...\n      SWAP2 \t\t\tkycRequests[Helpers.append(msg...\n      SWAP1 \t\t\tkycRequests[Helpers.append(msg...\n      PUSH [tag] 169\t\t\tkycRequests[Helpers.append(msg...\n      JUMP \t\t\tkycRequests[Helpers.append(msg...\n    tag 387\t\t\tkycRequests[Helpers.append(msg...\n      JUMPDEST \t\t\tkycRequests[Helpers.append(msg...\n      SWAP1 \t\t\tkycRequests[Helpers.append(msg...\n      DUP2 \t\t\tkycRequests[Helpers.append(msg...\n      MSTORE \t\t\tkycRequests[Helpers.append(msg...\n      PUSH 20\t\t\tkycRequests[Helpers.append(msg...\n      ADD \t\t\tkycRequests[Helpers.append(msg...\n      PUSH 40\t\t\tkycRequests[Helpers.append(msg...\n      MLOAD \t\t\tkycRequests[Helpers.append(msg...\n      DUP1 \t\t\tkycRequests[Helpers.append(msg...\n      SWAP2 \t\t\tkycRequests[Helpers.append(msg...\n      SUB \t\t\tkycRequests[Helpers.append(msg...\n      SWAP1 \t\t\tkycRequests[Helpers.append(msg...\n      KECCAK256 \t\t\tkycRequests[Helpers.append(msg...\n      PUSH 40\t\t\trequest_ = kycRequests[Helpers...\n      MLOAD \t\t\trequest_ = kycRequests[Helpers...\n      DUP1 \t\t\trequest_ = kycRequests[Helpers...\n      PUSH 140\t\t\trequest_ = kycRequests[Helpers...\n      ADD \t\t\trequest_ = kycRequests[Helpers...\n      PUSH 40\t\t\trequest_ = kycRequests[Helpers...\n      MSTORE \t\t\trequest_ = kycRequests[Helpers...\n      SWAP1 \t\t\trequest_ = kycRequests[Helpers...\n      DUP2 \t\t\trequest_ = kycRequests[Helpers...\n      PUSH 0\t\t\trequest_ = kycRequests[Helpers...\n      DUP3 \t\t\trequest_ = kycRequests[Helpers...\n      ADD \t\t\trequest_ = kycRequests[Helpers...\n      DUP1 \t\t\trequest_ = kycRequests[Helpers...\n      SLOAD \t\t\trequest_ = kycRequests[Helpers...\n      PUSH [tag] 388\t\t\trequest_ = kycRequests[Helpers...\n      SWAP1 \t\t\trequest_ = kycRequests[Helpers...\n      PUSH [tag] 113\t\t\trequest_ = kycRequests[Helpers...\n      JUMP \t\t\trequest_ = kycRequests[Helpers...\n    tag 388\t\t\trequest_ = kycRequests[Helpers...\n      JUMPDEST \t\t\trequest_ = kycRequests[Helpers...\n      DUP1 \t\t\trequest_ = kycRequests[Helpers...\n      PUSH 1F\t\t\trequest_ = kycRequests[Helpers...\n      ADD \t\t\trequest_ = kycRequests[Helpers...\n      PUSH 20\t\t\trequest_ = kycRequests[Helpers...\n      DUP1 \t\t\trequest_ = kycRequests[Helpers...\n      SWAP2 \t\t\trequest_ = kycRequests[Helpers...\n      DIV \t\t\trequest_ = kycRequests[Helpers...\n      MUL \t\t\trequest_ = kycRequests[Helpers...\n      PUSH 20\t\t\trequest_ = kycRequests[Helpers...\n      ADD \t\t\trequest_ = kycRequests[Helpers...\n      PUSH 40\t\t\trequest_ = kycRequests[Helpers...\n      MLOAD \t\t\trequest_ = kycRequests[Helpers...\n      SWAP1 \t\t\trequest_ = kycRequests[Helpers...\n      DUP2 \t\t\trequest_ = kycRequests[Helpers...\n      ADD \t\t\trequest_ = kycRequests[Helpers...\n      PUSH 40\t\t\trequest_ = kycRequests[Helpers...\n      MSTORE \t\t\trequest_ = kycRequests[Helpers...\n      DUP1 \t\t\trequest_ = kycRequests[Helpers...\n      SWAP3 \t\t\trequest_ = kycRequests[Helpers...\n      SWAP2 \t\t\trequest_ = kycRequests[Helpers...\n      SWAP1 \t\t\trequest_ = kycRequests[Helpers...\n      DUP2 \t\t\trequest_ = kycRequests[Helpers...\n      DUP2 \t\t\trequest_ = kycRequests[Helpers...\n      MSTORE \t\t\trequest_ = kycRequests[Helpers...\n      PUSH 20\t\t\trequest_ = kycRequests[Helpers...\n      ADD \t\t\trequest_ = kycRequests[Helpers...\n      DUP3 \t\t\trequest_ = kycRequests[Helpers...\n      DUP1 \t\t\trequest_ = kycRequests[Helpers...\n      SLOAD \t\t\trequest_ = kycRequests[Helpers...\n      PUSH [tag] 389\t\t\trequest_ = kycRequests[Helpers...\n      SWAP1 \t\t\trequest_ = kycRequests[Helpers...\n      PUSH [tag] 113\t\t\trequest_ = kycRequests[Helpers...\n      JUMP \t\t\trequest_ = kycRequests[Helpers...\n    tag 389\t\t\trequest_ = kycRequests[Helpers...\n      JUMPDEST \t\t\trequest_ = kycRequests[Helpers...\n      DUP1 \t\t\trequest_ = kycRequests[Helpers...\n      ISZERO \t\t\trequest_ = kycRequests[Helpers...\n      PUSH [tag] 390\t\t\trequest_ = kycRequests[Helpers...\n      JUMPI \t\t\trequest_ = kycRequests[Helpers...\n      DUP1 \t\t\trequest_ = kycRequests[Helpers...\n      PUSH 1F\t\t\trequest_ = kycRequests[Helpers...\n      LT \t\t\trequest_ = kycRequests[Helpers...\n      PUSH [tag] 391\t\t\trequest_ = kycRequests[Helpers...\n      JUMPI \t\t\trequest_ = kycRequests[Helpers...\n      PUSH 100\t\t\trequest_ = kycRequests[Helpers...\n      DUP1 \t\t\trequest_ = kycRequests[Helpers...\n      DUP4 \t\t\trequest_ = kycRequests[Helpers...\n      SLOAD \t\t\trequest_ = kycRequests[Helpers...\n      DIV \t\t\trequest_ = kycRequests[Helpers...\n      MUL \t\t\trequest_ = kycRequests[Helpers...\n      DUP4 \t\t\trequest_ = kycRequests[Helpers...\n      MSTORE \t\t\trequest_ = kycRequests[Helpers...\n      SWAP2 \t\t\trequest_ = kycRequests[Helpers...\n      PUSH 20\t\t\trequest_ = kycRequests[Helpers...\n      ADD \t\t\trequest_ = kycRequests[Helpers...\n      SWAP2 \t\t\trequest_ = kycRequests[Helpers...\n      PUSH [tag] 390\t\t\trequest_ = kycRequests[Helpers...\n      JUMP \t\t\trequest_ = kycRequests[Helpers...\n    tag 391\t\t\trequest_ = kycRequests[Helpers...\n      JUMPDEST \t\t\trequest_ = kycRequests[Helpers...\n      DUP3 \t\t\trequest_ = kycRequests[Helpers...\n      ADD \t\t\trequest_ = kycRequests[Helpers...\n      SWAP2 \t\t\trequest_ = kycRequests[Helpers...\n      SWAP1 \t\t\trequest_ = kycRequests[Helpers...\n      PUSH 0\t\t\trequest_ = kycRequests[Helpers...\n      MSTORE \t\t\trequest_ = kycRequests[Helpers...\n      PUSH 20\t\t\trequest_ = kycRequests[Helpers...\n      PUSH 0\t\t\trequest_ = kycRequests[Helpers...\n      KECCAK256 \t\t\trequest_ = kycRequests[Helpers...\n      SWAP1 \t\t\trequest_ = kycRequests[Helpers...\n    tag 392\t\t\trequest_ = kycRequests[Helpers...\n      JUMPDEST \t\t\trequest_ = kycRequests[Helpers...\n      DUP2 \t\t\trequest_ = kycRequests[Helpers...\n      SLOAD \t\t\trequest_ = kycRequests[Helpers...\n      DUP2 \t\t\trequest_ = kycRequests[Helpers...\n      MSTORE \t\t\trequest_ = kycRequests[Helpers...\n      SWAP1 \t\t\trequest_ = kycRequests[Helpers...\n      PUSH 1\t\t\trequest_ = kycRequests[Helpers...\n      ADD \t\t\trequest_ = kycRequests[Helpers...\n      SWAP1 \t\t\trequest_ = kycRequests[Helpers...\n      PUSH 20\t\t\trequest_ = kycRequests[Helpers...\n      ADD \t\t\trequest_ = kycRequests[Helpers...\n      DUP1 \t\t\trequest_ = kycRequests[Helpers...\n      DUP4 \t\t\trequest_ = kycRequests[Helpers...\n      GT \t\t\trequest_ = kycRequests[Helpers...\n      PUSH [tag] 392\t\t\trequest_ = kycRequests[Helpers...\n      JUMPI \t\t\trequest_ = kycRequests[Helpers...\n      DUP3 \t\t\trequest_ = kycRequests[Helpers...\n      SWAP1 \t\t\trequest_ = kycRequests[Helpers...\n      SUB \t\t\trequest_ = kycRequests[Helpers...\n      PUSH 1F\t\t\trequest_ = kycRequests[Helpers...\n      AND \t\t\trequest_ = kycRequests[Helpers...\n      DUP3 \t\t\trequest_ = kycRequests[Helpers...\n      ADD \t\t\trequest_ = kycRequests[Helpers...\n      SWAP2 \t\t\trequest_ = kycRequests[Helpers...\n    tag 390\t\t\trequest_ = kycRequests[Helpers...\n      JUMPDEST \t\t\trequest_ = kycRequests[Helpers...\n      POP \t\t\trequest_ = kycRequests[Helpers...\n      POP \t\t\trequest_ = kycRequests[Helpers...\n      POP \t\t\trequest_ = kycRequests[Helpers...\n      POP \t\t\trequest_ = kycRequests[Helpers...\n      POP \t\t\trequest_ = kycRequests[Helpers...\n      DUP2 \t\t\trequest_ = kycRequests[Helpers...\n      MSTORE \t\t\trequest_ = kycRequests[Helpers...\n      PUSH 20\t\t\trequest_ = kycRequests[Helpers...\n      ADD \t\t\trequest_ = kycRequests[Helpers...\n      PUSH 1\t\t\trequest_ = kycRequests[Helpers...\n      DUP3 \t\t\trequest_ = kycRequests[Helpers...\n      ADD \t\t\trequest_ = kycRequests[Helpers...\n      PUSH 0\t\t\trequest_ = kycRequests[Helpers...\n      SWAP1 \t\t\trequest_ = kycRequests[Helpers...\n      SLOAD \t\t\trequest_ = kycRequests[Helpers...\n      SWAP1 \t\t\trequest_ = kycRequests[Helpers...\n      PUSH 100\t\t\trequest_ = kycRequests[Helpers...\n      EXP \t\t\trequest_ = kycRequests[Helpers...\n      SWAP1 \t\t\trequest_ = kycRequests[Helpers...\n      DIV \t\t\trequest_ = kycRequests[Helpers...\n      PUSH FFFFFFFFFFFFFFFFFFFFFFFFFFFFFFFFFFFFFFFF\t\t\trequest_ = kycRequests[Helpers...\n      AND \t\t\trequest_ = kycRequests[Helpers...\n      PUSH FFFFFFFFFFFFFFFFFFFFFFFFFFFFFFFFFFFFFFFF\t\t\trequest_ = kycRequests[Helpers...\n      AND \t\t\trequest_ = kycRequests[Helpers...\n      PUSH FFFFFFFFFFFFFFFFFFFFFFFFFFFFFFFFFFFFFFFF\t\t\trequest_ = kycRequests[Helpers...\n      AND \t\t\trequest_ = kycRequests[Helpers...\n      DUP2 \t\t\trequest_ = kycRequests[Helpers...\n      MSTORE \t\t\trequest_ = kycRequests[Helpers...\n      PUSH 20\t\t\trequest_ = kycRequests[Helpers...\n      ADD \t\t\trequest_ = kycRequests[Helpers...\n      PUSH 2\t\t\trequest_ = kycRequests[Helpers...\n      DUP3 \t\t\trequest_ = kycRequests[Helpers...\n      ADD \t\t\trequest_ = kycRequests[Helpers...\n      DUP1 \t\t\trequest_ = kycRequests[Helpers...\n      SLOAD \t\t\trequest_ = kycRequests[Helpers...\n      PUSH [tag] 393\t\t\trequest_ = kycRequests[Helpers...\n      SWAP1 \t\t\trequest_ = kycRequests[Helpers...\n      PUSH [tag] 113\t\t\trequest_ = kycRequests[Helpers...\n      JUMP \t\t\trequest_ = kycRequests[Helpers...\n    tag 393\t\t\trequest_ = kycRequests[Helpers...\n      JUMPDEST \t\t\trequest_ = kycRequests[Helpers...\n      DUP1 \t\t\trequest_ = kycRequests[Helpers...\n      PUSH 1F\t\t\trequest_ = kycRequests[Helpers...\n      ADD \t\t\trequest_ = kycRequests[Helpers...\n      PUSH 20\t\t\trequest_ = kycRequests[Helpers...\n      DUP1 \t\t\trequest_ = kycRequests[Helpers...\n      SWAP2 \t\t\trequest_ = kycRequests[Helpers...\n      DIV \t\t\trequest_ = kycRequests[Helpers...\n      MUL \t\t\trequest_ = kycRequests[Helpers...\n      PUSH 20\t\t\trequest_ = kycRequests[Helpers...\n      ADD \t\t\trequest_ = kycRequests[Helpers...\n      PUSH 40\t\t\trequest_ = kycRequests[Helpers...\n      MLOAD \t\t\trequest_ = kycRequests[Helpers...\n      SWAP1 \t\t\trequest_ = kycRequests[Helpers...\n      DUP2 \t\t\trequest_ = kycRequests[Helpers...\n      ADD \t\t\trequest_ = kycRequests[Helpers...\n      PUSH 40\t\t\trequest_ = kycRequests[Helpers...\n      MSTORE \t\t\trequest_ = kycRequests[Helpers...\n      DUP1 \t\t\trequest_ = kycRequests[Helpers...\n      SWAP3 \t\t\trequest_ = kycRequests[Helpers...\n      SWAP2 \t\t\trequest_ = kycRequests[Helpers...\n      SWAP1 \t\t\trequest_ = kycRequests[Helpers...\n      DUP2 \t\t\trequest_ = kycRequests[Helpers...\n      DUP2 \t\t\trequest_ = kycRequests[Helpers...\n      MSTORE \t\t\trequest_ = kycRequests[Helpers...\n      PUSH 20\t\t\trequest_ = kycRequests[Helpers...\n      ADD \t\t\trequest_ = kycRequests[Helpers...\n      DUP3 \t\t\trequest_ = kycRequests[Helpers...\n      DUP1 \t\t\trequest_ = kycRequests[Helpers...\n      SLOAD \t\t\trequest_ = kycRequests[Helpers...\n      PUSH [tag] 394\t\t\trequest_ = kycRequests[Helpers...\n      SWAP1 \t\t\trequest_ = kycRequests[Helpers...\n      PUSH [tag] 113\t\t\trequest_ = kycRequests[Helpers...\n      JUMP \t\t\trequest_ = kycRequests[Helpers...\n    tag 394\t\t\trequest_ = kycRequests[Helpers...\n      JUMPDEST \t\t\trequest_ = kycRequests[Helpers...\n      DUP1 \t\t\trequest_ = kycRequests[Helpers...\n      ISZERO \t\t\trequest_ = kycRequests[Helpers...\n      PUSH [tag] 395\t\t\trequest_ = kycRequests[Helpers...\n      JUMPI \t\t\trequest_ = kycRequests[Helpers...\n      DUP1 \t\t\trequest_ = kycRequests[Helpers...\n      PUSH 1F\t\t\trequest_ = kycRequests[Helpers...\n      LT \t\t\trequest_ = kycRequests[Helpers...\n      PUSH [tag] 396\t\t\trequest_ = kycRequests[Helpers...\n      JUMPI \t\t\trequest_ = kycRequests[Helpers...\n      PUSH 100\t\t\trequest_ = kycRequests[Helpers...\n      DUP1 \t\t\trequest_ = kycRequests[Helpers...\n      DUP4 \t\t\trequest_ = kycRequests[Helpers...\n      SLOAD \t\t\trequest_ = kycRequests[Helpers...\n      DIV \t\t\trequest_ = kycRequests[Helpers...\n      MUL \t\t\trequest_ = kycRequests[Helpers...\n      DUP4 \t\t\trequest_ = kycRequests[Helpers...\n      MSTORE \t\t\trequest_ = kycRequests[Helpers...\n      SWAP2 \t\t\trequest_ = kycRequests[Helpers...\n      PUSH 20\t\t\trequest_ = kycRequests[Helpers...\n      ADD \t\t\trequest_ = kycRequests[Helpers...\n      SWAP2 \t\t\trequest_ = kycRequests[Helpers...\n      PUSH [tag] 395\t\t\trequest_ = kycRequests[Helpers...\n      JUMP \t\t\trequest_ = kycRequests[Helpers...\n    tag 396\t\t\trequest_ = kycRequests[Helpers...\n      JUMPDEST \t\t\trequest_ = kycRequests[Helpers...\n      DUP3 \t\t\trequest_ = kycRequests[Helpers...\n      ADD \t\t\trequest_ = kycRequests[Helpers...\n      SWAP2 \t\t\trequest_ = kycRequests[Helpers...\n      SWAP1 \t\t\trequest_ = kycRequests[Helpers...\n      PUSH 0\t\t\trequest_ = kycRequests[Helpers...\n      MSTORE \t\t\trequest_ = kycRequests[Helpers...\n      PUSH 20\t\t\trequest_ = kycRequests[Helpers...\n      PUSH 0\t\t\trequest_ = kycRequests[Helpers...\n      KECCAK256 \t\t\trequest_ = kycRequests[Helpers...\n      SWAP1 \t\t\trequest_ = kycRequests[Helpers...\n    tag 397\t\t\trequest_ = kycRequests[Helpers...\n      JUMPDEST \t\t\trequest_ = kycRequests[Helpers...\n      DUP2 \t\t\trequest_ = kycRequests[Helpers...\n      SLOAD \t\t\trequest_ = kycRequests[Helpers...\n      DUP2 \t\t\trequest_ = kycRequests[Helpers...\n      MSTORE \t\t\trequest_ = kycRequests[Helpers...\n      SWAP1 \t\t\trequest_ = kycRequests[Helpers...\n      PUSH 1\t\t\trequest_ = kycRequests[Helpers...\n      ADD \t\t\trequest_ = kycRequests[Helpers...\n      SWAP1 \t\t\trequest_ = kycRequests[Helpers...\n      PUSH 20\t\t\trequest_ = kycRequests[Helpers...\n      ADD \t\t\trequest_ = kycRequests[Helpers...\n      DUP1 \t\t\trequest_ = kycRequests[Helpers...\n      DUP4 \t\t\trequest_ = kycRequests[Helpers...\n      GT \t\t\trequest_ = kycRequests[Helpers...\n      PUSH [tag] 397\t\t\trequest_ = kycRequests[Helpers...\n      JUMPI \t\t\trequest_ = kycRequests[Helpers...\n      DUP3 \t\t\trequest_ = kycRequests[Helpers...\n      SWAP1 \t\t\trequest_ = kycRequests[Helpers...\n      SUB \t\t\trequest_ = kycRequests[Helpers...\n      PUSH 1F\t\t\trequest_ = kycRequests[Helpers...\n      AND \t\t\trequest_ = kycRequests[Helpers...\n      DUP3 \t\t\trequest_ = kycRequests[Helpers...\n      ADD \t\t\trequest_ = kycRequests[Helpers...\n      SWAP2 \t\t\trequest_ = kycRequests[Helpers...\n    tag 395\t\t\trequest_ = kycRequests[Helpers...\n      JUMPDEST \t\t\trequest_ = kycRequests[Helpers...\n      POP \t\t\trequest_ = kycRequests[Helpers...\n      POP \t\t\trequest_ = kycRequests[Helpers...\n      POP \t\t\trequest_ = kycRequests[Helpers...\n      POP \t\t\trequest_ = kycRequests[Helpers...\n      POP \t\t\trequest_ = kycRequests[Helpers...\n      DUP2 \t\t\trequest_ = kycRequests[Helpers...\n      MSTORE \t\t\trequest_ = kycRequests[Helpers...\n      PUSH 20\t\t\trequest_ = kycRequests[Helpers...\n      ADD \t\t\trequest_ = kycRequests[Helpers...\n      PUSH 3\t\t\trequest_ = kycRequests[Helpers...\n      DUP3 \t\t\trequest_ = kycRequests[Helpers...\n      ADD \t\t\trequest_ = kycRequests[Helpers...\n      PUSH 0\t\t\trequest_ = kycRequests[Helpers...\n      SWAP1 \t\t\trequest_ = kycRequests[Helpers...\n      SLOAD \t\t\trequest_ = kycRequests[Helpers...\n      SWAP1 \t\t\trequest_ = kycRequests[Helpers...\n      PUSH 100\t\t\trequest_ = kycRequests[Helpers...\n      EXP \t\t\trequest_ = kycRequests[Helpers...\n      SWAP1 \t\t\trequest_ = kycRequests[Helpers...\n      DIV \t\t\trequest_ = kycRequests[Helpers...\n      PUSH FFFFFFFFFFFFFFFFFFFFFFFFFFFFFFFFFFFFFFFF\t\t\trequest_ = kycRequests[Helpers...\n      AND \t\t\trequest_ = kycRequests[Helpers...\n      PUSH FFFFFFFFFFFFFFFFFFFFFFFFFFFFFFFFFFFFFFFF\t\t\trequest_ = kycRequests[Helpers...\n      AND \t\t\trequest_ = kycRequests[Helpers...\n      PUSH FFFFFFFFFFFFFFFFFFFFFFFFFFFFFFFFFFFFFFFF\t\t\trequest_ = kycRequests[Helpers...\n      AND \t\t\trequest_ = kycRequests[Helpers...\n      DUP2 \t\t\trequest_ = kycRequests[Helpers...\n      MSTORE \t\t\trequest_ = kycRequests[Helpers...\n      PUSH 20\t\t\trequest_ = kycRequests[Helpers...\n      ADD \t\t\trequest_ = kycRequests[Helpers...\n      PUSH 4\t\t\trequest_ = kycRequests[Helpers...\n      DUP3 \t\t\trequest_ = kycRequests[Helpers...\n      ADD \t\t\trequest_ = kycRequests[Helpers...\n      DUP1 \t\t\trequest_ = kycRequests[Helpers...\n      SLOAD \t\t\trequest_ = kycRequests[Helpers...\n      PUSH [tag] 398\t\t\trequest_ = kycRequests[Helpers...\n      SWAP1 \t\t\trequest_ = kycRequests[Helpers...\n      PUSH [tag] 113\t\t\trequest_ = kycRequests[Helpers...\n      JUMP \t\t\trequest_ = kycRequests[Helpers...\n    tag 398\t\t\trequest_ = kycRequests[Helpers...\n      JUMPDEST \t\t\trequest_ = kycRequests[Helpers...\n      DUP1 \t\t\trequest_ = kycRequests[Helpers...\n      PUSH 1F\t\t\trequest_ = kycRequests[Helpers...\n      ADD \t\t\trequest_ = kycRequests[Helpers...\n      PUSH 20\t\t\trequest_ = kycRequests[Helpers...\n      DUP1 \t\t\trequest_ = kycRequests[Helpers...\n      SWAP2 \t\t\trequest_ = kycRequests[Helpers...\n      DIV \t\t\trequest_ = kycRequests[Helpers...\n      MUL \t\t\trequest_ = kycRequests[Helpers...\n      PUSH 20\t\t\trequest_ = kycRequests[Helpers...\n      ADD \t\t\trequest_ = kycRequests[Helpers...\n      PUSH 40\t\t\trequest_ = kycRequests[Helpers...\n      MLOAD \t\t\trequest_ = kycRequests[Helpers...\n      SWAP1 \t\t\trequest_ = kycRequests[Helpers...\n      DUP2 \t\t\trequest_ = kycRequests[Helpers...\n      ADD \t\t\trequest_ = kycRequests[Helpers...\n      PUSH 40\t\t\trequest_ = kycRequests[Helpers...\n      MSTORE \t\t\trequest_ = kycRequests[Helpers...\n      DUP1 \t\t\trequest_ = kycRequests[Helpers...\n      SWAP3 \t\t\trequest_ = kycRequests[Helpers...\n      SWAP2 \t\t\trequest_ = kycRequests[Helpers...\n      SWAP1 \t\t\trequest_ = kycRequests[Helpers...\n      DUP2 \t\t\trequest_ = kycRequests[Helpers...\n      DUP2 \t\t\trequest_ = kycRequests[Helpers...\n      MSTORE \t\t\trequest_ = kycRequests[Helpers...\n      PUSH 20\t\t\trequest_ = kycRequests[Helpers...\n      ADD \t\t\trequest_ = kycRequests[Helpers...\n      DUP3 \t\t\trequest_ = kycRequests[Helpers...\n      DUP1 \t\t\trequest_ = kycRequests[Helpers...\n      SLOAD \t\t\trequest_ = kycRequests[Helpers...\n      PUSH [tag] 399\t\t\trequest_ = kycRequests[Helpers...\n      SWAP1 \t\t\trequest_ = kycRequests[Helpers...\n      PUSH [tag] 113\t\t\trequest_ = kycRequests[Helpers...\n      JUMP \t\t\trequest_ = kycRequests[Helpers...\n    tag 399\t\t\trequest_ = kycRequests[Helpers...\n      JUMPDEST \t\t\trequest_ = kycRequests[Helpers...\n      DUP1 \t\t\trequest_ = kycRequests[Helpers...\n      ISZERO \t\t\trequest_ = kycRequests[Helpers...\n      PUSH [tag] 400\t\t\trequest_ = kycRequests[Helpers...\n      JUMPI \t\t\trequest_ = kycRequests[Helpers...\n      DUP1 \t\t\trequest_ = kycRequests[Helpers...\n      PUSH 1F\t\t\trequest_ = kycRequests[Helpers...\n      LT \t\t\trequest_ = kycRequests[Helpers...\n      PUSH [tag] 401\t\t\trequest_ = kycRequests[Helpers...\n      JUMPI \t\t\trequest_ = kycRequests[Helpers...\n      PUSH 100\t\t\trequest_ = kycRequests[Helpers...\n      DUP1 \t\t\trequest_ = kycRequests[Helpers...\n      DUP4 \t\t\trequest_ = kycRequests[Helpers...\n      SLOAD \t\t\trequest_ = kycRequests[Helpers...\n      DIV \t\t\trequest_ = kycRequests[Helpers...\n      MUL \t\t\trequest_ = kycRequests[Helpers...\n      DUP4 \t\t\trequest_ = kycRequests[Helpers...\n      MSTORE \t\t\trequest_ = kycRequests[Helpers...\n      SWAP2 \t\t\trequest_ = kycRequests[Helpers...\n      PUSH 20\t\t\trequest_ = kycRequests[Helpers...\n      ADD \t\t\trequest_ = kycRequests[Helpers...\n      SWAP2 \t\t\trequest_ = kycRequests[Helpers...\n      PUSH [tag] 400\t\t\trequest_ = kycRequests[Helpers...\n      JUMP \t\t\trequest_ = kycRequests[Helpers...\n    tag 401\t\t\trequest_ = kycRequests[Helpers...\n      JUMPDEST \t\t\trequest_ = kycRequests[Helpers...\n      DUP3 \t\t\trequest_ = kycRequests[Helpers...\n      ADD \t\t\trequest_ = kycRequests[Helpers...\n      SWAP2 \t\t\trequest_ = kycRequests[Helpers...\n      SWAP1 \t\t\trequest_ = kycRequests[Helpers...\n      PUSH 0\t\t\trequest_ = kycRequests[Helpers...\n      MSTORE \t\t\trequest_ = kycRequests[Helpers...\n      PUSH 20\t\t\trequest_ = kycRequests[Helpers...\n      PUSH 0\t\t\trequest_ = kycRequests[Helpers...\n      KECCAK256 \t\t\trequest_ = kycRequests[Helpers...\n      SWAP1 \t\t\trequest_ = kycRequests[Helpers...\n    tag 402\t\t\trequest_ = kycRequests[Helpers...\n      JUMPDEST \t\t\trequest_ = kycRequests[Helpers...\n      DUP2 \t\t\trequest_ = kycRequests[Helpers...\n      SLOAD \t\t\trequest_ = kycRequests[Helpers...\n      DUP2 \t\t\trequest_ = kycRequests[Helpers...\n      MSTORE \t\t\trequest_ = kycRequests[Helpers...\n      SWAP1 \t\t\trequest_ = kycRequests[Helpers...\n      PUSH 1\t\t\trequest_ = kycRequests[Helpers...\n      ADD \t\t\trequest_ = kycRequests[Helpers...\n      SWAP1 \t\t\trequest_ = kycRequests[Helpers...\n      PUSH 20\t\t\trequest_ = kycRequests[Helpers...\n      ADD \t\t\trequest_ = kycRequests[Helpers...\n      DUP1 \t\t\trequest_ = kycRequests[Helpers...\n      DUP4 \t\t\trequest_ = kycRequests[Helpers...\n      GT \t\t\trequest_ = kycRequests[Helpers...\n      PUSH [tag] 402\t\t\trequest_ = kycRequests[Helpers...\n      JUMPI \t\t\trequest_ = kycRequests[Helpers...\n      DUP3 \t\t\trequest_ = kycRequests[Helpers...\n      SWAP1 \t\t\trequest_ = kycRequests[Helpers...\n      SUB \t\t\trequest_ = kycRequests[Helpers...\n      PUSH 1F\t\t\trequest_ = kycRequests[Helpers...\n      AND \t\t\trequest_ = kycRequests[Helpers...\n      DUP3 \t\t\trequest_ = kycRequests[Helpers...\n      ADD \t\t\trequest_ = kycRequests[Helpers...\n      SWAP2 \t\t\trequest_ = kycRequests[Helpers...\n    tag 400\t\t\trequest_ = kycRequests[Helpers...\n      JUMPDEST \t\t\trequest_ = kycRequests[Helpers...\n      POP \t\t\trequest_ = kycRequests[Helpers...\n      POP \t\t\trequest_ = kycRequests[Helpers...\n      POP \t\t\trequest_ = kycRequests[Helpers...\n      POP \t\t\trequest_ = kycRequests[Helpers...\n      POP \t\t\trequest_ = kycRequests[Helpers...\n      DUP2 \t\t\trequest_ = kycRequests[Helpers...\n      MSTORE \t\t\trequest_ = kycRequests[Helpers...\n      PUSH 20\t\t\trequest_ = kycRequests[Helpers...\n      ADD \t\t\trequest_ = kycRequests[Helpers...\n      PUSH 5\t\t\trequest_ = kycRequests[Helpers...\n      DUP3 \t\t\trequest_ = kycRequests[Helpers...\n      ADD \t\t\trequest_ = kycRequests[Helpers...\n      DUP1 \t\t\trequest_ = kycRequests[Helpers...\n      SLOAD \t\t\trequest_ = kycRequests[Helpers...\n      PUSH [tag] 403\t\t\trequest_ = kycRequests[Helpers...\n      SWAP1 \t\t\trequest_ = kycRequests[Helpers...\n      PUSH [tag] 113\t\t\trequest_ = kycRequests[Helpers...\n      JUMP \t\t\trequest_ = kycRequests[Helpers...\n    tag 403\t\t\trequest_ = kycRequests[Helpers...\n      JUMPDEST \t\t\trequest_ = kycRequests[Helpers...\n      DUP1 \t\t\trequest_ = kycRequests[Helpers...\n      PUSH 1F\t\t\trequest_ = kycRequests[Helpers...\n      ADD \t\t\trequest_ = kycRequests[Helpers...\n      PUSH 20\t\t\trequest_ = kycRequests[Helpers...\n      DUP1 \t\t\trequest_ = kycRequests[Helpers...\n      SWAP2 \t\t\trequest_ = kycRequests[Helpers...\n      DIV \t\t\trequest_ = kycRequests[Helpers...\n      MUL \t\t\trequest_ = kycRequests[Helpers...\n      PUSH 20\t\t\trequest_ = kycRequests[Helpers...\n      ADD \t\t\trequest_ = kycRequests[Helpers...\n      PUSH 40\t\t\trequest_ = kycRequests[Helpers...\n      MLOAD \t\t\trequest_ = kycRequests[Helpers...\n      SWAP1 \t\t\trequest_ = kycRequests[Helpers...\n      DUP2 \t\t\trequest_ = kycRequests[Helpers...\n      ADD \t\t\trequest_ = kycRequests[Helpers...\n      PUSH 40\t\t\trequest_ = kycRequests[Helpers...\n      MSTORE \t\t\trequest_ = kycRequests[Helpers...\n      DUP1 \t\t\trequest_ = kycRequests[Helpers...\n      SWAP3 \t\t\trequest_ = kycRequests[Helpers...\n      SWAP2 \t\t\trequest_ = kycRequests[Helpers...\n      SWAP1 \t\t\trequest_ = kycRequests[Helpers...\n      DUP2 \t\t\trequest_ = kycRequests[Helpers...\n      DUP2 \t\t\trequest_ = kycRequests[Helpers...\n      MSTORE \t\t\trequest_ = kycRequests[Helpers...\n      PUSH 20\t\t\trequest_ = kycRequests[Helpers...\n      ADD \t\t\trequest_ = kycRequests[Helpers...\n      DUP3 \t\t\trequest_ = kycRequests[Helpers...\n      DUP1 \t\t\trequest_ = kycRequests[Helpers...\n      SLOAD \t\t\trequest_ = kycRequests[Helpers...\n      PUSH [tag] 404\t\t\trequest_ = kycRequests[Helpers...\n      SWAP1 \t\t\trequest_ = kycRequests[Helpers...\n      PUSH [tag] 113\t\t\trequest_ = kycRequests[Helpers...\n      JUMP \t\t\trequest_ = kycRequests[Helpers...\n    tag 404\t\t\trequest_ = kycRequests[Helpers...\n      JUMPDEST \t\t\trequest_ = kycRequests[Helpers...\n      DUP1 \t\t\trequest_ = kycRequests[Helpers...\n      ISZERO \t\t\trequest_ = kycRequests[Helpers...\n      PUSH [tag] 405\t\t\trequest_ = kycRequests[Helpers...\n      JUMPI \t\t\trequest_ = kycRequests[Helpers...\n      DUP1 \t\t\trequest_ = kycRequests[Helpers...\n      PUSH 1F\t\t\trequest_ = kycRequests[Helpers...\n      LT \t\t\trequest_ = kycRequests[Helpers...\n      PUSH [tag] 406\t\t\trequest_ = kycRequests[Helpers...\n      JUMPI \t\t\trequest_ = kycRequests[Helpers...\n      PUSH 100\t\t\trequest_ = kycRequests[Helpers...\n      DUP1 \t\t\trequest_ = kycRequests[Helpers...\n      DUP4 \t\t\trequest_ = kycRequests[Helpers...\n      SLOAD \t\t\trequest_ = kycRequests[Helpers...\n      DIV \t\t\trequest_ = kycRequests[Helpers...\n      MUL \t\t\trequest_ = kycRequests[Helpers...\n      DUP4 \t\t\trequest_ = kycRequests[Helpers...\n      MSTORE \t\t\trequest_ = kycRequests[Helpers...\n      SWAP2 \t\t\trequest_ = kycRequests[Helpers...\n      PUSH 20\t\t\trequest_ = kycRequests[Helpers...\n      ADD \t\t\trequest_ = kycRequests[Helpers...\n      SWAP2 \t\t\trequest_ = kycRequests[Helpers...\n      PUSH [tag] 405\t\t\trequest_ = kycRequests[Helpers...\n      JUMP \t\t\trequest_ = kycRequests[Helpers...\n    tag 406\t\t\trequest_ = kycRequests[Helpers...\n      JUMPDEST \t\t\trequest_ = kycRequests[Helpers...\n      DUP3 \t\t\trequest_ = kycRequests[Helpers...\n      ADD \t\t\trequest_ = kycRequests[Helpers...\n      SWAP2 \t\t\trequest_ = kycRequests[Helpers...\n      SWAP1 \t\t\trequest_ = kycRequests[Helpers...\n      PUSH 0\t\t\trequest_ = kycRequests[Helpers...\n      MSTORE \t\t\trequest_ = kycRequests[Helpers...\n      PUSH 20\t\t\trequest_ = kycRequests[Helpers...\n      PUSH 0\t\t\trequest_ = kycRequests[Helpers...\n      KECCAK256 \t\t\trequest_ = kycRequests[Helpers...\n      SWAP1 \t\t\trequest_ = kycRequests[Helpers...\n    tag 407\t\t\trequest_ = kycRequests[Helpers...\n      JUMPDEST \t\t\trequest_ = kycRequests[Helpers...\n      DUP2 \t\t\trequest_ = kycRequests[Helpers...\n      SLOAD \t\t\trequest_ = kycRequests[Helpers...\n      DUP2 \t\t\trequest_ = kycRequests[Helpers...\n      MSTORE \t\t\trequest_ = kycRequests[Helpers...\n      SWAP1 \t\t\trequest_ = kycRequests[Helpers...\n      PUSH 1\t\t\trequest_ = kycRequests[Helpers...\n      ADD \t\t\trequest_ = kycRequests[Helpers...\n      SWAP1 \t\t\trequest_ = kycRequests[Helpers...\n      PUSH 20\t\t\trequest_ = kycRequests[Helpers...\n      ADD \t\t\trequest_ = kycRequests[Helpers...\n      DUP1 \t\t\trequest_ = kycRequests[Helpers...\n      DUP4 \t\t\trequest_ = kycRequests[Helpers...\n      GT \t\t\trequest_ = kycRequests[Helpers...\n      PUSH [tag] 407\t\t\trequest_ = kycRequests[Helpers...\n      JUMPI \t\t\trequest_ = kycRequests[Helpers...\n      DUP3 \t\t\trequest_ = kycRequests[Helpers...\n      SWAP1 \t\t\trequest_ = kycRequests[Helpers...\n      SUB \t\t\trequest_ = kycRequests[Helpers...\n      PUSH 1F\t\t\trequest_ = kycRequests[Helpers...\n      AND \t\t\trequest_ = kycRequests[Helpers...\n      DUP3 \t\t\trequest_ = kycRequests[Helpers...\n      ADD \t\t\trequest_ = kycRequests[Helpers...\n      SWAP2 \t\t\trequest_ = kycRequests[Helpers...\n    tag 405\t\t\trequest_ = kycRequests[Helpers...\n      JUMPDEST \t\t\trequest_ = kycRequests[Helpers...\n      POP \t\t\trequest_ = kycRequests[Helpers...\n      POP \t\t\trequest_ = kycRequests[Helpers...\n      POP \t\t\trequest_ = kycRequests[Helpers...\n      POP \t\t\trequest_ = kycRequests[Helpers...\n      POP \t\t\trequest_ = kycRequests[Helpers...\n      DUP2 \t\t\trequest_ = kycRequests[Helpers...\n      MSTORE \t\t\trequest_ = kycRequests[Helpers...\n      PUSH 20\t\t\trequest_ = kycRequests[Helpers...\n      ADD \t\t\trequest_ = kycRequests[Helpers...\n      PUSH 6\t\t\trequest_ = kycRequests[Helpers...\n      DUP3 \t\t\trequest_ = kycRequests[Helpers...\n      ADD \t\t\trequest_ = kycRequests[Helpers...\n      SLOAD \t\t\trequest_ = kycRequests[Helpers...\n      DUP2 \t\t\trequest_ = kycRequests[Helpers...\n      MSTORE \t\t\trequest_ = kycRequests[Helpers...\n      PUSH 20\t\t\trequest_ = kycRequests[Helpers...\n      ADD \t\t\trequest_ = kycRequests[Helpers...\n      PUSH 7\t\t\trequest_ = kycRequests[Helpers...\n      DUP3 \t\t\trequest_ = kycRequests[Helpers...\n      ADD \t\t\trequest_ = kycRequests[Helpers...\n      PUSH 0\t\t\trequest_ = kycRequests[Helpers...\n      SWAP1 \t\t\trequest_ = kycRequests[Helpers...\n      SLOAD \t\t\trequest_ = kycRequests[Helpers...\n      SWAP1 \t\t\trequest_ = kycRequests[Helpers...\n      PUSH 100\t\t\trequest_ = kycRequests[Helpers...\n      EXP \t\t\trequest_ = kycRequests[Helpers...\n      SWAP1 \t\t\trequest_ = kycRequests[Helpers...\n      DIV \t\t\trequest_ = kycRequests[Helpers...\n      PUSH FF\t\t\trequest_ = kycRequests[Helpers...\n      AND \t\t\trequest_ = kycRequests[Helpers...\n      PUSH 2\t\t\trequest_ = kycRequests[Helpers...\n      DUP2 \t\t\trequest_ = kycRequests[Helpers...\n      GT \t\t\trequest_ = kycRequests[Helpers...\n      ISZERO \t\t\trequest_ = kycRequests[Helpers...\n      PUSH [tag] 408\t\t\trequest_ = kycRequests[Helpers...\n      JUMPI \t\t\trequest_ = kycRequests[Helpers...\n      PUSH [tag] 409\t\t\trequest_ = kycRequests[Helpers...\n      PUSH [tag] 135\t\t\trequest_ = kycRequests[Helpers...\n      JUMP \t\t\trequest_ = kycRequests[Helpers...\n    tag 409\t\t\trequest_ = kycRequests[Helpers...\n      JUMPDEST \t\t\trequest_ = kycRequests[Helpers...\n    tag 408\t\t\trequest_ = kycRequests[Helpers...\n      JUMPDEST \t\t\trequest_ = kycRequests[Helpers...\n      PUSH 2\t\t\trequest_ = kycRequests[Helpers...\n      DUP2 \t\t\trequest_ = kycRequests[Helpers...\n      GT \t\t\trequest_ = kycRequests[Helpers...\n      ISZERO \t\t\trequest_ = kycRequests[Helpers...\n      PUSH [tag] 410\t\t\trequest_ = kycRequests[Helpers...\n      JUMPI \t\t\trequest_ = kycRequests[Helpers...\n      PUSH [tag] 411\t\t\trequest_ = kycRequests[Helpers...\n      PUSH [tag] 135\t\t\trequest_ = kycRequests[Helpers...\n      JUMP \t\t\trequest_ = kycRequests[Helpers...\n    tag 411\t\t\trequest_ = kycRequests[Helpers...\n      JUMPDEST \t\t\trequest_ = kycRequests[Helpers...\n    tag 410\t\t\trequest_ = kycRequests[Helpers...\n      JUMPDEST \t\t\trequest_ = kycRequests[Helpers...\n      DUP2 \t\t\trequest_ = kycRequests[Helpers...\n      MSTORE \t\t\trequest_ = kycRequests[Helpers...\n      PUSH 20\t\t\trequest_ = kycRequests[Helpers...\n      ADD \t\t\trequest_ = kycRequests[Helpers...\n      PUSH 7\t\t\trequest_ = kycRequests[Helpers...\n      DUP3 \t\t\trequest_ = kycRequests[Helpers...\n      ADD \t\t\trequest_ = kycRequests[Helpers...\n      PUSH 1\t\t\trequest_ = kycRequests[Helpers...\n      SWAP1 \t\t\trequest_ = kycRequests[Helpers...\n      SLOAD \t\t\trequest_ = kycRequests[Helpers...\n      SWAP1 \t\t\trequest_ = kycRequests[Helpers...\n      PUSH 100\t\t\trequest_ = kycRequests[Helpers...\n      EXP \t\t\trequest_ = kycRequests[Helpers...\n      SWAP1 \t\t\trequest_ = kycRequests[Helpers...\n      DIV \t\t\trequest_ = kycRequests[Helpers...\n      PUSH FF\t\t\trequest_ = kycRequests[Helpers...\n      AND \t\t\trequest_ = kycRequests[Helpers...\n      PUSH 2\t\t\trequest_ = kycRequests[Helpers...\n      DUP2 \t\t\trequest_ = kycRequests[Helpers...\n      GT \t\t\trequest_ = kycRequests[Helpers...\n      ISZERO \t\t\trequest_ = kycRequests[Helpers...\n      PUSH [tag] 412\t\t\trequest_ = kycRequests[Helpers...\n      JUMPI \t\t\trequest_ = kycRequests[Helpers...\n      PUSH [tag] 413\t\t\trequest_ = kycRequests[Helpers...\n      PUSH [tag] 135\t\t\trequest_ = kycRequests[Helpers...\n      JUMP \t\t\trequest_ = kycRequests[Helpers...\n    tag 413\t\t\trequest_ = kycRequests[Helpers...\n      JUMPDEST \t\t\trequest_ = kycRequests[Helpers...\n    tag 412\t\t\trequest_ = kycRequests[Helpers...\n      JUMPDEST \t\t\trequest_ = kycRequests[Helpers...\n      PUSH 2\t\t\trequest_ = kycRequests[Helpers...\n      DUP2 \t\t\trequest_ = kycRequests[Helpers...\n      GT \t\t\trequest_ = kycRequests[Helpers...\n      ISZERO \t\t\trequest_ = kycRequests[Helpers...\n      PUSH [tag] 414\t\t\trequest_ = kycRequests[Helpers...\n      JUMPI \t\t\trequest_ = kycRequests[Helpers...\n      PUSH [tag] 415\t\t\trequest_ = kycRequests[Helpers...\n      PUSH [tag] 135\t\t\trequest_ = kycRequests[Helpers...\n      JUMP \t\t\trequest_ = kycRequests[Helpers...\n    tag 415\t\t\trequest_ = kycRequests[Helpers...\n      JUMPDEST \t\t\trequest_ = kycRequests[Helpers...\n    tag 414\t\t\trequest_ = kycRequests[Helpers...\n      JUMPDEST \t\t\trequest_ = kycRequests[Helpers...\n      DUP2 \t\t\trequest_ = kycRequests[Helpers...\n      MSTORE \t\t\trequest_ = kycRequests[Helpers...\n      PUSH 20\t\t\trequest_ = kycRequests[Helpers...\n      ADD \t\t\trequest_ = kycRequests[Helpers...\n      PUSH 8\t\t\trequest_ = kycRequests[Helpers...\n      DUP3 \t\t\trequest_ = kycRequests[Helpers...\n      ADD \t\t\trequest_ = kycRequests[Helpers...\n      DUP1 \t\t\trequest_ = kycRequests[Helpers...\n      SLOAD \t\t\trequest_ = kycRequests[Helpers...\n      PUSH [tag] 416\t\t\trequest_ = kycRequests[Helpers...\n      SWAP1 \t\t\trequest_ = kycRequests[Helpers...\n      PUSH [tag] 113\t\t\trequest_ = kycRequests[Helpers...\n      JUMP \t\t\trequest_ = kycRequests[Helpers...\n    tag 416\t\t\trequest_ = kycRequests[Helpers...\n      JUMPDEST \t\t\trequest_ = kycRequests[Helpers...\n      DUP1 \t\t\trequest_ = kycRequests[Helpers...\n      PUSH 1F\t\t\trequest_ = kycRequests[Helpers...\n      ADD \t\t\trequest_ = kycRequests[Helpers...\n      PUSH 20\t\t\trequest_ = kycRequests[Helpers...\n      DUP1 \t\t\trequest_ = kycRequests[Helpers...\n      SWAP2 \t\t\trequest_ = kycRequests[Helpers...\n      DIV \t\t\trequest_ = kycRequests[Helpers...\n      MUL \t\t\trequest_ = kycRequests[Helpers...\n      PUSH 20\t\t\trequest_ = kycRequests[Helpers...\n      ADD \t\t\trequest_ = kycRequests[Helpers...\n      PUSH 40\t\t\trequest_ = kycRequests[Helpers...\n      MLOAD \t\t\trequest_ = kycRequests[Helpers...\n      SWAP1 \t\t\trequest_ = kycRequests[Helpers...\n      DUP2 \t\t\trequest_ = kycRequests[Helpers...\n      ADD \t\t\trequest_ = kycRequests[Helpers...\n      PUSH 40\t\t\trequest_ = kycRequests[Helpers...\n      MSTORE \t\t\trequest_ = kycRequests[Helpers...\n      DUP1 \t\t\trequest_ = kycRequests[Helpers...\n      SWAP3 \t\t\trequest_ = kycRequests[Helpers...\n      SWAP2 \t\t\trequest_ = kycRequests[Helpers...\n      SWAP1 \t\t\trequest_ = kycRequests[Helpers...\n      DUP2 \t\t\trequest_ = kycRequests[Helpers...\n      DUP2 \t\t\trequest_ = kycRequests[Helpers...\n      MSTORE \t\t\trequest_ = kycRequests[Helpers...\n      PUSH 20\t\t\trequest_ = kycRequests[Helpers...\n      ADD \t\t\trequest_ = kycRequests[Helpers...\n      DUP3 \t\t\trequest_ = kycRequests[Helpers...\n      DUP1 \t\t\trequest_ = kycRequests[Helpers...\n      SLOAD \t\t\trequest_ = kycRequests[Helpers...\n      PUSH [tag] 417\t\t\trequest_ = kycRequests[Helpers...\n      SWAP1 \t\t\trequest_ = kycRequests[Helpers...\n      PUSH [tag] 113\t\t\trequest_ = kycRequests[Helpers...\n      JUMP \t\t\trequest_ = kycRequests[Helpers...\n    tag 417\t\t\trequest_ = kycRequests[Helpers...\n      JUMPDEST \t\t\trequest_ = kycRequests[Helpers...\n      DUP1 \t\t\trequest_ = kycRequests[Helpers...\n      ISZERO \t\t\trequest_ = kycRequests[Helpers...\n      PUSH [tag] 418\t\t\trequest_ = kycRequests[Helpers...\n      JUMPI \t\t\trequest_ = kycRequests[Helpers...\n      DUP1 \t\t\trequest_ = kycRequests[Helpers...\n      PUSH 1F\t\t\trequest_ = kycRequests[Helpers...\n      LT \t\t\trequest_ = kycRequests[Helpers...\n      PUSH [tag] 419\t\t\trequest_ = kycRequests[Helpers...\n      JUMPI \t\t\trequest_ = kycRequests[Helpers...\n      PUSH 100\t\t\trequest_ = kycRequests[Helpers...\n      DUP1 \t\t\trequest_ = kycRequests[Helpers...\n      DUP4 \t\t\trequest_ = kycRequests[Helpers...\n      SLOAD \t\t\trequest_ = kycRequests[Helpers...\n      DIV \t\t\trequest_ = kycRequests[Helpers...\n      MUL \t\t\trequest_ = kycRequests[Helpers...\n      DUP4 \t\t\trequest_ = kycRequests[Helpers...\n      MSTORE \t\t\trequest_ = kycRequests[Helpers...\n      SWAP2 \t\t\trequest_ = kycRequests[Helpers...\n      PUSH 20\t\t\trequest_ = kycRequests[Helpers...\n      ADD \t\t\trequest_ = kycRequests[Helpers...\n      SWAP2 \t\t\trequest_ = kycRequests[Helpers...\n      PUSH [tag] 418\t\t\trequest_ = kycRequests[Helpers...\n      JUMP \t\t\trequest_ = kycRequests[Helpers...\n    tag 419\t\t\trequest_ = kycRequests[Helpers...\n      JUMPDEST \t\t\trequest_ = kycRequests[Helpers...\n      DUP3 \t\t\trequest_ = kycRequests[Helpers...\n      ADD \t\t\trequest_ = kycRequests[Helpers...\n      SWAP2 \t\t\trequest_ = kycRequests[Helpers...\n      SWAP1 \t\t\trequest_ = kycRequests[Helpers...\n      PUSH 0\t\t\trequest_ = kycRequests[Helpers...\n      MSTORE \t\t\trequest_ = kycRequests[Helpers...\n      PUSH 20\t\t\trequest_ = kycRequests[Helpers...\n      PUSH 0\t\t\trequest_ = kycRequests[Helpers...\n      KECCAK256 \t\t\trequest_ = kycRequests[Helpers...\n      SWAP1 \t\t\trequest_ = kycRequests[Helpers...\n    tag 420\t\t\trequest_ = kycRequests[Helpers...\n      JUMPDEST \t\t\trequest_ = kycRequests[Helpers...\n      DUP2 \t\t\trequest_ = kycRequests[Helpers...\n      SLOAD \t\t\trequest_ = kycRequests[Helpers...\n      DUP2 \t\t\trequest_ = kycRequests[Helpers...\n      MSTORE \t\t\trequest_ = kycRequests[Helpers...\n      SWAP1 \t\t\trequest_ = kycRequests[Helpers...\n      PUSH 1\t\t\trequest_ = kycRequests[Helpers...\n      ADD \t\t\trequest_ = kycRequests[Helpers...\n      SWAP1 \t\t\trequest_ = kycRequests[Helpers...\n      PUSH 20\t\t\trequest_ = kycRequests[Helpers...\n      ADD \t\t\trequest_ = kycRequests[Helpers...\n      DUP1 \t\t\trequest_ = kycRequests[Helpers...\n      DUP4 \t\t\trequest_ = kycRequests[Helpers...\n      GT \t\t\trequest_ = kycRequests[Helpers...\n      PUSH [tag] 420\t\t\trequest_ = kycRequests[Helpers...\n      JUMPI \t\t\trequest_ = kycRequests[Helpers...\n      DUP3 \t\t\trequest_ = kycRequests[Helpers...\n      SWAP1 \t\t\trequest_ = kycRequests[Helpers...\n      SUB \t\t\trequest_ = kycRequests[Helpers...\n      PUSH 1F\t\t\trequest_ = kycRequests[Helpers...\n      AND \t\t\trequest_ = kycRequests[Helpers...\n      DUP3 \t\t\trequest_ = kycRequests[Helpers...\n      ADD \t\t\trequest_ = kycRequests[Helpers...\n      SWAP2 \t\t\trequest_ = kycRequests[Helpers...\n    tag 418\t\t\trequest_ = kycRequests[Helpers...\n      JUMPDEST \t\t\trequest_ = kycRequests[Helpers...\n      POP \t\t\trequest_ = kycRequests[Helpers...\n      POP \t\t\trequest_ = kycRequests[Helpers...\n      POP \t\t\trequest_ = kycRequests[Helpers...\n      POP \t\t\trequest_ = kycRequests[Helpers...\n      POP \t\t\trequest_ = kycRequests[Helpers...\n      DUP2 \t\t\trequest_ = kycRequests[Helpers...\n      MSTORE \t\t\trequest_ = kycRequests[Helpers...\n      POP \t\t\trequest_ = kycRequests[Helpers...\n      POP \t\t\trequest_ = kycRequests[Helpers...\n      SWAP1 \t\t\trequest_ = kycRequests[Helpers...\n      POP \t\t\trequest_ = kycRequests[Helpers...\n    tag 385\t\t\tif (found_) request_ = kycRequ...\n      JUMPDEST \t\t\tif (found_) request_ = kycRequ...\n      DUP3 \t\t\tfound_\n      DUP3 \t\t\tcustomer_\n      DUP3 \t\t\trequest_\n      SWAP8 \t\t\treturn (found_, customer_, req...\n      POP \t\t\treturn (found_, customer_, req...\n      SWAP8 \t\t\treturn (found_, customer_, req...\n      POP \t\t\treturn (found_, customer_, req...\n      SWAP8 \t\t\treturn (found_, customer_, req...\n      POP \t\t\treturn (found_, customer_, req...\n      POP \t\t\treturn (found_, customer_, req...\n      POP \t\t\treturn (found_, customer_, req...\n      POP \t\t\treturn (found_, customer_, req...\n      POP \t\t\t\\n\n      POP \t\t\tfunction searchCustomers(addre...\n      SWAP2 \t\t\tfunction searchCustomers(addre...\n      SWAP4 \t\t\tfunction searchCustomers(addre...\n      SWAP1 \t\t\tfunction searchCustomers(addre...\n      SWAP3 \t\t\tfunction searchCustomers(addre...\n      POP \t\t\tfunction searchCustomers(addre...\n      JUMP \t\t\tfunction searchCustomers(addre...\n    tag 73\t\t\tfunction addKycRequest(\\r\\n   ...\n      JUMPDEST \t\t\tfunction addKycRequest(\\r\\n   ...\n      CALLER \t\t\tmsg.sender\n      PUSH 0\t\t\t \n      PUSH FFFFFFFFFFFFFFFFFFFFFFFFFFFFFFFFFFFFFFFF\t\t\tn);\\r\\n    }\\r\\n\\r\\n    modifi...\n      AND \t\t\tn);\\r\\n    }\\r\\n\\r\\n    modifi...\n      PUSH 3\t\t\tn);\\r\\n\n      PUSH 0\t\t\tn);\\r\\n    }\n      DUP4 \t\t\t   \n      PUSH FFFFFFFFFFFFFFFFFFFFFFFFFFFFFFFFFFFFFFFF\t\t\tn);\\r\\n    }\n      AND \t\t\tn);\\r\\n    }\n      PUSH FFFFFFFFFFFFFFFFFFFFFFFFFFFFFFFFFFFFFFFF\t\t\tn);\\r\\n    }\n      AND \t\t\tn);\\r\\n    }\n      DUP2 \t\t\tn);\\r\\n    }\n      MSTORE \t\t\tn);\\r\\n    }\n      PUSH 20\t\t\tn);\\r\\n    }\n      ADD \t\t\tn);\\r\\n    }\n      SWAP1 \t\t\tn);\\r\\n    }\n      DUP2 \t\t\tn);\\r\\n    }\n      MSTORE \t\t\tn);\\r\\n    }\n      PUSH 20\t\t\tn);\\r\\n    }\n      ADD \t\t\tn);\\r\\n    }\n      PUSH 0\t\t\tn);\\r\\n    }\n      KECCAK256 \t\t\tn);\\r\\n    }\n      PUSH 2\t\t\tn);\\r\\n    }\\r\\n\\r\\n\n      ADD \t\t\tn);\\r\\n    }\\r\\n\\r\\n\n      PUSH 0\t\t\tn);\\r\\n    }\\r\\n\\r\\n\n      SWAP1 \t\t\tn);\\r\\n    }\\r\\n\\r\\n\n      SLOAD \t\t\tn);\\r\\n    }\\r\\n\\r\\n\n      SWAP1 \t\t\tn);\\r\\n    }\\r\\n\\r\\n\n      PUSH 100\t\t\tn);\\r\\n    }\\r\\n\\r\\n\n      EXP \t\t\tn);\\r\\n    }\\r\\n\\r\\n\n      SWAP1 \t\t\tn);\\r\\n    }\\r\\n\\r\\n\n      DIV \t\t\tn);\\r\\n    }\\r\\n\\r\\n\n      PUSH FFFFFFFFFFFFFFFFFFFFFFFFFFFFFFFFFFFFFFFF\t\t\tn);\\r\\n    }\\r\\n\\r\\n\n      AND \t\t\tn);\\r\\n    }\\r\\n\\r\\n\n      PUSH FFFFFFFFFFFFFFFFFFFFFFFFFFFFFFFFFFFFFFFF\t\t\tn);\\r\\n    }\\r\\n\\r\\n    modifi...\n      AND \t\t\tn);\\r\\n    }\\r\\n\\r\\n    modifi...\n      SUB \t\t\tn);\\r\\n    }\\r\\n\\r\\n    modifi...\n      PUSH [tag] 422\t\t\tush(admin);\\r\\n    }\\r\\n\\r\\n  ...\n      JUMPI \t\t\tush(admin);\\r\\n    }\\r\\n\\r\\n  ...\n      PUSH 40\t\t\tush(admin);\\r\\n    }\\r\\n\\r\\n  ...\n      MLOAD \t\t\tush(admin);\\r\\n    }\\r\\n\\r\\n  ...\n      PUSH 8C379A000000000000000000000000000000000000000000000000000000000\t\t\tush(admin);\\r\\n    }\\r\\n\\r\\n  ...\n      DUP2 \t\t\tush(admin);\\r\\n    }\\r\\n\\r\\n  ...\n      MSTORE \t\t\tush(admin);\\r\\n    }\\r\\n\\r\\n  ...\n      PUSH 4\t\t\tush(admin);\\r\\n    }\\r\\n\\r\\n  ...\n      ADD \t\t\tush(admin);\\r\\n    }\\r\\n\\r\\n  ...\n      PUSH [tag] 423\t\t\tush(admin);\\r\\n    }\\r\\n\\r\\n  ...\n      SWAP1 \t\t\tush(admin);\\r\\n    }\\r\\n\\r\\n  ...\n      PUSH [tag] 130\t\t\tush(admin);\\r\\n    }\\r\\n\\r\\n  ...\n      JUMP \t\t\tush(admin);\\r\\n    }\\r\\n\\r\\n  ...\n    tag 423\t\t\tush(admin);\\r\\n    }\\r\\n\\r\\n  ...\n      JUMPDEST \t\t\tush(admin);\\r\\n    }\\r\\n\\r\\n  ...\n      PUSH 40\t\t\tush(admin);\\r\\n    }\\r\\n\\r\\n  ...\n      MLOAD \t\t\tush(admin);\\r\\n    }\\r\\n\\r\\n  ...\n      DUP1 \t\t\tush(admin);\\r\\n    }\\r\\n\\r\\n  ...\n      SWAP2 \t\t\tush(admin);\\r\\n    }\\r\\n\\r\\n  ...\n      SUB \t\t\tush(admin);\\r\\n    }\\r\\n\\r\\n  ...\n      SWAP1 \t\t\tush(admin);\\r\\n    }\\r\\n\\r\\n  ...\n      REVERT \t\t\tush(admin);\\r\\n    }\\r\\n\\r\\n  ...\n    tag 422\t\t\tush(admin);\\r\\n    }\\r\\n\\r\\n  ...\n      JUMPDEST \t\t\tush(admin);\\r\\n    }\\r\\n\\r\\n  ...\n      DUP1 \t\t\tdmi\n      PUSH FFFFFFFFFFFFFFFFFFFFFFFFFFFFFFFFFFFFFFFF\t\t\t == admin, \"Only admi\n      AND \t\t\t == admin, \"Only admi\n      PUSH 3\t\t\t == a\n      PUSH 0\t\t\t == admin,\n      DUP4 \t\t\tmin\n      PUSH FFFFFFFFFFFFFFFFFFFFFFFFFFFFFFFFFFFFFFFF\t\t\t == admin,\n      AND \t\t\t == admin,\n      PUSH FFFFFFFFFFFFFFFFFFFFFFFFFFFFFFFFFFFFFFFF\t\t\t == admin,\n      AND \t\t\t == admin,\n      DUP2 \t\t\t == admin,\n      MSTORE \t\t\t == admin,\n      PUSH 20\t\t\t == admin,\n      ADD \t\t\t == admin,\n      SWAP1 \t\t\t == admin,\n      DUP2 \t\t\t == admin,\n      MSTORE \t\t\t == admin,\n      PUSH 20\t\t\t == admin,\n      ADD \t\t\t == admin,\n      PUSH 0\t\t\t == admin,\n      KECCAK256 \t\t\t == admin,\n      PUSH 2\t\t\t == admin, \"On\n      ADD \t\t\t == admin, \"On\n      PUSH 0\t\t\t == admin, \"On\n      SWAP1 \t\t\t == admin, \"On\n      SLOAD \t\t\t == admin, \"On\n      SWAP1 \t\t\t == admin, \"On\n      PUSH 100\t\t\t == admin, \"On\n      EXP \t\t\t == admin, \"On\n      SWAP1 \t\t\t == admin, \"On\n      DIV \t\t\t == admin, \"On\n      PUSH FFFFFFFFFFFFFFFFFFFFFFFFFFFFFFFFFFFFFFFF\t\t\t == admin, \"On\n      AND \t\t\t == admin, \"On\n      PUSH FFFFFFFFFFFFFFFFFFFFFFFFFFFFFFFFFFFFFFFF\t\t\t == admin, \"Only admi\n      AND \t\t\t == admin, \"Only admi\n      EQ \t\t\t == admin, \"Only admi\n      PUSH [tag] 424\t\t\tg.sender == admin, \"Only admin...\n      JUMPI \t\t\tg.sender == admin, \"Only admin...\n      PUSH 40\t\t\tg.sender == admin, \"Only admin...\n      MLOAD \t\t\tg.sender == admin, \"Only admin...\n      PUSH 8C379A000000000000000000000000000000000000000000000000000000000\t\t\tg.sender == admin, \"Only admin...\n      DUP2 \t\t\tg.sender == admin, \"Only admin...\n      MSTORE \t\t\tg.sender == admin, \"Only admin...\n      PUSH 4\t\t\tg.sender == admin, \"Only admin...\n      ADD \t\t\tg.sender == admin, \"Only admin...\n      PUSH [tag] 425\t\t\tg.sender == admin, \"Only admin...\n      SWAP1 \t\t\tg.sender == admin, \"Only admin...\n      PUSH [tag] 130\t\t\tg.sender == admin, \"Only admin...\n      JUMP \t\t\tg.sender == admin, \"Only admin...\n    tag 425\t\t\tg.sender == admin, \"Only admin...\n      JUMPDEST \t\t\tg.sender == admin, \"Only admin...\n      PUSH 40\t\t\tg.sender == admin, \"Only admin...\n      MLOAD \t\t\tg.sender == admin, \"Only admin...\n      DUP1 \t\t\tg.sender == admin, \"Only admin...\n      SWAP2 \t\t\tg.sender == admin, \"Only admin...\n      SUB \t\t\tg.sender == admin, \"Only admin...\n      SWAP1 \t\t\tg.sender == admin, \"Only admin...\n      REVERT \t\t\tg.sender == admin, \"Only admin...\n    tag 424\t\t\tg.sender == admin, \"Only admin...\n      JUMPDEST \t\t\tg.sender == admin, \"Only admin...\n      PUSH 0\t\t\tg memory reqId_)\\r\\n     \n      PUSH 1\t\t\tycRequestExists(string memory ...\n      DUP2 \t\t\tycRequestExists(string memory ...\n      GT \t\t\tycRequestExists(string memory ...\n      ISZERO \t\t\tycRequestExists(string memory ...\n      PUSH [tag] 426\t\t\tycRequestExists(string memory ...\n      JUMPI \t\t\tycRequestExists(string memory ...\n      PUSH [tag] 427\t\t\tycRequestExists(string memory ...\n      PUSH [tag] 135\t\t\tycRequestExists(string memory ...\n      JUMP \t\t\tycRequestExists(string memory ...\n    tag 427\t\t\tycRequestExists(string memory ...\n      JUMPDEST \t\t\tycRequestExists(string memory ...\n    tag 426\t\t\tycRequestExists(string memory ...\n      JUMPDEST \t\t\tycRequestExists(string memory ...\n      PUSH 3\t\t\tycReq\n      PUSH 0\t\t\tycRequestE\n      DUP4 \t\t\test\n      PUSH FFFFFFFFFFFFFFFFFFFFFFFFFFFFFFFFFFFFFFFF\t\t\tycRequestE\n      AND \t\t\tycRequestE\n      PUSH FFFFFFFFFFFFFFFFFFFFFFFFFFFFFFFFFFFFFFFF\t\t\tycRequestE\n      AND \t\t\tycRequestE\n      DUP2 \t\t\tycRequestE\n      MSTORE \t\t\tycRequestE\n      PUSH 20\t\t\tycRequestE\n      ADD \t\t\tycRequestE\n      SWAP1 \t\t\tycRequestE\n      DUP2 \t\t\tycRequestE\n      MSTORE \t\t\tycRequestE\n      PUSH 20\t\t\tycRequestE\n      ADD \t\t\tycRequestE\n      PUSH 0\t\t\tycRequestE\n      KECCAK256 \t\t\tycRequestE\n      PUSH 4\t\t\tycRequestExists(s\n      ADD \t\t\tycRequestExists(s\n      PUSH 2\t\t\tycRequestExists(s\n      SWAP1 \t\t\tycRequestExists(s\n      SLOAD \t\t\tycRequestExists(s\n      SWAP1 \t\t\tycRequestExists(s\n      PUSH 100\t\t\tycRequestExists(s\n      EXP \t\t\tycRequestExists(s\n      SWAP1 \t\t\tycRequestExists(s\n      DIV \t\t\tycRequestExists(s\n      PUSH FF\t\t\tycRequestExists(s\n      AND \t\t\tycRequestExists(s\n      PUSH 1\t\t\tycRequestExists(string memory ...\n      DUP2 \t\t\tycRequestExists(string memory ...\n      GT \t\t\tycRequestExists(string memory ...\n      ISZERO \t\t\tycRequestExists(string memory ...\n      PUSH [tag] 428\t\t\tycRequestExists(string memory ...\n      JUMPI \t\t\tycRequestExists(string memory ...\n      PUSH [tag] 429\t\t\tycRequestExists(string memory ...\n      PUSH [tag] 135\t\t\tycRequestExists(string memory ...\n      JUMP \t\t\tycRequestExists(string memory ...\n    tag 429\t\t\tycRequestExists(string memory ...\n      JUMPDEST \t\t\tycRequestExists(string memory ...\n    tag 428\t\t\tycRequestExists(string memory ...\n      JUMPDEST \t\t\tycRequestExists(string memory ...\n      EQ \t\t\tycRequestExists(string memory ...\n      PUSH [tag] 430\t\t\t   }\\r\\n\\r\\n    function kycRe...\n      JUMPI \t\t\t   }\\r\\n\\r\\n    function kycRe...\n      PUSH 40\t\t\t   }\\r\\n\\r\\n    function kycRe...\n      MLOAD \t\t\t   }\\r\\n\\r\\n    function kycRe...\n      PUSH 8C379A000000000000000000000000000000000000000000000000000000000\t\t\t   }\\r\\n\\r\\n    function kycRe...\n      DUP2 \t\t\t   }\\r\\n\\r\\n    function kycRe...\n      MSTORE \t\t\t   }\\r\\n\\r\\n    function kycRe...\n      PUSH 4\t\t\t   }\\r\\n\\r\\n    function kycRe...\n      ADD \t\t\t   }\\r\\n\\r\\n    function kycRe...\n      PUSH [tag] 431\t\t\t   }\\r\\n\\r\\n    function kycRe...\n      SWAP1 \t\t\t   }\\r\\n\\r\\n    function kycRe...\n      PUSH [tag] 140\t\t\t   }\\r\\n\\r\\n    function kycRe...\n      JUMP \t\t\t   }\\r\\n\\r\\n    function kycRe...\n    tag 431\t\t\t   }\\r\\n\\r\\n    function kycRe...\n      JUMPDEST \t\t\t   }\\r\\n\\r\\n    function kycRe...\n      PUSH 40\t\t\t   }\\r\\n\\r\\n    function kycRe...\n      MLOAD \t\t\t   }\\r\\n\\r\\n    function kycRe...\n      DUP1 \t\t\t   }\\r\\n\\r\\n    function kycRe...\n      SWAP2 \t\t\t   }\\r\\n\\r\\n    function kycRe...\n      SUB \t\t\t   }\\r\\n\\r\\n    function kycRe...\n      SWAP1 \t\t\t   }\\r\\n\\r\\n    function kycRe...\n      REVERT \t\t\t   }\\r\\n\\r\\n    function kycRe...\n    tag 430\t\t\t   }\\r\\n\\r\\n    function kycRe...\n      JUMPDEST \t\t\t   }\\r\\n\\r\\n    function kycRe...\n      PUSH 0\t\t\tstring memory reqId_\n      PUSH [tag] 433\t\t\tHelpers.append(msg.sender, cus...\n      CALLER \t\t\tmsg.sender\n      DUP7 \t\t\tcustomer_\n      PUSH 60\t\t\tcustomer_.id_\n      ADD \t\t\tcustomer_.id_\n      MLOAD \t\t\tcustomer_.id_\n      PUSH [tag] 157\t\t\tHelpers.append\n      JUMP \t\t\tHelpers.append(msg.sender, cus...\n    tag 433\t\t\tHelpers.append(msg.sender, cus...\n      JUMPDEST \t\t\tHelpers.append(msg.sender, cus...\n      SWAP1 \t\t\tstring memory reqId_ = Helpers...\n      POP \t\t\tstring memory reqId_ = Helpers...\n      PUSH [tag] 434\t\t\tkycRequestExists(reqId_)\n      DUP2 \t\t\treqId_\n      PUSH [tag] 159\t\t\tkycRequestExists\n      JUMP \t\t\tkycRequestExists(reqId_)\n    tag 434\t\t\tkycRequestExists(reqId_)\n      JUMPDEST \t\t\tkycRequestExists(reqId_)\n      ISZERO \t\t\t!kycRequestExists(reqId_)\n      PUSH [tag] 435\t\t\trequire(!kycRequestExists(reqI...\n      JUMPI \t\t\trequire(!kycRequestExists(reqI...\n      PUSH 40\t\t\trequire(!kycRequestExists(reqI...\n      MLOAD \t\t\trequire(!kycRequestExists(reqI...\n      PUSH 8C379A000000000000000000000000000000000000000000000000000000000\t\t\trequire(!kycRequestExists(reqI...\n      DUP2 \t\t\trequire(!kycRequestExists(reqI...\n      MSTORE \t\t\trequire(!kycRequestExists(reqI...\n      PUSH 4\t\t\trequire(!kycRequestExists(reqI...\n      ADD \t\t\trequire(!kycRequestExists(reqI...\n      PUSH [tag] 436\t\t\trequire(!kycRequestExists(reqI...\n      SWAP1 \t\t\trequire(!kycRequestExists(reqI...\n      PUSH [tag] 437\t\t\trequire(!kycRequestExists(reqI...\n      JUMP \t\t\trequire(!kycRequestExists(reqI...\n    tag 436\t\t\trequire(!kycRequestExists(reqI...\n      JUMPDEST \t\t\trequire(!kycRequestExists(reqI...\n      PUSH 40\t\t\trequire(!kycRequestExists(reqI...\n      MLOAD \t\t\trequire(!kycRequestExists(reqI...\n      DUP1 \t\t\trequire(!kycRequestExists(reqI...\n      SWAP2 \t\t\trequire(!kycRequestExists(reqI...\n      SUB \t\t\trequire(!kycRequestExists(reqI...\n      SWAP1 \t\t\trequire(!kycRequestExists(reqI...\n      REVERT \t\t\trequire(!kycRequestExists(reqI...\n    tag 435\t\t\trequire(!kycRequestExists(reqI...\n      JUMPDEST \t\t\trequire(!kycRequestExists(reqI...\n      PUSH 40\t\t\tTypes.KycRequest({\\r\\n        ...\n      MLOAD \t\t\tTypes.KycRequest({\\r\\n        ...\n      DUP1 \t\t\tTypes.KycRequest({\\r\\n        ...\n      PUSH 140\t\t\tTypes.KycRequest({\\r\\n        ...\n      ADD \t\t\tTypes.KycRequest({\\r\\n        ...\n      PUSH 40\t\t\tTypes.KycRequest({\\r\\n        ...\n      MSTORE \t\t\tTypes.KycRequest({\\r\\n        ...\n      DUP1 \t\t\tTypes.KycRequest({\\r\\n        ...\n      DUP3 \t\t\treqId_\n      DUP2 \t\t\tTypes.KycRequest({\\r\\n        ...\n      MSTORE \t\t\tTypes.KycRequest({\\r\\n        ...\n      PUSH 20\t\t\tTypes.KycRequest({\\r\\n        ...\n      ADD \t\t\tTypes.KycRequest({\\r\\n        ...\n      DUP7 \t\t\tcustomer_\n      PUSH 60\t\t\tcustomer_.id_\n      ADD \t\t\tcustomer_.id_\n      MLOAD \t\t\tcustomer_.id_\n      PUSH FFFFFFFFFFFFFFFFFFFFFFFFFFFFFFFFFFFFFFFF\t\t\tTypes.KycRequest({\\r\\n        ...\n      AND \t\t\tTypes.KycRequest({\\r\\n        ...\n      DUP2 \t\t\tTypes.KycRequest({\\r\\n        ...\n      MSTORE \t\t\tTypes.KycRequest({\\r\\n        ...\n      PUSH 20\t\t\tTypes.KycRequest({\\r\\n        ...\n      ADD \t\t\tTypes.KycRequest({\\r\\n        ...\n      DUP7 \t\t\tcustomer_\n      PUSH 0\t\t\tcustomer_.name\n      ADD \t\t\tcustomer_.name\n      MLOAD \t\t\tcustomer_.name\n      DUP2 \t\t\tTypes.KycRequest({\\r\\n        ...\n      MSTORE \t\t\tTypes.KycRequest({\\r\\n        ...\n      PUSH 20\t\t\tTypes.KycRequest({\\r\\n        ...\n      ADD \t\t\tTypes.KycRequest({\\r\\n        ...\n      CALLER \t\t\tmsg.sender\n      PUSH FFFFFFFFFFFFFFFFFFFFFFFFFFFFFFFFFFFFFFFF\t\t\tTypes.KycRequest({\\r\\n        ...\n      AND \t\t\tTypes.KycRequest({\\r\\n        ...\n      DUP2 \t\t\tTypes.KycRequest({\\r\\n        ...\n      MSTORE \t\t\tTypes.KycRequest({\\r\\n        ...\n      PUSH 20\t\t\tTypes.KycRequest({\\r\\n        ...\n      ADD \t\t\tTypes.KycRequest({\\r\\n        ...\n      PUSH [tag] 438\t\t\tgetsinglebank(msg.sender)\n      CALLER \t\t\tmsg.sender\n      PUSH [tag] 143\t\t\tgetsinglebank\n      JUMP \t\t\tgetsinglebank(msg.sender)\n    tag 438\t\t\tgetsinglebank(msg.sender)\n      JUMPDEST \t\t\tgetsinglebank(msg.sender)\n      PUSH 0\t\t\tgetsinglebank(msg.sender).name\n      ADD \t\t\tgetsinglebank(msg.sender).name\n      MLOAD \t\t\tgetsinglebank(msg.sender).name\n      DUP2 \t\t\tTypes.KycRequest({\\r\\n        ...\n      MSTORE \t\t\tTypes.KycRequest({\\r\\n        ...\n      PUSH 20\t\t\tTypes.KycRequest({\\r\\n        ...\n      ADD \t\t\tTypes.KycRequest({\\r\\n        ...\n      DUP7 \t\t\tcustomer_\n      PUSH A0\t\t\tcustomer_.dataHash\n      ADD \t\t\tcustomer_.dataHash\n      MLOAD \t\t\tcustomer_.dataHash\n      DUP2 \t\t\tTypes.KycRequest({\\r\\n        ...\n      MSTORE \t\t\tTypes.KycRequest({\\r\\n        ...\n      PUSH 20\t\t\tTypes.KycRequest({\\r\\n        ...\n      ADD \t\t\tTypes.KycRequest({\\r\\n        ...\n      DUP6 \t\t\tcurrentTime_\n      DUP2 \t\t\tTypes.KycRequest({\\r\\n        ...\n      MSTORE \t\t\tTypes.KycRequest({\\r\\n        ...\n      PUSH 20\t\t\tTypes.KycRequest({\\r\\n        ...\n      ADD \t\t\tTypes.KycRequest({\\r\\n        ...\n      PUSH 0\t\t\tTypes.KycStatus.Pending\n      PUSH 2\t\t\tTypes.KycRequest({\\r\\n        ...\n      DUP2 \t\t\tTypes.KycRequest({\\r\\n        ...\n      GT \t\t\tTypes.KycRequest({\\r\\n        ...\n      ISZERO \t\t\tTypes.KycRequest({\\r\\n        ...\n      PUSH [tag] 439\t\t\tTypes.KycRequest({\\r\\n        ...\n      JUMPI \t\t\tTypes.KycRequest({\\r\\n        ...\n      PUSH [tag] 440\t\t\tTypes.KycRequest({\\r\\n        ...\n      PUSH [tag] 135\t\t\tTypes.KycRequest({\\r\\n        ...\n      JUMP \t\t\tTypes.KycRequest({\\r\\n        ...\n    tag 440\t\t\tTypes.KycRequest({\\r\\n        ...\n      JUMPDEST \t\t\tTypes.KycRequest({\\r\\n        ...\n    tag 439\t\t\tTypes.KycRequest({\\r\\n        ...\n      JUMPDEST \t\t\tTypes.KycRequest({\\r\\n        ...\n      DUP2 \t\t\tTypes.KycRequest({\\r\\n        ...\n      MSTORE \t\t\tTypes.KycRequest({\\r\\n        ...\n      PUSH 20\t\t\tTypes.KycRequest({\\r\\n        ...\n      ADD \t\t\tTypes.KycRequest({\\r\\n        ...\n      PUSH 0\t\t\tTypes.DataHashStatus.Pending\n      PUSH 2\t\t\tTypes.KycRequest({\\r\\n        ...\n      DUP2 \t\t\tTypes.KycRequest({\\r\\n        ...\n      GT \t\t\tTypes.KycRequest({\\r\\n        ...\n      ISZERO \t\t\tTypes.KycRequest({\\r\\n        ...\n      PUSH [tag] 441\t\t\tTypes.KycRequest({\\r\\n        ...\n      JUMPI \t\t\tTypes.KycRequest({\\r\\n        ...\n      PUSH [tag] 442\t\t\tTypes.KycRequest({\\r\\n        ...\n      PUSH [tag] 135\t\t\tTypes.KycRequest({\\r\\n        ...\n      JUMP \t\t\tTypes.KycRequest({\\r\\n        ...\n    tag 442\t\t\tTypes.KycRequest({\\r\\n        ...\n      JUMPDEST \t\t\tTypes.KycRequest({\\r\\n        ...\n    tag 441\t\t\tTypes.KycRequest({\\r\\n        ...\n      JUMPDEST \t\t\tTypes.KycRequest({\\r\\n        ...\n      DUP2 \t\t\tTypes.KycRequest({\\r\\n        ...\n      MSTORE \t\t\tTypes.KycRequest({\\r\\n        ...\n      PUSH 20\t\t\tTypes.KycRequest({\\r\\n        ...\n      ADD \t\t\tTypes.KycRequest({\\r\\n        ...\n      DUP5 \t\t\tnotes_\n      DUP2 \t\t\tTypes.KycRequest({\\r\\n        ...\n      MSTORE \t\t\tTypes.KycRequest({\\r\\n        ...\n      POP \t\t\tTypes.KycRequest({\\r\\n        ...\n      PUSH 7\t\t\tkycRequests\n      DUP3 \t\t\treqId_\n      PUSH 40\t\t\tkycRequests[reqId_]\n      MLOAD \t\t\tkycRequests[reqId_]\n      PUSH [tag] 443\t\t\tkycRequests[reqId_]\n      SWAP2 \t\t\tkycRequests[reqId_]\n      SWAP1 \t\t\tkycRequests[reqId_]\n      PUSH [tag] 169\t\t\tkycRequests[reqId_]\n      JUMP \t\t\tkycRequests[reqId_]\n    tag 443\t\t\tkycRequests[reqId_]\n      JUMPDEST \t\t\tkycRequests[reqId_]\n      SWAP1 \t\t\tkycRequests[reqId_]\n      DUP2 \t\t\tkycRequests[reqId_]\n      MSTORE \t\t\tkycRequests[reqId_]\n      PUSH 20\t\t\tkycRequests[reqId_]\n      ADD \t\t\tkycRequests[reqId_]\n      PUSH 40\t\t\tkycRequests[reqId_]\n      MLOAD \t\t\tkycRequests[reqId_]\n      DUP1 \t\t\tkycRequests[reqId_]\n      SWAP2 \t\t\tkycRequests[reqId_]\n      SUB \t\t\tkycRequests[reqId_]\n      SWAP1 \t\t\tkycRequests[reqId_]\n      KECCAK256 \t\t\tkycRequests[reqId_]\n      PUSH 0\t\t\tkycRequests[reqId_] = Types.Ky...\n      DUP3 \t\t\tkycRequests[reqId_] = Types.Ky...\n      ADD \t\t\tkycRequests[reqId_] = Types.Ky...\n      MLOAD \t\t\tkycRequests[reqId_] = Types.Ky...\n      DUP2 \t\t\tkycRequests[reqId_] = Types.Ky...\n      PUSH 0\t\t\tkycRequests[reqId_] = Types.Ky...\n      ADD \t\t\tkycRequests[reqId_] = Types.Ky...\n      SWAP1 \t\t\tkycRequests[reqId_] = Types.Ky...\n      DUP2 \t\t\tkycRequests[reqId_] = Types.Ky...\n      PUSH [tag] 444\t\t\tkycRequests[reqId_] = Types.Ky...\n      SWAP2 \t\t\tkycRequests[reqId_] = Types.Ky...\n      SWAP1 \t\t\tkycRequests[reqId_] = Types.Ky...\n      PUSH [tag] 174\t\t\tkycRequests[reqId_] = Types.Ky...\n      JUMP \t\t\tkycRequests[reqId_] = Types.Ky...\n    tag 444\t\t\tkycRequests[reqId_] = Types.Ky...\n      JUMPDEST \t\t\tkycRequests[reqId_] = Types.Ky...\n      POP \t\t\tkycRequests[reqId_] = Types.Ky...\n      PUSH 20\t\t\tkycRequests[reqId_] = Types.Ky...\n      DUP3 \t\t\tkycRequests[reqId_] = Types.Ky...\n      ADD \t\t\tkycRequests[reqId_] = Types.Ky...\n      MLOAD \t\t\tkycRequests[reqId_] = Types.Ky...\n      DUP2 \t\t\tkycRequests[reqId_] = Types.Ky...\n      PUSH 1\t\t\tkycRequests[reqId_] = Types.Ky...\n      ADD \t\t\tkycRequests[reqId_] = Types.Ky...\n      PUSH 0\t\t\tkycRequests[reqId_] = Types.Ky...\n      PUSH 100\t\t\tkycRequests[reqId_] = Types.Ky...\n      EXP \t\t\tkycRequests[reqId_] = Types.Ky...\n      DUP2 \t\t\tkycRequests[reqId_] = Types.Ky...\n      SLOAD \t\t\tkycRequests[reqId_] = Types.Ky...\n      DUP2 \t\t\tkycRequests[reqId_] = Types.Ky...\n      PUSH FFFFFFFFFFFFFFFFFFFFFFFFFFFFFFFFFFFFFFFF\t\t\tkycRequests[reqId_] = Types.Ky...\n      MUL \t\t\tkycRequests[reqId_] = Types.Ky...\n      NOT \t\t\tkycRequests[reqId_] = Types.Ky...\n      AND \t\t\tkycRequests[reqId_] = Types.Ky...\n      SWAP1 \t\t\tkycRequests[reqId_] = Types.Ky...\n      DUP4 \t\t\tkycRequests[reqId_] = Types.Ky...\n      PUSH FFFFFFFFFFFFFFFFFFFFFFFFFFFFFFFFFFFFFFFF\t\t\tkycRequests[reqId_] = Types.Ky...\n      AND \t\t\tkycRequests[reqId_] = Types.Ky...\n      MUL \t\t\tkycRequests[reqId_] = Types.Ky...\n      OR \t\t\tkycRequests[reqId_] = Types.Ky...\n      SWAP1 \t\t\tkycRequests[reqId_] = Types.Ky...\n      SSTORE \t\t\tkycRequests[reqId_] = Types.Ky...\n      POP \t\t\tkycRequests[reqId_] = Types.Ky...\n      PUSH 40\t\t\tkycRequests[reqId_] = Types.Ky...\n      DUP3 \t\t\tkycRequests[reqId_] = Types.Ky...\n      ADD \t\t\tkycRequests[reqId_] = Types.Ky...\n      MLOAD \t\t\tkycRequests[reqId_] = Types.Ky...\n      DUP2 \t\t\tkycRequests[reqId_] = Types.Ky...\n      PUSH 2\t\t\tkycRequests[reqId_] = Types.Ky...\n      ADD \t\t\tkycRequests[reqId_] = Types.Ky...\n      SWAP1 \t\t\tkycRequests[reqId_] = Types.Ky...\n      DUP2 \t\t\tkycRequests[reqId_] = Types.Ky...\n      PUSH [tag] 445\t\t\tkycRequests[reqId_] = Types.Ky...\n      SWAP2 \t\t\tkycRequests[reqId_] = Types.Ky...\n      SWAP1 \t\t\tkycRequests[reqId_] = Types.Ky...\n      PUSH [tag] 174\t\t\tkycRequests[reqId_] = Types.Ky...\n      JUMP \t\t\tkycRequests[reqId_] = Types.Ky...\n    tag 445\t\t\tkycRequests[reqId_] = Types.Ky...\n      JUMPDEST \t\t\tkycRequests[reqId_] = Types.Ky...\n      POP \t\t\tkycRequests[reqId_] = Types.Ky...\n      PUSH 60\t\t\tkycRequests[reqId_] = Types.Ky...\n      DUP3 \t\t\tkycRequests[reqId_] = Types.Ky...\n      ADD \t\t\tkycRequests[reqId_] = Types.Ky...\n      MLOAD \t\t\tkycRequests[reqId_] = Types.Ky...\n      DUP2 \t\t\tkycRequests[reqId_] = Types.Ky...\n      PUSH 3\t\t\tkycRequests[reqId_] = Types.Ky...\n      ADD \t\t\tkycRequests[reqId_] = Types.Ky...\n      PUSH 0\t\t\tkycRequests[reqId_] = Types.Ky...\n      PUSH 100\t\t\tkycRequests[reqId_] = Types.Ky...\n      EXP \t\t\tkycRequests[reqId_] = Types.Ky...\n      DUP2 \t\t\tkycRequests[reqId_] = Types.Ky...\n      SLOAD \t\t\tkycRequests[reqId_] = Types.Ky...\n      DUP2 \t\t\tkycRequests[reqId_] = Types.Ky...\n      PUSH FFFFFFFFFFFFFFFFFFFFFFFFFFFFFFFFFFFFFFFF\t\t\tkycRequests[reqId_] = Types.Ky...\n      MUL \t\t\tkycRequests[reqId_] = Types.Ky...\n      NOT \t\t\tkycRequests[reqId_] = Types.Ky...\n      AND \t\t\tkycRequests[reqId_] = Types.Ky...\n      SWAP1 \t\t\tkycRequests[reqId_] = Types.Ky...\n      DUP4 \t\t\tkycRequests[reqId_] = Types.Ky...\n      PUSH FFFFFFFFFFFFFFFFFFFFFFFFFFFFFFFFFFFFFFFF\t\t\tkycRequests[reqId_] = Types.Ky...\n      AND \t\t\tkycRequests[reqId_] = Types.Ky...\n      MUL \t\t\tkycRequests[reqId_] = Types.Ky...\n      OR \t\t\tkycRequests[reqId_] = Types.Ky...\n      SWAP1 \t\t\tkycRequests[reqId_] = Types.Ky...\n      SSTORE \t\t\tkycRequests[reqId_] = Types.Ky...\n      POP \t\t\tkycRequests[reqId_] = Types.Ky...\n      PUSH 80\t\t\tkycRequests[reqId_] = Types.Ky...\n      DUP3 \t\t\tkycRequests[reqId_] = Types.Ky...\n      ADD \t\t\tkycRequests[reqId_] = Types.Ky...\n      MLOAD \t\t\tkycRequests[reqId_] = Types.Ky...\n      DUP2 \t\t\tkycRequests[reqId_] = Types.Ky...\n      PUSH 4\t\t\tkycRequests[reqId_] = Types.Ky...\n      ADD \t\t\tkycRequests[reqId_] = Types.Ky...\n      SWAP1 \t\t\tkycRequests[reqId_] = Types.Ky...\n      DUP2 \t\t\tkycRequests[reqId_] = Types.Ky...\n      PUSH [tag] 446\t\t\tkycRequests[reqId_] = Types.Ky...\n      SWAP2 \t\t\tkycRequests[reqId_] = Types.Ky...\n      SWAP1 \t\t\tkycRequests[reqId_] = Types.Ky...\n      PUSH [tag] 174\t\t\tkycRequests[reqId_] = Types.Ky...\n      JUMP \t\t\tkycRequests[reqId_] = Types.Ky...\n    tag 446\t\t\tkycRequests[reqId_] = Types.Ky...\n      JUMPDEST \t\t\tkycRequests[reqId_] = Types.Ky...\n      POP \t\t\tkycRequests[reqId_] = Types.Ky...\n      PUSH A0\t\t\tkycRequests[reqId_] = Types.Ky...\n      DUP3 \t\t\tkycRequests[reqId_] = Types.Ky...\n      ADD \t\t\tkycRequests[reqId_] = Types.Ky...\n      MLOAD \t\t\tkycRequests[reqId_] = Types.Ky...\n      DUP2 \t\t\tkycRequests[reqId_] = Types.Ky...\n      PUSH 5\t\t\tkycRequests[reqId_] = Types.Ky...\n      ADD \t\t\tkycRequests[reqId_] = Types.Ky...\n      SWAP1 \t\t\tkycRequests[reqId_] = Types.Ky...\n      DUP2 \t\t\tkycRequests[reqId_] = Types.Ky...\n      PUSH [tag] 447\t\t\tkycRequests[reqId_] = Types.Ky...\n      SWAP2 \t\t\tkycRequests[reqId_] = Types.Ky...\n      SWAP1 \t\t\tkycRequests[reqId_] = Types.Ky...\n      PUSH [tag] 174\t\t\tkycRequests[reqId_] = Types.Ky...\n      JUMP \t\t\tkycRequests[reqId_] = Types.Ky...\n    tag 447\t\t\tkycRequests[reqId_] = Types.Ky...\n      JUMPDEST \t\t\tkycRequests[reqId_] = Types.Ky...\n      POP \t\t\tkycRequests[reqId_] = Types.Ky...\n      PUSH C0\t\t\tkycRequests[reqId_] = Types.Ky...\n      DUP3 \t\t\tkycRequests[reqId_] = Types.Ky...\n      ADD \t\t\tkycRequests[reqId_] = Types.Ky...\n      MLOAD \t\t\tkycRequests[reqId_] = Types.Ky...\n      DUP2 \t\t\tkycRequests[reqId_] = Types.Ky...\n      PUSH 6\t\t\tkycRequests[reqId_] = Types.Ky...\n      ADD \t\t\tkycRequests[reqId_] = Types.Ky...\n      SSTORE \t\t\tkycRequests[reqId_] = Types.Ky...\n      PUSH E0\t\t\tkycRequests[reqId_] = Types.Ky...\n      DUP3 \t\t\tkycRequests[reqId_] = Types.Ky...\n      ADD \t\t\tkycRequests[reqId_] = Types.Ky...\n      MLOAD \t\t\tkycRequests[reqId_] = Types.Ky...\n      DUP2 \t\t\tkycRequests[reqId_] = Types.Ky...\n      PUSH 7\t\t\tkycRequests[reqId_] = Types.Ky...\n      ADD \t\t\tkycRequests[reqId_] = Types.Ky...\n      PUSH 0\t\t\tkycRequests[reqId_] = Types.Ky...\n      PUSH 100\t\t\tkycRequests[reqId_] = Types.Ky...\n      EXP \t\t\tkycRequests[reqId_] = Types.Ky...\n      DUP2 \t\t\tkycRequests[reqId_] = Types.Ky...\n      SLOAD \t\t\tkycRequests[reqId_] = Types.Ky...\n      DUP2 \t\t\tkycRequests[reqId_] = Types.Ky...\n      PUSH FF\t\t\tkycRequests[reqId_] = Types.Ky...\n      MUL \t\t\tkycRequests[reqId_] = Types.Ky...\n      NOT \t\t\tkycRequests[reqId_] = Types.Ky...\n      AND \t\t\tkycRequests[reqId_] = Types.Ky...\n      SWAP1 \t\t\tkycRequests[reqId_] = Types.Ky...\n      DUP4 \t\t\tkycRequests[reqId_] = Types.Ky...\n      PUSH 2\t\t\tkycRequests[reqId_] = Types.Ky...\n      DUP2 \t\t\tkycRequests[reqId_] = Types.Ky...\n      GT \t\t\tkycRequests[reqId_] = Types.Ky...\n      ISZERO \t\t\tkycRequests[reqId_] = Types.Ky...\n      PUSH [tag] 448\t\t\tkycRequests[reqId_] = Types.Ky...\n      JUMPI \t\t\tkycRequests[reqId_] = Types.Ky...\n      PUSH [tag] 449\t\t\tkycRequests[reqId_] = Types.Ky...\n      PUSH [tag] 135\t\t\tkycRequests[reqId_] = Types.Ky...\n      JUMP \t\t\tkycRequests[reqId_] = Types.Ky...\n    tag 449\t\t\tkycRequests[reqId_] = Types.Ky...\n      JUMPDEST \t\t\tkycRequests[reqId_] = Types.Ky...\n    tag 448\t\t\tkycRequests[reqId_] = Types.Ky...\n      JUMPDEST \t\t\tkycRequests[reqId_] = Types.Ky...\n      MUL \t\t\tkycRequests[reqId_] = Types.Ky...\n      OR \t\t\tkycRequests[reqId_] = Types.Ky...\n      SWAP1 \t\t\tkycRequests[reqId_] = Types.Ky...\n      SSTORE \t\t\tkycRequests[reqId_] = Types.Ky...\n      POP \t\t\tkycRequests[reqId_] = Types.Ky...\n      PUSH 100\t\t\tkycRequests[reqId_] = Types.Ky...\n      DUP3 \t\t\tkycRequests[reqId_] = Types.Ky...\n      ADD \t\t\tkycRequests[reqId_] = Types.Ky...\n      MLOAD \t\t\tkycRequests[reqId_] = Types.Ky...\n      DUP2 \t\t\tkycRequests[reqId_] = Types.Ky...\n      PUSH 7\t\t\tkycRequests[reqId_] = Types.Ky...\n      ADD \t\t\tkycRequests[reqId_] = Types.Ky...\n      PUSH 1\t\t\tkycRequests[reqId_] = Types.Ky...\n      PUSH 100\t\t\tkycRequests[reqId_] = Types.Ky...\n      EXP \t\t\tkycRequests[reqId_] = Types.Ky...\n      DUP2 \t\t\tkycRequests[reqId_] = Types.Ky...\n      SLOAD \t\t\tkycRequests[reqId_] = Types.Ky...\n      DUP2 \t\t\tkycRequests[reqId_] = Types.Ky...\n      PUSH FF\t\t\tkycRequests[reqId_] = Types.Ky...\n      MUL \t\t\tkycRequests[reqId_] = Types.Ky...\n      NOT \t\t\tkycRequests[reqId_] = Types.Ky...\n      AND \t\t\tkycRequests[reqId_] = Types.Ky...\n      SWAP1 \t\t\tkycRequests[reqId_] = Types.Ky...\n      DUP4 \t\t\tkycRequests[reqId_] = Types.Ky...\n      PUSH 2\t\t\tkycRequests[reqId_] = Types.Ky...\n      DUP2 \t\t\tkycRequests[reqId_] = Types.Ky...\n      GT \t\t\tkycRequests[reqId_] = Types.Ky...\n      ISZERO \t\t\tkycRequests[reqId_] = Types.Ky...\n      PUSH [tag] 450\t\t\tkycRequests[reqId_] = Types.Ky...\n      JUMPI \t\t\tkycRequests[reqId_] = Types.Ky...\n      PUSH [tag] 451\t\t\tkycRequests[reqId_] = Types.Ky...\n      PUSH [tag] 135\t\t\tkycRequests[reqId_] = Types.Ky...\n      JUMP \t\t\tkycRequests[reqId_] = Types.Ky...\n    tag 451\t\t\tkycRequests[reqId_] = Types.Ky...\n      JUMPDEST \t\t\tkycRequests[reqId_] = Types.Ky...\n    tag 450\t\t\tkycRequests[reqId_] = Types.Ky...\n      JUMPDEST \t\t\tkycRequests[reqId_] = Types.Ky...\n      MUL \t\t\tkycRequests[reqId_] = Types.Ky...\n      OR \t\t\tkycRequests[reqId_] = Types.Ky...\n      SWAP1 \t\t\tkycRequests[reqId_] = Types.Ky...\n      SSTORE \t\t\tkycRequests[reqId_] = Types.Ky...\n      POP \t\t\tkycRequests[reqId_] = Types.Ky...\n      PUSH 120\t\t\tkycRequests[reqId_] = Types.Ky...\n      DUP3 \t\t\tkycRequests[reqId_] = Types.Ky...\n      ADD \t\t\tkycRequests[reqId_] = Types.Ky...\n      MLOAD \t\t\tkycRequests[reqId_] = Types.Ky...\n      DUP2 \t\t\tkycRequests[reqId_] = Types.Ky...\n      PUSH 8\t\t\tkycRequests[reqId_] = Types.Ky...\n      ADD \t\t\tkycRequests[reqId_] = Types.Ky...\n      SWAP1 \t\t\tkycRequests[reqId_] = Types.Ky...\n      DUP2 \t\t\tkycRequests[reqId_] = Types.Ky...\n      PUSH [tag] 452\t\t\tkycRequests[reqId_] = Types.Ky...\n      SWAP2 \t\t\tkycRequests[reqId_] = Types.Ky...\n      SWAP1 \t\t\tkycRequests[reqId_] = Types.Ky...\n      PUSH [tag] 174\t\t\tkycRequests[reqId_] = Types.Ky...\n      JUMP \t\t\tkycRequests[reqId_] = Types.Ky...\n    tag 452\t\t\tkycRequests[reqId_] = Types.Ky...\n      JUMPDEST \t\t\tkycRequests[reqId_] = Types.Ky...\n      POP \t\t\tkycRequests[reqId_] = Types.Ky...\n      SWAP1 \t\t\tkycRequests[reqId_] = Types.Ky...\n      POP \t\t\tkycRequests[reqId_] = Types.Ky...\n      POP \t\t\tkycRequests[reqId_] = Types.Ky...\n      PUSH 8\t\t\tbankCustomers\n      PUSH 0\t\t\tbankCustomers[msg.sender]\n      CALLER \t\t\tmsg.sender\n      PUSH FFFFFFFFFFFFFFFFFFFFFFFFFFFFFFFFFFFFFFFF\t\t\tbankCustomers[msg.sender]\n      AND \t\t\tbankCustomers[msg.sender]\n      PUSH FFFFFFFFFFFFFFFFFFFFFFFFFFFFFFFFFFFFFFFF\t\t\tbankCustomers[msg.sender]\n      AND \t\t\tbankCustomers[msg.sender]\n      DUP2 \t\t\tbankCustomers[msg.sender]\n      MSTORE \t\t\tbankCustomers[msg.sender]\n      PUSH 20\t\t\tbankCustomers[msg.sender]\n      ADD \t\t\tbankCustomers[msg.sender]\n      SWAP1 \t\t\tbankCustomers[msg.sender]\n      DUP2 \t\t\tbankCustomers[msg.sender]\n      MSTORE \t\t\tbankCustomers[msg.sender]\n      PUSH 20\t\t\tbankCustomers[msg.sender]\n      ADD \t\t\tbankCustomers[msg.sender]\n      PUSH 0\t\t\tbankCustomers[msg.sender]\n      KECCAK256 \t\t\tbankCustomers[msg.sender]\n      DUP6 \t\t\tcustomer_\n      PUSH 60\t\t\tcustomer_.id_\n      ADD \t\t\tcustomer_.id_\n      MLOAD \t\t\tcustomer_.id_\n      SWAP1 \t\t\tbankCustomers[msg.sender].push...\n      DUP1 \t\t\tbankCustomers[msg.sender].push...\n      PUSH 1\t\t\tbankCustomers[msg.sender].push...\n      DUP2 \t\t\tbankCustomers[msg.sender].push...\n      SLOAD \t\t\tbankCustomers[msg.sender].push...\n      ADD \t\t\tbankCustomers[msg.sender].push...\n      DUP1 \t\t\tbankCustomers[msg.sender].push...\n      DUP3 \t\t\tbankCustomers[msg.sender].push...\n      SSTORE \t\t\tbankCustomers[msg.sender].push...\n      DUP1 \t\t\tbankCustomers[msg.sender].push...\n      SWAP2 \t\t\tbankCustomers[msg.sender].push...\n      POP \t\t\tbankCustomers[msg.sender].push...\n      POP \t\t\tbankCustomers[msg.sender].push...\n      PUSH 1\t\t\tbankCustomers[msg.sender].push...\n      SWAP1 \t\t\tbankCustomers[msg.sender].push...\n      SUB \t\t\tbankCustomers[msg.sender].push...\n      SWAP1 \t\t\tbankCustomers[msg.sender].push...\n      PUSH 0\t\t\tbankCustomers[msg.sender].push...\n      MSTORE \t\t\tbankCustomers[msg.sender].push...\n      PUSH 20\t\t\tbankCustomers[msg.sender].push...\n      PUSH 0\t\t\tbankCustomers[msg.sender].push...\n      KECCAK256 \t\t\tbankCustomers[msg.sender].push...\n      ADD \t\t\tbankCustomers[msg.sender].push...\n      PUSH 0\t\t\tbankCustomers[msg.sender].push...\n      SWAP1 \t\t\tbankCustomers[msg.sender].push...\n      SWAP2 \t\t\tbankCustomers[msg.sender].push...\n      SWAP1 \t\t\tbankCustomers[msg.sender].push...\n      SWAP2 \t\t\tbankCustomers[msg.sender].push...\n      SWAP1 \t\t\tbankCustomers[msg.sender].push...\n      SWAP2 \t\t\tbankCustomers[msg.sender].push...\n      PUSH 100\t\t\tbankCustomers[msg.sender].push...\n      EXP \t\t\tbankCustomers[msg.sender].push...\n      DUP2 \t\t\tbankCustomers[msg.sender].push...\n      SLOAD \t\t\tbankCustomers[msg.sender].push...\n      DUP2 \t\t\tbankCustomers[msg.sender].push...\n      PUSH FFFFFFFFFFFFFFFFFFFFFFFFFFFFFFFFFFFFFFFF\t\t\tbankCustomers[msg.sender].push...\n      MUL \t\t\tbankCustomers[msg.sender].push...\n      NOT \t\t\tbankCustomers[msg.sender].push...\n      AND \t\t\tbankCustomers[msg.sender].push...\n      SWAP1 \t\t\tbankCustomers[msg.sender].push...\n      DUP4 \t\t\tbankCustomers[msg.sender].push...\n      PUSH FFFFFFFFFFFFFFFFFFFFFFFFFFFFFFFFFFFFFFFF\t\t\tbankCustomers[msg.sender].push...\n      AND \t\t\tbankCustomers[msg.sender].push...\n      MUL \t\t\tbankCustomers[msg.sender].push...\n      OR \t\t\tbankCustomers[msg.sender].push...\n      SWAP1 \t\t\tbankCustomers[msg.sender].push...\n      SSTORE \t\t\tbankCustomers[msg.sender].push...\n      POP \t\t\tbankCustomers[msg.sender].push...\n      PUSH 9\t\t\tcustomerbanks\n      PUSH 0\t\t\tcustomerbanks[customer_.id_]\n      DUP7 \t\t\tcustomer_\n      PUSH 60\t\t\tcustomer_.id_\n      ADD \t\t\tcustomer_.id_\n      MLOAD \t\t\tcustomer_.id_\n      PUSH FFFFFFFFFFFFFFFFFFFFFFFFFFFFFFFFFFFFFFFF\t\t\tcustomerbanks[customer_.id_]\n      AND \t\t\tcustomerbanks[customer_.id_]\n      PUSH FFFFFFFFFFFFFFFFFFFFFFFFFFFFFFFFFFFFFFFF\t\t\tcustomerbanks[customer_.id_]\n      AND \t\t\tcustomerbanks[customer_.id_]\n      DUP2 \t\t\tcustomerbanks[customer_.id_]\n      MSTORE \t\t\tcustomerbanks[customer_.id_]\n      PUSH 20\t\t\tcustomerbanks[customer_.id_]\n      ADD \t\t\tcustomerbanks[customer_.id_]\n      SWAP1 \t\t\tcustomerbanks[customer_.id_]\n      DUP2 \t\t\tcustomerbanks[customer_.id_]\n      MSTORE \t\t\tcustomerbanks[customer_.id_]\n      PUSH 20\t\t\tcustomerbanks[customer_.id_]\n      ADD \t\t\tcustomerbanks[customer_.id_]\n      PUSH 0\t\t\tcustomerbanks[customer_.id_]\n      KECCAK256 \t\t\tcustomerbanks[customer_.id_]\n      CALLER \t\t\tmsg.sender\n      SWAP1 \t\t\tcustomerbanks[customer_.id_].p...\n      DUP1 \t\t\tcustomerbanks[customer_.id_].p...\n      PUSH 1\t\t\tcustomerbanks[customer_.id_].p...\n      DUP2 \t\t\tcustomerbanks[customer_.id_].p...\n      SLOAD \t\t\tcustomerbanks[customer_.id_].p...\n      ADD \t\t\tcustomerbanks[customer_.id_].p...\n      DUP1 \t\t\tcustomerbanks[customer_.id_].p...\n      DUP3 \t\t\tcustomerbanks[customer_.id_].p...\n      SSTORE \t\t\tcustomerbanks[customer_.id_].p...\n      DUP1 \t\t\tcustomerbanks[customer_.id_].p...\n      SWAP2 \t\t\tcustomerbanks[customer_.id_].p...\n      POP \t\t\tcustomerbanks[customer_.id_].p...\n      POP \t\t\tcustomerbanks[customer_.id_].p...\n      PUSH 1\t\t\tcustomerbanks[customer_.id_].p...\n      SWAP1 \t\t\tcustomerbanks[customer_.id_].p...\n      SUB \t\t\tcustomerbanks[customer_.id_].p...\n      SWAP1 \t\t\tcustomerbanks[customer_.id_].p...\n      PUSH 0\t\t\tcustomerbanks[customer_.id_].p...\n      MSTORE \t\t\tcustomerbanks[customer_.id_].p...\n      PUSH 20\t\t\tcustomerbanks[customer_.id_].p...\n      PUSH 0\t\t\tcustomerbanks[customer_.id_].p...\n      KECCAK256 \t\t\tcustomerbanks[customer_.id_].p...\n      ADD \t\t\tcustomerbanks[customer_.id_].p...\n      PUSH 0\t\t\tcustomerbanks[customer_.id_].p...\n      SWAP1 \t\t\tcustomerbanks[customer_.id_].p...\n      SWAP2 \t\t\tcustomerbanks[customer_.id_].p...\n      SWAP1 \t\t\tcustomerbanks[customer_.id_].p...\n      SWAP2 \t\t\tcustomerbanks[customer_.id_].p...\n      SWAP1 \t\t\tcustomerbanks[customer_.id_].p...\n      SWAP2 \t\t\tcustomerbanks[customer_.id_].p...\n      PUSH 100\t\t\tcustomerbanks[customer_.id_].p...\n      EXP \t\t\tcustomerbanks[customer_.id_].p...\n      DUP2 \t\t\tcustomerbanks[customer_.id_].p...\n      SLOAD \t\t\tcustomerbanks[customer_.id_].p...\n      DUP2 \t\t\tcustomerbanks[customer_.id_].p...\n      PUSH FFFFFFFFFFFFFFFFFFFFFFFFFFFFFFFFFFFFFFFF\t\t\tcustomerbanks[customer_.id_].p...\n      MUL \t\t\tcustomerbanks[customer_.id_].p...\n      NOT \t\t\tcustomerbanks[customer_.id_].p...\n      AND \t\t\tcustomerbanks[customer_.id_].p...\n      SWAP1 \t\t\tcustomerbanks[customer_.id_].p...\n      DUP4 \t\t\tcustomerbanks[customer_.id_].p...\n      PUSH FFFFFFFFFFFFFFFFFFFFFFFFFFFFFFFFFFFFFFFF\t\t\tcustomerbanks[customer_.id_].p...\n      AND \t\t\tcustomerbanks[customer_.id_].p...\n      MUL \t\t\tcustomerbanks[customer_.id_].p...\n      OR \t\t\tcustomerbanks[customer_.id_].p...\n      SWAP1 \t\t\tcustomerbanks[customer_.id_].p...\n      SSTORE \t\t\tcustomerbanks[customer_.id_].p...\n      POP \t\t\tcustomerbanks[customer_.id_].p...\n      PUSH 1C9CA7942139211BFB75EC030EE95C38E96F4EB7D755B28D3EEDE55F8D5EB86D\t\t\tKycRequestAdded(\\r\\n          ...\n      DUP2 \t\t\treqId_\n      PUSH 7\t\t\tkycRequests\n      DUP4 \t\t\treqId_\n      PUSH 40\t\t\tkycRequests[reqId_]\n      MLOAD \t\t\tkycRequests[reqId_]\n      PUSH [tag] 455\t\t\tkycRequests[reqId_]\n      SWAP2 \t\t\tkycRequests[reqId_]\n      SWAP1 \t\t\tkycRequests[reqId_]\n      PUSH [tag] 169\t\t\tkycRequests[reqId_]\n      JUMP \t\t\tkycRequests[reqId_]\n    tag 455\t\t\tkycRequests[reqId_]\n      JUMPDEST \t\t\tkycRequests[reqId_]\n      SWAP1 \t\t\tkycRequests[reqId_]\n      DUP2 \t\t\tkycRequests[reqId_]\n      MSTORE \t\t\tkycRequests[reqId_]\n      PUSH 20\t\t\tkycRequests[reqId_]\n      ADD \t\t\tkycRequests[reqId_]\n      PUSH 40\t\t\tkycRequests[reqId_]\n      MLOAD \t\t\tkycRequests[reqId_]\n      DUP1 \t\t\tkycRequests[reqId_]\n      SWAP2 \t\t\tkycRequests[reqId_]\n      SUB \t\t\tkycRequests[reqId_]\n      SWAP1 \t\t\tkycRequests[reqId_]\n      KECCAK256 \t\t\tkycRequests[reqId_]\n      PUSH 4\t\t\tkycRequests[reqId_].bankName\n      ADD \t\t\tkycRequests[reqId_].bankName\n      DUP8 \t\t\tcustomer_\n      PUSH 0\t\t\tcustomer_.name\n      ADD \t\t\tcustomer_.name\n      MLOAD \t\t\tcustomer_.name\n      PUSH 40\t\t\tKycRequestAdded(\\r\\n          ...\n      MLOAD \t\t\tKycRequestAdded(\\r\\n          ...\n      PUSH [tag] 456\t\t\tKycRequestAdded(\\r\\n          ...\n      SWAP4 \t\t\tKycRequestAdded(\\r\\n          ...\n      SWAP3 \t\t\tKycRequestAdded(\\r\\n          ...\n      SWAP2 \t\t\tKycRequestAdded(\\r\\n          ...\n      SWAP1 \t\t\tKycRequestAdded(\\r\\n          ...\n      PUSH [tag] 457\t\t\tKycRequestAdded(\\r\\n          ...\n      JUMP \t\t\tKycRequestAdded(\\r\\n          ...\n    tag 456\t\t\tKycRequestAdded(\\r\\n          ...\n      JUMPDEST \t\t\tKycRequestAdded(\\r\\n          ...\n      PUSH 40\t\t\tKycRequestAdded(\\r\\n          ...\n      MLOAD \t\t\tKycRequestAdded(\\r\\n          ...\n      DUP1 \t\t\tKycRequestAdded(\\r\\n          ...\n      SWAP2 \t\t\tKycRequestAdded(\\r\\n          ...\n      SUB \t\t\tKycRequestAdded(\\r\\n          ...\n      SWAP1 \t\t\tKycRequestAdded(\\r\\n          ...\n      LOG1 \t\t\tKycRequestAdded(\\r\\n          ...\n      PUSH [tag] 458\t\t\tcustomerExists(customer_.id_)\n      DUP6 \t\t\tcustomer_\n      PUSH 60\t\t\tcustomer_.id_\n      ADD \t\t\tcustomer_.id_\n      MLOAD \t\t\tcustomer_.id_\n      PUSH [tag] 164\t\t\tcustomerExists\n      JUMP \t\t\tcustomerExists(customer_.id_)\n    tag 458\t\t\tcustomerExists(customer_.id_)\n      JUMPDEST \t\t\tcustomerExists(customer_.id_)\n      PUSH [tag] 459\t\t\tif (!customerExists(customer_....\n      JUMPI \t\t\tif (!customerExists(customer_....\n      PUSH [tag] 460\t\t\taddcustomer(customer_)\n      DUP6 \t\t\tcustomer_\n      PUSH [tag] 461\t\t\taddcustomer\n      JUMP \t\t\taddcustomer(customer_)\n    tag 460\t\t\taddcustomer(customer_)\n      JUMPDEST \t\t\taddcustomer(customer_)\n      PUSH 40\t\t\tTypes.User({\\r\\n              ...\n      MLOAD \t\t\tTypes.User({\\r\\n              ...\n      DUP1 \t\t\tTypes.User({\\r\\n              ...\n      PUSH A0\t\t\tTypes.User({\\r\\n              ...\n      ADD \t\t\tTypes.User({\\r\\n              ...\n      PUSH 40\t\t\tTypes.User({\\r\\n              ...\n      MSTORE \t\t\tTypes.User({\\r\\n              ...\n      DUP1 \t\t\tTypes.User({\\r\\n              ...\n      DUP7 \t\t\tcustomer_\n      PUSH 0\t\t\tcustomer_.name\n      ADD \t\t\tcustomer_.name\n      MLOAD \t\t\tcustomer_.name\n      DUP2 \t\t\tTypes.User({\\r\\n              ...\n      MSTORE \t\t\tTypes.User({\\r\\n              ...\n      PUSH 20\t\t\tTypes.User({\\r\\n              ...\n      ADD \t\t\tTypes.User({\\r\\n              ...\n      DUP7 \t\t\tcustomer_\n      PUSH 20\t\t\tcustomer_.email\n      ADD \t\t\tcustomer_.email\n      MLOAD \t\t\tcustomer_.email\n      DUP2 \t\t\tTypes.User({\\r\\n              ...\n      MSTORE \t\t\tTypes.User({\\r\\n              ...\n      PUSH 20\t\t\tTypes.User({\\r\\n              ...\n      ADD \t\t\tTypes.User({\\r\\n              ...\n      DUP7 \t\t\tcustomer_\n      PUSH 60\t\t\tcustomer_.id_\n      ADD \t\t\tcustomer_.id_\n      MLOAD \t\t\tcustomer_.id_\n      PUSH FFFFFFFFFFFFFFFFFFFFFFFFFFFFFFFFFFFFFFFF\t\t\tTypes.User({\\r\\n              ...\n      AND \t\t\tTypes.User({\\r\\n              ...\n      DUP2 \t\t\tTypes.User({\\r\\n              ...\n      MSTORE \t\t\tTypes.User({\\r\\n              ...\n      PUSH 20\t\t\tTypes.User({\\r\\n              ...\n      ADD \t\t\tTypes.User({\\r\\n              ...\n      PUSH 2\t\t\tTypes.Role.Customer\n      DUP1 \t\t\tTypes.User({\\r\\n              ...\n      DUP2 \t\t\tTypes.User({\\r\\n              ...\n      GT \t\t\tTypes.User({\\r\\n              ...\n      ISZERO \t\t\tTypes.User({\\r\\n              ...\n      PUSH [tag] 462\t\t\tTypes.User({\\r\\n              ...\n      JUMPI \t\t\tTypes.User({\\r\\n              ...\n      PUSH [tag] 463\t\t\tTypes.User({\\r\\n              ...\n      PUSH [tag] 135\t\t\tTypes.User({\\r\\n              ...\n      JUMP \t\t\tTypes.User({\\r\\n              ...\n    tag 463\t\t\tTypes.User({\\r\\n              ...\n      JUMPDEST \t\t\tTypes.User({\\r\\n              ...\n    tag 462\t\t\tTypes.User({\\r\\n              ...\n      JUMPDEST \t\t\tTypes.User({\\r\\n              ...\n      DUP2 \t\t\tTypes.User({\\r\\n              ...\n      MSTORE \t\t\tTypes.User({\\r\\n              ...\n      PUSH 20\t\t\tTypes.User({\\r\\n              ...\n      ADD \t\t\tTypes.User({\\r\\n              ...\n      PUSH 0\t\t\tTypes.BankStatus.Active\n      PUSH 1\t\t\tTypes.User({\\r\\n              ...\n      DUP2 \t\t\tTypes.User({\\r\\n              ...\n      GT \t\t\tTypes.User({\\r\\n              ...\n      ISZERO \t\t\tTypes.User({\\r\\n              ...\n      PUSH [tag] 464\t\t\tTypes.User({\\r\\n              ...\n      JUMPI \t\t\tTypes.User({\\r\\n              ...\n      PUSH [tag] 465\t\t\tTypes.User({\\r\\n              ...\n      PUSH [tag] 135\t\t\tTypes.User({\\r\\n              ...\n      JUMP \t\t\tTypes.User({\\r\\n              ...\n    tag 465\t\t\tTypes.User({\\r\\n              ...\n      JUMPDEST \t\t\tTypes.User({\\r\\n              ...\n    tag 464\t\t\tTypes.User({\\r\\n              ...\n      JUMPDEST \t\t\tTypes.User({\\r\\n              ...\n      DUP2 \t\t\tTypes.User({\\r\\n              ...\n      MSTORE \t\t\tTypes.User({\\r\\n              ...\n      POP \t\t\tTypes.User({\\r\\n              ...\n      PUSH 6\t\t\tusers\n      PUSH 0\t\t\tusers[customer_.id_]\n      DUP8 \t\t\tcustomer_\n      PUSH 60\t\t\tcustomer_.id_\n      ADD \t\t\tcustomer_.id_\n      MLOAD \t\t\tcustomer_.id_\n      PUSH FFFFFFFFFFFFFFFFFFFFFFFFFFFFFFFFFFFFFFFF\t\t\tusers[customer_.id_]\n      AND \t\t\tusers[customer_.id_]\n      PUSH FFFFFFFFFFFFFFFFFFFFFFFFFFFFFFFFFFFFFFFF\t\t\tusers[customer_.id_]\n      AND \t\t\tusers[customer_.id_]\n      DUP2 \t\t\tusers[customer_.id_]\n      MSTORE \t\t\tusers[customer_.id_]\n      PUSH 20\t\t\tusers[customer_.id_]\n      ADD \t\t\tusers[customer_.id_]\n      SWAP1 \t\t\tusers[customer_.id_]\n      DUP2 \t\t\tusers[customer_.id_]\n      MSTORE \t\t\tusers[customer_.id_]\n      PUSH 20\t\t\tusers[customer_.id_]\n      ADD \t\t\tusers[customer_.id_]\n      PUSH 0\t\t\tusers[customer_.id_]\n      KECCAK256 \t\t\tusers[customer_.id_]\n      PUSH 0\t\t\tusers[customer_.id_] = Types.U...\n      DUP3 \t\t\tusers[customer_.id_] = Types.U...\n      ADD \t\t\tusers[customer_.id_] = Types.U...\n      MLOAD \t\t\tusers[customer_.id_] = Types.U...\n      DUP2 \t\t\tusers[customer_.id_] = Types.U...\n      PUSH 0\t\t\tusers[customer_.id_] = Types.U...\n      ADD \t\t\tusers[customer_.id_] = Types.U...\n      SWAP1 \t\t\tusers[customer_.id_] = Types.U...\n      DUP2 \t\t\tusers[customer_.id_] = Types.U...\n      PUSH [tag] 466\t\t\tusers[customer_.id_] = Types.U...\n      SWAP2 \t\t\tusers[customer_.id_] = Types.U...\n      SWAP1 \t\t\tusers[customer_.id_] = Types.U...\n      PUSH [tag] 174\t\t\tusers[customer_.id_] = Types.U...\n      JUMP \t\t\tusers[customer_.id_] = Types.U...\n    tag 466\t\t\tusers[customer_.id_] = Types.U...\n      JUMPDEST \t\t\tusers[customer_.id_] = Types.U...\n      POP \t\t\tusers[customer_.id_] = Types.U...\n      PUSH 20\t\t\tusers[customer_.id_] = Types.U...\n      DUP3 \t\t\tusers[customer_.id_] = Types.U...\n      ADD \t\t\tusers[customer_.id_] = Types.U...\n      MLOAD \t\t\tusers[customer_.id_] = Types.U...\n      DUP2 \t\t\tusers[customer_.id_] = Types.U...\n      PUSH 1\t\t\tusers[customer_.id_] = Types.U...\n      ADD \t\t\tusers[customer_.id_] = Types.U...\n      SWAP1 \t\t\tusers[customer_.id_] = Types.U...\n      DUP2 \t\t\tusers[customer_.id_] = Types.U...\n      PUSH [tag] 467\t\t\tusers[customer_.id_] = Types.U...\n      SWAP2 \t\t\tusers[customer_.id_] = Types.U...\n      SWAP1 \t\t\tusers[customer_.id_] = Types.U...\n      PUSH [tag] 174\t\t\tusers[customer_.id_] = Types.U...\n      JUMP \t\t\tusers[customer_.id_] = Types.U...\n    tag 467\t\t\tusers[customer_.id_] = Types.U...\n      JUMPDEST \t\t\tusers[customer_.id_] = Types.U...\n      POP \t\t\tusers[customer_.id_] = Types.U...\n      PUSH 40\t\t\tusers[customer_.id_] = Types.U...\n      DUP3 \t\t\tusers[customer_.id_] = Types.U...\n      ADD \t\t\tusers[customer_.id_] = Types.U...\n      MLOAD \t\t\tusers[customer_.id_] = Types.U...\n      DUP2 \t\t\tusers[customer_.id_] = Types.U...\n      PUSH 2\t\t\tusers[customer_.id_] = Types.U...\n      ADD \t\t\tusers[customer_.id_] = Types.U...\n      PUSH 0\t\t\tusers[customer_.id_] = Types.U...\n      PUSH 100\t\t\tusers[customer_.id_] = Types.U...\n      EXP \t\t\tusers[customer_.id_] = Types.U...\n      DUP2 \t\t\tusers[customer_.id_] = Types.U...\n      SLOAD \t\t\tusers[customer_.id_] = Types.U...\n      DUP2 \t\t\tusers[customer_.id_] = Types.U...\n      PUSH FFFFFFFFFFFFFFFFFFFFFFFFFFFFFFFFFFFFFFFF\t\t\tusers[customer_.id_] = Types.U...\n      MUL \t\t\tusers[customer_.id_] = Types.U...\n      NOT \t\t\tusers[customer_.id_] = Types.U...\n      AND \t\t\tusers[customer_.id_] = Types.U...\n      SWAP1 \t\t\tusers[customer_.id_] = Types.U...\n      DUP4 \t\t\tusers[customer_.id_] = Types.U...\n      PUSH FFFFFFFFFFFFFFFFFFFFFFFFFFFFFFFFFFFFFFFF\t\t\tusers[customer_.id_] = Types.U...\n      AND \t\t\tusers[customer_.id_] = Types.U...\n      MUL \t\t\tusers[customer_.id_] = Types.U...\n      OR \t\t\tusers[customer_.id_] = Types.U...\n      SWAP1 \t\t\tusers[customer_.id_] = Types.U...\n      SSTORE \t\t\tusers[customer_.id_] = Types.U...\n      POP \t\t\tusers[customer_.id_] = Types.U...\n      PUSH 60\t\t\tusers[customer_.id_] = Types.U...\n      DUP3 \t\t\tusers[customer_.id_] = Types.U...\n      ADD \t\t\tusers[customer_.id_] = Types.U...\n      MLOAD \t\t\tusers[customer_.id_] = Types.U...\n      DUP2 \t\t\tusers[customer_.id_] = Types.U...\n      PUSH 2\t\t\tusers[customer_.id_] = Types.U...\n      ADD \t\t\tusers[customer_.id_] = Types.U...\n      PUSH 14\t\t\tusers[customer_.id_] = Types.U...\n      PUSH 100\t\t\tusers[customer_.id_] = Types.U...\n      EXP \t\t\tusers[customer_.id_] = Types.U...\n      DUP2 \t\t\tusers[customer_.id_] = Types.U...\n      SLOAD \t\t\tusers[customer_.id_] = Types.U...\n      DUP2 \t\t\tusers[customer_.id_] = Types.U...\n      PUSH FF\t\t\tusers[customer_.id_] = Types.U...\n      MUL \t\t\tusers[customer_.id_] = Types.U...\n      NOT \t\t\tusers[customer_.id_] = Types.U...\n      AND \t\t\tusers[customer_.id_] = Types.U...\n      SWAP1 \t\t\tusers[customer_.id_] = Types.U...\n      DUP4 \t\t\tusers[customer_.id_] = Types.U...\n      PUSH 2\t\t\tusers[customer_.id_] = Types.U...\n      DUP2 \t\t\tusers[customer_.id_] = Types.U...\n      GT \t\t\tusers[customer_.id_] = Types.U...\n      ISZERO \t\t\tusers[customer_.id_] = Types.U...\n      PUSH [tag] 468\t\t\tusers[customer_.id_] = Types.U...\n      JUMPI \t\t\tusers[customer_.id_] = Types.U...\n      PUSH [tag] 469\t\t\tusers[customer_.id_] = Types.U...\n      PUSH [tag] 135\t\t\tusers[customer_.id_] = Types.U...\n      JUMP \t\t\tusers[customer_.id_] = Types.U...\n    tag 469\t\t\tusers[customer_.id_] = Types.U...\n      JUMPDEST \t\t\tusers[customer_.id_] = Types.U...\n    tag 468\t\t\tusers[customer_.id_] = Types.U...\n      JUMPDEST \t\t\tusers[customer_.id_] = Types.U...\n      MUL \t\t\tusers[customer_.id_] = Types.U...\n      OR \t\t\tusers[customer_.id_] = Types.U...\n      SWAP1 \t\t\tusers[customer_.id_] = Types.U...\n      SSTORE \t\t\tusers[customer_.id_] = Types.U...\n      POP \t\t\tusers[customer_.id_] = Types.U...\n      PUSH 80\t\t\tusers[customer_.id_] = Types.U...\n      DUP3 \t\t\tusers[customer_.id_] = Types.U...\n      ADD \t\t\tusers[customer_.id_] = Types.U...\n      MLOAD \t\t\tusers[customer_.id_] = Types.U...\n      DUP2 \t\t\tusers[customer_.id_] = Types.U...\n      PUSH 2\t\t\tusers[customer_.id_] = Types.U...\n      ADD \t\t\tusers[customer_.id_] = Types.U...\n      PUSH 15\t\t\tusers[customer_.id_] = Types.U...\n      PUSH 100\t\t\tusers[customer_.id_] = Types.U...\n      EXP \t\t\tusers[customer_.id_] = Types.U...\n      DUP2 \t\t\tusers[customer_.id_] = Types.U...\n      SLOAD \t\t\tusers[customer_.id_] = Types.U...\n      DUP2 \t\t\tusers[customer_.id_] = Types.U...\n      PUSH FF\t\t\tusers[customer_.id_] = Types.U...\n      MUL \t\t\tusers[customer_.id_] = Types.U...\n      NOT \t\t\tusers[customer_.id_] = Types.U...\n      AND \t\t\tusers[customer_.id_] = Types.U...\n      SWAP1 \t\t\tusers[customer_.id_] = Types.U...\n      DUP4 \t\t\tusers[customer_.id_] = Types.U...\n      PUSH 1\t\t\tusers[customer_.id_] = Types.U...\n      DUP2 \t\t\tusers[customer_.id_] = Types.U...\n      GT \t\t\tusers[customer_.id_] = Types.U...\n      ISZERO \t\t\tusers[customer_.id_] = Types.U...\n      PUSH [tag] 470\t\t\tusers[customer_.id_] = Types.U...\n      JUMPI \t\t\tusers[customer_.id_] = Types.U...\n      PUSH [tag] 471\t\t\tusers[customer_.id_] = Types.U...\n      PUSH [tag] 135\t\t\tusers[customer_.id_] = Types.U...\n      JUMP \t\t\tusers[customer_.id_] = Types.U...\n    tag 471\t\t\tusers[customer_.id_] = Types.U...\n      JUMPDEST \t\t\tusers[customer_.id_] = Types.U...\n    tag 470\t\t\tusers[customer_.id_] = Types.U...\n      JUMPDEST \t\t\tusers[customer_.id_] = Types.U...\n      MUL \t\t\tusers[customer_.id_] = Types.U...\n      OR \t\t\tusers[customer_.id_] = Types.U...\n      SWAP1 \t\t\tusers[customer_.id_] = Types.U...\n      SSTORE \t\t\tusers[customer_.id_] = Types.U...\n      POP \t\t\tusers[customer_.id_] = Types.U...\n      SWAP1 \t\t\tusers[customer_.id_] = Types.U...\n      POP \t\t\tusers[customer_.id_] = Types.U...\n      POP \t\t\tusers[customer_.id_] = Types.U...\n      PUSH 5\t\t\tuserList\n      DUP6 \t\t\tcustomer_\n      PUSH 60\t\t\tcustomer_.id_\n      ADD \t\t\tcustomer_.id_\n      MLOAD \t\t\tcustomer_.id_\n      SWAP1 \t\t\tuserList.push(customer_.id_)\n      DUP1 \t\t\tuserList.push(customer_.id_)\n      PUSH 1\t\t\tuserList.push(customer_.id_)\n      DUP2 \t\t\tuserList.push(customer_.id_)\n      SLOAD \t\t\tuserList.push(customer_.id_)\n      ADD \t\t\tuserList.push(customer_.id_)\n      DUP1 \t\t\tuserList.push(customer_.id_)\n      DUP3 \t\t\tuserList.push(customer_.id_)\n      SSTORE \t\t\tuserList.push(customer_.id_)\n      DUP1 \t\t\tuserList.push(customer_.id_)\n      SWAP2 \t\t\tuserList.push(customer_.id_)\n      POP \t\t\tuserList.push(customer_.id_)\n      POP \t\t\tuserList.push(customer_.id_)\n      PUSH 1\t\t\tuserList.push(customer_.id_)\n      SWAP1 \t\t\tuserList.push(customer_.id_)\n      SUB \t\t\tuserList.push(customer_.id_)\n      SWAP1 \t\t\tuserList.push(customer_.id_)\n      PUSH 0\t\t\tuserList.push(customer_.id_)\n      MSTORE \t\t\tuserList.push(customer_.id_)\n      PUSH 20\t\t\tuserList.push(customer_.id_)\n      PUSH 0\t\t\tuserList.push(customer_.id_)\n      KECCAK256 \t\t\tuserList.push(customer_.id_)\n      ADD \t\t\tuserList.push(customer_.id_)\n      PUSH 0\t\t\tuserList.push(customer_.id_)\n      SWAP1 \t\t\tuserList.push(customer_.id_)\n      SWAP2 \t\t\tuserList.push(customer_.id_)\n      SWAP1 \t\t\tuserList.push(customer_.id_)\n      SWAP2 \t\t\tuserList.push(customer_.id_)\n      SWAP1 \t\t\tuserList.push(customer_.id_)\n      SWAP2 \t\t\tuserList.push(customer_.id_)\n      PUSH 100\t\t\tuserList.push(customer_.id_)\n      EXP \t\t\tuserList.push(customer_.id_)\n      DUP2 \t\t\tuserList.push(customer_.id_)\n      SLOAD \t\t\tuserList.push(customer_.id_)\n      DUP2 \t\t\tuserList.push(customer_.id_)\n      PUSH FFFFFFFFFFFFFFFFFFFFFFFFFFFFFFFFFFFFFFFF\t\t\tuserList.push(customer_.id_)\n      MUL \t\t\tuserList.push(customer_.id_)\n      NOT \t\t\tuserList.push(customer_.id_)\n      AND \t\t\tuserList.push(customer_.id_)\n      SWAP1 \t\t\tuserList.push(customer_.id_)\n      DUP4 \t\t\tuserList.push(customer_.id_)\n      PUSH FFFFFFFFFFFFFFFFFFFFFFFFFFFFFFFFFFFFFFFF\t\t\tuserList.push(customer_.id_)\n      AND \t\t\tuserList.push(customer_.id_)\n      MUL \t\t\tuserList.push(customer_.id_)\n      OR \t\t\tuserList.push(customer_.id_)\n      SWAP1 \t\t\tuserList.push(customer_.id_)\n      SSTORE \t\t\tuserList.push(customer_.id_)\n      POP \t\t\tuserList.push(customer_.id_)\n    tag 459\t\t\tif (!customerExists(customer_....\n      JUMPDEST \t\t\tif (!customerExists(customer_....\n      POP \t\t\t{\\r\\n        string memory req...\n      POP \t\t\tfunction addKycRequest(\\r\\n   ...\n      POP \t\t\tfunction addKycRequest(\\r\\n   ...\n      POP \t\t\tfunction addKycRequest(\\r\\n   ...\n      POP \t\t\tfunction addKycRequest(\\r\\n   ...\n      JUMP \t\t\tfunction addKycRequest(\\r\\n   ...\n    tag 77\t\t\tfunction updateProfile(\\r\\n   ...\n      JUMPDEST \t\t\tfunction updateProfile(\\r\\n   ...\n      CALLER \t\t\tmsg.sender\n      PUSH 0\t\t\tr\n      PUSH FFFFFFFFFFFFFFFFFFFFFFFFFFFFFFFFFFFFFFFF\t\t\t_;\\r\\n        userL\n      AND \t\t\t_;\\r\\n        userL\n      DUP2 \t\t\t_;\\r\n      PUSH FFFFFFFFFFFFFFFFFFFFFFFFFFFFFFFFFFFFFFFF\t\t\t_;\\r\\n        userL\n      AND \t\t\t_;\\r\\n        userL\n      SUB \t\t\t_;\\r\\n        userL\n      PUSH [tag] 474\t\t\tn] = usr_;\\r\\n        userList...\n      JUMPI \t\t\tn] = usr_;\\r\\n        userList...\n      PUSH 40\t\t\tn] = usr_;\\r\\n        userList...\n      MLOAD \t\t\tn] = usr_;\\r\\n        userList...\n      PUSH 8C379A000000000000000000000000000000000000000000000000000000000\t\t\tn] = usr_;\\r\\n        userList...\n      DUP2 \t\t\tn] = usr_;\\r\\n        userList...\n      MSTORE \t\t\tn] = usr_;\\r\\n        userList...\n      PUSH 4\t\t\tn] = usr_;\\r\\n        userList...\n      ADD \t\t\tn] = usr_;\\r\\n        userList...\n      PUSH [tag] 475\t\t\tn] = usr_;\\r\\n        userList...\n      SWAP1 \t\t\tn] = usr_;\\r\\n        userList...\n      PUSH [tag] 107\t\t\tn] = usr_;\\r\\n        userList...\n      JUMP \t\t\tn] = usr_;\\r\\n        userList...\n    tag 475\t\t\tn] = usr_;\\r\\n        userList...\n      JUMPDEST \t\t\tn] = usr_;\\r\\n        userList...\n      PUSH 40\t\t\tn] = usr_;\\r\\n        userList...\n      MLOAD \t\t\tn] = usr_;\\r\\n        userList...\n      DUP1 \t\t\tn] = usr_;\\r\\n        userList...\n      SWAP2 \t\t\tn] = usr_;\\r\\n        userList...\n      SUB \t\t\tn] = usr_;\\r\\n        userList...\n      SWAP1 \t\t\tn] = usr_;\\r\\n        userList...\n      REVERT \t\t\tn] = usr_;\\r\\n        userList...\n    tag 474\t\t\tn] = usr_;\\r\\n        userList...\n      JUMPDEST \t\t\tn] = usr_;\\r\\n        userList...\n      PUSH 0\t\t\ti\n      PUSH FFFFFFFFFFFFFFFFFFFFFFFFFFFFFFFFFFFFFFFF\t\t\tfier isAdmin() {\\r\\n        re...\n      AND \t\t\tfier isAdmin() {\\r\\n        re...\n      PUSH 1\t\t\tfier isAd\n      PUSH 0\t\t\tfier isAdmin()\n      DUP4 \t\t\tin(\n      PUSH FFFFFFFFFFFFFFFFFFFFFFFFFFFFFFFFFFFFFFFF\t\t\tfier isAdmin()\n      AND \t\t\tfier isAdmin()\n      PUSH FFFFFFFFFFFFFFFFFFFFFFFFFFFFFFFFFFFFFFFF\t\t\tfier isAdmin()\n      AND \t\t\tfier isAdmin()\n      DUP2 \t\t\tfier isAdmin()\n      MSTORE \t\t\tfier isAdmin()\n      PUSH 20\t\t\tfier isAdmin()\n      ADD \t\t\tfier isAdmin()\n      SWAP1 \t\t\tfier isAdmin()\n      DUP2 \t\t\tfier isAdmin()\n      MSTORE \t\t\tfier isAdmin()\n      PUSH 20\t\t\tfier isAdmin()\n      ADD \t\t\tfier isAdmin()\n      PUSH 0\t\t\tfier isAdmin()\n      KECCAK256 \t\t\tfier isAdmin()\n      PUSH 3\t\t\tfier isAdmin() {\\r\\n\n      ADD \t\t\tfier isAdmin() {\\r\\n\n      PUSH 0\t\t\tfier isAdmin() {\\r\\n\n      SWAP1 \t\t\tfier isAdmin() {\\r\\n\n      SLOAD \t\t\tfier isAdmin() {\\r\\n\n      SWAP1 \t\t\tfier isAdmin() {\\r\\n\n      PUSH 100\t\t\tfier isAdmin() {\\r\\n\n      EXP \t\t\tfier isAdmin() {\\r\\n\n      SWAP1 \t\t\tfier isAdmin() {\\r\\n\n      DIV \t\t\tfier isAdmin() {\\r\\n\n      PUSH FFFFFFFFFFFFFFFFFFFFFFFFFFFFFFFFFFFFFFFF\t\t\tfier isAdmin() {\\r\\n\n      AND \t\t\tfier isAdmin() {\\r\\n\n      PUSH FFFFFFFFFFFFFFFFFFFFFFFFFFFFFFFFFFFFFFFF\t\t\tfier isAdmin() {\\r\\n        re...\n      AND \t\t\tfier isAdmin() {\\r\\n        re...\n      SUB \t\t\tfier isAdmin() {\\r\\n        re...\n      PUSH [tag] 476\t\t\t    modifier isAdmin() {\\r\\n  ...\n      JUMPI \t\t\t    modifier isAdmin() {\\r\\n  ...\n      PUSH 40\t\t\t    modifier isAdmin() {\\r\\n  ...\n      MLOAD \t\t\t    modifier isAdmin() {\\r\\n  ...\n      PUSH 8C379A000000000000000000000000000000000000000000000000000000000\t\t\t    modifier isAdmin() {\\r\\n  ...\n      DUP2 \t\t\t    modifier isAdmin() {\\r\\n  ...\n      MSTORE \t\t\t    modifier isAdmin() {\\r\\n  ...\n      PUSH 4\t\t\t    modifier isAdmin() {\\r\\n  ...\n      ADD \t\t\t    modifier isAdmin() {\\r\\n  ...\n      PUSH [tag] 477\t\t\t    modifier isAdmin() {\\r\\n  ...\n      SWAP1 \t\t\t    modifier isAdmin() {\\r\\n  ...\n      PUSH [tag] 110\t\t\t    modifier isAdmin() {\\r\\n  ...\n      JUMP \t\t\t    modifier isAdmin() {\\r\\n  ...\n    tag 477\t\t\t    modifier isAdmin() {\\r\\n  ...\n      JUMPDEST \t\t\t    modifier isAdmin() {\\r\\n  ...\n      PUSH 40\t\t\t    modifier isAdmin() {\\r\\n  ...\n      MLOAD \t\t\t    modifier isAdmin() {\\r\\n  ...\n      DUP1 \t\t\t    modifier isAdmin() {\\r\\n  ...\n      SWAP2 \t\t\t    modifier isAdmin() {\\r\\n  ...\n      SUB \t\t\t    modifier isAdmin() {\\r\\n  ...\n      SWAP1 \t\t\t    modifier isAdmin() {\\r\\n  ...\n      REVERT \t\t\t    modifier isAdmin() {\\r\\n  ...\n    tag 476\t\t\t    modifier isAdmin() {\\r\\n  ...\n      JUMPDEST \t\t\t    modifier isAdmin() {\\r\\n  ...\n      PUSH [tag] 478\t\t\t      _;\\r\\n    }\\r\\n\\r\\n    f...\n      PUSH 1\t\t\tfunction \n      PUSH 0\t\t\tfunction kycRe\n      DUP4 \t\t\tycR\n      PUSH FFFFFFFFFFFFFFFFFFFFFFFFFFFFFFFFFFFFFFFF\t\t\tfunction kycRe\n      AND \t\t\tfunction kycRe\n      PUSH FFFFFFFFFFFFFFFFFFFFFFFFFFFFFFFFFFFFFFFF\t\t\tfunction kycRe\n      AND \t\t\tfunction kycRe\n      DUP2 \t\t\tfunction kycRe\n      MSTORE \t\t\tfunction kycRe\n      PUSH 20\t\t\tfunction kycRe\n      ADD \t\t\tfunction kycRe\n      SWAP1 \t\t\tfunction kycRe\n      DUP2 \t\t\tfunction kycRe\n      MSTORE \t\t\tfunction kycRe\n      PUSH 20\t\t\tfunction kycRe\n      ADD \t\t\tfunction kycRe\n      PUSH 0\t\t\tfunction kycRe\n      KECCAK256 \t\t\tfunction kycRe\n      PUSH 1\t\t\tfunction kycRequestE\n      ADD \t\t\tfunction kycRequestE\n      DUP1 \t\t\t      _;\\r\\n    }\\r\\n\\r\\n    f...\n      SLOAD \t\t\t      _;\\r\\n    }\\r\\n\\r\\n    f...\n      PUSH [tag] 479\t\t\t      _;\\r\\n    }\\r\\n\\r\\n    f...\n      SWAP1 \t\t\t      _;\\r\\n    }\\r\\n\\r\\n    f...\n      PUSH [tag] 113\t\t\t      _;\\r\\n    }\\r\\n\\r\\n    f...\n      JUMP \t\t\t      _;\\r\\n    }\\r\\n\\r\\n    f...\n    tag 479\t\t\t      _;\\r\\n    }\\r\\n\\r\\n    f...\n      JUMPDEST \t\t\t      _;\\r\\n    }\\r\\n\\r\\n    f...\n      DUP1 \t\t\t      _;\\r\\n    }\\r\\n\\r\\n    f...\n      PUSH 1F\t\t\t      _;\\r\\n    }\\r\\n\\r\\n    f...\n      ADD \t\t\t      _;\\r\\n    }\\r\\n\\r\\n    f...\n      PUSH 20\t\t\t      _;\\r\\n    }\\r\\n\\r\\n    f...\n      DUP1 \t\t\t      _;\\r\\n    }\\r\\n\\r\\n    f...\n      SWAP2 \t\t\t      _;\\r\\n    }\\r\\n\\r\\n    f...\n      DIV \t\t\t      _;\\r\\n    }\\r\\n\\r\\n    f...\n      MUL \t\t\t      _;\\r\\n    }\\r\\n\\r\\n    f...\n      PUSH 20\t\t\t      _;\\r\\n    }\\r\\n\\r\\n    f...\n      ADD \t\t\t      _;\\r\\n    }\\r\\n\\r\\n    f...\n      PUSH 40\t\t\t      _;\\r\\n    }\\r\\n\\r\\n    f...\n      MLOAD \t\t\t      _;\\r\\n    }\\r\\n\\r\\n    f...\n      SWAP1 \t\t\t      _;\\r\\n    }\\r\\n\\r\\n    f...\n      DUP2 \t\t\t      _;\\r\\n    }\\r\\n\\r\\n    f...\n      ADD \t\t\t      _;\\r\\n    }\\r\\n\\r\\n    f...\n      PUSH 40\t\t\t      _;\\r\\n    }\\r\\n\\r\\n    f...\n      MSTORE \t\t\t      _;\\r\\n    }\\r\\n\\r\\n    f...\n      DUP1 \t\t\t      _;\\r\\n    }\\r\\n\\r\\n    f...\n      SWAP3 \t\t\t      _;\\r\\n    }\\r\\n\\r\\n    f...\n      SWAP2 \t\t\t      _;\\r\\n    }\\r\\n\\r\\n    f...\n      SWAP1 \t\t\t      _;\\r\\n    }\\r\\n\\r\\n    f...\n      DUP2 \t\t\t      _;\\r\\n    }\\r\\n\\r\\n    f...\n      DUP2 \t\t\t      _;\\r\\n    }\\r\\n\\r\\n    f...\n      MSTORE \t\t\t      _;\\r\\n    }\\r\\n\\r\\n    f...\n      PUSH 20\t\t\t      _;\\r\\n    }\\r\\n\\r\\n    f...\n      ADD \t\t\t      _;\\r\\n    }\\r\\n\\r\\n    f...\n      DUP3 \t\t\t      _;\\r\\n    }\\r\\n\\r\\n    f...\n      DUP1 \t\t\t      _;\\r\\n    }\\r\\n\\r\\n    f...\n      SLOAD \t\t\t      _;\\r\\n    }\\r\\n\\r\\n    f...\n      PUSH [tag] 480\t\t\t      _;\\r\\n    }\\r\\n\\r\\n    f...\n      SWAP1 \t\t\t      _;\\r\\n    }\\r\\n\\r\\n    f...\n      PUSH [tag] 113\t\t\t      _;\\r\\n    }\\r\\n\\r\\n    f...\n      JUMP \t\t\t      _;\\r\\n    }\\r\\n\\r\\n    f...\n    tag 480\t\t\t      _;\\r\\n    }\\r\\n\\r\\n    f...\n      JUMPDEST \t\t\t      _;\\r\\n    }\\r\\n\\r\\n    f...\n      DUP1 \t\t\t      _;\\r\\n    }\\r\\n\\r\\n    f...\n      ISZERO \t\t\t      _;\\r\\n    }\\r\\n\\r\\n    f...\n      PUSH [tag] 481\t\t\t      _;\\r\\n    }\\r\\n\\r\\n    f...\n      JUMPI \t\t\t      _;\\r\\n    }\\r\\n\\r\\n    f...\n      DUP1 \t\t\t      _;\\r\\n    }\\r\\n\\r\\n    f...\n      PUSH 1F\t\t\t      _;\\r\\n    }\\r\\n\\r\\n    f...\n      LT \t\t\t      _;\\r\\n    }\\r\\n\\r\\n    f...\n      PUSH [tag] 482\t\t\t      _;\\r\\n    }\\r\\n\\r\\n    f...\n      JUMPI \t\t\t      _;\\r\\n    }\\r\\n\\r\\n    f...\n      PUSH 100\t\t\t      _;\\r\\n    }\\r\\n\\r\\n    f...\n      DUP1 \t\t\t      _;\\r\\n    }\\r\\n\\r\\n    f...\n      DUP4 \t\t\t      _;\\r\\n    }\\r\\n\\r\\n    f...\n      SLOAD \t\t\t      _;\\r\\n    }\\r\\n\\r\\n    f...\n      DIV \t\t\t      _;\\r\\n    }\\r\\n\\r\\n    f...\n      MUL \t\t\t      _;\\r\\n    }\\r\\n\\r\\n    f...\n      DUP4 \t\t\t      _;\\r\\n    }\\r\\n\\r\\n    f...\n      MSTORE \t\t\t      _;\\r\\n    }\\r\\n\\r\\n    f...\n      SWAP2 \t\t\t      _;\\r\\n    }\\r\\n\\r\\n    f...\n      PUSH 20\t\t\t      _;\\r\\n    }\\r\\n\\r\\n    f...\n      ADD \t\t\t      _;\\r\\n    }\\r\\n\\r\\n    f...\n      SWAP2 \t\t\t      _;\\r\\n    }\\r\\n\\r\\n    f...\n      PUSH [tag] 481\t\t\t      _;\\r\\n    }\\r\\n\\r\\n    f...\n      JUMP \t\t\t      _;\\r\\n    }\\r\\n\\r\\n    f...\n    tag 482\t\t\t      _;\\r\\n    }\\r\\n\\r\\n    f...\n      JUMPDEST \t\t\t      _;\\r\\n    }\\r\\n\\r\\n    f...\n      DUP3 \t\t\t      _;\\r\\n    }\\r\\n\\r\\n    f...\n      ADD \t\t\t      _;\\r\\n    }\\r\\n\\r\\n    f...\n      SWAP2 \t\t\t      _;\\r\\n    }\\r\\n\\r\\n    f...\n      SWAP1 \t\t\t      _;\\r\\n    }\\r\\n\\r\\n    f...\n      PUSH 0\t\t\t      _;\\r\\n    }\\r\\n\\r\\n    f...\n      MSTORE \t\t\t      _;\\r\\n    }\\r\\n\\r\\n    f...\n      PUSH 20\t\t\t      _;\\r\\n    }\\r\\n\\r\\n    f...\n      PUSH 0\t\t\t      _;\\r\\n    }\\r\\n\\r\\n    f...\n      KECCAK256 \t\t\t      _;\\r\\n    }\\r\\n\\r\\n    f...\n      SWAP1 \t\t\t      _;\\r\\n    }\\r\\n\\r\\n    f...\n    tag 483\t\t\t      _;\\r\\n    }\\r\\n\\r\\n    f...\n      JUMPDEST \t\t\t      _;\\r\\n    }\\r\\n\\r\\n    f...\n      DUP2 \t\t\t      _;\\r\\n    }\\r\\n\\r\\n    f...\n      SLOAD \t\t\t      _;\\r\\n    }\\r\\n\\r\\n    f...\n      DUP2 \t\t\t      _;\\r\\n    }\\r\\n\\r\\n    f...\n      MSTORE \t\t\t      _;\\r\\n    }\\r\\n\\r\\n    f...\n      SWAP1 \t\t\t      _;\\r\\n    }\\r\\n\\r\\n    f...\n      PUSH 1\t\t\t      _;\\r\\n    }\\r\\n\\r\\n    f...\n      ADD \t\t\t      _;\\r\\n    }\\r\\n\\r\\n    f...\n      SWAP1 \t\t\t      _;\\r\\n    }\\r\\n\\r\\n    f...\n      PUSH 20\t\t\t      _;\\r\\n    }\\r\\n\\r\\n    f...\n      ADD \t\t\t      _;\\r\\n    }\\r\\n\\r\\n    f...\n      DUP1 \t\t\t      _;\\r\\n    }\\r\\n\\r\\n    f...\n      DUP4 \t\t\t      _;\\r\\n    }\\r\\n\\r\\n    f...\n      GT \t\t\t      _;\\r\\n    }\\r\\n\\r\\n    f...\n      PUSH [tag] 483\t\t\t      _;\\r\\n    }\\r\\n\\r\\n    f...\n      JUMPI \t\t\t      _;\\r\\n    }\\r\\n\\r\\n    f...\n      DUP3 \t\t\t      _;\\r\\n    }\\r\\n\\r\\n    f...\n      SWAP1 \t\t\t      _;\\r\\n    }\\r\\n\\r\\n    f...\n      SUB \t\t\t      _;\\r\\n    }\\r\\n\\r\\n    f...\n      PUSH 1F\t\t\t      _;\\r\\n    }\\r\\n\\r\\n    f...\n      AND \t\t\t      _;\\r\\n    }\\r\\n\\r\\n    f...\n      DUP3 \t\t\t      _;\\r\\n    }\\r\\n\\r\\n    f...\n      ADD \t\t\t      _;\\r\\n    }\\r\\n\\r\\n    f...\n      SWAP2 \t\t\t      _;\\r\\n    }\\r\\n\\r\\n    f...\n    tag 481\t\t\t      _;\\r\\n    }\\r\\n\\r\\n    f...\n      JUMPDEST \t\t\t      _;\\r\\n    }\\r\\n\\r\\n    f...\n      POP \t\t\t      _;\\r\\n    }\\r\\n\\r\\n    f...\n      POP \t\t\t      _;\\r\\n    }\\r\\n\\r\\n    f...\n      POP \t\t\t      _;\\r\\n    }\\r\\n\\r\\n    f...\n      POP \t\t\t      _;\\r\\n    }\\r\\n\\r\\n    f...\n      POP \t\t\t      _;\\r\\n    }\\r\\n\\r\\n    f...\n      PUSH 40\t\t\t      _;\\r\\n    }\\r\\n\\r\\n    f...\n      MLOAD \t\t\t      _;\\r\\n    }\\r\\n\\r\\n    f...\n      DUP1 \t\t\t      _;\\r\\n    }\\r\\n\\r\\n    f...\n      PUSH 20\t\t\t      _;\\r\\n    }\\r\\n\\r\\n    f...\n      ADD \t\t\t      _;\\r\\n    }\\r\\n\\r\\n    f...\n      PUSH 40\t\t\t      _;\\r\\n    }\\r\\n\\r\\n    f...\n      MSTORE \t\t\t      _;\\r\\n    }\\r\\n\\r\\n    f...\n      DUP1 \t\t\t      _;\\r\\n    }\\r\\n\\r\\n    f...\n      PUSH 0\t\t\t      _;\\r\\n    }\\r\\n\\r\\n    f...\n      DUP2 \t\t\t      _;\\r\\n    }\\r\\n\\r\\n    f...\n      MSTORE \t\t\t      _;\\r\\n    }\\r\\n\\r\\n    f...\n      POP \t\t\t      _;\\r\\n    }\\r\\n\\r\\n    f...\n      PUSH [tag] 118\t\t\t      _;\\r\\n    }\\r\\n\\r\\n   \n      JUMP \t\t\t      _;\\r\\n    }\\r\\n\\r\\n    f...\n    tag 478\t\t\t      _;\\r\\n    }\\r\\n\\r\\n    f...\n      JUMPDEST \t\t\t      _;\\r\\n    }\\r\\n\\r\\n    f...\n      ISZERO \t\t\t       _;\\r\\n    }\\r\\n\\r\\n    ...\n      PUSH [tag] 484\t\t\tadmin is allowed\");\\r\\n       ...\n      JUMPI \t\t\tadmin is allowed\");\\r\\n       ...\n      PUSH 40\t\t\tadmin is allowed\");\\r\\n       ...\n      MLOAD \t\t\tadmin is allowed\");\\r\\n       ...\n      PUSH 8C379A000000000000000000000000000000000000000000000000000000000\t\t\tadmin is allowed\");\\r\\n       ...\n      DUP2 \t\t\tadmin is allowed\");\\r\\n       ...\n      MSTORE \t\t\tadmin is allowed\");\\r\\n       ...\n      PUSH 4\t\t\tadmin is allowed\");\\r\\n       ...\n      ADD \t\t\tadmin is allowed\");\\r\\n       ...\n      PUSH [tag] 485\t\t\tadmin is allowed\");\\r\\n       ...\n      SWAP1 \t\t\tadmin is allowed\");\\r\\n       ...\n      PUSH [tag] 121\t\t\tadmin is allowed\");\\r\\n       ...\n      JUMP \t\t\tadmin is allowed\");\\r\\n       ...\n    tag 485\t\t\tadmin is allowed\");\\r\\n       ...\n      JUMPDEST \t\t\tadmin is allowed\");\\r\\n       ...\n      PUSH 40\t\t\tadmin is allowed\");\\r\\n       ...\n      MLOAD \t\t\tadmin is allowed\");\\r\\n       ...\n      DUP1 \t\t\tadmin is allowed\");\\r\\n       ...\n      SWAP2 \t\t\tadmin is allowed\");\\r\\n       ...\n      SUB \t\t\tadmin is allowed\");\\r\\n       ...\n      SWAP1 \t\t\tadmin is allowed\");\\r\\n       ...\n      REVERT \t\t\tadmin is allowed\");\\r\\n       ...\n    tag 484\t\t\tadmin is allowed\");\\r\\n       ...\n      JUMPDEST \t\t\tadmin is allowed\");\\r\\n       ...\n      PUSH [tag] 487\t\t\tupdateprofile(name_, email_, m...\n      DUP5 \t\t\tname_\n      DUP5 \t\t\temail_\n      DUP5 \t\t\tmobile_\n      PUSH [tag] 488\t\t\tupdateprofile\n      JUMP \t\t\tupdateprofile(name_, email_, m...\n    tag 487\t\t\tupdateprofile(name_, email_, m...\n      JUMPDEST \t\t\tupdateprofile(name_, email_, m...\n      DUP4 \t\t\tname_\n      PUSH 6\t\t\tusers\n      PUSH 0\t\t\tusers[msg.sender]\n      CALLER \t\t\tmsg.sender\n      PUSH FFFFFFFFFFFFFFFFFFFFFFFFFFFFFFFFFFFFFFFF\t\t\tusers[msg.sender]\n      AND \t\t\tusers[msg.sender]\n      PUSH FFFFFFFFFFFFFFFFFFFFFFFFFFFFFFFFFFFFFFFF\t\t\tusers[msg.sender]\n      AND \t\t\tusers[msg.sender]\n      DUP2 \t\t\tusers[msg.sender]\n      MSTORE \t\t\tusers[msg.sender]\n      PUSH 20\t\t\tusers[msg.sender]\n      ADD \t\t\tusers[msg.sender]\n      SWAP1 \t\t\tusers[msg.sender]\n      DUP2 \t\t\tusers[msg.sender]\n      MSTORE \t\t\tusers[msg.sender]\n      PUSH 20\t\t\tusers[msg.sender]\n      ADD \t\t\tusers[msg.sender]\n      PUSH 0\t\t\tusers[msg.sender]\n      KECCAK256 \t\t\tusers[msg.sender]\n      PUSH 0\t\t\tusers[msg.sender].name\n      ADD \t\t\tusers[msg.sender].name\n      SWAP1 \t\t\tusers[msg.sender].name = name_\n      DUP2 \t\t\tusers[msg.sender].name = name_\n      PUSH [tag] 489\t\t\tusers[msg.sender].name = name_\n      SWAP2 \t\t\tusers[msg.sender].name = name_\n      SWAP1 \t\t\tusers[msg.sender].name = name_\n      PUSH [tag] 174\t\t\tusers[msg.sender].name = name_\n      JUMP \t\t\tusers[msg.sender].name = name_\n    tag 489\t\t\tusers[msg.sender].name = name_\n      JUMPDEST \t\t\tusers[msg.sender].name = name_\n      POP \t\t\tusers[msg.sender].name = name_\n      DUP3 \t\t\temail_\n      PUSH 6\t\t\tusers\n      PUSH 0\t\t\tusers[msg.sender]\n      CALLER \t\t\tmsg.sender\n      PUSH FFFFFFFFFFFFFFFFFFFFFFFFFFFFFFFFFFFFFFFF\t\t\tusers[msg.sender]\n      AND \t\t\tusers[msg.sender]\n      PUSH FFFFFFFFFFFFFFFFFFFFFFFFFFFFFFFFFFFFFFFF\t\t\tusers[msg.sender]\n      AND \t\t\tusers[msg.sender]\n      DUP2 \t\t\tusers[msg.sender]\n      MSTORE \t\t\tusers[msg.sender]\n      PUSH 20\t\t\tusers[msg.sender]\n      ADD \t\t\tusers[msg.sender]\n      SWAP1 \t\t\tusers[msg.sender]\n      DUP2 \t\t\tusers[msg.sender]\n      MSTORE \t\t\tusers[msg.sender]\n      PUSH 20\t\t\tusers[msg.sender]\n      ADD \t\t\tusers[msg.sender]\n      PUSH 0\t\t\tusers[msg.sender]\n      KECCAK256 \t\t\tusers[msg.sender]\n      PUSH 1\t\t\tusers[msg.sender].email\n      ADD \t\t\tusers[msg.sender].email\n      SWAP1 \t\t\tusers[msg.sender].email = emai...\n      DUP2 \t\t\tusers[msg.sender].email = emai...\n      PUSH [tag] 490\t\t\tusers[msg.sender].email = emai...\n      SWAP2 \t\t\tusers[msg.sender].email = emai...\n      SWAP1 \t\t\tusers[msg.sender].email = emai...\n      PUSH [tag] 174\t\t\tusers[msg.sender].email = emai...\n      JUMP \t\t\tusers[msg.sender].email = emai...\n    tag 490\t\t\tusers[msg.sender].email = emai...\n      JUMPDEST \t\t\tusers[msg.sender].email = emai...\n      POP \t\t\tusers[msg.sender].email = emai...\n      POP \t\t\tfunction updateProfile(\\r\\n   ...\n      POP \t\t\tfunction updateProfile(\\r\\n   ...\n      POP \t\t\tfunction updateProfile(\\r\\n   ...\n      POP \t\t\tfunction updateProfile(\\r\\n   ...\n      JUMP \t\t\tfunction updateProfile(\\r\\n   ...\n    tag 81\t\t\tfunction updateDatahash(string...\n      JUMPDEST \t\t\tfunction updateDatahash(string...\n      CALLER \t\t\tmsg.sender\n      PUSH 0\t\t\tr\n      PUSH FFFFFFFFFFFFFFFFFFFFFFFFFFFFFFFFFFFFFFFF\t\t\t_;\\r\\n        userL\n      AND \t\t\t_;\\r\\n        userL\n      DUP2 \t\t\t_;\\r\n      PUSH FFFFFFFFFFFFFFFFFFFFFFFFFFFFFFFFFFFFFFFF\t\t\t_;\\r\\n        userL\n      AND \t\t\t_;\\r\\n        userL\n      SUB \t\t\t_;\\r\\n        userL\n      PUSH [tag] 492\t\t\tn] = usr_;\\r\\n        userList...\n      JUMPI \t\t\tn] = usr_;\\r\\n        userList...\n      PUSH 40\t\t\tn] = usr_;\\r\\n        userList...\n      MLOAD \t\t\tn] = usr_;\\r\\n        userList...\n      PUSH 8C379A000000000000000000000000000000000000000000000000000000000\t\t\tn] = usr_;\\r\\n        userList...\n      DUP2 \t\t\tn] = usr_;\\r\\n        userList...\n      MSTORE \t\t\tn] = usr_;\\r\\n        userList...\n      PUSH 4\t\t\tn] = usr_;\\r\\n        userList...\n      ADD \t\t\tn] = usr_;\\r\\n        userList...\n      PUSH [tag] 493\t\t\tn] = usr_;\\r\\n        userList...\n      SWAP1 \t\t\tn] = usr_;\\r\\n        userList...\n      PUSH [tag] 107\t\t\tn] = usr_;\\r\\n        userList...\n      JUMP \t\t\tn] = usr_;\\r\\n        userList...\n    tag 493\t\t\tn] = usr_;\\r\\n        userList...\n      JUMPDEST \t\t\tn] = usr_;\\r\\n        userList...\n      PUSH 40\t\t\tn] = usr_;\\r\\n        userList...\n      MLOAD \t\t\tn] = usr_;\\r\\n        userList...\n      DUP1 \t\t\tn] = usr_;\\r\\n        userList...\n      SWAP2 \t\t\tn] = usr_;\\r\\n        userList...\n      SUB \t\t\tn] = usr_;\\r\\n        userList...\n      SWAP1 \t\t\tn] = usr_;\\r\\n        userList...\n      REVERT \t\t\tn] = usr_;\\r\\n        userList...\n    tag 492\t\t\tn] = usr_;\\r\\n        userList...\n      JUMPDEST \t\t\tn] = usr_;\\r\\n        userList...\n      PUSH 0\t\t\ti\n      PUSH FFFFFFFFFFFFFFFFFFFFFFFFFFFFFFFFFFFFFFFF\t\t\tfier isAdmin() {\\r\\n        re...\n      AND \t\t\tfier isAdmin() {\\r\\n        re...\n      PUSH 1\t\t\tfier isAd\n      PUSH 0\t\t\tfier isAdmin()\n      DUP4 \t\t\tin(\n      PUSH FFFFFFFFFFFFFFFFFFFFFFFFFFFFFFFFFFFFFFFF\t\t\tfier isAdmin()\n      AND \t\t\tfier isAdmin()\n      PUSH FFFFFFFFFFFFFFFFFFFFFFFFFFFFFFFFFFFFFFFF\t\t\tfier isAdmin()\n      AND \t\t\tfier isAdmin()\n      DUP2 \t\t\tfier isAdmin()\n      MSTORE \t\t\tfier isAdmin()\n      PUSH 20\t\t\tfier isAdmin()\n      ADD \t\t\tfier isAdmin()\n      SWAP1 \t\t\tfier isAdmin()\n      DUP2 \t\t\tfier isAdmin()\n      MSTORE \t\t\tfier isAdmin()\n      PUSH 20\t\t\tfier isAdmin()\n      ADD \t\t\tfier isAdmin()\n      PUSH 0\t\t\tfier isAdmin()\n      KECCAK256 \t\t\tfier isAdmin()\n      PUSH 3\t\t\tfier isAdmin() {\\r\\n\n      ADD \t\t\tfier isAdmin() {\\r\\n\n      PUSH 0\t\t\tfier isAdmin() {\\r\\n\n      SWAP1 \t\t\tfier isAdmin() {\\r\\n\n      SLOAD \t\t\tfier isAdmin() {\\r\\n\n      SWAP1 \t\t\tfier isAdmin() {\\r\\n\n      PUSH 100\t\t\tfier isAdmin() {\\r\\n\n      EXP \t\t\tfier isAdmin() {\\r\\n\n      SWAP1 \t\t\tfier isAdmin() {\\r\\n\n      DIV \t\t\tfier isAdmin() {\\r\\n\n      PUSH FFFFFFFFFFFFFFFFFFFFFFFFFFFFFFFFFFFFFFFF\t\t\tfier isAdmin() {\\r\\n\n      AND \t\t\tfier isAdmin() {\\r\\n\n      PUSH FFFFFFFFFFFFFFFFFFFFFFFFFFFFFFFFFFFFFFFF\t\t\tfier isAdmin() {\\r\\n        re...\n      AND \t\t\tfier isAdmin() {\\r\\n        re...\n      SUB \t\t\tfier isAdmin() {\\r\\n        re...\n      PUSH [tag] 494\t\t\t    modifier isAdmin() {\\r\\n  ...\n      JUMPI \t\t\t    modifier isAdmin() {\\r\\n  ...\n      PUSH 40\t\t\t    modifier isAdmin() {\\r\\n  ...\n      MLOAD \t\t\t    modifier isAdmin() {\\r\\n  ...\n      PUSH 8C379A000000000000000000000000000000000000000000000000000000000\t\t\t    modifier isAdmin() {\\r\\n  ...\n      DUP2 \t\t\t    modifier isAdmin() {\\r\\n  ...\n      MSTORE \t\t\t    modifier isAdmin() {\\r\\n  ...\n      PUSH 4\t\t\t    modifier isAdmin() {\\r\\n  ...\n      ADD \t\t\t    modifier isAdmin() {\\r\\n  ...\n      PUSH [tag] 495\t\t\t    modifier isAdmin() {\\r\\n  ...\n      SWAP1 \t\t\t    modifier isAdmin() {\\r\\n  ...\n      PUSH [tag] 110\t\t\t    modifier isAdmin() {\\r\\n  ...\n      JUMP \t\t\t    modifier isAdmin() {\\r\\n  ...\n    tag 495\t\t\t    modifier isAdmin() {\\r\\n  ...\n      JUMPDEST \t\t\t    modifier isAdmin() {\\r\\n  ...\n      PUSH 40\t\t\t    modifier isAdmin() {\\r\\n  ...\n      MLOAD \t\t\t    modifier isAdmin() {\\r\\n  ...\n      DUP1 \t\t\t    modifier isAdmin() {\\r\\n  ...\n      SWAP2 \t\t\t    modifier isAdmin() {\\r\\n  ...\n      SUB \t\t\t    modifier isAdmin() {\\r\\n  ...\n      SWAP1 \t\t\t    modifier isAdmin() {\\r\\n  ...\n      REVERT \t\t\t    modifier isAdmin() {\\r\\n  ...\n    tag 494\t\t\t    modifier isAdmin() {\\r\\n  ...\n      JUMPDEST \t\t\t    modifier isAdmin() {\\r\\n  ...\n      PUSH [tag] 496\t\t\t      _;\\r\\n    }\\r\\n\\r\\n    f...\n      PUSH 1\t\t\tfunction \n      PUSH 0\t\t\tfunction kycRe\n      DUP4 \t\t\tycR\n      PUSH FFFFFFFFFFFFFFFFFFFFFFFFFFFFFFFFFFFFFFFF\t\t\tfunction kycRe\n      AND \t\t\tfunction kycRe\n      PUSH FFFFFFFFFFFFFFFFFFFFFFFFFFFFFFFFFFFFFFFF\t\t\tfunction kycRe\n      AND \t\t\tfunction kycRe\n      DUP2 \t\t\tfunction kycRe\n      MSTORE \t\t\tfunction kycRe\n      PUSH 20\t\t\tfunction kycRe\n      ADD \t\t\tfunction kycRe\n      SWAP1 \t\t\tfunction kycRe\n      DUP2 \t\t\tfunction kycRe\n      MSTORE \t\t\tfunction kycRe\n      PUSH 20\t\t\tfunction kycRe\n      ADD \t\t\tfunction kycRe\n      PUSH 0\t\t\tfunction kycRe\n      KECCAK256 \t\t\tfunction kycRe\n      PUSH 1\t\t\tfunction kycRequestE\n      ADD \t\t\tfunction kycRequestE\n      DUP1 \t\t\t      _;\\r\\n    }\\r\\n\\r\\n    f...\n      SLOAD \t\t\t      _;\\r\\n    }\\r\\n\\r\\n    f...\n      PUSH [tag] 497\t\t\t      _;\\r\\n    }\\r\\n\\r\\n    f...\n      SWAP1 \t\t\t      _;\\r\\n    }\\r\\n\\r\\n    f...\n      PUSH [tag] 113\t\t\t      _;\\r\\n    }\\r\\n\\r\\n    f...\n      JUMP \t\t\t      _;\\r\\n    }\\r\\n\\r\\n    f...\n    tag 497\t\t\t      _;\\r\\n    }\\r\\n\\r\\n    f...\n      JUMPDEST \t\t\t      _;\\r\\n    }\\r\\n\\r\\n    f...\n      DUP1 \t\t\t      _;\\r\\n    }\\r\\n\\r\\n    f...\n      PUSH 1F\t\t\t      _;\\r\\n    }\\r\\n\\r\\n    f...\n      ADD \t\t\t      _;\\r\\n    }\\r\\n\\r\\n    f...\n      PUSH 20\t\t\t      _;\\r\\n    }\\r\\n\\r\\n    f...\n      DUP1 \t\t\t      _;\\r\\n    }\\r\\n\\r\\n    f...\n      SWAP2 \t\t\t      _;\\r\\n    }\\r\\n\\r\\n    f...\n      DIV \t\t\t      _;\\r\\n    }\\r\\n\\r\\n    f...\n      MUL \t\t\t      _;\\r\\n    }\\r\\n\\r\\n    f...\n      PUSH 20\t\t\t      _;\\r\\n    }\\r\\n\\r\\n    f...\n      ADD \t\t\t      _;\\r\\n    }\\r\\n\\r\\n    f...\n      PUSH 40\t\t\t      _;\\r\\n    }\\r\\n\\r\\n    f...\n      MLOAD \t\t\t      _;\\r\\n    }\\r\\n\\r\\n    f...\n      SWAP1 \t\t\t      _;\\r\\n    }\\r\\n\\r\\n    f...\n      DUP2 \t\t\t      _;\\r\\n    }\\r\\n\\r\\n    f...\n      ADD \t\t\t      _;\\r\\n    }\\r\\n\\r\\n    f...\n      PUSH 40\t\t\t      _;\\r\\n    }\\r\\n\\r\\n    f...\n      MSTORE \t\t\t      _;\\r\\n    }\\r\\n\\r\\n    f...\n      DUP1 \t\t\t      _;\\r\\n    }\\r\\n\\r\\n    f...\n      SWAP3 \t\t\t      _;\\r\\n    }\\r\\n\\r\\n    f...\n      SWAP2 \t\t\t      _;\\r\\n    }\\r\\n\\r\\n    f...\n      SWAP1 \t\t\t      _;\\r\\n    }\\r\\n\\r\\n    f...\n      DUP2 \t\t\t      _;\\r\\n    }\\r\\n\\r\\n    f...\n      DUP2 \t\t\t      _;\\r\\n    }\\r\\n\\r\\n    f...\n      MSTORE \t\t\t      _;\\r\\n    }\\r\\n\\r\\n    f...\n      PUSH 20\t\t\t      _;\\r\\n    }\\r\\n\\r\\n    f...\n      ADD \t\t\t      _;\\r\\n    }\\r\\n\\r\\n    f...\n      DUP3 \t\t\t      _;\\r\\n    }\\r\\n\\r\\n    f...\n      DUP1 \t\t\t      _;\\r\\n    }\\r\\n\\r\\n    f...\n      SLOAD \t\t\t      _;\\r\\n    }\\r\\n\\r\\n    f...\n      PUSH [tag] 498\t\t\t      _;\\r\\n    }\\r\\n\\r\\n    f...\n      SWAP1 \t\t\t      _;\\r\\n    }\\r\\n\\r\\n    f...\n      PUSH [tag] 113\t\t\t      _;\\r\\n    }\\r\\n\\r\\n    f...\n      JUMP \t\t\t      _;\\r\\n    }\\r\\n\\r\\n    f...\n    tag 498\t\t\t      _;\\r\\n    }\\r\\n\\r\\n    f...\n      JUMPDEST \t\t\t      _;\\r\\n    }\\r\\n\\r\\n    f...\n      DUP1 \t\t\t      _;\\r\\n    }\\r\\n\\r\\n    f...\n      ISZERO \t\t\t      _;\\r\\n    }\\r\\n\\r\\n    f...\n      PUSH [tag] 499\t\t\t      _;\\r\\n    }\\r\\n\\r\\n    f...\n      JUMPI \t\t\t      _;\\r\\n    }\\r\\n\\r\\n    f...\n      DUP1 \t\t\t      _;\\r\\n    }\\r\\n\\r\\n    f...\n      PUSH 1F\t\t\t      _;\\r\\n    }\\r\\n\\r\\n    f...\n      LT \t\t\t      _;\\r\\n    }\\r\\n\\r\\n    f...\n      PUSH [tag] 500\t\t\t      _;\\r\\n    }\\r\\n\\r\\n    f...\n      JUMPI \t\t\t      _;\\r\\n    }\\r\\n\\r\\n    f...\n      PUSH 100\t\t\t      _;\\r\\n    }\\r\\n\\r\\n    f...\n      DUP1 \t\t\t      _;\\r\\n    }\\r\\n\\r\\n    f...\n      DUP4 \t\t\t      _;\\r\\n    }\\r\\n\\r\\n    f...\n      SLOAD \t\t\t      _;\\r\\n    }\\r\\n\\r\\n    f...\n      DIV \t\t\t      _;\\r\\n    }\\r\\n\\r\\n    f...\n      MUL \t\t\t      _;\\r\\n    }\\r\\n\\r\\n    f...\n      DUP4 \t\t\t      _;\\r\\n    }\\r\\n\\r\\n    f...\n      MSTORE \t\t\t      _;\\r\\n    }\\r\\n\\r\\n    f...\n      SWAP2 \t\t\t      _;\\r\\n    }\\r\\n\\r\\n    f...\n      PUSH 20\t\t\t      _;\\r\\n    }\\r\\n\\r\\n    f...\n      ADD \t\t\t      _;\\r\\n    }\\r\\n\\r\\n    f...\n      SWAP2 \t\t\t      _;\\r\\n    }\\r\\n\\r\\n    f...\n      PUSH [tag] 499\t\t\t      _;\\r\\n    }\\r\\n\\r\\n    f...\n      JUMP \t\t\t      _;\\r\\n    }\\r\\n\\r\\n    f...\n    tag 500\t\t\t      _;\\r\\n    }\\r\\n\\r\\n    f...\n      JUMPDEST \t\t\t      _;\\r\\n    }\\r\\n\\r\\n    f...\n      DUP3 \t\t\t      _;\\r\\n    }\\r\\n\\r\\n    f...\n      ADD \t\t\t      _;\\r\\n    }\\r\\n\\r\\n    f...\n      SWAP2 \t\t\t      _;\\r\\n    }\\r\\n\\r\\n    f...\n      SWAP1 \t\t\t      _;\\r\\n    }\\r\\n\\r\\n    f...\n      PUSH 0\t\t\t      _;\\r\\n    }\\r\\n\\r\\n    f...\n      MSTORE \t\t\t      _;\\r\\n    }\\r\\n\\r\\n    f...\n      PUSH 20\t\t\t      _;\\r\\n    }\\r\\n\\r\\n    f...\n      PUSH 0\t\t\t      _;\\r\\n    }\\r\\n\\r\\n    f...\n      KECCAK256 \t\t\t      _;\\r\\n    }\\r\\n\\r\\n    f...\n      SWAP1 \t\t\t      _;\\r\\n    }\\r\\n\\r\\n    f...\n    tag 501\t\t\t      _;\\r\\n    }\\r\\n\\r\\n    f...\n      JUMPDEST \t\t\t      _;\\r\\n    }\\r\\n\\r\\n    f...\n      DUP2 \t\t\t      _;\\r\\n    }\\r\\n\\r\\n    f...\n      SLOAD \t\t\t      _;\\r\\n    }\\r\\n\\r\\n    f...\n      DUP2 \t\t\t      _;\\r\\n    }\\r\\n\\r\\n    f...\n      MSTORE \t\t\t      _;\\r\\n    }\\r\\n\\r\\n    f...\n      SWAP1 \t\t\t      _;\\r\\n    }\\r\\n\\r\\n    f...\n      PUSH 1\t\t\t      _;\\r\\n    }\\r\\n\\r\\n    f...\n      ADD \t\t\t      _;\\r\\n    }\\r\\n\\r\\n    f...\n      SWAP1 \t\t\t      _;\\r\\n    }\\r\\n\\r\\n    f...\n      PUSH 20\t\t\t      _;\\r\\n    }\\r\\n\\r\\n    f...\n      ADD \t\t\t      _;\\r\\n    }\\r\\n\\r\\n    f...\n      DUP1 \t\t\t      _;\\r\\n    }\\r\\n\\r\\n    f...\n      DUP4 \t\t\t      _;\\r\\n    }\\r\\n\\r\\n    f...\n      GT \t\t\t      _;\\r\\n    }\\r\\n\\r\\n    f...\n      PUSH [tag] 501\t\t\t      _;\\r\\n    }\\r\\n\\r\\n    f...\n      JUMPI \t\t\t      _;\\r\\n    }\\r\\n\\r\\n    f...\n      DUP3 \t\t\t      _;\\r\\n    }\\r\\n\\r\\n    f...\n      SWAP1 \t\t\t      _;\\r\\n    }\\r\\n\\r\\n    f...\n      SUB \t\t\t      _;\\r\\n    }\\r\\n\\r\\n    f...\n      PUSH 1F\t\t\t      _;\\r\\n    }\\r\\n\\r\\n    f...\n      AND \t\t\t      _;\\r\\n    }\\r\\n\\r\\n    f...\n      DUP3 \t\t\t      _;\\r\\n    }\\r\\n\\r\\n    f...\n      ADD \t\t\t      _;\\r\\n    }\\r\\n\\r\\n    f...\n      SWAP2 \t\t\t      _;\\r\\n    }\\r\\n\\r\\n    f...\n    tag 499\t\t\t      _;\\r\\n    }\\r\\n\\r\\n    f...\n      JUMPDEST \t\t\t      _;\\r\\n    }\\r\\n\\r\\n    f...\n      POP \t\t\t      _;\\r\\n    }\\r\\n\\r\\n    f...\n      POP \t\t\t      _;\\r\\n    }\\r\\n\\r\\n    f...\n      POP \t\t\t      _;\\r\\n    }\\r\\n\\r\\n    f...\n      POP \t\t\t      _;\\r\\n    }\\r\\n\\r\\n    f...\n      POP \t\t\t      _;\\r\\n    }\\r\\n\\r\\n    f...\n      PUSH 40\t\t\t      _;\\r\\n    }\\r\\n\\r\\n    f...\n      MLOAD \t\t\t      _;\\r\\n    }\\r\\n\\r\\n    f...\n      DUP1 \t\t\t      _;\\r\\n    }\\r\\n\\r\\n    f...\n      PUSH 20\t\t\t      _;\\r\\n    }\\r\\n\\r\\n    f...\n      ADD \t\t\t      _;\\r\\n    }\\r\\n\\r\\n    f...\n      PUSH 40\t\t\t      _;\\r\\n    }\\r\\n\\r\\n    f...\n      MSTORE \t\t\t      _;\\r\\n    }\\r\\n\\r\\n    f...\n      DUP1 \t\t\t      _;\\r\\n    }\\r\\n\\r\\n    f...\n      PUSH 0\t\t\t      _;\\r\\n    }\\r\\n\\r\\n    f...\n      DUP2 \t\t\t      _;\\r\\n    }\\r\\n\\r\\n    f...\n      MSTORE \t\t\t      _;\\r\\n    }\\r\\n\\r\\n    f...\n      POP \t\t\t      _;\\r\\n    }\\r\\n\\r\\n    f...\n      PUSH [tag] 118\t\t\t      _;\\r\\n    }\\r\\n\\r\\n   \n      JUMP \t\t\t      _;\\r\\n    }\\r\\n\\r\\n    f...\n    tag 496\t\t\t      _;\\r\\n    }\\r\\n\\r\\n    f...\n      JUMPDEST \t\t\t      _;\\r\\n    }\\r\\n\\r\\n    f...\n      ISZERO \t\t\t       _;\\r\\n    }\\r\\n\\r\\n    ...\n      PUSH [tag] 502\t\t\tadmin is allowed\");\\r\\n       ...\n      JUMPI \t\t\tadmin is allowed\");\\r\\n       ...\n      PUSH 40\t\t\tadmin is allowed\");\\r\\n       ...\n      MLOAD \t\t\tadmin is allowed\");\\r\\n       ...\n      PUSH 8C379A000000000000000000000000000000000000000000000000000000000\t\t\tadmin is allowed\");\\r\\n       ...\n      DUP2 \t\t\tadmin is allowed\");\\r\\n       ...\n      MSTORE \t\t\tadmin is allowed\");\\r\\n       ...\n      PUSH 4\t\t\tadmin is allowed\");\\r\\n       ...\n      ADD \t\t\tadmin is allowed\");\\r\\n       ...\n      PUSH [tag] 503\t\t\tadmin is allowed\");\\r\\n       ...\n      SWAP1 \t\t\tadmin is allowed\");\\r\\n       ...\n      PUSH [tag] 121\t\t\tadmin is allowed\");\\r\\n       ...\n      JUMP \t\t\tadmin is allowed\");\\r\\n       ...\n    tag 503\t\t\tadmin is allowed\");\\r\\n       ...\n      JUMPDEST \t\t\tadmin is allowed\");\\r\\n       ...\n      PUSH 40\t\t\tadmin is allowed\");\\r\\n       ...\n      MLOAD \t\t\tadmin is allowed\");\\r\\n       ...\n      DUP1 \t\t\tadmin is allowed\");\\r\\n       ...\n      SWAP2 \t\t\tadmin is allowed\");\\r\\n       ...\n      SUB \t\t\tadmin is allowed\");\\r\\n       ...\n      SWAP1 \t\t\tadmin is allowed\");\\r\\n       ...\n      REVERT \t\t\tadmin is allowed\");\\r\\n       ...\n    tag 502\t\t\tadmin is allowed\");\\r\\n       ...\n      JUMPDEST \t\t\tadmin is allowed\");\\r\\n       ...\n      PUSH [tag] 505\t\t\tupdatedatahash(hash_, currentT...\n      DUP4 \t\t\thash_\n      DUP4 \t\t\tcurrentTime_\n      PUSH [tag] 506\t\t\tupdatedatahash\n      JUMP \t\t\tupdatedatahash(hash_, currentT...\n    tag 505\t\t\tupdatedatahash(hash_, currentT...\n      JUMPDEST \t\t\tupdatedatahash(hash_, currentT...\n      PUSH 0\t\t\taddress[] memory banksList_\n      PUSH 9\t\t\tcustomerbanks\n      PUSH 0\t\t\tcustomerbanks[msg.sender]\n      CALLER \t\t\tmsg.sender\n      PUSH FFFFFFFFFFFFFFFFFFFFFFFFFFFFFFFFFFFFFFFF\t\t\tcustomerbanks[msg.sender]\n      AND \t\t\tcustomerbanks[msg.sender]\n      PUSH FFFFFFFFFFFFFFFFFFFFFFFFFFFFFFFFFFFFFFFF\t\t\tcustomerbanks[msg.sender]\n      AND \t\t\tcustomerbanks[msg.sender]\n      DUP2 \t\t\tcustomerbanks[msg.sender]\n      MSTORE \t\t\tcustomerbanks[msg.sender]\n      PUSH 20\t\t\tcustomerbanks[msg.sender]\n      ADD \t\t\tcustomerbanks[msg.sender]\n      SWAP1 \t\t\tcustomerbanks[msg.sender]\n      DUP2 \t\t\tcustomerbanks[msg.sender]\n      MSTORE \t\t\tcustomerbanks[msg.sender]\n      PUSH 20\t\t\tcustomerbanks[msg.sender]\n      ADD \t\t\tcustomerbanks[msg.sender]\n      PUSH 0\t\t\tcustomerbanks[msg.sender]\n      KECCAK256 \t\t\tcustomerbanks[msg.sender]\n      DUP1 \t\t\taddress[] memory banksList_ = ...\n      SLOAD \t\t\taddress[] memory banksList_ = ...\n      DUP1 \t\t\taddress[] memory banksList_ = ...\n      PUSH 20\t\t\taddress[] memory banksList_ = ...\n      MUL \t\t\taddress[] memory banksList_ = ...\n      PUSH 20\t\t\taddress[] memory banksList_ = ...\n      ADD \t\t\taddress[] memory banksList_ = ...\n      PUSH 40\t\t\taddress[] memory banksList_ = ...\n      MLOAD \t\t\taddress[] memory banksList_ = ...\n      SWAP1 \t\t\taddress[] memory banksList_ = ...\n      DUP2 \t\t\taddress[] memory banksList_ = ...\n      ADD \t\t\taddress[] memory banksList_ = ...\n      PUSH 40\t\t\taddress[] memory banksList_ = ...\n      MSTORE \t\t\taddress[] memory banksList_ = ...\n      DUP1 \t\t\taddress[] memory banksList_ = ...\n      SWAP3 \t\t\taddress[] memory banksList_ = ...\n      SWAP2 \t\t\taddress[] memory banksList_ = ...\n      SWAP1 \t\t\taddress[] memory banksList_ = ...\n      DUP2 \t\t\taddress[] memory banksList_ = ...\n      DUP2 \t\t\taddress[] memory banksList_ = ...\n      MSTORE \t\t\taddress[] memory banksList_ = ...\n      PUSH 20\t\t\taddress[] memory banksList_ = ...\n      ADD \t\t\taddress[] memory banksList_ = ...\n      DUP3 \t\t\taddress[] memory banksList_ = ...\n      DUP1 \t\t\taddress[] memory banksList_ = ...\n      SLOAD \t\t\taddress[] memory banksList_ = ...\n      DUP1 \t\t\taddress[] memory banksList_ = ...\n      ISZERO \t\t\taddress[] memory banksList_ = ...\n      PUSH [tag] 507\t\t\taddress[] memory banksList_ = ...\n      JUMPI \t\t\taddress[] memory banksList_ = ...\n      PUSH 20\t\t\taddress[] memory banksList_ = ...\n      MUL \t\t\taddress[] memory banksList_ = ...\n      DUP3 \t\t\taddress[] memory banksList_ = ...\n      ADD \t\t\taddress[] memory banksList_ = ...\n      SWAP2 \t\t\taddress[] memory banksList_ = ...\n      SWAP1 \t\t\taddress[] memory banksList_ = ...\n      PUSH 0\t\t\taddress[] memory banksList_ = ...\n      MSTORE \t\t\taddress[] memory banksList_ = ...\n      PUSH 20\t\t\taddress[] memory banksList_ = ...\n      PUSH 0\t\t\taddress[] memory banksList_ = ...\n      KECCAK256 \t\t\taddress[] memory banksList_ = ...\n      SWAP1 \t\t\taddress[] memory banksList_ = ...\n    tag 508\t\t\taddress[] memory banksList_ = ...\n      JUMPDEST \t\t\taddress[] memory banksList_ = ...\n      DUP2 \t\t\taddress[] memory banksList_ = ...\n      PUSH 0\t\t\taddress[] memory banksList_ = ...\n      SWAP1 \t\t\taddress[] memory banksList_ = ...\n      SLOAD \t\t\taddress[] memory banksList_ = ...\n      SWAP1 \t\t\taddress[] memory banksList_ = ...\n      PUSH 100\t\t\taddress[] memory banksList_ = ...\n      EXP \t\t\taddress[] memory banksList_ = ...\n      SWAP1 \t\t\taddress[] memory banksList_ = ...\n      DIV \t\t\taddress[] memory banksList_ = ...\n      PUSH FFFFFFFFFFFFFFFFFFFFFFFFFFFFFFFFFFFFFFFF\t\t\taddress[] memory banksList_ = ...\n      AND \t\t\taddress[] memory banksList_ = ...\n      PUSH FFFFFFFFFFFFFFFFFFFFFFFFFFFFFFFFFFFFFFFF\t\t\taddress[] memory banksList_ = ...\n      AND \t\t\taddress[] memory banksList_ = ...\n      DUP2 \t\t\taddress[] memory banksList_ = ...\n      MSTORE \t\t\taddress[] memory banksList_ = ...\n      PUSH 20\t\t\taddress[] memory banksList_ = ...\n      ADD \t\t\taddress[] memory banksList_ = ...\n      SWAP1 \t\t\taddress[] memory banksList_ = ...\n      PUSH 1\t\t\taddress[] memory banksList_ = ...\n      ADD \t\t\taddress[] memory banksList_ = ...\n      SWAP1 \t\t\taddress[] memory banksList_ = ...\n      DUP1 \t\t\taddress[] memory banksList_ = ...\n      DUP4 \t\t\taddress[] memory banksList_ = ...\n      GT \t\t\taddress[] memory banksList_ = ...\n      PUSH [tag] 508\t\t\taddress[] memory banksList_ = ...\n      JUMPI \t\t\taddress[] memory banksList_ = ...\n    tag 507\t\t\taddress[] memory banksList_ = ...\n      JUMPDEST \t\t\taddress[] memory banksList_ = ...\n      POP \t\t\taddress[] memory banksList_ = ...\n      POP \t\t\taddress[] memory banksList_ = ...\n      POP \t\t\taddress[] memory banksList_ = ...\n      POP \t\t\taddress[] memory banksList_ = ...\n      POP \t\t\taddress[] memory banksList_ = ...\n      SWAP1 \t\t\taddress[] memory banksList_ = ...\n      POP \t\t\taddress[] memory banksList_ = ...\n      PUSH 0\t\t\tuint256 i\n    tag 509\t\t\tfor (uint256 i = 0; i < banksL...\n      JUMPDEST \t\t\tfor (uint256 i = 0; i < banksL...\n      DUP2 \t\t\tbanksList_\n      MLOAD \t\t\tbanksList_.length\n      DUP2 \t\t\ti\n      LT \t\t\ti < banksList_.length\n      ISZERO \t\t\tfor (uint256 i = 0; i < banksL...\n      PUSH [tag] 510\t\t\tfor (uint256 i = 0; i < banksL...\n      JUMPI \t\t\tfor (uint256 i = 0; i < banksL...\n      PUSH 0\t\t\tstring memory reqId_\n      PUSH [tag] 512\t\t\tHelpers.append(banksList_[i], ...\n      DUP4 \t\t\tbanksList_\n      DUP4 \t\t\ti\n      DUP2 \t\t\tbanksList_[i]\n      MLOAD \t\t\tbanksList_[i]\n      DUP2 \t\t\tbanksList_[i]\n      LT \t\t\tbanksList_[i]\n      PUSH [tag] 513\t\t\tbanksList_[i]\n      JUMPI \t\t\tbanksList_[i]\n      PUSH [tag] 514\t\t\tbanksList_[i]\n      PUSH [tag] 234\t\t\tbanksList_[i]\n      JUMP \t\t\tbanksList_[i]\n    tag 514\t\t\tbanksList_[i]\n      JUMPDEST \t\t\tbanksList_[i]\n    tag 513\t\t\tbanksList_[i]\n      JUMPDEST \t\t\tbanksList_[i]\n      PUSH 20\t\t\tbanksList_[i]\n      MUL \t\t\tbanksList_[i]\n      PUSH 20\t\t\tbanksList_[i]\n      ADD \t\t\tbanksList_[i]\n      ADD \t\t\tbanksList_[i]\n      MLOAD \t\t\tbanksList_[i]\n      CALLER \t\t\tmsg.sender\n      PUSH [tag] 157\t\t\tHelpers.append\n      JUMP \t\t\tHelpers.append(banksList_[i], ...\n    tag 512\t\t\tHelpers.append(banksList_[i], ...\n      JUMPDEST \t\t\tHelpers.append(banksList_[i], ...\n      SWAP1 \t\t\tstring memory reqId_ = Helpers...\n      POP \t\t\tstring memory reqId_ = Helpers...\n      PUSH [tag] 515\t\t\tkycRequestExists(reqId_)\n      DUP2 \t\t\treqId_\n      PUSH [tag] 159\t\t\tkycRequestExists\n      JUMP \t\t\tkycRequestExists(reqId_)\n    tag 515\t\t\tkycRequestExists(reqId_)\n      JUMPDEST \t\t\tkycRequestExists(reqId_)\n      ISZERO \t\t\tif (kycRequestExists(reqId_)) ...\n      PUSH [tag] 516\t\t\tif (kycRequestExists(reqId_)) ...\n      JUMPI \t\t\tif (kycRequestExists(reqId_)) ...\n      DUP6 \t\t\thash_\n      PUSH 7\t\t\tkycRequests\n      DUP3 \t\t\treqId_\n      PUSH 40\t\t\tkycRequests[reqId_]\n      MLOAD \t\t\tkycRequests[reqId_]\n      PUSH [tag] 517\t\t\tkycRequests[reqId_]\n      SWAP2 \t\t\tkycRequests[reqId_]\n      SWAP1 \t\t\tkycRequests[reqId_]\n      PUSH [tag] 169\t\t\tkycRequests[reqId_]\n      JUMP \t\t\tkycRequests[reqId_]\n    tag 517\t\t\tkycRequests[reqId_]\n      JUMPDEST \t\t\tkycRequests[reqId_]\n      SWAP1 \t\t\tkycRequests[reqId_]\n      DUP2 \t\t\tkycRequests[reqId_]\n      MSTORE \t\t\tkycRequests[reqId_]\n      PUSH 20\t\t\tkycRequests[reqId_]\n      ADD \t\t\tkycRequests[reqId_]\n      PUSH 40\t\t\tkycRequests[reqId_]\n      MLOAD \t\t\tkycRequests[reqId_]\n      DUP1 \t\t\tkycRequests[reqId_]\n      SWAP2 \t\t\tkycRequests[reqId_]\n      SUB \t\t\tkycRequests[reqId_]\n      SWAP1 \t\t\tkycRequests[reqId_]\n      KECCAK256 \t\t\tkycRequests[reqId_]\n      PUSH 5\t\t\tkycRequests[reqId_].dataHash\n      ADD \t\t\tkycRequests[reqId_].dataHash\n      SWAP1 \t\t\tkycRequests[reqId_].dataHash =...\n      DUP2 \t\t\tkycRequests[reqId_].dataHash =...\n      PUSH [tag] 518\t\t\tkycRequests[reqId_].dataHash =...\n      SWAP2 \t\t\tkycRequests[reqId_].dataHash =...\n      SWAP1 \t\t\tkycRequests[reqId_].dataHash =...\n      PUSH [tag] 174\t\t\tkycRequests[reqId_].dataHash =...\n      JUMP \t\t\tkycRequests[reqId_].dataHash =...\n    tag 518\t\t\tkycRequests[reqId_].dataHash =...\n      JUMPDEST \t\t\tkycRequests[reqId_].dataHash =...\n      POP \t\t\tkycRequests[reqId_].dataHash =...\n      DUP5 \t\t\tcurrentTime_\n      PUSH 7\t\t\tkycRequests\n      DUP3 \t\t\treqId_\n      PUSH 40\t\t\tkycRequests[reqId_]\n      MLOAD \t\t\tkycRequests[reqId_]\n      PUSH [tag] 519\t\t\tkycRequests[reqId_]\n      SWAP2 \t\t\tkycRequests[reqId_]\n      SWAP1 \t\t\tkycRequests[reqId_]\n      PUSH [tag] 169\t\t\tkycRequests[reqId_]\n      JUMP \t\t\tkycRequests[reqId_]\n    tag 519\t\t\tkycRequests[reqId_]\n      JUMPDEST \t\t\tkycRequests[reqId_]\n      SWAP1 \t\t\tkycRequests[reqId_]\n      DUP2 \t\t\tkycRequests[reqId_]\n      MSTORE \t\t\tkycRequests[reqId_]\n      PUSH 20\t\t\tkycRequests[reqId_]\n      ADD \t\t\tkycRequests[reqId_]\n      PUSH 40\t\t\tkycRequests[reqId_]\n      MLOAD \t\t\tkycRequests[reqId_]\n      DUP1 \t\t\tkycRequests[reqId_]\n      SWAP2 \t\t\tkycRequests[reqId_]\n      SUB \t\t\tkycRequests[reqId_]\n      SWAP1 \t\t\tkycRequests[reqId_]\n      KECCAK256 \t\t\tkycRequests[reqId_]\n      PUSH 6\t\t\tkycRequests[reqId_].updatedOn\n      ADD \t\t\tkycRequests[reqId_].updatedOn\n      DUP2 \t\t\tkycRequests[reqId_].updatedOn ...\n      SWAP1 \t\t\tkycRequests[reqId_].updatedOn ...\n      SSTORE \t\t\tkycRequests[reqId_].updatedOn ...\n      POP \t\t\tkycRequests[reqId_].updatedOn ...\n      PUSH 0\t\t\tTypes.KycStatus.Pending\n      PUSH 7\t\t\tkycRequests\n      DUP3 \t\t\treqId_\n      PUSH 40\t\t\tkycRequests[reqId_]\n      MLOAD \t\t\tkycRequests[reqId_]\n      PUSH [tag] 520\t\t\tkycRequests[reqId_]\n      SWAP2 \t\t\tkycRequests[reqId_]\n      SWAP1 \t\t\tkycRequests[reqId_]\n      PUSH [tag] 169\t\t\tkycRequests[reqId_]\n      JUMP \t\t\tkycRequests[reqId_]\n    tag 520\t\t\tkycRequests[reqId_]\n      JUMPDEST \t\t\tkycRequests[reqId_]\n      SWAP1 \t\t\tkycRequests[reqId_]\n      DUP2 \t\t\tkycRequests[reqId_]\n      MSTORE \t\t\tkycRequests[reqId_]\n      PUSH 20\t\t\tkycRequests[reqId_]\n      ADD \t\t\tkycRequests[reqId_]\n      PUSH 40\t\t\tkycRequests[reqId_]\n      MLOAD \t\t\tkycRequests[reqId_]\n      DUP1 \t\t\tkycRequests[reqId_]\n      SWAP2 \t\t\tkycRequests[reqId_]\n      SUB \t\t\tkycRequests[reqId_]\n      SWAP1 \t\t\tkycRequests[reqId_]\n      KECCAK256 \t\t\tkycRequests[reqId_]\n      PUSH 7\t\t\tkycRequests[reqId_].status\n      ADD \t\t\tkycRequests[reqId_].status\n      PUSH 0\t\t\tkycRequests[reqId_].status\n      PUSH 100\t\t\tkycRequests[reqId_].status = T...\n      EXP \t\t\tkycRequests[reqId_].status = T...\n      DUP2 \t\t\tkycRequests[reqId_].status = T...\n      SLOAD \t\t\tkycRequests[reqId_].status = T...\n      DUP2 \t\t\tkycRequests[reqId_].status = T...\n      PUSH FF\t\t\tkycRequests[reqId_].status = T...\n      MUL \t\t\tkycRequests[reqId_].status = T...\n      NOT \t\t\tkycRequests[reqId_].status = T...\n      AND \t\t\tkycRequests[reqId_].status = T...\n      SWAP1 \t\t\tkycRequests[reqId_].status = T...\n      DUP4 \t\t\tkycRequests[reqId_].status = T...\n      PUSH 2\t\t\tkycRequests[reqId_].status = T...\n      DUP2 \t\t\tkycRequests[reqId_].status = T...\n      GT \t\t\tkycRequests[reqId_].status = T...\n      ISZERO \t\t\tkycRequests[reqId_].status = T...\n      PUSH [tag] 521\t\t\tkycRequests[reqId_].status = T...\n      JUMPI \t\t\tkycRequests[reqId_].status = T...\n      PUSH [tag] 522\t\t\tkycRequests[reqId_].status = T...\n      PUSH [tag] 135\t\t\tkycRequests[reqId_].status = T...\n      JUMP \t\t\tkycRequests[reqId_].status = T...\n    tag 522\t\t\tkycRequests[reqId_].status = T...\n      JUMPDEST \t\t\tkycRequests[reqId_].status = T...\n    tag 521\t\t\tkycRequests[reqId_].status = T...\n      JUMPDEST \t\t\tkycRequests[reqId_].status = T...\n      MUL \t\t\tkycRequests[reqId_].status = T...\n      OR \t\t\tkycRequests[reqId_].status = T...\n      SWAP1 \t\t\tkycRequests[reqId_].status = T...\n      SSTORE \t\t\tkycRequests[reqId_].status = T...\n      POP \t\t\tkycRequests[reqId_].status = T...\n      PUSH 40\t\t\tkycRequests[reqId_].additional...\n      MLOAD \t\t\tkycRequests[reqId_].additional...\n      DUP1 \t\t\tkycRequests[reqId_].additional...\n      PUSH 40\t\t\tkycRequests[reqId_].additional...\n      ADD \t\t\tkycRequests[reqId_].additional...\n      PUSH 40\t\t\tkycRequests[reqId_].additional...\n      MSTORE \t\t\tkycRequests[reqId_].additional...\n      DUP1 \t\t\tkycRequests[reqId_].additional...\n      PUSH 13\t\t\tkycRequests[reqId_].additional...\n      DUP2 \t\t\tkycRequests[reqId_].additional...\n      MSTORE \t\t\tkycRequests[reqId_].additional...\n      PUSH 20\t\t\tkycRequests[reqId_].additional...\n      ADD \t\t\tkycRequests[reqId_].additional...\n      PUSH 5570646174656420616C6C206D7920646F637300000000000000000000000000\t\t\tkycRequests[reqId_].additional...\n      DUP2 \t\t\tkycRequests[reqId_].additional...\n      MSTORE \t\t\tkycRequests[reqId_].additional...\n      POP \t\t\tkycRequests[reqId_].additional...\n      PUSH 7\t\t\tkycRequests\n      DUP3 \t\t\treqId_\n      PUSH 40\t\t\tkycRequests[reqId_]\n      MLOAD \t\t\tkycRequests[reqId_]\n      PUSH [tag] 523\t\t\tkycRequests[reqId_]\n      SWAP2 \t\t\tkycRequests[reqId_]\n      SWAP1 \t\t\tkycRequests[reqId_]\n      PUSH [tag] 169\t\t\tkycRequests[reqId_]\n      JUMP \t\t\tkycRequests[reqId_]\n    tag 523\t\t\tkycRequests[reqId_]\n      JUMPDEST \t\t\tkycRequests[reqId_]\n      SWAP1 \t\t\tkycRequests[reqId_]\n      DUP2 \t\t\tkycRequests[reqId_]\n      MSTORE \t\t\tkycRequests[reqId_]\n      PUSH 20\t\t\tkycRequests[reqId_]\n      ADD \t\t\tkycRequests[reqId_]\n      PUSH 40\t\t\tkycRequests[reqId_]\n      MLOAD \t\t\tkycRequests[reqId_]\n      DUP1 \t\t\tkycRequests[reqId_]\n      SWAP2 \t\t\tkycRequests[reqId_]\n      SUB \t\t\tkycRequests[reqId_]\n      SWAP1 \t\t\tkycRequests[reqId_]\n      KECCAK256 \t\t\tkycRequests[reqId_]\n      PUSH 8\t\t\tkycRequests[reqId_].additional...\n      ADD \t\t\tkycRequests[reqId_].additional...\n      SWAP1 \t\t\tkycRequests[reqId_].additional...\n      DUP2 \t\t\tkycRequests[reqId_].additional...\n      PUSH [tag] 524\t\t\tkycRequests[reqId_].additional...\n      SWAP2 \t\t\tkycRequests[reqId_].additional...\n      SWAP1 \t\t\tkycRequests[reqId_].additional...\n      PUSH [tag] 174\t\t\tkycRequests[reqId_].additional...\n      JUMP \t\t\tkycRequests[reqId_].additional...\n    tag 524\t\t\tkycRequests[reqId_].additional...\n      JUMPDEST \t\t\tkycRequests[reqId_].additional...\n      POP \t\t\tkycRequests[reqId_].additional...\n    tag 516\t\t\tif (kycRequestExists(reqId_)) ...\n      JUMPDEST \t\t\tif (kycRequestExists(reqId_)) ...\n      POP \t\t\t{\\r\\n            string memory...\n      DUP1 \t\t\ti++\n      DUP1 \t\t\ti++\n      PUSH [tag] 525\t\t\ti++\n      SWAP1 \t\t\ti++\n      PUSH [tag] 273\t\t\ti++\n      JUMP \t\t\ti++\n    tag 525\t\t\ti++\n      JUMPDEST \t\t\ti++\n      SWAP2 \t\t\ti++\n      POP \t\t\ti++\n      POP \t\t\ti++\n      PUSH [tag] 509\t\t\tfor (uint256 i = 0; i < banksL...\n      JUMP \t\t\tfor (uint256 i = 0; i < banksL...\n    tag 510\t\t\tfor (uint256 i = 0; i < banksL...\n      JUMPDEST \t\t\tfor (uint256 i = 0; i < banksL...\n      POP \t\t\tfor (uint256 i = 0; i < banksL...\n      POP \t\t\t{\\r\\n        updatedatahash(ha...\n      POP \t\t\tfunction updateDatahash(string...\n      POP \t\t\tfunction updateDatahash(string...\n      POP \t\t\tfunction updateDatahash(string...\n      JUMP \t\t\tfunction updateDatahash(string...\n    tag 85\t\t\tfunction activateDeactivateBan...\n      JUMPDEST \t\t\tfunction activateDeactivateBan...\n      PUSH 4\t\t\tadmin\n      PUSH 0\t\t\tadmin\n      SWAP1 \t\t\tadmin\n      SLOAD \t\t\tadmin\n      SWAP1 \t\t\tadmin\n      PUSH 100\t\t\tadmin\n      EXP \t\t\tadmin\n      SWAP1 \t\t\tadmin\n      DIV \t\t\tadmin\n      PUSH FFFFFFFFFFFFFFFFFFFFFFFFFFFFFFFFFFFFFFFF\t\t\tadmin\n      AND \t\t\tadmin\n      PUSH FFFFFFFFFFFFFFFFFFFFFFFFFFFFFFFFFFFFFFFF\t\t\tmsg.sender == admin\n      AND \t\t\tmsg.sender == admin\n      CALLER \t\t\tmsg.sender\n      PUSH FFFFFFFFFFFFFFFFFFFFFFFFFFFFFFFFFFFFFFFF\t\t\tmsg.sender == admin\n      AND \t\t\tmsg.sender == admin\n      EQ \t\t\tmsg.sender == admin\n      PUSH [tag] 527\t\t\trequire(msg.sender == admin, \"...\n      JUMPI \t\t\trequire(msg.sender == admin, \"...\n      PUSH 40\t\t\trequire(msg.sender == admin, \"...\n      MLOAD \t\t\trequire(msg.sender == admin, \"...\n      PUSH 8C379A000000000000000000000000000000000000000000000000000000000\t\t\trequire(msg.sender == admin, \"...\n      DUP2 \t\t\trequire(msg.sender == admin, \"...\n      MSTORE \t\t\trequire(msg.sender == admin, \"...\n      PUSH 4\t\t\trequire(msg.sender == admin, \"...\n      ADD \t\t\trequire(msg.sender == admin, \"...\n      PUSH [tag] 528\t\t\trequire(msg.sender == admin, \"...\n      SWAP1 \t\t\trequire(msg.sender == admin, \"...\n      PUSH [tag] 182\t\t\trequire(msg.sender == admin, \"...\n      JUMP \t\t\trequire(msg.sender == admin, \"...\n    tag 528\t\t\trequire(msg.sender == admin, \"...\n      JUMPDEST \t\t\trequire(msg.sender == admin, \"...\n      PUSH 40\t\t\trequire(msg.sender == admin, \"...\n      MLOAD \t\t\trequire(msg.sender == admin, \"...\n      DUP1 \t\t\trequire(msg.sender == admin, \"...\n      SWAP2 \t\t\trequire(msg.sender == admin, \"...\n      SUB \t\t\trequire(msg.sender == admin, \"...\n      SWAP1 \t\t\trequire(msg.sender == admin, \"...\n      REVERT \t\t\trequire(msg.sender == admin, \"...\n    tag 527\t\t\trequire(msg.sender == admin, \"...\n      JUMPDEST \t\t\trequire(msg.sender == admin, \"...\n      PUSH [tag] 530\t\t\tactivatedeactivatebank(id_, ma...\n      DUP3 \t\t\tid_\n      DUP3 \t\t\tmakeActive_\n      PUSH [tag] 531\t\t\tactivatedeactivatebank\n      JUMP \t\t\tactivatedeactivatebank(id_, ma...\n    tag 530\t\t\tactivatedeactivatebank(id_, ma...\n      JUMPDEST \t\t\tactivatedeactivatebank(id_, ma...\n      PUSH 6\t\t\tusers\n      PUSH 0\t\t\tusers[id_]\n      DUP5 \t\t\tid_\n      PUSH FFFFFFFFFFFFFFFFFFFFFFFFFFFFFFFFFFFFFFFF\t\t\tusers[id_]\n      AND \t\t\tusers[id_]\n      PUSH FFFFFFFFFFFFFFFFFFFFFFFFFFFFFFFFFFFFFFFF\t\t\tusers[id_]\n      AND \t\t\tusers[id_]\n      DUP2 \t\t\tusers[id_]\n      MSTORE \t\t\tusers[id_]\n      PUSH 20\t\t\tusers[id_]\n      ADD \t\t\tusers[id_]\n      SWAP1 \t\t\tusers[id_]\n      DUP2 \t\t\tusers[id_]\n      MSTORE \t\t\tusers[id_]\n      PUSH 20\t\t\tusers[id_]\n      ADD \t\t\tusers[id_]\n      PUSH 0\t\t\tusers[id_]\n      KECCAK256 \t\t\tusers[id_]\n      PUSH 2\t\t\tusers[id_].status\n      ADD \t\t\tusers[id_].status\n      PUSH 15\t\t\tusers[id_].status\n      PUSH 100\t\t\tusers[id_].status = activatede...\n      EXP \t\t\tusers[id_].status = activatede...\n      DUP2 \t\t\tusers[id_].status = activatede...\n      SLOAD \t\t\tusers[id_].status = activatede...\n      DUP2 \t\t\tusers[id_].status = activatede...\n      PUSH FF\t\t\tusers[id_].status = activatede...\n      MUL \t\t\tusers[id_].status = activatede...\n      NOT \t\t\tusers[id_].status = activatede...\n      AND \t\t\tusers[id_].status = activatede...\n      SWAP1 \t\t\tusers[id_].status = activatede...\n      DUP4 \t\t\tusers[id_].status = activatede...\n      PUSH 1\t\t\tusers[id_].status = activatede...\n      DUP2 \t\t\tusers[id_].status = activatede...\n      GT \t\t\tusers[id_].status = activatede...\n      ISZERO \t\t\tusers[id_].status = activatede...\n      PUSH [tag] 532\t\t\tusers[id_].status = activatede...\n      JUMPI \t\t\tusers[id_].status = activatede...\n      PUSH [tag] 533\t\t\tusers[id_].status = activatede...\n      PUSH [tag] 135\t\t\tusers[id_].status = activatede...\n      JUMP \t\t\tusers[id_].status = activatede...\n    tag 533\t\t\tusers[id_].status = activatede...\n      JUMPDEST \t\t\tusers[id_].status = activatede...\n    tag 532\t\t\tusers[id_].status = activatede...\n      JUMPDEST \t\t\tusers[id_].status = activatede...\n      MUL \t\t\tusers[id_].status = activatede...\n      OR \t\t\tusers[id_].status = activatede...\n      SWAP1 \t\t\tusers[id_].status = activatede...\n      SSTORE \t\t\tusers[id_].status = activatede...\n      POP \t\t\tusers[id_].status = activatede...\n      POP \t\t\tfunction activateDeactivateBan...\n      POP \t\t\tfunction activateDeactivateBan...\n      JUMP \t\t\tfunction activateDeactivateBan...\n    tag 88\t\t\tfunction getCustomersOfBank(ui...\n      JUMPDEST \t\t\tfunction getCustomersOfBank(ui...\n      PUSH 0\t\t\tuint256 totalPages\n      PUSH 60\t\t\tTypes.KycRequest[] memory\n      CALLER \t\t\tmsg.sender\n      PUSH 0\t\t\t \n      PUSH FFFFFFFFFFFFFFFFFFFFFFFFFFFFFFFFFFFFFFFF\t\t\tn);\\r\\n    }\\r\\n\\r\\n    modifi...\n      AND \t\t\tn);\\r\\n    }\\r\\n\\r\\n    modifi...\n      PUSH 3\t\t\tn);\\r\\n\n      PUSH 0\t\t\tn);\\r\\n    }\n      DUP4 \t\t\t   \n      PUSH FFFFFFFFFFFFFFFFFFFFFFFFFFFFFFFFFFFFFFFF\t\t\tn);\\r\\n    }\n      AND \t\t\tn);\\r\\n    }\n      PUSH FFFFFFFFFFFFFFFFFFFFFFFFFFFFFFFFFFFFFFFF\t\t\tn);\\r\\n    }\n      AND \t\t\tn);\\r\\n    }\n      DUP2 \t\t\tn);\\r\\n    }\n      MSTORE \t\t\tn);\\r\\n    }\n      PUSH 20\t\t\tn);\\r\\n    }\n      ADD \t\t\tn);\\r\\n    }\n      SWAP1 \t\t\tn);\\r\\n    }\n      DUP2 \t\t\tn);\\r\\n    }\n      MSTORE \t\t\tn);\\r\\n    }\n      PUSH 20\t\t\tn);\\r\\n    }\n      ADD \t\t\tn);\\r\\n    }\n      PUSH 0\t\t\tn);\\r\\n    }\n      KECCAK256 \t\t\tn);\\r\\n    }\n      PUSH 2\t\t\tn);\\r\\n    }\\r\\n\\r\\n\n      ADD \t\t\tn);\\r\\n    }\\r\\n\\r\\n\n      PUSH 0\t\t\tn);\\r\\n    }\\r\\n\\r\\n\n      SWAP1 \t\t\tn);\\r\\n    }\\r\\n\\r\\n\n      SLOAD \t\t\tn);\\r\\n    }\\r\\n\\r\\n\n      SWAP1 \t\t\tn);\\r\\n    }\\r\\n\\r\\n\n      PUSH 100\t\t\tn);\\r\\n    }\\r\\n\\r\\n\n      EXP \t\t\tn);\\r\\n    }\\r\\n\\r\\n\n      SWAP1 \t\t\tn);\\r\\n    }\\r\\n\\r\\n\n      DIV \t\t\tn);\\r\\n    }\\r\\n\\r\\n\n      PUSH FFFFFFFFFFFFFFFFFFFFFFFFFFFFFFFFFFFFFFFF\t\t\tn);\\r\\n    }\\r\\n\\r\\n\n      AND \t\t\tn);\\r\\n    }\\r\\n\\r\\n\n      PUSH FFFFFFFFFFFFFFFFFFFFFFFFFFFFFFFFFFFFFFFF\t\t\tn);\\r\\n    }\\r\\n\\r\\n    modifi...\n      AND \t\t\tn);\\r\\n    }\\r\\n\\r\\n    modifi...\n      SUB \t\t\tn);\\r\\n    }\\r\\n\\r\\n    modifi...\n      PUSH [tag] 535\t\t\tush(admin);\\r\\n    }\\r\\n\\r\\n  ...\n      JUMPI \t\t\tush(admin);\\r\\n    }\\r\\n\\r\\n  ...\n      PUSH 40\t\t\tush(admin);\\r\\n    }\\r\\n\\r\\n  ...\n      MLOAD \t\t\tush(admin);\\r\\n    }\\r\\n\\r\\n  ...\n      PUSH 8C379A000000000000000000000000000000000000000000000000000000000\t\t\tush(admin);\\r\\n    }\\r\\n\\r\\n  ...\n      DUP2 \t\t\tush(admin);\\r\\n    }\\r\\n\\r\\n  ...\n      MSTORE \t\t\tush(admin);\\r\\n    }\\r\\n\\r\\n  ...\n      PUSH 4\t\t\tush(admin);\\r\\n    }\\r\\n\\r\\n  ...\n      ADD \t\t\tush(admin);\\r\\n    }\\r\\n\\r\\n  ...\n      PUSH [tag] 536\t\t\tush(admin);\\r\\n    }\\r\\n\\r\\n  ...\n      SWAP1 \t\t\tush(admin);\\r\\n    }\\r\\n\\r\\n  ...\n      PUSH [tag] 130\t\t\tush(admin);\\r\\n    }\\r\\n\\r\\n  ...\n      JUMP \t\t\tush(admin);\\r\\n    }\\r\\n\\r\\n  ...\n    tag 536\t\t\tush(admin);\\r\\n    }\\r\\n\\r\\n  ...\n      JUMPDEST \t\t\tush(admin);\\r\\n    }\\r\\n\\r\\n  ...\n      PUSH 40\t\t\tush(admin);\\r\\n    }\\r\\n\\r\\n  ...\n      MLOAD \t\t\tush(admin);\\r\\n    }\\r\\n\\r\\n  ...\n      DUP1 \t\t\tush(admin);\\r\\n    }\\r\\n\\r\\n  ...\n      SWAP2 \t\t\tush(admin);\\r\\n    }\\r\\n\\r\\n  ...\n      SUB \t\t\tush(admin);\\r\\n    }\\r\\n\\r\\n  ...\n      SWAP1 \t\t\tush(admin);\\r\\n    }\\r\\n\\r\\n  ...\n      REVERT \t\t\tush(admin);\\r\\n    }\\r\\n\\r\\n  ...\n    tag 535\t\t\tush(admin);\\r\\n    }\\r\\n\\r\\n  ...\n      JUMPDEST \t\t\tush(admin);\\r\\n    }\\r\\n\\r\\n  ...\n      DUP1 \t\t\tdmi\n      PUSH FFFFFFFFFFFFFFFFFFFFFFFFFFFFFFFFFFFFFFFF\t\t\t == admin, \"Only admi\n      AND \t\t\t == admin, \"Only admi\n      PUSH 3\t\t\t == a\n      PUSH 0\t\t\t == admin,\n      DUP4 \t\t\tmin\n      PUSH FFFFFFFFFFFFFFFFFFFFFFFFFFFFFFFFFFFFFFFF\t\t\t == admin,\n      AND \t\t\t == admin,\n      PUSH FFFFFFFFFFFFFFFFFFFFFFFFFFFFFFFFFFFFFFFF\t\t\t == admin,\n      AND \t\t\t == admin,\n      DUP2 \t\t\t == admin,\n      MSTORE \t\t\t == admin,\n      PUSH 20\t\t\t == admin,\n      ADD \t\t\t == admin,\n      SWAP1 \t\t\t == admin,\n      DUP2 \t\t\t == admin,\n      MSTORE \t\t\t == admin,\n      PUSH 20\t\t\t == admin,\n      ADD \t\t\t == admin,\n      PUSH 0\t\t\t == admin,\n      KECCAK256 \t\t\t == admin,\n      PUSH 2\t\t\t == admin, \"On\n      ADD \t\t\t == admin, \"On\n      PUSH 0\t\t\t == admin, \"On\n      SWAP1 \t\t\t == admin, \"On\n      SLOAD \t\t\t == admin, \"On\n      SWAP1 \t\t\t == admin, \"On\n      PUSH 100\t\t\t == admin, \"On\n      EXP \t\t\t == admin, \"On\n      SWAP1 \t\t\t == admin, \"On\n      DIV \t\t\t == admin, \"On\n      PUSH FFFFFFFFFFFFFFFFFFFFFFFFFFFFFFFFFFFFFFFF\t\t\t == admin, \"On\n      AND \t\t\t == admin, \"On\n      PUSH FFFFFFFFFFFFFFFFFFFFFFFFFFFFFFFFFFFFFFFF\t\t\t == admin, \"Only admi\n      AND \t\t\t == admin, \"Only admi\n      EQ \t\t\t == admin, \"Only admi\n      PUSH [tag] 537\t\t\tg.sender == admin, \"Only admin...\n      JUMPI \t\t\tg.sender == admin, \"Only admin...\n      PUSH 40\t\t\tg.sender == admin, \"Only admin...\n      MLOAD \t\t\tg.sender == admin, \"Only admin...\n      PUSH 8C379A000000000000000000000000000000000000000000000000000000000\t\t\tg.sender == admin, \"Only admin...\n      DUP2 \t\t\tg.sender == admin, \"Only admin...\n      MSTORE \t\t\tg.sender == admin, \"Only admin...\n      PUSH 4\t\t\tg.sender == admin, \"Only admin...\n      ADD \t\t\tg.sender == admin, \"Only admin...\n      PUSH [tag] 538\t\t\tg.sender == admin, \"Only admin...\n      SWAP1 \t\t\tg.sender == admin, \"Only admin...\n      PUSH [tag] 130\t\t\tg.sender == admin, \"Only admin...\n      JUMP \t\t\tg.sender == admin, \"Only admin...\n    tag 538\t\t\tg.sender == admin, \"Only admin...\n      JUMPDEST \t\t\tg.sender == admin, \"Only admin...\n      PUSH 40\t\t\tg.sender == admin, \"Only admin...\n      MLOAD \t\t\tg.sender == admin, \"Only admin...\n      DUP1 \t\t\tg.sender == admin, \"Only admin...\n      SWAP2 \t\t\tg.sender == admin, \"Only admin...\n      SUB \t\t\tg.sender == admin, \"Only admin...\n      SWAP1 \t\t\tg.sender == admin, \"Only admin...\n      REVERT \t\t\tg.sender == admin, \"Only admin...\n    tag 537\t\t\tg.sender == admin, \"Only admin...\n      JUMPDEST \t\t\tg.sender == admin, \"Only admin...\n      PUSH 0\t\t\tg memory reqId_)\\r\\n     \n      PUSH 1\t\t\tycRequestExists(string memory ...\n      DUP2 \t\t\tycRequestExists(string memory ...\n      GT \t\t\tycRequestExists(string memory ...\n      ISZERO \t\t\tycRequestExists(string memory ...\n      PUSH [tag] 539\t\t\tycRequestExists(string memory ...\n      JUMPI \t\t\tycRequestExists(string memory ...\n      PUSH [tag] 540\t\t\tycRequestExists(string memory ...\n      PUSH [tag] 135\t\t\tycRequestExists(string memory ...\n      JUMP \t\t\tycRequestExists(string memory ...\n    tag 540\t\t\tycRequestExists(string memory ...\n      JUMPDEST \t\t\tycRequestExists(string memory ...\n    tag 539\t\t\tycRequestExists(string memory ...\n      JUMPDEST \t\t\tycRequestExists(string memory ...\n      PUSH 3\t\t\tycReq\n      PUSH 0\t\t\tycRequestE\n      DUP4 \t\t\test\n      PUSH FFFFFFFFFFFFFFFFFFFFFFFFFFFFFFFFFFFFFFFF\t\t\tycRequestE\n      AND \t\t\tycRequestE\n      PUSH FFFFFFFFFFFFFFFFFFFFFFFFFFFFFFFFFFFFFFFF\t\t\tycRequestE\n      AND \t\t\tycRequestE\n      DUP2 \t\t\tycRequestE\n      MSTORE \t\t\tycRequestE\n      PUSH 20\t\t\tycRequestE\n      ADD \t\t\tycRequestE\n      SWAP1 \t\t\tycRequestE\n      DUP2 \t\t\tycRequestE\n      MSTORE \t\t\tycRequestE\n      PUSH 20\t\t\tycRequestE\n      ADD \t\t\tycRequestE\n      PUSH 0\t\t\tycRequestE\n      KECCAK256 \t\t\tycRequestE\n      PUSH 4\t\t\tycRequestExists(s\n      ADD \t\t\tycRequestExists(s\n      PUSH 2\t\t\tycRequestExists(s\n      SWAP1 \t\t\tycRequestExists(s\n      SLOAD \t\t\tycRequestExists(s\n      SWAP1 \t\t\tycRequestExists(s\n      PUSH 100\t\t\tycRequestExists(s\n      EXP \t\t\tycRequestExists(s\n      SWAP1 \t\t\tycRequestExists(s\n      DIV \t\t\tycRequestExists(s\n      PUSH FF\t\t\tycRequestExists(s\n      AND \t\t\tycRequestExists(s\n      PUSH 1\t\t\tycRequestExists(string memory ...\n      DUP2 \t\t\tycRequestExists(string memory ...\n      GT \t\t\tycRequestExists(string memory ...\n      ISZERO \t\t\tycRequestExists(string memory ...\n      PUSH [tag] 541\t\t\tycRequestExists(string memory ...\n      JUMPI \t\t\tycRequestExists(string memory ...\n      PUSH [tag] 542\t\t\tycRequestExists(string memory ...\n      PUSH [tag] 135\t\t\tycRequestExists(string memory ...\n      JUMP \t\t\tycRequestExists(string memory ...\n    tag 542\t\t\tycRequestExists(string memory ...\n      JUMPDEST \t\t\tycRequestExists(string memory ...\n    tag 541\t\t\tycRequestExists(string memory ...\n      JUMPDEST \t\t\tycRequestExists(string memory ...\n      EQ \t\t\tycRequestExists(string memory ...\n      PUSH [tag] 543\t\t\t   }\\r\\n\\r\\n    function kycRe...\n      JUMPI \t\t\t   }\\r\\n\\r\\n    function kycRe...\n      PUSH 40\t\t\t   }\\r\\n\\r\\n    function kycRe...\n      MLOAD \t\t\t   }\\r\\n\\r\\n    function kycRe...\n      PUSH 8C379A000000000000000000000000000000000000000000000000000000000\t\t\t   }\\r\\n\\r\\n    function kycRe...\n      DUP2 \t\t\t   }\\r\\n\\r\\n    function kycRe...\n      MSTORE \t\t\t   }\\r\\n\\r\\n    function kycRe...\n      PUSH 4\t\t\t   }\\r\\n\\r\\n    function kycRe...\n      ADD \t\t\t   }\\r\\n\\r\\n    function kycRe...\n      PUSH [tag] 544\t\t\t   }\\r\\n\\r\\n    function kycRe...\n      SWAP1 \t\t\t   }\\r\\n\\r\\n    function kycRe...\n      PUSH [tag] 140\t\t\t   }\\r\\n\\r\\n    function kycRe...\n      JUMP \t\t\t   }\\r\\n\\r\\n    function kycRe...\n    tag 544\t\t\t   }\\r\\n\\r\\n    function kycRe...\n      JUMPDEST \t\t\t   }\\r\\n\\r\\n    function kycRe...\n      PUSH 40\t\t\t   }\\r\\n\\r\\n    function kycRe...\n      MLOAD \t\t\t   }\\r\\n\\r\\n    function kycRe...\n      DUP1 \t\t\t   }\\r\\n\\r\\n    function kycRe...\n      SWAP2 \t\t\t   }\\r\\n\\r\\n    function kycRe...\n      SUB \t\t\t   }\\r\\n\\r\\n    function kycRe...\n      SWAP1 \t\t\t   }\\r\\n\\r\\n    function kycRe...\n      REVERT \t\t\t   }\\r\\n\\r\\n    function kycRe...\n    tag 543\t\t\t   }\\r\\n\\r\\n    function kycRe...\n      JUMPDEST \t\t\t   }\\r\\n\\r\\n    function kycRe...\n      PUSH [tag] 546\t\t\tgetKYCRequests(pageNumber, tru...\n      DUP5 \t\t\tpageNumber\n      PUSH 1\t\t\ttrue\n      PUSH [tag] 547\t\t\tgetKYCRequests\n      JUMP \t\t\tgetKYCRequests(pageNumber, tru...\n    tag 546\t\t\tgetKYCRequests(pageNumber, tru...\n      JUMPDEST \t\t\tgetKYCRequests(pageNumber, tru...\n      SWAP3 \t\t\treturn getKYCRequests(pageNumb...\n      POP \t\t\treturn getKYCRequests(pageNumb...\n      SWAP3 \t\t\treturn getKYCRequests(pageNumb...\n      POP \t\t\treturn getKYCRequests(pageNumb...\n      POP \t\t\tfunction getCustomersOfBank(ui...\n      SWAP2 \t\t\tfunction getCustomersOfBank(ui...\n      POP \t\t\tfunction getCustomersOfBank(ui...\n      SWAP2 \t\t\tfunction getCustomersOfBank(ui...\n      JUMP \t\t\tfunction getCustomersOfBank(ui...\n    tag 92\t\t\tfunction whoAmI() public view ...\n      JUMPDEST \t\t\tfunction whoAmI() public view ...\n      PUSH [tag] 548\t\t\tTypes.User memory\n      PUSH [tag] 549\t\t\tTypes.User memory\n      JUMP \t\t\tTypes.User memory\n    tag 548\t\t\tTypes.User memory\n      JUMPDEST \t\t\tTypes.User memory\n      PUSH 0\t\t\t0\n      PUSH FFFFFFFFFFFFFFFFFFFFFFFFFFFFFFFFFFFFFFFF\t\t\tmsg.sender != address(0)\n      AND \t\t\tmsg.sender != address(0)\n      CALLER \t\t\tmsg.sender\n      PUSH FFFFFFFFFFFFFFFFFFFFFFFFFFFFFFFFFFFFFFFF\t\t\tmsg.sender != address(0)\n      AND \t\t\tmsg.sender != address(0)\n      SUB \t\t\tmsg.sender != address(0)\n      PUSH [tag] 551\t\t\trequire(msg.sender != address(...\n      JUMPI \t\t\trequire(msg.sender != address(...\n      PUSH 40\t\t\trequire(msg.sender != address(...\n      MLOAD \t\t\trequire(msg.sender != address(...\n      PUSH 8C379A000000000000000000000000000000000000000000000000000000000\t\t\trequire(msg.sender != address(...\n      DUP2 \t\t\trequire(msg.sender != address(...\n      MSTORE \t\t\trequire(msg.sender != address(...\n      PUSH 4\t\t\trequire(msg.sender != address(...\n      ADD \t\t\trequire(msg.sender != address(...\n      PUSH [tag] 552\t\t\trequire(msg.sender != address(...\n      SWAP1 \t\t\trequire(msg.sender != address(...\n      PUSH [tag] 553\t\t\trequire(msg.sender != address(...\n      JUMP \t\t\trequire(msg.sender != address(...\n    tag 552\t\t\trequire(msg.sender != address(...\n      JUMPDEST \t\t\trequire(msg.sender != address(...\n      PUSH 40\t\t\trequire(msg.sender != address(...\n      MLOAD \t\t\trequire(msg.sender != address(...\n      DUP1 \t\t\trequire(msg.sender != address(...\n      SWAP2 \t\t\trequire(msg.sender != address(...\n      SUB \t\t\trequire(msg.sender != address(...\n      SWAP1 \t\t\trequire(msg.sender != address(...\n      REVERT \t\t\trequire(msg.sender != address(...\n    tag 551\t\t\trequire(msg.sender != address(...\n      JUMPDEST \t\t\trequire(msg.sender != address(...\n      PUSH 0\t\t\t0\n      PUSH FFFFFFFFFFFFFFFFFFFFFFFFFFFFFFFFFFFFFFFF\t\t\tusers[msg.sender].id_ != addre...\n      AND \t\t\tusers[msg.sender].id_ != addre...\n      PUSH 6\t\t\tusers\n      PUSH 0\t\t\tusers[msg.sender]\n      CALLER \t\t\tmsg.sender\n      PUSH FFFFFFFFFFFFFFFFFFFFFFFFFFFFFFFFFFFFFFFF\t\t\tusers[msg.sender]\n      AND \t\t\tusers[msg.sender]\n      PUSH FFFFFFFFFFFFFFFFFFFFFFFFFFFFFFFFFFFFFFFF\t\t\tusers[msg.sender]\n      AND \t\t\tusers[msg.sender]\n      DUP2 \t\t\tusers[msg.sender]\n      MSTORE \t\t\tusers[msg.sender]\n      PUSH 20\t\t\tusers[msg.sender]\n      ADD \t\t\tusers[msg.sender]\n      SWAP1 \t\t\tusers[msg.sender]\n      DUP2 \t\t\tusers[msg.sender]\n      MSTORE \t\t\tusers[msg.sender]\n      PUSH 20\t\t\tusers[msg.sender]\n      ADD \t\t\tusers[msg.sender]\n      PUSH 0\t\t\tusers[msg.sender]\n      KECCAK256 \t\t\tusers[msg.sender]\n      PUSH 2\t\t\tusers[msg.sender].id_\n      ADD \t\t\tusers[msg.sender].id_\n      PUSH 0\t\t\tusers[msg.sender].id_\n      SWAP1 \t\t\tusers[msg.sender].id_\n      SLOAD \t\t\tusers[msg.sender].id_\n      SWAP1 \t\t\tusers[msg.sender].id_\n      PUSH 100\t\t\tusers[msg.sender].id_\n      EXP \t\t\tusers[msg.sender].id_\n      SWAP1 \t\t\tusers[msg.sender].id_\n      DIV \t\t\tusers[msg.sender].id_\n      PUSH FFFFFFFFFFFFFFFFFFFFFFFFFFFFFFFFFFFFFFFF\t\t\tusers[msg.sender].id_\n      AND \t\t\tusers[msg.sender].id_\n      PUSH FFFFFFFFFFFFFFFFFFFFFFFFFFFFFFFFFFFFFFFF\t\t\tusers[msg.sender].id_ != addre...\n      AND \t\t\tusers[msg.sender].id_ != addre...\n      SUB \t\t\tusers[msg.sender].id_ != addre...\n      PUSH [tag] 554\t\t\trequire(users[msg.sender].id_ ...\n      JUMPI \t\t\trequire(users[msg.sender].id_ ...\n      PUSH 40\t\t\trequire(users[msg.sender].id_ ...\n      MLOAD \t\t\trequire(users[msg.sender].id_ ...\n      PUSH 8C379A000000000000000000000000000000000000000000000000000000000\t\t\trequire(users[msg.sender].id_ ...\n      DUP2 \t\t\trequire(users[msg.sender].id_ ...\n      MSTORE \t\t\trequire(users[msg.sender].id_ ...\n      PUSH 4\t\t\trequire(users[msg.sender].id_ ...\n      ADD \t\t\trequire(users[msg.sender].id_ ...\n      PUSH [tag] 555\t\t\trequire(users[msg.sender].id_ ...\n      SWAP1 \t\t\trequire(users[msg.sender].id_ ...\n      PUSH [tag] 110\t\t\trequire(users[msg.sender].id_ ...\n      JUMP \t\t\trequire(users[msg.sender].id_ ...\n    tag 555\t\t\trequire(users[msg.sender].id_ ...\n      JUMPDEST \t\t\trequire(users[msg.sender].id_ ...\n      PUSH 40\t\t\trequire(users[msg.sender].id_ ...\n      MLOAD \t\t\trequire(users[msg.sender].id_ ...\n      DUP1 \t\t\trequire(users[msg.sender].id_ ...\n      SWAP2 \t\t\trequire(users[msg.sender].id_ ...\n      SUB \t\t\trequire(users[msg.sender].id_ ...\n      SWAP1 \t\t\trequire(users[msg.sender].id_ ...\n      REVERT \t\t\trequire(users[msg.sender].id_ ...\n    tag 554\t\t\trequire(users[msg.sender].id_ ...\n      JUMPDEST \t\t\trequire(users[msg.sender].id_ ...\n      PUSH 6\t\t\tusers\n      PUSH 0\t\t\tusers[msg.sender]\n      CALLER \t\t\tmsg.sender\n      PUSH FFFFFFFFFFFFFFFFFFFFFFFFFFFFFFFFFFFFFFFF\t\t\tusers[msg.sender]\n      AND \t\t\tusers[msg.sender]\n      PUSH FFFFFFFFFFFFFFFFFFFFFFFFFFFFFFFFFFFFFFFF\t\t\tusers[msg.sender]\n      AND \t\t\tusers[msg.sender]\n      DUP2 \t\t\tusers[msg.sender]\n      MSTORE \t\t\tusers[msg.sender]\n      PUSH 20\t\t\tusers[msg.sender]\n      ADD \t\t\tusers[msg.sender]\n      SWAP1 \t\t\tusers[msg.sender]\n      DUP2 \t\t\tusers[msg.sender]\n      MSTORE \t\t\tusers[msg.sender]\n      PUSH 20\t\t\tusers[msg.sender]\n      ADD \t\t\tusers[msg.sender]\n      PUSH 0\t\t\tusers[msg.sender]\n      KECCAK256 \t\t\tusers[msg.sender]\n      PUSH 40\t\t\treturn users[msg.sender]\n      MLOAD \t\t\treturn users[msg.sender]\n      DUP1 \t\t\treturn users[msg.sender]\n      PUSH A0\t\t\treturn users[msg.sender]\n      ADD \t\t\treturn users[msg.sender]\n      PUSH 40\t\t\treturn users[msg.sender]\n      MSTORE \t\t\treturn users[msg.sender]\n      SWAP1 \t\t\treturn users[msg.sender]\n      DUP2 \t\t\treturn users[msg.sender]\n      PUSH 0\t\t\treturn users[msg.sender]\n      DUP3 \t\t\treturn users[msg.sender]\n      ADD \t\t\treturn users[msg.sender]\n      DUP1 \t\t\treturn users[msg.sender]\n      SLOAD \t\t\treturn users[msg.sender]\n      PUSH [tag] 556\t\t\treturn users[msg.sender]\n      SWAP1 \t\t\treturn users[msg.sender]\n      PUSH [tag] 113\t\t\treturn users[msg.sender]\n      JUMP \t\t\treturn users[msg.sender]\n    tag 556\t\t\treturn users[msg.sender]\n      JUMPDEST \t\t\treturn users[msg.sender]\n      DUP1 \t\t\treturn users[msg.sender]\n      PUSH 1F\t\t\treturn users[msg.sender]\n      ADD \t\t\treturn users[msg.sender]\n      PUSH 20\t\t\treturn users[msg.sender]\n      DUP1 \t\t\treturn users[msg.sender]\n      SWAP2 \t\t\treturn users[msg.sender]\n      DIV \t\t\treturn users[msg.sender]\n      MUL \t\t\treturn users[msg.sender]\n      PUSH 20\t\t\treturn users[msg.sender]\n      ADD \t\t\treturn users[msg.sender]\n      PUSH 40\t\t\treturn users[msg.sender]\n      MLOAD \t\t\treturn users[msg.sender]\n      SWAP1 \t\t\treturn users[msg.sender]\n      DUP2 \t\t\treturn users[msg.sender]\n      ADD \t\t\treturn users[msg.sender]\n      PUSH 40\t\t\treturn users[msg.sender]\n      MSTORE \t\t\treturn users[msg.sender]\n      DUP1 \t\t\treturn users[msg.sender]\n      SWAP3 \t\t\treturn users[msg.sender]\n      SWAP2 \t\t\treturn users[msg.sender]\n      SWAP1 \t\t\treturn users[msg.sender]\n      DUP2 \t\t\treturn users[msg.sender]\n      DUP2 \t\t\treturn users[msg.sender]\n      MSTORE \t\t\treturn users[msg.sender]\n      PUSH 20\t\t\treturn users[msg.sender]\n      ADD \t\t\treturn users[msg.sender]\n      DUP3 \t\t\treturn users[msg.sender]\n      DUP1 \t\t\treturn users[msg.sender]\n      SLOAD \t\t\treturn users[msg.sender]\n      PUSH [tag] 557\t\t\treturn users[msg.sender]\n      SWAP1 \t\t\treturn users[msg.sender]\n      PUSH [tag] 113\t\t\treturn users[msg.sender]\n      JUMP \t\t\treturn users[msg.sender]\n    tag 557\t\t\treturn users[msg.sender]\n      JUMPDEST \t\t\treturn users[msg.sender]\n      DUP1 \t\t\treturn users[msg.sender]\n      ISZERO \t\t\treturn users[msg.sender]\n      PUSH [tag] 558\t\t\treturn users[msg.sender]\n      JUMPI \t\t\treturn users[msg.sender]\n      DUP1 \t\t\treturn users[msg.sender]\n      PUSH 1F\t\t\treturn users[msg.sender]\n      LT \t\t\treturn users[msg.sender]\n      PUSH [tag] 559\t\t\treturn users[msg.sender]\n      JUMPI \t\t\treturn users[msg.sender]\n      PUSH 100\t\t\treturn users[msg.sender]\n      DUP1 \t\t\treturn users[msg.sender]\n      DUP4 \t\t\treturn users[msg.sender]\n      SLOAD \t\t\treturn users[msg.sender]\n      DIV \t\t\treturn users[msg.sender]\n      MUL \t\t\treturn users[msg.sender]\n      DUP4 \t\t\treturn users[msg.sender]\n      MSTORE \t\t\treturn users[msg.sender]\n      SWAP2 \t\t\treturn users[msg.sender]\n      PUSH 20\t\t\treturn users[msg.sender]\n      ADD \t\t\treturn users[msg.sender]\n      SWAP2 \t\t\treturn users[msg.sender]\n      PUSH [tag] 558\t\t\treturn users[msg.sender]\n      JUMP \t\t\treturn users[msg.sender]\n    tag 559\t\t\treturn users[msg.sender]\n      JUMPDEST \t\t\treturn users[msg.sender]\n      DUP3 \t\t\treturn users[msg.sender]\n      ADD \t\t\treturn users[msg.sender]\n      SWAP2 \t\t\treturn users[msg.sender]\n      SWAP1 \t\t\treturn users[msg.sender]\n      PUSH 0\t\t\treturn users[msg.sender]\n      MSTORE \t\t\treturn users[msg.sender]\n      PUSH 20\t\t\treturn users[msg.sender]\n      PUSH 0\t\t\treturn users[msg.sender]\n      KECCAK256 \t\t\treturn users[msg.sender]\n      SWAP1 \t\t\treturn users[msg.sender]\n    tag 560\t\t\treturn users[msg.sender]\n      JUMPDEST \t\t\treturn users[msg.sender]\n      DUP2 \t\t\treturn users[msg.sender]\n      SLOAD \t\t\treturn users[msg.sender]\n      DUP2 \t\t\treturn users[msg.sender]\n      MSTORE \t\t\treturn users[msg.sender]\n      SWAP1 \t\t\treturn users[msg.sender]\n      PUSH 1\t\t\treturn users[msg.sender]\n      ADD \t\t\treturn users[msg.sender]\n      SWAP1 \t\t\treturn users[msg.sender]\n      PUSH 20\t\t\treturn users[msg.sender]\n      ADD \t\t\treturn users[msg.sender]\n      DUP1 \t\t\treturn users[msg.sender]\n      DUP4 \t\t\treturn users[msg.sender]\n      GT \t\t\treturn users[msg.sender]\n      PUSH [tag] 560\t\t\treturn users[msg.sender]\n      JUMPI \t\t\treturn users[msg.sender]\n      DUP3 \t\t\treturn users[msg.sender]\n      SWAP1 \t\t\treturn users[msg.sender]\n      SUB \t\t\treturn users[msg.sender]\n      PUSH 1F\t\t\treturn users[msg.sender]\n      AND \t\t\treturn users[msg.sender]\n      DUP3 \t\t\treturn users[msg.sender]\n      ADD \t\t\treturn users[msg.sender]\n      SWAP2 \t\t\treturn users[msg.sender]\n    tag 558\t\t\treturn users[msg.sender]\n      JUMPDEST \t\t\treturn users[msg.sender]\n      POP \t\t\treturn users[msg.sender]\n      POP \t\t\treturn users[msg.sender]\n      POP \t\t\treturn users[msg.sender]\n      POP \t\t\treturn users[msg.sender]\n      POP \t\t\treturn users[msg.sender]\n      DUP2 \t\t\treturn users[msg.sender]\n      MSTORE \t\t\treturn users[msg.sender]\n      PUSH 20\t\t\treturn users[msg.sender]\n      ADD \t\t\treturn users[msg.sender]\n      PUSH 1\t\t\treturn users[msg.sender]\n      DUP3 \t\t\treturn users[msg.sender]\n      ADD \t\t\treturn users[msg.sender]\n      DUP1 \t\t\treturn users[msg.sender]\n      SLOAD \t\t\treturn users[msg.sender]\n      PUSH [tag] 561\t\t\treturn users[msg.sender]\n      SWAP1 \t\t\treturn users[msg.sender]\n      PUSH [tag] 113\t\t\treturn users[msg.sender]\n      JUMP \t\t\treturn users[msg.sender]\n    tag 561\t\t\treturn users[msg.sender]\n      JUMPDEST \t\t\treturn users[msg.sender]\n      DUP1 \t\t\treturn users[msg.sender]\n      PUSH 1F\t\t\treturn users[msg.sender]\n      ADD \t\t\treturn users[msg.sender]\n      PUSH 20\t\t\treturn users[msg.sender]\n      DUP1 \t\t\treturn users[msg.sender]\n      SWAP2 \t\t\treturn users[msg.sender]\n      DIV \t\t\treturn users[msg.sender]\n      MUL \t\t\treturn users[msg.sender]\n      PUSH 20\t\t\treturn users[msg.sender]\n      ADD \t\t\treturn users[msg.sender]\n      PUSH 40\t\t\treturn users[msg.sender]\n      MLOAD \t\t\treturn users[msg.sender]\n      SWAP1 \t\t\treturn users[msg.sender]\n      DUP2 \t\t\treturn users[msg.sender]\n      ADD \t\t\treturn users[msg.sender]\n      PUSH 40\t\t\treturn users[msg.sender]\n      MSTORE \t\t\treturn users[msg.sender]\n      DUP1 \t\t\treturn users[msg.sender]\n      SWAP3 \t\t\treturn users[msg.sender]\n      SWAP2 \t\t\treturn users[msg.sender]\n      SWAP1 \t\t\treturn users[msg.sender]\n      DUP2 \t\t\treturn users[msg.sender]\n      DUP2 \t\t\treturn users[msg.sender]\n      MSTORE \t\t\treturn users[msg.sender]\n      PUSH 20\t\t\treturn users[msg.sender]\n      ADD \t\t\treturn users[msg.sender]\n      DUP3 \t\t\treturn users[msg.sender]\n      DUP1 \t\t\treturn users[msg.sender]\n      SLOAD \t\t\treturn users[msg.sender]\n      PUSH [tag] 562\t\t\treturn users[msg.sender]\n      SWAP1 \t\t\treturn users[msg.sender]\n      PUSH [tag] 113\t\t\treturn users[msg.sender]\n      JUMP \t\t\treturn users[msg.sender]\n    tag 562\t\t\treturn users[msg.sender]\n      JUMPDEST \t\t\treturn users[msg.sender]\n      DUP1 \t\t\treturn users[msg.sender]\n      ISZERO \t\t\treturn users[msg.sender]\n      PUSH [tag] 563\t\t\treturn users[msg.sender]\n      JUMPI \t\t\treturn users[msg.sender]\n      DUP1 \t\t\treturn users[msg.sender]\n      PUSH 1F\t\t\treturn users[msg.sender]\n      LT \t\t\treturn users[msg.sender]\n      PUSH [tag] 564\t\t\treturn users[msg.sender]\n      JUMPI \t\t\treturn users[msg.sender]\n      PUSH 100\t\t\treturn users[msg.sender]\n      DUP1 \t\t\treturn users[msg.sender]\n      DUP4 \t\t\treturn users[msg.sender]\n      SLOAD \t\t\treturn users[msg.sender]\n      DIV \t\t\treturn users[msg.sender]\n      MUL \t\t\treturn users[msg.sender]\n      DUP4 \t\t\treturn users[msg.sender]\n      MSTORE \t\t\treturn users[msg.sender]\n      SWAP2 \t\t\treturn users[msg.sender]\n      PUSH 20\t\t\treturn users[msg.sender]\n      ADD \t\t\treturn users[msg.sender]\n      SWAP2 \t\t\treturn users[msg.sender]\n      PUSH [tag] 563\t\t\treturn users[msg.sender]\n      JUMP \t\t\treturn users[msg.sender]\n    tag 564\t\t\treturn users[msg.sender]\n      JUMPDEST \t\t\treturn users[msg.sender]\n      DUP3 \t\t\treturn users[msg.sender]\n      ADD \t\t\treturn users[msg.sender]\n      SWAP2 \t\t\treturn users[msg.sender]\n      SWAP1 \t\t\treturn users[msg.sender]\n      PUSH 0\t\t\treturn users[msg.sender]\n      MSTORE \t\t\treturn users[msg.sender]\n      PUSH 20\t\t\treturn users[msg.sender]\n      PUSH 0\t\t\treturn users[msg.sender]\n      KECCAK256 \t\t\treturn users[msg.sender]\n      SWAP1 \t\t\treturn users[msg.sender]\n    tag 565\t\t\treturn users[msg.sender]\n      JUMPDEST \t\t\treturn users[msg.sender]\n      DUP2 \t\t\treturn users[msg.sender]\n      SLOAD \t\t\treturn users[msg.sender]\n      DUP2 \t\t\treturn users[msg.sender]\n      MSTORE \t\t\treturn users[msg.sender]\n      SWAP1 \t\t\treturn users[msg.sender]\n      PUSH 1\t\t\treturn users[msg.sender]\n      ADD \t\t\treturn users[msg.sender]\n      SWAP1 \t\t\treturn users[msg.sender]\n      PUSH 20\t\t\treturn users[msg.sender]\n      ADD \t\t\treturn users[msg.sender]\n      DUP1 \t\t\treturn users[msg.sender]\n      DUP4 \t\t\treturn users[msg.sender]\n      GT \t\t\treturn users[msg.sender]\n      PUSH [tag] 565\t\t\treturn users[msg.sender]\n      JUMPI \t\t\treturn users[msg.sender]\n      DUP3 \t\t\treturn users[msg.sender]\n      SWAP1 \t\t\treturn users[msg.sender]\n      SUB \t\t\treturn users[msg.sender]\n      PUSH 1F\t\t\treturn users[msg.sender]\n      AND \t\t\treturn users[msg.sender]\n      DUP3 \t\t\treturn users[msg.sender]\n      ADD \t\t\treturn users[msg.sender]\n      SWAP2 \t\t\treturn users[msg.sender]\n    tag 563\t\t\treturn users[msg.sender]\n      JUMPDEST \t\t\treturn users[msg.sender]\n      POP \t\t\treturn users[msg.sender]\n      POP \t\t\treturn users[msg.sender]\n      POP \t\t\treturn users[msg.sender]\n      POP \t\t\treturn users[msg.sender]\n      POP \t\t\treturn users[msg.sender]\n      DUP2 \t\t\treturn users[msg.sender]\n      MSTORE \t\t\treturn users[msg.sender]\n      PUSH 20\t\t\treturn users[msg.sender]\n      ADD \t\t\treturn users[msg.sender]\n      PUSH 2\t\t\treturn users[msg.sender]\n      DUP3 \t\t\treturn users[msg.sender]\n      ADD \t\t\treturn users[msg.sender]\n      PUSH 0\t\t\treturn users[msg.sender]\n      SWAP1 \t\t\treturn users[msg.sender]\n      SLOAD \t\t\treturn users[msg.sender]\n      SWAP1 \t\t\treturn users[msg.sender]\n      PUSH 100\t\t\treturn users[msg.sender]\n      EXP \t\t\treturn users[msg.sender]\n      SWAP1 \t\t\treturn users[msg.sender]\n      DIV \t\t\treturn users[msg.sender]\n      PUSH FFFFFFFFFFFFFFFFFFFFFFFFFFFFFFFFFFFFFFFF\t\t\treturn users[msg.sender]\n      AND \t\t\treturn users[msg.sender]\n      PUSH FFFFFFFFFFFFFFFFFFFFFFFFFFFFFFFFFFFFFFFF\t\t\treturn users[msg.sender]\n      AND \t\t\treturn users[msg.sender]\n      PUSH FFFFFFFFFFFFFFFFFFFFFFFFFFFFFFFFFFFFFFFF\t\t\treturn users[msg.sender]\n      AND \t\t\treturn users[msg.sender]\n      DUP2 \t\t\treturn users[msg.sender]\n      MSTORE \t\t\treturn users[msg.sender]\n      PUSH 20\t\t\treturn users[msg.sender]\n      ADD \t\t\treturn users[msg.sender]\n      PUSH 2\t\t\treturn users[msg.sender]\n      DUP3 \t\t\treturn users[msg.sender]\n      ADD \t\t\treturn users[msg.sender]\n      PUSH 14\t\t\treturn users[msg.sender]\n      SWAP1 \t\t\treturn users[msg.sender]\n      SLOAD \t\t\treturn users[msg.sender]\n      SWAP1 \t\t\treturn users[msg.sender]\n      PUSH 100\t\t\treturn users[msg.sender]\n      EXP \t\t\treturn users[msg.sender]\n      SWAP1 \t\t\treturn users[msg.sender]\n      DIV \t\t\treturn users[msg.sender]\n      PUSH FF\t\t\treturn users[msg.sender]\n      AND \t\t\treturn users[msg.sender]\n      PUSH 2\t\t\treturn users[msg.sender]\n      DUP2 \t\t\treturn users[msg.sender]\n      GT \t\t\treturn users[msg.sender]\n      ISZERO \t\t\treturn users[msg.sender]\n      PUSH [tag] 566\t\t\treturn users[msg.sender]\n      JUMPI \t\t\treturn users[msg.sender]\n      PUSH [tag] 567\t\t\treturn users[msg.sender]\n      PUSH [tag] 135\t\t\treturn users[msg.sender]\n      JUMP \t\t\treturn users[msg.sender]\n    tag 567\t\t\treturn users[msg.sender]\n      JUMPDEST \t\t\treturn users[msg.sender]\n    tag 566\t\t\treturn users[msg.sender]\n      JUMPDEST \t\t\treturn users[msg.sender]\n      PUSH 2\t\t\treturn users[msg.sender]\n      DUP2 \t\t\treturn users[msg.sender]\n      GT \t\t\treturn users[msg.sender]\n      ISZERO \t\t\treturn users[msg.sender]\n      PUSH [tag] 568\t\t\treturn users[msg.sender]\n      JUMPI \t\t\treturn users[msg.sender]\n      PUSH [tag] 569\t\t\treturn users[msg.sender]\n      PUSH [tag] 135\t\t\treturn users[msg.sender]\n      JUMP \t\t\treturn users[msg.sender]\n    tag 569\t\t\treturn users[msg.sender]\n      JUMPDEST \t\t\treturn users[msg.sender]\n    tag 568\t\t\treturn users[msg.sender]\n      JUMPDEST \t\t\treturn users[msg.sender]\n      DUP2 \t\t\treturn users[msg.sender]\n      MSTORE \t\t\treturn users[msg.sender]\n      PUSH 20\t\t\treturn users[msg.sender]\n      ADD \t\t\treturn users[msg.sender]\n      PUSH 2\t\t\treturn users[msg.sender]\n      DUP3 \t\t\treturn users[msg.sender]\n      ADD \t\t\treturn users[msg.sender]\n      PUSH 15\t\t\treturn users[msg.sender]\n      SWAP1 \t\t\treturn users[msg.sender]\n      SLOAD \t\t\treturn users[msg.sender]\n      SWAP1 \t\t\treturn users[msg.sender]\n      PUSH 100\t\t\treturn users[msg.sender]\n      EXP \t\t\treturn users[msg.sender]\n      SWAP1 \t\t\treturn users[msg.sender]\n      DIV \t\t\treturn users[msg.sender]\n      PUSH FF\t\t\treturn users[msg.sender]\n      AND \t\t\treturn users[msg.sender]\n      PUSH 1\t\t\treturn users[msg.sender]\n      DUP2 \t\t\treturn users[msg.sender]\n      GT \t\t\treturn users[msg.sender]\n      ISZERO \t\t\treturn users[msg.sender]\n      PUSH [tag] 570\t\t\treturn users[msg.sender]\n      JUMPI \t\t\treturn users[msg.sender]\n      PUSH [tag] 571\t\t\treturn users[msg.sender]\n      PUSH [tag] 135\t\t\treturn users[msg.sender]\n      JUMP \t\t\treturn users[msg.sender]\n    tag 571\t\t\treturn users[msg.sender]\n      JUMPDEST \t\t\treturn users[msg.sender]\n    tag 570\t\t\treturn users[msg.sender]\n      JUMPDEST \t\t\treturn users[msg.sender]\n      PUSH 1\t\t\treturn users[msg.sender]\n      DUP2 \t\t\treturn users[msg.sender]\n      GT \t\t\treturn users[msg.sender]\n      ISZERO \t\t\treturn users[msg.sender]\n      PUSH [tag] 572\t\t\treturn users[msg.sender]\n      JUMPI \t\t\treturn users[msg.sender]\n      PUSH [tag] 573\t\t\treturn users[msg.sender]\n      PUSH [tag] 135\t\t\treturn users[msg.sender]\n      JUMP \t\t\treturn users[msg.sender]\n    tag 573\t\t\treturn users[msg.sender]\n      JUMPDEST \t\t\treturn users[msg.sender]\n    tag 572\t\t\treturn users[msg.sender]\n      JUMPDEST \t\t\treturn users[msg.sender]\n      DUP2 \t\t\treturn users[msg.sender]\n      MSTORE \t\t\treturn users[msg.sender]\n      POP \t\t\treturn users[msg.sender]\n      POP \t\t\treturn users[msg.sender]\n      SWAP1 \t\t\treturn users[msg.sender]\n      POP \t\t\treturn users[msg.sender]\n      SWAP1 \t\t\tfunction whoAmI() public view ...\n      JUMP \t\t\tfunction whoAmI() public view ...\n    tag 97\t\t\tfunction getBankRequests(uint2...\n      JUMPDEST \t\t\tfunction getBankRequests(uint2...\n      PUSH 0\t\t\tuint256 totalPages\n      PUSH 60\t\t\tTypes.KycRequest[] memory\n      CALLER \t\t\tmsg.sender\n      PUSH 0\t\t\tr\n      PUSH FFFFFFFFFFFFFFFFFFFFFFFFFFFFFFFFFFFFFFFF\t\t\t_;\\r\\n        userL\n      AND \t\t\t_;\\r\\n        userL\n      DUP2 \t\t\t_;\\r\n      PUSH FFFFFFFFFFFFFFFFFFFFFFFFFFFFFFFFFFFFFFFF\t\t\t_;\\r\\n        userL\n      AND \t\t\t_;\\r\\n        userL\n      SUB \t\t\t_;\\r\\n        userL\n      PUSH [tag] 575\t\t\tn] = usr_;\\r\\n        userList...\n      JUMPI \t\t\tn] = usr_;\\r\\n        userList...\n      PUSH 40\t\t\tn] = usr_;\\r\\n        userList...\n      MLOAD \t\t\tn] = usr_;\\r\\n        userList...\n      PUSH 8C379A000000000000000000000000000000000000000000000000000000000\t\t\tn] = usr_;\\r\\n        userList...\n      DUP2 \t\t\tn] = usr_;\\r\\n        userList...\n      MSTORE \t\t\tn] = usr_;\\r\\n        userList...\n      PUSH 4\t\t\tn] = usr_;\\r\\n        userList...\n      ADD \t\t\tn] = usr_;\\r\\n        userList...\n      PUSH [tag] 576\t\t\tn] = usr_;\\r\\n        userList...\n      SWAP1 \t\t\tn] = usr_;\\r\\n        userList...\n      PUSH [tag] 107\t\t\tn] = usr_;\\r\\n        userList...\n      JUMP \t\t\tn] = usr_;\\r\\n        userList...\n    tag 576\t\t\tn] = usr_;\\r\\n        userList...\n      JUMPDEST \t\t\tn] = usr_;\\r\\n        userList...\n      PUSH 40\t\t\tn] = usr_;\\r\\n        userList...\n      MLOAD \t\t\tn] = usr_;\\r\\n        userList...\n      DUP1 \t\t\tn] = usr_;\\r\\n        userList...\n      SWAP2 \t\t\tn] = usr_;\\r\\n        userList...\n      SUB \t\t\tn] = usr_;\\r\\n        userList...\n      SWAP1 \t\t\tn] = usr_;\\r\\n        userList...\n      REVERT \t\t\tn] = usr_;\\r\\n        userList...\n    tag 575\t\t\tn] = usr_;\\r\\n        userList...\n      JUMPDEST \t\t\tn] = usr_;\\r\\n        userList...\n      PUSH 0\t\t\ti\n      PUSH FFFFFFFFFFFFFFFFFFFFFFFFFFFFFFFFFFFFFFFF\t\t\tfier isAdmin() {\\r\\n        re...\n      AND \t\t\tfier isAdmin() {\\r\\n        re...\n      PUSH 1\t\t\tfier isAd\n      PUSH 0\t\t\tfier isAdmin()\n      DUP4 \t\t\tin(\n      PUSH FFFFFFFFFFFFFFFFFFFFFFFFFFFFFFFFFFFFFFFF\t\t\tfier isAdmin()\n      AND \t\t\tfier isAdmin()\n      PUSH FFFFFFFFFFFFFFFFFFFFFFFFFFFFFFFFFFFFFFFF\t\t\tfier isAdmin()\n      AND \t\t\tfier isAdmin()\n      DUP2 \t\t\tfier isAdmin()\n      MSTORE \t\t\tfier isAdmin()\n      PUSH 20\t\t\tfier isAdmin()\n      ADD \t\t\tfier isAdmin()\n      SWAP1 \t\t\tfier isAdmin()\n      DUP2 \t\t\tfier isAdmin()\n      MSTORE \t\t\tfier isAdmin()\n      PUSH 20\t\t\tfier isAdmin()\n      ADD \t\t\tfier isAdmin()\n      PUSH 0\t\t\tfier isAdmin()\n      KECCAK256 \t\t\tfier isAdmin()\n      PUSH 3\t\t\tfier isAdmin() {\\r\\n\n      ADD \t\t\tfier isAdmin() {\\r\\n\n      PUSH 0\t\t\tfier isAdmin() {\\r\\n\n      SWAP1 \t\t\tfier isAdmin() {\\r\\n\n      SLOAD \t\t\tfier isAdmin() {\\r\\n\n      SWAP1 \t\t\tfier isAdmin() {\\r\\n\n      PUSH 100\t\t\tfier isAdmin() {\\r\\n\n      EXP \t\t\tfier isAdmin() {\\r\\n\n      SWAP1 \t\t\tfier isAdmin() {\\r\\n\n      DIV \t\t\tfier isAdmin() {\\r\\n\n      PUSH FFFFFFFFFFFFFFFFFFFFFFFFFFFFFFFFFFFFFFFF\t\t\tfier isAdmin() {\\r\\n\n      AND \t\t\tfier isAdmin() {\\r\\n\n      PUSH FFFFFFFFFFFFFFFFFFFFFFFFFFFFFFFFFFFFFFFF\t\t\tfier isAdmin() {\\r\\n        re...\n      AND \t\t\tfier isAdmin() {\\r\\n        re...\n      SUB \t\t\tfier isAdmin() {\\r\\n        re...\n      PUSH [tag] 577\t\t\t    modifier isAdmin() {\\r\\n  ...\n      JUMPI \t\t\t    modifier isAdmin() {\\r\\n  ...\n      PUSH 40\t\t\t    modifier isAdmin() {\\r\\n  ...\n      MLOAD \t\t\t    modifier isAdmin() {\\r\\n  ...\n      PUSH 8C379A000000000000000000000000000000000000000000000000000000000\t\t\t    modifier isAdmin() {\\r\\n  ...\n      DUP2 \t\t\t    modifier isAdmin() {\\r\\n  ...\n      MSTORE \t\t\t    modifier isAdmin() {\\r\\n  ...\n      PUSH 4\t\t\t    modifier isAdmin() {\\r\\n  ...\n      ADD \t\t\t    modifier isAdmin() {\\r\\n  ...\n      PUSH [tag] 578\t\t\t    modifier isAdmin() {\\r\\n  ...\n      SWAP1 \t\t\t    modifier isAdmin() {\\r\\n  ...\n      PUSH [tag] 110\t\t\t    modifier isAdmin() {\\r\\n  ...\n      JUMP \t\t\t    modifier isAdmin() {\\r\\n  ...\n    tag 578\t\t\t    modifier isAdmin() {\\r\\n  ...\n      JUMPDEST \t\t\t    modifier isAdmin() {\\r\\n  ...\n      PUSH 40\t\t\t    modifier isAdmin() {\\r\\n  ...\n      MLOAD \t\t\t    modifier isAdmin() {\\r\\n  ...\n      DUP1 \t\t\t    modifier isAdmin() {\\r\\n  ...\n      SWAP2 \t\t\t    modifier isAdmin() {\\r\\n  ...\n      SUB \t\t\t    modifier isAdmin() {\\r\\n  ...\n      SWAP1 \t\t\t    modifier isAdmin() {\\r\\n  ...\n      REVERT \t\t\t    modifier isAdmin() {\\r\\n  ...\n    tag 577\t\t\t    modifier isAdmin() {\\r\\n  ...\n      JUMPDEST \t\t\t    modifier isAdmin() {\\r\\n  ...\n      PUSH [tag] 579\t\t\t      _;\\r\\n    }\\r\\n\\r\\n    f...\n      PUSH 1\t\t\tfunction \n      PUSH 0\t\t\tfunction kycRe\n      DUP4 \t\t\tycR\n      PUSH FFFFFFFFFFFFFFFFFFFFFFFFFFFFFFFFFFFFFFFF\t\t\tfunction kycRe\n      AND \t\t\tfunction kycRe\n      PUSH FFFFFFFFFFFFFFFFFFFFFFFFFFFFFFFFFFFFFFFF\t\t\tfunction kycRe\n      AND \t\t\tfunction kycRe\n      DUP2 \t\t\tfunction kycRe\n      MSTORE \t\t\tfunction kycRe\n      PUSH 20\t\t\tfunction kycRe\n      ADD \t\t\tfunction kycRe\n      SWAP1 \t\t\tfunction kycRe\n      DUP2 \t\t\tfunction kycRe\n      MSTORE \t\t\tfunction kycRe\n      PUSH 20\t\t\tfunction kycRe\n      ADD \t\t\tfunction kycRe\n      PUSH 0\t\t\tfunction kycRe\n      KECCAK256 \t\t\tfunction kycRe\n      PUSH 1\t\t\tfunction kycRequestE\n      ADD \t\t\tfunction kycRequestE\n      DUP1 \t\t\t      _;\\r\\n    }\\r\\n\\r\\n    f...\n      SLOAD \t\t\t      _;\\r\\n    }\\r\\n\\r\\n    f...\n      PUSH [tag] 580\t\t\t      _;\\r\\n    }\\r\\n\\r\\n    f...\n      SWAP1 \t\t\t      _;\\r\\n    }\\r\\n\\r\\n    f...\n      PUSH [tag] 113\t\t\t      _;\\r\\n    }\\r\\n\\r\\n    f...\n      JUMP \t\t\t      _;\\r\\n    }\\r\\n\\r\\n    f...\n    tag 580\t\t\t      _;\\r\\n    }\\r\\n\\r\\n    f...\n      JUMPDEST \t\t\t      _;\\r\\n    }\\r\\n\\r\\n    f...\n      DUP1 \t\t\t      _;\\r\\n    }\\r\\n\\r\\n    f...\n      PUSH 1F\t\t\t      _;\\r\\n    }\\r\\n\\r\\n    f...\n      ADD \t\t\t      _;\\r\\n    }\\r\\n\\r\\n    f...\n      PUSH 20\t\t\t      _;\\r\\n    }\\r\\n\\r\\n    f...\n      DUP1 \t\t\t      _;\\r\\n    }\\r\\n\\r\\n    f...\n      SWAP2 \t\t\t      _;\\r\\n    }\\r\\n\\r\\n    f...\n      DIV \t\t\t      _;\\r\\n    }\\r\\n\\r\\n    f...\n      MUL \t\t\t      _;\\r\\n    }\\r\\n\\r\\n    f...\n      PUSH 20\t\t\t      _;\\r\\n    }\\r\\n\\r\\n    f...\n      ADD \t\t\t      _;\\r\\n    }\\r\\n\\r\\n    f...\n      PUSH 40\t\t\t      _;\\r\\n    }\\r\\n\\r\\n    f...\n      MLOAD \t\t\t      _;\\r\\n    }\\r\\n\\r\\n    f...\n      SWAP1 \t\t\t      _;\\r\\n    }\\r\\n\\r\\n    f...\n      DUP2 \t\t\t      _;\\r\\n    }\\r\\n\\r\\n    f...\n      ADD \t\t\t      _;\\r\\n    }\\r\\n\\r\\n    f...\n      PUSH 40\t\t\t      _;\\r\\n    }\\r\\n\\r\\n    f...\n      MSTORE \t\t\t      _;\\r\\n    }\\r\\n\\r\\n    f...\n      DUP1 \t\t\t      _;\\r\\n    }\\r\\n\\r\\n    f...\n      SWAP3 \t\t\t      _;\\r\\n    }\\r\\n\\r\\n    f...\n      SWAP2 \t\t\t      _;\\r\\n    }\\r\\n\\r\\n    f...\n      SWAP1 \t\t\t      _;\\r\\n    }\\r\\n\\r\\n    f...\n      DUP2 \t\t\t      _;\\r\\n    }\\r\\n\\r\\n    f...\n      DUP2 \t\t\t      _;\\r\\n    }\\r\\n\\r\\n    f...\n      MSTORE \t\t\t      _;\\r\\n    }\\r\\n\\r\\n    f...\n      PUSH 20\t\t\t      _;\\r\\n    }\\r\\n\\r\\n    f...\n      ADD \t\t\t      _;\\r\\n    }\\r\\n\\r\\n    f...\n      DUP3 \t\t\t      _;\\r\\n    }\\r\\n\\r\\n    f...\n      DUP1 \t\t\t      _;\\r\\n    }\\r\\n\\r\\n    f...\n      SLOAD \t\t\t      _;\\r\\n    }\\r\\n\\r\\n    f...\n      PUSH [tag] 581\t\t\t      _;\\r\\n    }\\r\\n\\r\\n    f...\n      SWAP1 \t\t\t      _;\\r\\n    }\\r\\n\\r\\n    f...\n      PUSH [tag] 113\t\t\t      _;\\r\\n    }\\r\\n\\r\\n    f...\n      JUMP \t\t\t      _;\\r\\n    }\\r\\n\\r\\n    f...\n    tag 581\t\t\t      _;\\r\\n    }\\r\\n\\r\\n    f...\n      JUMPDEST \t\t\t      _;\\r\\n    }\\r\\n\\r\\n    f...\n      DUP1 \t\t\t      _;\\r\\n    }\\r\\n\\r\\n    f...\n      ISZERO \t\t\t      _;\\r\\n    }\\r\\n\\r\\n    f...\n      PUSH [tag] 582\t\t\t      _;\\r\\n    }\\r\\n\\r\\n    f...\n      JUMPI \t\t\t      _;\\r\\n    }\\r\\n\\r\\n    f...\n      DUP1 \t\t\t      _;\\r\\n    }\\r\\n\\r\\n    f...\n      PUSH 1F\t\t\t      _;\\r\\n    }\\r\\n\\r\\n    f...\n      LT \t\t\t      _;\\r\\n    }\\r\\n\\r\\n    f...\n      PUSH [tag] 583\t\t\t      _;\\r\\n    }\\r\\n\\r\\n    f...\n      JUMPI \t\t\t      _;\\r\\n    }\\r\\n\\r\\n    f...\n      PUSH 100\t\t\t      _;\\r\\n    }\\r\\n\\r\\n    f...\n      DUP1 \t\t\t      _;\\r\\n    }\\r\\n\\r\\n    f...\n      DUP4 \t\t\t      _;\\r\\n    }\\r\\n\\r\\n    f...\n      SLOAD \t\t\t      _;\\r\\n    }\\r\\n\\r\\n    f...\n      DIV \t\t\t      _;\\r\\n    }\\r\\n\\r\\n    f...\n      MUL \t\t\t      _;\\r\\n    }\\r\\n\\r\\n    f...\n      DUP4 \t\t\t      _;\\r\\n    }\\r\\n\\r\\n    f...\n      MSTORE \t\t\t      _;\\r\\n    }\\r\\n\\r\\n    f...\n      SWAP2 \t\t\t      _;\\r\\n    }\\r\\n\\r\\n    f...\n      PUSH 20\t\t\t      _;\\r\\n    }\\r\\n\\r\\n    f...\n      ADD \t\t\t      _;\\r\\n    }\\r\\n\\r\\n    f...\n      SWAP2 \t\t\t      _;\\r\\n    }\\r\\n\\r\\n    f...\n      PUSH [tag] 582\t\t\t      _;\\r\\n    }\\r\\n\\r\\n    f...\n      JUMP \t\t\t      _;\\r\\n    }\\r\\n\\r\\n    f...\n    tag 583\t\t\t      _;\\r\\n    }\\r\\n\\r\\n    f...\n      JUMPDEST \t\t\t      _;\\r\\n    }\\r\\n\\r\\n    f...\n      DUP3 \t\t\t      _;\\r\\n    }\\r\\n\\r\\n    f...\n      ADD \t\t\t      _;\\r\\n    }\\r\\n\\r\\n    f...\n      SWAP2 \t\t\t      _;\\r\\n    }\\r\\n\\r\\n    f...\n      SWAP1 \t\t\t      _;\\r\\n    }\\r\\n\\r\\n    f...\n      PUSH 0\t\t\t      _;\\r\\n    }\\r\\n\\r\\n    f...\n      MSTORE \t\t\t      _;\\r\\n    }\\r\\n\\r\\n    f...\n      PUSH 20\t\t\t      _;\\r\\n    }\\r\\n\\r\\n    f...\n      PUSH 0\t\t\t      _;\\r\\n    }\\r\\n\\r\\n    f...\n      KECCAK256 \t\t\t      _;\\r\\n    }\\r\\n\\r\\n    f...\n      SWAP1 \t\t\t      _;\\r\\n    }\\r\\n\\r\\n    f...\n    tag 584\t\t\t      _;\\r\\n    }\\r\\n\\r\\n    f...\n      JUMPDEST \t\t\t      _;\\r\\n    }\\r\\n\\r\\n    f...\n      DUP2 \t\t\t      _;\\r\\n    }\\r\\n\\r\\n    f...\n      SLOAD \t\t\t      _;\\r\\n    }\\r\\n\\r\\n    f...\n      DUP2 \t\t\t      _;\\r\\n    }\\r\\n\\r\\n    f...\n      MSTORE \t\t\t      _;\\r\\n    }\\r\\n\\r\\n    f...\n      SWAP1 \t\t\t      _;\\r\\n    }\\r\\n\\r\\n    f...\n      PUSH 1\t\t\t      _;\\r\\n    }\\r\\n\\r\\n    f...\n      ADD \t\t\t      _;\\r\\n    }\\r\\n\\r\\n    f...\n      SWAP1 \t\t\t      _;\\r\\n    }\\r\\n\\r\\n    f...\n      PUSH 20\t\t\t      _;\\r\\n    }\\r\\n\\r\\n    f...\n      ADD \t\t\t      _;\\r\\n    }\\r\\n\\r\\n    f...\n      DUP1 \t\t\t      _;\\r\\n    }\\r\\n\\r\\n    f...\n      DUP4 \t\t\t      _;\\r\\n    }\\r\\n\\r\\n    f...\n      GT \t\t\t      _;\\r\\n    }\\r\\n\\r\\n    f...\n      PUSH [tag] 584\t\t\t      _;\\r\\n    }\\r\\n\\r\\n    f...\n      JUMPI \t\t\t      _;\\r\\n    }\\r\\n\\r\\n    f...\n      DUP3 \t\t\t      _;\\r\\n    }\\r\\n\\r\\n    f...\n      SWAP1 \t\t\t      _;\\r\\n    }\\r\\n\\r\\n    f...\n      SUB \t\t\t      _;\\r\\n    }\\r\\n\\r\\n    f...\n      PUSH 1F\t\t\t      _;\\r\\n    }\\r\\n\\r\\n    f...\n      AND \t\t\t      _;\\r\\n    }\\r\\n\\r\\n    f...\n      DUP3 \t\t\t      _;\\r\\n    }\\r\\n\\r\\n    f...\n      ADD \t\t\t      _;\\r\\n    }\\r\\n\\r\\n    f...\n      SWAP2 \t\t\t      _;\\r\\n    }\\r\\n\\r\\n    f...\n    tag 582\t\t\t      _;\\r\\n    }\\r\\n\\r\\n    f...\n      JUMPDEST \t\t\t      _;\\r\\n    }\\r\\n\\r\\n    f...\n      POP \t\t\t      _;\\r\\n    }\\r\\n\\r\\n    f...\n      POP \t\t\t      _;\\r\\n    }\\r\\n\\r\\n    f...\n      POP \t\t\t      _;\\r\\n    }\\r\\n\\r\\n    f...\n      POP \t\t\t      _;\\r\\n    }\\r\\n\\r\\n    f...\n      POP \t\t\t      _;\\r\\n    }\\r\\n\\r\\n    f...\n      PUSH 40\t\t\t      _;\\r\\n    }\\r\\n\\r\\n    f...\n      MLOAD \t\t\t      _;\\r\\n    }\\r\\n\\r\\n    f...\n      DUP1 \t\t\t      _;\\r\\n    }\\r\\n\\r\\n    f...\n      PUSH 20\t\t\t      _;\\r\\n    }\\r\\n\\r\\n    f...\n      ADD \t\t\t      _;\\r\\n    }\\r\\n\\r\\n    f...\n      PUSH 40\t\t\t      _;\\r\\n    }\\r\\n\\r\\n    f...\n      MSTORE \t\t\t      _;\\r\\n    }\\r\\n\\r\\n    f...\n      DUP1 \t\t\t      _;\\r\\n    }\\r\\n\\r\\n    f...\n      PUSH 0\t\t\t      _;\\r\\n    }\\r\\n\\r\\n    f...\n      DUP2 \t\t\t      _;\\r\\n    }\\r\\n\\r\\n    f...\n      MSTORE \t\t\t      _;\\r\\n    }\\r\\n\\r\\n    f...\n      POP \t\t\t      _;\\r\\n    }\\r\\n\\r\\n    f...\n      PUSH [tag] 118\t\t\t      _;\\r\\n    }\\r\\n\\r\\n   \n      JUMP \t\t\t      _;\\r\\n    }\\r\\n\\r\\n    f...\n    tag 579\t\t\t      _;\\r\\n    }\\r\\n\\r\\n    f...\n      JUMPDEST \t\t\t      _;\\r\\n    }\\r\\n\\r\\n    f...\n      ISZERO \t\t\t       _;\\r\\n    }\\r\\n\\r\\n    ...\n      PUSH [tag] 585\t\t\tadmin is allowed\");\\r\\n       ...\n      JUMPI \t\t\tadmin is allowed\");\\r\\n       ...\n      PUSH 40\t\t\tadmin is allowed\");\\r\\n       ...\n      MLOAD \t\t\tadmin is allowed\");\\r\\n       ...\n      PUSH 8C379A000000000000000000000000000000000000000000000000000000000\t\t\tadmin is allowed\");\\r\\n       ...\n      DUP2 \t\t\tadmin is allowed\");\\r\\n       ...\n      MSTORE \t\t\tadmin is allowed\");\\r\\n       ...\n      PUSH 4\t\t\tadmin is allowed\");\\r\\n       ...\n      ADD \t\t\tadmin is allowed\");\\r\\n       ...\n      PUSH [tag] 586\t\t\tadmin is allowed\");\\r\\n       ...\n      SWAP1 \t\t\tadmin is allowed\");\\r\\n       ...\n      PUSH [tag] 121\t\t\tadmin is allowed\");\\r\\n       ...\n      JUMP \t\t\tadmin is allowed\");\\r\\n       ...\n    tag 586\t\t\tadmin is allowed\");\\r\\n       ...\n      JUMPDEST \t\t\tadmin is allowed\");\\r\\n       ...\n      PUSH 40\t\t\tadmin is allowed\");\\r\\n       ...\n      MLOAD \t\t\tadmin is allowed\");\\r\\n       ...\n      DUP1 \t\t\tadmin is allowed\");\\r\\n       ...\n      SWAP2 \t\t\tadmin is allowed\");\\r\\n       ...\n      SUB \t\t\tadmin is allowed\");\\r\\n       ...\n      SWAP1 \t\t\tadmin is allowed\");\\r\\n       ...\n      REVERT \t\t\tadmin is allowed\");\\r\\n       ...\n    tag 585\t\t\tadmin is allowed\");\\r\\n       ...\n      JUMPDEST \t\t\tadmin is allowed\");\\r\\n       ...\n      PUSH [tag] 588\t\t\tgetKYCRequests(pageNumber, fal...\n      DUP5 \t\t\tpageNumber\n      PUSH 0\t\t\tfalse\n      PUSH [tag] 547\t\t\tgetKYCRequests\n      JUMP \t\t\tgetKYCRequests(pageNumber, fal...\n    tag 588\t\t\tgetKYCRequests(pageNumber, fal...\n      JUMPDEST \t\t\tgetKYCRequests(pageNumber, fal...\n      SWAP3 \t\t\treturn getKYCRequests(pageNumb...\n      POP \t\t\treturn getKYCRequests(pageNumb...\n      SWAP3 \t\t\treturn getKYCRequests(pageNumb...\n      POP \t\t\treturn getKYCRequests(pageNumb...\n      POP \t\t\tfunction getBankRequests(uint2...\n      SWAP2 \t\t\tfunction getBankRequests(uint2...\n      POP \t\t\tfunction getBankRequests(uint2...\n      SWAP2 \t\t\tfunction getBankRequests(uint2...\n      JUMP \t\t\tfunction getBankRequests(uint2...\n    tag 101\t\t\tfunction updateKycVerification...\n      JUMPDEST \t\t\tfunction updateKycVerification...\n      CALLER \t\t\tmsg.sender\n      PUSH 0\t\t\t \n      PUSH FFFFFFFFFFFFFFFFFFFFFFFFFFFFFFFFFFFFFFFF\t\t\tn);\\r\\n    }\\r\\n\\r\\n    modifi...\n      AND \t\t\tn);\\r\\n    }\\r\\n\\r\\n    modifi...\n      PUSH 3\t\t\tn);\\r\\n\n      PUSH 0\t\t\tn);\\r\\n    }\n      DUP4 \t\t\t   \n      PUSH FFFFFFFFFFFFFFFFFFFFFFFFFFFFFFFFFFFFFFFF\t\t\tn);\\r\\n    }\n      AND \t\t\tn);\\r\\n    }\n      PUSH FFFFFFFFFFFFFFFFFFFFFFFFFFFFFFFFFFFFFFFF\t\t\tn);\\r\\n    }\n      AND \t\t\tn);\\r\\n    }\n      DUP2 \t\t\tn);\\r\\n    }\n      MSTORE \t\t\tn);\\r\\n    }\n      PUSH 20\t\t\tn);\\r\\n    }\n      ADD \t\t\tn);\\r\\n    }\n      SWAP1 \t\t\tn);\\r\\n    }\n      DUP2 \t\t\tn);\\r\\n    }\n      MSTORE \t\t\tn);\\r\\n    }\n      PUSH 20\t\t\tn);\\r\\n    }\n      ADD \t\t\tn);\\r\\n    }\n      PUSH 0\t\t\tn);\\r\\n    }\n      KECCAK256 \t\t\tn);\\r\\n    }\n      PUSH 2\t\t\tn);\\r\\n    }\\r\\n\\r\\n\n      ADD \t\t\tn);\\r\\n    }\\r\\n\\r\\n\n      PUSH 0\t\t\tn);\\r\\n    }\\r\\n\\r\\n\n      SWAP1 \t\t\tn);\\r\\n    }\\r\\n\\r\\n\n      SLOAD \t\t\tn);\\r\\n    }\\r\\n\\r\\n\n      SWAP1 \t\t\tn);\\r\\n    }\\r\\n\\r\\n\n      PUSH 100\t\t\tn);\\r\\n    }\\r\\n\\r\\n\n      EXP \t\t\tn);\\r\\n    }\\r\\n\\r\\n\n      SWAP1 \t\t\tn);\\r\\n    }\\r\\n\\r\\n\n      DIV \t\t\tn);\\r\\n    }\\r\\n\\r\\n\n      PUSH FFFFFFFFFFFFFFFFFFFFFFFFFFFFFFFFFFFFFFFF\t\t\tn);\\r\\n    }\\r\\n\\r\\n\n      AND \t\t\tn);\\r\\n    }\\r\\n\\r\\n\n      PUSH FFFFFFFFFFFFFFFFFFFFFFFFFFFFFFFFFFFFFFFF\t\t\tn);\\r\\n    }\\r\\n\\r\\n    modifi...\n      AND \t\t\tn);\\r\\n    }\\r\\n\\r\\n    modifi...\n      SUB \t\t\tn);\\r\\n    }\\r\\n\\r\\n    modifi...\n      PUSH [tag] 590\t\t\tush(admin);\\r\\n    }\\r\\n\\r\\n  ...\n      JUMPI \t\t\tush(admin);\\r\\n    }\\r\\n\\r\\n  ...\n      PUSH 40\t\t\tush(admin);\\r\\n    }\\r\\n\\r\\n  ...\n      MLOAD \t\t\tush(admin);\\r\\n    }\\r\\n\\r\\n  ...\n      PUSH 8C379A000000000000000000000000000000000000000000000000000000000\t\t\tush(admin);\\r\\n    }\\r\\n\\r\\n  ...\n      DUP2 \t\t\tush(admin);\\r\\n    }\\r\\n\\r\\n  ...\n      MSTORE \t\t\tush(admin);\\r\\n    }\\r\\n\\r\\n  ...\n      PUSH 4\t\t\tush(admin);\\r\\n    }\\r\\n\\r\\n  ...\n      ADD \t\t\tush(admin);\\r\\n    }\\r\\n\\r\\n  ...\n      PUSH [tag] 591\t\t\tush(admin);\\r\\n    }\\r\\n\\r\\n  ...\n      SWAP1 \t\t\tush(admin);\\r\\n    }\\r\\n\\r\\n  ...\n      PUSH [tag] 130\t\t\tush(admin);\\r\\n    }\\r\\n\\r\\n  ...\n      JUMP \t\t\tush(admin);\\r\\n    }\\r\\n\\r\\n  ...\n    tag 591\t\t\tush(admin);\\r\\n    }\\r\\n\\r\\n  ...\n      JUMPDEST \t\t\tush(admin);\\r\\n    }\\r\\n\\r\\n  ...\n      PUSH 40\t\t\tush(admin);\\r\\n    }\\r\\n\\r\\n  ...\n      MLOAD \t\t\tush(admin);\\r\\n    }\\r\\n\\r\\n  ...\n      DUP1 \t\t\tush(admin);\\r\\n    }\\r\\n\\r\\n  ...\n      SWAP2 \t\t\tush(admin);\\r\\n    }\\r\\n\\r\\n  ...\n      SUB \t\t\tush(admin);\\r\\n    }\\r\\n\\r\\n  ...\n      SWAP1 \t\t\tush(admin);\\r\\n    }\\r\\n\\r\\n  ...\n      REVERT \t\t\tush(admin);\\r\\n    }\\r\\n\\r\\n  ...\n    tag 590\t\t\tush(admin);\\r\\n    }\\r\\n\\r\\n  ...\n      JUMPDEST \t\t\tush(admin);\\r\\n    }\\r\\n\\r\\n  ...\n      DUP1 \t\t\tdmi\n      PUSH FFFFFFFFFFFFFFFFFFFFFFFFFFFFFFFFFFFFFFFF\t\t\t == admin, \"Only admi\n      AND \t\t\t == admin, \"Only admi\n      PUSH 3\t\t\t == a\n      PUSH 0\t\t\t == admin,\n      DUP4 \t\t\tmin\n      PUSH FFFFFFFFFFFFFFFFFFFFFFFFFFFFFFFFFFFFFFFF\t\t\t == admin,\n      AND \t\t\t == admin,\n      PUSH FFFFFFFFFFFFFFFFFFFFFFFFFFFFFFFFFFFFFFFF\t\t\t == admin,\n      AND \t\t\t == admin,\n      DUP2 \t\t\t == admin,\n      MSTORE \t\t\t == admin,\n      PUSH 20\t\t\t == admin,\n      ADD \t\t\t == admin,\n      SWAP1 \t\t\t == admin,\n      DUP2 \t\t\t == admin,\n      MSTORE \t\t\t == admin,\n      PUSH 20\t\t\t == admin,\n      ADD \t\t\t == admin,\n      PUSH 0\t\t\t == admin,\n      KECCAK256 \t\t\t == admin,\n      PUSH 2\t\t\t == admin, \"On\n      ADD \t\t\t == admin, \"On\n      PUSH 0\t\t\t == admin, \"On\n      SWAP1 \t\t\t == admin, \"On\n      SLOAD \t\t\t == admin, \"On\n      SWAP1 \t\t\t == admin, \"On\n      PUSH 100\t\t\t == admin, \"On\n      EXP \t\t\t == admin, \"On\n      SWAP1 \t\t\t == admin, \"On\n      DIV \t\t\t == admin, \"On\n      PUSH FFFFFFFFFFFFFFFFFFFFFFFFFFFFFFFFFFFFFFFF\t\t\t == admin, \"On\n      AND \t\t\t == admin, \"On\n      PUSH FFFFFFFFFFFFFFFFFFFFFFFFFFFFFFFFFFFFFFFF\t\t\t == admin, \"Only admi\n      AND \t\t\t == admin, \"Only admi\n      EQ \t\t\t == admin, \"Only admi\n      PUSH [tag] 592\t\t\tg.sender == admin, \"Only admin...\n      JUMPI \t\t\tg.sender == admin, \"Only admin...\n      PUSH 40\t\t\tg.sender == admin, \"Only admin...\n      MLOAD \t\t\tg.sender == admin, \"Only admin...\n      PUSH 8C379A000000000000000000000000000000000000000000000000000000000\t\t\tg.sender == admin, \"Only admin...\n      DUP2 \t\t\tg.sender == admin, \"Only admin...\n      MSTORE \t\t\tg.sender == admin, \"Only admin...\n      PUSH 4\t\t\tg.sender == admin, \"Only admin...\n      ADD \t\t\tg.sender == admin, \"Only admin...\n      PUSH [tag] 593\t\t\tg.sender == admin, \"Only admin...\n      SWAP1 \t\t\tg.sender == admin, \"Only admin...\n      PUSH [tag] 130\t\t\tg.sender == admin, \"Only admin...\n      JUMP \t\t\tg.sender == admin, \"Only admin...\n    tag 593\t\t\tg.sender == admin, \"Only admin...\n      JUMPDEST \t\t\tg.sender == admin, \"Only admin...\n      PUSH 40\t\t\tg.sender == admin, \"Only admin...\n      MLOAD \t\t\tg.sender == admin, \"Only admin...\n      DUP1 \t\t\tg.sender == admin, \"Only admin...\n      SWAP2 \t\t\tg.sender == admin, \"Only admin...\n      SUB \t\t\tg.sender == admin, \"Only admin...\n      SWAP1 \t\t\tg.sender == admin, \"Only admin...\n      REVERT \t\t\tg.sender == admin, \"Only admin...\n    tag 592\t\t\tg.sender == admin, \"Only admin...\n      JUMPDEST \t\t\tg.sender == admin, \"Only admin...\n      PUSH 0\t\t\tg memory reqId_)\\r\\n     \n      PUSH 1\t\t\tycRequestExists(string memory ...\n      DUP2 \t\t\tycRequestExists(string memory ...\n      GT \t\t\tycRequestExists(string memory ...\n      ISZERO \t\t\tycRequestExists(string memory ...\n      PUSH [tag] 594\t\t\tycRequestExists(string memory ...\n      JUMPI \t\t\tycRequestExists(string memory ...\n      PUSH [tag] 595\t\t\tycRequestExists(string memory ...\n      PUSH [tag] 135\t\t\tycRequestExists(string memory ...\n      JUMP \t\t\tycRequestExists(string memory ...\n    tag 595\t\t\tycRequestExists(string memory ...\n      JUMPDEST \t\t\tycRequestExists(string memory ...\n    tag 594\t\t\tycRequestExists(string memory ...\n      JUMPDEST \t\t\tycRequestExists(string memory ...\n      PUSH 3\t\t\tycReq\n      PUSH 0\t\t\tycRequestE\n      DUP4 \t\t\test\n      PUSH FFFFFFFFFFFFFFFFFFFFFFFFFFFFFFFFFFFFFFFF\t\t\tycRequestE\n      AND \t\t\tycRequestE\n      PUSH FFFFFFFFFFFFFFFFFFFFFFFFFFFFFFFFFFFFFFFF\t\t\tycRequestE\n      AND \t\t\tycRequestE\n      DUP2 \t\t\tycRequestE\n      MSTORE \t\t\tycRequestE\n      PUSH 20\t\t\tycRequestE\n      ADD \t\t\tycRequestE\n      SWAP1 \t\t\tycRequestE\n      DUP2 \t\t\tycRequestE\n      MSTORE \t\t\tycRequestE\n      PUSH 20\t\t\tycRequestE\n      ADD \t\t\tycRequestE\n      PUSH 0\t\t\tycRequestE\n      KECCAK256 \t\t\tycRequestE\n      PUSH 4\t\t\tycRequestExists(s\n      ADD \t\t\tycRequestExists(s\n      PUSH 2\t\t\tycRequestExists(s\n      SWAP1 \t\t\tycRequestExists(s\n      SLOAD \t\t\tycRequestExists(s\n      SWAP1 \t\t\tycRequestExists(s\n      PUSH 100\t\t\tycRequestExists(s\n      EXP \t\t\tycRequestExists(s\n      SWAP1 \t\t\tycRequestExists(s\n      DIV \t\t\tycRequestExists(s\n      PUSH FF\t\t\tycRequestExists(s\n      AND \t\t\tycRequestExists(s\n      PUSH 1\t\t\tycRequestExists(string memory ...\n      DUP2 \t\t\tycRequestExists(string memory ...\n      GT \t\t\tycRequestExists(string memory ...\n      ISZERO \t\t\tycRequestExists(string memory ...\n      PUSH [tag] 596\t\t\tycRequestExists(string memory ...\n      JUMPI \t\t\tycRequestExists(string memory ...\n      PUSH [tag] 597\t\t\tycRequestExists(string memory ...\n      PUSH [tag] 135\t\t\tycRequestExists(string memory ...\n      JUMP \t\t\tycRequestExists(string memory ...\n    tag 597\t\t\tycRequestExists(string memory ...\n      JUMPDEST \t\t\tycRequestExists(string memory ...\n    tag 596\t\t\tycRequestExists(string memory ...\n      JUMPDEST \t\t\tycRequestExists(string memory ...\n      EQ \t\t\tycRequestExists(string memory ...\n      PUSH [tag] 598\t\t\t   }\\r\\n\\r\\n    function kycRe...\n      JUMPI \t\t\t   }\\r\\n\\r\\n    function kycRe...\n      PUSH 40\t\t\t   }\\r\\n\\r\\n    function kycRe...\n      MLOAD \t\t\t   }\\r\\n\\r\\n    function kycRe...\n      PUSH 8C379A000000000000000000000000000000000000000000000000000000000\t\t\t   }\\r\\n\\r\\n    function kycRe...\n      DUP2 \t\t\t   }\\r\\n\\r\\n    function kycRe...\n      MSTORE \t\t\t   }\\r\\n\\r\\n    function kycRe...\n      PUSH 4\t\t\t   }\\r\\n\\r\\n    function kycRe...\n      ADD \t\t\t   }\\r\\n\\r\\n    function kycRe...\n      PUSH [tag] 599\t\t\t   }\\r\\n\\r\\n    function kycRe...\n      SWAP1 \t\t\t   }\\r\\n\\r\\n    function kycRe...\n      PUSH [tag] 140\t\t\t   }\\r\\n\\r\\n    function kycRe...\n      JUMP \t\t\t   }\\r\\n\\r\\n    function kycRe...\n    tag 599\t\t\t   }\\r\\n\\r\\n    function kycRe...\n      JUMPDEST \t\t\t   }\\r\\n\\r\\n    function kycRe...\n      PUSH 40\t\t\t   }\\r\\n\\r\\n    function kycRe...\n      MLOAD \t\t\t   }\\r\\n\\r\\n    function kycRe...\n      DUP1 \t\t\t   }\\r\\n\\r\\n    function kycRe...\n      SWAP2 \t\t\t   }\\r\\n\\r\\n    function kycRe...\n      SUB \t\t\t   }\\r\\n\\r\\n    function kycRe...\n      SWAP1 \t\t\t   }\\r\\n\\r\\n    function kycRe...\n      REVERT \t\t\t   }\\r\\n\\r\\n    function kycRe...\n    tag 598\t\t\t   }\\r\\n\\r\\n    function kycRe...\n      JUMPDEST \t\t\t   }\\r\\n\\r\\n    function kycRe...\n      PUSH 0\t\t\tstring memory reqId_\n      PUSH [tag] 601\t\t\tHelpers.append(msg.sender, use...\n      CALLER \t\t\tmsg.sender\n      DUP7 \t\t\tuserId_\n      PUSH [tag] 157\t\t\tHelpers.append\n      JUMP \t\t\tHelpers.append(msg.sender, use...\n    tag 601\t\t\tHelpers.append(msg.sender, use...\n      JUMPDEST \t\t\tHelpers.append(msg.sender, use...\n      SWAP1 \t\t\tstring memory reqId_ = Helpers...\n      POP \t\t\tstring memory reqId_ = Helpers...\n      PUSH [tag] 602\t\t\tkycRequestExists(reqId_)\n      DUP2 \t\t\treqId_\n      PUSH [tag] 159\t\t\tkycRequestExists\n      JUMP \t\t\tkycRequestExists(reqId_)\n    tag 602\t\t\tkycRequestExists(reqId_)\n      JUMPDEST \t\t\tkycRequestExists(reqId_)\n      PUSH [tag] 603\t\t\trequire(kycRequestExists(reqId...\n      JUMPI \t\t\trequire(kycRequestExists(reqId...\n      PUSH 40\t\t\trequire(kycRequestExists(reqId...\n      MLOAD \t\t\trequire(kycRequestExists(reqId...\n      PUSH 8C379A000000000000000000000000000000000000000000000000000000000\t\t\trequire(kycRequestExists(reqId...\n      DUP2 \t\t\trequire(kycRequestExists(reqId...\n      MSTORE \t\t\trequire(kycRequestExists(reqId...\n      PUSH 4\t\t\trequire(kycRequestExists(reqId...\n      ADD \t\t\trequire(kycRequestExists(reqId...\n      PUSH [tag] 604\t\t\trequire(kycRequestExists(reqId...\n      SWAP1 \t\t\trequire(kycRequestExists(reqId...\n      PUSH [tag] 303\t\t\trequire(kycRequestExists(reqId...\n      JUMP \t\t\trequire(kycRequestExists(reqId...\n    tag 604\t\t\trequire(kycRequestExists(reqId...\n      JUMPDEST \t\t\trequire(kycRequestExists(reqId...\n      PUSH 40\t\t\trequire(kycRequestExists(reqId...\n      MLOAD \t\t\trequire(kycRequestExists(reqId...\n      DUP1 \t\t\trequire(kycRequestExists(reqId...\n      SWAP2 \t\t\trequire(kycRequestExists(reqId...\n      SUB \t\t\trequire(kycRequestExists(reqId...\n      SWAP1 \t\t\trequire(kycRequestExists(reqId...\n      REVERT \t\t\trequire(kycRequestExists(reqId...\n    tag 603\t\t\trequire(kycRequestExists(reqId...\n      JUMPDEST \t\t\trequire(kycRequestExists(reqId...\n      PUSH 0\t\t\tTypes.KycStatus status_\n      DUP5 \t\t\tverified_\n      ISZERO \t\t\tif (verified_) {\\r\\n          ...\n      PUSH [tag] 605\t\t\tif (verified_) {\\r\\n          ...\n      JUMPI \t\t\tif (verified_) {\\r\\n          ...\n      PUSH 1\t\t\tTypes.KycStatus.KYCVerified\n      SWAP1 \t\t\tstatus_ = Types.KycStatus.KYCV...\n      POP \t\t\tstatus_ = Types.KycStatus.KYCV...\n      PUSH [tag] 606\t\t\tupdatekyccount(msg.sender)\n      CALLER \t\t\tmsg.sender\n      PUSH [tag] 607\t\t\tupdatekyccount\n      JUMP \t\t\tupdatekyccount(msg.sender)\n    tag 606\t\t\tupdatekyccount(msg.sender)\n      JUMPDEST \t\t\tupdatekyccount(msg.sender)\n      PUSH [tag] 608\t\t\tupdatekycdoneby(userId_)\n      DUP7 \t\t\tuserId_\n      PUSH [tag] 609\t\t\tupdatekycdoneby\n      JUMP \t\t\tupdatekycdoneby(userId_)\n    tag 608\t\t\tupdatekycdoneby(userId_)\n      JUMPDEST \t\t\tupdatekycdoneby(userId_)\n      PUSH [tag] 610\t\t\tif (verified_) {\\r\\n          ...\n      JUMP \t\t\tif (verified_) {\\r\\n          ...\n    tag 605\t\t\tif (verified_) {\\r\\n          ...\n      JUMPDEST \t\t\tif (verified_) {\\r\\n          ...\n      PUSH 2\t\t\tTypes.KycStatus.KYCFailed\n      SWAP1 \t\t\tstatus_ = Types.KycStatus.KYCF...\n      POP \t\t\tstatus_ = Types.KycStatus.KYCF...\n    tag 610\t\t\tif (verified_) {\\r\\n          ...\n      JUMPDEST \t\t\tif (verified_) {\\r\\n          ...\n      DUP1 \t\t\tstatus_\n      PUSH 7\t\t\tkycRequests\n      DUP4 \t\t\treqId_\n      PUSH 40\t\t\tkycRequests[reqId_]\n      MLOAD \t\t\tkycRequests[reqId_]\n      PUSH [tag] 611\t\t\tkycRequests[reqId_]\n      SWAP2 \t\t\tkycRequests[reqId_]\n      SWAP1 \t\t\tkycRequests[reqId_]\n      PUSH [tag] 169\t\t\tkycRequests[reqId_]\n      JUMP \t\t\tkycRequests[reqId_]\n    tag 611\t\t\tkycRequests[reqId_]\n      JUMPDEST \t\t\tkycRequests[reqId_]\n      SWAP1 \t\t\tkycRequests[reqId_]\n      DUP2 \t\t\tkycRequests[reqId_]\n      MSTORE \t\t\tkycRequests[reqId_]\n      PUSH 20\t\t\tkycRequests[reqId_]\n      ADD \t\t\tkycRequests[reqId_]\n      PUSH 40\t\t\tkycRequests[reqId_]\n      MLOAD \t\t\tkycRequests[reqId_]\n      DUP1 \t\t\tkycRequests[reqId_]\n      SWAP2 \t\t\tkycRequests[reqId_]\n      SUB \t\t\tkycRequests[reqId_]\n      SWAP1 \t\t\tkycRequests[reqId_]\n      KECCAK256 \t\t\tkycRequests[reqId_]\n      PUSH 7\t\t\tkycRequests[reqId_].status\n      ADD \t\t\tkycRequests[reqId_].status\n      PUSH 0\t\t\tkycRequests[reqId_].status\n      PUSH 100\t\t\tkycRequests[reqId_].status = s...\n      EXP \t\t\tkycRequests[reqId_].status = s...\n      DUP2 \t\t\tkycRequests[reqId_].status = s...\n      SLOAD \t\t\tkycRequests[reqId_].status = s...\n      DUP2 \t\t\tkycRequests[reqId_].status = s...\n      PUSH FF\t\t\tkycRequests[reqId_].status = s...\n      MUL \t\t\tkycRequests[reqId_].status = s...\n      NOT \t\t\tkycRequests[reqId_].status = s...\n      AND \t\t\tkycRequests[reqId_].status = s...\n      SWAP1 \t\t\tkycRequests[reqId_].status = s...\n      DUP4 \t\t\tkycRequests[reqId_].status = s...\n      PUSH 2\t\t\tkycRequests[reqId_].status = s...\n      DUP2 \t\t\tkycRequests[reqId_].status = s...\n      GT \t\t\tkycRequests[reqId_].status = s...\n      ISZERO \t\t\tkycRequests[reqId_].status = s...\n      PUSH [tag] 612\t\t\tkycRequests[reqId_].status = s...\n      JUMPI \t\t\tkycRequests[reqId_].status = s...\n      PUSH [tag] 613\t\t\tkycRequests[reqId_].status = s...\n      PUSH [tag] 135\t\t\tkycRequests[reqId_].status = s...\n      JUMP \t\t\tkycRequests[reqId_].status = s...\n    tag 613\t\t\tkycRequests[reqId_].status = s...\n      JUMPDEST \t\t\tkycRequests[reqId_].status = s...\n    tag 612\t\t\tkycRequests[reqId_].status = s...\n      JUMPDEST \t\t\tkycRequests[reqId_].status = s...\n      MUL \t\t\tkycRequests[reqId_].status = s...\n      OR \t\t\tkycRequests[reqId_].status = s...\n      SWAP1 \t\t\tkycRequests[reqId_].status = s...\n      SSTORE \t\t\tkycRequests[reqId_].status = s...\n      POP \t\t\tkycRequests[reqId_].status = s...\n      DUP4 \t\t\tnote_\n      PUSH 7\t\t\tkycRequests\n      DUP4 \t\t\treqId_\n      PUSH 40\t\t\tkycRequests[reqId_]\n      MLOAD \t\t\tkycRequests[reqId_]\n      PUSH [tag] 614\t\t\tkycRequests[reqId_]\n      SWAP2 \t\t\tkycRequests[reqId_]\n      SWAP1 \t\t\tkycRequests[reqId_]\n      PUSH [tag] 169\t\t\tkycRequests[reqId_]\n      JUMP \t\t\tkycRequests[reqId_]\n    tag 614\t\t\tkycRequests[reqId_]\n      JUMPDEST \t\t\tkycRequests[reqId_]\n      SWAP1 \t\t\tkycRequests[reqId_]\n      DUP2 \t\t\tkycRequests[reqId_]\n      MSTORE \t\t\tkycRequests[reqId_]\n      PUSH 20\t\t\tkycRequests[reqId_]\n      ADD \t\t\tkycRequests[reqId_]\n      PUSH 40\t\t\tkycRequests[reqId_]\n      MLOAD \t\t\tkycRequests[reqId_]\n      DUP1 \t\t\tkycRequests[reqId_]\n      SWAP2 \t\t\tkycRequests[reqId_]\n      SUB \t\t\tkycRequests[reqId_]\n      SWAP1 \t\t\tkycRequests[reqId_]\n      KECCAK256 \t\t\tkycRequests[reqId_]\n      PUSH 8\t\t\tkycRequests[reqId_].additional...\n      ADD \t\t\tkycRequests[reqId_].additional...\n      SWAP1 \t\t\tkycRequests[reqId_].additional...\n      DUP2 \t\t\tkycRequests[reqId_].additional...\n      PUSH [tag] 615\t\t\tkycRequests[reqId_].additional...\n      SWAP2 \t\t\tkycRequests[reqId_].additional...\n      SWAP1 \t\t\tkycRequests[reqId_].additional...\n      PUSH [tag] 174\t\t\tkycRequests[reqId_].additional...\n      JUMP \t\t\tkycRequests[reqId_].additional...\n    tag 615\t\t\tkycRequests[reqId_].additional...\n      JUMPDEST \t\t\tkycRequests[reqId_].additional...\n      POP \t\t\tkycRequests[reqId_].additional...\n      PUSH 900B83A690E29FF7D6E76E350983AFEA30403D6C47FE8CE52045FB20074C79A0\t\t\tKycStatusChanged(reqId_, userI...\n      DUP3 \t\t\treqId_\n      DUP8 \t\t\tuserId_\n      CALLER \t\t\tmsg.sender\n      DUP5 \t\t\tstatus_\n      PUSH 40\t\t\tKycStatusChanged(reqId_, userI...\n      MLOAD \t\t\tKycStatusChanged(reqId_, userI...\n      PUSH [tag] 616\t\t\tKycStatusChanged(reqId_, userI...\n      SWAP5 \t\t\tKycStatusChanged(reqId_, userI...\n      SWAP4 \t\t\tKycStatusChanged(reqId_, userI...\n      SWAP3 \t\t\tKycStatusChanged(reqId_, userI...\n      SWAP2 \t\t\tKycStatusChanged(reqId_, userI...\n      SWAP1 \t\t\tKycStatusChanged(reqId_, userI...\n      PUSH [tag] 617\t\t\tKycStatusChanged(reqId_, userI...\n      JUMP \t\t\tKycStatusChanged(reqId_, userI...\n    tag 616\t\t\tKycStatusChanged(reqId_, userI...\n      JUMPDEST \t\t\tKycStatusChanged(reqId_, userI...\n      PUSH 40\t\t\tKycStatusChanged(reqId_, userI...\n      MLOAD \t\t\tKycStatusChanged(reqId_, userI...\n      DUP1 \t\t\tKycStatusChanged(reqId_, userI...\n      SWAP2 \t\t\tKycStatusChanged(reqId_, userI...\n      SUB \t\t\tKycStatusChanged(reqId_, userI...\n      SWAP1 \t\t\tKycStatusChanged(reqId_, userI...\n      LOG1 \t\t\tKycStatusChanged(reqId_, userI...\n      POP \t\t\t{\\r\\n        string memory req...\n      POP \t\t\t{\\r\\n        string memory req...\n      POP \t\t\tfunction updateKycVerification...\n      POP \t\t\tfunction updateKycVerification...\n      POP \t\t\tfunction updateKycVerification...\n      POP \t\t\tfunction updateKycVerification...\n      JUMP \t\t\tfunction updateKycVerification...\n    tag 118\t\t\t256 i = startIndex_; i < endIn...\n      JUMPDEST \t\t\t256 i = startIndex_; i < endIn...\n      PUSH 0\t\t\t    \n      DUP2 \t\t\t \n      PUSH 40\t\t\t     ]\\r\\n             \n      MLOAD \t\t\t     ]\\r\\n             \n      PUSH 20\t\t\t     ]\\r\\n             \n      ADD \t\t\t     ]\\r\\n             \n      PUSH [tag] 619\t\t\t     ]\\r\\n             \n      SWAP2 \t\t\t     ]\\r\\n             \n      SWAP1 \t\t\t     ]\\r\\n             \n      PUSH [tag] 169\t\t\t     ]\\r\\n             \n      JUMP \t\t\t     ]\\r\\n             \n    tag 619\t\t\t     ]\\r\\n             \n      JUMPDEST \t\t\t     ]\\r\\n             \n      PUSH 40\t\t\t     ]\\r\\n             \n      MLOAD \t\t\t     ]\\r\\n             \n      PUSH 20\t\t\t     ]\\r\\n             \n      DUP2 \t\t\t     ]\\r\\n             \n      DUP4 \t\t\t     ]\\r\\n             \n      SUB \t\t\t     ]\\r\\n             \n      SUB \t\t\t     ]\\r\\n             \n      DUP2 \t\t\t     ]\\r\\n             \n      MSTORE \t\t\t     ]\\r\\n             \n      SWAP1 \t\t\t     ]\\r\\n             \n      PUSH 40\t\t\t     ]\\r\\n             \n      MSTORE \t\t\t     ]\\r\\n             \n      DUP1 \t\t\t               ]\\r\\n          ...\n      MLOAD \t\t\t               ]\\r\\n          ...\n      SWAP1 \t\t\t               ]\\r\\n          ...\n      PUSH 20\t\t\t               ]\\r\\n          ...\n      ADD \t\t\t               ]\\r\\n          ...\n      KECCAK256 \t\t\t               ]\\r\\n          ...\n      DUP4 \t\t\tr\n      PUSH 40\t\t\tender, bankCustomers[\n      MLOAD \t\t\tender, bankCustomers[\n      PUSH 20\t\t\tender, bankCustomers[\n      ADD \t\t\tender, bankCustomers[\n      PUSH [tag] 620\t\t\tender, bankCustomers[\n      SWAP2 \t\t\tender, bankCustomers[\n      SWAP1 \t\t\tender, bankCustomers[\n      PUSH [tag] 169\t\t\tender, bankCustomers[\n      JUMP \t\t\tender, bankCustomers[\n    tag 620\t\t\tender, bankCustomers[\n      JUMPDEST \t\t\tender, bankCustomers[\n      PUSH 40\t\t\tender, bankCustomers[\n      MLOAD \t\t\tender, bankCustomers[\n      PUSH 20\t\t\tender, bankCustomers[\n      DUP2 \t\t\tender, bankCustomers[\n      DUP4 \t\t\tender, bankCustomers[\n      SUB \t\t\tender, bankCustomers[\n      SUB \t\t\tender, bankCustomers[\n      DUP2 \t\t\tender, bankCustomers[\n      MSTORE \t\t\tender, bankCustomers[\n      SWAP1 \t\t\tender, bankCustomers[\n      PUSH 40\t\t\tender, bankCustomers[\n      MSTORE \t\t\tender, bankCustomers[\n      DUP1 \t\t\tpend(msg.sender, bankCustomers...\n      MLOAD \t\t\tpend(msg.sender, bankCustomers...\n      SWAP1 \t\t\tpend(msg.sender, bankCustomers...\n      PUSH 20\t\t\tpend(msg.sender, bankCustomers...\n      ADD \t\t\tpend(msg.sender, bankCustomers...\n      KECCAK256 \t\t\tpend(msg.sender, bankCustomers...\n      EQ \t\t\tpend(msg.sender, bankCustomers...\n      SWAP1 \t\t\tlpers.append(msg.sender, bankC...\n      POP \t\t\tlpers.append(msg.sender, bankC...\n      SWAP3 \t\t\t256 i = startIndex_; i < endIn...\n      SWAP2 \t\t\t256 i = startIndex_; i < endIn...\n      POP \t\t\t256 i = startIndex_; i < endIn...\n      POP \t\t\t256 i = startIndex_; i < endIn...\n      JUMP \t\t\t256 i = startIndex_; i < endIn...\n    tag 124\t\t\t] memory list_ = new Types.Kyc...\n      JUMPDEST \t\t\t] memory list_ = new Types.Kyc...\n      PUSH [tag] 621\t\t\t; i < endIndex_; i++)\n      PUSH [tag] 103\t\t\t; i < endIndex_; i++)\n      JUMP \t\t\t; i < endIndex_; i++)\n    tag 621\t\t\t; i < endIndex_; i++)\n      JUMPDEST \t\t\t; i < endIndex_; i++)\n      PUSH 1\t\t\tisForBank\n      PUSH 0\t\t\tisForBank\\r\\n   \n      DUP4 \t\t\t\\n  \n      PUSH FFFFFFFFFFFFFFFFFFFFFFFFFFFFFFFFFFFFFFFF\t\t\tisForBank\\r\\n   \n      AND \t\t\tisForBank\\r\\n   \n      PUSH FFFFFFFFFFFFFFFFFFFFFFFFFFFFFFFFFFFFFFFF\t\t\tisForBank\\r\\n   \n      AND \t\t\tisForBank\\r\\n   \n      DUP2 \t\t\tisForBank\\r\\n   \n      MSTORE \t\t\tisForBank\\r\\n   \n      PUSH 20\t\t\tisForBank\\r\\n   \n      ADD \t\t\tisForBank\\r\\n   \n      SWAP1 \t\t\tisForBank\\r\\n   \n      DUP2 \t\t\tisForBank\\r\\n   \n      MSTORE \t\t\tisForBank\\r\\n   \n      PUSH 20\t\t\tisForBank\\r\\n   \n      ADD \t\t\tisForBank\\r\\n   \n      PUSH 0\t\t\tisForBank\\r\\n   \n      KECCAK256 \t\t\tisForBank\\r\\n   \n      PUSH 40\t\t\t_[i] = isForBank\\r\\n   \n      MLOAD \t\t\t_[i] = isForBank\\r\\n   \n      DUP1 \t\t\t_[i] = isForBank\\r\\n   \n      PUSH E0\t\t\t_[i] = isForBank\\r\\n   \n      ADD \t\t\t_[i] = isForBank\\r\\n   \n      PUSH 40\t\t\t_[i] = isForBank\\r\\n   \n      MSTORE \t\t\t_[i] = isForBank\\r\\n   \n      SWAP1 \t\t\t_[i] = isForBank\\r\\n   \n      DUP2 \t\t\t_[i] = isForBank\\r\\n   \n      PUSH 0\t\t\t_[i] = isForBank\\r\\n   \n      DUP3 \t\t\t_[i] = isForBank\\r\\n   \n      ADD \t\t\t_[i] = isForBank\\r\\n   \n      DUP1 \t\t\t_[i] = isForBank\\r\\n   \n      SLOAD \t\t\t_[i] = isForBank\\r\\n   \n      PUSH [tag] 623\t\t\t_[i] = isForBank\\r\\n   \n      SWAP1 \t\t\t_[i] = isForBank\\r\\n   \n      PUSH [tag] 113\t\t\t_[i] = isForBank\\r\\n   \n      JUMP \t\t\t_[i] = isForBank\\r\\n   \n    tag 623\t\t\t_[i] = isForBank\\r\\n   \n      JUMPDEST \t\t\t_[i] = isForBank\\r\\n   \n      DUP1 \t\t\t_[i] = isForBank\\r\\n   \n      PUSH 1F\t\t\t_[i] = isForBank\\r\\n   \n      ADD \t\t\t_[i] = isForBank\\r\\n   \n      PUSH 20\t\t\t_[i] = isForBank\\r\\n   \n      DUP1 \t\t\t_[i] = isForBank\\r\\n   \n      SWAP2 \t\t\t_[i] = isForBank\\r\\n   \n      DIV \t\t\t_[i] = isForBank\\r\\n   \n      MUL \t\t\t_[i] = isForBank\\r\\n   \n      PUSH 20\t\t\t_[i] = isForBank\\r\\n   \n      ADD \t\t\t_[i] = isForBank\\r\\n   \n      PUSH 40\t\t\t_[i] = isForBank\\r\\n   \n      MLOAD \t\t\t_[i] = isForBank\\r\\n   \n      SWAP1 \t\t\t_[i] = isForBank\\r\\n   \n      DUP2 \t\t\t_[i] = isForBank\\r\\n   \n      ADD \t\t\t_[i] = isForBank\\r\\n   \n      PUSH 40\t\t\t_[i] = isForBank\\r\\n   \n      MSTORE \t\t\t_[i] = isForBank\\r\\n   \n      DUP1 \t\t\t_[i] = isForBank\\r\\n   \n      SWAP3 \t\t\t_[i] = isForBank\\r\\n   \n      SWAP2 \t\t\t_[i] = isForBank\\r\\n   \n      SWAP1 \t\t\t_[i] = isForBank\\r\\n   \n      DUP2 \t\t\t_[i] = isForBank\\r\\n   \n      DUP2 \t\t\t_[i] = isForBank\\r\\n   \n      MSTORE \t\t\t_[i] = isForBank\\r\\n   \n      PUSH 20\t\t\t_[i] = isForBank\\r\\n   \n      ADD \t\t\t_[i] = isForBank\\r\\n   \n      DUP3 \t\t\t_[i] = isForBank\\r\\n   \n      DUP1 \t\t\t_[i] = isForBank\\r\\n   \n      SLOAD \t\t\t_[i] = isForBank\\r\\n   \n      PUSH [tag] 624\t\t\t_[i] = isForBank\\r\\n   \n      SWAP1 \t\t\t_[i] = isForBank\\r\\n   \n      PUSH [tag] 113\t\t\t_[i] = isForBank\\r\\n   \n      JUMP \t\t\t_[i] = isForBank\\r\\n   \n    tag 624\t\t\t_[i] = isForBank\\r\\n   \n      JUMPDEST \t\t\t_[i] = isForBank\\r\\n   \n      DUP1 \t\t\t_[i] = isForBank\\r\\n   \n      ISZERO \t\t\t_[i] = isForBank\\r\\n   \n      PUSH [tag] 625\t\t\t_[i] = isForBank\\r\\n   \n      JUMPI \t\t\t_[i] = isForBank\\r\\n   \n      DUP1 \t\t\t_[i] = isForBank\\r\\n   \n      PUSH 1F\t\t\t_[i] = isForBank\\r\\n   \n      LT \t\t\t_[i] = isForBank\\r\\n   \n      PUSH [tag] 626\t\t\t_[i] = isForBank\\r\\n   \n      JUMPI \t\t\t_[i] = isForBank\\r\\n   \n      PUSH 100\t\t\t_[i] = isForBank\\r\\n   \n      DUP1 \t\t\t_[i] = isForBank\\r\\n   \n      DUP4 \t\t\t_[i] = isForBank\\r\\n   \n      SLOAD \t\t\t_[i] = isForBank\\r\\n   \n      DIV \t\t\t_[i] = isForBank\\r\\n   \n      MUL \t\t\t_[i] = isForBank\\r\\n   \n      DUP4 \t\t\t_[i] = isForBank\\r\\n   \n      MSTORE \t\t\t_[i] = isForBank\\r\\n   \n      SWAP2 \t\t\t_[i] = isForBank\\r\\n   \n      PUSH 20\t\t\t_[i] = isForBank\\r\\n   \n      ADD \t\t\t_[i] = isForBank\\r\\n   \n      SWAP2 \t\t\t_[i] = isForBank\\r\\n   \n      PUSH [tag] 625\t\t\t_[i] = isForBank\\r\\n   \n      JUMP \t\t\t_[i] = isForBank\\r\\n   \n    tag 626\t\t\t_[i] = isForBank\\r\\n   \n      JUMPDEST \t\t\t_[i] = isForBank\\r\\n   \n      DUP3 \t\t\t_[i] = isForBank\\r\\n   \n      ADD \t\t\t_[i] = isForBank\\r\\n   \n      SWAP2 \t\t\t_[i] = isForBank\\r\\n   \n      SWAP1 \t\t\t_[i] = isForBank\\r\\n   \n      PUSH 0\t\t\t_[i] = isForBank\\r\\n   \n      MSTORE \t\t\t_[i] = isForBank\\r\\n   \n      PUSH 20\t\t\t_[i] = isForBank\\r\\n   \n      PUSH 0\t\t\t_[i] = isForBank\\r\\n   \n      KECCAK256 \t\t\t_[i] = isForBank\\r\\n   \n      SWAP1 \t\t\t_[i] = isForBank\\r\\n   \n    tag 627\t\t\t_[i] = isForBank\\r\\n   \n      JUMPDEST \t\t\t_[i] = isForBank\\r\\n   \n      DUP2 \t\t\t_[i] = isForBank\\r\\n   \n      SLOAD \t\t\t_[i] = isForBank\\r\\n   \n      DUP2 \t\t\t_[i] = isForBank\\r\\n   \n      MSTORE \t\t\t_[i] = isForBank\\r\\n   \n      SWAP1 \t\t\t_[i] = isForBank\\r\\n   \n      PUSH 1\t\t\t_[i] = isForBank\\r\\n   \n      ADD \t\t\t_[i] = isForBank\\r\\n   \n      SWAP1 \t\t\t_[i] = isForBank\\r\\n   \n      PUSH 20\t\t\t_[i] = isForBank\\r\\n   \n      ADD \t\t\t_[i] = isForBank\\r\\n   \n      DUP1 \t\t\t_[i] = isForBank\\r\\n   \n      DUP4 \t\t\t_[i] = isForBank\\r\\n   \n      GT \t\t\t_[i] = isForBank\\r\\n   \n      PUSH [tag] 627\t\t\t_[i] = isForBank\\r\\n   \n      JUMPI \t\t\t_[i] = isForBank\\r\\n   \n      DUP3 \t\t\t_[i] = isForBank\\r\\n   \n      SWAP1 \t\t\t_[i] = isForBank\\r\\n   \n      SUB \t\t\t_[i] = isForBank\\r\\n   \n      PUSH 1F\t\t\t_[i] = isForBank\\r\\n   \n      AND \t\t\t_[i] = isForBank\\r\\n   \n      DUP3 \t\t\t_[i] = isForBank\\r\\n   \n      ADD \t\t\t_[i] = isForBank\\r\\n   \n      SWAP2 \t\t\t_[i] = isForBank\\r\\n   \n    tag 625\t\t\t_[i] = isForBank\\r\\n   \n      JUMPDEST \t\t\t_[i] = isForBank\\r\\n   \n      POP \t\t\t_[i] = isForBank\\r\\n   \n      POP \t\t\t_[i] = isForBank\\r\\n   \n      POP \t\t\t_[i] = isForBank\\r\\n   \n      POP \t\t\t_[i] = isForBank\\r\\n   \n      POP \t\t\t_[i] = isForBank\\r\\n   \n      DUP2 \t\t\t_[i] = isForBank\\r\\n   \n      MSTORE \t\t\t_[i] = isForBank\\r\\n   \n      PUSH 20\t\t\t_[i] = isForBank\\r\\n   \n      ADD \t\t\t_[i] = isForBank\\r\\n   \n      PUSH 1\t\t\t_[i] = isForBank\\r\\n   \n      DUP3 \t\t\t_[i] = isForBank\\r\\n   \n      ADD \t\t\t_[i] = isForBank\\r\\n   \n      DUP1 \t\t\t_[i] = isForBank\\r\\n   \n      SLOAD \t\t\t_[i] = isForBank\\r\\n   \n      PUSH [tag] 628\t\t\t_[i] = isForBank\\r\\n   \n      SWAP1 \t\t\t_[i] = isForBank\\r\\n   \n      PUSH [tag] 113\t\t\t_[i] = isForBank\\r\\n   \n      JUMP \t\t\t_[i] = isForBank\\r\\n   \n    tag 628\t\t\t_[i] = isForBank\\r\\n   \n      JUMPDEST \t\t\t_[i] = isForBank\\r\\n   \n      DUP1 \t\t\t_[i] = isForBank\\r\\n   \n      PUSH 1F\t\t\t_[i] = isForBank\\r\\n   \n      ADD \t\t\t_[i] = isForBank\\r\\n   \n      PUSH 20\t\t\t_[i] = isForBank\\r\\n   \n      DUP1 \t\t\t_[i] = isForBank\\r\\n   \n      SWAP2 \t\t\t_[i] = isForBank\\r\\n   \n      DIV \t\t\t_[i] = isForBank\\r\\n   \n      MUL \t\t\t_[i] = isForBank\\r\\n   \n      PUSH 20\t\t\t_[i] = isForBank\\r\\n   \n      ADD \t\t\t_[i] = isForBank\\r\\n   \n      PUSH 40\t\t\t_[i] = isForBank\\r\\n   \n      MLOAD \t\t\t_[i] = isForBank\\r\\n   \n      SWAP1 \t\t\t_[i] = isForBank\\r\\n   \n      DUP2 \t\t\t_[i] = isForBank\\r\\n   \n      ADD \t\t\t_[i] = isForBank\\r\\n   \n      PUSH 40\t\t\t_[i] = isForBank\\r\\n   \n      MSTORE \t\t\t_[i] = isForBank\\r\\n   \n      DUP1 \t\t\t_[i] = isForBank\\r\\n   \n      SWAP3 \t\t\t_[i] = isForBank\\r\\n   \n      SWAP2 \t\t\t_[i] = isForBank\\r\\n   \n      SWAP1 \t\t\t_[i] = isForBank\\r\\n   \n      DUP2 \t\t\t_[i] = isForBank\\r\\n   \n      DUP2 \t\t\t_[i] = isForBank\\r\\n   \n      MSTORE \t\t\t_[i] = isForBank\\r\\n   \n      PUSH 20\t\t\t_[i] = isForBank\\r\\n   \n      ADD \t\t\t_[i] = isForBank\\r\\n   \n      DUP3 \t\t\t_[i] = isForBank\\r\\n   \n      DUP1 \t\t\t_[i] = isForBank\\r\\n   \n      SLOAD \t\t\t_[i] = isForBank\\r\\n   \n      PUSH [tag] 629\t\t\t_[i] = isForBank\\r\\n   \n      SWAP1 \t\t\t_[i] = isForBank\\r\\n   \n      PUSH [tag] 113\t\t\t_[i] = isForBank\\r\\n   \n      JUMP \t\t\t_[i] = isForBank\\r\\n   \n    tag 629\t\t\t_[i] = isForBank\\r\\n   \n      JUMPDEST \t\t\t_[i] = isForBank\\r\\n   \n      DUP1 \t\t\t_[i] = isForBank\\r\\n   \n      ISZERO \t\t\t_[i] = isForBank\\r\\n   \n      PUSH [tag] 630\t\t\t_[i] = isForBank\\r\\n   \n      JUMPI \t\t\t_[i] = isForBank\\r\\n   \n      DUP1 \t\t\t_[i] = isForBank\\r\\n   \n      PUSH 1F\t\t\t_[i] = isForBank\\r\\n   \n      LT \t\t\t_[i] = isForBank\\r\\n   \n      PUSH [tag] 631\t\t\t_[i] = isForBank\\r\\n   \n      JUMPI \t\t\t_[i] = isForBank\\r\\n   \n      PUSH 100\t\t\t_[i] = isForBank\\r\\n   \n      DUP1 \t\t\t_[i] = isForBank\\r\\n   \n      DUP4 \t\t\t_[i] = isForBank\\r\\n   \n      SLOAD \t\t\t_[i] = isForBank\\r\\n   \n      DIV \t\t\t_[i] = isForBank\\r\\n   \n      MUL \t\t\t_[i] = isForBank\\r\\n   \n      DUP4 \t\t\t_[i] = isForBank\\r\\n   \n      MSTORE \t\t\t_[i] = isForBank\\r\\n   \n      SWAP2 \t\t\t_[i] = isForBank\\r\\n   \n      PUSH 20\t\t\t_[i] = isForBank\\r\\n   \n      ADD \t\t\t_[i] = isForBank\\r\\n   \n      SWAP2 \t\t\t_[i] = isForBank\\r\\n   \n      PUSH [tag] 630\t\t\t_[i] = isForBank\\r\\n   \n      JUMP \t\t\t_[i] = isForBank\\r\\n   \n    tag 631\t\t\t_[i] = isForBank\\r\\n   \n      JUMPDEST \t\t\t_[i] = isForBank\\r\\n   \n      DUP3 \t\t\t_[i] = isForBank\\r\\n   \n      ADD \t\t\t_[i] = isForBank\\r\\n   \n      SWAP2 \t\t\t_[i] = isForBank\\r\\n   \n      SWAP1 \t\t\t_[i] = isForBank\\r\\n   \n      PUSH 0\t\t\t_[i] = isForBank\\r\\n   \n      MSTORE \t\t\t_[i] = isForBank\\r\\n   \n      PUSH 20\t\t\t_[i] = isForBank\\r\\n   \n      PUSH 0\t\t\t_[i] = isForBank\\r\\n   \n      KECCAK256 \t\t\t_[i] = isForBank\\r\\n   \n      SWAP1 \t\t\t_[i] = isForBank\\r\\n   \n    tag 632\t\t\t_[i] = isForBank\\r\\n   \n      JUMPDEST \t\t\t_[i] = isForBank\\r\\n   \n      DUP2 \t\t\t_[i] = isForBank\\r\\n   \n      SLOAD \t\t\t_[i] = isForBank\\r\\n   \n      DUP2 \t\t\t_[i] = isForBank\\r\\n   \n      MSTORE \t\t\t_[i] = isForBank\\r\\n   \n      SWAP1 \t\t\t_[i] = isForBank\\r\\n   \n      PUSH 1\t\t\t_[i] = isForBank\\r\\n   \n      ADD \t\t\t_[i] = isForBank\\r\\n   \n      SWAP1 \t\t\t_[i] = isForBank\\r\\n   \n      PUSH 20\t\t\t_[i] = isForBank\\r\\n   \n      ADD \t\t\t_[i] = isForBank\\r\\n   \n      DUP1 \t\t\t_[i] = isForBank\\r\\n   \n      DUP4 \t\t\t_[i] = isForBank\\r\\n   \n      GT \t\t\t_[i] = isForBank\\r\\n   \n      PUSH [tag] 632\t\t\t_[i] = isForBank\\r\\n   \n      JUMPI \t\t\t_[i] = isForBank\\r\\n   \n      DUP3 \t\t\t_[i] = isForBank\\r\\n   \n      SWAP1 \t\t\t_[i] = isForBank\\r\\n   \n      SUB \t\t\t_[i] = isForBank\\r\\n   \n      PUSH 1F\t\t\t_[i] = isForBank\\r\\n   \n      AND \t\t\t_[i] = isForBank\\r\\n   \n      DUP3 \t\t\t_[i] = isForBank\\r\\n   \n      ADD \t\t\t_[i] = isForBank\\r\\n   \n      SWAP2 \t\t\t_[i] = isForBank\\r\\n   \n    tag 630\t\t\t_[i] = isForBank\\r\\n   \n      JUMPDEST \t\t\t_[i] = isForBank\\r\\n   \n      POP \t\t\t_[i] = isForBank\\r\\n   \n      POP \t\t\t_[i] = isForBank\\r\\n   \n      POP \t\t\t_[i] = isForBank\\r\\n   \n      POP \t\t\t_[i] = isForBank\\r\\n   \n      POP \t\t\t_[i] = isForBank\\r\\n   \n      DUP2 \t\t\t_[i] = isForBank\\r\\n   \n      MSTORE \t\t\t_[i] = isForBank\\r\\n   \n      PUSH 20\t\t\t_[i] = isForBank\\r\\n   \n      ADD \t\t\t_[i] = isForBank\\r\\n   \n      PUSH 2\t\t\t_[i] = isForBank\\r\\n   \n      DUP3 \t\t\t_[i] = isForBank\\r\\n   \n      ADD \t\t\t_[i] = isForBank\\r\\n   \n      SLOAD \t\t\t_[i] = isForBank\\r\\n   \n      DUP2 \t\t\t_[i] = isForBank\\r\\n   \n      MSTORE \t\t\t_[i] = isForBank\\r\\n   \n      PUSH 20\t\t\t_[i] = isForBank\\r\\n   \n      ADD \t\t\t_[i] = isForBank\\r\\n   \n      PUSH 3\t\t\t_[i] = isForBank\\r\\n   \n      DUP3 \t\t\t_[i] = isForBank\\r\\n   \n      ADD \t\t\t_[i] = isForBank\\r\\n   \n      PUSH 0\t\t\t_[i] = isForBank\\r\\n   \n      SWAP1 \t\t\t_[i] = isForBank\\r\\n   \n      SLOAD \t\t\t_[i] = isForBank\\r\\n   \n      SWAP1 \t\t\t_[i] = isForBank\\r\\n   \n      PUSH 100\t\t\t_[i] = isForBank\\r\\n   \n      EXP \t\t\t_[i] = isForBank\\r\\n   \n      SWAP1 \t\t\t_[i] = isForBank\\r\\n   \n      DIV \t\t\t_[i] = isForBank\\r\\n   \n      PUSH FFFFFFFFFFFFFFFFFFFFFFFFFFFFFFFFFFFFFFFF\t\t\t_[i] = isForBank\\r\\n   \n      AND \t\t\t_[i] = isForBank\\r\\n   \n      PUSH FFFFFFFFFFFFFFFFFFFFFFFFFFFFFFFFFFFFFFFF\t\t\t_[i] = isForBank\\r\\n   \n      AND \t\t\t_[i] = isForBank\\r\\n   \n      PUSH FFFFFFFFFFFFFFFFFFFFFFFFFFFFFFFFFFFFFFFF\t\t\t_[i] = isForBank\\r\\n   \n      AND \t\t\t_[i] = isForBank\\r\\n   \n      DUP2 \t\t\t_[i] = isForBank\\r\\n   \n      MSTORE \t\t\t_[i] = isForBank\\r\\n   \n      PUSH 20\t\t\t_[i] = isForBank\\r\\n   \n      ADD \t\t\t_[i] = isForBank\\r\\n   \n      PUSH 4\t\t\t_[i] = isForBank\\r\\n   \n      DUP3 \t\t\t_[i] = isForBank\\r\\n   \n      ADD \t\t\t_[i] = isForBank\\r\\n   \n      PUSH 0\t\t\t_[i] = isForBank\\r\\n   \n      SWAP1 \t\t\t_[i] = isForBank\\r\\n   \n      SLOAD \t\t\t_[i] = isForBank\\r\\n   \n      SWAP1 \t\t\t_[i] = isForBank\\r\\n   \n      PUSH 100\t\t\t_[i] = isForBank\\r\\n   \n      EXP \t\t\t_[i] = isForBank\\r\\n   \n      SWAP1 \t\t\t_[i] = isForBank\\r\\n   \n      DIV \t\t\t_[i] = isForBank\\r\\n   \n      PUSH FFFFFFFFFFFFFFFFFFFFFFFFFFFFFFFFFFFFFFFF\t\t\t_[i] = isForBank\\r\\n   \n      AND \t\t\t_[i] = isForBank\\r\\n   \n      PUSH FFFFFFFFFFFFFFFFFFFFFFFFFFFFFFFFFFFFFFFF\t\t\t_[i] = isForBank\\r\\n   \n      AND \t\t\t_[i] = isForBank\\r\\n   \n      PUSH FFFFFFFFFFFFFFFFFFFFFFFFFFFFFFFFFFFFFFFF\t\t\t_[i] = isForBank\\r\\n   \n      AND \t\t\t_[i] = isForBank\\r\\n   \n      DUP2 \t\t\t_[i] = isForBank\\r\\n   \n      MSTORE \t\t\t_[i] = isForBank\\r\\n   \n      PUSH 20\t\t\t_[i] = isForBank\\r\\n   \n      ADD \t\t\t_[i] = isForBank\\r\\n   \n      PUSH 5\t\t\t_[i] = isForBank\\r\\n   \n      DUP3 \t\t\t_[i] = isForBank\\r\\n   \n      ADD \t\t\t_[i] = isForBank\\r\\n   \n      DUP1 \t\t\t_[i] = isForBank\\r\\n   \n      SLOAD \t\t\t_[i] = isForBank\\r\\n   \n      PUSH [tag] 633\t\t\t_[i] = isForBank\\r\\n   \n      SWAP1 \t\t\t_[i] = isForBank\\r\\n   \n      PUSH [tag] 113\t\t\t_[i] = isForBank\\r\\n   \n      JUMP \t\t\t_[i] = isForBank\\r\\n   \n    tag 633\t\t\t_[i] = isForBank\\r\\n   \n      JUMPDEST \t\t\t_[i] = isForBank\\r\\n   \n      DUP1 \t\t\t_[i] = isForBank\\r\\n   \n      PUSH 1F\t\t\t_[i] = isForBank\\r\\n   \n      ADD \t\t\t_[i] = isForBank\\r\\n   \n      PUSH 20\t\t\t_[i] = isForBank\\r\\n   \n      DUP1 \t\t\t_[i] = isForBank\\r\\n   \n      SWAP2 \t\t\t_[i] = isForBank\\r\\n   \n      DIV \t\t\t_[i] = isForBank\\r\\n   \n      MUL \t\t\t_[i] = isForBank\\r\\n   \n      PUSH 20\t\t\t_[i] = isForBank\\r\\n   \n      ADD \t\t\t_[i] = isForBank\\r\\n   \n      PUSH 40\t\t\t_[i] = isForBank\\r\\n   \n      MLOAD \t\t\t_[i] = isForBank\\r\\n   \n      SWAP1 \t\t\t_[i] = isForBank\\r\\n   \n      DUP2 \t\t\t_[i] = isForBank\\r\\n   \n      ADD \t\t\t_[i] = isForBank\\r\\n   \n      PUSH 40\t\t\t_[i] = isForBank\\r\\n   \n      MSTORE \t\t\t_[i] = isForBank\\r\\n   \n      DUP1 \t\t\t_[i] = isForBank\\r\\n   \n      SWAP3 \t\t\t_[i] = isForBank\\r\\n   \n      SWAP2 \t\t\t_[i] = isForBank\\r\\n   \n      SWAP1 \t\t\t_[i] = isForBank\\r\\n   \n      DUP2 \t\t\t_[i] = isForBank\\r\\n   \n      DUP2 \t\t\t_[i] = isForBank\\r\\n   \n      MSTORE \t\t\t_[i] = isForBank\\r\\n   \n      PUSH 20\t\t\t_[i] = isForBank\\r\\n   \n      ADD \t\t\t_[i] = isForBank\\r\\n   \n      DUP3 \t\t\t_[i] = isForBank\\r\\n   \n      DUP1 \t\t\t_[i] = isForBank\\r\\n   \n      SLOAD \t\t\t_[i] = isForBank\\r\\n   \n      PUSH [tag] 634\t\t\t_[i] = isForBank\\r\\n   \n      SWAP1 \t\t\t_[i] = isForBank\\r\\n   \n      PUSH [tag] 113\t\t\t_[i] = isForBank\\r\\n   \n      JUMP \t\t\t_[i] = isForBank\\r\\n   \n    tag 634\t\t\t_[i] = isForBank\\r\\n   \n      JUMPDEST \t\t\t_[i] = isForBank\\r\\n   \n      DUP1 \t\t\t_[i] = isForBank\\r\\n   \n      ISZERO \t\t\t_[i] = isForBank\\r\\n   \n      PUSH [tag] 635\t\t\t_[i] = isForBank\\r\\n   \n      JUMPI \t\t\t_[i] = isForBank\\r\\n   \n      DUP1 \t\t\t_[i] = isForBank\\r\\n   \n      PUSH 1F\t\t\t_[i] = isForBank\\r\\n   \n      LT \t\t\t_[i] = isForBank\\r\\n   \n      PUSH [tag] 636\t\t\t_[i] = isForBank\\r\\n   \n      JUMPI \t\t\t_[i] = isForBank\\r\\n   \n      PUSH 100\t\t\t_[i] = isForBank\\r\\n   \n      DUP1 \t\t\t_[i] = isForBank\\r\\n   \n      DUP4 \t\t\t_[i] = isForBank\\r\\n   \n      SLOAD \t\t\t_[i] = isForBank\\r\\n   \n      DIV \t\t\t_[i] = isForBank\\r\\n   \n      MUL \t\t\t_[i] = isForBank\\r\\n   \n      DUP4 \t\t\t_[i] = isForBank\\r\\n   \n      MSTORE \t\t\t_[i] = isForBank\\r\\n   \n      SWAP2 \t\t\t_[i] = isForBank\\r\\n   \n      PUSH 20\t\t\t_[i] = isForBank\\r\\n   \n      ADD \t\t\t_[i] = isForBank\\r\\n   \n      SWAP2 \t\t\t_[i] = isForBank\\r\\n   \n      PUSH [tag] 635\t\t\t_[i] = isForBank\\r\\n   \n      JUMP \t\t\t_[i] = isForBank\\r\\n   \n    tag 636\t\t\t_[i] = isForBank\\r\\n   \n      JUMPDEST \t\t\t_[i] = isForBank\\r\\n   \n      DUP3 \t\t\t_[i] = isForBank\\r\\n   \n      ADD \t\t\t_[i] = isForBank\\r\\n   \n      SWAP2 \t\t\t_[i] = isForBank\\r\\n   \n      SWAP1 \t\t\t_[i] = isForBank\\r\\n   \n      PUSH 0\t\t\t_[i] = isForBank\\r\\n   \n      MSTORE \t\t\t_[i] = isForBank\\r\\n   \n      PUSH 20\t\t\t_[i] = isForBank\\r\\n   \n      PUSH 0\t\t\t_[i] = isForBank\\r\\n   \n      KECCAK256 \t\t\t_[i] = isForBank\\r\\n   \n      SWAP1 \t\t\t_[i] = isForBank\\r\\n   \n    tag 637\t\t\t_[i] = isForBank\\r\\n   \n      JUMPDEST \t\t\t_[i] = isForBank\\r\\n   \n      DUP2 \t\t\t_[i] = isForBank\\r\\n   \n      SLOAD \t\t\t_[i] = isForBank\\r\\n   \n      DUP2 \t\t\t_[i] = isForBank\\r\\n   \n      MSTORE \t\t\t_[i] = isForBank\\r\\n   \n      SWAP1 \t\t\t_[i] = isForBank\\r\\n   \n      PUSH 1\t\t\t_[i] = isForBank\\r\\n   \n      ADD \t\t\t_[i] = isForBank\\r\\n   \n      SWAP1 \t\t\t_[i] = isForBank\\r\\n   \n      PUSH 20\t\t\t_[i] = isForBank\\r\\n   \n      ADD \t\t\t_[i] = isForBank\\r\\n   \n      DUP1 \t\t\t_[i] = isForBank\\r\\n   \n      DUP4 \t\t\t_[i] = isForBank\\r\\n   \n      GT \t\t\t_[i] = isForBank\\r\\n   \n      PUSH [tag] 637\t\t\t_[i] = isForBank\\r\\n   \n      JUMPI \t\t\t_[i] = isForBank\\r\\n   \n      DUP3 \t\t\t_[i] = isForBank\\r\\n   \n      SWAP1 \t\t\t_[i] = isForBank\\r\\n   \n      SUB \t\t\t_[i] = isForBank\\r\\n   \n      PUSH 1F\t\t\t_[i] = isForBank\\r\\n   \n      AND \t\t\t_[i] = isForBank\\r\\n   \n      DUP3 \t\t\t_[i] = isForBank\\r\\n   \n      ADD \t\t\t_[i] = isForBank\\r\\n   \n      SWAP2 \t\t\t_[i] = isForBank\\r\\n   \n    tag 635\t\t\t_[i] = isForBank\\r\\n   \n      JUMPDEST \t\t\t_[i] = isForBank\\r\\n   \n      POP \t\t\t_[i] = isForBank\\r\\n   \n      POP \t\t\t_[i] = isForBank\\r\\n   \n      POP \t\t\t_[i] = isForBank\\r\\n   \n      POP \t\t\t_[i] = isForBank\\r\\n   \n      POP \t\t\t_[i] = isForBank\\r\\n   \n      DUP2 \t\t\t_[i] = isForBank\\r\\n   \n      MSTORE \t\t\t_[i] = isForBank\\r\\n   \n      PUSH 20\t\t\t_[i] = isForBank\\r\\n   \n      ADD \t\t\t_[i] = isForBank\\r\\n   \n      PUSH 6\t\t\t_[i] = isForBank\\r\\n   \n      DUP3 \t\t\t_[i] = isForBank\\r\\n   \n      ADD \t\t\t_[i] = isForBank\\r\\n   \n      SLOAD \t\t\t_[i] = isForBank\\r\\n   \n      DUP2 \t\t\t_[i] = isForBank\\r\\n   \n      MSTORE \t\t\t_[i] = isForBank\\r\\n   \n      POP \t\t\t_[i] = isForBank\\r\\n   \n      POP \t\t\t_[i] = isForBank\\r\\n   \n      SWAP1 \t\t\t_[i] = isForBank\\r\\n   \n      POP \t\t\t_[i] = isForBank\\r\\n   \n      SWAP2 \t\t\t] memory list_ = new Types.Kyc...\n      SWAP1 \t\t\t] memory list_ = new Types.Kyc...\n      POP \t\t\t] memory list_ = new Types.Kyc...\n      JUMP \t\t\t] memory list_ = new Types.Kyc...\n    tag 143\t\t\ter][i], msg.sender)\\r\\n       ...\n      JUMPDEST \t\t\ter][i], msg.sender)\\r\\n       ...\n      PUSH [tag] 638\t\t\tevent KycRequestA\n      PUSH [tag] 126\t\t\tevent KycRequestA\n      JUMP \t\t\tevent KycRequestA\n    tag 638\t\t\tevent KycRequestA\n      JUMPDEST \t\t\tevent KycRequestA\n      PUSH 0\t\t\tg\n      PUSH FFFFFFFFFFFFFFFFFFFFFFFFFFFFFFFFFFFFFFFF\t\t\tbankName, string \n      AND \t\t\tbankName, string \n      DUP3 \t\t\tban\n      PUSH FFFFFFFFFFFFFFFFFFFFFFFFFFFFFFFFFFFFFFFF\t\t\tbankName, string \n      AND \t\t\tbankName, string \n      SUB \t\t\tbankName, string \n      PUSH [tag] 640\t\t\t string bankName, string custo...\n      JUMPI \t\t\t string bankName, string custo...\n      PUSH 40\t\t\t string bankName, string custo...\n      MLOAD \t\t\t string bankName, string custo...\n      PUSH 8C379A000000000000000000000000000000000000000000000000000000000\t\t\t string bankName, string custo...\n      DUP2 \t\t\t string bankName, string custo...\n      MSTORE \t\t\t string bankName, string custo...\n      PUSH 4\t\t\t string bankName, string custo...\n      ADD \t\t\t string bankName, string custo...\n      PUSH [tag] 641\t\t\t string bankName, string custo...\n      SWAP1 \t\t\t string bankName, string custo...\n      PUSH [tag] 642\t\t\t string bankName, string custo...\n      JUMP \t\t\t string bankName, string custo...\n    tag 641\t\t\t string bankName, string custo...\n      JUMPDEST \t\t\t string bankName, string custo...\n      PUSH 40\t\t\t string bankName, string custo...\n      MLOAD \t\t\t string bankName, string custo...\n      DUP1 \t\t\t string bankName, string custo...\n      SWAP2 \t\t\t string bankName, string custo...\n      SUB \t\t\t string bankName, string custo...\n      SWAP1 \t\t\t string bankName, string custo...\n      REVERT \t\t\t string bankName, string custo...\n    tag 640\t\t\t string bankName, string custo...\n      JUMPDEST \t\t\t string bankName, string custo...\n      PUSH 3\t\t\tsted(\n      PUSH 0\t\t\tsted(strin\n      DUP4 \t\t\ttri\n      PUSH FFFFFFFFFFFFFFFFFFFFFFFFFFFFFFFFFFFFFFFF\t\t\tsted(strin\n      AND \t\t\tsted(strin\n      PUSH FFFFFFFFFFFFFFFFFFFFFFFFFFFFFFFFFFFFFFFF\t\t\tsted(strin\n      AND \t\t\tsted(strin\n      DUP2 \t\t\tsted(strin\n      MSTORE \t\t\tsted(strin\n      PUSH 20\t\t\tsted(strin\n      ADD \t\t\tsted(strin\n      SWAP1 \t\t\tsted(strin\n      DUP2 \t\t\tsted(strin\n      MSTORE \t\t\tsted(strin\n      PUSH 20\t\t\tsted(strin\n      ADD \t\t\tsted(strin\n      PUSH 0\t\t\tsted(strin\n      KECCAK256 \t\t\tsted(strin\n      PUSH 40\t\t\tReRequested(strin\n      MLOAD \t\t\tReRequested(strin\n      DUP1 \t\t\tReRequested(strin\n      PUSH C0\t\t\tReRequested(strin\n      ADD \t\t\tReRequested(strin\n      PUSH 40\t\t\tReRequested(strin\n      MSTORE \t\t\tReRequested(strin\n      SWAP1 \t\t\tReRequested(strin\n      DUP2 \t\t\tReRequested(strin\n      PUSH 0\t\t\tReRequested(strin\n      DUP3 \t\t\tReRequested(strin\n      ADD \t\t\tReRequested(strin\n      DUP1 \t\t\tReRequested(strin\n      SLOAD \t\t\tReRequested(strin\n      PUSH [tag] 643\t\t\tReRequested(strin\n      SWAP1 \t\t\tReRequested(strin\n      PUSH [tag] 113\t\t\tReRequested(strin\n      JUMP \t\t\tReRequested(strin\n    tag 643\t\t\tReRequested(strin\n      JUMPDEST \t\t\tReRequested(strin\n      DUP1 \t\t\tReRequested(strin\n      PUSH 1F\t\t\tReRequested(strin\n      ADD \t\t\tReRequested(strin\n      PUSH 20\t\t\tReRequested(strin\n      DUP1 \t\t\tReRequested(strin\n      SWAP2 \t\t\tReRequested(strin\n      DIV \t\t\tReRequested(strin\n      MUL \t\t\tReRequested(strin\n      PUSH 20\t\t\tReRequested(strin\n      ADD \t\t\tReRequested(strin\n      PUSH 40\t\t\tReRequested(strin\n      MLOAD \t\t\tReRequested(strin\n      SWAP1 \t\t\tReRequested(strin\n      DUP2 \t\t\tReRequested(strin\n      ADD \t\t\tReRequested(strin\n      PUSH 40\t\t\tReRequested(strin\n      MSTORE \t\t\tReRequested(strin\n      DUP1 \t\t\tReRequested(strin\n      SWAP3 \t\t\tReRequested(strin\n      SWAP2 \t\t\tReRequested(strin\n      SWAP1 \t\t\tReRequested(strin\n      DUP2 \t\t\tReRequested(strin\n      DUP2 \t\t\tReRequested(strin\n      MSTORE \t\t\tReRequested(strin\n      PUSH 20\t\t\tReRequested(strin\n      ADD \t\t\tReRequested(strin\n      DUP3 \t\t\tReRequested(strin\n      DUP1 \t\t\tReRequested(strin\n      SLOAD \t\t\tReRequested(strin\n      PUSH [tag] 644\t\t\tReRequested(strin\n      SWAP1 \t\t\tReRequested(strin\n      PUSH [tag] 113\t\t\tReRequested(strin\n      JUMP \t\t\tReRequested(strin\n    tag 644\t\t\tReRequested(strin\n      JUMPDEST \t\t\tReRequested(strin\n      DUP1 \t\t\tReRequested(strin\n      ISZERO \t\t\tReRequested(strin\n      PUSH [tag] 645\t\t\tReRequested(strin\n      JUMPI \t\t\tReRequested(strin\n      DUP1 \t\t\tReRequested(strin\n      PUSH 1F\t\t\tReRequested(strin\n      LT \t\t\tReRequested(strin\n      PUSH [tag] 646\t\t\tReRequested(strin\n      JUMPI \t\t\tReRequested(strin\n      PUSH 100\t\t\tReRequested(strin\n      DUP1 \t\t\tReRequested(strin\n      DUP4 \t\t\tReRequested(strin\n      SLOAD \t\t\tReRequested(strin\n      DIV \t\t\tReRequested(strin\n      MUL \t\t\tReRequested(strin\n      DUP4 \t\t\tReRequested(strin\n      MSTORE \t\t\tReRequested(strin\n      SWAP2 \t\t\tReRequested(strin\n      PUSH 20\t\t\tReRequested(strin\n      ADD \t\t\tReRequested(strin\n      SWAP2 \t\t\tReRequested(strin\n      PUSH [tag] 645\t\t\tReRequested(strin\n      JUMP \t\t\tReRequested(strin\n    tag 646\t\t\tReRequested(strin\n      JUMPDEST \t\t\tReRequested(strin\n      DUP3 \t\t\tReRequested(strin\n      ADD \t\t\tReRequested(strin\n      SWAP2 \t\t\tReRequested(strin\n      SWAP1 \t\t\tReRequested(strin\n      PUSH 0\t\t\tReRequested(strin\n      MSTORE \t\t\tReRequested(strin\n      PUSH 20\t\t\tReRequested(strin\n      PUSH 0\t\t\tReRequested(strin\n      KECCAK256 \t\t\tReRequested(strin\n      SWAP1 \t\t\tReRequested(strin\n    tag 647\t\t\tReRequested(strin\n      JUMPDEST \t\t\tReRequested(strin\n      DUP2 \t\t\tReRequested(strin\n      SLOAD \t\t\tReRequested(strin\n      DUP2 \t\t\tReRequested(strin\n      MSTORE \t\t\tReRequested(strin\n      SWAP1 \t\t\tReRequested(strin\n      PUSH 1\t\t\tReRequested(strin\n      ADD \t\t\tReRequested(strin\n      SWAP1 \t\t\tReRequested(strin\n      PUSH 20\t\t\tReRequested(strin\n      ADD \t\t\tReRequested(strin\n      DUP1 \t\t\tReRequested(strin\n      DUP4 \t\t\tReRequested(strin\n      GT \t\t\tReRequested(strin\n      PUSH [tag] 647\t\t\tReRequested(strin\n      JUMPI \t\t\tReRequested(strin\n      DUP3 \t\t\tReRequested(strin\n      SWAP1 \t\t\tReRequested(strin\n      SUB \t\t\tReRequested(strin\n      PUSH 1F\t\t\tReRequested(strin\n      AND \t\t\tReRequested(strin\n      DUP3 \t\t\tReRequested(strin\n      ADD \t\t\tReRequested(strin\n      SWAP2 \t\t\tReRequested(strin\n    tag 645\t\t\tReRequested(strin\n      JUMPDEST \t\t\tReRequested(strin\n      POP \t\t\tReRequested(strin\n      POP \t\t\tReRequested(strin\n      POP \t\t\tReRequested(strin\n      POP \t\t\tReRequested(strin\n      POP \t\t\tReRequested(strin\n      DUP2 \t\t\tReRequested(strin\n      MSTORE \t\t\tReRequested(strin\n      PUSH 20\t\t\tReRequested(strin\n      ADD \t\t\tReRequested(strin\n      PUSH 1\t\t\tReRequested(strin\n      DUP3 \t\t\tReRequested(strin\n      ADD \t\t\tReRequested(strin\n      DUP1 \t\t\tReRequested(strin\n      SLOAD \t\t\tReRequested(strin\n      PUSH [tag] 648\t\t\tReRequested(strin\n      SWAP1 \t\t\tReRequested(strin\n      PUSH [tag] 113\t\t\tReRequested(strin\n      JUMP \t\t\tReRequested(strin\n    tag 648\t\t\tReRequested(strin\n      JUMPDEST \t\t\tReRequested(strin\n      DUP1 \t\t\tReRequested(strin\n      PUSH 1F\t\t\tReRequested(strin\n      ADD \t\t\tReRequested(strin\n      PUSH 20\t\t\tReRequested(strin\n      DUP1 \t\t\tReRequested(strin\n      SWAP2 \t\t\tReRequested(strin\n      DIV \t\t\tReRequested(strin\n      MUL \t\t\tReRequested(strin\n      PUSH 20\t\t\tReRequested(strin\n      ADD \t\t\tReRequested(strin\n      PUSH 40\t\t\tReRequested(strin\n      MLOAD \t\t\tReRequested(strin\n      SWAP1 \t\t\tReRequested(strin\n      DUP2 \t\t\tReRequested(strin\n      ADD \t\t\tReRequested(strin\n      PUSH 40\t\t\tReRequested(strin\n      MSTORE \t\t\tReRequested(strin\n      DUP1 \t\t\tReRequested(strin\n      SWAP3 \t\t\tReRequested(strin\n      SWAP2 \t\t\tReRequested(strin\n      SWAP1 \t\t\tReRequested(strin\n      DUP2 \t\t\tReRequested(strin\n      DUP2 \t\t\tReRequested(strin\n      MSTORE \t\t\tReRequested(strin\n      PUSH 20\t\t\tReRequested(strin\n      ADD \t\t\tReRequested(strin\n      DUP3 \t\t\tReRequested(strin\n      DUP1 \t\t\tReRequested(strin\n      SLOAD \t\t\tReRequested(strin\n      PUSH [tag] 649\t\t\tReRequested(strin\n      SWAP1 \t\t\tReRequested(strin\n      PUSH [tag] 113\t\t\tReRequested(strin\n      JUMP \t\t\tReRequested(strin\n    tag 649\t\t\tReRequested(strin\n      JUMPDEST \t\t\tReRequested(strin\n      DUP1 \t\t\tReRequested(strin\n      ISZERO \t\t\tReRequested(strin\n      PUSH [tag] 650\t\t\tReRequested(strin\n      JUMPI \t\t\tReRequested(strin\n      DUP1 \t\t\tReRequested(strin\n      PUSH 1F\t\t\tReRequested(strin\n      LT \t\t\tReRequested(strin\n      PUSH [tag] 651\t\t\tReRequested(strin\n      JUMPI \t\t\tReRequested(strin\n      PUSH 100\t\t\tReRequested(strin\n      DUP1 \t\t\tReRequested(strin\n      DUP4 \t\t\tReRequested(strin\n      SLOAD \t\t\tReRequested(strin\n      DIV \t\t\tReRequested(strin\n      MUL \t\t\tReRequested(strin\n      DUP4 \t\t\tReRequested(strin\n      MSTORE \t\t\tReRequested(strin\n      SWAP2 \t\t\tReRequested(strin\n      PUSH 20\t\t\tReRequested(strin\n      ADD \t\t\tReRequested(strin\n      SWAP2 \t\t\tReRequested(strin\n      PUSH [tag] 650\t\t\tReRequested(strin\n      JUMP \t\t\tReRequested(strin\n    tag 651\t\t\tReRequested(strin\n      JUMPDEST \t\t\tReRequested(strin\n      DUP3 \t\t\tReRequested(strin\n      ADD \t\t\tReRequested(strin\n      SWAP2 \t\t\tReRequested(strin\n      SWAP1 \t\t\tReRequested(strin\n      PUSH 0\t\t\tReRequested(strin\n      MSTORE \t\t\tReRequested(strin\n      PUSH 20\t\t\tReRequested(strin\n      PUSH 0\t\t\tReRequested(strin\n      KECCAK256 \t\t\tReRequested(strin\n      SWAP1 \t\t\tReRequested(strin\n    tag 652\t\t\tReRequested(strin\n      JUMPDEST \t\t\tReRequested(strin\n      DUP2 \t\t\tReRequested(strin\n      SLOAD \t\t\tReRequested(strin\n      DUP2 \t\t\tReRequested(strin\n      MSTORE \t\t\tReRequested(strin\n      SWAP1 \t\t\tReRequested(strin\n      PUSH 1\t\t\tReRequested(strin\n      ADD \t\t\tReRequested(strin\n      SWAP1 \t\t\tReRequested(strin\n      PUSH 20\t\t\tReRequested(strin\n      ADD \t\t\tReRequested(strin\n      DUP1 \t\t\tReRequested(strin\n      DUP4 \t\t\tReRequested(strin\n      GT \t\t\tReRequested(strin\n      PUSH [tag] 652\t\t\tReRequested(strin\n      JUMPI \t\t\tReRequested(strin\n      DUP3 \t\t\tReRequested(strin\n      SWAP1 \t\t\tReRequested(strin\n      SUB \t\t\tReRequested(strin\n      PUSH 1F\t\t\tReRequested(strin\n      AND \t\t\tReRequested(strin\n      DUP3 \t\t\tReRequested(strin\n      ADD \t\t\tReRequested(strin\n      SWAP2 \t\t\tReRequested(strin\n    tag 650\t\t\tReRequested(strin\n      JUMPDEST \t\t\tReRequested(strin\n      POP \t\t\tReRequested(strin\n      POP \t\t\tReRequested(strin\n      POP \t\t\tReRequested(strin\n      POP \t\t\tReRequested(strin\n      POP \t\t\tReRequested(strin\n      DUP2 \t\t\tReRequested(strin\n      MSTORE \t\t\tReRequested(strin\n      PUSH 20\t\t\tReRequested(strin\n      ADD \t\t\tReRequested(strin\n      PUSH 2\t\t\tReRequested(strin\n      DUP3 \t\t\tReRequested(strin\n      ADD \t\t\tReRequested(strin\n      PUSH 0\t\t\tReRequested(strin\n      SWAP1 \t\t\tReRequested(strin\n      SLOAD \t\t\tReRequested(strin\n      SWAP1 \t\t\tReRequested(strin\n      PUSH 100\t\t\tReRequested(strin\n      EXP \t\t\tReRequested(strin\n      SWAP1 \t\t\tReRequested(strin\n      DIV \t\t\tReRequested(strin\n      PUSH FFFFFFFFFFFFFFFFFFFFFFFFFFFFFFFFFFFFFFFF\t\t\tReRequested(strin\n      AND \t\t\tReRequested(strin\n      PUSH FFFFFFFFFFFFFFFFFFFFFFFFFFFFFFFFFFFFFFFF\t\t\tReRequested(strin\n      AND \t\t\tReRequested(strin\n      PUSH FFFFFFFFFFFFFFFFFFFFFFFFFFFFFFFFFFFFFFFF\t\t\tReRequested(strin\n      AND \t\t\tReRequested(strin\n      DUP2 \t\t\tReRequested(strin\n      MSTORE \t\t\tReRequested(strin\n      PUSH 20\t\t\tReRequested(strin\n      ADD \t\t\tReRequested(strin\n      PUSH 3\t\t\tReRequested(strin\n      DUP3 \t\t\tReRequested(strin\n      ADD \t\t\tReRequested(strin\n      DUP1 \t\t\tReRequested(strin\n      SLOAD \t\t\tReRequested(strin\n      PUSH [tag] 653\t\t\tReRequested(strin\n      SWAP1 \t\t\tReRequested(strin\n      PUSH [tag] 113\t\t\tReRequested(strin\n      JUMP \t\t\tReRequested(strin\n    tag 653\t\t\tReRequested(strin\n      JUMPDEST \t\t\tReRequested(strin\n      DUP1 \t\t\tReRequested(strin\n      PUSH 1F\t\t\tReRequested(strin\n      ADD \t\t\tReRequested(strin\n      PUSH 20\t\t\tReRequested(strin\n      DUP1 \t\t\tReRequested(strin\n      SWAP2 \t\t\tReRequested(strin\n      DIV \t\t\tReRequested(strin\n      MUL \t\t\tReRequested(strin\n      PUSH 20\t\t\tReRequested(strin\n      ADD \t\t\tReRequested(strin\n      PUSH 40\t\t\tReRequested(strin\n      MLOAD \t\t\tReRequested(strin\n      SWAP1 \t\t\tReRequested(strin\n      DUP2 \t\t\tReRequested(strin\n      ADD \t\t\tReRequested(strin\n      PUSH 40\t\t\tReRequested(strin\n      MSTORE \t\t\tReRequested(strin\n      DUP1 \t\t\tReRequested(strin\n      SWAP3 \t\t\tReRequested(strin\n      SWAP2 \t\t\tReRequested(strin\n      SWAP1 \t\t\tReRequested(strin\n      DUP2 \t\t\tReRequested(strin\n      DUP2 \t\t\tReRequested(strin\n      MSTORE \t\t\tReRequested(strin\n      PUSH 20\t\t\tReRequested(strin\n      ADD \t\t\tReRequested(strin\n      DUP3 \t\t\tReRequested(strin\n      DUP1 \t\t\tReRequested(strin\n      SLOAD \t\t\tReRequested(strin\n      PUSH [tag] 654\t\t\tReRequested(strin\n      SWAP1 \t\t\tReRequested(strin\n      PUSH [tag] 113\t\t\tReRequested(strin\n      JUMP \t\t\tReRequested(strin\n    tag 654\t\t\tReRequested(strin\n      JUMPDEST \t\t\tReRequested(strin\n      DUP1 \t\t\tReRequested(strin\n      ISZERO \t\t\tReRequested(strin\n      PUSH [tag] 655\t\t\tReRequested(strin\n      JUMPI \t\t\tReRequested(strin\n      DUP1 \t\t\tReRequested(strin\n      PUSH 1F\t\t\tReRequested(strin\n      LT \t\t\tReRequested(strin\n      PUSH [tag] 656\t\t\tReRequested(strin\n      JUMPI \t\t\tReRequested(strin\n      PUSH 100\t\t\tReRequested(strin\n      DUP1 \t\t\tReRequested(strin\n      DUP4 \t\t\tReRequested(strin\n      SLOAD \t\t\tReRequested(strin\n      DIV \t\t\tReRequested(strin\n      MUL \t\t\tReRequested(strin\n      DUP4 \t\t\tReRequested(strin\n      MSTORE \t\t\tReRequested(strin\n      SWAP2 \t\t\tReRequested(strin\n      PUSH 20\t\t\tReRequested(strin\n      ADD \t\t\tReRequested(strin\n      SWAP2 \t\t\tReRequested(strin\n      PUSH [tag] 655\t\t\tReRequested(strin\n      JUMP \t\t\tReRequested(strin\n    tag 656\t\t\tReRequested(strin\n      JUMPDEST \t\t\tReRequested(strin\n      DUP3 \t\t\tReRequested(strin\n      ADD \t\t\tReRequested(strin\n      SWAP2 \t\t\tReRequested(strin\n      SWAP1 \t\t\tReRequested(strin\n      PUSH 0\t\t\tReRequested(strin\n      MSTORE \t\t\tReRequested(strin\n      PUSH 20\t\t\tReRequested(strin\n      PUSH 0\t\t\tReRequested(strin\n      KECCAK256 \t\t\tReRequested(strin\n      SWAP1 \t\t\tReRequested(strin\n    tag 657\t\t\tReRequested(strin\n      JUMPDEST \t\t\tReRequested(strin\n      DUP2 \t\t\tReRequested(strin\n      SLOAD \t\t\tReRequested(strin\n      DUP2 \t\t\tReRequested(strin\n      MSTORE \t\t\tReRequested(strin\n      SWAP1 \t\t\tReRequested(strin\n      PUSH 1\t\t\tReRequested(strin\n      ADD \t\t\tReRequested(strin\n      SWAP1 \t\t\tReRequested(strin\n      PUSH 20\t\t\tReRequested(strin\n      ADD \t\t\tReRequested(strin\n      DUP1 \t\t\tReRequested(strin\n      DUP4 \t\t\tReRequested(strin\n      GT \t\t\tReRequested(strin\n      PUSH [tag] 657\t\t\tReRequested(strin\n      JUMPI \t\t\tReRequested(strin\n      DUP3 \t\t\tReRequested(strin\n      SWAP1 \t\t\tReRequested(strin\n      SUB \t\t\tReRequested(strin\n      PUSH 1F\t\t\tReRequested(strin\n      AND \t\t\tReRequested(strin\n      DUP3 \t\t\tReRequested(strin\n      ADD \t\t\tReRequested(strin\n      SWAP2 \t\t\tReRequested(strin\n    tag 655\t\t\tReRequested(strin\n      JUMPDEST \t\t\tReRequested(strin\n      POP \t\t\tReRequested(strin\n      POP \t\t\tReRequested(strin\n      POP \t\t\tReRequested(strin\n      POP \t\t\tReRequested(strin\n      POP \t\t\tReRequested(strin\n      DUP2 \t\t\tReRequested(strin\n      MSTORE \t\t\tReRequested(strin\n      PUSH 20\t\t\tReRequested(strin\n      ADD \t\t\tReRequested(strin\n      PUSH 4\t\t\tReRequested(strin\n      DUP3 \t\t\tReRequested(strin\n      ADD \t\t\tReRequested(strin\n      PUSH 0\t\t\tReRequested(strin\n      SWAP1 \t\t\tReRequested(strin\n      SLOAD \t\t\tReRequested(strin\n      SWAP1 \t\t\tReRequested(strin\n      PUSH 100\t\t\tReRequested(strin\n      EXP \t\t\tReRequested(strin\n      SWAP1 \t\t\tReRequested(strin\n      DIV \t\t\tReRequested(strin\n      PUSH FFFF\t\t\tReRequested(strin\n      AND \t\t\tReRequested(strin\n      PUSH FFFF\t\t\tReRequested(strin\n      AND \t\t\tReRequested(strin\n      PUSH FFFF\t\t\tReRequested(strin\n      AND \t\t\tReRequested(strin\n      DUP2 \t\t\tReRequested(strin\n      MSTORE \t\t\tReRequested(strin\n      PUSH 20\t\t\tReRequested(strin\n      ADD \t\t\tReRequested(strin\n      PUSH 4\t\t\tReRequested(strin\n      DUP3 \t\t\tReRequested(strin\n      ADD \t\t\tReRequested(strin\n      PUSH 2\t\t\tReRequested(strin\n      SWAP1 \t\t\tReRequested(strin\n      SLOAD \t\t\tReRequested(strin\n      SWAP1 \t\t\tReRequested(strin\n      PUSH 100\t\t\tReRequested(strin\n      EXP \t\t\tReRequested(strin\n      SWAP1 \t\t\tReRequested(strin\n      DIV \t\t\tReRequested(strin\n      PUSH FF\t\t\tReRequested(strin\n      AND \t\t\tReRequested(strin\n      PUSH 1\t\t\tReRequested(strin\n      DUP2 \t\t\tReRequested(strin\n      GT \t\t\tReRequested(strin\n      ISZERO \t\t\tReRequested(strin\n      PUSH [tag] 658\t\t\tReRequested(strin\n      JUMPI \t\t\tReRequested(strin\n      PUSH [tag] 659\t\t\tReRequested(strin\n      PUSH [tag] 135\t\t\tReRequested(strin\n      JUMP \t\t\tReRequested(strin\n    tag 659\t\t\tReRequested(strin\n      JUMPDEST \t\t\tReRequested(strin\n    tag 658\t\t\tReRequested(strin\n      JUMPDEST \t\t\tReRequested(strin\n      PUSH 1\t\t\tReRequested(strin\n      DUP2 \t\t\tReRequested(strin\n      GT \t\t\tReRequested(strin\n      ISZERO \t\t\tReRequested(strin\n      PUSH [tag] 660\t\t\tReRequested(strin\n      JUMPI \t\t\tReRequested(strin\n      PUSH [tag] 661\t\t\tReRequested(strin\n      PUSH [tag] 135\t\t\tReRequested(strin\n      JUMP \t\t\tReRequested(strin\n    tag 661\t\t\tReRequested(strin\n      JUMPDEST \t\t\tReRequested(strin\n    tag 660\t\t\tReRequested(strin\n      JUMPDEST \t\t\tReRequested(strin\n      DUP2 \t\t\tReRequested(strin\n      MSTORE \t\t\tReRequested(strin\n      POP \t\t\tReRequested(strin\n      POP \t\t\tReRequested(strin\n      SWAP1 \t\t\tReRequested(strin\n      POP \t\t\tReRequested(strin\n      SWAP2 \t\t\ter][i], msg.sender)\\r\\n       ...\n      SWAP1 \t\t\ter][i], msg.sender)\\r\\n       ...\n      POP \t\t\ter][i], msg.sender)\\r\\n       ...\n      JUMP \t\t\ter][i], msg.sender)\\r\\n       ...\n    tag 157\t\t\t);\\r\\n    event KycReRequested...\n      JUMPDEST \t\t\t);\\r\\n    event KycReRequested...\n      PUSH 60\t\t\tvent KycStatu\n      DUP3 \t\t\t \n      DUP3 \t\t\ts\n      PUSH 40\t\t\t\\r\\n        address cust\n      MLOAD \t\t\t\\r\\n        address cust\n      PUSH 20\t\t\t\\r\\n        address cust\n      ADD \t\t\t\\r\\n        address cust\n      PUSH [tag] 663\t\t\t\\r\\n        address cust\n      SWAP3 \t\t\t\\r\\n        address cust\n      SWAP2 \t\t\t\\r\\n        address cust\n      SWAP1 \t\t\t\\r\\n        address cust\n      PUSH [tag] 664\t\t\t\\r\\n        address cust\n      JUMP \t\t\t\\r\\n        address cust\n    tag 663\t\t\t\\r\\n        address cust\n      JUMPDEST \t\t\t\\r\\n        address cust\n      PUSH 40\t\t\t\\r\\n        address cust\n      MLOAD \t\t\t\\r\\n        address cust\n      PUSH 20\t\t\t\\r\\n        address cust\n      DUP2 \t\t\t\\r\\n        address cust\n      DUP4 \t\t\t\\r\\n        address cust\n      SUB \t\t\t\\r\\n        address cust\n      SUB \t\t\t\\r\\n        address cust\n      DUP2 \t\t\t\\r\\n        address cust\n      MSTORE \t\t\t\\r\\n        address cust\n      SWAP1 \t\t\t\\r\\n        address cust\n      PUSH 40\t\t\t\\r\\n        address cust\n      MSTORE \t\t\t\\r\\n        address cust\n      SWAP1 \t\t\t string reqId,\\r\\n        addr...\n      POP \t\t\t string reqId,\\r\\n        addr...\n      SWAP3 \t\t\t);\\r\\n    event KycReRequested...\n      SWAP2 \t\t\t);\\r\\n    event KycReRequested...\n      POP \t\t\t);\\r\\n    event KycReRequested...\n      POP \t\t\t);\\r\\n    event KycReRequested...\n      JUMP \t\t\t);\\r\\n    event KycReRequested...\n    tag 159\t\t\tfunction kycRequestExists(stri...\n      JUMPDEST \t\t\tfunction kycRequestExists(stri...\n      PUSH 0\t\t\tbool\n      PUSH [tag] 666\t\t\tHelpers.compareStrings(reqId_,...\n      DUP3 \t\t\treqId_\n      PUSH 40\t\t\tHelpers.compareStrings(reqId_,...\n      MLOAD \t\t\tHelpers.compareStrings(reqId_,...\n      DUP1 \t\t\tHelpers.compareStrings(reqId_,...\n      PUSH 20\t\t\tHelpers.compareStrings(reqId_,...\n      ADD \t\t\tHelpers.compareStrings(reqId_,...\n      PUSH 40\t\t\tHelpers.compareStrings(reqId_,...\n      MSTORE \t\t\tHelpers.compareStrings(reqId_,...\n      DUP1 \t\t\tHelpers.compareStrings(reqId_,...\n      PUSH 0\t\t\tHelpers.compareStrings(reqId_,...\n      DUP2 \t\t\tHelpers.compareStrings(reqId_,...\n      MSTORE \t\t\tHelpers.compareStrings(reqId_,...\n      POP \t\t\tHelpers.compareStrings(reqId_,...\n      PUSH [tag] 118\t\t\tHelpers.compareStrings\n      JUMP \t\t\tHelpers.compareStrings(reqId_,...\n    tag 666\t\t\tHelpers.compareStrings(reqId_,...\n      JUMPDEST \t\t\tHelpers.compareStrings(reqId_,...\n      ISZERO \t\t\t!Helpers.compareStrings(reqId_...\n      PUSH [tag] 667\t\t\trequire(!Helpers.compareString...\n      JUMPI \t\t\trequire(!Helpers.compareString...\n      PUSH 40\t\t\trequire(!Helpers.compareString...\n      MLOAD \t\t\trequire(!Helpers.compareString...\n      PUSH 8C379A000000000000000000000000000000000000000000000000000000000\t\t\trequire(!Helpers.compareString...\n      DUP2 \t\t\trequire(!Helpers.compareString...\n      MSTORE \t\t\trequire(!Helpers.compareString...\n      PUSH 4\t\t\trequire(!Helpers.compareString...\n      ADD \t\t\trequire(!Helpers.compareString...\n      PUSH [tag] 668\t\t\trequire(!Helpers.compareString...\n      SWAP1 \t\t\trequire(!Helpers.compareString...\n      PUSH [tag] 669\t\t\trequire(!Helpers.compareString...\n      JUMP \t\t\trequire(!Helpers.compareString...\n    tag 668\t\t\trequire(!Helpers.compareString...\n      JUMPDEST \t\t\trequire(!Helpers.compareString...\n      PUSH 40\t\t\trequire(!Helpers.compareString...\n      MLOAD \t\t\trequire(!Helpers.compareString...\n      DUP1 \t\t\trequire(!Helpers.compareString...\n      SWAP2 \t\t\trequire(!Helpers.compareString...\n      SUB \t\t\trequire(!Helpers.compareString...\n      SWAP1 \t\t\trequire(!Helpers.compareString...\n      REVERT \t\t\trequire(!Helpers.compareString...\n    tag 667\t\t\trequire(!Helpers.compareString...\n      JUMPDEST \t\t\trequire(!Helpers.compareString...\n      PUSH [tag] 670\t\t\tHelpers.compareStrings(kycRequ...\n      PUSH 7\t\t\tkycRequests\n      DUP4 \t\t\treqId_\n      PUSH 40\t\t\tkycRequests[reqId_]\n      MLOAD \t\t\tkycRequests[reqId_]\n      PUSH [tag] 671\t\t\tkycRequests[reqId_]\n      SWAP2 \t\t\tkycRequests[reqId_]\n      SWAP1 \t\t\tkycRequests[reqId_]\n      PUSH [tag] 169\t\t\tkycRequests[reqId_]\n      JUMP \t\t\tkycRequests[reqId_]\n    tag 671\t\t\tkycRequests[reqId_]\n      JUMPDEST \t\t\tkycRequests[reqId_]\n      SWAP1 \t\t\tkycRequests[reqId_]\n      DUP2 \t\t\tkycRequests[reqId_]\n      MSTORE \t\t\tkycRequests[reqId_]\n      PUSH 20\t\t\tkycRequests[reqId_]\n      ADD \t\t\tkycRequests[reqId_]\n      PUSH 40\t\t\tkycRequests[reqId_]\n      MLOAD \t\t\tkycRequests[reqId_]\n      DUP1 \t\t\tkycRequests[reqId_]\n      SWAP2 \t\t\tkycRequests[reqId_]\n      SUB \t\t\tkycRequests[reqId_]\n      SWAP1 \t\t\tkycRequests[reqId_]\n      KECCAK256 \t\t\tkycRequests[reqId_]\n      PUSH 0\t\t\tkycRequests[reqId_].id_\n      ADD \t\t\tkycRequests[reqId_].id_\n      DUP1 \t\t\tHelpers.compareStrings(kycRequ...\n      SLOAD \t\t\tHelpers.compareStrings(kycRequ...\n      PUSH [tag] 672\t\t\tHelpers.compareStrings(kycRequ...\n      SWAP1 \t\t\tHelpers.compareStrings(kycRequ...\n      PUSH [tag] 113\t\t\tHelpers.compareStrings(kycRequ...\n      JUMP \t\t\tHelpers.compareStrings(kycRequ...\n    tag 672\t\t\tHelpers.compareStrings(kycRequ...\n      JUMPDEST \t\t\tHelpers.compareStrings(kycRequ...\n      DUP1 \t\t\tHelpers.compareStrings(kycRequ...\n      PUSH 1F\t\t\tHelpers.compareStrings(kycRequ...\n      ADD \t\t\tHelpers.compareStrings(kycRequ...\n      PUSH 20\t\t\tHelpers.compareStrings(kycRequ...\n      DUP1 \t\t\tHelpers.compareStrings(kycRequ...\n      SWAP2 \t\t\tHelpers.compareStrings(kycRequ...\n      DIV \t\t\tHelpers.compareStrings(kycRequ...\n      MUL \t\t\tHelpers.compareStrings(kycRequ...\n      PUSH 20\t\t\tHelpers.compareStrings(kycRequ...\n      ADD \t\t\tHelpers.compareStrings(kycRequ...\n      PUSH 40\t\t\tHelpers.compareStrings(kycRequ...\n      MLOAD \t\t\tHelpers.compareStrings(kycRequ...\n      SWAP1 \t\t\tHelpers.compareStrings(kycRequ...\n      DUP2 \t\t\tHelpers.compareStrings(kycRequ...\n      ADD \t\t\tHelpers.compareStrings(kycRequ...\n      PUSH 40\t\t\tHelpers.compareStrings(kycRequ...\n      MSTORE \t\t\tHelpers.compareStrings(kycRequ...\n      DUP1 \t\t\tHelpers.compareStrings(kycRequ...\n      SWAP3 \t\t\tHelpers.compareStrings(kycRequ...\n      SWAP2 \t\t\tHelpers.compareStrings(kycRequ...\n      SWAP1 \t\t\tHelpers.compareStrings(kycRequ...\n      DUP2 \t\t\tHelpers.compareStrings(kycRequ...\n      DUP2 \t\t\tHelpers.compareStrings(kycRequ...\n      MSTORE \t\t\tHelpers.compareStrings(kycRequ...\n      PUSH 20\t\t\tHelpers.compareStrings(kycRequ...\n      ADD \t\t\tHelpers.compareStrings(kycRequ...\n      DUP3 \t\t\tHelpers.compareStrings(kycRequ...\n      DUP1 \t\t\tHelpers.compareStrings(kycRequ...\n      SLOAD \t\t\tHelpers.compareStrings(kycRequ...\n      PUSH [tag] 673\t\t\tHelpers.compareStrings(kycRequ...\n      SWAP1 \t\t\tHelpers.compareStrings(kycRequ...\n      PUSH [tag] 113\t\t\tHelpers.compareStrings(kycRequ...\n      JUMP \t\t\tHelpers.compareStrings(kycRequ...\n    tag 673\t\t\tHelpers.compareStrings(kycRequ...\n      JUMPDEST \t\t\tHelpers.compareStrings(kycRequ...\n      DUP1 \t\t\tHelpers.compareStrings(kycRequ...\n      ISZERO \t\t\tHelpers.compareStrings(kycRequ...\n      PUSH [tag] 674\t\t\tHelpers.compareStrings(kycRequ...\n      JUMPI \t\t\tHelpers.compareStrings(kycRequ...\n      DUP1 \t\t\tHelpers.compareStrings(kycRequ...\n      PUSH 1F\t\t\tHelpers.compareStrings(kycRequ...\n      LT \t\t\tHelpers.compareStrings(kycRequ...\n      PUSH [tag] 675\t\t\tHelpers.compareStrings(kycRequ...\n      JUMPI \t\t\tHelpers.compareStrings(kycRequ...\n      PUSH 100\t\t\tHelpers.compareStrings(kycRequ...\n      DUP1 \t\t\tHelpers.compareStrings(kycRequ...\n      DUP4 \t\t\tHelpers.compareStrings(kycRequ...\n      SLOAD \t\t\tHelpers.compareStrings(kycRequ...\n      DIV \t\t\tHelpers.compareStrings(kycRequ...\n      MUL \t\t\tHelpers.compareStrings(kycRequ...\n      DUP4 \t\t\tHelpers.compareStrings(kycRequ...\n      MSTORE \t\t\tHelpers.compareStrings(kycRequ...\n      SWAP2 \t\t\tHelpers.compareStrings(kycRequ...\n      PUSH 20\t\t\tHelpers.compareStrings(kycRequ...\n      ADD \t\t\tHelpers.compareStrings(kycRequ...\n      SWAP2 \t\t\tHelpers.compareStrings(kycRequ...\n      PUSH [tag] 674\t\t\tHelpers.compareStrings(kycRequ...\n      JUMP \t\t\tHelpers.compareStrings(kycRequ...\n    tag 675\t\t\tHelpers.compareStrings(kycRequ...\n      JUMPDEST \t\t\tHelpers.compareStrings(kycRequ...\n      DUP3 \t\t\tHelpers.compareStrings(kycRequ...\n      ADD \t\t\tHelpers.compareStrings(kycRequ...\n      SWAP2 \t\t\tHelpers.compareStrings(kycRequ...\n      SWAP1 \t\t\tHelpers.compareStrings(kycRequ...\n      PUSH 0\t\t\tHelpers.compareStrings(kycRequ...\n      MSTORE \t\t\tHelpers.compareStrings(kycRequ...\n      PUSH 20\t\t\tHelpers.compareStrings(kycRequ...\n      PUSH 0\t\t\tHelpers.compareStrings(kycRequ...\n      KECCAK256 \t\t\tHelpers.compareStrings(kycRequ...\n      SWAP1 \t\t\tHelpers.compareStrings(kycRequ...\n    tag 676\t\t\tHelpers.compareStrings(kycRequ...\n      JUMPDEST \t\t\tHelpers.compareStrings(kycRequ...\n      DUP2 \t\t\tHelpers.compareStrings(kycRequ...\n      SLOAD \t\t\tHelpers.compareStrings(kycRequ...\n      DUP2 \t\t\tHelpers.compareStrings(kycRequ...\n      MSTORE \t\t\tHelpers.compareStrings(kycRequ...\n      SWAP1 \t\t\tHelpers.compareStrings(kycRequ...\n      PUSH 1\t\t\tHelpers.compareStrings(kycRequ...\n      ADD \t\t\tHelpers.compareStrings(kycRequ...\n      SWAP1 \t\t\tHelpers.compareStrings(kycRequ...\n      PUSH 20\t\t\tHelpers.compareStrings(kycRequ...\n      ADD \t\t\tHelpers.compareStrings(kycRequ...\n      DUP1 \t\t\tHelpers.compareStrings(kycRequ...\n      DUP4 \t\t\tHelpers.compareStrings(kycRequ...\n      GT \t\t\tHelpers.compareStrings(kycRequ...\n      PUSH [tag] 676\t\t\tHelpers.compareStrings(kycRequ...\n      JUMPI \t\t\tHelpers.compareStrings(kycRequ...\n      DUP3 \t\t\tHelpers.compareStrings(kycRequ...\n      SWAP1 \t\t\tHelpers.compareStrings(kycRequ...\n      SUB \t\t\tHelpers.compareStrings(kycRequ...\n      PUSH 1F\t\t\tHelpers.compareStrings(kycRequ...\n      AND \t\t\tHelpers.compareStrings(kycRequ...\n      DUP3 \t\t\tHelpers.compareStrings(kycRequ...\n      ADD \t\t\tHelpers.compareStrings(kycRequ...\n      SWAP2 \t\t\tHelpers.compareStrings(kycRequ...\n    tag 674\t\t\tHelpers.compareStrings(kycRequ...\n      JUMPDEST \t\t\tHelpers.compareStrings(kycRequ...\n      POP \t\t\tHelpers.compareStrings(kycRequ...\n      POP \t\t\tHelpers.compareStrings(kycRequ...\n      POP \t\t\tHelpers.compareStrings(kycRequ...\n      POP \t\t\tHelpers.compareStrings(kycRequ...\n      POP \t\t\tHelpers.compareStrings(kycRequ...\n      DUP4 \t\t\treqId_\n      PUSH [tag] 118\t\t\tHelpers.compareStrings\n      JUMP \t\t\tHelpers.compareStrings(kycRequ...\n    tag 670\t\t\tHelpers.compareStrings(kycRequ...\n      JUMPDEST \t\t\tHelpers.compareStrings(kycRequ...\n      SWAP1 \t\t\treturn Helpers.compareStrings(...\n      POP \t\t\treturn Helpers.compareStrings(...\n      SWAP2 \t\t\tfunction kycRequestExists(stri...\n      SWAP1 \t\t\tfunction kycRequestExists(stri...\n      POP \t\t\tfunction kycRequestExists(stri...\n      JUMP \t\t\tfunction kycRequestExists(stri...\n    tag 164\t\t\t isForBank)\\r\\n        interna...\n      JUMPDEST \t\t\t isForBank)\\r\\n        interna...\n      PUSH 0\t\t\t (uint256 to\n      DUP1 \t\t\t\\r\n      PUSH FFFFFFFFFFFFFFFFFFFFFFFFFFFFFFFFFFFFFFFF\t\t\tquest[] memory)\\r\\n\n      AND \t\t\tquest[] memory)\\r\\n\n      DUP3 \t\t\tque\n      PUSH FFFFFFFFFFFFFFFFFFFFFFFFFFFFFFFFFFFFFFFF\t\t\tquest[] memory)\\r\\n\n      AND \t\t\tquest[] memory)\\r\\n\n      SUB \t\t\tquest[] memory)\\r\\n\n      PUSH [tag] 678\t\t\tes.KycRequest[] memory)\\r\\n   ...\n      JUMPI \t\t\tes.KycRequest[] memory)\\r\\n   ...\n      PUSH 40\t\t\tes.KycRequest[] memory)\\r\\n   ...\n      MLOAD \t\t\tes.KycRequest[] memory)\\r\\n   ...\n      PUSH 8C379A000000000000000000000000000000000000000000000000000000000\t\t\tes.KycRequest[] memory)\\r\\n   ...\n      DUP2 \t\t\tes.KycRequest[] memory)\\r\\n   ...\n      MSTORE \t\t\tes.KycRequest[] memory)\\r\\n   ...\n      PUSH 4\t\t\tes.KycRequest[] memory)\\r\\n   ...\n      ADD \t\t\tes.KycRequest[] memory)\\r\\n   ...\n      PUSH [tag] 679\t\t\tes.KycRequest[] memory)\\r\\n   ...\n      SWAP1 \t\t\tes.KycRequest[] memory)\\r\\n   ...\n      PUSH [tag] 680\t\t\tes.KycRequest[] memory)\\r\\n   ...\n      JUMP \t\t\tes.KycRequest[] memory)\\r\\n   ...\n    tag 679\t\t\tes.KycRequest[] memory)\\r\\n   ...\n      JUMPDEST \t\t\tes.KycRequest[] memory)\\r\\n   ...\n      PUSH 40\t\t\tes.KycRequest[] memory)\\r\\n   ...\n      MLOAD \t\t\tes.KycRequest[] memory)\\r\\n   ...\n      DUP1 \t\t\tes.KycRequest[] memory)\\r\\n   ...\n      SWAP2 \t\t\tes.KycRequest[] memory)\\r\\n   ...\n      SUB \t\t\tes.KycRequest[] memory)\\r\\n   ...\n      SWAP1 \t\t\tes.KycRequest[] memory)\\r\\n   ...\n      REVERT \t\t\tes.KycRequest[] memory)\\r\\n   ...\n    tag 678\t\t\tes.KycRequest[] memory)\\r\\n   ...\n      JUMPDEST \t\t\tes.KycRequest[] memory)\\r\\n   ...\n      PUSH 0\t\t\t \n      PUSH FFFFFFFFFFFFFFFFFFFFFFFFFFFFFFFFFFFFFFFF\t\t\tould be > zero\");\\r\\n        (...\n      AND \t\t\tould be > zero\");\\r\\n        (...\n      PUSH 1\t\t\tould be >\n      PUSH 0\t\t\tould be > zero\n      DUP5 \t\t\tzer\n      PUSH FFFFFFFFFFFFFFFFFFFFFFFFFFFFFFFFFFFFFFFF\t\t\tould be > zero\n      AND \t\t\tould be > zero\n      PUSH FFFFFFFFFFFFFFFFFFFFFFFFFFFFFFFFFFFFFFFF\t\t\tould be > zero\n      AND \t\t\tould be > zero\n      DUP2 \t\t\tould be > zero\n      MSTORE \t\t\tould be > zero\n      PUSH 20\t\t\tould be > zero\n      ADD \t\t\tould be > zero\n      SWAP1 \t\t\tould be > zero\n      DUP2 \t\t\tould be > zero\n      MSTORE \t\t\tould be > zero\n      PUSH 20\t\t\tould be > zero\n      ADD \t\t\tould be > zero\n      PUSH 0\t\t\tould be > zero\n      KECCAK256 \t\t\tould be > zero\n      PUSH 3\t\t\tould be > zero\");\\r\n      ADD \t\t\tould be > zero\");\\r\n      PUSH 0\t\t\tould be > zero\");\\r\n      SWAP1 \t\t\tould be > zero\");\\r\n      SLOAD \t\t\tould be > zero\");\\r\n      SWAP1 \t\t\tould be > zero\");\\r\n      PUSH 100\t\t\tould be > zero\");\\r\n      EXP \t\t\tould be > zero\");\\r\n      SWAP1 \t\t\tould be > zero\");\\r\n      DIV \t\t\tould be > zero\");\\r\n      PUSH FFFFFFFFFFFFFFFFFFFFFFFFFFFFFFFFFFFFFFFF\t\t\tould be > zero\");\\r\n      AND \t\t\tould be > zero\");\\r\n      PUSH FFFFFFFFFFFFFFFFFFFFFFFFFFFFFFFFFFFFFFFF\t\t\tould be > zero\");\\r\\n        (...\n      AND \t\t\tould be > zero\");\\r\\n        (...\n      EQ \t\t\tould be > zero\");\\r\\n        (...\n      ISZERO \t\t\tould be > zero\");\\r\\n        (...\n      DUP1 \t\t\tould be > zero\");\\r\\n        (...\n      ISZERO \t\t\tould be > zero\");\\r\\n        (...\n      PUSH [tag] 681\t\t\tould be > zero\");\\r\\n        (...\n      JUMPI \t\t\tould be > zero\");\\r\\n        (...\n      POP \t\t\tould be > zero\");\\r\\n        (...\n      PUSH [tag] 682\t\t\tpages,\\r\\n            uint256 ...\n      PUSH 1\t\t\tt256 page\n      PUSH 0\t\t\tt256 pageLengt\n      DUP5 \t\t\teng\n      PUSH FFFFFFFFFFFFFFFFFFFFFFFFFFFFFFFFFFFFFFFF\t\t\tt256 pageLengt\n      AND \t\t\tt256 pageLengt\n      PUSH FFFFFFFFFFFFFFFFFFFFFFFFFFFFFFFFFFFFFFFF\t\t\tt256 pageLengt\n      AND \t\t\tt256 pageLengt\n      DUP2 \t\t\tt256 pageLengt\n      MSTORE \t\t\tt256 pageLengt\n      PUSH 20\t\t\tt256 pageLengt\n      ADD \t\t\tt256 pageLengt\n      SWAP1 \t\t\tt256 pageLengt\n      DUP2 \t\t\tt256 pageLengt\n      MSTORE \t\t\tt256 pageLengt\n      PUSH 20\t\t\tt256 pageLengt\n      ADD \t\t\tt256 pageLengt\n      PUSH 0\t\t\tt256 pageLengt\n      KECCAK256 \t\t\tt256 pageLengt\n      PUSH 1\t\t\tt256 pageLength_,\\r\\n \n      ADD \t\t\tt256 pageLength_,\\r\\n \n      DUP1 \t\t\tpages,\\r\\n            uint256 ...\n      SLOAD \t\t\tpages,\\r\\n            uint256 ...\n      PUSH [tag] 683\t\t\tpages,\\r\\n            uint256 ...\n      SWAP1 \t\t\tpages,\\r\\n            uint256 ...\n      PUSH [tag] 113\t\t\tpages,\\r\\n            uint256 ...\n      JUMP \t\t\tpages,\\r\\n            uint256 ...\n    tag 683\t\t\tpages,\\r\\n            uint256 ...\n      JUMPDEST \t\t\tpages,\\r\\n            uint256 ...\n      DUP1 \t\t\tpages,\\r\\n            uint256 ...\n      PUSH 1F\t\t\tpages,\\r\\n            uint256 ...\n      ADD \t\t\tpages,\\r\\n            uint256 ...\n      PUSH 20\t\t\tpages,\\r\\n            uint256 ...\n      DUP1 \t\t\tpages,\\r\\n            uint256 ...\n      SWAP2 \t\t\tpages,\\r\\n            uint256 ...\n      DIV \t\t\tpages,\\r\\n            uint256 ...\n      MUL \t\t\tpages,\\r\\n            uint256 ...\n      PUSH 20\t\t\tpages,\\r\\n            uint256 ...\n      ADD \t\t\tpages,\\r\\n            uint256 ...\n      PUSH 40\t\t\tpages,\\r\\n            uint256 ...\n      MLOAD \t\t\tpages,\\r\\n            uint256 ...\n      SWAP1 \t\t\tpages,\\r\\n            uint256 ...\n      DUP2 \t\t\tpages,\\r\\n            uint256 ...\n      ADD \t\t\tpages,\\r\\n            uint256 ...\n      PUSH 40\t\t\tpages,\\r\\n            uint256 ...\n      MSTORE \t\t\tpages,\\r\\n            uint256 ...\n      DUP1 \t\t\tpages,\\r\\n            uint256 ...\n      SWAP3 \t\t\tpages,\\r\\n            uint256 ...\n      SWAP2 \t\t\tpages,\\r\\n            uint256 ...\n      SWAP1 \t\t\tpages,\\r\\n            uint256 ...\n      DUP2 \t\t\tpages,\\r\\n            uint256 ...\n      DUP2 \t\t\tpages,\\r\\n            uint256 ...\n      MSTORE \t\t\tpages,\\r\\n            uint256 ...\n      PUSH 20\t\t\tpages,\\r\\n            uint256 ...\n      ADD \t\t\tpages,\\r\\n            uint256 ...\n      DUP3 \t\t\tpages,\\r\\n            uint256 ...\n      DUP1 \t\t\tpages,\\r\\n            uint256 ...\n      SLOAD \t\t\tpages,\\r\\n            uint256 ...\n      PUSH [tag] 684\t\t\tpages,\\r\\n            uint256 ...\n      SWAP1 \t\t\tpages,\\r\\n            uint256 ...\n      PUSH [tag] 113\t\t\tpages,\\r\\n            uint256 ...\n      JUMP \t\t\tpages,\\r\\n            uint256 ...\n    tag 684\t\t\tpages,\\r\\n            uint256 ...\n      JUMPDEST \t\t\tpages,\\r\\n            uint256 ...\n      DUP1 \t\t\tpages,\\r\\n            uint256 ...\n      ISZERO \t\t\tpages,\\r\\n            uint256 ...\n      PUSH [tag] 685\t\t\tpages,\\r\\n            uint256 ...\n      JUMPI \t\t\tpages,\\r\\n            uint256 ...\n      DUP1 \t\t\tpages,\\r\\n            uint256 ...\n      PUSH 1F\t\t\tpages,\\r\\n            uint256 ...\n      LT \t\t\tpages,\\r\\n            uint256 ...\n      PUSH [tag] 686\t\t\tpages,\\r\\n            uint256 ...\n      JUMPI \t\t\tpages,\\r\\n            uint256 ...\n      PUSH 100\t\t\tpages,\\r\\n            uint256 ...\n      DUP1 \t\t\tpages,\\r\\n            uint256 ...\n      DUP4 \t\t\tpages,\\r\\n            uint256 ...\n      SLOAD \t\t\tpages,\\r\\n            uint256 ...\n      DIV \t\t\tpages,\\r\\n            uint256 ...\n      MUL \t\t\tpages,\\r\\n            uint256 ...\n      DUP4 \t\t\tpages,\\r\\n            uint256 ...\n      MSTORE \t\t\tpages,\\r\\n            uint256 ...\n      SWAP2 \t\t\tpages,\\r\\n            uint256 ...\n      PUSH 20\t\t\tpages,\\r\\n            uint256 ...\n      ADD \t\t\tpages,\\r\\n            uint256 ...\n      SWAP2 \t\t\tpages,\\r\\n            uint256 ...\n      PUSH [tag] 685\t\t\tpages,\\r\\n            uint256 ...\n      JUMP \t\t\tpages,\\r\\n            uint256 ...\n    tag 686\t\t\tpages,\\r\\n            uint256 ...\n      JUMPDEST \t\t\tpages,\\r\\n            uint256 ...\n      DUP3 \t\t\tpages,\\r\\n            uint256 ...\n      ADD \t\t\tpages,\\r\\n            uint256 ...\n      SWAP2 \t\t\tpages,\\r\\n            uint256 ...\n      SWAP1 \t\t\tpages,\\r\\n            uint256 ...\n      PUSH 0\t\t\tpages,\\r\\n            uint256 ...\n      MSTORE \t\t\tpages,\\r\\n            uint256 ...\n      PUSH 20\t\t\tpages,\\r\\n            uint256 ...\n      PUSH 0\t\t\tpages,\\r\\n            uint256 ...\n      KECCAK256 \t\t\tpages,\\r\\n            uint256 ...\n      SWAP1 \t\t\tpages,\\r\\n            uint256 ...\n    tag 687\t\t\tpages,\\r\\n            uint256 ...\n      JUMPDEST \t\t\tpages,\\r\\n            uint256 ...\n      DUP2 \t\t\tpages,\\r\\n            uint256 ...\n      SLOAD \t\t\tpages,\\r\\n            uint256 ...\n      DUP2 \t\t\tpages,\\r\\n            uint256 ...\n      MSTORE \t\t\tpages,\\r\\n            uint256 ...\n      SWAP1 \t\t\tpages,\\r\\n            uint256 ...\n      PUSH 1\t\t\tpages,\\r\\n            uint256 ...\n      ADD \t\t\tpages,\\r\\n            uint256 ...\n      SWAP1 \t\t\tpages,\\r\\n            uint256 ...\n      PUSH 20\t\t\tpages,\\r\\n            uint256 ...\n      ADD \t\t\tpages,\\r\\n            uint256 ...\n      DUP1 \t\t\tpages,\\r\\n            uint256 ...\n      DUP4 \t\t\tpages,\\r\\n            uint256 ...\n      GT \t\t\tpages,\\r\\n            uint256 ...\n      PUSH [tag] 687\t\t\tpages,\\r\\n            uint256 ...\n      JUMPI \t\t\tpages,\\r\\n            uint256 ...\n      DUP3 \t\t\tpages,\\r\\n            uint256 ...\n      SWAP1 \t\t\tpages,\\r\\n            uint256 ...\n      SUB \t\t\tpages,\\r\\n            uint256 ...\n      PUSH 1F\t\t\tpages,\\r\\n            uint256 ...\n      AND \t\t\tpages,\\r\\n            uint256 ...\n      DUP3 \t\t\tpages,\\r\\n            uint256 ...\n      ADD \t\t\tpages,\\r\\n            uint256 ...\n      SWAP2 \t\t\tpages,\\r\\n            uint256 ...\n    tag 685\t\t\tpages,\\r\\n            uint256 ...\n      JUMPDEST \t\t\tpages,\\r\\n            uint256 ...\n      POP \t\t\tpages,\\r\\n            uint256 ...\n      POP \t\t\tpages,\\r\\n            uint256 ...\n      POP \t\t\tpages,\\r\\n            uint256 ...\n      POP \t\t\tpages,\\r\\n            uint256 ...\n      POP \t\t\tpages,\\r\\n            uint256 ...\n      PUSH 40\t\t\tpages,\\r\\n            uint256 ...\n      MLOAD \t\t\tpages,\\r\\n            uint256 ...\n      DUP1 \t\t\tpages,\\r\\n            uint256 ...\n      PUSH 20\t\t\tpages,\\r\\n            uint256 ...\n      ADD \t\t\tpages,\\r\\n            uint256 ...\n      PUSH 40\t\t\tpages,\\r\\n            uint256 ...\n      MSTORE \t\t\tpages,\\r\\n            uint256 ...\n      DUP1 \t\t\tpages,\\r\\n            uint256 ...\n      PUSH 0\t\t\tpages,\\r\\n            uint256 ...\n      DUP2 \t\t\tpages,\\r\\n            uint256 ...\n      MSTORE \t\t\tpages,\\r\\n            uint256 ...\n      POP \t\t\tpages,\\r\\n            uint256 ...\n      PUSH [tag] 118\t\t\tpages,\\r\\n            ui\n      JUMP \t\t\tpages,\\r\\n            uint256 ...\n    tag 682\t\t\tpages,\\r\\n            uint256 ...\n      JUMPDEST \t\t\tpages,\\r\\n            uint256 ...\n      ISZERO \t\t\t pages,\\r\\n            uint256...\n    tag 681\t\t\tould be > zero\");\\r\\n        (...\n      JUMPDEST \t\t\tould be > zero\");\\r\\n        (...\n      ISZERO \t\t\tNumber > 0, \"PN should be > ze...\n      PUSH [tag] 688\t\t\tNumber > 0, \"PN should be > ze...\n      JUMPI \t\t\tNumber > 0, \"PN should be > ze...\n      PUSH 1\t\t\t   u\n      SWAP1 \t\t\t\\n            u\n      POP \t\t\t\\n            u\n    tag 688\t\t\tNumber > 0, \"PN should be > ze...\n      JUMPDEST \t\t\tNumber > 0, \"PN should be > ze...\n      SWAP2 \t\t\t isForBank)\\r\\n        interna...\n      SWAP1 \t\t\t isForBank)\\r\\n        interna...\n      POP \t\t\t isForBank)\\r\\n        interna...\n      JUMP \t\t\t isForBank)\\r\\n        interna...\n    tag 185\t\t\tss bankId,\\r\\n        Types.Ky...\n      JUMPDEST \t\t\tss bankId,\\r\\n        Types.Ky...\n      PUSH 0\t\t\tn\n      PUSH FFFFFFFFFFFFFFFFFFFFFFFFFFFFFFFFFFFFFFFF\t\t\tPermissionChanged(\\r\\n        ...\n      AND \t\t\tPermissionChanged(\\r\\n        ...\n      PUSH 3\t\t\tPermi\n      PUSH 0\t\t\tPermissionChange\n      DUP4 \t\t\tsionC\n      PUSH 40\t\t\tsionChang\n      ADD \t\t\tsionChang\n      MLOAD \t\t\tsionChang\n      PUSH FFFFFFFFFFFFFFFFFFFFFFFFFFFFFFFFFFFFFFFF\t\t\tPermissionChange\n      AND \t\t\tPermissionChange\n      PUSH FFFFFFFFFFFFFFFFFFFFFFFFFFFFFFFFFFFFFFFF\t\t\tPermissionChange\n      AND \t\t\tPermissionChange\n      DUP2 \t\t\tPermissionChange\n      MSTORE \t\t\tPermissionChange\n      PUSH 20\t\t\tPermissionChange\n      ADD \t\t\tPermissionChange\n      SWAP1 \t\t\tPermissionChange\n      DUP2 \t\t\tPermissionChange\n      MSTORE \t\t\tPermissionChange\n      PUSH 20\t\t\tPermissionChange\n      ADD \t\t\tPermissionChange\n      PUSH 0\t\t\tPermissionChange\n      KECCAK256 \t\t\tPermissionChange\n      PUSH 2\t\t\tPermissionChanged(\\r\\n\n      ADD \t\t\tPermissionChanged(\\r\\n\n      PUSH 0\t\t\tPermissionChanged(\\r\\n\n      SWAP1 \t\t\tPermissionChanged(\\r\\n\n      SLOAD \t\t\tPermissionChanged(\\r\\n\n      SWAP1 \t\t\tPermissionChanged(\\r\\n\n      PUSH 100\t\t\tPermissionChanged(\\r\\n\n      EXP \t\t\tPermissionChanged(\\r\\n\n      SWAP1 \t\t\tPermissionChanged(\\r\\n\n      DIV \t\t\tPermissionChanged(\\r\\n\n      PUSH FFFFFFFFFFFFFFFFFFFFFFFFFFFFFFFFFFFFFFFF\t\t\tPermissionChanged(\\r\\n\n      AND \t\t\tPermissionChanged(\\r\\n\n      PUSH FFFFFFFFFFFFFFFFFFFFFFFFFFFFFFFFFFFFFFFF\t\t\tPermissionChanged(\\r\\n        ...\n      AND \t\t\tPermissionChanged(\\r\\n        ...\n      EQ \t\t\tPermissionChanged(\\r\\n        ...\n      PUSH [tag] 690\t\t\tDataHashPermissionChanged(\\r\\n...\n      JUMPI \t\t\tDataHashPermissionChanged(\\r\\n...\n      PUSH 40\t\t\tDataHashPermissionChanged(\\r\\n...\n      MLOAD \t\t\tDataHashPermissionChanged(\\r\\n...\n      PUSH 8C379A000000000000000000000000000000000000000000000000000000000\t\t\tDataHashPermissionChanged(\\r\\n...\n      DUP2 \t\t\tDataHashPermissionChanged(\\r\\n...\n      MSTORE \t\t\tDataHashPermissionChanged(\\r\\n...\n      PUSH 4\t\t\tDataHashPermissionChanged(\\r\\n...\n      ADD \t\t\tDataHashPermissionChanged(\\r\\n...\n      PUSH [tag] 691\t\t\tDataHashPermissionChanged(\\r\\n...\n      SWAP1 \t\t\tDataHashPermissionChanged(\\r\\n...\n      PUSH [tag] 692\t\t\tDataHashPermissionChanged(\\r\\n...\n      JUMP \t\t\tDataHashPermissionChanged(\\r\\n...\n    tag 691\t\t\tDataHashPermissionChanged(\\r\\n...\n      JUMPDEST \t\t\tDataHashPermissionChanged(\\r\\n...\n      PUSH 40\t\t\tDataHashPermissionChanged(\\r\\n...\n      MLOAD \t\t\tDataHashPermissionChanged(\\r\\n...\n      DUP1 \t\t\tDataHashPermissionChanged(\\r\\n...\n      SWAP2 \t\t\tDataHashPermissionChanged(\\r\\n...\n      SUB \t\t\tDataHashPermissionChanged(\\r\\n...\n      SWAP1 \t\t\tDataHashPermissionChanged(\\r\\n...\n      REVERT \t\t\tDataHashPermissionChanged(\\r\\n...\n    tag 690\t\t\tDataHashPermissionChanged(\\r\\n...\n      JUMPDEST \t\t\tDataHashPermissionChanged(\\r\\n...\n      DUP1 \t\t\tdress\n      PUSH 3\t\t\tomerI\n      PUSH 0\t\t\tomerId,\\r\\n       \n      DUP4 \t\t\t,\\r\\n  \n      PUSH 40\t\t\t,\\r\\n      \n      ADD \t\t\t,\\r\\n      \n      MLOAD \t\t\t,\\r\\n      \n      PUSH FFFFFFFFFFFFFFFFFFFFFFFFFFFFFFFFFFFFFFFF\t\t\tomerId,\\r\\n       \n      AND \t\t\tomerId,\\r\\n       \n      PUSH FFFFFFFFFFFFFFFFFFFFFFFFFFFFFFFFFFFFFFFF\t\t\tomerId,\\r\\n       \n      AND \t\t\tomerId,\\r\\n       \n      DUP2 \t\t\tomerId,\\r\\n       \n      MSTORE \t\t\tomerId,\\r\\n       \n      PUSH 20\t\t\tomerId,\\r\\n       \n      ADD \t\t\tomerId,\\r\\n       \n      SWAP1 \t\t\tomerId,\\r\\n       \n      DUP2 \t\t\tomerId,\\r\\n       \n      MSTORE \t\t\tomerId,\\r\\n       \n      PUSH 20\t\t\tomerId,\\r\\n       \n      ADD \t\t\tomerId,\\r\\n       \n      PUSH 0\t\t\tomerId,\\r\\n       \n      KECCAK256 \t\t\tomerId,\\r\\n       \n      PUSH 0\t\t\tomerId,\\r\\n        address\n      DUP3 \t\t\tomerId,\\r\\n        address\n      ADD \t\t\tomerId,\\r\\n        address\n      MLOAD \t\t\tomerId,\\r\\n        address\n      DUP2 \t\t\tomerId,\\r\\n        address\n      PUSH 0\t\t\tomerId,\\r\\n        address\n      ADD \t\t\tomerId,\\r\\n        address\n      SWAP1 \t\t\tomerId,\\r\\n        address\n      DUP2 \t\t\tomerId,\\r\\n        address\n      PUSH [tag] 693\t\t\tomerId,\\r\\n        address\n      SWAP2 \t\t\tomerId,\\r\\n        address\n      SWAP1 \t\t\tomerId,\\r\\n        address\n      PUSH [tag] 174\t\t\tomerId,\\r\\n        address\n      JUMP \t\t\tomerId,\\r\\n        address\n    tag 693\t\t\tomerId,\\r\\n        address\n      JUMPDEST \t\t\tomerId,\\r\\n        address\n      POP \t\t\tomerId,\\r\\n        address\n      PUSH 20\t\t\tomerId,\\r\\n        address\n      DUP3 \t\t\tomerId,\\r\\n        address\n      ADD \t\t\tomerId,\\r\\n        address\n      MLOAD \t\t\tomerId,\\r\\n        address\n      DUP2 \t\t\tomerId,\\r\\n        address\n      PUSH 1\t\t\tomerId,\\r\\n        address\n      ADD \t\t\tomerId,\\r\\n        address\n      SWAP1 \t\t\tomerId,\\r\\n        address\n      DUP2 \t\t\tomerId,\\r\\n        address\n      PUSH [tag] 694\t\t\tomerId,\\r\\n        address\n      SWAP2 \t\t\tomerId,\\r\\n        address\n      SWAP1 \t\t\tomerId,\\r\\n        address\n      PUSH [tag] 174\t\t\tomerId,\\r\\n        address\n      JUMP \t\t\tomerId,\\r\\n        address\n    tag 694\t\t\tomerId,\\r\\n        address\n      JUMPDEST \t\t\tomerId,\\r\\n        address\n      POP \t\t\tomerId,\\r\\n        address\n      PUSH 40\t\t\tomerId,\\r\\n        address\n      DUP3 \t\t\tomerId,\\r\\n        address\n      ADD \t\t\tomerId,\\r\\n        address\n      MLOAD \t\t\tomerId,\\r\\n        address\n      DUP2 \t\t\tomerId,\\r\\n        address\n      PUSH 2\t\t\tomerId,\\r\\n        address\n      ADD \t\t\tomerId,\\r\\n        address\n      PUSH 0\t\t\tomerId,\\r\\n        address\n      PUSH 100\t\t\tomerId,\\r\\n        address\n      EXP \t\t\tomerId,\\r\\n        address\n      DUP2 \t\t\tomerId,\\r\\n        address\n      SLOAD \t\t\tomerId,\\r\\n        address\n      DUP2 \t\t\tomerId,\\r\\n        address\n      PUSH FFFFFFFFFFFFFFFFFFFFFFFFFFFFFFFFFFFFFFFF\t\t\tomerId,\\r\\n        address\n      MUL \t\t\tomerId,\\r\\n        address\n      NOT \t\t\tomerId,\\r\\n        address\n      AND \t\t\tomerId,\\r\\n        address\n      SWAP1 \t\t\tomerId,\\r\\n        address\n      DUP4 \t\t\tomerId,\\r\\n        address\n      PUSH FFFFFFFFFFFFFFFFFFFFFFFFFFFFFFFFFFFFFFFF\t\t\tomerId,\\r\\n        address\n      AND \t\t\tomerId,\\r\\n        address\n      MUL \t\t\tomerId,\\r\\n        address\n      OR \t\t\tomerId,\\r\\n        address\n      SWAP1 \t\t\tomerId,\\r\\n        address\n      SSTORE \t\t\tomerId,\\r\\n        address\n      POP \t\t\tomerId,\\r\\n        address\n      PUSH 60\t\t\tomerId,\\r\\n        address\n      DUP3 \t\t\tomerId,\\r\\n        address\n      ADD \t\t\tomerId,\\r\\n        address\n      MLOAD \t\t\tomerId,\\r\\n        address\n      DUP2 \t\t\tomerId,\\r\\n        address\n      PUSH 3\t\t\tomerId,\\r\\n        address\n      ADD \t\t\tomerId,\\r\\n        address\n      SWAP1 \t\t\tomerId,\\r\\n        address\n      DUP2 \t\t\tomerId,\\r\\n        address\n      PUSH [tag] 695\t\t\tomerId,\\r\\n        address\n      SWAP2 \t\t\tomerId,\\r\\n        address\n      SWAP1 \t\t\tomerId,\\r\\n        address\n      PUSH [tag] 174\t\t\tomerId,\\r\\n        address\n      JUMP \t\t\tomerId,\\r\\n        address\n    tag 695\t\t\tomerId,\\r\\n        address\n      JUMPDEST \t\t\tomerId,\\r\\n        address\n      POP \t\t\tomerId,\\r\\n        address\n      PUSH 80\t\t\tomerId,\\r\\n        address\n      DUP3 \t\t\tomerId,\\r\\n        address\n      ADD \t\t\tomerId,\\r\\n        address\n      MLOAD \t\t\tomerId,\\r\\n        address\n      DUP2 \t\t\tomerId,\\r\\n        address\n      PUSH 4\t\t\tomerId,\\r\\n        address\n      ADD \t\t\tomerId,\\r\\n        address\n      PUSH 0\t\t\tomerId,\\r\\n        address\n      PUSH 100\t\t\tomerId,\\r\\n        address\n      EXP \t\t\tomerId,\\r\\n        address\n      DUP2 \t\t\tomerId,\\r\\n        address\n      SLOAD \t\t\tomerId,\\r\\n        address\n      DUP2 \t\t\tomerId,\\r\\n        address\n      PUSH FFFF\t\t\tomerId,\\r\\n        address\n      MUL \t\t\tomerId,\\r\\n        address\n      NOT \t\t\tomerId,\\r\\n        address\n      AND \t\t\tomerId,\\r\\n        address\n      SWAP1 \t\t\tomerId,\\r\\n        address\n      DUP4 \t\t\tomerId,\\r\\n        address\n      PUSH FFFF\t\t\tomerId,\\r\\n        address\n      AND \t\t\tomerId,\\r\\n        address\n      MUL \t\t\tomerId,\\r\\n        address\n      OR \t\t\tomerId,\\r\\n        address\n      SWAP1 \t\t\tomerId,\\r\\n        address\n      SSTORE \t\t\tomerId,\\r\\n        address\n      POP \t\t\tomerId,\\r\\n        address\n      PUSH A0\t\t\tomerId,\\r\\n        address\n      DUP3 \t\t\tomerId,\\r\\n        address\n      ADD \t\t\tomerId,\\r\\n        address\n      MLOAD \t\t\tomerId,\\r\\n        address\n      DUP2 \t\t\tomerId,\\r\\n        address\n      PUSH 4\t\t\tomerId,\\r\\n        address\n      ADD \t\t\tomerId,\\r\\n        address\n      PUSH 2\t\t\tomerId,\\r\\n        address\n      PUSH 100\t\t\tomerId,\\r\\n        address\n      EXP \t\t\tomerId,\\r\\n        address\n      DUP2 \t\t\tomerId,\\r\\n        address\n      SLOAD \t\t\tomerId,\\r\\n        address\n      DUP2 \t\t\tomerId,\\r\\n        address\n      PUSH FF\t\t\tomerId,\\r\\n        address\n      MUL \t\t\tomerId,\\r\\n        address\n      NOT \t\t\tomerId,\\r\\n        address\n      AND \t\t\tomerId,\\r\\n        address\n      SWAP1 \t\t\tomerId,\\r\\n        address\n      DUP4 \t\t\tomerId,\\r\\n        address\n      PUSH 1\t\t\tomerId,\\r\\n        address\n      DUP2 \t\t\tomerId,\\r\\n        address\n      GT \t\t\tomerId,\\r\\n        address\n      ISZERO \t\t\tomerId,\\r\\n        address\n      PUSH [tag] 696\t\t\tomerId,\\r\\n        address\n      JUMPI \t\t\tomerId,\\r\\n        address\n      PUSH [tag] 697\t\t\tomerId,\\r\\n        address\n      PUSH [tag] 135\t\t\tomerId,\\r\\n        address\n      JUMP \t\t\tomerId,\\r\\n        address\n    tag 697\t\t\tomerId,\\r\\n        address\n      JUMPDEST \t\t\tomerId,\\r\\n        address\n    tag 696\t\t\tomerId,\\r\\n        address\n      JUMPDEST \t\t\tomerId,\\r\\n        address\n      MUL \t\t\tomerId,\\r\\n        address\n      OR \t\t\tomerId,\\r\\n        address\n      SWAP1 \t\t\tomerId,\\r\\n        address\n      SSTORE \t\t\tomerId,\\r\\n        address\n      POP \t\t\tomerId,\\r\\n        address\n      SWAP1 \t\t\tomerId,\\r\\n        address\n      POP \t\t\tomerId,\\r\\n        address\n      POP \t\t\tomerId,\\r\\n        address\n      PUSH 2\t\t\t       T\n      DUP2 \t\t\tataHa\n      PUSH 40\t\t\tataHashSt\n      ADD \t\t\tataHashSt\n      MLOAD \t\t\tataHashSt\n      SWAP1 \t\t\t       Types.DataHashSta\n      DUP1 \t\t\t       Types.DataHashSta\n      PUSH 1\t\t\t       Types.DataHashSta\n      DUP2 \t\t\t       Types.DataHashSta\n      SLOAD \t\t\t       Types.DataHashSta\n      ADD \t\t\t       Types.DataHashSta\n      DUP1 \t\t\t       Types.DataHashSta\n      DUP3 \t\t\t       Types.DataHashSta\n      SSTORE \t\t\t       Types.DataHashSta\n      DUP1 \t\t\t       Types.DataHashSta\n      SWAP2 \t\t\t       Types.DataHashSta\n      POP \t\t\t       Types.DataHashSta\n      POP \t\t\t       Types.DataHashSta\n      PUSH 1\t\t\t       Types.DataHashSta\n      SWAP1 \t\t\t       Types.DataHashSta\n      SUB \t\t\t       Types.DataHashSta\n      SWAP1 \t\t\t       Types.DataHashSta\n      PUSH 0\t\t\t       Types.DataHashSta\n      MSTORE \t\t\t       Types.DataHashSta\n      PUSH 20\t\t\t       Types.DataHashSta\n      PUSH 0\t\t\t       Types.DataHashSta\n      KECCAK256 \t\t\t       Types.DataHashSta\n      ADD \t\t\t       Types.DataHashSta\n      PUSH 0\t\t\t       Types.DataHashSta\n      SWAP1 \t\t\t       Types.DataHashSta\n      SWAP2 \t\t\t       Types.DataHashSta\n      SWAP1 \t\t\t       Types.DataHashSta\n      SWAP2 \t\t\t       Types.DataHashSta\n      SWAP1 \t\t\t       Types.DataHashSta\n      SWAP2 \t\t\t       Types.DataHashSta\n      PUSH 100\t\t\t       Types.DataHashSta\n      EXP \t\t\t       Types.DataHashSta\n      DUP2 \t\t\t       Types.DataHashSta\n      SLOAD \t\t\t       Types.DataHashSta\n      DUP2 \t\t\t       Types.DataHashSta\n      PUSH FFFFFFFFFFFFFFFFFFFFFFFFFFFFFFFFFFFFFFFF\t\t\t       Types.DataHashSta\n      MUL \t\t\t       Types.DataHashSta\n      NOT \t\t\t       Types.DataHashSta\n      AND \t\t\t       Types.DataHashSta\n      SWAP1 \t\t\t       Types.DataHashSta\n      DUP4 \t\t\t       Types.DataHashSta\n      PUSH FFFFFFFFFFFFFFFFFFFFFFFFFFFFFFFFFFFFFFFF\t\t\t       Types.DataHashSta\n      AND \t\t\t       Types.DataHashSta\n      MUL \t\t\t       Types.DataHashSta\n      OR \t\t\t       Types.DataHashSta\n      SWAP1 \t\t\t       Types.DataHashSta\n      SSTORE \t\t\t       Types.DataHashSta\n      POP \t\t\t       Types.DataHashSta\n      PUSH 17EE33CC6A54067D735EE1C9200FC0DC8354B1D7DEAE9908692BCD90723044B1\t\t\t);\\r\\n  \\r\\n    function getAl...\n      DUP2 \t\t\t  fun\n      PUSH 40\t\t\t  functio\n      ADD \t\t\t  functio\n      MLOAD \t\t\t  functio\n      DUP3 \t\t\tgetAl\n      PUSH 0\t\t\tgetAllBank\n      ADD \t\t\tgetAllBank\n      MLOAD \t\t\tgetAllBank\n      DUP4 \t\t\tuint2\n      PUSH 20\t\t\tuint256 pag\n      ADD \t\t\tuint256 pag\n      MLOAD \t\t\tuint256 pag\n      DUP5 \t\t\tumber\n      PUSH 60\t\t\tumber)\\r\\n      \n      ADD \t\t\tumber)\\r\\n      \n      MLOAD \t\t\tumber)\\r\\n      \n      PUSH 40\t\t\t);\\r\\n  \\r\\n    function getAl...\n      MLOAD \t\t\t);\\r\\n  \\r\\n    function getAl...\n      PUSH [tag] 699\t\t\t);\\r\\n  \\r\\n    function getAl...\n      SWAP5 \t\t\t);\\r\\n  \\r\\n    function getAl...\n      SWAP4 \t\t\t);\\r\\n  \\r\\n    function getAl...\n      SWAP3 \t\t\t);\\r\\n  \\r\\n    function getAl...\n      SWAP2 \t\t\t);\\r\\n  \\r\\n    function getAl...\n      SWAP1 \t\t\t);\\r\\n  \\r\\n    function getAl...\n      PUSH [tag] 700\t\t\t);\\r\\n  \\r\\n    function getAl...\n      JUMP \t\t\t);\\r\\n  \\r\\n    function getAl...\n    tag 699\t\t\t);\\r\\n  \\r\\n    function getAl...\n      JUMPDEST \t\t\t);\\r\\n  \\r\\n    function getAl...\n      PUSH 40\t\t\t);\\r\\n  \\r\\n    function getAl...\n      MLOAD \t\t\t);\\r\\n  \\r\\n    function getAl...\n      DUP1 \t\t\t);\\r\\n  \\r\\n    function getAl...\n      SWAP2 \t\t\t);\\r\\n  \\r\\n    function getAl...\n      SUB \t\t\t);\\r\\n  \\r\\n    function getAl...\n      SWAP1 \t\t\t);\\r\\n  \\r\\n    function getAl...\n      LOG1 \t\t\t);\\r\\n  \\r\\n    function getAl...\n      POP \t\t\tss bankId,\\r\\n        Types.Ky...\n      JUMP \t\t\tss bankId,\\r\\n        Types.Ky...\n    tag 318\t\t\tk_);\\r\\n        // Adding to c...\n      JUMPDEST \t\t\tk_);\\r\\n        // Adding to c...\n      PUSH 0\t\t\tn\n      PUSH FFFFFFFFFFFFFFFFFFFFFFFFFFFFFFFFFFFFFFFF\t\t\tmail,\\r\\n            id_: bank\n      AND \t\t\tmail,\\r\\n            id_: bank\n      PUSH 3\t\t\tmail,\n      PUSH 0\t\t\tmail,\\r\\n   \n      DUP6 \t\t\t\\n  \n      PUSH FFFFFFFFFFFFFFFFFFFFFFFFFFFFFFFFFFFFFFFF\t\t\tmail,\\r\\n   \n      AND \t\t\tmail,\\r\\n   \n      PUSH FFFFFFFFFFFFFFFFFFFFFFFFFFFFFFFFFFFFFFFF\t\t\tmail,\\r\\n   \n      AND \t\t\tmail,\\r\\n   \n      DUP2 \t\t\tmail,\\r\\n   \n      MSTORE \t\t\tmail,\\r\\n   \n      PUSH 20\t\t\tmail,\\r\\n   \n      ADD \t\t\tmail,\\r\\n   \n      SWAP1 \t\t\tmail,\\r\\n   \n      DUP2 \t\t\tmail,\\r\\n   \n      MSTORE \t\t\tmail,\\r\\n   \n      PUSH 20\t\t\tmail,\\r\\n   \n      ADD \t\t\tmail,\\r\\n   \n      PUSH 0\t\t\tmail,\\r\\n   \n      KECCAK256 \t\t\tmail,\\r\\n   \n      PUSH 2\t\t\tmail,\\r\\n       \n      ADD \t\t\tmail,\\r\\n       \n      PUSH 0\t\t\tmail,\\r\\n       \n      SWAP1 \t\t\tmail,\\r\\n       \n      SLOAD \t\t\tmail,\\r\\n       \n      SWAP1 \t\t\tmail,\\r\\n       \n      PUSH 100\t\t\tmail,\\r\\n       \n      EXP \t\t\tmail,\\r\\n       \n      SWAP1 \t\t\tmail,\\r\\n       \n      DIV \t\t\tmail,\\r\\n       \n      PUSH FFFFFFFFFFFFFFFFFFFFFFFFFFFFFFFFFFFFFFFF\t\t\tmail,\\r\\n       \n      AND \t\t\tmail,\\r\\n       \n      PUSH FFFFFFFFFFFFFFFFFFFFFFFFFFFFFFFFFFFFFFFF\t\t\tmail,\\r\\n            id_: bank\n      AND \t\t\tmail,\\r\\n            id_: bank\n      SUB \t\t\tmail,\\r\\n            id_: bank\n      PUSH [tag] 702\t\t\t bank_.email,\\r\\n            i...\n      JUMPI \t\t\t bank_.email,\\r\\n            i...\n      PUSH 40\t\t\t bank_.email,\\r\\n            i...\n      MLOAD \t\t\t bank_.email,\\r\\n            i...\n      PUSH 8C379A000000000000000000000000000000000000000000000000000000000\t\t\t bank_.email,\\r\\n            i...\n      DUP2 \t\t\t bank_.email,\\r\\n            i...\n      MSTORE \t\t\t bank_.email,\\r\\n            i...\n      PUSH 4\t\t\t bank_.email,\\r\\n            i...\n      ADD \t\t\t bank_.email,\\r\\n            i...\n      PUSH [tag] 703\t\t\t bank_.email,\\r\\n            i...\n      SWAP1 \t\t\t bank_.email,\\r\\n            i...\n      PUSH [tag] 130\t\t\t bank_.email,\\r\\n            i...\n      JUMP \t\t\t bank_.email,\\r\\n            i...\n    tag 703\t\t\t bank_.email,\\r\\n            i...\n      JUMPDEST \t\t\t bank_.email,\\r\\n            i...\n      PUSH 40\t\t\t bank_.email,\\r\\n            i...\n      MLOAD \t\t\t bank_.email,\\r\\n            i...\n      DUP1 \t\t\t bank_.email,\\r\\n            i...\n      SWAP2 \t\t\t bank_.email,\\r\\n            i...\n      SUB \t\t\t bank_.email,\\r\\n            i...\n      SWAP1 \t\t\t bank_.email,\\r\\n            i...\n      REVERT \t\t\t bank_.email,\\r\\n            i...\n    tag 702\t\t\t bank_.email,\\r\\n            i...\n      JUMPDEST \t\t\t bank_.email,\\r\\n            i...\n      DUP1 \t\t\t     \n      PUSH 3\t\t\tRole.\n      PUSH 0\t\t\tRole.Bank,\n      DUP6 \t\t\tank\n      PUSH FFFFFFFFFFFFFFFFFFFFFFFFFFFFFFFFFFFFFFFF\t\t\tRole.Bank,\n      AND \t\t\tRole.Bank,\n      PUSH FFFFFFFFFFFFFFFFFFFFFFFFFFFFFFFFFFFFFFFF\t\t\tRole.Bank,\n      AND \t\t\tRole.Bank,\n      DUP2 \t\t\tRole.Bank,\n      MSTORE \t\t\tRole.Bank,\n      PUSH 20\t\t\tRole.Bank,\n      ADD \t\t\tRole.Bank,\n      SWAP1 \t\t\tRole.Bank,\n      DUP2 \t\t\tRole.Bank,\n      MSTORE \t\t\tRole.Bank,\n      PUSH 20\t\t\tRole.Bank,\n      ADD \t\t\tRole.Bank,\n      PUSH 0\t\t\tRole.Bank,\n      KECCAK256 \t\t\tRole.Bank,\n      PUSH 0\t\t\tRole.Bank,\\r\\n   \n      ADD \t\t\tRole.Bank,\\r\\n   \n      SWAP1 \t\t\tRole.Bank,\\r\\n           \n      DUP2 \t\t\tRole.Bank,\\r\\n           \n      PUSH [tag] 704\t\t\tRole.Bank,\\r\\n           \n      SWAP2 \t\t\tRole.Bank,\\r\\n           \n      SWAP1 \t\t\tRole.Bank,\\r\\n           \n      PUSH [tag] 174\t\t\tRole.Bank,\\r\\n           \n      JUMP \t\t\tRole.Bank,\\r\\n           \n    tag 704\t\t\tRole.Bank,\\r\\n           \n      JUMPDEST \t\t\tRole.Bank,\\r\\n           \n      POP \t\t\tRole.Bank,\\r\\n           \n      DUP2 \t\t\tve\\r\\n  \n      PUSH 3\t\t\tpes.B\n      PUSH 0\t\t\tpes.BankSt\n      DUP6 \t\t\tnkS\n      PUSH FFFFFFFFFFFFFFFFFFFFFFFFFFFFFFFFFFFFFFFF\t\t\tpes.BankSt\n      AND \t\t\tpes.BankSt\n      PUSH FFFFFFFFFFFFFFFFFFFFFFFFFFFFFFFFFFFFFFFF\t\t\tpes.BankSt\n      AND \t\t\tpes.BankSt\n      DUP2 \t\t\tpes.BankSt\n      MSTORE \t\t\tpes.BankSt\n      PUSH 20\t\t\tpes.BankSt\n      ADD \t\t\tpes.BankSt\n      SWAP1 \t\t\tpes.BankSt\n      DUP2 \t\t\tpes.BankSt\n      MSTORE \t\t\tpes.BankSt\n      PUSH 20\t\t\tpes.BankSt\n      ADD \t\t\tpes.BankSt\n      PUSH 0\t\t\tpes.BankSt\n      KECCAK256 \t\t\tpes.BankSt\n      PUSH 1\t\t\tpes.BankStatus.A\n      ADD \t\t\tpes.BankStatus.A\n      SWAP1 \t\t\tpes.BankStatus.Active\\r\\n  \n      DUP2 \t\t\tpes.BankStatus.Active\\r\\n  \n      PUSH [tag] 705\t\t\tpes.BankStatus.Active\\r\\n  \n      SWAP2 \t\t\tpes.BankStatus.Active\\r\\n  \n      SWAP1 \t\t\tpes.BankStatus.Active\\r\\n  \n      PUSH [tag] 174\t\t\tpes.BankStatus.Active\\r\\n  \n      JUMP \t\t\tpes.BankStatus.Active\\r\\n  \n    tag 705\t\t\tpes.BankStatus.Active\\r\\n  \n      JUMPDEST \t\t\tpes.BankStatus.Active\\r\\n  \n      POP \t\t\tpes.BankStatus.Active\\r\\n  \n      PUSH C0E694475D9755514453A459373DED91F1517029FACA54000DA1C3007EC2C4F9\t\t\t   userList.push(bank_.id_);\\r...\n      DUP4 \t\t\tpus\n      DUP3 \t\t\tbank_\n      DUP5 \t\t\td_);\\r\\n\n      PUSH 40\t\t\t   userList.push(bank_.id_);\\r...\n      MLOAD \t\t\t   userList.push(bank_.id_);\\r...\n      PUSH [tag] 706\t\t\t   userList.push(bank_.id_);\\r...\n      SWAP4 \t\t\t   userList.push(bank_.id_);\\r...\n      SWAP3 \t\t\t   userList.push(bank_.id_);\\r...\n      SWAP2 \t\t\t   userList.push(bank_.id_);\\r...\n      SWAP1 \t\t\t   userList.push(bank_.id_);\\r...\n      PUSH [tag] 707\t\t\t   userList.push(bank_.id_);\\r...\n      JUMP \t\t\t   userList.push(bank_.id_);\\r...\n    tag 706\t\t\t   userList.push(bank_.id_);\\r...\n      JUMPDEST \t\t\t   userList.push(bank_.id_);\\r...\n      PUSH 40\t\t\t   userList.push(bank_.id_);\\r...\n      MLOAD \t\t\t   userList.push(bank_.id_);\\r...\n      DUP1 \t\t\t   userList.push(bank_.id_);\\r...\n      SWAP2 \t\t\t   userList.push(bank_.id_);\\r...\n      SUB \t\t\t   userList.push(bank_.id_);\\r...\n      SWAP1 \t\t\t   userList.push(bank_.id_);\\r...\n      LOG1 \t\t\t   userList.push(bank_.id_);\\r...\n      POP \t\t\tk_);\\r\\n        // Adding to c...\n      POP \t\t\tk_);\\r\\n        // Adding to c...\n      POP \t\t\tk_);\\r\\n        // Adding to c...\n      JUMP \t\t\tk_);\\r\\n        // Adding to c...\n    tag 351\t\t\t   require(pageNumber > 0, \"PN...\n      JUMPDEST \t\t\t   require(pageNumber > 0, \"PN...\n      PUSH 0\t\t\t            uint25\n      PUSH 60\t\t\tpageLength_,\\r\\n     \n      PUSH 0\t\t\t \n      DUP4 \t\t\t,\\r\\n       \n      GT \t\t\t,\\r\\n           \n      PUSH [tag] 709\t\t\trtIndex_,\\r\\n            uint2...\n      JUMPI \t\t\trtIndex_,\\r\\n            uint2...\n      PUSH 40\t\t\trtIndex_,\\r\\n            uint2...\n      MLOAD \t\t\trtIndex_,\\r\\n            uint2...\n      PUSH 8C379A000000000000000000000000000000000000000000000000000000000\t\t\trtIndex_,\\r\\n            uint2...\n      DUP2 \t\t\trtIndex_,\\r\\n            uint2...\n      MSTORE \t\t\trtIndex_,\\r\\n            uint2...\n      PUSH 4\t\t\trtIndex_,\\r\\n            uint2...\n      ADD \t\t\trtIndex_,\\r\\n            uint2...\n      PUSH [tag] 710\t\t\trtIndex_,\\r\\n            uint2...\n      SWAP1 \t\t\trtIndex_,\\r\\n            uint2...\n      PUSH [tag] 711\t\t\trtIndex_,\\r\\n            uint2...\n      JUMP \t\t\trtIndex_,\\r\\n            uint2...\n    tag 710\t\t\trtIndex_,\\r\\n            uint2...\n      JUMPDEST \t\t\trtIndex_,\\r\\n            uint2...\n      PUSH 40\t\t\trtIndex_,\\r\\n            uint2...\n      MLOAD \t\t\trtIndex_,\\r\\n            uint2...\n      DUP1 \t\t\trtIndex_,\\r\\n            uint2...\n      SWAP2 \t\t\trtIndex_,\\r\\n            uint2...\n      SUB \t\t\trtIndex_,\\r\\n            uint2...\n      SWAP1 \t\t\trtIndex_,\\r\\n            uint2...\n      REVERT \t\t\trtIndex_,\\r\\n            uint2...\n    tag 709\t\t\trtIndex_,\\r\\n            uint2...\n      JUMPDEST \t\t\trtIndex_,\\r\\n            uint2...\n      PUSH 0\t\t\txes(\\r\\n       \n      DUP1 \t\t\tmber,\\r\\n            \n      PUSH 0\t\t\t                   \n      DUP1 \t\t\ts[msg.sender]\\r\\n  \n      PUSH [tag] 712\t\t\t    : customerbanks[msg.sender...\n      DUP8 \t\t\t[msg.sende\n      PUSH 2\t\t\t\\r\\n      \n      DUP1 \t\t\t    : customerbanks[msg.sender...\n      SLOAD \t\t\t    : customerbanks[msg.sender...\n      DUP1 \t\t\t    : customerbanks[msg.sender...\n      PUSH 20\t\t\t    : customerbanks[msg.sender...\n      MUL \t\t\t    : customerbanks[msg.sender...\n      PUSH 20\t\t\t    : customerbanks[msg.sender...\n      ADD \t\t\t    : customerbanks[msg.sender...\n      PUSH 40\t\t\t    : customerbanks[msg.sender...\n      MLOAD \t\t\t    : customerbanks[msg.sender...\n      SWAP1 \t\t\t    : customerbanks[msg.sender...\n      DUP2 \t\t\t    : customerbanks[msg.sender...\n      ADD \t\t\t    : customerbanks[msg.sender...\n      PUSH 40\t\t\t    : customerbanks[msg.sender...\n      MSTORE \t\t\t    : customerbanks[msg.sender...\n      DUP1 \t\t\t    : customerbanks[msg.sender...\n      SWAP3 \t\t\t    : customerbanks[msg.sender...\n      SWAP2 \t\t\t    : customerbanks[msg.sender...\n      SWAP1 \t\t\t    : customerbanks[msg.sender...\n      DUP2 \t\t\t    : customerbanks[msg.sender...\n      DUP2 \t\t\t    : customerbanks[msg.sender...\n      MSTORE \t\t\t    : customerbanks[msg.sender...\n      PUSH 20\t\t\t    : customerbanks[msg.sender...\n      ADD \t\t\t    : customerbanks[msg.sender...\n      DUP3 \t\t\t    : customerbanks[msg.sender...\n      DUP1 \t\t\t    : customerbanks[msg.sender...\n      SLOAD \t\t\t    : customerbanks[msg.sender...\n      DUP1 \t\t\t    : customerbanks[msg.sender...\n      ISZERO \t\t\t    : customerbanks[msg.sender...\n      PUSH [tag] 713\t\t\t    : customerbanks[msg.sender...\n      JUMPI \t\t\t    : customerbanks[msg.sender...\n      PUSH 20\t\t\t    : customerbanks[msg.sender...\n      MUL \t\t\t    : customerbanks[msg.sender...\n      DUP3 \t\t\t    : customerbanks[msg.sender...\n      ADD \t\t\t    : customerbanks[msg.sender...\n      SWAP2 \t\t\t    : customerbanks[msg.sender...\n      SWAP1 \t\t\t    : customerbanks[msg.sender...\n      PUSH 0\t\t\t    : customerbanks[msg.sender...\n      MSTORE \t\t\t    : customerbanks[msg.sender...\n      PUSH 20\t\t\t    : customerbanks[msg.sender...\n      PUSH 0\t\t\t    : customerbanks[msg.sender...\n      KECCAK256 \t\t\t    : customerbanks[msg.sender...\n      SWAP1 \t\t\t    : customerbanks[msg.sender...\n    tag 714\t\t\t    : customerbanks[msg.sender...\n      JUMPDEST \t\t\t    : customerbanks[msg.sender...\n      DUP2 \t\t\t    : customerbanks[msg.sender...\n      PUSH 0\t\t\t    : customerbanks[msg.sender...\n      SWAP1 \t\t\t    : customerbanks[msg.sender...\n      SLOAD \t\t\t    : customerbanks[msg.sender...\n      SWAP1 \t\t\t    : customerbanks[msg.sender...\n      PUSH 100\t\t\t    : customerbanks[msg.sender...\n      EXP \t\t\t    : customerbanks[msg.sender...\n      SWAP1 \t\t\t    : customerbanks[msg.sender...\n      DIV \t\t\t    : customerbanks[msg.sender...\n      PUSH FFFFFFFFFFFFFFFFFFFFFFFFFFFFFFFFFFFFFFFF\t\t\t    : customerbanks[msg.sender...\n      AND \t\t\t    : customerbanks[msg.sender...\n      PUSH FFFFFFFFFFFFFFFFFFFFFFFFFFFFFFFFFFFFFFFF\t\t\t    : customerbanks[msg.sender...\n      AND \t\t\t    : customerbanks[msg.sender...\n      DUP2 \t\t\t    : customerbanks[msg.sender...\n      MSTORE \t\t\t    : customerbanks[msg.sender...\n      PUSH 20\t\t\t    : customerbanks[msg.sender...\n      ADD \t\t\t    : customerbanks[msg.sender...\n      SWAP1 \t\t\t    : customerbanks[msg.sender...\n      PUSH 1\t\t\t    : customerbanks[msg.sender...\n      ADD \t\t\t    : customerbanks[msg.sender...\n      SWAP1 \t\t\t    : customerbanks[msg.sender...\n      DUP1 \t\t\t    : customerbanks[msg.sender...\n      DUP4 \t\t\t    : customerbanks[msg.sender...\n      GT \t\t\t    : customerbanks[msg.sender...\n      PUSH [tag] 714\t\t\t    : customerbanks[msg.sender...\n      JUMPI \t\t\t    : customerbanks[msg.sender...\n    tag 713\t\t\t    : customerbanks[msg.sender...\n      JUMPDEST \t\t\t    : customerbanks[msg.sender...\n      POP \t\t\t    : customerbanks[msg.sender...\n      POP \t\t\t    : customerbanks[msg.sender...\n      POP \t\t\t    : customerbanks[msg.sender...\n      POP \t\t\t    : customerbanks[msg.sender...\n      POP \t\t\t    : customerbanks[msg.sender...\n      PUSH [tag] 715\t\t\t    : customerbank\n      JUMP \t\t\t    : customerbanks[msg.sender...\n    tag 712\t\t\t    : customerbanks[msg.sender...\n      JUMPDEST \t\t\t    : customerbanks[msg.sender...\n      SWAP4 \t\t\tHelpers.getIndexes(\\r\\n       ...\n      POP \t\t\tHelpers.getIndexes(\\r\\n       ...\n      SWAP4 \t\t\tHelpers.getIndexes(\\r\\n       ...\n      POP \t\t\tHelpers.getIndexes(\\r\\n       ...\n      SWAP4 \t\t\tHelpers.getIndexes(\\r\\n       ...\n      POP \t\t\tHelpers.getIndexes(\\r\\n       ...\n      SWAP4 \t\t\tHelpers.getIndexes(\\r\\n       ...\n      POP \t\t\tHelpers.getIndexes(\\r\\n       ...\n      PUSH 0\t\t\t    Types.KycRequest[] memory \n      DUP4 \t\t\tcRequest[](\n      PUSH FFFFFFFFFFFFFFFF\t\t\tt_ = new Types.KycRequest[](p\n      DUP2 \t\t\tt_ = new Types.KycRequest[](p\n      GT \t\t\tt_ = new Types.KycRequest[](p\n      ISZERO \t\t\tt_ = new Types.KycRequest[](p\n      PUSH [tag] 716\t\t\tt_ = new Types.KycRequest[](p\n      JUMPI \t\t\tt_ = new Types.KycRequest[](p\n      PUSH [tag] 717\t\t\tt_ = new Types.KycRequest[](p\n      PUSH [tag] 718\t\t\tt_ = new Types.KycRequest[](p\n      JUMP \t\t\tt_ = new Types.KycRequest[](p\n    tag 717\t\t\tt_ = new Types.KycRequest[](p\n      JUMPDEST \t\t\tt_ = new Types.KycRequest[](p\n    tag 716\t\t\tt_ = new Types.KycRequest[](p\n      JUMPDEST \t\t\tt_ = new Types.KycRequest[](p\n      PUSH 40\t\t\tt_ = new Types.KycRequest[](p\n      MLOAD \t\t\tt_ = new Types.KycRequest[](p\n      SWAP1 \t\t\tt_ = new Types.KycRequest[](p\n      DUP1 \t\t\tt_ = new Types.KycRequest[](p\n      DUP3 \t\t\tt_ = new Types.KycRequest[](p\n      MSTORE \t\t\tt_ = new Types.KycRequest[](p\n      DUP1 \t\t\tt_ = new Types.KycRequest[](p\n      PUSH 20\t\t\tt_ = new Types.KycRequest[](p\n      MUL \t\t\tt_ = new Types.KycRequest[](p\n      PUSH 20\t\t\tt_ = new Types.KycRequest[](p\n      ADD \t\t\tt_ = new Types.KycRequest[](p\n      DUP3 \t\t\tt_ = new Types.KycRequest[](p\n      ADD \t\t\tt_ = new Types.KycRequest[](p\n      PUSH 40\t\t\tt_ = new Types.KycRequest[](p\n      MSTORE \t\t\tt_ = new Types.KycRequest[](p\n      DUP1 \t\t\tt_ = new Types.KycRequest[](p\n      ISZERO \t\t\tt_ = new Types.KycRequest[](p\n      PUSH [tag] 719\t\t\tt_ = new Types.KycRequest[](p\n      JUMPI \t\t\tt_ = new Types.KycRequest[](p\n      DUP2 \t\t\tt_ = new Types.KycRequest[](p\n      PUSH 20\t\t\tt_ = new Types.KycRequest[](p\n      ADD \t\t\tt_ = new Types.KycRequest[](p\n    tag 720\t\t\tt_ = new Types.KycRequest[](p\n      JUMPDEST \t\t\tt_ = new Types.KycRequest[](p\n      PUSH [tag] 721\t\t\tt_ = new Types.KycRequest[](p\n      PUSH [tag] 126\t\t\tt_ = new Types.KycRequest[](p\n      JUMP \t\t\tt_ = new Types.KycRequest[](p\n    tag 721\t\t\tt_ = new Types.KycRequest[](p\n      JUMPDEST \t\t\tt_ = new Types.KycRequest[](p\n      DUP2 \t\t\tt_ = new Types.KycRequest[](p\n      MSTORE \t\t\tt_ = new Types.KycRequest[](p\n      PUSH 20\t\t\tt_ = new Types.KycRequest[](p\n      ADD \t\t\tt_ = new Types.KycRequest[](p\n      SWAP1 \t\t\tt_ = new Types.KycRequest[](p\n      PUSH 1\t\t\tt_ = new Types.KycRequest[](p\n      SWAP1 \t\t\tt_ = new Types.KycRequest[](p\n      SUB \t\t\tt_ = new Types.KycRequest[](p\n      SWAP1 \t\t\tt_ = new Types.KycRequest[](p\n      DUP2 \t\t\tt_ = new Types.KycRequest[](p\n      PUSH [tag] 720\t\t\tt_ = new Types.KycRequest[](p\n      JUMPI \t\t\tt_ = new Types.KycRequest[](p\n      SWAP1 \t\t\tt_ = new Types.KycRequest[](p\n      POP \t\t\tt_ = new Types.KycRequest[](p\n    tag 719\t\t\tt_ = new Types.KycRequest[](p\n      JUMPDEST \t\t\tt_ = new Types.KycRequest[](p\n      POP \t\t\tt_ = new Types.KycRequest[](p\n      SWAP1 \t\t\t    Types.KycRequest[] memory ...\n      POP \t\t\t    Types.KycRequest[] memory ...\n      PUSH 0\t\t\t      for\n      DUP4 \t\t\tint256 i = \n      SWAP1 \t\t\t      for (uint256 i = \n      POP \t\t\t      for (uint256 i = \n    tag 722\t\t\t;\\r\\n        for (uint256 i = ...\n      JUMPDEST \t\t\t;\\r\\n        for (uint256 i = ...\n      DUP3 \t\t\tndex_; i \n      DUP2 \t\t\ta\n      LT \t\t\tartIndex_; i \n      ISZERO \t\t\t;\\r\\n        for (uint256 i = ...\n      PUSH [tag] 723\t\t\t;\\r\\n        for (uint256 i = ...\n      JUMPI \t\t\t;\\r\\n        for (uint256 i = ...\n      PUSH 3\t\t\t[i] =\n      PUSH 0\t\t\t[i] = isForBank\\r\\n \n      PUSH 2\t\t\tisForBan\n      DUP4 \t\t\t\\r\n      DUP2 \t\t\tisForBank\\r\\n\n      SLOAD \t\t\tisForBank\\r\\n\n      DUP2 \t\t\tisForBank\\r\\n\n      LT \t\t\tisForBank\\r\\n\n      PUSH [tag] 725\t\t\tisForBank\\r\\n\n      JUMPI \t\t\tisForBank\\r\\n\n      PUSH [tag] 726\t\t\tisForBank\\r\\n\n      PUSH [tag] 234\t\t\tisForBank\\r\\n\n      JUMP \t\t\tisForBank\\r\\n\n    tag 726\t\t\tisForBank\\r\\n\n      JUMPDEST \t\t\tisForBank\\r\\n\n    tag 725\t\t\tisForBank\\r\\n\n      JUMPDEST \t\t\tisForBank\\r\\n\n      SWAP1 \t\t\tisForBank\\r\\n\n      PUSH 0\t\t\tisForBank\\r\\n\n      MSTORE \t\t\tisForBank\\r\\n\n      PUSH 20\t\t\tisForBank\\r\\n\n      PUSH 0\t\t\tisForBank\\r\\n\n      KECCAK256 \t\t\tisForBank\\r\\n\n      ADD \t\t\tisForBank\\r\\n\n      PUSH 0\t\t\tisForBank\\r\\n\n      SWAP1 \t\t\tisForBank\\r\\n\n      SLOAD \t\t\tisForBank\\r\\n\n      SWAP1 \t\t\tisForBank\\r\\n\n      PUSH 100\t\t\tisForBank\\r\\n\n      EXP \t\t\tisForBank\\r\\n\n      SWAP1 \t\t\tisForBank\\r\\n\n      DIV \t\t\tisForBank\\r\\n\n      PUSH FFFFFFFFFFFFFFFFFFFFFFFFFFFFFFFFFFFFFFFF\t\t\tisForBank\\r\\n\n      AND \t\t\tisForBank\\r\\n\n      PUSH FFFFFFFFFFFFFFFFFFFFFFFFFFFFFFFFFFFFFFFF\t\t\t[i] = isForBank\\r\\n \n      AND \t\t\t[i] = isForBank\\r\\n \n      PUSH FFFFFFFFFFFFFFFFFFFFFFFFFFFFFFFFFFFFFFFF\t\t\t[i] = isForBank\\r\\n \n      AND \t\t\t[i] = isForBank\\r\\n \n      DUP2 \t\t\t[i] = isForBank\\r\\n \n      MSTORE \t\t\t[i] = isForBank\\r\\n \n      PUSH 20\t\t\t[i] = isForBank\\r\\n \n      ADD \t\t\t[i] = isForBank\\r\\n \n      SWAP1 \t\t\t[i] = isForBank\\r\\n \n      DUP2 \t\t\t[i] = isForBank\\r\\n \n      MSTORE \t\t\t[i] = isForBank\\r\\n \n      PUSH 20\t\t\t[i] = isForBank\\r\\n \n      ADD \t\t\t[i] = isForBank\\r\\n \n      PUSH 0\t\t\t[i] = isForBank\\r\\n \n      KECCAK256 \t\t\t[i] = isForBank\\r\\n \n      PUSH 40\t\t\t           list_[i] = isForBan...\n      MLOAD \t\t\t           list_[i] = isForBan...\n      DUP1 \t\t\t           list_[i] = isForBan...\n      PUSH C0\t\t\t           list_[i] = isForBan...\n      ADD \t\t\t           list_[i] = isForBan...\n      PUSH 40\t\t\t           list_[i] = isForBan...\n      MSTORE \t\t\t           list_[i] = isForBan...\n      SWAP1 \t\t\t           list_[i] = isForBan...\n      DUP2 \t\t\t           list_[i] = isForBan...\n      PUSH 0\t\t\t           list_[i] = isForBan...\n      DUP3 \t\t\t           list_[i] = isForBan...\n      ADD \t\t\t           list_[i] = isForBan...\n      DUP1 \t\t\t           list_[i] = isForBan...\n      SLOAD \t\t\t           list_[i] = isForBan...\n      PUSH [tag] 728\t\t\t           list_[i] = isForBan...\n      SWAP1 \t\t\t           list_[i] = isForBan...\n      PUSH [tag] 113\t\t\t           list_[i] = isForBan...\n      JUMP \t\t\t           list_[i] = isForBan...\n    tag 728\t\t\t           list_[i] = isForBan...\n      JUMPDEST \t\t\t           list_[i] = isForBan...\n      DUP1 \t\t\t           list_[i] = isForBan...\n      PUSH 1F\t\t\t           list_[i] = isForBan...\n      ADD \t\t\t           list_[i] = isForBan...\n      PUSH 20\t\t\t           list_[i] = isForBan...\n      DUP1 \t\t\t           list_[i] = isForBan...\n      SWAP2 \t\t\t           list_[i] = isForBan...\n      DIV \t\t\t           list_[i] = isForBan...\n      MUL \t\t\t           list_[i] = isForBan...\n      PUSH 20\t\t\t           list_[i] = isForBan...\n      ADD \t\t\t           list_[i] = isForBan...\n      PUSH 40\t\t\t           list_[i] = isForBan...\n      MLOAD \t\t\t           list_[i] = isForBan...\n      SWAP1 \t\t\t           list_[i] = isForBan...\n      DUP2 \t\t\t           list_[i] = isForBan...\n      ADD \t\t\t           list_[i] = isForBan...\n      PUSH 40\t\t\t           list_[i] = isForBan...\n      MSTORE \t\t\t           list_[i] = isForBan...\n      DUP1 \t\t\t           list_[i] = isForBan...\n      SWAP3 \t\t\t           list_[i] = isForBan...\n      SWAP2 \t\t\t           list_[i] = isForBan...\n      SWAP1 \t\t\t           list_[i] = isForBan...\n      DUP2 \t\t\t           list_[i] = isForBan...\n      DUP2 \t\t\t           list_[i] = isForBan...\n      MSTORE \t\t\t           list_[i] = isForBan...\n      PUSH 20\t\t\t           list_[i] = isForBan...\n      ADD \t\t\t           list_[i] = isForBan...\n      DUP3 \t\t\t           list_[i] = isForBan...\n      DUP1 \t\t\t           list_[i] = isForBan...\n      SLOAD \t\t\t           list_[i] = isForBan...\n      PUSH [tag] 729\t\t\t           list_[i] = isForBan...\n      SWAP1 \t\t\t           list_[i] = isForBan...\n      PUSH [tag] 113\t\t\t           list_[i] = isForBan...\n      JUMP \t\t\t           list_[i] = isForBan...\n    tag 729\t\t\t           list_[i] = isForBan...\n      JUMPDEST \t\t\t           list_[i] = isForBan...\n      DUP1 \t\t\t           list_[i] = isForBan...\n      ISZERO \t\t\t           list_[i] = isForBan...\n      PUSH [tag] 730\t\t\t           list_[i] = isForBan...\n      JUMPI \t\t\t           list_[i] = isForBan...\n      DUP1 \t\t\t           list_[i] = isForBan...\n      PUSH 1F\t\t\t           list_[i] = isForBan...\n      LT \t\t\t           list_[i] = isForBan...\n      PUSH [tag] 731\t\t\t           list_[i] = isForBan...\n      JUMPI \t\t\t           list_[i] = isForBan...\n      PUSH 100\t\t\t           list_[i] = isForBan...\n      DUP1 \t\t\t           list_[i] = isForBan...\n      DUP4 \t\t\t           list_[i] = isForBan...\n      SLOAD \t\t\t           list_[i] = isForBan...\n      DIV \t\t\t           list_[i] = isForBan...\n      MUL \t\t\t           list_[i] = isForBan...\n      DUP4 \t\t\t           list_[i] = isForBan...\n      MSTORE \t\t\t           list_[i] = isForBan...\n      SWAP2 \t\t\t           list_[i] = isForBan...\n      PUSH 20\t\t\t           list_[i] = isForBan...\n      ADD \t\t\t           list_[i] = isForBan...\n      SWAP2 \t\t\t           list_[i] = isForBan...\n      PUSH [tag] 730\t\t\t           list_[i] = isForBan...\n      JUMP \t\t\t           list_[i] = isForBan...\n    tag 731\t\t\t           list_[i] = isForBan...\n      JUMPDEST \t\t\t           list_[i] = isForBan...\n      DUP3 \t\t\t           list_[i] = isForBan...\n      ADD \t\t\t           list_[i] = isForBan...\n      SWAP2 \t\t\t           list_[i] = isForBan...\n      SWAP1 \t\t\t           list_[i] = isForBan...\n      PUSH 0\t\t\t           list_[i] = isForBan...\n      MSTORE \t\t\t           list_[i] = isForBan...\n      PUSH 20\t\t\t           list_[i] = isForBan...\n      PUSH 0\t\t\t           list_[i] = isForBan...\n      KECCAK256 \t\t\t           list_[i] = isForBan...\n      SWAP1 \t\t\t           list_[i] = isForBan...\n    tag 732\t\t\t           list_[i] = isForBan...\n      JUMPDEST \t\t\t           list_[i] = isForBan...\n      DUP2 \t\t\t           list_[i] = isForBan...\n      SLOAD \t\t\t           list_[i] = isForBan...\n      DUP2 \t\t\t           list_[i] = isForBan...\n      MSTORE \t\t\t           list_[i] = isForBan...\n      SWAP1 \t\t\t           list_[i] = isForBan...\n      PUSH 1\t\t\t           list_[i] = isForBan...\n      ADD \t\t\t           list_[i] = isForBan...\n      SWAP1 \t\t\t           list_[i] = isForBan...\n      PUSH 20\t\t\t           list_[i] = isForBan...\n      ADD \t\t\t           list_[i] = isForBan...\n      DUP1 \t\t\t           list_[i] = isForBan...\n      DUP4 \t\t\t           list_[i] = isForBan...\n      GT \t\t\t           list_[i] = isForBan...\n      PUSH [tag] 732\t\t\t           list_[i] = isForBan...\n      JUMPI \t\t\t           list_[i] = isForBan...\n      DUP3 \t\t\t           list_[i] = isForBan...\n      SWAP1 \t\t\t           list_[i] = isForBan...\n      SUB \t\t\t           list_[i] = isForBan...\n      PUSH 1F\t\t\t           list_[i] = isForBan...\n      AND \t\t\t           list_[i] = isForBan...\n      DUP3 \t\t\t           list_[i] = isForBan...\n      ADD \t\t\t           list_[i] = isForBan...\n      SWAP2 \t\t\t           list_[i] = isForBan...\n    tag 730\t\t\t           list_[i] = isForBan...\n      JUMPDEST \t\t\t           list_[i] = isForBan...\n      POP \t\t\t           list_[i] = isForBan...\n      POP \t\t\t           list_[i] = isForBan...\n      POP \t\t\t           list_[i] = isForBan...\n      POP \t\t\t           list_[i] = isForBan...\n      POP \t\t\t           list_[i] = isForBan...\n      DUP2 \t\t\t           list_[i] = isForBan...\n      MSTORE \t\t\t           list_[i] = isForBan...\n      PUSH 20\t\t\t           list_[i] = isForBan...\n      ADD \t\t\t           list_[i] = isForBan...\n      PUSH 1\t\t\t           list_[i] = isForBan...\n      DUP3 \t\t\t           list_[i] = isForBan...\n      ADD \t\t\t           list_[i] = isForBan...\n      DUP1 \t\t\t           list_[i] = isForBan...\n      SLOAD \t\t\t           list_[i] = isForBan...\n      PUSH [tag] 733\t\t\t           list_[i] = isForBan...\n      SWAP1 \t\t\t           list_[i] = isForBan...\n      PUSH [tag] 113\t\t\t           list_[i] = isForBan...\n      JUMP \t\t\t           list_[i] = isForBan...\n    tag 733\t\t\t           list_[i] = isForBan...\n      JUMPDEST \t\t\t           list_[i] = isForBan...\n      DUP1 \t\t\t           list_[i] = isForBan...\n      PUSH 1F\t\t\t           list_[i] = isForBan...\n      ADD \t\t\t           list_[i] = isForBan...\n      PUSH 20\t\t\t           list_[i] = isForBan...\n      DUP1 \t\t\t           list_[i] = isForBan...\n      SWAP2 \t\t\t           list_[i] = isForBan...\n      DIV \t\t\t           list_[i] = isForBan...\n      MUL \t\t\t           list_[i] = isForBan...\n      PUSH 20\t\t\t           list_[i] = isForBan...\n      ADD \t\t\t           list_[i] = isForBan...\n      PUSH 40\t\t\t           list_[i] = isForBan...\n      MLOAD \t\t\t           list_[i] = isForBan...\n      SWAP1 \t\t\t           list_[i] = isForBan...\n      DUP2 \t\t\t           list_[i] = isForBan...\n      ADD \t\t\t           list_[i] = isForBan...\n      PUSH 40\t\t\t           list_[i] = isForBan...\n      MSTORE \t\t\t           list_[i] = isForBan...\n      DUP1 \t\t\t           list_[i] = isForBan...\n      SWAP3 \t\t\t           list_[i] = isForBan...\n      SWAP2 \t\t\t           list_[i] = isForBan...\n      SWAP1 \t\t\t           list_[i] = isForBan...\n      DUP2 \t\t\t           list_[i] = isForBan...\n      DUP2 \t\t\t           list_[i] = isForBan...\n      MSTORE \t\t\t           list_[i] = isForBan...\n      PUSH 20\t\t\t           list_[i] = isForBan...\n      ADD \t\t\t           list_[i] = isForBan...\n      DUP3 \t\t\t           list_[i] = isForBan...\n      DUP1 \t\t\t           list_[i] = isForBan...\n      SLOAD \t\t\t           list_[i] = isForBan...\n      PUSH [tag] 734\t\t\t           list_[i] = isForBan...\n      SWAP1 \t\t\t           list_[i] = isForBan...\n      PUSH [tag] 113\t\t\t           list_[i] = isForBan...\n      JUMP \t\t\t           list_[i] = isForBan...\n    tag 734\t\t\t           list_[i] = isForBan...\n      JUMPDEST \t\t\t           list_[i] = isForBan...\n      DUP1 \t\t\t           list_[i] = isForBan...\n      ISZERO \t\t\t           list_[i] = isForBan...\n      PUSH [tag] 735\t\t\t           list_[i] = isForBan...\n      JUMPI \t\t\t           list_[i] = isForBan...\n      DUP1 \t\t\t           list_[i] = isForBan...\n      PUSH 1F\t\t\t           list_[i] = isForBan...\n      LT \t\t\t           list_[i] = isForBan...\n      PUSH [tag] 736\t\t\t           list_[i] = isForBan...\n      JUMPI \t\t\t           list_[i] = isForBan...\n      PUSH 100\t\t\t           list_[i] = isForBan...\n      DUP1 \t\t\t           list_[i] = isForBan...\n      DUP4 \t\t\t           list_[i] = isForBan...\n      SLOAD \t\t\t           list_[i] = isForBan...\n      DIV \t\t\t           list_[i] = isForBan...\n      MUL \t\t\t           list_[i] = isForBan...\n      DUP4 \t\t\t           list_[i] = isForBan...\n      MSTORE \t\t\t           list_[i] = isForBan...\n      SWAP2 \t\t\t           list_[i] = isForBan...\n      PUSH 20\t\t\t           list_[i] = isForBan...\n      ADD \t\t\t           list_[i] = isForBan...\n      SWAP2 \t\t\t           list_[i] = isForBan...\n      PUSH [tag] 735\t\t\t           list_[i] = isForBan...\n      JUMP \t\t\t           list_[i] = isForBan...\n    tag 736\t\t\t           list_[i] = isForBan...\n      JUMPDEST \t\t\t           list_[i] = isForBan...\n      DUP3 \t\t\t           list_[i] = isForBan...\n      ADD \t\t\t           list_[i] = isForBan...\n      SWAP2 \t\t\t           list_[i] = isForBan...\n      SWAP1 \t\t\t           list_[i] = isForBan...\n      PUSH 0\t\t\t           list_[i] = isForBan...\n      MSTORE \t\t\t           list_[i] = isForBan...\n      PUSH 20\t\t\t           list_[i] = isForBan...\n      PUSH 0\t\t\t           list_[i] = isForBan...\n      KECCAK256 \t\t\t           list_[i] = isForBan...\n      SWAP1 \t\t\t           list_[i] = isForBan...\n    tag 737\t\t\t           list_[i] = isForBan...\n      JUMPDEST \t\t\t           list_[i] = isForBan...\n      DUP2 \t\t\t           list_[i] = isForBan...\n      SLOAD \t\t\t           list_[i] = isForBan...\n      DUP2 \t\t\t           list_[i] = isForBan...\n      MSTORE \t\t\t           list_[i] = isForBan...\n      SWAP1 \t\t\t           list_[i] = isForBan...\n      PUSH 1\t\t\t           list_[i] = isForBan...\n      ADD \t\t\t           list_[i] = isForBan...\n      SWAP1 \t\t\t           list_[i] = isForBan...\n      PUSH 20\t\t\t           list_[i] = isForBan...\n      ADD \t\t\t           list_[i] = isForBan...\n      DUP1 \t\t\t           list_[i] = isForBan...\n      DUP4 \t\t\t           list_[i] = isForBan...\n      GT \t\t\t           list_[i] = isForBan...\n      PUSH [tag] 737\t\t\t           list_[i] = isForBan...\n      JUMPI \t\t\t           list_[i] = isForBan...\n      DUP3 \t\t\t           list_[i] = isForBan...\n      SWAP1 \t\t\t           list_[i] = isForBan...\n      SUB \t\t\t           list_[i] = isForBan...\n      PUSH 1F\t\t\t           list_[i] = isForBan...\n      AND \t\t\t           list_[i] = isForBan...\n      DUP3 \t\t\t           list_[i] = isForBan...\n      ADD \t\t\t           list_[i] = isForBan...\n      SWAP2 \t\t\t           list_[i] = isForBan...\n    tag 735\t\t\t           list_[i] = isForBan...\n      JUMPDEST \t\t\t           list_[i] = isForBan...\n      POP \t\t\t           list_[i] = isForBan...\n      POP \t\t\t           list_[i] = isForBan...\n      POP \t\t\t           list_[i] = isForBan...\n      POP \t\t\t           list_[i] = isForBan...\n      POP \t\t\t           list_[i] = isForBan...\n      DUP2 \t\t\t           list_[i] = isForBan...\n      MSTORE \t\t\t           list_[i] = isForBan...\n      PUSH 20\t\t\t           list_[i] = isForBan...\n      ADD \t\t\t           list_[i] = isForBan...\n      PUSH 2\t\t\t           list_[i] = isForBan...\n      DUP3 \t\t\t           list_[i] = isForBan...\n      ADD \t\t\t           list_[i] = isForBan...\n      PUSH 0\t\t\t           list_[i] = isForBan...\n      SWAP1 \t\t\t           list_[i] = isForBan...\n      SLOAD \t\t\t           list_[i] = isForBan...\n      SWAP1 \t\t\t           list_[i] = isForBan...\n      PUSH 100\t\t\t           list_[i] = isForBan...\n      EXP \t\t\t           list_[i] = isForBan...\n      SWAP1 \t\t\t           list_[i] = isForBan...\n      DIV \t\t\t           list_[i] = isForBan...\n      PUSH FFFFFFFFFFFFFFFFFFFFFFFFFFFFFFFFFFFFFFFF\t\t\t           list_[i] = isForBan...\n      AND \t\t\t           list_[i] = isForBan...\n      PUSH FFFFFFFFFFFFFFFFFFFFFFFFFFFFFFFFFFFFFFFF\t\t\t           list_[i] = isForBan...\n      AND \t\t\t           list_[i] = isForBan...\n      PUSH FFFFFFFFFFFFFFFFFFFFFFFFFFFFFFFFFFFFFFFF\t\t\t           list_[i] = isForBan...\n      AND \t\t\t           list_[i] = isForBan...\n      DUP2 \t\t\t           list_[i] = isForBan...\n      MSTORE \t\t\t           list_[i] = isForBan...\n      PUSH 20\t\t\t           list_[i] = isForBan...\n      ADD \t\t\t           list_[i] = isForBan...\n      PUSH 3\t\t\t           list_[i] = isForBan...\n      DUP3 \t\t\t           list_[i] = isForBan...\n      ADD \t\t\t           list_[i] = isForBan...\n      DUP1 \t\t\t           list_[i] = isForBan...\n      SLOAD \t\t\t           list_[i] = isForBan...\n      PUSH [tag] 738\t\t\t           list_[i] = isForBan...\n      SWAP1 \t\t\t           list_[i] = isForBan...\n      PUSH [tag] 113\t\t\t           list_[i] = isForBan...\n      JUMP \t\t\t           list_[i] = isForBan...\n    tag 738\t\t\t           list_[i] = isForBan...\n      JUMPDEST \t\t\t           list_[i] = isForBan...\n      DUP1 \t\t\t           list_[i] = isForBan...\n      PUSH 1F\t\t\t           list_[i] = isForBan...\n      ADD \t\t\t           list_[i] = isForBan...\n      PUSH 20\t\t\t           list_[i] = isForBan...\n      DUP1 \t\t\t           list_[i] = isForBan...\n      SWAP2 \t\t\t           list_[i] = isForBan...\n      DIV \t\t\t           list_[i] = isForBan...\n      MUL \t\t\t           list_[i] = isForBan...\n      PUSH 20\t\t\t           list_[i] = isForBan...\n      ADD \t\t\t           list_[i] = isForBan...\n      PUSH 40\t\t\t           list_[i] = isForBan...\n      MLOAD \t\t\t           list_[i] = isForBan...\n      SWAP1 \t\t\t           list_[i] = isForBan...\n      DUP2 \t\t\t           list_[i] = isForBan...\n      ADD \t\t\t           list_[i] = isForBan...\n      PUSH 40\t\t\t           list_[i] = isForBan...\n      MSTORE \t\t\t           list_[i] = isForBan...\n      DUP1 \t\t\t           list_[i] = isForBan...\n      SWAP3 \t\t\t           list_[i] = isForBan...\n      SWAP2 \t\t\t           list_[i] = isForBan...\n      SWAP1 \t\t\t           list_[i] = isForBan...\n      DUP2 \t\t\t           list_[i] = isForBan...\n      DUP2 \t\t\t           list_[i] = isForBan...\n      MSTORE \t\t\t           list_[i] = isForBan...\n      PUSH 20\t\t\t           list_[i] = isForBan...\n      ADD \t\t\t           list_[i] = isForBan...\n      DUP3 \t\t\t           list_[i] = isForBan...\n      DUP1 \t\t\t           list_[i] = isForBan...\n      SLOAD \t\t\t           list_[i] = isForBan...\n      PUSH [tag] 739\t\t\t           list_[i] = isForBan...\n      SWAP1 \t\t\t           list_[i] = isForBan...\n      PUSH [tag] 113\t\t\t           list_[i] = isForBan...\n      JUMP \t\t\t           list_[i] = isForBan...\n    tag 739\t\t\t           list_[i] = isForBan...\n      JUMPDEST \t\t\t           list_[i] = isForBan...\n      DUP1 \t\t\t           list_[i] = isForBan...\n      ISZERO \t\t\t           list_[i] = isForBan...\n      PUSH [tag] 740\t\t\t           list_[i] = isForBan...\n      JUMPI \t\t\t           list_[i] = isForBan...\n      DUP1 \t\t\t           list_[i] = isForBan...\n      PUSH 1F\t\t\t           list_[i] = isForBan...\n      LT \t\t\t           list_[i] = isForBan...\n      PUSH [tag] 741\t\t\t           list_[i] = isForBan...\n      JUMPI \t\t\t           list_[i] = isForBan...\n      PUSH 100\t\t\t           list_[i] = isForBan...\n      DUP1 \t\t\t           list_[i] = isForBan...\n      DUP4 \t\t\t           list_[i] = isForBan...\n      SLOAD \t\t\t           list_[i] = isForBan...\n      DIV \t\t\t           list_[i] = isForBan...\n      MUL \t\t\t           list_[i] = isForBan...\n      DUP4 \t\t\t           list_[i] = isForBan...\n      MSTORE \t\t\t           list_[i] = isForBan...\n      SWAP2 \t\t\t           list_[i] = isForBan...\n      PUSH 20\t\t\t           list_[i] = isForBan...\n      ADD \t\t\t           list_[i] = isForBan...\n      SWAP2 \t\t\t           list_[i] = isForBan...\n      PUSH [tag] 740\t\t\t           list_[i] = isForBan...\n      JUMP \t\t\t           list_[i] = isForBan...\n    tag 741\t\t\t           list_[i] = isForBan...\n      JUMPDEST \t\t\t           list_[i] = isForBan...\n      DUP3 \t\t\t           list_[i] = isForBan...\n      ADD \t\t\t           list_[i] = isForBan...\n      SWAP2 \t\t\t           list_[i] = isForBan...\n      SWAP1 \t\t\t           list_[i] = isForBan...\n      PUSH 0\t\t\t           list_[i] = isForBan...\n      MSTORE \t\t\t           list_[i] = isForBan...\n      PUSH 20\t\t\t           list_[i] = isForBan...\n      PUSH 0\t\t\t           list_[i] = isForBan...\n      KECCAK256 \t\t\t           list_[i] = isForBan...\n      SWAP1 \t\t\t           list_[i] = isForBan...\n    tag 742\t\t\t           list_[i] = isForBan...\n      JUMPDEST \t\t\t           list_[i] = isForBan...\n      DUP2 \t\t\t           list_[i] = isForBan...\n      SLOAD \t\t\t           list_[i] = isForBan...\n      DUP2 \t\t\t           list_[i] = isForBan...\n      MSTORE \t\t\t           list_[i] = isForBan...\n      SWAP1 \t\t\t           list_[i] = isForBan...\n      PUSH 1\t\t\t           list_[i] = isForBan...\n      ADD \t\t\t           list_[i] = isForBan...\n      SWAP1 \t\t\t           list_[i] = isForBan...\n      PUSH 20\t\t\t           list_[i] = isForBan...\n      ADD \t\t\t           list_[i] = isForBan...\n      DUP1 \t\t\t           list_[i] = isForBan...\n      DUP4 \t\t\t           list_[i] = isForBan...\n      GT \t\t\t           list_[i] = isForBan...\n      PUSH [tag] 742\t\t\t           list_[i] = isForBan...\n      JUMPI \t\t\t           list_[i] = isForBan...\n      DUP3 \t\t\t           list_[i] = isForBan...\n      SWAP1 \t\t\t           list_[i] = isForBan...\n      SUB \t\t\t           list_[i] = isForBan...\n      PUSH 1F\t\t\t           list_[i] = isForBan...\n      AND \t\t\t           list_[i] = isForBan...\n      DUP3 \t\t\t           list_[i] = isForBan...\n      ADD \t\t\t           list_[i] = isForBan...\n      SWAP2 \t\t\t           list_[i] = isForBan...\n    tag 740\t\t\t           list_[i] = isForBan...\n      JUMPDEST \t\t\t           list_[i] = isForBan...\n      POP \t\t\t           list_[i] = isForBan...\n      POP \t\t\t           list_[i] = isForBan...\n      POP \t\t\t           list_[i] = isForBan...\n      POP \t\t\t           list_[i] = isForBan...\n      POP \t\t\t           list_[i] = isForBan...\n      DUP2 \t\t\t           list_[i] = isForBan...\n      MSTORE \t\t\t           list_[i] = isForBan...\n      PUSH 20\t\t\t           list_[i] = isForBan...\n      ADD \t\t\t           list_[i] = isForBan...\n      PUSH 4\t\t\t           list_[i] = isForBan...\n      DUP3 \t\t\t           list_[i] = isForBan...\n      ADD \t\t\t           list_[i] = isForBan...\n      PUSH 0\t\t\t           list_[i] = isForBan...\n      SWAP1 \t\t\t           list_[i] = isForBan...\n      SLOAD \t\t\t           list_[i] = isForBan...\n      SWAP1 \t\t\t           list_[i] = isForBan...\n      PUSH 100\t\t\t           list_[i] = isForBan...\n      EXP \t\t\t           list_[i] = isForBan...\n      SWAP1 \t\t\t           list_[i] = isForBan...\n      DIV \t\t\t           list_[i] = isForBan...\n      PUSH FFFF\t\t\t           list_[i] = isForBan...\n      AND \t\t\t           list_[i] = isForBan...\n      PUSH FFFF\t\t\t           list_[i] = isForBan...\n      AND \t\t\t           list_[i] = isForBan...\n      PUSH FFFF\t\t\t           list_[i] = isForBan...\n      AND \t\t\t           list_[i] = isForBan...\n      DUP2 \t\t\t           list_[i] = isForBan...\n      MSTORE \t\t\t           list_[i] = isForBan...\n      PUSH 20\t\t\t           list_[i] = isForBan...\n      ADD \t\t\t           list_[i] = isForBan...\n      PUSH 4\t\t\t           list_[i] = isForBan...\n      DUP3 \t\t\t           list_[i] = isForBan...\n      ADD \t\t\t           list_[i] = isForBan...\n      PUSH 2\t\t\t           list_[i] = isForBan...\n      SWAP1 \t\t\t           list_[i] = isForBan...\n      SLOAD \t\t\t           list_[i] = isForBan...\n      SWAP1 \t\t\t           list_[i] = isForBan...\n      PUSH 100\t\t\t           list_[i] = isForBan...\n      EXP \t\t\t           list_[i] = isForBan...\n      SWAP1 \t\t\t           list_[i] = isForBan...\n      DIV \t\t\t           list_[i] = isForBan...\n      PUSH FF\t\t\t           list_[i] = isForBan...\n      AND \t\t\t           list_[i] = isForBan...\n      PUSH 1\t\t\t           list_[i] = isForBan...\n      DUP2 \t\t\t           list_[i] = isForBan...\n      GT \t\t\t           list_[i] = isForBan...\n      ISZERO \t\t\t           list_[i] = isForBan...\n      PUSH [tag] 743\t\t\t           list_[i] = isForBan...\n      JUMPI \t\t\t           list_[i] = isForBan...\n      PUSH [tag] 744\t\t\t           list_[i] = isForBan...\n      PUSH [tag] 135\t\t\t           list_[i] = isForBan...\n      JUMP \t\t\t           list_[i] = isForBan...\n    tag 744\t\t\t           list_[i] = isForBan...\n      JUMPDEST \t\t\t           list_[i] = isForBan...\n    tag 743\t\t\t           list_[i] = isForBan...\n      JUMPDEST \t\t\t           list_[i] = isForBan...\n      PUSH 1\t\t\t           list_[i] = isForBan...\n      DUP2 \t\t\t           list_[i] = isForBan...\n      GT \t\t\t           list_[i] = isForBan...\n      ISZERO \t\t\t           list_[i] = isForBan...\n      PUSH [tag] 745\t\t\t           list_[i] = isForBan...\n      JUMPI \t\t\t           list_[i] = isForBan...\n      PUSH [tag] 746\t\t\t           list_[i] = isForBan...\n      PUSH [tag] 135\t\t\t           list_[i] = isForBan...\n      JUMP \t\t\t           list_[i] = isForBan...\n    tag 746\t\t\t           list_[i] = isForBan...\n      JUMPDEST \t\t\t           list_[i] = isForBan...\n    tag 745\t\t\t           list_[i] = isForBan...\n      JUMPDEST \t\t\t           list_[i] = isForBan...\n      DUP2 \t\t\t           list_[i] = isForBan...\n      MSTORE \t\t\t           list_[i] = isForBan...\n      POP \t\t\t           list_[i] = isForBan...\n      POP \t\t\t           list_[i] = isForBan...\n      DUP3 \t\t\t          \n      DUP3 \t\t\tl\n      DUP2 \t\t\t           li\n      MLOAD \t\t\t           li\n      DUP2 \t\t\t           li\n      LT \t\t\t           li\n      PUSH [tag] 747\t\t\t           li\n      JUMPI \t\t\t           li\n      PUSH [tag] 748\t\t\t           li\n      PUSH [tag] 234\t\t\t           li\n      JUMP \t\t\t           li\n    tag 748\t\t\t           li\n      JUMPDEST \t\t\t           li\n    tag 747\t\t\t           li\n      JUMPDEST \t\t\t           li\n      PUSH 20\t\t\t           li\n      MUL \t\t\t           li\n      PUSH 20\t\t\t           li\n      ADD \t\t\t           li\n      ADD \t\t\t           li\n      DUP2 \t\t\t           list_[i] = isForBan...\n      SWAP1 \t\t\t           list_[i] = isForBan...\n      MSTORE \t\t\t           list_[i] = isForBan...\n      POP \t\t\t           list_[i] = isForBan...\n      DUP1 \t\t\tend\n      DUP1 \t\t\tend\n      PUSH [tag] 749\t\t\tend\n      SWAP1 \t\t\tend\n      PUSH [tag] 273\t\t\tend\n      JUMP \t\t\tend\n    tag 749\t\t\tend\n      JUMPDEST \t\t\tend\n      SWAP2 \t\t\tend\n      POP \t\t\tend\n      POP \t\t\tend\n      PUSH [tag] 722\t\t\t;\\r\\n        for (uint256 i = ...\n      JUMP \t\t\t;\\r\\n        for (uint256 i = ...\n    tag 723\t\t\t;\\r\\n        for (uint256 i = ...\n      JUMPDEST \t\t\t;\\r\\n        for (uint256 i = ...\n      POP \t\t\t;\\r\\n        for (uint256 i = ...\n      DUP5 \t\t\tcRequ\n      DUP2 \t\t\tts[\\r\\n     \n      SWAP7 \t\t\t    ? kycRequests[\\r\\n      \n      POP \t\t\t    ? kycRequests[\\r\\n      \n      SWAP7 \t\t\t    ? kycRequests[\\r\\n      \n      POP \t\t\t    ? kycRequests[\\r\\n      \n      POP \t\t\t    ? kycRequests[\\r\\n      \n      POP \t\t\t    ? kycRequests[\\r\\n      \n      POP \t\t\t    ? kycRequests[\\r\\n      \n      POP \t\t\t    ? kycRequests[\\r\\n      \n      POP \t\t\t    ? kycRequests[\\r\\n      \n      SWAP2 \t\t\t   require(pageNumber > 0, \"PN...\n      POP \t\t\t   require(pageNumber > 0, \"PN...\n      SWAP2 \t\t\t   require(pageNumber > 0, \"PN...\n      JUMP \t\t\t   require(pageNumber > 0, \"PN...\n    tag 384\t\t\teturn getKYCRequests(pageNumbe...\n      JUMPDEST \t\t\teturn getKYCRequests(pageNumbe...\n      PUSH 0\t\t\t  * \n      PUSH [tag] 750\t\t\taram customer_ Custom\n      PUSH [tag] 103\t\t\taram customer_ Custom\n      JUMP \t\t\taram customer_ Custom\n    tag 750\t\t\taram customer_ Custom\n      JUMPDEST \t\t\taram customer_ Custom\n      PUSH 0\t\t\tm the reque\n      PUSH [tag] 752\t\t\t raised\\r\\n     * @param curre...\n      PUSH [tag] 103\t\t\t raised\\r\\n     * @param curre...\n      JUMP \t\t\t raised\\r\\n     * @param curre...\n    tag 752\t\t\t raised\\r\\n     * @param curre...\n      JUMPDEST \t\t\t raised\\r\\n     * @param curre...\n      PUSH 0\t\t\t& Time in\n    tag 753\t\t\tDate & Time in unix epoch time...\n      JUMPDEST \t\t\tDate & Time in unix epoch time...\n      DUP6 \t\t\th timestam\n      MLOAD \t\t\th timestamp\\r\\n    \n      DUP2 \t\t\te\n      LT \t\t\tepoch timestamp\\r\\n    \n      ISZERO \t\t\tDate & Time in unix epoch time...\n      PUSH [tag] 754\t\t\tDate & Time in unix epoch time...\n      JUMPI \t\t\tDate & Time in unix epoch time...\n      DUP7 \t\t\tnee\n      PUSH FFFFFFFFFFFFFFFFFFFFFFFFFFFFFFFFFFFFFFFF\t\t\tional notes that nee\n      AND \t\t\tional notes that nee\n      DUP7 \t\t\tional note\n      DUP3 \t\t\t \n      DUP2 \t\t\tional notes t\n      MLOAD \t\t\tional notes t\n      DUP2 \t\t\tional notes t\n      LT \t\t\tional notes t\n      PUSH [tag] 756\t\t\tional notes t\n      JUMPI \t\t\tional notes t\n      PUSH [tag] 757\t\t\tional notes t\n      PUSH [tag] 234\t\t\tional notes t\n      JUMP \t\t\tional notes t\n    tag 757\t\t\tional notes t\n      JUMPDEST \t\t\tional notes t\n    tag 756\t\t\tional notes t\n      JUMPDEST \t\t\tional notes t\n      PUSH 20\t\t\tional notes t\n      MUL \t\t\tional notes t\n      PUSH 20\t\t\tional notes t\n      ADD \t\t\tional notes t\n      ADD \t\t\tional notes t\n      MLOAD \t\t\tional notes t\n      PUSH FFFFFFFFFFFFFFFFFFFFFFFFFFFFFFFFFFFFFFFF\t\t\tional notes that nee\n      AND \t\t\tional notes that nee\n      SUB \t\t\tional notes that nee\n      PUSH [tag] 758\t\t\tdditional notes that need to b...\n      JUMPI \t\t\tdditional notes that need to b...\n      PUSH 1\t\t\tncti\n      SWAP3 \t\t\t/\\r\\n    functi\n      POP \t\t\t/\\r\\n    functi\n      PUSH 1\t\t\ts.Custome\n      PUSH 0\t\t\ts.Customer mem\n      DUP9 \t\t\t me\n      PUSH FFFFFFFFFFFFFFFFFFFFFFFFFFFFFFFFFFFFFFFF\t\t\ts.Customer mem\n      AND \t\t\ts.Customer mem\n      PUSH FFFFFFFFFFFFFFFFFFFFFFFFFFFFFFFFFFFFFFFF\t\t\ts.Customer mem\n      AND \t\t\ts.Customer mem\n      DUP2 \t\t\ts.Customer mem\n      MSTORE \t\t\ts.Customer mem\n      PUSH 20\t\t\ts.Customer mem\n      ADD \t\t\ts.Customer mem\n      SWAP1 \t\t\ts.Customer mem\n      DUP2 \t\t\ts.Customer mem\n      MSTORE \t\t\ts.Customer mem\n      PUSH 20\t\t\ts.Customer mem\n      ADD \t\t\ts.Customer mem\n      PUSH 0\t\t\ts.Customer mem\n      KECCAK256 \t\t\ts.Customer mem\n      PUSH 40\t\t\t        Types.Customer mem\n      MLOAD \t\t\t        Types.Customer mem\n      DUP1 \t\t\t        Types.Customer mem\n      PUSH E0\t\t\t        Types.Customer mem\n      ADD \t\t\t        Types.Customer mem\n      PUSH 40\t\t\t        Types.Customer mem\n      MSTORE \t\t\t        Types.Customer mem\n      SWAP1 \t\t\t        Types.Customer mem\n      DUP2 \t\t\t        Types.Customer mem\n      PUSH 0\t\t\t        Types.Customer mem\n      DUP3 \t\t\t        Types.Customer mem\n      ADD \t\t\t        Types.Customer mem\n      DUP1 \t\t\t        Types.Customer mem\n      SLOAD \t\t\t        Types.Customer mem\n      PUSH [tag] 759\t\t\t        Types.Customer mem\n      SWAP1 \t\t\t        Types.Customer mem\n      PUSH [tag] 113\t\t\t        Types.Customer mem\n      JUMP \t\t\t        Types.Customer mem\n    tag 759\t\t\t        Types.Customer mem\n      JUMPDEST \t\t\t        Types.Customer mem\n      DUP1 \t\t\t        Types.Customer mem\n      PUSH 1F\t\t\t        Types.Customer mem\n      ADD \t\t\t        Types.Customer mem\n      PUSH 20\t\t\t        Types.Customer mem\n      DUP1 \t\t\t        Types.Customer mem\n      SWAP2 \t\t\t        Types.Customer mem\n      DIV \t\t\t        Types.Customer mem\n      MUL \t\t\t        Types.Customer mem\n      PUSH 20\t\t\t        Types.Customer mem\n      ADD \t\t\t        Types.Customer mem\n      PUSH 40\t\t\t        Types.Customer mem\n      MLOAD \t\t\t        Types.Customer mem\n      SWAP1 \t\t\t        Types.Customer mem\n      DUP2 \t\t\t        Types.Customer mem\n      ADD \t\t\t        Types.Customer mem\n      PUSH 40\t\t\t        Types.Customer mem\n      MSTORE \t\t\t        Types.Customer mem\n      DUP1 \t\t\t        Types.Customer mem\n      SWAP3 \t\t\t        Types.Customer mem\n      SWAP2 \t\t\t        Types.Customer mem\n      SWAP1 \t\t\t        Types.Customer mem\n      DUP2 \t\t\t        Types.Customer mem\n      DUP2 \t\t\t        Types.Customer mem\n      MSTORE \t\t\t        Types.Customer mem\n      PUSH 20\t\t\t        Types.Customer mem\n      ADD \t\t\t        Types.Customer mem\n      DUP3 \t\t\t        Types.Customer mem\n      DUP1 \t\t\t        Types.Customer mem\n      SLOAD \t\t\t        Types.Customer mem\n      PUSH [tag] 760\t\t\t        Types.Customer mem\n      SWAP1 \t\t\t        Types.Customer mem\n      PUSH [tag] 113\t\t\t        Types.Customer mem\n      JUMP \t\t\t        Types.Customer mem\n    tag 760\t\t\t        Types.Customer mem\n      JUMPDEST \t\t\t        Types.Customer mem\n      DUP1 \t\t\t        Types.Customer mem\n      ISZERO \t\t\t        Types.Customer mem\n      PUSH [tag] 761\t\t\t        Types.Customer mem\n      JUMPI \t\t\t        Types.Customer mem\n      DUP1 \t\t\t        Types.Customer mem\n      PUSH 1F\t\t\t        Types.Customer mem\n      LT \t\t\t        Types.Customer mem\n      PUSH [tag] 762\t\t\t        Types.Customer mem\n      JUMPI \t\t\t        Types.Customer mem\n      PUSH 100\t\t\t        Types.Customer mem\n      DUP1 \t\t\t        Types.Customer mem\n      DUP4 \t\t\t        Types.Customer mem\n      SLOAD \t\t\t        Types.Customer mem\n      DIV \t\t\t        Types.Customer mem\n      MUL \t\t\t        Types.Customer mem\n      DUP4 \t\t\t        Types.Customer mem\n      MSTORE \t\t\t        Types.Customer mem\n      SWAP2 \t\t\t        Types.Customer mem\n      PUSH 20\t\t\t        Types.Customer mem\n      ADD \t\t\t        Types.Customer mem\n      SWAP2 \t\t\t        Types.Customer mem\n      PUSH [tag] 761\t\t\t        Types.Customer mem\n      JUMP \t\t\t        Types.Customer mem\n    tag 762\t\t\t        Types.Customer mem\n      JUMPDEST \t\t\t        Types.Customer mem\n      DUP3 \t\t\t        Types.Customer mem\n      ADD \t\t\t        Types.Customer mem\n      SWAP2 \t\t\t        Types.Customer mem\n      SWAP1 \t\t\t        Types.Customer mem\n      PUSH 0\t\t\t        Types.Customer mem\n      MSTORE \t\t\t        Types.Customer mem\n      PUSH 20\t\t\t        Types.Customer mem\n      PUSH 0\t\t\t        Types.Customer mem\n      KECCAK256 \t\t\t        Types.Customer mem\n      SWAP1 \t\t\t        Types.Customer mem\n    tag 763\t\t\t        Types.Customer mem\n      JUMPDEST \t\t\t        Types.Customer mem\n      DUP2 \t\t\t        Types.Customer mem\n      SLOAD \t\t\t        Types.Customer mem\n      DUP2 \t\t\t        Types.Customer mem\n      MSTORE \t\t\t        Types.Customer mem\n      SWAP1 \t\t\t        Types.Customer mem\n      PUSH 1\t\t\t        Types.Customer mem\n      ADD \t\t\t        Types.Customer mem\n      SWAP1 \t\t\t        Types.Customer mem\n      PUSH 20\t\t\t        Types.Customer mem\n      ADD \t\t\t        Types.Customer mem\n      DUP1 \t\t\t        Types.Customer mem\n      DUP4 \t\t\t        Types.Customer mem\n      GT \t\t\t        Types.Customer mem\n      PUSH [tag] 763\t\t\t        Types.Customer mem\n      JUMPI \t\t\t        Types.Customer mem\n      DUP3 \t\t\t        Types.Customer mem\n      SWAP1 \t\t\t        Types.Customer mem\n      SUB \t\t\t        Types.Customer mem\n      PUSH 1F\t\t\t        Types.Customer mem\n      AND \t\t\t        Types.Customer mem\n      DUP3 \t\t\t        Types.Customer mem\n      ADD \t\t\t        Types.Customer mem\n      SWAP2 \t\t\t        Types.Customer mem\n    tag 761\t\t\t        Types.Customer mem\n      JUMPDEST \t\t\t        Types.Customer mem\n      POP \t\t\t        Types.Customer mem\n      POP \t\t\t        Types.Customer mem\n      POP \t\t\t        Types.Customer mem\n      POP \t\t\t        Types.Customer mem\n      POP \t\t\t        Types.Customer mem\n      DUP2 \t\t\t        Types.Customer mem\n      MSTORE \t\t\t        Types.Customer mem\n      PUSH 20\t\t\t        Types.Customer mem\n      ADD \t\t\t        Types.Customer mem\n      PUSH 1\t\t\t        Types.Customer mem\n      DUP3 \t\t\t        Types.Customer mem\n      ADD \t\t\t        Types.Customer mem\n      DUP1 \t\t\t        Types.Customer mem\n      SLOAD \t\t\t        Types.Customer mem\n      PUSH [tag] 764\t\t\t        Types.Customer mem\n      SWAP1 \t\t\t        Types.Customer mem\n      PUSH [tag] 113\t\t\t        Types.Customer mem\n      JUMP \t\t\t        Types.Customer mem\n    tag 764\t\t\t        Types.Customer mem\n      JUMPDEST \t\t\t        Types.Customer mem\n      DUP1 \t\t\t        Types.Customer mem\n      PUSH 1F\t\t\t        Types.Customer mem\n      ADD \t\t\t        Types.Customer mem\n      PUSH 20\t\t\t        Types.Customer mem\n      DUP1 \t\t\t        Types.Customer mem\n      SWAP2 \t\t\t        Types.Customer mem\n      DIV \t\t\t        Types.Customer mem\n      MUL \t\t\t        Types.Customer mem\n      PUSH 20\t\t\t        Types.Customer mem\n      ADD \t\t\t        Types.Customer mem\n      PUSH 40\t\t\t        Types.Customer mem\n      MLOAD \t\t\t        Types.Customer mem\n      SWAP1 \t\t\t        Types.Customer mem\n      DUP2 \t\t\t        Types.Customer mem\n      ADD \t\t\t        Types.Customer mem\n      PUSH 40\t\t\t        Types.Customer mem\n      MSTORE \t\t\t        Types.Customer mem\n      DUP1 \t\t\t        Types.Customer mem\n      SWAP3 \t\t\t        Types.Customer mem\n      SWAP2 \t\t\t        Types.Customer mem\n      SWAP1 \t\t\t        Types.Customer mem\n      DUP2 \t\t\t        Types.Customer mem\n      DUP2 \t\t\t        Types.Customer mem\n      MSTORE \t\t\t        Types.Customer mem\n      PUSH 20\t\t\t        Types.Customer mem\n      ADD \t\t\t        Types.Customer mem\n      DUP3 \t\t\t        Types.Customer mem\n      DUP1 \t\t\t        Types.Customer mem\n      SLOAD \t\t\t        Types.Customer mem\n      PUSH [tag] 765\t\t\t        Types.Customer mem\n      SWAP1 \t\t\t        Types.Customer mem\n      PUSH [tag] 113\t\t\t        Types.Customer mem\n      JUMP \t\t\t        Types.Customer mem\n    tag 765\t\t\t        Types.Customer mem\n      JUMPDEST \t\t\t        Types.Customer mem\n      DUP1 \t\t\t        Types.Customer mem\n      ISZERO \t\t\t        Types.Customer mem\n      PUSH [tag] 766\t\t\t        Types.Customer mem\n      JUMPI \t\t\t        Types.Customer mem\n      DUP1 \t\t\t        Types.Customer mem\n      PUSH 1F\t\t\t        Types.Customer mem\n      LT \t\t\t        Types.Customer mem\n      PUSH [tag] 767\t\t\t        Types.Customer mem\n      JUMPI \t\t\t        Types.Customer mem\n      PUSH 100\t\t\t        Types.Customer mem\n      DUP1 \t\t\t        Types.Customer mem\n      DUP4 \t\t\t        Types.Customer mem\n      SLOAD \t\t\t        Types.Customer mem\n      DIV \t\t\t        Types.Customer mem\n      MUL \t\t\t        Types.Customer mem\n      DUP4 \t\t\t        Types.Customer mem\n      MSTORE \t\t\t        Types.Customer mem\n      SWAP2 \t\t\t        Types.Customer mem\n      PUSH 20\t\t\t        Types.Customer mem\n      ADD \t\t\t        Types.Customer mem\n      SWAP2 \t\t\t        Types.Customer mem\n      PUSH [tag] 766\t\t\t        Types.Customer mem\n      JUMP \t\t\t        Types.Customer mem\n    tag 767\t\t\t        Types.Customer mem\n      JUMPDEST \t\t\t        Types.Customer mem\n      DUP3 \t\t\t        Types.Customer mem\n      ADD \t\t\t        Types.Customer mem\n      SWAP2 \t\t\t        Types.Customer mem\n      SWAP1 \t\t\t        Types.Customer mem\n      PUSH 0\t\t\t        Types.Customer mem\n      MSTORE \t\t\t        Types.Customer mem\n      PUSH 20\t\t\t        Types.Customer mem\n      PUSH 0\t\t\t        Types.Customer mem\n      KECCAK256 \t\t\t        Types.Customer mem\n      SWAP1 \t\t\t        Types.Customer mem\n    tag 768\t\t\t        Types.Customer mem\n      JUMPDEST \t\t\t        Types.Customer mem\n      DUP2 \t\t\t        Types.Customer mem\n      SLOAD \t\t\t        Types.Customer mem\n      DUP2 \t\t\t        Types.Customer mem\n      MSTORE \t\t\t        Types.Customer mem\n      SWAP1 \t\t\t        Types.Customer mem\n      PUSH 1\t\t\t        Types.Customer mem\n      ADD \t\t\t        Types.Customer mem\n      SWAP1 \t\t\t        Types.Customer mem\n      PUSH 20\t\t\t        Types.Customer mem\n      ADD \t\t\t        Types.Customer mem\n      DUP1 \t\t\t        Types.Customer mem\n      DUP4 \t\t\t        Types.Customer mem\n      GT \t\t\t        Types.Customer mem\n      PUSH [tag] 768\t\t\t        Types.Customer mem\n      JUMPI \t\t\t        Types.Customer mem\n      DUP3 \t\t\t        Types.Customer mem\n      SWAP1 \t\t\t        Types.Customer mem\n      SUB \t\t\t        Types.Customer mem\n      PUSH 1F\t\t\t        Types.Customer mem\n      AND \t\t\t        Types.Customer mem\n      DUP3 \t\t\t        Types.Customer mem\n      ADD \t\t\t        Types.Customer mem\n      SWAP2 \t\t\t        Types.Customer mem\n    tag 766\t\t\t        Types.Customer mem\n      JUMPDEST \t\t\t        Types.Customer mem\n      POP \t\t\t        Types.Customer mem\n      POP \t\t\t        Types.Customer mem\n      POP \t\t\t        Types.Customer mem\n      POP \t\t\t        Types.Customer mem\n      POP \t\t\t        Types.Customer mem\n      DUP2 \t\t\t        Types.Customer mem\n      MSTORE \t\t\t        Types.Customer mem\n      PUSH 20\t\t\t        Types.Customer mem\n      ADD \t\t\t        Types.Customer mem\n      PUSH 2\t\t\t        Types.Customer mem\n      DUP3 \t\t\t        Types.Customer mem\n      ADD \t\t\t        Types.Customer mem\n      SLOAD \t\t\t        Types.Customer mem\n      DUP2 \t\t\t        Types.Customer mem\n      MSTORE \t\t\t        Types.Customer mem\n      PUSH 20\t\t\t        Types.Customer mem\n      ADD \t\t\t        Types.Customer mem\n      PUSH 3\t\t\t        Types.Customer mem\n      DUP3 \t\t\t        Types.Customer mem\n      ADD \t\t\t        Types.Customer mem\n      PUSH 0\t\t\t        Types.Customer mem\n      SWAP1 \t\t\t        Types.Customer mem\n      SLOAD \t\t\t        Types.Customer mem\n      SWAP1 \t\t\t        Types.Customer mem\n      PUSH 100\t\t\t        Types.Customer mem\n      EXP \t\t\t        Types.Customer mem\n      SWAP1 \t\t\t        Types.Customer mem\n      DIV \t\t\t        Types.Customer mem\n      PUSH FFFFFFFFFFFFFFFFFFFFFFFFFFFFFFFFFFFFFFFF\t\t\t        Types.Customer mem\n      AND \t\t\t        Types.Customer mem\n      PUSH FFFFFFFFFFFFFFFFFFFFFFFFFFFFFFFFFFFFFFFF\t\t\t        Types.Customer mem\n      AND \t\t\t        Types.Customer mem\n      PUSH FFFFFFFFFFFFFFFFFFFFFFFFFFFFFFFFFFFFFFFF\t\t\t        Types.Customer mem\n      AND \t\t\t        Types.Customer mem\n      DUP2 \t\t\t        Types.Customer mem\n      MSTORE \t\t\t        Types.Customer mem\n      PUSH 20\t\t\t        Types.Customer mem\n      ADD \t\t\t        Types.Customer mem\n      PUSH 4\t\t\t        Types.Customer mem\n      DUP3 \t\t\t        Types.Customer mem\n      ADD \t\t\t        Types.Customer mem\n      PUSH 0\t\t\t        Types.Customer mem\n      SWAP1 \t\t\t        Types.Customer mem\n      SLOAD \t\t\t        Types.Customer mem\n      SWAP1 \t\t\t        Types.Customer mem\n      PUSH 100\t\t\t        Types.Customer mem\n      EXP \t\t\t        Types.Customer mem\n      SWAP1 \t\t\t        Types.Customer mem\n      DIV \t\t\t        Types.Customer mem\n      PUSH FFFFFFFFFFFFFFFFFFFFFFFFFFFFFFFFFFFFFFFF\t\t\t        Types.Customer mem\n      AND \t\t\t        Types.Customer mem\n      PUSH FFFFFFFFFFFFFFFFFFFFFFFFFFFFFFFFFFFFFFFF\t\t\t        Types.Customer mem\n      AND \t\t\t        Types.Customer mem\n      PUSH FFFFFFFFFFFFFFFFFFFFFFFFFFFFFFFFFFFFFFFF\t\t\t        Types.Customer mem\n      AND \t\t\t        Types.Customer mem\n      DUP2 \t\t\t        Types.Customer mem\n      MSTORE \t\t\t        Types.Customer mem\n      PUSH 20\t\t\t        Types.Customer mem\n      ADD \t\t\t        Types.Customer mem\n      PUSH 5\t\t\t        Types.Customer mem\n      DUP3 \t\t\t        Types.Customer mem\n      ADD \t\t\t        Types.Customer mem\n      DUP1 \t\t\t        Types.Customer mem\n      SLOAD \t\t\t        Types.Customer mem\n      PUSH [tag] 769\t\t\t        Types.Customer mem\n      SWAP1 \t\t\t        Types.Customer mem\n      PUSH [tag] 113\t\t\t        Types.Customer mem\n      JUMP \t\t\t        Types.Customer mem\n    tag 769\t\t\t        Types.Customer mem\n      JUMPDEST \t\t\t        Types.Customer mem\n      DUP1 \t\t\t        Types.Customer mem\n      PUSH 1F\t\t\t        Types.Customer mem\n      ADD \t\t\t        Types.Customer mem\n      PUSH 20\t\t\t        Types.Customer mem\n      DUP1 \t\t\t        Types.Customer mem\n      SWAP2 \t\t\t        Types.Customer mem\n      DIV \t\t\t        Types.Customer mem\n      MUL \t\t\t        Types.Customer mem\n      PUSH 20\t\t\t        Types.Customer mem\n      ADD \t\t\t        Types.Customer mem\n      PUSH 40\t\t\t        Types.Customer mem\n      MLOAD \t\t\t        Types.Customer mem\n      SWAP1 \t\t\t        Types.Customer mem\n      DUP2 \t\t\t        Types.Customer mem\n      ADD \t\t\t        Types.Customer mem\n      PUSH 40\t\t\t        Types.Customer mem\n      MSTORE \t\t\t        Types.Customer mem\n      DUP1 \t\t\t        Types.Customer mem\n      SWAP3 \t\t\t        Types.Customer mem\n      SWAP2 \t\t\t        Types.Customer mem\n      SWAP1 \t\t\t        Types.Customer mem\n      DUP2 \t\t\t        Types.Customer mem\n      DUP2 \t\t\t        Types.Customer mem\n      MSTORE \t\t\t        Types.Customer mem\n      PUSH 20\t\t\t        Types.Customer mem\n      ADD \t\t\t        Types.Customer mem\n      DUP3 \t\t\t        Types.Customer mem\n      DUP1 \t\t\t        Types.Customer mem\n      SLOAD \t\t\t        Types.Customer mem\n      PUSH [tag] 770\t\t\t        Types.Customer mem\n      SWAP1 \t\t\t        Types.Customer mem\n      PUSH [tag] 113\t\t\t        Types.Customer mem\n      JUMP \t\t\t        Types.Customer mem\n    tag 770\t\t\t        Types.Customer mem\n      JUMPDEST \t\t\t        Types.Customer mem\n      DUP1 \t\t\t        Types.Customer mem\n      ISZERO \t\t\t        Types.Customer mem\n      PUSH [tag] 771\t\t\t        Types.Customer mem\n      JUMPI \t\t\t        Types.Customer mem\n      DUP1 \t\t\t        Types.Customer mem\n      PUSH 1F\t\t\t        Types.Customer mem\n      LT \t\t\t        Types.Customer mem\n      PUSH [tag] 772\t\t\t        Types.Customer mem\n      JUMPI \t\t\t        Types.Customer mem\n      PUSH 100\t\t\t        Types.Customer mem\n      DUP1 \t\t\t        Types.Customer mem\n      DUP4 \t\t\t        Types.Customer mem\n      SLOAD \t\t\t        Types.Customer mem\n      DIV \t\t\t        Types.Customer mem\n      MUL \t\t\t        Types.Customer mem\n      DUP4 \t\t\t        Types.Customer mem\n      MSTORE \t\t\t        Types.Customer mem\n      SWAP2 \t\t\t        Types.Customer mem\n      PUSH 20\t\t\t        Types.Customer mem\n      ADD \t\t\t        Types.Customer mem\n      SWAP2 \t\t\t        Types.Customer mem\n      PUSH [tag] 771\t\t\t        Types.Customer mem\n      JUMP \t\t\t        Types.Customer mem\n    tag 772\t\t\t        Types.Customer mem\n      JUMPDEST \t\t\t        Types.Customer mem\n      DUP3 \t\t\t        Types.Customer mem\n      ADD \t\t\t        Types.Customer mem\n      SWAP2 \t\t\t        Types.Customer mem\n      SWAP1 \t\t\t        Types.Customer mem\n      PUSH 0\t\t\t        Types.Customer mem\n      MSTORE \t\t\t        Types.Customer mem\n      PUSH 20\t\t\t        Types.Customer mem\n      PUSH 0\t\t\t        Types.Customer mem\n      KECCAK256 \t\t\t        Types.Customer mem\n      SWAP1 \t\t\t        Types.Customer mem\n    tag 773\t\t\t        Types.Customer mem\n      JUMPDEST \t\t\t        Types.Customer mem\n      DUP2 \t\t\t        Types.Customer mem\n      SLOAD \t\t\t        Types.Customer mem\n      DUP2 \t\t\t        Types.Customer mem\n      MSTORE \t\t\t        Types.Customer mem\n      SWAP1 \t\t\t        Types.Customer mem\n      PUSH 1\t\t\t        Types.Customer mem\n      ADD \t\t\t        Types.Customer mem\n      SWAP1 \t\t\t        Types.Customer mem\n      PUSH 20\t\t\t        Types.Customer mem\n      ADD \t\t\t        Types.Customer mem\n      DUP1 \t\t\t        Types.Customer mem\n      DUP4 \t\t\t        Types.Customer mem\n      GT \t\t\t        Types.Customer mem\n      PUSH [tag] 773\t\t\t        Types.Customer mem\n      JUMPI \t\t\t        Types.Customer mem\n      DUP3 \t\t\t        Types.Customer mem\n      SWAP1 \t\t\t        Types.Customer mem\n      SUB \t\t\t        Types.Customer mem\n      PUSH 1F\t\t\t        Types.Customer mem\n      AND \t\t\t        Types.Customer mem\n      DUP3 \t\t\t        Types.Customer mem\n      ADD \t\t\t        Types.Customer mem\n      SWAP2 \t\t\t        Types.Customer mem\n    tag 771\t\t\t        Types.Customer mem\n      JUMPDEST \t\t\t        Types.Customer mem\n      POP \t\t\t        Types.Customer mem\n      POP \t\t\t        Types.Customer mem\n      POP \t\t\t        Types.Customer mem\n      POP \t\t\t        Types.Customer mem\n      POP \t\t\t        Types.Customer mem\n      DUP2 \t\t\t        Types.Customer mem\n      MSTORE \t\t\t        Types.Customer mem\n      PUSH 20\t\t\t        Types.Customer mem\n      ADD \t\t\t        Types.Customer mem\n      PUSH 6\t\t\t        Types.Customer mem\n      DUP3 \t\t\t        Types.Customer mem\n      ADD \t\t\t        Types.Customer mem\n      SLOAD \t\t\t        Types.Customer mem\n      DUP2 \t\t\t        Types.Customer mem\n      MSTORE \t\t\t        Types.Customer mem\n      POP \t\t\t        Types.Customer mem\n      POP \t\t\t        Types.Customer mem\n      SWAP2 \t\t\t        Types.Customer mem\n      POP \t\t\t        Types.Customer mem\n      PUSH [tag] 754\t\t\t     \n      JUMP \t\t\t     \n    tag 758\t\t\tdditional notes that need to b...\n      JUMPDEST \t\t\tdditional notes that need to b...\n      DUP1 \t\t\t @p\n      DUP1 \t\t\t @p\n      PUSH [tag] 774\t\t\t @p\n      SWAP1 \t\t\t @p\n      PUSH [tag] 273\t\t\t @p\n      JUMP \t\t\t @p\n    tag 774\t\t\t @p\n      JUMPDEST \t\t\t @p\n      SWAP2 \t\t\t @p\n      POP \t\t\t @p\n      POP \t\t\t @p\n      PUSH [tag] 753\t\t\tDate & Time in unix epoch time...\n      JUMP \t\t\tDate & Time in unix epoch time...\n    tag 754\t\t\tDate & Time in unix epoch time...\n      JUMPDEST \t\t\tDate & Time in unix epoch time...\n      POP \t\t\tDate & Time in unix epoch time...\n      DUP2 \t\t\tnotes_\n      DUP2 \t\t\t    ) pub\n      SWAP4 \t\t\t memory notes_\\r\\n    ) publ\n      POP \t\t\t memory notes_\\r\\n    ) publ\n      SWAP4 \t\t\t memory notes_\\r\\n    ) publ\n      POP \t\t\t memory notes_\\r\\n    ) publ\n      POP \t\t\t memory notes_\\r\\n    ) publ\n      POP \t\t\t memory notes_\\r\\n    ) publ\n      SWAP3 \t\t\teturn getKYCRequests(pageNumbe...\n      POP \t\t\teturn getKYCRequests(pageNumbe...\n      SWAP3 \t\t\teturn getKYCRequests(pageNumbe...\n      SWAP1 \t\t\teturn getKYCRequests(pageNumbe...\n      POP \t\t\teturn getKYCRequests(pageNumbe...\n      JUMP \t\t\teturn getKYCRequests(pageNumbe...\n    tag 461\t\t\t,\\r\\n        address customerI...\n      JUMPDEST \t\t\t,\\r\\n        address customerI...\n      DUP1 \t\t\t\\n  \\r\\n    \n      PUSH 1\t\t\taHashStat\n      PUSH 0\t\t\taHashStatus status\\r\\n    \n      DUP4 \t\t\ts status\\r\n      PUSH 60\t\t\ts status\\r\\n   \n      ADD \t\t\ts status\\r\\n   \n      MLOAD \t\t\ts status\\r\\n   \n      PUSH FFFFFFFFFFFFFFFFFFFFFFFFFFFFFFFFFFFFFFFF\t\t\taHashStatus status\\r\\n    \n      AND \t\t\taHashStatus status\\r\\n    \n      PUSH FFFFFFFFFFFFFFFFFFFFFFFFFFFFFFFFFFFFFFFF\t\t\taHashStatus status\\r\\n    \n      AND \t\t\taHashStatus status\\r\\n    \n      DUP2 \t\t\taHashStatus status\\r\\n    \n      MSTORE \t\t\taHashStatus status\\r\\n    \n      PUSH 20\t\t\taHashStatus status\\r\\n    \n      ADD \t\t\taHashStatus status\\r\\n    \n      SWAP1 \t\t\taHashStatus status\\r\\n    \n      DUP2 \t\t\taHashStatus status\\r\\n    \n      MSTORE \t\t\taHashStatus status\\r\\n    \n      PUSH 20\t\t\taHashStatus status\\r\\n    \n      ADD \t\t\taHashStatus status\\r\\n    \n      PUSH 0\t\t\taHashStatus status\\r\\n    \n      KECCAK256 \t\t\taHashStatus status\\r\\n    \n      PUSH 0\t\t\taHashStatus status\\r\\n    );\\r...\n      DUP3 \t\t\taHashStatus status\\r\\n    );\\r...\n      ADD \t\t\taHashStatus status\\r\\n    );\\r...\n      MLOAD \t\t\taHashStatus status\\r\\n    );\\r...\n      DUP2 \t\t\taHashStatus status\\r\\n    );\\r...\n      PUSH 0\t\t\taHashStatus status\\r\\n    );\\r...\n      ADD \t\t\taHashStatus status\\r\\n    );\\r...\n      SWAP1 \t\t\taHashStatus status\\r\\n    );\\r...\n      DUP2 \t\t\taHashStatus status\\r\\n    );\\r...\n      PUSH [tag] 776\t\t\taHashStatus status\\r\\n    );\\r...\n      SWAP2 \t\t\taHashStatus status\\r\\n    );\\r...\n      SWAP1 \t\t\taHashStatus status\\r\\n    );\\r...\n      PUSH [tag] 174\t\t\taHashStatus status\\r\\n    );\\r...\n      JUMP \t\t\taHashStatus status\\r\\n    );\\r...\n    tag 776\t\t\taHashStatus status\\r\\n    );\\r...\n      JUMPDEST \t\t\taHashStatus status\\r\\n    );\\r...\n      POP \t\t\taHashStatus status\\r\\n    );\\r...\n      PUSH 20\t\t\taHashStatus status\\r\\n    );\\r...\n      DUP3 \t\t\taHashStatus status\\r\\n    );\\r...\n      ADD \t\t\taHashStatus status\\r\\n    );\\r...\n      MLOAD \t\t\taHashStatus status\\r\\n    );\\r...\n      DUP2 \t\t\taHashStatus status\\r\\n    );\\r...\n      PUSH 1\t\t\taHashStatus status\\r\\n    );\\r...\n      ADD \t\t\taHashStatus status\\r\\n    );\\r...\n      SWAP1 \t\t\taHashStatus status\\r\\n    );\\r...\n      DUP2 \t\t\taHashStatus status\\r\\n    );\\r...\n      PUSH [tag] 777\t\t\taHashStatus status\\r\\n    );\\r...\n      SWAP2 \t\t\taHashStatus status\\r\\n    );\\r...\n      SWAP1 \t\t\taHashStatus status\\r\\n    );\\r...\n      PUSH [tag] 174\t\t\taHashStatus status\\r\\n    );\\r...\n      JUMP \t\t\taHashStatus status\\r\\n    );\\r...\n    tag 777\t\t\taHashStatus status\\r\\n    );\\r...\n      JUMPDEST \t\t\taHashStatus status\\r\\n    );\\r...\n      POP \t\t\taHashStatus status\\r\\n    );\\r...\n      PUSH 40\t\t\taHashStatus status\\r\\n    );\\r...\n      DUP3 \t\t\taHashStatus status\\r\\n    );\\r...\n      ADD \t\t\taHashStatus status\\r\\n    );\\r...\n      MLOAD \t\t\taHashStatus status\\r\\n    );\\r...\n      DUP2 \t\t\taHashStatus status\\r\\n    );\\r...\n      PUSH 2\t\t\taHashStatus status\\r\\n    );\\r...\n      ADD \t\t\taHashStatus status\\r\\n    );\\r...\n      SSTORE \t\t\taHashStatus status\\r\\n    );\\r...\n      PUSH 60\t\t\taHashStatus status\\r\\n    );\\r...\n      DUP3 \t\t\taHashStatus status\\r\\n    );\\r...\n      ADD \t\t\taHashStatus status\\r\\n    );\\r...\n      MLOAD \t\t\taHashStatus status\\r\\n    );\\r...\n      DUP2 \t\t\taHashStatus status\\r\\n    );\\r...\n      PUSH 3\t\t\taHashStatus status\\r\\n    );\\r...\n      ADD \t\t\taHashStatus status\\r\\n    );\\r...\n      PUSH 0\t\t\taHashStatus status\\r\\n    );\\r...\n      PUSH 100\t\t\taHashStatus status\\r\\n    );\\r...\n      EXP \t\t\taHashStatus status\\r\\n    );\\r...\n      DUP2 \t\t\taHashStatus status\\r\\n    );\\r...\n      SLOAD \t\t\taHashStatus status\\r\\n    );\\r...\n      DUP2 \t\t\taHashStatus status\\r\\n    );\\r...\n      PUSH FFFFFFFFFFFFFFFFFFFFFFFFFFFFFFFFFFFFFFFF\t\t\taHashStatus status\\r\\n    );\\r...\n      MUL \t\t\taHashStatus status\\r\\n    );\\r...\n      NOT \t\t\taHashStatus status\\r\\n    );\\r...\n      AND \t\t\taHashStatus status\\r\\n    );\\r...\n      SWAP1 \t\t\taHashStatus status\\r\\n    );\\r...\n      DUP4 \t\t\taHashStatus status\\r\\n    );\\r...\n      PUSH FFFFFFFFFFFFFFFFFFFFFFFFFFFFFFFFFFFFFFFF\t\t\taHashStatus status\\r\\n    );\\r...\n      AND \t\t\taHashStatus status\\r\\n    );\\r...\n      MUL \t\t\taHashStatus status\\r\\n    );\\r...\n      OR \t\t\taHashStatus status\\r\\n    );\\r...\n      SWAP1 \t\t\taHashStatus status\\r\\n    );\\r...\n      SSTORE \t\t\taHashStatus status\\r\\n    );\\r...\n      POP \t\t\taHashStatus status\\r\\n    );\\r...\n      PUSH 80\t\t\taHashStatus status\\r\\n    );\\r...\n      DUP3 \t\t\taHashStatus status\\r\\n    );\\r...\n      ADD \t\t\taHashStatus status\\r\\n    );\\r...\n      MLOAD \t\t\taHashStatus status\\r\\n    );\\r...\n      DUP2 \t\t\taHashStatus status\\r\\n    );\\r...\n      PUSH 4\t\t\taHashStatus status\\r\\n    );\\r...\n      ADD \t\t\taHashStatus status\\r\\n    );\\r...\n      PUSH 0\t\t\taHashStatus status\\r\\n    );\\r...\n      PUSH 100\t\t\taHashStatus status\\r\\n    );\\r...\n      EXP \t\t\taHashStatus status\\r\\n    );\\r...\n      DUP2 \t\t\taHashStatus status\\r\\n    );\\r...\n      SLOAD \t\t\taHashStatus status\\r\\n    );\\r...\n      DUP2 \t\t\taHashStatus status\\r\\n    );\\r...\n      PUSH FFFFFFFFFFFFFFFFFFFFFFFFFFFFFFFFFFFFFFFF\t\t\taHashStatus status\\r\\n    );\\r...\n      MUL \t\t\taHashStatus status\\r\\n    );\\r...\n      NOT \t\t\taHashStatus status\\r\\n    );\\r...\n      AND \t\t\taHashStatus status\\r\\n    );\\r...\n      SWAP1 \t\t\taHashStatus status\\r\\n    );\\r...\n      DUP4 \t\t\taHashStatus status\\r\\n    );\\r...\n      PUSH FFFFFFFFFFFFFFFFFFFFFFFFFFFFFFFFFFFFFFFF\t\t\taHashStatus status\\r\\n    );\\r...\n      AND \t\t\taHashStatus status\\r\\n    );\\r...\n      MUL \t\t\taHashStatus status\\r\\n    );\\r...\n      OR \t\t\taHashStatus status\\r\\n    );\\r...\n      SWAP1 \t\t\taHashStatus status\\r\\n    );\\r...\n      SSTORE \t\t\taHashStatus status\\r\\n    );\\r...\n      POP \t\t\taHashStatus status\\r\\n    );\\r...\n      PUSH A0\t\t\taHashStatus status\\r\\n    );\\r...\n      DUP3 \t\t\taHashStatus status\\r\\n    );\\r...\n      ADD \t\t\taHashStatus status\\r\\n    );\\r...\n      MLOAD \t\t\taHashStatus status\\r\\n    );\\r...\n      DUP2 \t\t\taHashStatus status\\r\\n    );\\r...\n      PUSH 5\t\t\taHashStatus status\\r\\n    );\\r...\n      ADD \t\t\taHashStatus status\\r\\n    );\\r...\n      SWAP1 \t\t\taHashStatus status\\r\\n    );\\r...\n      DUP2 \t\t\taHashStatus status\\r\\n    );\\r...\n      PUSH [tag] 778\t\t\taHashStatus status\\r\\n    );\\r...\n      SWAP2 \t\t\taHashStatus status\\r\\n    );\\r...\n      SWAP1 \t\t\taHashStatus status\\r\\n    );\\r...\n      PUSH [tag] 174\t\t\taHashStatus status\\r\\n    );\\r...\n      JUMP \t\t\taHashStatus status\\r\\n    );\\r...\n    tag 778\t\t\taHashStatus status\\r\\n    );\\r...\n      JUMPDEST \t\t\taHashStatus status\\r\\n    );\\r...\n      POP \t\t\taHashStatus status\\r\\n    );\\r...\n      PUSH C0\t\t\taHashStatus status\\r\\n    );\\r...\n      DUP3 \t\t\taHashStatus status\\r\\n    );\\r...\n      ADD \t\t\taHashStatus status\\r\\n    );\\r...\n      MLOAD \t\t\taHashStatus status\\r\\n    );\\r...\n      DUP2 \t\t\taHashStatus status\\r\\n    );\\r...\n      PUSH 6\t\t\taHashStatus status\\r\\n    );\\r...\n      ADD \t\t\taHashStatus status\\r\\n    );\\r...\n      SSTORE \t\t\taHashStatus status\\r\\n    );\\r...\n      SWAP1 \t\t\taHashStatus status\\r\\n    );\\r...\n      POP \t\t\taHashStatus status\\r\\n    );\\r...\n      POP \t\t\taHashStatus status\\r\\n    );\\r...\n      PUSH 0\t\t\ttAllBanks(ui\n      DUP2 \t\t\tpageNumbe\n      PUSH 60\t\t\tpageNumber)\\r\\n\n      ADD \t\t\tpageNumber)\\r\\n\n      MLOAD \t\t\tpageNumber)\\r\\n\n      SWAP1 \t\t\ttAllBanks(uint256 pageNumber)\\...\n      DUP1 \t\t\ttAllBanks(uint256 pageNumber)\\...\n      PUSH 1\t\t\ttAllBanks(uint256 pageNumber)\\...\n      DUP2 \t\t\ttAllBanks(uint256 pageNumber)\\...\n      SLOAD \t\t\ttAllBanks(uint256 pageNumber)\\...\n      ADD \t\t\ttAllBanks(uint256 pageNumber)\\...\n      DUP1 \t\t\ttAllBanks(uint256 pageNumber)\\...\n      DUP3 \t\t\ttAllBanks(uint256 pageNumber)\\...\n      SSTORE \t\t\ttAllBanks(uint256 pageNumber)\\...\n      DUP1 \t\t\ttAllBanks(uint256 pageNumber)\\...\n      SWAP2 \t\t\ttAllBanks(uint256 pageNumber)\\...\n      POP \t\t\ttAllBanks(uint256 pageNumber)\\...\n      POP \t\t\ttAllBanks(uint256 pageNumber)\\...\n      PUSH 1\t\t\ttAllBanks(uint256 pageNumber)\\...\n      SWAP1 \t\t\ttAllBanks(uint256 pageNumber)\\...\n      SUB \t\t\ttAllBanks(uint256 pageNumber)\\...\n      SWAP1 \t\t\ttAllBanks(uint256 pageNumber)\\...\n      PUSH 0\t\t\ttAllBanks(uint256 pageNumber)\\...\n      MSTORE \t\t\ttAllBanks(uint256 pageNumber)\\...\n      PUSH 20\t\t\ttAllBanks(uint256 pageNumber)\\...\n      PUSH 0\t\t\ttAllBanks(uint256 pageNumber)\\...\n      KECCAK256 \t\t\ttAllBanks(uint256 pageNumber)\\...\n      ADD \t\t\ttAllBanks(uint256 pageNumber)\\...\n      PUSH 0\t\t\ttAllBanks(uint256 pageNumber)\\...\n      SWAP1 \t\t\ttAllBanks(uint256 pageNumber)\\...\n      SWAP2 \t\t\ttAllBanks(uint256 pageNumber)\\...\n      SWAP1 \t\t\ttAllBanks(uint256 pageNumber)\\...\n      SWAP2 \t\t\ttAllBanks(uint256 pageNumber)\\...\n      SWAP1 \t\t\ttAllBanks(uint256 pageNumber)\\...\n      SWAP2 \t\t\ttAllBanks(uint256 pageNumber)\\...\n      PUSH 100\t\t\ttAllBanks(uint256 pageNumber)\\...\n      EXP \t\t\ttAllBanks(uint256 pageNumber)\\...\n      DUP2 \t\t\ttAllBanks(uint256 pageNumber)\\...\n      SLOAD \t\t\ttAllBanks(uint256 pageNumber)\\...\n      DUP2 \t\t\ttAllBanks(uint256 pageNumber)\\...\n      PUSH FFFFFFFFFFFFFFFFFFFFFFFFFFFFFFFFFFFFFFFF\t\t\ttAllBanks(uint256 pageNumber)\\...\n      MUL \t\t\ttAllBanks(uint256 pageNumber)\\...\n      NOT \t\t\ttAllBanks(uint256 pageNumber)\\...\n      AND \t\t\ttAllBanks(uint256 pageNumber)\\...\n      SWAP1 \t\t\ttAllBanks(uint256 pageNumber)\\...\n      DUP4 \t\t\ttAllBanks(uint256 pageNumber)\\...\n      PUSH FFFFFFFFFFFFFFFFFFFFFFFFFFFFFFFFFFFFFFFF\t\t\ttAllBanks(uint256 pageNumber)\\...\n      AND \t\t\ttAllBanks(uint256 pageNumber)\\...\n      MUL \t\t\ttAllBanks(uint256 pageNumber)\\...\n      OR \t\t\ttAllBanks(uint256 pageNumber)\\...\n      SWAP1 \t\t\ttAllBanks(uint256 pageNumber)\\...\n      SSTORE \t\t\ttAllBanks(uint256 pageNumber)\\...\n      POP \t\t\ttAllBanks(uint256 pageNumber)\\...\n      PUSH 77EACB4962819F791EBD2750D7BE9519622DDCF4C37FE09C6FD33ACE5CE32CCB\t\t\t       view\\r\\n        isAdmin...\n      DUP2 \t\t\t       is\n      PUSH 60\t\t\t       isAdmi\n      ADD \t\t\t       isAdmi\n      MLOAD \t\t\t       isAdmi\n      DUP3 \t\t\t\\n        \n      PUSH 0\t\t\t\\n        retur\n      ADD \t\t\t\\n        retur\n      MLOAD \t\t\t\\n        retur\n      DUP4 \t\t\t (uint256\n      PUSH 20\t\t\t (uint256 total\n      ADD \t\t\t (uint256 total\n      MLOAD \t\t\t (uint256 total\n      PUSH 40\t\t\t       view\\r\\n        isAdmin...\n      MLOAD \t\t\t       view\\r\\n        isAdmin...\n      PUSH [tag] 780\t\t\t       view\\r\\n        isAdmin...\n      SWAP4 \t\t\t       view\\r\\n        isAdmin...\n      SWAP3 \t\t\t       view\\r\\n        isAdmin...\n      SWAP2 \t\t\t       view\\r\\n        isAdmin...\n      SWAP1 \t\t\t       view\\r\\n        isAdmin...\n      PUSH [tag] 707\t\t\t       view\\r\\n        isAdmin...\n      JUMP \t\t\t       view\\r\\n        isAdmin...\n    tag 780\t\t\t       view\\r\\n        isAdmin...\n      JUMPDEST \t\t\t       view\\r\\n        isAdmin...\n      PUSH 40\t\t\t       view\\r\\n        isAdmin...\n      MLOAD \t\t\t       view\\r\\n        isAdmin...\n      DUP1 \t\t\t       view\\r\\n        isAdmin...\n      SWAP2 \t\t\t       view\\r\\n        isAdmin...\n      SUB \t\t\t       view\\r\\n        isAdmin...\n      SWAP1 \t\t\t       view\\r\\n        isAdmin...\n      LOG1 \t\t\t       view\\r\\n        isAdmin...\n      POP \t\t\t,\\r\\n        address customerI...\n      JUMP \t\t\t,\\r\\n        address customerI...\n    tag 488\t\t\t], msg.sender)\\r\\n            ...\n      JUMPDEST \t\t\t], msg.sender)\\r\\n            ...\n      DUP3 \t\t\t KycR\n      PUSH 1\t\t\ting custo\n      PUSH 0\t\t\ting customerName);\\r\\n \n      CALLER \t\t\terName);\\r\\n\n      PUSH FFFFFFFFFFFFFFFFFFFFFFFFFFFFFFFFFFFFFFFF\t\t\ting customerName);\\r\\n \n      AND \t\t\ting customerName);\\r\\n \n      PUSH FFFFFFFFFFFFFFFFFFFFFFFFFFFFFFFFFFFFFFFF\t\t\ting customerName);\\r\\n \n      AND \t\t\ting customerName);\\r\\n \n      DUP2 \t\t\ting customerName);\\r\\n \n      MSTORE \t\t\ting customerName);\\r\\n \n      PUSH 20\t\t\ting customerName);\\r\\n \n      ADD \t\t\ting customerName);\\r\\n \n      SWAP1 \t\t\ting customerName);\\r\\n \n      DUP2 \t\t\ting customerName);\\r\\n \n      MSTORE \t\t\ting customerName);\\r\\n \n      PUSH 20\t\t\ting customerName);\\r\\n \n      ADD \t\t\ting customerName);\\r\\n \n      PUSH 0\t\t\ting customerName);\\r\\n \n      KECCAK256 \t\t\ting customerName);\\r\\n \n      PUSH 0\t\t\ting customerName);\\r\\n    ev\n      ADD \t\t\ting customerName);\\r\\n    ev\n      SWAP1 \t\t\ting customerName);\\r\\n    even...\n      DUP2 \t\t\ting customerName);\\r\\n    even...\n      PUSH [tag] 782\t\t\ting customerName);\\r\\n    even...\n      SWAP2 \t\t\ting customerName);\\r\\n    even...\n      SWAP1 \t\t\ting customerName);\\r\\n    even...\n      PUSH [tag] 174\t\t\ting customerName);\\r\\n    even...\n      JUMP \t\t\ting customerName);\\r\\n    even...\n    tag 782\t\t\ting customerName);\\r\\n    even...\n      JUMPDEST \t\t\ting customerName);\\r\\n    even...\n      POP \t\t\ting customerName);\\r\\n    even...\n      DUP2 \t\t\t strin\n      PUSH 1\t\t\tstring re\n      PUSH 0\t\t\tstring reqId, string \n      CALLER \t\t\tId, string\n      PUSH FFFFFFFFFFFFFFFFFFFFFFFFFFFFFFFFFFFFFFFF\t\t\tstring reqId, string \n      AND \t\t\tstring reqId, string \n      PUSH FFFFFFFFFFFFFFFFFFFFFFFFFFFFFFFFFFFFFFFF\t\t\tstring reqId, string \n      AND \t\t\tstring reqId, string \n      DUP2 \t\t\tstring reqId, string \n      MSTORE \t\t\tstring reqId, string \n      PUSH 20\t\t\tstring reqId, string \n      ADD \t\t\tstring reqId, string \n      SWAP1 \t\t\tstring reqId, string \n      DUP2 \t\t\tstring reqId, string \n      MSTORE \t\t\tstring reqId, string \n      PUSH 20\t\t\tstring reqId, string \n      ADD \t\t\tstring reqId, string \n      PUSH 0\t\t\tstring reqId, string \n      KECCAK256 \t\t\tstring reqId, string \n      PUSH 1\t\t\tstring reqId, string bankNa\n      ADD \t\t\tstring reqId, string bankNa\n      SWAP1 \t\t\tstring reqId, string bankName,...\n      DUP2 \t\t\tstring reqId, string bankName,...\n      PUSH [tag] 783\t\t\tstring reqId, string bankName,...\n      SWAP2 \t\t\tstring reqId, string bankName,...\n      SWAP1 \t\t\tstring reqId, string bankName,...\n      PUSH [tag] 174\t\t\tstring reqId, string bankName,...\n      JUMP \t\t\tstring reqId, string bankName,...\n    tag 783\t\t\tstring reqId, string bankName,...\n      JUMPDEST \t\t\tstring reqId, string bankName,...\n      POP \t\t\tstring reqId, string bankName,...\n      DUP1 \t\t\t       \n      PUSH 1\t\t\tame);\\r\\n  \n      PUSH 0\t\t\tame);\\r\\n    event KycS\n      CALLER \t\t\t event Kyc\n      PUSH FFFFFFFFFFFFFFFFFFFFFFFFFFFFFFFFFFFFFFFF\t\t\tame);\\r\\n    event KycS\n      AND \t\t\tame);\\r\\n    event KycS\n      PUSH FFFFFFFFFFFFFFFFFFFFFFFFFFFFFFFFFFFFFFFF\t\t\tame);\\r\\n    event KycS\n      AND \t\t\tame);\\r\\n    event KycS\n      DUP2 \t\t\tame);\\r\\n    event KycS\n      MSTORE \t\t\tame);\\r\\n    event KycS\n      PUSH 20\t\t\tame);\\r\\n    event KycS\n      ADD \t\t\tame);\\r\\n    event KycS\n      SWAP1 \t\t\tame);\\r\\n    event KycS\n      DUP2 \t\t\tame);\\r\\n    event KycS\n      MSTORE \t\t\tame);\\r\\n    event KycS\n      PUSH 20\t\t\tame);\\r\\n    event KycS\n      ADD \t\t\tame);\\r\\n    event KycS\n      PUSH 0\t\t\tame);\\r\\n    event KycS\n      KECCAK256 \t\t\tame);\\r\\n    event KycS\n      PUSH 2\t\t\tame);\\r\\n    event KycStatusCh...\n      ADD \t\t\tame);\\r\\n    event KycStatusCh...\n      DUP2 \t\t\tame);\\r\\n    event KycStatusCh...\n      SWAP1 \t\t\tame);\\r\\n    event KycStatusCh...\n      SSTORE \t\t\tame);\\r\\n    event KycStatusCh...\n      POP \t\t\tame);\\r\\n    event KycStatusCh...\n      PUSH CFC84FA73E8500B1F994B7616FDA16714AA77352DEFD398C17F8DDA41CC92195\t\t\t       address customerId,\\r\\n...\n      CALLER \t\t\tmerId,\\r\\n  \n      DUP5 \t\t\t    a\n      DUP5 \t\t\tress b\n      PUSH 40\t\t\t       address customerId,\\r\\n...\n      MLOAD \t\t\t       address customerId,\\r\\n...\n      PUSH [tag] 784\t\t\t       address customerId,\\r\\n...\n      SWAP4 \t\t\t       address customerId,\\r\\n...\n      SWAP3 \t\t\t       address customerId,\\r\\n...\n      SWAP2 \t\t\t       address customerId,\\r\\n...\n      SWAP1 \t\t\t       address customerId,\\r\\n...\n      PUSH [tag] 707\t\t\t       address customerId,\\r\\n...\n      JUMP \t\t\t       address customerId,\\r\\n...\n    tag 784\t\t\t       address customerId,\\r\\n...\n      JUMPDEST \t\t\t       address customerId,\\r\\n...\n      PUSH 40\t\t\t       address customerId,\\r\\n...\n      MLOAD \t\t\t       address customerId,\\r\\n...\n      DUP1 \t\t\t       address customerId,\\r\\n...\n      SWAP2 \t\t\t       address customerId,\\r\\n...\n      SUB \t\t\t       address customerId,\\r\\n...\n      SWAP1 \t\t\t       address customerId,\\r\\n...\n      LOG1 \t\t\t       address customerId,\\r\\n...\n      POP \t\t\t], msg.sender)\\r\\n            ...\n      POP \t\t\t], msg.sender)\\r\\n            ...\n      POP \t\t\t], msg.sender)\\r\\n            ...\n      JUMP \t\t\t], msg.sender)\\r\\n            ...\n    tag 506\t\t\tpdateBankDetails(\\r\\n        a...\n      JUMPDEST \t\t\tpdateBankDetails(\\r\\n        a...\n      DUP2 \t\t\tpdate\n      PUSH 1\t\t\t    ) pub\n      PUSH 0\t\t\t    ) public isAdmin \n      CALLER \t\t\tic isAdmin\n      PUSH FFFFFFFFFFFFFFFFFFFFFFFFFFFFFFFFFFFFFFFF\t\t\t    ) public isAdmin \n      AND \t\t\t    ) public isAdmin \n      PUSH FFFFFFFFFFFFFFFFFFFFFFFFFFFFFFFFFFFFFFFF\t\t\t    ) public isAdmin \n      AND \t\t\t    ) public isAdmin \n      DUP2 \t\t\t    ) public isAdmin \n      MSTORE \t\t\t    ) public isAdmin \n      PUSH 20\t\t\t    ) public isAdmin \n      ADD \t\t\t    ) public isAdmin \n      SWAP1 \t\t\t    ) public isAdmin \n      DUP2 \t\t\t    ) public isAdmin \n      MSTORE \t\t\t    ) public isAdmin \n      PUSH 20\t\t\t    ) public isAdmin \n      ADD \t\t\t    ) public isAdmin \n      PUSH 0\t\t\t    ) public isAdmin \n      KECCAK256 \t\t\t    ) public isAdmin \n      PUSH 5\t\t\t    ) public isAdmin {\\r\\n    ...\n      ADD \t\t\t    ) public isAdmin {\\r\\n    ...\n      SWAP1 \t\t\t    ) public isAdmin {\\r\\n    ...\n      DUP2 \t\t\t    ) public isAdmin {\\r\\n    ...\n      PUSH [tag] 786\t\t\t    ) public isAdmin {\\r\\n    ...\n      SWAP2 \t\t\t    ) public isAdmin {\\r\\n    ...\n      SWAP1 \t\t\t    ) public isAdmin {\\r\\n    ...\n      PUSH [tag] 174\t\t\t    ) public isAdmin {\\r\\n    ...\n      JUMP \t\t\t    ) public isAdmin {\\r\\n    ...\n    tag 786\t\t\t    ) public isAdmin {\\r\\n    ...\n      JUMPDEST \t\t\t    ) public isAdmin {\\r\\n    ...\n      POP \t\t\t    ) public isAdmin {\\r\\n    ...\n      DUP1 \t\t\t common list\n      PUSH 1\t\t\tmail_, na\n      PUSH 0\t\t\tmail_, name_);\\r\\n     \n      CALLER \t\t\te_);\\r\\n    \n      PUSH FFFFFFFFFFFFFFFFFFFFFFFFFFFFFFFFFFFFFFFF\t\t\tmail_, name_);\\r\\n     \n      AND \t\t\tmail_, name_);\\r\\n     \n      PUSH FFFFFFFFFFFFFFFFFFFFFFFFFFFFFFFFFFFFFFFF\t\t\tmail_, name_);\\r\\n     \n      AND \t\t\tmail_, name_);\\r\\n     \n      DUP2 \t\t\tmail_, name_);\\r\\n     \n      MSTORE \t\t\tmail_, name_);\\r\\n     \n      PUSH 20\t\t\tmail_, name_);\\r\\n     \n      ADD \t\t\tmail_, name_);\\r\\n     \n      SWAP1 \t\t\tmail_, name_);\\r\\n     \n      DUP2 \t\t\tmail_, name_);\\r\\n     \n      MSTORE \t\t\tmail_, name_);\\r\\n     \n      PUSH 20\t\t\tmail_, name_);\\r\\n     \n      ADD \t\t\tmail_, name_);\\r\\n     \n      PUSH 0\t\t\tmail_, name_);\\r\\n     \n      KECCAK256 \t\t\tmail_, name_);\\r\\n     \n      PUSH 6\t\t\tmail_, name_);\\r\\n        // U...\n      ADD \t\t\tmail_, name_);\\r\\n        // U...\n      DUP2 \t\t\tmail_, name_);\\r\\n        // U...\n      SWAP1 \t\t\tmail_, name_);\\r\\n        // U...\n      SSTORE \t\t\tmail_, name_);\\r\\n        // U...\n      POP \t\t\tmail_, name_);\\r\\n        // U...\n      PUSH 844D9124DAD5A413C4B99664397291F93F1E89513CD8C3A68674C050283C5561\t\t\tid_].name = name_;\\r\\n        ...\n      CALLER \t\t\t_;\\r\\n      \n      PUSH 1\t\t\tusers[id_\n      PUSH 0\t\t\tusers[id_].email = em\n      CALLER \t\t\t.email = e\n      PUSH FFFFFFFFFFFFFFFFFFFFFFFFFFFFFFFFFFFFFFFF\t\t\tusers[id_].email = em\n      AND \t\t\tusers[id_].email = em\n      PUSH FFFFFFFFFFFFFFFFFFFFFFFFFFFFFFFFFFFFFFFF\t\t\tusers[id_].email = em\n      AND \t\t\tusers[id_].email = em\n      DUP2 \t\t\tusers[id_].email = em\n      MSTORE \t\t\tusers[id_].email = em\n      PUSH 20\t\t\tusers[id_].email = em\n      ADD \t\t\tusers[id_].email = em\n      SWAP1 \t\t\tusers[id_].email = em\n      DUP2 \t\t\tusers[id_].email = em\n      MSTORE \t\t\tusers[id_].email = em\n      PUSH 20\t\t\tusers[id_].email = em\n      ADD \t\t\tusers[id_].email = em\n      PUSH 0\t\t\tusers[id_].email = em\n      KECCAK256 \t\t\tusers[id_].email = em\n      PUSH 0\t\t\tusers[id_].email = email_;\n      ADD \t\t\tusers[id_].email = email_;\n      DUP5 \t\t\t    }\n      PUSH 40\t\t\tid_].name = name_;\\r\\n        ...\n      MLOAD \t\t\tid_].name = name_;\\r\\n        ...\n      PUSH [tag] 787\t\t\tid_].name = name_;\\r\\n        ...\n      SWAP4 \t\t\tid_].name = name_;\\r\\n        ...\n      SWAP3 \t\t\tid_].name = name_;\\r\\n        ...\n      SWAP2 \t\t\tid_].name = name_;\\r\\n        ...\n      SWAP1 \t\t\tid_].name = name_;\\r\\n        ...\n      PUSH [tag] 788\t\t\tid_].name = name_;\\r\\n        ...\n      JUMP \t\t\tid_].name = name_;\\r\\n        ...\n    tag 787\t\t\tid_].name = name_;\\r\\n        ...\n      JUMPDEST \t\t\tid_].name = name_;\\r\\n        ...\n      PUSH 40\t\t\tid_].name = name_;\\r\\n        ...\n      MLOAD \t\t\tid_].name = name_;\\r\\n        ...\n      DUP1 \t\t\tid_].name = name_;\\r\\n        ...\n      SWAP2 \t\t\tid_].name = name_;\\r\\n        ...\n      SUB \t\t\tid_].name = name_;\\r\\n        ...\n      SWAP1 \t\t\tid_].name = name_;\\r\\n        ...\n      LOG1 \t\t\tid_].name = name_;\\r\\n        ...\n      POP \t\t\tpdateBankDetails(\\r\\n        a...\n      POP \t\t\tpdateBankDetails(\\r\\n        a...\n      JUMP \t\t\tpdateBankDetails(\\r\\n        a...\n    tag 531\t\t\t\\n\\r\\n    function activateDea...\n      JUMPDEST \t\t\t\\n\\r\\n    function activateDea...\n      PUSH 0\t\t\tmin\\r\\n    {\\r\\n    \n      DUP1 \t\t\tt\n      PUSH FFFFFFFFFFFFFFFFFFFFFFFFFFFFFFFFFFFFFFFF\t\t\tlist\\r\\n        users[id_].sta\n      AND \t\t\tlist\\r\\n        users[id_].sta\n      PUSH 3\t\t\tlist\\r\n      PUSH 0\t\t\tlist\\r\\n    \n      DUP6 \t\t\t   \n      PUSH FFFFFFFFFFFFFFFFFFFFFFFFFFFFFFFFFFFFFFFF\t\t\tlist\\r\\n    \n      AND \t\t\tlist\\r\\n    \n      PUSH FFFFFFFFFFFFFFFFFFFFFFFFFFFFFFFFFFFFFFFF\t\t\tlist\\r\\n    \n      AND \t\t\tlist\\r\\n    \n      DUP2 \t\t\tlist\\r\\n    \n      MSTORE \t\t\tlist\\r\\n    \n      PUSH 20\t\t\tlist\\r\\n    \n      ADD \t\t\tlist\\r\\n    \n      SWAP1 \t\t\tlist\\r\\n    \n      DUP2 \t\t\tlist\\r\\n    \n      MSTORE \t\t\tlist\\r\\n    \n      PUSH 20\t\t\tlist\\r\\n    \n      ADD \t\t\tlist\\r\\n    \n      PUSH 0\t\t\tlist\\r\\n    \n      KECCAK256 \t\t\tlist\\r\\n    \n      PUSH 2\t\t\tlist\\r\\n        \n      ADD \t\t\tlist\\r\\n        \n      PUSH 0\t\t\tlist\\r\\n        \n      SWAP1 \t\t\tlist\\r\\n        \n      SLOAD \t\t\tlist\\r\\n        \n      SWAP1 \t\t\tlist\\r\\n        \n      PUSH 100\t\t\tlist\\r\\n        \n      EXP \t\t\tlist\\r\\n        \n      SWAP1 \t\t\tlist\\r\\n        \n      DIV \t\t\tlist\\r\\n        \n      PUSH FFFFFFFFFFFFFFFFFFFFFFFFFFFFFFFFFFFFFFFF\t\t\tlist\\r\\n        \n      AND \t\t\tlist\\r\\n        \n      PUSH FFFFFFFFFFFFFFFFFFFFFFFFFFFFFFFFFFFFFFFF\t\t\tlist\\r\\n        users[id_].sta\n      AND \t\t\tlist\\r\\n        users[id_].sta\n      SUB \t\t\tlist\\r\\n        users[id_].sta\n      PUSH [tag] 790\t\t\t common list\\r\\n        users[...\n      JUMPI \t\t\t common list\\r\\n        users[...\n      PUSH 40\t\t\t common list\\r\\n        users[...\n      MLOAD \t\t\t common list\\r\\n        users[...\n      PUSH 8C379A000000000000000000000000000000000000000000000000000000000\t\t\t common list\\r\\n        users[...\n      DUP2 \t\t\t common list\\r\\n        users[...\n      MSTORE \t\t\t common list\\r\\n        users[...\n      PUSH 4\t\t\t common list\\r\\n        users[...\n      ADD \t\t\t common list\\r\\n        users[...\n      PUSH [tag] 791\t\t\t common list\\r\\n        users[...\n      SWAP1 \t\t\t common list\\r\\n        users[...\n      PUSH [tag] 130\t\t\t common list\\r\\n        users[...\n      JUMP \t\t\t common list\\r\\n        users[...\n    tag 791\t\t\t common list\\r\\n        users[...\n      JUMPDEST \t\t\t common list\\r\\n        users[...\n      PUSH 40\t\t\t common list\\r\\n        users[...\n      MLOAD \t\t\t common list\\r\\n        users[...\n      DUP1 \t\t\t common list\\r\\n        users[...\n      SWAP2 \t\t\t common list\\r\\n        users[...\n      SUB \t\t\t common list\\r\\n        users[...\n      SWAP1 \t\t\t common list\\r\\n        users[...\n      REVERT \t\t\t common list\\r\\n        users[...\n    tag 790\t\t\t common list\\r\\n        users[...\n      JUMPDEST \t\t\t common list\\r\\n        users[...\n      DUP2 \t\t\tkeActive_);\n      DUP1 \t\t\tkeActive_);\\r\\n    }\\r\\n\\r\\n  ...\n      ISZERO \t\t\tkeActive_);\\r\\n    }\\r\\n\\r\\n  ...\n      PUSH [tag] 792\t\t\tkeActive_);\\r\\n    }\\r\\n\\r\\n  ...\n      JUMPI \t\t\tkeActive_);\\r\\n    }\\r\\n\\r\\n  ...\n      POP \t\t\tkeActive_);\\r\\n    }\\r\\n\\r\\n  ...\n      PUSH 1\t\t\tetCustomersOfBank(uint256\n      DUP1 \t\t\t  }\\r\\n\\r\\n    function getCus...\n      DUP2 \t\t\t  }\\r\\n\\r\\n    function getCus...\n      GT \t\t\t  }\\r\\n\\r\\n    function getCus...\n      ISZERO \t\t\t  }\\r\\n\\r\\n    function getCus...\n      PUSH [tag] 793\t\t\t  }\\r\\n\\r\\n    function getCus...\n      JUMPI \t\t\t  }\\r\\n\\r\\n    function getCus...\n      PUSH [tag] 794\t\t\t  }\\r\\n\\r\\n    function getCus...\n      PUSH [tag] 135\t\t\t  }\\r\\n\\r\\n    function getCus...\n      JUMP \t\t\t  }\\r\\n\\r\\n    function getCus...\n    tag 794\t\t\t  }\\r\\n\\r\\n    function getCus...\n      JUMPDEST \t\t\t  }\\r\\n\\r\\n    function getCus...\n    tag 793\t\t\t  }\\r\\n\\r\\n    function getCus...\n      JUMPDEST \t\t\t  }\\r\\n\\r\\n    function getCus...\n      PUSH 3\t\t\t  }\\r\\n\n      PUSH 0\t\t\t  }\\r\\n\\r\\n   \n      DUP6 \t\t\t\\n  \n      PUSH FFFFFFFFFFFFFFFFFFFFFFFFFFFFFFFFFFFFFFFF\t\t\t  }\\r\\n\\r\\n   \n      AND \t\t\t  }\\r\\n\\r\\n   \n      PUSH FFFFFFFFFFFFFFFFFFFFFFFFFFFFFFFFFFFFFFFF\t\t\t  }\\r\\n\\r\\n   \n      AND \t\t\t  }\\r\\n\\r\\n   \n      DUP2 \t\t\t  }\\r\\n\\r\\n   \n      MSTORE \t\t\t  }\\r\\n\\r\\n   \n      PUSH 20\t\t\t  }\\r\\n\\r\\n   \n      ADD \t\t\t  }\\r\\n\\r\\n   \n      SWAP1 \t\t\t  }\\r\\n\\r\\n   \n      DUP2 \t\t\t  }\\r\\n\\r\\n   \n      MSTORE \t\t\t  }\\r\\n\\r\\n   \n      PUSH 20\t\t\t  }\\r\\n\\r\\n   \n      ADD \t\t\t  }\\r\\n\\r\\n   \n      PUSH 0\t\t\t  }\\r\\n\\r\\n   \n      KECCAK256 \t\t\t  }\\r\\n\\r\\n   \n      PUSH 4\t\t\t  }\\r\\n\\r\\n    functi\n      ADD \t\t\t  }\\r\\n\\r\\n    functi\n      PUSH 2\t\t\t  }\\r\\n\\r\\n    functi\n      SWAP1 \t\t\t  }\\r\\n\\r\\n    functi\n      SLOAD \t\t\t  }\\r\\n\\r\\n    functi\n      SWAP1 \t\t\t  }\\r\\n\\r\\n    functi\n      PUSH 100\t\t\t  }\\r\\n\\r\\n    functi\n      EXP \t\t\t  }\\r\\n\\r\\n    functi\n      SWAP1 \t\t\t  }\\r\\n\\r\\n    functi\n      DIV \t\t\t  }\\r\\n\\r\\n    functi\n      PUSH FF\t\t\t  }\\r\\n\\r\\n    functi\n      AND \t\t\t  }\\r\\n\\r\\n    functi\n      PUSH 1\t\t\t  }\\r\\n\\r\\n    function getCus...\n      DUP2 \t\t\t  }\\r\\n\\r\\n    function getCus...\n      GT \t\t\t  }\\r\\n\\r\\n    function getCus...\n      ISZERO \t\t\t  }\\r\\n\\r\\n    function getCus...\n      PUSH [tag] 795\t\t\t  }\\r\\n\\r\\n    function getCus...\n      JUMPI \t\t\t  }\\r\\n\\r\\n    function getCus...\n      PUSH [tag] 796\t\t\t  }\\r\\n\\r\\n    function getCus...\n      PUSH [tag] 135\t\t\t  }\\r\\n\\r\\n    function getCus...\n      JUMP \t\t\t  }\\r\\n\\r\\n    function getCus...\n    tag 796\t\t\t  }\\r\\n\\r\\n    function getCus...\n      JUMPDEST \t\t\t  }\\r\\n\\r\\n    function getCus...\n    tag 795\t\t\t  }\\r\\n\\r\\n    function getCus...\n      JUMPDEST \t\t\t  }\\r\\n\\r\\n    function getCus...\n      EQ \t\t\t  }\\r\\n\\r\\n    function getCus...\n    tag 792\t\t\tkeActive_);\\r\\n    }\\r\\n\\r\\n  ...\n      JUMPDEST \t\t\tkeActive_);\\r\\n    }\\r\\n\\r\\n  ...\n      ISZERO \t\t\t, makeActive_);\\r\\n    }\\r\\n\\r...\n      PUSH [tag] 797\t\t\t, makeActive_);\\r\\n    }\\r\\n\\r...\n      JUMPI \t\t\t, makeActive_);\\r\\n    }\\r\\n\\r...\n      PUSH 0\t\t\t view\\r\\n        isValidB\n      PUSH 3\t\t\t     \n      PUSH 0\t\t\t     publi\n      DUP6 \t\t\tubl\n      PUSH FFFFFFFFFFFFFFFFFFFFFFFFFFFFFFFFFFFFFFFF\t\t\t     publi\n      AND \t\t\t     publi\n      PUSH FFFFFFFFFFFFFFFFFFFFFFFFFFFFFFFFFFFFFFFF\t\t\t     publi\n      AND \t\t\t     publi\n      DUP2 \t\t\t     publi\n      MSTORE \t\t\t     publi\n      PUSH 20\t\t\t     publi\n      ADD \t\t\t     publi\n      SWAP1 \t\t\t     publi\n      DUP2 \t\t\t     publi\n      MSTORE \t\t\t     publi\n      PUSH 20\t\t\t     publi\n      ADD \t\t\t     publi\n      PUSH 0\t\t\t     publi\n      KECCAK256 \t\t\t     publi\n      PUSH 4\t\t\t     public\\r\\n    \n      ADD \t\t\t     public\\r\\n    \n      PUSH 2\t\t\t     public\\r\\n    \n      PUSH 100\t\t\t     public\\r\\n        view\\r\\...\n      EXP \t\t\t     public\\r\\n        view\\r\\...\n      DUP2 \t\t\t     public\\r\\n        view\\r\\...\n      SLOAD \t\t\t     public\\r\\n        view\\r\\...\n      DUP2 \t\t\t     public\\r\\n        view\\r\\...\n      PUSH FF\t\t\t     public\\r\\n        view\\r\\...\n      MUL \t\t\t     public\\r\\n        view\\r\\...\n      NOT \t\t\t     public\\r\\n        view\\r\\...\n      AND \t\t\t     public\\r\\n        view\\r\\...\n      SWAP1 \t\t\t     public\\r\\n        view\\r\\...\n      DUP4 \t\t\t     public\\r\\n        view\\r\\...\n      PUSH 1\t\t\t     public\\r\\n        view\\r\\...\n      DUP2 \t\t\t     public\\r\\n        view\\r\\...\n      GT \t\t\t     public\\r\\n        view\\r\\...\n      ISZERO \t\t\t     public\\r\\n        view\\r\\...\n      PUSH [tag] 798\t\t\t     public\\r\\n        view\\r\\...\n      JUMPI \t\t\t     public\\r\\n        view\\r\\...\n      PUSH [tag] 799\t\t\t     public\\r\\n        view\\r\\...\n      PUSH [tag] 135\t\t\t     public\\r\\n        view\\r\\...\n      JUMP \t\t\t     public\\r\\n        view\\r\\...\n    tag 799\t\t\t     public\\r\\n        view\\r\\...\n      JUMPDEST \t\t\t     public\\r\\n        view\\r\\...\n    tag 798\t\t\t     public\\r\\n        view\\r\\...\n      JUMPDEST \t\t\t     public\\r\\n        view\\r\\...\n      MUL \t\t\t     public\\r\\n        view\\r\\...\n      OR \t\t\t     public\\r\\n        view\\r\\...\n      SWAP1 \t\t\t     public\\r\\n        view\\r\\...\n      SSTORE \t\t\t     public\\r\\n        view\\r\\...\n      POP \t\t\t     public\\r\\n        view\\r\\...\n      PUSH BBB85D77E85C02977B28BA58175443B7D9C020551C53482EA6DF5FE2E1CB8843\t\t\t     returns (uint256 totalPag...\n      DUP4 \t\t\tuin\n      PUSH 3\t\t\t56 to\n      PUSH 0\t\t\t56 totalPa\n      DUP7 \t\t\talP\n      PUSH FFFFFFFFFFFFFFFFFFFFFFFFFFFFFFFFFFFFFFFF\t\t\t56 totalPa\n      AND \t\t\t56 totalPa\n      PUSH FFFFFFFFFFFFFFFFFFFFFFFFFFFFFFFFFFFFFFFF\t\t\t56 totalPa\n      AND \t\t\t56 totalPa\n      DUP2 \t\t\t56 totalPa\n      MSTORE \t\t\t56 totalPa\n      PUSH 20\t\t\t56 totalPa\n      ADD \t\t\t56 totalPa\n      SWAP1 \t\t\t56 totalPa\n      DUP2 \t\t\t56 totalPa\n      MSTORE \t\t\t56 totalPa\n      PUSH 20\t\t\t56 totalPa\n      ADD \t\t\t56 totalPa\n      PUSH 0\t\t\t56 totalPa\n      KECCAK256 \t\t\t56 totalPa\n      PUSH 0\t\t\t56 totalPages, \n      ADD \t\t\t56 totalPages, \n      PUSH 40\t\t\t     returns (uint256 totalPag...\n      MLOAD \t\t\t     returns (uint256 totalPag...\n      PUSH [tag] 800\t\t\t     returns (uint256 totalPag...\n      SWAP3 \t\t\t     returns (uint256 totalPag...\n      SWAP2 \t\t\t     returns (uint256 totalPag...\n      SWAP1 \t\t\t     returns (uint256 totalPag...\n      PUSH [tag] 801\t\t\t     returns (uint256 totalPag...\n      JUMP \t\t\t     returns (uint256 totalPag...\n    tag 800\t\t\t     returns (uint256 totalPag...\n      JUMPDEST \t\t\t     returns (uint256 totalPag...\n      PUSH 40\t\t\t     returns (uint256 totalPag...\n      MLOAD \t\t\t     returns (uint256 totalPag...\n      DUP1 \t\t\t     returns (uint256 totalPag...\n      SWAP2 \t\t\t     returns (uint256 totalPag...\n      SUB \t\t\t     returns (uint256 totalPag...\n      SWAP1 \t\t\t     returns (uint256 totalPag...\n      LOG1 \t\t\t     returns (uint256 totalPag...\n      PUSH 0\t\t\tpageNumber, true);\\r\\n   \n      SWAP1 \t\t\tquests(pageNumber, true);\\r\\n ...\n      POP \t\t\tquests(pageNumber, true);\\r\\n ...\n      PUSH [tag] 789\t\t\tquests(pageNumber, true);\\r\\n ...\n      JUMP \t\t\tquests(pageNumber, true);\\r\\n ...\n    tag 797\t\t\t, makeActive_);\\r\\n    }\\r\\n\\r...\n      JUMPDEST \t\t\t, makeActive_);\\r\\n    }\\r\\n\\r...\n      DUP2 \t\t\t new KYC re\n      ISZERO \t\t\ts new KYC re\n      DUP1 \t\t\ts new KYC request for a custom...\n      ISZERO \t\t\ts new KYC request for a custom...\n      PUSH [tag] 803\t\t\ts new KYC request for a custom...\n      JUMPI \t\t\ts new KYC request for a custom...\n      POP \t\t\ts new KYC request for a custom...\n      PUSH 0\t\t\t  * @param customer_ Cu\n      PUSH 1\t\t\tt for a customer\\r\\n     * @pa...\n      DUP2 \t\t\tt for a customer\\r\\n     * @pa...\n      GT \t\t\tt for a customer\\r\\n     * @pa...\n      ISZERO \t\t\tt for a customer\\r\\n     * @pa...\n      PUSH [tag] 804\t\t\tt for a customer\\r\\n     * @pa...\n      JUMPI \t\t\tt for a customer\\r\\n     * @pa...\n      PUSH [tag] 805\t\t\tt for a customer\\r\\n     * @pa...\n      PUSH [tag] 135\t\t\tt for a customer\\r\\n     * @pa...\n      JUMP \t\t\tt for a customer\\r\\n     * @pa...\n    tag 805\t\t\tt for a customer\\r\\n     * @pa...\n      JUMPDEST \t\t\tt for a customer\\r\\n     * @pa...\n    tag 804\t\t\tt for a customer\\r\\n     * @pa...\n      JUMPDEST \t\t\tt for a customer\\r\\n     * @pa...\n      PUSH 3\t\t\tt for\n      PUSH 0\t\t\tt for a cu\n      DUP6 \t\t\ta c\n      PUSH FFFFFFFFFFFFFFFFFFFFFFFFFFFFFFFFFFFFFFFF\t\t\tt for a cu\n      AND \t\t\tt for a cu\n      PUSH FFFFFFFFFFFFFFFFFFFFFFFFFFFFFFFFFFFFFFFF\t\t\tt for a cu\n      AND \t\t\tt for a cu\n      DUP2 \t\t\tt for a cu\n      MSTORE \t\t\tt for a cu\n      PUSH 20\t\t\tt for a cu\n      ADD \t\t\tt for a cu\n      SWAP1 \t\t\tt for a cu\n      DUP2 \t\t\tt for a cu\n      MSTORE \t\t\tt for a cu\n      PUSH 20\t\t\tt for a cu\n      ADD \t\t\tt for a cu\n      PUSH 0\t\t\tt for a cu\n      KECCAK256 \t\t\tt for a cu\n      PUSH 4\t\t\tt for a customer\\r\n      ADD \t\t\tt for a customer\\r\n      PUSH 2\t\t\tt for a customer\\r\n      SWAP1 \t\t\tt for a customer\\r\n      SLOAD \t\t\tt for a customer\\r\n      SWAP1 \t\t\tt for a customer\\r\n      PUSH 100\t\t\tt for a customer\\r\n      EXP \t\t\tt for a customer\\r\n      SWAP1 \t\t\tt for a customer\\r\n      DIV \t\t\tt for a customer\\r\n      PUSH FF\t\t\tt for a customer\\r\n      AND \t\t\tt for a customer\\r\n      PUSH 1\t\t\tt for a customer\\r\\n     * @pa...\n      DUP2 \t\t\tt for a customer\\r\\n     * @pa...\n      GT \t\t\tt for a customer\\r\\n     * @pa...\n      ISZERO \t\t\tt for a customer\\r\\n     * @pa...\n      PUSH [tag] 806\t\t\tt for a customer\\r\\n     * @pa...\n      JUMPI \t\t\tt for a customer\\r\\n     * @pa...\n      PUSH [tag] 807\t\t\tt for a customer\\r\\n     * @pa...\n      PUSH [tag] 135\t\t\tt for a customer\\r\\n     * @pa...\n      JUMP \t\t\tt for a customer\\r\\n     * @pa...\n    tag 807\t\t\tt for a customer\\r\\n     * @pa...\n      JUMPDEST \t\t\tt for a customer\\r\\n     * @pa...\n    tag 806\t\t\tt for a customer\\r\\n     * @pa...\n      JUMPDEST \t\t\tt for a customer\\r\\n     * @pa...\n      EQ \t\t\tt for a customer\\r\\n     * @pa...\n    tag 803\t\t\ts new KYC request for a custom...\n      JUMPDEST \t\t\ts new KYC request for a custom...\n      ISZERO \t\t\t  * @notice Records new KYC re...\n      PUSH [tag] 808\t\t\t  * @notice Records new KYC re...\n      JUMPI \t\t\t  * @notice Records new KYC re...\n      PUSH 1\t\t\tised\\r\\n     * @param curre\n      PUSH 3\t\t\t requ\n      PUSH 0\t\t\t request i\n      DUP6 \t\t\tst \n      PUSH FFFFFFFFFFFFFFFFFFFFFFFFFFFFFFFFFFFFFFFF\t\t\t request i\n      AND \t\t\t request i\n      PUSH FFFFFFFFFFFFFFFFFFFFFFFFFFFFFFFFFFFFFFFF\t\t\t request i\n      AND \t\t\t request i\n      DUP2 \t\t\t request i\n      MSTORE \t\t\t request i\n      PUSH 20\t\t\t request i\n      ADD \t\t\t request i\n      SWAP1 \t\t\t request i\n      DUP2 \t\t\t request i\n      MSTORE \t\t\t request i\n      PUSH 20\t\t\t request i\n      ADD \t\t\t request i\n      PUSH 0\t\t\t request i\n      KECCAK256 \t\t\t request i\n      PUSH 4\t\t\t request is to be\n      ADD \t\t\t request is to be\n      PUSH 2\t\t\t request is to be\n      PUSH 100\t\t\t request is to be raised\\r\\n  ...\n      EXP \t\t\t request is to be raised\\r\\n  ...\n      DUP2 \t\t\t request is to be raised\\r\\n  ...\n      SLOAD \t\t\t request is to be raised\\r\\n  ...\n      DUP2 \t\t\t request is to be raised\\r\\n  ...\n      PUSH FF\t\t\t request is to be raised\\r\\n  ...\n      MUL \t\t\t request is to be raised\\r\\n  ...\n      NOT \t\t\t request is to be raised\\r\\n  ...\n      AND \t\t\t request is to be raised\\r\\n  ...\n      SWAP1 \t\t\t request is to be raised\\r\\n  ...\n      DUP4 \t\t\t request is to be raised\\r\\n  ...\n      PUSH 1\t\t\t request is to be raised\\r\\n  ...\n      DUP2 \t\t\t request is to be raised\\r\\n  ...\n      GT \t\t\t request is to be raised\\r\\n  ...\n      ISZERO \t\t\t request is to be raised\\r\\n  ...\n      PUSH [tag] 809\t\t\t request is to be raised\\r\\n  ...\n      JUMPI \t\t\t request is to be raised\\r\\n  ...\n      PUSH [tag] 810\t\t\t request is to be raised\\r\\n  ...\n      PUSH [tag] 135\t\t\t request is to be raised\\r\\n  ...\n      JUMP \t\t\t request is to be raised\\r\\n  ...\n    tag 810\t\t\t request is to be raised\\r\\n  ...\n      JUMPDEST \t\t\t request is to be raised\\r\\n  ...\n    tag 809\t\t\t request is to be raised\\r\\n  ...\n      JUMPDEST \t\t\t request is to be raised\\r\\n  ...\n      MUL \t\t\t request is to be raised\\r\\n  ...\n      OR \t\t\t request is to be raised\\r\\n  ...\n      SWAP1 \t\t\t request is to be raised\\r\\n  ...\n      SSTORE \t\t\t request is to be raised\\r\\n  ...\n      POP \t\t\t request is to be raised\\r\\n  ...\n      PUSH E2914C072E85A93716AEA3154E8DC2A6D4F9A823930697852B892FE10BD598F8\t\t\t & Time in unix epoch timestam...\n      DUP4 \t\t\tepo\n      PUSH 3\t\t\t time\n      PUSH 0\t\t\t timestamp\n      DUP7 \t\t\ttam\n      PUSH FFFFFFFFFFFFFFFFFFFFFFFFFFFFFFFFFFFFFFFF\t\t\t timestamp\n      AND \t\t\t timestamp\n      PUSH FFFFFFFFFFFFFFFFFFFFFFFFFFFFFFFFFFFFFFFF\t\t\t timestamp\n      AND \t\t\t timestamp\n      DUP2 \t\t\t timestamp\n      MSTORE \t\t\t timestamp\n      PUSH 20\t\t\t timestamp\n      ADD \t\t\t timestamp\n      SWAP1 \t\t\t timestamp\n      DUP2 \t\t\t timestamp\n      MSTORE \t\t\t timestamp\n      PUSH 20\t\t\t timestamp\n      ADD \t\t\t timestamp\n      PUSH 0\t\t\t timestamp\n      KECCAK256 \t\t\t timestamp\n      PUSH 0\t\t\t timestamp\\r\\n   \n      ADD \t\t\t timestamp\\r\\n   \n      PUSH 40\t\t\t & Time in unix epoch timestam...\n      MLOAD \t\t\t & Time in unix epoch timestam...\n      PUSH [tag] 811\t\t\t & Time in unix epoch timestam...\n      SWAP3 \t\t\t & Time in unix epoch timestam...\n      SWAP2 \t\t\t & Time in unix epoch timestam...\n      SWAP1 \t\t\t & Time in unix epoch timestam...\n      PUSH [tag] 801\t\t\t & Time in unix epoch timestam...\n      JUMP \t\t\t & Time in unix epoch timestam...\n    tag 811\t\t\t & Time in unix epoch timestam...\n      JUMPDEST \t\t\t & Time in unix epoch timestam...\n      PUSH 40\t\t\t & Time in unix epoch timestam...\n      MLOAD \t\t\t & Time in unix epoch timestam...\n      DUP1 \t\t\t & Time in unix epoch timestam...\n      SWAP2 \t\t\t & Time in unix epoch timestam...\n      SUB \t\t\t & Time in unix epoch timestam...\n      SWAP1 \t\t\t & Time in unix epoch timestam...\n      LOG1 \t\t\t & Time in unix epoch timestam...\n      PUSH 1\t\t\t  */\\r\\n    function addKyc\n      SWAP1 \t\t\ted\\r\\n     */\\r\\n    function ...\n      POP \t\t\ted\\r\\n     */\\r\\n    function ...\n      PUSH [tag] 789\t\t\ted\\r\\n     */\\r\\n    function ...\n      JUMP \t\t\ted\\r\\n     */\\r\\n    function ...\n    tag 808\t\t\t  * @notice Records new KYC re...\n      JUMPDEST \t\t\t  * @notice Records new KYC re...\n      PUSH 3\t\t\ttTime\n      PUSH 0\t\t\ttTime_,\\r\\n \n      DUP5 \t\t\t,\\r\\n\n      PUSH FFFFFFFFFFFFFFFFFFFFFFFFFFFFFFFFFFFFFFFF\t\t\ttTime_,\\r\\n \n      AND \t\t\ttTime_,\\r\\n \n      PUSH FFFFFFFFFFFFFFFFFFFFFFFFFFFFFFFFFFFFFFFF\t\t\ttTime_,\\r\\n \n      AND \t\t\ttTime_,\\r\\n \n      DUP2 \t\t\ttTime_,\\r\\n \n      MSTORE \t\t\ttTime_,\\r\\n \n      PUSH 20\t\t\ttTime_,\\r\\n \n      ADD \t\t\ttTime_,\\r\\n \n      SWAP1 \t\t\ttTime_,\\r\\n \n      DUP2 \t\t\ttTime_,\\r\\n \n      MSTORE \t\t\ttTime_,\\r\\n \n      PUSH 20\t\t\ttTime_,\\r\\n \n      ADD \t\t\ttTime_,\\r\\n \n      PUSH 0\t\t\ttTime_,\\r\\n \n      KECCAK256 \t\t\ttTime_,\\r\\n \n      PUSH 4\t\t\ttTime_,\\r\\n        \n      ADD \t\t\ttTime_,\\r\\n        \n      PUSH 2\t\t\ttTime_,\\r\\n        \n      SWAP1 \t\t\ttTime_,\\r\\n        \n      SLOAD \t\t\ttTime_,\\r\\n        \n      SWAP1 \t\t\ttTime_,\\r\\n        \n      PUSH 100\t\t\ttTime_,\\r\\n        \n      EXP \t\t\ttTime_,\\r\\n        \n      SWAP1 \t\t\ttTime_,\\r\\n        \n      DIV \t\t\ttTime_,\\r\\n        \n      PUSH FF\t\t\ttTime_,\\r\\n        \n      AND \t\t\ttTime_,\\r\\n        \n      SWAP1 \t\t\t currentTime_,\\r\\n        \n      POP \t\t\t currentTime_,\\r\\n        \n    tag 789\t\t\t\\n\\r\\n    function activateDea...\n      JUMPDEST \t\t\t\\n\\r\\n    function activateDea...\n      SWAP3 \t\t\t\\n\\r\\n    function activateDea...\n      SWAP2 \t\t\t\\n\\r\\n    function activateDea...\n      POP \t\t\t\\n\\r\\n    function activateDea...\n      POP \t\t\t\\n\\r\\n    function activateDea...\n      JUMP \t\t\t\\n\\r\\n    function activateDea...\n    tag 547\t\t\tfunction getKYCRequests(uint25...\n      JUMPDEST \t\t\tfunction getKYCRequests(uint25...\n      PUSH 0\t\t\tuint256 totalPages\n      PUSH 60\t\t\tTypes.KycRequest[] memory\n      PUSH 0\t\t\t0\n      DUP5 \t\t\tpageNumber\n      GT \t\t\tpageNumber > 0\n      PUSH [tag] 814\t\t\trequire(pageNumber > 0, \"PN sh...\n      JUMPI \t\t\trequire(pageNumber > 0, \"PN sh...\n      PUSH 40\t\t\trequire(pageNumber > 0, \"PN sh...\n      MLOAD \t\t\trequire(pageNumber > 0, \"PN sh...\n      PUSH 8C379A000000000000000000000000000000000000000000000000000000000\t\t\trequire(pageNumber > 0, \"PN sh...\n      DUP2 \t\t\trequire(pageNumber > 0, \"PN sh...\n      MSTORE \t\t\trequire(pageNumber > 0, \"PN sh...\n      PUSH 4\t\t\trequire(pageNumber > 0, \"PN sh...\n      ADD \t\t\trequire(pageNumber > 0, \"PN sh...\n      PUSH [tag] 815\t\t\trequire(pageNumber > 0, \"PN sh...\n      SWAP1 \t\t\trequire(pageNumber > 0, \"PN sh...\n      PUSH [tag] 816\t\t\trequire(pageNumber > 0, \"PN sh...\n      JUMP \t\t\trequire(pageNumber > 0, \"PN sh...\n    tag 815\t\t\trequire(pageNumber > 0, \"PN sh...\n      JUMPDEST \t\t\trequire(pageNumber > 0, \"PN sh...\n      PUSH 40\t\t\trequire(pageNumber > 0, \"PN sh...\n      MLOAD \t\t\trequire(pageNumber > 0, \"PN sh...\n      DUP1 \t\t\trequire(pageNumber > 0, \"PN sh...\n      SWAP2 \t\t\trequire(pageNumber > 0, \"PN sh...\n      SUB \t\t\trequire(pageNumber > 0, \"PN sh...\n      SWAP1 \t\t\trequire(pageNumber > 0, \"PN sh...\n      REVERT \t\t\trequire(pageNumber > 0, \"PN sh...\n    tag 814\t\t\trequire(pageNumber > 0, \"PN sh...\n      JUMPDEST \t\t\trequire(pageNumber > 0, \"PN sh...\n      PUSH 0\t\t\tuint256 pages\n      DUP1 \t\t\tuint256 pageLength_\n      PUSH 0\t\t\tuint256 startIndex_\n      DUP1 \t\t\tuint256 endIndex_\n      PUSH [tag] 817\t\t\tHelpers.getIndexes(\\r\\n       ...\n      DUP9 \t\t\tpageNumber\n      DUP9 \t\t\tisForBank\n      PUSH [tag] 818\t\t\tisForBank\\r\\n                 ...\n      JUMPI \t\t\tisForBank\\r\\n                 ...\n      PUSH 9\t\t\tcustomerbanks\n      PUSH 0\t\t\tcustomerbanks[msg.sender]\n      CALLER \t\t\tmsg.sender\n      PUSH FFFFFFFFFFFFFFFFFFFFFFFFFFFFFFFFFFFFFFFF\t\t\tcustomerbanks[msg.sender]\n      AND \t\t\tcustomerbanks[msg.sender]\n      PUSH FFFFFFFFFFFFFFFFFFFFFFFFFFFFFFFFFFFFFFFF\t\t\tcustomerbanks[msg.sender]\n      AND \t\t\tcustomerbanks[msg.sender]\n      DUP2 \t\t\tcustomerbanks[msg.sender]\n      MSTORE \t\t\tcustomerbanks[msg.sender]\n      PUSH 20\t\t\tcustomerbanks[msg.sender]\n      ADD \t\t\tcustomerbanks[msg.sender]\n      SWAP1 \t\t\tcustomerbanks[msg.sender]\n      DUP2 \t\t\tcustomerbanks[msg.sender]\n      MSTORE \t\t\tcustomerbanks[msg.sender]\n      PUSH 20\t\t\tcustomerbanks[msg.sender]\n      ADD \t\t\tcustomerbanks[msg.sender]\n      PUSH 0\t\t\tcustomerbanks[msg.sender]\n      KECCAK256 \t\t\tcustomerbanks[msg.sender]\n      PUSH [tag] 819\t\t\tisForBank\\r\\n                 ...\n      JUMP \t\t\tisForBank\\r\\n                 ...\n    tag 818\t\t\tisForBank\\r\\n                 ...\n      JUMPDEST \t\t\tisForBank\\r\\n                 ...\n      PUSH 8\t\t\tbankCustomers\n      PUSH 0\t\t\tbankCustomers[msg.sender]\n      CALLER \t\t\tmsg.sender\n      PUSH FFFFFFFFFFFFFFFFFFFFFFFFFFFFFFFFFFFFFFFF\t\t\tbankCustomers[msg.sender]\n      AND \t\t\tbankCustomers[msg.sender]\n      PUSH FFFFFFFFFFFFFFFFFFFFFFFFFFFFFFFFFFFFFFFF\t\t\tbankCustomers[msg.sender]\n      AND \t\t\tbankCustomers[msg.sender]\n      DUP2 \t\t\tbankCustomers[msg.sender]\n      MSTORE \t\t\tbankCustomers[msg.sender]\n      PUSH 20\t\t\tbankCustomers[msg.sender]\n      ADD \t\t\tbankCustomers[msg.sender]\n      SWAP1 \t\t\tbankCustomers[msg.sender]\n      DUP2 \t\t\tbankCustomers[msg.sender]\n      MSTORE \t\t\tbankCustomers[msg.sender]\n      PUSH 20\t\t\tbankCustomers[msg.sender]\n      ADD \t\t\tbankCustomers[msg.sender]\n      PUSH 0\t\t\tbankCustomers[msg.sender]\n      KECCAK256 \t\t\tbankCustomers[msg.sender]\n    tag 819\t\t\tisForBank\\r\\n                 ...\n      JUMPDEST \t\t\tisForBank\\r\\n                 ...\n      DUP1 \t\t\tHelpers.getIndexes(\\r\\n       ...\n      SLOAD \t\t\tHelpers.getIndexes(\\r\\n       ...\n      DUP1 \t\t\tHelpers.getIndexes(\\r\\n       ...\n      PUSH 20\t\t\tHelpers.getIndexes(\\r\\n       ...\n      MUL \t\t\tHelpers.getIndexes(\\r\\n       ...\n      PUSH 20\t\t\tHelpers.getIndexes(\\r\\n       ...\n      ADD \t\t\tHelpers.getIndexes(\\r\\n       ...\n      PUSH 40\t\t\tHelpers.getIndexes(\\r\\n       ...\n      MLOAD \t\t\tHelpers.getIndexes(\\r\\n       ...\n      SWAP1 \t\t\tHelpers.getIndexes(\\r\\n       ...\n      DUP2 \t\t\tHelpers.getIndexes(\\r\\n       ...\n      ADD \t\t\tHelpers.getIndexes(\\r\\n       ...\n      PUSH 40\t\t\tHelpers.getIndexes(\\r\\n       ...\n      MSTORE \t\t\tHelpers.getIndexes(\\r\\n       ...\n      DUP1 \t\t\tHelpers.getIndexes(\\r\\n       ...\n      SWAP3 \t\t\tHelpers.getIndexes(\\r\\n       ...\n      SWAP2 \t\t\tHelpers.getIndexes(\\r\\n       ...\n      SWAP1 \t\t\tHelpers.getIndexes(\\r\\n       ...\n      DUP2 \t\t\tHelpers.getIndexes(\\r\\n       ...\n      DUP2 \t\t\tHelpers.getIndexes(\\r\\n       ...\n      MSTORE \t\t\tHelpers.getIndexes(\\r\\n       ...\n      PUSH 20\t\t\tHelpers.getIndexes(\\r\\n       ...\n      ADD \t\t\tHelpers.getIndexes(\\r\\n       ...\n      DUP3 \t\t\tHelpers.getIndexes(\\r\\n       ...\n      DUP1 \t\t\tHelpers.getIndexes(\\r\\n       ...\n      SLOAD \t\t\tHelpers.getIndexes(\\r\\n       ...\n      DUP1 \t\t\tHelpers.getIndexes(\\r\\n       ...\n      ISZERO \t\t\tHelpers.getIndexes(\\r\\n       ...\n      PUSH [tag] 820\t\t\tHelpers.getIndexes(\\r\\n       ...\n      JUMPI \t\t\tHelpers.getIndexes(\\r\\n       ...\n      PUSH 20\t\t\tHelpers.getIndexes(\\r\\n       ...\n      MUL \t\t\tHelpers.getIndexes(\\r\\n       ...\n      DUP3 \t\t\tHelpers.getIndexes(\\r\\n       ...\n      ADD \t\t\tHelpers.getIndexes(\\r\\n       ...\n      SWAP2 \t\t\tHelpers.getIndexes(\\r\\n       ...\n      SWAP1 \t\t\tHelpers.getIndexes(\\r\\n       ...\n      PUSH 0\t\t\tHelpers.getIndexes(\\r\\n       ...\n      MSTORE \t\t\tHelpers.getIndexes(\\r\\n       ...\n      PUSH 20\t\t\tHelpers.getIndexes(\\r\\n       ...\n      PUSH 0\t\t\tHelpers.getIndexes(\\r\\n       ...\n      KECCAK256 \t\t\tHelpers.getIndexes(\\r\\n       ...\n      SWAP1 \t\t\tHelpers.getIndexes(\\r\\n       ...\n    tag 821\t\t\tHelpers.getIndexes(\\r\\n       ...\n      JUMPDEST \t\t\tHelpers.getIndexes(\\r\\n       ...\n      DUP2 \t\t\tHelpers.getIndexes(\\r\\n       ...\n      PUSH 0\t\t\tHelpers.getIndexes(\\r\\n       ...\n      SWAP1 \t\t\tHelpers.getIndexes(\\r\\n       ...\n      SLOAD \t\t\tHelpers.getIndexes(\\r\\n       ...\n      SWAP1 \t\t\tHelpers.getIndexes(\\r\\n       ...\n      PUSH 100\t\t\tHelpers.getIndexes(\\r\\n       ...\n      EXP \t\t\tHelpers.getIndexes(\\r\\n       ...\n      SWAP1 \t\t\tHelpers.getIndexes(\\r\\n       ...\n      DIV \t\t\tHelpers.getIndexes(\\r\\n       ...\n      PUSH FFFFFFFFFFFFFFFFFFFFFFFFFFFFFFFFFFFFFFFF\t\t\tHelpers.getIndexes(\\r\\n       ...\n      AND \t\t\tHelpers.getIndexes(\\r\\n       ...\n      PUSH FFFFFFFFFFFFFFFFFFFFFFFFFFFFFFFFFFFFFFFF\t\t\tHelpers.getIndexes(\\r\\n       ...\n      AND \t\t\tHelpers.getIndexes(\\r\\n       ...\n      DUP2 \t\t\tHelpers.getIndexes(\\r\\n       ...\n      MSTORE \t\t\tHelpers.getIndexes(\\r\\n       ...\n      PUSH 20\t\t\tHelpers.getIndexes(\\r\\n       ...\n      ADD \t\t\tHelpers.getIndexes(\\r\\n       ...\n      SWAP1 \t\t\tHelpers.getIndexes(\\r\\n       ...\n      PUSH 1\t\t\tHelpers.getIndexes(\\r\\n       ...\n      ADD \t\t\tHelpers.getIndexes(\\r\\n       ...\n      SWAP1 \t\t\tHelpers.getIndexes(\\r\\n       ...\n      DUP1 \t\t\tHelpers.getIndexes(\\r\\n       ...\n      DUP4 \t\t\tHelpers.getIndexes(\\r\\n       ...\n      GT \t\t\tHelpers.getIndexes(\\r\\n       ...\n      PUSH [tag] 821\t\t\tHelpers.getIndexes(\\r\\n       ...\n      JUMPI \t\t\tHelpers.getIndexes(\\r\\n       ...\n    tag 820\t\t\tHelpers.getIndexes(\\r\\n       ...\n      JUMPDEST \t\t\tHelpers.getIndexes(\\r\\n       ...\n      POP \t\t\tHelpers.getIndexes(\\r\\n       ...\n      POP \t\t\tHelpers.getIndexes(\\r\\n       ...\n      POP \t\t\tHelpers.getIndexes(\\r\\n       ...\n      POP \t\t\tHelpers.getIndexes(\\r\\n       ...\n      POP \t\t\tHelpers.getIndexes(\\r\\n       ...\n      PUSH [tag] 715\t\t\tHelpers.getIndexes\n      JUMP \t\t\tHelpers.getIndexes(\\r\\n       ...\n    tag 817\t\t\tHelpers.getIndexes(\\r\\n       ...\n      JUMPDEST \t\t\tHelpers.getIndexes(\\r\\n       ...\n      SWAP4 \t\t\t(\\r\\n            uint256 pages...\n      POP \t\t\t(\\r\\n            uint256 pages...\n      SWAP4 \t\t\t(\\r\\n            uint256 pages...\n      POP \t\t\t(\\r\\n            uint256 pages...\n      SWAP4 \t\t\t(\\r\\n            uint256 pages...\n      POP \t\t\t(\\r\\n            uint256 pages...\n      SWAP4 \t\t\t(\\r\\n            uint256 pages...\n      POP \t\t\t(\\r\\n            uint256 pages...\n      PUSH 0\t\t\tTypes.KycRequest[] memory list...\n      DUP4 \t\t\tpageLength_\n      PUSH FFFFFFFFFFFFFFFF\t\t\tnew Types.KycRequest[](pageLen...\n      DUP2 \t\t\tnew Types.KycRequest[](pageLen...\n      GT \t\t\tnew Types.KycRequest[](pageLen...\n      ISZERO \t\t\tnew Types.KycRequest[](pageLen...\n      PUSH [tag] 822\t\t\tnew Types.KycRequest[](pageLen...\n      JUMPI \t\t\tnew Types.KycRequest[](pageLen...\n      PUSH [tag] 823\t\t\tnew Types.KycRequest[](pageLen...\n      PUSH [tag] 718\t\t\tnew Types.KycRequest[](pageLen...\n      JUMP \t\t\tnew Types.KycRequest[](pageLen...\n    tag 823\t\t\tnew Types.KycRequest[](pageLen...\n      JUMPDEST \t\t\tnew Types.KycRequest[](pageLen...\n    tag 822\t\t\tnew Types.KycRequest[](pageLen...\n      JUMPDEST \t\t\tnew Types.KycRequest[](pageLen...\n      PUSH 40\t\t\tnew Types.KycRequest[](pageLen...\n      MLOAD \t\t\tnew Types.KycRequest[](pageLen...\n      SWAP1 \t\t\tnew Types.KycRequest[](pageLen...\n      DUP1 \t\t\tnew Types.KycRequest[](pageLen...\n      DUP3 \t\t\tnew Types.KycRequest[](pageLen...\n      MSTORE \t\t\tnew Types.KycRequest[](pageLen...\n      DUP1 \t\t\tnew Types.KycRequest[](pageLen...\n      PUSH 20\t\t\tnew Types.KycRequest[](pageLen...\n      MUL \t\t\tnew Types.KycRequest[](pageLen...\n      PUSH 20\t\t\tnew Types.KycRequest[](pageLen...\n      ADD \t\t\tnew Types.KycRequest[](pageLen...\n      DUP3 \t\t\tnew Types.KycRequest[](pageLen...\n      ADD \t\t\tnew Types.KycRequest[](pageLen...\n      PUSH 40\t\t\tnew Types.KycRequest[](pageLen...\n      MSTORE \t\t\tnew Types.KycRequest[](pageLen...\n      DUP1 \t\t\tnew Types.KycRequest[](pageLen...\n      ISZERO \t\t\tnew Types.KycRequest[](pageLen...\n      PUSH [tag] 824\t\t\tnew Types.KycRequest[](pageLen...\n      JUMPI \t\t\tnew Types.KycRequest[](pageLen...\n      DUP2 \t\t\tnew Types.KycRequest[](pageLen...\n      PUSH 20\t\t\tnew Types.KycRequest[](pageLen...\n      ADD \t\t\tnew Types.KycRequest[](pageLen...\n    tag 825\t\t\tnew Types.KycRequest[](pageLen...\n      JUMPDEST \t\t\tnew Types.KycRequest[](pageLen...\n      PUSH [tag] 826\t\t\tnew Types.KycRequest[](pageLen...\n      PUSH [tag] 199\t\t\tnew Types.KycRequest[](pageLen...\n      JUMP \t\t\tnew Types.KycRequest[](pageLen...\n    tag 826\t\t\tnew Types.KycRequest[](pageLen...\n      JUMPDEST \t\t\tnew Types.KycRequest[](pageLen...\n      DUP2 \t\t\tnew Types.KycRequest[](pageLen...\n      MSTORE \t\t\tnew Types.KycRequest[](pageLen...\n      PUSH 20\t\t\tnew Types.KycRequest[](pageLen...\n      ADD \t\t\tnew Types.KycRequest[](pageLen...\n      SWAP1 \t\t\tnew Types.KycRequest[](pageLen...\n      PUSH 1\t\t\tnew Types.KycRequest[](pageLen...\n      SWAP1 \t\t\tnew Types.KycRequest[](pageLen...\n      SUB \t\t\tnew Types.KycRequest[](pageLen...\n      SWAP1 \t\t\tnew Types.KycRequest[](pageLen...\n      DUP2 \t\t\tnew Types.KycRequest[](pageLen...\n      PUSH [tag] 825\t\t\tnew Types.KycRequest[](pageLen...\n      JUMPI \t\t\tnew Types.KycRequest[](pageLen...\n      SWAP1 \t\t\tnew Types.KycRequest[](pageLen...\n      POP \t\t\tnew Types.KycRequest[](pageLen...\n    tag 824\t\t\tnew Types.KycRequest[](pageLen...\n      JUMPDEST \t\t\tnew Types.KycRequest[](pageLen...\n      POP \t\t\tnew Types.KycRequest[](pageLen...\n      SWAP1 \t\t\tTypes.KycRequest[] memory list...\n      POP \t\t\tTypes.KycRequest[] memory list...\n      PUSH 0\t\t\tuint256 i\n      DUP4 \t\t\tstartIndex_\n      SWAP1 \t\t\tuint256 i = startIndex_\n      POP \t\t\tuint256 i = startIndex_\n    tag 827\t\t\tfor (uint256 i = startIndex_; ...\n      JUMPDEST \t\t\tfor (uint256 i = startIndex_; ...\n      DUP3 \t\t\tendIndex_\n      DUP2 \t\t\ti\n      LT \t\t\ti < endIndex_\n      ISZERO \t\t\tfor (uint256 i = startIndex_; ...\n      PUSH [tag] 828\t\t\tfor (uint256 i = startIndex_; ...\n      JUMPI \t\t\tfor (uint256 i = startIndex_; ...\n      DUP9 \t\t\tisForBank\n      PUSH [tag] 830\t\t\tisForBank\\r\\n                ?...\n      JUMPI \t\t\tisForBank\\r\\n                ?...\n      PUSH 7\t\t\tkycRequests\n      PUSH [tag] 831\t\t\tHelpers.append(customerbanks[m...\n      PUSH 9\t\t\tcustomerbanks\n      PUSH 0\t\t\tcustomerbanks[msg.sender]\n      CALLER \t\t\tmsg.sender\n      PUSH FFFFFFFFFFFFFFFFFFFFFFFFFFFFFFFFFFFFFFFF\t\t\tcustomerbanks[msg.sender]\n      AND \t\t\tcustomerbanks[msg.sender]\n      PUSH FFFFFFFFFFFFFFFFFFFFFFFFFFFFFFFFFFFFFFFF\t\t\tcustomerbanks[msg.sender]\n      AND \t\t\tcustomerbanks[msg.sender]\n      DUP2 \t\t\tcustomerbanks[msg.sender]\n      MSTORE \t\t\tcustomerbanks[msg.sender]\n      PUSH 20\t\t\tcustomerbanks[msg.sender]\n      ADD \t\t\tcustomerbanks[msg.sender]\n      SWAP1 \t\t\tcustomerbanks[msg.sender]\n      DUP2 \t\t\tcustomerbanks[msg.sender]\n      MSTORE \t\t\tcustomerbanks[msg.sender]\n      PUSH 20\t\t\tcustomerbanks[msg.sender]\n      ADD \t\t\tcustomerbanks[msg.sender]\n      PUSH 0\t\t\tcustomerbanks[msg.sender]\n      KECCAK256 \t\t\tcustomerbanks[msg.sender]\n      DUP4 \t\t\ti\n      DUP2 \t\t\tcustomerbanks[msg.sender][i]\n      SLOAD \t\t\tcustomerbanks[msg.sender][i]\n      DUP2 \t\t\tcustomerbanks[msg.sender][i]\n      LT \t\t\tcustomerbanks[msg.sender][i]\n      PUSH [tag] 832\t\t\tcustomerbanks[msg.sender][i]\n      JUMPI \t\t\tcustomerbanks[msg.sender][i]\n      PUSH [tag] 833\t\t\tcustomerbanks[msg.sender][i]\n      PUSH [tag] 234\t\t\tcustomerbanks[msg.sender][i]\n      JUMP \t\t\tcustomerbanks[msg.sender][i]\n    tag 833\t\t\tcustomerbanks[msg.sender][i]\n      JUMPDEST \t\t\tcustomerbanks[msg.sender][i]\n    tag 832\t\t\tcustomerbanks[msg.sender][i]\n      JUMPDEST \t\t\tcustomerbanks[msg.sender][i]\n      SWAP1 \t\t\tcustomerbanks[msg.sender][i]\n      PUSH 0\t\t\tcustomerbanks[msg.sender][i]\n      MSTORE \t\t\tcustomerbanks[msg.sender][i]\n      PUSH 20\t\t\tcustomerbanks[msg.sender][i]\n      PUSH 0\t\t\tcustomerbanks[msg.sender][i]\n      KECCAK256 \t\t\tcustomerbanks[msg.sender][i]\n      ADD \t\t\tcustomerbanks[msg.sender][i]\n      PUSH 0\t\t\tcustomerbanks[msg.sender][i]\n      SWAP1 \t\t\tcustomerbanks[msg.sender][i]\n      SLOAD \t\t\tcustomerbanks[msg.sender][i]\n      SWAP1 \t\t\tcustomerbanks[msg.sender][i]\n      PUSH 100\t\t\tcustomerbanks[msg.sender][i]\n      EXP \t\t\tcustomerbanks[msg.sender][i]\n      SWAP1 \t\t\tcustomerbanks[msg.sender][i]\n      DIV \t\t\tcustomerbanks[msg.sender][i]\n      PUSH FFFFFFFFFFFFFFFFFFFFFFFFFFFFFFFFFFFFFFFF\t\t\tcustomerbanks[msg.sender][i]\n      AND \t\t\tcustomerbanks[msg.sender][i]\n      CALLER \t\t\tmsg.sender\n      PUSH [tag] 157\t\t\tHelpers.append\n      JUMP \t\t\tHelpers.append(customerbanks[m...\n    tag 831\t\t\tHelpers.append(customerbanks[m...\n      JUMPDEST \t\t\tHelpers.append(customerbanks[m...\n      PUSH 40\t\t\tkycRequests[\\r\\n              ...\n      MLOAD \t\t\tkycRequests[\\r\\n              ...\n      PUSH [tag] 835\t\t\tkycRequests[\\r\\n              ...\n      SWAP2 \t\t\tkycRequests[\\r\\n              ...\n      SWAP1 \t\t\tkycRequests[\\r\\n              ...\n      PUSH [tag] 169\t\t\tkycRequests[\\r\\n              ...\n      JUMP \t\t\tkycRequests[\\r\\n              ...\n    tag 835\t\t\tkycRequests[\\r\\n              ...\n      JUMPDEST \t\t\tkycRequests[\\r\\n              ...\n      SWAP1 \t\t\tkycRequests[\\r\\n              ...\n      DUP2 \t\t\tkycRequests[\\r\\n              ...\n      MSTORE \t\t\tkycRequests[\\r\\n              ...\n      PUSH 20\t\t\tkycRequests[\\r\\n              ...\n      ADD \t\t\tkycRequests[\\r\\n              ...\n      PUSH 40\t\t\tkycRequests[\\r\\n              ...\n      MLOAD \t\t\tkycRequests[\\r\\n              ...\n      DUP1 \t\t\tkycRequests[\\r\\n              ...\n      SWAP2 \t\t\tkycRequests[\\r\\n              ...\n      SUB \t\t\tkycRequests[\\r\\n              ...\n      SWAP1 \t\t\tkycRequests[\\r\\n              ...\n      KECCAK256 \t\t\tkycRequests[\\r\\n              ...\n      PUSH [tag] 836\t\t\tisForBank\\r\\n                ?...\n      JUMP \t\t\tisForBank\\r\\n                ?...\n    tag 830\t\t\tisForBank\\r\\n                ?...\n      JUMPDEST \t\t\tisForBank\\r\\n                ?...\n      PUSH 7\t\t\tkycRequests\n      PUSH [tag] 837\t\t\tHelpers.append(msg.sender, ban...\n      CALLER \t\t\tmsg.sender\n      PUSH 8\t\t\tbankCustomers\n      PUSH 0\t\t\tbankCustomers[msg.sender]\n      CALLER \t\t\tmsg.sender\n      PUSH FFFFFFFFFFFFFFFFFFFFFFFFFFFFFFFFFFFFFFFF\t\t\tbankCustomers[msg.sender]\n      AND \t\t\tbankCustomers[msg.sender]\n      PUSH FFFFFFFFFFFFFFFFFFFFFFFFFFFFFFFFFFFFFFFF\t\t\tbankCustomers[msg.sender]\n      AND \t\t\tbankCustomers[msg.sender]\n      DUP2 \t\t\tbankCustomers[msg.sender]\n      MSTORE \t\t\tbankCustomers[msg.sender]\n      PUSH 20\t\t\tbankCustomers[msg.sender]\n      ADD \t\t\tbankCustomers[msg.sender]\n      SWAP1 \t\t\tbankCustomers[msg.sender]\n      DUP2 \t\t\tbankCustomers[msg.sender]\n      MSTORE \t\t\tbankCustomers[msg.sender]\n      PUSH 20\t\t\tbankCustomers[msg.sender]\n      ADD \t\t\tbankCustomers[msg.sender]\n      PUSH 0\t\t\tbankCustomers[msg.sender]\n      KECCAK256 \t\t\tbankCustomers[msg.sender]\n      DUP5 \t\t\ti\n      DUP2 \t\t\tbankCustomers[msg.sender][i]\n      SLOAD \t\t\tbankCustomers[msg.sender][i]\n      DUP2 \t\t\tbankCustomers[msg.sender][i]\n      LT \t\t\tbankCustomers[msg.sender][i]\n      PUSH [tag] 838\t\t\tbankCustomers[msg.sender][i]\n      JUMPI \t\t\tbankCustomers[msg.sender][i]\n      PUSH [tag] 839\t\t\tbankCustomers[msg.sender][i]\n      PUSH [tag] 234\t\t\tbankCustomers[msg.sender][i]\n      JUMP \t\t\tbankCustomers[msg.sender][i]\n    tag 839\t\t\tbankCustomers[msg.sender][i]\n      JUMPDEST \t\t\tbankCustomers[msg.sender][i]\n    tag 838\t\t\tbankCustomers[msg.sender][i]\n      JUMPDEST \t\t\tbankCustomers[msg.sender][i]\n      SWAP1 \t\t\tbankCustomers[msg.sender][i]\n      PUSH 0\t\t\tbankCustomers[msg.sender][i]\n      MSTORE \t\t\tbankCustomers[msg.sender][i]\n      PUSH 20\t\t\tbankCustomers[msg.sender][i]\n      PUSH 0\t\t\tbankCustomers[msg.sender][i]\n      KECCAK256 \t\t\tbankCustomers[msg.sender][i]\n      ADD \t\t\tbankCustomers[msg.sender][i]\n      PUSH 0\t\t\tbankCustomers[msg.sender][i]\n      SWAP1 \t\t\tbankCustomers[msg.sender][i]\n      SLOAD \t\t\tbankCustomers[msg.sender][i]\n      SWAP1 \t\t\tbankCustomers[msg.sender][i]\n      PUSH 100\t\t\tbankCustomers[msg.sender][i]\n      EXP \t\t\tbankCustomers[msg.sender][i]\n      SWAP1 \t\t\tbankCustomers[msg.sender][i]\n      DIV \t\t\tbankCustomers[msg.sender][i]\n      PUSH FFFFFFFFFFFFFFFFFFFFFFFFFFFFFFFFFFFFFFFF\t\t\tbankCustomers[msg.sender][i]\n      AND \t\t\tbankCustomers[msg.sender][i]\n      PUSH [tag] 157\t\t\tHelpers.append\n      JUMP \t\t\tHelpers.append(msg.sender, ban...\n    tag 837\t\t\tHelpers.append(msg.sender, ban...\n      JUMPDEST \t\t\tHelpers.append(msg.sender, ban...\n      PUSH 40\t\t\tkycRequests[\\r\\n              ...\n      MLOAD \t\t\tkycRequests[\\r\\n              ...\n      PUSH [tag] 841\t\t\tkycRequests[\\r\\n              ...\n      SWAP2 \t\t\tkycRequests[\\r\\n              ...\n      SWAP1 \t\t\tkycRequests[\\r\\n              ...\n      PUSH [tag] 169\t\t\tkycRequests[\\r\\n              ...\n      JUMP \t\t\tkycRequests[\\r\\n              ...\n    tag 841\t\t\tkycRequests[\\r\\n              ...\n      JUMPDEST \t\t\tkycRequests[\\r\\n              ...\n      SWAP1 \t\t\tkycRequests[\\r\\n              ...\n      DUP2 \t\t\tkycRequests[\\r\\n              ...\n      MSTORE \t\t\tkycRequests[\\r\\n              ...\n      PUSH 20\t\t\tkycRequests[\\r\\n              ...\n      ADD \t\t\tkycRequests[\\r\\n              ...\n      PUSH 40\t\t\tkycRequests[\\r\\n              ...\n      MLOAD \t\t\tkycRequests[\\r\\n              ...\n      DUP1 \t\t\tkycRequests[\\r\\n              ...\n      SWAP2 \t\t\tkycRequests[\\r\\n              ...\n      SUB \t\t\tkycRequests[\\r\\n              ...\n      SWAP1 \t\t\tkycRequests[\\r\\n              ...\n      KECCAK256 \t\t\tkycRequests[\\r\\n              ...\n    tag 836\t\t\tisForBank\\r\\n                ?...\n      JUMPDEST \t\t\tisForBank\\r\\n                ?...\n      PUSH 40\t\t\tlist_[i] = isForBank\\r\\n      ...\n      MLOAD \t\t\tlist_[i] = isForBank\\r\\n      ...\n      DUP1 \t\t\tlist_[i] = isForBank\\r\\n      ...\n      PUSH 140\t\t\tlist_[i] = isForBank\\r\\n      ...\n      ADD \t\t\tlist_[i] = isForBank\\r\\n      ...\n      PUSH 40\t\t\tlist_[i] = isForBank\\r\\n      ...\n      MSTORE \t\t\tlist_[i] = isForBank\\r\\n      ...\n      SWAP1 \t\t\tlist_[i] = isForBank\\r\\n      ...\n      DUP2 \t\t\tlist_[i] = isForBank\\r\\n      ...\n      PUSH 0\t\t\tlist_[i] = isForBank\\r\\n      ...\n      DUP3 \t\t\tlist_[i] = isForBank\\r\\n      ...\n      ADD \t\t\tlist_[i] = isForBank\\r\\n      ...\n      DUP1 \t\t\tlist_[i] = isForBank\\r\\n      ...\n      SLOAD \t\t\tlist_[i] = isForBank\\r\\n      ...\n      PUSH [tag] 842\t\t\tlist_[i] = isForBank\\r\\n      ...\n      SWAP1 \t\t\tlist_[i] = isForBank\\r\\n      ...\n      PUSH [tag] 113\t\t\tlist_[i] = isForBank\\r\\n      ...\n      JUMP \t\t\tlist_[i] = isForBank\\r\\n      ...\n    tag 842\t\t\tlist_[i] = isForBank\\r\\n      ...\n      JUMPDEST \t\t\tlist_[i] = isForBank\\r\\n      ...\n      DUP1 \t\t\tlist_[i] = isForBank\\r\\n      ...\n      PUSH 1F\t\t\tlist_[i] = isForBank\\r\\n      ...\n      ADD \t\t\tlist_[i] = isForBank\\r\\n      ...\n      PUSH 20\t\t\tlist_[i] = isForBank\\r\\n      ...\n      DUP1 \t\t\tlist_[i] = isForBank\\r\\n      ...\n      SWAP2 \t\t\tlist_[i] = isForBank\\r\\n      ...\n      DIV \t\t\tlist_[i] = isForBank\\r\\n      ...\n      MUL \t\t\tlist_[i] = isForBank\\r\\n      ...\n      PUSH 20\t\t\tlist_[i] = isForBank\\r\\n      ...\n      ADD \t\t\tlist_[i] = isForBank\\r\\n      ...\n      PUSH 40\t\t\tlist_[i] = isForBank\\r\\n      ...\n      MLOAD \t\t\tlist_[i] = isForBank\\r\\n      ...\n      SWAP1 \t\t\tlist_[i] = isForBank\\r\\n      ...\n      DUP2 \t\t\tlist_[i] = isForBank\\r\\n      ...\n      ADD \t\t\tlist_[i] = isForBank\\r\\n      ...\n      PUSH 40\t\t\tlist_[i] = isForBank\\r\\n      ...\n      MSTORE \t\t\tlist_[i] = isForBank\\r\\n      ...\n      DUP1 \t\t\tlist_[i] = isForBank\\r\\n      ...\n      SWAP3 \t\t\tlist_[i] = isForBank\\r\\n      ...\n      SWAP2 \t\t\tlist_[i] = isForBank\\r\\n      ...\n      SWAP1 \t\t\tlist_[i] = isForBank\\r\\n      ...\n      DUP2 \t\t\tlist_[i] = isForBank\\r\\n      ...\n      DUP2 \t\t\tlist_[i] = isForBank\\r\\n      ...\n      MSTORE \t\t\tlist_[i] = isForBank\\r\\n      ...\n      PUSH 20\t\t\tlist_[i] = isForBank\\r\\n      ...\n      ADD \t\t\tlist_[i] = isForBank\\r\\n      ...\n      DUP3 \t\t\tlist_[i] = isForBank\\r\\n      ...\n      DUP1 \t\t\tlist_[i] = isForBank\\r\\n      ...\n      SLOAD \t\t\tlist_[i] = isForBank\\r\\n      ...\n      PUSH [tag] 843\t\t\tlist_[i] = isForBank\\r\\n      ...\n      SWAP1 \t\t\tlist_[i] = isForBank\\r\\n      ...\n      PUSH [tag] 113\t\t\tlist_[i] = isForBank\\r\\n      ...\n      JUMP \t\t\tlist_[i] = isForBank\\r\\n      ...\n    tag 843\t\t\tlist_[i] = isForBank\\r\\n      ...\n      JUMPDEST \t\t\tlist_[i] = isForBank\\r\\n      ...\n      DUP1 \t\t\tlist_[i] = isForBank\\r\\n      ...\n      ISZERO \t\t\tlist_[i] = isForBank\\r\\n      ...\n      PUSH [tag] 844\t\t\tlist_[i] = isForBank\\r\\n      ...\n      JUMPI \t\t\tlist_[i] = isForBank\\r\\n      ...\n      DUP1 \t\t\tlist_[i] = isForBank\\r\\n      ...\n      PUSH 1F\t\t\tlist_[i] = isForBank\\r\\n      ...\n      LT \t\t\tlist_[i] = isForBank\\r\\n      ...\n      PUSH [tag] 845\t\t\tlist_[i] = isForBank\\r\\n      ...\n      JUMPI \t\t\tlist_[i] = isForBank\\r\\n      ...\n      PUSH 100\t\t\tlist_[i] = isForBank\\r\\n      ...\n      DUP1 \t\t\tlist_[i] = isForBank\\r\\n      ...\n      DUP4 \t\t\tlist_[i] = isForBank\\r\\n      ...\n      SLOAD \t\t\tlist_[i] = isForBank\\r\\n      ...\n      DIV \t\t\tlist_[i] = isForBank\\r\\n      ...\n      MUL \t\t\tlist_[i] = isForBank\\r\\n      ...\n      DUP4 \t\t\tlist_[i] = isForBank\\r\\n      ...\n      MSTORE \t\t\tlist_[i] = isForBank\\r\\n      ...\n      SWAP2 \t\t\tlist_[i] = isForBank\\r\\n      ...\n      PUSH 20\t\t\tlist_[i] = isForBank\\r\\n      ...\n      ADD \t\t\tlist_[i] = isForBank\\r\\n      ...\n      SWAP2 \t\t\tlist_[i] = isForBank\\r\\n      ...\n      PUSH [tag] 844\t\t\tlist_[i] = isForBank\\r\\n      ...\n      JUMP \t\t\tlist_[i] = isForBank\\r\\n      ...\n    tag 845\t\t\tlist_[i] = isForBank\\r\\n      ...\n      JUMPDEST \t\t\tlist_[i] = isForBank\\r\\n      ...\n      DUP3 \t\t\tlist_[i] = isForBank\\r\\n      ...\n      ADD \t\t\tlist_[i] = isForBank\\r\\n      ...\n      SWAP2 \t\t\tlist_[i] = isForBank\\r\\n      ...\n      SWAP1 \t\t\tlist_[i] = isForBank\\r\\n      ...\n      PUSH 0\t\t\tlist_[i] = isForBank\\r\\n      ...\n      MSTORE \t\t\tlist_[i] = isForBank\\r\\n      ...\n      PUSH 20\t\t\tlist_[i] = isForBank\\r\\n      ...\n      PUSH 0\t\t\tlist_[i] = isForBank\\r\\n      ...\n      KECCAK256 \t\t\tlist_[i] = isForBank\\r\\n      ...\n      SWAP1 \t\t\tlist_[i] = isForBank\\r\\n      ...\n    tag 846\t\t\tlist_[i] = isForBank\\r\\n      ...\n      JUMPDEST \t\t\tlist_[i] = isForBank\\r\\n      ...\n      DUP2 \t\t\tlist_[i] = isForBank\\r\\n      ...\n      SLOAD \t\t\tlist_[i] = isForBank\\r\\n      ...\n      DUP2 \t\t\tlist_[i] = isForBank\\r\\n      ...\n      MSTORE \t\t\tlist_[i] = isForBank\\r\\n      ...\n      SWAP1 \t\t\tlist_[i] = isForBank\\r\\n      ...\n      PUSH 1\t\t\tlist_[i] = isForBank\\r\\n      ...\n      ADD \t\t\tlist_[i] = isForBank\\r\\n      ...\n      SWAP1 \t\t\tlist_[i] = isForBank\\r\\n      ...\n      PUSH 20\t\t\tlist_[i] = isForBank\\r\\n      ...\n      ADD \t\t\tlist_[i] = isForBank\\r\\n      ...\n      DUP1 \t\t\tlist_[i] = isForBank\\r\\n      ...\n      DUP4 \t\t\tlist_[i] = isForBank\\r\\n      ...\n      GT \t\t\tlist_[i] = isForBank\\r\\n      ...\n      PUSH [tag] 846\t\t\tlist_[i] = isForBank\\r\\n      ...\n      JUMPI \t\t\tlist_[i] = isForBank\\r\\n      ...\n      DUP3 \t\t\tlist_[i] = isForBank\\r\\n      ...\n      SWAP1 \t\t\tlist_[i] = isForBank\\r\\n      ...\n      SUB \t\t\tlist_[i] = isForBank\\r\\n      ...\n      PUSH 1F\t\t\tlist_[i] = isForBank\\r\\n      ...\n      AND \t\t\tlist_[i] = isForBank\\r\\n      ...\n      DUP3 \t\t\tlist_[i] = isForBank\\r\\n      ...\n      ADD \t\t\tlist_[i] = isForBank\\r\\n      ...\n      SWAP2 \t\t\tlist_[i] = isForBank\\r\\n      ...\n    tag 844\t\t\tlist_[i] = isForBank\\r\\n      ...\n      JUMPDEST \t\t\tlist_[i] = isForBank\\r\\n      ...\n      POP \t\t\tlist_[i] = isForBank\\r\\n      ...\n      POP \t\t\tlist_[i] = isForBank\\r\\n      ...\n      POP \t\t\tlist_[i] = isForBank\\r\\n      ...\n      POP \t\t\tlist_[i] = isForBank\\r\\n      ...\n      POP \t\t\tlist_[i] = isForBank\\r\\n      ...\n      DUP2 \t\t\tlist_[i] = isForBank\\r\\n      ...\n      MSTORE \t\t\tlist_[i] = isForBank\\r\\n      ...\n      PUSH 20\t\t\tlist_[i] = isForBank\\r\\n      ...\n      ADD \t\t\tlist_[i] = isForBank\\r\\n      ...\n      PUSH 1\t\t\tlist_[i] = isForBank\\r\\n      ...\n      DUP3 \t\t\tlist_[i] = isForBank\\r\\n      ...\n      ADD \t\t\tlist_[i] = isForBank\\r\\n      ...\n      PUSH 0\t\t\tlist_[i] = isForBank\\r\\n      ...\n      SWAP1 \t\t\tlist_[i] = isForBank\\r\\n      ...\n      SLOAD \t\t\tlist_[i] = isForBank\\r\\n      ...\n      SWAP1 \t\t\tlist_[i] = isForBank\\r\\n      ...\n      PUSH 100\t\t\tlist_[i] = isForBank\\r\\n      ...\n      EXP \t\t\tlist_[i] = isForBank\\r\\n      ...\n      SWAP1 \t\t\tlist_[i] = isForBank\\r\\n      ...\n      DIV \t\t\tlist_[i] = isForBank\\r\\n      ...\n      PUSH FFFFFFFFFFFFFFFFFFFFFFFFFFFFFFFFFFFFFFFF\t\t\tlist_[i] = isForBank\\r\\n      ...\n      AND \t\t\tlist_[i] = isForBank\\r\\n      ...\n      PUSH FFFFFFFFFFFFFFFFFFFFFFFFFFFFFFFFFFFFFFFF\t\t\tlist_[i] = isForBank\\r\\n      ...\n      AND \t\t\tlist_[i] = isForBank\\r\\n      ...\n      PUSH FFFFFFFFFFFFFFFFFFFFFFFFFFFFFFFFFFFFFFFF\t\t\tlist_[i] = isForBank\\r\\n      ...\n      AND \t\t\tlist_[i] = isForBank\\r\\n      ...\n      DUP2 \t\t\tlist_[i] = isForBank\\r\\n      ...\n      MSTORE \t\t\tlist_[i] = isForBank\\r\\n      ...\n      PUSH 20\t\t\tlist_[i] = isForBank\\r\\n      ...\n      ADD \t\t\tlist_[i] = isForBank\\r\\n      ...\n      PUSH 2\t\t\tlist_[i] = isForBank\\r\\n      ...\n      DUP3 \t\t\tlist_[i] = isForBank\\r\\n      ...\n      ADD \t\t\tlist_[i] = isForBank\\r\\n      ...\n      DUP1 \t\t\tlist_[i] = isForBank\\r\\n      ...\n      SLOAD \t\t\tlist_[i] = isForBank\\r\\n      ...\n      PUSH [tag] 847\t\t\tlist_[i] = isForBank\\r\\n      ...\n      SWAP1 \t\t\tlist_[i] = isForBank\\r\\n      ...\n      PUSH [tag] 113\t\t\tlist_[i] = isForBank\\r\\n      ...\n      JUMP \t\t\tlist_[i] = isForBank\\r\\n      ...\n    tag 847\t\t\tlist_[i] = isForBank\\r\\n      ...\n      JUMPDEST \t\t\tlist_[i] = isForBank\\r\\n      ...\n      DUP1 \t\t\tlist_[i] = isForBank\\r\\n      ...\n      PUSH 1F\t\t\tlist_[i] = isForBank\\r\\n      ...\n      ADD \t\t\tlist_[i] = isForBank\\r\\n      ...\n      PUSH 20\t\t\tlist_[i] = isForBank\\r\\n      ...\n      DUP1 \t\t\tlist_[i] = isForBank\\r\\n      ...\n      SWAP2 \t\t\tlist_[i] = isForBank\\r\\n      ...\n      DIV \t\t\tlist_[i] = isForBank\\r\\n      ...\n      MUL \t\t\tlist_[i] = isForBank\\r\\n      ...\n      PUSH 20\t\t\tlist_[i] = isForBank\\r\\n      ...\n      ADD \t\t\tlist_[i] = isForBank\\r\\n      ...\n      PUSH 40\t\t\tlist_[i] = isForBank\\r\\n      ...\n      MLOAD \t\t\tlist_[i] = isForBank\\r\\n      ...\n      SWAP1 \t\t\tlist_[i] = isForBank\\r\\n      ...\n      DUP2 \t\t\tlist_[i] = isForBank\\r\\n      ...\n      ADD \t\t\tlist_[i] = isForBank\\r\\n      ...\n      PUSH 40\t\t\tlist_[i] = isForBank\\r\\n      ...\n      MSTORE \t\t\tlist_[i] = isForBank\\r\\n      ...\n      DUP1 \t\t\tlist_[i] = isForBank\\r\\n      ...\n      SWAP3 \t\t\tlist_[i] = isForBank\\r\\n      ...\n      SWAP2 \t\t\tlist_[i] = isForBank\\r\\n      ...\n      SWAP1 \t\t\tlist_[i] = isForBank\\r\\n      ...\n      DUP2 \t\t\tlist_[i] = isForBank\\r\\n      ...\n      DUP2 \t\t\tlist_[i] = isForBank\\r\\n      ...\n      MSTORE \t\t\tlist_[i] = isForBank\\r\\n      ...\n      PUSH 20\t\t\tlist_[i] = isForBank\\r\\n      ...\n      ADD \t\t\tlist_[i] = isForBank\\r\\n      ...\n      DUP3 \t\t\tlist_[i] = isForBank\\r\\n      ...\n      DUP1 \t\t\tlist_[i] = isForBank\\r\\n      ...\n      SLOAD \t\t\tlist_[i] = isForBank\\r\\n      ...\n      PUSH [tag] 848\t\t\tlist_[i] = isForBank\\r\\n      ...\n      SWAP1 \t\t\tlist_[i] = isForBank\\r\\n      ...\n      PUSH [tag] 113\t\t\tlist_[i] = isForBank\\r\\n      ...\n      JUMP \t\t\tlist_[i] = isForBank\\r\\n      ...\n    tag 848\t\t\tlist_[i] = isForBank\\r\\n      ...\n      JUMPDEST \t\t\tlist_[i] = isForBank\\r\\n      ...\n      DUP1 \t\t\tlist_[i] = isForBank\\r\\n      ...\n      ISZERO \t\t\tlist_[i] = isForBank\\r\\n      ...\n      PUSH [tag] 849\t\t\tlist_[i] = isForBank\\r\\n      ...\n      JUMPI \t\t\tlist_[i] = isForBank\\r\\n      ...\n      DUP1 \t\t\tlist_[i] = isForBank\\r\\n      ...\n      PUSH 1F\t\t\tlist_[i] = isForBank\\r\\n      ...\n      LT \t\t\tlist_[i] = isForBank\\r\\n      ...\n      PUSH [tag] 850\t\t\tlist_[i] = isForBank\\r\\n      ...\n      JUMPI \t\t\tlist_[i] = isForBank\\r\\n      ...\n      PUSH 100\t\t\tlist_[i] = isForBank\\r\\n      ...\n      DUP1 \t\t\tlist_[i] = isForBank\\r\\n      ...\n      DUP4 \t\t\tlist_[i] = isForBank\\r\\n      ...\n      SLOAD \t\t\tlist_[i] = isForBank\\r\\n      ...\n      DIV \t\t\tlist_[i] = isForBank\\r\\n      ...\n      MUL \t\t\tlist_[i] = isForBank\\r\\n      ...\n      DUP4 \t\t\tlist_[i] = isForBank\\r\\n      ...\n      MSTORE \t\t\tlist_[i] = isForBank\\r\\n      ...\n      SWAP2 \t\t\tlist_[i] = isForBank\\r\\n      ...\n      PUSH 20\t\t\tlist_[i] = isForBank\\r\\n      ...\n      ADD \t\t\tlist_[i] = isForBank\\r\\n      ...\n      SWAP2 \t\t\tlist_[i] = isForBank\\r\\n      ...\n      PUSH [tag] 849\t\t\tlist_[i] = isForBank\\r\\n      ...\n      JUMP \t\t\tlist_[i] = isForBank\\r\\n      ...\n    tag 850\t\t\tlist_[i] = isForBank\\r\\n      ...\n      JUMPDEST \t\t\tlist_[i] = isForBank\\r\\n      ...\n      DUP3 \t\t\tlist_[i] = isForBank\\r\\n      ...\n      ADD \t\t\tlist_[i] = isForBank\\r\\n      ...\n      SWAP2 \t\t\tlist_[i] = isForBank\\r\\n      ...\n      SWAP1 \t\t\tlist_[i] = isForBank\\r\\n      ...\n      PUSH 0\t\t\tlist_[i] = isForBank\\r\\n      ...\n      MSTORE \t\t\tlist_[i] = isForBank\\r\\n      ...\n      PUSH 20\t\t\tlist_[i] = isForBank\\r\\n      ...\n      PUSH 0\t\t\tlist_[i] = isForBank\\r\\n      ...\n      KECCAK256 \t\t\tlist_[i] = isForBank\\r\\n      ...\n      SWAP1 \t\t\tlist_[i] = isForBank\\r\\n      ...\n    tag 851\t\t\tlist_[i] = isForBank\\r\\n      ...\n      JUMPDEST \t\t\tlist_[i] = isForBank\\r\\n      ...\n      DUP2 \t\t\tlist_[i] = isForBank\\r\\n      ...\n      SLOAD \t\t\tlist_[i] = isForBank\\r\\n      ...\n      DUP2 \t\t\tlist_[i] = isForBank\\r\\n      ...\n      MSTORE \t\t\tlist_[i] = isForBank\\r\\n      ...\n      SWAP1 \t\t\tlist_[i] = isForBank\\r\\n      ...\n      PUSH 1\t\t\tlist_[i] = isForBank\\r\\n      ...\n      ADD \t\t\tlist_[i] = isForBank\\r\\n      ...\n      SWAP1 \t\t\tlist_[i] = isForBank\\r\\n      ...\n      PUSH 20\t\t\tlist_[i] = isForBank\\r\\n      ...\n      ADD \t\t\tlist_[i] = isForBank\\r\\n      ...\n      DUP1 \t\t\tlist_[i] = isForBank\\r\\n      ...\n      DUP4 \t\t\tlist_[i] = isForBank\\r\\n      ...\n      GT \t\t\tlist_[i] = isForBank\\r\\n      ...\n      PUSH [tag] 851\t\t\tlist_[i] = isForBank\\r\\n      ...\n      JUMPI \t\t\tlist_[i] = isForBank\\r\\n      ...\n      DUP3 \t\t\tlist_[i] = isForBank\\r\\n      ...\n      SWAP1 \t\t\tlist_[i] = isForBank\\r\\n      ...\n      SUB \t\t\tlist_[i] = isForBank\\r\\n      ...\n      PUSH 1F\t\t\tlist_[i] = isForBank\\r\\n      ...\n      AND \t\t\tlist_[i] = isForBank\\r\\n      ...\n      DUP3 \t\t\tlist_[i] = isForBank\\r\\n      ...\n      ADD \t\t\tlist_[i] = isForBank\\r\\n      ...\n      SWAP2 \t\t\tlist_[i] = isForBank\\r\\n      ...\n    tag 849\t\t\tlist_[i] = isForBank\\r\\n      ...\n      JUMPDEST \t\t\tlist_[i] = isForBank\\r\\n      ...\n      POP \t\t\tlist_[i] = isForBank\\r\\n      ...\n      POP \t\t\tlist_[i] = isForBank\\r\\n      ...\n      POP \t\t\tlist_[i] = isForBank\\r\\n      ...\n      POP \t\t\tlist_[i] = isForBank\\r\\n      ...\n      POP \t\t\tlist_[i] = isForBank\\r\\n      ...\n      DUP2 \t\t\tlist_[i] = isForBank\\r\\n      ...\n      MSTORE \t\t\tlist_[i] = isForBank\\r\\n      ...\n      PUSH 20\t\t\tlist_[i] = isForBank\\r\\n      ...\n      ADD \t\t\tlist_[i] = isForBank\\r\\n      ...\n      PUSH 3\t\t\tlist_[i] = isForBank\\r\\n      ...\n      DUP3 \t\t\tlist_[i] = isForBank\\r\\n      ...\n      ADD \t\t\tlist_[i] = isForBank\\r\\n      ...\n      PUSH 0\t\t\tlist_[i] = isForBank\\r\\n      ...\n      SWAP1 \t\t\tlist_[i] = isForBank\\r\\n      ...\n      SLOAD \t\t\tlist_[i] = isForBank\\r\\n      ...\n      SWAP1 \t\t\tlist_[i] = isForBank\\r\\n      ...\n      PUSH 100\t\t\tlist_[i] = isForBank\\r\\n      ...\n      EXP \t\t\tlist_[i] = isForBank\\r\\n      ...\n      SWAP1 \t\t\tlist_[i] = isForBank\\r\\n      ...\n      DIV \t\t\tlist_[i] = isForBank\\r\\n      ...\n      PUSH FFFFFFFFFFFFFFFFFFFFFFFFFFFFFFFFFFFFFFFF\t\t\tlist_[i] = isForBank\\r\\n      ...\n      AND \t\t\tlist_[i] = isForBank\\r\\n      ...\n      PUSH FFFFFFFFFFFFFFFFFFFFFFFFFFFFFFFFFFFFFFFF\t\t\tlist_[i] = isForBank\\r\\n      ...\n      AND \t\t\tlist_[i] = isForBank\\r\\n      ...\n      PUSH FFFFFFFFFFFFFFFFFFFFFFFFFFFFFFFFFFFFFFFF\t\t\tlist_[i] = isForBank\\r\\n      ...\n      AND \t\t\tlist_[i] = isForBank\\r\\n      ...\n      DUP2 \t\t\tlist_[i] = isForBank\\r\\n      ...\n      MSTORE \t\t\tlist_[i] = isForBank\\r\\n      ...\n      PUSH 20\t\t\tlist_[i] = isForBank\\r\\n      ...\n      ADD \t\t\tlist_[i] = isForBank\\r\\n      ...\n      PUSH 4\t\t\tlist_[i] = isForBank\\r\\n      ...\n      DUP3 \t\t\tlist_[i] = isForBank\\r\\n      ...\n      ADD \t\t\tlist_[i] = isForBank\\r\\n      ...\n      DUP1 \t\t\tlist_[i] = isForBank\\r\\n      ...\n      SLOAD \t\t\tlist_[i] = isForBank\\r\\n      ...\n      PUSH [tag] 852\t\t\tlist_[i] = isForBank\\r\\n      ...\n      SWAP1 \t\t\tlist_[i] = isForBank\\r\\n      ...\n      PUSH [tag] 113\t\t\tlist_[i] = isForBank\\r\\n      ...\n      JUMP \t\t\tlist_[i] = isForBank\\r\\n      ...\n    tag 852\t\t\tlist_[i] = isForBank\\r\\n      ...\n      JUMPDEST \t\t\tlist_[i] = isForBank\\r\\n      ...\n      DUP1 \t\t\tlist_[i] = isForBank\\r\\n      ...\n      PUSH 1F\t\t\tlist_[i] = isForBank\\r\\n      ...\n      ADD \t\t\tlist_[i] = isForBank\\r\\n      ...\n      PUSH 20\t\t\tlist_[i] = isForBank\\r\\n      ...\n      DUP1 \t\t\tlist_[i] = isForBank\\r\\n      ...\n      SWAP2 \t\t\tlist_[i] = isForBank\\r\\n      ...\n      DIV \t\t\tlist_[i] = isForBank\\r\\n      ...\n      MUL \t\t\tlist_[i] = isForBank\\r\\n      ...\n      PUSH 20\t\t\tlist_[i] = isForBank\\r\\n      ...\n      ADD \t\t\tlist_[i] = isForBank\\r\\n      ...\n      PUSH 40\t\t\tlist_[i] = isForBank\\r\\n      ...\n      MLOAD \t\t\tlist_[i] = isForBank\\r\\n      ...\n      SWAP1 \t\t\tlist_[i] = isForBank\\r\\n      ...\n      DUP2 \t\t\tlist_[i] = isForBank\\r\\n      ...\n      ADD \t\t\tlist_[i] = isForBank\\r\\n      ...\n      PUSH 40\t\t\tlist_[i] = isForBank\\r\\n      ...\n      MSTORE \t\t\tlist_[i] = isForBank\\r\\n      ...\n      DUP1 \t\t\tlist_[i] = isForBank\\r\\n      ...\n      SWAP3 \t\t\tlist_[i] = isForBank\\r\\n      ...\n      SWAP2 \t\t\tlist_[i] = isForBank\\r\\n      ...\n      SWAP1 \t\t\tlist_[i] = isForBank\\r\\n      ...\n      DUP2 \t\t\tlist_[i] = isForBank\\r\\n      ...\n      DUP2 \t\t\tlist_[i] = isForBank\\r\\n      ...\n      MSTORE \t\t\tlist_[i] = isForBank\\r\\n      ...\n      PUSH 20\t\t\tlist_[i] = isForBank\\r\\n      ...\n      ADD \t\t\tlist_[i] = isForBank\\r\\n      ...\n      DUP3 \t\t\tlist_[i] = isForBank\\r\\n      ...\n      DUP1 \t\t\tlist_[i] = isForBank\\r\\n      ...\n      SLOAD \t\t\tlist_[i] = isForBank\\r\\n      ...\n      PUSH [tag] 853\t\t\tlist_[i] = isForBank\\r\\n      ...\n      SWAP1 \t\t\tlist_[i] = isForBank\\r\\n      ...\n      PUSH [tag] 113\t\t\tlist_[i] = isForBank\\r\\n      ...\n      JUMP \t\t\tlist_[i] = isForBank\\r\\n      ...\n    tag 853\t\t\tlist_[i] = isForBank\\r\\n      ...\n      JUMPDEST \t\t\tlist_[i] = isForBank\\r\\n      ...\n      DUP1 \t\t\tlist_[i] = isForBank\\r\\n      ...\n      ISZERO \t\t\tlist_[i] = isForBank\\r\\n      ...\n      PUSH [tag] 854\t\t\tlist_[i] = isForBank\\r\\n      ...\n      JUMPI \t\t\tlist_[i] = isForBank\\r\\n      ...\n      DUP1 \t\t\tlist_[i] = isForBank\\r\\n      ...\n      PUSH 1F\t\t\tlist_[i] = isForBank\\r\\n      ...\n      LT \t\t\tlist_[i] = isForBank\\r\\n      ...\n      PUSH [tag] 855\t\t\tlist_[i] = isForBank\\r\\n      ...\n      JUMPI \t\t\tlist_[i] = isForBank\\r\\n      ...\n      PUSH 100\t\t\tlist_[i] = isForBank\\r\\n      ...\n      DUP1 \t\t\tlist_[i] = isForBank\\r\\n      ...\n      DUP4 \t\t\tlist_[i] = isForBank\\r\\n      ...\n      SLOAD \t\t\tlist_[i] = isForBank\\r\\n      ...\n      DIV \t\t\tlist_[i] = isForBank\\r\\n      ...\n      MUL \t\t\tlist_[i] = isForBank\\r\\n      ...\n      DUP4 \t\t\tlist_[i] = isForBank\\r\\n      ...\n      MSTORE \t\t\tlist_[i] = isForBank\\r\\n      ...\n      SWAP2 \t\t\tlist_[i] = isForBank\\r\\n      ...\n      PUSH 20\t\t\tlist_[i] = isForBank\\r\\n      ...\n      ADD \t\t\tlist_[i] = isForBank\\r\\n      ...\n      SWAP2 \t\t\tlist_[i] = isForBank\\r\\n      ...\n      PUSH [tag] 854\t\t\tlist_[i] = isForBank\\r\\n      ...\n      JUMP \t\t\tlist_[i] = isForBank\\r\\n      ...\n    tag 855\t\t\tlist_[i] = isForBank\\r\\n      ...\n      JUMPDEST \t\t\tlist_[i] = isForBank\\r\\n      ...\n      DUP3 \t\t\tlist_[i] = isForBank\\r\\n      ...\n      ADD \t\t\tlist_[i] = isForBank\\r\\n      ...\n      SWAP2 \t\t\tlist_[i] = isForBank\\r\\n      ...\n      SWAP1 \t\t\tlist_[i] = isForBank\\r\\n      ...\n      PUSH 0\t\t\tlist_[i] = isForBank\\r\\n      ...\n      MSTORE \t\t\tlist_[i] = isForBank\\r\\n      ...\n      PUSH 20\t\t\tlist_[i] = isForBank\\r\\n      ...\n      PUSH 0\t\t\tlist_[i] = isForBank\\r\\n      ...\n      KECCAK256 \t\t\tlist_[i] = isForBank\\r\\n      ...\n      SWAP1 \t\t\tlist_[i] = isForBank\\r\\n      ...\n    tag 856\t\t\tlist_[i] = isForBank\\r\\n      ...\n      JUMPDEST \t\t\tlist_[i] = isForBank\\r\\n      ...\n      DUP2 \t\t\tlist_[i] = isForBank\\r\\n      ...\n      SLOAD \t\t\tlist_[i] = isForBank\\r\\n      ...\n      DUP2 \t\t\tlist_[i] = isForBank\\r\\n      ...\n      MSTORE \t\t\tlist_[i] = isForBank\\r\\n      ...\n      SWAP1 \t\t\tlist_[i] = isForBank\\r\\n      ...\n      PUSH 1\t\t\tlist_[i] = isForBank\\r\\n      ...\n      ADD \t\t\tlist_[i] = isForBank\\r\\n      ...\n      SWAP1 \t\t\tlist_[i] = isForBank\\r\\n      ...\n      PUSH 20\t\t\tlist_[i] = isForBank\\r\\n      ...\n      ADD \t\t\tlist_[i] = isForBank\\r\\n      ...\n      DUP1 \t\t\tlist_[i] = isForBank\\r\\n      ...\n      DUP4 \t\t\tlist_[i] = isForBank\\r\\n      ...\n      GT \t\t\tlist_[i] = isForBank\\r\\n      ...\n      PUSH [tag] 856\t\t\tlist_[i] = isForBank\\r\\n      ...\n      JUMPI \t\t\tlist_[i] = isForBank\\r\\n      ...\n      DUP3 \t\t\tlist_[i] = isForBank\\r\\n      ...\n      SWAP1 \t\t\tlist_[i] = isForBank\\r\\n      ...\n      SUB \t\t\tlist_[i] = isForBank\\r\\n      ...\n      PUSH 1F\t\t\tlist_[i] = isForBank\\r\\n      ...\n      AND \t\t\tlist_[i] = isForBank\\r\\n      ...\n      DUP3 \t\t\tlist_[i] = isForBank\\r\\n      ...\n      ADD \t\t\tlist_[i] = isForBank\\r\\n      ...\n      SWAP2 \t\t\tlist_[i] = isForBank\\r\\n      ...\n    tag 854\t\t\tlist_[i] = isForBank\\r\\n      ...\n      JUMPDEST \t\t\tlist_[i] = isForBank\\r\\n      ...\n      POP \t\t\tlist_[i] = isForBank\\r\\n      ...\n      POP \t\t\tlist_[i] = isForBank\\r\\n      ...\n      POP \t\t\tlist_[i] = isForBank\\r\\n      ...\n      POP \t\t\tlist_[i] = isForBank\\r\\n      ...\n      POP \t\t\tlist_[i] = isForBank\\r\\n      ...\n      DUP2 \t\t\tlist_[i] = isForBank\\r\\n      ...\n      MSTORE \t\t\tlist_[i] = isForBank\\r\\n      ...\n      PUSH 20\t\t\tlist_[i] = isForBank\\r\\n      ...\n      ADD \t\t\tlist_[i] = isForBank\\r\\n      ...\n      PUSH 5\t\t\tlist_[i] = isForBank\\r\\n      ...\n      DUP3 \t\t\tlist_[i] = isForBank\\r\\n      ...\n      ADD \t\t\tlist_[i] = isForBank\\r\\n      ...\n      DUP1 \t\t\tlist_[i] = isForBank\\r\\n      ...\n      SLOAD \t\t\tlist_[i] = isForBank\\r\\n      ...\n      PUSH [tag] 857\t\t\tlist_[i] = isForBank\\r\\n      ...\n      SWAP1 \t\t\tlist_[i] = isForBank\\r\\n      ...\n      PUSH [tag] 113\t\t\tlist_[i] = isForBank\\r\\n      ...\n      JUMP \t\t\tlist_[i] = isForBank\\r\\n      ...\n    tag 857\t\t\tlist_[i] = isForBank\\r\\n      ...\n      JUMPDEST \t\t\tlist_[i] = isForBank\\r\\n      ...\n      DUP1 \t\t\tlist_[i] = isForBank\\r\\n      ...\n      PUSH 1F\t\t\tlist_[i] = isForBank\\r\\n      ...\n      ADD \t\t\tlist_[i] = isForBank\\r\\n      ...\n      PUSH 20\t\t\tlist_[i] = isForBank\\r\\n      ...\n      DUP1 \t\t\tlist_[i] = isForBank\\r\\n      ...\n      SWAP2 \t\t\tlist_[i] = isForBank\\r\\n      ...\n      DIV \t\t\tlist_[i] = isForBank\\r\\n      ...\n      MUL \t\t\tlist_[i] = isForBank\\r\\n      ...\n      PUSH 20\t\t\tlist_[i] = isForBank\\r\\n      ...\n      ADD \t\t\tlist_[i] = isForBank\\r\\n      ...\n      PUSH 40\t\t\tlist_[i] = isForBank\\r\\n      ...\n      MLOAD \t\t\tlist_[i] = isForBank\\r\\n      ...\n      SWAP1 \t\t\tlist_[i] = isForBank\\r\\n      ...\n      DUP2 \t\t\tlist_[i] = isForBank\\r\\n      ...\n      ADD \t\t\tlist_[i] = isForBank\\r\\n      ...\n      PUSH 40\t\t\tlist_[i] = isForBank\\r\\n      ...\n      MSTORE \t\t\tlist_[i] = isForBank\\r\\n      ...\n      DUP1 \t\t\tlist_[i] = isForBank\\r\\n      ...\n      SWAP3 \t\t\tlist_[i] = isForBank\\r\\n      ...\n      SWAP2 \t\t\tlist_[i] = isForBank\\r\\n      ...\n      SWAP1 \t\t\tlist_[i] = isForBank\\r\\n      ...\n      DUP2 \t\t\tlist_[i] = isForBank\\r\\n      ...\n      DUP2 \t\t\tlist_[i] = isForBank\\r\\n      ...\n      MSTORE \t\t\tlist_[i] = isForBank\\r\\n      ...\n      PUSH 20\t\t\tlist_[i] = isForBank\\r\\n      ...\n      ADD \t\t\tlist_[i] = isForBank\\r\\n      ...\n      DUP3 \t\t\tlist_[i] = isForBank\\r\\n      ...\n      DUP1 \t\t\tlist_[i] = isForBank\\r\\n      ...\n      SLOAD \t\t\tlist_[i] = isForBank\\r\\n      ...\n      PUSH [tag] 858\t\t\tlist_[i] = isForBank\\r\\n      ...\n      SWAP1 \t\t\tlist_[i] = isForBank\\r\\n      ...\n      PUSH [tag] 113\t\t\tlist_[i] = isForBank\\r\\n      ...\n      JUMP \t\t\tlist_[i] = isForBank\\r\\n      ...\n    tag 858\t\t\tlist_[i] = isForBank\\r\\n      ...\n      JUMPDEST \t\t\tlist_[i] = isForBank\\r\\n      ...\n      DUP1 \t\t\tlist_[i] = isForBank\\r\\n      ...\n      ISZERO \t\t\tlist_[i] = isForBank\\r\\n      ...\n      PUSH [tag] 859\t\t\tlist_[i] = isForBank\\r\\n      ...\n      JUMPI \t\t\tlist_[i] = isForBank\\r\\n      ...\n      DUP1 \t\t\tlist_[i] = isForBank\\r\\n      ...\n      PUSH 1F\t\t\tlist_[i] = isForBank\\r\\n      ...\n      LT \t\t\tlist_[i] = isForBank\\r\\n      ...\n      PUSH [tag] 860\t\t\tlist_[i] = isForBank\\r\\n      ...\n      JUMPI \t\t\tlist_[i] = isForBank\\r\\n      ...\n      PUSH 100\t\t\tlist_[i] = isForBank\\r\\n      ...\n      DUP1 \t\t\tlist_[i] = isForBank\\r\\n      ...\n      DUP4 \t\t\tlist_[i] = isForBank\\r\\n      ...\n      SLOAD \t\t\tlist_[i] = isForBank\\r\\n      ...\n      DIV \t\t\tlist_[i] = isForBank\\r\\n      ...\n      MUL \t\t\tlist_[i] = isForBank\\r\\n      ...\n      DUP4 \t\t\tlist_[i] = isForBank\\r\\n      ...\n      MSTORE \t\t\tlist_[i] = isForBank\\r\\n      ...\n      SWAP2 \t\t\tlist_[i] = isForBank\\r\\n      ...\n      PUSH 20\t\t\tlist_[i] = isForBank\\r\\n      ...\n      ADD \t\t\tlist_[i] = isForBank\\r\\n      ...\n      SWAP2 \t\t\tlist_[i] = isForBank\\r\\n      ...\n      PUSH [tag] 859\t\t\tlist_[i] = isForBank\\r\\n      ...\n      JUMP \t\t\tlist_[i] = isForBank\\r\\n      ...\n    tag 860\t\t\tlist_[i] = isForBank\\r\\n      ...\n      JUMPDEST \t\t\tlist_[i] = isForBank\\r\\n      ...\n      DUP3 \t\t\tlist_[i] = isForBank\\r\\n      ...\n      ADD \t\t\tlist_[i] = isForBank\\r\\n      ...\n      SWAP2 \t\t\tlist_[i] = isForBank\\r\\n      ...\n      SWAP1 \t\t\tlist_[i] = isForBank\\r\\n      ...\n      PUSH 0\t\t\tlist_[i] = isForBank\\r\\n      ...\n      MSTORE \t\t\tlist_[i] = isForBank\\r\\n      ...\n      PUSH 20\t\t\tlist_[i] = isForBank\\r\\n      ...\n      PUSH 0\t\t\tlist_[i] = isForBank\\r\\n      ...\n      KECCAK256 \t\t\tlist_[i] = isForBank\\r\\n      ...\n      SWAP1 \t\t\tlist_[i] = isForBank\\r\\n      ...\n    tag 861\t\t\tlist_[i] = isForBank\\r\\n      ...\n      JUMPDEST \t\t\tlist_[i] = isForBank\\r\\n      ...\n      DUP2 \t\t\tlist_[i] = isForBank\\r\\n      ...\n      SLOAD \t\t\tlist_[i] = isForBank\\r\\n      ...\n      DUP2 \t\t\tlist_[i] = isForBank\\r\\n      ...\n      MSTORE \t\t\tlist_[i] = isForBank\\r\\n      ...\n      SWAP1 \t\t\tlist_[i] = isForBank\\r\\n      ...\n      PUSH 1\t\t\tlist_[i] = isForBank\\r\\n      ...\n      ADD \t\t\tlist_[i] = isForBank\\r\\n      ...\n      SWAP1 \t\t\tlist_[i] = isForBank\\r\\n      ...\n      PUSH 20\t\t\tlist_[i] = isForBank\\r\\n      ...\n      ADD \t\t\tlist_[i] = isForBank\\r\\n      ...\n      DUP1 \t\t\tlist_[i] = isForBank\\r\\n      ...\n      DUP4 \t\t\tlist_[i] = isForBank\\r\\n      ...\n      GT \t\t\tlist_[i] = isForBank\\r\\n      ...\n      PUSH [tag] 861\t\t\tlist_[i] = isForBank\\r\\n      ...\n      JUMPI \t\t\tlist_[i] = isForBank\\r\\n      ...\n      DUP3 \t\t\tlist_[i] = isForBank\\r\\n      ...\n      SWAP1 \t\t\tlist_[i] = isForBank\\r\\n      ...\n      SUB \t\t\tlist_[i] = isForBank\\r\\n      ...\n      PUSH 1F\t\t\tlist_[i] = isForBank\\r\\n      ...\n      AND \t\t\tlist_[i] = isForBank\\r\\n      ...\n      DUP3 \t\t\tlist_[i] = isForBank\\r\\n      ...\n      ADD \t\t\tlist_[i] = isForBank\\r\\n      ...\n      SWAP2 \t\t\tlist_[i] = isForBank\\r\\n      ...\n    tag 859\t\t\tlist_[i] = isForBank\\r\\n      ...\n      JUMPDEST \t\t\tlist_[i] = isForBank\\r\\n      ...\n      POP \t\t\tlist_[i] = isForBank\\r\\n      ...\n      POP \t\t\tlist_[i] = isForBank\\r\\n      ...\n      POP \t\t\tlist_[i] = isForBank\\r\\n      ...\n      POP \t\t\tlist_[i] = isForBank\\r\\n      ...\n      POP \t\t\tlist_[i] = isForBank\\r\\n      ...\n      DUP2 \t\t\tlist_[i] = isForBank\\r\\n      ...\n      MSTORE \t\t\tlist_[i] = isForBank\\r\\n      ...\n      PUSH 20\t\t\tlist_[i] = isForBank\\r\\n      ...\n      ADD \t\t\tlist_[i] = isForBank\\r\\n      ...\n      PUSH 6\t\t\tlist_[i] = isForBank\\r\\n      ...\n      DUP3 \t\t\tlist_[i] = isForBank\\r\\n      ...\n      ADD \t\t\tlist_[i] = isForBank\\r\\n      ...\n      SLOAD \t\t\tlist_[i] = isForBank\\r\\n      ...\n      DUP2 \t\t\tlist_[i] = isForBank\\r\\n      ...\n      MSTORE \t\t\tlist_[i] = isForBank\\r\\n      ...\n      PUSH 20\t\t\tlist_[i] = isForBank\\r\\n      ...\n      ADD \t\t\tlist_[i] = isForBank\\r\\n      ...\n      PUSH 7\t\t\tlist_[i] = isForBank\\r\\n      ...\n      DUP3 \t\t\tlist_[i] = isForBank\\r\\n      ...\n      ADD \t\t\tlist_[i] = isForBank\\r\\n      ...\n      PUSH 0\t\t\tlist_[i] = isForBank\\r\\n      ...\n      SWAP1 \t\t\tlist_[i] = isForBank\\r\\n      ...\n      SLOAD \t\t\tlist_[i] = isForBank\\r\\n      ...\n      SWAP1 \t\t\tlist_[i] = isForBank\\r\\n      ...\n      PUSH 100\t\t\tlist_[i] = isForBank\\r\\n      ...\n      EXP \t\t\tlist_[i] = isForBank\\r\\n      ...\n      SWAP1 \t\t\tlist_[i] = isForBank\\r\\n      ...\n      DIV \t\t\tlist_[i] = isForBank\\r\\n      ...\n      PUSH FF\t\t\tlist_[i] = isForBank\\r\\n      ...\n      AND \t\t\tlist_[i] = isForBank\\r\\n      ...\n      PUSH 2\t\t\tlist_[i] = isForBank\\r\\n      ...\n      DUP2 \t\t\tlist_[i] = isForBank\\r\\n      ...\n      GT \t\t\tlist_[i] = isForBank\\r\\n      ...\n      ISZERO \t\t\tlist_[i] = isForBank\\r\\n      ...\n      PUSH [tag] 862\t\t\tlist_[i] = isForBank\\r\\n      ...\n      JUMPI \t\t\tlist_[i] = isForBank\\r\\n      ...\n      PUSH [tag] 863\t\t\tlist_[i] = isForBank\\r\\n      ...\n      PUSH [tag] 135\t\t\tlist_[i] = isForBank\\r\\n      ...\n      JUMP \t\t\tlist_[i] = isForBank\\r\\n      ...\n    tag 863\t\t\tlist_[i] = isForBank\\r\\n      ...\n      JUMPDEST \t\t\tlist_[i] = isForBank\\r\\n      ...\n    tag 862\t\t\tlist_[i] = isForBank\\r\\n      ...\n      JUMPDEST \t\t\tlist_[i] = isForBank\\r\\n      ...\n      PUSH 2\t\t\tlist_[i] = isForBank\\r\\n      ...\n      DUP2 \t\t\tlist_[i] = isForBank\\r\\n      ...\n      GT \t\t\tlist_[i] = isForBank\\r\\n      ...\n      ISZERO \t\t\tlist_[i] = isForBank\\r\\n      ...\n      PUSH [tag] 864\t\t\tlist_[i] = isForBank\\r\\n      ...\n      JUMPI \t\t\tlist_[i] = isForBank\\r\\n      ...\n      PUSH [tag] 865\t\t\tlist_[i] = isForBank\\r\\n      ...\n      PUSH [tag] 135\t\t\tlist_[i] = isForBank\\r\\n      ...\n      JUMP \t\t\tlist_[i] = isForBank\\r\\n      ...\n    tag 865\t\t\tlist_[i] = isForBank\\r\\n      ...\n      JUMPDEST \t\t\tlist_[i] = isForBank\\r\\n      ...\n    tag 864\t\t\tlist_[i] = isForBank\\r\\n      ...\n      JUMPDEST \t\t\tlist_[i] = isForBank\\r\\n      ...\n      DUP2 \t\t\tlist_[i] = isForBank\\r\\n      ...\n      MSTORE \t\t\tlist_[i] = isForBank\\r\\n      ...\n      PUSH 20\t\t\tlist_[i] = isForBank\\r\\n      ...\n      ADD \t\t\tlist_[i] = isForBank\\r\\n      ...\n      PUSH 7\t\t\tlist_[i] = isForBank\\r\\n      ...\n      DUP3 \t\t\tlist_[i] = isForBank\\r\\n      ...\n      ADD \t\t\tlist_[i] = isForBank\\r\\n      ...\n      PUSH 1\t\t\tlist_[i] = isForBank\\r\\n      ...\n      SWAP1 \t\t\tlist_[i] = isForBank\\r\\n      ...\n      SLOAD \t\t\tlist_[i] = isForBank\\r\\n      ...\n      SWAP1 \t\t\tlist_[i] = isForBank\\r\\n      ...\n      PUSH 100\t\t\tlist_[i] = isForBank\\r\\n      ...\n      EXP \t\t\tlist_[i] = isForBank\\r\\n      ...\n      SWAP1 \t\t\tlist_[i] = isForBank\\r\\n      ...\n      DIV \t\t\tlist_[i] = isForBank\\r\\n      ...\n      PUSH FF\t\t\tlist_[i] = isForBank\\r\\n      ...\n      AND \t\t\tlist_[i] = isForBank\\r\\n      ...\n      PUSH 2\t\t\tlist_[i] = isForBank\\r\\n      ...\n      DUP2 \t\t\tlist_[i] = isForBank\\r\\n      ...\n      GT \t\t\tlist_[i] = isForBank\\r\\n      ...\n      ISZERO \t\t\tlist_[i] = isForBank\\r\\n      ...\n      PUSH [tag] 866\t\t\tlist_[i] = isForBank\\r\\n      ...\n      JUMPI \t\t\tlist_[i] = isForBank\\r\\n      ...\n      PUSH [tag] 867\t\t\tlist_[i] = isForBank\\r\\n      ...\n      PUSH [tag] 135\t\t\tlist_[i] = isForBank\\r\\n      ...\n      JUMP \t\t\tlist_[i] = isForBank\\r\\n      ...\n    tag 867\t\t\tlist_[i] = isForBank\\r\\n      ...\n      JUMPDEST \t\t\tlist_[i] = isForBank\\r\\n      ...\n    tag 866\t\t\tlist_[i] = isForBank\\r\\n      ...\n      JUMPDEST \t\t\tlist_[i] = isForBank\\r\\n      ...\n      PUSH 2\t\t\tlist_[i] = isForBank\\r\\n      ...\n      DUP2 \t\t\tlist_[i] = isForBank\\r\\n      ...\n      GT \t\t\tlist_[i] = isForBank\\r\\n      ...\n      ISZERO \t\t\tlist_[i] = isForBank\\r\\n      ...\n      PUSH [tag] 868\t\t\tlist_[i] = isForBank\\r\\n      ...\n      JUMPI \t\t\tlist_[i] = isForBank\\r\\n      ...\n      PUSH [tag] 869\t\t\tlist_[i] = isForBank\\r\\n      ...\n      PUSH [tag] 135\t\t\tlist_[i] = isForBank\\r\\n      ...\n      JUMP \t\t\tlist_[i] = isForBank\\r\\n      ...\n    tag 869\t\t\tlist_[i] = isForBank\\r\\n      ...\n      JUMPDEST \t\t\tlist_[i] = isForBank\\r\\n      ...\n    tag 868\t\t\tlist_[i] = isForBank\\r\\n      ...\n      JUMPDEST \t\t\tlist_[i] = isForBank\\r\\n      ...\n      DUP2 \t\t\tlist_[i] = isForBank\\r\\n      ...\n      MSTORE \t\t\tlist_[i] = isForBank\\r\\n      ...\n      PUSH 20\t\t\tlist_[i] = isForBank\\r\\n      ...\n      ADD \t\t\tlist_[i] = isForBank\\r\\n      ...\n      PUSH 8\t\t\tlist_[i] = isForBank\\r\\n      ...\n      DUP3 \t\t\tlist_[i] = isForBank\\r\\n      ...\n      ADD \t\t\tlist_[i] = isForBank\\r\\n      ...\n      DUP1 \t\t\tlist_[i] = isForBank\\r\\n      ...\n      SLOAD \t\t\tlist_[i] = isForBank\\r\\n      ...\n      PUSH [tag] 870\t\t\tlist_[i] = isForBank\\r\\n      ...\n      SWAP1 \t\t\tlist_[i] = isForBank\\r\\n      ...\n      PUSH [tag] 113\t\t\tlist_[i] = isForBank\\r\\n      ...\n      JUMP \t\t\tlist_[i] = isForBank\\r\\n      ...\n    tag 870\t\t\tlist_[i] = isForBank\\r\\n      ...\n      JUMPDEST \t\t\tlist_[i] = isForBank\\r\\n      ...\n      DUP1 \t\t\tlist_[i] = isForBank\\r\\n      ...\n      PUSH 1F\t\t\tlist_[i] = isForBank\\r\\n      ...\n      ADD \t\t\tlist_[i] = isForBank\\r\\n      ...\n      PUSH 20\t\t\tlist_[i] = isForBank\\r\\n      ...\n      DUP1 \t\t\tlist_[i] = isForBank\\r\\n      ...\n      SWAP2 \t\t\tlist_[i] = isForBank\\r\\n      ...\n      DIV \t\t\tlist_[i] = isForBank\\r\\n      ...\n      MUL \t\t\tlist_[i] = isForBank\\r\\n      ...\n      PUSH 20\t\t\tlist_[i] = isForBank\\r\\n      ...\n      ADD \t\t\tlist_[i] = isForBank\\r\\n      ...\n      PUSH 40\t\t\tlist_[i] = isForBank\\r\\n      ...\n      MLOAD \t\t\tlist_[i] = isForBank\\r\\n      ...\n      SWAP1 \t\t\tlist_[i] = isForBank\\r\\n      ...\n      DUP2 \t\t\tlist_[i] = isForBank\\r\\n      ...\n      ADD \t\t\tlist_[i] = isForBank\\r\\n      ...\n      PUSH 40\t\t\tlist_[i] = isForBank\\r\\n      ...\n      MSTORE \t\t\tlist_[i] = isForBank\\r\\n      ...\n      DUP1 \t\t\tlist_[i] = isForBank\\r\\n      ...\n      SWAP3 \t\t\tlist_[i] = isForBank\\r\\n      ...\n      SWAP2 \t\t\tlist_[i] = isForBank\\r\\n      ...\n      SWAP1 \t\t\tlist_[i] = isForBank\\r\\n      ...\n      DUP2 \t\t\tlist_[i] = isForBank\\r\\n      ...\n      DUP2 \t\t\tlist_[i] = isForBank\\r\\n      ...\n      MSTORE \t\t\tlist_[i] = isForBank\\r\\n      ...\n      PUSH 20\t\t\tlist_[i] = isForBank\\r\\n      ...\n      ADD \t\t\tlist_[i] = isForBank\\r\\n      ...\n      DUP3 \t\t\tlist_[i] = isForBank\\r\\n      ...\n      DUP1 \t\t\tlist_[i] = isForBank\\r\\n      ...\n      SLOAD \t\t\tlist_[i] = isForBank\\r\\n      ...\n      PUSH [tag] 871\t\t\tlist_[i] = isForBank\\r\\n      ...\n      SWAP1 \t\t\tlist_[i] = isForBank\\r\\n      ...\n      PUSH [tag] 113\t\t\tlist_[i] = isForBank\\r\\n      ...\n      JUMP \t\t\tlist_[i] = isForBank\\r\\n      ...\n    tag 871\t\t\tlist_[i] = isForBank\\r\\n      ...\n      JUMPDEST \t\t\tlist_[i] = isForBank\\r\\n      ...\n      DUP1 \t\t\tlist_[i] = isForBank\\r\\n      ...\n      ISZERO \t\t\tlist_[i] = isForBank\\r\\n      ...\n      PUSH [tag] 872\t\t\tlist_[i] = isForBank\\r\\n      ...\n      JUMPI \t\t\tlist_[i] = isForBank\\r\\n      ...\n      DUP1 \t\t\tlist_[i] = isForBank\\r\\n      ...\n      PUSH 1F\t\t\tlist_[i] = isForBank\\r\\n      ...\n      LT \t\t\tlist_[i] = isForBank\\r\\n      ...\n      PUSH [tag] 873\t\t\tlist_[i] = isForBank\\r\\n      ...\n      JUMPI \t\t\tlist_[i] = isForBank\\r\\n      ...\n      PUSH 100\t\t\tlist_[i] = isForBank\\r\\n      ...\n      DUP1 \t\t\tlist_[i] = isForBank\\r\\n      ...\n      DUP4 \t\t\tlist_[i] = isForBank\\r\\n      ...\n      SLOAD \t\t\tlist_[i] = isForBank\\r\\n      ...\n      DIV \t\t\tlist_[i] = isForBank\\r\\n      ...\n      MUL \t\t\tlist_[i] = isForBank\\r\\n      ...\n      DUP4 \t\t\tlist_[i] = isForBank\\r\\n      ...\n      MSTORE \t\t\tlist_[i] = isForBank\\r\\n      ...\n      SWAP2 \t\t\tlist_[i] = isForBank\\r\\n      ...\n      PUSH 20\t\t\tlist_[i] = isForBank\\r\\n      ...\n      ADD \t\t\tlist_[i] = isForBank\\r\\n      ...\n      SWAP2 \t\t\tlist_[i] = isForBank\\r\\n      ...\n      PUSH [tag] 872\t\t\tlist_[i] = isForBank\\r\\n      ...\n      JUMP \t\t\tlist_[i] = isForBank\\r\\n      ...\n    tag 873\t\t\tlist_[i] = isForBank\\r\\n      ...\n      JUMPDEST \t\t\tlist_[i] = isForBank\\r\\n      ...\n      DUP3 \t\t\tlist_[i] = isForBank\\r\\n      ...\n      ADD \t\t\tlist_[i] = isForBank\\r\\n      ...\n      SWAP2 \t\t\tlist_[i] = isForBank\\r\\n      ...\n      SWAP1 \t\t\tlist_[i] = isForBank\\r\\n      ...\n      PUSH 0\t\t\tlist_[i] = isForBank\\r\\n      ...\n      MSTORE \t\t\tlist_[i] = isForBank\\r\\n      ...\n      PUSH 20\t\t\tlist_[i] = isForBank\\r\\n      ...\n      PUSH 0\t\t\tlist_[i] = isForBank\\r\\n      ...\n      KECCAK256 \t\t\tlist_[i] = isForBank\\r\\n      ...\n      SWAP1 \t\t\tlist_[i] = isForBank\\r\\n      ...\n    tag 874\t\t\tlist_[i] = isForBank\\r\\n      ...\n      JUMPDEST \t\t\tlist_[i] = isForBank\\r\\n      ...\n      DUP2 \t\t\tlist_[i] = isForBank\\r\\n      ...\n      SLOAD \t\t\tlist_[i] = isForBank\\r\\n      ...\n      DUP2 \t\t\tlist_[i] = isForBank\\r\\n      ...\n      MSTORE \t\t\tlist_[i] = isForBank\\r\\n      ...\n      SWAP1 \t\t\tlist_[i] = isForBank\\r\\n      ...\n      PUSH 1\t\t\tlist_[i] = isForBank\\r\\n      ...\n      ADD \t\t\tlist_[i] = isForBank\\r\\n      ...\n      SWAP1 \t\t\tlist_[i] = isForBank\\r\\n      ...\n      PUSH 20\t\t\tlist_[i] = isForBank\\r\\n      ...\n      ADD \t\t\tlist_[i] = isForBank\\r\\n      ...\n      DUP1 \t\t\tlist_[i] = isForBank\\r\\n      ...\n      DUP4 \t\t\tlist_[i] = isForBank\\r\\n      ...\n      GT \t\t\tlist_[i] = isForBank\\r\\n      ...\n      PUSH [tag] 874\t\t\tlist_[i] = isForBank\\r\\n      ...\n      JUMPI \t\t\tlist_[i] = isForBank\\r\\n      ...\n      DUP3 \t\t\tlist_[i] = isForBank\\r\\n      ...\n      SWAP1 \t\t\tlist_[i] = isForBank\\r\\n      ...\n      SUB \t\t\tlist_[i] = isForBank\\r\\n      ...\n      PUSH 1F\t\t\tlist_[i] = isForBank\\r\\n      ...\n      AND \t\t\tlist_[i] = isForBank\\r\\n      ...\n      DUP3 \t\t\tlist_[i] = isForBank\\r\\n      ...\n      ADD \t\t\tlist_[i] = isForBank\\r\\n      ...\n      SWAP2 \t\t\tlist_[i] = isForBank\\r\\n      ...\n    tag 872\t\t\tlist_[i] = isForBank\\r\\n      ...\n      JUMPDEST \t\t\tlist_[i] = isForBank\\r\\n      ...\n      POP \t\t\tlist_[i] = isForBank\\r\\n      ...\n      POP \t\t\tlist_[i] = isForBank\\r\\n      ...\n      POP \t\t\tlist_[i] = isForBank\\r\\n      ...\n      POP \t\t\tlist_[i] = isForBank\\r\\n      ...\n      POP \t\t\tlist_[i] = isForBank\\r\\n      ...\n      DUP2 \t\t\tlist_[i] = isForBank\\r\\n      ...\n      MSTORE \t\t\tlist_[i] = isForBank\\r\\n      ...\n      POP \t\t\tlist_[i] = isForBank\\r\\n      ...\n      POP \t\t\tlist_[i] = isForBank\\r\\n      ...\n      DUP3 \t\t\tlist_\n      DUP3 \t\t\ti\n      DUP2 \t\t\tlist_[i]\n      MLOAD \t\t\tlist_[i]\n      DUP2 \t\t\tlist_[i]\n      LT \t\t\tlist_[i]\n      PUSH [tag] 875\t\t\tlist_[i]\n      JUMPI \t\t\tlist_[i]\n      PUSH [tag] 876\t\t\tlist_[i]\n      PUSH [tag] 234\t\t\tlist_[i]\n      JUMP \t\t\tlist_[i]\n    tag 876\t\t\tlist_[i]\n      JUMPDEST \t\t\tlist_[i]\n    tag 875\t\t\tlist_[i]\n      JUMPDEST \t\t\tlist_[i]\n      PUSH 20\t\t\tlist_[i]\n      MUL \t\t\tlist_[i]\n      PUSH 20\t\t\tlist_[i]\n      ADD \t\t\tlist_[i]\n      ADD \t\t\tlist_[i]\n      DUP2 \t\t\tlist_[i] = isForBank\\r\\n      ...\n      SWAP1 \t\t\tlist_[i] = isForBank\\r\\n      ...\n      MSTORE \t\t\tlist_[i] = isForBank\\r\\n      ...\n      POP \t\t\tlist_[i] = isForBank\\r\\n      ...\n      DUP1 \t\t\ti++\n      DUP1 \t\t\ti++\n      PUSH [tag] 877\t\t\ti++\n      SWAP1 \t\t\ti++\n      PUSH [tag] 273\t\t\ti++\n      JUMP \t\t\ti++\n    tag 877\t\t\ti++\n      JUMPDEST \t\t\ti++\n      SWAP2 \t\t\ti++\n      POP \t\t\ti++\n      POP \t\t\ti++\n      PUSH [tag] 827\t\t\tfor (uint256 i = startIndex_; ...\n      JUMP \t\t\tfor (uint256 i = startIndex_; ...\n    tag 828\t\t\tfor (uint256 i = startIndex_; ...\n      JUMPDEST \t\t\tfor (uint256 i = startIndex_; ...\n      POP \t\t\tfor (uint256 i = startIndex_; ...\n      DUP5 \t\t\tpages\n      DUP2 \t\t\tlist_\n      SWAP7 \t\t\treturn (pages, list_)\n      POP \t\t\treturn (pages, list_)\n      SWAP7 \t\t\treturn (pages, list_)\n      POP \t\t\treturn (pages, list_)\n      POP \t\t\treturn (pages, list_)\n      POP \t\t\treturn (pages, list_)\n      POP \t\t\treturn (pages, list_)\n      POP \t\t\treturn (pages, list_)\n      POP \t\t\treturn (pages, list_)\n      SWAP3 \t\t\tfunction getKYCRequests(uint25...\n      POP \t\t\tfunction getKYCRequests(uint25...\n      SWAP3 \t\t\tfunction getKYCRequests(uint25...\n      SWAP1 \t\t\tfunction getKYCRequests(uint25...\n      POP \t\t\tfunction getKYCRequests(uint25...\n      JUMP \t\t\tfunction getKYCRequests(uint25...\n    tag 607\t\t\t      require(!kycRequestExist...\n      JUMPDEST \t\t\t      require(!kycRequestExist...\n      PUSH 0\t\t\tu\n      PUSH FFFFFFFFFFFFFFFFFFFFFFFFFFFFFFFFFFFFFFFF\t\t\t\\n        kycReque\n      AND \t\t\t\\n        kycReque\n      DUP2 \t\t\t\\n  \n      PUSH FFFFFFFFFFFFFFFFFFFFFFFFFFFFFFFFFFFFFFFF\t\t\t\\n        kycReque\n      AND \t\t\t\\n        kycReque\n      SUB \t\t\t\\n        kycReque\n      PUSH [tag] 879\t\t\tq.\");\\r\\n\\r\\n        kycReques...\n      JUMPI \t\t\tq.\");\\r\\n\\r\\n        kycReques...\n      PUSH 40\t\t\tq.\");\\r\\n\\r\\n        kycReques...\n      MLOAD \t\t\tq.\");\\r\\n\\r\\n        kycReques...\n      PUSH 8C379A000000000000000000000000000000000000000000000000000000000\t\t\tq.\");\\r\\n\\r\\n        kycReques...\n      DUP2 \t\t\tq.\");\\r\\n\\r\\n        kycReques...\n      MSTORE \t\t\tq.\");\\r\\n\\r\\n        kycReques...\n      PUSH 4\t\t\tq.\");\\r\\n\\r\\n        kycReques...\n      ADD \t\t\tq.\");\\r\\n\\r\\n        kycReques...\n      PUSH [tag] 880\t\t\tq.\");\\r\\n\\r\\n        kycReques...\n      SWAP1 \t\t\tq.\");\\r\\n\\r\\n        kycReques...\n      PUSH [tag] 130\t\t\tq.\");\\r\\n\\r\\n        kycReques...\n      JUMP \t\t\tq.\");\\r\\n\\r\\n        kycReques...\n    tag 880\t\t\tq.\");\\r\\n\\r\\n        kycReques...\n      JUMPDEST \t\t\tq.\");\\r\\n\\r\\n        kycReques...\n      PUSH 40\t\t\tq.\");\\r\\n\\r\\n        kycReques...\n      MLOAD \t\t\tq.\");\\r\\n\\r\\n        kycReques...\n      DUP1 \t\t\tq.\");\\r\\n\\r\\n        kycReques...\n      SWAP2 \t\t\tq.\");\\r\\n\\r\\n        kycReques...\n      SUB \t\t\tq.\");\\r\\n\\r\\n        kycReques...\n      SWAP1 \t\t\tq.\");\\r\\n\\r\\n        kycReques...\n      REVERT \t\t\tq.\");\\r\\n\\r\\n        kycReques...\n    tag 879\t\t\tq.\");\\r\\n\\r\\n        kycReques...\n      JUMPDEST \t\t\tq.\");\\r\\n\\r\\n        kycReques...\n      PUSH 3\t\t\t({\\r\\n \n      PUSH 0\t\t\t({\\r\\n      \n      DUP3 \t\t\t   \n      PUSH FFFFFFFFFFFFFFFFFFFFFFFFFFFFFFFFFFFFFFFF\t\t\t({\\r\\n      \n      AND \t\t\t({\\r\\n      \n      PUSH FFFFFFFFFFFFFFFFFFFFFFFFFFFFFFFFFFFFFFFF\t\t\t({\\r\\n      \n      AND \t\t\t({\\r\\n      \n      DUP2 \t\t\t({\\r\\n      \n      MSTORE \t\t\t({\\r\\n      \n      PUSH 20\t\t\t({\\r\\n      \n      ADD \t\t\t({\\r\\n      \n      SWAP1 \t\t\t({\\r\\n      \n      DUP2 \t\t\t({\\r\\n      \n      MSTORE \t\t\t({\\r\\n      \n      PUSH 20\t\t\t({\\r\\n      \n      ADD \t\t\t({\\r\\n      \n      PUSH 0\t\t\t({\\r\\n      \n      KECCAK256 \t\t\t({\\r\\n      \n      PUSH 4\t\t\t({\\r\\n            id_\n      ADD \t\t\t({\\r\\n            id_\n      PUSH 0\t\t\t({\\r\\n            id_\n      DUP2 \t\t\t({\\r\\n            id_: \n      DUP2 \t\t\t({\\r\\n            id_: \n      SWAP1 \t\t\t({\\r\\n            id_: \n      SLOAD \t\t\t({\\r\\n            id_: \n      SWAP1 \t\t\t({\\r\\n            id_: \n      PUSH 100\t\t\t({\\r\\n            id_: \n      EXP \t\t\t({\\r\\n            id_: \n      SWAP1 \t\t\t({\\r\\n            id_: \n      DIV \t\t\t({\\r\\n            id_: \n      PUSH FFFF\t\t\t({\\r\\n            id_: \n      AND \t\t\t({\\r\\n            id_: \n      DUP1 \t\t\t({\\r\\n            id_: \n      SWAP3 \t\t\t({\\r\\n            id_: \n      SWAP2 \t\t\t({\\r\\n            id_: \n      SWAP1 \t\t\t({\\r\\n            id_: \n      PUSH [tag] 881\t\t\t({\\r\\n            id_: \n      SWAP1 \t\t\t({\\r\\n            id_: \n      PUSH [tag] 882\t\t\t({\\r\\n            id_: \n      JUMP \t\t\t({\\r\\n            id_: \n    tag 881\t\t\t({\\r\\n            id_: \n      JUMPDEST \t\t\t({\\r\\n            id_: \n      SWAP2 \t\t\t({\\r\\n            id_: \n      SWAP1 \t\t\t({\\r\\n            id_: \n      PUSH 100\t\t\t({\\r\\n            id_: \n      EXP \t\t\t({\\r\\n            id_: \n      DUP2 \t\t\t({\\r\\n            id_: \n      SLOAD \t\t\t({\\r\\n            id_: \n      DUP2 \t\t\t({\\r\\n            id_: \n      PUSH FFFF\t\t\t({\\r\\n            id_: \n      MUL \t\t\t({\\r\\n            id_: \n      NOT \t\t\t({\\r\\n            id_: \n      AND \t\t\t({\\r\\n            id_: \n      SWAP1 \t\t\t({\\r\\n            id_: \n      DUP4 \t\t\t({\\r\\n            id_: \n      PUSH FFFF\t\t\t({\\r\\n            id_: \n      AND \t\t\t({\\r\\n            id_: \n      MUL \t\t\t({\\r\\n            id_: \n      OR \t\t\t({\\r\\n            id_: \n      SWAP1 \t\t\t({\\r\\n            id_: \n      SSTORE \t\t\t({\\r\\n            id_: \n      POP \t\t\t({\\r\\n            id_: \n      POP \t\t\t({\\r\\n            id_: \n      POP \t\t\t      require(!kycRequestExist...\n      JUMP \t\t\t      require(!kycRequestExist...\n    tag 609\t\t\try bank_) public isAdmin {\\r\\n...\n      JUMPDEST \t\t\try bank_) public isAdmin {\\r\\n...\n      PUSH 0\t\t\tl\n      PUSH FFFFFFFFFFFFFFFFFFFFFFFFFFFFFFFFFFFFFFFF\t\t\tding to common li\n      AND \t\t\tding to common li\n      DUP2 \t\t\tdin\n      PUSH FFFFFFFFFFFFFFFFFFFFFFFFFFFFFFFFFFFFFFFF\t\t\tding to common li\n      AND \t\t\tding to common li\n      SUB \t\t\tding to common li\n      PUSH [tag] 884\t\t\t   // Adding to common list\\r\\...\n      JUMPI \t\t\t   // Adding to common list\\r\\...\n      PUSH 40\t\t\t   // Adding to common list\\r\\...\n      MLOAD \t\t\t   // Adding to common list\\r\\...\n      PUSH 8C379A000000000000000000000000000000000000000000000000000000000\t\t\t   // Adding to common list\\r\\...\n      DUP2 \t\t\t   // Adding to common list\\r\\...\n      MSTORE \t\t\t   // Adding to common list\\r\\...\n      PUSH 4\t\t\t   // Adding to common list\\r\\...\n      ADD \t\t\t   // Adding to common list\\r\\...\n      PUSH [tag] 885\t\t\t   // Adding to common list\\r\\...\n      SWAP1 \t\t\t   // Adding to common list\\r\\...\n      PUSH [tag] 886\t\t\t   // Adding to common list\\r\\...\n      JUMP \t\t\t   // Adding to common list\\r\\...\n    tag 885\t\t\t   // Adding to common list\\r\\...\n      JUMPDEST \t\t\t   // Adding to common list\\r\\...\n      PUSH 40\t\t\t   // Adding to common list\\r\\...\n      MLOAD \t\t\t   // Adding to common list\\r\\...\n      DUP1 \t\t\t   // Adding to common list\\r\\...\n      SWAP2 \t\t\t   // Adding to common list\\r\\...\n      SUB \t\t\t   // Adding to common list\\r\\...\n      SWAP1 \t\t\t   // Adding to common list\\r\\...\n      REVERT \t\t\t   // Adding to common list\\r\\...\n    tag 884\t\t\t   // Adding to common list\\r\\...\n      JUMPDEST \t\t\t   // Adding to common list\\r\\...\n      CALLER \t\t\tank_.name,\n      PUSH 1\t\t\tpes.User(\n      PUSH 0\t\t\tpes.User({\\r\\n  \n      DUP4 \t\t\t\\r\\n \n      PUSH FFFFFFFFFFFFFFFFFFFFFFFFFFFFFFFFFFFFFFFF\t\t\tpes.User({\\r\\n  \n      AND \t\t\tpes.User({\\r\\n  \n      PUSH FFFFFFFFFFFFFFFFFFFFFFFFFFFFFFFFFFFFFFFF\t\t\tpes.User({\\r\\n  \n      AND \t\t\tpes.User({\\r\\n  \n      DUP2 \t\t\tpes.User({\\r\\n  \n      MSTORE \t\t\tpes.User({\\r\\n  \n      PUSH 20\t\t\tpes.User({\\r\\n  \n      ADD \t\t\tpes.User({\\r\\n  \n      SWAP1 \t\t\tpes.User({\\r\\n  \n      DUP2 \t\t\tpes.User({\\r\\n  \n      MSTORE \t\t\tpes.User({\\r\\n  \n      PUSH 20\t\t\tpes.User({\\r\\n  \n      ADD \t\t\tpes.User({\\r\\n  \n      PUSH 0\t\t\tpes.User({\\r\\n  \n      KECCAK256 \t\t\tpes.User({\\r\\n  \n      PUSH 4\t\t\tpes.User({\\r\\n            name\n      ADD \t\t\tpes.User({\\r\\n            name\n      PUSH 0\t\t\tpes.User({\\r\\n            name\n      PUSH 100\t\t\tpes.User({\\r\\n            name...\n      EXP \t\t\tpes.User({\\r\\n            name...\n      DUP2 \t\t\tpes.User({\\r\\n            name...\n      SLOAD \t\t\tpes.User({\\r\\n            name...\n      DUP2 \t\t\tpes.User({\\r\\n            name...\n      PUSH FFFFFFFFFFFFFFFFFFFFFFFFFFFFFFFFFFFFFFFF\t\t\tpes.User({\\r\\n            name...\n      MUL \t\t\tpes.User({\\r\\n            name...\n      NOT \t\t\tpes.User({\\r\\n            name...\n      AND \t\t\tpes.User({\\r\\n            name...\n      SWAP1 \t\t\tpes.User({\\r\\n            name...\n      DUP4 \t\t\tpes.User({\\r\\n            name...\n      PUSH FFFFFFFFFFFFFFFFFFFFFFFFFFFFFFFFFFFFFFFF\t\t\tpes.User({\\r\\n            name...\n      AND \t\t\tpes.User({\\r\\n            name...\n      MUL \t\t\tpes.User({\\r\\n            name...\n      OR \t\t\tpes.User({\\r\\n            name...\n      SWAP1 \t\t\tpes.User({\\r\\n            name...\n      SSTORE \t\t\tpes.User({\\r\\n            name...\n      POP \t\t\tpes.User({\\r\\n            name...\n      POP \t\t\try bank_) public isAdmin {\\r\\n...\n      JUMP \t\t\try bank_) public isAdmin {\\r\\n...\n    tag 715\t\t\t   role: Types.Role.Admin,\\r\\n...\n      JUMPDEST \t\t\t   role: Types.Role.Admin,\\r\\n...\n      PUSH 0\t\t\tist.push(admi\n      DUP1 \t\t\t   modifier isAdmin\n      PUSH 0\t\t\tequire(msg.sender =\n      DUP1 \t\t\tadmin is allowed\"\n      PUSH 0\t\t\t function kycRequ\n      PUSH 19\t\t\tmo\n      DUP7 \t\t\tExists\n      MLOAD \t\t\tExists(string\n      PUSH [tag] 888\t\t\tExists(string memo\n      SWAP2 \t\t\tExists(string memo\n      SWAP1 \t\t\tExists(string memo\n      PUSH [tag] 889\t\t\tExists(string memo\n      JUMP \t\t\tExists(string memo\n    tag 888\t\t\tExists(string memo\n      JUMPDEST \t\t\tExists(string memo\n      SWAP1 \t\t\t function kycRequestExists(str...\n      POP \t\t\t function kycRequestExists(str...\n      PUSH 19\t\t\t  \n      DUP7 \t\t\t inter\n      MLOAD \t\t\t internal\\r\\n  \n      PUSH [tag] 890\t\t\t internal\\r\\n       \n      SWAP2 \t\t\t internal\\r\\n       \n      SWAP1 \t\t\t internal\\r\\n       \n      PUSH [tag] 891\t\t\t internal\\r\\n       \n      JUMP \t\t\t internal\\r\\n       \n    tag 890\t\t\t internal\\r\\n       \n      JUMPDEST \t\t\t internal\\r\\n       \n      SWAP5 \t\t\t\\n        internal\\r\\n       \n      POP \t\t\t\\n        internal\\r\\n       \n      PUSH 0\t\t\tl\n      DUP2 \t\t\treturns (\n      GT \t\t\treturns (bool\n      ISZERO \t\t\t    returns (bool)\\r\\n    {\\r\n      PUSH [tag] 892\t\t\t    returns (bool)\\r\\n    {\\r\n      JUMPI \t\t\t    returns (bool)\\r\\n    {\\r\n      DUP5 \t\t\t\\n    {\\r\n      DUP1 \t\t\t\\n    {\\r\n      PUSH [tag] 893\t\t\t\\n    {\\r\n      SWAP1 \t\t\t\\n    {\\r\n      PUSH [tag] 273\t\t\t\\n    {\\r\n      JUMP \t\t\t\\n    {\\r\n    tag 893\t\t\t\\n    {\\r\n      JUMPDEST \t\t\t\\n    {\\r\n      SWAP6 \t\t\t\\n    {\\r\n      POP \t\t\t\\n    {\\r\n      POP \t\t\t\\n    {\\r\n    tag 892\t\t\t    returns (bool)\\r\\n    {\\r\n      JUMPDEST \t\t\t    returns (bool)\\r\\n    {\\r\n      PUSH 19\t\t\tom\n      SWAP4 \t\t\tire(!Helpers.com\n      POP \t\t\tire(!Helpers.com\n      PUSH 1\t\t\t;\n      DUP8 \t\t\tst Id empt\n      PUSH [tag] 894\t\t\tst Id empty\");\n      SWAP2 \t\t\tst Id empty\");\n      SWAP1 \t\t\tst Id empty\");\n      PUSH [tag] 895\t\t\tst Id empty\");\n      JUMP \t\t\tst Id empty\");\n    tag 894\t\t\tst Id empty\");\n      JUMPDEST \t\t\tst Id empty\");\n      PUSH 19\t\t\t\"R\n      PUSH [tag] 896\t\t\t\"Request Id empty\");\\r\n      SWAP2 \t\t\t\"Request Id empty\");\\r\n      SWAP1 \t\t\t\"Request Id empty\");\\r\n      PUSH [tag] 897\t\t\t\"Request Id empty\");\\r\n      JUMP \t\t\t\"Request Id empty\");\\r\n    tag 896\t\t\t\"Request Id empty\");\\r\n      JUMPDEST \t\t\t\"Request Id empty\");\\r\n      SWAP3 \t\t\t(reqId_, \"\"), \"Request Id empt...\n      POP \t\t\t(reqId_, \"\"), \"Request Id empt...\n      DUP7 \t\t\tareStrings\n      PUSH 19\t\t\t.c\n      PUSH [tag] 898\t\t\t.compareStrings\n      SWAP2 \t\t\t.compareStrings\n      SWAP1 \t\t\t.compareStrings\n      PUSH [tag] 897\t\t\t.compareStrings\n      JUMP \t\t\t.compareStrings\n    tag 898\t\t\t.compareStrings\n      JUMPDEST \t\t\t.compareStrings\n      SWAP2 \t\t\tturn Helpers.compareStrings\n      POP \t\t\tturn Helpers.compareStrings\n      DUP5 \t\t\td_);\\r\n      DUP8 \t\t\td_].id_, r\n      GT \t\t\td_].id_, reqId_);\\r\n      ISZERO \t\t\treqId_].id_, reqId_);\\r\\n    }...\n      PUSH [tag] 899\t\t\treqId_].id_, reqId_);\\r\\n    }...\n      JUMPI \t\t\treqId_].id_, reqId_);\\r\\n    }...\n      PUSH 0\t\t\t \n      SWAP4 \t\t\tsForBank)\\r\\n    \n      POP \t\t\tsForBank)\\r\\n    \n      PUSH 0\t\t\t\\n\n      SWAP2 \t\t\t       view\\r\\n\n      POP \t\t\t       view\\r\\n\n      PUSH [tag] 900\t\t\treqId_].id_, reqId_);\\r\\n    }...\n      JUMP \t\t\treqId_].id_, reqId_);\\r\\n    }...\n    tag 899\t\t\treqId_].id_, reqId_);\\r\\n    }...\n      JUMPDEST \t\t\treqId_].id_, reqId_);\\r\\n    }...\n      DUP5 \t\t\t Type\n      DUP8 \t\t\t56 totalPa\n      EQ \t\t\t56 totalPages, Type\n      DUP1 \t\t\t56 totalPages, Types.KycReques...\n      ISZERO \t\t\t56 totalPages, Types.KycReques...\n      PUSH [tag] 901\t\t\t56 totalPages, Types.KycReques...\n      JUMPI \t\t\t56 totalPages, Types.KycReques...\n      POP \t\t\t56 totalPages, Types.KycReques...\n      PUSH 0\t\t\te\n      DUP2 \t\t\tcRequest[\n      GT \t\t\tcRequest[] me\n    tag 901\t\t\t56 totalPages, Types.KycReques...\n      JUMPDEST \t\t\t56 totalPages, Types.KycReques...\n      ISZERO \t\t\tint256 totalPages, Types.KycRe...\n      PUSH [tag] 902\t\t\tint256 totalPages, Types.KycRe...\n      JUMPI \t\t\tint256 totalPages, Types.KycRe...\n      DUP1 \t\t\t       ui\n      SWAP4 \t\t\t      (\\r\\n            ui\n      POP \t\t\t      (\\r\\n            ui\n      DUP6 \t\t\tint256\n      MLOAD \t\t\tint256 pageLe\n      SWAP2 \t\t\t           uint256 pageLe\n      POP \t\t\t           uint256 pageLe\n    tag 902\t\t\tint256 totalPages, Types.KycRe...\n      JUMPDEST \t\t\tint256 totalPages, Types.KycRe...\n    tag 900\t\t\treqId_].id_, reqId_);\\r\\n    }...\n      JUMPDEST \t\t\treqId_].id_, reqId_);\\r\\n    }...\n      POP \t\t\t   }\\r\\n\\r\\n    function kycRe...\n      SWAP3 \t\t\t   role: Types.Role.Admin,\\r\\n...\n      SWAP6 \t\t\t   role: Types.Role.Admin,\\r\\n...\n      SWAP2 \t\t\t   role: Types.Role.Admin,\\r\\n...\n      SWAP5 \t\t\t   role: Types.Role.Admin,\\r\\n...\n      POP \t\t\t   role: Types.Role.Admin,\\r\\n...\n      SWAP3 \t\t\t   role: Types.Role.Admin,\\r\\n...\n      POP \t\t\t   role: Types.Role.Admin,\\r\\n...\n      JUMP \t\t\t   role: Types.Role.Admin,\\r\\n...\n    tag 103\t\t\t\n      JUMPDEST \t\t\t\n      PUSH 40\t\t\t\n      MLOAD \t\t\t\n      DUP1 \t\t\t\n      PUSH E0\t\t\t\n      ADD \t\t\t\n      PUSH 40\t\t\t\n      MSTORE \t\t\t\n      DUP1 \t\t\t\n      PUSH 60\t\t\t\n      DUP2 \t\t\t\n      MSTORE \t\t\t\n      PUSH 20\t\t\t\n      ADD \t\t\t\n      PUSH 60\t\t\t\n      DUP2 \t\t\t\n      MSTORE \t\t\t\n      PUSH 20\t\t\t\n      ADD \t\t\t\n      PUSH 0\t\t\t\n      DUP2 \t\t\t\n      MSTORE \t\t\t\n      PUSH 20\t\t\t\n      ADD \t\t\t\n      PUSH 0\t\t\t\n      PUSH FFFFFFFFFFFFFFFFFFFFFFFFFFFFFFFFFFFFFFFF\t\t\t\n      AND \t\t\t\n      DUP2 \t\t\t\n      MSTORE \t\t\t\n      PUSH 20\t\t\t\n      ADD \t\t\t\n      PUSH 0\t\t\t\n      PUSH FFFFFFFFFFFFFFFFFFFFFFFFFFFFFFFFFFFFFFFF\t\t\t\n      AND \t\t\t\n      DUP2 \t\t\t\n      MSTORE \t\t\t\n      PUSH 20\t\t\t\n      ADD \t\t\t\n      PUSH 60\t\t\t\n      DUP2 \t\t\t\n      MSTORE \t\t\t\n      PUSH 20\t\t\t\n      ADD \t\t\t\n      PUSH 0\t\t\t\n      DUP2 \t\t\t\n      MSTORE \t\t\t\n      POP \t\t\t\n      SWAP1 \t\t\t\n      JUMP \t\t\t\n    tag 126\t\t\t\n      JUMPDEST \t\t\t\n      PUSH 40\t\t\t\n      MLOAD \t\t\t\n      DUP1 \t\t\t\n      PUSH C0\t\t\t\n      ADD \t\t\t\n      PUSH 40\t\t\t\n      MSTORE \t\t\t\n      DUP1 \t\t\t\n      PUSH 60\t\t\t\n      DUP2 \t\t\t\n      MSTORE \t\t\t\n      PUSH 20\t\t\t\n      ADD \t\t\t\n      PUSH 60\t\t\t\n      DUP2 \t\t\t\n      MSTORE \t\t\t\n      PUSH 20\t\t\t\n      ADD \t\t\t\n      PUSH 0\t\t\t\n      PUSH FFFFFFFFFFFFFFFFFFFFFFFFFFFFFFFFFFFFFFFF\t\t\t\n      AND \t\t\t\n      DUP2 \t\t\t\n      MSTORE \t\t\t\n      PUSH 20\t\t\t\n      ADD \t\t\t\n      PUSH 60\t\t\t\n      DUP2 \t\t\t\n      MSTORE \t\t\t\n      PUSH 20\t\t\t\n      ADD \t\t\t\n      PUSH 0\t\t\t\n      PUSH FFFF\t\t\t\n      AND \t\t\t\n      DUP2 \t\t\t\n      MSTORE \t\t\t\n      PUSH 20\t\t\t\n      ADD \t\t\t\n      PUSH 0\t\t\t\n      PUSH 1\t\t\t\n      DUP2 \t\t\t\n      GT \t\t\t\n      ISZERO \t\t\t\n      PUSH [tag] 903\t\t\t\n      JUMPI \t\t\t\n      PUSH [tag] 904\t\t\t\n      PUSH [tag] 135\t\t\t\n      JUMP \t\t\t\n    tag 904\t\t\t\n      JUMPDEST \t\t\t\n    tag 903\t\t\t\n      JUMPDEST \t\t\t\n      DUP2 \t\t\t\n      MSTORE \t\t\t\n      POP \t\t\t\n      SWAP1 \t\t\t\n      JUMP \t\t\t\n    tag 199\t\t\t\n      JUMPDEST \t\t\t\n      PUSH 40\t\t\t\n      MLOAD \t\t\t\n      DUP1 \t\t\t\n      PUSH 140\t\t\t\n      ADD \t\t\t\n      PUSH 40\t\t\t\n      MSTORE \t\t\t\n      DUP1 \t\t\t\n      PUSH 60\t\t\t\n      DUP2 \t\t\t\n      MSTORE \t\t\t\n      PUSH 20\t\t\t\n      ADD \t\t\t\n      PUSH 0\t\t\t\n      PUSH FFFFFFFFFFFFFFFFFFFFFFFFFFFFFFFFFFFFFFFF\t\t\t\n      AND \t\t\t\n      DUP2 \t\t\t\n      MSTORE \t\t\t\n      PUSH 20\t\t\t\n      ADD \t\t\t\n      PUSH 60\t\t\t\n      DUP2 \t\t\t\n      MSTORE \t\t\t\n      PUSH 20\t\t\t\n      ADD \t\t\t\n      PUSH 0\t\t\t\n      PUSH FFFFFFFFFFFFFFFFFFFFFFFFFFFFFFFFFFFFFFFF\t\t\t\n      AND \t\t\t\n      DUP2 \t\t\t\n      MSTORE \t\t\t\n      PUSH 20\t\t\t\n      ADD \t\t\t\n      PUSH 60\t\t\t\n      DUP2 \t\t\t\n      MSTORE \t\t\t\n      PUSH 20\t\t\t\n      ADD \t\t\t\n      PUSH 60\t\t\t\n      DUP2 \t\t\t\n      MSTORE \t\t\t\n      PUSH 20\t\t\t\n      ADD \t\t\t\n      PUSH 0\t\t\t\n      DUP2 \t\t\t\n      MSTORE \t\t\t\n      PUSH 20\t\t\t\n      ADD \t\t\t\n      PUSH 0\t\t\t\n      PUSH 2\t\t\t\n      DUP2 \t\t\t\n      GT \t\t\t\n      ISZERO \t\t\t\n      PUSH [tag] 905\t\t\t\n      JUMPI \t\t\t\n      PUSH [tag] 906\t\t\t\n      PUSH [tag] 135\t\t\t\n      JUMP \t\t\t\n    tag 906\t\t\t\n      JUMPDEST \t\t\t\n    tag 905\t\t\t\n      JUMPDEST \t\t\t\n      DUP2 \t\t\t\n      MSTORE \t\t\t\n      PUSH 20\t\t\t\n      ADD \t\t\t\n      PUSH 0\t\t\t\n      PUSH 2\t\t\t\n      DUP2 \t\t\t\n      GT \t\t\t\n      ISZERO \t\t\t\n      PUSH [tag] 907\t\t\t\n      JUMPI \t\t\t\n      PUSH [tag] 908\t\t\t\n      PUSH [tag] 135\t\t\t\n      JUMP \t\t\t\n    tag 908\t\t\t\n      JUMPDEST \t\t\t\n    tag 907\t\t\t\n      JUMPDEST \t\t\t\n      DUP2 \t\t\t\n      MSTORE \t\t\t\n      PUSH 20\t\t\t\n      ADD \t\t\t\n      PUSH 60\t\t\t\n      DUP2 \t\t\t\n      MSTORE \t\t\t\n      POP \t\t\t\n      SWAP1 \t\t\t\n      JUMP \t\t\t\n    tag 549\t\t\t\n      JUMPDEST \t\t\t\n      PUSH 40\t\t\t\n      MLOAD \t\t\t\n      DUP1 \t\t\t\n      PUSH A0\t\t\t\n      ADD \t\t\t\n      PUSH 40\t\t\t\n      MSTORE \t\t\t\n      DUP1 \t\t\t\n      PUSH 60\t\t\t\n      DUP2 \t\t\t\n      MSTORE \t\t\t\n      PUSH 20\t\t\t\n      ADD \t\t\t\n      PUSH 60\t\t\t\n      DUP2 \t\t\t\n      MSTORE \t\t\t\n      PUSH 20\t\t\t\n      ADD \t\t\t\n      PUSH 0\t\t\t\n      PUSH FFFFFFFFFFFFFFFFFFFFFFFFFFFFFFFFFFFFFFFF\t\t\t\n      AND \t\t\t\n      DUP2 \t\t\t\n      MSTORE \t\t\t\n      PUSH 20\t\t\t\n      ADD \t\t\t\n      PUSH 0\t\t\t\n      PUSH 2\t\t\t\n      DUP2 \t\t\t\n      GT \t\t\t\n      ISZERO \t\t\t\n      PUSH [tag] 909\t\t\t\n      JUMPI \t\t\t\n      PUSH [tag] 910\t\t\t\n      PUSH [tag] 135\t\t\t\n      JUMP \t\t\t\n    tag 910\t\t\t\n      JUMPDEST \t\t\t\n    tag 909\t\t\t\n      JUMPDEST \t\t\t\n      DUP2 \t\t\t\n      MSTORE \t\t\t\n      PUSH 20\t\t\t\n      ADD \t\t\t\n      PUSH 0\t\t\t\n      PUSH 1\t\t\t\n      DUP2 \t\t\t\n      GT \t\t\t\n      ISZERO \t\t\t\n      PUSH [tag] 911\t\t\t\n      JUMPI \t\t\t\n      PUSH [tag] 912\t\t\t\n      PUSH [tag] 135\t\t\t\n      JUMP \t\t\t\n    tag 912\t\t\t\n      JUMPDEST \t\t\t\n    tag 911\t\t\t\n      JUMPDEST \t\t\t\n      DUP2 \t\t\t\n      MSTORE \t\t\t\n      POP \t\t\t\n      SWAP1 \t\t\t\n      JUMP \t\t\t\n    tag 913\t\t\t-License-Identifier: GPL-3.0\\r...\n      JUMPDEST \t\t\t-License-Identifier: GPL-3.0\\r...\n      PUSH 0\t\t\tgma so\n      PUSH 40\t\t\tim\n      MLOAD \t\t\t0;\\r\\n\\r\\nimp\n      SWAP1 \t\t\t4.25 <0.9.0;\\r\\n\\r\\nimp\n      POP \t\t\t4.25 <0.9.0;\\r\\n\\r\\nimp\n      SWAP1 \t\t\t-License-Identifier: GPL-3.0\\r...\n      JUMP \t\t\t-License-Identifier: GPL-3.0\\r...\n    tag 914\t\t\tmers.sol\";\\r\\nimport \"./Banks....\n      JUMPDEST \t\t\tmers.sol\";\\r\\nimport \"./Banks....\n      PUSH 0\t\t\tr\n      DUP1 \t\t\tn\n      REVERT \t\t\tess[] intern\n    tag 915\t\t\t\\r\\n\\r\\n    mapping(address =>...\n      JUMPDEST \t\t\t\\r\\n\\r\\n    mapping(address =>...\n      PUSH 0\t\t\te\n      DUP1 \t\t\ty\n      REVERT \t\t\ternal kycReq\n    tag 916\t\t\tmapping(address => address[]) ...\n      JUMPDEST \t\t\tmapping(address => address[]) ...\n      PUSH 0\t\t\tl bankC\n      PUSH FFFFFFFFFFFFFFFFFFFFFFFFFFFFFFFFFFFFFFFF\t\t\tated to a Bank\\r\\n    mapping(...\n      DUP3 \t\t\t asso\n      AND \t\t\tmers associated to a Bank\\r\\n ...\n      SWAP1 \t\t\t/ All customers associated to ...\n      POP \t\t\t/ All customers associated to ...\n      SWAP2 \t\t\tmapping(address => address[]) ...\n      SWAP1 \t\t\tmapping(address => address[]) ...\n      POP \t\t\tmapping(address => address[]) ...\n      JUMP \t\t\tmapping(address => address[]) ...\n    tag 917\t\t\tnal customerbanks; // All bank...\n      JUMPDEST \t\t\tnal customerbanks; // All bank...\n      PUSH 0\t\t\tiated t\n      PUSH [tag] 1061\t\t\tnstructor(string memory \n      DUP3 \t\t\temory\n      PUSH [tag] 916\t\t\tnstructor(string memory \n      JUMP \t\t\tnstructor(string memory \n    tag 1061\t\t\tnstructor(string memory \n      JUMPDEST \t\t\tnstructor(string memory \n      SWAP1 \t\t\tr\\r\\n\\r\\n    constructor(strin...\n      POP \t\t\tr\\r\\n\\r\\n    constructor(strin...\n      SWAP2 \t\t\tnal customerbanks; // All bank...\n      SWAP1 \t\t\tnal customerbanks; // All bank...\n      POP \t\t\tnal customerbanks; // All bank...\n      JUMP \t\t\tnal customerbanks; // All bank...\n    tag 918\t\t\tg memory email_) {\\r\\n        ...\n      JUMPDEST \t\t\tg memory email_) {\\r\\n        ...\n      PUSH [tag] 1063\t\t\ty usr_ = Types.User({\\r\\n \n      DUP2 \t\t\tr({\\r\\n\n      PUSH [tag] 917\t\t\ty usr_ = Types.User({\\r\\n \n      JUMP \t\t\ty usr_ = Types.User({\\r\\n \n    tag 1063\t\t\ty usr_ = Types.User({\\r\\n \n      JUMPDEST \t\t\ty usr_ = Types.User({\\r\\n \n      DUP2 \t\t\tr mem\n      EQ \t\t\tUser memory usr_ = Types.User(...\n      PUSH [tag] 1064\t\t\t    Types.User memory usr_ = T...\n      JUMPI \t\t\t    Types.User memory usr_ = T...\n      PUSH 0\t\t\t:\n      DUP1 \t\t\ta\n      REVERT \t\t\t      name: \n    tag 1064\t\t\t    Types.User memory usr_ = T...\n      JUMPDEST \t\t\t    Types.User memory usr_ = T...\n      POP \t\t\tg memory email_) {\\r\\n        ...\n      JUMP \t\t\tg memory email_) {\\r\\n        ...\n    tag 919\t\t\t      email: email_,\\r\\n      ...\n      JUMPDEST \t\t\t      email: email_,\\r\\n      ...\n      PUSH 0\t\t\t\\n    \n      DUP2 \t\t\t      \n      CALLDATALOAD \t\t\tRole.Admin,\\r\\n       \n      SWAP1 \t\t\te: Types.Role.Admin,\\r\\n      ...\n      POP \t\t\te: Types.Role.Admin,\\r\\n      ...\n      PUSH [tag] 1066\t\t\tus: Types.BankStatus.Active\\r\\...\n      DUP2 \t\t\t\\r\\n   \n      PUSH [tag] 918\t\t\tus: Types.BankStatus.Active\\r\\...\n      JUMP \t\t\tus: Types.BankStatus.Active\\r\\...\n    tag 1066\t\t\tus: Types.BankStatus.Active\\r\\...\n      JUMPDEST \t\t\tus: Types.BankStatus.Active\\r\\...\n      SWAP3 \t\t\t      email: email_,\\r\\n      ...\n      SWAP2 \t\t\t      email: email_,\\r\\n      ...\n      POP \t\t\t      email: email_,\\r\\n      ...\n      POP \t\t\t      email: email_,\\r\\n      ...\n      JUMP \t\t\t      email: email_,\\r\\n      ...\n    tag 26\t\t\t     users[admin] = usr_;\\r\\n ...\n      JUMPDEST \t\t\t     users[admin] = usr_;\\r\\n ...\n      PUSH 0\t\t\t   }\\r\\n\n      PUSH 20\t\t\t(m\n      DUP3 \t\t\t     requ\n      DUP5 \t\t\t() {\\r\\n \n      SUB \t\t\tdmin() {\\r\\n        requi\n      SLT \t\t\t isAdmin() {\\r\\n        requir...\n      ISZERO \t\t\tier isAdmin() {\\r\\n        req...\n      PUSH [tag] 1068\t\t\tier isAdmin() {\\r\\n        req...\n      JUMPI \t\t\tier isAdmin() {\\r\\n        req...\n      PUSH [tag] 1069\t\t\tender == admin, \"Only admin is...\n      PUSH [tag] 914\t\t\tender == admin, \"Only admin is...\n      JUMP \t\t\tender == admin, \"Only admin is...\n    tag 1069\t\t\tender == admin, \"Only admin is...\n      JUMPDEST \t\t\tender == admin, \"Only admin is...\n    tag 1068\t\t\tier isAdmin() {\\r\\n        req...\n      JUMPDEST \t\t\tier isAdmin() {\\r\\n        req...\n      PUSH 0\t\t\t \n      PUSH [tag] 1070\t\t\tew\\r\\n        returns (bool)\\r...\n      DUP5 \t\t\tquire(!\n      DUP3 \t\t\t      \n      DUP6 \t\t\t)\\r\\n    {\\r\n      ADD \t\t\tbool)\\r\\n    {\\r\\n        \n      PUSH [tag] 919\t\t\tew\\r\\n        returns (bool)\\r...\n      JUMP \t\t\tew\\r\\n        returns (bool)\\r...\n    tag 1070\t\t\tew\\r\\n        returns (bool)\\r...\n      JUMPDEST \t\t\tew\\r\\n        returns (bool)\\r...\n      SWAP2 \t\t\t        view\\r\\n        return...\n      POP \t\t\t        view\\r\\n        return...\n      POP \t\t\tts(string memory reqId_)\\r\\n  ...\n      SWAP3 \t\t\t     users[admin] = usr_;\\r\\n ...\n      SWAP2 \t\t\t     users[admin] = usr_;\\r\\n ...\n      POP \t\t\t     users[admin] = usr_;\\r\\n ...\n      POP \t\t\t     users[admin] = usr_;\\r\\n ...\n      JUMP \t\t\t     users[admin] = usr_;\\r\\n ...\n    tag 920\t\t\teqId_, \"\"), \"Request Id empty\"...\n      JUMPDEST \t\t\teqId_, \"\"), \"Request Id empty\"...\n      PUSH 0\t\t\tpers.c\n      DUP2 \t\t\tqId_]\n      MLOAD \t\t\tsts[reqId_].\n      SWAP1 \t\t\ts(kycRequests[reqId_].\n      POP \t\t\ts(kycRequests[reqId_].\n      SWAP2 \t\t\teqId_, \"\"), \"Request Id empty\"...\n      SWAP1 \t\t\teqId_, \"\"), \"Request Id empty\"...\n      POP \t\t\teqId_, \"\"), \"Request Id empty\"...\n      JUMP \t\t\teqId_, \"\"), \"Request Id empty\"...\n    tag 921\t\t\t\\r\\n    }\\r\\n\\r\\n    function ...\n      JUMPDEST \t\t\t\\r\\n    }\\r\\n\\r\\n    function ...\n      PUSH 0\t\t\t\\r\\n        i\n      DUP3 \t\t\t      \n      DUP3 \t\t\tiew\n      MSTORE \t\t\t      view\\r\\n       \n      PUSH 20\t\t\tes.K\n      DUP3 \t\t\t, T\n      ADD \t\t\tages, Types.Ky\n      SWAP1 \t\t\t(uint256 totalPages, Types.Ky\n      POP \t\t\t(uint256 totalPages, Types.Ky\n      SWAP3 \t\t\t\\r\\n    }\\r\\n\\r\\n    function ...\n      SWAP2 \t\t\t\\r\\n    }\\r\\n\\r\\n    function ...\n      POP \t\t\t\\r\\n    }\\r\\n\\r\\n    function ...\n      POP \t\t\t\\r\\n    }\\r\\n\\r\\n    function ...\n      JUMP \t\t\t\\r\\n    }\\r\\n\\r\\n    function ...\n    tag 922\t\t\temory)\\r\\n    {\\r\\n        req...\n      JUMPDEST \t\t\temory)\\r\\n    {\\r\\n        req...\n      PUSH 0\t\t\t\\r\n    tag 1074\t\t\t    uint256 pages,\\r\\n        ...\n      JUMPDEST \t\t\t    uint256 pages,\\r\\n        ...\n      DUP4 \t\t\tges,\\r\\n\n      DUP2 \t\t\t \n      LT \t\t\t256 pages,\\r\\n \n      ISZERO \t\t\t    uint256 pages,\\r\\n        ...\n      PUSH [tag] 1076\t\t\t    uint256 pages,\\r\\n        ...\n      JUMPI \t\t\t    uint256 pages,\\r\\n        ...\n      DUP1 \t\t\t \n      DUP3 \t\t\t   \n      ADD \t\t\t          u\n      MLOAD \t\t\t_,\\r\\n            ui\n      DUP2 \t\t\tn\n      DUP5 \t\t\ttar\n      ADD \t\t\t56 startInd\n      MSTORE \t\t\t  uint256 startIndex_,\\r\\n    ...\n      PUSH 20\t\t\t25\n      DUP2 \t\t\ti\n      ADD \t\t\t   uint256\n      SWAP1 \t\t\t        uint256\n      POP \t\t\t        uint256\n      PUSH [tag] 1074\t\t\t    uint256 pages,\\r\\n        ...\n      JUMP \t\t\t    uint256 pages,\\r\\n        ...\n    tag 1076\t\t\t    uint256 pages,\\r\\n        ...\n      JUMPDEST \t\t\t    uint256 pages,\\r\\n        ...\n      PUSH 0\t\t\te\n      DUP5 \t\t\t.getIn\n      DUP5 \t\t\tlpe\n      ADD \t\t\t= Helpers.getInd\n      MSTORE \t\t\t     ) = Helpers.getIndexes\n      POP \t\t\t zero\");\\r\\n        (\\r\\n     ...\n      POP \t\t\temory)\\r\\n    {\\r\\n        req...\n      POP \t\t\temory)\\r\\n    {\\r\\n        req...\n      POP \t\t\temory)\\r\\n    {\\r\\n        req...\n      JUMP \t\t\temory)\\r\\n    {\\r\\n        req...\n    tag 923\t\t\t       pageNumber,\\r\\n        ...\n      JUMPDEST \t\t\t       pageNumber,\\r\\n        ...\n      PUSH 0\t\t\tBank\\r\\n\n      PUSH 1F\t\t\tr]\n      NOT \t\t\tender]\\r\n      PUSH 1F\t\t\tms\n      DUP4 \t\t\ttomer\n      ADD \t\t\tkCustomers[msg\n      AND \t\t\t bankCustomers[msg.sender]\\r\\n\n      SWAP1 \t\t\t         ? bankCustomers[msg.s...\n      POP \t\t\t         ? bankCustomers[msg.s...\n      SWAP2 \t\t\t       pageNumber,\\r\\n        ...\n      SWAP1 \t\t\t       pageNumber,\\r\\n        ...\n      POP \t\t\t       pageNumber,\\r\\n        ...\n      JUMP \t\t\t       pageNumber,\\r\\n        ...\n    tag 924\t\t\t        : customerbanks[msg.se...\n      JUMPDEST \t\t\t        : customerbanks[msg.se...\n      PUSH 0\t\t\t] m\n      PUSH [tag] 1079\t\t\tycRequest[](pageLength_);\\r\\n ...\n      DUP3 \t\t\t  for\n      PUSH [tag] 920\t\t\tycRequest[](pageLength_);\\r\\n ...\n      JUMP \t\t\tycRequest[](pageLength_);\\r\\n ...\n    tag 1079\t\t\tycRequest[](pageLength_);\\r\\n ...\n      JUMPDEST \t\t\tycRequest[](pageLength_);\\r\\n ...\n      PUSH [tag] 1080\t\t\trtIndex_; i < endIndex_; i++)\\...\n      DUP2 \t\t\tisForB\n      DUP6 \t\t\ti] \n      PUSH [tag] 921\t\t\trtIndex_; i < endIndex_; i++)\\...\n      JUMP \t\t\trtIndex_; i < endIndex_; i++)\\...\n    tag 1080\t\t\trtIndex_; i < endIndex_; i++)\\...\n      JUMPDEST \t\t\trtIndex_; i < endIndex_; i++)\\...\n      SWAP4 \t\t\ti = startIndex_; i < endIndex_...\n      POP \t\t\ti = startIndex_; i < endIndex_...\n      PUSH [tag] 1081\t\t\t           ? kycRequests[\\r\\n ...\n      DUP2 \t\t\tend(ms\n      DUP6 \t\t\ts.a\n      PUSH 20\t\t\t Hel\n      DUP7 \t\t\t     \n      ADD \t\t\t            Help\n      PUSH [tag] 922\t\t\t           ? kycRequests[\\r\\n ...\n      JUMP \t\t\t           ? kycRequests[\\r\\n ...\n    tag 1081\t\t\t           ? kycRequests[\\r\\n ...\n      JUMPDEST \t\t\t           ? kycRequests[\\r\\n ...\n      PUSH [tag] 1082\t\t\tg.sender][i])\\r\\n             ...\n      DUP2 \t\t\t      \n      PUSH [tag] 923\t\t\tg.sender][i])\\r\\n             ...\n      JUMP \t\t\tg.sender][i])\\r\\n             ...\n    tag 1082\t\t\tg.sender][i])\\r\\n             ...\n      JUMPDEST \t\t\tg.sender][i])\\r\\n             ...\n      DUP5 \t\t\trs[\n      ADD \t\t\ttomers[msg.sender][i])\\r\\n    ...\n      SWAP2 \t\t\tbankCustomers[msg.sender][i])\\...\n      POP \t\t\tbankCustomers[msg.sender][i])\\...\n      POP \t\t\tmory list_ = new Types.KycRequ...\n      SWAP3 \t\t\t        : customerbanks[msg.se...\n      SWAP2 \t\t\t        : customerbanks[msg.se...\n      POP \t\t\t        : customerbanks[msg.se...\n      POP \t\t\t        : customerbanks[msg.se...\n      JUMP \t\t\t        : customerbanks[msg.se...\n    tag 925\t\t\t        : kycRequests[\\r\\n    ...\n      JUMPDEST \t\t\t        : kycRequests[\\r\\n    ...\n      PUSH 0\t\t\t       \n      DUP2 \t\t\trbank\n      SWAP1 \t\t\tend(customerbank\n      POP \t\t\tend(customerbank\n      SWAP2 \t\t\t        : kycRequests[\\r\\n    ...\n      SWAP1 \t\t\t        : kycRequests[\\r\\n    ...\n      POP \t\t\t        : kycRequests[\\r\\n    ...\n      JUMP \t\t\t        : kycRequests[\\r\\n    ...\n    tag 926\t\t\t][i], msg.sender)\\r\\n         ...\n      JUMPDEST \t\t\t][i], msg.sender)\\r\\n         ...\n      PUSH [tag] 1085\t\t\t\\n\\r\\n    event KycRequestA\n      DUP2 \t\t\tquest\n      PUSH [tag] 925\t\t\t\\n\\r\\n    event KycRequestA\n      JUMP \t\t\t\\n\\r\\n    event KycRequestA\n    tag 1085\t\t\t\\n\\r\\n    event KycRequestA\n      JUMPDEST \t\t\t\\n\\r\\n    event KycRequestA\n      DUP3 \t\t\t   \n      MSTORE \t\t\tt_);\\r\\n    }\\r\\n\\r\\n    event...\n      POP \t\t\t][i], msg.sender)\\r\\n         ...\n      POP \t\t\t][i], msg.sender)\\r\\n         ...\n      JUMP \t\t\t][i], msg.sender)\\r\\n         ...\n    tag 927\t\t\teqId, string bankName, string ...\n      JUMPDEST \t\t\teqId, string bankName, string ...\n      PUSH [tag] 1087\t\t\t reqId, string bankName,\n      DUP2 \t\t\tkName\n      PUSH [tag] 917\t\t\t reqId, string bankName,\n      JUMP \t\t\t reqId, string bankName,\n    tag 1087\t\t\t reqId, string bankName,\n      JUMPDEST \t\t\t reqId, string bankName,\n      DUP3 \t\t\ttri\n      MSTORE \t\t\tested(string reqId, string ban...\n      POP \t\t\teqId, string bankName, string ...\n      POP \t\t\teqId, string bankName, string ...\n      JUMP \t\t\teqId, string bankName, string ...\n    tag 928\t\t\t reqId,\\r\\n        address cus...\n      JUMPDEST \t\t\t reqId,\\r\\n        address cus...\n      PUSH 0\t\t\tPer\n      PUSH E0\t\t\teqId\n      DUP4 \t\t\ting\n      ADD \t\t\t string reqId,\n      PUSH 0\t\t\tus s\n      DUP4 \t\t\tashSt\n      ADD \t\t\tataHashStatus st\n      MLOAD \t\t\types.DataHashStatus sta\n      DUP5 \t\t\t56 \n      DUP3 \t\t\t(uin\n      SUB \t\t\tanks(uint256 p\n      PUSH 0\t\t\tgetA\n      DUP7 \t\t\ttio\n      ADD \t\t\tfunction getAl\n      MSTORE \t\t\t \\r\\n    function getAllBanks(...\n      PUSH [tag] 1089\t\t\tblic\\r\\n        view\\r\\n      ...\n      DUP3 \t\t\tages\n      DUP3 \t\t\tuint256 tota\n      PUSH [tag] 924\t\t\tblic\\r\\n        view\\r\\n      ...\n      JUMP \t\t\tblic\\r\\n        view\\r\\n      ...\n    tag 1089\t\t\tblic\\r\\n        view\\r\\n      ...\n      JUMPDEST \t\t\tblic\\r\\n        view\\r\\n      ...\n      SWAP2 \t\t\t      public\\r\\n        view\\r...\n      POP \t\t\t      public\\r\\n        view\\r...\n      POP \t\t\taddress customerId,\\r\\n       ...\n      PUSH 20\t\t\tddBa\n      DUP4 \t\t\tction\n      ADD \t\t\t function addBan\n      MLOAD \t\t\t\\n\\r\\n    function addBank\n      DUP5 \t\t\t   \n      DUP3 \t\t\t{\\r\\n \n      SUB \t\t\tmin {\\r\\n       \n      PUSH 20\t\t\tic i\n      DUP7 \t\t\t pu\n      ADD \t\t\tnk_) public is\n      MSTORE \t\t\tmory bank_) public isAdmin {\\r...\n      PUSH [tag] 1090\t\t\t    // Adding to common list\\r...\n      DUP3 \t\t\t{\\r\\n \n      DUP3 \t\t\t = Types.Use\n      PUSH [tag] 924\t\t\t    // Adding to common list\\r...\n      JUMP \t\t\t    // Adding to common list\\r...\n    tag 1090\t\t\t    // Adding to common list\\r...\n      JUMPDEST \t\t\t    // Adding to common list\\r...\n      SWAP2 \t\t\t);\\r\\n        // Adding to com...\n      POP \t\t\t);\\r\\n        // Adding to com...\n      POP \t\t\t\\r\\n    {\\r\\n        return ge...\n      PUSH 40\t\t\t  ro\n      DUP4 \t\t\t     \n      ADD \t\t\t\\n            rol\n      MLOAD \t\t\t.id_,\\r\\n            role\n      PUSH [tag] 1091\t\t\tBank,\\r\\n            status: T...\n      PUSH 40\t\t\t   }\n      DUP7 \t\t\t   \n      ADD \t\t\tve\\r\\n        })\n      DUP3 \t\t\tankStatus.Ac\n      PUSH [tag] 926\t\t\tBank,\\r\\n            status: T...\n      JUMP \t\t\tBank,\\r\\n            status: T...\n    tag 1091\t\t\tBank,\\r\\n            status: T...\n      JUMPDEST \t\t\tBank,\\r\\n            status: T...\n      POP \t\t\t.name,\\r\\n            email: b...\n      PUSH 60\t\t\tess \n      DUP4 \t\t\t   ad\n      ADD \t\t\t       address i\n      MLOAD \t\t\tls(\\r\\n        address id\n      PUSH [tag] 1092\t\t\ttring memory email_,\\r\\n      ...\n      PUSH 60\t\t\tpubl\n      DUP7 \t\t\t   \n      ADD \t\t\t_\\r\\n    ) publi\n      DUP3 \t\t\tng memory na\n      PUSH [tag] 927\t\t\ttring memory email_,\\r\\n      ...\n      JUMP \t\t\ttring memory email_,\\r\\n      ...\n    tag 1092\t\t\ttring memory email_,\\r\\n      ...\n      JUMPDEST \t\t\ttring memory email_,\\r\\n      ...\n      POP \t\t\tush(bank_.id_);\\r\\n    }\\r\\n\\r...\n      PUSH 80\t\t\ts[id\n      DUP4 \t\t\t   us\n      ADD \t\t\t       users[id_\n      MLOAD \t\t\tist\\r\\n        users[id_]\n      PUSH [tag] 1093\t\t\t;\\r\\n        users[id_].email ...\n      PUSH 80\t\t\tion \n      DUP7 \t\t\tfun\n      ADD \t\t\t    function a\n      DUP3 \t\t\tl_;\\r\\n    }\\r\\n\n      PUSH [tag] 927\t\t\t;\\r\\n        users[id_].email ...\n      JUMP \t\t\t;\\r\\n        users[id_].email ...\n    tag 1093\t\t\t;\\r\\n        users[id_].email ...\n      JUMPDEST \t\t\t;\\r\\n        users[id_].email ...\n      POP \t\t\tupdatebank(id_, email_, name_)...\n      PUSH A0\t\t\t    \n      DUP4 \t\t\t {\\r\\n \n      ADD \t\t\t\\n    {\\r\\n        \n      MLOAD \t\t\tAdmin\\r\\n    {\\r\\n        /\n      DUP5 \t\t\ttat\n      DUP3 \t\t\tid_]\n      SUB \t\t\ters[id_].statu\n      PUSH A0\t\t\t    \n      DUP7 \t\t\t\\r\\n \n      ADD \t\t\tlist\\r\\n        \n      MSTORE \t\t\tcommon list\\r\\n        users[i...\n      PUSH [tag] 1094\t\t\tbank(id_, makeActive_);\\r\\n   ...\n      DUP3 \t\t\tnt25\n      DUP3 \t\t\tomersOfBank(\n      PUSH [tag] 924\t\t\tbank(id_, makeActive_);\\r\\n   ...\n      JUMP \t\t\tbank(id_, makeActive_);\\r\\n   ...\n    tag 1094\t\t\tbank(id_, makeActive_);\\r\\n   ...\n      JUMPDEST \t\t\tbank(id_, makeActive_);\\r\\n   ...\n      SWAP2 \t\t\tactivatebank(id_, makeActive_)...\n      POP \t\t\tactivatebank(id_, makeActive_)...\n      POP \t\t\t(address id_, bool makeActive_...\n      PUSH C0\t\t\ttota\n      DUP4 \t\t\tint25\n      ADD \t\t\ts (uint256 total\n      MLOAD \t\t\treturns (uint256 totalP\n      PUSH [tag] 1095\t\t\tycRequest[] memory)\\r\\n    {\\r...\n      PUSH C0\t\t\t(pag\n      DUP7 \t\t\tues\n      ADD \t\t\tCRequests(page\n      DUP3 \t\t\t  return get\n      PUSH [tag] 926\t\t\tycRequest[] memory)\\r\\n    {\\r...\n      JUMP \t\t\tycRequest[] memory)\\r\\n    {\\r...\n    tag 1095\t\t\tycRequest[] memory)\\r\\n    {\\r...\n      JUMPDEST \t\t\tycRequest[] memory)\\r\\n    {\\r...\n      POP \t\t\t public\\r\\n        view\\r\\n   ...\n      DUP1 \t\t\t /**\n      SWAP2 \t\t\t\\r\\n\\r\\n    /**\n      POP \t\t\t\\r\\n\\r\\n    /**\n      POP \t\t\tssionChanged(\\r\\n        strin...\n      SWAP3 \t\t\t reqId,\\r\\n        address cus...\n      SWAP2 \t\t\t reqId,\\r\\n        address cus...\n      POP \t\t\t reqId,\\r\\n        address cus...\n      POP \t\t\t reqId,\\r\\n        address cus...\n      JUMP \t\t\t reqId,\\r\\n        address cus...\n    tag 29\t\t\ttice Records new KYC request f...\n      JUMPDEST \t\t\ttice Records new KYC request f...\n      PUSH 0\t\t\tTime\n      PUSH 20\t\t\th \n      DUP3 \t\t\tn unix ep\n      ADD \t\t\tme in unix epoch t\n      SWAP1 \t\t\tate & Time in unix epoch t\n      POP \t\t\tate & Time in unix epoch t\n      DUP2 \t\t\tnotes tha\n      DUP2 \t\t\tiona\n      SUB \t\t\tdditional notes that\n      PUSH 0\t\t\tn\n      DUP4 \t\t\tam notes_\n      ADD \t\t\t@param notes_ Any\n      MSTORE \t\t\t     * @param notes_ Any addit...\n      PUSH [tag] 1097\t\t\t\\n     */\\r\\n    function addK...\n      DUP2 \t\t\time_\n      DUP5 \t\t\t curre\n      PUSH [tag] 928\t\t\t\\n     */\\r\\n    function addK...\n      JUMP \t\t\t\\n     */\\r\\n    function addK...\n    tag 1097\t\t\t\\n     */\\r\\n    function addK...\n      JUMPDEST \t\t\t\\n     */\\r\\n    function addK...\n      SWAP1 \t\t\te added\\r\\n     */\\r\\n    func...\n      POP \t\t\te added\\r\\n     */\\r\\n    func...\n      SWAP3 \t\t\ttice Records new KYC request f...\n      SWAP2 \t\t\ttice Records new KYC request f...\n      POP \t\t\ttice Records new KYC request f...\n      POP \t\t\ttice Records new KYC request f...\n      JUMP \t\t\ttice Records new KYC request f...\n    tag 929\t\t\ting memory notes_\\r\\n    ) pub...\n      JUMPDEST \t\t\ting memory notes_\\r\\n    ) pub...\n      PUSH 0\t\t\tlidBank\n      PUSH FFFF\t\t\tmory r\n      DUP3 \t\t\tring \n      AND \t\t\t  string memory re\n      SWAP1 \t\t\t) {\\r\\n        string memory r...\n      POP \t\t\t) {\\r\\n        string memory r...\n      SWAP2 \t\t\ting memory notes_\\r\\n    ) pub...\n      SWAP1 \t\t\ting memory notes_\\r\\n    ) pub...\n      POP \t\t\ting memory notes_\\r\\n    ) pub...\n      JUMP \t\t\ting memory notes_\\r\\n    ) pub...\n    tag 930\t\t\trs.append(msg.sender, customer...\n      JUMPDEST \t\t\trs.append(msg.sender, customer...\n      PUSH [tag] 1100\t\t\tqId_), \"User had kyc re\n      DUP2 \t\t\tkyc r\n      PUSH [tag] 929\t\t\tqId_), \"User had kyc re\n      JUMP \t\t\tqId_), \"User had kyc re\n    tag 1100\t\t\tqId_), \"User had kyc re\n      JUMPDEST \t\t\tqId_), \"User had kyc re\n      DUP3 \t\t\tts(\n      MSTORE \t\t\testExists(reqId_), \"User had k...\n      POP \t\t\trs.append(msg.sender, customer...\n      POP \t\t\trs.append(msg.sender, customer...\n      JUMP \t\t\trs.append(msg.sender, customer...\n    tag 135\t\t\t    kycRequests[reqId_] = Type...\n      JUMPDEST \t\t\t    kycRequests[reqId_] = Type...\n      PUSH 4E487B7100000000000000000000000000000000000000000000000000000000\t\t\t          id_: reqId_,\\r\\n    ...\n      PUSH 0\t\t\t\\n\n      MSTORE \t\t\tuest({\\r\\n            id_: req...\n      PUSH 21\t\t\tname\n      PUSH 4\t\t\tr\n      MSTORE \t\t\tcustomer_.name,\n      PUSH 24\t\t\td_: \n      PUSH 0\t\t\tn\n      REVERT \t\t\t     bankId_: m\n    tag 931\t\t\t            bankName: getsingl...\n      JUMPDEST \t\t\t            bankName: getsingl...\n      PUSH 2\t\t\ta\n      DUP2 \t\t\tomer_\n      LT \t\t\tustomer_.dat\n      PUSH [tag] 1103\t\t\tataHash: customer_.dataHash,\\r...\n      JUMPI \t\t\tataHash: customer_.dataHash,\\r...\n      PUSH [tag] 1104\t\t\th,\\r\\n            up\n      PUSH [tag] 135\t\t\th,\\r\\n            up\n      JUMP \t\t\th,\\r\\n            up\n    tag 1104\t\t\th,\\r\\n            up\n      JUMPDEST \t\t\th,\\r\\n            up\n    tag 1103\t\t\tataHash: customer_.dataHash,\\r...\n      JUMPDEST \t\t\tataHash: customer_.dataHash,\\r...\n      POP \t\t\t            bankName: getsingl...\n      JUMP \t\t\t            bankName: getsingl...\n    tag 932\t\t\tntTime_,\\r\\n            status...\n      JUMPDEST \t\t\tntTime_,\\r\\n            status...\n      PUSH 0\t\t\tg,\\r\\n   \n      DUP2 \t\t\tTypes\n      SWAP1 \t\t\ttaRequest: Types\n      POP \t\t\ttaRequest: Types\n      PUSH [tag] 1106\t\t\tDataHashStatus.Pending,\\r\\n   ...\n      DUP3 \t\t\tional\n      PUSH [tag] 931\t\t\tDataHashStatus.Pending,\\r\\n   ...\n      JUMP \t\t\tDataHashStatus.Pending,\\r\\n   ...\n    tag 1106\t\t\tDataHashStatus.Pending,\\r\\n   ...\n      JUMPDEST \t\t\tDataHashStatus.Pending,\\r\\n   ...\n      SWAP2 \t\t\tntTime_,\\r\\n            status...\n      SWAP1 \t\t\tntTime_,\\r\\n            status...\n      POP \t\t\tntTime_,\\r\\n            status...\n      JUMP \t\t\tntTime_,\\r\\n            status...\n    tag 933\t\t\t\\r\\n        });\\r\\n        ban...\n      JUMPDEST \t\t\t\\r\\n        });\\r\\n        ban...\n      PUSH 0\t\t\t.id_);\\r\\n \n      PUSH [tag] 1108\t\t\ttomer_.id_].push(msg.sender);\\...\n      DUP3 \t\t\t     \n      PUSH [tag] 932\t\t\ttomer_.id_].push(msg.sender);\\...\n      JUMP \t\t\ttomer_.id_].push(msg.sender);\\...\n    tag 1108\t\t\ttomer_.id_].push(msg.sender);\\...\n      JUMPDEST \t\t\ttomer_.id_].push(msg.sender);\\...\n      SWAP1 \t\t\tomerbanks[customer_.id_].push(...\n      POP \t\t\tomerbanks[customer_.id_].push(...\n      SWAP2 \t\t\t\\r\\n        });\\r\\n        ban...\n      SWAP1 \t\t\t\\r\\n        });\\r\\n        ban...\n      POP \t\t\t\\r\\n        });\\r\\n        ban...\n      JUMP \t\t\t\\r\\n        });\\r\\n        ban...\n    tag 934\t\t\testAdded(\\r\\n            reqId...\n      JUMPDEST \t\t\testAdded(\\r\\n            reqId...\n      PUSH [tag] 1110\t\t\ttomer_.name\\r\\n        );\\r\\n\\...\n      DUP2 \t\t\tomerE\n      PUSH [tag] 933\t\t\ttomer_.name\\r\\n        );\\r\\n\\...\n      JUMP \t\t\ttomer_.name\\r\\n        );\\r\\n\\...\n    tag 1110\t\t\ttomer_.name\\r\\n        );\\r\\n\\...\n      JUMPDEST \t\t\ttomer_.name\\r\\n        );\\r\\n\\...\n      DUP3 \t\t\t  c\n      MSTORE \t\t\t         customer_.name\\r\\n   ...\n      POP \t\t\testAdded(\\r\\n            reqId...\n      POP \t\t\testAdded(\\r\\n            reqId...\n      JUMP \t\t\testAdded(\\r\\n            reqId...\n    tag 935\t\t\t\\r\\n            // Adding to c...\n      JUMPDEST \t\t\t\\r\\n            // Adding to c...\n      PUSH 0\t\t\tsto\n      PUSH C0\t\t\t: cu\n      DUP4 \t\t\tema\n      ADD \t\t\t    email: cus\n      PUSH 0\t\t\tle.C\n      DUP4 \t\t\types.\n      ADD \t\t\te: Types.Role.Cu\n      MLOAD \t\t\t   role: Types.Role.Cus\n      DUP5 \t\t\ts.A\n      DUP3 \t\t\tkSta\n      SUB \t\t\t.BankStatus.Ac\n      PUSH 0\t\t\t: Ty\n      DUP7 \t\t\ttat\n      ADD \t\t\t   status: Typ\n      MSTORE \t\t\t          status: Types.BankSt...\n      PUSH [tag] 1112\t\t\t\\n            userList.push(cu...\n      DUP3 \t\t\tfunc\n      DUP3 \t\t\t\\n    }\\r\\n\\r\\n  \n      PUSH [tag] 924\t\t\t\\n            userList.push(cu...\n      JUMP \t\t\t\\n            userList.push(cu...\n    tag 1112\t\t\t\\n            userList.push(cu...\n      JUMPDEST \t\t\t\\n            userList.push(cu...\n      SWAP2 \t\t\t    });\\r\\n            userLis...\n      POP \t\t\t    });\\r\\n            userLis...\n      POP \t\t\til,\\r\\n                id_: cu...\n      PUSH 20\t\t\tBank\n      DUP4 \t\t\tisVal\n      ADD \t\t\t    isValidBank(\n      MLOAD \t\t\t\\r\\n        isValidBank(m\n      DUP5 \t\t\t = \n      DUP3 \t\t\treqI\n      SUB \t\t\tory reqId_ = H\n      PUSH 20\t\t\ting \n      DUP7 \t\t\t  s\n      ADD \t\t\t      string m\n      MSTORE \t\t\t  {\\r\\n        string memory r...\n      PUSH [tag] 1113\t\t\ter, id_);\\r\\n        require(k...\n      DUP3 \t\t\tund\"\n      DUP3 \t\t\tKYC req not \n      PUSH [tag] 924\t\t\ter, id_);\\r\\n        require(k...\n      JUMP \t\t\ter, id_);\\r\\n        require(k...\n    tag 1113\t\t\ter, id_);\\r\\n        require(k...\n      JUMPDEST \t\t\ter, id_);\\r\\n        require(k...\n      SWAP2 \t\t\tmsg.sender, id_);\\r\\n        r...\n      POP \t\t\tmsg.sender, id_);\\r\\n        r...\n      POP \t\t\tquest(address id_, string memo...\n      PUSH 40\t\t\t.sta\n      DUP4 \t\t\treqId\n      ADD \t\t\tsts[reqId_].stat\n      MLOAD \t\t\tcRequests[reqId_].statu\n      PUSH [tag] 1114\t\t\tStatus.Pending;\\r\\n        kyc...\n      PUSH 40\t\t\t= Ty\n      DUP7 \t\t\tues\n      ADD \t\t\taRequest = Typ\n      DUP3 \t\t\tts[reqId_].d\n      PUSH [tag] 927\t\t\tStatus.Pending;\\r\\n        kyc...\n      JUMP \t\t\tStatus.Pending;\\r\\n        kyc...\n    tag 1114\t\t\tStatus.Pending;\\r\\n        kyc...\n      JUMPDEST \t\t\tStatus.Pending;\\r\\n        kyc...\n      POP \t\t\tstomerExists(id_), \"User not f...\n      PUSH 60\t\t\t Kyc\n      DUP4 \t\t\t   em\n      ADD \t\t\t       emit KycR\n      MLOAD \t\t\t;\\r\\n\\r\\n        emit KycRe\n      DUP5 \t\t\tcRe\n      DUP3 \t\t\t    \n      SUB \t\t\t        kycReq\n      PUSH 60\t\t\t,\\r\\n \n      DUP7 \t\t\teqI\n      ADD \t\t\t   reqId_,\\r\\n  \n      MSTORE \t\t\t          reqId_,\\r\\n         ...\n      PUSH [tag] 1115\t\t\t,\\r\\n            kycRequests[r...\n      DUP3 \t\t\t\\r\\n  \n      DUP3 \t\t\t   );\\r\\n    }\n      PUSH [tag] 924\t\t\t,\\r\\n            kycRequests[r...\n      JUMP \t\t\t,\\r\\n            kycRequests[r...\n    tag 1115\t\t\t,\\r\\n            kycRequests[r...\n      JUMPDEST \t\t\t,\\r\\n            kycRequests[r...\n      SWAP2 \t\t\tbankName,\\r\\n            kycRe...\n      POP \t\t\tbankName,\\r\\n            kycRe...\n      POP \t\t\tding;\\r\\n        kycRequests[r...\n      PUSH 80\t\t\tng m\n      DUP4 \t\t\t   st\n      ADD \t\t\t       string me\n      MLOAD \t\t\td_,\\r\\n        string mem\n      PUSH [tag] 1116\t\t\t  ) public isValidBank(msg.sen...\n      PUSH 80\t\t\tmory\n      DUP7 \t\t\tng \n      ADD \t\t\tstring memory \n      DUP3 \t\t\tr) {\\r\\n      \n      PUSH [tag] 930\t\t\t  ) public isValidBank(msg.sen...\n      JUMP \t\t\t  ) public isValidBank(msg.sen...\n    tag 1116\t\t\t  ) public isValidBank(msg.sen...\n      JUMPDEST \t\t\t  ) public isValidBank(msg.sen...\n      POP \t\t\trification(\\r\\n        address...\n      PUSH A0\t\t\tdoes\n      DUP4 \t\t\t \"Use\n      ADD \t\t\td_), \"User doesn\n      MLOAD \t\t\ts(reqId_), \"User doesn'\n      PUSH [tag] 1117\t\t\tq\");\\r\\n\\r\\n        Types.KycS...\n      PUSH A0\t\t\t    \n      DUP7 \t\t\t;\\r\\n\n      ADD \t\t\tding;\\r\\n       \n      DUP3 \t\t\t.KycStatus.P\n      PUSH [tag] 934\t\t\tq\");\\r\\n\\r\\n        Types.KycS...\n      JUMP \t\t\tq\");\\r\\n\\r\\n        Types.KycS...\n    tag 1117\t\t\tq\");\\r\\n\\r\\n        Types.KycS...\n      JUMPDEST \t\t\tq\");\\r\\n\\r\\n        Types.KycS...\n      POP \t\t\tnd(msg.sender, userId_);\\r\\n  ...\n      DUP1 \t\t\t   s\n      SWAP2 \t\t\t          s\n      POP \t\t\t          s\n      POP \t\t\tr_.name,\\r\\n                em...\n      SWAP3 \t\t\t\\r\\n            // Adding to c...\n      SWAP2 \t\t\t\\r\\n            // Adding to c...\n      POP \t\t\t\\r\\n            // Adding to c...\n      POP \t\t\t\\r\\n            // Adding to c...\n      JUMP \t\t\t\\r\\n            // Adding to c...\n    tag 34\t\t\tes.KycStatus.KYCVerified;\\r\\n ...\n      JUMPDEST \t\t\tes.KycStatus.KYCVerified;\\r\\n ...\n      PUSH 0\t\t\tstat\n      PUSH 20\t\t\t  \n      DUP3 \t\t\tYCFailed;\n      ADD \t\t\tus.KYCFailed;\\r\\n   \n      SWAP1 \t\t\t.KycStatus.KYCFailed;\\r\\n   \n      POP \t\t\t.KycStatus.KYCFailed;\\r\\n   \n      DUP2 \t\t\t status_;\n      DUP2 \t\t\tatus\n      SUB \t\t\t].status = status_;\\r\n      PUSH 0\t\t\tq\n      DUP4 \t\t\tRequests[\n      ADD \t\t\t kycRequests[reqI\n      MSTORE \t\t\t        kycRequests[reqId_].st...\n      PUSH [tag] 1119\t\t\tts[reqId_].additionalNotes = n...\n      DUP2 \t\t\ttatu\n      DUP5 \t\t\tsender\n      PUSH [tag] 935\t\t\tts[reqId_].additionalNotes = n...\n      JUMP \t\t\tts[reqId_].additionalNotes = n...\n    tag 1119\t\t\tts[reqId_].additionalNotes = n...\n      JUMPDEST \t\t\tts[reqId_].additionalNotes = n...\n      SWAP1 \t\t\tycRequests[reqId_].additionalN...\n      POP \t\t\tycRequests[reqId_].additionalN...\n      SWAP3 \t\t\tes.KycStatus.KYCVerified;\\r\\n ...\n      SWAP2 \t\t\tes.KycStatus.KYCVerified;\\r\\n ...\n      POP \t\t\tes.KycStatus.KYCVerified;\\r\\n ...\n      POP \t\t\tes.KycStatus.KYCVerified;\\r\\n ...\n      JUMP \t\t\tes.KycStatus.KYCVerified;\\r\\n ...\n    tag 936\t\t\t\\n    function searchCustomers...\n      JUMPDEST \t\t\t\\n    function searchCustomers...\n      PUSH 0\t\t\t \n      DUP1 \t\t\t \n      REVERT \t\t\td_)\\r\\n       \n    tag 937\t\t\t(msg.sender)\\r\\n        return...\n      JUMPDEST \t\t\t(msg.sender)\\r\\n        return...\n      PUSH 0\t\t\tR\n      DUP1 \t\t\tK\n      REVERT \t\t\t Types.KycRe\n    tag 718\t\t\t\\r\\n        )\\r\\n    {\\r\\n    ...\n      JUMPDEST \t\t\t\\r\\n        )\\r\\n    {\\r\\n    ...\n      PUSH 4E487B7100000000000000000000000000000000000000000000000000000000\t\t\t  Types.Customer memory custom...\n      PUSH 0\t\t\t \n      MSTORE \t\t\t_;\\r\\n        Types.Customer m...\n      PUSH 41\t\t\tusto\n      PUSH 4\t\t\t,\n      MSTORE \t\t\t(found_, custom\n      PUSH 24\t\t\ters(\n      PUSH 0\t\t\tt\n      REVERT \t\t\tarchcustomers(i\n    tag 938\t\t\tomers[msg.sender]);\\r\\n       ...\n      JUMPDEST \t\t\tomers[msg.sender]);\\r\\n       ...\n      PUSH [tag] 1124\t\t\tsender, id_)];\\r\\n        ret\n      DUP3 \t\t\t  re\n      PUSH [tag] 923\t\t\tsender, id_)];\\r\\n        ret\n      JUMP \t\t\tsender, id_)];\\r\\n        ret\n    tag 1124\t\t\tsender, id_)];\\r\\n        ret\n      JUMPDEST \t\t\tsender, id_)];\\r\\n        ret\n      DUP2 \t\t\tend(ms\n      ADD \t\t\t.append(msg.sender, id_)];\\r\\n...\n      DUP2 \t\t\tpublic\n      DUP2 \t\t\tr)\\r\\n      \n      LT \t\t\tmber)\\r\\n        public\\r\n      PUSH FFFFFFFFFFFFFFFF\t\t\tquests(uint256 pag\n      DUP3 \t\t\ton getBank\n      GT \t\t\tction getBankRequests(uint256 ...\n      OR \t\t\tfunction getBankRequests(uint2...\n      ISZERO \t\t\t   function getBankRequests(ui...\n      PUSH [tag] 1125\t\t\t   function getBankRequests(ui...\n      JUMPI \t\t\t   function getBankRequests(ui...\n      PUSH [tag] 1126\t\t\t     view\\r\\n       \n      PUSH [tag] 718\t\t\t     view\\r\\n       \n      JUMP \t\t\t     view\\r\\n       \n    tag 1126\t\t\t     view\\r\\n       \n      JUMPDEST \t\t\t     view\\r\\n       \n    tag 1125\t\t\t   function getBankRequests(ui...\n      JUMPDEST \t\t\t   function getBankRequests(ui...\n      DUP1 \t\t\tender)\\r\\n  \n      PUSH 40\t\t\tsg\n      MSTORE \t\t\ttomer(msg.sender)\\r\\n   \n      POP \t\t\tquest_ = kycRequests[Helpers.a...\n      POP \t\t\tomers[msg.sender]);\\r\\n       ...\n      POP \t\t\tomers[msg.sender]);\\r\\n       ...\n      JUMP \t\t\tomers[msg.sender]);\\r\\n       ...\n    tag 939\t\t\t (uint256 totalPages, Types.Ky...\n      JUMPDEST \t\t\t (uint256 totalPages, Types.Ky...\n      PUSH 0\t\t\tuest[]\n      PUSH [tag] 1128\t\t\t    return getKYCReq\n      PUSH [tag] 913\t\t\t    return getKYCReq\n      JUMP \t\t\t    return getKYCReq\n    tag 1128\t\t\t    return getKYCReq\n      JUMPDEST \t\t\t    return getKYCReq\n      SWAP1 \t\t\t   {\\r\\n        return getKYCR...\n      POP \t\t\t   {\\r\\n        return getKYCR...\n      PUSH [tag] 1129\t\t\teNumber, false);\\r\\n    }\\r\\n\\...\n      DUP3 \t\t\t   f\n      DUP3 \t\t\t  }\\r\\n\\r\n      PUSH [tag] 938\t\t\teNumber, false);\\r\\n    }\\r\\n\\...\n      JUMP \t\t\teNumber, false);\\r\\n    }\\r\\n\\...\n    tag 1129\t\t\teNumber, false);\\r\\n    }\\r\\n\\...\n      JUMPDEST \t\t\teNumber, false);\\r\\n    }\\r\\n\\...\n      SWAP2 \t\t\t (uint256 totalPages, Types.Ky...\n      SWAP1 \t\t\t (uint256 totalPages, Types.Ky...\n      POP \t\t\t (uint256 totalPages, Types.Ky...\n      JUMP \t\t\t (uint256 totalPages, Types.Ky...\n    tag 940\t\t\tnOnKycRequest(\\r\\n        addr...\n      JUMPDEST \t\t\tnOnKycRequest(\\r\\n        addr...\n      PUSH 0\t\t\t_,\\r\\n\n      PUSH FFFFFFFFFFFFFFFF\t\t\tId_) {\\r\\n        st\n      DUP3 \t\t\tank(ba\n      GT \t\t\tidBank(bankId_) {\\r\\n        s...\n      ISZERO \t\t\tValidBank(bankId_) {\\r\\n      ...\n      PUSH [tag] 1131\t\t\tValidBank(bankId_) {\\r\\n      ...\n      JUMPI \t\t\tValidBank(bankId_) {\\r\\n      ...\n      PUSH [tag] 1132\t\t\t memory reqId_ = H\n      PUSH [tag] 718\t\t\t memory reqId_ = H\n      JUMP \t\t\t memory reqId_ = H\n    tag 1132\t\t\t memory reqId_ = H\n      JUMPDEST \t\t\t memory reqId_ = H\n    tag 1131\t\t\tValidBank(bankId_) {\\r\\n      ...\n      JUMPDEST \t\t\tValidBank(bankId_) {\\r\\n      ...\n      PUSH [tag] 1133\t\t\t_, msg.sender);\\r\\n        req...\n      DUP3 \t\t\t   req\n      PUSH [tag] 923\t\t\t_, msg.sender);\\r\\n        req...\n      JUMP \t\t\t_, msg.sender);\\r\\n        req...\n    tag 1133\t\t\t_, msg.sender);\\r\\n        req...\n      JUMPDEST \t\t\t_, msg.sender);\\r\\n        req...\n      SWAP1 \t\t\td(bankId_, msg.sender);\\r\\n   ...\n      POP \t\t\td(bankId_, msg.sender);\\r\\n   ...\n      PUSH 20\t\t\tq\");\n      DUP2 \t\t\tKYC \n      ADD \t\t\tave KYC req\");\\r\n      SWAP1 \t\t\toesn't have KYC req\");\\r\n      POP \t\t\toesn't have KYC req\");\\r\n      SWAP2 \t\t\tnOnKycRequest(\\r\\n        addr...\n      SWAP1 \t\t\tnOnKycRequest(\\r\\n        addr...\n      POP \t\t\tnOnKycRequest(\\r\\n        addr...\n      JUMP \t\t\tnOnKycRequest(\\r\\n        addr...\n    tag 941\t\t\tpes.DataHashStatus status_ = T...\n      JUMPDEST \t\t\tpes.DataHashStatus status_ = T...\n      DUP3 \t\t\tstatus\n      DUP2 \t\t\t   \n      DUP4 \t\t\t   \n      CALLDATACOPY \t\t\tprove_) {\\r\\n            statu...\n      PUSH 0\t\t\t\\n\n      DUP4 \t\t\tpprove\n      DUP4 \t\t\ttus\n      ADD \t\t\thStatus.Approved\n      MSTORE \t\t\tDataHashStatus.Approved;\\r\\n \n      POP \t\t\tpes.DataHashStatus status_ = T...\n      POP \t\t\tpes.DataHashStatus status_ = T...\n      POP \t\t\tpes.DataHashStatus status_ = T...\n      JUMP \t\t\tpes.DataHashStatus status_ = T...\n    tag 942\t\t\te {\\r\\n            status_ = T...\n      JUMPDEST \t\t\te {\\r\\n            status_ = T...\n      PUSH 0\t\t\tkycRe\n      PUSH [tag] 1136\t\t\tequest = status_;\\r\\n        k...\n      PUSH [tag] 1137\t\t\t;\\r\\n        kycRequests[reqId...\n      DUP5 \t\t\totes =\n      PUSH [tag] 940\t\t\t;\\r\\n        kycRequests[reqId...\n      JUMP \t\t\t;\\r\\n        kycRequests[reqId...\n    tag 1137\t\t\t;\\r\\n        kycRequests[reqId...\n      JUMPDEST \t\t\t;\\r\\n        kycRequests[reqId...\n      PUSH [tag] 939\t\t\tequest = status_;\\r\\n        k...\n      JUMP \t\t\tequest = status_;\\r\\n        k...\n    tag 1136\t\t\tequest = status_;\\r\\n        k...\n      JUMPDEST \t\t\tequest = status_;\\r\\n        k...\n      SWAP1 \t\t\td_].dataRequest = status_;\\r\\n...\n      POP \t\t\td_].dataRequest = status_;\\r\\n...\n      DUP3 \t\t\tataHas\n      DUP2 \t\t\t emit\n      MSTORE \t\t\t        emit DataHash\n      PUSH 20\t\t\tende\n      DUP2 \t\t\t, msg\n      ADD \t\t\tqId_, msg.sender\n      DUP5 \t\t\t  f\n      DUP5 \t\t\t  }\\r\\n\\r\n      DUP5 \t\t\t;\\r\\n\n      ADD \t\t\tus_);\\r\\n    }\\r\\n\\r\\n\n      GT \t\t\ttatus_);\\r\\n    }\\r\\n\\r\\n    f...\n      ISZERO \t\t\t, status_);\\r\\n    }\\r\\n\\r\\n  ...\n      PUSH [tag] 1138\t\t\t, status_);\\r\\n    }\\r\\n\\r\\n  ...\n      JUMPI \t\t\t, status_);\\r\\n    }\\r\\n\\r\\n  ...\n      PUSH [tag] 1139\t\t\tion updateProfile(\\r\\n        ...\n      PUSH [tag] 937\t\t\tion updateProfile(\\r\\n        ...\n      JUMP \t\t\tion updateProfile(\\r\\n        ...\n    tag 1139\t\t\tion updateProfile(\\r\\n        ...\n      JUMPDEST \t\t\tion updateProfile(\\r\\n        ...\n    tag 1138\t\t\t, status_);\\r\\n    }\\r\\n\\r\\n  ...\n      JUMPDEST \t\t\t, status_);\\r\\n    }\\r\\n\\r\\n  ...\n      PUSH [tag] 1140\t\t\tint256 mobile_\\r\\n    ) public...\n      DUP5 \t\t\tg.send\n      DUP3 \t\t\ter(\n      DUP6 \t\t\tust\n      PUSH [tag] 941\t\t\tint256 mobile_\\r\\n    ) public...\n      JUMP \t\t\tint256 mobile_\\r\\n    ) public...\n    tag 1140\t\t\tint256 mobile_\\r\\n    ) public...\n      JUMPDEST \t\t\tint256 mobile_\\r\\n    ) public...\n      POP \t\t\tuests[reqId_].dataRequest = st...\n      SWAP4 \t\t\te {\\r\\n            status_ = T...\n      SWAP3 \t\t\te {\\r\\n            status_ = T...\n      POP \t\t\te {\\r\\n            status_ = T...\n      POP \t\t\te {\\r\\n            status_ = T...\n      POP \t\t\te {\\r\\n            status_ = T...\n      JUMP \t\t\te {\\r\\n            status_ = T...\n    tag 943\t\t\te(name_, email_, mobile_);\\r\\n...\n      JUMPDEST \t\t\te(name_, email_, mobile_);\\r\\n...\n      PUSH 0\t\t\tn lis\n      DUP3 \t\t\t   \n      PUSH 1F\t\t\tame_\n      DUP4 \t\t\tname =\n      ADD \t\t\ter].name = name_;\n      SLT \t\t\tsender].name = name_;\\r\\n    \n      PUSH [tag] 1142\t\t\tusers[msg.sender].name = name_...\n      JUMPI \t\t\tusers[msg.sender].name = name_...\n      PUSH [tag] 1143\t\t\tusers[msg.sender].email = emai...\n      PUSH [tag] 936\t\t\tusers[msg.sender].email = emai...\n      JUMP \t\t\tusers[msg.sender].email = emai...\n    tag 1143\t\t\tusers[msg.sender].email = emai...\n      JUMPDEST \t\t\tusers[msg.sender].email = emai...\n    tag 1142\t\t\tusers[msg.sender].name = name_...\n      JUMPDEST \t\t\tusers[msg.sender].name = name_...\n      DUP2 \t\t\t hash_\n      CALLDATALOAD \t\t\t     * @param hash_ \n      PUSH [tag] 1144\t\t\tat need to be updated\\r\\n     ...\n      DUP5 \t\t\t ep\n      DUP3 \t\t\t in un\n      PUSH 20\t\t\tte T\n      DUP7 \t\t\trrent \n      ADD \t\t\t_ Current Date Ti\n      PUSH [tag] 942\t\t\tat need to be updated\\r\\n     ...\n      JUMP \t\t\tat need to be updated\\r\\n     ...\n    tag 1144\t\t\tat need to be updated\\r\\n     ...\n      JUMPDEST \t\t\tat need to be updated\\r\\n     ...\n      SWAP2 \t\t\t value that need to be updated...\n      POP \t\t\t value that need to be updated...\n      POP \t\t\t\\r\\n        users[msg.sender]....\n      SWAP3 \t\t\te(name_, email_, mobile_);\\r\\n...\n      SWAP2 \t\t\te(name_, email_, mobile_);\\r\\n...\n      POP \t\t\te(name_, email_, mobile_);\\r\\n...\n      POP \t\t\te(name_, email_, mobile_);\\r\\n...\n      JUMP \t\t\te(name_, email_, mobile_);\\r\\n...\n    tag 37\t\t\t\\r\\n     */\\r\\n    function up...\n      JUMPDEST \t\t\t\\r\\n     */\\r\\n    function up...\n      PUSH 0\t\t\te_)\\r\\n \n      DUP1 \t\t\t     p\n      PUSH 40\t\t\t\\n \n      DUP4 \t\t\tmsg.sende\n      DUP6 \t\t\tCustome\n      SUB \t\t\talidCustomer(msg.sender\n      SLT \t\t\t isValidCustomer(msg.sender)\\r...\n      ISZERO \t\t\t    isValidCustomer(msg.sender...\n      PUSH [tag] 1146\t\t\t    isValidCustomer(msg.sender...\n      JUMPI \t\t\t    isValidCustomer(msg.sender...\n      PUSH [tag] 1147\t\t\t\\r\\n        updatedatahash(has...\n      PUSH [tag] 914\t\t\t\\r\\n        updatedatahash(has...\n      JUMP \t\t\t\\r\\n        updatedatahash(has...\n    tag 1147\t\t\t\\r\\n        updatedatahash(has...\n      JUMPDEST \t\t\t\\r\\n        updatedatahash(has...\n    tag 1146\t\t\t    isValidCustomer(msg.sender...\n      JUMPDEST \t\t\t    isValidCustomer(msg.sender...\n      PUSH 0\t\t\ts\n      PUSH [tag] 1148\t\t\tustomerbanks[msg.sender];\\r\\n ...\n      DUP6 \t\t\t56 i = \n      DUP3 \t\t\tor (ui\n      DUP7 \t\t\t\\r\\n       \n      ADD \t\t\ter];\\r\\n        for (uin\n      PUSH [tag] 919\t\t\tustomerbanks[msg.sender];\\r\\n ...\n      JUMP \t\t\tustomerbanks[msg.sender];\\r\\n ...\n    tag 1148\t\t\tustomerbanks[msg.sender];\\r\\n ...\n      JUMPDEST \t\t\tustomerbanks[msg.sender];\\r\\n ...\n      SWAP3 \t\t\tsList_ = customerbanks[msg.sen...\n      POP \t\t\tsList_ = customerbanks[msg.sen...\n      POP \t\t\tfor all banks\\r\\n        addre...\n      PUSH 20\t\t\tpp\n      DUP4 \t\t\t= Helpers\n      ADD \t\t\tId_ = Helpers.appe\n      CALLDATALOAD \t\t\tng memory reqId_ = Helpers.app...\n      PUSH FFFFFFFFFFFFFFFF\t\t\t);\\r\\n            if\n      DUP2 \t\t\tg.send\n      GT \t\t\t msg.sender);\\r\\n            i...\n      ISZERO \t\t\ti], msg.sender);\\r\\n          ...\n      PUSH [tag] 1149\t\t\ti], msg.sender);\\r\\n          ...\n      JUMPI \t\t\ti], msg.sender);\\r\\n          ...\n      PUSH [tag] 1150\t\t\tcRequestExists(reqId_)) {\\r\\n ...\n      PUSH [tag] 915\t\t\tcRequestExists(reqId_)) {\\r\\n ...\n      JUMP \t\t\tcRequestExists(reqId_)) {\\r\\n ...\n    tag 1150\t\t\tcRequestExists(reqId_)) {\\r\\n ...\n      JUMPDEST \t\t\tcRequestExists(reqId_)) {\\r\\n ...\n    tag 1149\t\t\ti], msg.sender);\\r\\n          ...\n      JUMPDEST \t\t\ti], msg.sender);\\r\\n          ...\n      PUSH [tag] 1151\t\t\tests[reqId_].updatedOn = curre...\n      DUP6 \t\t\t kycReq\n      DUP3 \t\t\t      \n      DUP7 \t\t\te_;\\r\\n    \n      ADD \t\t\ttTime_;\\r\\n             \n      PUSH [tag] 943\t\t\tests[reqId_].updatedOn = curre...\n      JUMP \t\t\tests[reqId_].updatedOn = curre...\n    tag 1151\t\t\tests[reqId_].updatedOn = curre...\n      JUMPDEST \t\t\tests[reqId_].updatedOn = curre...\n      SWAP2 \t\t\t   kycRequests[reqId_].updated...\n      POP \t\t\t   kycRequests[reqId_].updated...\n      POP \t\t\tgth; i++) {\\r\\n            str...\n      SWAP3 \t\t\t\\r\\n     */\\r\\n    function up...\n      POP \t\t\t\\r\\n     */\\r\\n    function up...\n      SWAP3 \t\t\t\\r\\n     */\\r\\n    function up...\n      SWAP1 \t\t\t\\r\\n     */\\r\\n    function up...\n      POP \t\t\t\\r\\n     */\\r\\n    function up...\n      JUMP \t\t\t\\r\\n     */\\r\\n    function up...\n    tag 944\t\t\types.KycStatus.Pending;\\r\\n   ...\n      JUMPDEST \t\t\types.KycStatus.Pending;\\r\\n   ...\n      PUSH 0\t\t\t \n      DUP1 \t\t\t \n      REVERT \t\t\t\";\\r\\n        \n    tag 945\t\t\t   }\\r\\n    }\\r\\n\\r\\n    funct...\n      JUMPDEST \t\t\t   }\\r\\n    }\\r\\n\\r\\n    funct...\n      PUSH 0\t\t\t\\n\n      DUP1 \t\t\ti\n      REVERT \t\t\t   public\\r\\n \n    tag 946\t\t\tidCustomer(msg.sender)\\r\\n    ...\n      JUMPDEST \t\t\tidCustomer(msg.sender)\\r\\n    ...\n      PUSH [tag] 1155\t\t\tpend(bankId_, msg.sende\n      DUP2 \t\t\t.send\n      PUSH [tag] 929\t\t\tpend(bankId_, msg.sende\n      JUMP \t\t\tpend(bankId_, msg.sende\n    tag 1155\t\t\tpend(bankId_, msg.sende\n      JUMPDEST \t\t\tpend(bankId_, msg.sende\n      DUP2 \t\t\tpers.\n      EQ \t\t\tHelpers.append(bankId_, msg.se...\n      PUSH [tag] 1156\t\t\t reqId_ = Helpers.append(bankI...\n      JUMPI \t\t\t reqId_ = Helpers.append(bankI...\n      PUSH 0\t\t\tq\n      DUP1 \t\t\t \n      REVERT \t\t\t        requ\n    tag 1156\t\t\t reqId_ = Helpers.append(bankI...\n      JUMPDEST \t\t\t reqId_ = Helpers.append(bankI...\n      POP \t\t\tidCustomer(msg.sender)\\r\\n    ...\n      JUMP \t\t\tidCustomer(msg.sender)\\r\\n    ...\n    tag 947\t\t\tExists(reqId_), \"Permission no...\n      JUMPDEST \t\t\tExists(reqId_), \"Permission no...\n      PUSH 0\t\t\t     \n      DUP2 \t\t\t Types\n      CALLDATALOAD \t\t\tdataRequest = Types.\n      SWAP1 \t\t\t[reqId_].dataRequest = Types.\n      POP \t\t\t[reqId_].dataRequest = Types.\n      PUSH [tag] 1158\t\t\ttatus.Rejected;\\r\\n        kyc...\n      DUP2 \t\t\tycReq\n      PUSH [tag] 946\t\t\ttatus.Rejected;\\r\\n        kyc...\n      JUMP \t\t\ttatus.Rejected;\\r\\n        kyc...\n    tag 1158\t\t\ttatus.Rejected;\\r\\n        kyc...\n      JUMPDEST \t\t\ttatus.Rejected;\\r\\n        kyc...\n      SWAP3 \t\t\tExists(reqId_), \"Permission no...\n      SWAP2 \t\t\tExists(reqId_), \"Permission no...\n      POP \t\t\tExists(reqId_), \"Permission no...\n      POP \t\t\tExists(reqId_), \"Permission no...\n      JUMP \t\t\tExists(reqId_), \"Permission no...\n    tag 948\t\t\t.additionalNotes = notes_;\\r\\n...\n      JUMPDEST \t\t\t.additionalNotes = notes_;\\r\\n...\n      PUSH 2\t\t\t\\r\n      DUP2 \t\t\treqId\n      LT \t\t\t   reqId_,\\r\\n\n      PUSH [tag] 1160\t\t\t\\n            reqId_,\\r\\n     ...\n      JUMPI \t\t\t\\n            reqId_,\\r\\n     ...\n      PUSH 0\t\t\tg\n      DUP1 \t\t\t \n      REVERT \t\t\t        msg.\n    tag 1160\t\t\t\\n            reqId_,\\r\\n     ...\n      JUMPDEST \t\t\t\\n            reqId_,\\r\\n     ...\n      POP \t\t\t.additionalNotes = notes_;\\r\\n...\n      JUMP \t\t\t.additionalNotes = notes_;\\r\\n...\n    tag 949\t\t\t       bankId_,\\r\\n           ...\n      JUMPDEST \t\t\t       bankId_,\\r\\n           ...\n      PUSH 0\t\t\t     \n      DUP2 \t\t\thBanks\n      CALLDATALOAD \t\t\tunction searchBanks(\n      SWAP1 \t\t\t\\r\\n\\r\\n    function searchBan...\n      POP \t\t\t\\r\\n\\r\\n    function searchBan...\n      PUSH [tag] 1162\t\t\tankId_)\\r\\n        public\\r\\n ...\n      DUP2 \t\t\t     \n      PUSH [tag] 948\t\t\tankId_)\\r\\n        public\\r\\n ...\n      JUMP \t\t\tankId_)\\r\\n        public\\r\\n ...\n    tag 1162\t\t\tankId_)\\r\\n        public\\r\\n ...\n      JUMPDEST \t\t\tankId_)\\r\\n        public\\r\\n ...\n      SWAP3 \t\t\t       bankId_,\\r\\n           ...\n      SWAP2 \t\t\t       bankId_,\\r\\n           ...\n      POP \t\t\t       bankId_,\\r\\n           ...\n      POP \t\t\t       bankId_,\\r\\n           ...\n      JUMP \t\t\t       bankId_,\\r\\n           ...\n    tag 950\t\t\tsValidBank(bankId_)\\r\\n       ...\n      JUMPDEST \t\t\tsValidBank(bankId_)\\r\\n       ...\n      PUSH 0\t\t\tTypes\n      PUSH C0\t\t\tuest\n      DUP3 \t\t\tTypes.Kyc\n      DUP5 \t\t\t   \n      SUB \t\t\t         Types.KycR\n      SLT \t\t\t\\n            Types.KycRequest...\n      ISZERO \t\t\ty,\\r\\n            Types.KycReq...\n      PUSH [tag] 1164\t\t\ty,\\r\\n            Types.KycReq...\n      JUMPI \t\t\ty,\\r\\n            Types.KycReq...\n      PUSH [tag] 1165\t\t\tory\\r\\n        )\\r\\n    {\\r\\n ...\n      PUSH [tag] 944\t\t\tory\\r\\n        )\\r\\n    {\\r\\n ...\n      JUMP \t\t\tory\\r\\n        )\\r\\n    {\\r\\n ...\n    tag 1165\t\t\tory\\r\\n        )\\r\\n    {\\r\\n ...\n      JUMPDEST \t\t\tory\\r\\n        )\\r\\n    {\\r\\n ...\n    tag 1164\t\t\ty,\\r\\n            Types.KycReq...\n      JUMPDEST \t\t\ty,\\r\\n            Types.KycReq...\n      PUSH [tag] 1166\t\t\tuest memory request_;\n      PUSH C0\t\t\test_\n      PUSH [tag] 939\t\t\tuest memory request_;\n      JUMP \t\t\tuest memory request_;\n    tag 1166\t\t\tuest memory request_;\n      JUMPDEST \t\t\tuest memory request_;\n      SWAP1 \t\t\tes.KycRequest memory request_;\n      POP \t\t\tes.KycRequest memory request_;\n      PUSH 0\t\t\ti\n      DUP3 \t\t\tr (uint25\n      ADD \t\t\t  for (uint256 i \n      CALLDATALOAD \t\t\tr];\\r\\n\\r\\n        for (uint25...\n      PUSH FFFFFFFFFFFFFFFF\t\t\t {\\r\\n            if\n      DUP2 \t\t\tth; i+\n      GT \t\t\tength; i++) {\\r\\n            i...\n      ISZERO \t\t\t_.length; i++) {\\r\\n          ...\n      PUSH [tag] 1167\t\t\t_.length; i++) {\\r\\n          ...\n      JUMPI \t\t\t_.length; i++) {\\r\\n          ...\n      PUSH [tag] 1168\t\t\tnks_[i] == bankId_) {\\r\\n     ...\n      PUSH [tag] 945\t\t\tnks_[i] == bankId_) {\\r\\n     ...\n      JUMP \t\t\tnks_[i] == bankId_) {\\r\\n     ...\n    tag 1168\t\t\tnks_[i] == bankId_) {\\r\\n     ...\n      JUMPDEST \t\t\tnks_[i] == bankId_) {\\r\\n     ...\n    tag 1167\t\t\t_.length; i++) {\\r\\n          ...\n      JUMPDEST \t\t\t_.length; i++) {\\r\\n          ...\n      PUSH [tag] 1169\t\t\trequest_ = kycRequests[Helpers...\n      DUP5 \t\t\ter)\n      DUP3 \t\t\t msg.s\n      DUP6 \t\t\tnd(bankId\n      ADD \t\t\tappend(bankId_, msg.se\n      PUSH [tag] 943\t\t\trequest_ = kycRequests[Helpers...\n      JUMP \t\t\trequest_ = kycRequests[Helpers...\n    tag 1169\t\t\trequest_ = kycRequests[Helpers...\n      JUMPDEST \t\t\trequest_ = kycRequests[Helpers...\n      PUSH 0\t\t\t    \n      DUP4 \t\t\t     \n      ADD \t\t\t\\r\\n              \n      MSTORE \t\t\tnkId_);\\r\\n                req...\n      POP \t\t\taddress[] memory banks_ = cust...\n      PUSH 20\t\t\t}\\r\n      DUP3 \t\t\tst_);\\r\\n  \n      ADD \t\t\tequest_);\\r\\n    }\\r\\n\n      CALLDATALOAD \t\t\tnd_, bank_, request_);\\r\\n    ...\n      PUSH FFFFFFFFFFFFFFFF\t\t\tic view returns (T\n      DUP2 \t\t\tI() pu\n      GT \t\t\toAmI() public view returns (Ty\n      ISZERO \t\t\t whoAmI() public view returns ...\n      PUSH [tag] 1170\t\t\t whoAmI() public view returns ...\n      JUMPI \t\t\t whoAmI() public view returns ...\n      PUSH [tag] 1171\t\t\t.User memory) {\\r\\n        req...\n      PUSH [tag] 945\t\t\t.User memory) {\\r\\n        req...\n      JUMP \t\t\t.User memory) {\\r\\n        req...\n    tag 1171\t\t\t.User memory) {\\r\\n        req...\n      JUMPDEST \t\t\t.User memory) {\\r\\n        req...\n    tag 1170\t\t\t whoAmI() public view returns ...\n      JUMPDEST \t\t\t whoAmI() public view returns ...\n      PUSH [tag] 1172\t\t\t address(0), \"User Id Empty\");...\n      DUP5 \t\t\tg.s\n      DUP3 \t\t\t users\n      DUP6 \t\t\t     retu\n      ADD \t\t\t\\n        return users[\n      PUSH [tag] 943\t\t\t address(0), \"User Id Empty\");...\n      JUMP \t\t\t address(0), \"User Id Empty\");...\n    tag 1172\t\t\t address(0), \"User Id Empty\");...\n      JUMPDEST \t\t\t address(0), \"User Id Empty\");...\n      PUSH 20\t\t\t.id_\n      DUP4 \t\t\tsende\n      ADD \t\t\tmsg.sender].id_ \n      MSTORE \t\t\t(users[msg.sender].id_ != addr...\n      POP \t\t\tak;\\r\\n            }\\r\\n      ...\n      PUSH 40\t\t\t p\n      PUSH [tag] 1173\t\t\ttomer(id_)\\r\\n        returns ...\n      DUP5 \t\t\temo\n      DUP3 \t\t\tustome\n      DUP6 \t\t\tns (Types\n      ADD \t\t\teturns (Types.Customer\n      PUSH [tag] 919\t\t\ttomer(id_)\\r\\n        returns ...\n      JUMP \t\t\ttomer(id_)\\r\\n        returns ...\n    tag 1173\t\t\ttomer(id_)\\r\\n        returns ...\n      JUMPDEST \t\t\ttomer(id_)\\r\\n        returns ...\n      PUSH 40\t\t\talid\n      DUP4 \t\t\t    i\n      ADD \t\t\t        isValidC\n      MSTORE \t\t\t view\\r\\n        isValidCustom...\n      POP \t\t\tunction getCustomerDetails(add...\n      PUSH 60\t\t\t  \n      DUP3 \t\t\tress id_)\n      ADD \t\t\t(address id_)\\r\\n   \n      CALLDATALOAD \t\t\tetBankDetails(address id_)\\r\\n...\n      PUSH FFFFFFFFFFFFFFFF\t\t\t       isValidBank\n      DUP2 \t\t\t view\\r\n      GT \t\t\t    view\\r\\n        isValidBan...\n      ISZERO \t\t\t       view\\r\\n        isValid...\n      PUSH [tag] 1174\t\t\t       view\\r\\n        isValid...\n      JUMPI \t\t\t       view\\r\\n        isValid...\n      PUSH [tag] 1175\t\t\t)\\r\\n        returns (Types.Ba...\n      PUSH [tag] 945\t\t\t)\\r\\n        returns (Types.Ba...\n      JUMP \t\t\t)\\r\\n        returns (Types.Ba...\n    tag 1175\t\t\t)\\r\\n        returns (Types.Ba...\n      JUMPDEST \t\t\t)\\r\\n        returns (Types.Ba...\n    tag 1174\t\t\t       view\\r\\n        isValid...\n      JUMPDEST \t\t\t       view\\r\\n        isValid...\n      PUSH [tag] 1176\t\t\t\n      DUP5 \t\t\t\n      DUP3 \t\t\t\n      DUP6 \t\t\t\n      ADD \t\t\t\n      PUSH [tag] 943\t\t\t\n      JUMP \t\t\t\n    tag 1176\t\t\t\n      JUMPDEST \t\t\t\n      PUSH 60\t\t\t\n      DUP4 \t\t\t\n      ADD \t\t\t\n      MSTORE \t\t\t\n      POP \t\t\turn getcustomerdetails(id_);\\r...\n      PUSH 80\t\t\t\n      PUSH [tag] 1177\t\t\t\n      DUP5 \t\t\t\n      DUP3 \t\t\t\n      DUP6 \t\t\t\n      ADD \t\t\t\n      PUSH [tag] 947\t\t\t\n      JUMP \t\t\t\n    tag 1177\t\t\t\n      JUMPDEST \t\t\t\n      PUSH 80\t\t\t\n      DUP4 \t\t\t\n      ADD \t\t\t\n      MSTORE \t\t\t\n      POP \t\t\t\n      PUSH A0\t\t\t\n      PUSH [tag] 1178\t\t\t\n      DUP5 \t\t\t\n      DUP3 \t\t\t\n      DUP6 \t\t\t\n      ADD \t\t\t\n      PUSH [tag] 949\t\t\t\n      JUMP \t\t\t\n    tag 1178\t\t\t\n      JUMPDEST \t\t\t\n      PUSH A0\t\t\t\n      DUP4 \t\t\t\n      ADD \t\t\t\n      MSTORE \t\t\t\n      POP \t\t\t\n      SWAP3 \t\t\tsValidBank(bankId_)\\r\\n       ...\n      SWAP2 \t\t\tsValidBank(bankId_)\\r\\n       ...\n      POP \t\t\tsValidBank(bankId_)\\r\\n       ...\n      POP \t\t\tsValidBank(bankId_)\\r\\n       ...\n      JUMP \t\t\tsValidBank(bankId_)\\r\\n       ...\n    tag 41\t\t\t\n      JUMPDEST \t\t\t\n      PUSH 0\t\t\t\n      PUSH 20\t\t\t\n      DUP3 \t\t\t\n      DUP5 \t\t\t\n      SUB \t\t\t\n      SLT \t\t\t\n      ISZERO \t\t\t\n      PUSH [tag] 1180\t\t\t\n      JUMPI \t\t\t\n      PUSH [tag] 1181\t\t\t\n      PUSH [tag] 914\t\t\t\n      JUMP \t\t\t\n    tag 1181\t\t\t\n      JUMPDEST \t\t\t\n    tag 1180\t\t\t\n      JUMPDEST \t\t\t\n      PUSH 0\t\t\t\n      DUP3 \t\t\t\n      ADD \t\t\t\n      CALLDATALOAD \t\t\t\n      PUSH FFFFFFFFFFFFFFFF\t\t\t\n      DUP2 \t\t\t\n      GT \t\t\t\n      ISZERO \t\t\t\n      PUSH [tag] 1182\t\t\t\n      JUMPI \t\t\t\n      PUSH [tag] 1183\t\t\t\n      PUSH [tag] 915\t\t\t\n      JUMP \t\t\t\n    tag 1183\t\t\t\n      JUMPDEST \t\t\t\n    tag 1182\t\t\t\n      JUMPDEST \t\t\t\n      PUSH [tag] 1184\t\t\t\n      DUP5 \t\t\t\n      DUP3 \t\t\t\n      DUP6 \t\t\t\n      ADD \t\t\t\n      PUSH [tag] 950\t\t\t\n      JUMP \t\t\t\n    tag 1184\t\t\t\n      JUMPDEST \t\t\t\n      SWAP2 \t\t\t\n      POP \t\t\t\n      POP \t\t\t\n      SWAP3 \t\t\t\n      SWAP2 \t\t\t\n      POP \t\t\t\n      POP \t\t\t\n      JUMP \t\t\t\n    tag 951\t\t\t\n      JUMPDEST \t\t\t\n      PUSH 0\t\t\t\n      DUP2 \t\t\t\n      ISZERO \t\t\t\n      ISZERO \t\t\t\n      SWAP1 \t\t\t\n      POP \t\t\t\n      SWAP2 \t\t\t\n      SWAP1 \t\t\t\n      POP \t\t\t\n      JUMP \t\t\t\n    tag 952\t\t\t\n      JUMPDEST \t\t\t\n      PUSH [tag] 1187\t\t\t\n      DUP2 \t\t\t\n      PUSH [tag] 951\t\t\t\n      JUMP \t\t\t\n    tag 1187\t\t\t\n      JUMPDEST \t\t\t\n      DUP3 \t\t\t\n      MSTORE \t\t\t\n      POP \t\t\t\n      POP \t\t\t\n      JUMP \t\t\t\n    tag 953\t\t\t\n      JUMPDEST \t\t\t\n      PUSH 3\t\t\t\n      DUP2 \t\t\t\n      LT \t\t\t\n      PUSH [tag] 1189\t\t\t\n      JUMPI \t\t\t\n      PUSH [tag] 1190\t\t\t\n      PUSH [tag] 135\t\t\t\n      JUMP \t\t\t\n    tag 1190\t\t\t\n      JUMPDEST \t\t\t\n    tag 1189\t\t\t\n      JUMPDEST \t\t\t\n      POP \t\t\t\n      JUMP \t\t\t\n    tag 954\t\t\t\n      JUMPDEST \t\t\t\n      PUSH 0\t\t\t\n      DUP2 \t\t\t\n      SWAP1 \t\t\t\n      POP \t\t\t\n      PUSH [tag] 1192\t\t\t\n      DUP3 \t\t\t\n      PUSH [tag] 953\t\t\t\n      JUMP \t\t\t\n    tag 1192\t\t\t\n      JUMPDEST \t\t\t\n      SWAP2 \t\t\t\n      SWAP1 \t\t\t\n      POP \t\t\t\n      JUMP \t\t\t\n    tag 955\t\t\t\n      JUMPDEST \t\t\t\n      PUSH 0\t\t\t\n      PUSH [tag] 1194\t\t\t\n      DUP3 \t\t\t\n      PUSH [tag] 954\t\t\t\n      JUMP \t\t\t\n    tag 1194\t\t\t\n      JUMPDEST \t\t\t\n      SWAP1 \t\t\t\n      POP \t\t\t\n      SWAP2 \t\t\t\n      SWAP1 \t\t\t\n      POP \t\t\t\n      JUMP \t\t\t\n    tag 956\t\t\t\n      JUMPDEST \t\t\t\n      PUSH [tag] 1196\t\t\t\n      DUP2 \t\t\t\n      PUSH [tag] 955\t\t\t\n      JUMP \t\t\t\n    tag 1196\t\t\t\n      JUMPDEST \t\t\t\n      DUP3 \t\t\t\n      MSTORE \t\t\t\n      POP \t\t\t\n      POP \t\t\t\n      JUMP \t\t\t\n    tag 957\t\t\t\n      JUMPDEST \t\t\t\n      PUSH 3\t\t\t\n      DUP2 \t\t\t\n      LT \t\t\t\n      PUSH [tag] 1198\t\t\t\n      JUMPI \t\t\t\n      PUSH [tag] 1199\t\t\t\n      PUSH [tag] 135\t\t\t\n      JUMP \t\t\t\n    tag 1199\t\t\t\n      JUMPDEST \t\t\t\n    tag 1198\t\t\t\n      JUMPDEST \t\t\t\n      POP \t\t\t\n      JUMP \t\t\t\n    tag 958\t\t\t\n      JUMPDEST \t\t\t\n      PUSH 0\t\t\t\n      DUP2 \t\t\t\n      SWAP1 \t\t\t\n      POP \t\t\t\n      PUSH [tag] 1201\t\t\t\n      DUP3 \t\t\t\n      PUSH [tag] 957\t\t\t\n      JUMP \t\t\t\n    tag 1201\t\t\t\n      JUMPDEST \t\t\t\n      SWAP2 \t\t\t\n      SWAP1 \t\t\t\n      POP \t\t\t\n      JUMP \t\t\t\n    tag 959\t\t\t\n      JUMPDEST \t\t\t\n      PUSH 0\t\t\t\n      PUSH [tag] 1203\t\t\t\n      DUP3 \t\t\t\n      PUSH [tag] 958\t\t\t\n      JUMP \t\t\t\n    tag 1203\t\t\t\n      JUMPDEST \t\t\t\n      SWAP1 \t\t\t\n      POP \t\t\t\n      SWAP2 \t\t\t\n      SWAP1 \t\t\t\n      POP \t\t\t\n      JUMP \t\t\t\n    tag 960\t\t\t\n      JUMPDEST \t\t\t\n      PUSH [tag] 1205\t\t\t\n      DUP2 \t\t\t\n      PUSH [tag] 959\t\t\t\n      JUMP \t\t\t\n    tag 1205\t\t\t\n      JUMPDEST \t\t\t\n      DUP3 \t\t\t\n      MSTORE \t\t\t\n      POP \t\t\t\n      POP \t\t\t\n      JUMP \t\t\t\n    tag 961\t\t\t\n      JUMPDEST \t\t\t\n      PUSH 0\t\t\t\n      PUSH 140\t\t\t\n      DUP4 \t\t\t\n      ADD \t\t\t\n      PUSH 0\t\t\t\n      DUP4 \t\t\t\n      ADD \t\t\t\n      MLOAD \t\t\t\n      DUP5 \t\t\t\n      DUP3 \t\t\t\n      SUB \t\t\t\n      PUSH 0\t\t\t\n      DUP7 \t\t\t\n      ADD \t\t\t\n      MSTORE \t\t\t\n      PUSH [tag] 1207\t\t\t\n      DUP3 \t\t\t\n      DUP3 \t\t\t\n      PUSH [tag] 924\t\t\t\n      JUMP \t\t\t\n    tag 1207\t\t\t\n      JUMPDEST \t\t\t\n      SWAP2 \t\t\t\n      POP \t\t\t\n      POP \t\t\t\n      PUSH 20\t\t\t\n      DUP4 \t\t\t\n      ADD \t\t\t\n      MLOAD \t\t\t\n      PUSH [tag] 1208\t\t\t\n      PUSH 20\t\t\t\n      DUP7 \t\t\t\n      ADD \t\t\t\n      DUP3 \t\t\t\n      PUSH [tag] 927\t\t\t\n      JUMP \t\t\t\n    tag 1208\t\t\t\n      JUMPDEST \t\t\t\n      POP \t\t\t\n      PUSH 40\t\t\t\n      DUP4 \t\t\t\n      ADD \t\t\t\n      MLOAD \t\t\t\n      DUP5 \t\t\t\n      DUP3 \t\t\t\n      SUB \t\t\t\n      PUSH 40\t\t\t\n      DUP7 \t\t\t\n      ADD \t\t\t\n      MSTORE \t\t\t\n      PUSH [tag] 1209\t\t\t\n      DUP3 \t\t\t\n      DUP3 \t\t\t\n      PUSH [tag] 924\t\t\t\n      JUMP \t\t\t\n    tag 1209\t\t\t\n      JUMPDEST \t\t\t\n      SWAP2 \t\t\t\n      POP \t\t\t\n      POP \t\t\t\n      PUSH 60\t\t\t\n      DUP4 \t\t\t\n      ADD \t\t\t\n      MLOAD \t\t\t\n      PUSH [tag] 1210\t\t\t\n      PUSH 60\t\t\t\n      DUP7 \t\t\t\n      ADD \t\t\t\n      DUP3 \t\t\t\n      PUSH [tag] 927\t\t\t\n      JUMP \t\t\t\n    tag 1210\t\t\t\n      JUMPDEST \t\t\t\n      POP \t\t\t\n      PUSH 80\t\t\t\n      DUP4 \t\t\t\n      ADD \t\t\t\n      MLOAD \t\t\t\n      DUP5 \t\t\t\n      DUP3 \t\t\t\n      SUB \t\t\t\n      PUSH 80\t\t\t\n      DUP7 \t\t\t\n      ADD \t\t\t\n      MSTORE \t\t\t\n      PUSH [tag] 1211\t\t\t\n      DUP3 \t\t\t\n      DUP3 \t\t\t\n      PUSH [tag] 924\t\t\t\n      JUMP \t\t\t\n    tag 1211\t\t\t\n      JUMPDEST \t\t\t\n      SWAP2 \t\t\t\n      POP \t\t\t\n      POP \t\t\t\n      PUSH A0\t\t\t\n      DUP4 \t\t\t\n      ADD \t\t\t\n      MLOAD \t\t\t\n      DUP5 \t\t\t\n      DUP3 \t\t\t\n      SUB \t\t\t\n      PUSH A0\t\t\t\n      DUP7 \t\t\t\n      ADD \t\t\t\n      MSTORE \t\t\t\n      PUSH [tag] 1212\t\t\t\n      DUP3 \t\t\t\n      DUP3 \t\t\t\n      PUSH [tag] 924\t\t\t\n      JUMP \t\t\t\n    tag 1212\t\t\t\n      JUMPDEST \t\t\t\n      SWAP2 \t\t\t\n      POP \t\t\t\n      POP \t\t\t\n      PUSH C0\t\t\t\n      DUP4 \t\t\t\n      ADD \t\t\t\n      MLOAD \t\t\t\n      PUSH [tag] 1213\t\t\t\n      PUSH C0\t\t\t\n      DUP7 \t\t\t\n      ADD \t\t\t\n      DUP3 \t\t\t\n      PUSH [tag] 926\t\t\t\n      JUMP \t\t\t\n    tag 1213\t\t\t\n      JUMPDEST \t\t\t\n      POP \t\t\t\n      PUSH E0\t\t\t\n      DUP4 \t\t\t\n      ADD \t\t\t\n      MLOAD \t\t\t\n      PUSH [tag] 1214\t\t\t\n      PUSH E0\t\t\t\n      DUP7 \t\t\t\n      ADD \t\t\t\n      DUP3 \t\t\t\n      PUSH [tag] 956\t\t\t\n      JUMP \t\t\t\n    tag 1214\t\t\t\n      JUMPDEST \t\t\t\n      POP \t\t\t\n      PUSH 100\t\t\t\n      DUP4 \t\t\t\n      ADD \t\t\t\n      MLOAD \t\t\t\n      PUSH [tag] 1215\t\t\t\n      PUSH 100\t\t\t\n      DUP7 \t\t\t\n      ADD \t\t\t\n      DUP3 \t\t\t\n      PUSH [tag] 960\t\t\t\n      JUMP \t\t\t\n    tag 1215\t\t\t\n      JUMPDEST \t\t\t\n      POP \t\t\t\n      PUSH 120\t\t\t\n      DUP4 \t\t\t\n      ADD \t\t\t\n      MLOAD \t\t\t\n      DUP5 \t\t\t\n      DUP3 \t\t\t\n      SUB \t\t\t\n      PUSH 120\t\t\t\n      DUP7 \t\t\t\n      ADD \t\t\t\n      MSTORE \t\t\t\n      PUSH [tag] 1216\t\t\t\n      DUP3 \t\t\t\n      DUP3 \t\t\t\n      PUSH [tag] 924\t\t\t\n      JUMP \t\t\t\n    tag 1216\t\t\t\n      JUMPDEST \t\t\t\n      SWAP2 \t\t\t\n      POP \t\t\t\n      POP \t\t\t\n      DUP1 \t\t\t\n      SWAP2 \t\t\t\n      POP \t\t\t\n      POP \t\t\t\n      SWAP3 \t\t\t\n      SWAP2 \t\t\t\n      POP \t\t\t\n      POP \t\t\t\n      JUMP \t\t\t\n    tag 47\t\t\t\n      JUMPDEST \t\t\t\n      PUSH 0\t\t\t\n      PUSH 60\t\t\t\n      DUP3 \t\t\t\n      ADD \t\t\t\n      SWAP1 \t\t\t\n      POP \t\t\t\n      PUSH [tag] 1218\t\t\t\n      PUSH 0\t\t\t\n      DUP4 \t\t\t\n      ADD \t\t\t\n      DUP7 \t\t\t\n      PUSH [tag] 952\t\t\t\n      JUMP \t\t\t\n    tag 1218\t\t\t\n      JUMPDEST \t\t\t\n      DUP2 \t\t\t\n      DUP2 \t\t\t\n      SUB \t\t\t\n      PUSH 20\t\t\t\n      DUP4 \t\t\t\n      ADD \t\t\t\n      MSTORE \t\t\t\n      PUSH [tag] 1219\t\t\t\n      DUP2 \t\t\t\n      DUP6 \t\t\t\n      PUSH [tag] 935\t\t\t\n      JUMP \t\t\t\n    tag 1219\t\t\t\n      JUMPDEST \t\t\t\n      SWAP1 \t\t\t\n      POP \t\t\t\n      DUP2 \t\t\t\n      DUP2 \t\t\t\n      SUB \t\t\t\n      PUSH 40\t\t\t\n      DUP4 \t\t\t\n      ADD \t\t\t\n      MSTORE \t\t\t\n      PUSH [tag] 1220\t\t\t\n      DUP2 \t\t\t\n      DUP5 \t\t\t\n      PUSH [tag] 961\t\t\t\n      JUMP \t\t\t\n    tag 1220\t\t\t\n      JUMPDEST \t\t\t\n      SWAP1 \t\t\t\n      POP \t\t\t\n      SWAP5 \t\t\t\n      SWAP4 \t\t\t\n      POP \t\t\t\n      POP \t\t\t\n      POP \t\t\t\n      POP \t\t\t\n      JUMP \t\t\t\n    tag 962\t\t\t\n      JUMPDEST \t\t\t\n      PUSH [tag] 1222\t\t\t\n      DUP2 \t\t\t\n      PUSH [tag] 951\t\t\t\n      JUMP \t\t\t\n    tag 1222\t\t\t\n      JUMPDEST \t\t\t\n      DUP2 \t\t\t\n      EQ \t\t\t\n      PUSH [tag] 1223\t\t\t\n      JUMPI \t\t\t\n      PUSH 0\t\t\t\n      DUP1 \t\t\t\n      REVERT \t\t\t\n    tag 1223\t\t\t\n      JUMPDEST \t\t\t\n      POP \t\t\t\n      JUMP \t\t\t\n    tag 963\t\t\t\n      JUMPDEST \t\t\t\n      PUSH 0\t\t\t\n      DUP2 \t\t\t\n      CALLDATALOAD \t\t\t\n      SWAP1 \t\t\t\n      POP \t\t\t\n      PUSH [tag] 1225\t\t\t\n      DUP2 \t\t\t\n      PUSH [tag] 962\t\t\t\n      JUMP \t\t\t\n    tag 1225\t\t\t\n      JUMPDEST \t\t\t\n      SWAP3 \t\t\t\n      SWAP2 \t\t\t\n      POP \t\t\t\n      POP \t\t\t\n      JUMP \t\t\t\n    tag 50\t\t\t\n      JUMPDEST \t\t\t\n      PUSH 0\t\t\t\n      DUP1 \t\t\t\n      PUSH 0\t\t\t\n      PUSH 60\t\t\t\n      DUP5 \t\t\t\n      DUP7 \t\t\t\n      SUB \t\t\t\n      SLT \t\t\t\n      ISZERO \t\t\t\n      PUSH [tag] 1227\t\t\t\n      JUMPI \t\t\t\n      PUSH [tag] 1228\t\t\t\n      PUSH [tag] 914\t\t\t\n      JUMP \t\t\t\n    tag 1228\t\t\t\n      JUMPDEST \t\t\t\n    tag 1227\t\t\t\n      JUMPDEST \t\t\t\n      PUSH 0\t\t\t\n      PUSH [tag] 1229\t\t\t\n      DUP7 \t\t\t\n      DUP3 \t\t\t\n      DUP8 \t\t\t\n      ADD \t\t\t\n      PUSH [tag] 919\t\t\t\n      JUMP \t\t\t\n    tag 1229\t\t\t\n      JUMPDEST \t\t\t\n      SWAP4 \t\t\t\n      POP \t\t\t\n      POP \t\t\t\n      PUSH 20\t\t\t\n      PUSH [tag] 1230\t\t\t\n      DUP7 \t\t\t\n      DUP3 \t\t\t\n      DUP8 \t\t\t\n      ADD \t\t\t\n      PUSH [tag] 963\t\t\t\n      JUMP \t\t\t\n    tag 1230\t\t\t\n      JUMPDEST \t\t\t\n      SWAP3 \t\t\t\n      POP \t\t\t\n      POP \t\t\t\n      PUSH 40\t\t\t\n      DUP5 \t\t\t\n      ADD \t\t\t\n      CALLDATALOAD \t\t\t\n      PUSH FFFFFFFFFFFFFFFF\t\t\t\n      DUP2 \t\t\t\n      GT \t\t\t\n      ISZERO \t\t\t\n      PUSH [tag] 1231\t\t\t\n      JUMPI \t\t\t\n      PUSH [tag] 1232\t\t\t\n      PUSH [tag] 915\t\t\t\n      JUMP \t\t\t\n    tag 1232\t\t\t\n      JUMPDEST \t\t\t\n    tag 1231\t\t\t\n      JUMPDEST \t\t\t\n      PUSH [tag] 1233\t\t\t\n      DUP7 \t\t\t\n      DUP3 \t\t\t\n      DUP8 \t\t\t\n      ADD \t\t\t\n      PUSH [tag] 943\t\t\t\n      JUMP \t\t\t\n    tag 1233\t\t\t\n      JUMPDEST \t\t\t\n      SWAP2 \t\t\t\n      POP \t\t\t\n      POP \t\t\t\n      SWAP3 \t\t\t\n      POP \t\t\t\n      SWAP3 \t\t\t\n      POP \t\t\t\n      SWAP3 \t\t\t\n      JUMP \t\t\t\n    tag 54\t\t\t\n      JUMPDEST \t\t\t\n      PUSH 0\t\t\t\n      DUP1 \t\t\t\n      PUSH 0\t\t\t\n      PUSH 60\t\t\t\n      DUP5 \t\t\t\n      DUP7 \t\t\t\n      SUB \t\t\t\n      SLT \t\t\t\n      ISZERO \t\t\t\n      PUSH [tag] 1235\t\t\t\n      JUMPI \t\t\t\n      PUSH [tag] 1236\t\t\t\n      PUSH [tag] 914\t\t\t\n      JUMP \t\t\t\n    tag 1236\t\t\t\n      JUMPDEST \t\t\t\n    tag 1235\t\t\t\n      JUMPDEST \t\t\t\n      PUSH 0\t\t\t\n      PUSH [tag] 1237\t\t\t\n      DUP7 \t\t\t\n      DUP3 \t\t\t\n      DUP8 \t\t\t\n      ADD \t\t\t\n      PUSH [tag] 919\t\t\t\n      JUMP \t\t\t\n    tag 1237\t\t\t\n      JUMPDEST \t\t\t\n      SWAP4 \t\t\t\n      POP \t\t\t\n      POP \t\t\t\n      PUSH 20\t\t\t\n      DUP5 \t\t\t\n      ADD \t\t\t\n      CALLDATALOAD \t\t\t\n      PUSH FFFFFFFFFFFFFFFF\t\t\t\n      DUP2 \t\t\t\n      GT \t\t\t\n      ISZERO \t\t\t\n      PUSH [tag] 1238\t\t\t\n      JUMPI \t\t\t\n      PUSH [tag] 1239\t\t\t\n      PUSH [tag] 915\t\t\t\n      JUMP \t\t\t\n    tag 1239\t\t\t\n      JUMPDEST \t\t\t\n    tag 1238\t\t\t\n      JUMPDEST \t\t\t\n      PUSH [tag] 1240\t\t\t\n      DUP7 \t\t\t\n      DUP3 \t\t\t\n      DUP8 \t\t\t\n      ADD \t\t\t\n      PUSH [tag] 943\t\t\t\n      JUMP \t\t\t\n    tag 1240\t\t\t\n      JUMPDEST \t\t\t\n      SWAP3 \t\t\t\n      POP \t\t\t\n      POP \t\t\t\n      PUSH 40\t\t\t\n      DUP5 \t\t\t\n      ADD \t\t\t\n      CALLDATALOAD \t\t\t\n      PUSH FFFFFFFFFFFFFFFF\t\t\t\n      DUP2 \t\t\t\n      GT \t\t\t\n      ISZERO \t\t\t\n      PUSH [tag] 1241\t\t\t\n      JUMPI \t\t\t\n      PUSH [tag] 1242\t\t\t\n      PUSH [tag] 915\t\t\t\n      JUMP \t\t\t\n    tag 1242\t\t\t\n      JUMPDEST \t\t\t\n    tag 1241\t\t\t\n      JUMPDEST \t\t\t\n      PUSH [tag] 1243\t\t\t\n      DUP7 \t\t\t\n      DUP3 \t\t\t\n      DUP8 \t\t\t\n      ADD \t\t\t\n      PUSH [tag] 943\t\t\t\n      JUMP \t\t\t\n    tag 1243\t\t\t\n      JUMPDEST \t\t\t\n      SWAP2 \t\t\t\n      POP \t\t\t\n      POP \t\t\t\n      SWAP3 \t\t\t\n      POP \t\t\t\n      SWAP3 \t\t\t\n      POP \t\t\t\n      SWAP3 \t\t\t\n      JUMP \t\t\t\n    tag 964\t\t\t\n      JUMPDEST \t\t\t\n      PUSH [tag] 1245\t\t\t\n      DUP2 \t\t\t\n      PUSH [tag] 925\t\t\t\n      JUMP \t\t\t\n    tag 1245\t\t\t\n      JUMPDEST \t\t\t\n      DUP2 \t\t\t\n      EQ \t\t\t\n      PUSH [tag] 1246\t\t\t\n      JUMPI \t\t\t\n      PUSH 0\t\t\t\n      DUP1 \t\t\t\n      REVERT \t\t\t\n    tag 1246\t\t\t\n      JUMPDEST \t\t\t\n      POP \t\t\t\n      JUMP \t\t\t\n    tag 965\t\t\t\n      JUMPDEST \t\t\t\n      PUSH 0\t\t\t\n      DUP2 \t\t\t\n      CALLDATALOAD \t\t\t\n      SWAP1 \t\t\t\n      POP \t\t\t\n      PUSH [tag] 1248\t\t\t\n      DUP2 \t\t\t\n      PUSH [tag] 964\t\t\t\n      JUMP \t\t\t\n    tag 1248\t\t\t\n      JUMPDEST \t\t\t\n      SWAP3 \t\t\t\n      SWAP2 \t\t\t\n      POP \t\t\t\n      POP \t\t\t\n      JUMP \t\t\t\n    tag 61\t\t\t\n      JUMPDEST \t\t\t\n      PUSH 0\t\t\t\n      PUSH 20\t\t\t\n      DUP3 \t\t\t\n      DUP5 \t\t\t\n      SUB \t\t\t\n      SLT \t\t\t\n      ISZERO \t\t\t\n      PUSH [tag] 1250\t\t\t\n      JUMPI \t\t\t\n      PUSH [tag] 1251\t\t\t\n      PUSH [tag] 914\t\t\t\n      JUMP \t\t\t\n    tag 1251\t\t\t\n      JUMPDEST \t\t\t\n    tag 1250\t\t\t\n      JUMPDEST \t\t\t\n      PUSH 0\t\t\t\n      PUSH [tag] 1252\t\t\t\n      DUP5 \t\t\t\n      DUP3 \t\t\t\n      DUP6 \t\t\t\n      ADD \t\t\t\n      PUSH [tag] 965\t\t\t\n      JUMP \t\t\t\n    tag 1252\t\t\t\n      JUMPDEST \t\t\t\n      SWAP2 \t\t\t\n      POP \t\t\t\n      POP \t\t\t\n      SWAP3 \t\t\t\n      SWAP2 \t\t\t\n      POP \t\t\t\n      POP \t\t\t\n      JUMP \t\t\t\n    tag 966\t\t\t\n      JUMPDEST \t\t\t\n      PUSH [tag] 1254\t\t\t\n      DUP2 \t\t\t\n      PUSH [tag] 925\t\t\t\n      JUMP \t\t\t\n    tag 1254\t\t\t\n      JUMPDEST \t\t\t\n      DUP3 \t\t\t\n      MSTORE \t\t\t\n      POP \t\t\t\n      POP \t\t\t\n      JUMP \t\t\t\n    tag 967\t\t\t\n      JUMPDEST \t\t\t\n      PUSH 0\t\t\t\n      DUP2 \t\t\t\n      MLOAD \t\t\t\n      SWAP1 \t\t\t\n      POP \t\t\t\n      SWAP2 \t\t\t\n      SWAP1 \t\t\t\n      POP \t\t\t\n      JUMP \t\t\t\n    tag 968\t\t\t\n      JUMPDEST \t\t\t\n      PUSH 0\t\t\t\n      DUP3 \t\t\t\n      DUP3 \t\t\t\n      MSTORE \t\t\t\n      PUSH 20\t\t\t\n      DUP3 \t\t\t\n      ADD \t\t\t\n      SWAP1 \t\t\t\n      POP \t\t\t\n      SWAP3 \t\t\t\n      SWAP2 \t\t\t\n      POP \t\t\t\n      POP \t\t\t\n      JUMP \t\t\t\n    tag 969\t\t\t\n      JUMPDEST \t\t\t\n      PUSH 0\t\t\t\n      DUP2 \t\t\t\n      SWAP1 \t\t\t\n      POP \t\t\t\n      PUSH 20\t\t\t\n      DUP3 \t\t\t\n      ADD \t\t\t\n      SWAP1 \t\t\t\n      POP \t\t\t\n      SWAP2 \t\t\t\n      SWAP1 \t\t\t\n      POP \t\t\t\n      JUMP \t\t\t\n    tag 970\t\t\t\n      JUMPDEST \t\t\t\n      PUSH 0\t\t\t\n      PUSH C0\t\t\t\n      DUP4 \t\t\t\n      ADD \t\t\t\n      PUSH 0\t\t\t\n      DUP4 \t\t\t\n      ADD \t\t\t\n      MLOAD \t\t\t\n      DUP5 \t\t\t\n      DUP3 \t\t\t\n      SUB \t\t\t\n      PUSH 0\t\t\t\n      DUP7 \t\t\t\n      ADD \t\t\t\n      MSTORE \t\t\t\n      PUSH [tag] 1259\t\t\t\n      DUP3 \t\t\t\n      DUP3 \t\t\t\n      PUSH [tag] 924\t\t\t\n      JUMP \t\t\t\n    tag 1259\t\t\t\n      JUMPDEST \t\t\t\n      SWAP2 \t\t\t\n      POP \t\t\t\n      POP \t\t\t\n      PUSH 20\t\t\t\n      DUP4 \t\t\t\n      ADD \t\t\t\n      MLOAD \t\t\t\n      DUP5 \t\t\t\n      DUP3 \t\t\t\n      SUB \t\t\t\n      PUSH 20\t\t\t\n      DUP7 \t\t\t\n      ADD \t\t\t\n      MSTORE \t\t\t\n      PUSH [tag] 1260\t\t\t\n      DUP3 \t\t\t\n      DUP3 \t\t\t\n      PUSH [tag] 924\t\t\t\n      JUMP \t\t\t\n    tag 1260\t\t\t\n      JUMPDEST \t\t\t\n      SWAP2 \t\t\t\n      POP \t\t\t\n      POP \t\t\t\n      PUSH 40\t\t\t\n      DUP4 \t\t\t\n      ADD \t\t\t\n      MLOAD \t\t\t\n      PUSH [tag] 1261\t\t\t\n      PUSH 40\t\t\t\n      DUP7 \t\t\t\n      ADD \t\t\t\n      DUP3 \t\t\t\n      PUSH [tag] 927\t\t\t\n      JUMP \t\t\t\n    tag 1261\t\t\t\n      JUMPDEST \t\t\t\n      POP \t\t\t\n      PUSH 60\t\t\t\n      DUP4 \t\t\t\n      ADD \t\t\t\n      MLOAD \t\t\t\n      DUP5 \t\t\t\n      DUP3 \t\t\t\n      SUB \t\t\t\n      PUSH 60\t\t\t\n      DUP7 \t\t\t\n      ADD \t\t\t\n      MSTORE \t\t\t\n      PUSH [tag] 1262\t\t\t\n      DUP3 \t\t\t\n      DUP3 \t\t\t\n      PUSH [tag] 924\t\t\t\n      JUMP \t\t\t\n    tag 1262\t\t\t\n      JUMPDEST \t\t\t\n      SWAP2 \t\t\t\n      POP \t\t\t\n      POP \t\t\t\n      PUSH 80\t\t\t\n      DUP4 \t\t\t\n      ADD \t\t\t\n      MLOAD \t\t\t\n      PUSH [tag] 1263\t\t\t\n      PUSH 80\t\t\t\n      DUP7 \t\t\t\n      ADD \t\t\t\n      DUP3 \t\t\t\n      PUSH [tag] 930\t\t\t\n      JUMP \t\t\t\n    tag 1263\t\t\t\n      JUMPDEST \t\t\t\n      POP \t\t\t\n      PUSH A0\t\t\t\n      DUP4 \t\t\t\n      ADD \t\t\t\n      MLOAD \t\t\t\n      PUSH [tag] 1264\t\t\t\n      PUSH A0\t\t\t\n      DUP7 \t\t\t\n      ADD \t\t\t\n      DUP3 \t\t\t\n      PUSH [tag] 934\t\t\t\n      JUMP \t\t\t\n    tag 1264\t\t\t\n      JUMPDEST \t\t\t\n      POP \t\t\t\n      DUP1 \t\t\t\n      SWAP2 \t\t\t\n      POP \t\t\t\n      POP \t\t\t\n      SWAP3 \t\t\t\n      SWAP2 \t\t\t\n      POP \t\t\t\n      POP \t\t\t\n      JUMP \t\t\t\n    tag 971\t\t\t\n      JUMPDEST \t\t\t\n      PUSH 0\t\t\t\n      PUSH [tag] 1266\t\t\t\n      DUP4 \t\t\t\n      DUP4 \t\t\t\n      PUSH [tag] 970\t\t\t\n      JUMP \t\t\t\n    tag 1266\t\t\t\n      JUMPDEST \t\t\t\n      SWAP1 \t\t\t\n      POP \t\t\t\n      SWAP3 \t\t\t\n      SWAP2 \t\t\t\n      POP \t\t\t\n      POP \t\t\t\n      JUMP \t\t\t\n    tag 972\t\t\t\n      JUMPDEST \t\t\t\n      PUSH 0\t\t\t\n      PUSH 20\t\t\t\n      DUP3 \t\t\t\n      ADD \t\t\t\n      SWAP1 \t\t\t\n      POP \t\t\t\n      SWAP2 \t\t\t\n      SWAP1 \t\t\t\n      POP \t\t\t\n      JUMP \t\t\t\n    tag 973\t\t\t\n      JUMPDEST \t\t\t\n      PUSH 0\t\t\t\n      PUSH [tag] 1269\t\t\t\n      DUP3 \t\t\t\n      PUSH [tag] 967\t\t\t\n      JUMP \t\t\t\n    tag 1269\t\t\t\n      JUMPDEST \t\t\t\n      PUSH [tag] 1270\t\t\t\n      DUP2 \t\t\t\n      DUP6 \t\t\t\n      PUSH [tag] 968\t\t\t\n      JUMP \t\t\t\n    tag 1270\t\t\t\n      JUMPDEST \t\t\t\n      SWAP4 \t\t\t\n      POP \t\t\t\n      DUP4 \t\t\t\n      PUSH 20\t\t\t\n      DUP3 \t\t\t\n      MUL \t\t\t\n      DUP6 \t\t\t\n      ADD \t\t\t\n      PUSH [tag] 1271\t\t\t\n      DUP6 \t\t\t\n      PUSH [tag] 969\t\t\t\n      JUMP \t\t\t\n    tag 1271\t\t\t\n      JUMPDEST \t\t\t\n      DUP1 \t\t\t\n      PUSH 0\t\t\t\n    tag 1272\t\t\t\n      JUMPDEST \t\t\t\n      DUP6 \t\t\t\n      DUP2 \t\t\t\n      LT \t\t\t\n      ISZERO \t\t\t\n      PUSH [tag] 1274\t\t\t\n      JUMPI \t\t\t\n      DUP5 \t\t\t\n      DUP5 \t\t\t\n      SUB \t\t\t\n      DUP10 \t\t\t\n      MSTORE \t\t\t\n      DUP2 \t\t\t\n      MLOAD \t\t\t\n      PUSH [tag] 1275\t\t\t\n      DUP6 \t\t\t\n      DUP3 \t\t\t\n      PUSH [tag] 971\t\t\t\n      JUMP \t\t\t\n    tag 1275\t\t\t\n      JUMPDEST \t\t\t\n      SWAP5 \t\t\t\n      POP \t\t\t\n      PUSH [tag] 1276\t\t\t\n      DUP4 \t\t\t\n      PUSH [tag] 972\t\t\t\n      JUMP \t\t\t\n    tag 1276\t\t\t\n      JUMPDEST \t\t\t\n      SWAP3 \t\t\t\n      POP \t\t\t\n      PUSH 20\t\t\t\n      DUP11 \t\t\t\n      ADD \t\t\t\n      SWAP10 \t\t\t\n      POP \t\t\t\n      POP \t\t\t\n      PUSH 1\t\t\t\n      DUP2 \t\t\t\n      ADD \t\t\t\n      SWAP1 \t\t\t\n      POP \t\t\t\n      PUSH [tag] 1272\t\t\t\n      JUMP \t\t\t\n    tag 1274\t\t\t\n      JUMPDEST \t\t\t\n      POP \t\t\t\n      DUP3 \t\t\t\n      SWAP8 \t\t\t\n      POP \t\t\t\n      DUP8 \t\t\t\n      SWAP6 \t\t\t\n      POP \t\t\t\n      POP \t\t\t\n      POP \t\t\t\n      POP \t\t\t\n      POP \t\t\t\n      POP \t\t\t\n      SWAP3 \t\t\t\n      SWAP2 \t\t\t\n      POP \t\t\t\n      POP \t\t\t\n      JUMP \t\t\t\n    tag 64\t\t\t\n      JUMPDEST \t\t\t\n      PUSH 0\t\t\t\n      PUSH 40\t\t\t\n      DUP3 \t\t\t\n      ADD \t\t\t\n      SWAP1 \t\t\t\n      POP \t\t\t\n      PUSH [tag] 1278\t\t\t\n      PUSH 0\t\t\t\n      DUP4 \t\t\t\n      ADD \t\t\t\n      DUP6 \t\t\t\n      PUSH [tag] 966\t\t\t\n      JUMP \t\t\t\n    tag 1278\t\t\t\n      JUMPDEST \t\t\t\n      DUP2 \t\t\t\n      DUP2 \t\t\t\n      SUB \t\t\t\n      PUSH 20\t\t\t\n      DUP4 \t\t\t\n      ADD \t\t\t\n      MSTORE \t\t\t\n      PUSH [tag] 1279\t\t\t\n      DUP2 \t\t\t\n      DUP5 \t\t\t\n      PUSH [tag] 973\t\t\t\n      JUMP \t\t\t\n    tag 1279\t\t\t\n      JUMPDEST \t\t\t\n      SWAP1 \t\t\t\n      POP \t\t\t\n      SWAP4 \t\t\t\n      SWAP3 \t\t\t\n      POP \t\t\t\n      POP \t\t\t\n      POP \t\t\t\n      JUMP \t\t\t\n    tag 69\t\t\t\n      JUMPDEST \t\t\t\n      PUSH 0\t\t\t\n      PUSH 60\t\t\t\n      DUP3 \t\t\t\n      ADD \t\t\t\n      SWAP1 \t\t\t\n      POP \t\t\t\n      PUSH [tag] 1281\t\t\t\n      PUSH 0\t\t\t\n      DUP4 \t\t\t\n      ADD \t\t\t\n      DUP7 \t\t\t\n      PUSH [tag] 952\t\t\t\n      JUMP \t\t\t\n    tag 1281\t\t\t\n      JUMPDEST \t\t\t\n      DUP2 \t\t\t\n      DUP2 \t\t\t\n      SUB \t\t\t\n      PUSH 20\t\t\t\n      DUP4 \t\t\t\n      ADD \t\t\t\n      MSTORE \t\t\t\n      PUSH [tag] 1282\t\t\t\n      DUP2 \t\t\t\n      DUP6 \t\t\t\n      PUSH [tag] 928\t\t\t\n      JUMP \t\t\t\n    tag 1282\t\t\t\n      JUMPDEST \t\t\t\n      SWAP1 \t\t\t\n      POP \t\t\t\n      DUP2 \t\t\t\n      DUP2 \t\t\t\n      SUB \t\t\t\n      PUSH 40\t\t\t\n      DUP4 \t\t\t\n      ADD \t\t\t\n      MSTORE \t\t\t\n      PUSH [tag] 1283\t\t\t\n      DUP2 \t\t\t\n      DUP5 \t\t\t\n      PUSH [tag] 961\t\t\t\n      JUMP \t\t\t\n    tag 1283\t\t\t\n      JUMPDEST \t\t\t\n      SWAP1 \t\t\t\n      POP \t\t\t\n      SWAP5 \t\t\t\n      SWAP4 \t\t\t\n      POP \t\t\t\n      POP \t\t\t\n      POP \t\t\t\n      POP \t\t\t\n      JUMP \t\t\t\n    tag 974\t\t\t\n      JUMPDEST \t\t\t\n      PUSH 0\t\t\t\n      PUSH E0\t\t\t\n      DUP3 \t\t\t\n      DUP5 \t\t\t\n      SUB \t\t\t\n      SLT \t\t\t\n      ISZERO \t\t\t\n      PUSH [tag] 1285\t\t\t\n      JUMPI \t\t\t\n      PUSH [tag] 1286\t\t\t\n      PUSH [tag] 944\t\t\t\n      JUMP \t\t\t\n    tag 1286\t\t\t\n      JUMPDEST \t\t\t\n    tag 1285\t\t\t\n      JUMPDEST \t\t\t\n      PUSH [tag] 1287\t\t\t\n      PUSH E0\t\t\t\n      PUSH [tag] 939\t\t\t\n      JUMP \t\t\t\n    tag 1287\t\t\t\n      JUMPDEST \t\t\t\n      SWAP1 \t\t\t\n      POP \t\t\t\n      PUSH 0\t\t\t\n      DUP3 \t\t\t\n      ADD \t\t\t\n      CALLDATALOAD \t\t\t\n      PUSH FFFFFFFFFFFFFFFF\t\t\t\n      DUP2 \t\t\t\n      GT \t\t\t\n      ISZERO \t\t\t\n      PUSH [tag] 1288\t\t\t\n      JUMPI \t\t\t\n      PUSH [tag] 1289\t\t\t\n      PUSH [tag] 945\t\t\t\n      JUMP \t\t\t\n    tag 1289\t\t\t\n      JUMPDEST \t\t\t\n    tag 1288\t\t\t\n      JUMPDEST \t\t\t\n      PUSH [tag] 1290\t\t\t\n      DUP5 \t\t\t\n      DUP3 \t\t\t\n      DUP6 \t\t\t\n      ADD \t\t\t\n      PUSH [tag] 943\t\t\t\n      JUMP \t\t\t\n    tag 1290\t\t\t\n      JUMPDEST \t\t\t\n      PUSH 0\t\t\t\n      DUP4 \t\t\t\n      ADD \t\t\t\n      MSTORE \t\t\t\n      POP \t\t\t\n      PUSH 20\t\t\t\n      DUP3 \t\t\t\n      ADD \t\t\t\n      CALLDATALOAD \t\t\t\n      PUSH FFFFFFFFFFFFFFFF\t\t\t\n      DUP2 \t\t\t\n      GT \t\t\t\n      ISZERO \t\t\t\n      PUSH [tag] 1291\t\t\t\n      JUMPI \t\t\t\n      PUSH [tag] 1292\t\t\t\n      PUSH [tag] 945\t\t\t\n      JUMP \t\t\t\n    tag 1292\t\t\t\n      JUMPDEST \t\t\t\n    tag 1291\t\t\t\n      JUMPDEST \t\t\t\n      PUSH [tag] 1293\t\t\t\n      DUP5 \t\t\t\n      DUP3 \t\t\t\n      DUP6 \t\t\t\n      ADD \t\t\t\n      PUSH [tag] 943\t\t\t\n      JUMP \t\t\t\n    tag 1293\t\t\t\n      JUMPDEST \t\t\t\n      PUSH 20\t\t\t\n      DUP4 \t\t\t\n      ADD \t\t\t\n      MSTORE \t\t\t\n      POP \t\t\t\n      PUSH 40\t\t\t\n      PUSH [tag] 1294\t\t\t\n      DUP5 \t\t\t\n      DUP3 \t\t\t\n      DUP6 \t\t\t\n      ADD \t\t\t\n      PUSH [tag] 965\t\t\t\n      JUMP \t\t\t\n    tag 1294\t\t\t\n      JUMPDEST \t\t\t\n      PUSH 40\t\t\t\n      DUP4 \t\t\t\n      ADD \t\t\t\n      MSTORE \t\t\t\n      POP \t\t\t\n      PUSH 60\t\t\t\n      PUSH [tag] 1295\t\t\t\n      DUP5 \t\t\t\n      DUP3 \t\t\t\n      DUP6 \t\t\t\n      ADD \t\t\t\n      PUSH [tag] 919\t\t\t\n      JUMP \t\t\t\n    tag 1295\t\t\t\n      JUMPDEST \t\t\t\n      PUSH 60\t\t\t\n      DUP4 \t\t\t\n      ADD \t\t\t\n      MSTORE \t\t\t\n      POP \t\t\t\n      PUSH 80\t\t\t\n      PUSH [tag] 1296\t\t\t\n      DUP5 \t\t\t\n      DUP3 \t\t\t\n      DUP6 \t\t\t\n      ADD \t\t\t\n      PUSH [tag] 919\t\t\t\n      JUMP \t\t\t\n    tag 1296\t\t\t\n      JUMPDEST \t\t\t\n      PUSH 80\t\t\t\n      DUP4 \t\t\t\n      ADD \t\t\t\n      MSTORE \t\t\t\n      POP \t\t\t\n      PUSH A0\t\t\t\n      DUP3 \t\t\t\n      ADD \t\t\t\n      CALLDATALOAD \t\t\t\n      PUSH FFFFFFFFFFFFFFFF\t\t\t\n      DUP2 \t\t\t\n      GT \t\t\t\n      ISZERO \t\t\t\n      PUSH [tag] 1297\t\t\t\n      JUMPI \t\t\t\n      PUSH [tag] 1298\t\t\t\n      PUSH [tag] 945\t\t\t\n      JUMP \t\t\t\n    tag 1298\t\t\t\n      JUMPDEST \t\t\t\n    tag 1297\t\t\t\n      JUMPDEST \t\t\t\n      PUSH [tag] 1299\t\t\t\n      DUP5 \t\t\t\n      DUP3 \t\t\t\n      DUP6 \t\t\t\n      ADD \t\t\t\n      PUSH [tag] 943\t\t\t\n      JUMP \t\t\t\n    tag 1299\t\t\t\n      JUMPDEST \t\t\t\n      PUSH A0\t\t\t\n      DUP4 \t\t\t\n      ADD \t\t\t\n      MSTORE \t\t\t\n      POP \t\t\t\n      PUSH C0\t\t\t\n      PUSH [tag] 1300\t\t\t\n      DUP5 \t\t\t\n      DUP3 \t\t\t\n      DUP6 \t\t\t\n      ADD \t\t\t\n      PUSH [tag] 965\t\t\t\n      JUMP \t\t\t\n    tag 1300\t\t\t\n      JUMPDEST \t\t\t\n      PUSH C0\t\t\t\n      DUP4 \t\t\t\n      ADD \t\t\t\n      MSTORE \t\t\t\n      POP \t\t\t\n      SWAP3 \t\t\t\n      SWAP2 \t\t\t\n      POP \t\t\t\n      POP \t\t\t\n      JUMP \t\t\t\n    tag 72\t\t\t\n      JUMPDEST \t\t\t\n      PUSH 0\t\t\t\n      DUP1 \t\t\t\n      PUSH 0\t\t\t\n      PUSH 60\t\t\t\n      DUP5 \t\t\t\n      DUP7 \t\t\t\n      SUB \t\t\t\n      SLT \t\t\t\n      ISZERO \t\t\t\n      PUSH [tag] 1302\t\t\t\n      JUMPI \t\t\t\n      PUSH [tag] 1303\t\t\t\n      PUSH [tag] 914\t\t\t\n      JUMP \t\t\t\n    tag 1303\t\t\t\n      JUMPDEST \t\t\t\n    tag 1302\t\t\t\n      JUMPDEST \t\t\t\n      PUSH 0\t\t\t\n      DUP5 \t\t\t\n      ADD \t\t\t\n      CALLDATALOAD \t\t\t\n      PUSH FFFFFFFFFFFFFFFF\t\t\t\n      DUP2 \t\t\t\n      GT \t\t\t\n      ISZERO \t\t\t\n      PUSH [tag] 1304\t\t\t\n      JUMPI \t\t\t\n      PUSH [tag] 1305\t\t\t\n      PUSH [tag] 915\t\t\t\n      JUMP \t\t\t\n    tag 1305\t\t\t\n      JUMPDEST \t\t\t\n    tag 1304\t\t\t\n      JUMPDEST \t\t\t\n      PUSH [tag] 1306\t\t\t\n      DUP7 \t\t\t\n      DUP3 \t\t\t\n      DUP8 \t\t\t\n      ADD \t\t\t\n      PUSH [tag] 974\t\t\t\n      JUMP \t\t\t\n    tag 1306\t\t\t\n      JUMPDEST \t\t\t\n      SWAP4 \t\t\t\n      POP \t\t\t\n      POP \t\t\t\n      PUSH 20\t\t\t\n      PUSH [tag] 1307\t\t\t\n      DUP7 \t\t\t\n      DUP3 \t\t\t\n      DUP8 \t\t\t\n      ADD \t\t\t\n      PUSH [tag] 965\t\t\t\n      JUMP \t\t\t\n    tag 1307\t\t\t\n      JUMPDEST \t\t\t\n      SWAP3 \t\t\t\n      POP \t\t\t\n      POP \t\t\t\n      PUSH 40\t\t\t\n      DUP5 \t\t\t\n      ADD \t\t\t\n      CALLDATALOAD \t\t\t\n      PUSH FFFFFFFFFFFFFFFF\t\t\t\n      DUP2 \t\t\t\n      GT \t\t\t\n      ISZERO \t\t\t\n      PUSH [tag] 1308\t\t\t\n      JUMPI \t\t\t\n      PUSH [tag] 1309\t\t\t\n      PUSH [tag] 915\t\t\t\n      JUMP \t\t\t\n    tag 1309\t\t\t\n      JUMPDEST \t\t\t\n    tag 1308\t\t\t\n      JUMPDEST \t\t\t\n      PUSH [tag] 1310\t\t\t\n      DUP7 \t\t\t\n      DUP3 \t\t\t\n      DUP8 \t\t\t\n      ADD \t\t\t\n      PUSH [tag] 943\t\t\t\n      JUMP \t\t\t\n    tag 1310\t\t\t\n      JUMPDEST \t\t\t\n      SWAP2 \t\t\t\n      POP \t\t\t\n      POP \t\t\t\n      SWAP3 \t\t\t\n      POP \t\t\t\n      SWAP3 \t\t\t\n      POP \t\t\t\n      SWAP3 \t\t\t\n      JUMP \t\t\t\n    tag 76\t\t\t\n      JUMPDEST \t\t\t\n      PUSH 0\t\t\t\n      DUP1 \t\t\t\n      PUSH 0\t\t\t\n      PUSH 60\t\t\t\n      DUP5 \t\t\t\n      DUP7 \t\t\t\n      SUB \t\t\t\n      SLT \t\t\t\n      ISZERO \t\t\t\n      PUSH [tag] 1312\t\t\t\n      JUMPI \t\t\t\n      PUSH [tag] 1313\t\t\t\n      PUSH [tag] 914\t\t\t\n      JUMP \t\t\t\n    tag 1313\t\t\t\n      JUMPDEST \t\t\t\n    tag 1312\t\t\t\n      JUMPDEST \t\t\t\n      PUSH 0\t\t\t\n      DUP5 \t\t\t\n      ADD \t\t\t\n      CALLDATALOAD \t\t\t\n      PUSH FFFFFFFFFFFFFFFF\t\t\t\n      DUP2 \t\t\t\n      GT \t\t\t\n      ISZERO \t\t\t\n      PUSH [tag] 1314\t\t\t\n      JUMPI \t\t\t\n      PUSH [tag] 1315\t\t\t\n      PUSH [tag] 915\t\t\t\n      JUMP \t\t\t\n    tag 1315\t\t\t\n      JUMPDEST \t\t\t\n    tag 1314\t\t\t\n      JUMPDEST \t\t\t\n      PUSH [tag] 1316\t\t\t\n      DUP7 \t\t\t\n      DUP3 \t\t\t\n      DUP8 \t\t\t\n      ADD \t\t\t\n      PUSH [tag] 943\t\t\t\n      JUMP \t\t\t\n    tag 1316\t\t\t\n      JUMPDEST \t\t\t\n      SWAP4 \t\t\t\n      POP \t\t\t\n      POP \t\t\t\n      PUSH 20\t\t\t\n      DUP5 \t\t\t\n      ADD \t\t\t\n      CALLDATALOAD \t\t\t\n      PUSH FFFFFFFFFFFFFFFF\t\t\t\n      DUP2 \t\t\t\n      GT \t\t\t\n      ISZERO \t\t\t\n      PUSH [tag] 1317\t\t\t\n      JUMPI \t\t\t\n      PUSH [tag] 1318\t\t\t\n      PUSH [tag] 915\t\t\t\n      JUMP \t\t\t\n    tag 1318\t\t\t\n      JUMPDEST \t\t\t\n    tag 1317\t\t\t\n      JUMPDEST \t\t\t\n      PUSH [tag] 1319\t\t\t\n      DUP7 \t\t\t\n      DUP3 \t\t\t\n      DUP8 \t\t\t\n      ADD \t\t\t\n      PUSH [tag] 943\t\t\t\n      JUMP \t\t\t\n    tag 1319\t\t\t\n      JUMPDEST \t\t\t\n      SWAP3 \t\t\t\n      POP \t\t\t\n      POP \t\t\t\n      PUSH 40\t\t\t\n      PUSH [tag] 1320\t\t\t\n      DUP7 \t\t\t\n      DUP3 \t\t\t\n      DUP8 \t\t\t\n      ADD \t\t\t\n      PUSH [tag] 965\t\t\t\n      JUMP \t\t\t\n    tag 1320\t\t\t\n      JUMPDEST \t\t\t\n      SWAP2 \t\t\t\n      POP \t\t\t\n      POP \t\t\t\n      SWAP3 \t\t\t\n      POP \t\t\t\n      SWAP3 \t\t\t\n      POP \t\t\t\n      SWAP3 \t\t\t\n      JUMP \t\t\t\n    tag 80\t\t\t\n      JUMPDEST \t\t\t\n      PUSH 0\t\t\t\n      DUP1 \t\t\t\n      PUSH 40\t\t\t\n      DUP4 \t\t\t\n      DUP6 \t\t\t\n      SUB \t\t\t\n      SLT \t\t\t\n      ISZERO \t\t\t\n      PUSH [tag] 1322\t\t\t\n      JUMPI \t\t\t\n      PUSH [tag] 1323\t\t\t\n      PUSH [tag] 914\t\t\t\n      JUMP \t\t\t\n    tag 1323\t\t\t\n      JUMPDEST \t\t\t\n    tag 1322\t\t\t\n      JUMPDEST \t\t\t\n      PUSH 0\t\t\t\n      DUP4 \t\t\t\n      ADD \t\t\t\n      CALLDATALOAD \t\t\t\n      PUSH FFFFFFFFFFFFFFFF\t\t\t\n      DUP2 \t\t\t\n      GT \t\t\t\n      ISZERO \t\t\t\n      PUSH [tag] 1324\t\t\t\n      JUMPI \t\t\t\n      PUSH [tag] 1325\t\t\t\n      PUSH [tag] 915\t\t\t\n      JUMP \t\t\t\n    tag 1325\t\t\t\n      JUMPDEST \t\t\t\n    tag 1324\t\t\t\n      JUMPDEST \t\t\t\n      PUSH [tag] 1326\t\t\t\n      DUP6 \t\t\t\n      DUP3 \t\t\t\n      DUP7 \t\t\t\n      ADD \t\t\t\n      PUSH [tag] 943\t\t\t\n      JUMP \t\t\t\n    tag 1326\t\t\t\n      JUMPDEST \t\t\t\n      SWAP3 \t\t\t\n      POP \t\t\t\n      POP \t\t\t\n      PUSH 20\t\t\t\n      PUSH [tag] 1327\t\t\t\n      DUP6 \t\t\t\n      DUP3 \t\t\t\n      DUP7 \t\t\t\n      ADD \t\t\t\n      PUSH [tag] 965\t\t\t\n      JUMP \t\t\t\n    tag 1327\t\t\t\n      JUMPDEST \t\t\t\n      SWAP2 \t\t\t\n      POP \t\t\t\n      POP \t\t\t\n      SWAP3 \t\t\t\n      POP \t\t\t\n      SWAP3 \t\t\t\n      SWAP1 \t\t\t\n      POP \t\t\t\n      JUMP \t\t\t\n    tag 84\t\t\t\n      JUMPDEST \t\t\t\n      PUSH 0\t\t\t\n      DUP1 \t\t\t\n      PUSH 40\t\t\t\n      DUP4 \t\t\t\n      DUP6 \t\t\t\n      SUB \t\t\t\n      SLT \t\t\t\n      ISZERO \t\t\t\n      PUSH [tag] 1329\t\t\t\n      JUMPI \t\t\t\n      PUSH [tag] 1330\t\t\t\n      PUSH [tag] 914\t\t\t\n      JUMP \t\t\t\n    tag 1330\t\t\t\n      JUMPDEST \t\t\t\n    tag 1329\t\t\t\n      JUMPDEST \t\t\t\n      PUSH 0\t\t\t\n      PUSH [tag] 1331\t\t\t\n      DUP6 \t\t\t\n      DUP3 \t\t\t\n      DUP7 \t\t\t\n      ADD \t\t\t\n      PUSH [tag] 919\t\t\t\n      JUMP \t\t\t\n    tag 1331\t\t\t\n      JUMPDEST \t\t\t\n      SWAP3 \t\t\t\n      POP \t\t\t\n      POP \t\t\t\n      PUSH 20\t\t\t\n      PUSH [tag] 1332\t\t\t\n      DUP6 \t\t\t\n      DUP3 \t\t\t\n      DUP7 \t\t\t\n      ADD \t\t\t\n      PUSH [tag] 963\t\t\t\n      JUMP \t\t\t\n    tag 1332\t\t\t\n      JUMPDEST \t\t\t\n      SWAP2 \t\t\t\n      POP \t\t\t\n      POP \t\t\t\n      SWAP3 \t\t\t\n      POP \t\t\t\n      SWAP3 \t\t\t\n      SWAP1 \t\t\t\n      POP \t\t\t\n      JUMP \t\t\t\n    tag 975\t\t\t\n      JUMPDEST \t\t\t\n      PUSH 0\t\t\t\n      DUP2 \t\t\t\n      MLOAD \t\t\t\n      SWAP1 \t\t\t\n      POP \t\t\t\n      SWAP2 \t\t\t\n      SWAP1 \t\t\t\n      POP \t\t\t\n      JUMP \t\t\t\n    tag 976\t\t\t\n      JUMPDEST \t\t\t\n      PUSH 0\t\t\t\n      DUP3 \t\t\t\n      DUP3 \t\t\t\n      MSTORE \t\t\t\n      PUSH 20\t\t\t\n      DUP3 \t\t\t\n      ADD \t\t\t\n      SWAP1 \t\t\t\n      POP \t\t\t\n      SWAP3 \t\t\t\n      SWAP2 \t\t\t\n      POP \t\t\t\n      POP \t\t\t\n      JUMP \t\t\t\n    tag 977\t\t\t\n      JUMPDEST \t\t\t\n      PUSH 0\t\t\t\n      DUP2 \t\t\t\n      SWAP1 \t\t\t\n      POP \t\t\t\n      PUSH 20\t\t\t\n      DUP3 \t\t\t\n      ADD \t\t\t\n      SWAP1 \t\t\t\n      POP \t\t\t\n      SWAP2 \t\t\t\n      SWAP1 \t\t\t\n      POP \t\t\t\n      JUMP \t\t\t\n    tag 978\t\t\t\n      JUMPDEST \t\t\t\n      PUSH 0\t\t\t\n      PUSH 140\t\t\t\n      DUP4 \t\t\t\n      ADD \t\t\t\n      PUSH 0\t\t\t\n      DUP4 \t\t\t\n      ADD \t\t\t\n      MLOAD \t\t\t\n      DUP5 \t\t\t\n      DUP3 \t\t\t\n      SUB \t\t\t\n      PUSH 0\t\t\t\n      DUP7 \t\t\t\n      ADD \t\t\t\n      MSTORE \t\t\t\n      PUSH [tag] 1337\t\t\t\n      DUP3 \t\t\t\n      DUP3 \t\t\t\n      PUSH [tag] 924\t\t\t\n      JUMP \t\t\t\n    tag 1337\t\t\t\n      JUMPDEST \t\t\t\n      SWAP2 \t\t\t\n      POP \t\t\t\n      POP \t\t\t\n      PUSH 20\t\t\t\n      DUP4 \t\t\t\n      ADD \t\t\t\n      MLOAD \t\t\t\n      PUSH [tag] 1338\t\t\t\n      PUSH 20\t\t\t\n      DUP7 \t\t\t\n      ADD \t\t\t\n      DUP3 \t\t\t\n      PUSH [tag] 927\t\t\t\n      JUMP \t\t\t\n    tag 1338\t\t\t\n      JUMPDEST \t\t\t\n      POP \t\t\t\n      PUSH 40\t\t\t\n      DUP4 \t\t\t\n      ADD \t\t\t\n      MLOAD \t\t\t\n      DUP5 \t\t\t\n      DUP3 \t\t\t\n      SUB \t\t\t\n      PUSH 40\t\t\t\n      DUP7 \t\t\t\n      ADD \t\t\t\n      MSTORE \t\t\t\n      PUSH [tag] 1339\t\t\t\n      DUP3 \t\t\t\n      DUP3 \t\t\t\n      PUSH [tag] 924\t\t\t\n      JUMP \t\t\t\n    tag 1339\t\t\t\n      JUMPDEST \t\t\t\n      SWAP2 \t\t\t\n      POP \t\t\t\n      POP \t\t\t\n      PUSH 60\t\t\t\n      DUP4 \t\t\t\n      ADD \t\t\t\n      MLOAD \t\t\t\n      PUSH [tag] 1340\t\t\t\n      PUSH 60\t\t\t\n      DUP7 \t\t\t\n      ADD \t\t\t\n      DUP3 \t\t\t\n      PUSH [tag] 927\t\t\t\n      JUMP \t\t\t\n    tag 1340\t\t\t\n      JUMPDEST \t\t\t\n      POP \t\t\t\n      PUSH 80\t\t\t\n      DUP4 \t\t\t\n      ADD \t\t\t\n      MLOAD \t\t\t\n      DUP5 \t\t\t\n      DUP3 \t\t\t\n      SUB \t\t\t\n      PUSH 80\t\t\t\n      DUP7 \t\t\t\n      ADD \t\t\t\n      MSTORE \t\t\t\n      PUSH [tag] 1341\t\t\t\n      DUP3 \t\t\t\n      DUP3 \t\t\t\n      PUSH [tag] 924\t\t\t\n      JUMP \t\t\t\n    tag 1341\t\t\t\n      JUMPDEST \t\t\t\n      SWAP2 \t\t\t\n      POP \t\t\t\n      POP \t\t\t\n      PUSH A0\t\t\t\n      DUP4 \t\t\t\n      ADD \t\t\t\n      MLOAD \t\t\t\n      DUP5 \t\t\t\n      DUP3 \t\t\t\n      SUB \t\t\t\n      PUSH A0\t\t\t\n      DUP7 \t\t\t\n      ADD \t\t\t\n      MSTORE \t\t\t\n      PUSH [tag] 1342\t\t\t\n      DUP3 \t\t\t\n      DUP3 \t\t\t\n      PUSH [tag] 924\t\t\t\n      JUMP \t\t\t\n    tag 1342\t\t\t\n      JUMPDEST \t\t\t\n      SWAP2 \t\t\t\n      POP \t\t\t\n      POP \t\t\t\n      PUSH C0\t\t\t\n      DUP4 \t\t\t\n      ADD \t\t\t\n      MLOAD \t\t\t\n      PUSH [tag] 1343\t\t\t\n      PUSH C0\t\t\t\n      DUP7 \t\t\t\n      ADD \t\t\t\n      DUP3 \t\t\t\n      PUSH [tag] 926\t\t\t\n      JUMP \t\t\t\n    tag 1343\t\t\t\n      JUMPDEST \t\t\t\n      POP \t\t\t\n      PUSH E0\t\t\t\n      DUP4 \t\t\t\n      ADD \t\t\t\n      MLOAD \t\t\t\n      PUSH [tag] 1344\t\t\t\n      PUSH E0\t\t\t\n      DUP7 \t\t\t\n      ADD \t\t\t\n      DUP3 \t\t\t\n      PUSH [tag] 956\t\t\t\n      JUMP \t\t\t\n    tag 1344\t\t\t\n      JUMPDEST \t\t\t\n      POP \t\t\t\n      PUSH 100\t\t\t\n      DUP4 \t\t\t\n      ADD \t\t\t\n      MLOAD \t\t\t\n      PUSH [tag] 1345\t\t\t\n      PUSH 100\t\t\t\n      DUP7 \t\t\t\n      ADD \t\t\t\n      DUP3 \t\t\t\n      PUSH [tag] 960\t\t\t\n      JUMP \t\t\t\n    tag 1345\t\t\t\n      JUMPDEST \t\t\t\n      POP \t\t\t\n      PUSH 120\t\t\t\n      DUP4 \t\t\t\n      ADD \t\t\t\n      MLOAD \t\t\t\n      DUP5 \t\t\t\n      DUP3 \t\t\t\n      SUB \t\t\t\n      PUSH 120\t\t\t\n      DUP7 \t\t\t\n      ADD \t\t\t\n      MSTORE \t\t\t\n      PUSH [tag] 1346\t\t\t\n      DUP3 \t\t\t\n      DUP3 \t\t\t\n      PUSH [tag] 924\t\t\t\n      JUMP \t\t\t\n    tag 1346\t\t\t\n      JUMPDEST \t\t\t\n      SWAP2 \t\t\t\n      POP \t\t\t\n      POP \t\t\t\n      DUP1 \t\t\t\n      SWAP2 \t\t\t\n      POP \t\t\t\n      POP \t\t\t\n      SWAP3 \t\t\t\n      SWAP2 \t\t\t\n      POP \t\t\t\n      POP \t\t\t\n      JUMP \t\t\t\n    tag 979\t\t\t\n      JUMPDEST \t\t\t\n      PUSH 0\t\t\t\n      PUSH [tag] 1348\t\t\t\n      DUP4 \t\t\t\n      DUP4 \t\t\t\n      PUSH [tag] 978\t\t\t\n      JUMP \t\t\t\n    tag 1348\t\t\t\n      JUMPDEST \t\t\t\n      SWAP1 \t\t\t\n      POP \t\t\t\n      SWAP3 \t\t\t\n      SWAP2 \t\t\t\n      POP \t\t\t\n      POP \t\t\t\n      JUMP \t\t\t\n    tag 980\t\t\t\n      JUMPDEST \t\t\t\n      PUSH 0\t\t\t\n      PUSH 20\t\t\t\n      DUP3 \t\t\t\n      ADD \t\t\t\n      SWAP1 \t\t\t\n      POP \t\t\t\n      SWAP2 \t\t\t\n      SWAP1 \t\t\t\n      POP \t\t\t\n      JUMP \t\t\t\n    tag 981\t\t\t\n      JUMPDEST \t\t\t\n      PUSH 0\t\t\t\n      PUSH [tag] 1351\t\t\t\n      DUP3 \t\t\t\n      PUSH [tag] 975\t\t\t\n      JUMP \t\t\t\n    tag 1351\t\t\t\n      JUMPDEST \t\t\t\n      PUSH [tag] 1352\t\t\t\n      DUP2 \t\t\t\n      DUP6 \t\t\t\n      PUSH [tag] 976\t\t\t\n      JUMP \t\t\t\n    tag 1352\t\t\t\n      JUMPDEST \t\t\t\n      SWAP4 \t\t\t\n      POP \t\t\t\n      DUP4 \t\t\t\n      PUSH 20\t\t\t\n      DUP3 \t\t\t\n      MUL \t\t\t\n      DUP6 \t\t\t\n      ADD \t\t\t\n      PUSH [tag] 1353\t\t\t\n      DUP6 \t\t\t\n      PUSH [tag] 977\t\t\t\n      JUMP \t\t\t\n    tag 1353\t\t\t\n      JUMPDEST \t\t\t\n      DUP1 \t\t\t\n      PUSH 0\t\t\t\n    tag 1354\t\t\t\n      JUMPDEST \t\t\t\n      DUP6 \t\t\t\n      DUP2 \t\t\t\n      LT \t\t\t\n      ISZERO \t\t\t\n      PUSH [tag] 1356\t\t\t\n      JUMPI \t\t\t\n      DUP5 \t\t\t\n      DUP5 \t\t\t\n      SUB \t\t\t\n      DUP10 \t\t\t\n      MSTORE \t\t\t\n      DUP2 \t\t\t\n      MLOAD \t\t\t\n      PUSH [tag] 1357\t\t\t\n      DUP6 \t\t\t\n      DUP3 \t\t\t\n      PUSH [tag] 979\t\t\t\n      JUMP \t\t\t\n    tag 1357\t\t\t\n      JUMPDEST \t\t\t\n      SWAP5 \t\t\t\n      POP \t\t\t\n      PUSH [tag] 1358\t\t\t\n      DUP4 \t\t\t\n      PUSH [tag] 980\t\t\t\n      JUMP \t\t\t\n    tag 1358\t\t\t\n      JUMPDEST \t\t\t\n      SWAP3 \t\t\t\n      POP \t\t\t\n      PUSH 20\t\t\t\n      DUP11 \t\t\t\n      ADD \t\t\t\n      SWAP10 \t\t\t\n      POP \t\t\t\n      POP \t\t\t\n      PUSH 1\t\t\t\n      DUP2 \t\t\t\n      ADD \t\t\t\n      SWAP1 \t\t\t\n      POP \t\t\t\n      PUSH [tag] 1354\t\t\t\n      JUMP \t\t\t\n    tag 1356\t\t\t\n      JUMPDEST \t\t\t\n      POP \t\t\t\n      DUP3 \t\t\t\n      SWAP8 \t\t\t\n      POP \t\t\t\n      DUP8 \t\t\t\n      SWAP6 \t\t\t\n      POP \t\t\t\n      POP \t\t\t\n      POP \t\t\t\n      POP \t\t\t\n      POP \t\t\t\n      POP \t\t\t\n      SWAP3 \t\t\t\n      SWAP2 \t\t\t\n      POP \t\t\t\n      POP \t\t\t\n      JUMP \t\t\t\n    tag 90\t\t\t\n      JUMPDEST \t\t\t\n      PUSH 0\t\t\t\n      PUSH 40\t\t\t\n      DUP3 \t\t\t\n      ADD \t\t\t\n      SWAP1 \t\t\t\n      POP \t\t\t\n      PUSH [tag] 1360\t\t\t\n      PUSH 0\t\t\t\n      DUP4 \t\t\t\n      ADD \t\t\t\n      DUP6 \t\t\t\n      PUSH [tag] 966\t\t\t\n      JUMP \t\t\t\n    tag 1360\t\t\t\n      JUMPDEST \t\t\t\n      DUP2 \t\t\t\n      DUP2 \t\t\t\n      SUB \t\t\t\n      PUSH 20\t\t\t\n      DUP4 \t\t\t\n      ADD \t\t\t\n      MSTORE \t\t\t\n      PUSH [tag] 1361\t\t\t\n      DUP2 \t\t\t\n      DUP5 \t\t\t\n      PUSH [tag] 981\t\t\t\n      JUMP \t\t\t\n    tag 1361\t\t\t\n      JUMPDEST \t\t\t\n      SWAP1 \t\t\t\n      POP \t\t\t\n      SWAP4 \t\t\t\n      SWAP3 \t\t\t\n      POP \t\t\t\n      POP \t\t\t\n      POP \t\t\t\n      JUMP \t\t\t\n    tag 982\t\t\t\n      JUMPDEST \t\t\t\n      PUSH 3\t\t\t\n      DUP2 \t\t\t\n      LT \t\t\t\n      PUSH [tag] 1363\t\t\t\n      JUMPI \t\t\t\n      PUSH [tag] 1364\t\t\t\n      PUSH [tag] 135\t\t\t\n      JUMP \t\t\t\n    tag 1364\t\t\t\n      JUMPDEST \t\t\t\n    tag 1363\t\t\t\n      JUMPDEST \t\t\t\n      POP \t\t\t\n      JUMP \t\t\t\n    tag 983\t\t\t\n      JUMPDEST \t\t\t\n      PUSH 0\t\t\t\n      DUP2 \t\t\t\n      SWAP1 \t\t\t\n      POP \t\t\t\n      PUSH [tag] 1366\t\t\t\n      DUP3 \t\t\t\n      PUSH [tag] 982\t\t\t\n      JUMP \t\t\t\n    tag 1366\t\t\t\n      JUMPDEST \t\t\t\n      SWAP2 \t\t\t\n      SWAP1 \t\t\t\n      POP \t\t\t\n      JUMP \t\t\t\n    tag 984\t\t\t\n      JUMPDEST \t\t\t\n      PUSH 0\t\t\t\n      PUSH [tag] 1368\t\t\t\n      DUP3 \t\t\t\n      PUSH [tag] 983\t\t\t\n      JUMP \t\t\t\n    tag 1368\t\t\t\n      JUMPDEST \t\t\t\n      SWAP1 \t\t\t\n      POP \t\t\t\n      SWAP2 \t\t\t\n      SWAP1 \t\t\t\n      POP \t\t\t\n      JUMP \t\t\t\n    tag 985\t\t\t\n      JUMPDEST \t\t\t\n      PUSH [tag] 1370\t\t\t\n      DUP2 \t\t\t\n      PUSH [tag] 984\t\t\t\n      JUMP \t\t\t\n    tag 1370\t\t\t\n      JUMPDEST \t\t\t\n      DUP3 \t\t\t\n      MSTORE \t\t\t\n      POP \t\t\t\n      POP \t\t\t\n      JUMP \t\t\t\n    tag 986\t\t\t\n      JUMPDEST \t\t\t\n      PUSH 0\t\t\t\n      PUSH A0\t\t\t\n      DUP4 \t\t\t\n      ADD \t\t\t\n      PUSH 0\t\t\t\n      DUP4 \t\t\t\n      ADD \t\t\t\n      MLOAD \t\t\t\n      DUP5 \t\t\t\n      DUP3 \t\t\t\n      SUB \t\t\t\n      PUSH 0\t\t\t\n      DUP7 \t\t\t\n      ADD \t\t\t\n      MSTORE \t\t\t\n      PUSH [tag] 1372\t\t\t\n      DUP3 \t\t\t\n      DUP3 \t\t\t\n      PUSH [tag] 924\t\t\t\n      JUMP \t\t\t\n    tag 1372\t\t\t\n      JUMPDEST \t\t\t\n      SWAP2 \t\t\t\n      POP \t\t\t\n      POP \t\t\t\n      PUSH 20\t\t\t\n      DUP4 \t\t\t\n      ADD \t\t\t\n      MLOAD \t\t\t\n      DUP5 \t\t\t\n      DUP3 \t\t\t\n      SUB \t\t\t\n      PUSH 20\t\t\t\n      DUP7 \t\t\t\n      ADD \t\t\t\n      MSTORE \t\t\t\n      PUSH [tag] 1373\t\t\t\n      DUP3 \t\t\t\n      DUP3 \t\t\t\n      PUSH [tag] 924\t\t\t\n      JUMP \t\t\t\n    tag 1373\t\t\t\n      JUMPDEST \t\t\t\n      SWAP2 \t\t\t\n      POP \t\t\t\n      POP \t\t\t\n      PUSH 40\t\t\t\n      DUP4 \t\t\t\n      ADD \t\t\t\n      MLOAD \t\t\t\n      PUSH [tag] 1374\t\t\t\n      PUSH 40\t\t\t\n      DUP7 \t\t\t\n      ADD \t\t\t\n      DUP3 \t\t\t\n      PUSH [tag] 927\t\t\t\n      JUMP \t\t\t\n    tag 1374\t\t\t\n      JUMPDEST \t\t\t\n      POP \t\t\t\n      PUSH 60\t\t\t\n      DUP4 \t\t\t\n      ADD \t\t\t\n      MLOAD \t\t\t\n      PUSH [tag] 1375\t\t\t\n      PUSH 60\t\t\t\n      DUP7 \t\t\t\n      ADD \t\t\t\n      DUP3 \t\t\t\n      PUSH [tag] 985\t\t\t\n      JUMP \t\t\t\n    tag 1375\t\t\t\n      JUMPDEST \t\t\t\n      POP \t\t\t\n      PUSH 80\t\t\t\n      DUP4 \t\t\t\n      ADD \t\t\t\n      MLOAD \t\t\t\n      PUSH [tag] 1376\t\t\t\n      PUSH 80\t\t\t\n      DUP7 \t\t\t\n      ADD \t\t\t\n      DUP3 \t\t\t\n      PUSH [tag] 934\t\t\t\n      JUMP \t\t\t\n    tag 1376\t\t\t\n      JUMPDEST \t\t\t\n      POP \t\t\t\n      DUP1 \t\t\t\n      SWAP2 \t\t\t\n      POP \t\t\t\n      POP \t\t\t\n      SWAP3 \t\t\t\n      SWAP2 \t\t\t\n      POP \t\t\t\n      POP \t\t\t\n      JUMP \t\t\t\n    tag 94\t\t\t\n      JUMPDEST \t\t\t\n      PUSH 0\t\t\t\n      PUSH 20\t\t\t\n      DUP3 \t\t\t\n      ADD \t\t\t\n      SWAP1 \t\t\t\n      POP \t\t\t\n      DUP2 \t\t\t\n      DUP2 \t\t\t\n      SUB \t\t\t\n      PUSH 0\t\t\t\n      DUP4 \t\t\t\n      ADD \t\t\t\n      MSTORE \t\t\t\n      PUSH [tag] 1378\t\t\t\n      DUP2 \t\t\t\n      DUP5 \t\t\t\n      PUSH [tag] 986\t\t\t\n      JUMP \t\t\t\n    tag 1378\t\t\t\n      JUMPDEST \t\t\t\n      SWAP1 \t\t\t\n      POP \t\t\t\n      SWAP3 \t\t\t\n      SWAP2 \t\t\t\n      POP \t\t\t\n      POP \t\t\t\n      JUMP \t\t\t\n    tag 987\t\t\t\n      JUMPDEST \t\t\t\n      PUSH 0\t\t\t\n      DUP3 \t\t\t\n      DUP3 \t\t\t\n      MSTORE \t\t\t\n      PUSH 20\t\t\t\n      DUP3 \t\t\t\n      ADD \t\t\t\n      SWAP1 \t\t\t\n      POP \t\t\t\n      SWAP3 \t\t\t\n      SWAP2 \t\t\t\n      POP \t\t\t\n      POP \t\t\t\n      JUMP \t\t\t\n    tag 988\t\t\t\n      JUMPDEST \t\t\t\n      PUSH 496420697320456D707479000000000000000000000000000000000000000000\t\t\t\n      PUSH 0\t\t\t\n      DUP3 \t\t\t\n      ADD \t\t\t\n      MSTORE \t\t\t\n      POP \t\t\t\n      JUMP \t\t\t\n    tag 989\t\t\t\n      JUMPDEST \t\t\t\n      PUSH 0\t\t\t\n      PUSH [tag] 1382\t\t\t\n      PUSH B\t\t\t\n      DUP4 \t\t\t\n      PUSH [tag] 987\t\t\t\n      JUMP \t\t\t\n    tag 1382\t\t\t\n      JUMPDEST \t\t\t\n      SWAP2 \t\t\t\n      POP \t\t\t\n      PUSH [tag] 1383\t\t\t\n      DUP3 \t\t\t\n      PUSH [tag] 988\t\t\t\n      JUMP \t\t\t\n    tag 1383\t\t\t\n      JUMPDEST \t\t\t\n      PUSH 20\t\t\t\n      DUP3 \t\t\t\n      ADD \t\t\t\n      SWAP1 \t\t\t\n      POP \t\t\t\n      SWAP2 \t\t\t\n      SWAP1 \t\t\t\n      POP \t\t\t\n      JUMP \t\t\t\n    tag 107\t\t\t\n      JUMPDEST \t\t\t\n      PUSH 0\t\t\t\n      PUSH 20\t\t\t\n      DUP3 \t\t\t\n      ADD \t\t\t\n      SWAP1 \t\t\t\n      POP \t\t\t\n      DUP2 \t\t\t\n      DUP2 \t\t\t\n      SUB \t\t\t\n      PUSH 0\t\t\t\n      DUP4 \t\t\t\n      ADD \t\t\t\n      MSTORE \t\t\t\n      PUSH [tag] 1385\t\t\t\n      DUP2 \t\t\t\n      PUSH [tag] 989\t\t\t\n      JUMP \t\t\t\n    tag 1385\t\t\t\n      JUMPDEST \t\t\t\n      SWAP1 \t\t\t\n      POP \t\t\t\n      SWAP2 \t\t\t\n      SWAP1 \t\t\t\n      POP \t\t\t\n      JUMP \t\t\t\n    tag 990\t\t\t\n      JUMPDEST \t\t\t\n      PUSH 5573657220496420456D70747900000000000000000000000000000000000000\t\t\t\n      PUSH 0\t\t\t\n      DUP3 \t\t\t\n      ADD \t\t\t\n      MSTORE \t\t\t\n      POP \t\t\t\n      JUMP \t\t\t\n    tag 991\t\t\t\n      JUMPDEST \t\t\t\n      PUSH 0\t\t\t\n      PUSH [tag] 1388\t\t\t\n      PUSH D\t\t\t\n      DUP4 \t\t\t\n      PUSH [tag] 987\t\t\t\n      JUMP \t\t\t\n    tag 1388\t\t\t\n      JUMPDEST \t\t\t\n      SWAP2 \t\t\t\n      POP \t\t\t\n      PUSH [tag] 1389\t\t\t\n      DUP3 \t\t\t\n      PUSH [tag] 990\t\t\t\n      JUMP \t\t\t\n    tag 1389\t\t\t\n      JUMPDEST \t\t\t\n      PUSH 20\t\t\t\n      DUP3 \t\t\t\n      ADD \t\t\t\n      SWAP1 \t\t\t\n      POP \t\t\t\n      SWAP2 \t\t\t\n      SWAP1 \t\t\t\n      POP \t\t\t\n      JUMP \t\t\t\n    tag 110\t\t\t\n      JUMPDEST \t\t\t\n      PUSH 0\t\t\t\n      PUSH 20\t\t\t\n      DUP3 \t\t\t\n      ADD \t\t\t\n      SWAP1 \t\t\t\n      POP \t\t\t\n      DUP2 \t\t\t\n      DUP2 \t\t\t\n      SUB \t\t\t\n      PUSH 0\t\t\t\n      DUP4 \t\t\t\n      ADD \t\t\t\n      MSTORE \t\t\t\n      PUSH [tag] 1391\t\t\t\n      DUP2 \t\t\t\n      PUSH [tag] 991\t\t\t\n      JUMP \t\t\t\n    tag 1391\t\t\t\n      JUMPDEST \t\t\t\n      SWAP1 \t\t\t\n      POP \t\t\t\n      SWAP2 \t\t\t\n      SWAP1 \t\t\t\n      POP \t\t\t\n      JUMP \t\t\t\n    tag 992\t\t\t\n      JUMPDEST \t\t\t\n      PUSH 4E487B7100000000000000000000000000000000000000000000000000000000\t\t\t\n      PUSH 0\t\t\t\n      MSTORE \t\t\t\n      PUSH 22\t\t\t\n      PUSH 4\t\t\t\n      MSTORE \t\t\t\n      PUSH 24\t\t\t\n      PUSH 0\t\t\t\n      REVERT \t\t\t\n    tag 113\t\t\t\n      JUMPDEST \t\t\t\n      PUSH 0\t\t\t\n      PUSH 2\t\t\t\n      DUP3 \t\t\t\n      DIV \t\t\t\n      SWAP1 \t\t\t\n      POP \t\t\t\n      PUSH 1\t\t\t\n      DUP3 \t\t\t\n      AND \t\t\t\n      DUP1 \t\t\t\n      PUSH [tag] 1394\t\t\t\n      JUMPI \t\t\t\n      PUSH 7F\t\t\t\n      DUP3 \t\t\t\n      AND \t\t\t\n      SWAP2 \t\t\t\n      POP \t\t\t\n    tag 1394\t\t\t\n      JUMPDEST \t\t\t\n      PUSH 20\t\t\t\n      DUP3 \t\t\t\n      LT \t\t\t\n      DUP2 \t\t\t\n      SUB \t\t\t\n      PUSH [tag] 1395\t\t\t\n      JUMPI \t\t\t\n      PUSH [tag] 1396\t\t\t\n      PUSH [tag] 992\t\t\t\n      JUMP \t\t\t\n    tag 1396\t\t\t\n      JUMPDEST \t\t\t\n    tag 1395\t\t\t\n      JUMPDEST \t\t\t\n      POP \t\t\t\n      SWAP2 \t\t\t\n      SWAP1 \t\t\t\n      POP \t\t\t\n      JUMP \t\t\t\n    tag 993\t\t\t\n      JUMPDEST \t\t\t\n      PUSH 5573657220456D61696C20456D70747900000000000000000000000000000000\t\t\t\n      PUSH 0\t\t\t\n      DUP3 \t\t\t\n      ADD \t\t\t\n      MSTORE \t\t\t\n      POP \t\t\t\n      JUMP \t\t\t\n    tag 994\t\t\t\n      JUMPDEST \t\t\t\n      PUSH 0\t\t\t\n      PUSH [tag] 1399\t\t\t\n      PUSH 10\t\t\t\n      DUP4 \t\t\t\n      PUSH [tag] 987\t\t\t\n      JUMP \t\t\t\n    tag 1399\t\t\t\n      JUMPDEST \t\t\t\n      SWAP2 \t\t\t\n      POP \t\t\t\n      PUSH [tag] 1400\t\t\t\n      DUP3 \t\t\t\n      PUSH [tag] 993\t\t\t\n      JUMP \t\t\t\n    tag 1400\t\t\t\n      JUMPDEST \t\t\t\n      PUSH 20\t\t\t\n      DUP3 \t\t\t\n      ADD \t\t\t\n      SWAP1 \t\t\t\n      POP \t\t\t\n      SWAP2 \t\t\t\n      SWAP1 \t\t\t\n      POP \t\t\t\n      JUMP \t\t\t\n    tag 121\t\t\t\n      JUMPDEST \t\t\t\n      PUSH 0\t\t\t\n      PUSH 20\t\t\t\n      DUP3 \t\t\t\n      ADD \t\t\t\n      SWAP1 \t\t\t\n      POP \t\t\t\n      DUP2 \t\t\t\n      DUP2 \t\t\t\n      SUB \t\t\t\n      PUSH 0\t\t\t\n      DUP4 \t\t\t\n      ADD \t\t\t\n      MSTORE \t\t\t\n      PUSH [tag] 1402\t\t\t\n      DUP2 \t\t\t\n      PUSH [tag] 994\t\t\t\n      JUMP \t\t\t\n    tag 1402\t\t\t\n      JUMPDEST \t\t\t\n      SWAP1 \t\t\t\n      POP \t\t\t\n      SWAP2 \t\t\t\n      SWAP1 \t\t\t\n      POP \t\t\t\n      JUMP \t\t\t\n    tag 995\t\t\t\n      JUMPDEST \t\t\t\n      PUSH 42616E6B206E6F7420666F756E64000000000000000000000000000000000000\t\t\t\n      PUSH 0\t\t\t\n      DUP3 \t\t\t\n      ADD \t\t\t\n      MSTORE \t\t\t\n      POP \t\t\t\n      JUMP \t\t\t\n    tag 996\t\t\t\n      JUMPDEST \t\t\t\n      PUSH 0\t\t\t\n      PUSH [tag] 1405\t\t\t\n      PUSH E\t\t\t\n      DUP4 \t\t\t\n      PUSH [tag] 987\t\t\t\n      JUMP \t\t\t\n    tag 1405\t\t\t\n      JUMPDEST \t\t\t\n      SWAP2 \t\t\t\n      POP \t\t\t\n      PUSH [tag] 1406\t\t\t\n      DUP3 \t\t\t\n      PUSH [tag] 995\t\t\t\n      JUMP \t\t\t\n    tag 1406\t\t\t\n      JUMPDEST \t\t\t\n      PUSH 20\t\t\t\n      DUP3 \t\t\t\n      ADD \t\t\t\n      SWAP1 \t\t\t\n      POP \t\t\t\n      SWAP2 \t\t\t\n      SWAP1 \t\t\t\n      POP \t\t\t\n      JUMP \t\t\t\n    tag 130\t\t\t\n      JUMPDEST \t\t\t\n      PUSH 0\t\t\t\n      PUSH 20\t\t\t\n      DUP3 \t\t\t\n      ADD \t\t\t\n      SWAP1 \t\t\t\n      POP \t\t\t\n      DUP2 \t\t\t\n      DUP2 \t\t\t\n      SUB \t\t\t\n      PUSH 0\t\t\t\n      DUP4 \t\t\t\n      ADD \t\t\t\n      MSTORE \t\t\t\n      PUSH [tag] 1408\t\t\t\n      DUP2 \t\t\t\n      PUSH [tag] 996\t\t\t\n      JUMP \t\t\t\n    tag 1408\t\t\t\n      JUMPDEST \t\t\t\n      SWAP1 \t\t\t\n      POP \t\t\t\n      SWAP2 \t\t\t\n      SWAP1 \t\t\t\n      POP \t\t\t\n      JUMP \t\t\t\n    tag 997\t\t\t\n      JUMPDEST \t\t\t\n      PUSH 42616E6B206973206E6F74206163746976650000000000000000000000000000\t\t\t\n      PUSH 0\t\t\t\n      DUP3 \t\t\t\n      ADD \t\t\t\n      MSTORE \t\t\t\n      POP \t\t\t\n      JUMP \t\t\t\n    tag 998\t\t\t\n      JUMPDEST \t\t\t\n      PUSH 0\t\t\t\n      PUSH [tag] 1411\t\t\t\n      PUSH 12\t\t\t\n      DUP4 \t\t\t\n      PUSH [tag] 987\t\t\t\n      JUMP \t\t\t\n    tag 1411\t\t\t\n      JUMPDEST \t\t\t\n      SWAP2 \t\t\t\n      POP \t\t\t\n      PUSH [tag] 1412\t\t\t\n      DUP3 \t\t\t\n      PUSH [tag] 997\t\t\t\n      JUMP \t\t\t\n    tag 1412\t\t\t\n      JUMPDEST \t\t\t\n      PUSH 20\t\t\t\n      DUP3 \t\t\t\n      ADD \t\t\t\n      SWAP1 \t\t\t\n      POP \t\t\t\n      SWAP2 \t\t\t\n      SWAP1 \t\t\t\n      POP \t\t\t\n      JUMP \t\t\t\n    tag 140\t\t\t\n      JUMPDEST \t\t\t\n      PUSH 0\t\t\t\n      PUSH 20\t\t\t\n      DUP3 \t\t\t\n      ADD \t\t\t\n      SWAP1 \t\t\t\n      POP \t\t\t\n      DUP2 \t\t\t\n      DUP2 \t\t\t\n      SUB \t\t\t\n      PUSH 0\t\t\t\n      DUP4 \t\t\t\n      ADD \t\t\t\n      MSTORE \t\t\t\n      PUSH [tag] 1414\t\t\t\n      DUP2 \t\t\t\n      PUSH [tag] 998\t\t\t\n      JUMP \t\t\t\n    tag 1414\t\t\t\n      JUMPDEST \t\t\t\n      SWAP1 \t\t\t\n      POP \t\t\t\n      SWAP2 \t\t\t\n      SWAP1 \t\t\t\n      POP \t\t\t\n      JUMP \t\t\t\n    tag 999\t\t\t\n      JUMPDEST \t\t\t\n      PUSH 4B594320726571206E6F7420666F756E64000000000000000000000000000000\t\t\t\n      PUSH 0\t\t\t\n      DUP3 \t\t\t\n      ADD \t\t\t\n      MSTORE \t\t\t\n      POP \t\t\t\n      JUMP \t\t\t\n    tag 1000\t\t\t\n      JUMPDEST \t\t\t\n      PUSH 0\t\t\t\n      PUSH [tag] 1417\t\t\t\n      PUSH 11\t\t\t\n      DUP4 \t\t\t\n      PUSH [tag] 987\t\t\t\n      JUMP \t\t\t\n    tag 1417\t\t\t\n      JUMPDEST \t\t\t\n      SWAP2 \t\t\t\n      POP \t\t\t\n      PUSH [tag] 1418\t\t\t\n      DUP3 \t\t\t\n      PUSH [tag] 999\t\t\t\n      JUMP \t\t\t\n    tag 1418\t\t\t\n      JUMPDEST \t\t\t\n      PUSH 20\t\t\t\n      DUP3 \t\t\t\n      ADD \t\t\t\n      SWAP1 \t\t\t\n      POP \t\t\t\n      SWAP2 \t\t\t\n      SWAP1 \t\t\t\n      POP \t\t\t\n      JUMP \t\t\t\n    tag 162\t\t\t\n      JUMPDEST \t\t\t\n      PUSH 0\t\t\t\n      PUSH 20\t\t\t\n      DUP3 \t\t\t\n      ADD \t\t\t\n      SWAP1 \t\t\t\n      POP \t\t\t\n      DUP2 \t\t\t\n      DUP2 \t\t\t\n      SUB \t\t\t\n      PUSH 0\t\t\t\n      DUP4 \t\t\t\n      ADD \t\t\t\n      MSTORE \t\t\t\n      PUSH [tag] 1420\t\t\t\n      DUP2 \t\t\t\n      PUSH [tag] 1000\t\t\t\n      JUMP \t\t\t\n    tag 1420\t\t\t\n      JUMPDEST \t\t\t\n      SWAP1 \t\t\t\n      POP \t\t\t\n      SWAP2 \t\t\t\n      SWAP1 \t\t\t\n      POP \t\t\t\n      JUMP \t\t\t\n    tag 1001\t\t\t\n      JUMPDEST \t\t\t\n      PUSH 55736572206E6F7420666F756E64000000000000000000000000000000000000\t\t\t\n      PUSH 0\t\t\t\n      DUP3 \t\t\t\n      ADD \t\t\t\n      MSTORE \t\t\t\n      POP \t\t\t\n      JUMP \t\t\t\n    tag 1002\t\t\t\n      JUMPDEST \t\t\t\n      PUSH 0\t\t\t\n      PUSH [tag] 1423\t\t\t\n      PUSH E\t\t\t\n      DUP4 \t\t\t\n      PUSH [tag] 987\t\t\t\n      JUMP \t\t\t\n    tag 1423\t\t\t\n      JUMPDEST \t\t\t\n      SWAP2 \t\t\t\n      POP \t\t\t\n      PUSH [tag] 1424\t\t\t\n      DUP3 \t\t\t\n      PUSH [tag] 1001\t\t\t\n      JUMP \t\t\t\n    tag 1424\t\t\t\n      JUMPDEST \t\t\t\n      PUSH 20\t\t\t\n      DUP3 \t\t\t\n      ADD \t\t\t\n      SWAP1 \t\t\t\n      POP \t\t\t\n      SWAP2 \t\t\t\n      SWAP1 \t\t\t\n      POP \t\t\t\n      JUMP \t\t\t\n    tag 167\t\t\t\n      JUMPDEST \t\t\t\n      PUSH 0\t\t\t\n      PUSH 20\t\t\t\n      DUP3 \t\t\t\n      ADD \t\t\t\n      SWAP1 \t\t\t\n      POP \t\t\t\n      DUP2 \t\t\t\n      DUP2 \t\t\t\n      SUB \t\t\t\n      PUSH 0\t\t\t\n      DUP4 \t\t\t\n      ADD \t\t\t\n      MSTORE \t\t\t\n      PUSH [tag] 1426\t\t\t\n      DUP2 \t\t\t\n      PUSH [tag] 1002\t\t\t\n      JUMP \t\t\t\n    tag 1426\t\t\t\n      JUMPDEST \t\t\t\n      SWAP1 \t\t\t\n      POP \t\t\t\n      SWAP2 \t\t\t\n      SWAP1 \t\t\t\n      POP \t\t\t\n      JUMP \t\t\t\n    tag 1003\t\t\t\n      JUMPDEST \t\t\t\n      PUSH 0\t\t\t\n      DUP2 \t\t\t\n      SWAP1 \t\t\t\n      POP \t\t\t\n      SWAP3 \t\t\t\n      SWAP2 \t\t\t\n      POP \t\t\t\n      POP \t\t\t\n      JUMP \t\t\t\n    tag 1004\t\t\t\n      JUMPDEST \t\t\t\n      PUSH 0\t\t\t\n      PUSH [tag] 1429\t\t\t\n      DUP3 \t\t\t\n      PUSH [tag] 920\t\t\t\n      JUMP \t\t\t\n    tag 1429\t\t\t\n      JUMPDEST \t\t\t\n      PUSH [tag] 1430\t\t\t\n      DUP2 \t\t\t\n      DUP6 \t\t\t\n      PUSH [tag] 1003\t\t\t\n      JUMP \t\t\t\n    tag 1430\t\t\t\n      JUMPDEST \t\t\t\n      SWAP4 \t\t\t\n      POP \t\t\t\n      PUSH [tag] 1431\t\t\t\n      DUP2 \t\t\t\n      DUP6 \t\t\t\n      PUSH 20\t\t\t\n      DUP7 \t\t\t\n      ADD \t\t\t\n      PUSH [tag] 922\t\t\t\n      JUMP \t\t\t\n    tag 1431\t\t\t\n      JUMPDEST \t\t\t\n      DUP1 \t\t\t\n      DUP5 \t\t\t\n      ADD \t\t\t\n      SWAP2 \t\t\t\n      POP \t\t\t\n      POP \t\t\t\n      SWAP3 \t\t\t\n      SWAP2 \t\t\t\n      POP \t\t\t\n      POP \t\t\t\n      JUMP \t\t\t\n    tag 169\t\t\t\n      JUMPDEST \t\t\t\n      PUSH 0\t\t\t\n      PUSH [tag] 1433\t\t\t\n      DUP3 \t\t\t\n      DUP5 \t\t\t\n      PUSH [tag] 1004\t\t\t\n      JUMP \t\t\t\n    tag 1433\t\t\t\n      JUMPDEST \t\t\t\n      SWAP2 \t\t\t\n      POP \t\t\t\n      DUP2 \t\t\t\n      SWAP1 \t\t\t\n      POP \t\t\t\n      SWAP3 \t\t\t\n      SWAP2 \t\t\t\n      POP \t\t\t\n      POP \t\t\t\n      JUMP \t\t\t\n    tag 1005\t\t\t\n      JUMPDEST \t\t\t\n      PUSH 0\t\t\t\n      DUP2 \t\t\t\n      SWAP1 \t\t\t\n      POP \t\t\t\n      DUP2 \t\t\t\n      PUSH 0\t\t\t\n      MSTORE \t\t\t\n      PUSH 20\t\t\t\n      PUSH 0\t\t\t\n      KECCAK256 \t\t\t\n      SWAP1 \t\t\t\n      POP \t\t\t\n      SWAP2 \t\t\t\n      SWAP1 \t\t\t\n      POP \t\t\t\n      JUMP \t\t\t\n    tag 1006\t\t\t\n      JUMPDEST \t\t\t\n      PUSH 0\t\t\t\n      PUSH 20\t\t\t\n      PUSH 1F\t\t\t\n      DUP4 \t\t\t\n      ADD \t\t\t\n      DIV \t\t\t\n      SWAP1 \t\t\t\n      POP \t\t\t\n      SWAP2 \t\t\t\n      SWAP1 \t\t\t\n      POP \t\t\t\n      JUMP \t\t\t\n    tag 1007\t\t\t\n      JUMPDEST \t\t\t\n      PUSH 0\t\t\t\n      DUP3 \t\t\t\n      DUP3 \t\t\t\n      SHL \t\t\t\n      SWAP1 \t\t\t\n      POP \t\t\t\n      SWAP3 \t\t\t\n      SWAP2 \t\t\t\n      POP \t\t\t\n      POP \t\t\t\n      JUMP \t\t\t\n    tag 1008\t\t\t\n      JUMPDEST \t\t\t\n      PUSH 0\t\t\t\n      PUSH 8\t\t\t\n      DUP4 \t\t\t\n      MUL \t\t\t\n      PUSH [tag] 1438\t\t\t\n      PUSH FFFFFFFFFFFFFFFFFFFFFFFFFFFFFFFFFFFFFFFFFFFFFFFFFFFFFFFFFFFFFFFF\t\t\t\n      DUP3 \t\t\t\n      PUSH [tag] 1007\t\t\t\n      JUMP \t\t\t\n    tag 1438\t\t\t\n      JUMPDEST \t\t\t\n      PUSH [tag] 1439\t\t\t\n      DUP7 \t\t\t\n      DUP4 \t\t\t\n      PUSH [tag] 1007\t\t\t\n      JUMP \t\t\t\n    tag 1439\t\t\t\n      JUMPDEST \t\t\t\n      SWAP6 \t\t\t\n      POP \t\t\t\n      DUP1 \t\t\t\n      NOT \t\t\t\n      DUP5 \t\t\t\n      AND \t\t\t\n      SWAP4 \t\t\t\n      POP \t\t\t\n      DUP1 \t\t\t\n      DUP7 \t\t\t\n      AND \t\t\t\n      DUP5 \t\t\t\n      OR \t\t\t\n      SWAP3 \t\t\t\n      POP \t\t\t\n      POP \t\t\t\n      POP \t\t\t\n      SWAP4 \t\t\t\n      SWAP3 \t\t\t\n      POP \t\t\t\n      POP \t\t\t\n      POP \t\t\t\n      JUMP \t\t\t\n    tag 1009\t\t\t\n      JUMPDEST \t\t\t\n      PUSH 0\t\t\t\n      DUP2 \t\t\t\n      SWAP1 \t\t\t\n      POP \t\t\t\n      SWAP2 \t\t\t\n      SWAP1 \t\t\t\n      POP \t\t\t\n      JUMP \t\t\t\n    tag 1010\t\t\t\n      JUMPDEST \t\t\t\n      PUSH 0\t\t\t\n      PUSH [tag] 1442\t\t\t\n      PUSH [tag] 1443\t\t\t\n      PUSH [tag] 1444\t\t\t\n      DUP5 \t\t\t\n      PUSH [tag] 925\t\t\t\n      JUMP \t\t\t\n    tag 1444\t\t\t\n      JUMPDEST \t\t\t\n      PUSH [tag] 1009\t\t\t\n      JUMP \t\t\t\n    tag 1443\t\t\t\n      JUMPDEST \t\t\t\n      PUSH [tag] 925\t\t\t\n      JUMP \t\t\t\n    tag 1442\t\t\t\n      JUMPDEST \t\t\t\n      SWAP1 \t\t\t\n      POP \t\t\t\n      SWAP2 \t\t\t\n      SWAP1 \t\t\t\n      POP \t\t\t\n      JUMP \t\t\t\n    tag 1011\t\t\t\n      JUMPDEST \t\t\t\n      PUSH 0\t\t\t\n      DUP2 \t\t\t\n      SWAP1 \t\t\t\n      POP \t\t\t\n      SWAP2 \t\t\t\n      SWAP1 \t\t\t\n      POP \t\t\t\n      JUMP \t\t\t\n    tag 1012\t\t\t\n      JUMPDEST \t\t\t\n      PUSH [tag] 1447\t\t\t\n      DUP4 \t\t\t\n      PUSH [tag] 1010\t\t\t\n      JUMP \t\t\t\n    tag 1447\t\t\t\n      JUMPDEST \t\t\t\n      PUSH [tag] 1448\t\t\t\n      PUSH [tag] 1449\t\t\t\n      DUP3 \t\t\t\n      PUSH [tag] 1011\t\t\t\n      JUMP \t\t\t\n    tag 1449\t\t\t\n      JUMPDEST \t\t\t\n      DUP5 \t\t\t\n      DUP5 \t\t\t\n      SLOAD \t\t\t\n      PUSH [tag] 1008\t\t\t\n      JUMP \t\t\t\n    tag 1448\t\t\t\n      JUMPDEST \t\t\t\n      DUP3 \t\t\t\n      SSTORE \t\t\t\n      POP \t\t\t\n      POP \t\t\t\n      POP \t\t\t\n      POP \t\t\t\n      JUMP \t\t\t\n    tag 1013\t\t\t\n      JUMPDEST \t\t\t\n      PUSH 0\t\t\t\n      SWAP1 \t\t\t\n      JUMP \t\t\t\n    tag 1014\t\t\t\n      JUMPDEST \t\t\t\n      PUSH [tag] 1452\t\t\t\n      PUSH [tag] 1013\t\t\t\n      JUMP \t\t\t\n    tag 1452\t\t\t\n      JUMPDEST \t\t\t\n      PUSH [tag] 1453\t\t\t\n      DUP2 \t\t\t\n      DUP5 \t\t\t\n      DUP5 \t\t\t\n      PUSH [tag] 1012\t\t\t\n      JUMP \t\t\t\n    tag 1453\t\t\t\n      JUMPDEST \t\t\t\n      POP \t\t\t\n      POP \t\t\t\n      POP \t\t\t\n      JUMP \t\t\t\n    tag 1015\t\t\t\n      JUMPDEST \t\t\t\n    tag 1455\t\t\t\n      JUMPDEST \t\t\t\n      DUP2 \t\t\t\n      DUP2 \t\t\t\n      LT \t\t\t\n      ISZERO \t\t\t\n      PUSH [tag] 1457\t\t\t\n      JUMPI \t\t\t\n      PUSH [tag] 1458\t\t\t\n      PUSH 0\t\t\t\n      DUP3 \t\t\t\n      PUSH [tag] 1014\t\t\t\n      JUMP \t\t\t\n    tag 1458\t\t\t\n      JUMPDEST \t\t\t\n      PUSH 1\t\t\t\n      DUP2 \t\t\t\n      ADD \t\t\t\n      SWAP1 \t\t\t\n      POP \t\t\t\n      PUSH [tag] 1455\t\t\t\n      JUMP \t\t\t\n    tag 1457\t\t\t\n      JUMPDEST \t\t\t\n      POP \t\t\t\n      POP \t\t\t\n      JUMP \t\t\t\n    tag 1016\t\t\t\n      JUMPDEST \t\t\t\n      PUSH 1F\t\t\t\n      DUP3 \t\t\t\n      GT \t\t\t\n      ISZERO \t\t\t\n      PUSH [tag] 1460\t\t\t\n      JUMPI \t\t\t\n      PUSH [tag] 1461\t\t\t\n      DUP2 \t\t\t\n      PUSH [tag] 1005\t\t\t\n      JUMP \t\t\t\n    tag 1461\t\t\t\n      JUMPDEST \t\t\t\n      PUSH [tag] 1462\t\t\t\n      DUP5 \t\t\t\n      PUSH [tag] 1006\t\t\t\n      JUMP \t\t\t\n    tag 1462\t\t\t\n      JUMPDEST \t\t\t\n      DUP2 \t\t\t\n      ADD \t\t\t\n      PUSH 20\t\t\t\n      DUP6 \t\t\t\n      LT \t\t\t\n      ISZERO \t\t\t\n      PUSH [tag] 1463\t\t\t\n      JUMPI \t\t\t\n      DUP2 \t\t\t\n      SWAP1 \t\t\t\n      POP \t\t\t\n    tag 1463\t\t\t\n      JUMPDEST \t\t\t\n      PUSH [tag] 1464\t\t\t\n      PUSH [tag] 1465\t\t\t\n      DUP6 \t\t\t\n      PUSH [tag] 1006\t\t\t\n      JUMP \t\t\t\n    tag 1465\t\t\t\n      JUMPDEST \t\t\t\n      DUP4 \t\t\t\n      ADD \t\t\t\n      DUP3 \t\t\t\n      PUSH [tag] 1015\t\t\t\n      JUMP \t\t\t\n    tag 1464\t\t\t\n      JUMPDEST \t\t\t\n      POP \t\t\t\n      POP \t\t\t\n    tag 1460\t\t\t\n      JUMPDEST \t\t\t\n      POP \t\t\t\n      POP \t\t\t\n      POP \t\t\t\n      JUMP \t\t\t\n    tag 1017\t\t\t\n      JUMPDEST \t\t\t\n      PUSH 0\t\t\t\n      DUP3 \t\t\t\n      DUP3 \t\t\t\n      SHR \t\t\t\n      SWAP1 \t\t\t\n      POP \t\t\t\n      SWAP3 \t\t\t\n      SWAP2 \t\t\t\n      POP \t\t\t\n      POP \t\t\t\n      JUMP \t\t\t\n    tag 1018\t\t\t\n      JUMPDEST \t\t\t\n      PUSH 0\t\t\t\n      PUSH [tag] 1468\t\t\t\n      PUSH 0\t\t\t\n      NOT \t\t\t\n      DUP5 \t\t\t\n      PUSH 8\t\t\t\n      MUL \t\t\t\n      PUSH [tag] 1017\t\t\t\n      JUMP \t\t\t\n    tag 1468\t\t\t\n      JUMPDEST \t\t\t\n      NOT \t\t\t\n      DUP1 \t\t\t\n      DUP4 \t\t\t\n      AND \t\t\t\n      SWAP2 \t\t\t\n      POP \t\t\t\n      POP \t\t\t\n      SWAP3 \t\t\t\n      SWAP2 \t\t\t\n      POP \t\t\t\n      POP \t\t\t\n      JUMP \t\t\t\n    tag 1019\t\t\t\n      JUMPDEST \t\t\t\n      PUSH 0\t\t\t\n      PUSH [tag] 1470\t\t\t\n      DUP4 \t\t\t\n      DUP4 \t\t\t\n      PUSH [tag] 1018\t\t\t\n      JUMP \t\t\t\n    tag 1470\t\t\t\n      JUMPDEST \t\t\t\n      SWAP2 \t\t\t\n      POP \t\t\t\n      DUP3 \t\t\t\n      PUSH 2\t\t\t\n      MUL \t\t\t\n      DUP3 \t\t\t\n      OR \t\t\t\n      SWAP1 \t\t\t\n      POP \t\t\t\n      SWAP3 \t\t\t\n      SWAP2 \t\t\t\n      POP \t\t\t\n      POP \t\t\t\n      JUMP \t\t\t\n    tag 174\t\t\t\n      JUMPDEST \t\t\t\n      PUSH [tag] 1472\t\t\t\n      DUP3 \t\t\t\n      PUSH [tag] 920\t\t\t\n      JUMP \t\t\t\n    tag 1472\t\t\t\n      JUMPDEST \t\t\t\n      PUSH FFFFFFFFFFFFFFFF\t\t\t\n      DUP2 \t\t\t\n      GT \t\t\t\n      ISZERO \t\t\t\n      PUSH [tag] 1473\t\t\t\n      JUMPI \t\t\t\n      PUSH [tag] 1474\t\t\t\n      PUSH [tag] 718\t\t\t\n      JUMP \t\t\t\n    tag 1474\t\t\t\n      JUMPDEST \t\t\t\n    tag 1473\t\t\t\n      JUMPDEST \t\t\t\n      PUSH [tag] 1475\t\t\t\n      DUP3 \t\t\t\n      SLOAD \t\t\t\n      PUSH [tag] 113\t\t\t\n      JUMP \t\t\t\n    tag 1475\t\t\t\n      JUMPDEST \t\t\t\n      PUSH [tag] 1476\t\t\t\n      DUP3 \t\t\t\n      DUP3 \t\t\t\n      DUP6 \t\t\t\n      PUSH [tag] 1016\t\t\t\n      JUMP \t\t\t\n    tag 1476\t\t\t\n      JUMPDEST \t\t\t\n      PUSH 0\t\t\t\n      PUSH 20\t\t\t\n      SWAP1 \t\t\t\n      POP \t\t\t\n      PUSH 1F\t\t\t\n      DUP4 \t\t\t\n      GT \t\t\t\n      PUSH 1\t\t\t\n      DUP2 \t\t\t\n      EQ \t\t\t\n      PUSH [tag] 1478\t\t\t\n      JUMPI \t\t\t\n      PUSH 0\t\t\t\n      DUP5 \t\t\t\n      ISZERO \t\t\t\n      PUSH [tag] 1479\t\t\t\n      JUMPI \t\t\t\n      DUP3 \t\t\t\n      DUP8 \t\t\t\n      ADD \t\t\t\n      MLOAD \t\t\t\n      SWAP1 \t\t\t\n      POP \t\t\t\n    tag 1479\t\t\t\n      JUMPDEST \t\t\t\n      PUSH [tag] 1480\t\t\t\n      DUP6 \t\t\t\n      DUP3 \t\t\t\n      PUSH [tag] 1019\t\t\t\n      JUMP \t\t\t\n    tag 1480\t\t\t\n      JUMPDEST \t\t\t\n      DUP7 \t\t\t\n      SSTORE \t\t\t\n      POP \t\t\t\n      PUSH [tag] 1477\t\t\t\n      JUMP \t\t\t\n    tag 1478\t\t\t\n      JUMPDEST \t\t\t\n      PUSH 1F\t\t\t\n      NOT \t\t\t\n      DUP5 \t\t\t\n      AND \t\t\t\n      PUSH [tag] 1481\t\t\t\n      DUP7 \t\t\t\n      PUSH [tag] 1005\t\t\t\n      JUMP \t\t\t\n    tag 1481\t\t\t\n      JUMPDEST \t\t\t\n      PUSH 0\t\t\t\n    tag 1482\t\t\t\n      JUMPDEST \t\t\t\n      DUP3 \t\t\t\n      DUP2 \t\t\t\n      LT \t\t\t\n      ISZERO \t\t\t\n      PUSH [tag] 1484\t\t\t\n      JUMPI \t\t\t\n      DUP5 \t\t\t\n      DUP10 \t\t\t\n      ADD \t\t\t\n      MLOAD \t\t\t\n      DUP3 \t\t\t\n      SSTORE \t\t\t\n      PUSH 1\t\t\t\n      DUP3 \t\t\t\n      ADD \t\t\t\n      SWAP2 \t\t\t\n      POP \t\t\t\n      PUSH 20\t\t\t\n      DUP6 \t\t\t\n      ADD \t\t\t\n      SWAP5 \t\t\t\n      POP \t\t\t\n      PUSH 20\t\t\t\n      DUP2 \t\t\t\n      ADD \t\t\t\n      SWAP1 \t\t\t\n      POP \t\t\t\n      PUSH [tag] 1482\t\t\t\n      JUMP \t\t\t\n    tag 1484\t\t\t\n      JUMPDEST \t\t\t\n      DUP7 \t\t\t\n      DUP4 \t\t\t\n      LT \t\t\t\n      ISZERO \t\t\t\n      PUSH [tag] 1485\t\t\t\n      JUMPI \t\t\t\n      DUP5 \t\t\t\n      DUP10 \t\t\t\n      ADD \t\t\t\n      MLOAD \t\t\t\n      PUSH [tag] 1486\t\t\t\n      PUSH 1F\t\t\t\n      DUP10 \t\t\t\n      AND \t\t\t\n      DUP3 \t\t\t\n      PUSH [tag] 1018\t\t\t\n      JUMP \t\t\t\n    tag 1486\t\t\t\n      JUMPDEST \t\t\t\n      DUP4 \t\t\t\n      SSTORE \t\t\t\n      POP \t\t\t\n    tag 1485\t\t\t\n      JUMPDEST \t\t\t\n      PUSH 1\t\t\t\n      PUSH 2\t\t\t\n      DUP9 \t\t\t\n      MUL \t\t\t\n      ADD \t\t\t\n      DUP9 \t\t\t\n      SSTORE \t\t\t\n      POP \t\t\t\n      POP \t\t\t\n      POP \t\t\t\n    tag 1477\t\t\t\n      JUMPDEST \t\t\t\n      POP \t\t\t\n      POP \t\t\t\n      POP \t\t\t\n      POP \t\t\t\n      POP \t\t\t\n      POP \t\t\t\n      JUMP \t\t\t\n    tag 1020\t\t\t\n      JUMPDEST \t\t\t\n      PUSH 0\t\t\t\n      PUSH [tag] 1488\t\t\t\n      DUP3 \t\t\t\n      PUSH [tag] 920\t\t\t\n      JUMP \t\t\t\n    tag 1488\t\t\t\n      JUMPDEST \t\t\t\n      PUSH [tag] 1489\t\t\t\n      DUP2 \t\t\t\n      DUP6 \t\t\t\n      PUSH [tag] 987\t\t\t\n      JUMP \t\t\t\n    tag 1489\t\t\t\n      JUMPDEST \t\t\t\n      SWAP4 \t\t\t\n      POP \t\t\t\n      PUSH [tag] 1490\t\t\t\n      DUP2 \t\t\t\n      DUP6 \t\t\t\n      PUSH 20\t\t\t\n      DUP7 \t\t\t\n      ADD \t\t\t\n      PUSH [tag] 922\t\t\t\n      JUMP \t\t\t\n    tag 1490\t\t\t\n      JUMPDEST \t\t\t\n      PUSH [tag] 1491\t\t\t\n      DUP2 \t\t\t\n      PUSH [tag] 923\t\t\t\n      JUMP \t\t\t\n    tag 1491\t\t\t\n      JUMPDEST \t\t\t\n      DUP5 \t\t\t\n      ADD \t\t\t\n      SWAP2 \t\t\t\n      POP \t\t\t\n      POP \t\t\t\n      SWAP3 \t\t\t\n      SWAP2 \t\t\t\n      POP \t\t\t\n      POP \t\t\t\n      JUMP \t\t\t\n    tag 1021\t\t\t\n      JUMPDEST \t\t\t\n      PUSH 0\t\t\t\n      DUP2 \t\t\t\n      SLOAD \t\t\t\n      PUSH [tag] 1493\t\t\t\n      DUP2 \t\t\t\n      PUSH [tag] 113\t\t\t\n      JUMP \t\t\t\n    tag 1493\t\t\t\n      JUMPDEST \t\t\t\n      PUSH [tag] 1494\t\t\t\n      DUP2 \t\t\t\n      DUP7 \t\t\t\n      PUSH [tag] 987\t\t\t\n      JUMP \t\t\t\n    tag 1494\t\t\t\n      JUMPDEST \t\t\t\n      SWAP5 \t\t\t\n      POP \t\t\t\n      PUSH 1\t\t\t\n      DUP3 \t\t\t\n      AND \t\t\t\n      PUSH 0\t\t\t\n      DUP2 \t\t\t\n      EQ \t\t\t\n      PUSH [tag] 1496\t\t\t\n      JUMPI \t\t\t\n      PUSH 1\t\t\t\n      DUP2 \t\t\t\n      EQ \t\t\t\n      PUSH [tag] 1497\t\t\t\n      JUMPI \t\t\t\n      PUSH [tag] 1495\t\t\t\n      JUMP \t\t\t\n    tag 1496\t\t\t\n      JUMPDEST \t\t\t\n      PUSH FF\t\t\t\n      NOT \t\t\t\n      DUP4 \t\t\t\n      AND \t\t\t\n      DUP7 \t\t\t\n      MSTORE \t\t\t\n      DUP2 \t\t\t\n      ISZERO \t\t\t\n      ISZERO \t\t\t\n      PUSH 20\t\t\t\n      MUL \t\t\t\n      DUP7 \t\t\t\n      ADD \t\t\t\n      SWAP4 \t\t\t\n      POP \t\t\t\n      PUSH [tag] 1495\t\t\t\n      JUMP \t\t\t\n    tag 1497\t\t\t\n      JUMPDEST \t\t\t\n      PUSH [tag] 1498\t\t\t\n      DUP6 \t\t\t\n      PUSH [tag] 1005\t\t\t\n      JUMP \t\t\t\n    tag 1498\t\t\t\n      JUMPDEST \t\t\t\n      PUSH 0\t\t\t\n    tag 1499\t\t\t\n      JUMPDEST \t\t\t\n      DUP4 \t\t\t\n      DUP2 \t\t\t\n      LT \t\t\t\n      ISZERO \t\t\t\n      PUSH [tag] 1501\t\t\t\n      JUMPI \t\t\t\n      DUP2 \t\t\t\n      SLOAD \t\t\t\n      DUP2 \t\t\t\n      DUP10 \t\t\t\n      ADD \t\t\t\n      MSTORE \t\t\t\n      PUSH 1\t\t\t\n      DUP3 \t\t\t\n      ADD \t\t\t\n      SWAP2 \t\t\t\n      POP \t\t\t\n      PUSH 20\t\t\t\n      DUP2 \t\t\t\n      ADD \t\t\t\n      SWAP1 \t\t\t\n      POP \t\t\t\n      PUSH [tag] 1499\t\t\t\n      JUMP \t\t\t\n    tag 1501\t\t\t\n      JUMPDEST \t\t\t\n      DUP1 \t\t\t\n      DUP9 \t\t\t\n      ADD \t\t\t\n      SWAP6 \t\t\t\n      POP \t\t\t\n      POP \t\t\t\n      POP \t\t\t\n    tag 1495\t\t\t\n      JUMPDEST \t\t\t\n      POP \t\t\t\n      POP \t\t\t\n      POP \t\t\t\n      SWAP3 \t\t\t\n      SWAP2 \t\t\t\n      POP \t\t\t\n      POP \t\t\t\n      JUMP \t\t\t\n    tag 178\t\t\t\n      JUMPDEST \t\t\t\n      PUSH 0\t\t\t\n      PUSH 60\t\t\t\n      DUP3 \t\t\t\n      ADD \t\t\t\n      SWAP1 \t\t\t\n      POP \t\t\t\n      DUP2 \t\t\t\n      DUP2 \t\t\t\n      SUB \t\t\t\n      PUSH 0\t\t\t\n      DUP4 \t\t\t\n      ADD \t\t\t\n      MSTORE \t\t\t\n      PUSH [tag] 1503\t\t\t\n      DUP2 \t\t\t\n      DUP7 \t\t\t\n      PUSH [tag] 1020\t\t\t\n      JUMP \t\t\t\n    tag 1503\t\t\t\n      JUMPDEST \t\t\t\n      SWAP1 \t\t\t\n      POP \t\t\t\n      DUP2 \t\t\t\n      DUP2 \t\t\t\n      SUB \t\t\t\n      PUSH 20\t\t\t\n      DUP4 \t\t\t\n      ADD \t\t\t\n      MSTORE \t\t\t\n      PUSH [tag] 1504\t\t\t\n      DUP2 \t\t\t\n      DUP6 \t\t\t\n      PUSH [tag] 1021\t\t\t\n      JUMP \t\t\t\n    tag 1504\t\t\t\n      JUMPDEST \t\t\t\n      SWAP1 \t\t\t\n      POP \t\t\t\n      DUP2 \t\t\t\n      DUP2 \t\t\t\n      SUB \t\t\t\n      PUSH 40\t\t\t\n      DUP4 \t\t\t\n      ADD \t\t\t\n      MSTORE \t\t\t\n      PUSH [tag] 1505\t\t\t\n      DUP2 \t\t\t\n      DUP5 \t\t\t\n      PUSH [tag] 1021\t\t\t\n      JUMP \t\t\t\n    tag 1505\t\t\t\n      JUMPDEST \t\t\t\n      SWAP1 \t\t\t\n      POP \t\t\t\n      SWAP5 \t\t\t\n      SWAP4 \t\t\t\n      POP \t\t\t\n      POP \t\t\t\n      POP \t\t\t\n      POP \t\t\t\n      JUMP \t\t\t\n    tag 1022\t\t\t\n      JUMPDEST \t\t\t\n      PUSH 4F6E6C792061646D696E20697320616C6C6F7765640000000000000000000000\t\t\t\n      PUSH 0\t\t\t\n      DUP3 \t\t\t\n      ADD \t\t\t\n      MSTORE \t\t\t\n      POP \t\t\t\n      JUMP \t\t\t\n    tag 1023\t\t\t\n      JUMPDEST \t\t\t\n      PUSH 0\t\t\t\n      PUSH [tag] 1508\t\t\t\n      PUSH 15\t\t\t\n      DUP4 \t\t\t\n      PUSH [tag] 987\t\t\t\n      JUMP \t\t\t\n    tag 1508\t\t\t\n      JUMPDEST \t\t\t\n      SWAP2 \t\t\t\n      POP \t\t\t\n      PUSH [tag] 1509\t\t\t\n      DUP3 \t\t\t\n      PUSH [tag] 1022\t\t\t\n      JUMP \t\t\t\n    tag 1509\t\t\t\n      JUMPDEST \t\t\t\n      PUSH 20\t\t\t\n      DUP3 \t\t\t\n      ADD \t\t\t\n      SWAP1 \t\t\t\n      POP \t\t\t\n      SWAP2 \t\t\t\n      SWAP1 \t\t\t\n      POP \t\t\t\n      JUMP \t\t\t\n    tag 182\t\t\t\n      JUMPDEST \t\t\t\n      PUSH 0\t\t\t\n      PUSH 20\t\t\t\n      DUP3 \t\t\t\n      ADD \t\t\t\n      SWAP1 \t\t\t\n      POP \t\t\t\n      DUP2 \t\t\t\n      DUP2 \t\t\t\n      SUB \t\t\t\n      PUSH 0\t\t\t\n      DUP4 \t\t\t\n      ADD \t\t\t\n      MSTORE \t\t\t\n      PUSH [tag] 1511\t\t\t\n      DUP2 \t\t\t\n      PUSH [tag] 1023\t\t\t\n      JUMP \t\t\t\n    tag 1511\t\t\t\n      JUMPDEST \t\t\t\n      SWAP1 \t\t\t\n      POP \t\t\t\n      SWAP2 \t\t\t\n      SWAP1 \t\t\t\n      POP \t\t\t\n      JUMP \t\t\t\n    tag 234\t\t\t\n      JUMPDEST \t\t\t\n      PUSH 4E487B7100000000000000000000000000000000000000000000000000000000\t\t\t\n      PUSH 0\t\t\t\n      MSTORE \t\t\t\n      PUSH 32\t\t\t\n      PUSH 4\t\t\t\n      MSTORE \t\t\t\n      PUSH 24\t\t\t\n      PUSH 0\t\t\t\n      REVERT \t\t\t\n    tag 1024\t\t\t\n      JUMPDEST \t\t\t\n      PUSH 4E487B7100000000000000000000000000000000000000000000000000000000\t\t\t\n      PUSH 0\t\t\t\n      MSTORE \t\t\t\n      PUSH 11\t\t\t\n      PUSH 4\t\t\t\n      MSTORE \t\t\t\n      PUSH 24\t\t\t\n      PUSH 0\t\t\t\n      REVERT \t\t\t\n    tag 273\t\t\t\n      JUMPDEST \t\t\t\n      PUSH 0\t\t\t\n      PUSH [tag] 1515\t\t\t\n      DUP3 \t\t\t\n      PUSH [tag] 925\t\t\t\n      JUMP \t\t\t\n    tag 1515\t\t\t\n      JUMPDEST \t\t\t\n      SWAP2 \t\t\t\n      POP \t\t\t\n      PUSH FFFFFFFFFFFFFFFFFFFFFFFFFFFFFFFFFFFFFFFFFFFFFFFFFFFFFFFFFFFFFFFF\t\t\t\n      DUP3 \t\t\t\n      SUB \t\t\t\n      PUSH [tag] 1516\t\t\t\n      JUMPI \t\t\t\n      PUSH [tag] 1517\t\t\t\n      PUSH [tag] 1024\t\t\t\n      JUMP \t\t\t\n    tag 1517\t\t\t\n      JUMPDEST \t\t\t\n    tag 1516\t\t\t\n      JUMPDEST \t\t\t\n      PUSH 1\t\t\t\n      DUP3 \t\t\t\n      ADD \t\t\t\n      SWAP1 \t\t\t\n      POP \t\t\t\n      SWAP2 \t\t\t\n      SWAP1 \t\t\t\n      POP \t\t\t\n      JUMP \t\t\t\n    tag 1025\t\t\t\n      JUMPDEST \t\t\t\n      PUSH 5573657220646F65736E27742068617665204B59432072657100000000000000\t\t\t\n      PUSH 0\t\t\t\n      DUP3 \t\t\t\n      ADD \t\t\t\n      MSTORE \t\t\t\n      POP \t\t\t\n      JUMP \t\t\t\n    tag 1026\t\t\t\n      JUMPDEST \t\t\t\n      PUSH 0\t\t\t\n      PUSH [tag] 1520\t\t\t\n      PUSH 19\t\t\t\n      DUP4 \t\t\t\n      PUSH [tag] 987\t\t\t\n      JUMP \t\t\t\n    tag 1520\t\t\t\n      JUMPDEST \t\t\t\n      SWAP2 \t\t\t\n      POP \t\t\t\n      PUSH [tag] 1521\t\t\t\n      DUP3 \t\t\t\n      PUSH [tag] 1025\t\t\t\n      JUMP \t\t\t\n    tag 1521\t\t\t\n      JUMPDEST \t\t\t\n      PUSH 20\t\t\t\n      DUP3 \t\t\t\n      ADD \t\t\t\n      SWAP1 \t\t\t\n      POP \t\t\t\n      SWAP2 \t\t\t\n      SWAP1 \t\t\t\n      POP \t\t\t\n      JUMP \t\t\t\n    tag 303\t\t\t\n      JUMPDEST \t\t\t\n      PUSH 0\t\t\t\n      PUSH 20\t\t\t\n      DUP3 \t\t\t\n      ADD \t\t\t\n      SWAP1 \t\t\t\n      POP \t\t\t\n      DUP2 \t\t\t\n      DUP2 \t\t\t\n      SUB \t\t\t\n      PUSH 0\t\t\t\n      DUP4 \t\t\t\n      ADD \t\t\t\n      MSTORE \t\t\t\n      PUSH [tag] 1523\t\t\t\n      DUP2 \t\t\t\n      PUSH [tag] 1026\t\t\t\n      JUMP \t\t\t\n    tag 1523\t\t\t\n      JUMPDEST \t\t\t\n      SWAP1 \t\t\t\n      POP \t\t\t\n      SWAP2 \t\t\t\n      SWAP1 \t\t\t\n      POP \t\t\t\n      JUMP \t\t\t\n    tag 1027\t\t\t\n      JUMPDEST \t\t\t\n      PUSH [tag] 1525\t\t\t\n      DUP2 \t\t\t\n      PUSH [tag] 917\t\t\t\n      JUMP \t\t\t\n    tag 1525\t\t\t\n      JUMPDEST \t\t\t\n      DUP3 \t\t\t\n      MSTORE \t\t\t\n      POP \t\t\t\n      POP \t\t\t\n      JUMP \t\t\t\n    tag 1028\t\t\t\n      JUMPDEST \t\t\t\n      PUSH [tag] 1527\t\t\t\n      DUP2 \t\t\t\n      PUSH [tag] 959\t\t\t\n      JUMP \t\t\t\n    tag 1527\t\t\t\n      JUMPDEST \t\t\t\n      DUP3 \t\t\t\n      MSTORE \t\t\t\n      POP \t\t\t\n      POP \t\t\t\n      JUMP \t\t\t\n    tag 312\t\t\t\n      JUMPDEST \t\t\t\n      PUSH 0\t\t\t\n      PUSH 80\t\t\t\n      DUP3 \t\t\t\n      ADD \t\t\t\n      SWAP1 \t\t\t\n      POP \t\t\t\n      DUP2 \t\t\t\n      DUP2 \t\t\t\n      SUB \t\t\t\n      PUSH 0\t\t\t\n      DUP4 \t\t\t\n      ADD \t\t\t\n      MSTORE \t\t\t\n      PUSH [tag] 1529\t\t\t\n      DUP2 \t\t\t\n      DUP8 \t\t\t\n      PUSH [tag] 1020\t\t\t\n      JUMP \t\t\t\n    tag 1529\t\t\t\n      JUMPDEST \t\t\t\n      SWAP1 \t\t\t\n      POP \t\t\t\n      PUSH [tag] 1530\t\t\t\n      PUSH 20\t\t\t\n      DUP4 \t\t\t\n      ADD \t\t\t\n      DUP7 \t\t\t\n      PUSH [tag] 1027\t\t\t\n      JUMP \t\t\t\n    tag 1530\t\t\t\n      JUMPDEST \t\t\t\n      PUSH [tag] 1531\t\t\t\n      PUSH 40\t\t\t\n      DUP4 \t\t\t\n      ADD \t\t\t\n      DUP6 \t\t\t\n      PUSH [tag] 1027\t\t\t\n      JUMP \t\t\t\n    tag 1531\t\t\t\n      JUMPDEST \t\t\t\n      PUSH [tag] 1532\t\t\t\n      PUSH 60\t\t\t\n      DUP4 \t\t\t\n      ADD \t\t\t\n      DUP5 \t\t\t\n      PUSH [tag] 1028\t\t\t\n      JUMP \t\t\t\n    tag 1532\t\t\t\n      JUMPDEST \t\t\t\n      SWAP6 \t\t\t\n      SWAP5 \t\t\t\n      POP \t\t\t\n      POP \t\t\t\n      POP \t\t\t\n      POP \t\t\t\n      POP \t\t\t\n      JUMP \t\t\t\n    tag 1029\t\t\t\n      JUMPDEST \t\t\t\n      PUSH 5065726D697373696F6E206E6F7420666F756E64000000000000000000000000\t\t\t\n      PUSH 0\t\t\t\n      DUP3 \t\t\t\n      ADD \t\t\t\n      MSTORE \t\t\t\n      POP \t\t\t\n      JUMP \t\t\t\n    tag 1030\t\t\t\n      JUMPDEST \t\t\t\n      PUSH 0\t\t\t\n      PUSH [tag] 1535\t\t\t\n      PUSH 14\t\t\t\n      DUP4 \t\t\t\n      PUSH [tag] 987\t\t\t\n      JUMP \t\t\t\n    tag 1535\t\t\t\n      JUMPDEST \t\t\t\n      SWAP2 \t\t\t\n      POP \t\t\t\n      PUSH [tag] 1536\t\t\t\n      DUP3 \t\t\t\n      PUSH [tag] 1029\t\t\t\n      JUMP \t\t\t\n    tag 1536\t\t\t\n      JUMPDEST \t\t\t\n      PUSH 20\t\t\t\n      DUP3 \t\t\t\n      ADD \t\t\t\n      SWAP1 \t\t\t\n      POP \t\t\t\n      SWAP2 \t\t\t\n      SWAP1 \t\t\t\n      POP \t\t\t\n      JUMP \t\t\t\n    tag 339\t\t\t\n      JUMPDEST \t\t\t\n      PUSH 0\t\t\t\n      PUSH 20\t\t\t\n      DUP3 \t\t\t\n      ADD \t\t\t\n      SWAP1 \t\t\t\n      POP \t\t\t\n      DUP2 \t\t\t\n      DUP2 \t\t\t\n      SUB \t\t\t\n      PUSH 0\t\t\t\n      DUP4 \t\t\t\n      ADD \t\t\t\n      MSTORE \t\t\t\n      PUSH [tag] 1538\t\t\t\n      DUP2 \t\t\t\n      PUSH [tag] 1030\t\t\t\n      JUMP \t\t\t\n    tag 1538\t\t\t\n      JUMPDEST \t\t\t\n      SWAP1 \t\t\t\n      POP \t\t\t\n      SWAP2 \t\t\t\n      SWAP1 \t\t\t\n      POP \t\t\t\n      JUMP \t\t\t\n    tag 1031\t\t\t\n      JUMPDEST \t\t\t\n      PUSH 5573657220686164206B7963207265712E000000000000000000000000000000\t\t\t\n      PUSH 0\t\t\t\n      DUP3 \t\t\t\n      ADD \t\t\t\n      MSTORE \t\t\t\n      POP \t\t\t\n      JUMP \t\t\t\n    tag 1032\t\t\t\n      JUMPDEST \t\t\t\n      PUSH 0\t\t\t\n      PUSH [tag] 1541\t\t\t\n      PUSH 11\t\t\t\n      DUP4 \t\t\t\n      PUSH [tag] 987\t\t\t\n      JUMP \t\t\t\n    tag 1541\t\t\t\n      JUMPDEST \t\t\t\n      SWAP2 \t\t\t\n      POP \t\t\t\n      PUSH [tag] 1542\t\t\t\n      DUP3 \t\t\t\n      PUSH [tag] 1031\t\t\t\n      JUMP \t\t\t\n    tag 1542\t\t\t\n      JUMPDEST \t\t\t\n      PUSH 20\t\t\t\n      DUP3 \t\t\t\n      ADD \t\t\t\n      SWAP1 \t\t\t\n      POP \t\t\t\n      SWAP2 \t\t\t\n      SWAP1 \t\t\t\n      POP \t\t\t\n      JUMP \t\t\t\n    tag 437\t\t\t\n      JUMPDEST \t\t\t\n      PUSH 0\t\t\t\n      PUSH 20\t\t\t\n      DUP3 \t\t\t\n      ADD \t\t\t\n      SWAP1 \t\t\t\n      POP \t\t\t\n      DUP2 \t\t\t\n      DUP2 \t\t\t\n      SUB \t\t\t\n      PUSH 0\t\t\t\n      DUP4 \t\t\t\n      ADD \t\t\t\n      MSTORE \t\t\t\n      PUSH [tag] 1544\t\t\t\n      DUP2 \t\t\t\n      PUSH [tag] 1032\t\t\t\n      JUMP \t\t\t\n    tag 1544\t\t\t\n      JUMPDEST \t\t\t\n      SWAP1 \t\t\t\n      POP \t\t\t\n      SWAP2 \t\t\t\n      SWAP1 \t\t\t\n      POP \t\t\t\n      JUMP \t\t\t\n    tag 457\t\t\t\n      JUMPDEST \t\t\t\n      PUSH 0\t\t\t\n      PUSH 60\t\t\t\n      DUP3 \t\t\t\n      ADD \t\t\t\n      SWAP1 \t\t\t\n      POP \t\t\t\n      DUP2 \t\t\t\n      DUP2 \t\t\t\n      SUB \t\t\t\n      PUSH 0\t\t\t\n      DUP4 \t\t\t\n      ADD \t\t\t\n      MSTORE \t\t\t\n      PUSH [tag] 1546\t\t\t\n      DUP2 \t\t\t\n      DUP7 \t\t\t\n      PUSH [tag] 1020\t\t\t\n      JUMP \t\t\t\n    tag 1546\t\t\t\n      JUMPDEST \t\t\t\n      SWAP1 \t\t\t\n      POP \t\t\t\n      DUP2 \t\t\t\n      DUP2 \t\t\t\n      SUB \t\t\t\n      PUSH 20\t\t\t\n      DUP4 \t\t\t\n      ADD \t\t\t\n      MSTORE \t\t\t\n      PUSH [tag] 1547\t\t\t\n      DUP2 \t\t\t\n      DUP6 \t\t\t\n      PUSH [tag] 1021\t\t\t\n      JUMP \t\t\t\n    tag 1547\t\t\t\n      JUMPDEST \t\t\t\n      SWAP1 \t\t\t\n      POP \t\t\t\n      DUP2 \t\t\t\n      DUP2 \t\t\t\n      SUB \t\t\t\n      PUSH 40\t\t\t\n      DUP4 \t\t\t\n      ADD \t\t\t\n      MSTORE \t\t\t\n      PUSH [tag] 1548\t\t\t\n      DUP2 \t\t\t\n      DUP5 \t\t\t\n      PUSH [tag] 1020\t\t\t\n      JUMP \t\t\t\n    tag 1548\t\t\t\n      JUMPDEST \t\t\t\n      SWAP1 \t\t\t\n      POP \t\t\t\n      SWAP5 \t\t\t\n      SWAP4 \t\t\t\n      POP \t\t\t\n      POP \t\t\t\n      POP \t\t\t\n      POP \t\t\t\n      JUMP \t\t\t\n    tag 1033\t\t\t\n      JUMPDEST \t\t\t\n      PUSH 53656E64657220496420456D7074790000000000000000000000000000000000\t\t\t\n      PUSH 0\t\t\t\n      DUP3 \t\t\t\n      ADD \t\t\t\n      MSTORE \t\t\t\n      POP \t\t\t\n      JUMP \t\t\t\n    tag 1034\t\t\t\n      JUMPDEST \t\t\t\n      PUSH 0\t\t\t\n      PUSH [tag] 1551\t\t\t\n      PUSH F\t\t\t\n      DUP4 \t\t\t\n      PUSH [tag] 987\t\t\t\n      JUMP \t\t\t\n    tag 1551\t\t\t\n      JUMPDEST \t\t\t\n      SWAP2 \t\t\t\n      POP \t\t\t\n      PUSH [tag] 1552\t\t\t\n      DUP3 \t\t\t\n      PUSH [tag] 1033\t\t\t\n      JUMP \t\t\t\n    tag 1552\t\t\t\n      JUMPDEST \t\t\t\n      PUSH 20\t\t\t\n      DUP3 \t\t\t\n      ADD \t\t\t\n      SWAP1 \t\t\t\n      POP \t\t\t\n      SWAP2 \t\t\t\n      SWAP1 \t\t\t\n      POP \t\t\t\n      JUMP \t\t\t\n    tag 553\t\t\t\n      JUMPDEST \t\t\t\n      PUSH 0\t\t\t\n      PUSH 20\t\t\t\n      DUP3 \t\t\t\n      ADD \t\t\t\n      SWAP1 \t\t\t\n      POP \t\t\t\n      DUP2 \t\t\t\n      DUP2 \t\t\t\n      SUB \t\t\t\n      PUSH 0\t\t\t\n      DUP4 \t\t\t\n      ADD \t\t\t\n      MSTORE \t\t\t\n      PUSH [tag] 1554\t\t\t\n      DUP2 \t\t\t\n      PUSH [tag] 1034\t\t\t\n      JUMP \t\t\t\n    tag 1554\t\t\t\n      JUMPDEST \t\t\t\n      SWAP1 \t\t\t\n      POP \t\t\t\n      SWAP2 \t\t\t\n      SWAP1 \t\t\t\n      POP \t\t\t\n      JUMP \t\t\t\n    tag 1035\t\t\t\n      JUMPDEST \t\t\t\n      PUSH [tag] 1556\t\t\t\n      DUP2 \t\t\t\n      PUSH [tag] 955\t\t\t\n      JUMP \t\t\t\n    tag 1556\t\t\t\n      JUMPDEST \t\t\t\n      DUP3 \t\t\t\n      MSTORE \t\t\t\n      POP \t\t\t\n      POP \t\t\t\n      JUMP \t\t\t\n    tag 617\t\t\t\n      JUMPDEST \t\t\t\n      PUSH 0\t\t\t\n      PUSH 80\t\t\t\n      DUP3 \t\t\t\n      ADD \t\t\t\n      SWAP1 \t\t\t\n      POP \t\t\t\n      DUP2 \t\t\t\n      DUP2 \t\t\t\n      SUB \t\t\t\n      PUSH 0\t\t\t\n      DUP4 \t\t\t\n      ADD \t\t\t\n      MSTORE \t\t\t\n      PUSH [tag] 1558\t\t\t\n      DUP2 \t\t\t\n      DUP8 \t\t\t\n      PUSH [tag] 1020\t\t\t\n      JUMP \t\t\t\n    tag 1558\t\t\t\n      JUMPDEST \t\t\t\n      SWAP1 \t\t\t\n      POP \t\t\t\n      PUSH [tag] 1559\t\t\t\n      PUSH 20\t\t\t\n      DUP4 \t\t\t\n      ADD \t\t\t\n      DUP7 \t\t\t\n      PUSH [tag] 1027\t\t\t\n      JUMP \t\t\t\n    tag 1559\t\t\t\n      JUMPDEST \t\t\t\n      PUSH [tag] 1560\t\t\t\n      PUSH 40\t\t\t\n      DUP4 \t\t\t\n      ADD \t\t\t\n      DUP6 \t\t\t\n      PUSH [tag] 1027\t\t\t\n      JUMP \t\t\t\n    tag 1560\t\t\t\n      JUMPDEST \t\t\t\n      PUSH [tag] 1561\t\t\t\n      PUSH 60\t\t\t\n      DUP4 \t\t\t\n      ADD \t\t\t\n      DUP5 \t\t\t\n      PUSH [tag] 1035\t\t\t\n      JUMP \t\t\t\n    tag 1561\t\t\t\n      JUMPDEST \t\t\t\n      SWAP6 \t\t\t\n      SWAP5 \t\t\t\n      POP \t\t\t\n      POP \t\t\t\n      POP \t\t\t\n      POP \t\t\t\n      POP \t\t\t\n      JUMP \t\t\t\n    tag 1036\t\t\t\n      JUMPDEST \t\t\t\n      PUSH 42616E6B20496420456D70747900000000000000000000000000000000000000\t\t\t\n      PUSH 0\t\t\t\n      DUP3 \t\t\t\n      ADD \t\t\t\n      MSTORE \t\t\t\n      POP \t\t\t\n      JUMP \t\t\t\n    tag 1037\t\t\t\n      JUMPDEST \t\t\t\n      PUSH 0\t\t\t\n      PUSH [tag] 1564\t\t\t\n      PUSH D\t\t\t\n      DUP4 \t\t\t\n      PUSH [tag] 987\t\t\t\n      JUMP \t\t\t\n    tag 1564\t\t\t\n      JUMPDEST \t\t\t\n      SWAP2 \t\t\t\n      POP \t\t\t\n      PUSH [tag] 1565\t\t\t\n      DUP3 \t\t\t\n      PUSH [tag] 1036\t\t\t\n      JUMP \t\t\t\n    tag 1565\t\t\t\n      JUMPDEST \t\t\t\n      PUSH 20\t\t\t\n      DUP3 \t\t\t\n      ADD \t\t\t\n      SWAP1 \t\t\t\n      POP \t\t\t\n      SWAP2 \t\t\t\n      SWAP1 \t\t\t\n      POP \t\t\t\n      JUMP \t\t\t\n    tag 642\t\t\t\n      JUMPDEST \t\t\t\n      PUSH 0\t\t\t\n      PUSH 20\t\t\t\n      DUP3 \t\t\t\n      ADD \t\t\t\n      SWAP1 \t\t\t\n      POP \t\t\t\n      DUP2 \t\t\t\n      DUP2 \t\t\t\n      SUB \t\t\t\n      PUSH 0\t\t\t\n      DUP4 \t\t\t\n      ADD \t\t\t\n      MSTORE \t\t\t\n      PUSH [tag] 1567\t\t\t\n      DUP2 \t\t\t\n      PUSH [tag] 1037\t\t\t\n      JUMP \t\t\t\n    tag 1567\t\t\t\n      JUMPDEST \t\t\t\n      SWAP1 \t\t\t\n      POP \t\t\t\n      SWAP2 \t\t\t\n      SWAP1 \t\t\t\n      POP \t\t\t\n      JUMP \t\t\t\n    tag 1038\t\t\t\n      JUMPDEST \t\t\t\n      PUSH 0\t\t\t\n      DUP2 \t\t\t\n      PUSH 60\t\t\t\n      SHL \t\t\t\n      SWAP1 \t\t\t\n      POP \t\t\t\n      SWAP2 \t\t\t\n      SWAP1 \t\t\t\n      POP \t\t\t\n      JUMP \t\t\t\n    tag 1039\t\t\t\n      JUMPDEST \t\t\t\n      PUSH 0\t\t\t\n      PUSH [tag] 1570\t\t\t\n      DUP3 \t\t\t\n      PUSH [tag] 1038\t\t\t\n      JUMP \t\t\t\n    tag 1570\t\t\t\n      JUMPDEST \t\t\t\n      SWAP1 \t\t\t\n      POP \t\t\t\n      SWAP2 \t\t\t\n      SWAP1 \t\t\t\n      POP \t\t\t\n      JUMP \t\t\t\n    tag 1040\t\t\t\n      JUMPDEST \t\t\t\n      PUSH 0\t\t\t\n      PUSH [tag] 1572\t\t\t\n      DUP3 \t\t\t\n      PUSH [tag] 1039\t\t\t\n      JUMP \t\t\t\n    tag 1572\t\t\t\n      JUMPDEST \t\t\t\n      SWAP1 \t\t\t\n      POP \t\t\t\n      SWAP2 \t\t\t\n      SWAP1 \t\t\t\n      POP \t\t\t\n      JUMP \t\t\t\n    tag 1041\t\t\t\n      JUMPDEST \t\t\t\n      PUSH [tag] 1574\t\t\t\n      PUSH [tag] 1575\t\t\t\n      DUP3 \t\t\t\n      PUSH [tag] 917\t\t\t\n      JUMP \t\t\t\n    tag 1575\t\t\t\n      JUMPDEST \t\t\t\n      PUSH [tag] 1040\t\t\t\n      JUMP \t\t\t\n    tag 1574\t\t\t\n      JUMPDEST \t\t\t\n      DUP3 \t\t\t\n      MSTORE \t\t\t\n      POP \t\t\t\n      POP \t\t\t\n      JUMP \t\t\t\n    tag 664\t\t\t\n      JUMPDEST \t\t\t\n      PUSH 0\t\t\t\n      PUSH [tag] 1577\t\t\t\n      DUP3 \t\t\t\n      DUP6 \t\t\t\n      PUSH [tag] 1041\t\t\t\n      JUMP \t\t\t\n    tag 1577\t\t\t\n      JUMPDEST \t\t\t\n      PUSH 14\t\t\t\n      DUP3 \t\t\t\n      ADD \t\t\t\n      SWAP2 \t\t\t\n      POP \t\t\t\n      PUSH [tag] 1578\t\t\t\n      DUP3 \t\t\t\n      DUP5 \t\t\t\n      PUSH [tag] 1041\t\t\t\n      JUMP \t\t\t\n    tag 1578\t\t\t\n      JUMPDEST \t\t\t\n      PUSH 14\t\t\t\n      DUP3 \t\t\t\n      ADD \t\t\t\n      SWAP2 \t\t\t\n      POP \t\t\t\n      DUP2 \t\t\t\n      SWAP1 \t\t\t\n      POP \t\t\t\n      SWAP4 \t\t\t\n      SWAP3 \t\t\t\n      POP \t\t\t\n      POP \t\t\t\n      POP \t\t\t\n      JUMP \t\t\t\n    tag 1042\t\t\t\n      JUMPDEST \t\t\t\n      PUSH 5265717565737420496420656D70747900000000000000000000000000000000\t\t\t\n      PUSH 0\t\t\t\n      DUP3 \t\t\t\n      ADD \t\t\t\n      MSTORE \t\t\t\n      POP \t\t\t\n      JUMP \t\t\t\n    tag 1043\t\t\t\n      JUMPDEST \t\t\t\n      PUSH 0\t\t\t\n      PUSH [tag] 1581\t\t\t\n      PUSH 10\t\t\t\n      DUP4 \t\t\t\n      PUSH [tag] 987\t\t\t\n      JUMP \t\t\t\n    tag 1581\t\t\t\n      JUMPDEST \t\t\t\n      SWAP2 \t\t\t\n      POP \t\t\t\n      PUSH [tag] 1582\t\t\t\n      DUP3 \t\t\t\n      PUSH [tag] 1042\t\t\t\n      JUMP \t\t\t\n    tag 1582\t\t\t\n      JUMPDEST \t\t\t\n      PUSH 20\t\t\t\n      DUP3 \t\t\t\n      ADD \t\t\t\n      SWAP1 \t\t\t\n      POP \t\t\t\n      SWAP2 \t\t\t\n      SWAP1 \t\t\t\n      POP \t\t\t\n      JUMP \t\t\t\n    tag 669\t\t\t\n      JUMPDEST \t\t\t\n      PUSH 0\t\t\t\n      PUSH 20\t\t\t\n      DUP3 \t\t\t\n      ADD \t\t\t\n      SWAP1 \t\t\t\n      POP \t\t\t\n      DUP2 \t\t\t\n      DUP2 \t\t\t\n      SUB \t\t\t\n      PUSH 0\t\t\t\n      DUP4 \t\t\t\n      ADD \t\t\t\n      MSTORE \t\t\t\n      PUSH [tag] 1584\t\t\t\n      DUP2 \t\t\t\n      PUSH [tag] 1043\t\t\t\n      JUMP \t\t\t\n    tag 1584\t\t\t\n      JUMPDEST \t\t\t\n      SWAP1 \t\t\t\n      POP \t\t\t\n      SWAP2 \t\t\t\n      SWAP1 \t\t\t\n      POP \t\t\t\n      JUMP \t\t\t\n    tag 1044\t\t\t\n      JUMPDEST \t\t\t\n      PUSH 496420697320656D707479000000000000000000000000000000000000000000\t\t\t\n      PUSH 0\t\t\t\n      DUP3 \t\t\t\n      ADD \t\t\t\n      MSTORE \t\t\t\n      POP \t\t\t\n      JUMP \t\t\t\n    tag 1045\t\t\t\n      JUMPDEST \t\t\t\n      PUSH 0\t\t\t\n      PUSH [tag] 1587\t\t\t\n      PUSH B\t\t\t\n      DUP4 \t\t\t\n      PUSH [tag] 987\t\t\t\n      JUMP \t\t\t\n    tag 1587\t\t\t\n      JUMPDEST \t\t\t\n      SWAP2 \t\t\t\n      POP \t\t\t\n      PUSH [tag] 1588\t\t\t\n      DUP3 \t\t\t\n      PUSH [tag] 1044\t\t\t\n      JUMP \t\t\t\n    tag 1588\t\t\t\n      JUMPDEST \t\t\t\n      PUSH 20\t\t\t\n      DUP3 \t\t\t\n      ADD \t\t\t\n      SWAP1 \t\t\t\n      POP \t\t\t\n      SWAP2 \t\t\t\n      SWAP1 \t\t\t\n      POP \t\t\t\n      JUMP \t\t\t\n    tag 680\t\t\t\n      JUMPDEST \t\t\t\n      PUSH 0\t\t\t\n      PUSH 20\t\t\t\n      DUP3 \t\t\t\n      ADD \t\t\t\n      SWAP1 \t\t\t\n      POP \t\t\t\n      DUP2 \t\t\t\n      DUP2 \t\t\t\n      SUB \t\t\t\n      PUSH 0\t\t\t\n      DUP4 \t\t\t\n      ADD \t\t\t\n      MSTORE \t\t\t\n      PUSH [tag] 1590\t\t\t\n      DUP2 \t\t\t\n      PUSH [tag] 1045\t\t\t\n      JUMP \t\t\t\n    tag 1590\t\t\t\n      JUMPDEST \t\t\t\n      SWAP1 \t\t\t\n      POP \t\t\t\n      SWAP2 \t\t\t\n      SWAP1 \t\t\t\n      POP \t\t\t\n      JUMP \t\t\t\n    tag 1046\t\t\t\n      JUMPDEST \t\t\t\n      PUSH 42616E6B20657869737473000000000000000000000000000000000000000000\t\t\t\n      PUSH 0\t\t\t\n      DUP3 \t\t\t\n      ADD \t\t\t\n      MSTORE \t\t\t\n      POP \t\t\t\n      JUMP \t\t\t\n    tag 1047\t\t\t\n      JUMPDEST \t\t\t\n      PUSH 0\t\t\t\n      PUSH [tag] 1593\t\t\t\n      PUSH B\t\t\t\n      DUP4 \t\t\t\n      PUSH [tag] 987\t\t\t\n      JUMP \t\t\t\n    tag 1593\t\t\t\n      JUMPDEST \t\t\t\n      SWAP2 \t\t\t\n      POP \t\t\t\n      PUSH [tag] 1594\t\t\t\n      DUP3 \t\t\t\n      PUSH [tag] 1046\t\t\t\n      JUMP \t\t\t\n    tag 1594\t\t\t\n      JUMPDEST \t\t\t\n      PUSH 20\t\t\t\n      DUP3 \t\t\t\n      ADD \t\t\t\n      SWAP1 \t\t\t\n      POP \t\t\t\n      SWAP2 \t\t\t\n      SWAP1 \t\t\t\n      POP \t\t\t\n      JUMP \t\t\t\n    tag 692\t\t\t\n      JUMPDEST \t\t\t\n      PUSH 0\t\t\t\n      PUSH 20\t\t\t\n      DUP3 \t\t\t\n      ADD \t\t\t\n      SWAP1 \t\t\t\n      POP \t\t\t\n      DUP2 \t\t\t\n      DUP2 \t\t\t\n      SUB \t\t\t\n      PUSH 0\t\t\t\n      DUP4 \t\t\t\n      ADD \t\t\t\n      MSTORE \t\t\t\n      PUSH [tag] 1596\t\t\t\n      DUP2 \t\t\t\n      PUSH [tag] 1047\t\t\t\n      JUMP \t\t\t\n    tag 1596\t\t\t\n      JUMPDEST \t\t\t\n      SWAP1 \t\t\t\n      POP \t\t\t\n      SWAP2 \t\t\t\n      SWAP1 \t\t\t\n      POP \t\t\t\n      JUMP \t\t\t\n    tag 700\t\t\t\n      JUMPDEST \t\t\t\n      PUSH 0\t\t\t\n      PUSH 80\t\t\t\n      DUP3 \t\t\t\n      ADD \t\t\t\n      SWAP1 \t\t\t\n      POP \t\t\t\n      PUSH [tag] 1598\t\t\t\n      PUSH 0\t\t\t\n      DUP4 \t\t\t\n      ADD \t\t\t\n      DUP8 \t\t\t\n      PUSH [tag] 1027\t\t\t\n      JUMP \t\t\t\n    tag 1598\t\t\t\n      JUMPDEST \t\t\t\n      DUP2 \t\t\t\n      DUP2 \t\t\t\n      SUB \t\t\t\n      PUSH 20\t\t\t\n      DUP4 \t\t\t\n      ADD \t\t\t\n      MSTORE \t\t\t\n      PUSH [tag] 1599\t\t\t\n      DUP2 \t\t\t\n      DUP7 \t\t\t\n      PUSH [tag] 1020\t\t\t\n      JUMP \t\t\t\n    tag 1599\t\t\t\n      JUMPDEST \t\t\t\n      SWAP1 \t\t\t\n      POP \t\t\t\n      DUP2 \t\t\t\n      DUP2 \t\t\t\n      SUB \t\t\t\n      PUSH 40\t\t\t\n      DUP4 \t\t\t\n      ADD \t\t\t\n      MSTORE \t\t\t\n      PUSH [tag] 1600\t\t\t\n      DUP2 \t\t\t\n      DUP6 \t\t\t\n      PUSH [tag] 1020\t\t\t\n      JUMP \t\t\t\n    tag 1600\t\t\t\n      JUMPDEST \t\t\t\n      SWAP1 \t\t\t\n      POP \t\t\t\n      DUP2 \t\t\t\n      DUP2 \t\t\t\n      SUB \t\t\t\n      PUSH 60\t\t\t\n      DUP4 \t\t\t\n      ADD \t\t\t\n      MSTORE \t\t\t\n      PUSH [tag] 1601\t\t\t\n      DUP2 \t\t\t\n      DUP5 \t\t\t\n      PUSH [tag] 1020\t\t\t\n      JUMP \t\t\t\n    tag 1601\t\t\t\n      JUMPDEST \t\t\t\n      SWAP1 \t\t\t\n      POP \t\t\t\n      SWAP6 \t\t\t\n      SWAP5 \t\t\t\n      POP \t\t\t\n      POP \t\t\t\n      POP \t\t\t\n      POP \t\t\t\n      POP \t\t\t\n      JUMP \t\t\t\n    tag 707\t\t\t\n      JUMPDEST \t\t\t\n      PUSH 0\t\t\t\n      PUSH 60\t\t\t\n      DUP3 \t\t\t\n      ADD \t\t\t\n      SWAP1 \t\t\t\n      POP \t\t\t\n      PUSH [tag] 1603\t\t\t\n      PUSH 0\t\t\t\n      DUP4 \t\t\t\n      ADD \t\t\t\n      DUP7 \t\t\t\n      PUSH [tag] 1027\t\t\t\n      JUMP \t\t\t\n    tag 1603\t\t\t\n      JUMPDEST \t\t\t\n      DUP2 \t\t\t\n      DUP2 \t\t\t\n      SUB \t\t\t\n      PUSH 20\t\t\t\n      DUP4 \t\t\t\n      ADD \t\t\t\n      MSTORE \t\t\t\n      PUSH [tag] 1604\t\t\t\n      DUP2 \t\t\t\n      DUP6 \t\t\t\n      PUSH [tag] 1020\t\t\t\n      JUMP \t\t\t\n    tag 1604\t\t\t\n      JUMPDEST \t\t\t\n      SWAP1 \t\t\t\n      POP \t\t\t\n      DUP2 \t\t\t\n      DUP2 \t\t\t\n      SUB \t\t\t\n      PUSH 40\t\t\t\n      DUP4 \t\t\t\n      ADD \t\t\t\n      MSTORE \t\t\t\n      PUSH [tag] 1605\t\t\t\n      DUP2 \t\t\t\n      DUP5 \t\t\t\n      PUSH [tag] 1020\t\t\t\n      JUMP \t\t\t\n    tag 1605\t\t\t\n      JUMPDEST \t\t\t\n      SWAP1 \t\t\t\n      POP \t\t\t\n      SWAP5 \t\t\t\n      SWAP4 \t\t\t\n      POP \t\t\t\n      POP \t\t\t\n      POP \t\t\t\n      POP \t\t\t\n      JUMP \t\t\t\n    tag 1048\t\t\t\n      JUMPDEST \t\t\t\n      PUSH 504E2073686F756C64206265203E203000000000000000000000000000000000\t\t\t\n      PUSH 0\t\t\t\n      DUP3 \t\t\t\n      ADD \t\t\t\n      MSTORE \t\t\t\n      POP \t\t\t\n      JUMP \t\t\t\n    tag 1049\t\t\t\n      JUMPDEST \t\t\t\n      PUSH 0\t\t\t\n      PUSH [tag] 1608\t\t\t\n      PUSH 10\t\t\t\n      DUP4 \t\t\t\n      PUSH [tag] 987\t\t\t\n      JUMP \t\t\t\n    tag 1608\t\t\t\n      JUMPDEST \t\t\t\n      SWAP2 \t\t\t\n      POP \t\t\t\n      PUSH [tag] 1609\t\t\t\n      DUP3 \t\t\t\n      PUSH [tag] 1048\t\t\t\n      JUMP \t\t\t\n    tag 1609\t\t\t\n      JUMPDEST \t\t\t\n      PUSH 20\t\t\t\n      DUP3 \t\t\t\n      ADD \t\t\t\n      SWAP1 \t\t\t\n      POP \t\t\t\n      SWAP2 \t\t\t\n      SWAP1 \t\t\t\n      POP \t\t\t\n      JUMP \t\t\t\n    tag 711\t\t\t\n      JUMPDEST \t\t\t\n      PUSH 0\t\t\t\n      PUSH 20\t\t\t\n      DUP3 \t\t\t\n      ADD \t\t\t\n      SWAP1 \t\t\t\n      POP \t\t\t\n      DUP2 \t\t\t\n      DUP2 \t\t\t\n      SUB \t\t\t\n      PUSH 0\t\t\t\n      DUP4 \t\t\t\n      ADD \t\t\t\n      MSTORE \t\t\t\n      PUSH [tag] 1611\t\t\t\n      DUP2 \t\t\t\n      PUSH [tag] 1049\t\t\t\n      JUMP \t\t\t\n    tag 1611\t\t\t\n      JUMPDEST \t\t\t\n      SWAP1 \t\t\t\n      POP \t\t\t\n      SWAP2 \t\t\t\n      SWAP1 \t\t\t\n      POP \t\t\t\n      JUMP \t\t\t\n    tag 788\t\t\t\n      JUMPDEST \t\t\t\n      PUSH 0\t\t\t\n      PUSH 60\t\t\t\n      DUP3 \t\t\t\n      ADD \t\t\t\n      SWAP1 \t\t\t\n      POP \t\t\t\n      PUSH [tag] 1613\t\t\t\n      PUSH 0\t\t\t\n      DUP4 \t\t\t\n      ADD \t\t\t\n      DUP7 \t\t\t\n      PUSH [tag] 1027\t\t\t\n      JUMP \t\t\t\n    tag 1613\t\t\t\n      JUMPDEST \t\t\t\n      DUP2 \t\t\t\n      DUP2 \t\t\t\n      SUB \t\t\t\n      PUSH 20\t\t\t\n      DUP4 \t\t\t\n      ADD \t\t\t\n      MSTORE \t\t\t\n      PUSH [tag] 1614\t\t\t\n      DUP2 \t\t\t\n      DUP6 \t\t\t\n      PUSH [tag] 1021\t\t\t\n      JUMP \t\t\t\n    tag 1614\t\t\t\n      JUMPDEST \t\t\t\n      SWAP1 \t\t\t\n      POP \t\t\t\n      DUP2 \t\t\t\n      DUP2 \t\t\t\n      SUB \t\t\t\n      PUSH 40\t\t\t\n      DUP4 \t\t\t\n      ADD \t\t\t\n      MSTORE \t\t\t\n      PUSH [tag] 1615\t\t\t\n      DUP2 \t\t\t\n      DUP5 \t\t\t\n      PUSH [tag] 1020\t\t\t\n      JUMP \t\t\t\n    tag 1615\t\t\t\n      JUMPDEST \t\t\t\n      SWAP1 \t\t\t\n      POP \t\t\t\n      SWAP5 \t\t\t\n      SWAP4 \t\t\t\n      POP \t\t\t\n      POP \t\t\t\n      POP \t\t\t\n      POP \t\t\t\n      JUMP \t\t\t\n    tag 801\t\t\t\n      JUMPDEST \t\t\t\n      PUSH 0\t\t\t\n      PUSH 40\t\t\t\n      DUP3 \t\t\t\n      ADD \t\t\t\n      SWAP1 \t\t\t\n      POP \t\t\t\n      PUSH [tag] 1617\t\t\t\n      PUSH 0\t\t\t\n      DUP4 \t\t\t\n      ADD \t\t\t\n      DUP6 \t\t\t\n      PUSH [tag] 1027\t\t\t\n      JUMP \t\t\t\n    tag 1617\t\t\t\n      JUMPDEST \t\t\t\n      DUP2 \t\t\t\n      DUP2 \t\t\t\n      SUB \t\t\t\n      PUSH 20\t\t\t\n      DUP4 \t\t\t\n      ADD \t\t\t\n      MSTORE \t\t\t\n      PUSH [tag] 1618\t\t\t\n      DUP2 \t\t\t\n      DUP5 \t\t\t\n      PUSH [tag] 1021\t\t\t\n      JUMP \t\t\t\n    tag 1618\t\t\t\n      JUMPDEST \t\t\t\n      SWAP1 \t\t\t\n      POP \t\t\t\n      SWAP4 \t\t\t\n      SWAP3 \t\t\t\n      POP \t\t\t\n      POP \t\t\t\n      POP \t\t\t\n      JUMP \t\t\t\n    tag 1050\t\t\t\n      JUMPDEST \t\t\t\n      PUSH 504E2073686F756C64206265203E207A65726F00000000000000000000000000\t\t\t\n      PUSH 0\t\t\t\n      DUP3 \t\t\t\n      ADD \t\t\t\n      MSTORE \t\t\t\n      POP \t\t\t\n      JUMP \t\t\t\n    tag 1051\t\t\t\n      JUMPDEST \t\t\t\n      PUSH 0\t\t\t\n      PUSH [tag] 1621\t\t\t\n      PUSH 13\t\t\t\n      DUP4 \t\t\t\n      PUSH [tag] 987\t\t\t\n      JUMP \t\t\t\n    tag 1621\t\t\t\n      JUMPDEST \t\t\t\n      SWAP2 \t\t\t\n      POP \t\t\t\n      PUSH [tag] 1622\t\t\t\n      DUP3 \t\t\t\n      PUSH [tag] 1050\t\t\t\n      JUMP \t\t\t\n    tag 1622\t\t\t\n      JUMPDEST \t\t\t\n      PUSH 20\t\t\t\n      DUP3 \t\t\t\n      ADD \t\t\t\n      SWAP1 \t\t\t\n      POP \t\t\t\n      SWAP2 \t\t\t\n      SWAP1 \t\t\t\n      POP \t\t\t\n      JUMP \t\t\t\n    tag 816\t\t\t\n      JUMPDEST \t\t\t\n      PUSH 0\t\t\t\n      PUSH 20\t\t\t\n      DUP3 \t\t\t\n      ADD \t\t\t\n      SWAP1 \t\t\t\n      POP \t\t\t\n      DUP2 \t\t\t\n      DUP2 \t\t\t\n      SUB \t\t\t\n      PUSH 0\t\t\t\n      DUP4 \t\t\t\n      ADD \t\t\t\n      MSTORE \t\t\t\n      PUSH [tag] 1624\t\t\t\n      DUP2 \t\t\t\n      PUSH [tag] 1051\t\t\t\n      JUMP \t\t\t\n    tag 1624\t\t\t\n      JUMPDEST \t\t\t\n      SWAP1 \t\t\t\n      POP \t\t\t\n      SWAP2 \t\t\t\n      SWAP1 \t\t\t\n      POP \t\t\t\n      JUMP \t\t\t\n    tag 882\t\t\t\n      JUMPDEST \t\t\t\n      PUSH 0\t\t\t\n      PUSH [tag] 1626\t\t\t\n      DUP3 \t\t\t\n      PUSH [tag] 929\t\t\t\n      JUMP \t\t\t\n    tag 1626\t\t\t\n      JUMPDEST \t\t\t\n      SWAP2 \t\t\t\n      POP \t\t\t\n      PUSH FFFF\t\t\t\n      DUP3 \t\t\t\n      SUB \t\t\t\n      PUSH [tag] 1627\t\t\t\n      JUMPI \t\t\t\n      PUSH [tag] 1628\t\t\t\n      PUSH [tag] 1024\t\t\t\n      JUMP \t\t\t\n    tag 1628\t\t\t\n      JUMPDEST \t\t\t\n    tag 1627\t\t\t\n      JUMPDEST \t\t\t\n      PUSH 1\t\t\t\n      DUP3 \t\t\t\n      ADD \t\t\t\n      SWAP1 \t\t\t\n      POP \t\t\t\n      SWAP2 \t\t\t\n      SWAP1 \t\t\t\n      POP \t\t\t\n      JUMP \t\t\t\n    tag 1052\t\t\t\n      JUMPDEST \t\t\t\n      PUSH 437573746F6D657220496420456D707479000000000000000000000000000000\t\t\t\n      PUSH 0\t\t\t\n      DUP3 \t\t\t\n      ADD \t\t\t\n      MSTORE \t\t\t\n      POP \t\t\t\n      JUMP \t\t\t\n    tag 1053\t\t\t\n      JUMPDEST \t\t\t\n      PUSH 0\t\t\t\n      PUSH [tag] 1631\t\t\t\n      PUSH 11\t\t\t\n      DUP4 \t\t\t\n      PUSH [tag] 987\t\t\t\n      JUMP \t\t\t\n    tag 1631\t\t\t\n      JUMPDEST \t\t\t\n      SWAP2 \t\t\t\n      POP \t\t\t\n      PUSH [tag] 1632\t\t\t\n      DUP3 \t\t\t\n      PUSH [tag] 1052\t\t\t\n      JUMP \t\t\t\n    tag 1632\t\t\t\n      JUMPDEST \t\t\t\n      PUSH 20\t\t\t\n      DUP3 \t\t\t\n      ADD \t\t\t\n      SWAP1 \t\t\t\n      POP \t\t\t\n      SWAP2 \t\t\t\n      SWAP1 \t\t\t\n      POP \t\t\t\n      JUMP \t\t\t\n    tag 886\t\t\t\n      JUMPDEST \t\t\t\n      PUSH 0\t\t\t\n      PUSH 20\t\t\t\n      DUP3 \t\t\t\n      ADD \t\t\t\n      SWAP1 \t\t\t\n      POP \t\t\t\n      DUP2 \t\t\t\n      DUP2 \t\t\t\n      SUB \t\t\t\n      PUSH 0\t\t\t\n      DUP4 \t\t\t\n      ADD \t\t\t\n      MSTORE \t\t\t\n      PUSH [tag] 1634\t\t\t\n      DUP2 \t\t\t\n      PUSH [tag] 1053\t\t\t\n      JUMP \t\t\t\n    tag 1634\t\t\t\n      JUMPDEST \t\t\t\n      SWAP1 \t\t\t\n      POP \t\t\t\n      SWAP2 \t\t\t\n      SWAP1 \t\t\t\n      POP \t\t\t\n      JUMP \t\t\t\n    tag 1054\t\t\t\n      JUMPDEST \t\t\t\n      PUSH 4E487B7100000000000000000000000000000000000000000000000000000000\t\t\t\n      PUSH 0\t\t\t\n      MSTORE \t\t\t\n      PUSH 12\t\t\t\n      PUSH 4\t\t\t\n      MSTORE \t\t\t\n      PUSH 24\t\t\t\n      PUSH 0\t\t\t\n      REVERT \t\t\t\n    tag 889\t\t\t\n      JUMPDEST \t\t\t\n      PUSH 0\t\t\t\n      PUSH [tag] 1637\t\t\t\n      DUP3 \t\t\t\n      PUSH [tag] 925\t\t\t\n      JUMP \t\t\t\n    tag 1637\t\t\t\n      JUMPDEST \t\t\t\n      SWAP2 \t\t\t\n      POP \t\t\t\n      PUSH [tag] 1638\t\t\t\n      DUP4 \t\t\t\n      PUSH [tag] 925\t\t\t\n      JUMP \t\t\t\n    tag 1638\t\t\t\n      JUMPDEST \t\t\t\n      SWAP3 \t\t\t\n      POP \t\t\t\n      DUP3 \t\t\t\n      PUSH [tag] 1639\t\t\t\n      JUMPI \t\t\t\n      PUSH [tag] 1640\t\t\t\n      PUSH [tag] 1054\t\t\t\n      JUMP \t\t\t\n    tag 1640\t\t\t\n      JUMPDEST \t\t\t\n    tag 1639\t\t\t\n      JUMPDEST \t\t\t\n      DUP3 \t\t\t\n      DUP3 \t\t\t\n      MOD \t\t\t\n      SWAP1 \t\t\t\n      POP \t\t\t\n      SWAP3 \t\t\t\n      SWAP2 \t\t\t\n      POP \t\t\t\n      POP \t\t\t\n      JUMP \t\t\t\n    tag 891\t\t\t\n      JUMPDEST \t\t\t\n      PUSH 0\t\t\t\n      PUSH [tag] 1642\t\t\t\n      DUP3 \t\t\t\n      PUSH [tag] 925\t\t\t\n      JUMP \t\t\t\n    tag 1642\t\t\t\n      JUMPDEST \t\t\t\n      SWAP2 \t\t\t\n      POP \t\t\t\n      PUSH [tag] 1643\t\t\t\n      DUP4 \t\t\t\n      PUSH [tag] 925\t\t\t\n      JUMP \t\t\t\n    tag 1643\t\t\t\n      JUMPDEST \t\t\t\n      SWAP3 \t\t\t\n      POP \t\t\t\n      DUP3 \t\t\t\n      PUSH [tag] 1644\t\t\t\n      JUMPI \t\t\t\n      PUSH [tag] 1645\t\t\t\n      PUSH [tag] 1054\t\t\t\n      JUMP \t\t\t\n    tag 1645\t\t\t\n      JUMPDEST \t\t\t\n    tag 1644\t\t\t\n      JUMPDEST \t\t\t\n      DUP3 \t\t\t\n      DUP3 \t\t\t\n      DIV \t\t\t\n      SWAP1 \t\t\t\n      POP \t\t\t\n      SWAP3 \t\t\t\n      SWAP2 \t\t\t\n      POP \t\t\t\n      POP \t\t\t\n      JUMP \t\t\t\n    tag 895\t\t\t\n      JUMPDEST \t\t\t\n      PUSH 0\t\t\t\n      PUSH [tag] 1647\t\t\t\n      DUP3 \t\t\t\n      PUSH [tag] 925\t\t\t\n      JUMP \t\t\t\n    tag 1647\t\t\t\n      JUMPDEST \t\t\t\n      SWAP2 \t\t\t\n      POP \t\t\t\n      PUSH [tag] 1648\t\t\t\n      DUP4 \t\t\t\n      PUSH [tag] 925\t\t\t\n      JUMP \t\t\t\n    tag 1648\t\t\t\n      JUMPDEST \t\t\t\n      SWAP3 \t\t\t\n      POP \t\t\t\n      DUP3 \t\t\t\n      DUP3 \t\t\t\n      SUB \t\t\t\n      SWAP1 \t\t\t\n      POP \t\t\t\n      DUP2 \t\t\t\n      DUP2 \t\t\t\n      GT \t\t\t\n      ISZERO \t\t\t\n      PUSH [tag] 1649\t\t\t\n      JUMPI \t\t\t\n      PUSH [tag] 1650\t\t\t\n      PUSH [tag] 1024\t\t\t\n      JUMP \t\t\t\n    tag 1650\t\t\t\n      JUMPDEST \t\t\t\n    tag 1649\t\t\t\n      JUMPDEST \t\t\t\n      SWAP3 \t\t\t\n      SWAP2 \t\t\t\n      POP \t\t\t\n      POP \t\t\t\n      JUMP \t\t\t\n    tag 897\t\t\t\n      JUMPDEST \t\t\t\n      PUSH 0\t\t\t\n      PUSH [tag] 1652\t\t\t\n      DUP3 \t\t\t\n      PUSH [tag] 925\t\t\t\n      JUMP \t\t\t\n    tag 1652\t\t\t\n      JUMPDEST \t\t\t\n      SWAP2 \t\t\t\n      POP \t\t\t\n      PUSH [tag] 1653\t\t\t\n      DUP4 \t\t\t\n      PUSH [tag] 925\t\t\t\n      JUMP \t\t\t\n    tag 1653\t\t\t\n      JUMPDEST \t\t\t\n      SWAP3 \t\t\t\n      POP \t\t\t\n      DUP3 \t\t\t\n      DUP3 \t\t\t\n      MUL \t\t\t\n      PUSH [tag] 1654\t\t\t\n      DUP2 \t\t\t\n      PUSH [tag] 925\t\t\t\n      JUMP \t\t\t\n    tag 1654\t\t\t\n      JUMPDEST \t\t\t\n      SWAP2 \t\t\t\n      POP \t\t\t\n      DUP3 \t\t\t\n      DUP3 \t\t\t\n      DIV \t\t\t\n      DUP5 \t\t\t\n      EQ \t\t\t\n      DUP4 \t\t\t\n      ISZERO \t\t\t\n      OR \t\t\t\n      PUSH [tag] 1655\t\t\t\n      JUMPI \t\t\t\n      PUSH [tag] 1656\t\t\t\n      PUSH [tag] 1024\t\t\t\n      JUMP \t\t\t\n    tag 1656\t\t\t\n      JUMPDEST \t\t\t\n    tag 1655\t\t\t\n      JUMPDEST \t\t\t\n      POP \t\t\t\n      SWAP3 \t\t\t\n      SWAP2 \t\t\t\n      POP \t\t\t\n      POP \t\t\t\n      JUMP \t\t\t\n    .data\n"
}